{
	"data": {
		"bytecode": {
			"linkReferences": {},
			"object": "608060405234801562000010575f80fd5b50620000316200002562000ef660201b60201c565b62000efd60201b60201c565b5f600167ffffffffffffffff81111562000050576200004f62001177565b5b6040519080825280602002602001820160405280156200007f5781602001602082028036833780820191505090505b5090506041815f815181106200009a5762000099620011a4565b5b602002602001019060c6811115620000b757620000b6620011d1565b5b908160c6811115620000ce57620000cd620011d1565b5b815250505f600167ffffffffffffffff811115620000f157620000f062001177565b5b604051908082528060200260200182016040528015620001205781602001602082028036833780820191505090505b5090506040815f815181106200013b576200013a620011a4565b5b602002602001019060c6811115620001585762000157620011d1565b5b908160c68111156200016f576200016e620011d1565b5b815250505f600167ffffffffffffffff81111562000192576200019162001177565b5b604051908082528060200260200182016040528015620001c15781602001602082028036833780820191505090505b50905060c6815f81518110620001dc57620001db620011a4565b5b602002602001019060c6811115620001f957620001f8620011d1565b5b908160c681111562000210576200020f620011d1565b5b815250505f600467ffffffffffffffff81111562000233576200023262001177565b5b604051908082528060200260200182016040528015620002625781602001602082028036833780820191505090505b50905060c6815f815181106200027d576200027c620011a4565b5b602002602001019060c68111156200029a5762000299620011d1565b5b908160c6811115620002b157620002b0620011d1565b5b81525050606381600181518110620002ce57620002cd620011a4565b5b602002602001019060c6811115620002eb57620002ea620011d1565b5b908160c6811115620003025762000301620011d1565b5b815250506063816002815181106200031f576200031e620011a4565b5b602002602001019060c68111156200033c576200033b620011d1565b5b908160c6811115620003535762000352620011d1565b5b8152505060418160038151811062000370576200036f620011a4565b5b602002602001019060c68111156200038d576200038c620011d1565b5b908160c6811115620003a457620003a3620011d1565b5b815250505f600267ffffffffffffffff811115620003c757620003c662001177565b5b604051908082528060200260200182016040528015620003f65781602001602082028036833780820191505090505b5090506040815f81518110620004115762000410620011a4565b5b602002602001019060c68111156200042e576200042d620011d1565b5b908160c6811115620004455762000444620011d1565b5b815250505f81600181518110620004615762000460620011a4565b5b602002602001019060c68111156200047e576200047d620011d1565b5b908160c6811115620004955762000494620011d1565b5b815250505f600267ffffffffffffffff811115620004b857620004b762001177565b5b604051908082528060200260200182016040528015620004e75781602001602082028036833780820191505090505b5090506040815f81518110620005025762000501620011a4565b5b602002602001019060c68111156200051f576200051e620011d1565b5b908160c6811115620005365762000535620011d1565b5b81525050604081600181518110620005535762000552620011a4565b5b602002602001019060c681111562000570576200056f620011d1565b5b908160c6811115620005875762000586620011d1565b5b815250505f600367ffffffffffffffff811115620005aa57620005a962001177565b5b604051908082528060200260200182016040528015620005d95781602001602082028036833780820191505090505b5090506063815f81518110620005f457620005f3620011a4565b5b602002602001019060c6811115620006115762000610620011d1565b5b908160c6811115620006285762000627620011d1565b5b81525050604081600181518110620006455762000644620011a4565b5b602002602001019060c6811115620006625762000661620011d1565b5b908160c6811115620006795762000678620011d1565b5b81525050604081600281518110620006965762000695620011a4565b5b602002602001019060c6811115620006b357620006b2620011d1565b5b908160c6811115620006ca57620006c9620011d1565b5b815250505f600367ffffffffffffffff811115620006ed57620006ec62001177565b5b6040519080825280602002602001820160405280156200071c5781602001602082028036833780820191505090505b5090506041815f81518110620007375762000736620011a4565b5b602002602001019060c6811115620007545762000753620011d1565b5b908160c68111156200076b576200076a620011d1565b5b81525050604081600181518110620007885762000787620011a4565b5b602002602001019060c6811115620007a557620007a4620011d1565b5b908160c6811115620007bc57620007bb620011d1565b5b81525050604081600281518110620007d957620007d8620011a4565b5b602002602001019060c6811115620007f657620007f5620011d1565b5b908160c68111156200080d576200080c620011d1565b5b815250505f600367ffffffffffffffff81111562000830576200082f62001177565b5b6040519080825280602002602001820160405280156200085f5781602001602082028036833780820191505090505b5090506040815f815181106200087a5762000879620011a4565b5b602002602001019060c6811115620008975762000896620011d1565b5b908160c6811115620008ae57620008ad620011d1565b5b81525050606381600181518110620008cb57620008ca620011a4565b5b602002602001019060c6811115620008e857620008e7620011d1565b5b908160c6811115620008ff57620008fe620011d1565b5b815250506041816002815181106200091c576200091b620011a4565b5b602002602001019060c6811115620009395762000938620011d1565b5b908160c681111562000950576200094f620011d1565b5b815250505f600267ffffffffffffffff81111562000973576200097262001177565b5b604051908082528060200260200182016040528015620009a25781602001602082028036833780820191505090505b5090506041815f81518110620009bd57620009bc620011a4565b5b602002602001019060c6811115620009da57620009d9620011d1565b5b908160c6811115620009f157620009f0620011d1565b5b815250505f8160018151811062000a0d5762000a0c620011a4565b5b602002602001019060c681111562000a2a5762000a29620011d1565b5b908160c681111562000a415762000a40620011d1565b5b8152505062000adb6040518060400160405280600b81526020017f73657446656174757265640000000000000000000000000000000000000000008152506002875f67ffffffffffffffff81111562000a9f5762000a9e62001177565b5b60405190808252806020026020018201604052801562000ace5781602001602082028036833780820191505090505b5062000fbe60201b60201c565b62000b256040518060400160405280600881526020017f706f7374566962650000000000000000000000000000000000000000000000008152506001898c62000fbe60201b60201c565b62000bbb6040518060400160405280600a81526020017f64656c657465566962650000000000000000000000000000000000000000000081525060028b5f67ffffffffffffffff81111562000b7f5762000b7e62001177565b5b60405190808252806020026020018201604052801562000bae5781602001602082028036833780820191505090505b5062000fbe60201b60201c565b62000c516040518060400160405280600b81526020017f616464466561747572656400000000000000000000000000000000000000000081525060018b5f67ffffffffffffffff81111562000c155762000c1462001177565b5b60405190808252806020026020018201604052801562000c445781602001602082028036833780820191505090505b5062000fbe60201b60201c565b62000c9a6040518060400160405280600781526020017f67657456696265000000000000000000000000000000000000000000000000008152505f8b8562000fbe60201b60201c565b62000ce36040518060400160405280600881526020017f67657456696265730000000000000000000000000000000000000000000000008152505f878b62000fbe60201b60201c565b62000d2c6040518060400160405280601881526020017f67657456696265496442794665617475726564496e64657800000000000000008152505f8b8c62000fbe60201b60201c565b62000d756040518060400160405280601281526020017f6765745669626573427943617465676f727900000000000000000000000000008152505f868b62000fbe60201b60201c565b62000dbe6040518060400160405280601181526020017f67657456696265734279416464726573730000000000000000000000000000008152505f858b62000fbe60201b60201c565b62000e076040518060400160405280601281526020017f67657456696265734279466561747572656400000000000000000000000000008152505f878b62000fbe60201b60201c565b62000e9d6040518060400160405280600c81526020017f736574426c61636b6c69737400000000000000000000000000000000000000008152506002835f67ffffffffffffffff81111562000e615762000e6062001177565b5b60405190808252806020026020018201604052801562000e905781602001602082028036833780820191505090505b5062000fbe60201b60201c565b62000ee66040518060400160405280600b81526020017f6973426c61636b6c6973740000000000000000000000000000000000000000008152505f8c8462000fbe60201b60201c565b505050505050505050506200159b565b5f33905090565b5f805f9054906101000a900473ffffffffffffffffffffffffffffffffffffffff169050815f806101000a81548173ffffffffffffffffffffffffffffffffffffffff021916908373ffffffffffffffffffffffffffffffffffffffff1602179055508173ffffffffffffffffffffffffffffffffffffffff168173ffffffffffffffffffffffffffffffffffffffff167f8be0079c531659141344cd1fd0a4f28419497f9722a3daafe3b4186f6b6457e060405160405180910390a35050565b60055f84600381111562000fd75762000fd6620011d1565b5b600381111562000fec5762000feb620011d1565b5b81526020019081526020015f2084908060018154018082558091505060019003905f5260205f20015f9091909190915090816200102a919062001435565b50816003856040516200103e919062001583565b90815260200160405180910390209080519060200190620010619291906200109f565b508060048560405162001075919062001583565b90815260200160405180910390209080519060200190620010989291906200109f565b5050505050565b828054828255905f5260205f2090601f0160209004810192821562001147579160200282015f5b838211156200111757835183826101000a81548160ff021916908360c6811115620010f657620010f5620011d1565b5b021790555092602001926001016020815f01049283019260010302620010c6565b8015620011455782816101000a81549060ff02191690556001016020815f0104928301926001030262001117565b505b5090506200115691906200115a565b5090565b5b8082111562001173575f815f9055506001016200115b565b5090565b7f4e487b71000000000000000000000000000000000000000000000000000000005f52604160045260245ffd5b7f4e487b71000000000000000000000000000000000000000000000000000000005f52603260045260245ffd5b7f4e487b71000000000000000000000000000000000000000000000000000000005f52602160045260245ffd5b5f81519050919050565b7f4e487b71000000000000000000000000000000000000000000000000000000005f52602260045260245ffd5b5f60028204905060018216806200124d57607f821691505b60208210810362001263576200126262001208565b5b50919050565b5f819050815f5260205f209050919050565b5f6020601f8301049050919050565b5f82821b905092915050565b5f60088302620012c77fffffffffffffffffffffffffffffffffffffffffffffffffffffffffffffffff826200128a565b620012d386836200128a565b95508019841693508086168417925050509392505050565b5f819050919050565b5f819050919050565b5f6200131d620013176200131184620012eb565b620012f4565b620012eb565b9050919050565b5f819050919050565b6200133883620012fd565b62001350620013478262001324565b84845462001296565b825550505050565b5f90565b6200136662001358565b620013738184846200132d565b505050565b5b818110156200139a576200138e5f826200135c565b60018101905062001379565b5050565b601f821115620013e957620013b38162001269565b620013be846200127b565b81016020851015620013ce578190505b620013e6620013dd856200127b565b83018262001378565b50505b505050565b5f82821c905092915050565b5f6200140b5f1984600802620013ee565b1980831691505092915050565b5f620014258383620013fa565b9150826002028217905092915050565b6200144082620011fe565b67ffffffffffffffff8111156200145c576200145b62001177565b5b62001468825462001235565b620014758282856200139e565b5f60209050601f831160018114620014ab575f841562001496578287015190505b620014a2858262001418565b86555062001511565b601f198416620014bb8662001269565b5f5b82811015620014e457848901518255600182019150602085019450602081019050620014bd565b8683101562001504578489015162001500601f891682620013fa565b8355505b6001600288020188555050505b505050505050565b5f81905092915050565b5f5b838110156200154257808201518184015260208101905062001525565b5f8484015250505050565b5f6200155982620011fe565b62001565818562001519565b93506200157781856020860162001523565b80840191505092915050565b5f6200159082846200154d565b915081905092915050565b6148b980620015a95f395ff3fe60806040526004361061013f575f3560e01c8063a5ccf27e116100b5578063e74fb54b1161006e578063e74fb54b146104c8578063e953647214610504578063f0f5995f14610534578063f2fde38b14610570578063f4856ccb14610598578063f7d8c1a6146105d45761013f565b8063a5ccf27e1461036c578063aff62745146103a8578063b6ae0425146103e4578063b869789114610414578063bea402e114610450578063d0b3de211461048c5761013f565b806341b833d21161010757806341b833d21461024b578063458ad6d414610289578063715018a6146102c65780638da5cb5b146102dc5780638fea7c24146103065780639fc89144146103425761013f565b806303d99bbb1461014357806309b791081461017f5780631069143a146101bb578063174cfb46146101e55780633fa2e9ce1461020f575b5f80fd5b34801561014e575f80fd5b5061016960048036038101906101649190613067565b610610565b6040516101769190613208565b60405180910390f35b34801561018a575f80fd5b506101a560048036038101906101a09190613364565b610918565b6040516101b29190613477565b60405180910390f35b3480156101c6575f80fd5b506101cf610a49565b6040516101dc91906135b2565b60405180910390f35b3480156101f0575f80fd5b506101f9610bbd565b60405161020691906135e1565b60405180910390f35b34801561021a575f80fd5b50610235600480360381019061023091906135fa565b610bc3565b60405161024291906135e1565b60405180910390f35b348015610256575f80fd5b50610271600480360381019061026c91906135fa565b610bd8565b60405161028093929190613634565b60405180910390f35b348015610294575f80fd5b506102af60048036038101906102aa9190613670565b610ca3565b6040516102bd929190613795565b60405180910390f35b3480156102d1575f80fd5b506102da610df1565b005b3480156102e7575f80fd5b506102f0610e78565b6040516102fd91906137ca565b60405180910390f35b348015610311575f80fd5b5061032c600480360381019061032791906137e3565b610e9f565b6040516103399190613208565b60405180910390f35b34801561034d575f80fd5b5061035661116b565b60405161036391906135e1565b60405180910390f35b348015610377575f80fd5b50610392600480360381019061038d9190613821565b611171565b60405161039f9190613208565b60405180910390f35b3480156103b3575f80fd5b506103ce60048036038101906103c9919061390f565b6114b7565b6040516103db91906139d7565b60405180910390f35b6103fe60048036038101906103f9919061390f565b61196d565b60405161040b91906139d7565b60405180910390f35b34801561041f575f80fd5b5061043a600480360381019061043591906137e3565b611f02565b6040516104479190613208565b60405180910390f35b34801561045b575f80fd5b50610476600480360381019061047191906139f7565b6121b6565b60405161048391906135e1565b60405180910390f35b348015610497575f80fd5b506104b260048036038101906104ad9190613a35565b6121d6565b6040516104bf9190613a7a565b60405180910390f35b3480156104d3575f80fd5b506104ee60048036038101906104e99190613a93565b6121f3565b6040516104fb91906135e1565b60405180910390f35b61051e6004803603810190610519919061390f565b61222b565b60405161052b91906139d7565b60405180910390f35b34801561053f575f80fd5b5061055a60048036038101906105559190613670565b612668565b60405161056791906135e1565b60405180910390f35b34801561057b575f80fd5b5061059660048036038101906105919190613a35565b612695565b005b3480156105a3575f80fd5b506105be60048036038101906105b99190613b10565b61278b565b6040516105cb9190613208565b60405180910390f35b3480156105df575f80fd5b506105fa60048036038101906105f59190613a35565b612894565b60405161060791906135e1565b60405180910390f35b60605f6009856040516106239190613b75565b90815260200160405180910390205490505f8103610696575f8067ffffffffffffffff81111561065657610655612f10565b5b60405190808252806020026020018201604052801561068957816020015b60608152602001906001900390816106745790505b5090508092505050610911565b6001841180156106c857506001846106ae9190613bb8565b836001836106bc9190613bb8565b6106c69190613c18565b105b15610728575f8067ffffffffffffffff8111156106e8576106e7612f10565b5b60405190808252806020026020018201604052801561071b57816020015b60608152602001906001900390816107065790505b5090508092505050610911565b5f805f90505f8560018861073c9190613bb8565b6107469190613c48565b6001856107539190613bb8565b61075d9190613bb8565b90505f8682101561077f575f90506001826107789190613c89565b935061079d565b6001878361078d9190613bb8565b6107979190613c89565b90508693505b5f8467ffffffffffffffff8111156107b8576107b7612f10565b5b6040519080825280602002602001820160405280156107eb57816020015b60608152602001906001900390816107d65790505b5090505f8390505b828112610906575f600a8c60405161080b9190613b75565b90815260200160405180910390205f8381526020019081526020015f2054905060065f8281526020019081526020015f20600101805461084a90613ce9565b80601f016020809104026020016040519081016040528092919081815260200182805461087690613ce9565b80156108c15780601f10610898576101008083540402835291602001916108c1565b820191905f5260205f20905b8154815290600101906020018083116108a457829003601f168201915b50505050508387815181106108d9576108d8613d19565b5b602002602001018190525085806108ef90613d46565b9650505080806108fe90613d96565b9150506107f3565b508096505050505050505b9392505050565b6060805f5b86518110156109ca575f81036109765761095087828151811061094357610942613d19565b5b60200260200101516128a9565b6040516020016109609190613b75565b60405160208183030381529060405291506109bd565b8161099a88838151811061098d5761098c613d19565b5b60200260200101516128a9565b6040516020016109ab929190613e61565b60405160208183030381529060405291505b808060010191505061091d565b506109d487612a39565b6109dd826128a9565b6109e6876128a9565b6109ef876128a9565b610a108773ffffffffffffffffffffffffffffffffffffffff166014612b92565b610a1942612a39565b604051602001610a2e96959493929190613e8f565b60405160208183030381529060405291505095945050505050565b60605f600467ffffffffffffffff811115610a6757610a66612f10565b5b604051908082528060200260200182016040528015610a955781602001602082028036833780820191505090505b5090505f815f81518110610aac57610aab613d19565b5b60200260200101906003811115610ac657610ac56134c0565b5b90816003811115610ada57610ad96134c0565b5b81525050600181600181518110610af457610af3613d19565b5b60200260200101906003811115610b0e57610b0d6134c0565b5b90816003811115610b2257610b216134c0565b5b81525050600281600281518110610b3c57610b3b613d19565b5b60200260200101906003811115610b5657610b556134c0565b5b90816003811115610b6a57610b696134c0565b5b81525050600381600381518110610b8457610b83613d19565b5b60200260200101906003811115610b9e57610b9d6134c0565b5b90816003811115610bb257610bb16134c0565b5b815250508091505090565b600b5481565b600c602052805f5260405f205f915090505481565b6006602052805f5260405f205f91509050805f015490806001018054610bfd90613ce9565b80601f0160208091040260200160405190810160405280929190818152602001828054610c2990613ce9565b8015610c745780601f10610c4b57610100808354040283529160200191610c74565b820191905f5260205f20905b815481529060010190602001808311610c5757829003601f168201915b505050505090806002015f9054906101000a900473ffffffffffffffffffffffffffffffffffffffff16905083565b606080600383604051610cb69190613b75565b9081526020016040518091039020600484604051610cd49190613b75565b908152602001604051809103902081805480602002602001604051908101604052809291908181526020018280548015610d5e57602002820191905f5260205f20905f905b82829054906101000a900460ff1660c6811115610d3957610d386134c0565b5b815260200190600101906020825f01049283019260010382029150808411610d195790505b5050505050915080805480602002602001604051908101604052809291908181526020018280548015610de157602002820191905f5260205f20905f905b82829054906101000a900460ff1660c6811115610dbc57610dbb6134c0565b5b815260200190600101906020825f01049283019260010382029150808411610d9c5790505b5050505050905091509150915091565b610df9612dc7565b73ffffffffffffffffffffffffffffffffffffffff16610e17610e78565b73ffffffffffffffffffffffffffffffffffffffff1614610e6d576040517f08c379a0000000000000000000000000000000000000000000000000000000008152600401610e6490613f67565b60405180910390fd5b610e765f612dce565b565b5f805f9054906101000a900473ffffffffffffffffffffffffffffffffffffffff16905090565b60605f600b5403610f04575f8067ffffffffffffffff811115610ec557610ec4612f10565b5b604051908082528060200260200182016040528015610ef857816020015b6060815260200190600190039081610ee35790505b50905080915050611165565b600183118015610f385750600183610f1c9190613bb8565b826001600b54610f2c9190613bb8565b610f369190613c18565b105b15610f97575f8067ffffffffffffffff811115610f5857610f57612f10565b5b604051908082528060200260200182016040528015610f8b57816020015b6060815260200190600190039081610f765790505b50905080915050611165565b5f805f90505f84600187610fab9190613bb8565b610fb59190613c48565b6001600b54610fc49190613bb8565b610fce9190613bb8565b90505f85821015610ff0575f9050600182610fe99190613c89565b935061100e565b60018683610ffe9190613bb8565b6110089190613c89565b90508593505b5f8467ffffffffffffffff81111561102957611028612f10565b5b60405190808252806020026020018201604052801561105c57816020015b60608152602001906001900390816110475790505b5090505f8390505b82811261115b575f600c5f8381526020019081526020015f2054905060065f8281526020019081526020015f20600101805461109f90613ce9565b80601f01602080910402602001604051908101604052809291908181526020018280546110cb90613ce9565b80156111165780601f106110ed57610100808354040283529160200191611116565b820191905f5260205f20905b8154815290600101906020018083116110f957829003601f168201915b505050505083878151811061112e5761112d613d19565b5b6020026020010181905250858061114490613d46565b96505050808061115390613d96565b915050611064565b5080955050505050505b92915050565b60015481565b60605f60075f8673ffffffffffffffffffffffffffffffffffffffff1673ffffffffffffffffffffffffffffffffffffffff1681526020019081526020015f205490505f8103611216575f8067ffffffffffffffff8111156111d6576111d5612f10565b5b60405190808252806020026020018201604052801561120957816020015b60608152602001906001900390816111f45790505b50905080925050506114b0565b600184118015611248575060018461122e9190613bb8565b8360018361123c9190613bb8565b6112469190613c18565b105b156112a8575f8067ffffffffffffffff81111561126857611267612f10565b5b60405190808252806020026020018201604052801561129b57816020015b60608152602001906001900390816112865790505b50905080925050506114b0565b5f805f90505f856001886112bc9190613bb8565b6112c69190613c48565b6001856112d39190613bb8565b6112dd9190613bb8565b90505f868210156112ff575f90506001826112f89190613c89565b935061131d565b6001878361130d9190613bb8565b6113179190613c89565b90508693505b5f8467ffffffffffffffff81111561133857611337612f10565b5b60405190808252806020026020018201604052801561136b57816020015b60608152602001906001900390816113565790505b5090505f8390505b8281126114a5575f60085f8d73ffffffffffffffffffffffffffffffffffffffff1673ffffffffffffffffffffffffffffffffffffffff1681526020019081526020015f205f8381526020019081526020015f2054905060065f8281526020019081526020015f2060010180546113e990613ce9565b80601f016020809104026020016040519081016040528092919081815260200182805461141590613ce9565b80156114605780601f1061143757610100808354040283529160200191611460565b820191905f5260205f20905b81548152906001019060200180831161144357829003601f168201915b505050505083878151811061147857611477613d19565b5b6020026020010181905250858061148e90613d46565b96505050808061149d90613d96565b915050611373565b508096505050505050505b9392505050565b60606114f8836040518060400160405280600781526020017f6765745669626500000000000000000000000000000000000000000000000000815250612e8f565b15611586575f828060200190518101906115129190613f99565b90508060065f8381526020019081526020015f2060010160065f8481526020019081526020015f206002015f9054906101000a900473ffffffffffffffffffffffffffffffffffffffff1660405160200161156f93929190614057565b604051602081830303815290604052915050611967565b6115c5836040518060400160405280600881526020017f6765745669626573000000000000000000000000000000000000000000000000815250612e8f565b1561161b575f80838060200190518101906115e09190614093565b915091505f6115ef8383611f02565b9050806040516020016116029190613208565b6040516020818303038152906040529350505050611967565b61165a836040518060400160405280601281526020017f6765745669626573427943617465676f72790000000000000000000000000000815250612e8f565b156116b5575f805f84806020019051810190611676919061413f565b9250925092505f611688848484610610565b90508060405160200161169b9190613208565b604051602081830303815290604052945050505050611967565b6116f4836040518060400160405280601181526020017f6765745669626573427941646472657373000000000000000000000000000000815250612e8f565b1561174f575f805f8480602001905181019061171091906141e6565b9250925092505f611722848484611171565b9050806040516020016117359190613208565b604051602081830303815290604052945050505050611967565b61178e836040518060400160405280601281526020017f6765745669626573427946656174757265640000000000000000000000000000815250612e8f565b156117e4575f80838060200190518101906117a99190614093565b915091505f6117b88383610e9f565b9050806040516020016117cb9190613208565b6040516020818303038152906040529350505050611967565b611823836040518060400160405280601881526020017f67657456696265496442794665617475726564496e6465780000000000000000815250612e8f565b15611878575f8280602001905181019061183d9190613f99565b9050600c5f8281526020019081526020015f205460405160200161186191906135e1565b604051602081830303815290604052915050611967565b6118b7836040518060400160405280600b81526020017f6973426c61636b6c697374000000000000000000000000000000000000000000815250612e8f565b15611946575f828060200190518101906118d19190614236565b905080600d5f8373ffffffffffffffffffffffffffffffffffffffff1673ffffffffffffffffffffffffffffffffffffffff1681526020019081526020015f205f9054906101000a900460ff1660405160200161192f929190614261565b604051602081830303815290604052915050611967565b604051602001611955906142ab565b60405160208183030381529060405290505b92915050565b6060600d5f3373ffffffffffffffffffffffffffffffffffffffff1673ffffffffffffffffffffffffffffffffffffffff1681526020019081526020015f205f9054906101000a900460ff16156119c2575f80fd5b611a01836040518060400160405280600881526020017f706f737456696265000000000000000000000000000000000000000000000000815250612e8f565b15611ded575f805f8085806020019051810190611a1e919061437c565b93509350935093505f60015490505f339050611a38610e78565b73ffffffffffffffffffffffffffffffffffffffff163373ffffffffffffffffffffffffffffffffffffffff1603611a6e578290505b5f611a7c8388888886610918565b90505f60405180606001604052808581526020018381526020018473ffffffffffffffffffffffffffffffffffffffff1681525090508060065f8681526020019081526020015f205f820151815f01556020820151816001019081611ae191906145bf565b506040820151816002015f6101000a81548173ffffffffffffffffffffffffffffffffffffffff021916908373ffffffffffffffffffffffffffffffffffffffff1602179055509050508360085f8573ffffffffffffffffffffffffffffffffffffffff1673ffffffffffffffffffffffffffffffffffffffff1681526020019081526020015f205f60075f8773ffffffffffffffffffffffffffffffffffffffff1673ffffffffffffffffffffffffffffffffffffffff1681526020019081526020015f205481526020019081526020015f20819055505f5b8851811015611ca25784600a8a8381518110611bda57611bd9613d19565b5b6020026020010151604051611bef9190613b75565b90815260200160405180910390205f60098c8581518110611c1357611c12613d19565b5b6020026020010151604051611c289190613b75565b90815260200160405180910390205481526020019081526020015f20819055506009898281518110611c5d57611c5c613d19565b5b6020026020010151604051611c729190613b75565b90815260200160405180910390205f815480929190611c9090613d46565b91905055508080600101915050611bbb565b5060075f8473ffffffffffffffffffffffffffffffffffffffff1673ffffffffffffffffffffffffffffffffffffffff1681526020019081526020015f205f815480929190611cf090613d46565b91905055507f93864668e00bfeb0cafee67ab7145a622ae39e8045304432e9a0bfb97cc04d46600154604051602001611d2991906135e1565b604051602081830303815290604052604051611d4591906139d7565b60405180910390a18273ffffffffffffffffffffffffffffffffffffffff1682604051611d729190613b75565b6040518091039020857fe89c2dfcb2cab2cc739d99147bfe163b2d662bce5ddc46c4ed83525bd7d7c78f60405160405180910390a460015f815480929190611db990613d46565b919050555083604051602001611dcf91906135e1565b60405160208183030381529060405298505050505050505050611efc565b611e2c836040518060400160405280600b81526020017f6164644665617475726564000000000000000000000000000000000000000000815250612e8f565b15611edb57611e39610e78565b73ffffffffffffffffffffffffffffffffffffffff163373ffffffffffffffffffffffffffffffffffffffff1614611e6f575f80fd5b5f82806020019051810190611e849190613f99565b905080600c5f600b5481526020019081526020015f2081905550600b5f815480929190611eb090613d46565b9190505550604051602001611ec4906142ab565b604051602081830303815290604052915050611efc565b604051602001611eea906142ab565b60405160208183030381529060405290505b92915050565b60605f60015403611f67575f8067ffffffffffffffff811115611f2857611f27612f10565b5b604051908082528060200260200182016040528015611f5b57816020015b6060815260200190600190039081611f465790505b509050809150506121b0565b600183118015611f9a5750600183611f7f9190613bb8565b8260018054611f8e9190613bb8565b611f989190613c18565b105b15611ff9575f8067ffffffffffffffff811115611fba57611fb9612f10565b5b604051908082528060200260200182016040528015611fed57816020015b6060815260200190600190039081611fd85790505b509050809150506121b0565b5f805f90505f8460018761200d9190613bb8565b6120179190613c48565b600180546120259190613bb8565b61202f9190613bb8565b90505f85821015612051575f905060018261204a9190613c89565b935061206f565b6001868361205f9190613bb8565b6120699190613c89565b90508593505b5f8467ffffffffffffffff81111561208a57612089612f10565b5b6040519080825280602002602001820160405280156120bd57816020015b60608152602001906001900390816120a85790505b5090505f8390505b8281126121a65760065f8281526020019081526020015f2060010180546120eb90613ce9565b80601f016020809104026020016040519081016040528092919081815260200182805461211790613ce9565b80156121625780601f1061213957610100808354040283529160200191612162565b820191905f5260205f20905b81548152906001019060200180831161214557829003601f168201915b505050505082868151811061217a57612179613d19565b5b6020026020010181905250848061219090613d46565b955050808061219e90613d96565b9150506120c5565b5080955050505050505b92915050565b6008602052815f5260405f20602052805f5260405f205f91509150505481565b600d602052805f5260405f205f915054906101000a900460ff1681565b600a82805160208101820180518482526020830160208501208183528095505050505050602052805f5260405f205f91509150505481565b606061226c836040518060400160405280600a81526020017f64656c6574655669626500000000000000000000000000000000000000000000815250612e8f565b15612451575f828060200190518101906122869190613f99565b905060065f8281526020019081526020015f206002015f9054906101000a900473ffffffffffffffffffffffffffffffffffffffff1673ffffffffffffffffffffffffffffffffffffffff163373ffffffffffffffffffffffffffffffffffffffff16148061232757506122f8610e78565b73ffffffffffffffffffffffffffffffffffffffff163373ffffffffffffffffffffffffffffffffffffffff16145b61232f575f80fd5b5f8067ffffffffffffffff81111561234a57612349612f10565b5b60405190808252806020026020018201604052801561237d57816020015b60608152602001906001900390816123685790505b5090506123dc828260405180602001604052805f81525060405180602001604052805f81525060065f8881526020019081526020015f206002015f9054906101000a900473ffffffffffffffffffffffffffffffffffffffff16610918565b60065f8481526020019081526020015f2060010190816123fc91906145bf565b50817f04418c4bc8f8bb88c87d3d256e12c17d607208b2658070e4f59280ab9bf256fc60405160405180910390a2604051602001612439906142ab565b60405160208183030381529060405292505050612662565b612490836040518060400160405280600b81526020017f7365744665617475726564000000000000000000000000000000000000000000815250612e8f565b1561252a5761249d610e78565b73ffffffffffffffffffffffffffffffffffffffff163373ffffffffffffffffffffffffffffffffffffffff16146124d3575f80fd5b5f80838060200190518101906124e99190614093565b9150915080600c5f8481526020019081526020015f2081905550604051602001612512906142ab565b60405160208183030381529060405292505050612662565b612569836040518060400160405280600c81526020017f736574426c61636b6c6973740000000000000000000000000000000000000000815250612e8f565b1561264157612576610e78565b73ffffffffffffffffffffffffffffffffffffffff163373ffffffffffffffffffffffffffffffffffffffff16146125ac575f80fd5b5f80838060200190518101906125c291906146b8565b9150915080600d5f8473ffffffffffffffffffffffffffffffffffffffff1673ffffffffffffffffffffffffffffffffffffffff1681526020019081526020015f205f6101000a81548160ff021916908315150217905550604051602001612629906142ab565b60405160208183030381529060405292505050612662565b604051602001612650906142ab565b60405160208183030381529060405290505b92915050565b6009818051602081018201805184825260208301602085012081835280955050505050505f915090505481565b61269d612dc7565b73ffffffffffffffffffffffffffffffffffffffff166126bb610e78565b73ffffffffffffffffffffffffffffffffffffffff1614612711576040517f08c379a000000000000000000000000000000000000000000000000000000000815260040161270890613f67565b60405180910390fd5b5f73ffffffffffffffffffffffffffffffffffffffff168173ffffffffffffffffffffffffffffffffffffffff160361277f576040517f08c379a000000000000000000000000000000000000000000000000000000000815260040161277690614766565b60405180910390fd5b61278881612dce565b50565b606060055f8360038111156127a3576127a26134c0565b5b60038111156127b5576127b46134c0565b5b81526020019081526020015f20805480602002602001604051908101604052809291908181526020015f905b82821015612889578382905f5260205f200180546127fe90613ce9565b80601f016020809104026020016040519081016040528092919081815260200182805461282a90613ce9565b80156128755780601f1061284c57610100808354040283529160200191612875565b820191905f5260205f20905b81548152906001019060200180831161285857829003601f168201915b5050505050815260200190600101906127e1565b505050509050919050565b6007602052805f5260405f205f915090505481565b60605f825190505f81036128ce5760405180602001604052805f815250915050612a34565b5f60036002836128de9190613c89565b6128e89190613c18565b60046128f49190613c48565b90505f6020826129049190613c89565b67ffffffffffffffff81111561291d5761291c612f10565b5b6040519080825280601f01601f19166020018201604052801561294f5781602001600182028036833780820191505090505b5090505f60405180606001604052806040815260200161484460409139905060018101602083015f5b868110156129f15760038101905062ffffff818a015116603f8160121c168401518060081b905060ff603f83600c1c1686015116810190508060081b905060ff603f8360061c1686015116810190508060081b905060ff603f831686015116810190508060e01b90508084526004840193505050612978565b506003860660018114612a0b5760028114612a1b57612a26565b613d3d60f01b6002830352612a26565b603d60f81b60018303525b508484525050819450505050505b919050565b60605f8203612a7f576040518060400160405280600181526020017f30000000000000000000000000000000000000000000000000000000000000008152509050612b8d565b5f8290505f5b5f8214612aae578080612a9790613d46565b915050600a82612aa79190613c18565b9150612a85565b5f8167ffffffffffffffff811115612ac957612ac8612f10565b5b6040519080825280601f01601f191660200182016040528015612afb5781602001600182028036833780820191505090505b5090505b5f8514612b8657600182612b139190613bb8565b9150600a85612b229190614784565b6030612b2e9190613c89565b60f81b818381518110612b4457612b43613d19565b5b60200101907effffffffffffffffffffffffffffffffffffffffffffffffffffffffffffff191690815f1a905350600a85612b7f9190613c18565b9450612aff565b8093505050505b919050565b60605f6002836002612ba49190613c48565b612bae9190613c89565b67ffffffffffffffff811115612bc757612bc6612f10565b5b6040519080825280601f01601f191660200182016040528015612bf95781602001600182028036833780820191505090505b5090507f3000000000000000000000000000000000000000000000000000000000000000815f81518110612c3057612c2f613d19565b5b60200101907effffffffffffffffffffffffffffffffffffffffffffffffffffffffffffff191690815f1a9053507f780000000000000000000000000000000000000000000000000000000000000081600181518110612c9357612c92613d19565b5b60200101907effffffffffffffffffffffffffffffffffffffffffffffffffffffffffffff191690815f1a9053505f6001846002612cd19190613c48565b612cdb9190613c89565b90505b6001811115612d7a577f3031323334353637383961626364656600000000000000000000000000000000600f861660108110612d1d57612d1c613d19565b5b1a60f81b828281518110612d3457612d33613d19565b5b60200101907effffffffffffffffffffffffffffffffffffffffffffffffffffffffffffff191690815f1a905350600485901c945080612d73906147b4565b9050612cde565b505f8414612dbd576040517f08c379a0000000000000000000000000000000000000000000000000000000008152600401612db490614825565b60405180910390fd5b8091505092915050565b5f33905090565b5f805f9054906101000a900473ffffffffffffffffffffffffffffffffffffffff169050815f806101000a81548173ffffffffffffffffffffffffffffffffffffffff021916908373ffffffffffffffffffffffffffffffffffffffff1602179055508173ffffffffffffffffffffffffffffffffffffffff168173ffffffffffffffffffffffffffffffffffffffff167f8be0079c531659141344cd1fd0a4f28419497f9722a3daafe3b4186f6b6457e060405160405180910390a35050565b5f81604051602001612ea19190613b75565b6040516020818303038152906040528051906020012083604051602001612ec89190613b75565b6040516020818303038152906040528051906020012014905092915050565b5f604051905090565b5f80fd5b5f80fd5b5f80fd5b5f80fd5b5f601f19601f8301169050919050565b7f4e487b71000000000000000000000000000000000000000000000000000000005f52604160045260245ffd5b612f4682612f00565b810181811067ffffffffffffffff82111715612f6557612f64612f10565b5b80604052505050565b5f612f77612ee7565b9050612f838282612f3d565b919050565b5f67ffffffffffffffff821115612fa257612fa1612f10565b5b612fab82612f00565b9050602081019050919050565b828183375f83830152505050565b5f612fd8612fd384612f88565b612f6e565b905082815260208101848484011115612ff457612ff3612efc565b5b612fff848285612fb8565b509392505050565b5f82601f83011261301b5761301a612ef8565b5b813561302b848260208601612fc6565b91505092915050565b5f819050919050565b61304681613034565b8114613050575f80fd5b50565b5f813590506130618161303d565b92915050565b5f805f6060848603121561307e5761307d612ef0565b5b5f84013567ffffffffffffffff81111561309b5761309a612ef4565b5b6130a786828701613007565b93505060206130b886828701613053565b92505060406130c986828701613053565b9150509250925092565b5f81519050919050565b5f82825260208201905092915050565b5f819050602082019050919050565b5f81519050919050565b5f82825260208201905092915050565b5f5b83811015613133578082015181840152602081019050613118565b5f8484015250505050565b5f613148826130fc565b6131528185613106565b9350613162818560208601613116565b61316b81612f00565b840191505092915050565b5f613181838361313e565b905092915050565b5f602082019050919050565b5f61319f826130d3565b6131a981856130dd565b9350836020820285016131bb856130ed565b805f5b858110156131f657848403895281516131d78582613176565b94506131e283613189565b925060208a019950506001810190506131be565b50829750879550505050505092915050565b5f6020820190508181035f8301526132208184613195565b905092915050565b5f67ffffffffffffffff82111561324257613241612f10565b5b602082029050602081019050919050565b5f80fd5b5f61326961326484613228565b612f6e565b9050808382526020820190506020840283018581111561328c5761328b613253565b5b835b818110156132d357803567ffffffffffffffff8111156132b1576132b0612ef8565b5b8086016132be8982613007565b8552602085019450505060208101905061328e565b5050509392505050565b5f82601f8301126132f1576132f0612ef8565b5b8135613301848260208601613257565b91505092915050565b5f73ffffffffffffffffffffffffffffffffffffffff82169050919050565b5f6133338261330a565b9050919050565b61334381613329565b811461334d575f80fd5b50565b5f8135905061335e8161333a565b92915050565b5f805f805f60a0868803121561337d5761337c612ef0565b5b5f61338a88828901613053565b955050602086013567ffffffffffffffff8111156133ab576133aa612ef4565b5b6133b7888289016132dd565b945050604086013567ffffffffffffffff8111156133d8576133d7612ef4565b5b6133e488828901613007565b935050606086013567ffffffffffffffff81111561340557613404612ef4565b5b61341188828901613007565b925050608061342288828901613350565b9150509295509295909350565b5f82825260208201905092915050565b5f613449826130fc565b613453818561342f565b9350613463818560208601613116565b61346c81612f00565b840191505092915050565b5f6020820190508181035f83015261348f818461343f565b905092915050565b5f81519050919050565b5f82825260208201905092915050565b5f819050602082019050919050565b7f4e487b71000000000000000000000000000000000000000000000000000000005f52602160045260245ffd5b600481106134fe576134fd6134c0565b5b50565b5f81905061350e826134ed565b919050565b5f61351d82613501565b9050919050565b61352d81613513565b82525050565b5f61353e8383613524565b60208301905092915050565b5f602082019050919050565b5f61356082613497565b61356a81856134a1565b9350613575836134b1565b805f5b838110156135a557815161358c8882613533565b97506135978361354a565b925050600181019050613578565b5085935050505092915050565b5f6020820190508181035f8301526135ca8184613556565b905092915050565b6135db81613034565b82525050565b5f6020820190506135f45f8301846135d2565b92915050565b5f6020828403121561360f5761360e612ef0565b5b5f61361c84828501613053565b91505092915050565b61362e81613329565b82525050565b5f6060820190506136475f8301866135d2565b8181036020830152613659818561343f565b90506136686040830184613625565b949350505050565b5f6020828403121561368557613684612ef0565b5b5f82013567ffffffffffffffff8111156136a2576136a1612ef4565b5b6136ae84828501613007565b91505092915050565b5f81519050919050565b5f819050602082019050919050565b60c781106136e1576136e06134c0565b5b50565b5f8190506136f1826136d0565b919050565b5f613700826136e4565b9050919050565b613710816136f6565b82525050565b5f6137218383613707565b60208301905092915050565b5f602082019050919050565b5f613743826136b7565b61374d81856134a1565b9350613758836136c1565b805f5b8381101561378857815161376f8882613716565b975061377a8361372d565b92505060018101905061375b565b5085935050505092915050565b5f6040820190508181035f8301526137ad8185613739565b905081810360208301526137c18184613739565b90509392505050565b5f6020820190506137dd5f830184613625565b92915050565b5f80604083850312156137f9576137f8612ef0565b5b5f61380685828601613053565b925050602061381785828601613053565b9150509250929050565b5f805f6060848603121561383857613837612ef0565b5b5f61384586828701613350565b935050602061385686828701613053565b925050604061386786828701613053565b9150509250925092565b5f67ffffffffffffffff82111561388b5761388a612f10565b5b61389482612f00565b9050602081019050919050565b5f6138b36138ae84613871565b612f6e565b9050828152602081018484840111156138cf576138ce612efc565b5b6138da848285612fb8565b509392505050565b5f82601f8301126138f6576138f5612ef8565b5b81356139068482602086016138a1565b91505092915050565b5f806040838503121561392557613924612ef0565b5b5f83013567ffffffffffffffff81111561394257613941612ef4565b5b61394e85828601613007565b925050602083013567ffffffffffffffff81111561396f5761396e612ef4565b5b61397b858286016138e2565b9150509250929050565b5f81519050919050565b5f82825260208201905092915050565b5f6139a982613985565b6139b3818561398f565b93506139c3818560208601613116565b6139cc81612f00565b840191505092915050565b5f6020820190508181035f8301526139ef818461399f565b905092915050565b5f8060408385031215613a0d57613a0c612ef0565b5b5f613a1a85828601613350565b9250506020613a2b85828601613053565b9150509250929050565b5f60208284031215613a4a57613a49612ef0565b5b5f613a5784828501613350565b91505092915050565b5f8115159050919050565b613a7481613a60565b82525050565b5f602082019050613a8d5f830184613a6b565b92915050565b5f8060408385031215613aa957613aa8612ef0565b5b5f83013567ffffffffffffffff811115613ac657613ac5612ef4565b5b613ad285828601613007565b9250506020613ae385828601613053565b9150509250929050565b60048110613af9575f80fd5b50565b5f81359050613b0a81613aed565b92915050565b5f60208284031215613b2557613b24612ef0565b5b5f613b3284828501613afc565b91505092915050565b5f81905092915050565b5f613b4f826130fc565b613b598185613b3b565b9350613b69818560208601613116565b80840191505092915050565b5f613b808284613b45565b915081905092915050565b7f4e487b71000000000000000000000000000000000000000000000000000000005f52601160045260245ffd5b5f613bc282613034565b9150613bcd83613034565b9250828203905081811115613be557613be4613b8b565b5b92915050565b7f4e487b71000000000000000000000000000000000000000000000000000000005f52601260045260245ffd5b5f613c2282613034565b9150613c2d83613034565b925082613c3d57613c3c613beb565b5b828204905092915050565b5f613c5282613034565b9150613c5d83613034565b9250828202613c6b81613034565b91508282048414831517613c8257613c81613b8b565b5b5092915050565b5f613c9382613034565b9150613c9e83613034565b9250828201905080821115613cb657613cb5613b8b565b5b92915050565b7f4e487b71000000000000000000000000000000000000000000000000000000005f52602260045260245ffd5b5f6002820490506001821680613d0057607f821691505b602082108103613d1357613d12613cbc565b5b50919050565b7f4e487b71000000000000000000000000000000000000000000000000000000005f52603260045260245ffd5b5f613d5082613034565b91507fffffffffffffffffffffffffffffffffffffffffffffffffffffffffffffffff8203613d8257613d81613b8b565b5b600182019050919050565b5f819050919050565b5f613da082613d8d565b91507f80000000000000000000000000000000000000000000000000000000000000008203613dd257613dd1613b8b565b5b600182039050919050565b5f81905092915050565b5f613df182613985565b613dfb8185613ddd565b9350613e0b818560208601613116565b80840191505092915050565b7f2c000000000000000000000000000000000000000000000000000000000000005f82015250565b5f613e4b600183613b3b565b9150613e5682613e17565b600182019050919050565b5f613e6c8285613de7565b9150613e7782613e3f565b9150613e838284613b45565b91508190509392505050565b5f613e9a8289613b45565b9150613ea582613e3f565b9150613eb18288613b45565b9150613ebc82613e3f565b9150613ec88287613b45565b9150613ed382613e3f565b9150613edf8286613b45565b9150613eea82613e3f565b9150613ef68285613b45565b9150613f0182613e3f565b9150613f0d8284613b45565b9150819050979650505050505050565b7f4f776e61626c653a2063616c6c6572206973206e6f7420746865206f776e65725f82015250565b5f613f5160208361342f565b9150613f5c82613f1d565b602082019050919050565b5f6020820190508181035f830152613f7e81613f45565b9050919050565b5f81519050613f938161303d565b92915050565b5f60208284031215613fae57613fad612ef0565b5b5f613fbb84828501613f85565b91505092915050565b5f819050815f5260205f209050919050565b5f8154613fe281613ce9565b613fec818661342f565b9450600182165f8114614006576001811461401c5761404e565b60ff19831686528115156020028601935061404e565b61402585613fc4565b5f5b8381101561404657815481890152600182019150602081019050614027565b808801955050505b50505092915050565b5f60608201905061406a5f8301866135d2565b818103602083015261407c8185613fd6565b905061408b6040830184613625565b949350505050565b5f80604083850312156140a9576140a8612ef0565b5b5f6140b685828601613f85565b92505060206140c785828601613f85565b9150509250929050565b5f6140e36140de84612f88565b612f6e565b9050828152602081018484840111156140ff576140fe612efc565b5b61410a848285613116565b509392505050565b5f82601f83011261412657614125612ef8565b5b81516141368482602086016140d1565b91505092915050565b5f805f6060848603121561415657614155612ef0565b5b5f84015167ffffffffffffffff81111561417357614172612ef4565b5b61417f86828701614112565b935050602061419086828701613f85565b92505060406141a186828701613f85565b9150509250925092565b5f6141b58261330a565b9050919050565b6141c5816141ab565b81146141cf575f80fd5b50565b5f815190506141e0816141bc565b92915050565b5f805f606084860312156141fd576141fc612ef0565b5b5f61420a868287016141d2565b935050602061421b86828701613f85565b925050604061422c86828701613f85565b9150509250925092565b5f6020828403121561424b5761424a612ef0565b5b5f614258848285016141d2565b91505092915050565b5f6040820190506142745f830185613625565b6142816020830184613a6b565b9392505050565b50565b5f6142965f8361342f565b91506142a182614288565b5f82019050919050565b5f6020820190508181035f8301526142c28161428b565b9050919050565b5f6142db6142d684613228565b612f6e565b905080838252602082019050602084028301858111156142fe576142fd613253565b5b835b8181101561434557805167ffffffffffffffff81111561432357614322612ef8565b5b8086016143308982614112565b85526020850194505050602081019050614300565b5050509392505050565b5f82601f83011261436357614362612ef8565b5b81516143738482602086016142c9565b91505092915050565b5f805f806080858703121561439457614393612ef0565b5b5f85015167ffffffffffffffff8111156143b1576143b0612ef4565b5b6143bd8782880161434f565b945050602085015167ffffffffffffffff8111156143de576143dd612ef4565b5b6143ea87828801614112565b935050604085015167ffffffffffffffff81111561440b5761440a612ef4565b5b61441787828801614112565b9250506060614428878288016141d2565b91505092959194509250565b5f6020601f8301049050919050565b5f82821b905092915050565b5f6008830261447e7fffffffffffffffffffffffffffffffffffffffffffffffffffffffffffffffff82614443565b6144888683614443565b95508019841693508086168417925050509392505050565b5f819050919050565b5f6144c36144be6144b984613034565b6144a0565b613034565b9050919050565b5f819050919050565b6144dc836144a9565b6144f06144e8826144ca565b84845461444f565b825550505050565b5f90565b6145046144f8565b61450f8184846144d3565b505050565b5b81811015614532576145275f826144fc565b600181019050614515565b5050565b601f8211156145775761454881613fc4565b61455184614434565b81016020851015614560578190505b61457461456c85614434565b830182614514565b50505b505050565b5f82821c905092915050565b5f6145975f198460080261457c565b1980831691505092915050565b5f6145af8383614588565b9150826002028217905092915050565b6145c8826130fc565b67ffffffffffffffff8111156145e1576145e0612f10565b5b6145eb8254613ce9565b6145f6828285614536565b5f60209050601f831160018114614627575f8415614615578287015190505b61461f85826145a4565b865550614686565b601f19841661463586613fc4565b5f5b8281101561465c57848901518255600182019150602085019450602081019050614637565b868310156146795784890151614675601f891682614588565b8355505b6001600288020188555050505b505050505050565b61469781613a60565b81146146a1575f80fd5b50565b5f815190506146b28161468e565b92915050565b5f80604083850312156146ce576146cd612ef0565b5b5f6146db858286016141d2565b92505060206146ec858286016146a4565b9150509250929050565b7f4f776e61626c653a206e6577206f776e657220697320746865207a65726f20615f8201527f6464726573730000000000000000000000000000000000000000000000000000602082015250565b5f61475060268361342f565b915061475b826146f6565b604082019050919050565b5f6020820190508181035f83015261477d81614744565b9050919050565b5f61478e82613034565b915061479983613034565b9250826147a9576147a8613beb565b5b828206905092915050565b5f6147be82613034565b91505f82036147d0576147cf613b8b565b5b600182039050919050565b7f537472696e67733a20686578206c656e67746820696e73756666696369656e745f82015250565b5f61480f60208361342f565b915061481a826147db565b602082019050919050565b5f6020820190508181035f83015261483c81614803565b905091905056fe4142434445464748494a4b4c4d4e4f505152535455565758595a6162636465666768696a6b6c6d6e6f707172737475767778797a303132333435363738392b2fa26469706673582212205723bdf73805670b8946dc4e2ee1a24f349d17594f626db3c9feab0dfb3a60c864736f6c63430008160033",
			"opcodes": "PUSH1 0x80 PUSH1 0x40 MSTORE CALLVALUE DUP1 ISZERO PUSH3 0x10 JUMPI PUSH0 DUP1 REVERT JUMPDEST POP PUSH3 0x31 PUSH3 0x25 PUSH3 0xEF6 PUSH1 0x20 SHL PUSH1 0x20 SHR JUMP JUMPDEST PUSH3 0xEFD PUSH1 0x20 SHL PUSH1 0x20 SHR JUMP JUMPDEST PUSH0 PUSH1 0x1 PUSH8 0xFFFFFFFFFFFFFFFF DUP2 GT ISZERO PUSH3 0x50 JUMPI PUSH3 0x4F PUSH3 0x1177 JUMP JUMPDEST JUMPDEST PUSH1 0x40 MLOAD SWAP1 DUP1 DUP3 MSTORE DUP1 PUSH1 0x20 MUL PUSH1 0x20 ADD DUP3 ADD PUSH1 0x40 MSTORE DUP1 ISZERO PUSH3 0x7F JUMPI DUP2 PUSH1 0x20 ADD PUSH1 0x20 DUP3 MUL DUP1 CALLDATASIZE DUP4 CALLDATACOPY DUP1 DUP3 ADD SWAP2 POP POP SWAP1 POP JUMPDEST POP SWAP1 POP PUSH1 0x41 DUP2 PUSH0 DUP2 MLOAD DUP2 LT PUSH3 0x9A JUMPI PUSH3 0x99 PUSH3 0x11A4 JUMP JUMPDEST JUMPDEST PUSH1 0x20 MUL PUSH1 0x20 ADD ADD SWAP1 PUSH1 0xC6 DUP2 GT ISZERO PUSH3 0xB7 JUMPI PUSH3 0xB6 PUSH3 0x11D1 JUMP JUMPDEST JUMPDEST SWAP1 DUP2 PUSH1 0xC6 DUP2 GT ISZERO PUSH3 0xCE JUMPI PUSH3 0xCD PUSH3 0x11D1 JUMP JUMPDEST JUMPDEST DUP2 MSTORE POP POP PUSH0 PUSH1 0x1 PUSH8 0xFFFFFFFFFFFFFFFF DUP2 GT ISZERO PUSH3 0xF1 JUMPI PUSH3 0xF0 PUSH3 0x1177 JUMP JUMPDEST JUMPDEST PUSH1 0x40 MLOAD SWAP1 DUP1 DUP3 MSTORE DUP1 PUSH1 0x20 MUL PUSH1 0x20 ADD DUP3 ADD PUSH1 0x40 MSTORE DUP1 ISZERO PUSH3 0x120 JUMPI DUP2 PUSH1 0x20 ADD PUSH1 0x20 DUP3 MUL DUP1 CALLDATASIZE DUP4 CALLDATACOPY DUP1 DUP3 ADD SWAP2 POP POP SWAP1 POP JUMPDEST POP SWAP1 POP PUSH1 0x40 DUP2 PUSH0 DUP2 MLOAD DUP2 LT PUSH3 0x13B JUMPI PUSH3 0x13A PUSH3 0x11A4 JUMP JUMPDEST JUMPDEST PUSH1 0x20 MUL PUSH1 0x20 ADD ADD SWAP1 PUSH1 0xC6 DUP2 GT ISZERO PUSH3 0x158 JUMPI PUSH3 0x157 PUSH3 0x11D1 JUMP JUMPDEST JUMPDEST SWAP1 DUP2 PUSH1 0xC6 DUP2 GT ISZERO PUSH3 0x16F JUMPI PUSH3 0x16E PUSH3 0x11D1 JUMP JUMPDEST JUMPDEST DUP2 MSTORE POP POP PUSH0 PUSH1 0x1 PUSH8 0xFFFFFFFFFFFFFFFF DUP2 GT ISZERO PUSH3 0x192 JUMPI PUSH3 0x191 PUSH3 0x1177 JUMP JUMPDEST JUMPDEST PUSH1 0x40 MLOAD SWAP1 DUP1 DUP3 MSTORE DUP1 PUSH1 0x20 MUL PUSH1 0x20 ADD DUP3 ADD PUSH1 0x40 MSTORE DUP1 ISZERO PUSH3 0x1C1 JUMPI DUP2 PUSH1 0x20 ADD PUSH1 0x20 DUP3 MUL DUP1 CALLDATASIZE DUP4 CALLDATACOPY DUP1 DUP3 ADD SWAP2 POP POP SWAP1 POP JUMPDEST POP SWAP1 POP PUSH1 0xC6 DUP2 PUSH0 DUP2 MLOAD DUP2 LT PUSH3 0x1DC JUMPI PUSH3 0x1DB PUSH3 0x11A4 JUMP JUMPDEST JUMPDEST PUSH1 0x20 MUL PUSH1 0x20 ADD ADD SWAP1 PUSH1 0xC6 DUP2 GT ISZERO PUSH3 0x1F9 JUMPI PUSH3 0x1F8 PUSH3 0x11D1 JUMP JUMPDEST JUMPDEST SWAP1 DUP2 PUSH1 0xC6 DUP2 GT ISZERO PUSH3 0x210 JUMPI PUSH3 0x20F PUSH3 0x11D1 JUMP JUMPDEST JUMPDEST DUP2 MSTORE POP POP PUSH0 PUSH1 0x4 PUSH8 0xFFFFFFFFFFFFFFFF DUP2 GT ISZERO PUSH3 0x233 JUMPI PUSH3 0x232 PUSH3 0x1177 JUMP JUMPDEST JUMPDEST PUSH1 0x40 MLOAD SWAP1 DUP1 DUP3 MSTORE DUP1 PUSH1 0x20 MUL PUSH1 0x20 ADD DUP3 ADD PUSH1 0x40 MSTORE DUP1 ISZERO PUSH3 0x262 JUMPI DUP2 PUSH1 0x20 ADD PUSH1 0x20 DUP3 MUL DUP1 CALLDATASIZE DUP4 CALLDATACOPY DUP1 DUP3 ADD SWAP2 POP POP SWAP1 POP JUMPDEST POP SWAP1 POP PUSH1 0xC6 DUP2 PUSH0 DUP2 MLOAD DUP2 LT PUSH3 0x27D JUMPI PUSH3 0x27C PUSH3 0x11A4 JUMP JUMPDEST JUMPDEST PUSH1 0x20 MUL PUSH1 0x20 ADD ADD SWAP1 PUSH1 0xC6 DUP2 GT ISZERO PUSH3 0x29A JUMPI PUSH3 0x299 PUSH3 0x11D1 JUMP JUMPDEST JUMPDEST SWAP1 DUP2 PUSH1 0xC6 DUP2 GT ISZERO PUSH3 0x2B1 JUMPI PUSH3 0x2B0 PUSH3 0x11D1 JUMP JUMPDEST JUMPDEST DUP2 MSTORE POP POP PUSH1 0x63 DUP2 PUSH1 0x1 DUP2 MLOAD DUP2 LT PUSH3 0x2CE JUMPI PUSH3 0x2CD PUSH3 0x11A4 JUMP JUMPDEST JUMPDEST PUSH1 0x20 MUL PUSH1 0x20 ADD ADD SWAP1 PUSH1 0xC6 DUP2 GT ISZERO PUSH3 0x2EB JUMPI PUSH3 0x2EA PUSH3 0x11D1 JUMP JUMPDEST JUMPDEST SWAP1 DUP2 PUSH1 0xC6 DUP2 GT ISZERO PUSH3 0x302 JUMPI PUSH3 0x301 PUSH3 0x11D1 JUMP JUMPDEST JUMPDEST DUP2 MSTORE POP POP PUSH1 0x63 DUP2 PUSH1 0x2 DUP2 MLOAD DUP2 LT PUSH3 0x31F JUMPI PUSH3 0x31E PUSH3 0x11A4 JUMP JUMPDEST JUMPDEST PUSH1 0x20 MUL PUSH1 0x20 ADD ADD SWAP1 PUSH1 0xC6 DUP2 GT ISZERO PUSH3 0x33C JUMPI PUSH3 0x33B PUSH3 0x11D1 JUMP JUMPDEST JUMPDEST SWAP1 DUP2 PUSH1 0xC6 DUP2 GT ISZERO PUSH3 0x353 JUMPI PUSH3 0x352 PUSH3 0x11D1 JUMP JUMPDEST JUMPDEST DUP2 MSTORE POP POP PUSH1 0x41 DUP2 PUSH1 0x3 DUP2 MLOAD DUP2 LT PUSH3 0x370 JUMPI PUSH3 0x36F PUSH3 0x11A4 JUMP JUMPDEST JUMPDEST PUSH1 0x20 MUL PUSH1 0x20 ADD ADD SWAP1 PUSH1 0xC6 DUP2 GT ISZERO PUSH3 0x38D JUMPI PUSH3 0x38C PUSH3 0x11D1 JUMP JUMPDEST JUMPDEST SWAP1 DUP2 PUSH1 0xC6 DUP2 GT ISZERO PUSH3 0x3A4 JUMPI PUSH3 0x3A3 PUSH3 0x11D1 JUMP JUMPDEST JUMPDEST DUP2 MSTORE POP POP PUSH0 PUSH1 0x2 PUSH8 0xFFFFFFFFFFFFFFFF DUP2 GT ISZERO PUSH3 0x3C7 JUMPI PUSH3 0x3C6 PUSH3 0x1177 JUMP JUMPDEST JUMPDEST PUSH1 0x40 MLOAD SWAP1 DUP1 DUP3 MSTORE DUP1 PUSH1 0x20 MUL PUSH1 0x20 ADD DUP3 ADD PUSH1 0x40 MSTORE DUP1 ISZERO PUSH3 0x3F6 JUMPI DUP2 PUSH1 0x20 ADD PUSH1 0x20 DUP3 MUL DUP1 CALLDATASIZE DUP4 CALLDATACOPY DUP1 DUP3 ADD SWAP2 POP POP SWAP1 POP JUMPDEST POP SWAP1 POP PUSH1 0x40 DUP2 PUSH0 DUP2 MLOAD DUP2 LT PUSH3 0x411 JUMPI PUSH3 0x410 PUSH3 0x11A4 JUMP JUMPDEST JUMPDEST PUSH1 0x20 MUL PUSH1 0x20 ADD ADD SWAP1 PUSH1 0xC6 DUP2 GT ISZERO PUSH3 0x42E JUMPI PUSH3 0x42D PUSH3 0x11D1 JUMP JUMPDEST JUMPDEST SWAP1 DUP2 PUSH1 0xC6 DUP2 GT ISZERO PUSH3 0x445 JUMPI PUSH3 0x444 PUSH3 0x11D1 JUMP JUMPDEST JUMPDEST DUP2 MSTORE POP POP PUSH0 DUP2 PUSH1 0x1 DUP2 MLOAD DUP2 LT PUSH3 0x461 JUMPI PUSH3 0x460 PUSH3 0x11A4 JUMP JUMPDEST JUMPDEST PUSH1 0x20 MUL PUSH1 0x20 ADD ADD SWAP1 PUSH1 0xC6 DUP2 GT ISZERO PUSH3 0x47E JUMPI PUSH3 0x47D PUSH3 0x11D1 JUMP JUMPDEST JUMPDEST SWAP1 DUP2 PUSH1 0xC6 DUP2 GT ISZERO PUSH3 0x495 JUMPI PUSH3 0x494 PUSH3 0x11D1 JUMP JUMPDEST JUMPDEST DUP2 MSTORE POP POP PUSH0 PUSH1 0x2 PUSH8 0xFFFFFFFFFFFFFFFF DUP2 GT ISZERO PUSH3 0x4B8 JUMPI PUSH3 0x4B7 PUSH3 0x1177 JUMP JUMPDEST JUMPDEST PUSH1 0x40 MLOAD SWAP1 DUP1 DUP3 MSTORE DUP1 PUSH1 0x20 MUL PUSH1 0x20 ADD DUP3 ADD PUSH1 0x40 MSTORE DUP1 ISZERO PUSH3 0x4E7 JUMPI DUP2 PUSH1 0x20 ADD PUSH1 0x20 DUP3 MUL DUP1 CALLDATASIZE DUP4 CALLDATACOPY DUP1 DUP3 ADD SWAP2 POP POP SWAP1 POP JUMPDEST POP SWAP1 POP PUSH1 0x40 DUP2 PUSH0 DUP2 MLOAD DUP2 LT PUSH3 0x502 JUMPI PUSH3 0x501 PUSH3 0x11A4 JUMP JUMPDEST JUMPDEST PUSH1 0x20 MUL PUSH1 0x20 ADD ADD SWAP1 PUSH1 0xC6 DUP2 GT ISZERO PUSH3 0x51F JUMPI PUSH3 0x51E PUSH3 0x11D1 JUMP JUMPDEST JUMPDEST SWAP1 DUP2 PUSH1 0xC6 DUP2 GT ISZERO PUSH3 0x536 JUMPI PUSH3 0x535 PUSH3 0x11D1 JUMP JUMPDEST JUMPDEST DUP2 MSTORE POP POP PUSH1 0x40 DUP2 PUSH1 0x1 DUP2 MLOAD DUP2 LT PUSH3 0x553 JUMPI PUSH3 0x552 PUSH3 0x11A4 JUMP JUMPDEST JUMPDEST PUSH1 0x20 MUL PUSH1 0x20 ADD ADD SWAP1 PUSH1 0xC6 DUP2 GT ISZERO PUSH3 0x570 JUMPI PUSH3 0x56F PUSH3 0x11D1 JUMP JUMPDEST JUMPDEST SWAP1 DUP2 PUSH1 0xC6 DUP2 GT ISZERO PUSH3 0x587 JUMPI PUSH3 0x586 PUSH3 0x11D1 JUMP JUMPDEST JUMPDEST DUP2 MSTORE POP POP PUSH0 PUSH1 0x3 PUSH8 0xFFFFFFFFFFFFFFFF DUP2 GT ISZERO PUSH3 0x5AA JUMPI PUSH3 0x5A9 PUSH3 0x1177 JUMP JUMPDEST JUMPDEST PUSH1 0x40 MLOAD SWAP1 DUP1 DUP3 MSTORE DUP1 PUSH1 0x20 MUL PUSH1 0x20 ADD DUP3 ADD PUSH1 0x40 MSTORE DUP1 ISZERO PUSH3 0x5D9 JUMPI DUP2 PUSH1 0x20 ADD PUSH1 0x20 DUP3 MUL DUP1 CALLDATASIZE DUP4 CALLDATACOPY DUP1 DUP3 ADD SWAP2 POP POP SWAP1 POP JUMPDEST POP SWAP1 POP PUSH1 0x63 DUP2 PUSH0 DUP2 MLOAD DUP2 LT PUSH3 0x5F4 JUMPI PUSH3 0x5F3 PUSH3 0x11A4 JUMP JUMPDEST JUMPDEST PUSH1 0x20 MUL PUSH1 0x20 ADD ADD SWAP1 PUSH1 0xC6 DUP2 GT ISZERO PUSH3 0x611 JUMPI PUSH3 0x610 PUSH3 0x11D1 JUMP JUMPDEST JUMPDEST SWAP1 DUP2 PUSH1 0xC6 DUP2 GT ISZERO PUSH3 0x628 JUMPI PUSH3 0x627 PUSH3 0x11D1 JUMP JUMPDEST JUMPDEST DUP2 MSTORE POP POP PUSH1 0x40 DUP2 PUSH1 0x1 DUP2 MLOAD DUP2 LT PUSH3 0x645 JUMPI PUSH3 0x644 PUSH3 0x11A4 JUMP JUMPDEST JUMPDEST PUSH1 0x20 MUL PUSH1 0x20 ADD ADD SWAP1 PUSH1 0xC6 DUP2 GT ISZERO PUSH3 0x662 JUMPI PUSH3 0x661 PUSH3 0x11D1 JUMP JUMPDEST JUMPDEST SWAP1 DUP2 PUSH1 0xC6 DUP2 GT ISZERO PUSH3 0x679 JUMPI PUSH3 0x678 PUSH3 0x11D1 JUMP JUMPDEST JUMPDEST DUP2 MSTORE POP POP PUSH1 0x40 DUP2 PUSH1 0x2 DUP2 MLOAD DUP2 LT PUSH3 0x696 JUMPI PUSH3 0x695 PUSH3 0x11A4 JUMP JUMPDEST JUMPDEST PUSH1 0x20 MUL PUSH1 0x20 ADD ADD SWAP1 PUSH1 0xC6 DUP2 GT ISZERO PUSH3 0x6B3 JUMPI PUSH3 0x6B2 PUSH3 0x11D1 JUMP JUMPDEST JUMPDEST SWAP1 DUP2 PUSH1 0xC6 DUP2 GT ISZERO PUSH3 0x6CA JUMPI PUSH3 0x6C9 PUSH3 0x11D1 JUMP JUMPDEST JUMPDEST DUP2 MSTORE POP POP PUSH0 PUSH1 0x3 PUSH8 0xFFFFFFFFFFFFFFFF DUP2 GT ISZERO PUSH3 0x6ED JUMPI PUSH3 0x6EC PUSH3 0x1177 JUMP JUMPDEST JUMPDEST PUSH1 0x40 MLOAD SWAP1 DUP1 DUP3 MSTORE DUP1 PUSH1 0x20 MUL PUSH1 0x20 ADD DUP3 ADD PUSH1 0x40 MSTORE DUP1 ISZERO PUSH3 0x71C JUMPI DUP2 PUSH1 0x20 ADD PUSH1 0x20 DUP3 MUL DUP1 CALLDATASIZE DUP4 CALLDATACOPY DUP1 DUP3 ADD SWAP2 POP POP SWAP1 POP JUMPDEST POP SWAP1 POP PUSH1 0x41 DUP2 PUSH0 DUP2 MLOAD DUP2 LT PUSH3 0x737 JUMPI PUSH3 0x736 PUSH3 0x11A4 JUMP JUMPDEST JUMPDEST PUSH1 0x20 MUL PUSH1 0x20 ADD ADD SWAP1 PUSH1 0xC6 DUP2 GT ISZERO PUSH3 0x754 JUMPI PUSH3 0x753 PUSH3 0x11D1 JUMP JUMPDEST JUMPDEST SWAP1 DUP2 PUSH1 0xC6 DUP2 GT ISZERO PUSH3 0x76B JUMPI PUSH3 0x76A PUSH3 0x11D1 JUMP JUMPDEST JUMPDEST DUP2 MSTORE POP POP PUSH1 0x40 DUP2 PUSH1 0x1 DUP2 MLOAD DUP2 LT PUSH3 0x788 JUMPI PUSH3 0x787 PUSH3 0x11A4 JUMP JUMPDEST JUMPDEST PUSH1 0x20 MUL PUSH1 0x20 ADD ADD SWAP1 PUSH1 0xC6 DUP2 GT ISZERO PUSH3 0x7A5 JUMPI PUSH3 0x7A4 PUSH3 0x11D1 JUMP JUMPDEST JUMPDEST SWAP1 DUP2 PUSH1 0xC6 DUP2 GT ISZERO PUSH3 0x7BC JUMPI PUSH3 0x7BB PUSH3 0x11D1 JUMP JUMPDEST JUMPDEST DUP2 MSTORE POP POP PUSH1 0x40 DUP2 PUSH1 0x2 DUP2 MLOAD DUP2 LT PUSH3 0x7D9 JUMPI PUSH3 0x7D8 PUSH3 0x11A4 JUMP JUMPDEST JUMPDEST PUSH1 0x20 MUL PUSH1 0x20 ADD ADD SWAP1 PUSH1 0xC6 DUP2 GT ISZERO PUSH3 0x7F6 JUMPI PUSH3 0x7F5 PUSH3 0x11D1 JUMP JUMPDEST JUMPDEST SWAP1 DUP2 PUSH1 0xC6 DUP2 GT ISZERO PUSH3 0x80D JUMPI PUSH3 0x80C PUSH3 0x11D1 JUMP JUMPDEST JUMPDEST DUP2 MSTORE POP POP PUSH0 PUSH1 0x3 PUSH8 0xFFFFFFFFFFFFFFFF DUP2 GT ISZERO PUSH3 0x830 JUMPI PUSH3 0x82F PUSH3 0x1177 JUMP JUMPDEST JUMPDEST PUSH1 0x40 MLOAD SWAP1 DUP1 DUP3 MSTORE DUP1 PUSH1 0x20 MUL PUSH1 0x20 ADD DUP3 ADD PUSH1 0x40 MSTORE DUP1 ISZERO PUSH3 0x85F JUMPI DUP2 PUSH1 0x20 ADD PUSH1 0x20 DUP3 MUL DUP1 CALLDATASIZE DUP4 CALLDATACOPY DUP1 DUP3 ADD SWAP2 POP POP SWAP1 POP JUMPDEST POP SWAP1 POP PUSH1 0x40 DUP2 PUSH0 DUP2 MLOAD DUP2 LT PUSH3 0x87A JUMPI PUSH3 0x879 PUSH3 0x11A4 JUMP JUMPDEST JUMPDEST PUSH1 0x20 MUL PUSH1 0x20 ADD ADD SWAP1 PUSH1 0xC6 DUP2 GT ISZERO PUSH3 0x897 JUMPI PUSH3 0x896 PUSH3 0x11D1 JUMP JUMPDEST JUMPDEST SWAP1 DUP2 PUSH1 0xC6 DUP2 GT ISZERO PUSH3 0x8AE JUMPI PUSH3 0x8AD PUSH3 0x11D1 JUMP JUMPDEST JUMPDEST DUP2 MSTORE POP POP PUSH1 0x63 DUP2 PUSH1 0x1 DUP2 MLOAD DUP2 LT PUSH3 0x8CB JUMPI PUSH3 0x8CA PUSH3 0x11A4 JUMP JUMPDEST JUMPDEST PUSH1 0x20 MUL PUSH1 0x20 ADD ADD SWAP1 PUSH1 0xC6 DUP2 GT ISZERO PUSH3 0x8E8 JUMPI PUSH3 0x8E7 PUSH3 0x11D1 JUMP JUMPDEST JUMPDEST SWAP1 DUP2 PUSH1 0xC6 DUP2 GT ISZERO PUSH3 0x8FF JUMPI PUSH3 0x8FE PUSH3 0x11D1 JUMP JUMPDEST JUMPDEST DUP2 MSTORE POP POP PUSH1 0x41 DUP2 PUSH1 0x2 DUP2 MLOAD DUP2 LT PUSH3 0x91C JUMPI PUSH3 0x91B PUSH3 0x11A4 JUMP JUMPDEST JUMPDEST PUSH1 0x20 MUL PUSH1 0x20 ADD ADD SWAP1 PUSH1 0xC6 DUP2 GT ISZERO PUSH3 0x939 JUMPI PUSH3 0x938 PUSH3 0x11D1 JUMP JUMPDEST JUMPDEST SWAP1 DUP2 PUSH1 0xC6 DUP2 GT ISZERO PUSH3 0x950 JUMPI PUSH3 0x94F PUSH3 0x11D1 JUMP JUMPDEST JUMPDEST DUP2 MSTORE POP POP PUSH0 PUSH1 0x2 PUSH8 0xFFFFFFFFFFFFFFFF DUP2 GT ISZERO PUSH3 0x973 JUMPI PUSH3 0x972 PUSH3 0x1177 JUMP JUMPDEST JUMPDEST PUSH1 0x40 MLOAD SWAP1 DUP1 DUP3 MSTORE DUP1 PUSH1 0x20 MUL PUSH1 0x20 ADD DUP3 ADD PUSH1 0x40 MSTORE DUP1 ISZERO PUSH3 0x9A2 JUMPI DUP2 PUSH1 0x20 ADD PUSH1 0x20 DUP3 MUL DUP1 CALLDATASIZE DUP4 CALLDATACOPY DUP1 DUP3 ADD SWAP2 POP POP SWAP1 POP JUMPDEST POP SWAP1 POP PUSH1 0x41 DUP2 PUSH0 DUP2 MLOAD DUP2 LT PUSH3 0x9BD JUMPI PUSH3 0x9BC PUSH3 0x11A4 JUMP JUMPDEST JUMPDEST PUSH1 0x20 MUL PUSH1 0x20 ADD ADD SWAP1 PUSH1 0xC6 DUP2 GT ISZERO PUSH3 0x9DA JUMPI PUSH3 0x9D9 PUSH3 0x11D1 JUMP JUMPDEST JUMPDEST SWAP1 DUP2 PUSH1 0xC6 DUP2 GT ISZERO PUSH3 0x9F1 JUMPI PUSH3 0x9F0 PUSH3 0x11D1 JUMP JUMPDEST JUMPDEST DUP2 MSTORE POP POP PUSH0 DUP2 PUSH1 0x1 DUP2 MLOAD DUP2 LT PUSH3 0xA0D JUMPI PUSH3 0xA0C PUSH3 0x11A4 JUMP JUMPDEST JUMPDEST PUSH1 0x20 MUL PUSH1 0x20 ADD ADD SWAP1 PUSH1 0xC6 DUP2 GT ISZERO PUSH3 0xA2A JUMPI PUSH3 0xA29 PUSH3 0x11D1 JUMP JUMPDEST JUMPDEST SWAP1 DUP2 PUSH1 0xC6 DUP2 GT ISZERO PUSH3 0xA41 JUMPI PUSH3 0xA40 PUSH3 0x11D1 JUMP JUMPDEST JUMPDEST DUP2 MSTORE POP POP PUSH3 0xADB PUSH1 0x40 MLOAD DUP1 PUSH1 0x40 ADD PUSH1 0x40 MSTORE DUP1 PUSH1 0xB DUP2 MSTORE PUSH1 0x20 ADD PUSH32 0x7365744665617475726564000000000000000000000000000000000000000000 DUP2 MSTORE POP PUSH1 0x2 DUP8 PUSH0 PUSH8 0xFFFFFFFFFFFFFFFF DUP2 GT ISZERO PUSH3 0xA9F JUMPI PUSH3 0xA9E PUSH3 0x1177 JUMP JUMPDEST JUMPDEST PUSH1 0x40 MLOAD SWAP1 DUP1 DUP3 MSTORE DUP1 PUSH1 0x20 MUL PUSH1 0x20 ADD DUP3 ADD PUSH1 0x40 MSTORE DUP1 ISZERO PUSH3 0xACE JUMPI DUP2 PUSH1 0x20 ADD PUSH1 0x20 DUP3 MUL DUP1 CALLDATASIZE DUP4 CALLDATACOPY DUP1 DUP3 ADD SWAP2 POP POP SWAP1 POP JUMPDEST POP PUSH3 0xFBE PUSH1 0x20 SHL PUSH1 0x20 SHR JUMP JUMPDEST PUSH3 0xB25 PUSH1 0x40 MLOAD DUP1 PUSH1 0x40 ADD PUSH1 0x40 MSTORE DUP1 PUSH1 0x8 DUP2 MSTORE PUSH1 0x20 ADD PUSH32 0x706F737456696265000000000000000000000000000000000000000000000000 DUP2 MSTORE POP PUSH1 0x1 DUP10 DUP13 PUSH3 0xFBE PUSH1 0x20 SHL PUSH1 0x20 SHR JUMP JUMPDEST PUSH3 0xBBB PUSH1 0x40 MLOAD DUP1 PUSH1 0x40 ADD PUSH1 0x40 MSTORE DUP1 PUSH1 0xA DUP2 MSTORE PUSH1 0x20 ADD PUSH32 0x64656C6574655669626500000000000000000000000000000000000000000000 DUP2 MSTORE POP PUSH1 0x2 DUP12 PUSH0 PUSH8 0xFFFFFFFFFFFFFFFF DUP2 GT ISZERO PUSH3 0xB7F JUMPI PUSH3 0xB7E PUSH3 0x1177 JUMP JUMPDEST JUMPDEST PUSH1 0x40 MLOAD SWAP1 DUP1 DUP3 MSTORE DUP1 PUSH1 0x20 MUL PUSH1 0x20 ADD DUP3 ADD PUSH1 0x40 MSTORE DUP1 ISZERO PUSH3 0xBAE JUMPI DUP2 PUSH1 0x20 ADD PUSH1 0x20 DUP3 MUL DUP1 CALLDATASIZE DUP4 CALLDATACOPY DUP1 DUP3 ADD SWAP2 POP POP SWAP1 POP JUMPDEST POP PUSH3 0xFBE PUSH1 0x20 SHL PUSH1 0x20 SHR JUMP JUMPDEST PUSH3 0xC51 PUSH1 0x40 MLOAD DUP1 PUSH1 0x40 ADD PUSH1 0x40 MSTORE DUP1 PUSH1 0xB DUP2 MSTORE PUSH1 0x20 ADD PUSH32 0x6164644665617475726564000000000000000000000000000000000000000000 DUP2 MSTORE POP PUSH1 0x1 DUP12 PUSH0 PUSH8 0xFFFFFFFFFFFFFFFF DUP2 GT ISZERO PUSH3 0xC15 JUMPI PUSH3 0xC14 PUSH3 0x1177 JUMP JUMPDEST JUMPDEST PUSH1 0x40 MLOAD SWAP1 DUP1 DUP3 MSTORE DUP1 PUSH1 0x20 MUL PUSH1 0x20 ADD DUP3 ADD PUSH1 0x40 MSTORE DUP1 ISZERO PUSH3 0xC44 JUMPI DUP2 PUSH1 0x20 ADD PUSH1 0x20 DUP3 MUL DUP1 CALLDATASIZE DUP4 CALLDATACOPY DUP1 DUP3 ADD SWAP2 POP POP SWAP1 POP JUMPDEST POP PUSH3 0xFBE PUSH1 0x20 SHL PUSH1 0x20 SHR JUMP JUMPDEST PUSH3 0xC9A PUSH1 0x40 MLOAD DUP1 PUSH1 0x40 ADD PUSH1 0x40 MSTORE DUP1 PUSH1 0x7 DUP2 MSTORE PUSH1 0x20 ADD PUSH32 0x6765745669626500000000000000000000000000000000000000000000000000 DUP2 MSTORE POP PUSH0 DUP12 DUP6 PUSH3 0xFBE PUSH1 0x20 SHL PUSH1 0x20 SHR JUMP JUMPDEST PUSH3 0xCE3 PUSH1 0x40 MLOAD DUP1 PUSH1 0x40 ADD PUSH1 0x40 MSTORE DUP1 PUSH1 0x8 DUP2 MSTORE PUSH1 0x20 ADD PUSH32 0x6765745669626573000000000000000000000000000000000000000000000000 DUP2 MSTORE POP PUSH0 DUP8 DUP12 PUSH3 0xFBE PUSH1 0x20 SHL PUSH1 0x20 SHR JUMP JUMPDEST PUSH3 0xD2C PUSH1 0x40 MLOAD DUP1 PUSH1 0x40 ADD PUSH1 0x40 MSTORE DUP1 PUSH1 0x18 DUP2 MSTORE PUSH1 0x20 ADD PUSH32 0x67657456696265496442794665617475726564496E6465780000000000000000 DUP2 MSTORE POP PUSH0 DUP12 DUP13 PUSH3 0xFBE PUSH1 0x20 SHL PUSH1 0x20 SHR JUMP JUMPDEST PUSH3 0xD75 PUSH1 0x40 MLOAD DUP1 PUSH1 0x40 ADD PUSH1 0x40 MSTORE DUP1 PUSH1 0x12 DUP2 MSTORE PUSH1 0x20 ADD PUSH32 0x6765745669626573427943617465676F72790000000000000000000000000000 DUP2 MSTORE POP PUSH0 DUP7 DUP12 PUSH3 0xFBE PUSH1 0x20 SHL PUSH1 0x20 SHR JUMP JUMPDEST PUSH3 0xDBE PUSH1 0x40 MLOAD DUP1 PUSH1 0x40 ADD PUSH1 0x40 MSTORE DUP1 PUSH1 0x11 DUP2 MSTORE PUSH1 0x20 ADD PUSH32 0x6765745669626573427941646472657373000000000000000000000000000000 DUP2 MSTORE POP PUSH0 DUP6 DUP12 PUSH3 0xFBE PUSH1 0x20 SHL PUSH1 0x20 SHR JUMP JUMPDEST PUSH3 0xE07 PUSH1 0x40 MLOAD DUP1 PUSH1 0x40 ADD PUSH1 0x40 MSTORE DUP1 PUSH1 0x12 DUP2 MSTORE PUSH1 0x20 ADD PUSH32 0x6765745669626573427946656174757265640000000000000000000000000000 DUP2 MSTORE POP PUSH0 DUP8 DUP12 PUSH3 0xFBE PUSH1 0x20 SHL PUSH1 0x20 SHR JUMP JUMPDEST PUSH3 0xE9D PUSH1 0x40 MLOAD DUP1 PUSH1 0x40 ADD PUSH1 0x40 MSTORE DUP1 PUSH1 0xC DUP2 MSTORE PUSH1 0x20 ADD PUSH32 0x736574426C61636B6C6973740000000000000000000000000000000000000000 DUP2 MSTORE POP PUSH1 0x2 DUP4 PUSH0 PUSH8 0xFFFFFFFFFFFFFFFF DUP2 GT ISZERO PUSH3 0xE61 JUMPI PUSH3 0xE60 PUSH3 0x1177 JUMP JUMPDEST JUMPDEST PUSH1 0x40 MLOAD SWAP1 DUP1 DUP3 MSTORE DUP1 PUSH1 0x20 MUL PUSH1 0x20 ADD DUP3 ADD PUSH1 0x40 MSTORE DUP1 ISZERO PUSH3 0xE90 JUMPI DUP2 PUSH1 0x20 ADD PUSH1 0x20 DUP3 MUL DUP1 CALLDATASIZE DUP4 CALLDATACOPY DUP1 DUP3 ADD SWAP2 POP POP SWAP1 POP JUMPDEST POP PUSH3 0xFBE PUSH1 0x20 SHL PUSH1 0x20 SHR JUMP JUMPDEST PUSH3 0xEE6 PUSH1 0x40 MLOAD DUP1 PUSH1 0x40 ADD PUSH1 0x40 MSTORE DUP1 PUSH1 0xB DUP2 MSTORE PUSH1 0x20 ADD PUSH32 0x6973426C61636B6C697374000000000000000000000000000000000000000000 DUP2 MSTORE POP PUSH0 DUP13 DUP5 PUSH3 0xFBE PUSH1 0x20 SHL PUSH1 0x20 SHR JUMP JUMPDEST POP POP POP POP POP POP POP POP POP POP PUSH3 0x159B JUMP JUMPDEST PUSH0 CALLER SWAP1 POP SWAP1 JUMP JUMPDEST PUSH0 DUP1 PUSH0 SWAP1 SLOAD SWAP1 PUSH2 0x100 EXP SWAP1 DIV PUSH20 0xFFFFFFFFFFFFFFFFFFFFFFFFFFFFFFFFFFFFFFFF AND SWAP1 POP DUP2 PUSH0 DUP1 PUSH2 0x100 EXP DUP2 SLOAD DUP2 PUSH20 0xFFFFFFFFFFFFFFFFFFFFFFFFFFFFFFFFFFFFFFFF MUL NOT AND SWAP1 DUP4 PUSH20 0xFFFFFFFFFFFFFFFFFFFFFFFFFFFFFFFFFFFFFFFF AND MUL OR SWAP1 SSTORE POP DUP2 PUSH20 0xFFFFFFFFFFFFFFFFFFFFFFFFFFFFFFFFFFFFFFFF AND DUP2 PUSH20 0xFFFFFFFFFFFFFFFFFFFFFFFFFFFFFFFFFFFFFFFF AND PUSH32 0x8BE0079C531659141344CD1FD0A4F28419497F9722A3DAAFE3B4186F6B6457E0 PUSH1 0x40 MLOAD PUSH1 0x40 MLOAD DUP1 SWAP2 SUB SWAP1 LOG3 POP POP JUMP JUMPDEST PUSH1 0x5 PUSH0 DUP5 PUSH1 0x3 DUP2 GT ISZERO PUSH3 0xFD7 JUMPI PUSH3 0xFD6 PUSH3 0x11D1 JUMP JUMPDEST JUMPDEST PUSH1 0x3 DUP2 GT ISZERO PUSH3 0xFEC JUMPI PUSH3 0xFEB PUSH3 0x11D1 JUMP JUMPDEST JUMPDEST DUP2 MSTORE PUSH1 0x20 ADD SWAP1 DUP2 MSTORE PUSH1 0x20 ADD PUSH0 KECCAK256 DUP5 SWAP1 DUP1 PUSH1 0x1 DUP2 SLOAD ADD DUP1 DUP3 SSTORE DUP1 SWAP2 POP POP PUSH1 0x1 SWAP1 SUB SWAP1 PUSH0 MSTORE PUSH1 0x20 PUSH0 KECCAK256 ADD PUSH0 SWAP1 SWAP2 SWAP1 SWAP2 SWAP1 SWAP2 POP SWAP1 DUP2 PUSH3 0x102A SWAP2 SWAP1 PUSH3 0x1435 JUMP JUMPDEST POP DUP2 PUSH1 0x3 DUP6 PUSH1 0x40 MLOAD PUSH3 0x103E SWAP2 SWAP1 PUSH3 0x1583 JUMP JUMPDEST SWAP1 DUP2 MSTORE PUSH1 0x20 ADD PUSH1 0x40 MLOAD DUP1 SWAP2 SUB SWAP1 KECCAK256 SWAP1 DUP1 MLOAD SWAP1 PUSH1 0x20 ADD SWAP1 PUSH3 0x1061 SWAP3 SWAP2 SWAP1 PUSH3 0x109F JUMP JUMPDEST POP DUP1 PUSH1 0x4 DUP6 PUSH1 0x40 MLOAD PUSH3 0x1075 SWAP2 SWAP1 PUSH3 0x1583 JUMP JUMPDEST SWAP1 DUP2 MSTORE PUSH1 0x20 ADD PUSH1 0x40 MLOAD DUP1 SWAP2 SUB SWAP1 KECCAK256 SWAP1 DUP1 MLOAD SWAP1 PUSH1 0x20 ADD SWAP1 PUSH3 0x1098 SWAP3 SWAP2 SWAP1 PUSH3 0x109F JUMP JUMPDEST POP POP POP POP POP JUMP JUMPDEST DUP3 DUP1 SLOAD DUP3 DUP3 SSTORE SWAP1 PUSH0 MSTORE PUSH1 0x20 PUSH0 KECCAK256 SWAP1 PUSH1 0x1F ADD PUSH1 0x20 SWAP1 DIV DUP2 ADD SWAP3 DUP3 ISZERO PUSH3 0x1147 JUMPI SWAP2 PUSH1 0x20 MUL DUP3 ADD PUSH0 JUMPDEST DUP4 DUP3 GT ISZERO PUSH3 0x1117 JUMPI DUP4 MLOAD DUP4 DUP3 PUSH2 0x100 EXP DUP2 SLOAD DUP2 PUSH1 0xFF MUL NOT AND SWAP1 DUP4 PUSH1 0xC6 DUP2 GT ISZERO PUSH3 0x10F6 JUMPI PUSH3 0x10F5 PUSH3 0x11D1 JUMP JUMPDEST JUMPDEST MUL OR SWAP1 SSTORE POP SWAP3 PUSH1 0x20 ADD SWAP3 PUSH1 0x1 ADD PUSH1 0x20 DUP2 PUSH0 ADD DIV SWAP3 DUP4 ADD SWAP3 PUSH1 0x1 SUB MUL PUSH3 0x10C6 JUMP JUMPDEST DUP1 ISZERO PUSH3 0x1145 JUMPI DUP3 DUP2 PUSH2 0x100 EXP DUP2 SLOAD SWAP1 PUSH1 0xFF MUL NOT AND SWAP1 SSTORE PUSH1 0x1 ADD PUSH1 0x20 DUP2 PUSH0 ADD DIV SWAP3 DUP4 ADD SWAP3 PUSH1 0x1 SUB MUL PUSH3 0x1117 JUMP JUMPDEST POP JUMPDEST POP SWAP1 POP PUSH3 0x1156 SWAP2 SWAP1 PUSH3 0x115A JUMP JUMPDEST POP SWAP1 JUMP JUMPDEST JUMPDEST DUP1 DUP3 GT ISZERO PUSH3 0x1173 JUMPI PUSH0 DUP2 PUSH0 SWAP1 SSTORE POP PUSH1 0x1 ADD PUSH3 0x115B JUMP JUMPDEST POP SWAP1 JUMP JUMPDEST PUSH32 0x4E487B7100000000000000000000000000000000000000000000000000000000 PUSH0 MSTORE PUSH1 0x41 PUSH1 0x4 MSTORE PUSH1 0x24 PUSH0 REVERT JUMPDEST PUSH32 0x4E487B7100000000000000000000000000000000000000000000000000000000 PUSH0 MSTORE PUSH1 0x32 PUSH1 0x4 MSTORE PUSH1 0x24 PUSH0 REVERT JUMPDEST PUSH32 0x4E487B7100000000000000000000000000000000000000000000000000000000 PUSH0 MSTORE PUSH1 0x21 PUSH1 0x4 MSTORE PUSH1 0x24 PUSH0 REVERT JUMPDEST PUSH0 DUP2 MLOAD SWAP1 POP SWAP2 SWAP1 POP JUMP JUMPDEST PUSH32 0x4E487B7100000000000000000000000000000000000000000000000000000000 PUSH0 MSTORE PUSH1 0x22 PUSH1 0x4 MSTORE PUSH1 0x24 PUSH0 REVERT JUMPDEST PUSH0 PUSH1 0x2 DUP3 DIV SWAP1 POP PUSH1 0x1 DUP3 AND DUP1 PUSH3 0x124D JUMPI PUSH1 0x7F DUP3 AND SWAP2 POP JUMPDEST PUSH1 0x20 DUP3 LT DUP2 SUB PUSH3 0x1263 JUMPI PUSH3 0x1262 PUSH3 0x1208 JUMP JUMPDEST JUMPDEST POP SWAP2 SWAP1 POP JUMP JUMPDEST PUSH0 DUP2 SWAP1 POP DUP2 PUSH0 MSTORE PUSH1 0x20 PUSH0 KECCAK256 SWAP1 POP SWAP2 SWAP1 POP JUMP JUMPDEST PUSH0 PUSH1 0x20 PUSH1 0x1F DUP4 ADD DIV SWAP1 POP SWAP2 SWAP1 POP JUMP JUMPDEST PUSH0 DUP3 DUP3 SHL SWAP1 POP SWAP3 SWAP2 POP POP JUMP JUMPDEST PUSH0 PUSH1 0x8 DUP4 MUL PUSH3 0x12C7 PUSH32 0xFFFFFFFFFFFFFFFFFFFFFFFFFFFFFFFFFFFFFFFFFFFFFFFFFFFFFFFFFFFFFFFF DUP3 PUSH3 0x128A JUMP JUMPDEST PUSH3 0x12D3 DUP7 DUP4 PUSH3 0x128A JUMP JUMPDEST SWAP6 POP DUP1 NOT DUP5 AND SWAP4 POP DUP1 DUP7 AND DUP5 OR SWAP3 POP POP POP SWAP4 SWAP3 POP POP POP JUMP JUMPDEST PUSH0 DUP2 SWAP1 POP SWAP2 SWAP1 POP JUMP JUMPDEST PUSH0 DUP2 SWAP1 POP SWAP2 SWAP1 POP JUMP JUMPDEST PUSH0 PUSH3 0x131D PUSH3 0x1317 PUSH3 0x1311 DUP5 PUSH3 0x12EB JUMP JUMPDEST PUSH3 0x12F4 JUMP JUMPDEST PUSH3 0x12EB JUMP JUMPDEST SWAP1 POP SWAP2 SWAP1 POP JUMP JUMPDEST PUSH0 DUP2 SWAP1 POP SWAP2 SWAP1 POP JUMP JUMPDEST PUSH3 0x1338 DUP4 PUSH3 0x12FD JUMP JUMPDEST PUSH3 0x1350 PUSH3 0x1347 DUP3 PUSH3 0x1324 JUMP JUMPDEST DUP5 DUP5 SLOAD PUSH3 0x1296 JUMP JUMPDEST DUP3 SSTORE POP POP POP POP JUMP JUMPDEST PUSH0 SWAP1 JUMP JUMPDEST PUSH3 0x1366 PUSH3 0x1358 JUMP JUMPDEST PUSH3 0x1373 DUP2 DUP5 DUP5 PUSH3 0x132D JUMP JUMPDEST POP POP POP JUMP JUMPDEST JUMPDEST DUP2 DUP2 LT ISZERO PUSH3 0x139A JUMPI PUSH3 0x138E PUSH0 DUP3 PUSH3 0x135C JUMP JUMPDEST PUSH1 0x1 DUP2 ADD SWAP1 POP PUSH3 0x1379 JUMP JUMPDEST POP POP JUMP JUMPDEST PUSH1 0x1F DUP3 GT ISZERO PUSH3 0x13E9 JUMPI PUSH3 0x13B3 DUP2 PUSH3 0x1269 JUMP JUMPDEST PUSH3 0x13BE DUP5 PUSH3 0x127B JUMP JUMPDEST DUP2 ADD PUSH1 0x20 DUP6 LT ISZERO PUSH3 0x13CE JUMPI DUP2 SWAP1 POP JUMPDEST PUSH3 0x13E6 PUSH3 0x13DD DUP6 PUSH3 0x127B JUMP JUMPDEST DUP4 ADD DUP3 PUSH3 0x1378 JUMP JUMPDEST POP POP JUMPDEST POP POP POP JUMP JUMPDEST PUSH0 DUP3 DUP3 SHR SWAP1 POP SWAP3 SWAP2 POP POP JUMP JUMPDEST PUSH0 PUSH3 0x140B PUSH0 NOT DUP5 PUSH1 0x8 MUL PUSH3 0x13EE JUMP JUMPDEST NOT DUP1 DUP4 AND SWAP2 POP POP SWAP3 SWAP2 POP POP JUMP JUMPDEST PUSH0 PUSH3 0x1425 DUP4 DUP4 PUSH3 0x13FA JUMP JUMPDEST SWAP2 POP DUP3 PUSH1 0x2 MUL DUP3 OR SWAP1 POP SWAP3 SWAP2 POP POP JUMP JUMPDEST PUSH3 0x1440 DUP3 PUSH3 0x11FE JUMP JUMPDEST PUSH8 0xFFFFFFFFFFFFFFFF DUP2 GT ISZERO PUSH3 0x145C JUMPI PUSH3 0x145B PUSH3 0x1177 JUMP JUMPDEST JUMPDEST PUSH3 0x1468 DUP3 SLOAD PUSH3 0x1235 JUMP JUMPDEST PUSH3 0x1475 DUP3 DUP3 DUP6 PUSH3 0x139E JUMP JUMPDEST PUSH0 PUSH1 0x20 SWAP1 POP PUSH1 0x1F DUP4 GT PUSH1 0x1 DUP2 EQ PUSH3 0x14AB JUMPI PUSH0 DUP5 ISZERO PUSH3 0x1496 JUMPI DUP3 DUP8 ADD MLOAD SWAP1 POP JUMPDEST PUSH3 0x14A2 DUP6 DUP3 PUSH3 0x1418 JUMP JUMPDEST DUP7 SSTORE POP PUSH3 0x1511 JUMP JUMPDEST PUSH1 0x1F NOT DUP5 AND PUSH3 0x14BB DUP7 PUSH3 0x1269 JUMP JUMPDEST PUSH0 JUMPDEST DUP3 DUP2 LT ISZERO PUSH3 0x14E4 JUMPI DUP5 DUP10 ADD MLOAD DUP3 SSTORE PUSH1 0x1 DUP3 ADD SWAP2 POP PUSH1 0x20 DUP6 ADD SWAP5 POP PUSH1 0x20 DUP2 ADD SWAP1 POP PUSH3 0x14BD JUMP JUMPDEST DUP7 DUP4 LT ISZERO PUSH3 0x1504 JUMPI DUP5 DUP10 ADD MLOAD PUSH3 0x1500 PUSH1 0x1F DUP10 AND DUP3 PUSH3 0x13FA JUMP JUMPDEST DUP4 SSTORE POP JUMPDEST PUSH1 0x1 PUSH1 0x2 DUP9 MUL ADD DUP9 SSTORE POP POP POP JUMPDEST POP POP POP POP POP POP JUMP JUMPDEST PUSH0 DUP2 SWAP1 POP SWAP3 SWAP2 POP POP JUMP JUMPDEST PUSH0 JUMPDEST DUP4 DUP2 LT ISZERO PUSH3 0x1542 JUMPI DUP1 DUP3 ADD MLOAD DUP2 DUP5 ADD MSTORE PUSH1 0x20 DUP2 ADD SWAP1 POP PUSH3 0x1525 JUMP JUMPDEST PUSH0 DUP5 DUP5 ADD MSTORE POP POP POP POP JUMP JUMPDEST PUSH0 PUSH3 0x1559 DUP3 PUSH3 0x11FE JUMP JUMPDEST PUSH3 0x1565 DUP2 DUP6 PUSH3 0x1519 JUMP JUMPDEST SWAP4 POP PUSH3 0x1577 DUP2 DUP6 PUSH1 0x20 DUP7 ADD PUSH3 0x1523 JUMP JUMPDEST DUP1 DUP5 ADD SWAP2 POP POP SWAP3 SWAP2 POP POP JUMP JUMPDEST PUSH0 PUSH3 0x1590 DUP3 DUP5 PUSH3 0x154D JUMP JUMPDEST SWAP2 POP DUP2 SWAP1 POP SWAP3 SWAP2 POP POP JUMP JUMPDEST PUSH2 0x48B9 DUP1 PUSH3 0x15A9 PUSH0 CODECOPY PUSH0 RETURN INVALID PUSH1 0x80 PUSH1 0x40 MSTORE PUSH1 0x4 CALLDATASIZE LT PUSH2 0x13F JUMPI PUSH0 CALLDATALOAD PUSH1 0xE0 SHR DUP1 PUSH4 0xA5CCF27E GT PUSH2 0xB5 JUMPI DUP1 PUSH4 0xE74FB54B GT PUSH2 0x6E JUMPI DUP1 PUSH4 0xE74FB54B EQ PUSH2 0x4C8 JUMPI DUP1 PUSH4 0xE9536472 EQ PUSH2 0x504 JUMPI DUP1 PUSH4 0xF0F5995F EQ PUSH2 0x534 JUMPI DUP1 PUSH4 0xF2FDE38B EQ PUSH2 0x570 JUMPI DUP1 PUSH4 0xF4856CCB EQ PUSH2 0x598 JUMPI DUP1 PUSH4 0xF7D8C1A6 EQ PUSH2 0x5D4 JUMPI PUSH2 0x13F JUMP JUMPDEST DUP1 PUSH4 0xA5CCF27E EQ PUSH2 0x36C JUMPI DUP1 PUSH4 0xAFF62745 EQ PUSH2 0x3A8 JUMPI DUP1 PUSH4 0xB6AE0425 EQ PUSH2 0x3E4 JUMPI DUP1 PUSH4 0xB8697891 EQ PUSH2 0x414 JUMPI DUP1 PUSH4 0xBEA402E1 EQ PUSH2 0x450 JUMPI DUP1 PUSH4 0xD0B3DE21 EQ PUSH2 0x48C JUMPI PUSH2 0x13F JUMP JUMPDEST DUP1 PUSH4 0x41B833D2 GT PUSH2 0x107 JUMPI DUP1 PUSH4 0x41B833D2 EQ PUSH2 0x24B JUMPI DUP1 PUSH4 0x458AD6D4 EQ PUSH2 0x289 JUMPI DUP1 PUSH4 0x715018A6 EQ PUSH2 0x2C6 JUMPI DUP1 PUSH4 0x8DA5CB5B EQ PUSH2 0x2DC JUMPI DUP1 PUSH4 0x8FEA7C24 EQ PUSH2 0x306 JUMPI DUP1 PUSH4 0x9FC89144 EQ PUSH2 0x342 JUMPI PUSH2 0x13F JUMP JUMPDEST DUP1 PUSH4 0x3D99BBB EQ PUSH2 0x143 JUMPI DUP1 PUSH4 0x9B79108 EQ PUSH2 0x17F JUMPI DUP1 PUSH4 0x1069143A EQ PUSH2 0x1BB JUMPI DUP1 PUSH4 0x174CFB46 EQ PUSH2 0x1E5 JUMPI DUP1 PUSH4 0x3FA2E9CE EQ PUSH2 0x20F JUMPI JUMPDEST PUSH0 DUP1 REVERT JUMPDEST CALLVALUE DUP1 ISZERO PUSH2 0x14E JUMPI PUSH0 DUP1 REVERT JUMPDEST POP PUSH2 0x169 PUSH1 0x4 DUP1 CALLDATASIZE SUB DUP2 ADD SWAP1 PUSH2 0x164 SWAP2 SWAP1 PUSH2 0x3067 JUMP JUMPDEST PUSH2 0x610 JUMP JUMPDEST PUSH1 0x40 MLOAD PUSH2 0x176 SWAP2 SWAP1 PUSH2 0x3208 JUMP JUMPDEST PUSH1 0x40 MLOAD DUP1 SWAP2 SUB SWAP1 RETURN JUMPDEST CALLVALUE DUP1 ISZERO PUSH2 0x18A JUMPI PUSH0 DUP1 REVERT JUMPDEST POP PUSH2 0x1A5 PUSH1 0x4 DUP1 CALLDATASIZE SUB DUP2 ADD SWAP1 PUSH2 0x1A0 SWAP2 SWAP1 PUSH2 0x3364 JUMP JUMPDEST PUSH2 0x918 JUMP JUMPDEST PUSH1 0x40 MLOAD PUSH2 0x1B2 SWAP2 SWAP1 PUSH2 0x3477 JUMP JUMPDEST PUSH1 0x40 MLOAD DUP1 SWAP2 SUB SWAP1 RETURN JUMPDEST CALLVALUE DUP1 ISZERO PUSH2 0x1C6 JUMPI PUSH0 DUP1 REVERT JUMPDEST POP PUSH2 0x1CF PUSH2 0xA49 JUMP JUMPDEST PUSH1 0x40 MLOAD PUSH2 0x1DC SWAP2 SWAP1 PUSH2 0x35B2 JUMP JUMPDEST PUSH1 0x40 MLOAD DUP1 SWAP2 SUB SWAP1 RETURN JUMPDEST CALLVALUE DUP1 ISZERO PUSH2 0x1F0 JUMPI PUSH0 DUP1 REVERT JUMPDEST POP PUSH2 0x1F9 PUSH2 0xBBD JUMP JUMPDEST PUSH1 0x40 MLOAD PUSH2 0x206 SWAP2 SWAP1 PUSH2 0x35E1 JUMP JUMPDEST PUSH1 0x40 MLOAD DUP1 SWAP2 SUB SWAP1 RETURN JUMPDEST CALLVALUE DUP1 ISZERO PUSH2 0x21A JUMPI PUSH0 DUP1 REVERT JUMPDEST POP PUSH2 0x235 PUSH1 0x4 DUP1 CALLDATASIZE SUB DUP2 ADD SWAP1 PUSH2 0x230 SWAP2 SWAP1 PUSH2 0x35FA JUMP JUMPDEST PUSH2 0xBC3 JUMP JUMPDEST PUSH1 0x40 MLOAD PUSH2 0x242 SWAP2 SWAP1 PUSH2 0x35E1 JUMP JUMPDEST PUSH1 0x40 MLOAD DUP1 SWAP2 SUB SWAP1 RETURN JUMPDEST CALLVALUE DUP1 ISZERO PUSH2 0x256 JUMPI PUSH0 DUP1 REVERT JUMPDEST POP PUSH2 0x271 PUSH1 0x4 DUP1 CALLDATASIZE SUB DUP2 ADD SWAP1 PUSH2 0x26C SWAP2 SWAP1 PUSH2 0x35FA JUMP JUMPDEST PUSH2 0xBD8 JUMP JUMPDEST PUSH1 0x40 MLOAD PUSH2 0x280 SWAP4 SWAP3 SWAP2 SWAP1 PUSH2 0x3634 JUMP JUMPDEST PUSH1 0x40 MLOAD DUP1 SWAP2 SUB SWAP1 RETURN JUMPDEST CALLVALUE DUP1 ISZERO PUSH2 0x294 JUMPI PUSH0 DUP1 REVERT JUMPDEST POP PUSH2 0x2AF PUSH1 0x4 DUP1 CALLDATASIZE SUB DUP2 ADD SWAP1 PUSH2 0x2AA SWAP2 SWAP1 PUSH2 0x3670 JUMP JUMPDEST PUSH2 0xCA3 JUMP JUMPDEST PUSH1 0x40 MLOAD PUSH2 0x2BD SWAP3 SWAP2 SWAP1 PUSH2 0x3795 JUMP JUMPDEST PUSH1 0x40 MLOAD DUP1 SWAP2 SUB SWAP1 RETURN JUMPDEST CALLVALUE DUP1 ISZERO PUSH2 0x2D1 JUMPI PUSH0 DUP1 REVERT JUMPDEST POP PUSH2 0x2DA PUSH2 0xDF1 JUMP JUMPDEST STOP JUMPDEST CALLVALUE DUP1 ISZERO PUSH2 0x2E7 JUMPI PUSH0 DUP1 REVERT JUMPDEST POP PUSH2 0x2F0 PUSH2 0xE78 JUMP JUMPDEST PUSH1 0x40 MLOAD PUSH2 0x2FD SWAP2 SWAP1 PUSH2 0x37CA JUMP JUMPDEST PUSH1 0x40 MLOAD DUP1 SWAP2 SUB SWAP1 RETURN JUMPDEST CALLVALUE DUP1 ISZERO PUSH2 0x311 JUMPI PUSH0 DUP1 REVERT JUMPDEST POP PUSH2 0x32C PUSH1 0x4 DUP1 CALLDATASIZE SUB DUP2 ADD SWAP1 PUSH2 0x327 SWAP2 SWAP1 PUSH2 0x37E3 JUMP JUMPDEST PUSH2 0xE9F JUMP JUMPDEST PUSH1 0x40 MLOAD PUSH2 0x339 SWAP2 SWAP1 PUSH2 0x3208 JUMP JUMPDEST PUSH1 0x40 MLOAD DUP1 SWAP2 SUB SWAP1 RETURN JUMPDEST CALLVALUE DUP1 ISZERO PUSH2 0x34D JUMPI PUSH0 DUP1 REVERT JUMPDEST POP PUSH2 0x356 PUSH2 0x116B JUMP JUMPDEST PUSH1 0x40 MLOAD PUSH2 0x363 SWAP2 SWAP1 PUSH2 0x35E1 JUMP JUMPDEST PUSH1 0x40 MLOAD DUP1 SWAP2 SUB SWAP1 RETURN JUMPDEST CALLVALUE DUP1 ISZERO PUSH2 0x377 JUMPI PUSH0 DUP1 REVERT JUMPDEST POP PUSH2 0x392 PUSH1 0x4 DUP1 CALLDATASIZE SUB DUP2 ADD SWAP1 PUSH2 0x38D SWAP2 SWAP1 PUSH2 0x3821 JUMP JUMPDEST PUSH2 0x1171 JUMP JUMPDEST PUSH1 0x40 MLOAD PUSH2 0x39F SWAP2 SWAP1 PUSH2 0x3208 JUMP JUMPDEST PUSH1 0x40 MLOAD DUP1 SWAP2 SUB SWAP1 RETURN JUMPDEST CALLVALUE DUP1 ISZERO PUSH2 0x3B3 JUMPI PUSH0 DUP1 REVERT JUMPDEST POP PUSH2 0x3CE PUSH1 0x4 DUP1 CALLDATASIZE SUB DUP2 ADD SWAP1 PUSH2 0x3C9 SWAP2 SWAP1 PUSH2 0x390F JUMP JUMPDEST PUSH2 0x14B7 JUMP JUMPDEST PUSH1 0x40 MLOAD PUSH2 0x3DB SWAP2 SWAP1 PUSH2 0x39D7 JUMP JUMPDEST PUSH1 0x40 MLOAD DUP1 SWAP2 SUB SWAP1 RETURN JUMPDEST PUSH2 0x3FE PUSH1 0x4 DUP1 CALLDATASIZE SUB DUP2 ADD SWAP1 PUSH2 0x3F9 SWAP2 SWAP1 PUSH2 0x390F JUMP JUMPDEST PUSH2 0x196D JUMP JUMPDEST PUSH1 0x40 MLOAD PUSH2 0x40B SWAP2 SWAP1 PUSH2 0x39D7 JUMP JUMPDEST PUSH1 0x40 MLOAD DUP1 SWAP2 SUB SWAP1 RETURN JUMPDEST CALLVALUE DUP1 ISZERO PUSH2 0x41F JUMPI PUSH0 DUP1 REVERT JUMPDEST POP PUSH2 0x43A PUSH1 0x4 DUP1 CALLDATASIZE SUB DUP2 ADD SWAP1 PUSH2 0x435 SWAP2 SWAP1 PUSH2 0x37E3 JUMP JUMPDEST PUSH2 0x1F02 JUMP JUMPDEST PUSH1 0x40 MLOAD PUSH2 0x447 SWAP2 SWAP1 PUSH2 0x3208 JUMP JUMPDEST PUSH1 0x40 MLOAD DUP1 SWAP2 SUB SWAP1 RETURN JUMPDEST CALLVALUE DUP1 ISZERO PUSH2 0x45B JUMPI PUSH0 DUP1 REVERT JUMPDEST POP PUSH2 0x476 PUSH1 0x4 DUP1 CALLDATASIZE SUB DUP2 ADD SWAP1 PUSH2 0x471 SWAP2 SWAP1 PUSH2 0x39F7 JUMP JUMPDEST PUSH2 0x21B6 JUMP JUMPDEST PUSH1 0x40 MLOAD PUSH2 0x483 SWAP2 SWAP1 PUSH2 0x35E1 JUMP JUMPDEST PUSH1 0x40 MLOAD DUP1 SWAP2 SUB SWAP1 RETURN JUMPDEST CALLVALUE DUP1 ISZERO PUSH2 0x497 JUMPI PUSH0 DUP1 REVERT JUMPDEST POP PUSH2 0x4B2 PUSH1 0x4 DUP1 CALLDATASIZE SUB DUP2 ADD SWAP1 PUSH2 0x4AD SWAP2 SWAP1 PUSH2 0x3A35 JUMP JUMPDEST PUSH2 0x21D6 JUMP JUMPDEST PUSH1 0x40 MLOAD PUSH2 0x4BF SWAP2 SWAP1 PUSH2 0x3A7A JUMP JUMPDEST PUSH1 0x40 MLOAD DUP1 SWAP2 SUB SWAP1 RETURN JUMPDEST CALLVALUE DUP1 ISZERO PUSH2 0x4D3 JUMPI PUSH0 DUP1 REVERT JUMPDEST POP PUSH2 0x4EE PUSH1 0x4 DUP1 CALLDATASIZE SUB DUP2 ADD SWAP1 PUSH2 0x4E9 SWAP2 SWAP1 PUSH2 0x3A93 JUMP JUMPDEST PUSH2 0x21F3 JUMP JUMPDEST PUSH1 0x40 MLOAD PUSH2 0x4FB SWAP2 SWAP1 PUSH2 0x35E1 JUMP JUMPDEST PUSH1 0x40 MLOAD DUP1 SWAP2 SUB SWAP1 RETURN JUMPDEST PUSH2 0x51E PUSH1 0x4 DUP1 CALLDATASIZE SUB DUP2 ADD SWAP1 PUSH2 0x519 SWAP2 SWAP1 PUSH2 0x390F JUMP JUMPDEST PUSH2 0x222B JUMP JUMPDEST PUSH1 0x40 MLOAD PUSH2 0x52B SWAP2 SWAP1 PUSH2 0x39D7 JUMP JUMPDEST PUSH1 0x40 MLOAD DUP1 SWAP2 SUB SWAP1 RETURN JUMPDEST CALLVALUE DUP1 ISZERO PUSH2 0x53F JUMPI PUSH0 DUP1 REVERT JUMPDEST POP PUSH2 0x55A PUSH1 0x4 DUP1 CALLDATASIZE SUB DUP2 ADD SWAP1 PUSH2 0x555 SWAP2 SWAP1 PUSH2 0x3670 JUMP JUMPDEST PUSH2 0x2668 JUMP JUMPDEST PUSH1 0x40 MLOAD PUSH2 0x567 SWAP2 SWAP1 PUSH2 0x35E1 JUMP JUMPDEST PUSH1 0x40 MLOAD DUP1 SWAP2 SUB SWAP1 RETURN JUMPDEST CALLVALUE DUP1 ISZERO PUSH2 0x57B JUMPI PUSH0 DUP1 REVERT JUMPDEST POP PUSH2 0x596 PUSH1 0x4 DUP1 CALLDATASIZE SUB DUP2 ADD SWAP1 PUSH2 0x591 SWAP2 SWAP1 PUSH2 0x3A35 JUMP JUMPDEST PUSH2 0x2695 JUMP JUMPDEST STOP JUMPDEST CALLVALUE DUP1 ISZERO PUSH2 0x5A3 JUMPI PUSH0 DUP1 REVERT JUMPDEST POP PUSH2 0x5BE PUSH1 0x4 DUP1 CALLDATASIZE SUB DUP2 ADD SWAP1 PUSH2 0x5B9 SWAP2 SWAP1 PUSH2 0x3B10 JUMP JUMPDEST PUSH2 0x278B JUMP JUMPDEST PUSH1 0x40 MLOAD PUSH2 0x5CB SWAP2 SWAP1 PUSH2 0x3208 JUMP JUMPDEST PUSH1 0x40 MLOAD DUP1 SWAP2 SUB SWAP1 RETURN JUMPDEST CALLVALUE DUP1 ISZERO PUSH2 0x5DF JUMPI PUSH0 DUP1 REVERT JUMPDEST POP PUSH2 0x5FA PUSH1 0x4 DUP1 CALLDATASIZE SUB DUP2 ADD SWAP1 PUSH2 0x5F5 SWAP2 SWAP1 PUSH2 0x3A35 JUMP JUMPDEST PUSH2 0x2894 JUMP JUMPDEST PUSH1 0x40 MLOAD PUSH2 0x607 SWAP2 SWAP1 PUSH2 0x35E1 JUMP JUMPDEST PUSH1 0x40 MLOAD DUP1 SWAP2 SUB SWAP1 RETURN JUMPDEST PUSH1 0x60 PUSH0 PUSH1 0x9 DUP6 PUSH1 0x40 MLOAD PUSH2 0x623 SWAP2 SWAP1 PUSH2 0x3B75 JUMP JUMPDEST SWAP1 DUP2 MSTORE PUSH1 0x20 ADD PUSH1 0x40 MLOAD DUP1 SWAP2 SUB SWAP1 KECCAK256 SLOAD SWAP1 POP PUSH0 DUP2 SUB PUSH2 0x696 JUMPI PUSH0 DUP1 PUSH8 0xFFFFFFFFFFFFFFFF DUP2 GT ISZERO PUSH2 0x656 JUMPI PUSH2 0x655 PUSH2 0x2F10 JUMP JUMPDEST JUMPDEST PUSH1 0x40 MLOAD SWAP1 DUP1 DUP3 MSTORE DUP1 PUSH1 0x20 MUL PUSH1 0x20 ADD DUP3 ADD PUSH1 0x40 MSTORE DUP1 ISZERO PUSH2 0x689 JUMPI DUP2 PUSH1 0x20 ADD JUMPDEST PUSH1 0x60 DUP2 MSTORE PUSH1 0x20 ADD SWAP1 PUSH1 0x1 SWAP1 SUB SWAP1 DUP2 PUSH2 0x674 JUMPI SWAP1 POP JUMPDEST POP SWAP1 POP DUP1 SWAP3 POP POP POP PUSH2 0x911 JUMP JUMPDEST PUSH1 0x1 DUP5 GT DUP1 ISZERO PUSH2 0x6C8 JUMPI POP PUSH1 0x1 DUP5 PUSH2 0x6AE SWAP2 SWAP1 PUSH2 0x3BB8 JUMP JUMPDEST DUP4 PUSH1 0x1 DUP4 PUSH2 0x6BC SWAP2 SWAP1 PUSH2 0x3BB8 JUMP JUMPDEST PUSH2 0x6C6 SWAP2 SWAP1 PUSH2 0x3C18 JUMP JUMPDEST LT JUMPDEST ISZERO PUSH2 0x728 JUMPI PUSH0 DUP1 PUSH8 0xFFFFFFFFFFFFFFFF DUP2 GT ISZERO PUSH2 0x6E8 JUMPI PUSH2 0x6E7 PUSH2 0x2F10 JUMP JUMPDEST JUMPDEST PUSH1 0x40 MLOAD SWAP1 DUP1 DUP3 MSTORE DUP1 PUSH1 0x20 MUL PUSH1 0x20 ADD DUP3 ADD PUSH1 0x40 MSTORE DUP1 ISZERO PUSH2 0x71B JUMPI DUP2 PUSH1 0x20 ADD JUMPDEST PUSH1 0x60 DUP2 MSTORE PUSH1 0x20 ADD SWAP1 PUSH1 0x1 SWAP1 SUB SWAP1 DUP2 PUSH2 0x706 JUMPI SWAP1 POP JUMPDEST POP SWAP1 POP DUP1 SWAP3 POP POP POP PUSH2 0x911 JUMP JUMPDEST PUSH0 DUP1 PUSH0 SWAP1 POP PUSH0 DUP6 PUSH1 0x1 DUP9 PUSH2 0x73C SWAP2 SWAP1 PUSH2 0x3BB8 JUMP JUMPDEST PUSH2 0x746 SWAP2 SWAP1 PUSH2 0x3C48 JUMP JUMPDEST PUSH1 0x1 DUP6 PUSH2 0x753 SWAP2 SWAP1 PUSH2 0x3BB8 JUMP JUMPDEST PUSH2 0x75D SWAP2 SWAP1 PUSH2 0x3BB8 JUMP JUMPDEST SWAP1 POP PUSH0 DUP7 DUP3 LT ISZERO PUSH2 0x77F JUMPI PUSH0 SWAP1 POP PUSH1 0x1 DUP3 PUSH2 0x778 SWAP2 SWAP1 PUSH2 0x3C89 JUMP JUMPDEST SWAP4 POP PUSH2 0x79D JUMP JUMPDEST PUSH1 0x1 DUP8 DUP4 PUSH2 0x78D SWAP2 SWAP1 PUSH2 0x3BB8 JUMP JUMPDEST PUSH2 0x797 SWAP2 SWAP1 PUSH2 0x3C89 JUMP JUMPDEST SWAP1 POP DUP7 SWAP4 POP JUMPDEST PUSH0 DUP5 PUSH8 0xFFFFFFFFFFFFFFFF DUP2 GT ISZERO PUSH2 0x7B8 JUMPI PUSH2 0x7B7 PUSH2 0x2F10 JUMP JUMPDEST JUMPDEST PUSH1 0x40 MLOAD SWAP1 DUP1 DUP3 MSTORE DUP1 PUSH1 0x20 MUL PUSH1 0x20 ADD DUP3 ADD PUSH1 0x40 MSTORE DUP1 ISZERO PUSH2 0x7EB JUMPI DUP2 PUSH1 0x20 ADD JUMPDEST PUSH1 0x60 DUP2 MSTORE PUSH1 0x20 ADD SWAP1 PUSH1 0x1 SWAP1 SUB SWAP1 DUP2 PUSH2 0x7D6 JUMPI SWAP1 POP JUMPDEST POP SWAP1 POP PUSH0 DUP4 SWAP1 POP JUMPDEST DUP3 DUP2 SLT PUSH2 0x906 JUMPI PUSH0 PUSH1 0xA DUP13 PUSH1 0x40 MLOAD PUSH2 0x80B SWAP2 SWAP1 PUSH2 0x3B75 JUMP JUMPDEST SWAP1 DUP2 MSTORE PUSH1 0x20 ADD PUSH1 0x40 MLOAD DUP1 SWAP2 SUB SWAP1 KECCAK256 PUSH0 DUP4 DUP2 MSTORE PUSH1 0x20 ADD SWAP1 DUP2 MSTORE PUSH1 0x20 ADD PUSH0 KECCAK256 SLOAD SWAP1 POP PUSH1 0x6 PUSH0 DUP3 DUP2 MSTORE PUSH1 0x20 ADD SWAP1 DUP2 MSTORE PUSH1 0x20 ADD PUSH0 KECCAK256 PUSH1 0x1 ADD DUP1 SLOAD PUSH2 0x84A SWAP1 PUSH2 0x3CE9 JUMP JUMPDEST DUP1 PUSH1 0x1F ADD PUSH1 0x20 DUP1 SWAP2 DIV MUL PUSH1 0x20 ADD PUSH1 0x40 MLOAD SWAP1 DUP2 ADD PUSH1 0x40 MSTORE DUP1 SWAP3 SWAP2 SWAP1 DUP2 DUP2 MSTORE PUSH1 0x20 ADD DUP3 DUP1 SLOAD PUSH2 0x876 SWAP1 PUSH2 0x3CE9 JUMP JUMPDEST DUP1 ISZERO PUSH2 0x8C1 JUMPI DUP1 PUSH1 0x1F LT PUSH2 0x898 JUMPI PUSH2 0x100 DUP1 DUP4 SLOAD DIV MUL DUP4 MSTORE SWAP2 PUSH1 0x20 ADD SWAP2 PUSH2 0x8C1 JUMP JUMPDEST DUP3 ADD SWAP2 SWAP1 PUSH0 MSTORE PUSH1 0x20 PUSH0 KECCAK256 SWAP1 JUMPDEST DUP2 SLOAD DUP2 MSTORE SWAP1 PUSH1 0x1 ADD SWAP1 PUSH1 0x20 ADD DUP1 DUP4 GT PUSH2 0x8A4 JUMPI DUP3 SWAP1 SUB PUSH1 0x1F AND DUP3 ADD SWAP2 JUMPDEST POP POP POP POP POP DUP4 DUP8 DUP2 MLOAD DUP2 LT PUSH2 0x8D9 JUMPI PUSH2 0x8D8 PUSH2 0x3D19 JUMP JUMPDEST JUMPDEST PUSH1 0x20 MUL PUSH1 0x20 ADD ADD DUP2 SWAP1 MSTORE POP DUP6 DUP1 PUSH2 0x8EF SWAP1 PUSH2 0x3D46 JUMP JUMPDEST SWAP7 POP POP POP DUP1 DUP1 PUSH2 0x8FE SWAP1 PUSH2 0x3D96 JUMP JUMPDEST SWAP2 POP POP PUSH2 0x7F3 JUMP JUMPDEST POP DUP1 SWAP7 POP POP POP POP POP POP POP JUMPDEST SWAP4 SWAP3 POP POP POP JUMP JUMPDEST PUSH1 0x60 DUP1 PUSH0 JUMPDEST DUP7 MLOAD DUP2 LT ISZERO PUSH2 0x9CA JUMPI PUSH0 DUP2 SUB PUSH2 0x976 JUMPI PUSH2 0x950 DUP8 DUP3 DUP2 MLOAD DUP2 LT PUSH2 0x943 JUMPI PUSH2 0x942 PUSH2 0x3D19 JUMP JUMPDEST JUMPDEST PUSH1 0x20 MUL PUSH1 0x20 ADD ADD MLOAD PUSH2 0x28A9 JUMP JUMPDEST PUSH1 0x40 MLOAD PUSH1 0x20 ADD PUSH2 0x960 SWAP2 SWAP1 PUSH2 0x3B75 JUMP JUMPDEST PUSH1 0x40 MLOAD PUSH1 0x20 DUP2 DUP4 SUB SUB DUP2 MSTORE SWAP1 PUSH1 0x40 MSTORE SWAP2 POP PUSH2 0x9BD JUMP JUMPDEST DUP2 PUSH2 0x99A DUP9 DUP4 DUP2 MLOAD DUP2 LT PUSH2 0x98D JUMPI PUSH2 0x98C PUSH2 0x3D19 JUMP JUMPDEST JUMPDEST PUSH1 0x20 MUL PUSH1 0x20 ADD ADD MLOAD PUSH2 0x28A9 JUMP JUMPDEST PUSH1 0x40 MLOAD PUSH1 0x20 ADD PUSH2 0x9AB SWAP3 SWAP2 SWAP1 PUSH2 0x3E61 JUMP JUMPDEST PUSH1 0x40 MLOAD PUSH1 0x20 DUP2 DUP4 SUB SUB DUP2 MSTORE SWAP1 PUSH1 0x40 MSTORE SWAP2 POP JUMPDEST DUP1 DUP1 PUSH1 0x1 ADD SWAP2 POP POP PUSH2 0x91D JUMP JUMPDEST POP PUSH2 0x9D4 DUP8 PUSH2 0x2A39 JUMP JUMPDEST PUSH2 0x9DD DUP3 PUSH2 0x28A9 JUMP JUMPDEST PUSH2 0x9E6 DUP8 PUSH2 0x28A9 JUMP JUMPDEST PUSH2 0x9EF DUP8 PUSH2 0x28A9 JUMP JUMPDEST PUSH2 0xA10 DUP8 PUSH20 0xFFFFFFFFFFFFFFFFFFFFFFFFFFFFFFFFFFFFFFFF AND PUSH1 0x14 PUSH2 0x2B92 JUMP JUMPDEST PUSH2 0xA19 TIMESTAMP PUSH2 0x2A39 JUMP JUMPDEST PUSH1 0x40 MLOAD PUSH1 0x20 ADD PUSH2 0xA2E SWAP7 SWAP6 SWAP5 SWAP4 SWAP3 SWAP2 SWAP1 PUSH2 0x3E8F JUMP JUMPDEST PUSH1 0x40 MLOAD PUSH1 0x20 DUP2 DUP4 SUB SUB DUP2 MSTORE SWAP1 PUSH1 0x40 MSTORE SWAP2 POP POP SWAP6 SWAP5 POP POP POP POP POP JUMP JUMPDEST PUSH1 0x60 PUSH0 PUSH1 0x4 PUSH8 0xFFFFFFFFFFFFFFFF DUP2 GT ISZERO PUSH2 0xA67 JUMPI PUSH2 0xA66 PUSH2 0x2F10 JUMP JUMPDEST JUMPDEST PUSH1 0x40 MLOAD SWAP1 DUP1 DUP3 MSTORE DUP1 PUSH1 0x20 MUL PUSH1 0x20 ADD DUP3 ADD PUSH1 0x40 MSTORE DUP1 ISZERO PUSH2 0xA95 JUMPI DUP2 PUSH1 0x20 ADD PUSH1 0x20 DUP3 MUL DUP1 CALLDATASIZE DUP4 CALLDATACOPY DUP1 DUP3 ADD SWAP2 POP POP SWAP1 POP JUMPDEST POP SWAP1 POP PUSH0 DUP2 PUSH0 DUP2 MLOAD DUP2 LT PUSH2 0xAAC JUMPI PUSH2 0xAAB PUSH2 0x3D19 JUMP JUMPDEST JUMPDEST PUSH1 0x20 MUL PUSH1 0x20 ADD ADD SWAP1 PUSH1 0x3 DUP2 GT ISZERO PUSH2 0xAC6 JUMPI PUSH2 0xAC5 PUSH2 0x34C0 JUMP JUMPDEST JUMPDEST SWAP1 DUP2 PUSH1 0x3 DUP2 GT ISZERO PUSH2 0xADA JUMPI PUSH2 0xAD9 PUSH2 0x34C0 JUMP JUMPDEST JUMPDEST DUP2 MSTORE POP POP PUSH1 0x1 DUP2 PUSH1 0x1 DUP2 MLOAD DUP2 LT PUSH2 0xAF4 JUMPI PUSH2 0xAF3 PUSH2 0x3D19 JUMP JUMPDEST JUMPDEST PUSH1 0x20 MUL PUSH1 0x20 ADD ADD SWAP1 PUSH1 0x3 DUP2 GT ISZERO PUSH2 0xB0E JUMPI PUSH2 0xB0D PUSH2 0x34C0 JUMP JUMPDEST JUMPDEST SWAP1 DUP2 PUSH1 0x3 DUP2 GT ISZERO PUSH2 0xB22 JUMPI PUSH2 0xB21 PUSH2 0x34C0 JUMP JUMPDEST JUMPDEST DUP2 MSTORE POP POP PUSH1 0x2 DUP2 PUSH1 0x2 DUP2 MLOAD DUP2 LT PUSH2 0xB3C JUMPI PUSH2 0xB3B PUSH2 0x3D19 JUMP JUMPDEST JUMPDEST PUSH1 0x20 MUL PUSH1 0x20 ADD ADD SWAP1 PUSH1 0x3 DUP2 GT ISZERO PUSH2 0xB56 JUMPI PUSH2 0xB55 PUSH2 0x34C0 JUMP JUMPDEST JUMPDEST SWAP1 DUP2 PUSH1 0x3 DUP2 GT ISZERO PUSH2 0xB6A JUMPI PUSH2 0xB69 PUSH2 0x34C0 JUMP JUMPDEST JUMPDEST DUP2 MSTORE POP POP PUSH1 0x3 DUP2 PUSH1 0x3 DUP2 MLOAD DUP2 LT PUSH2 0xB84 JUMPI PUSH2 0xB83 PUSH2 0x3D19 JUMP JUMPDEST JUMPDEST PUSH1 0x20 MUL PUSH1 0x20 ADD ADD SWAP1 PUSH1 0x3 DUP2 GT ISZERO PUSH2 0xB9E JUMPI PUSH2 0xB9D PUSH2 0x34C0 JUMP JUMPDEST JUMPDEST SWAP1 DUP2 PUSH1 0x3 DUP2 GT ISZERO PUSH2 0xBB2 JUMPI PUSH2 0xBB1 PUSH2 0x34C0 JUMP JUMPDEST JUMPDEST DUP2 MSTORE POP POP DUP1 SWAP2 POP POP SWAP1 JUMP JUMPDEST PUSH1 0xB SLOAD DUP2 JUMP JUMPDEST PUSH1 0xC PUSH1 0x20 MSTORE DUP1 PUSH0 MSTORE PUSH1 0x40 PUSH0 KECCAK256 PUSH0 SWAP2 POP SWAP1 POP SLOAD DUP2 JUMP JUMPDEST PUSH1 0x6 PUSH1 0x20 MSTORE DUP1 PUSH0 MSTORE PUSH1 0x40 PUSH0 KECCAK256 PUSH0 SWAP2 POP SWAP1 POP DUP1 PUSH0 ADD SLOAD SWAP1 DUP1 PUSH1 0x1 ADD DUP1 SLOAD PUSH2 0xBFD SWAP1 PUSH2 0x3CE9 JUMP JUMPDEST DUP1 PUSH1 0x1F ADD PUSH1 0x20 DUP1 SWAP2 DIV MUL PUSH1 0x20 ADD PUSH1 0x40 MLOAD SWAP1 DUP2 ADD PUSH1 0x40 MSTORE DUP1 SWAP3 SWAP2 SWAP1 DUP2 DUP2 MSTORE PUSH1 0x20 ADD DUP3 DUP1 SLOAD PUSH2 0xC29 SWAP1 PUSH2 0x3CE9 JUMP JUMPDEST DUP1 ISZERO PUSH2 0xC74 JUMPI DUP1 PUSH1 0x1F LT PUSH2 0xC4B JUMPI PUSH2 0x100 DUP1 DUP4 SLOAD DIV MUL DUP4 MSTORE SWAP2 PUSH1 0x20 ADD SWAP2 PUSH2 0xC74 JUMP JUMPDEST DUP3 ADD SWAP2 SWAP1 PUSH0 MSTORE PUSH1 0x20 PUSH0 KECCAK256 SWAP1 JUMPDEST DUP2 SLOAD DUP2 MSTORE SWAP1 PUSH1 0x1 ADD SWAP1 PUSH1 0x20 ADD DUP1 DUP4 GT PUSH2 0xC57 JUMPI DUP3 SWAP1 SUB PUSH1 0x1F AND DUP3 ADD SWAP2 JUMPDEST POP POP POP POP POP SWAP1 DUP1 PUSH1 0x2 ADD PUSH0 SWAP1 SLOAD SWAP1 PUSH2 0x100 EXP SWAP1 DIV PUSH20 0xFFFFFFFFFFFFFFFFFFFFFFFFFFFFFFFFFFFFFFFF AND SWAP1 POP DUP4 JUMP JUMPDEST PUSH1 0x60 DUP1 PUSH1 0x3 DUP4 PUSH1 0x40 MLOAD PUSH2 0xCB6 SWAP2 SWAP1 PUSH2 0x3B75 JUMP JUMPDEST SWAP1 DUP2 MSTORE PUSH1 0x20 ADD PUSH1 0x40 MLOAD DUP1 SWAP2 SUB SWAP1 KECCAK256 PUSH1 0x4 DUP5 PUSH1 0x40 MLOAD PUSH2 0xCD4 SWAP2 SWAP1 PUSH2 0x3B75 JUMP JUMPDEST SWAP1 DUP2 MSTORE PUSH1 0x20 ADD PUSH1 0x40 MLOAD DUP1 SWAP2 SUB SWAP1 KECCAK256 DUP2 DUP1 SLOAD DUP1 PUSH1 0x20 MUL PUSH1 0x20 ADD PUSH1 0x40 MLOAD SWAP1 DUP2 ADD PUSH1 0x40 MSTORE DUP1 SWAP3 SWAP2 SWAP1 DUP2 DUP2 MSTORE PUSH1 0x20 ADD DUP3 DUP1 SLOAD DUP1 ISZERO PUSH2 0xD5E JUMPI PUSH1 0x20 MUL DUP3 ADD SWAP2 SWAP1 PUSH0 MSTORE PUSH1 0x20 PUSH0 KECCAK256 SWAP1 PUSH0 SWAP1 JUMPDEST DUP3 DUP3 SWAP1 SLOAD SWAP1 PUSH2 0x100 EXP SWAP1 DIV PUSH1 0xFF AND PUSH1 0xC6 DUP2 GT ISZERO PUSH2 0xD39 JUMPI PUSH2 0xD38 PUSH2 0x34C0 JUMP JUMPDEST JUMPDEST DUP2 MSTORE PUSH1 0x20 ADD SWAP1 PUSH1 0x1 ADD SWAP1 PUSH1 0x20 DUP3 PUSH0 ADD DIV SWAP3 DUP4 ADD SWAP3 PUSH1 0x1 SUB DUP3 MUL SWAP2 POP DUP1 DUP5 GT PUSH2 0xD19 JUMPI SWAP1 POP JUMPDEST POP POP POP POP POP SWAP2 POP DUP1 DUP1 SLOAD DUP1 PUSH1 0x20 MUL PUSH1 0x20 ADD PUSH1 0x40 MLOAD SWAP1 DUP2 ADD PUSH1 0x40 MSTORE DUP1 SWAP3 SWAP2 SWAP1 DUP2 DUP2 MSTORE PUSH1 0x20 ADD DUP3 DUP1 SLOAD DUP1 ISZERO PUSH2 0xDE1 JUMPI PUSH1 0x20 MUL DUP3 ADD SWAP2 SWAP1 PUSH0 MSTORE PUSH1 0x20 PUSH0 KECCAK256 SWAP1 PUSH0 SWAP1 JUMPDEST DUP3 DUP3 SWAP1 SLOAD SWAP1 PUSH2 0x100 EXP SWAP1 DIV PUSH1 0xFF AND PUSH1 0xC6 DUP2 GT ISZERO PUSH2 0xDBC JUMPI PUSH2 0xDBB PUSH2 0x34C0 JUMP JUMPDEST JUMPDEST DUP2 MSTORE PUSH1 0x20 ADD SWAP1 PUSH1 0x1 ADD SWAP1 PUSH1 0x20 DUP3 PUSH0 ADD DIV SWAP3 DUP4 ADD SWAP3 PUSH1 0x1 SUB DUP3 MUL SWAP2 POP DUP1 DUP5 GT PUSH2 0xD9C JUMPI SWAP1 POP JUMPDEST POP POP POP POP POP SWAP1 POP SWAP2 POP SWAP2 POP SWAP2 POP SWAP2 JUMP JUMPDEST PUSH2 0xDF9 PUSH2 0x2DC7 JUMP JUMPDEST PUSH20 0xFFFFFFFFFFFFFFFFFFFFFFFFFFFFFFFFFFFFFFFF AND PUSH2 0xE17 PUSH2 0xE78 JUMP JUMPDEST PUSH20 0xFFFFFFFFFFFFFFFFFFFFFFFFFFFFFFFFFFFFFFFF AND EQ PUSH2 0xE6D JUMPI PUSH1 0x40 MLOAD PUSH32 0x8C379A000000000000000000000000000000000000000000000000000000000 DUP2 MSTORE PUSH1 0x4 ADD PUSH2 0xE64 SWAP1 PUSH2 0x3F67 JUMP JUMPDEST PUSH1 0x40 MLOAD DUP1 SWAP2 SUB SWAP1 REVERT JUMPDEST PUSH2 0xE76 PUSH0 PUSH2 0x2DCE JUMP JUMPDEST JUMP JUMPDEST PUSH0 DUP1 PUSH0 SWAP1 SLOAD SWAP1 PUSH2 0x100 EXP SWAP1 DIV PUSH20 0xFFFFFFFFFFFFFFFFFFFFFFFFFFFFFFFFFFFFFFFF AND SWAP1 POP SWAP1 JUMP JUMPDEST PUSH1 0x60 PUSH0 PUSH1 0xB SLOAD SUB PUSH2 0xF04 JUMPI PUSH0 DUP1 PUSH8 0xFFFFFFFFFFFFFFFF DUP2 GT ISZERO PUSH2 0xEC5 JUMPI PUSH2 0xEC4 PUSH2 0x2F10 JUMP JUMPDEST JUMPDEST PUSH1 0x40 MLOAD SWAP1 DUP1 DUP3 MSTORE DUP1 PUSH1 0x20 MUL PUSH1 0x20 ADD DUP3 ADD PUSH1 0x40 MSTORE DUP1 ISZERO PUSH2 0xEF8 JUMPI DUP2 PUSH1 0x20 ADD JUMPDEST PUSH1 0x60 DUP2 MSTORE PUSH1 0x20 ADD SWAP1 PUSH1 0x1 SWAP1 SUB SWAP1 DUP2 PUSH2 0xEE3 JUMPI SWAP1 POP JUMPDEST POP SWAP1 POP DUP1 SWAP2 POP POP PUSH2 0x1165 JUMP JUMPDEST PUSH1 0x1 DUP4 GT DUP1 ISZERO PUSH2 0xF38 JUMPI POP PUSH1 0x1 DUP4 PUSH2 0xF1C SWAP2 SWAP1 PUSH2 0x3BB8 JUMP JUMPDEST DUP3 PUSH1 0x1 PUSH1 0xB SLOAD PUSH2 0xF2C SWAP2 SWAP1 PUSH2 0x3BB8 JUMP JUMPDEST PUSH2 0xF36 SWAP2 SWAP1 PUSH2 0x3C18 JUMP JUMPDEST LT JUMPDEST ISZERO PUSH2 0xF97 JUMPI PUSH0 DUP1 PUSH8 0xFFFFFFFFFFFFFFFF DUP2 GT ISZERO PUSH2 0xF58 JUMPI PUSH2 0xF57 PUSH2 0x2F10 JUMP JUMPDEST JUMPDEST PUSH1 0x40 MLOAD SWAP1 DUP1 DUP3 MSTORE DUP1 PUSH1 0x20 MUL PUSH1 0x20 ADD DUP3 ADD PUSH1 0x40 MSTORE DUP1 ISZERO PUSH2 0xF8B JUMPI DUP2 PUSH1 0x20 ADD JUMPDEST PUSH1 0x60 DUP2 MSTORE PUSH1 0x20 ADD SWAP1 PUSH1 0x1 SWAP1 SUB SWAP1 DUP2 PUSH2 0xF76 JUMPI SWAP1 POP JUMPDEST POP SWAP1 POP DUP1 SWAP2 POP POP PUSH2 0x1165 JUMP JUMPDEST PUSH0 DUP1 PUSH0 SWAP1 POP PUSH0 DUP5 PUSH1 0x1 DUP8 PUSH2 0xFAB SWAP2 SWAP1 PUSH2 0x3BB8 JUMP JUMPDEST PUSH2 0xFB5 SWAP2 SWAP1 PUSH2 0x3C48 JUMP JUMPDEST PUSH1 0x1 PUSH1 0xB SLOAD PUSH2 0xFC4 SWAP2 SWAP1 PUSH2 0x3BB8 JUMP JUMPDEST PUSH2 0xFCE SWAP2 SWAP1 PUSH2 0x3BB8 JUMP JUMPDEST SWAP1 POP PUSH0 DUP6 DUP3 LT ISZERO PUSH2 0xFF0 JUMPI PUSH0 SWAP1 POP PUSH1 0x1 DUP3 PUSH2 0xFE9 SWAP2 SWAP1 PUSH2 0x3C89 JUMP JUMPDEST SWAP4 POP PUSH2 0x100E JUMP JUMPDEST PUSH1 0x1 DUP7 DUP4 PUSH2 0xFFE SWAP2 SWAP1 PUSH2 0x3BB8 JUMP JUMPDEST PUSH2 0x1008 SWAP2 SWAP1 PUSH2 0x3C89 JUMP JUMPDEST SWAP1 POP DUP6 SWAP4 POP JUMPDEST PUSH0 DUP5 PUSH8 0xFFFFFFFFFFFFFFFF DUP2 GT ISZERO PUSH2 0x1029 JUMPI PUSH2 0x1028 PUSH2 0x2F10 JUMP JUMPDEST JUMPDEST PUSH1 0x40 MLOAD SWAP1 DUP1 DUP3 MSTORE DUP1 PUSH1 0x20 MUL PUSH1 0x20 ADD DUP3 ADD PUSH1 0x40 MSTORE DUP1 ISZERO PUSH2 0x105C JUMPI DUP2 PUSH1 0x20 ADD JUMPDEST PUSH1 0x60 DUP2 MSTORE PUSH1 0x20 ADD SWAP1 PUSH1 0x1 SWAP1 SUB SWAP1 DUP2 PUSH2 0x1047 JUMPI SWAP1 POP JUMPDEST POP SWAP1 POP PUSH0 DUP4 SWAP1 POP JUMPDEST DUP3 DUP2 SLT PUSH2 0x115B JUMPI PUSH0 PUSH1 0xC PUSH0 DUP4 DUP2 MSTORE PUSH1 0x20 ADD SWAP1 DUP2 MSTORE PUSH1 0x20 ADD PUSH0 KECCAK256 SLOAD SWAP1 POP PUSH1 0x6 PUSH0 DUP3 DUP2 MSTORE PUSH1 0x20 ADD SWAP1 DUP2 MSTORE PUSH1 0x20 ADD PUSH0 KECCAK256 PUSH1 0x1 ADD DUP1 SLOAD PUSH2 0x109F SWAP1 PUSH2 0x3CE9 JUMP JUMPDEST DUP1 PUSH1 0x1F ADD PUSH1 0x20 DUP1 SWAP2 DIV MUL PUSH1 0x20 ADD PUSH1 0x40 MLOAD SWAP1 DUP2 ADD PUSH1 0x40 MSTORE DUP1 SWAP3 SWAP2 SWAP1 DUP2 DUP2 MSTORE PUSH1 0x20 ADD DUP3 DUP1 SLOAD PUSH2 0x10CB SWAP1 PUSH2 0x3CE9 JUMP JUMPDEST DUP1 ISZERO PUSH2 0x1116 JUMPI DUP1 PUSH1 0x1F LT PUSH2 0x10ED JUMPI PUSH2 0x100 DUP1 DUP4 SLOAD DIV MUL DUP4 MSTORE SWAP2 PUSH1 0x20 ADD SWAP2 PUSH2 0x1116 JUMP JUMPDEST DUP3 ADD SWAP2 SWAP1 PUSH0 MSTORE PUSH1 0x20 PUSH0 KECCAK256 SWAP1 JUMPDEST DUP2 SLOAD DUP2 MSTORE SWAP1 PUSH1 0x1 ADD SWAP1 PUSH1 0x20 ADD DUP1 DUP4 GT PUSH2 0x10F9 JUMPI DUP3 SWAP1 SUB PUSH1 0x1F AND DUP3 ADD SWAP2 JUMPDEST POP POP POP POP POP DUP4 DUP8 DUP2 MLOAD DUP2 LT PUSH2 0x112E JUMPI PUSH2 0x112D PUSH2 0x3D19 JUMP JUMPDEST JUMPDEST PUSH1 0x20 MUL PUSH1 0x20 ADD ADD DUP2 SWAP1 MSTORE POP DUP6 DUP1 PUSH2 0x1144 SWAP1 PUSH2 0x3D46 JUMP JUMPDEST SWAP7 POP POP POP DUP1 DUP1 PUSH2 0x1153 SWAP1 PUSH2 0x3D96 JUMP JUMPDEST SWAP2 POP POP PUSH2 0x1064 JUMP JUMPDEST POP DUP1 SWAP6 POP POP POP POP POP POP JUMPDEST SWAP3 SWAP2 POP POP JUMP JUMPDEST PUSH1 0x1 SLOAD DUP2 JUMP JUMPDEST PUSH1 0x60 PUSH0 PUSH1 0x7 PUSH0 DUP7 PUSH20 0xFFFFFFFFFFFFFFFFFFFFFFFFFFFFFFFFFFFFFFFF AND PUSH20 0xFFFFFFFFFFFFFFFFFFFFFFFFFFFFFFFFFFFFFFFF AND DUP2 MSTORE PUSH1 0x20 ADD SWAP1 DUP2 MSTORE PUSH1 0x20 ADD PUSH0 KECCAK256 SLOAD SWAP1 POP PUSH0 DUP2 SUB PUSH2 0x1216 JUMPI PUSH0 DUP1 PUSH8 0xFFFFFFFFFFFFFFFF DUP2 GT ISZERO PUSH2 0x11D6 JUMPI PUSH2 0x11D5 PUSH2 0x2F10 JUMP JUMPDEST JUMPDEST PUSH1 0x40 MLOAD SWAP1 DUP1 DUP3 MSTORE DUP1 PUSH1 0x20 MUL PUSH1 0x20 ADD DUP3 ADD PUSH1 0x40 MSTORE DUP1 ISZERO PUSH2 0x1209 JUMPI DUP2 PUSH1 0x20 ADD JUMPDEST PUSH1 0x60 DUP2 MSTORE PUSH1 0x20 ADD SWAP1 PUSH1 0x1 SWAP1 SUB SWAP1 DUP2 PUSH2 0x11F4 JUMPI SWAP1 POP JUMPDEST POP SWAP1 POP DUP1 SWAP3 POP POP POP PUSH2 0x14B0 JUMP JUMPDEST PUSH1 0x1 DUP5 GT DUP1 ISZERO PUSH2 0x1248 JUMPI POP PUSH1 0x1 DUP5 PUSH2 0x122E SWAP2 SWAP1 PUSH2 0x3BB8 JUMP JUMPDEST DUP4 PUSH1 0x1 DUP4 PUSH2 0x123C SWAP2 SWAP1 PUSH2 0x3BB8 JUMP JUMPDEST PUSH2 0x1246 SWAP2 SWAP1 PUSH2 0x3C18 JUMP JUMPDEST LT JUMPDEST ISZERO PUSH2 0x12A8 JUMPI PUSH0 DUP1 PUSH8 0xFFFFFFFFFFFFFFFF DUP2 GT ISZERO PUSH2 0x1268 JUMPI PUSH2 0x1267 PUSH2 0x2F10 JUMP JUMPDEST JUMPDEST PUSH1 0x40 MLOAD SWAP1 DUP1 DUP3 MSTORE DUP1 PUSH1 0x20 MUL PUSH1 0x20 ADD DUP3 ADD PUSH1 0x40 MSTORE DUP1 ISZERO PUSH2 0x129B JUMPI DUP2 PUSH1 0x20 ADD JUMPDEST PUSH1 0x60 DUP2 MSTORE PUSH1 0x20 ADD SWAP1 PUSH1 0x1 SWAP1 SUB SWAP1 DUP2 PUSH2 0x1286 JUMPI SWAP1 POP JUMPDEST POP SWAP1 POP DUP1 SWAP3 POP POP POP PUSH2 0x14B0 JUMP JUMPDEST PUSH0 DUP1 PUSH0 SWAP1 POP PUSH0 DUP6 PUSH1 0x1 DUP9 PUSH2 0x12BC SWAP2 SWAP1 PUSH2 0x3BB8 JUMP JUMPDEST PUSH2 0x12C6 SWAP2 SWAP1 PUSH2 0x3C48 JUMP JUMPDEST PUSH1 0x1 DUP6 PUSH2 0x12D3 SWAP2 SWAP1 PUSH2 0x3BB8 JUMP JUMPDEST PUSH2 0x12DD SWAP2 SWAP1 PUSH2 0x3BB8 JUMP JUMPDEST SWAP1 POP PUSH0 DUP7 DUP3 LT ISZERO PUSH2 0x12FF JUMPI PUSH0 SWAP1 POP PUSH1 0x1 DUP3 PUSH2 0x12F8 SWAP2 SWAP1 PUSH2 0x3C89 JUMP JUMPDEST SWAP4 POP PUSH2 0x131D JUMP JUMPDEST PUSH1 0x1 DUP8 DUP4 PUSH2 0x130D SWAP2 SWAP1 PUSH2 0x3BB8 JUMP JUMPDEST PUSH2 0x1317 SWAP2 SWAP1 PUSH2 0x3C89 JUMP JUMPDEST SWAP1 POP DUP7 SWAP4 POP JUMPDEST PUSH0 DUP5 PUSH8 0xFFFFFFFFFFFFFFFF DUP2 GT ISZERO PUSH2 0x1338 JUMPI PUSH2 0x1337 PUSH2 0x2F10 JUMP JUMPDEST JUMPDEST PUSH1 0x40 MLOAD SWAP1 DUP1 DUP3 MSTORE DUP1 PUSH1 0x20 MUL PUSH1 0x20 ADD DUP3 ADD PUSH1 0x40 MSTORE DUP1 ISZERO PUSH2 0x136B JUMPI DUP2 PUSH1 0x20 ADD JUMPDEST PUSH1 0x60 DUP2 MSTORE PUSH1 0x20 ADD SWAP1 PUSH1 0x1 SWAP1 SUB SWAP1 DUP2 PUSH2 0x1356 JUMPI SWAP1 POP JUMPDEST POP SWAP1 POP PUSH0 DUP4 SWAP1 POP JUMPDEST DUP3 DUP2 SLT PUSH2 0x14A5 JUMPI PUSH0 PUSH1 0x8 PUSH0 DUP14 PUSH20 0xFFFFFFFFFFFFFFFFFFFFFFFFFFFFFFFFFFFFFFFF AND PUSH20 0xFFFFFFFFFFFFFFFFFFFFFFFFFFFFFFFFFFFFFFFF AND DUP2 MSTORE PUSH1 0x20 ADD SWAP1 DUP2 MSTORE PUSH1 0x20 ADD PUSH0 KECCAK256 PUSH0 DUP4 DUP2 MSTORE PUSH1 0x20 ADD SWAP1 DUP2 MSTORE PUSH1 0x20 ADD PUSH0 KECCAK256 SLOAD SWAP1 POP PUSH1 0x6 PUSH0 DUP3 DUP2 MSTORE PUSH1 0x20 ADD SWAP1 DUP2 MSTORE PUSH1 0x20 ADD PUSH0 KECCAK256 PUSH1 0x1 ADD DUP1 SLOAD PUSH2 0x13E9 SWAP1 PUSH2 0x3CE9 JUMP JUMPDEST DUP1 PUSH1 0x1F ADD PUSH1 0x20 DUP1 SWAP2 DIV MUL PUSH1 0x20 ADD PUSH1 0x40 MLOAD SWAP1 DUP2 ADD PUSH1 0x40 MSTORE DUP1 SWAP3 SWAP2 SWAP1 DUP2 DUP2 MSTORE PUSH1 0x20 ADD DUP3 DUP1 SLOAD PUSH2 0x1415 SWAP1 PUSH2 0x3CE9 JUMP JUMPDEST DUP1 ISZERO PUSH2 0x1460 JUMPI DUP1 PUSH1 0x1F LT PUSH2 0x1437 JUMPI PUSH2 0x100 DUP1 DUP4 SLOAD DIV MUL DUP4 MSTORE SWAP2 PUSH1 0x20 ADD SWAP2 PUSH2 0x1460 JUMP JUMPDEST DUP3 ADD SWAP2 SWAP1 PUSH0 MSTORE PUSH1 0x20 PUSH0 KECCAK256 SWAP1 JUMPDEST DUP2 SLOAD DUP2 MSTORE SWAP1 PUSH1 0x1 ADD SWAP1 PUSH1 0x20 ADD DUP1 DUP4 GT PUSH2 0x1443 JUMPI DUP3 SWAP1 SUB PUSH1 0x1F AND DUP3 ADD SWAP2 JUMPDEST POP POP POP POP POP DUP4 DUP8 DUP2 MLOAD DUP2 LT PUSH2 0x1478 JUMPI PUSH2 0x1477 PUSH2 0x3D19 JUMP JUMPDEST JUMPDEST PUSH1 0x20 MUL PUSH1 0x20 ADD ADD DUP2 SWAP1 MSTORE POP DUP6 DUP1 PUSH2 0x148E SWAP1 PUSH2 0x3D46 JUMP JUMPDEST SWAP7 POP POP POP DUP1 DUP1 PUSH2 0x149D SWAP1 PUSH2 0x3D96 JUMP JUMPDEST SWAP2 POP POP PUSH2 0x1373 JUMP JUMPDEST POP DUP1 SWAP7 POP POP POP POP POP POP POP JUMPDEST SWAP4 SWAP3 POP POP POP JUMP JUMPDEST PUSH1 0x60 PUSH2 0x14F8 DUP4 PUSH1 0x40 MLOAD DUP1 PUSH1 0x40 ADD PUSH1 0x40 MSTORE DUP1 PUSH1 0x7 DUP2 MSTORE PUSH1 0x20 ADD PUSH32 0x6765745669626500000000000000000000000000000000000000000000000000 DUP2 MSTORE POP PUSH2 0x2E8F JUMP JUMPDEST ISZERO PUSH2 0x1586 JUMPI PUSH0 DUP3 DUP1 PUSH1 0x20 ADD SWAP1 MLOAD DUP2 ADD SWAP1 PUSH2 0x1512 SWAP2 SWAP1 PUSH2 0x3F99 JUMP JUMPDEST SWAP1 POP DUP1 PUSH1 0x6 PUSH0 DUP4 DUP2 MSTORE PUSH1 0x20 ADD SWAP1 DUP2 MSTORE PUSH1 0x20 ADD PUSH0 KECCAK256 PUSH1 0x1 ADD PUSH1 0x6 PUSH0 DUP5 DUP2 MSTORE PUSH1 0x20 ADD SWAP1 DUP2 MSTORE PUSH1 0x20 ADD PUSH0 KECCAK256 PUSH1 0x2 ADD PUSH0 SWAP1 SLOAD SWAP1 PUSH2 0x100 EXP SWAP1 DIV PUSH20 0xFFFFFFFFFFFFFFFFFFFFFFFFFFFFFFFFFFFFFFFF AND PUSH1 0x40 MLOAD PUSH1 0x20 ADD PUSH2 0x156F SWAP4 SWAP3 SWAP2 SWAP1 PUSH2 0x4057 JUMP JUMPDEST PUSH1 0x40 MLOAD PUSH1 0x20 DUP2 DUP4 SUB SUB DUP2 MSTORE SWAP1 PUSH1 0x40 MSTORE SWAP2 POP POP PUSH2 0x1967 JUMP JUMPDEST PUSH2 0x15C5 DUP4 PUSH1 0x40 MLOAD DUP1 PUSH1 0x40 ADD PUSH1 0x40 MSTORE DUP1 PUSH1 0x8 DUP2 MSTORE PUSH1 0x20 ADD PUSH32 0x6765745669626573000000000000000000000000000000000000000000000000 DUP2 MSTORE POP PUSH2 0x2E8F JUMP JUMPDEST ISZERO PUSH2 0x161B JUMPI PUSH0 DUP1 DUP4 DUP1 PUSH1 0x20 ADD SWAP1 MLOAD DUP2 ADD SWAP1 PUSH2 0x15E0 SWAP2 SWAP1 PUSH2 0x4093 JUMP JUMPDEST SWAP2 POP SWAP2 POP PUSH0 PUSH2 0x15EF DUP4 DUP4 PUSH2 0x1F02 JUMP JUMPDEST SWAP1 POP DUP1 PUSH1 0x40 MLOAD PUSH1 0x20 ADD PUSH2 0x1602 SWAP2 SWAP1 PUSH2 0x3208 JUMP JUMPDEST PUSH1 0x40 MLOAD PUSH1 0x20 DUP2 DUP4 SUB SUB DUP2 MSTORE SWAP1 PUSH1 0x40 MSTORE SWAP4 POP POP POP POP PUSH2 0x1967 JUMP JUMPDEST PUSH2 0x165A DUP4 PUSH1 0x40 MLOAD DUP1 PUSH1 0x40 ADD PUSH1 0x40 MSTORE DUP1 PUSH1 0x12 DUP2 MSTORE PUSH1 0x20 ADD PUSH32 0x6765745669626573427943617465676F72790000000000000000000000000000 DUP2 MSTORE POP PUSH2 0x2E8F JUMP JUMPDEST ISZERO PUSH2 0x16B5 JUMPI PUSH0 DUP1 PUSH0 DUP5 DUP1 PUSH1 0x20 ADD SWAP1 MLOAD DUP2 ADD SWAP1 PUSH2 0x1676 SWAP2 SWAP1 PUSH2 0x413F JUMP JUMPDEST SWAP3 POP SWAP3 POP SWAP3 POP PUSH0 PUSH2 0x1688 DUP5 DUP5 DUP5 PUSH2 0x610 JUMP JUMPDEST SWAP1 POP DUP1 PUSH1 0x40 MLOAD PUSH1 0x20 ADD PUSH2 0x169B SWAP2 SWAP1 PUSH2 0x3208 JUMP JUMPDEST PUSH1 0x40 MLOAD PUSH1 0x20 DUP2 DUP4 SUB SUB DUP2 MSTORE SWAP1 PUSH1 0x40 MSTORE SWAP5 POP POP POP POP POP PUSH2 0x1967 JUMP JUMPDEST PUSH2 0x16F4 DUP4 PUSH1 0x40 MLOAD DUP1 PUSH1 0x40 ADD PUSH1 0x40 MSTORE DUP1 PUSH1 0x11 DUP2 MSTORE PUSH1 0x20 ADD PUSH32 0x6765745669626573427941646472657373000000000000000000000000000000 DUP2 MSTORE POP PUSH2 0x2E8F JUMP JUMPDEST ISZERO PUSH2 0x174F JUMPI PUSH0 DUP1 PUSH0 DUP5 DUP1 PUSH1 0x20 ADD SWAP1 MLOAD DUP2 ADD SWAP1 PUSH2 0x1710 SWAP2 SWAP1 PUSH2 0x41E6 JUMP JUMPDEST SWAP3 POP SWAP3 POP SWAP3 POP PUSH0 PUSH2 0x1722 DUP5 DUP5 DUP5 PUSH2 0x1171 JUMP JUMPDEST SWAP1 POP DUP1 PUSH1 0x40 MLOAD PUSH1 0x20 ADD PUSH2 0x1735 SWAP2 SWAP1 PUSH2 0x3208 JUMP JUMPDEST PUSH1 0x40 MLOAD PUSH1 0x20 DUP2 DUP4 SUB SUB DUP2 MSTORE SWAP1 PUSH1 0x40 MSTORE SWAP5 POP POP POP POP POP PUSH2 0x1967 JUMP JUMPDEST PUSH2 0x178E DUP4 PUSH1 0x40 MLOAD DUP1 PUSH1 0x40 ADD PUSH1 0x40 MSTORE DUP1 PUSH1 0x12 DUP2 MSTORE PUSH1 0x20 ADD PUSH32 0x6765745669626573427946656174757265640000000000000000000000000000 DUP2 MSTORE POP PUSH2 0x2E8F JUMP JUMPDEST ISZERO PUSH2 0x17E4 JUMPI PUSH0 DUP1 DUP4 DUP1 PUSH1 0x20 ADD SWAP1 MLOAD DUP2 ADD SWAP1 PUSH2 0x17A9 SWAP2 SWAP1 PUSH2 0x4093 JUMP JUMPDEST SWAP2 POP SWAP2 POP PUSH0 PUSH2 0x17B8 DUP4 DUP4 PUSH2 0xE9F JUMP JUMPDEST SWAP1 POP DUP1 PUSH1 0x40 MLOAD PUSH1 0x20 ADD PUSH2 0x17CB SWAP2 SWAP1 PUSH2 0x3208 JUMP JUMPDEST PUSH1 0x40 MLOAD PUSH1 0x20 DUP2 DUP4 SUB SUB DUP2 MSTORE SWAP1 PUSH1 0x40 MSTORE SWAP4 POP POP POP POP PUSH2 0x1967 JUMP JUMPDEST PUSH2 0x1823 DUP4 PUSH1 0x40 MLOAD DUP1 PUSH1 0x40 ADD PUSH1 0x40 MSTORE DUP1 PUSH1 0x18 DUP2 MSTORE PUSH1 0x20 ADD PUSH32 0x67657456696265496442794665617475726564496E6465780000000000000000 DUP2 MSTORE POP PUSH2 0x2E8F JUMP JUMPDEST ISZERO PUSH2 0x1878 JUMPI PUSH0 DUP3 DUP1 PUSH1 0x20 ADD SWAP1 MLOAD DUP2 ADD SWAP1 PUSH2 0x183D SWAP2 SWAP1 PUSH2 0x3F99 JUMP JUMPDEST SWAP1 POP PUSH1 0xC PUSH0 DUP3 DUP2 MSTORE PUSH1 0x20 ADD SWAP1 DUP2 MSTORE PUSH1 0x20 ADD PUSH0 KECCAK256 SLOAD PUSH1 0x40 MLOAD PUSH1 0x20 ADD PUSH2 0x1861 SWAP2 SWAP1 PUSH2 0x35E1 JUMP JUMPDEST PUSH1 0x40 MLOAD PUSH1 0x20 DUP2 DUP4 SUB SUB DUP2 MSTORE SWAP1 PUSH1 0x40 MSTORE SWAP2 POP POP PUSH2 0x1967 JUMP JUMPDEST PUSH2 0x18B7 DUP4 PUSH1 0x40 MLOAD DUP1 PUSH1 0x40 ADD PUSH1 0x40 MSTORE DUP1 PUSH1 0xB DUP2 MSTORE PUSH1 0x20 ADD PUSH32 0x6973426C61636B6C697374000000000000000000000000000000000000000000 DUP2 MSTORE POP PUSH2 0x2E8F JUMP JUMPDEST ISZERO PUSH2 0x1946 JUMPI PUSH0 DUP3 DUP1 PUSH1 0x20 ADD SWAP1 MLOAD DUP2 ADD SWAP1 PUSH2 0x18D1 SWAP2 SWAP1 PUSH2 0x4236 JUMP JUMPDEST SWAP1 POP DUP1 PUSH1 0xD PUSH0 DUP4 PUSH20 0xFFFFFFFFFFFFFFFFFFFFFFFFFFFFFFFFFFFFFFFF AND PUSH20 0xFFFFFFFFFFFFFFFFFFFFFFFFFFFFFFFFFFFFFFFF AND DUP2 MSTORE PUSH1 0x20 ADD SWAP1 DUP2 MSTORE PUSH1 0x20 ADD PUSH0 KECCAK256 PUSH0 SWAP1 SLOAD SWAP1 PUSH2 0x100 EXP SWAP1 DIV PUSH1 0xFF AND PUSH1 0x40 MLOAD PUSH1 0x20 ADD PUSH2 0x192F SWAP3 SWAP2 SWAP1 PUSH2 0x4261 JUMP JUMPDEST PUSH1 0x40 MLOAD PUSH1 0x20 DUP2 DUP4 SUB SUB DUP2 MSTORE SWAP1 PUSH1 0x40 MSTORE SWAP2 POP POP PUSH2 0x1967 JUMP JUMPDEST PUSH1 0x40 MLOAD PUSH1 0x20 ADD PUSH2 0x1955 SWAP1 PUSH2 0x42AB JUMP JUMPDEST PUSH1 0x40 MLOAD PUSH1 0x20 DUP2 DUP4 SUB SUB DUP2 MSTORE SWAP1 PUSH1 0x40 MSTORE SWAP1 POP JUMPDEST SWAP3 SWAP2 POP POP JUMP JUMPDEST PUSH1 0x60 PUSH1 0xD PUSH0 CALLER PUSH20 0xFFFFFFFFFFFFFFFFFFFFFFFFFFFFFFFFFFFFFFFF AND PUSH20 0xFFFFFFFFFFFFFFFFFFFFFFFFFFFFFFFFFFFFFFFF AND DUP2 MSTORE PUSH1 0x20 ADD SWAP1 DUP2 MSTORE PUSH1 0x20 ADD PUSH0 KECCAK256 PUSH0 SWAP1 SLOAD SWAP1 PUSH2 0x100 EXP SWAP1 DIV PUSH1 0xFF AND ISZERO PUSH2 0x19C2 JUMPI PUSH0 DUP1 REVERT JUMPDEST PUSH2 0x1A01 DUP4 PUSH1 0x40 MLOAD DUP1 PUSH1 0x40 ADD PUSH1 0x40 MSTORE DUP1 PUSH1 0x8 DUP2 MSTORE PUSH1 0x20 ADD PUSH32 0x706F737456696265000000000000000000000000000000000000000000000000 DUP2 MSTORE POP PUSH2 0x2E8F JUMP JUMPDEST ISZERO PUSH2 0x1DED JUMPI PUSH0 DUP1 PUSH0 DUP1 DUP6 DUP1 PUSH1 0x20 ADD SWAP1 MLOAD DUP2 ADD SWAP1 PUSH2 0x1A1E SWAP2 SWAP1 PUSH2 0x437C JUMP JUMPDEST SWAP4 POP SWAP4 POP SWAP4 POP SWAP4 POP PUSH0 PUSH1 0x1 SLOAD SWAP1 POP PUSH0 CALLER SWAP1 POP PUSH2 0x1A38 PUSH2 0xE78 JUMP JUMPDEST PUSH20 0xFFFFFFFFFFFFFFFFFFFFFFFFFFFFFFFFFFFFFFFF AND CALLER PUSH20 0xFFFFFFFFFFFFFFFFFFFFFFFFFFFFFFFFFFFFFFFF AND SUB PUSH2 0x1A6E JUMPI DUP3 SWAP1 POP JUMPDEST PUSH0 PUSH2 0x1A7C DUP4 DUP9 DUP9 DUP9 DUP7 PUSH2 0x918 JUMP JUMPDEST SWAP1 POP PUSH0 PUSH1 0x40 MLOAD DUP1 PUSH1 0x60 ADD PUSH1 0x40 MSTORE DUP1 DUP6 DUP2 MSTORE PUSH1 0x20 ADD DUP4 DUP2 MSTORE PUSH1 0x20 ADD DUP5 PUSH20 0xFFFFFFFFFFFFFFFFFFFFFFFFFFFFFFFFFFFFFFFF AND DUP2 MSTORE POP SWAP1 POP DUP1 PUSH1 0x6 PUSH0 DUP7 DUP2 MSTORE PUSH1 0x20 ADD SWAP1 DUP2 MSTORE PUSH1 0x20 ADD PUSH0 KECCAK256 PUSH0 DUP3 ADD MLOAD DUP2 PUSH0 ADD SSTORE PUSH1 0x20 DUP3 ADD MLOAD DUP2 PUSH1 0x1 ADD SWAP1 DUP2 PUSH2 0x1AE1 SWAP2 SWAP1 PUSH2 0x45BF JUMP JUMPDEST POP PUSH1 0x40 DUP3 ADD MLOAD DUP2 PUSH1 0x2 ADD PUSH0 PUSH2 0x100 EXP DUP2 SLOAD DUP2 PUSH20 0xFFFFFFFFFFFFFFFFFFFFFFFFFFFFFFFFFFFFFFFF MUL NOT AND SWAP1 DUP4 PUSH20 0xFFFFFFFFFFFFFFFFFFFFFFFFFFFFFFFFFFFFFFFF AND MUL OR SWAP1 SSTORE POP SWAP1 POP POP DUP4 PUSH1 0x8 PUSH0 DUP6 PUSH20 0xFFFFFFFFFFFFFFFFFFFFFFFFFFFFFFFFFFFFFFFF AND PUSH20 0xFFFFFFFFFFFFFFFFFFFFFFFFFFFFFFFFFFFFFFFF AND DUP2 MSTORE PUSH1 0x20 ADD SWAP1 DUP2 MSTORE PUSH1 0x20 ADD PUSH0 KECCAK256 PUSH0 PUSH1 0x7 PUSH0 DUP8 PUSH20 0xFFFFFFFFFFFFFFFFFFFFFFFFFFFFFFFFFFFFFFFF AND PUSH20 0xFFFFFFFFFFFFFFFFFFFFFFFFFFFFFFFFFFFFFFFF AND DUP2 MSTORE PUSH1 0x20 ADD SWAP1 DUP2 MSTORE PUSH1 0x20 ADD PUSH0 KECCAK256 SLOAD DUP2 MSTORE PUSH1 0x20 ADD SWAP1 DUP2 MSTORE PUSH1 0x20 ADD PUSH0 KECCAK256 DUP2 SWAP1 SSTORE POP PUSH0 JUMPDEST DUP9 MLOAD DUP2 LT ISZERO PUSH2 0x1CA2 JUMPI DUP5 PUSH1 0xA DUP11 DUP4 DUP2 MLOAD DUP2 LT PUSH2 0x1BDA JUMPI PUSH2 0x1BD9 PUSH2 0x3D19 JUMP JUMPDEST JUMPDEST PUSH1 0x20 MUL PUSH1 0x20 ADD ADD MLOAD PUSH1 0x40 MLOAD PUSH2 0x1BEF SWAP2 SWAP1 PUSH2 0x3B75 JUMP JUMPDEST SWAP1 DUP2 MSTORE PUSH1 0x20 ADD PUSH1 0x40 MLOAD DUP1 SWAP2 SUB SWAP1 KECCAK256 PUSH0 PUSH1 0x9 DUP13 DUP6 DUP2 MLOAD DUP2 LT PUSH2 0x1C13 JUMPI PUSH2 0x1C12 PUSH2 0x3D19 JUMP JUMPDEST JUMPDEST PUSH1 0x20 MUL PUSH1 0x20 ADD ADD MLOAD PUSH1 0x40 MLOAD PUSH2 0x1C28 SWAP2 SWAP1 PUSH2 0x3B75 JUMP JUMPDEST SWAP1 DUP2 MSTORE PUSH1 0x20 ADD PUSH1 0x40 MLOAD DUP1 SWAP2 SUB SWAP1 KECCAK256 SLOAD DUP2 MSTORE PUSH1 0x20 ADD SWAP1 DUP2 MSTORE PUSH1 0x20 ADD PUSH0 KECCAK256 DUP2 SWAP1 SSTORE POP PUSH1 0x9 DUP10 DUP3 DUP2 MLOAD DUP2 LT PUSH2 0x1C5D JUMPI PUSH2 0x1C5C PUSH2 0x3D19 JUMP JUMPDEST JUMPDEST PUSH1 0x20 MUL PUSH1 0x20 ADD ADD MLOAD PUSH1 0x40 MLOAD PUSH2 0x1C72 SWAP2 SWAP1 PUSH2 0x3B75 JUMP JUMPDEST SWAP1 DUP2 MSTORE PUSH1 0x20 ADD PUSH1 0x40 MLOAD DUP1 SWAP2 SUB SWAP1 KECCAK256 PUSH0 DUP2 SLOAD DUP1 SWAP3 SWAP2 SWAP1 PUSH2 0x1C90 SWAP1 PUSH2 0x3D46 JUMP JUMPDEST SWAP2 SWAP1 POP SSTORE POP DUP1 DUP1 PUSH1 0x1 ADD SWAP2 POP POP PUSH2 0x1BBB JUMP JUMPDEST POP PUSH1 0x7 PUSH0 DUP5 PUSH20 0xFFFFFFFFFFFFFFFFFFFFFFFFFFFFFFFFFFFFFFFF AND PUSH20 0xFFFFFFFFFFFFFFFFFFFFFFFFFFFFFFFFFFFFFFFF AND DUP2 MSTORE PUSH1 0x20 ADD SWAP1 DUP2 MSTORE PUSH1 0x20 ADD PUSH0 KECCAK256 PUSH0 DUP2 SLOAD DUP1 SWAP3 SWAP2 SWAP1 PUSH2 0x1CF0 SWAP1 PUSH2 0x3D46 JUMP JUMPDEST SWAP2 SWAP1 POP SSTORE POP PUSH32 0x93864668E00BFEB0CAFEE67AB7145A622AE39E8045304432E9A0BFB97CC04D46 PUSH1 0x1 SLOAD PUSH1 0x40 MLOAD PUSH1 0x20 ADD PUSH2 0x1D29 SWAP2 SWAP1 PUSH2 0x35E1 JUMP JUMPDEST PUSH1 0x40 MLOAD PUSH1 0x20 DUP2 DUP4 SUB SUB DUP2 MSTORE SWAP1 PUSH1 0x40 MSTORE PUSH1 0x40 MLOAD PUSH2 0x1D45 SWAP2 SWAP1 PUSH2 0x39D7 JUMP JUMPDEST PUSH1 0x40 MLOAD DUP1 SWAP2 SUB SWAP1 LOG1 DUP3 PUSH20 0xFFFFFFFFFFFFFFFFFFFFFFFFFFFFFFFFFFFFFFFF AND DUP3 PUSH1 0x40 MLOAD PUSH2 0x1D72 SWAP2 SWAP1 PUSH2 0x3B75 JUMP JUMPDEST PUSH1 0x40 MLOAD DUP1 SWAP2 SUB SWAP1 KECCAK256 DUP6 PUSH32 0xE89C2DFCB2CAB2CC739D99147BFE163B2D662BCE5DDC46C4ED83525BD7D7C78F PUSH1 0x40 MLOAD PUSH1 0x40 MLOAD DUP1 SWAP2 SUB SWAP1 LOG4 PUSH1 0x1 PUSH0 DUP2 SLOAD DUP1 SWAP3 SWAP2 SWAP1 PUSH2 0x1DB9 SWAP1 PUSH2 0x3D46 JUMP JUMPDEST SWAP2 SWAP1 POP SSTORE POP DUP4 PUSH1 0x40 MLOAD PUSH1 0x20 ADD PUSH2 0x1DCF SWAP2 SWAP1 PUSH2 0x35E1 JUMP JUMPDEST PUSH1 0x40 MLOAD PUSH1 0x20 DUP2 DUP4 SUB SUB DUP2 MSTORE SWAP1 PUSH1 0x40 MSTORE SWAP9 POP POP POP POP POP POP POP POP POP PUSH2 0x1EFC JUMP JUMPDEST PUSH2 0x1E2C DUP4 PUSH1 0x40 MLOAD DUP1 PUSH1 0x40 ADD PUSH1 0x40 MSTORE DUP1 PUSH1 0xB DUP2 MSTORE PUSH1 0x20 ADD PUSH32 0x6164644665617475726564000000000000000000000000000000000000000000 DUP2 MSTORE POP PUSH2 0x2E8F JUMP JUMPDEST ISZERO PUSH2 0x1EDB JUMPI PUSH2 0x1E39 PUSH2 0xE78 JUMP JUMPDEST PUSH20 0xFFFFFFFFFFFFFFFFFFFFFFFFFFFFFFFFFFFFFFFF AND CALLER PUSH20 0xFFFFFFFFFFFFFFFFFFFFFFFFFFFFFFFFFFFFFFFF AND EQ PUSH2 0x1E6F JUMPI PUSH0 DUP1 REVERT JUMPDEST PUSH0 DUP3 DUP1 PUSH1 0x20 ADD SWAP1 MLOAD DUP2 ADD SWAP1 PUSH2 0x1E84 SWAP2 SWAP1 PUSH2 0x3F99 JUMP JUMPDEST SWAP1 POP DUP1 PUSH1 0xC PUSH0 PUSH1 0xB SLOAD DUP2 MSTORE PUSH1 0x20 ADD SWAP1 DUP2 MSTORE PUSH1 0x20 ADD PUSH0 KECCAK256 DUP2 SWAP1 SSTORE POP PUSH1 0xB PUSH0 DUP2 SLOAD DUP1 SWAP3 SWAP2 SWAP1 PUSH2 0x1EB0 SWAP1 PUSH2 0x3D46 JUMP JUMPDEST SWAP2 SWAP1 POP SSTORE POP PUSH1 0x40 MLOAD PUSH1 0x20 ADD PUSH2 0x1EC4 SWAP1 PUSH2 0x42AB JUMP JUMPDEST PUSH1 0x40 MLOAD PUSH1 0x20 DUP2 DUP4 SUB SUB DUP2 MSTORE SWAP1 PUSH1 0x40 MSTORE SWAP2 POP POP PUSH2 0x1EFC JUMP JUMPDEST PUSH1 0x40 MLOAD PUSH1 0x20 ADD PUSH2 0x1EEA SWAP1 PUSH2 0x42AB JUMP JUMPDEST PUSH1 0x40 MLOAD PUSH1 0x20 DUP2 DUP4 SUB SUB DUP2 MSTORE SWAP1 PUSH1 0x40 MSTORE SWAP1 POP JUMPDEST SWAP3 SWAP2 POP POP JUMP JUMPDEST PUSH1 0x60 PUSH0 PUSH1 0x1 SLOAD SUB PUSH2 0x1F67 JUMPI PUSH0 DUP1 PUSH8 0xFFFFFFFFFFFFFFFF DUP2 GT ISZERO PUSH2 0x1F28 JUMPI PUSH2 0x1F27 PUSH2 0x2F10 JUMP JUMPDEST JUMPDEST PUSH1 0x40 MLOAD SWAP1 DUP1 DUP3 MSTORE DUP1 PUSH1 0x20 MUL PUSH1 0x20 ADD DUP3 ADD PUSH1 0x40 MSTORE DUP1 ISZERO PUSH2 0x1F5B JUMPI DUP2 PUSH1 0x20 ADD JUMPDEST PUSH1 0x60 DUP2 MSTORE PUSH1 0x20 ADD SWAP1 PUSH1 0x1 SWAP1 SUB SWAP1 DUP2 PUSH2 0x1F46 JUMPI SWAP1 POP JUMPDEST POP SWAP1 POP DUP1 SWAP2 POP POP PUSH2 0x21B0 JUMP JUMPDEST PUSH1 0x1 DUP4 GT DUP1 ISZERO PUSH2 0x1F9A JUMPI POP PUSH1 0x1 DUP4 PUSH2 0x1F7F SWAP2 SWAP1 PUSH2 0x3BB8 JUMP JUMPDEST DUP3 PUSH1 0x1 DUP1 SLOAD PUSH2 0x1F8E SWAP2 SWAP1 PUSH2 0x3BB8 JUMP JUMPDEST PUSH2 0x1F98 SWAP2 SWAP1 PUSH2 0x3C18 JUMP JUMPDEST LT JUMPDEST ISZERO PUSH2 0x1FF9 JUMPI PUSH0 DUP1 PUSH8 0xFFFFFFFFFFFFFFFF DUP2 GT ISZERO PUSH2 0x1FBA JUMPI PUSH2 0x1FB9 PUSH2 0x2F10 JUMP JUMPDEST JUMPDEST PUSH1 0x40 MLOAD SWAP1 DUP1 DUP3 MSTORE DUP1 PUSH1 0x20 MUL PUSH1 0x20 ADD DUP3 ADD PUSH1 0x40 MSTORE DUP1 ISZERO PUSH2 0x1FED JUMPI DUP2 PUSH1 0x20 ADD JUMPDEST PUSH1 0x60 DUP2 MSTORE PUSH1 0x20 ADD SWAP1 PUSH1 0x1 SWAP1 SUB SWAP1 DUP2 PUSH2 0x1FD8 JUMPI SWAP1 POP JUMPDEST POP SWAP1 POP DUP1 SWAP2 POP POP PUSH2 0x21B0 JUMP JUMPDEST PUSH0 DUP1 PUSH0 SWAP1 POP PUSH0 DUP5 PUSH1 0x1 DUP8 PUSH2 0x200D SWAP2 SWAP1 PUSH2 0x3BB8 JUMP JUMPDEST PUSH2 0x2017 SWAP2 SWAP1 PUSH2 0x3C48 JUMP JUMPDEST PUSH1 0x1 DUP1 SLOAD PUSH2 0x2025 SWAP2 SWAP1 PUSH2 0x3BB8 JUMP JUMPDEST PUSH2 0x202F SWAP2 SWAP1 PUSH2 0x3BB8 JUMP JUMPDEST SWAP1 POP PUSH0 DUP6 DUP3 LT ISZERO PUSH2 0x2051 JUMPI PUSH0 SWAP1 POP PUSH1 0x1 DUP3 PUSH2 0x204A SWAP2 SWAP1 PUSH2 0x3C89 JUMP JUMPDEST SWAP4 POP PUSH2 0x206F JUMP JUMPDEST PUSH1 0x1 DUP7 DUP4 PUSH2 0x205F SWAP2 SWAP1 PUSH2 0x3BB8 JUMP JUMPDEST PUSH2 0x2069 SWAP2 SWAP1 PUSH2 0x3C89 JUMP JUMPDEST SWAP1 POP DUP6 SWAP4 POP JUMPDEST PUSH0 DUP5 PUSH8 0xFFFFFFFFFFFFFFFF DUP2 GT ISZERO PUSH2 0x208A JUMPI PUSH2 0x2089 PUSH2 0x2F10 JUMP JUMPDEST JUMPDEST PUSH1 0x40 MLOAD SWAP1 DUP1 DUP3 MSTORE DUP1 PUSH1 0x20 MUL PUSH1 0x20 ADD DUP3 ADD PUSH1 0x40 MSTORE DUP1 ISZERO PUSH2 0x20BD JUMPI DUP2 PUSH1 0x20 ADD JUMPDEST PUSH1 0x60 DUP2 MSTORE PUSH1 0x20 ADD SWAP1 PUSH1 0x1 SWAP1 SUB SWAP1 DUP2 PUSH2 0x20A8 JUMPI SWAP1 POP JUMPDEST POP SWAP1 POP PUSH0 DUP4 SWAP1 POP JUMPDEST DUP3 DUP2 SLT PUSH2 0x21A6 JUMPI PUSH1 0x6 PUSH0 DUP3 DUP2 MSTORE PUSH1 0x20 ADD SWAP1 DUP2 MSTORE PUSH1 0x20 ADD PUSH0 KECCAK256 PUSH1 0x1 ADD DUP1 SLOAD PUSH2 0x20EB SWAP1 PUSH2 0x3CE9 JUMP JUMPDEST DUP1 PUSH1 0x1F ADD PUSH1 0x20 DUP1 SWAP2 DIV MUL PUSH1 0x20 ADD PUSH1 0x40 MLOAD SWAP1 DUP2 ADD PUSH1 0x40 MSTORE DUP1 SWAP3 SWAP2 SWAP1 DUP2 DUP2 MSTORE PUSH1 0x20 ADD DUP3 DUP1 SLOAD PUSH2 0x2117 SWAP1 PUSH2 0x3CE9 JUMP JUMPDEST DUP1 ISZERO PUSH2 0x2162 JUMPI DUP1 PUSH1 0x1F LT PUSH2 0x2139 JUMPI PUSH2 0x100 DUP1 DUP4 SLOAD DIV MUL DUP4 MSTORE SWAP2 PUSH1 0x20 ADD SWAP2 PUSH2 0x2162 JUMP JUMPDEST DUP3 ADD SWAP2 SWAP1 PUSH0 MSTORE PUSH1 0x20 PUSH0 KECCAK256 SWAP1 JUMPDEST DUP2 SLOAD DUP2 MSTORE SWAP1 PUSH1 0x1 ADD SWAP1 PUSH1 0x20 ADD DUP1 DUP4 GT PUSH2 0x2145 JUMPI DUP3 SWAP1 SUB PUSH1 0x1F AND DUP3 ADD SWAP2 JUMPDEST POP POP POP POP POP DUP3 DUP7 DUP2 MLOAD DUP2 LT PUSH2 0x217A JUMPI PUSH2 0x2179 PUSH2 0x3D19 JUMP JUMPDEST JUMPDEST PUSH1 0x20 MUL PUSH1 0x20 ADD ADD DUP2 SWAP1 MSTORE POP DUP5 DUP1 PUSH2 0x2190 SWAP1 PUSH2 0x3D46 JUMP JUMPDEST SWAP6 POP POP DUP1 DUP1 PUSH2 0x219E SWAP1 PUSH2 0x3D96 JUMP JUMPDEST SWAP2 POP POP PUSH2 0x20C5 JUMP JUMPDEST POP DUP1 SWAP6 POP POP POP POP POP POP JUMPDEST SWAP3 SWAP2 POP POP JUMP JUMPDEST PUSH1 0x8 PUSH1 0x20 MSTORE DUP2 PUSH0 MSTORE PUSH1 0x40 PUSH0 KECCAK256 PUSH1 0x20 MSTORE DUP1 PUSH0 MSTORE PUSH1 0x40 PUSH0 KECCAK256 PUSH0 SWAP2 POP SWAP2 POP POP SLOAD DUP2 JUMP JUMPDEST PUSH1 0xD PUSH1 0x20 MSTORE DUP1 PUSH0 MSTORE PUSH1 0x40 PUSH0 KECCAK256 PUSH0 SWAP2 POP SLOAD SWAP1 PUSH2 0x100 EXP SWAP1 DIV PUSH1 0xFF AND DUP2 JUMP JUMPDEST PUSH1 0xA DUP3 DUP1 MLOAD PUSH1 0x20 DUP2 ADD DUP3 ADD DUP1 MLOAD DUP5 DUP3 MSTORE PUSH1 0x20 DUP4 ADD PUSH1 0x20 DUP6 ADD KECCAK256 DUP2 DUP4 MSTORE DUP1 SWAP6 POP POP POP POP POP POP PUSH1 0x20 MSTORE DUP1 PUSH0 MSTORE PUSH1 0x40 PUSH0 KECCAK256 PUSH0 SWAP2 POP SWAP2 POP POP SLOAD DUP2 JUMP JUMPDEST PUSH1 0x60 PUSH2 0x226C DUP4 PUSH1 0x40 MLOAD DUP1 PUSH1 0x40 ADD PUSH1 0x40 MSTORE DUP1 PUSH1 0xA DUP2 MSTORE PUSH1 0x20 ADD PUSH32 0x64656C6574655669626500000000000000000000000000000000000000000000 DUP2 MSTORE POP PUSH2 0x2E8F JUMP JUMPDEST ISZERO PUSH2 0x2451 JUMPI PUSH0 DUP3 DUP1 PUSH1 0x20 ADD SWAP1 MLOAD DUP2 ADD SWAP1 PUSH2 0x2286 SWAP2 SWAP1 PUSH2 0x3F99 JUMP JUMPDEST SWAP1 POP PUSH1 0x6 PUSH0 DUP3 DUP2 MSTORE PUSH1 0x20 ADD SWAP1 DUP2 MSTORE PUSH1 0x20 ADD PUSH0 KECCAK256 PUSH1 0x2 ADD PUSH0 SWAP1 SLOAD SWAP1 PUSH2 0x100 EXP SWAP1 DIV PUSH20 0xFFFFFFFFFFFFFFFFFFFFFFFFFFFFFFFFFFFFFFFF AND PUSH20 0xFFFFFFFFFFFFFFFFFFFFFFFFFFFFFFFFFFFFFFFF AND CALLER PUSH20 0xFFFFFFFFFFFFFFFFFFFFFFFFFFFFFFFFFFFFFFFF AND EQ DUP1 PUSH2 0x2327 JUMPI POP PUSH2 0x22F8 PUSH2 0xE78 JUMP JUMPDEST PUSH20 0xFFFFFFFFFFFFFFFFFFFFFFFFFFFFFFFFFFFFFFFF AND CALLER PUSH20 0xFFFFFFFFFFFFFFFFFFFFFFFFFFFFFFFFFFFFFFFF AND EQ JUMPDEST PUSH2 0x232F JUMPI PUSH0 DUP1 REVERT JUMPDEST PUSH0 DUP1 PUSH8 0xFFFFFFFFFFFFFFFF DUP2 GT ISZERO PUSH2 0x234A JUMPI PUSH2 0x2349 PUSH2 0x2F10 JUMP JUMPDEST JUMPDEST PUSH1 0x40 MLOAD SWAP1 DUP1 DUP3 MSTORE DUP1 PUSH1 0x20 MUL PUSH1 0x20 ADD DUP3 ADD PUSH1 0x40 MSTORE DUP1 ISZERO PUSH2 0x237D JUMPI DUP2 PUSH1 0x20 ADD JUMPDEST PUSH1 0x60 DUP2 MSTORE PUSH1 0x20 ADD SWAP1 PUSH1 0x1 SWAP1 SUB SWAP1 DUP2 PUSH2 0x2368 JUMPI SWAP1 POP JUMPDEST POP SWAP1 POP PUSH2 0x23DC DUP3 DUP3 PUSH1 0x40 MLOAD DUP1 PUSH1 0x20 ADD PUSH1 0x40 MSTORE DUP1 PUSH0 DUP2 MSTORE POP PUSH1 0x40 MLOAD DUP1 PUSH1 0x20 ADD PUSH1 0x40 MSTORE DUP1 PUSH0 DUP2 MSTORE POP PUSH1 0x6 PUSH0 DUP9 DUP2 MSTORE PUSH1 0x20 ADD SWAP1 DUP2 MSTORE PUSH1 0x20 ADD PUSH0 KECCAK256 PUSH1 0x2 ADD PUSH0 SWAP1 SLOAD SWAP1 PUSH2 0x100 EXP SWAP1 DIV PUSH20 0xFFFFFFFFFFFFFFFFFFFFFFFFFFFFFFFFFFFFFFFF AND PUSH2 0x918 JUMP JUMPDEST PUSH1 0x6 PUSH0 DUP5 DUP2 MSTORE PUSH1 0x20 ADD SWAP1 DUP2 MSTORE PUSH1 0x20 ADD PUSH0 KECCAK256 PUSH1 0x1 ADD SWAP1 DUP2 PUSH2 0x23FC SWAP2 SWAP1 PUSH2 0x45BF JUMP JUMPDEST POP DUP2 PUSH32 0x4418C4BC8F8BB88C87D3D256E12C17D607208B2658070E4F59280AB9BF256FC PUSH1 0x40 MLOAD PUSH1 0x40 MLOAD DUP1 SWAP2 SUB SWAP1 LOG2 PUSH1 0x40 MLOAD PUSH1 0x20 ADD PUSH2 0x2439 SWAP1 PUSH2 0x42AB JUMP JUMPDEST PUSH1 0x40 MLOAD PUSH1 0x20 DUP2 DUP4 SUB SUB DUP2 MSTORE SWAP1 PUSH1 0x40 MSTORE SWAP3 POP POP POP PUSH2 0x2662 JUMP JUMPDEST PUSH2 0x2490 DUP4 PUSH1 0x40 MLOAD DUP1 PUSH1 0x40 ADD PUSH1 0x40 MSTORE DUP1 PUSH1 0xB DUP2 MSTORE PUSH1 0x20 ADD PUSH32 0x7365744665617475726564000000000000000000000000000000000000000000 DUP2 MSTORE POP PUSH2 0x2E8F JUMP JUMPDEST ISZERO PUSH2 0x252A JUMPI PUSH2 0x249D PUSH2 0xE78 JUMP JUMPDEST PUSH20 0xFFFFFFFFFFFFFFFFFFFFFFFFFFFFFFFFFFFFFFFF AND CALLER PUSH20 0xFFFFFFFFFFFFFFFFFFFFFFFFFFFFFFFFFFFFFFFF AND EQ PUSH2 0x24D3 JUMPI PUSH0 DUP1 REVERT JUMPDEST PUSH0 DUP1 DUP4 DUP1 PUSH1 0x20 ADD SWAP1 MLOAD DUP2 ADD SWAP1 PUSH2 0x24E9 SWAP2 SWAP1 PUSH2 0x4093 JUMP JUMPDEST SWAP2 POP SWAP2 POP DUP1 PUSH1 0xC PUSH0 DUP5 DUP2 MSTORE PUSH1 0x20 ADD SWAP1 DUP2 MSTORE PUSH1 0x20 ADD PUSH0 KECCAK256 DUP2 SWAP1 SSTORE POP PUSH1 0x40 MLOAD PUSH1 0x20 ADD PUSH2 0x2512 SWAP1 PUSH2 0x42AB JUMP JUMPDEST PUSH1 0x40 MLOAD PUSH1 0x20 DUP2 DUP4 SUB SUB DUP2 MSTORE SWAP1 PUSH1 0x40 MSTORE SWAP3 POP POP POP PUSH2 0x2662 JUMP JUMPDEST PUSH2 0x2569 DUP4 PUSH1 0x40 MLOAD DUP1 PUSH1 0x40 ADD PUSH1 0x40 MSTORE DUP1 PUSH1 0xC DUP2 MSTORE PUSH1 0x20 ADD PUSH32 0x736574426C61636B6C6973740000000000000000000000000000000000000000 DUP2 MSTORE POP PUSH2 0x2E8F JUMP JUMPDEST ISZERO PUSH2 0x2641 JUMPI PUSH2 0x2576 PUSH2 0xE78 JUMP JUMPDEST PUSH20 0xFFFFFFFFFFFFFFFFFFFFFFFFFFFFFFFFFFFFFFFF AND CALLER PUSH20 0xFFFFFFFFFFFFFFFFFFFFFFFFFFFFFFFFFFFFFFFF AND EQ PUSH2 0x25AC JUMPI PUSH0 DUP1 REVERT JUMPDEST PUSH0 DUP1 DUP4 DUP1 PUSH1 0x20 ADD SWAP1 MLOAD DUP2 ADD SWAP1 PUSH2 0x25C2 SWAP2 SWAP1 PUSH2 0x46B8 JUMP JUMPDEST SWAP2 POP SWAP2 POP DUP1 PUSH1 0xD PUSH0 DUP5 PUSH20 0xFFFFFFFFFFFFFFFFFFFFFFFFFFFFFFFFFFFFFFFF AND PUSH20 0xFFFFFFFFFFFFFFFFFFFFFFFFFFFFFFFFFFFFFFFF AND DUP2 MSTORE PUSH1 0x20 ADD SWAP1 DUP2 MSTORE PUSH1 0x20 ADD PUSH0 KECCAK256 PUSH0 PUSH2 0x100 EXP DUP2 SLOAD DUP2 PUSH1 0xFF MUL NOT AND SWAP1 DUP4 ISZERO ISZERO MUL OR SWAP1 SSTORE POP PUSH1 0x40 MLOAD PUSH1 0x20 ADD PUSH2 0x2629 SWAP1 PUSH2 0x42AB JUMP JUMPDEST PUSH1 0x40 MLOAD PUSH1 0x20 DUP2 DUP4 SUB SUB DUP2 MSTORE SWAP1 PUSH1 0x40 MSTORE SWAP3 POP POP POP PUSH2 0x2662 JUMP JUMPDEST PUSH1 0x40 MLOAD PUSH1 0x20 ADD PUSH2 0x2650 SWAP1 PUSH2 0x42AB JUMP JUMPDEST PUSH1 0x40 MLOAD PUSH1 0x20 DUP2 DUP4 SUB SUB DUP2 MSTORE SWAP1 PUSH1 0x40 MSTORE SWAP1 POP JUMPDEST SWAP3 SWAP2 POP POP JUMP JUMPDEST PUSH1 0x9 DUP2 DUP1 MLOAD PUSH1 0x20 DUP2 ADD DUP3 ADD DUP1 MLOAD DUP5 DUP3 MSTORE PUSH1 0x20 DUP4 ADD PUSH1 0x20 DUP6 ADD KECCAK256 DUP2 DUP4 MSTORE DUP1 SWAP6 POP POP POP POP POP POP PUSH0 SWAP2 POP SWAP1 POP SLOAD DUP2 JUMP JUMPDEST PUSH2 0x269D PUSH2 0x2DC7 JUMP JUMPDEST PUSH20 0xFFFFFFFFFFFFFFFFFFFFFFFFFFFFFFFFFFFFFFFF AND PUSH2 0x26BB PUSH2 0xE78 JUMP JUMPDEST PUSH20 0xFFFFFFFFFFFFFFFFFFFFFFFFFFFFFFFFFFFFFFFF AND EQ PUSH2 0x2711 JUMPI PUSH1 0x40 MLOAD PUSH32 0x8C379A000000000000000000000000000000000000000000000000000000000 DUP2 MSTORE PUSH1 0x4 ADD PUSH2 0x2708 SWAP1 PUSH2 0x3F67 JUMP JUMPDEST PUSH1 0x40 MLOAD DUP1 SWAP2 SUB SWAP1 REVERT JUMPDEST PUSH0 PUSH20 0xFFFFFFFFFFFFFFFFFFFFFFFFFFFFFFFFFFFFFFFF AND DUP2 PUSH20 0xFFFFFFFFFFFFFFFFFFFFFFFFFFFFFFFFFFFFFFFF AND SUB PUSH2 0x277F JUMPI PUSH1 0x40 MLOAD PUSH32 0x8C379A000000000000000000000000000000000000000000000000000000000 DUP2 MSTORE PUSH1 0x4 ADD PUSH2 0x2776 SWAP1 PUSH2 0x4766 JUMP JUMPDEST PUSH1 0x40 MLOAD DUP1 SWAP2 SUB SWAP1 REVERT JUMPDEST PUSH2 0x2788 DUP2 PUSH2 0x2DCE JUMP JUMPDEST POP JUMP JUMPDEST PUSH1 0x60 PUSH1 0x5 PUSH0 DUP4 PUSH1 0x3 DUP2 GT ISZERO PUSH2 0x27A3 JUMPI PUSH2 0x27A2 PUSH2 0x34C0 JUMP JUMPDEST JUMPDEST PUSH1 0x3 DUP2 GT ISZERO PUSH2 0x27B5 JUMPI PUSH2 0x27B4 PUSH2 0x34C0 JUMP JUMPDEST JUMPDEST DUP2 MSTORE PUSH1 0x20 ADD SWAP1 DUP2 MSTORE PUSH1 0x20 ADD PUSH0 KECCAK256 DUP1 SLOAD DUP1 PUSH1 0x20 MUL PUSH1 0x20 ADD PUSH1 0x40 MLOAD SWAP1 DUP2 ADD PUSH1 0x40 MSTORE DUP1 SWAP3 SWAP2 SWAP1 DUP2 DUP2 MSTORE PUSH1 0x20 ADD PUSH0 SWAP1 JUMPDEST DUP3 DUP3 LT ISZERO PUSH2 0x2889 JUMPI DUP4 DUP3 SWAP1 PUSH0 MSTORE PUSH1 0x20 PUSH0 KECCAK256 ADD DUP1 SLOAD PUSH2 0x27FE SWAP1 PUSH2 0x3CE9 JUMP JUMPDEST DUP1 PUSH1 0x1F ADD PUSH1 0x20 DUP1 SWAP2 DIV MUL PUSH1 0x20 ADD PUSH1 0x40 MLOAD SWAP1 DUP2 ADD PUSH1 0x40 MSTORE DUP1 SWAP3 SWAP2 SWAP1 DUP2 DUP2 MSTORE PUSH1 0x20 ADD DUP3 DUP1 SLOAD PUSH2 0x282A SWAP1 PUSH2 0x3CE9 JUMP JUMPDEST DUP1 ISZERO PUSH2 0x2875 JUMPI DUP1 PUSH1 0x1F LT PUSH2 0x284C JUMPI PUSH2 0x100 DUP1 DUP4 SLOAD DIV MUL DUP4 MSTORE SWAP2 PUSH1 0x20 ADD SWAP2 PUSH2 0x2875 JUMP JUMPDEST DUP3 ADD SWAP2 SWAP1 PUSH0 MSTORE PUSH1 0x20 PUSH0 KECCAK256 SWAP1 JUMPDEST DUP2 SLOAD DUP2 MSTORE SWAP1 PUSH1 0x1 ADD SWAP1 PUSH1 0x20 ADD DUP1 DUP4 GT PUSH2 0x2858 JUMPI DUP3 SWAP1 SUB PUSH1 0x1F AND DUP3 ADD SWAP2 JUMPDEST POP POP POP POP POP DUP2 MSTORE PUSH1 0x20 ADD SWAP1 PUSH1 0x1 ADD SWAP1 PUSH2 0x27E1 JUMP JUMPDEST POP POP POP POP SWAP1 POP SWAP2 SWAP1 POP JUMP JUMPDEST PUSH1 0x7 PUSH1 0x20 MSTORE DUP1 PUSH0 MSTORE PUSH1 0x40 PUSH0 KECCAK256 PUSH0 SWAP2 POP SWAP1 POP SLOAD DUP2 JUMP JUMPDEST PUSH1 0x60 PUSH0 DUP3 MLOAD SWAP1 POP PUSH0 DUP2 SUB PUSH2 0x28CE JUMPI PUSH1 0x40 MLOAD DUP1 PUSH1 0x20 ADD PUSH1 0x40 MSTORE DUP1 PUSH0 DUP2 MSTORE POP SWAP2 POP POP PUSH2 0x2A34 JUMP JUMPDEST PUSH0 PUSH1 0x3 PUSH1 0x2 DUP4 PUSH2 0x28DE SWAP2 SWAP1 PUSH2 0x3C89 JUMP JUMPDEST PUSH2 0x28E8 SWAP2 SWAP1 PUSH2 0x3C18 JUMP JUMPDEST PUSH1 0x4 PUSH2 0x28F4 SWAP2 SWAP1 PUSH2 0x3C48 JUMP JUMPDEST SWAP1 POP PUSH0 PUSH1 0x20 DUP3 PUSH2 0x2904 SWAP2 SWAP1 PUSH2 0x3C89 JUMP JUMPDEST PUSH8 0xFFFFFFFFFFFFFFFF DUP2 GT ISZERO PUSH2 0x291D JUMPI PUSH2 0x291C PUSH2 0x2F10 JUMP JUMPDEST JUMPDEST PUSH1 0x40 MLOAD SWAP1 DUP1 DUP3 MSTORE DUP1 PUSH1 0x1F ADD PUSH1 0x1F NOT AND PUSH1 0x20 ADD DUP3 ADD PUSH1 0x40 MSTORE DUP1 ISZERO PUSH2 0x294F JUMPI DUP2 PUSH1 0x20 ADD PUSH1 0x1 DUP3 MUL DUP1 CALLDATASIZE DUP4 CALLDATACOPY DUP1 DUP3 ADD SWAP2 POP POP SWAP1 POP JUMPDEST POP SWAP1 POP PUSH0 PUSH1 0x40 MLOAD DUP1 PUSH1 0x60 ADD PUSH1 0x40 MSTORE DUP1 PUSH1 0x40 DUP2 MSTORE PUSH1 0x20 ADD PUSH2 0x4844 PUSH1 0x40 SWAP2 CODECOPY SWAP1 POP PUSH1 0x1 DUP2 ADD PUSH1 0x20 DUP4 ADD PUSH0 JUMPDEST DUP7 DUP2 LT ISZERO PUSH2 0x29F1 JUMPI PUSH1 0x3 DUP2 ADD SWAP1 POP PUSH3 0xFFFFFF DUP2 DUP11 ADD MLOAD AND PUSH1 0x3F DUP2 PUSH1 0x12 SHR AND DUP5 ADD MLOAD DUP1 PUSH1 0x8 SHL SWAP1 POP PUSH1 0xFF PUSH1 0x3F DUP4 PUSH1 0xC SHR AND DUP7 ADD MLOAD AND DUP2 ADD SWAP1 POP DUP1 PUSH1 0x8 SHL SWAP1 POP PUSH1 0xFF PUSH1 0x3F DUP4 PUSH1 0x6 SHR AND DUP7 ADD MLOAD AND DUP2 ADD SWAP1 POP DUP1 PUSH1 0x8 SHL SWAP1 POP PUSH1 0xFF PUSH1 0x3F DUP4 AND DUP7 ADD MLOAD AND DUP2 ADD SWAP1 POP DUP1 PUSH1 0xE0 SHL SWAP1 POP DUP1 DUP5 MSTORE PUSH1 0x4 DUP5 ADD SWAP4 POP POP POP PUSH2 0x2978 JUMP JUMPDEST POP PUSH1 0x3 DUP7 MOD PUSH1 0x1 DUP2 EQ PUSH2 0x2A0B JUMPI PUSH1 0x2 DUP2 EQ PUSH2 0x2A1B JUMPI PUSH2 0x2A26 JUMP JUMPDEST PUSH2 0x3D3D PUSH1 0xF0 SHL PUSH1 0x2 DUP4 SUB MSTORE PUSH2 0x2A26 JUMP JUMPDEST PUSH1 0x3D PUSH1 0xF8 SHL PUSH1 0x1 DUP4 SUB MSTORE JUMPDEST POP DUP5 DUP5 MSTORE POP POP DUP2 SWAP5 POP POP POP POP POP JUMPDEST SWAP2 SWAP1 POP JUMP JUMPDEST PUSH1 0x60 PUSH0 DUP3 SUB PUSH2 0x2A7F JUMPI PUSH1 0x40 MLOAD DUP1 PUSH1 0x40 ADD PUSH1 0x40 MSTORE DUP1 PUSH1 0x1 DUP2 MSTORE PUSH1 0x20 ADD PUSH32 0x3000000000000000000000000000000000000000000000000000000000000000 DUP2 MSTORE POP SWAP1 POP PUSH2 0x2B8D JUMP JUMPDEST PUSH0 DUP3 SWAP1 POP PUSH0 JUMPDEST PUSH0 DUP3 EQ PUSH2 0x2AAE JUMPI DUP1 DUP1 PUSH2 0x2A97 SWAP1 PUSH2 0x3D46 JUMP JUMPDEST SWAP2 POP POP PUSH1 0xA DUP3 PUSH2 0x2AA7 SWAP2 SWAP1 PUSH2 0x3C18 JUMP JUMPDEST SWAP2 POP PUSH2 0x2A85 JUMP JUMPDEST PUSH0 DUP2 PUSH8 0xFFFFFFFFFFFFFFFF DUP2 GT ISZERO PUSH2 0x2AC9 JUMPI PUSH2 0x2AC8 PUSH2 0x2F10 JUMP JUMPDEST JUMPDEST PUSH1 0x40 MLOAD SWAP1 DUP1 DUP3 MSTORE DUP1 PUSH1 0x1F ADD PUSH1 0x1F NOT AND PUSH1 0x20 ADD DUP3 ADD PUSH1 0x40 MSTORE DUP1 ISZERO PUSH2 0x2AFB JUMPI DUP2 PUSH1 0x20 ADD PUSH1 0x1 DUP3 MUL DUP1 CALLDATASIZE DUP4 CALLDATACOPY DUP1 DUP3 ADD SWAP2 POP POP SWAP1 POP JUMPDEST POP SWAP1 POP JUMPDEST PUSH0 DUP6 EQ PUSH2 0x2B86 JUMPI PUSH1 0x1 DUP3 PUSH2 0x2B13 SWAP2 SWAP1 PUSH2 0x3BB8 JUMP JUMPDEST SWAP2 POP PUSH1 0xA DUP6 PUSH2 0x2B22 SWAP2 SWAP1 PUSH2 0x4784 JUMP JUMPDEST PUSH1 0x30 PUSH2 0x2B2E SWAP2 SWAP1 PUSH2 0x3C89 JUMP JUMPDEST PUSH1 0xF8 SHL DUP2 DUP4 DUP2 MLOAD DUP2 LT PUSH2 0x2B44 JUMPI PUSH2 0x2B43 PUSH2 0x3D19 JUMP JUMPDEST JUMPDEST PUSH1 0x20 ADD ADD SWAP1 PUSH31 0xFFFFFFFFFFFFFFFFFFFFFFFFFFFFFFFFFFFFFFFFFFFFFFFFFFFFFFFFFFFFFF NOT AND SWAP1 DUP2 PUSH0 BYTE SWAP1 MSTORE8 POP PUSH1 0xA DUP6 PUSH2 0x2B7F SWAP2 SWAP1 PUSH2 0x3C18 JUMP JUMPDEST SWAP5 POP PUSH2 0x2AFF JUMP JUMPDEST DUP1 SWAP4 POP POP POP POP JUMPDEST SWAP2 SWAP1 POP JUMP JUMPDEST PUSH1 0x60 PUSH0 PUSH1 0x2 DUP4 PUSH1 0x2 PUSH2 0x2BA4 SWAP2 SWAP1 PUSH2 0x3C48 JUMP JUMPDEST PUSH2 0x2BAE SWAP2 SWAP1 PUSH2 0x3C89 JUMP JUMPDEST PUSH8 0xFFFFFFFFFFFFFFFF DUP2 GT ISZERO PUSH2 0x2BC7 JUMPI PUSH2 0x2BC6 PUSH2 0x2F10 JUMP JUMPDEST JUMPDEST PUSH1 0x40 MLOAD SWAP1 DUP1 DUP3 MSTORE DUP1 PUSH1 0x1F ADD PUSH1 0x1F NOT AND PUSH1 0x20 ADD DUP3 ADD PUSH1 0x40 MSTORE DUP1 ISZERO PUSH2 0x2BF9 JUMPI DUP2 PUSH1 0x20 ADD PUSH1 0x1 DUP3 MUL DUP1 CALLDATASIZE DUP4 CALLDATACOPY DUP1 DUP3 ADD SWAP2 POP POP SWAP1 POP JUMPDEST POP SWAP1 POP PUSH32 0x3000000000000000000000000000000000000000000000000000000000000000 DUP2 PUSH0 DUP2 MLOAD DUP2 LT PUSH2 0x2C30 JUMPI PUSH2 0x2C2F PUSH2 0x3D19 JUMP JUMPDEST JUMPDEST PUSH1 0x20 ADD ADD SWAP1 PUSH31 0xFFFFFFFFFFFFFFFFFFFFFFFFFFFFFFFFFFFFFFFFFFFFFFFFFFFFFFFFFFFFFF NOT AND SWAP1 DUP2 PUSH0 BYTE SWAP1 MSTORE8 POP PUSH32 0x7800000000000000000000000000000000000000000000000000000000000000 DUP2 PUSH1 0x1 DUP2 MLOAD DUP2 LT PUSH2 0x2C93 JUMPI PUSH2 0x2C92 PUSH2 0x3D19 JUMP JUMPDEST JUMPDEST PUSH1 0x20 ADD ADD SWAP1 PUSH31 0xFFFFFFFFFFFFFFFFFFFFFFFFFFFFFFFFFFFFFFFFFFFFFFFFFFFFFFFFFFFFFF NOT AND SWAP1 DUP2 PUSH0 BYTE SWAP1 MSTORE8 POP PUSH0 PUSH1 0x1 DUP5 PUSH1 0x2 PUSH2 0x2CD1 SWAP2 SWAP1 PUSH2 0x3C48 JUMP JUMPDEST PUSH2 0x2CDB SWAP2 SWAP1 PUSH2 0x3C89 JUMP JUMPDEST SWAP1 POP JUMPDEST PUSH1 0x1 DUP2 GT ISZERO PUSH2 0x2D7A JUMPI PUSH32 0x3031323334353637383961626364656600000000000000000000000000000000 PUSH1 0xF DUP7 AND PUSH1 0x10 DUP2 LT PUSH2 0x2D1D JUMPI PUSH2 0x2D1C PUSH2 0x3D19 JUMP JUMPDEST JUMPDEST BYTE PUSH1 0xF8 SHL DUP3 DUP3 DUP2 MLOAD DUP2 LT PUSH2 0x2D34 JUMPI PUSH2 0x2D33 PUSH2 0x3D19 JUMP JUMPDEST JUMPDEST PUSH1 0x20 ADD ADD SWAP1 PUSH31 0xFFFFFFFFFFFFFFFFFFFFFFFFFFFFFFFFFFFFFFFFFFFFFFFFFFFFFFFFFFFFFF NOT AND SWAP1 DUP2 PUSH0 BYTE SWAP1 MSTORE8 POP PUSH1 0x4 DUP6 SWAP1 SHR SWAP5 POP DUP1 PUSH2 0x2D73 SWAP1 PUSH2 0x47B4 JUMP JUMPDEST SWAP1 POP PUSH2 0x2CDE JUMP JUMPDEST POP PUSH0 DUP5 EQ PUSH2 0x2DBD JUMPI PUSH1 0x40 MLOAD PUSH32 0x8C379A000000000000000000000000000000000000000000000000000000000 DUP2 MSTORE PUSH1 0x4 ADD PUSH2 0x2DB4 SWAP1 PUSH2 0x4825 JUMP JUMPDEST PUSH1 0x40 MLOAD DUP1 SWAP2 SUB SWAP1 REVERT JUMPDEST DUP1 SWAP2 POP POP SWAP3 SWAP2 POP POP JUMP JUMPDEST PUSH0 CALLER SWAP1 POP SWAP1 JUMP JUMPDEST PUSH0 DUP1 PUSH0 SWAP1 SLOAD SWAP1 PUSH2 0x100 EXP SWAP1 DIV PUSH20 0xFFFFFFFFFFFFFFFFFFFFFFFFFFFFFFFFFFFFFFFF AND SWAP1 POP DUP2 PUSH0 DUP1 PUSH2 0x100 EXP DUP2 SLOAD DUP2 PUSH20 0xFFFFFFFFFFFFFFFFFFFFFFFFFFFFFFFFFFFFFFFF MUL NOT AND SWAP1 DUP4 PUSH20 0xFFFFFFFFFFFFFFFFFFFFFFFFFFFFFFFFFFFFFFFF AND MUL OR SWAP1 SSTORE POP DUP2 PUSH20 0xFFFFFFFFFFFFFFFFFFFFFFFFFFFFFFFFFFFFFFFF AND DUP2 PUSH20 0xFFFFFFFFFFFFFFFFFFFFFFFFFFFFFFFFFFFFFFFF AND PUSH32 0x8BE0079C531659141344CD1FD0A4F28419497F9722A3DAAFE3B4186F6B6457E0 PUSH1 0x40 MLOAD PUSH1 0x40 MLOAD DUP1 SWAP2 SUB SWAP1 LOG3 POP POP JUMP JUMPDEST PUSH0 DUP2 PUSH1 0x40 MLOAD PUSH1 0x20 ADD PUSH2 0x2EA1 SWAP2 SWAP1 PUSH2 0x3B75 JUMP JUMPDEST PUSH1 0x40 MLOAD PUSH1 0x20 DUP2 DUP4 SUB SUB DUP2 MSTORE SWAP1 PUSH1 0x40 MSTORE DUP1 MLOAD SWAP1 PUSH1 0x20 ADD KECCAK256 DUP4 PUSH1 0x40 MLOAD PUSH1 0x20 ADD PUSH2 0x2EC8 SWAP2 SWAP1 PUSH2 0x3B75 JUMP JUMPDEST PUSH1 0x40 MLOAD PUSH1 0x20 DUP2 DUP4 SUB SUB DUP2 MSTORE SWAP1 PUSH1 0x40 MSTORE DUP1 MLOAD SWAP1 PUSH1 0x20 ADD KECCAK256 EQ SWAP1 POP SWAP3 SWAP2 POP POP JUMP JUMPDEST PUSH0 PUSH1 0x40 MLOAD SWAP1 POP SWAP1 JUMP JUMPDEST PUSH0 DUP1 REVERT JUMPDEST PUSH0 DUP1 REVERT JUMPDEST PUSH0 DUP1 REVERT JUMPDEST PUSH0 DUP1 REVERT JUMPDEST PUSH0 PUSH1 0x1F NOT PUSH1 0x1F DUP4 ADD AND SWAP1 POP SWAP2 SWAP1 POP JUMP JUMPDEST PUSH32 0x4E487B7100000000000000000000000000000000000000000000000000000000 PUSH0 MSTORE PUSH1 0x41 PUSH1 0x4 MSTORE PUSH1 0x24 PUSH0 REVERT JUMPDEST PUSH2 0x2F46 DUP3 PUSH2 0x2F00 JUMP JUMPDEST DUP2 ADD DUP2 DUP2 LT PUSH8 0xFFFFFFFFFFFFFFFF DUP3 GT OR ISZERO PUSH2 0x2F65 JUMPI PUSH2 0x2F64 PUSH2 0x2F10 JUMP JUMPDEST JUMPDEST DUP1 PUSH1 0x40 MSTORE POP POP POP JUMP JUMPDEST PUSH0 PUSH2 0x2F77 PUSH2 0x2EE7 JUMP JUMPDEST SWAP1 POP PUSH2 0x2F83 DUP3 DUP3 PUSH2 0x2F3D JUMP JUMPDEST SWAP2 SWAP1 POP JUMP JUMPDEST PUSH0 PUSH8 0xFFFFFFFFFFFFFFFF DUP3 GT ISZERO PUSH2 0x2FA2 JUMPI PUSH2 0x2FA1 PUSH2 0x2F10 JUMP JUMPDEST JUMPDEST PUSH2 0x2FAB DUP3 PUSH2 0x2F00 JUMP JUMPDEST SWAP1 POP PUSH1 0x20 DUP2 ADD SWAP1 POP SWAP2 SWAP1 POP JUMP JUMPDEST DUP3 DUP2 DUP4 CALLDATACOPY PUSH0 DUP4 DUP4 ADD MSTORE POP POP POP JUMP JUMPDEST PUSH0 PUSH2 0x2FD8 PUSH2 0x2FD3 DUP5 PUSH2 0x2F88 JUMP JUMPDEST PUSH2 0x2F6E JUMP JUMPDEST SWAP1 POP DUP3 DUP2 MSTORE PUSH1 0x20 DUP2 ADD DUP5 DUP5 DUP5 ADD GT ISZERO PUSH2 0x2FF4 JUMPI PUSH2 0x2FF3 PUSH2 0x2EFC JUMP JUMPDEST JUMPDEST PUSH2 0x2FFF DUP5 DUP3 DUP6 PUSH2 0x2FB8 JUMP JUMPDEST POP SWAP4 SWAP3 POP POP POP JUMP JUMPDEST PUSH0 DUP3 PUSH1 0x1F DUP4 ADD SLT PUSH2 0x301B JUMPI PUSH2 0x301A PUSH2 0x2EF8 JUMP JUMPDEST JUMPDEST DUP2 CALLDATALOAD PUSH2 0x302B DUP5 DUP3 PUSH1 0x20 DUP7 ADD PUSH2 0x2FC6 JUMP JUMPDEST SWAP2 POP POP SWAP3 SWAP2 POP POP JUMP JUMPDEST PUSH0 DUP2 SWAP1 POP SWAP2 SWAP1 POP JUMP JUMPDEST PUSH2 0x3046 DUP2 PUSH2 0x3034 JUMP JUMPDEST DUP2 EQ PUSH2 0x3050 JUMPI PUSH0 DUP1 REVERT JUMPDEST POP JUMP JUMPDEST PUSH0 DUP2 CALLDATALOAD SWAP1 POP PUSH2 0x3061 DUP2 PUSH2 0x303D JUMP JUMPDEST SWAP3 SWAP2 POP POP JUMP JUMPDEST PUSH0 DUP1 PUSH0 PUSH1 0x60 DUP5 DUP7 SUB SLT ISZERO PUSH2 0x307E JUMPI PUSH2 0x307D PUSH2 0x2EF0 JUMP JUMPDEST JUMPDEST PUSH0 DUP5 ADD CALLDATALOAD PUSH8 0xFFFFFFFFFFFFFFFF DUP2 GT ISZERO PUSH2 0x309B JUMPI PUSH2 0x309A PUSH2 0x2EF4 JUMP JUMPDEST JUMPDEST PUSH2 0x30A7 DUP7 DUP3 DUP8 ADD PUSH2 0x3007 JUMP JUMPDEST SWAP4 POP POP PUSH1 0x20 PUSH2 0x30B8 DUP7 DUP3 DUP8 ADD PUSH2 0x3053 JUMP JUMPDEST SWAP3 POP POP PUSH1 0x40 PUSH2 0x30C9 DUP7 DUP3 DUP8 ADD PUSH2 0x3053 JUMP JUMPDEST SWAP2 POP POP SWAP3 POP SWAP3 POP SWAP3 JUMP JUMPDEST PUSH0 DUP2 MLOAD SWAP1 POP SWAP2 SWAP1 POP JUMP JUMPDEST PUSH0 DUP3 DUP3 MSTORE PUSH1 0x20 DUP3 ADD SWAP1 POP SWAP3 SWAP2 POP POP JUMP JUMPDEST PUSH0 DUP2 SWAP1 POP PUSH1 0x20 DUP3 ADD SWAP1 POP SWAP2 SWAP1 POP JUMP JUMPDEST PUSH0 DUP2 MLOAD SWAP1 POP SWAP2 SWAP1 POP JUMP JUMPDEST PUSH0 DUP3 DUP3 MSTORE PUSH1 0x20 DUP3 ADD SWAP1 POP SWAP3 SWAP2 POP POP JUMP JUMPDEST PUSH0 JUMPDEST DUP4 DUP2 LT ISZERO PUSH2 0x3133 JUMPI DUP1 DUP3 ADD MLOAD DUP2 DUP5 ADD MSTORE PUSH1 0x20 DUP2 ADD SWAP1 POP PUSH2 0x3118 JUMP JUMPDEST PUSH0 DUP5 DUP5 ADD MSTORE POP POP POP POP JUMP JUMPDEST PUSH0 PUSH2 0x3148 DUP3 PUSH2 0x30FC JUMP JUMPDEST PUSH2 0x3152 DUP2 DUP6 PUSH2 0x3106 JUMP JUMPDEST SWAP4 POP PUSH2 0x3162 DUP2 DUP6 PUSH1 0x20 DUP7 ADD PUSH2 0x3116 JUMP JUMPDEST PUSH2 0x316B DUP2 PUSH2 0x2F00 JUMP JUMPDEST DUP5 ADD SWAP2 POP POP SWAP3 SWAP2 POP POP JUMP JUMPDEST PUSH0 PUSH2 0x3181 DUP4 DUP4 PUSH2 0x313E JUMP JUMPDEST SWAP1 POP SWAP3 SWAP2 POP POP JUMP JUMPDEST PUSH0 PUSH1 0x20 DUP3 ADD SWAP1 POP SWAP2 SWAP1 POP JUMP JUMPDEST PUSH0 PUSH2 0x319F DUP3 PUSH2 0x30D3 JUMP JUMPDEST PUSH2 0x31A9 DUP2 DUP6 PUSH2 0x30DD JUMP JUMPDEST SWAP4 POP DUP4 PUSH1 0x20 DUP3 MUL DUP6 ADD PUSH2 0x31BB DUP6 PUSH2 0x30ED JUMP JUMPDEST DUP1 PUSH0 JUMPDEST DUP6 DUP2 LT ISZERO PUSH2 0x31F6 JUMPI DUP5 DUP5 SUB DUP10 MSTORE DUP2 MLOAD PUSH2 0x31D7 DUP6 DUP3 PUSH2 0x3176 JUMP JUMPDEST SWAP5 POP PUSH2 0x31E2 DUP4 PUSH2 0x3189 JUMP JUMPDEST SWAP3 POP PUSH1 0x20 DUP11 ADD SWAP10 POP POP PUSH1 0x1 DUP2 ADD SWAP1 POP PUSH2 0x31BE JUMP JUMPDEST POP DUP3 SWAP8 POP DUP8 SWAP6 POP POP POP POP POP POP SWAP3 SWAP2 POP POP JUMP JUMPDEST PUSH0 PUSH1 0x20 DUP3 ADD SWAP1 POP DUP2 DUP2 SUB PUSH0 DUP4 ADD MSTORE PUSH2 0x3220 DUP2 DUP5 PUSH2 0x3195 JUMP JUMPDEST SWAP1 POP SWAP3 SWAP2 POP POP JUMP JUMPDEST PUSH0 PUSH8 0xFFFFFFFFFFFFFFFF DUP3 GT ISZERO PUSH2 0x3242 JUMPI PUSH2 0x3241 PUSH2 0x2F10 JUMP JUMPDEST JUMPDEST PUSH1 0x20 DUP3 MUL SWAP1 POP PUSH1 0x20 DUP2 ADD SWAP1 POP SWAP2 SWAP1 POP JUMP JUMPDEST PUSH0 DUP1 REVERT JUMPDEST PUSH0 PUSH2 0x3269 PUSH2 0x3264 DUP5 PUSH2 0x3228 JUMP JUMPDEST PUSH2 0x2F6E JUMP JUMPDEST SWAP1 POP DUP1 DUP4 DUP3 MSTORE PUSH1 0x20 DUP3 ADD SWAP1 POP PUSH1 0x20 DUP5 MUL DUP4 ADD DUP6 DUP2 GT ISZERO PUSH2 0x328C JUMPI PUSH2 0x328B PUSH2 0x3253 JUMP JUMPDEST JUMPDEST DUP4 JUMPDEST DUP2 DUP2 LT ISZERO PUSH2 0x32D3 JUMPI DUP1 CALLDATALOAD PUSH8 0xFFFFFFFFFFFFFFFF DUP2 GT ISZERO PUSH2 0x32B1 JUMPI PUSH2 0x32B0 PUSH2 0x2EF8 JUMP JUMPDEST JUMPDEST DUP1 DUP7 ADD PUSH2 0x32BE DUP10 DUP3 PUSH2 0x3007 JUMP JUMPDEST DUP6 MSTORE PUSH1 0x20 DUP6 ADD SWAP5 POP POP POP PUSH1 0x20 DUP2 ADD SWAP1 POP PUSH2 0x328E JUMP JUMPDEST POP POP POP SWAP4 SWAP3 POP POP POP JUMP JUMPDEST PUSH0 DUP3 PUSH1 0x1F DUP4 ADD SLT PUSH2 0x32F1 JUMPI PUSH2 0x32F0 PUSH2 0x2EF8 JUMP JUMPDEST JUMPDEST DUP2 CALLDATALOAD PUSH2 0x3301 DUP5 DUP3 PUSH1 0x20 DUP7 ADD PUSH2 0x3257 JUMP JUMPDEST SWAP2 POP POP SWAP3 SWAP2 POP POP JUMP JUMPDEST PUSH0 PUSH20 0xFFFFFFFFFFFFFFFFFFFFFFFFFFFFFFFFFFFFFFFF DUP3 AND SWAP1 POP SWAP2 SWAP1 POP JUMP JUMPDEST PUSH0 PUSH2 0x3333 DUP3 PUSH2 0x330A JUMP JUMPDEST SWAP1 POP SWAP2 SWAP1 POP JUMP JUMPDEST PUSH2 0x3343 DUP2 PUSH2 0x3329 JUMP JUMPDEST DUP2 EQ PUSH2 0x334D JUMPI PUSH0 DUP1 REVERT JUMPDEST POP JUMP JUMPDEST PUSH0 DUP2 CALLDATALOAD SWAP1 POP PUSH2 0x335E DUP2 PUSH2 0x333A JUMP JUMPDEST SWAP3 SWAP2 POP POP JUMP JUMPDEST PUSH0 DUP1 PUSH0 DUP1 PUSH0 PUSH1 0xA0 DUP7 DUP9 SUB SLT ISZERO PUSH2 0x337D JUMPI PUSH2 0x337C PUSH2 0x2EF0 JUMP JUMPDEST JUMPDEST PUSH0 PUSH2 0x338A DUP9 DUP3 DUP10 ADD PUSH2 0x3053 JUMP JUMPDEST SWAP6 POP POP PUSH1 0x20 DUP7 ADD CALLDATALOAD PUSH8 0xFFFFFFFFFFFFFFFF DUP2 GT ISZERO PUSH2 0x33AB JUMPI PUSH2 0x33AA PUSH2 0x2EF4 JUMP JUMPDEST JUMPDEST PUSH2 0x33B7 DUP9 DUP3 DUP10 ADD PUSH2 0x32DD JUMP JUMPDEST SWAP5 POP POP PUSH1 0x40 DUP7 ADD CALLDATALOAD PUSH8 0xFFFFFFFFFFFFFFFF DUP2 GT ISZERO PUSH2 0x33D8 JUMPI PUSH2 0x33D7 PUSH2 0x2EF4 JUMP JUMPDEST JUMPDEST PUSH2 0x33E4 DUP9 DUP3 DUP10 ADD PUSH2 0x3007 JUMP JUMPDEST SWAP4 POP POP PUSH1 0x60 DUP7 ADD CALLDATALOAD PUSH8 0xFFFFFFFFFFFFFFFF DUP2 GT ISZERO PUSH2 0x3405 JUMPI PUSH2 0x3404 PUSH2 0x2EF4 JUMP JUMPDEST JUMPDEST PUSH2 0x3411 DUP9 DUP3 DUP10 ADD PUSH2 0x3007 JUMP JUMPDEST SWAP3 POP POP PUSH1 0x80 PUSH2 0x3422 DUP9 DUP3 DUP10 ADD PUSH2 0x3350 JUMP JUMPDEST SWAP2 POP POP SWAP3 SWAP6 POP SWAP3 SWAP6 SWAP1 SWAP4 POP JUMP JUMPDEST PUSH0 DUP3 DUP3 MSTORE PUSH1 0x20 DUP3 ADD SWAP1 POP SWAP3 SWAP2 POP POP JUMP JUMPDEST PUSH0 PUSH2 0x3449 DUP3 PUSH2 0x30FC JUMP JUMPDEST PUSH2 0x3453 DUP2 DUP6 PUSH2 0x342F JUMP JUMPDEST SWAP4 POP PUSH2 0x3463 DUP2 DUP6 PUSH1 0x20 DUP7 ADD PUSH2 0x3116 JUMP JUMPDEST PUSH2 0x346C DUP2 PUSH2 0x2F00 JUMP JUMPDEST DUP5 ADD SWAP2 POP POP SWAP3 SWAP2 POP POP JUMP JUMPDEST PUSH0 PUSH1 0x20 DUP3 ADD SWAP1 POP DUP2 DUP2 SUB PUSH0 DUP4 ADD MSTORE PUSH2 0x348F DUP2 DUP5 PUSH2 0x343F JUMP JUMPDEST SWAP1 POP SWAP3 SWAP2 POP POP JUMP JUMPDEST PUSH0 DUP2 MLOAD SWAP1 POP SWAP2 SWAP1 POP JUMP JUMPDEST PUSH0 DUP3 DUP3 MSTORE PUSH1 0x20 DUP3 ADD SWAP1 POP SWAP3 SWAP2 POP POP JUMP JUMPDEST PUSH0 DUP2 SWAP1 POP PUSH1 0x20 DUP3 ADD SWAP1 POP SWAP2 SWAP1 POP JUMP JUMPDEST PUSH32 0x4E487B7100000000000000000000000000000000000000000000000000000000 PUSH0 MSTORE PUSH1 0x21 PUSH1 0x4 MSTORE PUSH1 0x24 PUSH0 REVERT JUMPDEST PUSH1 0x4 DUP2 LT PUSH2 0x34FE JUMPI PUSH2 0x34FD PUSH2 0x34C0 JUMP JUMPDEST JUMPDEST POP JUMP JUMPDEST PUSH0 DUP2 SWAP1 POP PUSH2 0x350E DUP3 PUSH2 0x34ED JUMP JUMPDEST SWAP2 SWAP1 POP JUMP JUMPDEST PUSH0 PUSH2 0x351D DUP3 PUSH2 0x3501 JUMP JUMPDEST SWAP1 POP SWAP2 SWAP1 POP JUMP JUMPDEST PUSH2 0x352D DUP2 PUSH2 0x3513 JUMP JUMPDEST DUP3 MSTORE POP POP JUMP JUMPDEST PUSH0 PUSH2 0x353E DUP4 DUP4 PUSH2 0x3524 JUMP JUMPDEST PUSH1 0x20 DUP4 ADD SWAP1 POP SWAP3 SWAP2 POP POP JUMP JUMPDEST PUSH0 PUSH1 0x20 DUP3 ADD SWAP1 POP SWAP2 SWAP1 POP JUMP JUMPDEST PUSH0 PUSH2 0x3560 DUP3 PUSH2 0x3497 JUMP JUMPDEST PUSH2 0x356A DUP2 DUP6 PUSH2 0x34A1 JUMP JUMPDEST SWAP4 POP PUSH2 0x3575 DUP4 PUSH2 0x34B1 JUMP JUMPDEST DUP1 PUSH0 JUMPDEST DUP4 DUP2 LT ISZERO PUSH2 0x35A5 JUMPI DUP2 MLOAD PUSH2 0x358C DUP9 DUP3 PUSH2 0x3533 JUMP JUMPDEST SWAP8 POP PUSH2 0x3597 DUP4 PUSH2 0x354A JUMP JUMPDEST SWAP3 POP POP PUSH1 0x1 DUP2 ADD SWAP1 POP PUSH2 0x3578 JUMP JUMPDEST POP DUP6 SWAP4 POP POP POP POP SWAP3 SWAP2 POP POP JUMP JUMPDEST PUSH0 PUSH1 0x20 DUP3 ADD SWAP1 POP DUP2 DUP2 SUB PUSH0 DUP4 ADD MSTORE PUSH2 0x35CA DUP2 DUP5 PUSH2 0x3556 JUMP JUMPDEST SWAP1 POP SWAP3 SWAP2 POP POP JUMP JUMPDEST PUSH2 0x35DB DUP2 PUSH2 0x3034 JUMP JUMPDEST DUP3 MSTORE POP POP JUMP JUMPDEST PUSH0 PUSH1 0x20 DUP3 ADD SWAP1 POP PUSH2 0x35F4 PUSH0 DUP4 ADD DUP5 PUSH2 0x35D2 JUMP JUMPDEST SWAP3 SWAP2 POP POP JUMP JUMPDEST PUSH0 PUSH1 0x20 DUP3 DUP5 SUB SLT ISZERO PUSH2 0x360F JUMPI PUSH2 0x360E PUSH2 0x2EF0 JUMP JUMPDEST JUMPDEST PUSH0 PUSH2 0x361C DUP5 DUP3 DUP6 ADD PUSH2 0x3053 JUMP JUMPDEST SWAP2 POP POP SWAP3 SWAP2 POP POP JUMP JUMPDEST PUSH2 0x362E DUP2 PUSH2 0x3329 JUMP JUMPDEST DUP3 MSTORE POP POP JUMP JUMPDEST PUSH0 PUSH1 0x60 DUP3 ADD SWAP1 POP PUSH2 0x3647 PUSH0 DUP4 ADD DUP7 PUSH2 0x35D2 JUMP JUMPDEST DUP2 DUP2 SUB PUSH1 0x20 DUP4 ADD MSTORE PUSH2 0x3659 DUP2 DUP6 PUSH2 0x343F JUMP JUMPDEST SWAP1 POP PUSH2 0x3668 PUSH1 0x40 DUP4 ADD DUP5 PUSH2 0x3625 JUMP JUMPDEST SWAP5 SWAP4 POP POP POP POP JUMP JUMPDEST PUSH0 PUSH1 0x20 DUP3 DUP5 SUB SLT ISZERO PUSH2 0x3685 JUMPI PUSH2 0x3684 PUSH2 0x2EF0 JUMP JUMPDEST JUMPDEST PUSH0 DUP3 ADD CALLDATALOAD PUSH8 0xFFFFFFFFFFFFFFFF DUP2 GT ISZERO PUSH2 0x36A2 JUMPI PUSH2 0x36A1 PUSH2 0x2EF4 JUMP JUMPDEST JUMPDEST PUSH2 0x36AE DUP5 DUP3 DUP6 ADD PUSH2 0x3007 JUMP JUMPDEST SWAP2 POP POP SWAP3 SWAP2 POP POP JUMP JUMPDEST PUSH0 DUP2 MLOAD SWAP1 POP SWAP2 SWAP1 POP JUMP JUMPDEST PUSH0 DUP2 SWAP1 POP PUSH1 0x20 DUP3 ADD SWAP1 POP SWAP2 SWAP1 POP JUMP JUMPDEST PUSH1 0xC7 DUP2 LT PUSH2 0x36E1 JUMPI PUSH2 0x36E0 PUSH2 0x34C0 JUMP JUMPDEST JUMPDEST POP JUMP JUMPDEST PUSH0 DUP2 SWAP1 POP PUSH2 0x36F1 DUP3 PUSH2 0x36D0 JUMP JUMPDEST SWAP2 SWAP1 POP JUMP JUMPDEST PUSH0 PUSH2 0x3700 DUP3 PUSH2 0x36E4 JUMP JUMPDEST SWAP1 POP SWAP2 SWAP1 POP JUMP JUMPDEST PUSH2 0x3710 DUP2 PUSH2 0x36F6 JUMP JUMPDEST DUP3 MSTORE POP POP JUMP JUMPDEST PUSH0 PUSH2 0x3721 DUP4 DUP4 PUSH2 0x3707 JUMP JUMPDEST PUSH1 0x20 DUP4 ADD SWAP1 POP SWAP3 SWAP2 POP POP JUMP JUMPDEST PUSH0 PUSH1 0x20 DUP3 ADD SWAP1 POP SWAP2 SWAP1 POP JUMP JUMPDEST PUSH0 PUSH2 0x3743 DUP3 PUSH2 0x36B7 JUMP JUMPDEST PUSH2 0x374D DUP2 DUP6 PUSH2 0x34A1 JUMP JUMPDEST SWAP4 POP PUSH2 0x3758 DUP4 PUSH2 0x36C1 JUMP JUMPDEST DUP1 PUSH0 JUMPDEST DUP4 DUP2 LT ISZERO PUSH2 0x3788 JUMPI DUP2 MLOAD PUSH2 0x376F DUP9 DUP3 PUSH2 0x3716 JUMP JUMPDEST SWAP8 POP PUSH2 0x377A DUP4 PUSH2 0x372D JUMP JUMPDEST SWAP3 POP POP PUSH1 0x1 DUP2 ADD SWAP1 POP PUSH2 0x375B JUMP JUMPDEST POP DUP6 SWAP4 POP POP POP POP SWAP3 SWAP2 POP POP JUMP JUMPDEST PUSH0 PUSH1 0x40 DUP3 ADD SWAP1 POP DUP2 DUP2 SUB PUSH0 DUP4 ADD MSTORE PUSH2 0x37AD DUP2 DUP6 PUSH2 0x3739 JUMP JUMPDEST SWAP1 POP DUP2 DUP2 SUB PUSH1 0x20 DUP4 ADD MSTORE PUSH2 0x37C1 DUP2 DUP5 PUSH2 0x3739 JUMP JUMPDEST SWAP1 POP SWAP4 SWAP3 POP POP POP JUMP JUMPDEST PUSH0 PUSH1 0x20 DUP3 ADD SWAP1 POP PUSH2 0x37DD PUSH0 DUP4 ADD DUP5 PUSH2 0x3625 JUMP JUMPDEST SWAP3 SWAP2 POP POP JUMP JUMPDEST PUSH0 DUP1 PUSH1 0x40 DUP4 DUP6 SUB SLT ISZERO PUSH2 0x37F9 JUMPI PUSH2 0x37F8 PUSH2 0x2EF0 JUMP JUMPDEST JUMPDEST PUSH0 PUSH2 0x3806 DUP6 DUP3 DUP7 ADD PUSH2 0x3053 JUMP JUMPDEST SWAP3 POP POP PUSH1 0x20 PUSH2 0x3817 DUP6 DUP3 DUP7 ADD PUSH2 0x3053 JUMP JUMPDEST SWAP2 POP POP SWAP3 POP SWAP3 SWAP1 POP JUMP JUMPDEST PUSH0 DUP1 PUSH0 PUSH1 0x60 DUP5 DUP7 SUB SLT ISZERO PUSH2 0x3838 JUMPI PUSH2 0x3837 PUSH2 0x2EF0 JUMP JUMPDEST JUMPDEST PUSH0 PUSH2 0x3845 DUP7 DUP3 DUP8 ADD PUSH2 0x3350 JUMP JUMPDEST SWAP4 POP POP PUSH1 0x20 PUSH2 0x3856 DUP7 DUP3 DUP8 ADD PUSH2 0x3053 JUMP JUMPDEST SWAP3 POP POP PUSH1 0x40 PUSH2 0x3867 DUP7 DUP3 DUP8 ADD PUSH2 0x3053 JUMP JUMPDEST SWAP2 POP POP SWAP3 POP SWAP3 POP SWAP3 JUMP JUMPDEST PUSH0 PUSH8 0xFFFFFFFFFFFFFFFF DUP3 GT ISZERO PUSH2 0x388B JUMPI PUSH2 0x388A PUSH2 0x2F10 JUMP JUMPDEST JUMPDEST PUSH2 0x3894 DUP3 PUSH2 0x2F00 JUMP JUMPDEST SWAP1 POP PUSH1 0x20 DUP2 ADD SWAP1 POP SWAP2 SWAP1 POP JUMP JUMPDEST PUSH0 PUSH2 0x38B3 PUSH2 0x38AE DUP5 PUSH2 0x3871 JUMP JUMPDEST PUSH2 0x2F6E JUMP JUMPDEST SWAP1 POP DUP3 DUP2 MSTORE PUSH1 0x20 DUP2 ADD DUP5 DUP5 DUP5 ADD GT ISZERO PUSH2 0x38CF JUMPI PUSH2 0x38CE PUSH2 0x2EFC JUMP JUMPDEST JUMPDEST PUSH2 0x38DA DUP5 DUP3 DUP6 PUSH2 0x2FB8 JUMP JUMPDEST POP SWAP4 SWAP3 POP POP POP JUMP JUMPDEST PUSH0 DUP3 PUSH1 0x1F DUP4 ADD SLT PUSH2 0x38F6 JUMPI PUSH2 0x38F5 PUSH2 0x2EF8 JUMP JUMPDEST JUMPDEST DUP2 CALLDATALOAD PUSH2 0x3906 DUP5 DUP3 PUSH1 0x20 DUP7 ADD PUSH2 0x38A1 JUMP JUMPDEST SWAP2 POP POP SWAP3 SWAP2 POP POP JUMP JUMPDEST PUSH0 DUP1 PUSH1 0x40 DUP4 DUP6 SUB SLT ISZERO PUSH2 0x3925 JUMPI PUSH2 0x3924 PUSH2 0x2EF0 JUMP JUMPDEST JUMPDEST PUSH0 DUP4 ADD CALLDATALOAD PUSH8 0xFFFFFFFFFFFFFFFF DUP2 GT ISZERO PUSH2 0x3942 JUMPI PUSH2 0x3941 PUSH2 0x2EF4 JUMP JUMPDEST JUMPDEST PUSH2 0x394E DUP6 DUP3 DUP7 ADD PUSH2 0x3007 JUMP JUMPDEST SWAP3 POP POP PUSH1 0x20 DUP4 ADD CALLDATALOAD PUSH8 0xFFFFFFFFFFFFFFFF DUP2 GT ISZERO PUSH2 0x396F JUMPI PUSH2 0x396E PUSH2 0x2EF4 JUMP JUMPDEST JUMPDEST PUSH2 0x397B DUP6 DUP3 DUP7 ADD PUSH2 0x38E2 JUMP JUMPDEST SWAP2 POP POP SWAP3 POP SWAP3 SWAP1 POP JUMP JUMPDEST PUSH0 DUP2 MLOAD SWAP1 POP SWAP2 SWAP1 POP JUMP JUMPDEST PUSH0 DUP3 DUP3 MSTORE PUSH1 0x20 DUP3 ADD SWAP1 POP SWAP3 SWAP2 POP POP JUMP JUMPDEST PUSH0 PUSH2 0x39A9 DUP3 PUSH2 0x3985 JUMP JUMPDEST PUSH2 0x39B3 DUP2 DUP6 PUSH2 0x398F JUMP JUMPDEST SWAP4 POP PUSH2 0x39C3 DUP2 DUP6 PUSH1 0x20 DUP7 ADD PUSH2 0x3116 JUMP JUMPDEST PUSH2 0x39CC DUP2 PUSH2 0x2F00 JUMP JUMPDEST DUP5 ADD SWAP2 POP POP SWAP3 SWAP2 POP POP JUMP JUMPDEST PUSH0 PUSH1 0x20 DUP3 ADD SWAP1 POP DUP2 DUP2 SUB PUSH0 DUP4 ADD MSTORE PUSH2 0x39EF DUP2 DUP5 PUSH2 0x399F JUMP JUMPDEST SWAP1 POP SWAP3 SWAP2 POP POP JUMP JUMPDEST PUSH0 DUP1 PUSH1 0x40 DUP4 DUP6 SUB SLT ISZERO PUSH2 0x3A0D JUMPI PUSH2 0x3A0C PUSH2 0x2EF0 JUMP JUMPDEST JUMPDEST PUSH0 PUSH2 0x3A1A DUP6 DUP3 DUP7 ADD PUSH2 0x3350 JUMP JUMPDEST SWAP3 POP POP PUSH1 0x20 PUSH2 0x3A2B DUP6 DUP3 DUP7 ADD PUSH2 0x3053 JUMP JUMPDEST SWAP2 POP POP SWAP3 POP SWAP3 SWAP1 POP JUMP JUMPDEST PUSH0 PUSH1 0x20 DUP3 DUP5 SUB SLT ISZERO PUSH2 0x3A4A JUMPI PUSH2 0x3A49 PUSH2 0x2EF0 JUMP JUMPDEST JUMPDEST PUSH0 PUSH2 0x3A57 DUP5 DUP3 DUP6 ADD PUSH2 0x3350 JUMP JUMPDEST SWAP2 POP POP SWAP3 SWAP2 POP POP JUMP JUMPDEST PUSH0 DUP2 ISZERO ISZERO SWAP1 POP SWAP2 SWAP1 POP JUMP JUMPDEST PUSH2 0x3A74 DUP2 PUSH2 0x3A60 JUMP JUMPDEST DUP3 MSTORE POP POP JUMP JUMPDEST PUSH0 PUSH1 0x20 DUP3 ADD SWAP1 POP PUSH2 0x3A8D PUSH0 DUP4 ADD DUP5 PUSH2 0x3A6B JUMP JUMPDEST SWAP3 SWAP2 POP POP JUMP JUMPDEST PUSH0 DUP1 PUSH1 0x40 DUP4 DUP6 SUB SLT ISZERO PUSH2 0x3AA9 JUMPI PUSH2 0x3AA8 PUSH2 0x2EF0 JUMP JUMPDEST JUMPDEST PUSH0 DUP4 ADD CALLDATALOAD PUSH8 0xFFFFFFFFFFFFFFFF DUP2 GT ISZERO PUSH2 0x3AC6 JUMPI PUSH2 0x3AC5 PUSH2 0x2EF4 JUMP JUMPDEST JUMPDEST PUSH2 0x3AD2 DUP6 DUP3 DUP7 ADD PUSH2 0x3007 JUMP JUMPDEST SWAP3 POP POP PUSH1 0x20 PUSH2 0x3AE3 DUP6 DUP3 DUP7 ADD PUSH2 0x3053 JUMP JUMPDEST SWAP2 POP POP SWAP3 POP SWAP3 SWAP1 POP JUMP JUMPDEST PUSH1 0x4 DUP2 LT PUSH2 0x3AF9 JUMPI PUSH0 DUP1 REVERT JUMPDEST POP JUMP JUMPDEST PUSH0 DUP2 CALLDATALOAD SWAP1 POP PUSH2 0x3B0A DUP2 PUSH2 0x3AED JUMP JUMPDEST SWAP3 SWAP2 POP POP JUMP JUMPDEST PUSH0 PUSH1 0x20 DUP3 DUP5 SUB SLT ISZERO PUSH2 0x3B25 JUMPI PUSH2 0x3B24 PUSH2 0x2EF0 JUMP JUMPDEST JUMPDEST PUSH0 PUSH2 0x3B32 DUP5 DUP3 DUP6 ADD PUSH2 0x3AFC JUMP JUMPDEST SWAP2 POP POP SWAP3 SWAP2 POP POP JUMP JUMPDEST PUSH0 DUP2 SWAP1 POP SWAP3 SWAP2 POP POP JUMP JUMPDEST PUSH0 PUSH2 0x3B4F DUP3 PUSH2 0x30FC JUMP JUMPDEST PUSH2 0x3B59 DUP2 DUP6 PUSH2 0x3B3B JUMP JUMPDEST SWAP4 POP PUSH2 0x3B69 DUP2 DUP6 PUSH1 0x20 DUP7 ADD PUSH2 0x3116 JUMP JUMPDEST DUP1 DUP5 ADD SWAP2 POP POP SWAP3 SWAP2 POP POP JUMP JUMPDEST PUSH0 PUSH2 0x3B80 DUP3 DUP5 PUSH2 0x3B45 JUMP JUMPDEST SWAP2 POP DUP2 SWAP1 POP SWAP3 SWAP2 POP POP JUMP JUMPDEST PUSH32 0x4E487B7100000000000000000000000000000000000000000000000000000000 PUSH0 MSTORE PUSH1 0x11 PUSH1 0x4 MSTORE PUSH1 0x24 PUSH0 REVERT JUMPDEST PUSH0 PUSH2 0x3BC2 DUP3 PUSH2 0x3034 JUMP JUMPDEST SWAP2 POP PUSH2 0x3BCD DUP4 PUSH2 0x3034 JUMP JUMPDEST SWAP3 POP DUP3 DUP3 SUB SWAP1 POP DUP2 DUP2 GT ISZERO PUSH2 0x3BE5 JUMPI PUSH2 0x3BE4 PUSH2 0x3B8B JUMP JUMPDEST JUMPDEST SWAP3 SWAP2 POP POP JUMP JUMPDEST PUSH32 0x4E487B7100000000000000000000000000000000000000000000000000000000 PUSH0 MSTORE PUSH1 0x12 PUSH1 0x4 MSTORE PUSH1 0x24 PUSH0 REVERT JUMPDEST PUSH0 PUSH2 0x3C22 DUP3 PUSH2 0x3034 JUMP JUMPDEST SWAP2 POP PUSH2 0x3C2D DUP4 PUSH2 0x3034 JUMP JUMPDEST SWAP3 POP DUP3 PUSH2 0x3C3D JUMPI PUSH2 0x3C3C PUSH2 0x3BEB JUMP JUMPDEST JUMPDEST DUP3 DUP3 DIV SWAP1 POP SWAP3 SWAP2 POP POP JUMP JUMPDEST PUSH0 PUSH2 0x3C52 DUP3 PUSH2 0x3034 JUMP JUMPDEST SWAP2 POP PUSH2 0x3C5D DUP4 PUSH2 0x3034 JUMP JUMPDEST SWAP3 POP DUP3 DUP3 MUL PUSH2 0x3C6B DUP2 PUSH2 0x3034 JUMP JUMPDEST SWAP2 POP DUP3 DUP3 DIV DUP5 EQ DUP4 ISZERO OR PUSH2 0x3C82 JUMPI PUSH2 0x3C81 PUSH2 0x3B8B JUMP JUMPDEST JUMPDEST POP SWAP3 SWAP2 POP POP JUMP JUMPDEST PUSH0 PUSH2 0x3C93 DUP3 PUSH2 0x3034 JUMP JUMPDEST SWAP2 POP PUSH2 0x3C9E DUP4 PUSH2 0x3034 JUMP JUMPDEST SWAP3 POP DUP3 DUP3 ADD SWAP1 POP DUP1 DUP3 GT ISZERO PUSH2 0x3CB6 JUMPI PUSH2 0x3CB5 PUSH2 0x3B8B JUMP JUMPDEST JUMPDEST SWAP3 SWAP2 POP POP JUMP JUMPDEST PUSH32 0x4E487B7100000000000000000000000000000000000000000000000000000000 PUSH0 MSTORE PUSH1 0x22 PUSH1 0x4 MSTORE PUSH1 0x24 PUSH0 REVERT JUMPDEST PUSH0 PUSH1 0x2 DUP3 DIV SWAP1 POP PUSH1 0x1 DUP3 AND DUP1 PUSH2 0x3D00 JUMPI PUSH1 0x7F DUP3 AND SWAP2 POP JUMPDEST PUSH1 0x20 DUP3 LT DUP2 SUB PUSH2 0x3D13 JUMPI PUSH2 0x3D12 PUSH2 0x3CBC JUMP JUMPDEST JUMPDEST POP SWAP2 SWAP1 POP JUMP JUMPDEST PUSH32 0x4E487B7100000000000000000000000000000000000000000000000000000000 PUSH0 MSTORE PUSH1 0x32 PUSH1 0x4 MSTORE PUSH1 0x24 PUSH0 REVERT JUMPDEST PUSH0 PUSH2 0x3D50 DUP3 PUSH2 0x3034 JUMP JUMPDEST SWAP2 POP PUSH32 0xFFFFFFFFFFFFFFFFFFFFFFFFFFFFFFFFFFFFFFFFFFFFFFFFFFFFFFFFFFFFFFFF DUP3 SUB PUSH2 0x3D82 JUMPI PUSH2 0x3D81 PUSH2 0x3B8B JUMP JUMPDEST JUMPDEST PUSH1 0x1 DUP3 ADD SWAP1 POP SWAP2 SWAP1 POP JUMP JUMPDEST PUSH0 DUP2 SWAP1 POP SWAP2 SWAP1 POP JUMP JUMPDEST PUSH0 PUSH2 0x3DA0 DUP3 PUSH2 0x3D8D JUMP JUMPDEST SWAP2 POP PUSH32 0x8000000000000000000000000000000000000000000000000000000000000000 DUP3 SUB PUSH2 0x3DD2 JUMPI PUSH2 0x3DD1 PUSH2 0x3B8B JUMP JUMPDEST JUMPDEST PUSH1 0x1 DUP3 SUB SWAP1 POP SWAP2 SWAP1 POP JUMP JUMPDEST PUSH0 DUP2 SWAP1 POP SWAP3 SWAP2 POP POP JUMP JUMPDEST PUSH0 PUSH2 0x3DF1 DUP3 PUSH2 0x3985 JUMP JUMPDEST PUSH2 0x3DFB DUP2 DUP6 PUSH2 0x3DDD JUMP JUMPDEST SWAP4 POP PUSH2 0x3E0B DUP2 DUP6 PUSH1 0x20 DUP7 ADD PUSH2 0x3116 JUMP JUMPDEST DUP1 DUP5 ADD SWAP2 POP POP SWAP3 SWAP2 POP POP JUMP JUMPDEST PUSH32 0x2C00000000000000000000000000000000000000000000000000000000000000 PUSH0 DUP3 ADD MSTORE POP JUMP JUMPDEST PUSH0 PUSH2 0x3E4B PUSH1 0x1 DUP4 PUSH2 0x3B3B JUMP JUMPDEST SWAP2 POP PUSH2 0x3E56 DUP3 PUSH2 0x3E17 JUMP JUMPDEST PUSH1 0x1 DUP3 ADD SWAP1 POP SWAP2 SWAP1 POP JUMP JUMPDEST PUSH0 PUSH2 0x3E6C DUP3 DUP6 PUSH2 0x3DE7 JUMP JUMPDEST SWAP2 POP PUSH2 0x3E77 DUP3 PUSH2 0x3E3F JUMP JUMPDEST SWAP2 POP PUSH2 0x3E83 DUP3 DUP5 PUSH2 0x3B45 JUMP JUMPDEST SWAP2 POP DUP2 SWAP1 POP SWAP4 SWAP3 POP POP POP JUMP JUMPDEST PUSH0 PUSH2 0x3E9A DUP3 DUP10 PUSH2 0x3B45 JUMP JUMPDEST SWAP2 POP PUSH2 0x3EA5 DUP3 PUSH2 0x3E3F JUMP JUMPDEST SWAP2 POP PUSH2 0x3EB1 DUP3 DUP9 PUSH2 0x3B45 JUMP JUMPDEST SWAP2 POP PUSH2 0x3EBC DUP3 PUSH2 0x3E3F JUMP JUMPDEST SWAP2 POP PUSH2 0x3EC8 DUP3 DUP8 PUSH2 0x3B45 JUMP JUMPDEST SWAP2 POP PUSH2 0x3ED3 DUP3 PUSH2 0x3E3F JUMP JUMPDEST SWAP2 POP PUSH2 0x3EDF DUP3 DUP7 PUSH2 0x3B45 JUMP JUMPDEST SWAP2 POP PUSH2 0x3EEA DUP3 PUSH2 0x3E3F JUMP JUMPDEST SWAP2 POP PUSH2 0x3EF6 DUP3 DUP6 PUSH2 0x3B45 JUMP JUMPDEST SWAP2 POP PUSH2 0x3F01 DUP3 PUSH2 0x3E3F JUMP JUMPDEST SWAP2 POP PUSH2 0x3F0D DUP3 DUP5 PUSH2 0x3B45 JUMP JUMPDEST SWAP2 POP DUP2 SWAP1 POP SWAP8 SWAP7 POP POP POP POP POP POP POP JUMP JUMPDEST PUSH32 0x4F776E61626C653A2063616C6C6572206973206E6F7420746865206F776E6572 PUSH0 DUP3 ADD MSTORE POP JUMP JUMPDEST PUSH0 PUSH2 0x3F51 PUSH1 0x20 DUP4 PUSH2 0x342F JUMP JUMPDEST SWAP2 POP PUSH2 0x3F5C DUP3 PUSH2 0x3F1D JUMP JUMPDEST PUSH1 0x20 DUP3 ADD SWAP1 POP SWAP2 SWAP1 POP JUMP JUMPDEST PUSH0 PUSH1 0x20 DUP3 ADD SWAP1 POP DUP2 DUP2 SUB PUSH0 DUP4 ADD MSTORE PUSH2 0x3F7E DUP2 PUSH2 0x3F45 JUMP JUMPDEST SWAP1 POP SWAP2 SWAP1 POP JUMP JUMPDEST PUSH0 DUP2 MLOAD SWAP1 POP PUSH2 0x3F93 DUP2 PUSH2 0x303D JUMP JUMPDEST SWAP3 SWAP2 POP POP JUMP JUMPDEST PUSH0 PUSH1 0x20 DUP3 DUP5 SUB SLT ISZERO PUSH2 0x3FAE JUMPI PUSH2 0x3FAD PUSH2 0x2EF0 JUMP JUMPDEST JUMPDEST PUSH0 PUSH2 0x3FBB DUP5 DUP3 DUP6 ADD PUSH2 0x3F85 JUMP JUMPDEST SWAP2 POP POP SWAP3 SWAP2 POP POP JUMP JUMPDEST PUSH0 DUP2 SWAP1 POP DUP2 PUSH0 MSTORE PUSH1 0x20 PUSH0 KECCAK256 SWAP1 POP SWAP2 SWAP1 POP JUMP JUMPDEST PUSH0 DUP2 SLOAD PUSH2 0x3FE2 DUP2 PUSH2 0x3CE9 JUMP JUMPDEST PUSH2 0x3FEC DUP2 DUP7 PUSH2 0x342F JUMP JUMPDEST SWAP5 POP PUSH1 0x1 DUP3 AND PUSH0 DUP2 EQ PUSH2 0x4006 JUMPI PUSH1 0x1 DUP2 EQ PUSH2 0x401C JUMPI PUSH2 0x404E JUMP JUMPDEST PUSH1 0xFF NOT DUP4 AND DUP7 MSTORE DUP2 ISZERO ISZERO PUSH1 0x20 MUL DUP7 ADD SWAP4 POP PUSH2 0x404E JUMP JUMPDEST PUSH2 0x4025 DUP6 PUSH2 0x3FC4 JUMP JUMPDEST PUSH0 JUMPDEST DUP4 DUP2 LT ISZERO PUSH2 0x4046 JUMPI DUP2 SLOAD DUP2 DUP10 ADD MSTORE PUSH1 0x1 DUP3 ADD SWAP2 POP PUSH1 0x20 DUP2 ADD SWAP1 POP PUSH2 0x4027 JUMP JUMPDEST DUP1 DUP9 ADD SWAP6 POP POP POP JUMPDEST POP POP POP SWAP3 SWAP2 POP POP JUMP JUMPDEST PUSH0 PUSH1 0x60 DUP3 ADD SWAP1 POP PUSH2 0x406A PUSH0 DUP4 ADD DUP7 PUSH2 0x35D2 JUMP JUMPDEST DUP2 DUP2 SUB PUSH1 0x20 DUP4 ADD MSTORE PUSH2 0x407C DUP2 DUP6 PUSH2 0x3FD6 JUMP JUMPDEST SWAP1 POP PUSH2 0x408B PUSH1 0x40 DUP4 ADD DUP5 PUSH2 0x3625 JUMP JUMPDEST SWAP5 SWAP4 POP POP POP POP JUMP JUMPDEST PUSH0 DUP1 PUSH1 0x40 DUP4 DUP6 SUB SLT ISZERO PUSH2 0x40A9 JUMPI PUSH2 0x40A8 PUSH2 0x2EF0 JUMP JUMPDEST JUMPDEST PUSH0 PUSH2 0x40B6 DUP6 DUP3 DUP7 ADD PUSH2 0x3F85 JUMP JUMPDEST SWAP3 POP POP PUSH1 0x20 PUSH2 0x40C7 DUP6 DUP3 DUP7 ADD PUSH2 0x3F85 JUMP JUMPDEST SWAP2 POP POP SWAP3 POP SWAP3 SWAP1 POP JUMP JUMPDEST PUSH0 PUSH2 0x40E3 PUSH2 0x40DE DUP5 PUSH2 0x2F88 JUMP JUMPDEST PUSH2 0x2F6E JUMP JUMPDEST SWAP1 POP DUP3 DUP2 MSTORE PUSH1 0x20 DUP2 ADD DUP5 DUP5 DUP5 ADD GT ISZERO PUSH2 0x40FF JUMPI PUSH2 0x40FE PUSH2 0x2EFC JUMP JUMPDEST JUMPDEST PUSH2 0x410A DUP5 DUP3 DUP6 PUSH2 0x3116 JUMP JUMPDEST POP SWAP4 SWAP3 POP POP POP JUMP JUMPDEST PUSH0 DUP3 PUSH1 0x1F DUP4 ADD SLT PUSH2 0x4126 JUMPI PUSH2 0x4125 PUSH2 0x2EF8 JUMP JUMPDEST JUMPDEST DUP2 MLOAD PUSH2 0x4136 DUP5 DUP3 PUSH1 0x20 DUP7 ADD PUSH2 0x40D1 JUMP JUMPDEST SWAP2 POP POP SWAP3 SWAP2 POP POP JUMP JUMPDEST PUSH0 DUP1 PUSH0 PUSH1 0x60 DUP5 DUP7 SUB SLT ISZERO PUSH2 0x4156 JUMPI PUSH2 0x4155 PUSH2 0x2EF0 JUMP JUMPDEST JUMPDEST PUSH0 DUP5 ADD MLOAD PUSH8 0xFFFFFFFFFFFFFFFF DUP2 GT ISZERO PUSH2 0x4173 JUMPI PUSH2 0x4172 PUSH2 0x2EF4 JUMP JUMPDEST JUMPDEST PUSH2 0x417F DUP7 DUP3 DUP8 ADD PUSH2 0x4112 JUMP JUMPDEST SWAP4 POP POP PUSH1 0x20 PUSH2 0x4190 DUP7 DUP3 DUP8 ADD PUSH2 0x3F85 JUMP JUMPDEST SWAP3 POP POP PUSH1 0x40 PUSH2 0x41A1 DUP7 DUP3 DUP8 ADD PUSH2 0x3F85 JUMP JUMPDEST SWAP2 POP POP SWAP3 POP SWAP3 POP SWAP3 JUMP JUMPDEST PUSH0 PUSH2 0x41B5 DUP3 PUSH2 0x330A JUMP JUMPDEST SWAP1 POP SWAP2 SWAP1 POP JUMP JUMPDEST PUSH2 0x41C5 DUP2 PUSH2 0x41AB JUMP JUMPDEST DUP2 EQ PUSH2 0x41CF JUMPI PUSH0 DUP1 REVERT JUMPDEST POP JUMP JUMPDEST PUSH0 DUP2 MLOAD SWAP1 POP PUSH2 0x41E0 DUP2 PUSH2 0x41BC JUMP JUMPDEST SWAP3 SWAP2 POP POP JUMP JUMPDEST PUSH0 DUP1 PUSH0 PUSH1 0x60 DUP5 DUP7 SUB SLT ISZERO PUSH2 0x41FD JUMPI PUSH2 0x41FC PUSH2 0x2EF0 JUMP JUMPDEST JUMPDEST PUSH0 PUSH2 0x420A DUP7 DUP3 DUP8 ADD PUSH2 0x41D2 JUMP JUMPDEST SWAP4 POP POP PUSH1 0x20 PUSH2 0x421B DUP7 DUP3 DUP8 ADD PUSH2 0x3F85 JUMP JUMPDEST SWAP3 POP POP PUSH1 0x40 PUSH2 0x422C DUP7 DUP3 DUP8 ADD PUSH2 0x3F85 JUMP JUMPDEST SWAP2 POP POP SWAP3 POP SWAP3 POP SWAP3 JUMP JUMPDEST PUSH0 PUSH1 0x20 DUP3 DUP5 SUB SLT ISZERO PUSH2 0x424B JUMPI PUSH2 0x424A PUSH2 0x2EF0 JUMP JUMPDEST JUMPDEST PUSH0 PUSH2 0x4258 DUP5 DUP3 DUP6 ADD PUSH2 0x41D2 JUMP JUMPDEST SWAP2 POP POP SWAP3 SWAP2 POP POP JUMP JUMPDEST PUSH0 PUSH1 0x40 DUP3 ADD SWAP1 POP PUSH2 0x4274 PUSH0 DUP4 ADD DUP6 PUSH2 0x3625 JUMP JUMPDEST PUSH2 0x4281 PUSH1 0x20 DUP4 ADD DUP5 PUSH2 0x3A6B JUMP JUMPDEST SWAP4 SWAP3 POP POP POP JUMP JUMPDEST POP JUMP JUMPDEST PUSH0 PUSH2 0x4296 PUSH0 DUP4 PUSH2 0x342F JUMP JUMPDEST SWAP2 POP PUSH2 0x42A1 DUP3 PUSH2 0x4288 JUMP JUMPDEST PUSH0 DUP3 ADD SWAP1 POP SWAP2 SWAP1 POP JUMP JUMPDEST PUSH0 PUSH1 0x20 DUP3 ADD SWAP1 POP DUP2 DUP2 SUB PUSH0 DUP4 ADD MSTORE PUSH2 0x42C2 DUP2 PUSH2 0x428B JUMP JUMPDEST SWAP1 POP SWAP2 SWAP1 POP JUMP JUMPDEST PUSH0 PUSH2 0x42DB PUSH2 0x42D6 DUP5 PUSH2 0x3228 JUMP JUMPDEST PUSH2 0x2F6E JUMP JUMPDEST SWAP1 POP DUP1 DUP4 DUP3 MSTORE PUSH1 0x20 DUP3 ADD SWAP1 POP PUSH1 0x20 DUP5 MUL DUP4 ADD DUP6 DUP2 GT ISZERO PUSH2 0x42FE JUMPI PUSH2 0x42FD PUSH2 0x3253 JUMP JUMPDEST JUMPDEST DUP4 JUMPDEST DUP2 DUP2 LT ISZERO PUSH2 0x4345 JUMPI DUP1 MLOAD PUSH8 0xFFFFFFFFFFFFFFFF DUP2 GT ISZERO PUSH2 0x4323 JUMPI PUSH2 0x4322 PUSH2 0x2EF8 JUMP JUMPDEST JUMPDEST DUP1 DUP7 ADD PUSH2 0x4330 DUP10 DUP3 PUSH2 0x4112 JUMP JUMPDEST DUP6 MSTORE PUSH1 0x20 DUP6 ADD SWAP5 POP POP POP PUSH1 0x20 DUP2 ADD SWAP1 POP PUSH2 0x4300 JUMP JUMPDEST POP POP POP SWAP4 SWAP3 POP POP POP JUMP JUMPDEST PUSH0 DUP3 PUSH1 0x1F DUP4 ADD SLT PUSH2 0x4363 JUMPI PUSH2 0x4362 PUSH2 0x2EF8 JUMP JUMPDEST JUMPDEST DUP2 MLOAD PUSH2 0x4373 DUP5 DUP3 PUSH1 0x20 DUP7 ADD PUSH2 0x42C9 JUMP JUMPDEST SWAP2 POP POP SWAP3 SWAP2 POP POP JUMP JUMPDEST PUSH0 DUP1 PUSH0 DUP1 PUSH1 0x80 DUP6 DUP8 SUB SLT ISZERO PUSH2 0x4394 JUMPI PUSH2 0x4393 PUSH2 0x2EF0 JUMP JUMPDEST JUMPDEST PUSH0 DUP6 ADD MLOAD PUSH8 0xFFFFFFFFFFFFFFFF DUP2 GT ISZERO PUSH2 0x43B1 JUMPI PUSH2 0x43B0 PUSH2 0x2EF4 JUMP JUMPDEST JUMPDEST PUSH2 0x43BD DUP8 DUP3 DUP9 ADD PUSH2 0x434F JUMP JUMPDEST SWAP5 POP POP PUSH1 0x20 DUP6 ADD MLOAD PUSH8 0xFFFFFFFFFFFFFFFF DUP2 GT ISZERO PUSH2 0x43DE JUMPI PUSH2 0x43DD PUSH2 0x2EF4 JUMP JUMPDEST JUMPDEST PUSH2 0x43EA DUP8 DUP3 DUP9 ADD PUSH2 0x4112 JUMP JUMPDEST SWAP4 POP POP PUSH1 0x40 DUP6 ADD MLOAD PUSH8 0xFFFFFFFFFFFFFFFF DUP2 GT ISZERO PUSH2 0x440B JUMPI PUSH2 0x440A PUSH2 0x2EF4 JUMP JUMPDEST JUMPDEST PUSH2 0x4417 DUP8 DUP3 DUP9 ADD PUSH2 0x4112 JUMP JUMPDEST SWAP3 POP POP PUSH1 0x60 PUSH2 0x4428 DUP8 DUP3 DUP9 ADD PUSH2 0x41D2 JUMP JUMPDEST SWAP2 POP POP SWAP3 SWAP6 SWAP2 SWAP5 POP SWAP3 POP JUMP JUMPDEST PUSH0 PUSH1 0x20 PUSH1 0x1F DUP4 ADD DIV SWAP1 POP SWAP2 SWAP1 POP JUMP JUMPDEST PUSH0 DUP3 DUP3 SHL SWAP1 POP SWAP3 SWAP2 POP POP JUMP JUMPDEST PUSH0 PUSH1 0x8 DUP4 MUL PUSH2 0x447E PUSH32 0xFFFFFFFFFFFFFFFFFFFFFFFFFFFFFFFFFFFFFFFFFFFFFFFFFFFFFFFFFFFFFFFF DUP3 PUSH2 0x4443 JUMP JUMPDEST PUSH2 0x4488 DUP7 DUP4 PUSH2 0x4443 JUMP JUMPDEST SWAP6 POP DUP1 NOT DUP5 AND SWAP4 POP DUP1 DUP7 AND DUP5 OR SWAP3 POP POP POP SWAP4 SWAP3 POP POP POP JUMP JUMPDEST PUSH0 DUP2 SWAP1 POP SWAP2 SWAP1 POP JUMP JUMPDEST PUSH0 PUSH2 0x44C3 PUSH2 0x44BE PUSH2 0x44B9 DUP5 PUSH2 0x3034 JUMP JUMPDEST PUSH2 0x44A0 JUMP JUMPDEST PUSH2 0x3034 JUMP JUMPDEST SWAP1 POP SWAP2 SWAP1 POP JUMP JUMPDEST PUSH0 DUP2 SWAP1 POP SWAP2 SWAP1 POP JUMP JUMPDEST PUSH2 0x44DC DUP4 PUSH2 0x44A9 JUMP JUMPDEST PUSH2 0x44F0 PUSH2 0x44E8 DUP3 PUSH2 0x44CA JUMP JUMPDEST DUP5 DUP5 SLOAD PUSH2 0x444F JUMP JUMPDEST DUP3 SSTORE POP POP POP POP JUMP JUMPDEST PUSH0 SWAP1 JUMP JUMPDEST PUSH2 0x4504 PUSH2 0x44F8 JUMP JUMPDEST PUSH2 0x450F DUP2 DUP5 DUP5 PUSH2 0x44D3 JUMP JUMPDEST POP POP POP JUMP JUMPDEST JUMPDEST DUP2 DUP2 LT ISZERO PUSH2 0x4532 JUMPI PUSH2 0x4527 PUSH0 DUP3 PUSH2 0x44FC JUMP JUMPDEST PUSH1 0x1 DUP2 ADD SWAP1 POP PUSH2 0x4515 JUMP JUMPDEST POP POP JUMP JUMPDEST PUSH1 0x1F DUP3 GT ISZERO PUSH2 0x4577 JUMPI PUSH2 0x4548 DUP2 PUSH2 0x3FC4 JUMP JUMPDEST PUSH2 0x4551 DUP5 PUSH2 0x4434 JUMP JUMPDEST DUP2 ADD PUSH1 0x20 DUP6 LT ISZERO PUSH2 0x4560 JUMPI DUP2 SWAP1 POP JUMPDEST PUSH2 0x4574 PUSH2 0x456C DUP6 PUSH2 0x4434 JUMP JUMPDEST DUP4 ADD DUP3 PUSH2 0x4514 JUMP JUMPDEST POP POP JUMPDEST POP POP POP JUMP JUMPDEST PUSH0 DUP3 DUP3 SHR SWAP1 POP SWAP3 SWAP2 POP POP JUMP JUMPDEST PUSH0 PUSH2 0x4597 PUSH0 NOT DUP5 PUSH1 0x8 MUL PUSH2 0x457C JUMP JUMPDEST NOT DUP1 DUP4 AND SWAP2 POP POP SWAP3 SWAP2 POP POP JUMP JUMPDEST PUSH0 PUSH2 0x45AF DUP4 DUP4 PUSH2 0x4588 JUMP JUMPDEST SWAP2 POP DUP3 PUSH1 0x2 MUL DUP3 OR SWAP1 POP SWAP3 SWAP2 POP POP JUMP JUMPDEST PUSH2 0x45C8 DUP3 PUSH2 0x30FC JUMP JUMPDEST PUSH8 0xFFFFFFFFFFFFFFFF DUP2 GT ISZERO PUSH2 0x45E1 JUMPI PUSH2 0x45E0 PUSH2 0x2F10 JUMP JUMPDEST JUMPDEST PUSH2 0x45EB DUP3 SLOAD PUSH2 0x3CE9 JUMP JUMPDEST PUSH2 0x45F6 DUP3 DUP3 DUP6 PUSH2 0x4536 JUMP JUMPDEST PUSH0 PUSH1 0x20 SWAP1 POP PUSH1 0x1F DUP4 GT PUSH1 0x1 DUP2 EQ PUSH2 0x4627 JUMPI PUSH0 DUP5 ISZERO PUSH2 0x4615 JUMPI DUP3 DUP8 ADD MLOAD SWAP1 POP JUMPDEST PUSH2 0x461F DUP6 DUP3 PUSH2 0x45A4 JUMP JUMPDEST DUP7 SSTORE POP PUSH2 0x4686 JUMP JUMPDEST PUSH1 0x1F NOT DUP5 AND PUSH2 0x4635 DUP7 PUSH2 0x3FC4 JUMP JUMPDEST PUSH0 JUMPDEST DUP3 DUP2 LT ISZERO PUSH2 0x465C JUMPI DUP5 DUP10 ADD MLOAD DUP3 SSTORE PUSH1 0x1 DUP3 ADD SWAP2 POP PUSH1 0x20 DUP6 ADD SWAP5 POP PUSH1 0x20 DUP2 ADD SWAP1 POP PUSH2 0x4637 JUMP JUMPDEST DUP7 DUP4 LT ISZERO PUSH2 0x4679 JUMPI DUP5 DUP10 ADD MLOAD PUSH2 0x4675 PUSH1 0x1F DUP10 AND DUP3 PUSH2 0x4588 JUMP JUMPDEST DUP4 SSTORE POP JUMPDEST PUSH1 0x1 PUSH1 0x2 DUP9 MUL ADD DUP9 SSTORE POP POP POP JUMPDEST POP POP POP POP POP POP JUMP JUMPDEST PUSH2 0x4697 DUP2 PUSH2 0x3A60 JUMP JUMPDEST DUP2 EQ PUSH2 0x46A1 JUMPI PUSH0 DUP1 REVERT JUMPDEST POP JUMP JUMPDEST PUSH0 DUP2 MLOAD SWAP1 POP PUSH2 0x46B2 DUP2 PUSH2 0x468E JUMP JUMPDEST SWAP3 SWAP2 POP POP JUMP JUMPDEST PUSH0 DUP1 PUSH1 0x40 DUP4 DUP6 SUB SLT ISZERO PUSH2 0x46CE JUMPI PUSH2 0x46CD PUSH2 0x2EF0 JUMP JUMPDEST JUMPDEST PUSH0 PUSH2 0x46DB DUP6 DUP3 DUP7 ADD PUSH2 0x41D2 JUMP JUMPDEST SWAP3 POP POP PUSH1 0x20 PUSH2 0x46EC DUP6 DUP3 DUP7 ADD PUSH2 0x46A4 JUMP JUMPDEST SWAP2 POP POP SWAP3 POP SWAP3 SWAP1 POP JUMP JUMPDEST PUSH32 0x4F776E61626C653A206E6577206F776E657220697320746865207A65726F2061 PUSH0 DUP3 ADD MSTORE PUSH32 0x6464726573730000000000000000000000000000000000000000000000000000 PUSH1 0x20 DUP3 ADD MSTORE POP JUMP JUMPDEST PUSH0 PUSH2 0x4750 PUSH1 0x26 DUP4 PUSH2 0x342F JUMP JUMPDEST SWAP2 POP PUSH2 0x475B DUP3 PUSH2 0x46F6 JUMP JUMPDEST PUSH1 0x40 DUP3 ADD SWAP1 POP SWAP2 SWAP1 POP JUMP JUMPDEST PUSH0 PUSH1 0x20 DUP3 ADD SWAP1 POP DUP2 DUP2 SUB PUSH0 DUP4 ADD MSTORE PUSH2 0x477D DUP2 PUSH2 0x4744 JUMP JUMPDEST SWAP1 POP SWAP2 SWAP1 POP JUMP JUMPDEST PUSH0 PUSH2 0x478E DUP3 PUSH2 0x3034 JUMP JUMPDEST SWAP2 POP PUSH2 0x4799 DUP4 PUSH2 0x3034 JUMP JUMPDEST SWAP3 POP DUP3 PUSH2 0x47A9 JUMPI PUSH2 0x47A8 PUSH2 0x3BEB JUMP JUMPDEST JUMPDEST DUP3 DUP3 MOD SWAP1 POP SWAP3 SWAP2 POP POP JUMP JUMPDEST PUSH0 PUSH2 0x47BE DUP3 PUSH2 0x3034 JUMP JUMPDEST SWAP2 POP PUSH0 DUP3 SUB PUSH2 0x47D0 JUMPI PUSH2 0x47CF PUSH2 0x3B8B JUMP JUMPDEST JUMPDEST PUSH1 0x1 DUP3 SUB SWAP1 POP SWAP2 SWAP1 POP JUMP JUMPDEST PUSH32 0x537472696E67733A20686578206C656E67746820696E73756666696369656E74 PUSH0 DUP3 ADD MSTORE POP JUMP JUMPDEST PUSH0 PUSH2 0x480F PUSH1 0x20 DUP4 PUSH2 0x342F JUMP JUMPDEST SWAP2 POP PUSH2 0x481A DUP3 PUSH2 0x47DB JUMP JUMPDEST PUSH1 0x20 DUP3 ADD SWAP1 POP SWAP2 SWAP1 POP JUMP JUMPDEST PUSH0 PUSH1 0x20 DUP3 ADD SWAP1 POP DUP2 DUP2 SUB PUSH0 DUP4 ADD MSTORE PUSH2 0x483C DUP2 PUSH2 0x4803 JUMP JUMPDEST SWAP1 POP SWAP2 SWAP1 POP JUMP INVALID COINBASE TIMESTAMP NUMBER PREVRANDAO GASLIMIT CHAINID SELFBALANCE BASEFEE 0x49 0x4A 0x4B 0x4C 0x4D 0x4E 0x4F POP MLOAD MSTORE MSTORE8 SLOAD SSTORE JUMP JUMPI PC MSIZE GAS PUSH2 0x6263 PUSH5 0x6566676869 PUSH11 0x6B6C6D6E6F707172737475 PUSH23 0x7778797A303132333435363738392B2FA2646970667358 0x22 SLT KECCAK256 JUMPI 0x23 0xBD 0xF7 CODESIZE SDIV PUSH8 0xB8946DC4E2EE1A2 0x4F CALLVALUE SWAP14 OR MSIZE 0x4F PUSH3 0x6DB3C9 INVALID 0xAB 0xD 0xFB GASPRICE PUSH1 0xC8 PUSH5 0x736F6C6343 STOP ADDMOD AND STOP CALLER "
		},
		"gasEstimates": {
			"creation": {
				"codeDepositCost": "3723400",
				"executionCost": "infinite",
				"totalCost": "infinite"
			},
			"external": {
				"BlackList(address)": "2966",
				"FeaturedIds(uint256)": "infinite",
				"FeaturedIndexs()": "2515",
				"UserVibeIds(address,uint256)": "infinite",
				"UserVibeIndexs(address)": "2934",
				"VibeCategoryIds(string,uint256)": "infinite",
				"VibeCategoryIndexs(string)": "infinite",
				"Vibes(uint256)": "infinite",
				"generateBase64(uint256,string[],string,string,address)": "infinite",
				"get(string,bytes)": "infinite",
				"getMethodReqAndRes(string)": "infinite",
				"getMethods(uint8)": "infinite",
				"getVibes(uint256,uint256)": "infinite",
				"getVibesByAddress(address,uint256,uint256)": "infinite",
				"getVibesByCategory(string,uint256,uint256)": "infinite",
				"getVibesByFeatured(uint256,uint256)": "infinite",
				"options()": "infinite",
				"owner()": "2604",
				"post(string,bytes)": "infinite",
				"put(string,bytes)": "infinite",
				"renounceOwnership()": "30433",
				"transferOwnership(address)": "30795",
				"vibeIds()": "2558"
			},
			"internal": {
				"compareStrings(string memory,string memory)": "infinite",
				"setMethod(string memory,enum IComponent.MethodTypes,enum Types.Type[] memory,enum Types.Type[] memory)": "infinite"
			}
		},
		"methodIdentifiers": {
			"BlackList(address)": "d0b3de21",
			"FeaturedIds(uint256)": "3fa2e9ce",
			"FeaturedIndexs()": "174cfb46",
			"UserVibeIds(address,uint256)": "bea402e1",
			"UserVibeIndexs(address)": "f7d8c1a6",
			"VibeCategoryIds(string,uint256)": "e74fb54b",
			"VibeCategoryIndexs(string)": "f0f5995f",
			"Vibes(uint256)": "41b833d2",
			"generateBase64(uint256,string[],string,string,address)": "09b79108",
			"get(string,bytes)": "aff62745",
			"getMethodReqAndRes(string)": "458ad6d4",
			"getMethods(uint8)": "f4856ccb",
			"getVibes(uint256,uint256)": "b8697891",
			"getVibesByAddress(address,uint256,uint256)": "a5ccf27e",
			"getVibesByCategory(string,uint256,uint256)": "03d99bbb",
			"getVibesByFeatured(uint256,uint256)": "8fea7c24",
			"options()": "1069143a",
			"owner()": "8da5cb5b",
			"post(string,bytes)": "b6ae0425",
			"put(string,bytes)": "e9536472",
			"renounceOwnership()": "715018a6",
			"transferOwnership(address)": "f2fde38b",
			"vibeIds()": "9fc89144"
		}
	},
	"abi": [
		{
			"inputs": [],
			"stateMutability": "nonpayable",
			"type": "constructor"
		},
		{
			"anonymous": false,
			"inputs": [
				{
					"indexed": true,
					"internalType": "uint256",
					"name": "_vibeId",
					"type": "uint256"
				}
			],
			"name": "DeleteVibe",
			"type": "event"
		},
		{
			"anonymous": false,
			"inputs": [
				{
					"indexed": true,
					"internalType": "uint256",
					"name": "_vibeId",
					"type": "uint256"
				},
				{
					"indexed": true,
					"internalType": "string",
					"name": "_vibeContent",
					"type": "string"
				},
				{
					"indexed": true,
					"internalType": "address",
					"name": "_user",
					"type": "address"
				}
			],
			"name": "NewVibe",
			"type": "event"
		},
		{
			"anonymous": false,
			"inputs": [
				{
					"indexed": true,
					"internalType": "address",
					"name": "previousOwner",
					"type": "address"
				},
				{
					"indexed": true,
					"internalType": "address",
					"name": "newOwner",
					"type": "address"
				}
			],
			"name": "OwnershipTransferred",
			"type": "event"
		},
		{
			"anonymous": false,
			"inputs": [
				{
					"indexed": false,
					"internalType": "bytes",
					"name": "_response",
					"type": "bytes"
				}
			],
			"name": "Response",
			"type": "event"
		},
		{
			"inputs": [
				{
					"internalType": "address",
					"name": "",
					"type": "address"
				}
			],
			"name": "BlackList",
			"outputs": [
				{
					"internalType": "bool",
					"name": "",
					"type": "bool"
				}
			],
			"stateMutability": "view",
			"type": "function"
		},
		{
			"inputs": [
				{
					"internalType": "uint256",
					"name": "",
					"type": "uint256"
				}
			],
			"name": "FeaturedIds",
			"outputs": [
				{
					"internalType": "uint256",
					"name": "",
					"type": "uint256"
				}
			],
			"stateMutability": "view",
			"type": "function"
		},
		{
			"inputs": [],
			"name": "FeaturedIndexs",
			"outputs": [
				{
					"internalType": "uint256",
					"name": "",
					"type": "uint256"
				}
			],
			"stateMutability": "view",
			"type": "function"
		},
		{
			"inputs": [
				{
					"internalType": "address",
					"name": "",
					"type": "address"
				},
				{
					"internalType": "uint256",
					"name": "",
					"type": "uint256"
				}
			],
			"name": "UserVibeIds",
			"outputs": [
				{
					"internalType": "uint256",
					"name": "",
					"type": "uint256"
				}
			],
			"stateMutability": "view",
			"type": "function"
		},
		{
			"inputs": [
				{
					"internalType": "address",
					"name": "",
					"type": "address"
				}
			],
			"name": "UserVibeIndexs",
			"outputs": [
				{
					"internalType": "uint256",
					"name": "",
					"type": "uint256"
				}
			],
			"stateMutability": "view",
			"type": "function"
		},
		{
			"inputs": [
				{
					"internalType": "string",
					"name": "",
					"type": "string"
				},
				{
					"internalType": "uint256",
					"name": "",
					"type": "uint256"
				}
			],
			"name": "VibeCategoryIds",
			"outputs": [
				{
					"internalType": "uint256",
					"name": "",
					"type": "uint256"
				}
			],
			"stateMutability": "view",
			"type": "function"
		},
		{
			"inputs": [
				{
					"internalType": "string",
					"name": "",
					"type": "string"
				}
			],
			"name": "VibeCategoryIndexs",
			"outputs": [
				{
					"internalType": "uint256",
					"name": "",
					"type": "uint256"
				}
			],
			"stateMutability": "view",
			"type": "function"
		},
		{
			"inputs": [
				{
					"internalType": "uint256",
					"name": "",
					"type": "uint256"
				}
			],
			"name": "Vibes",
			"outputs": [
				{
					"internalType": "uint256",
					"name": "vibeId",
					"type": "uint256"
				},
				{
					"internalType": "string",
					"name": "vibeContent",
					"type": "string"
				},
				{
					"internalType": "address",
					"name": "user",
					"type": "address"
				}
			],
			"stateMutability": "view",
			"type": "function"
		},
		{
			"inputs": [
				{
					"internalType": "uint256",
					"name": "_vibeId",
					"type": "uint256"
				},
				{
					"internalType": "string[]",
					"name": "_vibeCategories",
					"type": "string[]"
				},
				{
					"internalType": "string",
					"name": "_vibeContent",
					"type": "string"
				},
				{
					"internalType": "string",
					"name": "_resources",
					"type": "string"
				},
				{
					"internalType": "address",
					"name": "_user",
					"type": "address"
				}
			],
			"name": "generateBase64",
			"outputs": [
				{
					"internalType": "string",
					"name": "",
					"type": "string"
				}
			],
			"stateMutability": "view",
			"type": "function"
		},
		{
			"inputs": [
				{
					"internalType": "string",
					"name": "_methodName",
					"type": "string"
				},
				{
					"internalType": "bytes",
					"name": "_methodReq",
					"type": "bytes"
				}
			],
			"name": "get",
			"outputs": [
				{
					"internalType": "bytes",
					"name": "",
					"type": "bytes"
				}
			],
			"stateMutability": "view",
			"type": "function"
		},
		{
			"inputs": [
				{
					"internalType": "string",
					"name": "_methodName",
					"type": "string"
				}
			],
			"name": "getMethodReqAndRes",
			"outputs": [
				{
					"internalType": "enum Types.Type[]",
					"name": "",
					"type": "uint8[]"
				},
				{
					"internalType": "enum Types.Type[]",
					"name": "",
					"type": "uint8[]"
				}
			],
			"stateMutability": "view",
			"type": "function"
		},
		{
			"inputs": [
				{
					"internalType": "enum IComponent.MethodTypes",
					"name": "_methodTypes",
					"type": "uint8"
				}
			],
			"name": "getMethods",
			"outputs": [
				{
					"internalType": "string[]",
					"name": "",
					"type": "string[]"
				}
			],
			"stateMutability": "view",
			"type": "function"
		},
		{
			"inputs": [
				{
					"internalType": "uint256",
					"name": "_pageNum",
					"type": "uint256"
				},
				{
					"internalType": "uint256",
					"name": "_pageSize",
					"type": "uint256"
				}
			],
			"name": "getVibes",
			"outputs": [
				{
					"internalType": "string[]",
					"name": "",
					"type": "string[]"
				}
			],
			"stateMutability": "view",
			"type": "function"
		},
		{
			"inputs": [
				{
					"internalType": "address",
					"name": "_user",
					"type": "address"
				},
				{
					"internalType": "uint256",
					"name": "_pageNum",
					"type": "uint256"
				},
				{
					"internalType": "uint256",
					"name": "_pageSize",
					"type": "uint256"
				}
			],
			"name": "getVibesByAddress",
			"outputs": [
				{
					"internalType": "string[]",
					"name": "",
					"type": "string[]"
				}
			],
			"stateMutability": "view",
			"type": "function"
		},
		{
			"inputs": [
				{
					"internalType": "string",
					"name": "_categoryId",
					"type": "string"
				},
				{
					"internalType": "uint256",
					"name": "_pageNum",
					"type": "uint256"
				},
				{
					"internalType": "uint256",
					"name": "_pageSize",
					"type": "uint256"
				}
			],
			"name": "getVibesByCategory",
			"outputs": [
				{
					"internalType": "string[]",
					"name": "",
					"type": "string[]"
				}
			],
			"stateMutability": "view",
			"type": "function"
		},
		{
			"inputs": [
				{
					"internalType": "uint256",
					"name": "_pageNum",
					"type": "uint256"
				},
				{
					"internalType": "uint256",
					"name": "_pageSize",
					"type": "uint256"
				}
			],
			"name": "getVibesByFeatured",
			"outputs": [
				{
					"internalType": "string[]",
					"name": "",
					"type": "string[]"
				}
			],
			"stateMutability": "view",
			"type": "function"
		},
		{
			"inputs": [],
			"name": "options",
			"outputs": [
				{
					"internalType": "enum IComponent.MethodTypes[]",
					"name": "",
					"type": "uint8[]"
				}
			],
			"stateMutability": "pure",
			"type": "function"
		},
		{
			"inputs": [],
			"name": "owner",
			"outputs": [
				{
					"internalType": "address",
					"name": "",
					"type": "address"
				}
			],
			"stateMutability": "view",
			"type": "function"
		},
		{
			"inputs": [
				{
					"internalType": "string",
					"name": "_methodName",
					"type": "string"
				},
				{
					"internalType": "bytes",
					"name": "_methodReq",
					"type": "bytes"
				}
			],
			"name": "post",
			"outputs": [
				{
					"internalType": "bytes",
					"name": "",
					"type": "bytes"
				}
			],
			"stateMutability": "payable",
			"type": "function"
		},
		{
			"inputs": [
				{
					"internalType": "string",
					"name": "_methodName",
					"type": "string"
				},
				{
					"internalType": "bytes",
					"name": "_methodReq",
					"type": "bytes"
				}
			],
			"name": "put",
			"outputs": [
				{
					"internalType": "bytes",
					"name": "",
					"type": "bytes"
				}
			],
			"stateMutability": "payable",
			"type": "function"
		},
		{
			"inputs": [],
			"name": "renounceOwnership",
			"outputs": [],
			"stateMutability": "nonpayable",
			"type": "function"
		},
		{
			"inputs": [
				{
					"internalType": "address",
					"name": "newOwner",
					"type": "address"
				}
			],
			"name": "transferOwnership",
			"outputs": [],
			"stateMutability": "nonpayable",
			"type": "function"
		},
		{
			"inputs": [],
			"name": "vibeIds",
			"outputs": [
				{
					"internalType": "uint256",
					"name": "",
					"type": "uint256"
				}
			],
			"stateMutability": "view",
			"type": "function"
		}
	]
}