{
	"contracts/AmeComponents/VibeProfiles/VibeProfiles.sol": {
		"VibeComment": {
			"abi": [
				{
					"inputs": [],
					"stateMutability": "nonpayable",
					"type": "constructor"
				},
				{
					"anonymous": false,
					"inputs": [
						{
							"indexed": false,
							"internalType": "bytes",
							"name": "_response",
							"type": "bytes"
						}
					],
					"name": "Response",
					"type": "event"
				},
				{
					"inputs": [],
					"name": "commentIds",
					"outputs": [
						{
							"internalType": "uint256",
							"name": "",
							"type": "uint256"
						}
					],
					"stateMutability": "view",
					"type": "function"
				},
				{
					"inputs": [
						{
							"internalType": "uint256",
							"name": "_vibeId",
							"type": "uint256"
						},
						{
							"internalType": "uint256",
							"name": "_commentId",
							"type": "uint256"
						},
						{
							"internalType": "string",
							"name": "_content",
							"type": "string"
						},
						{
							"internalType": "string",
							"name": "_resources",
							"type": "string"
						},
						{
							"internalType": "address",
							"name": "_user",
							"type": "address"
						}
					],
					"name": "generateBase64",
					"outputs": [
						{
							"internalType": "string",
							"name": "",
							"type": "string"
						}
					],
					"stateMutability": "view",
					"type": "function"
				},
				{
					"inputs": [
						{
							"internalType": "string",
							"name": "_methodName",
							"type": "string"
						},
						{
							"internalType": "bytes",
							"name": "_methodReq",
							"type": "bytes"
						}
					],
					"name": "get",
					"outputs": [
						{
							"internalType": "bytes",
							"name": "",
							"type": "bytes"
						}
					],
					"stateMutability": "view",
					"type": "function"
				},
				{
					"inputs": [
						{
							"internalType": "uint256",
							"name": "_vibeId",
							"type": "uint256"
						},
						{
							"internalType": "uint256",
							"name": "_pageNum",
							"type": "uint256"
						},
						{
							"internalType": "uint256",
							"name": "_pageSize",
							"type": "uint256"
						}
					],
					"name": "getComments",
					"outputs": [
						{
							"internalType": "string[]",
							"name": "",
							"type": "string[]"
						}
					],
					"stateMutability": "view",
					"type": "function"
				},
				{
					"inputs": [
						{
							"internalType": "address",
							"name": "_user",
							"type": "address"
						},
						{
							"internalType": "uint256",
							"name": "_pageNum",
							"type": "uint256"
						},
						{
							"internalType": "uint256",
							"name": "_pageSize",
							"type": "uint256"
						}
					],
					"name": "getCommentsByAddress",
					"outputs": [
						{
							"internalType": "string[]",
							"name": "",
							"type": "string[]"
						}
					],
					"stateMutability": "view",
					"type": "function"
				},
				{
					"inputs": [
						{
							"internalType": "string",
							"name": "_methodName",
							"type": "string"
						}
					],
					"name": "getMethodReqAndRes",
					"outputs": [
						{
							"internalType": "enum Types.Type[]",
							"name": "",
							"type": "uint8[]"
						},
						{
							"internalType": "enum Types.Type[]",
							"name": "",
							"type": "uint8[]"
						}
					],
					"stateMutability": "view",
					"type": "function"
				},
				{
					"inputs": [
						{
							"internalType": "enum IComponent.MethodTypes",
							"name": "_methodTypes",
							"type": "uint8"
						}
					],
					"name": "getMethods",
					"outputs": [
						{
							"internalType": "string[]",
							"name": "",
							"type": "string[]"
						}
					],
					"stateMutability": "view",
					"type": "function"
				},
				{
					"inputs": [],
					"name": "options",
					"outputs": [
						{
							"internalType": "enum IComponent.MethodTypes[]",
							"name": "",
							"type": "uint8[]"
						}
					],
					"stateMutability": "pure",
					"type": "function"
				},
				{
					"inputs": [
						{
							"internalType": "string",
							"name": "_methodName",
							"type": "string"
						},
						{
							"internalType": "bytes",
							"name": "_methodReq",
							"type": "bytes"
						}
					],
					"name": "post",
					"outputs": [
						{
							"internalType": "bytes",
							"name": "",
							"type": "bytes"
						}
					],
					"stateMutability": "payable",
					"type": "function"
				},
				{
					"inputs": [
						{
							"internalType": "string",
							"name": "_methodName",
							"type": "string"
						},
						{
							"internalType": "bytes",
							"name": "_methodReq",
							"type": "bytes"
						}
					],
					"name": "put",
					"outputs": [
						{
							"internalType": "bytes",
							"name": "",
							"type": "bytes"
						}
					],
					"stateMutability": "payable",
					"type": "function"
				}
			],
			"devdoc": {
				"events": {
					"Response(bytes)": {
						"params": {
							"_response": "is the response value of the post request or put request."
						}
					}
				},
				"kind": "dev",
				"methods": {
					"get(string,bytes)": {
						"params": {
							"_methodName": "is the method name.",
							"_methodReq": "is the method type."
						},
						"returns": {
							"_0": "The response to the get request."
						}
					},
					"getMethodReqAndRes(string)": {
						"params": {
							"_methodName": "is the method name."
						},
						"returns": {
							"_0": "Data types of request parameters and return parameters."
						}
					},
					"getMethods(uint8)": {
						"params": {
							"_methodTypes": "is the request method type."
						},
						"returns": {
							"_0": "Method names."
						}
					},
					"options()": {
						"returns": {
							"_0": "Method types."
						}
					},
					"post(string,bytes)": {
						"params": {
							"_methodName": "is the method name.",
							"_methodReq": "is the method type."
						},
						"returns": {
							"_0": "The response to the post request."
						}
					},
					"put(string,bytes)": {
						"params": {
							"_methodName": "is the method name.",
							"_methodReq": "is the method type."
						},
						"returns": {
							"_0": "The response to the put request."
						}
					}
				},
				"version": 1
			},
			"evm": {
				"assembly": "    /* \"contracts/AmeComponents/VibeProfiles/VibeProfiles.sol\":193:10055  contract VibeComment is IComponent {... */\n  mstore(0x40, 0x80)\n    /* \"contracts/AmeComponents/VibeProfiles/VibeProfiles.sol\":915:2154  constructor() {... */\n  callvalue\n  dup1\n  iszero\n  tag_1\n  jumpi\n  0x00\n  dup1\n  revert\ntag_1:\n  pop\n    /* \"contracts/AmeComponents/VibeProfiles/VibeProfiles.sol\":939:964  Types.Type[] memory type1 */\n  0x00\n    /* \"contracts/AmeComponents/VibeProfiles/VibeProfiles.sol\":984:985  3 */\n  0x03\n    /* \"contracts/AmeComponents/VibeProfiles/VibeProfiles.sol\":967:986  new Types.Type[](3) */\n  0xffffffffffffffff\n  dup2\n  gt\n  iszero\n  tag_4\n  jumpi\n  tag_5\n  tag_6\n  jump\t// in\ntag_5:\ntag_4:\n  mload(0x40)\n  swap1\n  dup1\n  dup3\n  mstore\n  dup1\n  0x20\n  mul\n  0x20\n  add\n  dup3\n  add\n  0x40\n  mstore\n  dup1\n  iszero\n  tag_7\n  jumpi\n  dup2\n  0x20\n  add\n  0x20\n  dup3\n  mul\n  dup1\n  calldatasize\n  dup4\n  calldatacopy\n  dup1\n  dup3\n  add\n  swap2\n  pop\n  pop\n  swap1\n  pop\ntag_7:\n  pop\n    /* \"contracts/AmeComponents/VibeProfiles/VibeProfiles.sol\":939:986  Types.Type[] memory type1 = new Types.Type[](3) */\n  swap1\n  pop\n    /* \"contracts/AmeComponents/VibeProfiles/VibeProfiles.sol\":1007:1025  Types.Type.UINT256 */\n  0x40\n    /* \"contracts/AmeComponents/VibeProfiles/VibeProfiles.sol\":996:1001  type1 */\n  dup2\n    /* \"contracts/AmeComponents/VibeProfiles/VibeProfiles.sol\":1002:1003  0 */\n  0x00\n    /* \"contracts/AmeComponents/VibeProfiles/VibeProfiles.sol\":996:1004  type1[0] */\n  dup2\n  mload\n  dup2\n  lt\n  tag_8\n  jumpi\n  tag_9\n  tag_10\n  jump\t// in\ntag_9:\ntag_8:\n  0x20\n  mul\n  0x20\n  add\n  add\n    /* \"contracts/AmeComponents/VibeProfiles/VibeProfiles.sol\":996:1025  type1[0] = Types.Type.UINT256 */\n  swap1\n  0xc6\n  dup2\n  gt\n  iszero\n  tag_11\n  jumpi\n  tag_12\n  tag_13\n  jump\t// in\ntag_12:\ntag_11:\n  swap1\n  dup2\n  0xc6\n  dup2\n  gt\n  iszero\n  tag_14\n  jumpi\n  tag_15\n  tag_13\n  jump\t// in\ntag_15:\ntag_14:\n  dup2\n  mstore\n  pop\n  pop\n    /* \"contracts/AmeComponents/VibeProfiles/VibeProfiles.sol\":1046:1063  Types.Type.STRING */\n  0x63\n    /* \"contracts/AmeComponents/VibeProfiles/VibeProfiles.sol\":1035:1040  type1 */\n  dup2\n    /* \"contracts/AmeComponents/VibeProfiles/VibeProfiles.sol\":1041:1042  1 */\n  0x01\n    /* \"contracts/AmeComponents/VibeProfiles/VibeProfiles.sol\":1035:1043  type1[1] */\n  dup2\n  mload\n  dup2\n  lt\n  tag_16\n  jumpi\n  tag_17\n  tag_10\n  jump\t// in\ntag_17:\ntag_16:\n  0x20\n  mul\n  0x20\n  add\n  add\n    /* \"contracts/AmeComponents/VibeProfiles/VibeProfiles.sol\":1035:1063  type1[1] = Types.Type.STRING */\n  swap1\n  0xc6\n  dup2\n  gt\n  iszero\n  tag_18\n  jumpi\n  tag_19\n  tag_13\n  jump\t// in\ntag_19:\ntag_18:\n  swap1\n  dup2\n  0xc6\n  dup2\n  gt\n  iszero\n  tag_20\n  jumpi\n  tag_21\n  tag_13\n  jump\t// in\ntag_21:\ntag_20:\n  dup2\n  mstore\n  pop\n  pop\n    /* \"contracts/AmeComponents/VibeProfiles/VibeProfiles.sol\":1084:1101  Types.Type.STRING */\n  0x63\n    /* \"contracts/AmeComponents/VibeProfiles/VibeProfiles.sol\":1073:1078  type1 */\n  dup2\n    /* \"contracts/AmeComponents/VibeProfiles/VibeProfiles.sol\":1079:1080  2 */\n  0x02\n    /* \"contracts/AmeComponents/VibeProfiles/VibeProfiles.sol\":1073:1081  type1[2] */\n  dup2\n  mload\n  dup2\n  lt\n  tag_22\n  jumpi\n  tag_23\n  tag_10\n  jump\t// in\ntag_23:\ntag_22:\n  0x20\n  mul\n  0x20\n  add\n  add\n    /* \"contracts/AmeComponents/VibeProfiles/VibeProfiles.sol\":1073:1101  type1[2] = Types.Type.STRING */\n  swap1\n  0xc6\n  dup2\n  gt\n  iszero\n  tag_24\n  jumpi\n  tag_25\n  tag_13\n  jump\t// in\ntag_25:\ntag_24:\n  swap1\n  dup2\n  0xc6\n  dup2\n  gt\n  iszero\n  tag_26\n  jumpi\n  tag_27\n  tag_13\n  jump\t// in\ntag_27:\ntag_26:\n  dup2\n  mstore\n  pop\n  pop\n    /* \"contracts/AmeComponents/VibeProfiles/VibeProfiles.sol\":1112:1137  Types.Type[] memory type2 */\n  0x00\n    /* \"contracts/AmeComponents/VibeProfiles/VibeProfiles.sol\":1157:1158  1 */\n  0x01\n    /* \"contracts/AmeComponents/VibeProfiles/VibeProfiles.sol\":1140:1159  new Types.Type[](1) */\n  0xffffffffffffffff\n  dup2\n  gt\n  iszero\n  tag_28\n  jumpi\n  tag_29\n  tag_6\n  jump\t// in\ntag_29:\ntag_28:\n  mload(0x40)\n  swap1\n  dup1\n  dup3\n  mstore\n  dup1\n  0x20\n  mul\n  0x20\n  add\n  dup3\n  add\n  0x40\n  mstore\n  dup1\n  iszero\n  tag_30\n  jumpi\n  dup2\n  0x20\n  add\n  0x20\n  dup3\n  mul\n  dup1\n  calldatasize\n  dup4\n  calldatacopy\n  dup1\n  dup3\n  add\n  swap2\n  pop\n  pop\n  swap1\n  pop\ntag_30:\n  pop\n    /* \"contracts/AmeComponents/VibeProfiles/VibeProfiles.sol\":1112:1159  Types.Type[] memory type2 = new Types.Type[](1) */\n  swap1\n  pop\n    /* \"contracts/AmeComponents/VibeProfiles/VibeProfiles.sol\":1180:1198  Types.Type.UINT256 */\n  0x40\n    /* \"contracts/AmeComponents/VibeProfiles/VibeProfiles.sol\":1169:1174  type2 */\n  dup2\n    /* \"contracts/AmeComponents/VibeProfiles/VibeProfiles.sol\":1175:1176  0 */\n  0x00\n    /* \"contracts/AmeComponents/VibeProfiles/VibeProfiles.sol\":1169:1177  type2[0] */\n  dup2\n  mload\n  dup2\n  lt\n  tag_31\n  jumpi\n  tag_32\n  tag_10\n  jump\t// in\ntag_32:\ntag_31:\n  0x20\n  mul\n  0x20\n  add\n  add\n    /* \"contracts/AmeComponents/VibeProfiles/VibeProfiles.sol\":1169:1198  type2[0] = Types.Type.UINT256 */\n  swap1\n  0xc6\n  dup2\n  gt\n  iszero\n  tag_33\n  jumpi\n  tag_34\n  tag_13\n  jump\t// in\ntag_34:\ntag_33:\n  swap1\n  dup2\n  0xc6\n  dup2\n  gt\n  iszero\n  tag_35\n  jumpi\n  tag_36\n  tag_13\n  jump\t// in\ntag_36:\ntag_35:\n  dup2\n  mstore\n  pop\n  pop\n    /* \"contracts/AmeComponents/VibeProfiles/VibeProfiles.sol\":1209:1234  Types.Type[] memory type3 */\n  0x00\n    /* \"contracts/AmeComponents/VibeProfiles/VibeProfiles.sol\":1254:1255  4 */\n  0x04\n    /* \"contracts/AmeComponents/VibeProfiles/VibeProfiles.sol\":1237:1256  new Types.Type[](4) */\n  0xffffffffffffffff\n  dup2\n  gt\n  iszero\n  tag_37\n  jumpi\n  tag_38\n  tag_6\n  jump\t// in\ntag_38:\ntag_37:\n  mload(0x40)\n  swap1\n  dup1\n  dup3\n  mstore\n  dup1\n  0x20\n  mul\n  0x20\n  add\n  dup3\n  add\n  0x40\n  mstore\n  dup1\n  iszero\n  tag_39\n  jumpi\n  dup2\n  0x20\n  add\n  0x20\n  dup3\n  mul\n  dup1\n  calldatasize\n  dup4\n  calldatacopy\n  dup1\n  dup3\n  add\n  swap2\n  pop\n  pop\n  swap1\n  pop\ntag_39:\n  pop\n    /* \"contracts/AmeComponents/VibeProfiles/VibeProfiles.sol\":1209:1256  Types.Type[] memory type3 = new Types.Type[](4) */\n  swap1\n  pop\n    /* \"contracts/AmeComponents/VibeProfiles/VibeProfiles.sol\":1277:1295  Types.Type.UINT256 */\n  0x40\n    /* \"contracts/AmeComponents/VibeProfiles/VibeProfiles.sol\":1266:1271  type3 */\n  dup2\n    /* \"contracts/AmeComponents/VibeProfiles/VibeProfiles.sol\":1272:1273  0 */\n  0x00\n    /* \"contracts/AmeComponents/VibeProfiles/VibeProfiles.sol\":1266:1274  type3[0] */\n  dup2\n  mload\n  dup2\n  lt\n  tag_40\n  jumpi\n  tag_41\n  tag_10\n  jump\t// in\ntag_41:\ntag_40:\n  0x20\n  mul\n  0x20\n  add\n  add\n    /* \"contracts/AmeComponents/VibeProfiles/VibeProfiles.sol\":1266:1295  type3[0] = Types.Type.UINT256 */\n  swap1\n  0xc6\n  dup2\n  gt\n  iszero\n  tag_42\n  jumpi\n  tag_43\n  tag_13\n  jump\t// in\ntag_43:\ntag_42:\n  swap1\n  dup2\n  0xc6\n  dup2\n  gt\n  iszero\n  tag_44\n  jumpi\n  tag_45\n  tag_13\n  jump\t// in\ntag_45:\ntag_44:\n  dup2\n  mstore\n  pop\n  pop\n    /* \"contracts/AmeComponents/VibeProfiles/VibeProfiles.sol\":1316:1334  Types.Type.UINT256 */\n  0x40\n    /* \"contracts/AmeComponents/VibeProfiles/VibeProfiles.sol\":1305:1310  type3 */\n  dup2\n    /* \"contracts/AmeComponents/VibeProfiles/VibeProfiles.sol\":1311:1312  1 */\n  0x01\n    /* \"contracts/AmeComponents/VibeProfiles/VibeProfiles.sol\":1305:1313  type3[1] */\n  dup2\n  mload\n  dup2\n  lt\n  tag_46\n  jumpi\n  tag_47\n  tag_10\n  jump\t// in\ntag_47:\ntag_46:\n  0x20\n  mul\n  0x20\n  add\n  add\n    /* \"contracts/AmeComponents/VibeProfiles/VibeProfiles.sol\":1305:1334  type3[1] = Types.Type.UINT256 */\n  swap1\n  0xc6\n  dup2\n  gt\n  iszero\n  tag_48\n  jumpi\n  tag_49\n  tag_13\n  jump\t// in\ntag_49:\ntag_48:\n  swap1\n  dup2\n  0xc6\n  dup2\n  gt\n  iszero\n  tag_50\n  jumpi\n  tag_51\n  tag_13\n  jump\t// in\ntag_51:\ntag_50:\n  dup2\n  mstore\n  pop\n  pop\n    /* \"contracts/AmeComponents/VibeProfiles/VibeProfiles.sol\":1355:1372  Types.Type.STRING */\n  0x63\n    /* \"contracts/AmeComponents/VibeProfiles/VibeProfiles.sol\":1344:1349  type3 */\n  dup2\n    /* \"contracts/AmeComponents/VibeProfiles/VibeProfiles.sol\":1350:1351  2 */\n  0x02\n    /* \"contracts/AmeComponents/VibeProfiles/VibeProfiles.sol\":1344:1352  type3[2] */\n  dup2\n  mload\n  dup2\n  lt\n  tag_52\n  jumpi\n  tag_53\n  tag_10\n  jump\t// in\ntag_53:\ntag_52:\n  0x20\n  mul\n  0x20\n  add\n  add\n    /* \"contracts/AmeComponents/VibeProfiles/VibeProfiles.sol\":1344:1372  type3[2] = Types.Type.STRING */\n  swap1\n  0xc6\n  dup2\n  gt\n  iszero\n  tag_54\n  jumpi\n  tag_55\n  tag_13\n  jump\t// in\ntag_55:\ntag_54:\n  swap1\n  dup2\n  0xc6\n  dup2\n  gt\n  iszero\n  tag_56\n  jumpi\n  tag_57\n  tag_13\n  jump\t// in\ntag_57:\ntag_56:\n  dup2\n  mstore\n  pop\n  pop\n    /* \"contracts/AmeComponents/VibeProfiles/VibeProfiles.sol\":1393:1411  Types.Type.ADDRESS */\n  0x41\n    /* \"contracts/AmeComponents/VibeProfiles/VibeProfiles.sol\":1382:1387  type3 */\n  dup2\n    /* \"contracts/AmeComponents/VibeProfiles/VibeProfiles.sol\":1388:1389  3 */\n  0x03\n    /* \"contracts/AmeComponents/VibeProfiles/VibeProfiles.sol\":1382:1390  type3[3] */\n  dup2\n  mload\n  dup2\n  lt\n  tag_58\n  jumpi\n  tag_59\n  tag_10\n  jump\t// in\ntag_59:\ntag_58:\n  0x20\n  mul\n  0x20\n  add\n  add\n    /* \"contracts/AmeComponents/VibeProfiles/VibeProfiles.sol\":1382:1411  type3[3] = Types.Type.ADDRESS */\n  swap1\n  0xc6\n  dup2\n  gt\n  iszero\n  tag_60\n  jumpi\n  tag_61\n  tag_13\n  jump\t// in\ntag_61:\ntag_60:\n  swap1\n  dup2\n  0xc6\n  dup2\n  gt\n  iszero\n  tag_62\n  jumpi\n  tag_63\n  tag_13\n  jump\t// in\ntag_63:\ntag_62:\n  dup2\n  mstore\n  pop\n  pop\n    /* \"contracts/AmeComponents/VibeProfiles/VibeProfiles.sol\":1422:1447  Types.Type[] memory type4 */\n  0x00\n    /* \"contracts/AmeComponents/VibeProfiles/VibeProfiles.sol\":1467:1468  3 */\n  0x03\n    /* \"contracts/AmeComponents/VibeProfiles/VibeProfiles.sol\":1450:1469  new Types.Type[](3) */\n  0xffffffffffffffff\n  dup2\n  gt\n  iszero\n  tag_64\n  jumpi\n  tag_65\n  tag_6\n  jump\t// in\ntag_65:\ntag_64:\n  mload(0x40)\n  swap1\n  dup1\n  dup3\n  mstore\n  dup1\n  0x20\n  mul\n  0x20\n  add\n  dup3\n  add\n  0x40\n  mstore\n  dup1\n  iszero\n  tag_66\n  jumpi\n  dup2\n  0x20\n  add\n  0x20\n  dup3\n  mul\n  dup1\n  calldatasize\n  dup4\n  calldatacopy\n  dup1\n  dup3\n  add\n  swap2\n  pop\n  pop\n  swap1\n  pop\ntag_66:\n  pop\n    /* \"contracts/AmeComponents/VibeProfiles/VibeProfiles.sol\":1422:1469  Types.Type[] memory type4 = new Types.Type[](3) */\n  swap1\n  pop\n    /* \"contracts/AmeComponents/VibeProfiles/VibeProfiles.sol\":1490:1508  Types.Type.UINT256 */\n  0x40\n    /* \"contracts/AmeComponents/VibeProfiles/VibeProfiles.sol\":1479:1484  type4 */\n  dup2\n    /* \"contracts/AmeComponents/VibeProfiles/VibeProfiles.sol\":1485:1486  0 */\n  0x00\n    /* \"contracts/AmeComponents/VibeProfiles/VibeProfiles.sol\":1479:1487  type4[0] */\n  dup2\n  mload\n  dup2\n  lt\n  tag_67\n  jumpi\n  tag_68\n  tag_10\n  jump\t// in\ntag_68:\ntag_67:\n  0x20\n  mul\n  0x20\n  add\n  add\n    /* \"contracts/AmeComponents/VibeProfiles/VibeProfiles.sol\":1479:1508  type4[0] = Types.Type.UINT256 */\n  swap1\n  0xc6\n  dup2\n  gt\n  iszero\n  tag_69\n  jumpi\n  tag_70\n  tag_13\n  jump\t// in\ntag_70:\ntag_69:\n  swap1\n  dup2\n  0xc6\n  dup2\n  gt\n  iszero\n  tag_71\n  jumpi\n  tag_72\n  tag_13\n  jump\t// in\ntag_72:\ntag_71:\n  dup2\n  mstore\n  pop\n  pop\n    /* \"contracts/AmeComponents/VibeProfiles/VibeProfiles.sol\":1529:1547  Types.Type.UINT256 */\n  0x40\n    /* \"contracts/AmeComponents/VibeProfiles/VibeProfiles.sol\":1518:1523  type4 */\n  dup2\n    /* \"contracts/AmeComponents/VibeProfiles/VibeProfiles.sol\":1524:1525  1 */\n  0x01\n    /* \"contracts/AmeComponents/VibeProfiles/VibeProfiles.sol\":1518:1526  type4[1] */\n  dup2\n  mload\n  dup2\n  lt\n  tag_73\n  jumpi\n  tag_74\n  tag_10\n  jump\t// in\ntag_74:\ntag_73:\n  0x20\n  mul\n  0x20\n  add\n  add\n    /* \"contracts/AmeComponents/VibeProfiles/VibeProfiles.sol\":1518:1547  type4[1] = Types.Type.UINT256 */\n  swap1\n  0xc6\n  dup2\n  gt\n  iszero\n  tag_75\n  jumpi\n  tag_76\n  tag_13\n  jump\t// in\ntag_76:\ntag_75:\n  swap1\n  dup2\n  0xc6\n  dup2\n  gt\n  iszero\n  tag_77\n  jumpi\n  tag_78\n  tag_13\n  jump\t// in\ntag_78:\ntag_77:\n  dup2\n  mstore\n  pop\n  pop\n    /* \"contracts/AmeComponents/VibeProfiles/VibeProfiles.sol\":1568:1586  Types.Type.UINT256 */\n  0x40\n    /* \"contracts/AmeComponents/VibeProfiles/VibeProfiles.sol\":1557:1562  type4 */\n  dup2\n    /* \"contracts/AmeComponents/VibeProfiles/VibeProfiles.sol\":1563:1564  2 */\n  0x02\n    /* \"contracts/AmeComponents/VibeProfiles/VibeProfiles.sol\":1557:1565  type4[2] */\n  dup2\n  mload\n  dup2\n  lt\n  tag_79\n  jumpi\n  tag_80\n  tag_10\n  jump\t// in\ntag_80:\ntag_79:\n  0x20\n  mul\n  0x20\n  add\n  add\n    /* \"contracts/AmeComponents/VibeProfiles/VibeProfiles.sol\":1557:1586  type4[2] = Types.Type.UINT256 */\n  swap1\n  0xc6\n  dup2\n  gt\n  iszero\n  tag_81\n  jumpi\n  tag_82\n  tag_13\n  jump\t// in\ntag_82:\ntag_81:\n  swap1\n  dup2\n  0xc6\n  dup2\n  gt\n  iszero\n  tag_83\n  jumpi\n  tag_84\n  tag_13\n  jump\t// in\ntag_84:\ntag_83:\n  dup2\n  mstore\n  pop\n  pop\n    /* \"contracts/AmeComponents/VibeProfiles/VibeProfiles.sol\":1597:1622  Types.Type[] memory type5 */\n  0x00\n    /* \"contracts/AmeComponents/VibeProfiles/VibeProfiles.sol\":1642:1643  1 */\n  0x01\n    /* \"contracts/AmeComponents/VibeProfiles/VibeProfiles.sol\":1625:1644  new Types.Type[](1) */\n  0xffffffffffffffff\n  dup2\n  gt\n  iszero\n  tag_85\n  jumpi\n  tag_86\n  tag_6\n  jump\t// in\ntag_86:\ntag_85:\n  mload(0x40)\n  swap1\n  dup1\n  dup3\n  mstore\n  dup1\n  0x20\n  mul\n  0x20\n  add\n  dup3\n  add\n  0x40\n  mstore\n  dup1\n  iszero\n  tag_87\n  jumpi\n  dup2\n  0x20\n  add\n  0x20\n  dup3\n  mul\n  dup1\n  calldatasize\n  dup4\n  calldatacopy\n  dup1\n  dup3\n  add\n  swap2\n  pop\n  pop\n  swap1\n  pop\ntag_87:\n  pop\n    /* \"contracts/AmeComponents/VibeProfiles/VibeProfiles.sol\":1597:1644  Types.Type[] memory type5 = new Types.Type[](1) */\n  swap1\n  pop\n    /* \"contracts/AmeComponents/VibeProfiles/VibeProfiles.sol\":1665:1688  Types.Type.STRING_ARRAY */\n  0xc6\n    /* \"contracts/AmeComponents/VibeProfiles/VibeProfiles.sol\":1654:1659  type5 */\n  dup2\n    /* \"contracts/AmeComponents/VibeProfiles/VibeProfiles.sol\":1660:1661  0 */\n  0x00\n    /* \"contracts/AmeComponents/VibeProfiles/VibeProfiles.sol\":1654:1662  type5[0] */\n  dup2\n  mload\n  dup2\n  lt\n  tag_88\n  jumpi\n  tag_89\n  tag_10\n  jump\t// in\ntag_89:\ntag_88:\n  0x20\n  mul\n  0x20\n  add\n  add\n    /* \"contracts/AmeComponents/VibeProfiles/VibeProfiles.sol\":1654:1688  type5[0] = Types.Type.STRING_ARRAY */\n  swap1\n  0xc6\n  dup2\n  gt\n  iszero\n  tag_90\n  jumpi\n  tag_91\n  tag_13\n  jump\t// in\ntag_91:\ntag_90:\n  swap1\n  dup2\n  0xc6\n  dup2\n  gt\n  iszero\n  tag_92\n  jumpi\n  tag_93\n  tag_13\n  jump\t// in\ntag_93:\ntag_92:\n  dup2\n  mstore\n  pop\n  pop\n    /* \"contracts/AmeComponents/VibeProfiles/VibeProfiles.sol\":1699:1724  Types.Type[] memory type6 */\n  0x00\n    /* \"contracts/AmeComponents/VibeProfiles/VibeProfiles.sol\":1744:1745  3 */\n  0x03\n    /* \"contracts/AmeComponents/VibeProfiles/VibeProfiles.sol\":1727:1746  new Types.Type[](3) */\n  0xffffffffffffffff\n  dup2\n  gt\n  iszero\n  tag_94\n  jumpi\n  tag_95\n  tag_6\n  jump\t// in\ntag_95:\ntag_94:\n  mload(0x40)\n  swap1\n  dup1\n  dup3\n  mstore\n  dup1\n  0x20\n  mul\n  0x20\n  add\n  dup3\n  add\n  0x40\n  mstore\n  dup1\n  iszero\n  tag_96\n  jumpi\n  dup2\n  0x20\n  add\n  0x20\n  dup3\n  mul\n  dup1\n  calldatasize\n  dup4\n  calldatacopy\n  dup1\n  dup3\n  add\n  swap2\n  pop\n  pop\n  swap1\n  pop\ntag_96:\n  pop\n    /* \"contracts/AmeComponents/VibeProfiles/VibeProfiles.sol\":1699:1746  Types.Type[] memory type6 = new Types.Type[](3) */\n  swap1\n  pop\n    /* \"contracts/AmeComponents/VibeProfiles/VibeProfiles.sol\":1767:1785  Types.Type.ADDRESS */\n  0x41\n    /* \"contracts/AmeComponents/VibeProfiles/VibeProfiles.sol\":1756:1761  type6 */\n  dup2\n    /* \"contracts/AmeComponents/VibeProfiles/VibeProfiles.sol\":1762:1763  0 */\n  0x00\n    /* \"contracts/AmeComponents/VibeProfiles/VibeProfiles.sol\":1756:1764  type6[0] */\n  dup2\n  mload\n  dup2\n  lt\n  tag_97\n  jumpi\n  tag_98\n  tag_10\n  jump\t// in\ntag_98:\ntag_97:\n  0x20\n  mul\n  0x20\n  add\n  add\n    /* \"contracts/AmeComponents/VibeProfiles/VibeProfiles.sol\":1756:1785  type6[0] = Types.Type.ADDRESS */\n  swap1\n  0xc6\n  dup2\n  gt\n  iszero\n  tag_99\n  jumpi\n  tag_100\n  tag_13\n  jump\t// in\ntag_100:\ntag_99:\n  swap1\n  dup2\n  0xc6\n  dup2\n  gt\n  iszero\n  tag_101\n  jumpi\n  tag_102\n  tag_13\n  jump\t// in\ntag_102:\ntag_101:\n  dup2\n  mstore\n  pop\n  pop\n    /* \"contracts/AmeComponents/VibeProfiles/VibeProfiles.sol\":1806:1824  Types.Type.UINT256 */\n  0x40\n    /* \"contracts/AmeComponents/VibeProfiles/VibeProfiles.sol\":1795:1800  type6 */\n  dup2\n    /* \"contracts/AmeComponents/VibeProfiles/VibeProfiles.sol\":1801:1802  1 */\n  0x01\n    /* \"contracts/AmeComponents/VibeProfiles/VibeProfiles.sol\":1795:1803  type6[1] */\n  dup2\n  mload\n  dup2\n  lt\n  tag_103\n  jumpi\n  tag_104\n  tag_10\n  jump\t// in\ntag_104:\ntag_103:\n  0x20\n  mul\n  0x20\n  add\n  add\n    /* \"contracts/AmeComponents/VibeProfiles/VibeProfiles.sol\":1795:1824  type6[1] = Types.Type.UINT256 */\n  swap1\n  0xc6\n  dup2\n  gt\n  iszero\n  tag_105\n  jumpi\n  tag_106\n  tag_13\n  jump\t// in\ntag_106:\ntag_105:\n  swap1\n  dup2\n  0xc6\n  dup2\n  gt\n  iszero\n  tag_107\n  jumpi\n  tag_108\n  tag_13\n  jump\t// in\ntag_108:\ntag_107:\n  dup2\n  mstore\n  pop\n  pop\n    /* \"contracts/AmeComponents/VibeProfiles/VibeProfiles.sol\":1845:1863  Types.Type.UINT256 */\n  0x40\n    /* \"contracts/AmeComponents/VibeProfiles/VibeProfiles.sol\":1834:1839  type6 */\n  dup2\n    /* \"contracts/AmeComponents/VibeProfiles/VibeProfiles.sol\":1840:1841  2 */\n  0x02\n    /* \"contracts/AmeComponents/VibeProfiles/VibeProfiles.sol\":1834:1842  type6[2] */\n  dup2\n  mload\n  dup2\n  lt\n  tag_109\n  jumpi\n  tag_110\n  tag_10\n  jump\t// in\ntag_110:\ntag_109:\n  0x20\n  mul\n  0x20\n  add\n  add\n    /* \"contracts/AmeComponents/VibeProfiles/VibeProfiles.sol\":1834:1863  type6[2] = Types.Type.UINT256 */\n  swap1\n  0xc6\n  dup2\n  gt\n  iszero\n  tag_111\n  jumpi\n  tag_112\n  tag_13\n  jump\t// in\ntag_112:\ntag_111:\n  swap1\n  dup2\n  0xc6\n  dup2\n  gt\n  iszero\n  tag_113\n  jumpi\n  tag_114\n  tag_13\n  jump\t// in\ntag_114:\ntag_113:\n  dup2\n  mstore\n  pop\n  pop\n    /* \"contracts/AmeComponents/VibeProfiles/VibeProfiles.sol\":1874:1944  setMethod(\"postComment\", MethodTypes.POST, type1, new Types.Type[](0)) */\n  tag_115\n  mload(0x40)\n  dup1\n  0x40\n  add\n  0x40\n  mstore\n  dup1\n  0x0b\n  dup2\n  mstore\n  0x20\n  add\n  0x706f7374436f6d6d656e74000000000000000000000000000000000000000000\n  dup2\n  mstore\n  pop\n    /* \"contracts/AmeComponents/VibeProfiles/VibeProfiles.sol\":1899:1915  MethodTypes.POST */\n  0x01\n    /* \"contracts/AmeComponents/VibeProfiles/VibeProfiles.sol\":1917:1922  type1 */\n  dup9\n    /* \"contracts/AmeComponents/VibeProfiles/VibeProfiles.sol\":1941:1942  0 */\n  0x00\n    /* \"contracts/AmeComponents/VibeProfiles/VibeProfiles.sol\":1924:1943  new Types.Type[](0) */\n  0xffffffffffffffff\n  dup2\n  gt\n  iszero\n  tag_116\n  jumpi\n  tag_117\n  tag_6\n  jump\t// in\ntag_117:\ntag_116:\n  mload(0x40)\n  swap1\n  dup1\n  dup3\n  mstore\n  dup1\n  0x20\n  mul\n  0x20\n  add\n  dup3\n  add\n  0x40\n  mstore\n  dup1\n  iszero\n  tag_118\n  jumpi\n  dup2\n  0x20\n  add\n  0x20\n  dup3\n  mul\n  dup1\n  calldatasize\n  dup4\n  calldatacopy\n  dup1\n  dup3\n  add\n  swap2\n  pop\n  pop\n  swap1\n  pop\ntag_118:\n  pop\n    /* \"contracts/AmeComponents/VibeProfiles/VibeProfiles.sol\":1874:1883  setMethod */\n  shl(0x20, tag_119)\n    /* \"contracts/AmeComponents/VibeProfiles/VibeProfiles.sol\":1874:1944  setMethod(\"postComment\", MethodTypes.POST, type1, new Types.Type[](0)) */\n  0x20\n  shr\n  jump\t// in\ntag_115:\n    /* \"contracts/AmeComponents/VibeProfiles/VibeProfiles.sol\":1954:2008  setMethod(\"getComment\", MethodTypes.GET, type2, type3) */\n  tag_120\n  mload(0x40)\n  dup1\n  0x40\n  add\n  0x40\n  mstore\n  dup1\n  0x0a\n  dup2\n  mstore\n  0x20\n  add\n  0x676574436f6d6d656e7400000000000000000000000000000000000000000000\n  dup2\n  mstore\n  pop\n    /* \"contracts/AmeComponents/VibeProfiles/VibeProfiles.sol\":1978:1993  MethodTypes.GET */\n  0x00\n    /* \"contracts/AmeComponents/VibeProfiles/VibeProfiles.sol\":1995:2000  type2 */\n  dup8\n    /* \"contracts/AmeComponents/VibeProfiles/VibeProfiles.sol\":2002:2007  type3 */\n  dup8\n    /* \"contracts/AmeComponents/VibeProfiles/VibeProfiles.sol\":1954:1963  setMethod */\n  shl(0x20, tag_119)\n    /* \"contracts/AmeComponents/VibeProfiles/VibeProfiles.sol\":1954:2008  setMethod(\"getComment\", MethodTypes.GET, type2, type3) */\n  0x20\n  shr\n  jump\t// in\ntag_120:\n    /* \"contracts/AmeComponents/VibeProfiles/VibeProfiles.sol\":2018:2073  setMethod(\"getComments\", MethodTypes.GET, type4, type5) */\n  tag_121\n  mload(0x40)\n  dup1\n  0x40\n  add\n  0x40\n  mstore\n  dup1\n  0x0b\n  dup2\n  mstore\n  0x20\n  add\n  0x676574436f6d6d656e7473000000000000000000000000000000000000000000\n  dup2\n  mstore\n  pop\n    /* \"contracts/AmeComponents/VibeProfiles/VibeProfiles.sol\":2043:2058  MethodTypes.GET */\n  0x00\n    /* \"contracts/AmeComponents/VibeProfiles/VibeProfiles.sol\":2060:2065  type4 */\n  dup6\n    /* \"contracts/AmeComponents/VibeProfiles/VibeProfiles.sol\":2067:2072  type5 */\n  dup6\n    /* \"contracts/AmeComponents/VibeProfiles/VibeProfiles.sol\":2018:2027  setMethod */\n  shl(0x20, tag_119)\n    /* \"contracts/AmeComponents/VibeProfiles/VibeProfiles.sol\":2018:2073  setMethod(\"getComments\", MethodTypes.GET, type4, type5) */\n  0x20\n  shr\n  jump\t// in\ntag_121:\n    /* \"contracts/AmeComponents/VibeProfiles/VibeProfiles.sol\":2083:2147  setMethod(\"getCommentsByAddress\", MethodTypes.GET, type6, type5) */\n  tag_122\n  mload(0x40)\n  dup1\n  0x40\n  add\n  0x40\n  mstore\n  dup1\n  0x14\n  dup2\n  mstore\n  0x20\n  add\n  0x676574436f6d6d656e7473427941646472657373000000000000000000000000\n  dup2\n  mstore\n  pop\n    /* \"contracts/AmeComponents/VibeProfiles/VibeProfiles.sol\":2117:2132  MethodTypes.GET */\n  0x00\n    /* \"contracts/AmeComponents/VibeProfiles/VibeProfiles.sol\":2134:2139  type6 */\n  dup4\n    /* \"contracts/AmeComponents/VibeProfiles/VibeProfiles.sol\":2141:2146  type5 */\n  dup6\n    /* \"contracts/AmeComponents/VibeProfiles/VibeProfiles.sol\":2083:2092  setMethod */\n  shl(0x20, tag_119)\n    /* \"contracts/AmeComponents/VibeProfiles/VibeProfiles.sol\":2083:2147  setMethod(\"getCommentsByAddress\", MethodTypes.GET, type6, type5) */\n  0x20\n  shr\n  jump\t// in\ntag_122:\n    /* \"contracts/AmeComponents/VibeProfiles/VibeProfiles.sol\":929:2154  {... */\n  pop\n  pop\n  pop\n  pop\n  pop\n  pop\n    /* \"contracts/AmeComponents/VibeProfiles/VibeProfiles.sol\":193:10055  contract VibeComment is IComponent {... */\n  jump(tag_123)\n    /* \"contracts/AmeComponents/VibeProfiles/VibeProfiles.sol\":5274:5611  function setMethod(... */\ntag_119:\n    /* \"contracts/AmeComponents/VibeProfiles/VibeProfiles.sol\":5465:5472  methods */\n  0x00\n    /* \"contracts/AmeComponents/VibeProfiles/VibeProfiles.sol\":5465:5485  methods[_methodType] */\n  dup1\n    /* \"contracts/AmeComponents/VibeProfiles/VibeProfiles.sol\":5473:5484  _methodType */\n  dup5\n    /* \"contracts/AmeComponents/VibeProfiles/VibeProfiles.sol\":5465:5485  methods[_methodType] */\n  0x03\n  dup2\n  gt\n  iszero\n  tag_125\n  jumpi\n  tag_126\n  tag_13\n  jump\t// in\ntag_126:\ntag_125:\n  0x03\n  dup2\n  gt\n  iszero\n  tag_127\n  jumpi\n  tag_128\n  tag_13\n  jump\t// in\ntag_128:\ntag_127:\n  dup2\n  mstore\n  0x20\n  add\n  swap1\n  dup2\n  mstore\n  0x20\n  add\n  0x00\n  keccak256\n    /* \"contracts/AmeComponents/VibeProfiles/VibeProfiles.sol\":5491:5502  _methodName */\n  dup5\n    /* \"contracts/AmeComponents/VibeProfiles/VibeProfiles.sol\":5465:5503  methods[_methodType].push(_methodName) */\n  swap1\n  dup1\n  0x01\n  dup2\n  sload\n  add\n  dup1\n  dup3\n  sstore\n  dup1\n  swap2\n  pop\n  pop\n  0x01\n  swap1\n  sub\n  swap1\n  0x00\n  mstore\n  keccak256(0x00, 0x20)\n  add\n  0x00\n  swap1\n  swap2\n  swap1\n  swap2\n  swap1\n  swap2\n  pop\n  swap1\n  dup2\n  tag_130\n  swap2\n  swap1\n  tag_131\n  jump\t// in\ntag_130:\n  pop\n    /* \"contracts/AmeComponents/VibeProfiles/VibeProfiles.sol\":5543:5553  _methodReq */\n  dup2\n    /* \"contracts/AmeComponents/VibeProfiles/VibeProfiles.sol\":5513:5527  methodRequests */\n  0x01\n    /* \"contracts/AmeComponents/VibeProfiles/VibeProfiles.sol\":5528:5539  _methodName */\n  dup6\n    /* \"contracts/AmeComponents/VibeProfiles/VibeProfiles.sol\":5513:5540  methodRequests[_methodName] */\n  mload(0x40)\n  tag_132\n  swap2\n  swap1\n  tag_133\n  jump\t// in\ntag_132:\n  swap1\n  dup2\n  mstore\n  0x20\n  add\n  mload(0x40)\n  dup1\n  swap2\n  sub\n  swap1\n  keccak256\n    /* \"contracts/AmeComponents/VibeProfiles/VibeProfiles.sol\":5513:5553  methodRequests[_methodName] = _methodReq */\n  swap1\n  dup1\n  mload\n  swap1\n  0x20\n  add\n  swap1\n  tag_134\n  swap3\n  swap2\n  swap1\n  tag_135\n  jump\t// in\ntag_134:\n  pop\n    /* \"contracts/AmeComponents/VibeProfiles/VibeProfiles.sol\":5594:5604  _methodRes */\n  dup1\n    /* \"contracts/AmeComponents/VibeProfiles/VibeProfiles.sol\":5563:5578  methodResponses */\n  0x02\n    /* \"contracts/AmeComponents/VibeProfiles/VibeProfiles.sol\":5579:5590  _methodName */\n  dup6\n    /* \"contracts/AmeComponents/VibeProfiles/VibeProfiles.sol\":5563:5591  methodResponses[_methodName] */\n  mload(0x40)\n  tag_136\n  swap2\n  swap1\n  tag_133\n  jump\t// in\ntag_136:\n  swap1\n  dup2\n  mstore\n  0x20\n  add\n  mload(0x40)\n  dup1\n  swap2\n  sub\n  swap1\n  keccak256\n    /* \"contracts/AmeComponents/VibeProfiles/VibeProfiles.sol\":5563:5604  methodResponses[_methodName] = _methodRes */\n  swap1\n  dup1\n  mload\n  swap1\n  0x20\n  add\n  swap1\n  tag_137\n  swap3\n  swap2\n  swap1\n  tag_135\n  jump\t// in\ntag_137:\n  pop\n    /* \"contracts/AmeComponents/VibeProfiles/VibeProfiles.sol\":5274:5611  function setMethod(... */\n  pop\n  pop\n  pop\n  pop\n  jump\t// out\n    /* \"contracts/AmeComponents/VibeProfiles/VibeProfiles.sol\":193:10055  contract VibeComment is IComponent {... */\ntag_135:\n  dup3\n  dup1\n  sload\n  dup3\n  dup3\n  sstore\n  swap1\n  0x00\n  mstore\n  keccak256(0x00, 0x20)\n  swap1\n  0x1f\n  add\n  0x20\n  swap1\n  div\n  dup2\n  add\n  swap3\n  dup3\n  iszero\n  tag_138\n  jumpi\n  swap2\n  0x20\n  mul\n  dup3\n  add\n  0x00\ntag_139:\n  dup4\n  dup3\n  gt\n  iszero\n  tag_140\n  jumpi\n  dup4\n  mload\n  dup4\n  dup3\n  0x0100\n  exp\n  dup2\n  sload\n  dup2\n  0xff\n  mul\n  not\n  and\n  swap1\n  dup4\n  0xc6\n  dup2\n  gt\n  iszero\n  tag_141\n  jumpi\n  tag_142\n  tag_13\n  jump\t// in\ntag_142:\ntag_141:\n  mul\n  or\n  swap1\n  sstore\n  pop\n  swap3\n  0x20\n  add\n  swap3\n  0x01\n  add\n  0x20\n  dup2\n  0x00\n  add\n  div\n  swap3\n  dup4\n  add\n  swap3\n  0x01\n  sub\n  mul\n  jump(tag_139)\ntag_140:\n  dup1\n  iszero\n  tag_143\n  jumpi\n  dup3\n  dup2\n  0x0100\n  exp\n  dup2\n  sload\n  swap1\n  0xff\n  mul\n  not\n  and\n  swap1\n  sstore\n  0x01\n  add\n  0x20\n  dup2\n  0x00\n  add\n  div\n  swap3\n  dup4\n  add\n  swap3\n  0x01\n  sub\n  mul\n  jump(tag_140)\ntag_143:\n  pop\ntag_138:\n  pop\n  swap1\n  pop\n  tag_144\n  swap2\n  swap1\n  tag_145\n  jump\t// in\ntag_144:\n  pop\n  swap1\n  jump\t// out\ntag_145:\ntag_146:\n  dup1\n  dup3\n  gt\n  iszero\n  tag_147\n  jumpi\n  0x00\n  dup2\n  0x00\n  swap1\n  sstore\n  pop\n  0x01\n  add\n  jump(tag_146)\ntag_147:\n  pop\n  swap1\n  jump\t// out\n    /* \"#utility.yul\":7:187   */\ntag_6:\n    /* \"#utility.yul\":55:132   */\n  0x4e487b7100000000000000000000000000000000000000000000000000000000\n    /* \"#utility.yul\":52:53   */\n  0x00\n    /* \"#utility.yul\":45:133   */\n  mstore\n    /* \"#utility.yul\":152:156   */\n  0x41\n    /* \"#utility.yul\":149:150   */\n  0x04\n    /* \"#utility.yul\":142:157   */\n  mstore\n    /* \"#utility.yul\":176:180   */\n  0x24\n    /* \"#utility.yul\":173:174   */\n  0x00\n    /* \"#utility.yul\":166:181   */\n  revert\n    /* \"#utility.yul\":193:373   */\ntag_10:\n    /* \"#utility.yul\":241:318   */\n  0x4e487b7100000000000000000000000000000000000000000000000000000000\n    /* \"#utility.yul\":238:239   */\n  0x00\n    /* \"#utility.yul\":231:319   */\n  mstore\n    /* \"#utility.yul\":338:342   */\n  0x32\n    /* \"#utility.yul\":335:336   */\n  0x04\n    /* \"#utility.yul\":328:343   */\n  mstore\n    /* \"#utility.yul\":362:366   */\n  0x24\n    /* \"#utility.yul\":359:360   */\n  0x00\n    /* \"#utility.yul\":352:367   */\n  revert\n    /* \"#utility.yul\":379:559   */\ntag_13:\n    /* \"#utility.yul\":427:504   */\n  0x4e487b7100000000000000000000000000000000000000000000000000000000\n    /* \"#utility.yul\":424:425   */\n  0x00\n    /* \"#utility.yul\":417:505   */\n  mstore\n    /* \"#utility.yul\":524:528   */\n  0x21\n    /* \"#utility.yul\":521:522   */\n  0x04\n    /* \"#utility.yul\":514:529   */\n  mstore\n    /* \"#utility.yul\":548:552   */\n  0x24\n    /* \"#utility.yul\":545:546   */\n  0x00\n    /* \"#utility.yul\":538:553   */\n  revert\n    /* \"#utility.yul\":565:664   */\ntag_148:\n    /* \"#utility.yul\":617:623   */\n  0x00\n    /* \"#utility.yul\":651:656   */\n  dup2\n    /* \"#utility.yul\":645:657   */\n  mload\n    /* \"#utility.yul\":635:657   */\n  swap1\n  pop\n    /* \"#utility.yul\":565:664   */\n  swap2\n  swap1\n  pop\n  jump\t// out\n    /* \"#utility.yul\":670:850   */\ntag_149:\n    /* \"#utility.yul\":718:795   */\n  0x4e487b7100000000000000000000000000000000000000000000000000000000\n    /* \"#utility.yul\":715:716   */\n  0x00\n    /* \"#utility.yul\":708:796   */\n  mstore\n    /* \"#utility.yul\":815:819   */\n  0x22\n    /* \"#utility.yul\":812:813   */\n  0x04\n    /* \"#utility.yul\":805:820   */\n  mstore\n    /* \"#utility.yul\":839:843   */\n  0x24\n    /* \"#utility.yul\":836:837   */\n  0x00\n    /* \"#utility.yul\":829:844   */\n  revert\n    /* \"#utility.yul\":856:1176   */\ntag_150:\n    /* \"#utility.yul\":900:906   */\n  0x00\n    /* \"#utility.yul\":937:938   */\n  0x02\n    /* \"#utility.yul\":931:935   */\n  dup3\n    /* \"#utility.yul\":927:939   */\n  div\n    /* \"#utility.yul\":917:939   */\n  swap1\n  pop\n    /* \"#utility.yul\":984:985   */\n  0x01\n    /* \"#utility.yul\":978:982   */\n  dup3\n    /* \"#utility.yul\":974:986   */\n  and\n    /* \"#utility.yul\":1005:1023   */\n  dup1\n    /* \"#utility.yul\":995:1076   */\n  tag_177\n  jumpi\n    /* \"#utility.yul\":1061:1065   */\n  0x7f\n    /* \"#utility.yul\":1053:1059   */\n  dup3\n    /* \"#utility.yul\":1049:1066   */\n  and\n    /* \"#utility.yul\":1039:1066   */\n  swap2\n  pop\n    /* \"#utility.yul\":995:1076   */\ntag_177:\n    /* \"#utility.yul\":1123:1125   */\n  0x20\n    /* \"#utility.yul\":1115:1121   */\n  dup3\n    /* \"#utility.yul\":1112:1126   */\n  lt\n    /* \"#utility.yul\":1092:1110   */\n  dup2\n    /* \"#utility.yul\":1089:1127   */\n  sub\n    /* \"#utility.yul\":1086:1170   */\n  tag_178\n  jumpi\n    /* \"#utility.yul\":1142:1160   */\n  tag_179\n  tag_149\n  jump\t// in\ntag_179:\n    /* \"#utility.yul\":1086:1170   */\ntag_178:\n    /* \"#utility.yul\":907:1176   */\n  pop\n    /* \"#utility.yul\":856:1176   */\n  swap2\n  swap1\n  pop\n  jump\t// out\n    /* \"#utility.yul\":1182:1323   */\ntag_151:\n    /* \"#utility.yul\":1231:1235   */\n  0x00\n    /* \"#utility.yul\":1254:1257   */\n  dup2\n    /* \"#utility.yul\":1246:1257   */\n  swap1\n  pop\n    /* \"#utility.yul\":1277:1280   */\n  dup2\n    /* \"#utility.yul\":1274:1275   */\n  0x00\n    /* \"#utility.yul\":1267:1281   */\n  mstore\n    /* \"#utility.yul\":1311:1315   */\n  0x20\n    /* \"#utility.yul\":1308:1309   */\n  0x00\n    /* \"#utility.yul\":1298:1316   */\n  keccak256\n    /* \"#utility.yul\":1290:1316   */\n  swap1\n  pop\n    /* \"#utility.yul\":1182:1323   */\n  swap2\n  swap1\n  pop\n  jump\t// out\n    /* \"#utility.yul\":1329:1422   */\ntag_152:\n    /* \"#utility.yul\":1366:1372   */\n  0x00\n    /* \"#utility.yul\":1413:1415   */\n  0x20\n    /* \"#utility.yul\":1408:1410   */\n  0x1f\n    /* \"#utility.yul\":1401:1406   */\n  dup4\n    /* \"#utility.yul\":1397:1411   */\n  add\n    /* \"#utility.yul\":1393:1416   */\n  div\n    /* \"#utility.yul\":1383:1416   */\n  swap1\n  pop\n    /* \"#utility.yul\":1329:1422   */\n  swap2\n  swap1\n  pop\n  jump\t// out\n    /* \"#utility.yul\":1428:1535   */\ntag_153:\n    /* \"#utility.yul\":1472:1480   */\n  0x00\n    /* \"#utility.yul\":1522:1527   */\n  dup3\n    /* \"#utility.yul\":1516:1520   */\n  dup3\n    /* \"#utility.yul\":1512:1528   */\n  shl\n    /* \"#utility.yul\":1491:1528   */\n  swap1\n  pop\n    /* \"#utility.yul\":1428:1535   */\n  swap3\n  swap2\n  pop\n  pop\n  jump\t// out\n    /* \"#utility.yul\":1541:1934   */\ntag_154:\n    /* \"#utility.yul\":1610:1616   */\n  0x00\n    /* \"#utility.yul\":1660:1661   */\n  0x08\n    /* \"#utility.yul\":1648:1658   */\n  dup4\n    /* \"#utility.yul\":1644:1662   */\n  mul\n    /* \"#utility.yul\":1683:1780   */\n  tag_184\n    /* \"#utility.yul\":1713:1779   */\n  0xffffffffffffffffffffffffffffffffffffffffffffffffffffffffffffffff\n    /* \"#utility.yul\":1702:1711   */\n  dup3\n    /* \"#utility.yul\":1683:1780   */\n  tag_153\n  jump\t// in\ntag_184:\n    /* \"#utility.yul\":1801:1840   */\n  tag_185\n    /* \"#utility.yul\":1831:1839   */\n  dup7\n    /* \"#utility.yul\":1820:1829   */\n  dup4\n    /* \"#utility.yul\":1801:1840   */\n  tag_153\n  jump\t// in\ntag_185:\n    /* \"#utility.yul\":1789:1840   */\n  swap6\n  pop\n    /* \"#utility.yul\":1873:1877   */\n  dup1\n    /* \"#utility.yul\":1869:1878   */\n  not\n    /* \"#utility.yul\":1862:1867   */\n  dup5\n    /* \"#utility.yul\":1858:1879   */\n  and\n    /* \"#utility.yul\":1849:1879   */\n  swap4\n  pop\n    /* \"#utility.yul\":1922:1926   */\n  dup1\n    /* \"#utility.yul\":1912:1920   */\n  dup7\n    /* \"#utility.yul\":1908:1927   */\n  and\n    /* \"#utility.yul\":1901:1906   */\n  dup5\n    /* \"#utility.yul\":1898:1928   */\n  or\n    /* \"#utility.yul\":1888:1928   */\n  swap3\n  pop\n    /* \"#utility.yul\":1617:1934   */\n  pop\n  pop\n    /* \"#utility.yul\":1541:1934   */\n  swap4\n  swap3\n  pop\n  pop\n  pop\n  jump\t// out\n    /* \"#utility.yul\":1940:2017   */\ntag_155:\n    /* \"#utility.yul\":1977:1984   */\n  0x00\n    /* \"#utility.yul\":2006:2011   */\n  dup2\n    /* \"#utility.yul\":1995:2011   */\n  swap1\n  pop\n    /* \"#utility.yul\":1940:2017   */\n  swap2\n  swap1\n  pop\n  jump\t// out\n    /* \"#utility.yul\":2023:2083   */\ntag_156:\n    /* \"#utility.yul\":2051:2054   */\n  0x00\n    /* \"#utility.yul\":2072:2077   */\n  dup2\n    /* \"#utility.yul\":2065:2077   */\n  swap1\n  pop\n    /* \"#utility.yul\":2023:2083   */\n  swap2\n  swap1\n  pop\n  jump\t// out\n    /* \"#utility.yul\":2089:2231   */\ntag_157:\n    /* \"#utility.yul\":2139:2148   */\n  0x00\n    /* \"#utility.yul\":2172:2225   */\n  tag_189\n    /* \"#utility.yul\":2190:2224   */\n  tag_190\n    /* \"#utility.yul\":2199:2223   */\n  tag_191\n    /* \"#utility.yul\":2217:2222   */\n  dup5\n    /* \"#utility.yul\":2199:2223   */\n  tag_155\n  jump\t// in\ntag_191:\n    /* \"#utility.yul\":2190:2224   */\n  tag_156\n  jump\t// in\ntag_190:\n    /* \"#utility.yul\":2172:2225   */\n  tag_155\n  jump\t// in\ntag_189:\n    /* \"#utility.yul\":2159:2225   */\n  swap1\n  pop\n    /* \"#utility.yul\":2089:2231   */\n  swap2\n  swap1\n  pop\n  jump\t// out\n    /* \"#utility.yul\":2237:2312   */\ntag_158:\n    /* \"#utility.yul\":2280:2283   */\n  0x00\n    /* \"#utility.yul\":2301:2306   */\n  dup2\n    /* \"#utility.yul\":2294:2306   */\n  swap1\n  pop\n    /* \"#utility.yul\":2237:2312   */\n  swap2\n  swap1\n  pop\n  jump\t// out\n    /* \"#utility.yul\":2318:2587   */\ntag_159:\n    /* \"#utility.yul\":2428:2467   */\n  tag_194\n    /* \"#utility.yul\":2459:2466   */\n  dup4\n    /* \"#utility.yul\":2428:2467   */\n  tag_157\n  jump\t// in\ntag_194:\n    /* \"#utility.yul\":2489:2580   */\n  tag_195\n    /* \"#utility.yul\":2538:2579   */\n  tag_196\n    /* \"#utility.yul\":2562:2578   */\n  dup3\n    /* \"#utility.yul\":2538:2579   */\n  tag_158\n  jump\t// in\ntag_196:\n    /* \"#utility.yul\":2530:2536   */\n  dup5\n    /* \"#utility.yul\":2523:2527   */\n  dup5\n    /* \"#utility.yul\":2517:2528   */\n  sload\n    /* \"#utility.yul\":2489:2580   */\n  tag_154\n  jump\t// in\ntag_195:\n    /* \"#utility.yul\":2483:2487   */\n  dup3\n    /* \"#utility.yul\":2476:2581   */\n  sstore\n    /* \"#utility.yul\":2394:2587   */\n  pop\n    /* \"#utility.yul\":2318:2587   */\n  pop\n  pop\n  pop\n  jump\t// out\n    /* \"#utility.yul\":2593:2666   */\ntag_160:\n    /* \"#utility.yul\":2638:2641   */\n  0x00\n    /* \"#utility.yul\":2593:2666   */\n  swap1\n  jump\t// out\n    /* \"#utility.yul\":2672:2861   */\ntag_161:\n    /* \"#utility.yul\":2749:2781   */\n  tag_199\n  tag_160\n  jump\t// in\ntag_199:\n    /* \"#utility.yul\":2790:2855   */\n  tag_200\n    /* \"#utility.yul\":2848:2854   */\n  dup2\n    /* \"#utility.yul\":2840:2846   */\n  dup5\n    /* \"#utility.yul\":2834:2838   */\n  dup5\n    /* \"#utility.yul\":2790:2855   */\n  tag_159\n  jump\t// in\ntag_200:\n    /* \"#utility.yul\":2725:2861   */\n  pop\n    /* \"#utility.yul\":2672:2861   */\n  pop\n  pop\n  jump\t// out\n    /* \"#utility.yul\":2867:3053   */\ntag_162:\n    /* \"#utility.yul\":2927:3047   */\ntag_202:\n    /* \"#utility.yul\":2944:2947   */\n  dup2\n    /* \"#utility.yul\":2937:2942   */\n  dup2\n    /* \"#utility.yul\":2934:2948   */\n  lt\n    /* \"#utility.yul\":2927:3047   */\n  iszero\n  tag_204\n  jumpi\n    /* \"#utility.yul\":2998:3037   */\n  tag_205\n    /* \"#utility.yul\":3035:3036   */\n  0x00\n    /* \"#utility.yul\":3028:3033   */\n  dup3\n    /* \"#utility.yul\":2998:3037   */\n  tag_161\n  jump\t// in\ntag_205:\n    /* \"#utility.yul\":2971:2972   */\n  0x01\n    /* \"#utility.yul\":2964:2969   */\n  dup2\n    /* \"#utility.yul\":2960:2973   */\n  add\n    /* \"#utility.yul\":2951:2973   */\n  swap1\n  pop\n    /* \"#utility.yul\":2927:3047   */\n  jump(tag_202)\ntag_204:\n    /* \"#utility.yul\":2867:3053   */\n  pop\n  pop\n  jump\t// out\n    /* \"#utility.yul\":3059:3602   */\ntag_163:\n    /* \"#utility.yul\":3160:3162   */\n  0x1f\n    /* \"#utility.yul\":3155:3158   */\n  dup3\n    /* \"#utility.yul\":3152:3163   */\n  gt\n    /* \"#utility.yul\":3149:3595   */\n  iszero\n  tag_207\n  jumpi\n    /* \"#utility.yul\":3194:3232   */\n  tag_208\n    /* \"#utility.yul\":3226:3231   */\n  dup2\n    /* \"#utility.yul\":3194:3232   */\n  tag_151\n  jump\t// in\ntag_208:\n    /* \"#utility.yul\":3278:3307   */\n  tag_209\n    /* \"#utility.yul\":3296:3306   */\n  dup5\n    /* \"#utility.yul\":3278:3307   */\n  tag_152\n  jump\t// in\ntag_209:\n    /* \"#utility.yul\":3268:3276   */\n  dup2\n    /* \"#utility.yul\":3264:3308   */\n  add\n    /* \"#utility.yul\":3461:3463   */\n  0x20\n    /* \"#utility.yul\":3449:3459   */\n  dup6\n    /* \"#utility.yul\":3446:3464   */\n  lt\n    /* \"#utility.yul\":3443:3492   */\n  iszero\n  tag_210\n  jumpi\n    /* \"#utility.yul\":3482:3490   */\n  dup2\n    /* \"#utility.yul\":3467:3490   */\n  swap1\n  pop\n    /* \"#utility.yul\":3443:3492   */\ntag_210:\n    /* \"#utility.yul\":3505:3585   */\n  tag_211\n    /* \"#utility.yul\":3561:3583   */\n  tag_212\n    /* \"#utility.yul\":3579:3582   */\n  dup6\n    /* \"#utility.yul\":3561:3583   */\n  tag_152\n  jump\t// in\ntag_212:\n    /* \"#utility.yul\":3551:3559   */\n  dup4\n    /* \"#utility.yul\":3547:3584   */\n  add\n    /* \"#utility.yul\":3534:3545   */\n  dup3\n    /* \"#utility.yul\":3505:3585   */\n  tag_162\n  jump\t// in\ntag_211:\n    /* \"#utility.yul\":3164:3595   */\n  pop\n  pop\n    /* \"#utility.yul\":3149:3595   */\ntag_207:\n    /* \"#utility.yul\":3059:3602   */\n  pop\n  pop\n  pop\n  jump\t// out\n    /* \"#utility.yul\":3608:3725   */\ntag_164:\n    /* \"#utility.yul\":3662:3670   */\n  0x00\n    /* \"#utility.yul\":3712:3717   */\n  dup3\n    /* \"#utility.yul\":3706:3710   */\n  dup3\n    /* \"#utility.yul\":3702:3718   */\n  shr\n    /* \"#utility.yul\":3681:3718   */\n  swap1\n  pop\n    /* \"#utility.yul\":3608:3725   */\n  swap3\n  swap2\n  pop\n  pop\n  jump\t// out\n    /* \"#utility.yul\":3731:3900   */\ntag_165:\n    /* \"#utility.yul\":3775:3781   */\n  0x00\n    /* \"#utility.yul\":3808:3859   */\n  tag_215\n    /* \"#utility.yul\":3856:3857   */\n  0x00\n    /* \"#utility.yul\":3852:3858   */\n  not\n    /* \"#utility.yul\":3844:3849   */\n  dup5\n    /* \"#utility.yul\":3841:3842   */\n  0x08\n    /* \"#utility.yul\":3837:3850   */\n  mul\n    /* \"#utility.yul\":3808:3859   */\n  tag_164\n  jump\t// in\ntag_215:\n    /* \"#utility.yul\":3804:3860   */\n  not\n    /* \"#utility.yul\":3889:3893   */\n  dup1\n    /* \"#utility.yul\":3883:3887   */\n  dup4\n    /* \"#utility.yul\":3879:3894   */\n  and\n    /* \"#utility.yul\":3869:3894   */\n  swap2\n  pop\n    /* \"#utility.yul\":3782:3900   */\n  pop\n    /* \"#utility.yul\":3731:3900   */\n  swap3\n  swap2\n  pop\n  pop\n  jump\t// out\n    /* \"#utility.yul\":3905:4200   */\ntag_166:\n    /* \"#utility.yul\":3981:3985   */\n  0x00\n    /* \"#utility.yul\":4127:4156   */\n  tag_217\n    /* \"#utility.yul\":4152:4155   */\n  dup4\n    /* \"#utility.yul\":4146:4150   */\n  dup4\n    /* \"#utility.yul\":4127:4156   */\n  tag_165\n  jump\t// in\ntag_217:\n    /* \"#utility.yul\":4119:4156   */\n  swap2\n  pop\n    /* \"#utility.yul\":4189:4192   */\n  dup3\n    /* \"#utility.yul\":4186:4187   */\n  0x02\n    /* \"#utility.yul\":4182:4193   */\n  mul\n    /* \"#utility.yul\":4176:4180   */\n  dup3\n    /* \"#utility.yul\":4173:4194   */\n  or\n    /* \"#utility.yul\":4165:4194   */\n  swap1\n  pop\n    /* \"#utility.yul\":3905:4200   */\n  swap3\n  swap2\n  pop\n  pop\n  jump\t// out\n    /* \"#utility.yul\":4205:5600   */\ntag_131:\n    /* \"#utility.yul\":4322:4359   */\n  tag_219\n    /* \"#utility.yul\":4355:4358   */\n  dup3\n    /* \"#utility.yul\":4322:4359   */\n  tag_148\n  jump\t// in\ntag_219:\n    /* \"#utility.yul\":4424:4442   */\n  0xffffffffffffffff\n    /* \"#utility.yul\":4416:4422   */\n  dup2\n    /* \"#utility.yul\":4413:4443   */\n  gt\n    /* \"#utility.yul\":4410:4466   */\n  iszero\n  tag_220\n  jumpi\n    /* \"#utility.yul\":4446:4464   */\n  tag_221\n  tag_6\n  jump\t// in\ntag_221:\n    /* \"#utility.yul\":4410:4466   */\ntag_220:\n    /* \"#utility.yul\":4490:4528   */\n  tag_222\n    /* \"#utility.yul\":4522:4526   */\n  dup3\n    /* \"#utility.yul\":4516:4527   */\n  sload\n    /* \"#utility.yul\":4490:4528   */\n  tag_150\n  jump\t// in\ntag_222:\n    /* \"#utility.yul\":4575:4642   */\n  tag_223\n    /* \"#utility.yul\":4635:4641   */\n  dup3\n    /* \"#utility.yul\":4627:4633   */\n  dup3\n    /* \"#utility.yul\":4621:4625   */\n  dup6\n    /* \"#utility.yul\":4575:4642   */\n  tag_163\n  jump\t// in\ntag_223:\n    /* \"#utility.yul\":4669:4670   */\n  0x00\n    /* \"#utility.yul\":4693:4697   */\n  0x20\n    /* \"#utility.yul\":4680:4697   */\n  swap1\n  pop\n    /* \"#utility.yul\":4725:4727   */\n  0x1f\n    /* \"#utility.yul\":4717:4723   */\n  dup4\n    /* \"#utility.yul\":4714:4728   */\n  gt\n    /* \"#utility.yul\":4742:4743   */\n  0x01\n    /* \"#utility.yul\":4737:5355   */\n  dup2\n  eq\n  tag_225\n  jumpi\n    /* \"#utility.yul\":5399:5400   */\n  0x00\n    /* \"#utility.yul\":5416:5422   */\n  dup5\n    /* \"#utility.yul\":5413:5490   */\n  iszero\n  tag_226\n  jumpi\n    /* \"#utility.yul\":5465:5474   */\n  dup3\n    /* \"#utility.yul\":5460:5463   */\n  dup8\n    /* \"#utility.yul\":5456:5475   */\n  add\n    /* \"#utility.yul\":5450:5476   */\n  mload\n    /* \"#utility.yul\":5441:5476   */\n  swap1\n  pop\n    /* \"#utility.yul\":5413:5490   */\ntag_226:\n    /* \"#utility.yul\":5516:5583   */\n  tag_227\n    /* \"#utility.yul\":5576:5582   */\n  dup6\n    /* \"#utility.yul\":5569:5574   */\n  dup3\n    /* \"#utility.yul\":5516:5583   */\n  tag_166\n  jump\t// in\ntag_227:\n    /* \"#utility.yul\":5510:5514   */\n  dup7\n    /* \"#utility.yul\":5503:5584   */\n  sstore\n    /* \"#utility.yul\":5372:5594   */\n  pop\n    /* \"#utility.yul\":4707:5594   */\n  jump(tag_224)\n    /* \"#utility.yul\":4737:5355   */\ntag_225:\n    /* \"#utility.yul\":4789:4793   */\n  0x1f\n    /* \"#utility.yul\":4785:4794   */\n  not\n    /* \"#utility.yul\":4777:4783   */\n  dup5\n    /* \"#utility.yul\":4773:4795   */\n  and\n    /* \"#utility.yul\":4823:4860   */\n  tag_228\n    /* \"#utility.yul\":4855:4859   */\n  dup7\n    /* \"#utility.yul\":4823:4860   */\n  tag_151\n  jump\t// in\ntag_228:\n    /* \"#utility.yul\":4882:4883   */\n  0x00\n    /* \"#utility.yul\":4896:5104   */\ntag_229:\n    /* \"#utility.yul\":4910:4917   */\n  dup3\n    /* \"#utility.yul\":4907:4908   */\n  dup2\n    /* \"#utility.yul\":4904:4918   */\n  lt\n    /* \"#utility.yul\":4896:5104   */\n  iszero\n  tag_231\n  jumpi\n    /* \"#utility.yul\":4989:4998   */\n  dup5\n    /* \"#utility.yul\":4984:4987   */\n  dup10\n    /* \"#utility.yul\":4980:4999   */\n  add\n    /* \"#utility.yul\":4974:5000   */\n  mload\n    /* \"#utility.yul\":4966:4972   */\n  dup3\n    /* \"#utility.yul\":4959:5001   */\n  sstore\n    /* \"#utility.yul\":5040:5041   */\n  0x01\n    /* \"#utility.yul\":5032:5038   */\n  dup3\n    /* \"#utility.yul\":5028:5042   */\n  add\n    /* \"#utility.yul\":5018:5042   */\n  swap2\n  pop\n    /* \"#utility.yul\":5087:5089   */\n  0x20\n    /* \"#utility.yul\":5076:5085   */\n  dup6\n    /* \"#utility.yul\":5072:5090   */\n  add\n    /* \"#utility.yul\":5059:5090   */\n  swap5\n  pop\n    /* \"#utility.yul\":4933:4937   */\n  0x20\n    /* \"#utility.yul\":4930:4931   */\n  dup2\n    /* \"#utility.yul\":4926:4938   */\n  add\n    /* \"#utility.yul\":4921:4938   */\n  swap1\n  pop\n    /* \"#utility.yul\":4896:5104   */\n  jump(tag_229)\ntag_231:\n    /* \"#utility.yul\":5132:5138   */\n  dup7\n    /* \"#utility.yul\":5123:5130   */\n  dup4\n    /* \"#utility.yul\":5120:5139   */\n  lt\n    /* \"#utility.yul\":5117:5296   */\n  iszero\n  tag_232\n  jumpi\n    /* \"#utility.yul\":5190:5199   */\n  dup5\n    /* \"#utility.yul\":5185:5188   */\n  dup10\n    /* \"#utility.yul\":5181:5200   */\n  add\n    /* \"#utility.yul\":5175:5201   */\n  mload\n    /* \"#utility.yul\":5233:5281   */\n  tag_233\n    /* \"#utility.yul\":5275:5279   */\n  0x1f\n    /* \"#utility.yul\":5267:5273   */\n  dup10\n    /* \"#utility.yul\":5263:5280   */\n  and\n    /* \"#utility.yul\":5252:5261   */\n  dup3\n    /* \"#utility.yul\":5233:5281   */\n  tag_165\n  jump\t// in\ntag_233:\n    /* \"#utility.yul\":5225:5231   */\n  dup4\n    /* \"#utility.yul\":5218:5282   */\n  sstore\n    /* \"#utility.yul\":5140:5296   */\n  pop\n    /* \"#utility.yul\":5117:5296   */\ntag_232:\n    /* \"#utility.yul\":5342:5343   */\n  0x01\n    /* \"#utility.yul\":5338:5339   */\n  0x02\n    /* \"#utility.yul\":5330:5336   */\n  dup9\n    /* \"#utility.yul\":5326:5340   */\n  mul\n    /* \"#utility.yul\":5322:5344   */\n  add\n    /* \"#utility.yul\":5316:5320   */\n  dup9\n    /* \"#utility.yul\":5309:5345   */\n  sstore\n    /* \"#utility.yul\":4744:5355   */\n  pop\n  pop\n  pop\n    /* \"#utility.yul\":4707:5594   */\ntag_224:\n  pop\n    /* \"#utility.yul\":4297:5600   */\n  pop\n  pop\n  pop\n    /* \"#utility.yul\":4205:5600   */\n  pop\n  pop\n  jump\t// out\n    /* \"#utility.yul\":5606:5754   */\ntag_167:\n    /* \"#utility.yul\":5708:5719   */\n  0x00\n    /* \"#utility.yul\":5745:5748   */\n  dup2\n    /* \"#utility.yul\":5730:5748   */\n  swap1\n  pop\n    /* \"#utility.yul\":5606:5754   */\n  swap3\n  swap2\n  pop\n  pop\n  jump\t// out\n    /* \"#utility.yul\":5760:6006   */\ntag_168:\n    /* \"#utility.yul\":5841:5842   */\n  0x00\n    /* \"#utility.yul\":5851:5964   */\ntag_236:\n    /* \"#utility.yul\":5865:5871   */\n  dup4\n    /* \"#utility.yul\":5862:5863   */\n  dup2\n    /* \"#utility.yul\":5859:5872   */\n  lt\n    /* \"#utility.yul\":5851:5964   */\n  iszero\n  tag_238\n  jumpi\n    /* \"#utility.yul\":5950:5951   */\n  dup1\n    /* \"#utility.yul\":5945:5948   */\n  dup3\n    /* \"#utility.yul\":5941:5952   */\n  add\n    /* \"#utility.yul\":5935:5953   */\n  mload\n    /* \"#utility.yul\":5931:5932   */\n  dup2\n    /* \"#utility.yul\":5926:5929   */\n  dup5\n    /* \"#utility.yul\":5922:5933   */\n  add\n    /* \"#utility.yul\":5915:5954   */\n  mstore\n    /* \"#utility.yul\":5887:5889   */\n  0x20\n    /* \"#utility.yul\":5884:5885   */\n  dup2\n    /* \"#utility.yul\":5880:5890   */\n  add\n    /* \"#utility.yul\":5875:5890   */\n  swap1\n  pop\n    /* \"#utility.yul\":5851:5964   */\n  jump(tag_236)\ntag_238:\n    /* \"#utility.yul\":5998:5999   */\n  0x00\n    /* \"#utility.yul\":5989:5995   */\n  dup5\n    /* \"#utility.yul\":5984:5987   */\n  dup5\n    /* \"#utility.yul\":5980:5996   */\n  add\n    /* \"#utility.yul\":5973:6000   */\n  mstore\n    /* \"#utility.yul\":5822:6006   */\n  pop\n    /* \"#utility.yul\":5760:6006   */\n  pop\n  pop\n  pop\n  jump\t// out\n    /* \"#utility.yul\":6012:6402   */\ntag_169:\n    /* \"#utility.yul\":6118:6121   */\n  0x00\n    /* \"#utility.yul\":6146:6185   */\n  tag_240\n    /* \"#utility.yul\":6179:6184   */\n  dup3\n    /* \"#utility.yul\":6146:6185   */\n  tag_148\n  jump\t// in\ntag_240:\n    /* \"#utility.yul\":6201:6290   */\n  tag_241\n    /* \"#utility.yul\":6283:6289   */\n  dup2\n    /* \"#utility.yul\":6278:6281   */\n  dup6\n    /* \"#utility.yul\":6201:6290   */\n  tag_167\n  jump\t// in\ntag_241:\n    /* \"#utility.yul\":6194:6290   */\n  swap4\n  pop\n    /* \"#utility.yul\":6299:6364   */\n  tag_242\n    /* \"#utility.yul\":6357:6363   */\n  dup2\n    /* \"#utility.yul\":6352:6355   */\n  dup6\n    /* \"#utility.yul\":6345:6349   */\n  0x20\n    /* \"#utility.yul\":6338:6343   */\n  dup7\n    /* \"#utility.yul\":6334:6350   */\n  add\n    /* \"#utility.yul\":6299:6364   */\n  tag_168\n  jump\t// in\ntag_242:\n    /* \"#utility.yul\":6389:6395   */\n  dup1\n    /* \"#utility.yul\":6384:6387   */\n  dup5\n    /* \"#utility.yul\":6380:6396   */\n  add\n    /* \"#utility.yul\":6373:6396   */\n  swap2\n  pop\n    /* \"#utility.yul\":6122:6402   */\n  pop\n    /* \"#utility.yul\":6012:6402   */\n  swap3\n  swap2\n  pop\n  pop\n  jump\t// out\n    /* \"#utility.yul\":6408:6683   */\ntag_133:\n    /* \"#utility.yul\":6540:6543   */\n  0x00\n    /* \"#utility.yul\":6562:6657   */\n  tag_244\n    /* \"#utility.yul\":6653:6656   */\n  dup3\n    /* \"#utility.yul\":6644:6650   */\n  dup5\n    /* \"#utility.yul\":6562:6657   */\n  tag_169\n  jump\t// in\ntag_244:\n    /* \"#utility.yul\":6555:6657   */\n  swap2\n  pop\n    /* \"#utility.yul\":6674:6677   */\n  dup2\n    /* \"#utility.yul\":6667:6677   */\n  swap1\n  pop\n    /* \"#utility.yul\":6408:6683   */\n  swap3\n  swap2\n  pop\n  pop\n  jump\t// out\n    /* \"contracts/AmeComponents/VibeProfiles/VibeProfiles.sol\":193:10055  contract VibeComment is IComponent {... */\ntag_123:\n  dataSize(sub_0)\n  dup1\n  dataOffset(sub_0)\n  0x00\n  codecopy\n  0x00\n  return\nstop\n\nsub_0: assembly {\n        /* \"contracts/AmeComponents/VibeProfiles/VibeProfiles.sol\":193:10055  contract VibeComment is IComponent {... */\n      mstore(0x40, 0x80)\n      jumpi(tag_1, lt(calldatasize, 0x04))\n      shr(0xe0, calldataload(0x00))\n      dup1\n      0x6818ba1d\n      gt\n      tag_12\n      jumpi\n      dup1\n      0x6818ba1d\n      eq\n      tag_7\n      jumpi\n      dup1\n      0xaff62745\n      eq\n      tag_8\n      jumpi\n      dup1\n      0xb6ae0425\n      eq\n      tag_9\n      jumpi\n      dup1\n      0xe9536472\n      eq\n      tag_10\n      jumpi\n      dup1\n      0xf4856ccb\n      eq\n      tag_11\n      jumpi\n      jump(tag_1)\n    tag_12:\n      dup1\n      0x1069143a\n      eq\n      tag_2\n      jumpi\n      dup1\n      0x3e413065\n      eq\n      tag_3\n      jumpi\n      dup1\n      0x3eae02b3\n      eq\n      tag_4\n      jumpi\n      dup1\n      0x44237454\n      eq\n      tag_5\n      jumpi\n      dup1\n      0x458ad6d4\n      eq\n      tag_6\n      jumpi\n    tag_1:\n      0x00\n      dup1\n      revert\n        /* \"contracts/AmeComponents/VibeProfiles/VibeProfiles.sol\":4933:5268  function options() public pure returns (MethodTypes[] memory) {... */\n    tag_2:\n      callvalue\n      dup1\n      iszero\n      tag_13\n      jumpi\n      0x00\n      dup1\n      revert\n    tag_13:\n      pop\n      tag_14\n      tag_15\n      jump\t// in\n    tag_14:\n      mload(0x40)\n      tag_16\n      swap2\n      swap1\n      tag_17\n      jump\t// in\n    tag_16:\n      mload(0x40)\n      dup1\n      swap2\n      sub\n      swap1\n      return\n        /* \"contracts/AmeComponents/VibeProfiles/VibeProfiles.sol\":472:497  uint256 public commentIds */\n    tag_3:\n      callvalue\n      dup1\n      iszero\n      tag_18\n      jumpi\n      0x00\n      dup1\n      revert\n    tag_18:\n      pop\n      tag_19\n      tag_20\n      jump\t// in\n    tag_19:\n      mload(0x40)\n      tag_21\n      swap2\n      swap1\n      tag_22\n      jump\t// in\n    tag_21:\n      mload(0x40)\n      dup1\n      swap2\n      sub\n      swap1\n      return\n        /* \"contracts/AmeComponents/VibeProfiles/VibeProfiles.sol\":9305:10053  function generateBase64(... */\n    tag_4:\n      callvalue\n      dup1\n      iszero\n      tag_23\n      jumpi\n      0x00\n      dup1\n      revert\n    tag_23:\n      pop\n      tag_24\n      0x04\n      dup1\n      calldatasize\n      sub\n      dup2\n      add\n      swap1\n      tag_25\n      swap2\n      swap1\n      tag_26\n      jump\t// in\n    tag_25:\n      tag_27\n      jump\t// in\n    tag_24:\n      mload(0x40)\n      tag_28\n      swap2\n      swap1\n      tag_29\n      jump\t// in\n    tag_28:\n      mload(0x40)\n      dup1\n      swap2\n      sub\n      swap1\n      return\n        /* \"contracts/AmeComponents/VibeProfiles/VibeProfiles.sol\":7793:9299  function getCommentsByAddress(... */\n    tag_5:\n      callvalue\n      dup1\n      iszero\n      tag_30\n      jumpi\n      0x00\n      dup1\n      revert\n    tag_30:\n      pop\n      tag_31\n      0x04\n      dup1\n      calldatasize\n      sub\n      dup2\n      add\n      swap1\n      tag_32\n      swap2\n      swap1\n      tag_33\n      jump\t// in\n    tag_32:\n      tag_34\n      jump\t// in\n    tag_31:\n      mload(0x40)\n      tag_35\n      swap2\n      swap1\n      tag_36\n      jump\t// in\n    tag_35:\n      mload(0x40)\n      dup1\n      swap2\n      sub\n      swap1\n      return\n        /* \"contracts/AmeComponents/VibeProfiles/VibeProfiles.sol\":5617:5846  function getMethodReqAndRes(string memory _methodName)... */\n    tag_6:\n      callvalue\n      dup1\n      iszero\n      tag_37\n      jumpi\n      0x00\n      dup1\n      revert\n    tag_37:\n      pop\n      tag_38\n      0x04\n      dup1\n      calldatasize\n      sub\n      dup2\n      add\n      swap1\n      tag_39\n      swap2\n      swap1\n      tag_40\n      jump\t// in\n    tag_39:\n      tag_41\n      jump\t// in\n    tag_38:\n      mload(0x40)\n      tag_42\n      swap3\n      swap2\n      swap1\n      tag_43\n      jump\t// in\n    tag_42:\n      mload(0x40)\n      dup1\n      swap2\n      sub\n      swap1\n      return\n        /* \"contracts/AmeComponents/VibeProfiles/VibeProfiles.sol\":6284:7786  function getComments(... */\n    tag_7:\n      callvalue\n      dup1\n      iszero\n      tag_44\n      jumpi\n      0x00\n      dup1\n      revert\n    tag_44:\n      pop\n      tag_45\n      0x04\n      dup1\n      calldatasize\n      sub\n      dup2\n      add\n      swap1\n      tag_46\n      swap2\n      swap1\n      tag_47\n      jump\t// in\n    tag_46:\n      tag_48\n      jump\t// in\n    tag_45:\n      mload(0x40)\n      tag_49\n      swap2\n      swap1\n      tag_36\n      jump\t// in\n    tag_49:\n      mload(0x40)\n      dup1\n      swap2\n      sub\n      swap1\n      return\n        /* \"contracts/AmeComponents/VibeProfiles/VibeProfiles.sol\":2160:3505  function get(string memory _methodName, bytes memory _methodReq)... */\n    tag_8:\n      callvalue\n      dup1\n      iszero\n      tag_50\n      jumpi\n      0x00\n      dup1\n      revert\n    tag_50:\n      pop\n      tag_51\n      0x04\n      dup1\n      calldatasize\n      sub\n      dup2\n      add\n      swap1\n      tag_52\n      swap2\n      swap1\n      tag_53\n      jump\t// in\n    tag_52:\n      tag_54\n      jump\t// in\n    tag_51:\n      mload(0x40)\n      tag_55\n      swap2\n      swap1\n      tag_56\n      jump\t// in\n    tag_55:\n      mload(0x40)\n      dup1\n      swap2\n      sub\n      swap1\n      return\n        /* \"contracts/AmeComponents/VibeProfiles/VibeProfiles.sol\":3511:4731  function post(string memory _methodName, bytes memory _methodReq)... */\n    tag_9:\n      tag_57\n      0x04\n      dup1\n      calldatasize\n      sub\n      dup2\n      add\n      swap1\n      tag_58\n      swap2\n      swap1\n      tag_53\n      jump\t// in\n    tag_58:\n      tag_59\n      jump\t// in\n    tag_57:\n      mload(0x40)\n      tag_60\n      swap2\n      swap1\n      tag_56\n      jump\t// in\n    tag_60:\n      mload(0x40)\n      dup1\n      swap2\n      sub\n      swap1\n      return\n        /* \"contracts/AmeComponents/VibeProfiles/VibeProfiles.sol\":4737:4927  function put(string memory _methodName, bytes memory _methodReq)... */\n    tag_10:\n      tag_61\n      0x04\n      dup1\n      calldatasize\n      sub\n      dup2\n      add\n      swap1\n      tag_62\n      swap2\n      swap1\n      tag_53\n      jump\t// in\n    tag_62:\n      tag_63\n      jump\t// in\n    tag_61:\n      mload(0x40)\n      tag_64\n      swap2\n      swap1\n      tag_56\n      jump\t// in\n    tag_64:\n      mload(0x40)\n      dup1\n      swap2\n      sub\n      swap1\n      return\n        /* \"contracts/AmeComponents/VibeProfiles/VibeProfiles.sol\":5852:6009  function getMethods(MethodTypes _methodTypes)... */\n    tag_11:\n      callvalue\n      dup1\n      iszero\n      tag_65\n      jumpi\n      0x00\n      dup1\n      revert\n    tag_65:\n      pop\n      tag_66\n      0x04\n      dup1\n      calldatasize\n      sub\n      dup2\n      add\n      swap1\n      tag_67\n      swap2\n      swap1\n      tag_68\n      jump\t// in\n    tag_67:\n      tag_69\n      jump\t// in\n    tag_66:\n      mload(0x40)\n      tag_70\n      swap2\n      swap1\n      tag_36\n      jump\t// in\n    tag_70:\n      mload(0x40)\n      dup1\n      swap2\n      sub\n      swap1\n      return\n        /* \"contracts/AmeComponents/VibeProfiles/VibeProfiles.sol\":4933:5268  function options() public pure returns (MethodTypes[] memory) {... */\n    tag_15:\n        /* \"contracts/AmeComponents/VibeProfiles/VibeProfiles.sol\":4973:4993  MethodTypes[] memory */\n      0x60\n        /* \"contracts/AmeComponents/VibeProfiles/VibeProfiles.sol\":5005:5037  MethodTypes[] memory methodTypes */\n      0x00\n        /* \"contracts/AmeComponents/VibeProfiles/VibeProfiles.sol\":5058:5059  4 */\n      0x04\n        /* \"contracts/AmeComponents/VibeProfiles/VibeProfiles.sol\":5040:5060  new MethodTypes[](4) */\n      0xffffffffffffffff\n      dup2\n      gt\n      iszero\n      tag_72\n      jumpi\n      tag_73\n      tag_74\n      jump\t// in\n    tag_73:\n    tag_72:\n      mload(0x40)\n      swap1\n      dup1\n      dup3\n      mstore\n      dup1\n      0x20\n      mul\n      0x20\n      add\n      dup3\n      add\n      0x40\n      mstore\n      dup1\n      iszero\n      tag_75\n      jumpi\n      dup2\n      0x20\n      add\n      0x20\n      dup3\n      mul\n      dup1\n      calldatasize\n      dup4\n      calldatacopy\n      dup1\n      dup3\n      add\n      swap2\n      pop\n      pop\n      swap1\n      pop\n    tag_75:\n      pop\n        /* \"contracts/AmeComponents/VibeProfiles/VibeProfiles.sol\":5005:5060  MethodTypes[] memory methodTypes = new MethodTypes[](4) */\n      swap1\n      pop\n        /* \"contracts/AmeComponents/VibeProfiles/VibeProfiles.sol\":5087:5102  MethodTypes.GET */\n      0x00\n        /* \"contracts/AmeComponents/VibeProfiles/VibeProfiles.sol\":5070:5081  methodTypes */\n      dup2\n        /* \"contracts/AmeComponents/VibeProfiles/VibeProfiles.sol\":5082:5083  0 */\n      0x00\n        /* \"contracts/AmeComponents/VibeProfiles/VibeProfiles.sol\":5070:5084  methodTypes[0] */\n      dup2\n      mload\n      dup2\n      lt\n      tag_76\n      jumpi\n      tag_77\n      tag_78\n      jump\t// in\n    tag_77:\n    tag_76:\n      0x20\n      mul\n      0x20\n      add\n      add\n        /* \"contracts/AmeComponents/VibeProfiles/VibeProfiles.sol\":5070:5102  methodTypes[0] = MethodTypes.GET */\n      swap1\n      0x03\n      dup2\n      gt\n      iszero\n      tag_79\n      jumpi\n      tag_80\n      tag_81\n      jump\t// in\n    tag_80:\n    tag_79:\n      swap1\n      dup2\n      0x03\n      dup2\n      gt\n      iszero\n      tag_82\n      jumpi\n      tag_83\n      tag_81\n      jump\t// in\n    tag_83:\n    tag_82:\n      dup2\n      mstore\n      pop\n      pop\n        /* \"contracts/AmeComponents/VibeProfiles/VibeProfiles.sol\":5129:5145  MethodTypes.POST */\n      0x01\n        /* \"contracts/AmeComponents/VibeProfiles/VibeProfiles.sol\":5112:5123  methodTypes */\n      dup2\n        /* \"contracts/AmeComponents/VibeProfiles/VibeProfiles.sol\":5124:5125  1 */\n      0x01\n        /* \"contracts/AmeComponents/VibeProfiles/VibeProfiles.sol\":5112:5126  methodTypes[1] */\n      dup2\n      mload\n      dup2\n      lt\n      tag_84\n      jumpi\n      tag_85\n      tag_78\n      jump\t// in\n    tag_85:\n    tag_84:\n      0x20\n      mul\n      0x20\n      add\n      add\n        /* \"contracts/AmeComponents/VibeProfiles/VibeProfiles.sol\":5112:5145  methodTypes[1] = MethodTypes.POST */\n      swap1\n      0x03\n      dup2\n      gt\n      iszero\n      tag_86\n      jumpi\n      tag_87\n      tag_81\n      jump\t// in\n    tag_87:\n    tag_86:\n      swap1\n      dup2\n      0x03\n      dup2\n      gt\n      iszero\n      tag_88\n      jumpi\n      tag_89\n      tag_81\n      jump\t// in\n    tag_89:\n    tag_88:\n      dup2\n      mstore\n      pop\n      pop\n        /* \"contracts/AmeComponents/VibeProfiles/VibeProfiles.sol\":5172:5187  MethodTypes.PUT */\n      0x02\n        /* \"contracts/AmeComponents/VibeProfiles/VibeProfiles.sol\":5155:5166  methodTypes */\n      dup2\n        /* \"contracts/AmeComponents/VibeProfiles/VibeProfiles.sol\":5167:5168  2 */\n      0x02\n        /* \"contracts/AmeComponents/VibeProfiles/VibeProfiles.sol\":5155:5169  methodTypes[2] */\n      dup2\n      mload\n      dup2\n      lt\n      tag_90\n      jumpi\n      tag_91\n      tag_78\n      jump\t// in\n    tag_91:\n    tag_90:\n      0x20\n      mul\n      0x20\n      add\n      add\n        /* \"contracts/AmeComponents/VibeProfiles/VibeProfiles.sol\":5155:5187  methodTypes[2] = MethodTypes.PUT */\n      swap1\n      0x03\n      dup2\n      gt\n      iszero\n      tag_92\n      jumpi\n      tag_93\n      tag_81\n      jump\t// in\n    tag_93:\n    tag_92:\n      swap1\n      dup2\n      0x03\n      dup2\n      gt\n      iszero\n      tag_94\n      jumpi\n      tag_95\n      tag_81\n      jump\t// in\n    tag_95:\n    tag_94:\n      dup2\n      mstore\n      pop\n      pop\n        /* \"contracts/AmeComponents/VibeProfiles/VibeProfiles.sol\":5214:5233  MethodTypes.OPTIONS */\n      0x03\n        /* \"contracts/AmeComponents/VibeProfiles/VibeProfiles.sol\":5197:5208  methodTypes */\n      dup2\n        /* \"contracts/AmeComponents/VibeProfiles/VibeProfiles.sol\":5209:5210  3 */\n      0x03\n        /* \"contracts/AmeComponents/VibeProfiles/VibeProfiles.sol\":5197:5211  methodTypes[3] */\n      dup2\n      mload\n      dup2\n      lt\n      tag_96\n      jumpi\n      tag_97\n      tag_78\n      jump\t// in\n    tag_97:\n    tag_96:\n      0x20\n      mul\n      0x20\n      add\n      add\n        /* \"contracts/AmeComponents/VibeProfiles/VibeProfiles.sol\":5197:5233  methodTypes[3] = MethodTypes.OPTIONS */\n      swap1\n      0x03\n      dup2\n      gt\n      iszero\n      tag_98\n      jumpi\n      tag_99\n      tag_81\n      jump\t// in\n    tag_99:\n    tag_98:\n      swap1\n      dup2\n      0x03\n      dup2\n      gt\n      iszero\n      tag_100\n      jumpi\n      tag_101\n      tag_81\n      jump\t// in\n    tag_101:\n    tag_100:\n      dup2\n      mstore\n      pop\n      pop\n        /* \"contracts/AmeComponents/VibeProfiles/VibeProfiles.sol\":5250:5261  methodTypes */\n      dup1\n        /* \"contracts/AmeComponents/VibeProfiles/VibeProfiles.sol\":5243:5261  return methodTypes */\n      swap2\n      pop\n      pop\n        /* \"contracts/AmeComponents/VibeProfiles/VibeProfiles.sol\":4933:5268  function options() public pure returns (MethodTypes[] memory) {... */\n      swap1\n      jump\t// out\n        /* \"contracts/AmeComponents/VibeProfiles/VibeProfiles.sol\":472:497  uint256 public commentIds */\n    tag_20:\n      sload(0x03)\n      dup2\n      jump\t// out\n        /* \"contracts/AmeComponents/VibeProfiles/VibeProfiles.sol\":9305:10053  function generateBase64(... */\n    tag_27:\n        /* \"contracts/AmeComponents/VibeProfiles/VibeProfiles.sol\":9498:9511  string memory */\n      0x60\n        /* \"contracts/AmeComponents/VibeProfiles/VibeProfiles.sol\":9604:9622  _vibeId.toString() */\n      tag_103\n        /* \"contracts/AmeComponents/VibeProfiles/VibeProfiles.sol\":9604:9611  _vibeId */\n      dup7\n        /* \"contracts/AmeComponents/VibeProfiles/VibeProfiles.sol\":9604:9620  _vibeId.toString */\n      tag_104\n        /* \"contracts/AmeComponents/VibeProfiles/VibeProfiles.sol\":9604:9622  _vibeId.toString() */\n      jump\t// in\n    tag_103:\n        /* \"contracts/AmeComponents/VibeProfiles/VibeProfiles.sol\":9669:9690  _commentId.toString() */\n      tag_105\n        /* \"contracts/AmeComponents/VibeProfiles/VibeProfiles.sol\":9669:9679  _commentId */\n      dup7\n        /* \"contracts/AmeComponents/VibeProfiles/VibeProfiles.sol\":9669:9688  _commentId.toString */\n      tag_104\n        /* \"contracts/AmeComponents/VibeProfiles/VibeProfiles.sol\":9669:9690  _commentId.toString() */\n      jump\t// in\n    tag_105:\n        /* \"contracts/AmeComponents/VibeProfiles/VibeProfiles.sol\":9737:9767  Base64.encode(bytes(_content)) */\n      tag_106\n        /* \"contracts/AmeComponents/VibeProfiles/VibeProfiles.sol\":9757:9765  _content */\n      dup7\n        /* \"contracts/AmeComponents/VibeProfiles/VibeProfiles.sol\":9737:9750  Base64.encode */\n      tag_107\n        /* \"contracts/AmeComponents/VibeProfiles/VibeProfiles.sol\":9737:9767  Base64.encode(bytes(_content)) */\n      jump\t// in\n    tag_106:\n        /* \"contracts/AmeComponents/VibeProfiles/VibeProfiles.sol\":9814:9846  Base64.encode(bytes(_resources)) */\n      tag_108\n        /* \"contracts/AmeComponents/VibeProfiles/VibeProfiles.sol\":9834:9844  _resources */\n      dup7\n        /* \"contracts/AmeComponents/VibeProfiles/VibeProfiles.sol\":9814:9827  Base64.encode */\n      tag_107\n        /* \"contracts/AmeComponents/VibeProfiles/VibeProfiles.sol\":9814:9846  Base64.encode(bytes(_resources)) */\n      jump\t// in\n    tag_108:\n        /* \"contracts/AmeComponents/VibeProfiles/VibeProfiles.sol\":9893:9941  Strings.toHexString(uint256(uint160(_user)), 20) */\n      tag_109\n        /* \"contracts/AmeComponents/VibeProfiles/VibeProfiles.sol\":9929:9934  _user */\n      dup7\n        /* \"contracts/AmeComponents/VibeProfiles/VibeProfiles.sol\":9913:9936  uint256(uint160(_user)) */\n      0xffffffffffffffffffffffffffffffffffffffff\n      and\n        /* \"contracts/AmeComponents/VibeProfiles/VibeProfiles.sol\":9938:9940  20 */\n      0x14\n        /* \"contracts/AmeComponents/VibeProfiles/VibeProfiles.sol\":9893:9912  Strings.toHexString */\n      tag_110\n        /* \"contracts/AmeComponents/VibeProfiles/VibeProfiles.sol\":9893:9941  Strings.toHexString(uint256(uint160(_user)), 20) */\n      jump\t// in\n    tag_109:\n        /* \"contracts/AmeComponents/VibeProfiles/VibeProfiles.sol\":9988:10014  block.timestamp.toString() */\n      tag_111\n        /* \"contracts/AmeComponents/VibeProfiles/VibeProfiles.sol\":9988:10003  block.timestamp */\n      timestamp\n        /* \"contracts/AmeComponents/VibeProfiles/VibeProfiles.sol\":9988:10012  block.timestamp.toString */\n      tag_104\n        /* \"contracts/AmeComponents/VibeProfiles/VibeProfiles.sol\":9988:10014  block.timestamp.toString() */\n      jump\t// in\n    tag_111:\n        /* \"contracts/AmeComponents/VibeProfiles/VibeProfiles.sol\":9566:10032  abi.encodePacked(... */\n      add(0x20, mload(0x40))\n      tag_112\n      swap7\n      swap6\n      swap5\n      swap4\n      swap3\n      swap2\n      swap1\n      tag_113\n      jump\t// in\n    tag_112:\n      mload(0x40)\n      0x20\n      dup2\n      dup4\n      sub\n      sub\n      dup2\n      mstore\n      swap1\n      0x40\n      mstore\n        /* \"contracts/AmeComponents/VibeProfiles/VibeProfiles.sol\":9523:10046  return... */\n      swap1\n      pop\n        /* \"contracts/AmeComponents/VibeProfiles/VibeProfiles.sol\":9305:10053  function generateBase64(... */\n      swap6\n      swap5\n      pop\n      pop\n      pop\n      pop\n      pop\n      jump\t// out\n        /* \"contracts/AmeComponents/VibeProfiles/VibeProfiles.sol\":7793:9299  function getCommentsByAddress(... */\n    tag_34:\n        /* \"contracts/AmeComponents/VibeProfiles/VibeProfiles.sol\":7926:7941  string[] memory */\n      0x60\n        /* \"contracts/AmeComponents/VibeProfiles/VibeProfiles.sol\":7985:7986  0 */\n      0x00\n        /* \"contracts/AmeComponents/VibeProfiles/VibeProfiles.sol\":7957:7974  UserCommentIndexs */\n      0x05\n        /* \"contracts/AmeComponents/VibeProfiles/VibeProfiles.sol\":7957:7981  UserCommentIndexs[_user] */\n      0x00\n        /* \"contracts/AmeComponents/VibeProfiles/VibeProfiles.sol\":7975:7980  _user */\n      dup7\n        /* \"contracts/AmeComponents/VibeProfiles/VibeProfiles.sol\":7957:7981  UserCommentIndexs[_user] */\n      0xffffffffffffffffffffffffffffffffffffffff\n      and\n      0xffffffffffffffffffffffffffffffffffffffff\n      and\n      dup2\n      mstore\n      0x20\n      add\n      swap1\n      dup2\n      mstore\n      0x20\n      add\n      0x00\n      keccak256\n      sload\n        /* \"contracts/AmeComponents/VibeProfiles/VibeProfiles.sol\":7957:7986  UserCommentIndexs[_user] == 0 */\n      sub\n        /* \"contracts/AmeComponents/VibeProfiles/VibeProfiles.sol\":7953:9293  if (UserCommentIndexs[_user] == 0) {... */\n      tag_115\n      jumpi\n        /* \"contracts/AmeComponents/VibeProfiles/VibeProfiles.sol\":8002:8027  string[] memory tempArray */\n      0x00\n        /* \"contracts/AmeComponents/VibeProfiles/VibeProfiles.sol\":8043:8044  0 */\n      dup1\n        /* \"contracts/AmeComponents/VibeProfiles/VibeProfiles.sol\":8030:8045  new string[](0) */\n      0xffffffffffffffff\n      dup2\n      gt\n      iszero\n      tag_116\n      jumpi\n      tag_117\n      tag_74\n      jump\t// in\n    tag_117:\n    tag_116:\n      mload(0x40)\n      swap1\n      dup1\n      dup3\n      mstore\n      dup1\n      0x20\n      mul\n      0x20\n      add\n      dup3\n      add\n      0x40\n      mstore\n      dup1\n      iszero\n      tag_118\n      jumpi\n      dup2\n      0x20\n      add\n    tag_119:\n      0x60\n      dup2\n      mstore\n      0x20\n      add\n      swap1\n      0x01\n      swap1\n      sub\n      swap1\n      dup2\n      tag_119\n      jumpi\n      swap1\n      pop\n    tag_118:\n      pop\n        /* \"contracts/AmeComponents/VibeProfiles/VibeProfiles.sol\":8002:8045  string[] memory tempArray = new string[](0) */\n      swap1\n      pop\n        /* \"contracts/AmeComponents/VibeProfiles/VibeProfiles.sol\":8066:8075  tempArray */\n      dup1\n        /* \"contracts/AmeComponents/VibeProfiles/VibeProfiles.sol\":8059:8075  return tempArray */\n      swap2\n      pop\n      pop\n      jump(tag_114)\n        /* \"contracts/AmeComponents/VibeProfiles/VibeProfiles.sol\":7953:9293  if (UserCommentIndexs[_user] == 0) {... */\n    tag_115:\n        /* \"contracts/AmeComponents/VibeProfiles/VibeProfiles.sol\":8138:8139  1 */\n      0x01\n        /* \"contracts/AmeComponents/VibeProfiles/VibeProfiles.sol\":8127:8135  _pageNum */\n      dup4\n        /* \"contracts/AmeComponents/VibeProfiles/VibeProfiles.sol\":8127:8139  _pageNum > 1 */\n      gt\n        /* \"contracts/AmeComponents/VibeProfiles/VibeProfiles.sol\":8127:8220  _pageNum > 1 &&... */\n      dup1\n      iszero\n      tag_121\n      jumpi\n      pop\n        /* \"contracts/AmeComponents/VibeProfiles/VibeProfiles.sol\":8218:8219  1 */\n      0x01\n        /* \"contracts/AmeComponents/VibeProfiles/VibeProfiles.sol\":8207:8215  _pageNum */\n      dup4\n        /* \"contracts/AmeComponents/VibeProfiles/VibeProfiles.sol\":8207:8219  _pageNum - 1 */\n      tag_122\n      swap2\n      swap1\n      tag_123\n      jump\t// in\n    tag_122:\n        /* \"contracts/AmeComponents/VibeProfiles/VibeProfiles.sol\":8193:8202  _pageSize */\n      dup3\n        /* \"contracts/AmeComponents/VibeProfiles/VibeProfiles.sol\":8188:8189  1 */\n      0x01\n        /* \"contracts/AmeComponents/VibeProfiles/VibeProfiles.sol\":8161:8178  UserCommentIndexs */\n      0x05\n        /* \"contracts/AmeComponents/VibeProfiles/VibeProfiles.sol\":8161:8185  UserCommentIndexs[_user] */\n      0x00\n        /* \"contracts/AmeComponents/VibeProfiles/VibeProfiles.sol\":8179:8184  _user */\n      dup9\n        /* \"contracts/AmeComponents/VibeProfiles/VibeProfiles.sol\":8161:8185  UserCommentIndexs[_user] */\n      0xffffffffffffffffffffffffffffffffffffffff\n      and\n      0xffffffffffffffffffffffffffffffffffffffff\n      and\n      dup2\n      mstore\n      0x20\n      add\n      swap1\n      dup2\n      mstore\n      0x20\n      add\n      0x00\n      keccak256\n      sload\n        /* \"contracts/AmeComponents/VibeProfiles/VibeProfiles.sol\":8161:8189  UserCommentIndexs[_user] - 1 */\n      tag_124\n      swap2\n      swap1\n      tag_123\n      jump\t// in\n    tag_124:\n        /* \"contracts/AmeComponents/VibeProfiles/VibeProfiles.sol\":8160:8202  (UserCommentIndexs[_user] - 1) / _pageSize */\n      tag_125\n      swap2\n      swap1\n      tag_126\n      jump\t// in\n    tag_125:\n        /* \"contracts/AmeComponents/VibeProfiles/VibeProfiles.sol\":8159:8220  ((UserCommentIndexs[_user] - 1) / _pageSize) < (_pageNum - 1) */\n      lt\n        /* \"contracts/AmeComponents/VibeProfiles/VibeProfiles.sol\":8127:8220  _pageNum > 1 &&... */\n    tag_121:\n        /* \"contracts/AmeComponents/VibeProfiles/VibeProfiles.sol\":8106:9283  if (... */\n      iszero\n      tag_127\n      jumpi\n        /* \"contracts/AmeComponents/VibeProfiles/VibeProfiles.sol\":8253:8278  string[] memory tempArray */\n      0x00\n        /* \"contracts/AmeComponents/VibeProfiles/VibeProfiles.sol\":8294:8295  0 */\n      dup1\n        /* \"contracts/AmeComponents/VibeProfiles/VibeProfiles.sol\":8281:8296  new string[](0) */\n      0xffffffffffffffff\n      dup2\n      gt\n      iszero\n      tag_128\n      jumpi\n      tag_129\n      tag_74\n      jump\t// in\n    tag_129:\n    tag_128:\n      mload(0x40)\n      swap1\n      dup1\n      dup3\n      mstore\n      dup1\n      0x20\n      mul\n      0x20\n      add\n      dup3\n      add\n      0x40\n      mstore\n      dup1\n      iszero\n      tag_130\n      jumpi\n      dup2\n      0x20\n      add\n    tag_131:\n      0x60\n      dup2\n      mstore\n      0x20\n      add\n      swap1\n      0x01\n      swap1\n      sub\n      swap1\n      dup2\n      tag_131\n      jumpi\n      swap1\n      pop\n    tag_130:\n      pop\n        /* \"contracts/AmeComponents/VibeProfiles/VibeProfiles.sol\":8253:8296  string[] memory tempArray = new string[](0) */\n      swap1\n      pop\n        /* \"contracts/AmeComponents/VibeProfiles/VibeProfiles.sol\":8321:8330  tempArray */\n      dup1\n        /* \"contracts/AmeComponents/VibeProfiles/VibeProfiles.sol\":8314:8330  return tempArray */\n      swap2\n      pop\n      pop\n      jump(tag_114)\n        /* \"contracts/AmeComponents/VibeProfiles/VibeProfiles.sol\":8106:9283  if (... */\n    tag_127:\n        /* \"contracts/AmeComponents/VibeProfiles/VibeProfiles.sol\":8369:8388  uint256 arrayLength */\n      0x00\n        /* \"contracts/AmeComponents/VibeProfiles/VibeProfiles.sol\":8406:8424  uint256 arrayIndex */\n      dup1\n        /* \"contracts/AmeComponents/VibeProfiles/VibeProfiles.sol\":8427:8428  0 */\n      0x00\n        /* \"contracts/AmeComponents/VibeProfiles/VibeProfiles.sol\":8406:8428  uint256 arrayIndex = 0 */\n      swap1\n      pop\n        /* \"contracts/AmeComponents/VibeProfiles/VibeProfiles.sol\":8447:8464  uint256 dataStart */\n      0x00\n        /* \"contracts/AmeComponents/VibeProfiles/VibeProfiles.sol\":8557:8566  _pageSize */\n      dup5\n        /* \"contracts/AmeComponents/VibeProfiles/VibeProfiles.sol\":8532:8533  1 */\n      0x01\n        /* \"contracts/AmeComponents/VibeProfiles/VibeProfiles.sol\":8521:8529  _pageNum */\n      dup8\n        /* \"contracts/AmeComponents/VibeProfiles/VibeProfiles.sol\":8521:8533  _pageNum - 1 */\n      tag_133\n      swap2\n      swap1\n      tag_123\n      jump\t// in\n    tag_133:\n        /* \"contracts/AmeComponents/VibeProfiles/VibeProfiles.sol\":8520:8566  (_pageNum - 1) *... */\n      tag_134\n      swap2\n      swap1\n      tag_135\n      jump\t// in\n    tag_134:\n        /* \"contracts/AmeComponents/VibeProfiles/VibeProfiles.sol\":8495:8496  1 */\n      0x01\n        /* \"contracts/AmeComponents/VibeProfiles/VibeProfiles.sol\":8468:8485  UserCommentIndexs */\n      0x05\n        /* \"contracts/AmeComponents/VibeProfiles/VibeProfiles.sol\":8468:8492  UserCommentIndexs[_user] */\n      0x00\n        /* \"contracts/AmeComponents/VibeProfiles/VibeProfiles.sol\":8486:8491  _user */\n      dup11\n        /* \"contracts/AmeComponents/VibeProfiles/VibeProfiles.sol\":8468:8492  UserCommentIndexs[_user] */\n      0xffffffffffffffffffffffffffffffffffffffff\n      and\n      0xffffffffffffffffffffffffffffffffffffffff\n      and\n      dup2\n      mstore\n      0x20\n      add\n      swap1\n      dup2\n      mstore\n      0x20\n      add\n      0x00\n      keccak256\n      sload\n        /* \"contracts/AmeComponents/VibeProfiles/VibeProfiles.sol\":8468:8496  UserCommentIndexs[_user] - 1 */\n      tag_136\n      swap2\n      swap1\n      tag_123\n      jump\t// in\n    tag_136:\n        /* \"contracts/AmeComponents/VibeProfiles/VibeProfiles.sol\":8467:8566  (UserCommentIndexs[_user] - 1) -... */\n      tag_137\n      swap2\n      swap1\n      tag_123\n      jump\t// in\n    tag_137:\n        /* \"contracts/AmeComponents/VibeProfiles/VibeProfiles.sol\":8447:8566  uint256 dataStart = (UserCommentIndexs[_user] - 1) -... */\n      swap1\n      pop\n        /* \"contracts/AmeComponents/VibeProfiles/VibeProfiles.sol\":8584:8599  uint256 dataEnd */\n      0x00\n        /* \"contracts/AmeComponents/VibeProfiles/VibeProfiles.sol\":8634:8643  _pageSize */\n      dup6\n        /* \"contracts/AmeComponents/VibeProfiles/VibeProfiles.sol\":8622:8631  dataStart */\n      dup3\n        /* \"contracts/AmeComponents/VibeProfiles/VibeProfiles.sol\":8622:8643  dataStart < _pageSize */\n      lt\n        /* \"contracts/AmeComponents/VibeProfiles/VibeProfiles.sol\":8618:8873  if (dataStart < _pageSize) {... */\n      iszero\n      tag_138\n      jumpi\n        /* \"contracts/AmeComponents/VibeProfiles/VibeProfiles.sol\":8677:8678  0 */\n      0x00\n        /* \"contracts/AmeComponents/VibeProfiles/VibeProfiles.sol\":8667:8678  dataEnd = 0 */\n      swap1\n      pop\n        /* \"contracts/AmeComponents/VibeProfiles/VibeProfiles.sol\":8726:8727  1 */\n      0x01\n        /* \"contracts/AmeComponents/VibeProfiles/VibeProfiles.sol\":8714:8723  dataStart */\n      dup3\n        /* \"contracts/AmeComponents/VibeProfiles/VibeProfiles.sol\":8714:8727  dataStart + 1 */\n      tag_139\n      swap2\n      swap1\n      tag_140\n      jump\t// in\n    tag_139:\n        /* \"contracts/AmeComponents/VibeProfiles/VibeProfiles.sol\":8700:8727  arrayLength = dataStart + 1 */\n      swap4\n      pop\n        /* \"contracts/AmeComponents/VibeProfiles/VibeProfiles.sol\":8618:8873  if (dataStart < _pageSize) {... */\n      jump(tag_141)\n    tag_138:\n        /* \"contracts/AmeComponents/VibeProfiles/VibeProfiles.sol\":8808:8809  1 */\n      0x01\n        /* \"contracts/AmeComponents/VibeProfiles/VibeProfiles.sol\":8796:8805  _pageSize */\n      dup7\n        /* \"contracts/AmeComponents/VibeProfiles/VibeProfiles.sol\":8784:8793  dataStart */\n      dup4\n        /* \"contracts/AmeComponents/VibeProfiles/VibeProfiles.sol\":8784:8805  dataStart - _pageSize */\n      tag_142\n      swap2\n      swap1\n      tag_123\n      jump\t// in\n    tag_142:\n        /* \"contracts/AmeComponents/VibeProfiles/VibeProfiles.sol\":8784:8809  dataStart - _pageSize + 1 */\n      tag_143\n      swap2\n      swap1\n      tag_140\n      jump\t// in\n    tag_143:\n        /* \"contracts/AmeComponents/VibeProfiles/VibeProfiles.sol\":8774:8809  dataEnd = dataStart - _pageSize + 1 */\n      swap1\n      pop\n        /* \"contracts/AmeComponents/VibeProfiles/VibeProfiles.sol\":8845:8854  _pageSize */\n      dup6\n        /* \"contracts/AmeComponents/VibeProfiles/VibeProfiles.sol\":8831:8854  arrayLength = _pageSize */\n      swap4\n      pop\n        /* \"contracts/AmeComponents/VibeProfiles/VibeProfiles.sol\":8618:8873  if (dataStart < _pageSize) {... */\n    tag_141:\n        /* \"contracts/AmeComponents/VibeProfiles/VibeProfiles.sol\":8891:8918  string[] memory returnArray */\n      0x00\n        /* \"contracts/AmeComponents/VibeProfiles/VibeProfiles.sol\":8934:8945  arrayLength */\n      dup5\n        /* \"contracts/AmeComponents/VibeProfiles/VibeProfiles.sol\":8921:8946  new string[](arrayLength) */\n      0xffffffffffffffff\n      dup2\n      gt\n      iszero\n      tag_144\n      jumpi\n      tag_145\n      tag_74\n      jump\t// in\n    tag_145:\n    tag_144:\n      mload(0x40)\n      swap1\n      dup1\n      dup3\n      mstore\n      dup1\n      0x20\n      mul\n      0x20\n      add\n      dup3\n      add\n      0x40\n      mstore\n      dup1\n      iszero\n      tag_146\n      jumpi\n      dup2\n      0x20\n      add\n    tag_147:\n      0x60\n      dup2\n      mstore\n      0x20\n      add\n      swap1\n      0x01\n      swap1\n      sub\n      swap1\n      dup2\n      tag_147\n      jumpi\n      swap1\n      pop\n    tag_146:\n      pop\n        /* \"contracts/AmeComponents/VibeProfiles/VibeProfiles.sol\":8891:8946  string[] memory returnArray = new string[](arrayLength) */\n      swap1\n      pop\n        /* \"contracts/AmeComponents/VibeProfiles/VibeProfiles.sol\":8970:8978  int256 i */\n      0x00\n        /* \"contracts/AmeComponents/VibeProfiles/VibeProfiles.sol\":8988:8997  dataStart */\n      dup4\n        /* \"contracts/AmeComponents/VibeProfiles/VibeProfiles.sol\":8970:8998  int256 i = int256(dataStart) */\n      swap1\n      pop\n        /* \"contracts/AmeComponents/VibeProfiles/VibeProfiles.sol\":8965:9233  for (int256 i = int256(dataStart); i >= int256(dataEnd); i--) {... */\n    tag_148:\n        /* \"contracts/AmeComponents/VibeProfiles/VibeProfiles.sol\":9012:9019  dataEnd */\n      dup3\n        /* \"contracts/AmeComponents/VibeProfiles/VibeProfiles.sol\":9000:9001  i */\n      dup2\n        /* \"contracts/AmeComponents/VibeProfiles/VibeProfiles.sol\":9000:9020  i >= int256(dataEnd) */\n      slt\n        /* \"contracts/AmeComponents/VibeProfiles/VibeProfiles.sol\":8965:9233  for (int256 i = int256(dataStart); i >= int256(dataEnd); i--) {... */\n      tag_149\n      jumpi\n        /* \"contracts/AmeComponents/VibeProfiles/VibeProfiles.sol\":9049:9066  uint256 commentId */\n      0x00\n        /* \"contracts/AmeComponents/VibeProfiles/VibeProfiles.sol\":9067:9086  UserIndexCommentIds */\n      0x07\n        /* \"contracts/AmeComponents/VibeProfiles/VibeProfiles.sol\":9067:9093  UserIndexCommentIds[_user] */\n      0x00\n        /* \"contracts/AmeComponents/VibeProfiles/VibeProfiles.sol\":9087:9092  _user */\n      dup13\n        /* \"contracts/AmeComponents/VibeProfiles/VibeProfiles.sol\":9067:9093  UserIndexCommentIds[_user] */\n      0xffffffffffffffffffffffffffffffffffffffff\n      and\n      0xffffffffffffffffffffffffffffffffffffffff\n      and\n      dup2\n      mstore\n      0x20\n      add\n      swap1\n      dup2\n      mstore\n      0x20\n      add\n      0x00\n      keccak256\n        /* \"contracts/AmeComponents/VibeProfiles/VibeProfiles.sol\":9067:9105  UserIndexCommentIds[_user][uint256(i)] */\n      0x00\n        /* \"contracts/AmeComponents/VibeProfiles/VibeProfiles.sol\":9102:9103  i */\n      dup4\n        /* \"contracts/AmeComponents/VibeProfiles/VibeProfiles.sol\":9067:9105  UserIndexCommentIds[_user][uint256(i)] */\n      dup2\n      mstore\n      0x20\n      add\n      swap1\n      dup2\n      mstore\n      0x20\n      add\n      0x00\n      keccak256\n      sload\n        /* \"contracts/AmeComponents/VibeProfiles/VibeProfiles.sol\":9049:9105  uint256 commentId=UserIndexCommentIds[_user][uint256(i)] */\n      swap1\n      pop\n        /* \"contracts/AmeComponents/VibeProfiles/VibeProfiles.sol\":9153:9161  Comments */\n      0x08\n        /* \"contracts/AmeComponents/VibeProfiles/VibeProfiles.sol\":9153:9172  Comments[commentId] */\n      0x00\n        /* \"contracts/AmeComponents/VibeProfiles/VibeProfiles.sol\":9162:9171  commentId */\n      dup3\n        /* \"contracts/AmeComponents/VibeProfiles/VibeProfiles.sol\":9153:9172  Comments[commentId] */\n      dup2\n      mstore\n      0x20\n      add\n      swap1\n      dup2\n      mstore\n      0x20\n      add\n      0x00\n      keccak256\n        /* \"contracts/AmeComponents/VibeProfiles/VibeProfiles.sol\":9153:9180  Comments[commentId].content */\n      0x02\n      add\n        /* \"contracts/AmeComponents/VibeProfiles/VibeProfiles.sol\":9127:9180  returnArray[arrayIndex] = Comments[commentId].content */\n      dup1\n      sload\n      tag_151\n      swap1\n      tag_152\n      jump\t// in\n    tag_151:\n      dup1\n      0x1f\n      add\n      0x20\n      dup1\n      swap2\n      div\n      mul\n      0x20\n      add\n      mload(0x40)\n      swap1\n      dup2\n      add\n      0x40\n      mstore\n      dup1\n      swap3\n      swap2\n      swap1\n      dup2\n      dup2\n      mstore\n      0x20\n      add\n      dup3\n      dup1\n      sload\n      tag_153\n      swap1\n      tag_152\n      jump\t// in\n    tag_153:\n      dup1\n      iszero\n      tag_154\n      jumpi\n      dup1\n      0x1f\n      lt\n      tag_155\n      jumpi\n      0x0100\n      dup1\n      dup4\n      sload\n      div\n      mul\n      dup4\n      mstore\n      swap2\n      0x20\n      add\n      swap2\n      jump(tag_154)\n    tag_155:\n      dup3\n      add\n      swap2\n      swap1\n      0x00\n      mstore\n      keccak256(0x00, 0x20)\n      swap1\n    tag_156:\n      dup2\n      sload\n      dup2\n      mstore\n      swap1\n      0x01\n      add\n      swap1\n      0x20\n      add\n      dup1\n      dup4\n      gt\n      tag_156\n      jumpi\n      dup3\n      swap1\n      sub\n      0x1f\n      and\n      dup3\n      add\n      swap2\n    tag_154:\n      pop\n      pop\n      pop\n      pop\n      pop\n        /* \"contracts/AmeComponents/VibeProfiles/VibeProfiles.sol\":9127:9138  returnArray */\n      dup4\n        /* \"contracts/AmeComponents/VibeProfiles/VibeProfiles.sol\":9139:9149  arrayIndex */\n      dup8\n        /* \"contracts/AmeComponents/VibeProfiles/VibeProfiles.sol\":9127:9150  returnArray[arrayIndex] */\n      dup2\n      mload\n      dup2\n      lt\n      tag_157\n      jumpi\n      tag_158\n      tag_78\n      jump\t// in\n    tag_158:\n    tag_157:\n      0x20\n      mul\n      0x20\n      add\n      add\n        /* \"contracts/AmeComponents/VibeProfiles/VibeProfiles.sol\":9127:9180  returnArray[arrayIndex] = Comments[commentId].content */\n      dup2\n      swap1\n      mstore\n      pop\n        /* \"contracts/AmeComponents/VibeProfiles/VibeProfiles.sol\":9202:9214  arrayIndex++ */\n      dup6\n      dup1\n      tag_159\n      swap1\n      tag_160\n      jump\t// in\n    tag_159:\n      swap7\n      pop\n      pop\n        /* \"contracts/AmeComponents/VibeProfiles/VibeProfiles.sol\":9027:9233  {... */\n      pop\n        /* \"contracts/AmeComponents/VibeProfiles/VibeProfiles.sol\":9022:9025  i-- */\n      dup1\n      dup1\n      tag_161\n      swap1\n      tag_162\n      jump\t// in\n    tag_161:\n      swap2\n      pop\n      pop\n        /* \"contracts/AmeComponents/VibeProfiles/VibeProfiles.sol\":8965:9233  for (int256 i = int256(dataStart); i >= int256(dataEnd); i--) {... */\n      jump(tag_148)\n    tag_149:\n      pop\n        /* \"contracts/AmeComponents/VibeProfiles/VibeProfiles.sol\":9257:9268  returnArray */\n      dup1\n        /* \"contracts/AmeComponents/VibeProfiles/VibeProfiles.sol\":9250:9268  return returnArray */\n      swap6\n      pop\n      pop\n      pop\n      pop\n      pop\n      pop\n        /* \"contracts/AmeComponents/VibeProfiles/VibeProfiles.sol\":7793:9299  function getCommentsByAddress(... */\n    tag_114:\n      swap4\n      swap3\n      pop\n      pop\n      pop\n      jump\t// out\n        /* \"contracts/AmeComponents/VibeProfiles/VibeProfiles.sol\":5617:5846  function getMethodReqAndRes(string memory _methodName)... */\n    tag_41:\n        /* \"contracts/AmeComponents/VibeProfiles/VibeProfiles.sol\":5717:5736  Types.Type[] memory */\n      0x60\n        /* \"contracts/AmeComponents/VibeProfiles/VibeProfiles.sol\":5738:5757  Types.Type[] memory */\n      dup1\n        /* \"contracts/AmeComponents/VibeProfiles/VibeProfiles.sol\":5781:5795  methodRequests */\n      0x01\n        /* \"contracts/AmeComponents/VibeProfiles/VibeProfiles.sol\":5796:5807  _methodName */\n      dup4\n        /* \"contracts/AmeComponents/VibeProfiles/VibeProfiles.sol\":5781:5808  methodRequests[_methodName] */\n      mload(0x40)\n      tag_164\n      swap2\n      swap1\n      tag_165\n      jump\t// in\n    tag_164:\n      swap1\n      dup2\n      mstore\n      0x20\n      add\n      mload(0x40)\n      dup1\n      swap2\n      sub\n      swap1\n      keccak256\n        /* \"contracts/AmeComponents/VibeProfiles/VibeProfiles.sol\":5810:5825  methodResponses */\n      0x02\n        /* \"contracts/AmeComponents/VibeProfiles/VibeProfiles.sol\":5826:5837  _methodName */\n      dup5\n        /* \"contracts/AmeComponents/VibeProfiles/VibeProfiles.sol\":5810:5838  methodResponses[_methodName] */\n      mload(0x40)\n      tag_166\n      swap2\n      swap1\n      tag_165\n      jump\t// in\n    tag_166:\n      swap1\n      dup2\n      mstore\n      0x20\n      add\n      mload(0x40)\n      dup1\n      swap2\n      sub\n      swap1\n      keccak256\n        /* \"contracts/AmeComponents/VibeProfiles/VibeProfiles.sol\":5773:5839  return (methodRequests[_methodName], methodResponses[_methodName]) */\n      dup2\n      dup1\n      sload\n      dup1\n      0x20\n      mul\n      0x20\n      add\n      mload(0x40)\n      swap1\n      dup2\n      add\n      0x40\n      mstore\n      dup1\n      swap3\n      swap2\n      swap1\n      dup2\n      dup2\n      mstore\n      0x20\n      add\n      dup3\n      dup1\n      sload\n      dup1\n      iszero\n      tag_167\n      jumpi\n      0x20\n      mul\n      dup3\n      add\n      swap2\n      swap1\n      0x00\n      mstore\n      keccak256(0x00, 0x20)\n      swap1\n      0x00\n      swap1\n    tag_168:\n      dup3\n      dup3\n      swap1\n      sload\n      swap1\n      0x0100\n      exp\n      swap1\n      div\n      0xff\n      and\n      0xc6\n      dup2\n      gt\n      iszero\n      tag_169\n      jumpi\n      tag_170\n      tag_81\n      jump\t// in\n    tag_170:\n    tag_169:\n      dup2\n      mstore\n      0x20\n      add\n      swap1\n      0x01\n      add\n      swap1\n      0x20\n      dup3\n      0x00\n      add\n      div\n      swap3\n      dup4\n      add\n      swap3\n      0x01\n      sub\n      dup3\n      mul\n      swap2\n      pop\n      dup1\n      dup5\n      gt\n      tag_168\n      jumpi\n      swap1\n      pop\n    tag_167:\n      pop\n      pop\n      pop\n      pop\n      pop\n      swap2\n      pop\n      dup1\n      dup1\n      sload\n      dup1\n      0x20\n      mul\n      0x20\n      add\n      mload(0x40)\n      swap1\n      dup2\n      add\n      0x40\n      mstore\n      dup1\n      swap3\n      swap2\n      swap1\n      dup2\n      dup2\n      mstore\n      0x20\n      add\n      dup3\n      dup1\n      sload\n      dup1\n      iszero\n      tag_171\n      jumpi\n      0x20\n      mul\n      dup3\n      add\n      swap2\n      swap1\n      0x00\n      mstore\n      keccak256(0x00, 0x20)\n      swap1\n      0x00\n      swap1\n    tag_172:\n      dup3\n      dup3\n      swap1\n      sload\n      swap1\n      0x0100\n      exp\n      swap1\n      div\n      0xff\n      and\n      0xc6\n      dup2\n      gt\n      iszero\n      tag_173\n      jumpi\n      tag_174\n      tag_81\n      jump\t// in\n    tag_174:\n    tag_173:\n      dup2\n      mstore\n      0x20\n      add\n      swap1\n      0x01\n      add\n      swap1\n      0x20\n      dup3\n      0x00\n      add\n      div\n      swap3\n      dup4\n      add\n      swap3\n      0x01\n      sub\n      dup3\n      mul\n      swap2\n      pop\n      dup1\n      dup5\n      gt\n      tag_172\n      jumpi\n      swap1\n      pop\n    tag_171:\n      pop\n      pop\n      pop\n      pop\n      pop\n      swap1\n      pop\n      swap2\n      pop\n      swap2\n      pop\n        /* \"contracts/AmeComponents/VibeProfiles/VibeProfiles.sol\":5617:5846  function getMethodReqAndRes(string memory _methodName)... */\n      swap2\n      pop\n      swap2\n      jump\t// out\n        /* \"contracts/AmeComponents/VibeProfiles/VibeProfiles.sol\":6284:7786  function getComments(... */\n    tag_48:\n        /* \"contracts/AmeComponents/VibeProfiles/VibeProfiles.sol\":6410:6425  string[] memory */\n      0x60\n        /* \"contracts/AmeComponents/VibeProfiles/VibeProfiles.sol\":6471:6472  0 */\n      0x00\n        /* \"contracts/AmeComponents/VibeProfiles/VibeProfiles.sol\":6441:6458  VibeCommentIndexs */\n      0x04\n        /* \"contracts/AmeComponents/VibeProfiles/VibeProfiles.sol\":6441:6467  VibeCommentIndexs[_vibeId] */\n      0x00\n        /* \"contracts/AmeComponents/VibeProfiles/VibeProfiles.sol\":6459:6466  _vibeId */\n      dup7\n        /* \"contracts/AmeComponents/VibeProfiles/VibeProfiles.sol\":6441:6467  VibeCommentIndexs[_vibeId] */\n      dup2\n      mstore\n      0x20\n      add\n      swap1\n      dup2\n      mstore\n      0x20\n      add\n      0x00\n      keccak256\n      sload\n        /* \"contracts/AmeComponents/VibeProfiles/VibeProfiles.sol\":6441:6472  VibeCommentIndexs[_vibeId] == 0 */\n      sub\n        /* \"contracts/AmeComponents/VibeProfiles/VibeProfiles.sol\":6437:7780  if (VibeCommentIndexs[_vibeId] == 0) {... */\n      tag_176\n      jumpi\n        /* \"contracts/AmeComponents/VibeProfiles/VibeProfiles.sol\":6488:6513  string[] memory tempArray */\n      0x00\n        /* \"contracts/AmeComponents/VibeProfiles/VibeProfiles.sol\":6529:6530  0 */\n      dup1\n        /* \"contracts/AmeComponents/VibeProfiles/VibeProfiles.sol\":6516:6531  new string[](0) */\n      0xffffffffffffffff\n      dup2\n      gt\n      iszero\n      tag_177\n      jumpi\n      tag_178\n      tag_74\n      jump\t// in\n    tag_178:\n    tag_177:\n      mload(0x40)\n      swap1\n      dup1\n      dup3\n      mstore\n      dup1\n      0x20\n      mul\n      0x20\n      add\n      dup3\n      add\n      0x40\n      mstore\n      dup1\n      iszero\n      tag_179\n      jumpi\n      dup2\n      0x20\n      add\n    tag_180:\n      0x60\n      dup2\n      mstore\n      0x20\n      add\n      swap1\n      0x01\n      swap1\n      sub\n      swap1\n      dup2\n      tag_180\n      jumpi\n      swap1\n      pop\n    tag_179:\n      pop\n        /* \"contracts/AmeComponents/VibeProfiles/VibeProfiles.sol\":6488:6531  string[] memory tempArray = new string[](0) */\n      swap1\n      pop\n        /* \"contracts/AmeComponents/VibeProfiles/VibeProfiles.sol\":6552:6561  tempArray */\n      dup1\n        /* \"contracts/AmeComponents/VibeProfiles/VibeProfiles.sol\":6545:6561  return tempArray */\n      swap2\n      pop\n      pop\n      jump(tag_175)\n        /* \"contracts/AmeComponents/VibeProfiles/VibeProfiles.sol\":6437:7780  if (VibeCommentIndexs[_vibeId] == 0) {... */\n    tag_176:\n        /* \"contracts/AmeComponents/VibeProfiles/VibeProfiles.sol\":6624:6625  1 */\n      0x01\n        /* \"contracts/AmeComponents/VibeProfiles/VibeProfiles.sol\":6613:6621  _pageNum */\n      dup4\n        /* \"contracts/AmeComponents/VibeProfiles/VibeProfiles.sol\":6613:6625  _pageNum > 1 */\n      gt\n        /* \"contracts/AmeComponents/VibeProfiles/VibeProfiles.sol\":6613:6708  _pageNum > 1 &&... */\n      dup1\n      iszero\n      tag_182\n      jumpi\n      pop\n        /* \"contracts/AmeComponents/VibeProfiles/VibeProfiles.sol\":6706:6707  1 */\n      0x01\n        /* \"contracts/AmeComponents/VibeProfiles/VibeProfiles.sol\":6695:6703  _pageNum */\n      dup4\n        /* \"contracts/AmeComponents/VibeProfiles/VibeProfiles.sol\":6695:6707  _pageNum - 1 */\n      tag_183\n      swap2\n      swap1\n      tag_123\n      jump\t// in\n    tag_183:\n        /* \"contracts/AmeComponents/VibeProfiles/VibeProfiles.sol\":6681:6690  _pageSize */\n      dup3\n        /* \"contracts/AmeComponents/VibeProfiles/VibeProfiles.sol\":6676:6677  1 */\n      0x01\n        /* \"contracts/AmeComponents/VibeProfiles/VibeProfiles.sol\":6647:6664  VibeCommentIndexs */\n      0x04\n        /* \"contracts/AmeComponents/VibeProfiles/VibeProfiles.sol\":6647:6673  VibeCommentIndexs[_vibeId] */\n      0x00\n        /* \"contracts/AmeComponents/VibeProfiles/VibeProfiles.sol\":6665:6672  _vibeId */\n      dup9\n        /* \"contracts/AmeComponents/VibeProfiles/VibeProfiles.sol\":6647:6673  VibeCommentIndexs[_vibeId] */\n      dup2\n      mstore\n      0x20\n      add\n      swap1\n      dup2\n      mstore\n      0x20\n      add\n      0x00\n      keccak256\n      sload\n        /* \"contracts/AmeComponents/VibeProfiles/VibeProfiles.sol\":6647:6677  VibeCommentIndexs[_vibeId] - 1 */\n      tag_184\n      swap2\n      swap1\n      tag_123\n      jump\t// in\n    tag_184:\n        /* \"contracts/AmeComponents/VibeProfiles/VibeProfiles.sol\":6646:6690  (VibeCommentIndexs[_vibeId] - 1) / _pageSize */\n      tag_185\n      swap2\n      swap1\n      tag_126\n      jump\t// in\n    tag_185:\n        /* \"contracts/AmeComponents/VibeProfiles/VibeProfiles.sol\":6645:6708  ((VibeCommentIndexs[_vibeId] - 1) / _pageSize) < (_pageNum - 1) */\n      lt\n        /* \"contracts/AmeComponents/VibeProfiles/VibeProfiles.sol\":6613:6708  _pageNum > 1 &&... */\n    tag_182:\n        /* \"contracts/AmeComponents/VibeProfiles/VibeProfiles.sol\":6592:7770  if (... */\n      iszero\n      tag_186\n      jumpi\n        /* \"contracts/AmeComponents/VibeProfiles/VibeProfiles.sol\":6741:6766  string[] memory tempArray */\n      0x00\n        /* \"contracts/AmeComponents/VibeProfiles/VibeProfiles.sol\":6782:6783  0 */\n      dup1\n        /* \"contracts/AmeComponents/VibeProfiles/VibeProfiles.sol\":6769:6784  new string[](0) */\n      0xffffffffffffffff\n      dup2\n      gt\n      iszero\n      tag_187\n      jumpi\n      tag_188\n      tag_74\n      jump\t// in\n    tag_188:\n    tag_187:\n      mload(0x40)\n      swap1\n      dup1\n      dup3\n      mstore\n      dup1\n      0x20\n      mul\n      0x20\n      add\n      dup3\n      add\n      0x40\n      mstore\n      dup1\n      iszero\n      tag_189\n      jumpi\n      dup2\n      0x20\n      add\n    tag_190:\n      0x60\n      dup2\n      mstore\n      0x20\n      add\n      swap1\n      0x01\n      swap1\n      sub\n      swap1\n      dup2\n      tag_190\n      jumpi\n      swap1\n      pop\n    tag_189:\n      pop\n        /* \"contracts/AmeComponents/VibeProfiles/VibeProfiles.sol\":6741:6784  string[] memory tempArray = new string[](0) */\n      swap1\n      pop\n        /* \"contracts/AmeComponents/VibeProfiles/VibeProfiles.sol\":6809:6818  tempArray */\n      dup1\n        /* \"contracts/AmeComponents/VibeProfiles/VibeProfiles.sol\":6802:6818  return tempArray */\n      swap2\n      pop\n      pop\n      jump(tag_175)\n        /* \"contracts/AmeComponents/VibeProfiles/VibeProfiles.sol\":6592:7770  if (... */\n    tag_186:\n        /* \"contracts/AmeComponents/VibeProfiles/VibeProfiles.sol\":6857:6876  uint256 arrayLength */\n      0x00\n        /* \"contracts/AmeComponents/VibeProfiles/VibeProfiles.sol\":6894:6912  uint256 arrayIndex */\n      dup1\n        /* \"contracts/AmeComponents/VibeProfiles/VibeProfiles.sol\":6915:6916  0 */\n      0x00\n        /* \"contracts/AmeComponents/VibeProfiles/VibeProfiles.sol\":6894:6916  uint256 arrayIndex = 0 */\n      swap1\n      pop\n        /* \"contracts/AmeComponents/VibeProfiles/VibeProfiles.sol\":6935:6952  uint256 dataStart */\n      0x00\n        /* \"contracts/AmeComponents/VibeProfiles/VibeProfiles.sol\":7047:7056  _pageSize */\n      dup5\n        /* \"contracts/AmeComponents/VibeProfiles/VibeProfiles.sol\":7022:7023  1 */\n      0x01\n        /* \"contracts/AmeComponents/VibeProfiles/VibeProfiles.sol\":7011:7019  _pageNum */\n      dup8\n        /* \"contracts/AmeComponents/VibeProfiles/VibeProfiles.sol\":7011:7023  _pageNum - 1 */\n      tag_192\n      swap2\n      swap1\n      tag_123\n      jump\t// in\n    tag_192:\n        /* \"contracts/AmeComponents/VibeProfiles/VibeProfiles.sol\":7010:7056  (_pageNum - 1) *... */\n      tag_193\n      swap2\n      swap1\n      tag_135\n      jump\t// in\n    tag_193:\n        /* \"contracts/AmeComponents/VibeProfiles/VibeProfiles.sol\":6985:6986  1 */\n      0x01\n        /* \"contracts/AmeComponents/VibeProfiles/VibeProfiles.sol\":6956:6973  VibeCommentIndexs */\n      0x04\n        /* \"contracts/AmeComponents/VibeProfiles/VibeProfiles.sol\":6956:6982  VibeCommentIndexs[_vibeId] */\n      0x00\n        /* \"contracts/AmeComponents/VibeProfiles/VibeProfiles.sol\":6974:6981  _vibeId */\n      dup11\n        /* \"contracts/AmeComponents/VibeProfiles/VibeProfiles.sol\":6956:6982  VibeCommentIndexs[_vibeId] */\n      dup2\n      mstore\n      0x20\n      add\n      swap1\n      dup2\n      mstore\n      0x20\n      add\n      0x00\n      keccak256\n      sload\n        /* \"contracts/AmeComponents/VibeProfiles/VibeProfiles.sol\":6956:6986  VibeCommentIndexs[_vibeId] - 1 */\n      tag_194\n      swap2\n      swap1\n      tag_123\n      jump\t// in\n    tag_194:\n        /* \"contracts/AmeComponents/VibeProfiles/VibeProfiles.sol\":6955:7056  (VibeCommentIndexs[_vibeId] - 1) -... */\n      tag_195\n      swap2\n      swap1\n      tag_123\n      jump\t// in\n    tag_195:\n        /* \"contracts/AmeComponents/VibeProfiles/VibeProfiles.sol\":6935:7056  uint256 dataStart = (VibeCommentIndexs[_vibeId] - 1) -... */\n      swap1\n      pop\n        /* \"contracts/AmeComponents/VibeProfiles/VibeProfiles.sol\":7074:7089  uint256 dataEnd */\n      0x00\n        /* \"contracts/AmeComponents/VibeProfiles/VibeProfiles.sol\":7124:7133  _pageSize */\n      dup6\n        /* \"contracts/AmeComponents/VibeProfiles/VibeProfiles.sol\":7112:7121  dataStart */\n      dup3\n        /* \"contracts/AmeComponents/VibeProfiles/VibeProfiles.sol\":7112:7133  dataStart < _pageSize */\n      lt\n        /* \"contracts/AmeComponents/VibeProfiles/VibeProfiles.sol\":7108:7363  if (dataStart < _pageSize) {... */\n      iszero\n      tag_196\n      jumpi\n        /* \"contracts/AmeComponents/VibeProfiles/VibeProfiles.sol\":7167:7168  0 */\n      0x00\n        /* \"contracts/AmeComponents/VibeProfiles/VibeProfiles.sol\":7157:7168  dataEnd = 0 */\n      swap1\n      pop\n        /* \"contracts/AmeComponents/VibeProfiles/VibeProfiles.sol\":7216:7217  1 */\n      0x01\n        /* \"contracts/AmeComponents/VibeProfiles/VibeProfiles.sol\":7204:7213  dataStart */\n      dup3\n        /* \"contracts/AmeComponents/VibeProfiles/VibeProfiles.sol\":7204:7217  dataStart + 1 */\n      tag_197\n      swap2\n      swap1\n      tag_140\n      jump\t// in\n    tag_197:\n        /* \"contracts/AmeComponents/VibeProfiles/VibeProfiles.sol\":7190:7217  arrayLength = dataStart + 1 */\n      swap4\n      pop\n        /* \"contracts/AmeComponents/VibeProfiles/VibeProfiles.sol\":7108:7363  if (dataStart < _pageSize) {... */\n      jump(tag_198)\n    tag_196:\n        /* \"contracts/AmeComponents/VibeProfiles/VibeProfiles.sol\":7298:7299  1 */\n      0x01\n        /* \"contracts/AmeComponents/VibeProfiles/VibeProfiles.sol\":7286:7295  _pageSize */\n      dup7\n        /* \"contracts/AmeComponents/VibeProfiles/VibeProfiles.sol\":7274:7283  dataStart */\n      dup4\n        /* \"contracts/AmeComponents/VibeProfiles/VibeProfiles.sol\":7274:7295  dataStart - _pageSize */\n      tag_199\n      swap2\n      swap1\n      tag_123\n      jump\t// in\n    tag_199:\n        /* \"contracts/AmeComponents/VibeProfiles/VibeProfiles.sol\":7274:7299  dataStart - _pageSize + 1 */\n      tag_200\n      swap2\n      swap1\n      tag_140\n      jump\t// in\n    tag_200:\n        /* \"contracts/AmeComponents/VibeProfiles/VibeProfiles.sol\":7264:7299  dataEnd = dataStart - _pageSize + 1 */\n      swap1\n      pop\n        /* \"contracts/AmeComponents/VibeProfiles/VibeProfiles.sol\":7335:7344  _pageSize */\n      dup6\n        /* \"contracts/AmeComponents/VibeProfiles/VibeProfiles.sol\":7321:7344  arrayLength = _pageSize */\n      swap4\n      pop\n        /* \"contracts/AmeComponents/VibeProfiles/VibeProfiles.sol\":7108:7363  if (dataStart < _pageSize) {... */\n    tag_198:\n        /* \"contracts/AmeComponents/VibeProfiles/VibeProfiles.sol\":7381:7408  string[] memory returnArray */\n      0x00\n        /* \"contracts/AmeComponents/VibeProfiles/VibeProfiles.sol\":7424:7435  arrayLength */\n      dup5\n        /* \"contracts/AmeComponents/VibeProfiles/VibeProfiles.sol\":7411:7436  new string[](arrayLength) */\n      0xffffffffffffffff\n      dup2\n      gt\n      iszero\n      tag_201\n      jumpi\n      tag_202\n      tag_74\n      jump\t// in\n    tag_202:\n    tag_201:\n      mload(0x40)\n      swap1\n      dup1\n      dup3\n      mstore\n      dup1\n      0x20\n      mul\n      0x20\n      add\n      dup3\n      add\n      0x40\n      mstore\n      dup1\n      iszero\n      tag_203\n      jumpi\n      dup2\n      0x20\n      add\n    tag_204:\n      0x60\n      dup2\n      mstore\n      0x20\n      add\n      swap1\n      0x01\n      swap1\n      sub\n      swap1\n      dup2\n      tag_204\n      jumpi\n      swap1\n      pop\n    tag_203:\n      pop\n        /* \"contracts/AmeComponents/VibeProfiles/VibeProfiles.sol\":7381:7436  string[] memory returnArray = new string[](arrayLength) */\n      swap1\n      pop\n        /* \"contracts/AmeComponents/VibeProfiles/VibeProfiles.sol\":7460:7468  int256 i */\n      0x00\n        /* \"contracts/AmeComponents/VibeProfiles/VibeProfiles.sol\":7478:7487  dataStart */\n      dup4\n        /* \"contracts/AmeComponents/VibeProfiles/VibeProfiles.sol\":7460:7488  int256 i = int256(dataStart) */\n      swap1\n      pop\n        /* \"contracts/AmeComponents/VibeProfiles/VibeProfiles.sol\":7455:7720  for (int256 i = int256(dataStart); i >= int256(dataEnd); i--) {... */\n    tag_205:\n        /* \"contracts/AmeComponents/VibeProfiles/VibeProfiles.sol\":7502:7509  dataEnd */\n      dup3\n        /* \"contracts/AmeComponents/VibeProfiles/VibeProfiles.sol\":7490:7491  i */\n      dup2\n        /* \"contracts/AmeComponents/VibeProfiles/VibeProfiles.sol\":7490:7510  i >= int256(dataEnd) */\n      slt\n        /* \"contracts/AmeComponents/VibeProfiles/VibeProfiles.sol\":7455:7720  for (int256 i = int256(dataStart); i >= int256(dataEnd); i--) {... */\n      tag_206\n      jumpi\n        /* \"contracts/AmeComponents/VibeProfiles/VibeProfiles.sol\":7539:7556  uint256 commentId */\n      0x00\n        /* \"contracts/AmeComponents/VibeProfiles/VibeProfiles.sol\":7557:7571  VibeCommentIds */\n      0x06\n        /* \"contracts/AmeComponents/VibeProfiles/VibeProfiles.sol\":7557:7580  VibeCommentIds[_vibeId] */\n      0x00\n        /* \"contracts/AmeComponents/VibeProfiles/VibeProfiles.sol\":7572:7579  _vibeId */\n      dup13\n        /* \"contracts/AmeComponents/VibeProfiles/VibeProfiles.sol\":7557:7580  VibeCommentIds[_vibeId] */\n      dup2\n      mstore\n      0x20\n      add\n      swap1\n      dup2\n      mstore\n      0x20\n      add\n      0x00\n      keccak256\n        /* \"contracts/AmeComponents/VibeProfiles/VibeProfiles.sol\":7557:7592  VibeCommentIds[_vibeId][uint256(i)] */\n      0x00\n        /* \"contracts/AmeComponents/VibeProfiles/VibeProfiles.sol\":7589:7590  i */\n      dup4\n        /* \"contracts/AmeComponents/VibeProfiles/VibeProfiles.sol\":7557:7592  VibeCommentIds[_vibeId][uint256(i)] */\n      dup2\n      mstore\n      0x20\n      add\n      swap1\n      dup2\n      mstore\n      0x20\n      add\n      0x00\n      keccak256\n      sload\n        /* \"contracts/AmeComponents/VibeProfiles/VibeProfiles.sol\":7539:7592  uint256 commentId=VibeCommentIds[_vibeId][uint256(i)] */\n      swap1\n      pop\n        /* \"contracts/AmeComponents/VibeProfiles/VibeProfiles.sol\":7640:7648  Comments */\n      0x08\n        /* \"contracts/AmeComponents/VibeProfiles/VibeProfiles.sol\":7640:7659  Comments[commentId] */\n      0x00\n        /* \"contracts/AmeComponents/VibeProfiles/VibeProfiles.sol\":7649:7658  commentId */\n      dup3\n        /* \"contracts/AmeComponents/VibeProfiles/VibeProfiles.sol\":7640:7659  Comments[commentId] */\n      dup2\n      mstore\n      0x20\n      add\n      swap1\n      dup2\n      mstore\n      0x20\n      add\n      0x00\n      keccak256\n        /* \"contracts/AmeComponents/VibeProfiles/VibeProfiles.sol\":7640:7667  Comments[commentId].content */\n      0x02\n      add\n        /* \"contracts/AmeComponents/VibeProfiles/VibeProfiles.sol\":7614:7667  returnArray[arrayIndex] = Comments[commentId].content */\n      dup1\n      sload\n      tag_208\n      swap1\n      tag_152\n      jump\t// in\n    tag_208:\n      dup1\n      0x1f\n      add\n      0x20\n      dup1\n      swap2\n      div\n      mul\n      0x20\n      add\n      mload(0x40)\n      swap1\n      dup2\n      add\n      0x40\n      mstore\n      dup1\n      swap3\n      swap2\n      swap1\n      dup2\n      dup2\n      mstore\n      0x20\n      add\n      dup3\n      dup1\n      sload\n      tag_209\n      swap1\n      tag_152\n      jump\t// in\n    tag_209:\n      dup1\n      iszero\n      tag_210\n      jumpi\n      dup1\n      0x1f\n      lt\n      tag_211\n      jumpi\n      0x0100\n      dup1\n      dup4\n      sload\n      div\n      mul\n      dup4\n      mstore\n      swap2\n      0x20\n      add\n      swap2\n      jump(tag_210)\n    tag_211:\n      dup3\n      add\n      swap2\n      swap1\n      0x00\n      mstore\n      keccak256(0x00, 0x20)\n      swap1\n    tag_212:\n      dup2\n      sload\n      dup2\n      mstore\n      swap1\n      0x01\n      add\n      swap1\n      0x20\n      add\n      dup1\n      dup4\n      gt\n      tag_212\n      jumpi\n      dup3\n      swap1\n      sub\n      0x1f\n      and\n      dup3\n      add\n      swap2\n    tag_210:\n      pop\n      pop\n      pop\n      pop\n      pop\n        /* \"contracts/AmeComponents/VibeProfiles/VibeProfiles.sol\":7614:7625  returnArray */\n      dup4\n        /* \"contracts/AmeComponents/VibeProfiles/VibeProfiles.sol\":7626:7636  arrayIndex */\n      dup8\n        /* \"contracts/AmeComponents/VibeProfiles/VibeProfiles.sol\":7614:7637  returnArray[arrayIndex] */\n      dup2\n      mload\n      dup2\n      lt\n      tag_213\n      jumpi\n      tag_214\n      tag_78\n      jump\t// in\n    tag_214:\n    tag_213:\n      0x20\n      mul\n      0x20\n      add\n      add\n        /* \"contracts/AmeComponents/VibeProfiles/VibeProfiles.sol\":7614:7667  returnArray[arrayIndex] = Comments[commentId].content */\n      dup2\n      swap1\n      mstore\n      pop\n        /* \"contracts/AmeComponents/VibeProfiles/VibeProfiles.sol\":7689:7701  arrayIndex++ */\n      dup6\n      dup1\n      tag_215\n      swap1\n      tag_160\n      jump\t// in\n    tag_215:\n      swap7\n      pop\n      pop\n        /* \"contracts/AmeComponents/VibeProfiles/VibeProfiles.sol\":7517:7720  {... */\n      pop\n        /* \"contracts/AmeComponents/VibeProfiles/VibeProfiles.sol\":7512:7515  i-- */\n      dup1\n      dup1\n      tag_216\n      swap1\n      tag_162\n      jump\t// in\n    tag_216:\n      swap2\n      pop\n      pop\n        /* \"contracts/AmeComponents/VibeProfiles/VibeProfiles.sol\":7455:7720  for (int256 i = int256(dataStart); i >= int256(dataEnd); i--) {... */\n      jump(tag_205)\n    tag_206:\n      pop\n        /* \"contracts/AmeComponents/VibeProfiles/VibeProfiles.sol\":7744:7755  returnArray */\n      dup1\n        /* \"contracts/AmeComponents/VibeProfiles/VibeProfiles.sol\":7737:7755  return returnArray */\n      swap6\n      pop\n      pop\n      pop\n      pop\n      pop\n      pop\n        /* \"contracts/AmeComponents/VibeProfiles/VibeProfiles.sol\":6284:7786  function getComments(... */\n    tag_175:\n      swap4\n      swap3\n      pop\n      pop\n      pop\n      jump\t// out\n        /* \"contracts/AmeComponents/VibeProfiles/VibeProfiles.sol\":2160:3505  function get(string memory _methodName, bytes memory _methodReq)... */\n    tag_54:\n        /* \"contracts/AmeComponents/VibeProfiles/VibeProfiles.sol\":2270:2282  bytes memory */\n      0x60\n        /* \"contracts/AmeComponents/VibeProfiles/VibeProfiles.sol\":2302:2343  compareStrings(_methodName, \"getComment\") */\n      tag_218\n        /* \"contracts/AmeComponents/VibeProfiles/VibeProfiles.sol\":2317:2328  _methodName */\n      dup4\n        /* \"contracts/AmeComponents/VibeProfiles/VibeProfiles.sol\":2302:2343  compareStrings(_methodName, \"getComment\") */\n      mload(0x40)\n      dup1\n      0x40\n      add\n      0x40\n      mstore\n      dup1\n      0x0a\n      dup2\n      mstore\n      0x20\n      add\n      0x676574436f6d6d656e7400000000000000000000000000000000000000000000\n      dup2\n      mstore\n      pop\n        /* \"contracts/AmeComponents/VibeProfiles/VibeProfiles.sol\":2302:2316  compareStrings */\n      tag_219\n        /* \"contracts/AmeComponents/VibeProfiles/VibeProfiles.sol\":2302:2343  compareStrings(_methodName, \"getComment\") */\n      jump\t// in\n    tag_218:\n        /* \"contracts/AmeComponents/VibeProfiles/VibeProfiles.sol\":2298:3499  if (compareStrings(_methodName, \"getComment\")) {... */\n      iszero\n      tag_220\n      jumpi\n        /* \"contracts/AmeComponents/VibeProfiles/VibeProfiles.sol\":2359:2377  uint256 _commentId */\n      0x00\n        /* \"contracts/AmeComponents/VibeProfiles/VibeProfiles.sol\":2391:2401  _methodReq */\n      dup3\n        /* \"contracts/AmeComponents/VibeProfiles/VibeProfiles.sol\":2380:2413  abi.decode(_methodReq, (uint256)) */\n      dup1\n      0x20\n      add\n      swap1\n      mload\n      dup2\n      add\n      swap1\n      tag_221\n      swap2\n      swap1\n      tag_222\n      jump\t// in\n    tag_221:\n        /* \"contracts/AmeComponents/VibeProfiles/VibeProfiles.sol\":2359:2413  uint256 _commentId = abi.decode(_methodReq, (uint256)) */\n      swap1\n      pop\n        /* \"contracts/AmeComponents/VibeProfiles/VibeProfiles.sol\":2427:2449  Comment memory comment */\n      0x00\n        /* \"contracts/AmeComponents/VibeProfiles/VibeProfiles.sol\":2452:2460  Comments */\n      0x08\n        /* \"contracts/AmeComponents/VibeProfiles/VibeProfiles.sol\":2452:2472  Comments[_commentId] */\n      0x00\n        /* \"contracts/AmeComponents/VibeProfiles/VibeProfiles.sol\":2461:2471  _commentId */\n      dup4\n        /* \"contracts/AmeComponents/VibeProfiles/VibeProfiles.sol\":2452:2472  Comments[_commentId] */\n      dup2\n      mstore\n      0x20\n      add\n      swap1\n      dup2\n      mstore\n      0x20\n      add\n      0x00\n      keccak256\n        /* \"contracts/AmeComponents/VibeProfiles/VibeProfiles.sol\":2427:2472  Comment memory comment = Comments[_commentId] */\n      mload(0x40)\n      dup1\n      0x80\n      add\n      0x40\n      mstore\n      swap1\n      dup2\n      0x00\n      dup3\n      add\n      sload\n      dup2\n      mstore\n      0x20\n      add\n      0x01\n      dup3\n      add\n      sload\n      dup2\n      mstore\n      0x20\n      add\n      0x02\n      dup3\n      add\n      dup1\n      sload\n      tag_223\n      swap1\n      tag_152\n      jump\t// in\n    tag_223:\n      dup1\n      0x1f\n      add\n      0x20\n      dup1\n      swap2\n      div\n      mul\n      0x20\n      add\n      mload(0x40)\n      swap1\n      dup2\n      add\n      0x40\n      mstore\n      dup1\n      swap3\n      swap2\n      swap1\n      dup2\n      dup2\n      mstore\n      0x20\n      add\n      dup3\n      dup1\n      sload\n      tag_224\n      swap1\n      tag_152\n      jump\t// in\n    tag_224:\n      dup1\n      iszero\n      tag_225\n      jumpi\n      dup1\n      0x1f\n      lt\n      tag_226\n      jumpi\n      0x0100\n      dup1\n      dup4\n      sload\n      div\n      mul\n      dup4\n      mstore\n      swap2\n      0x20\n      add\n      swap2\n      jump(tag_225)\n    tag_226:\n      dup3\n      add\n      swap2\n      swap1\n      0x00\n      mstore\n      keccak256(0x00, 0x20)\n      swap1\n    tag_227:\n      dup2\n      sload\n      dup2\n      mstore\n      swap1\n      0x01\n      add\n      swap1\n      0x20\n      add\n      dup1\n      dup4\n      gt\n      tag_227\n      jumpi\n      dup3\n      swap1\n      sub\n      0x1f\n      and\n      dup3\n      add\n      swap2\n    tag_225:\n      pop\n      pop\n      pop\n      pop\n      pop\n      dup2\n      mstore\n      0x20\n      add\n      0x03\n      dup3\n      add\n      0x00\n      swap1\n      sload\n      swap1\n      0x0100\n      exp\n      swap1\n      div\n      0xffffffffffffffffffffffffffffffffffffffff\n      and\n      0xffffffffffffffffffffffffffffffffffffffff\n      and\n      0xffffffffffffffffffffffffffffffffffffffff\n      and\n      dup2\n      mstore\n      pop\n      pop\n      swap1\n      pop\n        /* \"contracts/AmeComponents/VibeProfiles/VibeProfiles.sol\":2541:2548  comment */\n      dup1\n        /* \"contracts/AmeComponents/VibeProfiles/VibeProfiles.sol\":2541:2555  comment.vibeId */\n      0x00\n      add\n      mload\n        /* \"contracts/AmeComponents/VibeProfiles/VibeProfiles.sol\":2577:2584  comment */\n      dup2\n        /* \"contracts/AmeComponents/VibeProfiles/VibeProfiles.sol\":2577:2594  comment.commentId */\n      0x20\n      add\n      mload\n        /* \"contracts/AmeComponents/VibeProfiles/VibeProfiles.sol\":2616:2623  comment */\n      dup3\n        /* \"contracts/AmeComponents/VibeProfiles/VibeProfiles.sol\":2616:2631  comment.content */\n      0x40\n      add\n      mload\n        /* \"contracts/AmeComponents/VibeProfiles/VibeProfiles.sol\":2653:2660  comment */\n      dup4\n        /* \"contracts/AmeComponents/VibeProfiles/VibeProfiles.sol\":2653:2665  comment.user */\n      0x60\n      add\n      mload\n        /* \"contracts/AmeComponents/VibeProfiles/VibeProfiles.sol\":2509:2683  abi.encode(... */\n      add(0x20, mload(0x40))\n      tag_228\n      swap5\n      swap4\n      swap3\n      swap2\n      swap1\n      tag_229\n      jump\t// in\n    tag_228:\n      mload(0x40)\n      0x20\n      dup2\n      dup4\n      sub\n      sub\n      dup2\n      mstore\n      swap1\n      0x40\n      mstore\n        /* \"contracts/AmeComponents/VibeProfiles/VibeProfiles.sol\":2486:2683  return... */\n      swap3\n      pop\n      pop\n      pop\n      jump(tag_217)\n        /* \"contracts/AmeComponents/VibeProfiles/VibeProfiles.sol\":2298:3499  if (compareStrings(_methodName, \"getComment\")) {... */\n    tag_220:\n        /* \"contracts/AmeComponents/VibeProfiles/VibeProfiles.sol\":2704:2746  compareStrings(_methodName, \"getComments\") */\n      tag_231\n        /* \"contracts/AmeComponents/VibeProfiles/VibeProfiles.sol\":2719:2730  _methodName */\n      dup4\n        /* \"contracts/AmeComponents/VibeProfiles/VibeProfiles.sol\":2704:2746  compareStrings(_methodName, \"getComments\") */\n      mload(0x40)\n      dup1\n      0x40\n      add\n      0x40\n      mstore\n      dup1\n      0x0b\n      dup2\n      mstore\n      0x20\n      add\n      0x676574436f6d6d656e7473000000000000000000000000000000000000000000\n      dup2\n      mstore\n      pop\n        /* \"contracts/AmeComponents/VibeProfiles/VibeProfiles.sol\":2704:2718  compareStrings */\n      tag_219\n        /* \"contracts/AmeComponents/VibeProfiles/VibeProfiles.sol\":2704:2746  compareStrings(_methodName, \"getComments\") */\n      jump\t// in\n    tag_231:\n        /* \"contracts/AmeComponents/VibeProfiles/VibeProfiles.sol\":2700:3499  if (compareStrings(_methodName, \"getComments\")) {... */\n      iszero\n      tag_232\n      jumpi\n        /* \"contracts/AmeComponents/VibeProfiles/VibeProfiles.sol\":2763:2778  uint256 _vibeId */\n      0x00\n        /* \"contracts/AmeComponents/VibeProfiles/VibeProfiles.sol\":2780:2796  uint256 _pageNum */\n      dup1\n        /* \"contracts/AmeComponents/VibeProfiles/VibeProfiles.sol\":2798:2815  uint256 _pageSize */\n      0x00\n        /* \"contracts/AmeComponents/VibeProfiles/VibeProfiles.sol\":2847:2857  _methodReq */\n      dup5\n        /* \"contracts/AmeComponents/VibeProfiles/VibeProfiles.sol\":2819:2916  abi.decode(... */\n      dup1\n      0x20\n      add\n      swap1\n      mload\n      dup2\n      add\n      swap1\n      tag_233\n      swap2\n      swap1\n      tag_234\n      jump\t// in\n    tag_233:\n        /* \"contracts/AmeComponents/VibeProfiles/VibeProfiles.sol\":2762:2916  (uint256 _vibeId, uint256 _pageNum, uint256 _pageSize) = abi.decode(... */\n      swap3\n      pop\n      swap3\n      pop\n      swap3\n      pop\n        /* \"contracts/AmeComponents/VibeProfiles/VibeProfiles.sol\":2930:2955  string[] memory tempArray */\n      0x00\n        /* \"contracts/AmeComponents/VibeProfiles/VibeProfiles.sol\":2958:2999  getComments(_vibeId, _pageNum, _pageSize) */\n      tag_235\n        /* \"contracts/AmeComponents/VibeProfiles/VibeProfiles.sol\":2970:2977  _vibeId */\n      dup5\n        /* \"contracts/AmeComponents/VibeProfiles/VibeProfiles.sol\":2979:2987  _pageNum */\n      dup5\n        /* \"contracts/AmeComponents/VibeProfiles/VibeProfiles.sol\":2989:2998  _pageSize */\n      dup5\n        /* \"contracts/AmeComponents/VibeProfiles/VibeProfiles.sol\":2958:2969  getComments */\n      tag_48\n        /* \"contracts/AmeComponents/VibeProfiles/VibeProfiles.sol\":2958:2999  getComments(_vibeId, _pageNum, _pageSize) */\n      jump\t// in\n    tag_235:\n        /* \"contracts/AmeComponents/VibeProfiles/VibeProfiles.sol\":2930:2999  string[] memory tempArray = getComments(_vibeId, _pageNum, _pageSize) */\n      swap1\n      pop\n        /* \"contracts/AmeComponents/VibeProfiles/VibeProfiles.sol\":3031:3040  tempArray */\n      dup1\n        /* \"contracts/AmeComponents/VibeProfiles/VibeProfiles.sol\":3020:3041  abi.encode(tempArray) */\n      add(0x20, mload(0x40))\n      tag_236\n      swap2\n      swap1\n      tag_36\n      jump\t// in\n    tag_236:\n      mload(0x40)\n      0x20\n      dup2\n      dup4\n      sub\n      sub\n      dup2\n      mstore\n      swap1\n      0x40\n      mstore\n        /* \"contracts/AmeComponents/VibeProfiles/VibeProfiles.sol\":3013:3041  return abi.encode(tempArray) */\n      swap5\n      pop\n      pop\n      pop\n      pop\n      pop\n      jump(tag_217)\n        /* \"contracts/AmeComponents/VibeProfiles/VibeProfiles.sol\":2700:3499  if (compareStrings(_methodName, \"getComments\")) {... */\n    tag_232:\n        /* \"contracts/AmeComponents/VibeProfiles/VibeProfiles.sol\":3075:3126  compareStrings(_methodName, \"getCommentsByAddress\") */\n      tag_238\n        /* \"contracts/AmeComponents/VibeProfiles/VibeProfiles.sol\":3090:3101  _methodName */\n      dup4\n        /* \"contracts/AmeComponents/VibeProfiles/VibeProfiles.sol\":3075:3126  compareStrings(_methodName, \"getCommentsByAddress\") */\n      mload(0x40)\n      dup1\n      0x40\n      add\n      0x40\n      mstore\n      dup1\n      0x14\n      dup2\n      mstore\n      0x20\n      add\n      0x676574436f6d6d656e7473427941646472657373000000000000000000000000\n      dup2\n      mstore\n      pop\n        /* \"contracts/AmeComponents/VibeProfiles/VibeProfiles.sol\":3075:3089  compareStrings */\n      tag_219\n        /* \"contracts/AmeComponents/VibeProfiles/VibeProfiles.sol\":3075:3126  compareStrings(_methodName, \"getCommentsByAddress\") */\n      jump\t// in\n    tag_238:\n        /* \"contracts/AmeComponents/VibeProfiles/VibeProfiles.sol\":3058:3499  if (... */\n      iszero\n      tag_239\n      jumpi\n        /* \"contracts/AmeComponents/VibeProfiles/VibeProfiles.sol\":3152:3165  address _user */\n      0x00\n        /* \"contracts/AmeComponents/VibeProfiles/VibeProfiles.sol\":3167:3183  uint256 _pageNum */\n      dup1\n        /* \"contracts/AmeComponents/VibeProfiles/VibeProfiles.sol\":3185:3202  uint256 _pageSize */\n      0x00\n        /* \"contracts/AmeComponents/VibeProfiles/VibeProfiles.sol\":3234:3244  _methodReq */\n      dup5\n        /* \"contracts/AmeComponents/VibeProfiles/VibeProfiles.sol\":3206:3303  abi.decode(... */\n      dup1\n      0x20\n      add\n      swap1\n      mload\n      dup2\n      add\n      swap1\n      tag_240\n      swap2\n      swap1\n      tag_241\n      jump\t// in\n    tag_240:\n        /* \"contracts/AmeComponents/VibeProfiles/VibeProfiles.sol\":3151:3303  (address _user, uint256 _pageNum, uint256 _pageSize) = abi.decode(... */\n      swap3\n      pop\n      swap3\n      pop\n      swap3\n      pop\n        /* \"contracts/AmeComponents/VibeProfiles/VibeProfiles.sol\":3317:3342  string[] memory tempArray */\n      0x00\n        /* \"contracts/AmeComponents/VibeProfiles/VibeProfiles.sol\":3345:3393  getCommentsByAddress(_user, _pageNum, _pageSize) */\n      tag_242\n        /* \"contracts/AmeComponents/VibeProfiles/VibeProfiles.sol\":3366:3371  _user */\n      dup5\n        /* \"contracts/AmeComponents/VibeProfiles/VibeProfiles.sol\":3373:3381  _pageNum */\n      dup5\n        /* \"contracts/AmeComponents/VibeProfiles/VibeProfiles.sol\":3383:3392  _pageSize */\n      dup5\n        /* \"contracts/AmeComponents/VibeProfiles/VibeProfiles.sol\":3345:3365  getCommentsByAddress */\n      tag_34\n        /* \"contracts/AmeComponents/VibeProfiles/VibeProfiles.sol\":3345:3393  getCommentsByAddress(_user, _pageNum, _pageSize) */\n      jump\t// in\n    tag_242:\n        /* \"contracts/AmeComponents/VibeProfiles/VibeProfiles.sol\":3317:3393  string[] memory tempArray = getCommentsByAddress(_user, _pageNum, _pageSize) */\n      swap1\n      pop\n        /* \"contracts/AmeComponents/VibeProfiles/VibeProfiles.sol\":3425:3434  tempArray */\n      dup1\n        /* \"contracts/AmeComponents/VibeProfiles/VibeProfiles.sol\":3414:3435  abi.encode(tempArray) */\n      add(0x20, mload(0x40))\n      tag_243\n      swap2\n      swap1\n      tag_36\n      jump\t// in\n    tag_243:\n      mload(0x40)\n      0x20\n      dup2\n      dup4\n      sub\n      sub\n      dup2\n      mstore\n      swap1\n      0x40\n      mstore\n        /* \"contracts/AmeComponents/VibeProfiles/VibeProfiles.sol\":3407:3435  return abi.encode(tempArray) */\n      swap5\n      pop\n      pop\n      pop\n      pop\n      pop\n      jump(tag_217)\n        /* \"contracts/AmeComponents/VibeProfiles/VibeProfiles.sol\":3058:3499  if (... */\n    tag_239:\n        /* \"contracts/AmeComponents/VibeProfiles/VibeProfiles.sol\":3474:3488  abi.encode(\"\") */\n      add(0x20, mload(0x40))\n      tag_245\n      swap1\n      tag_246\n      jump\t// in\n    tag_245:\n      mload(0x40)\n      0x20\n      dup2\n      dup4\n      sub\n      sub\n      dup2\n      mstore\n      swap1\n      0x40\n      mstore\n        /* \"contracts/AmeComponents/VibeProfiles/VibeProfiles.sol\":3467:3488  return abi.encode(\"\") */\n      swap1\n      pop\n        /* \"contracts/AmeComponents/VibeProfiles/VibeProfiles.sol\":2160:3505  function get(string memory _methodName, bytes memory _methodReq)... */\n    tag_217:\n      swap3\n      swap2\n      pop\n      pop\n      jump\t// out\n        /* \"contracts/AmeComponents/VibeProfiles/VibeProfiles.sol\":3511:4731  function post(string memory _methodName, bytes memory _methodReq)... */\n    tag_59:\n        /* \"contracts/AmeComponents/VibeProfiles/VibeProfiles.sol\":3625:3637  bytes memory */\n      0x60\n        /* \"contracts/AmeComponents/VibeProfiles/VibeProfiles.sol\":3657:3699  compareStrings(_methodName, \"postComment\") */\n      tag_248\n        /* \"contracts/AmeComponents/VibeProfiles/VibeProfiles.sol\":3672:3683  _methodName */\n      dup4\n        /* \"contracts/AmeComponents/VibeProfiles/VibeProfiles.sol\":3657:3699  compareStrings(_methodName, \"postComment\") */\n      mload(0x40)\n      dup1\n      0x40\n      add\n      0x40\n      mstore\n      dup1\n      0x0b\n      dup2\n      mstore\n      0x20\n      add\n      0x706f7374436f6d6d656e74000000000000000000000000000000000000000000\n      dup2\n      mstore\n      pop\n        /* \"contracts/AmeComponents/VibeProfiles/VibeProfiles.sol\":3657:3671  compareStrings */\n      tag_219\n        /* \"contracts/AmeComponents/VibeProfiles/VibeProfiles.sol\":3657:3699  compareStrings(_methodName, \"postComment\") */\n      jump\t// in\n    tag_248:\n        /* \"contracts/AmeComponents/VibeProfiles/VibeProfiles.sol\":3653:4725  if (compareStrings(_methodName, \"postComment\")) {... */\n      iszero\n      tag_249\n      jumpi\n        /* \"contracts/AmeComponents/VibeProfiles/VibeProfiles.sol\":3718:3733  uint256 _vibeId */\n      0x00\n        /* \"contracts/AmeComponents/VibeProfiles/VibeProfiles.sol\":3735:3757  string memory _content */\n      dup1\n        /* \"contracts/AmeComponents/VibeProfiles/VibeProfiles.sol\":3758:3782  string memory _resources */\n      0x00\n        /* \"contracts/AmeComponents/VibeProfiles/VibeProfiles.sol\":3814:3824  _methodReq */\n      dup5\n        /* \"contracts/AmeComponents/VibeProfiles/VibeProfiles.sol\":3786:3851  abi... */\n      dup1\n      0x20\n      add\n      swap1\n      mload\n      dup2\n      add\n      swap1\n      tag_250\n      swap2\n      swap1\n      tag_251\n      jump\t// in\n    tag_250:\n        /* \"contracts/AmeComponents/VibeProfiles/VibeProfiles.sol\":3717:3851  (uint256 _vibeId, string memory _content,string memory _resources) = abi... */\n      swap3\n      pop\n      swap3\n      pop\n      swap3\n      pop\n        /* \"contracts/AmeComponents/VibeProfiles/VibeProfiles.sol\":3866:3893  string memory encodeComment */\n      0x00\n        /* \"contracts/AmeComponents/VibeProfiles/VibeProfiles.sol\":3896:4059  generateBase64(... */\n      tag_252\n        /* \"contracts/AmeComponents/VibeProfiles/VibeProfiles.sol\":3928:3935  _vibeId */\n      dup5\n        /* \"contracts/AmeComponents/VibeProfiles/VibeProfiles.sol\":3953:3963  commentIds */\n      sload(0x03)\n        /* \"contracts/AmeComponents/VibeProfiles/VibeProfiles.sol\":3981:3989  _content */\n      dup6\n        /* \"contracts/AmeComponents/VibeProfiles/VibeProfiles.sol\":4007:4017  _resources */\n      dup6\n        /* \"contracts/AmeComponents/VibeProfiles/VibeProfiles.sol\":4035:4045  msg.sender */\n      caller\n        /* \"contracts/AmeComponents/VibeProfiles/VibeProfiles.sol\":3896:3910  generateBase64 */\n      tag_27\n        /* \"contracts/AmeComponents/VibeProfiles/VibeProfiles.sol\":3896:4059  generateBase64(... */\n      jump\t// in\n    tag_252:\n        /* \"contracts/AmeComponents/VibeProfiles/VibeProfiles.sol\":3866:4059  string memory encodeComment = generateBase64(... */\n      swap1\n      pop\n        /* \"contracts/AmeComponents/VibeProfiles/VibeProfiles.sol\":4074:4098  uint256 vibeCommentIndex */\n      0x00\n        /* \"contracts/AmeComponents/VibeProfiles/VibeProfiles.sol\":4101:4118  VibeCommentIndexs */\n      0x04\n        /* \"contracts/AmeComponents/VibeProfiles/VibeProfiles.sol\":4101:4127  VibeCommentIndexs[_vibeId] */\n      0x00\n        /* \"contracts/AmeComponents/VibeProfiles/VibeProfiles.sol\":4119:4126  _vibeId */\n      dup7\n        /* \"contracts/AmeComponents/VibeProfiles/VibeProfiles.sol\":4101:4127  VibeCommentIndexs[_vibeId] */\n      dup2\n      mstore\n      0x20\n      add\n      swap1\n      dup2\n      mstore\n      0x20\n      add\n      0x00\n      keccak256\n      sload\n        /* \"contracts/AmeComponents/VibeProfiles/VibeProfiles.sol\":4074:4127  uint256 vibeCommentIndex = VibeCommentIndexs[_vibeId] */\n      swap1\n      pop\n        /* \"contracts/AmeComponents/VibeProfiles/VibeProfiles.sol\":4141:4165  uint256 userCommentIndex */\n      0x00\n        /* \"contracts/AmeComponents/VibeProfiles/VibeProfiles.sol\":4168:4185  UserCommentIndexs */\n      0x05\n        /* \"contracts/AmeComponents/VibeProfiles/VibeProfiles.sol\":4168:4197  UserCommentIndexs[msg.sender] */\n      0x00\n        /* \"contracts/AmeComponents/VibeProfiles/VibeProfiles.sol\":4186:4196  msg.sender */\n      caller\n        /* \"contracts/AmeComponents/VibeProfiles/VibeProfiles.sol\":4168:4197  UserCommentIndexs[msg.sender] */\n      0xffffffffffffffffffffffffffffffffffffffff\n      and\n      0xffffffffffffffffffffffffffffffffffffffff\n      and\n      dup2\n      mstore\n      0x20\n      add\n      swap1\n      dup2\n      mstore\n      0x20\n      add\n      0x00\n      keccak256\n      sload\n        /* \"contracts/AmeComponents/VibeProfiles/VibeProfiles.sol\":4141:4197  uint256 userCommentIndex = UserCommentIndexs[msg.sender] */\n      swap1\n      pop\n        /* \"contracts/AmeComponents/VibeProfiles/VibeProfiles.sol\":4235:4368  Comment(... */\n      mload(0x40)\n      dup1\n      0x80\n      add\n      0x40\n      mstore\n      dup1\n        /* \"contracts/AmeComponents/VibeProfiles/VibeProfiles.sol\":4260:4267  _vibeId */\n      dup8\n        /* \"contracts/AmeComponents/VibeProfiles/VibeProfiles.sol\":4235:4368  Comment(... */\n      dup2\n      mstore\n      0x20\n      add\n        /* \"contracts/AmeComponents/VibeProfiles/VibeProfiles.sol\":4285:4295  commentIds */\n      sload(0x03)\n        /* \"contracts/AmeComponents/VibeProfiles/VibeProfiles.sol\":4235:4368  Comment(... */\n      dup2\n      mstore\n      0x20\n      add\n        /* \"contracts/AmeComponents/VibeProfiles/VibeProfiles.sol\":4313:4326  encodeComment */\n      dup5\n        /* \"contracts/AmeComponents/VibeProfiles/VibeProfiles.sol\":4235:4368  Comment(... */\n      dup2\n      mstore\n      0x20\n      add\n        /* \"contracts/AmeComponents/VibeProfiles/VibeProfiles.sol\":4344:4354  msg.sender */\n      caller\n        /* \"contracts/AmeComponents/VibeProfiles/VibeProfiles.sol\":4235:4368  Comment(... */\n      0xffffffffffffffffffffffffffffffffffffffff\n      and\n      dup2\n      mstore\n      pop\n        /* \"contracts/AmeComponents/VibeProfiles/VibeProfiles.sol\":4212:4220  Comments */\n      0x08\n        /* \"contracts/AmeComponents/VibeProfiles/VibeProfiles.sol\":4212:4232  Comments[commentIds] */\n      0x00\n        /* \"contracts/AmeComponents/VibeProfiles/VibeProfiles.sol\":4221:4231  commentIds */\n      sload(0x03)\n        /* \"contracts/AmeComponents/VibeProfiles/VibeProfiles.sol\":4212:4232  Comments[commentIds] */\n      dup2\n      mstore\n      0x20\n      add\n      swap1\n      dup2\n      mstore\n      0x20\n      add\n      0x00\n      keccak256\n        /* \"contracts/AmeComponents/VibeProfiles/VibeProfiles.sol\":4212:4368  Comments[commentIds] = Comment(... */\n      0x00\n      dup3\n      add\n      mload\n      dup2\n      0x00\n      add\n      sstore\n      0x20\n      dup3\n      add\n      mload\n      dup2\n      0x01\n      add\n      sstore\n      0x40\n      dup3\n      add\n      mload\n      dup2\n      0x02\n      add\n      swap1\n      dup2\n      tag_253\n      swap2\n      swap1\n      tag_254\n      jump\t// in\n    tag_253:\n      pop\n      0x60\n      dup3\n      add\n      mload\n      dup2\n      0x03\n      add\n      exp(0x0100, 0x00)\n      dup2\n      sload\n      dup2\n      0xffffffffffffffffffffffffffffffffffffffff\n      mul\n      not\n      and\n      swap1\n      dup4\n      0xffffffffffffffffffffffffffffffffffffffff\n      and\n      mul\n      or\n      swap1\n      sstore\n      pop\n      swap1\n      pop\n      pop\n        /* \"contracts/AmeComponents/VibeProfiles/VibeProfiles.sol\":4426:4436  commentIds */\n      sload(0x03)\n        /* \"contracts/AmeComponents/VibeProfiles/VibeProfiles.sol\":4382:4396  VibeCommentIds */\n      0x06\n        /* \"contracts/AmeComponents/VibeProfiles/VibeProfiles.sol\":4382:4405  VibeCommentIds[_vibeId] */\n      0x00\n        /* \"contracts/AmeComponents/VibeProfiles/VibeProfiles.sol\":4397:4404  _vibeId */\n      dup9\n        /* \"contracts/AmeComponents/VibeProfiles/VibeProfiles.sol\":4382:4405  VibeCommentIds[_vibeId] */\n      dup2\n      mstore\n      0x20\n      add\n      swap1\n      dup2\n      mstore\n      0x20\n      add\n      0x00\n      keccak256\n        /* \"contracts/AmeComponents/VibeProfiles/VibeProfiles.sol\":4382:4423  VibeCommentIds[_vibeId][vibeCommentIndex] */\n      0x00\n        /* \"contracts/AmeComponents/VibeProfiles/VibeProfiles.sol\":4406:4422  vibeCommentIndex */\n      dup5\n        /* \"contracts/AmeComponents/VibeProfiles/VibeProfiles.sol\":4382:4423  VibeCommentIds[_vibeId][vibeCommentIndex] */\n      dup2\n      mstore\n      0x20\n      add\n      swap1\n      dup2\n      mstore\n      0x20\n      add\n      0x00\n      keccak256\n        /* \"contracts/AmeComponents/VibeProfiles/VibeProfiles.sol\":4382:4436  VibeCommentIds[_vibeId][vibeCommentIndex] = commentIds */\n      dup2\n      swap1\n      sstore\n      pop\n        /* \"contracts/AmeComponents/VibeProfiles/VibeProfiles.sol\":4502:4512  commentIds */\n      sload(0x03)\n        /* \"contracts/AmeComponents/VibeProfiles/VibeProfiles.sol\":4450:4469  UserIndexCommentIds */\n      0x07\n        /* \"contracts/AmeComponents/VibeProfiles/VibeProfiles.sol\":4450:4481  UserIndexCommentIds[msg.sender] */\n      0x00\n        /* \"contracts/AmeComponents/VibeProfiles/VibeProfiles.sol\":4470:4480  msg.sender */\n      caller\n        /* \"contracts/AmeComponents/VibeProfiles/VibeProfiles.sol\":4450:4481  UserIndexCommentIds[msg.sender] */\n      0xffffffffffffffffffffffffffffffffffffffff\n      and\n      0xffffffffffffffffffffffffffffffffffffffff\n      and\n      dup2\n      mstore\n      0x20\n      add\n      swap1\n      dup2\n      mstore\n      0x20\n      add\n      0x00\n      keccak256\n        /* \"contracts/AmeComponents/VibeProfiles/VibeProfiles.sol\":4450:4499  UserIndexCommentIds[msg.sender][userCommentIndex] */\n      0x00\n        /* \"contracts/AmeComponents/VibeProfiles/VibeProfiles.sol\":4482:4498  userCommentIndex */\n      dup4\n        /* \"contracts/AmeComponents/VibeProfiles/VibeProfiles.sol\":4450:4499  UserIndexCommentIds[msg.sender][userCommentIndex] */\n      dup2\n      mstore\n      0x20\n      add\n      swap1\n      dup2\n      mstore\n      0x20\n      add\n      0x00\n      keccak256\n        /* \"contracts/AmeComponents/VibeProfiles/VibeProfiles.sol\":4450:4512  UserIndexCommentIds[msg.sender][userCommentIndex] = commentIds */\n      dup2\n      swap1\n      sstore\n      pop\n        /* \"contracts/AmeComponents/VibeProfiles/VibeProfiles.sol\":4527:4544  VibeCommentIndexs */\n      0x04\n        /* \"contracts/AmeComponents/VibeProfiles/VibeProfiles.sol\":4527:4553  VibeCommentIndexs[_vibeId] */\n      0x00\n        /* \"contracts/AmeComponents/VibeProfiles/VibeProfiles.sol\":4545:4552  _vibeId */\n      dup8\n        /* \"contracts/AmeComponents/VibeProfiles/VibeProfiles.sol\":4527:4553  VibeCommentIndexs[_vibeId] */\n      dup2\n      mstore\n      0x20\n      add\n      swap1\n      dup2\n      mstore\n      0x20\n      add\n      0x00\n      keccak256\n      0x00\n        /* \"contracts/AmeComponents/VibeProfiles/VibeProfiles.sol\":4527:4555  VibeCommentIndexs[_vibeId]++ */\n      dup2\n      sload\n      dup1\n      swap3\n      swap2\n      swap1\n      tag_255\n      swap1\n      tag_160\n      jump\t// in\n    tag_255:\n      swap2\n      swap1\n      pop\n      sstore\n      pop\n        /* \"contracts/AmeComponents/VibeProfiles/VibeProfiles.sol\":4569:4586  UserCommentIndexs */\n      0x05\n        /* \"contracts/AmeComponents/VibeProfiles/VibeProfiles.sol\":4569:4598  UserCommentIndexs[msg.sender] */\n      0x00\n        /* \"contracts/AmeComponents/VibeProfiles/VibeProfiles.sol\":4587:4597  msg.sender */\n      caller\n        /* \"contracts/AmeComponents/VibeProfiles/VibeProfiles.sol\":4569:4598  UserCommentIndexs[msg.sender] */\n      0xffffffffffffffffffffffffffffffffffffffff\n      and\n      0xffffffffffffffffffffffffffffffffffffffff\n      and\n      dup2\n      mstore\n      0x20\n      add\n      swap1\n      dup2\n      mstore\n      0x20\n      add\n      0x00\n      keccak256\n      0x00\n        /* \"contracts/AmeComponents/VibeProfiles/VibeProfiles.sol\":4569:4600  UserCommentIndexs[msg.sender]++ */\n      dup2\n      sload\n      dup1\n      swap3\n      swap2\n      swap1\n      tag_256\n      swap1\n      tag_160\n      jump\t// in\n    tag_256:\n      swap2\n      swap1\n      pop\n      sstore\n      pop\n        /* \"contracts/AmeComponents/VibeProfiles/VibeProfiles.sol\":4614:4624  commentIds */\n      0x03\n      0x00\n        /* \"contracts/AmeComponents/VibeProfiles/VibeProfiles.sol\":4614:4626  commentIds++ */\n      dup2\n      sload\n      dup1\n      swap3\n      swap2\n      swap1\n      tag_257\n      swap1\n      tag_160\n      jump\t// in\n    tag_257:\n      swap2\n      swap1\n      pop\n      sstore\n      pop\n        /* \"contracts/AmeComponents/VibeProfiles/VibeProfiles.sol\":4648:4662  abi.encode(\"\") */\n      add(0x20, mload(0x40))\n      tag_258\n      swap1\n      tag_246\n      jump\t// in\n    tag_258:\n      mload(0x40)\n      0x20\n      dup2\n      dup4\n      sub\n      sub\n      dup2\n      mstore\n      swap1\n      0x40\n      mstore\n        /* \"contracts/AmeComponents/VibeProfiles/VibeProfiles.sol\":4641:4662  return abi.encode(\"\") */\n      swap7\n      pop\n      pop\n      pop\n      pop\n      pop\n      pop\n      pop\n      jump(tag_247)\n        /* \"contracts/AmeComponents/VibeProfiles/VibeProfiles.sol\":3653:4725  if (compareStrings(_methodName, \"postComment\")) {... */\n    tag_249:\n        /* \"contracts/AmeComponents/VibeProfiles/VibeProfiles.sol\":4700:4714  abi.encode(\"\") */\n      add(0x20, mload(0x40))\n      tag_260\n      swap1\n      tag_246\n      jump\t// in\n    tag_260:\n      mload(0x40)\n      0x20\n      dup2\n      dup4\n      sub\n      sub\n      dup2\n      mstore\n      swap1\n      0x40\n      mstore\n        /* \"contracts/AmeComponents/VibeProfiles/VibeProfiles.sol\":4693:4714  return abi.encode(\"\") */\n      swap1\n      pop\n        /* \"contracts/AmeComponents/VibeProfiles/VibeProfiles.sol\":3511:4731  function post(string memory _methodName, bytes memory _methodReq)... */\n    tag_247:\n      swap3\n      swap2\n      pop\n      pop\n      jump\t// out\n        /* \"contracts/AmeComponents/VibeProfiles/VibeProfiles.sol\":4737:4927  function put(string memory _methodName, bytes memory _methodReq)... */\n    tag_63:\n        /* \"contracts/AmeComponents/VibeProfiles/VibeProfiles.sol\":4850:4862  bytes memory */\n      0x60\n        /* \"contracts/AmeComponents/VibeProfiles/VibeProfiles.sol\":4896:4907  _methodName */\n      dup3\n        /* \"contracts/AmeComponents/VibeProfiles/VibeProfiles.sol\":4909:4919  _methodReq */\n      dup3\n        /* \"contracts/AmeComponents/VibeProfiles/VibeProfiles.sol\":4885:4920  abi.encode(_methodName, _methodReq) */\n      add(0x20, mload(0x40))\n      tag_262\n      swap3\n      swap2\n      swap1\n      tag_263\n      jump\t// in\n    tag_262:\n      mload(0x40)\n      0x20\n      dup2\n      dup4\n      sub\n      sub\n      dup2\n      mstore\n      swap1\n      0x40\n      mstore\n        /* \"contracts/AmeComponents/VibeProfiles/VibeProfiles.sol\":4878:4920  return abi.encode(_methodName, _methodReq) */\n      swap1\n      pop\n        /* \"contracts/AmeComponents/VibeProfiles/VibeProfiles.sol\":4737:4927  function put(string memory _methodName, bytes memory _methodReq)... */\n      swap3\n      swap2\n      pop\n      pop\n      jump\t// out\n        /* \"contracts/AmeComponents/VibeProfiles/VibeProfiles.sol\":5852:6009  function getMethods(MethodTypes _methodTypes)... */\n    tag_69:\n        /* \"contracts/AmeComponents/VibeProfiles/VibeProfiles.sol\":5943:5958  string[] memory */\n      0x60\n        /* \"contracts/AmeComponents/VibeProfiles/VibeProfiles.sol\":5981:5988  methods */\n      0x00\n        /* \"contracts/AmeComponents/VibeProfiles/VibeProfiles.sol\":5981:6002  methods[_methodTypes] */\n      dup1\n        /* \"contracts/AmeComponents/VibeProfiles/VibeProfiles.sol\":5989:6001  _methodTypes */\n      dup4\n        /* \"contracts/AmeComponents/VibeProfiles/VibeProfiles.sol\":5981:6002  methods[_methodTypes] */\n      0x03\n      dup2\n      gt\n      iszero\n      tag_265\n      jumpi\n      tag_266\n      tag_81\n      jump\t// in\n    tag_266:\n    tag_265:\n      0x03\n      dup2\n      gt\n      iszero\n      tag_267\n      jumpi\n      tag_268\n      tag_81\n      jump\t// in\n    tag_268:\n    tag_267:\n      dup2\n      mstore\n      0x20\n      add\n      swap1\n      dup2\n      mstore\n      0x20\n      add\n      0x00\n      keccak256\n        /* \"contracts/AmeComponents/VibeProfiles/VibeProfiles.sol\":5974:6002  return methods[_methodTypes] */\n      dup1\n      sload\n      dup1\n      0x20\n      mul\n      0x20\n      add\n      mload(0x40)\n      swap1\n      dup2\n      add\n      0x40\n      mstore\n      dup1\n      swap3\n      swap2\n      swap1\n      dup2\n      dup2\n      mstore\n      0x20\n      add\n      0x00\n      swap1\n    tag_269:\n      dup3\n      dup3\n      lt\n      iszero\n      tag_270\n      jumpi\n      dup4\n      dup3\n      swap1\n      0x00\n      mstore\n      keccak256(0x00, 0x20)\n      add\n      dup1\n      sload\n      tag_272\n      swap1\n      tag_152\n      jump\t// in\n    tag_272:\n      dup1\n      0x1f\n      add\n      0x20\n      dup1\n      swap2\n      div\n      mul\n      0x20\n      add\n      mload(0x40)\n      swap1\n      dup2\n      add\n      0x40\n      mstore\n      dup1\n      swap3\n      swap2\n      swap1\n      dup2\n      dup2\n      mstore\n      0x20\n      add\n      dup3\n      dup1\n      sload\n      tag_273\n      swap1\n      tag_152\n      jump\t// in\n    tag_273:\n      dup1\n      iszero\n      tag_274\n      jumpi\n      dup1\n      0x1f\n      lt\n      tag_275\n      jumpi\n      0x0100\n      dup1\n      dup4\n      sload\n      div\n      mul\n      dup4\n      mstore\n      swap2\n      0x20\n      add\n      swap2\n      jump(tag_274)\n    tag_275:\n      dup3\n      add\n      swap2\n      swap1\n      0x00\n      mstore\n      keccak256(0x00, 0x20)\n      swap1\n    tag_276:\n      dup2\n      sload\n      dup2\n      mstore\n      swap1\n      0x01\n      add\n      swap1\n      0x20\n      add\n      dup1\n      dup4\n      gt\n      tag_276\n      jumpi\n      dup3\n      swap1\n      sub\n      0x1f\n      and\n      dup3\n      add\n      swap2\n    tag_274:\n      pop\n      pop\n      pop\n      pop\n      pop\n      dup2\n      mstore\n      0x20\n      add\n      swap1\n      0x01\n      add\n      swap1\n      jump(tag_269)\n    tag_270:\n      pop\n      pop\n      pop\n      pop\n      swap1\n      pop\n        /* \"contracts/AmeComponents/VibeProfiles/VibeProfiles.sol\":5852:6009  function getMethods(MethodTypes _methodTypes)... */\n      swap2\n      swap1\n      pop\n      jump\t// out\n        /* \"contracts/Ame/lib/Strings.sol\":275:978  function toString(uint256 value) internal pure returns (string memory) {... */\n    tag_104:\n        /* \"contracts/Ame/lib/Strings.sol\":331:344  string memory */\n      0x60\n        /* \"contracts/Ame/lib/Strings.sol\":557:558  0 */\n      0x00\n        /* \"contracts/Ame/lib/Strings.sol\":548:553  value */\n      dup3\n        /* \"contracts/Ame/lib/Strings.sol\":548:558  value == 0 */\n      sub\n        /* \"contracts/Ame/lib/Strings.sol\":544:595  if (value == 0) {... */\n      tag_278\n      jumpi\n        /* \"contracts/Ame/lib/Strings.sol\":574:584  return \"0\" */\n      mload(0x40)\n      dup1\n      0x40\n      add\n      0x40\n      mstore\n      dup1\n      0x01\n      dup2\n      mstore\n      0x20\n      add\n      0x3000000000000000000000000000000000000000000000000000000000000000\n      dup2\n      mstore\n      pop\n      swap1\n      pop\n      jump(tag_277)\n        /* \"contracts/Ame/lib/Strings.sol\":544:595  if (value == 0) {... */\n    tag_278:\n        /* \"contracts/Ame/lib/Strings.sol\":604:616  uint256 temp */\n      0x00\n        /* \"contracts/Ame/lib/Strings.sol\":619:624  value */\n      dup3\n        /* \"contracts/Ame/lib/Strings.sol\":604:624  uint256 temp = value */\n      swap1\n      pop\n        /* \"contracts/Ame/lib/Strings.sol\":634:648  uint256 digits */\n      0x00\n        /* \"contracts/Ame/lib/Strings.sol\":658:733  while (temp != 0) {... */\n    tag_279:\n        /* \"contracts/Ame/lib/Strings.sol\":673:674  0 */\n      0x00\n        /* \"contracts/Ame/lib/Strings.sol\":665:669  temp */\n      dup3\n        /* \"contracts/Ame/lib/Strings.sol\":665:674  temp != 0 */\n      eq\n        /* \"contracts/Ame/lib/Strings.sol\":658:733  while (temp != 0) {... */\n      tag_280\n      jumpi\n        /* \"contracts/Ame/lib/Strings.sol\":690:698  digits++ */\n      dup1\n      dup1\n      tag_281\n      swap1\n      tag_160\n      jump\t// in\n    tag_281:\n      swap2\n      pop\n      pop\n        /* \"contracts/Ame/lib/Strings.sol\":720:722  10 */\n      0x0a\n        /* \"contracts/Ame/lib/Strings.sol\":712:722  temp /= 10 */\n      dup3\n      tag_282\n      swap2\n      swap1\n      tag_126\n      jump\t// in\n    tag_282:\n      swap2\n      pop\n        /* \"contracts/Ame/lib/Strings.sol\":658:733  while (temp != 0) {... */\n      jump(tag_279)\n    tag_280:\n        /* \"contracts/Ame/lib/Strings.sol\":742:761  bytes memory buffer */\n      0x00\n        /* \"contracts/Ame/lib/Strings.sol\":774:780  digits */\n      dup2\n        /* \"contracts/Ame/lib/Strings.sol\":764:781  new bytes(digits) */\n      0xffffffffffffffff\n      dup2\n      gt\n      iszero\n      tag_283\n      jumpi\n      tag_284\n      tag_74\n      jump\t// in\n    tag_284:\n    tag_283:\n      mload(0x40)\n      swap1\n      dup1\n      dup3\n      mstore\n      dup1\n      0x1f\n      add\n      not(0x1f)\n      and\n      0x20\n      add\n      dup3\n      add\n      0x40\n      mstore\n      dup1\n      iszero\n      tag_285\n      jumpi\n      dup2\n      0x20\n      add\n      0x01\n      dup3\n      mul\n      dup1\n      calldatasize\n      dup4\n      calldatacopy\n      dup1\n      dup3\n      add\n      swap2\n      pop\n      pop\n      swap1\n      pop\n    tag_285:\n      pop\n        /* \"contracts/Ame/lib/Strings.sol\":742:781  bytes memory buffer = new bytes(digits) */\n      swap1\n      pop\n        /* \"contracts/Ame/lib/Strings.sol\":791:941  while (value != 0) {... */\n    tag_286:\n        /* \"contracts/Ame/lib/Strings.sol\":807:808  0 */\n      0x00\n        /* \"contracts/Ame/lib/Strings.sol\":798:803  value */\n      dup6\n        /* \"contracts/Ame/lib/Strings.sol\":798:808  value != 0 */\n      eq\n        /* \"contracts/Ame/lib/Strings.sol\":791:941  while (value != 0) {... */\n      tag_287\n      jumpi\n        /* \"contracts/Ame/lib/Strings.sol\":834:835  1 */\n      0x01\n        /* \"contracts/Ame/lib/Strings.sol\":824:835  digits -= 1 */\n      dup3\n      tag_288\n      swap2\n      swap1\n      tag_123\n      jump\t// in\n    tag_288:\n      swap2\n      pop\n        /* \"contracts/Ame/lib/Strings.sol\":900:902  10 */\n      0x0a\n        /* \"contracts/Ame/lib/Strings.sol\":892:897  value */\n      dup6\n        /* \"contracts/Ame/lib/Strings.sol\":892:902  value % 10 */\n      tag_289\n      swap2\n      swap1\n      tag_290\n      jump\t// in\n    tag_289:\n        /* \"contracts/Ame/lib/Strings.sol\":879:881  48 */\n      0x30\n        /* \"contracts/Ame/lib/Strings.sol\":879:903  48 + uint256(value % 10) */\n      tag_291\n      swap2\n      swap1\n      tag_140\n      jump\t// in\n    tag_291:\n        /* \"contracts/Ame/lib/Strings.sol\":866:905  bytes1(uint8(48 + uint256(value % 10))) */\n      0xf8\n      shl\n        /* \"contracts/Ame/lib/Strings.sol\":849:855  buffer */\n      dup2\n        /* \"contracts/Ame/lib/Strings.sol\":856:862  digits */\n      dup4\n        /* \"contracts/Ame/lib/Strings.sol\":849:863  buffer[digits] */\n      dup2\n      mload\n      dup2\n      lt\n      tag_292\n      jumpi\n      tag_293\n      tag_78\n      jump\t// in\n    tag_293:\n    tag_292:\n      0x20\n      add\n      add\n        /* \"contracts/Ame/lib/Strings.sol\":849:905  buffer[digits] = bytes1(uint8(48 + uint256(value % 10))) */\n      swap1\n      not(0xffffffffffffffffffffffffffffffffffffffffffffffffffffffffffffff)\n      and\n      swap1\n      dup2\n      0x00\n      byte\n      swap1\n      mstore8\n      pop\n        /* \"contracts/Ame/lib/Strings.sol\":928:930  10 */\n      0x0a\n        /* \"contracts/Ame/lib/Strings.sol\":919:930  value /= 10 */\n      dup6\n      tag_294\n      swap2\n      swap1\n      tag_126\n      jump\t// in\n    tag_294:\n      swap5\n      pop\n        /* \"contracts/Ame/lib/Strings.sol\":791:941  while (value != 0) {... */\n      jump(tag_286)\n    tag_287:\n        /* \"contracts/Ame/lib/Strings.sol\":964:970  buffer */\n      dup1\n        /* \"contracts/Ame/lib/Strings.sol\":950:971  return string(buffer) */\n      swap4\n      pop\n      pop\n      pop\n      pop\n        /* \"contracts/Ame/lib/Strings.sol\":275:978  function toString(uint256 value) internal pure returns (string memory) {... */\n    tag_277:\n      swap2\n      swap1\n      pop\n      jump\t// out\n        /* \"contracts/Ame/lib/Base64.sol\":394:1717  function encode(bytes memory data) internal pure returns (string memory) {... */\n    tag_107:\n        /* \"contracts/Ame/lib/Base64.sol\":452:465  string memory */\n      0x60\n        /* \"contracts/Ame/lib/Base64.sol\":473:484  uint256 len */\n      0x00\n        /* \"contracts/Ame/lib/Base64.sol\":487:491  data */\n      dup3\n        /* \"contracts/Ame/lib/Base64.sol\":487:498  data.length */\n      mload\n        /* \"contracts/Ame/lib/Base64.sol\":473:498  uint256 len = data.length */\n      swap1\n      pop\n        /* \"contracts/Ame/lib/Base64.sol\":515:516  0 */\n      0x00\n        /* \"contracts/Ame/lib/Base64.sol\":508:511  len */\n      dup2\n        /* \"contracts/Ame/lib/Base64.sol\":508:516  len == 0 */\n      sub\n        /* \"contracts/Ame/lib/Base64.sol\":504:527  if (len == 0) return \"\" */\n      tag_296\n      jumpi\n        /* \"contracts/Ame/lib/Base64.sol\":518:527  return \"\" */\n      mload(0x40)\n      dup1\n      0x20\n      add\n      0x40\n      mstore\n      dup1\n      0x00\n      dup2\n      mstore\n      pop\n      swap2\n      pop\n      pop\n      jump(tag_295)\n        /* \"contracts/Ame/lib/Base64.sol\":504:527  if (len == 0) return \"\" */\n    tag_296:\n        /* \"contracts/Ame/lib/Base64.sol\":568:586  uint256 encodedLen */\n      0x00\n        /* \"contracts/Ame/lib/Base64.sol\":606:607  3 */\n      0x03\n        /* \"contracts/Ame/lib/Base64.sol\":601:602  2 */\n      0x02\n        /* \"contracts/Ame/lib/Base64.sol\":595:598  len */\n      dup4\n        /* \"contracts/Ame/lib/Base64.sol\":595:602  len + 2 */\n      tag_297\n      swap2\n      swap1\n      tag_140\n      jump\t// in\n    tag_297:\n        /* \"contracts/Ame/lib/Base64.sol\":594:607  (len + 2) / 3 */\n      tag_298\n      swap2\n      swap1\n      tag_126\n      jump\t// in\n    tag_298:\n        /* \"contracts/Ame/lib/Base64.sol\":589:590  4 */\n      0x04\n        /* \"contracts/Ame/lib/Base64.sol\":589:608  4 * ((len + 2) / 3) */\n      tag_299\n      swap2\n      swap1\n      tag_135\n      jump\t// in\n    tag_299:\n        /* \"contracts/Ame/lib/Base64.sol\":568:608  uint256 encodedLen = 4 * ((len + 2) / 3) */\n      swap1\n      pop\n        /* \"contracts/Ame/lib/Base64.sol\":655:674  bytes memory result */\n      0x00\n        /* \"contracts/Ame/lib/Base64.sol\":700:702  32 */\n      0x20\n        /* \"contracts/Ame/lib/Base64.sol\":687:697  encodedLen */\n      dup3\n        /* \"contracts/Ame/lib/Base64.sol\":687:702  encodedLen + 32 */\n      tag_300\n      swap2\n      swap1\n      tag_140\n      jump\t// in\n    tag_300:\n        /* \"contracts/Ame/lib/Base64.sol\":677:703  new bytes(encodedLen + 32) */\n      0xffffffffffffffff\n      dup2\n      gt\n      iszero\n      tag_301\n      jumpi\n      tag_302\n      tag_74\n      jump\t// in\n    tag_302:\n    tag_301:\n      mload(0x40)\n      swap1\n      dup1\n      dup3\n      mstore\n      dup1\n      0x1f\n      add\n      not(0x1f)\n      and\n      0x20\n      add\n      dup3\n      add\n      0x40\n      mstore\n      dup1\n      iszero\n      tag_303\n      jumpi\n      dup2\n      0x20\n      add\n      0x01\n      dup3\n      mul\n      dup1\n      calldatasize\n      dup4\n      calldatacopy\n      dup1\n      dup3\n      add\n      swap2\n      pop\n      pop\n      swap1\n      pop\n    tag_303:\n      pop\n        /* \"contracts/Ame/lib/Base64.sol\":655:703  bytes memory result = new bytes(encodedLen + 32) */\n      swap1\n      pop\n        /* \"contracts/Ame/lib/Base64.sol\":710:728  bytes memory table */\n      0x00\n        /* \"contracts/Ame/lib/Base64.sol\":731:736  TABLE */\n      mload(0x40)\n      dup1\n      0x60\n      add\n      0x40\n      mstore\n      dup1\n      0x40\n      dup2\n      mstore\n      0x20\n      add\n      data_84d8a590de33e00cbdc16e1f28c3506f5ec15c599fab9a6a4bcd575cc2f110ce\n      0x40\n      swap2\n      codecopy\n        /* \"contracts/Ame/lib/Base64.sol\":710:736  bytes memory table = TABLE */\n      swap1\n      pop\n        /* \"contracts/Ame/lib/Base64.sol\":787:788  1 */\n      0x01\n        /* \"contracts/Ame/lib/Base64.sol\":780:785  table */\n      dup2\n        /* \"contracts/Ame/lib/Base64.sol\":776:789  add(table, 1) */\n      add\n        /* \"contracts/Ame/lib/Base64.sol\":825:827  32 */\n      0x20\n        /* \"contracts/Ame/lib/Base64.sol\":817:823  result */\n      dup4\n        /* \"contracts/Ame/lib/Base64.sol\":813:828  add(result, 32) */\n      add\n        /* \"contracts/Ame/lib/Base64.sol\":859:860  0 */\n      0x00\n        /* \"contracts/Ame/lib/Base64.sol\":836:1471  for {... */\n    tag_304:\n        /* \"contracts/Ame/lib/Base64.sol\":875:878  len */\n      dup7\n        /* \"contracts/Ame/lib/Base64.sol\":872:873  i */\n      dup2\n        /* \"contracts/Ame/lib/Base64.sol\":869:879  lt(i, len) */\n      lt\n        /* \"contracts/Ame/lib/Base64.sol\":836:1471  for {... */\n      iszero\n      tag_306\n      jumpi\n        /* \"contracts/Ame/lib/Base64.sol\":913:914  3 */\n      0x03\n        /* \"contracts/Ame/lib/Base64.sol\":910:911  i */\n      dup2\n        /* \"contracts/Ame/lib/Base64.sol\":906:915  add(i, 3) */\n      add\n        /* \"contracts/Ame/lib/Base64.sol\":901:915  i := add(i, 3) */\n      swap1\n      pop\n        /* \"contracts/Ame/lib/Base64.sol\":962:970  0xffffff */\n      0xffffff\n        /* \"contracts/Ame/lib/Base64.sol\":957:958  i */\n      dup2\n        /* \"contracts/Ame/lib/Base64.sol\":951:955  data */\n      dup11\n        /* \"contracts/Ame/lib/Base64.sol\":947:959  add(data, i) */\n      add\n        /* \"contracts/Ame/lib/Base64.sol\":941:960  mload(add(data, i)) */\n      mload\n        /* \"contracts/Ame/lib/Base64.sol\":937:971  and(mload(add(data, i)), 0xffffff) */\n      and\n        /* \"contracts/Ame/lib/Base64.sol\":1032:1036  0x3F */\n      0x3f\n        /* \"contracts/Ame/lib/Base64.sol\":1024:1029  input */\n      dup2\n        /* \"contracts/Ame/lib/Base64.sol\":1020:1022  18 */\n      0x12\n        /* \"contracts/Ame/lib/Base64.sol\":1016:1030  shr(18, input) */\n      shr\n        /* \"contracts/Ame/lib/Base64.sol\":1012:1037  and(shr(18, input), 0x3F) */\n      and\n        /* \"contracts/Ame/lib/Base64.sol\":1002:1010  tablePtr */\n      dup5\n        /* \"contracts/Ame/lib/Base64.sol\":998:1038  add(tablePtr, and(shr(18, input), 0x3F)) */\n      add\n        /* \"contracts/Ame/lib/Base64.sol\":992:1039  mload(add(tablePtr, and(shr(18, input), 0x3F))) */\n      mload\n        /* \"contracts/Ame/lib/Base64.sol\":1062:1065  out */\n      dup1\n        /* \"contracts/Ame/lib/Base64.sol\":1059:1060  8 */\n      0x08\n        /* \"contracts/Ame/lib/Base64.sol\":1055:1066  shl(8, out) */\n      shl\n        /* \"contracts/Ame/lib/Base64.sol\":1048:1066  out := shl(8, out) */\n      swap1\n      pop\n        /* \"contracts/Ame/lib/Base64.sol\":1144:1148  0xFF */\n      0xff\n        /* \"contracts/Ame/lib/Base64.sol\":1135:1139  0x3F */\n      0x3f\n        /* \"contracts/Ame/lib/Base64.sol\":1127:1132  input */\n      dup4\n        /* \"contracts/Ame/lib/Base64.sol\":1123:1125  12 */\n      0x0c\n        /* \"contracts/Ame/lib/Base64.sol\":1119:1133  shr(12, input) */\n      shr\n        /* \"contracts/Ame/lib/Base64.sol\":1115:1140  and(shr(12, input), 0x3F) */\n      and\n        /* \"contracts/Ame/lib/Base64.sol\":1105:1113  tablePtr */\n      dup7\n        /* \"contracts/Ame/lib/Base64.sol\":1101:1141  add(tablePtr, and(shr(12, input), 0x3F)) */\n      add\n        /* \"contracts/Ame/lib/Base64.sol\":1095:1142  mload(add(tablePtr, and(shr(12, input), 0x3F))) */\n      mload\n        /* \"contracts/Ame/lib/Base64.sol\":1091:1149  and(mload(add(tablePtr, and(shr(12, input), 0x3F))), 0xFF) */\n      and\n        /* \"contracts/Ame/lib/Base64.sol\":1086:1089  out */\n      dup2\n        /* \"contracts/Ame/lib/Base64.sol\":1082:1150  add(out, and(mload(add(tablePtr, and(shr(12, input), 0x3F))), 0xFF)) */\n      add\n        /* \"contracts/Ame/lib/Base64.sol\":1075:1150  out := add(out, and(mload(add(tablePtr, and(shr(12, input), 0x3F))), 0xFF)) */\n      swap1\n      pop\n        /* \"contracts/Ame/lib/Base64.sol\":1173:1176  out */\n      dup1\n        /* \"contracts/Ame/lib/Base64.sol\":1170:1171  8 */\n      0x08\n        /* \"contracts/Ame/lib/Base64.sol\":1166:1177  shl(8, out) */\n      shl\n        /* \"contracts/Ame/lib/Base64.sol\":1159:1177  out := shl(8, out) */\n      swap1\n      pop\n        /* \"contracts/Ame/lib/Base64.sol\":1254:1258  0xFF */\n      0xff\n        /* \"contracts/Ame/lib/Base64.sol\":1245:1249  0x3F */\n      0x3f\n        /* \"contracts/Ame/lib/Base64.sol\":1237:1242  input */\n      dup4\n        /* \"contracts/Ame/lib/Base64.sol\":1234:1235  6 */\n      0x06\n        /* \"contracts/Ame/lib/Base64.sol\":1230:1243  shr(6, input) */\n      shr\n        /* \"contracts/Ame/lib/Base64.sol\":1226:1250  and(shr(6, input), 0x3F) */\n      and\n        /* \"contracts/Ame/lib/Base64.sol\":1216:1224  tablePtr */\n      dup7\n        /* \"contracts/Ame/lib/Base64.sol\":1212:1251  add(tablePtr, and(shr(6, input), 0x3F)) */\n      add\n        /* \"contracts/Ame/lib/Base64.sol\":1206:1252  mload(add(tablePtr, and(shr(6, input), 0x3F))) */\n      mload\n        /* \"contracts/Ame/lib/Base64.sol\":1202:1259  and(mload(add(tablePtr, and(shr(6, input), 0x3F))), 0xFF) */\n      and\n        /* \"contracts/Ame/lib/Base64.sol\":1197:1200  out */\n      dup2\n        /* \"contracts/Ame/lib/Base64.sol\":1193:1260  add(out, and(mload(add(tablePtr, and(shr(6, input), 0x3F))), 0xFF)) */\n      add\n        /* \"contracts/Ame/lib/Base64.sol\":1186:1260  out := add(out, and(mload(add(tablePtr, and(shr(6, input), 0x3F))), 0xFF)) */\n      swap1\n      pop\n        /* \"contracts/Ame/lib/Base64.sol\":1283:1286  out */\n      dup1\n        /* \"contracts/Ame/lib/Base64.sol\":1280:1281  8 */\n      0x08\n        /* \"contracts/Ame/lib/Base64.sol\":1276:1287  shl(8, out) */\n      shl\n        /* \"contracts/Ame/lib/Base64.sol\":1269:1287  out := shl(8, out) */\n      swap1\n      pop\n        /* \"contracts/Ame/lib/Base64.sol\":1356:1360  0xFF */\n      0xff\n        /* \"contracts/Ame/lib/Base64.sol\":1347:1351  0x3F */\n      0x3f\n        /* \"contracts/Ame/lib/Base64.sol\":1340:1345  input */\n      dup4\n        /* \"contracts/Ame/lib/Base64.sol\":1336:1352  and(input, 0x3F) */\n      and\n        /* \"contracts/Ame/lib/Base64.sol\":1326:1334  tablePtr */\n      dup7\n        /* \"contracts/Ame/lib/Base64.sol\":1322:1353  add(tablePtr, and(input, 0x3F)) */\n      add\n        /* \"contracts/Ame/lib/Base64.sol\":1316:1354  mload(add(tablePtr, and(input, 0x3F))) */\n      mload\n        /* \"contracts/Ame/lib/Base64.sol\":1312:1361  and(mload(add(tablePtr, and(input, 0x3F))), 0xFF) */\n      and\n        /* \"contracts/Ame/lib/Base64.sol\":1307:1310  out */\n      dup2\n        /* \"contracts/Ame/lib/Base64.sol\":1303:1362  add(out, and(mload(add(tablePtr, and(input, 0x3F))), 0xFF)) */\n      add\n        /* \"contracts/Ame/lib/Base64.sol\":1296:1362  out := add(out, and(mload(add(tablePtr, and(input, 0x3F))), 0xFF)) */\n      swap1\n      pop\n        /* \"contracts/Ame/lib/Base64.sol\":1387:1390  out */\n      dup1\n        /* \"contracts/Ame/lib/Base64.sol\":1382:1385  224 */\n      0xe0\n        /* \"contracts/Ame/lib/Base64.sol\":1378:1391  shl(224, out) */\n      shl\n        /* \"contracts/Ame/lib/Base64.sol\":1371:1391  out := shl(224, out) */\n      swap1\n      pop\n        /* \"contracts/Ame/lib/Base64.sol\":1419:1422  out */\n      dup1\n        /* \"contracts/Ame/lib/Base64.sol\":1408:1417  resultPtr */\n      dup5\n        /* \"contracts/Ame/lib/Base64.sol\":1401:1423  mstore(resultPtr, out) */\n      mstore\n        /* \"contracts/Ame/lib/Base64.sol\":1461:1462  4 */\n      0x04\n        /* \"contracts/Ame/lib/Base64.sol\":1450:1459  resultPtr */\n      dup5\n        /* \"contracts/Ame/lib/Base64.sol\":1446:1463  add(resultPtr, 4) */\n      add\n        /* \"contracts/Ame/lib/Base64.sol\":1433:1463  resultPtr := add(resultPtr, 4) */\n      swap4\n      pop\n        /* \"contracts/Ame/lib/Base64.sol\":891:1471  {... */\n      pop\n      pop\n        /* \"contracts/Ame/lib/Base64.sol\":836:1471  for {... */\n      jump(tag_304)\n    tag_306:\n        /* \"contracts/Ame/lib/Base64.sol\":840:868  {... */\n      pop\n        /* \"contracts/Ame/lib/Base64.sol\":1495:1496  3 */\n      0x03\n        /* \"contracts/Ame/lib/Base64.sol\":1490:1493  len */\n      dup7\n        /* \"contracts/Ame/lib/Base64.sol\":1486:1497  mod(len, 3) */\n      mod\n        /* \"contracts/Ame/lib/Base64.sol\":1509:1510  1 */\n      0x01\n        /* \"contracts/Ame/lib/Base64.sol\":1504:1572  case 1 {... */\n      dup2\n      eq\n      tag_308\n      jumpi\n        /* \"contracts/Ame/lib/Base64.sol\":1584:1585  2 */\n      0x02\n        /* \"contracts/Ame/lib/Base64.sol\":1579:1645  case 2 {... */\n      dup2\n      eq\n      tag_309\n      jumpi\n        /* \"contracts/Ame/lib/Base64.sol\":1479:1645  switch mod(len, 3)... */\n      jump(tag_307)\n        /* \"contracts/Ame/lib/Base64.sol\":1504:1572  case 1 {... */\n    tag_308:\n        /* \"contracts/Ame/lib/Base64.sol\":1556:1562  0x3d3d */\n      0x3d3d\n        /* \"contracts/Ame/lib/Base64.sol\":1551:1554  240 */\n      0xf0\n        /* \"contracts/Ame/lib/Base64.sol\":1547:1563  shl(240, 0x3d3d) */\n      shl\n        /* \"contracts/Ame/lib/Base64.sol\":1543:1544  2 */\n      0x02\n        /* \"contracts/Ame/lib/Base64.sol\":1532:1541  resultPtr */\n      dup4\n        /* \"contracts/Ame/lib/Base64.sol\":1528:1545  sub(resultPtr, 2) */\n      sub\n        /* \"contracts/Ame/lib/Base64.sol\":1521:1564  mstore(sub(resultPtr, 2), shl(240, 0x3d3d)) */\n      mstore\n        /* \"contracts/Ame/lib/Base64.sol\":1504:1572  case 1 {... */\n      jump(tag_307)\n        /* \"contracts/Ame/lib/Base64.sol\":1579:1645  case 2 {... */\n    tag_309:\n        /* \"contracts/Ame/lib/Base64.sol\":1631:1635  0x3d */\n      0x3d\n        /* \"contracts/Ame/lib/Base64.sol\":1626:1629  248 */\n      0xf8\n        /* \"contracts/Ame/lib/Base64.sol\":1622:1636  shl(248, 0x3d) */\n      shl\n        /* \"contracts/Ame/lib/Base64.sol\":1618:1619  1 */\n      0x01\n        /* \"contracts/Ame/lib/Base64.sol\":1607:1616  resultPtr */\n      dup4\n        /* \"contracts/Ame/lib/Base64.sol\":1603:1620  sub(resultPtr, 1) */\n      sub\n        /* \"contracts/Ame/lib/Base64.sol\":1596:1637  mstore(sub(resultPtr, 1), shl(248, 0x3d)) */\n      mstore\n        /* \"contracts/Ame/lib/Base64.sol\":1479:1645  switch mod(len, 3)... */\n    tag_307:\n      pop\n        /* \"contracts/Ame/lib/Base64.sol\":1668:1678  encodedLen */\n      dup5\n        /* \"contracts/Ame/lib/Base64.sol\":1660:1666  result */\n      dup5\n        /* \"contracts/Ame/lib/Base64.sol\":1653:1679  mstore(result, encodedLen) */\n      mstore\n        /* \"contracts/Ame/lib/Base64.sol\":752:1685  {... */\n      pop\n      pop\n        /* \"contracts/Ame/lib/Base64.sol\":1705:1711  result */\n      dup2\n        /* \"contracts/Ame/lib/Base64.sol\":1691:1712  return string(result) */\n      swap5\n      pop\n      pop\n      pop\n      pop\n      pop\n        /* \"contracts/Ame/lib/Base64.sol\":394:1717  function encode(bytes memory data) internal pure returns (string memory) {... */\n    tag_295:\n      swap2\n      swap1\n      pop\n      jump\t// out\n        /* \"contracts/Ame/lib/Strings.sol\":1535:1976  function toHexString(uint256 value, uint256 length) internal pure returns (string memory) {... */\n    tag_110:\n        /* \"contracts/Ame/lib/Strings.sol\":1610:1623  string memory */\n      0x60\n        /* \"contracts/Ame/lib/Strings.sol\":1635:1654  bytes memory buffer */\n      0x00\n        /* \"contracts/Ame/lib/Strings.sol\":1680:1681  2 */\n      0x02\n        /* \"contracts/Ame/lib/Strings.sol\":1671:1677  length */\n      dup4\n        /* \"contracts/Ame/lib/Strings.sol\":1667:1668  2 */\n      0x02\n        /* \"contracts/Ame/lib/Strings.sol\":1667:1677  2 * length */\n      tag_311\n      swap2\n      swap1\n      tag_135\n      jump\t// in\n    tag_311:\n        /* \"contracts/Ame/lib/Strings.sol\":1667:1681  2 * length + 2 */\n      tag_312\n      swap2\n      swap1\n      tag_140\n      jump\t// in\n    tag_312:\n        /* \"contracts/Ame/lib/Strings.sol\":1657:1682  new bytes(2 * length + 2) */\n      0xffffffffffffffff\n      dup2\n      gt\n      iszero\n      tag_313\n      jumpi\n      tag_314\n      tag_74\n      jump\t// in\n    tag_314:\n    tag_313:\n      mload(0x40)\n      swap1\n      dup1\n      dup3\n      mstore\n      dup1\n      0x1f\n      add\n      not(0x1f)\n      and\n      0x20\n      add\n      dup3\n      add\n      0x40\n      mstore\n      dup1\n      iszero\n      tag_315\n      jumpi\n      dup2\n      0x20\n      add\n      0x01\n      dup3\n      mul\n      dup1\n      calldatasize\n      dup4\n      calldatacopy\n      dup1\n      dup3\n      add\n      swap2\n      pop\n      pop\n      swap1\n      pop\n    tag_315:\n      pop\n        /* \"contracts/Ame/lib/Strings.sol\":1635:1682  bytes memory buffer = new bytes(2 * length + 2) */\n      swap1\n      pop\n        /* \"contracts/Ame/lib/Strings.sol\":1692:1707  buffer[0] = \"0\" */\n      0x3000000000000000000000000000000000000000000000000000000000000000\n        /* \"contracts/Ame/lib/Strings.sol\":1692:1698  buffer */\n      dup2\n        /* \"contracts/Ame/lib/Strings.sol\":1699:1700  0 */\n      0x00\n        /* \"contracts/Ame/lib/Strings.sol\":1692:1701  buffer[0] */\n      dup2\n      mload\n      dup2\n      lt\n      tag_316\n      jumpi\n      tag_317\n      tag_78\n      jump\t// in\n    tag_317:\n    tag_316:\n      0x20\n      add\n      add\n        /* \"contracts/Ame/lib/Strings.sol\":1692:1707  buffer[0] = \"0\" */\n      swap1\n      not(0xffffffffffffffffffffffffffffffffffffffffffffffffffffffffffffff)\n      and\n      swap1\n      dup2\n      0x00\n      byte\n      swap1\n      mstore8\n      pop\n        /* \"contracts/Ame/lib/Strings.sol\":1717:1732  buffer[1] = \"x\" */\n      0x7800000000000000000000000000000000000000000000000000000000000000\n        /* \"contracts/Ame/lib/Strings.sol\":1717:1723  buffer */\n      dup2\n        /* \"contracts/Ame/lib/Strings.sol\":1724:1725  1 */\n      0x01\n        /* \"contracts/Ame/lib/Strings.sol\":1717:1726  buffer[1] */\n      dup2\n      mload\n      dup2\n      lt\n      tag_318\n      jumpi\n      tag_319\n      tag_78\n      jump\t// in\n    tag_319:\n    tag_318:\n      0x20\n      add\n      add\n        /* \"contracts/Ame/lib/Strings.sol\":1717:1732  buffer[1] = \"x\" */\n      swap1\n      not(0xffffffffffffffffffffffffffffffffffffffffffffffffffffffffffffff)\n      and\n      swap1\n      dup2\n      0x00\n      byte\n      swap1\n      mstore8\n      pop\n        /* \"contracts/Ame/lib/Strings.sol\":1747:1756  uint256 i */\n      0x00\n        /* \"contracts/Ame/lib/Strings.sol\":1772:1773  1 */\n      0x01\n        /* \"contracts/Ame/lib/Strings.sol\":1763:1769  length */\n      dup5\n        /* \"contracts/Ame/lib/Strings.sol\":1759:1760  2 */\n      0x02\n        /* \"contracts/Ame/lib/Strings.sol\":1759:1769  2 * length */\n      tag_323\n      swap2\n      swap1\n      tag_135\n      jump\t// in\n    tag_323:\n        /* \"contracts/Ame/lib/Strings.sol\":1759:1773  2 * length + 1 */\n      tag_324\n      swap2\n      swap1\n      tag_140\n      jump\t// in\n    tag_324:\n        /* \"contracts/Ame/lib/Strings.sol\":1747:1773  uint256 i = 2 * length + 1 */\n      swap1\n      pop\n        /* \"contracts/Ame/lib/Strings.sol\":1742:1874  for (uint256 i = 2 * length + 1; i > 1; --i) {... */\n    tag_320:\n        /* \"contracts/Ame/lib/Strings.sol\":1779:1780  1 */\n      0x01\n        /* \"contracts/Ame/lib/Strings.sol\":1775:1776  i */\n      dup2\n        /* \"contracts/Ame/lib/Strings.sol\":1775:1780  i > 1 */\n      gt\n        /* \"contracts/Ame/lib/Strings.sol\":1742:1874  for (uint256 i = 2 * length + 1; i > 1; --i) {... */\n      iszero\n      tag_321\n      jumpi\n        /* \"contracts/Ame/lib/Strings.sol\":1813:1825  _HEX_SYMBOLS */\n      0x3031323334353637383961626364656600000000000000000000000000000000\n        /* \"contracts/Ame/lib/Strings.sol\":1834:1837  0xf */\n      0x0f\n        /* \"contracts/Ame/lib/Strings.sol\":1826:1831  value */\n      dup7\n        /* \"contracts/Ame/lib/Strings.sol\":1826:1837  value & 0xf */\n      and\n        /* \"contracts/Ame/lib/Strings.sol\":1813:1838  _HEX_SYMBOLS[value & 0xf] */\n      0x10\n      dup2\n      lt\n      tag_325\n      jumpi\n      tag_326\n      tag_78\n      jump\t// in\n    tag_326:\n    tag_325:\n      byte\n      0xf8\n      shl\n        /* \"contracts/Ame/lib/Strings.sol\":1801:1807  buffer */\n      dup3\n        /* \"contracts/Ame/lib/Strings.sol\":1808:1809  i */\n      dup3\n        /* \"contracts/Ame/lib/Strings.sol\":1801:1810  buffer[i] */\n      dup2\n      mload\n      dup2\n      lt\n      tag_327\n      jumpi\n      tag_328\n      tag_78\n      jump\t// in\n    tag_328:\n    tag_327:\n      0x20\n      add\n      add\n        /* \"contracts/Ame/lib/Strings.sol\":1801:1838  buffer[i] = _HEX_SYMBOLS[value & 0xf] */\n      swap1\n      not(0xffffffffffffffffffffffffffffffffffffffffffffffffffffffffffffff)\n      and\n      swap1\n      dup2\n      0x00\n      byte\n      swap1\n      mstore8\n      pop\n        /* \"contracts/Ame/lib/Strings.sol\":1862:1863  4 */\n      0x04\n        /* \"contracts/Ame/lib/Strings.sol\":1852:1863  value >>= 4 */\n      dup6\n      swap1\n      shr\n      swap5\n      pop\n        /* \"contracts/Ame/lib/Strings.sol\":1782:1785  --i */\n      dup1\n      tag_329\n      swap1\n      tag_330\n      jump\t// in\n    tag_329:\n      swap1\n      pop\n        /* \"contracts/Ame/lib/Strings.sol\":1742:1874  for (uint256 i = 2 * length + 1; i > 1; --i) {... */\n      jump(tag_320)\n    tag_321:\n      pop\n        /* \"contracts/Ame/lib/Strings.sol\":1900:1901  0 */\n      0x00\n        /* \"contracts/Ame/lib/Strings.sol\":1891:1896  value */\n      dup5\n        /* \"contracts/Ame/lib/Strings.sol\":1891:1901  value == 0 */\n      eq\n        /* \"contracts/Ame/lib/Strings.sol\":1883:1938  require(value == 0, \"Strings: hex length insufficient\") */\n      tag_331\n      jumpi\n      mload(0x40)\n      0x08c379a000000000000000000000000000000000000000000000000000000000\n      dup2\n      mstore\n      0x04\n      add\n      tag_332\n      swap1\n      tag_333\n      jump\t// in\n    tag_332:\n      mload(0x40)\n      dup1\n      swap2\n      sub\n      swap1\n      revert\n    tag_331:\n        /* \"contracts/Ame/lib/Strings.sol\":1962:1968  buffer */\n      dup1\n        /* \"contracts/Ame/lib/Strings.sol\":1948:1969  return string(buffer) */\n      swap2\n      pop\n      pop\n        /* \"contracts/Ame/lib/Strings.sol\":1535:1976  function toHexString(uint256 value, uint256 length) internal pure returns (string memory) {... */\n      swap3\n      swap2\n      pop\n      pop\n      jump\t// out\n        /* \"contracts/AmeComponents/VibeProfiles/VibeProfiles.sol\":6060:6278  function compareStrings(string memory _a, string memory _b)... */\n    tag_219:\n        /* \"contracts/AmeComponents/VibeProfiles/VibeProfiles.sol\":6166:6170  bool */\n      0x00\n        /* \"contracts/AmeComponents/VibeProfiles/VibeProfiles.sol\":6267:6269  _b */\n      dup2\n        /* \"contracts/AmeComponents/VibeProfiles/VibeProfiles.sol\":6250:6270  abi.encodePacked(_b) */\n      add(0x20, mload(0x40))\n      tag_335\n      swap2\n      swap1\n      tag_165\n      jump\t// in\n    tag_335:\n      mload(0x40)\n      0x20\n      dup2\n      dup4\n      sub\n      sub\n      dup2\n      mstore\n      swap1\n      0x40\n      mstore\n        /* \"contracts/AmeComponents/VibeProfiles/VibeProfiles.sol\":6240:6271  keccak256(abi.encodePacked(_b)) */\n      dup1\n      mload\n      swap1\n      0x20\n      add\n      keccak256\n        /* \"contracts/AmeComponents/VibeProfiles/VibeProfiles.sol\":6232:6234  _a */\n      dup4\n        /* \"contracts/AmeComponents/VibeProfiles/VibeProfiles.sol\":6215:6235  abi.encodePacked(_a) */\n      add(0x20, mload(0x40))\n      tag_336\n      swap2\n      swap1\n      tag_165\n      jump\t// in\n    tag_336:\n      mload(0x40)\n      0x20\n      dup2\n      dup4\n      sub\n      sub\n      dup2\n      mstore\n      swap1\n      0x40\n      mstore\n        /* \"contracts/AmeComponents/VibeProfiles/VibeProfiles.sol\":6205:6236  keccak256(abi.encodePacked(_a)) */\n      dup1\n      mload\n      swap1\n      0x20\n      add\n      keccak256\n        /* \"contracts/AmeComponents/VibeProfiles/VibeProfiles.sol\":6205:6271  keccak256(abi.encodePacked(_a)) == keccak256(abi.encodePacked(_b)) */\n      eq\n        /* \"contracts/AmeComponents/VibeProfiles/VibeProfiles.sol\":6186:6271  return... */\n      swap1\n      pop\n        /* \"contracts/AmeComponents/VibeProfiles/VibeProfiles.sol\":6060:6278  function compareStrings(string memory _a, string memory _b)... */\n      swap3\n      swap2\n      pop\n      pop\n      jump\t// out\n        /* \"#utility.yul\":7:134   */\n    tag_337:\n        /* \"#utility.yul\":87:93   */\n      0x00\n        /* \"#utility.yul\":121:126   */\n      dup2\n        /* \"#utility.yul\":115:127   */\n      mload\n        /* \"#utility.yul\":105:127   */\n      swap1\n      pop\n        /* \"#utility.yul\":7:134   */\n      swap2\n      swap1\n      pop\n      jump\t// out\n        /* \"#utility.yul\":140:322   */\n    tag_338:\n        /* \"#utility.yul\":237:248   */\n      0x00\n        /* \"#utility.yul\":271:277   */\n      dup3\n        /* \"#utility.yul\":266:269   */\n      dup3\n        /* \"#utility.yul\":259:278   */\n      mstore\n        /* \"#utility.yul\":311:315   */\n      0x20\n        /* \"#utility.yul\":306:309   */\n      dup3\n        /* \"#utility.yul\":302:316   */\n      add\n        /* \"#utility.yul\":287:316   */\n      swap1\n      pop\n        /* \"#utility.yul\":140:322   */\n      swap3\n      swap2\n      pop\n      pop\n      jump\t// out\n        /* \"#utility.yul\":328:473   */\n    tag_339:\n        /* \"#utility.yul\":408:412   */\n      0x00\n        /* \"#utility.yul\":431:434   */\n      dup2\n        /* \"#utility.yul\":423:434   */\n      swap1\n      pop\n        /* \"#utility.yul\":461:465   */\n      0x20\n        /* \"#utility.yul\":456:459   */\n      dup3\n        /* \"#utility.yul\":452:466   */\n      add\n        /* \"#utility.yul\":444:466   */\n      swap1\n      pop\n        /* \"#utility.yul\":328:473   */\n      swap2\n      swap1\n      pop\n      jump\t// out\n        /* \"#utility.yul\":479:659   */\n    tag_81:\n        /* \"#utility.yul\":527:604   */\n      0x4e487b7100000000000000000000000000000000000000000000000000000000\n        /* \"#utility.yul\":524:525   */\n      0x00\n        /* \"#utility.yul\":517:605   */\n      mstore\n        /* \"#utility.yul\":624:628   */\n      0x21\n        /* \"#utility.yul\":621:622   */\n      0x04\n        /* \"#utility.yul\":614:629   */\n      mstore\n        /* \"#utility.yul\":648:652   */\n      0x24\n        /* \"#utility.yul\":645:646   */\n      0x00\n        /* \"#utility.yul\":638:653   */\n      revert\n        /* \"#utility.yul\":665:783   */\n    tag_340:\n        /* \"#utility.yul\":751:752   */\n      0x04\n        /* \"#utility.yul\":744:749   */\n      dup2\n        /* \"#utility.yul\":741:753   */\n      lt\n        /* \"#utility.yul\":731:777   */\n      tag_436\n      jumpi\n        /* \"#utility.yul\":757:775   */\n      tag_437\n      tag_81\n      jump\t// in\n    tag_437:\n        /* \"#utility.yul\":731:777   */\n    tag_436:\n        /* \"#utility.yul\":665:783   */\n      pop\n      jump\t// out\n        /* \"#utility.yul\":789:926   */\n    tag_341:\n        /* \"#utility.yul\":839:846   */\n      0x00\n        /* \"#utility.yul\":868:873   */\n      dup2\n        /* \"#utility.yul\":857:873   */\n      swap1\n      pop\n        /* \"#utility.yul\":874:920   */\n      tag_439\n        /* \"#utility.yul\":914:919   */\n      dup3\n        /* \"#utility.yul\":874:920   */\n      tag_340\n      jump\t// in\n    tag_439:\n        /* \"#utility.yul\":789:926   */\n      swap2\n      swap1\n      pop\n      jump\t// out\n        /* \"#utility.yul\":932:1069   */\n    tag_342:\n        /* \"#utility.yul\":993:1002   */\n      0x00\n        /* \"#utility.yul\":1026:1063   */\n      tag_441\n        /* \"#utility.yul\":1057:1062   */\n      dup3\n        /* \"#utility.yul\":1026:1063   */\n      tag_341\n      jump\t// in\n    tag_441:\n        /* \"#utility.yul\":1013:1063   */\n      swap1\n      pop\n        /* \"#utility.yul\":932:1069   */\n      swap2\n      swap1\n      pop\n      jump\t// out\n        /* \"#utility.yul\":1075:1218   */\n    tag_343:\n        /* \"#utility.yul\":1163:1211   */\n      tag_443\n        /* \"#utility.yul\":1205:1210   */\n      dup2\n        /* \"#utility.yul\":1163:1211   */\n      tag_342\n      jump\t// in\n    tag_443:\n        /* \"#utility.yul\":1158:1161   */\n      dup3\n        /* \"#utility.yul\":1151:1212   */\n      mstore\n        /* \"#utility.yul\":1075:1218   */\n      pop\n      pop\n      jump\t// out\n        /* \"#utility.yul\":1224:1425   */\n    tag_344:\n        /* \"#utility.yul\":1304:1314   */\n      0x00\n        /* \"#utility.yul\":1325:1382   */\n      tag_445\n        /* \"#utility.yul\":1378:1381   */\n      dup4\n        /* \"#utility.yul\":1370:1376   */\n      dup4\n        /* \"#utility.yul\":1325:1382   */\n      tag_343\n      jump\t// in\n    tag_445:\n        /* \"#utility.yul\":1414:1418   */\n      0x20\n        /* \"#utility.yul\":1409:1412   */\n      dup4\n        /* \"#utility.yul\":1405:1419   */\n      add\n        /* \"#utility.yul\":1391:1419   */\n      swap1\n      pop\n        /* \"#utility.yul\":1224:1425   */\n      swap3\n      swap2\n      pop\n      pop\n      jump\t// out\n        /* \"#utility.yul\":1431:1557   */\n    tag_345:\n        /* \"#utility.yul\":1514:1518   */\n      0x00\n        /* \"#utility.yul\":1546:1550   */\n      0x20\n        /* \"#utility.yul\":1541:1544   */\n      dup3\n        /* \"#utility.yul\":1537:1551   */\n      add\n        /* \"#utility.yul\":1529:1551   */\n      swap1\n      pop\n        /* \"#utility.yul\":1431:1557   */\n      swap2\n      swap1\n      pop\n      jump\t// out\n        /* \"#utility.yul\":1611:2402   */\n    tag_346:\n        /* \"#utility.yul\":1741:1744   */\n      0x00\n        /* \"#utility.yul\":1770:1837   */\n      tag_448\n        /* \"#utility.yul\":1831:1836   */\n      dup3\n        /* \"#utility.yul\":1770:1837   */\n      tag_337\n      jump\t// in\n    tag_448:\n        /* \"#utility.yul\":1853:1937   */\n      tag_449\n        /* \"#utility.yul\":1930:1936   */\n      dup2\n        /* \"#utility.yul\":1925:1928   */\n      dup6\n        /* \"#utility.yul\":1853:1937   */\n      tag_338\n      jump\t// in\n    tag_449:\n        /* \"#utility.yul\":1846:1937   */\n      swap4\n      pop\n        /* \"#utility.yul\":1961:2030   */\n      tag_450\n        /* \"#utility.yul\":2024:2029   */\n      dup4\n        /* \"#utility.yul\":1961:2030   */\n      tag_339\n      jump\t// in\n    tag_450:\n        /* \"#utility.yul\":2053:2060   */\n      dup1\n        /* \"#utility.yul\":2084:2085   */\n      0x00\n        /* \"#utility.yul\":2069:2377   */\n    tag_451:\n        /* \"#utility.yul\":2094:2100   */\n      dup4\n        /* \"#utility.yul\":2091:2092   */\n      dup2\n        /* \"#utility.yul\":2088:2101   */\n      lt\n        /* \"#utility.yul\":2069:2377   */\n      iszero\n      tag_453\n      jumpi\n        /* \"#utility.yul\":2170:2176   */\n      dup2\n        /* \"#utility.yul\":2164:2177   */\n      mload\n        /* \"#utility.yul\":2197:2271   */\n      tag_454\n        /* \"#utility.yul\":2267:2270   */\n      dup9\n        /* \"#utility.yul\":2252:2265   */\n      dup3\n        /* \"#utility.yul\":2197:2271   */\n      tag_344\n      jump\t// in\n    tag_454:\n        /* \"#utility.yul\":2190:2271   */\n      swap8\n      pop\n        /* \"#utility.yul\":2294:2367   */\n      tag_455\n        /* \"#utility.yul\":2360:2366   */\n      dup4\n        /* \"#utility.yul\":2294:2367   */\n      tag_345\n      jump\t// in\n    tag_455:\n        /* \"#utility.yul\":2284:2367   */\n      swap3\n      pop\n        /* \"#utility.yul\":2129:2377   */\n      pop\n        /* \"#utility.yul\":2116:2117   */\n      0x01\n        /* \"#utility.yul\":2113:2114   */\n      dup2\n        /* \"#utility.yul\":2109:2118   */\n      add\n        /* \"#utility.yul\":2104:2118   */\n      swap1\n      pop\n        /* \"#utility.yul\":2069:2377   */\n      jump(tag_451)\n    tag_453:\n        /* \"#utility.yul\":2073:2087   */\n      pop\n        /* \"#utility.yul\":2393:2396   */\n      dup6\n        /* \"#utility.yul\":2386:2396   */\n      swap4\n      pop\n        /* \"#utility.yul\":1746:2402   */\n      pop\n      pop\n      pop\n        /* \"#utility.yul\":1611:2402   */\n      swap3\n      swap2\n      pop\n      pop\n      jump\t// out\n        /* \"#utility.yul\":2408:2803   */\n    tag_17:\n        /* \"#utility.yul\":2562:2566   */\n      0x00\n        /* \"#utility.yul\":2600:2602   */\n      0x20\n        /* \"#utility.yul\":2589:2598   */\n      dup3\n        /* \"#utility.yul\":2585:2603   */\n      add\n        /* \"#utility.yul\":2577:2603   */\n      swap1\n      pop\n        /* \"#utility.yul\":2649:2658   */\n      dup2\n        /* \"#utility.yul\":2643:2647   */\n      dup2\n        /* \"#utility.yul\":2639:2659   */\n      sub\n        /* \"#utility.yul\":2635:2636   */\n      0x00\n        /* \"#utility.yul\":2624:2633   */\n      dup4\n        /* \"#utility.yul\":2620:2637   */\n      add\n        /* \"#utility.yul\":2613:2660   */\n      mstore\n        /* \"#utility.yul\":2677:2796   */\n      tag_457\n        /* \"#utility.yul\":2791:2795   */\n      dup2\n        /* \"#utility.yul\":2782:2788   */\n      dup5\n        /* \"#utility.yul\":2677:2796   */\n      tag_346\n      jump\t// in\n    tag_457:\n        /* \"#utility.yul\":2669:2796   */\n      swap1\n      pop\n        /* \"#utility.yul\":2408:2803   */\n      swap3\n      swap2\n      pop\n      pop\n      jump\t// out\n        /* \"#utility.yul\":2809:2886   */\n    tag_347:\n        /* \"#utility.yul\":2846:2853   */\n      0x00\n        /* \"#utility.yul\":2875:2880   */\n      dup2\n        /* \"#utility.yul\":2864:2880   */\n      swap1\n      pop\n        /* \"#utility.yul\":2809:2886   */\n      swap2\n      swap1\n      pop\n      jump\t// out\n        /* \"#utility.yul\":2892:3010   */\n    tag_348:\n        /* \"#utility.yul\":2979:3003   */\n      tag_460\n        /* \"#utility.yul\":2997:3002   */\n      dup2\n        /* \"#utility.yul\":2979:3003   */\n      tag_347\n      jump\t// in\n    tag_460:\n        /* \"#utility.yul\":2974:2977   */\n      dup3\n        /* \"#utility.yul\":2967:3004   */\n      mstore\n        /* \"#utility.yul\":2892:3010   */\n      pop\n      pop\n      jump\t// out\n        /* \"#utility.yul\":3016:3238   */\n    tag_22:\n        /* \"#utility.yul\":3109:3113   */\n      0x00\n        /* \"#utility.yul\":3147:3149   */\n      0x20\n        /* \"#utility.yul\":3136:3145   */\n      dup3\n        /* \"#utility.yul\":3132:3150   */\n      add\n        /* \"#utility.yul\":3124:3150   */\n      swap1\n      pop\n        /* \"#utility.yul\":3160:3231   */\n      tag_462\n        /* \"#utility.yul\":3228:3229   */\n      0x00\n        /* \"#utility.yul\":3217:3226   */\n      dup4\n        /* \"#utility.yul\":3213:3230   */\n      add\n        /* \"#utility.yul\":3204:3210   */\n      dup5\n        /* \"#utility.yul\":3160:3231   */\n      tag_348\n      jump\t// in\n    tag_462:\n        /* \"#utility.yul\":3016:3238   */\n      swap3\n      swap2\n      pop\n      pop\n      jump\t// out\n        /* \"#utility.yul\":3244:3319   */\n    tag_349:\n        /* \"#utility.yul\":3277:3283   */\n      0x00\n        /* \"#utility.yul\":3310:3312   */\n      0x40\n        /* \"#utility.yul\":3304:3313   */\n      mload\n        /* \"#utility.yul\":3294:3313   */\n      swap1\n      pop\n        /* \"#utility.yul\":3244:3319   */\n      swap1\n      jump\t// out\n        /* \"#utility.yul\":3325:3442   */\n    tag_350:\n        /* \"#utility.yul\":3434:3435   */\n      0x00\n        /* \"#utility.yul\":3431:3432   */\n      dup1\n        /* \"#utility.yul\":3424:3436   */\n      revert\n        /* \"#utility.yul\":3448:3565   */\n    tag_351:\n        /* \"#utility.yul\":3557:3558   */\n      0x00\n        /* \"#utility.yul\":3554:3555   */\n      dup1\n        /* \"#utility.yul\":3547:3559   */\n      revert\n        /* \"#utility.yul\":3571:3693   */\n    tag_352:\n        /* \"#utility.yul\":3644:3668   */\n      tag_467\n        /* \"#utility.yul\":3662:3667   */\n      dup2\n        /* \"#utility.yul\":3644:3668   */\n      tag_347\n      jump\t// in\n    tag_467:\n        /* \"#utility.yul\":3637:3642   */\n      dup2\n        /* \"#utility.yul\":3634:3669   */\n      eq\n        /* \"#utility.yul\":3624:3687   */\n      tag_468\n      jumpi\n        /* \"#utility.yul\":3683:3684   */\n      0x00\n        /* \"#utility.yul\":3680:3681   */\n      dup1\n        /* \"#utility.yul\":3673:3685   */\n      revert\n        /* \"#utility.yul\":3624:3687   */\n    tag_468:\n        /* \"#utility.yul\":3571:3693   */\n      pop\n      jump\t// out\n        /* \"#utility.yul\":3699:3838   */\n    tag_353:\n        /* \"#utility.yul\":3745:3750   */\n      0x00\n        /* \"#utility.yul\":3783:3789   */\n      dup2\n        /* \"#utility.yul\":3770:3790   */\n      calldataload\n        /* \"#utility.yul\":3761:3790   */\n      swap1\n      pop\n        /* \"#utility.yul\":3799:3832   */\n      tag_470\n        /* \"#utility.yul\":3826:3831   */\n      dup2\n        /* \"#utility.yul\":3799:3832   */\n      tag_352\n      jump\t// in\n    tag_470:\n        /* \"#utility.yul\":3699:3838   */\n      swap3\n      swap2\n      pop\n      pop\n      jump\t// out\n        /* \"#utility.yul\":3844:3961   */\n    tag_354:\n        /* \"#utility.yul\":3953:3954   */\n      0x00\n        /* \"#utility.yul\":3950:3951   */\n      dup1\n        /* \"#utility.yul\":3943:3955   */\n      revert\n        /* \"#utility.yul\":3967:4084   */\n    tag_355:\n        /* \"#utility.yul\":4076:4077   */\n      0x00\n        /* \"#utility.yul\":4073:4074   */\n      dup1\n        /* \"#utility.yul\":4066:4078   */\n      revert\n        /* \"#utility.yul\":4090:4192   */\n    tag_356:\n        /* \"#utility.yul\":4131:4137   */\n      0x00\n        /* \"#utility.yul\":4182:4184   */\n      0x1f\n        /* \"#utility.yul\":4178:4185   */\n      not\n        /* \"#utility.yul\":4173:4175   */\n      0x1f\n        /* \"#utility.yul\":4166:4171   */\n      dup4\n        /* \"#utility.yul\":4162:4176   */\n      add\n        /* \"#utility.yul\":4158:4186   */\n      and\n        /* \"#utility.yul\":4148:4186   */\n      swap1\n      pop\n        /* \"#utility.yul\":4090:4192   */\n      swap2\n      swap1\n      pop\n      jump\t// out\n        /* \"#utility.yul\":4198:4378   */\n    tag_74:\n        /* \"#utility.yul\":4246:4323   */\n      0x4e487b7100000000000000000000000000000000000000000000000000000000\n        /* \"#utility.yul\":4243:4244   */\n      0x00\n        /* \"#utility.yul\":4236:4324   */\n      mstore\n        /* \"#utility.yul\":4343:4347   */\n      0x41\n        /* \"#utility.yul\":4340:4341   */\n      0x04\n        /* \"#utility.yul\":4333:4348   */\n      mstore\n        /* \"#utility.yul\":4367:4371   */\n      0x24\n        /* \"#utility.yul\":4364:4365   */\n      0x00\n        /* \"#utility.yul\":4357:4372   */\n      revert\n        /* \"#utility.yul\":4384:4665   */\n    tag_357:\n        /* \"#utility.yul\":4467:4494   */\n      tag_476\n        /* \"#utility.yul\":4489:4493   */\n      dup3\n        /* \"#utility.yul\":4467:4494   */\n      tag_356\n      jump\t// in\n    tag_476:\n        /* \"#utility.yul\":4459:4465   */\n      dup2\n        /* \"#utility.yul\":4455:4495   */\n      add\n        /* \"#utility.yul\":4597:4603   */\n      dup2\n        /* \"#utility.yul\":4585:4595   */\n      dup2\n        /* \"#utility.yul\":4582:4604   */\n      lt\n        /* \"#utility.yul\":4561:4579   */\n      0xffffffffffffffff\n        /* \"#utility.yul\":4549:4559   */\n      dup3\n        /* \"#utility.yul\":4546:4580   */\n      gt\n        /* \"#utility.yul\":4543:4605   */\n      or\n        /* \"#utility.yul\":4540:4628   */\n      iszero\n      tag_477\n      jumpi\n        /* \"#utility.yul\":4608:4626   */\n      tag_478\n      tag_74\n      jump\t// in\n    tag_478:\n        /* \"#utility.yul\":4540:4628   */\n    tag_477:\n        /* \"#utility.yul\":4648:4658   */\n      dup1\n        /* \"#utility.yul\":4644:4646   */\n      0x40\n        /* \"#utility.yul\":4637:4659   */\n      mstore\n        /* \"#utility.yul\":4427:4665   */\n      pop\n        /* \"#utility.yul\":4384:4665   */\n      pop\n      pop\n      jump\t// out\n        /* \"#utility.yul\":4671:4800   */\n    tag_358:\n        /* \"#utility.yul\":4705:4711   */\n      0x00\n        /* \"#utility.yul\":4732:4752   */\n      tag_480\n      tag_349\n      jump\t// in\n    tag_480:\n        /* \"#utility.yul\":4722:4752   */\n      swap1\n      pop\n        /* \"#utility.yul\":4761:4794   */\n      tag_481\n        /* \"#utility.yul\":4789:4793   */\n      dup3\n        /* \"#utility.yul\":4781:4787   */\n      dup3\n        /* \"#utility.yul\":4761:4794   */\n      tag_357\n      jump\t// in\n    tag_481:\n        /* \"#utility.yul\":4671:4800   */\n      swap2\n      swap1\n      pop\n      jump\t// out\n        /* \"#utility.yul\":4806:5114   */\n    tag_359:\n        /* \"#utility.yul\":4868:4872   */\n      0x00\n        /* \"#utility.yul\":4958:4976   */\n      0xffffffffffffffff\n        /* \"#utility.yul\":4950:4956   */\n      dup3\n        /* \"#utility.yul\":4947:4977   */\n      gt\n        /* \"#utility.yul\":4944:5000   */\n      iszero\n      tag_483\n      jumpi\n        /* \"#utility.yul\":4980:4998   */\n      tag_484\n      tag_74\n      jump\t// in\n    tag_484:\n        /* \"#utility.yul\":4944:5000   */\n    tag_483:\n        /* \"#utility.yul\":5018:5047   */\n      tag_485\n        /* \"#utility.yul\":5040:5046   */\n      dup3\n        /* \"#utility.yul\":5018:5047   */\n      tag_356\n      jump\t// in\n    tag_485:\n        /* \"#utility.yul\":5010:5047   */\n      swap1\n      pop\n        /* \"#utility.yul\":5102:5106   */\n      0x20\n        /* \"#utility.yul\":5096:5100   */\n      dup2\n        /* \"#utility.yul\":5092:5107   */\n      add\n        /* \"#utility.yul\":5084:5107   */\n      swap1\n      pop\n        /* \"#utility.yul\":4806:5114   */\n      swap2\n      swap1\n      pop\n      jump\t// out\n        /* \"#utility.yul\":5120:5266   */\n    tag_360:\n        /* \"#utility.yul\":5217:5223   */\n      dup3\n        /* \"#utility.yul\":5212:5215   */\n      dup2\n        /* \"#utility.yul\":5207:5210   */\n      dup4\n        /* \"#utility.yul\":5194:5224   */\n      calldatacopy\n        /* \"#utility.yul\":5258:5259   */\n      0x00\n        /* \"#utility.yul\":5249:5255   */\n      dup4\n        /* \"#utility.yul\":5244:5247   */\n      dup4\n        /* \"#utility.yul\":5240:5256   */\n      add\n        /* \"#utility.yul\":5233:5260   */\n      mstore\n        /* \"#utility.yul\":5120:5266   */\n      pop\n      pop\n      pop\n      jump\t// out\n        /* \"#utility.yul\":5272:5697   */\n    tag_361:\n        /* \"#utility.yul\":5350:5355   */\n      0x00\n        /* \"#utility.yul\":5375:5441   */\n      tag_488\n        /* \"#utility.yul\":5391:5440   */\n      tag_489\n        /* \"#utility.yul\":5433:5439   */\n      dup5\n        /* \"#utility.yul\":5391:5440   */\n      tag_359\n      jump\t// in\n    tag_489:\n        /* \"#utility.yul\":5375:5441   */\n      tag_358\n      jump\t// in\n    tag_488:\n        /* \"#utility.yul\":5366:5441   */\n      swap1\n      pop\n        /* \"#utility.yul\":5464:5470   */\n      dup3\n        /* \"#utility.yul\":5457:5462   */\n      dup2\n        /* \"#utility.yul\":5450:5471   */\n      mstore\n        /* \"#utility.yul\":5502:5506   */\n      0x20\n        /* \"#utility.yul\":5495:5500   */\n      dup2\n        /* \"#utility.yul\":5491:5507   */\n      add\n        /* \"#utility.yul\":5540:5543   */\n      dup5\n        /* \"#utility.yul\":5531:5537   */\n      dup5\n        /* \"#utility.yul\":5526:5529   */\n      dup5\n        /* \"#utility.yul\":5522:5538   */\n      add\n        /* \"#utility.yul\":5519:5544   */\n      gt\n        /* \"#utility.yul\":5516:5628   */\n      iszero\n      tag_490\n      jumpi\n        /* \"#utility.yul\":5547:5626   */\n      tag_491\n      tag_355\n      jump\t// in\n    tag_491:\n        /* \"#utility.yul\":5516:5628   */\n    tag_490:\n        /* \"#utility.yul\":5637:5691   */\n      tag_492\n        /* \"#utility.yul\":5684:5690   */\n      dup5\n        /* \"#utility.yul\":5679:5682   */\n      dup3\n        /* \"#utility.yul\":5674:5677   */\n      dup6\n        /* \"#utility.yul\":5637:5691   */\n      tag_360\n      jump\t// in\n    tag_492:\n        /* \"#utility.yul\":5356:5697   */\n      pop\n        /* \"#utility.yul\":5272:5697   */\n      swap4\n      swap3\n      pop\n      pop\n      pop\n      jump\t// out\n        /* \"#utility.yul\":5717:6057   */\n    tag_362:\n        /* \"#utility.yul\":5773:5778   */\n      0x00\n        /* \"#utility.yul\":5822:5825   */\n      dup3\n        /* \"#utility.yul\":5815:5819   */\n      0x1f\n        /* \"#utility.yul\":5807:5813   */\n      dup4\n        /* \"#utility.yul\":5803:5820   */\n      add\n        /* \"#utility.yul\":5799:5826   */\n      slt\n        /* \"#utility.yul\":5789:5911   */\n      tag_494\n      jumpi\n        /* \"#utility.yul\":5830:5909   */\n      tag_495\n      tag_354\n      jump\t// in\n    tag_495:\n        /* \"#utility.yul\":5789:5911   */\n    tag_494:\n        /* \"#utility.yul\":5947:5953   */\n      dup2\n        /* \"#utility.yul\":5934:5954   */\n      calldataload\n        /* \"#utility.yul\":5972:6051   */\n      tag_496\n        /* \"#utility.yul\":6047:6050   */\n      dup5\n        /* \"#utility.yul\":6039:6045   */\n      dup3\n        /* \"#utility.yul\":6032:6036   */\n      0x20\n        /* \"#utility.yul\":6024:6030   */\n      dup7\n        /* \"#utility.yul\":6020:6037   */\n      add\n        /* \"#utility.yul\":5972:6051   */\n      tag_361\n      jump\t// in\n    tag_496:\n        /* \"#utility.yul\":5963:6051   */\n      swap2\n      pop\n        /* \"#utility.yul\":5779:6057   */\n      pop\n        /* \"#utility.yul\":5717:6057   */\n      swap3\n      swap2\n      pop\n      pop\n      jump\t// out\n        /* \"#utility.yul\":6063:6189   */\n    tag_363:\n        /* \"#utility.yul\":6100:6107   */\n      0x00\n        /* \"#utility.yul\":6140:6182   */\n      0xffffffffffffffffffffffffffffffffffffffff\n        /* \"#utility.yul\":6133:6138   */\n      dup3\n        /* \"#utility.yul\":6129:6183   */\n      and\n        /* \"#utility.yul\":6118:6183   */\n      swap1\n      pop\n        /* \"#utility.yul\":6063:6189   */\n      swap2\n      swap1\n      pop\n      jump\t// out\n        /* \"#utility.yul\":6195:6291   */\n    tag_364:\n        /* \"#utility.yul\":6232:6239   */\n      0x00\n        /* \"#utility.yul\":6261:6285   */\n      tag_499\n        /* \"#utility.yul\":6279:6284   */\n      dup3\n        /* \"#utility.yul\":6261:6285   */\n      tag_363\n      jump\t// in\n    tag_499:\n        /* \"#utility.yul\":6250:6285   */\n      swap1\n      pop\n        /* \"#utility.yul\":6195:6291   */\n      swap2\n      swap1\n      pop\n      jump\t// out\n        /* \"#utility.yul\":6297:6419   */\n    tag_365:\n        /* \"#utility.yul\":6370:6394   */\n      tag_501\n        /* \"#utility.yul\":6388:6393   */\n      dup2\n        /* \"#utility.yul\":6370:6394   */\n      tag_364\n      jump\t// in\n    tag_501:\n        /* \"#utility.yul\":6363:6368   */\n      dup2\n        /* \"#utility.yul\":6360:6395   */\n      eq\n        /* \"#utility.yul\":6350:6413   */\n      tag_502\n      jumpi\n        /* \"#utility.yul\":6409:6410   */\n      0x00\n        /* \"#utility.yul\":6406:6407   */\n      dup1\n        /* \"#utility.yul\":6399:6411   */\n      revert\n        /* \"#utility.yul\":6350:6413   */\n    tag_502:\n        /* \"#utility.yul\":6297:6419   */\n      pop\n      jump\t// out\n        /* \"#utility.yul\":6425:6564   */\n    tag_366:\n        /* \"#utility.yul\":6471:6476   */\n      0x00\n        /* \"#utility.yul\":6509:6515   */\n      dup2\n        /* \"#utility.yul\":6496:6516   */\n      calldataload\n        /* \"#utility.yul\":6487:6516   */\n      swap1\n      pop\n        /* \"#utility.yul\":6525:6558   */\n      tag_504\n        /* \"#utility.yul\":6552:6557   */\n      dup2\n        /* \"#utility.yul\":6525:6558   */\n      tag_365\n      jump\t// in\n    tag_504:\n        /* \"#utility.yul\":6425:6564   */\n      swap3\n      swap2\n      pop\n      pop\n      jump\t// out\n        /* \"#utility.yul\":6570:7841   */\n    tag_26:\n        /* \"#utility.yul\":6685:6691   */\n      0x00\n        /* \"#utility.yul\":6693:6699   */\n      dup1\n        /* \"#utility.yul\":6701:6707   */\n      0x00\n        /* \"#utility.yul\":6709:6715   */\n      dup1\n        /* \"#utility.yul\":6717:6723   */\n      0x00\n        /* \"#utility.yul\":6766:6769   */\n      0xa0\n        /* \"#utility.yul\":6754:6763   */\n      dup7\n        /* \"#utility.yul\":6745:6752   */\n      dup9\n        /* \"#utility.yul\":6741:6764   */\n      sub\n        /* \"#utility.yul\":6737:6770   */\n      slt\n        /* \"#utility.yul\":6734:6854   */\n      iszero\n      tag_506\n      jumpi\n        /* \"#utility.yul\":6773:6852   */\n      tag_507\n      tag_350\n      jump\t// in\n    tag_507:\n        /* \"#utility.yul\":6734:6854   */\n    tag_506:\n        /* \"#utility.yul\":6893:6894   */\n      0x00\n        /* \"#utility.yul\":6918:6971   */\n      tag_508\n        /* \"#utility.yul\":6963:6970   */\n      dup9\n        /* \"#utility.yul\":6954:6960   */\n      dup3\n        /* \"#utility.yul\":6943:6952   */\n      dup10\n        /* \"#utility.yul\":6939:6961   */\n      add\n        /* \"#utility.yul\":6918:6971   */\n      tag_353\n      jump\t// in\n    tag_508:\n        /* \"#utility.yul\":6908:6971   */\n      swap6\n      pop\n        /* \"#utility.yul\":6864:6981   */\n      pop\n        /* \"#utility.yul\":7020:7022   */\n      0x20\n        /* \"#utility.yul\":7046:7099   */\n      tag_509\n        /* \"#utility.yul\":7091:7098   */\n      dup9\n        /* \"#utility.yul\":7082:7088   */\n      dup3\n        /* \"#utility.yul\":7071:7080   */\n      dup10\n        /* \"#utility.yul\":7067:7089   */\n      add\n        /* \"#utility.yul\":7046:7099   */\n      tag_353\n      jump\t// in\n    tag_509:\n        /* \"#utility.yul\":7036:7099   */\n      swap5\n      pop\n        /* \"#utility.yul\":6991:7109   */\n      pop\n        /* \"#utility.yul\":7176:7178   */\n      0x40\n        /* \"#utility.yul\":7165:7174   */\n      dup7\n        /* \"#utility.yul\":7161:7179   */\n      add\n        /* \"#utility.yul\":7148:7180   */\n      calldataload\n        /* \"#utility.yul\":7207:7225   */\n      0xffffffffffffffff\n        /* \"#utility.yul\":7199:7205   */\n      dup2\n        /* \"#utility.yul\":7196:7226   */\n      gt\n        /* \"#utility.yul\":7193:7310   */\n      iszero\n      tag_510\n      jumpi\n        /* \"#utility.yul\":7229:7308   */\n      tag_511\n      tag_351\n      jump\t// in\n    tag_511:\n        /* \"#utility.yul\":7193:7310   */\n    tag_510:\n        /* \"#utility.yul\":7334:7397   */\n      tag_512\n        /* \"#utility.yul\":7389:7396   */\n      dup9\n        /* \"#utility.yul\":7380:7386   */\n      dup3\n        /* \"#utility.yul\":7369:7378   */\n      dup10\n        /* \"#utility.yul\":7365:7387   */\n      add\n        /* \"#utility.yul\":7334:7397   */\n      tag_362\n      jump\t// in\n    tag_512:\n        /* \"#utility.yul\":7324:7397   */\n      swap4\n      pop\n        /* \"#utility.yul\":7119:7407   */\n      pop\n        /* \"#utility.yul\":7474:7476   */\n      0x60\n        /* \"#utility.yul\":7463:7472   */\n      dup7\n        /* \"#utility.yul\":7459:7477   */\n      add\n        /* \"#utility.yul\":7446:7478   */\n      calldataload\n        /* \"#utility.yul\":7505:7523   */\n      0xffffffffffffffff\n        /* \"#utility.yul\":7497:7503   */\n      dup2\n        /* \"#utility.yul\":7494:7524   */\n      gt\n        /* \"#utility.yul\":7491:7608   */\n      iszero\n      tag_513\n      jumpi\n        /* \"#utility.yul\":7527:7606   */\n      tag_514\n      tag_351\n      jump\t// in\n    tag_514:\n        /* \"#utility.yul\":7491:7608   */\n    tag_513:\n        /* \"#utility.yul\":7632:7695   */\n      tag_515\n        /* \"#utility.yul\":7687:7694   */\n      dup9\n        /* \"#utility.yul\":7678:7684   */\n      dup3\n        /* \"#utility.yul\":7667:7676   */\n      dup10\n        /* \"#utility.yul\":7663:7685   */\n      add\n        /* \"#utility.yul\":7632:7695   */\n      tag_362\n      jump\t// in\n    tag_515:\n        /* \"#utility.yul\":7622:7695   */\n      swap3\n      pop\n        /* \"#utility.yul\":7417:7705   */\n      pop\n        /* \"#utility.yul\":7744:7747   */\n      0x80\n        /* \"#utility.yul\":7771:7824   */\n      tag_516\n        /* \"#utility.yul\":7816:7823   */\n      dup9\n        /* \"#utility.yul\":7807:7813   */\n      dup3\n        /* \"#utility.yul\":7796:7805   */\n      dup10\n        /* \"#utility.yul\":7792:7814   */\n      add\n        /* \"#utility.yul\":7771:7824   */\n      tag_366\n      jump\t// in\n    tag_516:\n        /* \"#utility.yul\":7761:7824   */\n      swap2\n      pop\n        /* \"#utility.yul\":7715:7834   */\n      pop\n        /* \"#utility.yul\":6570:7841   */\n      swap3\n      swap6\n      pop\n      swap3\n      swap6\n      swap1\n      swap4\n      pop\n      jump\t// out\n        /* \"#utility.yul\":7847:7946   */\n    tag_367:\n        /* \"#utility.yul\":7899:7905   */\n      0x00\n        /* \"#utility.yul\":7933:7938   */\n      dup2\n        /* \"#utility.yul\":7927:7939   */\n      mload\n        /* \"#utility.yul\":7917:7939   */\n      swap1\n      pop\n        /* \"#utility.yul\":7847:7946   */\n      swap2\n      swap1\n      pop\n      jump\t// out\n        /* \"#utility.yul\":7952:8121   */\n    tag_368:\n        /* \"#utility.yul\":8036:8047   */\n      0x00\n        /* \"#utility.yul\":8070:8076   */\n      dup3\n        /* \"#utility.yul\":8065:8068   */\n      dup3\n        /* \"#utility.yul\":8058:8077   */\n      mstore\n        /* \"#utility.yul\":8110:8114   */\n      0x20\n        /* \"#utility.yul\":8105:8108   */\n      dup3\n        /* \"#utility.yul\":8101:8115   */\n      add\n        /* \"#utility.yul\":8086:8115   */\n      swap1\n      pop\n        /* \"#utility.yul\":7952:8121   */\n      swap3\n      swap2\n      pop\n      pop\n      jump\t// out\n        /* \"#utility.yul\":8127:8373   */\n    tag_369:\n        /* \"#utility.yul\":8208:8209   */\n      0x00\n        /* \"#utility.yul\":8218:8331   */\n    tag_520:\n        /* \"#utility.yul\":8232:8238   */\n      dup4\n        /* \"#utility.yul\":8229:8230   */\n      dup2\n        /* \"#utility.yul\":8226:8239   */\n      lt\n        /* \"#utility.yul\":8218:8331   */\n      iszero\n      tag_522\n      jumpi\n        /* \"#utility.yul\":8317:8318   */\n      dup1\n        /* \"#utility.yul\":8312:8315   */\n      dup3\n        /* \"#utility.yul\":8308:8319   */\n      add\n        /* \"#utility.yul\":8302:8320   */\n      mload\n        /* \"#utility.yul\":8298:8299   */\n      dup2\n        /* \"#utility.yul\":8293:8296   */\n      dup5\n        /* \"#utility.yul\":8289:8300   */\n      add\n        /* \"#utility.yul\":8282:8321   */\n      mstore\n        /* \"#utility.yul\":8254:8256   */\n      0x20\n        /* \"#utility.yul\":8251:8252   */\n      dup2\n        /* \"#utility.yul\":8247:8257   */\n      add\n        /* \"#utility.yul\":8242:8257   */\n      swap1\n      pop\n        /* \"#utility.yul\":8218:8331   */\n      jump(tag_520)\n    tag_522:\n        /* \"#utility.yul\":8365:8366   */\n      0x00\n        /* \"#utility.yul\":8356:8362   */\n      dup5\n        /* \"#utility.yul\":8351:8354   */\n      dup5\n        /* \"#utility.yul\":8347:8363   */\n      add\n        /* \"#utility.yul\":8340:8367   */\n      mstore\n        /* \"#utility.yul\":8189:8373   */\n      pop\n        /* \"#utility.yul\":8127:8373   */\n      pop\n      pop\n      pop\n      jump\t// out\n        /* \"#utility.yul\":8379:8756   */\n    tag_370:\n        /* \"#utility.yul\":8467:8470   */\n      0x00\n        /* \"#utility.yul\":8495:8534   */\n      tag_524\n        /* \"#utility.yul\":8528:8533   */\n      dup3\n        /* \"#utility.yul\":8495:8534   */\n      tag_367\n      jump\t// in\n    tag_524:\n        /* \"#utility.yul\":8550:8621   */\n      tag_525\n        /* \"#utility.yul\":8614:8620   */\n      dup2\n        /* \"#utility.yul\":8609:8612   */\n      dup6\n        /* \"#utility.yul\":8550:8621   */\n      tag_368\n      jump\t// in\n    tag_525:\n        /* \"#utility.yul\":8543:8621   */\n      swap4\n      pop\n        /* \"#utility.yul\":8630:8695   */\n      tag_526\n        /* \"#utility.yul\":8688:8694   */\n      dup2\n        /* \"#utility.yul\":8683:8686   */\n      dup6\n        /* \"#utility.yul\":8676:8680   */\n      0x20\n        /* \"#utility.yul\":8669:8674   */\n      dup7\n        /* \"#utility.yul\":8665:8681   */\n      add\n        /* \"#utility.yul\":8630:8695   */\n      tag_369\n      jump\t// in\n    tag_526:\n        /* \"#utility.yul\":8720:8749   */\n      tag_527\n        /* \"#utility.yul\":8742:8748   */\n      dup2\n        /* \"#utility.yul\":8720:8749   */\n      tag_356\n      jump\t// in\n    tag_527:\n        /* \"#utility.yul\":8715:8718   */\n      dup5\n        /* \"#utility.yul\":8711:8750   */\n      add\n        /* \"#utility.yul\":8704:8750   */\n      swap2\n      pop\n        /* \"#utility.yul\":8471:8756   */\n      pop\n        /* \"#utility.yul\":8379:8756   */\n      swap3\n      swap2\n      pop\n      pop\n      jump\t// out\n        /* \"#utility.yul\":8762:9075   */\n    tag_29:\n        /* \"#utility.yul\":8875:8879   */\n      0x00\n        /* \"#utility.yul\":8913:8915   */\n      0x20\n        /* \"#utility.yul\":8902:8911   */\n      dup3\n        /* \"#utility.yul\":8898:8916   */\n      add\n        /* \"#utility.yul\":8890:8916   */\n      swap1\n      pop\n        /* \"#utility.yul\":8962:8971   */\n      dup2\n        /* \"#utility.yul\":8956:8960   */\n      dup2\n        /* \"#utility.yul\":8952:8972   */\n      sub\n        /* \"#utility.yul\":8948:8949   */\n      0x00\n        /* \"#utility.yul\":8937:8946   */\n      dup4\n        /* \"#utility.yul\":8933:8950   */\n      add\n        /* \"#utility.yul\":8926:8973   */\n      mstore\n        /* \"#utility.yul\":8990:9068   */\n      tag_529\n        /* \"#utility.yul\":9063:9067   */\n      dup2\n        /* \"#utility.yul\":9054:9060   */\n      dup5\n        /* \"#utility.yul\":8990:9068   */\n      tag_370\n      jump\t// in\n    tag_529:\n        /* \"#utility.yul\":8982:9068   */\n      swap1\n      pop\n        /* \"#utility.yul\":8762:9075   */\n      swap3\n      swap2\n      pop\n      pop\n      jump\t// out\n        /* \"#utility.yul\":9081:9700   */\n    tag_33:\n        /* \"#utility.yul\":9158:9164   */\n      0x00\n        /* \"#utility.yul\":9166:9172   */\n      dup1\n        /* \"#utility.yul\":9174:9180   */\n      0x00\n        /* \"#utility.yul\":9223:9225   */\n      0x60\n        /* \"#utility.yul\":9211:9220   */\n      dup5\n        /* \"#utility.yul\":9202:9209   */\n      dup7\n        /* \"#utility.yul\":9198:9221   */\n      sub\n        /* \"#utility.yul\":9194:9226   */\n      slt\n        /* \"#utility.yul\":9191:9310   */\n      iszero\n      tag_531\n      jumpi\n        /* \"#utility.yul\":9229:9308   */\n      tag_532\n      tag_350\n      jump\t// in\n    tag_532:\n        /* \"#utility.yul\":9191:9310   */\n    tag_531:\n        /* \"#utility.yul\":9349:9350   */\n      0x00\n        /* \"#utility.yul\":9374:9427   */\n      tag_533\n        /* \"#utility.yul\":9419:9426   */\n      dup7\n        /* \"#utility.yul\":9410:9416   */\n      dup3\n        /* \"#utility.yul\":9399:9408   */\n      dup8\n        /* \"#utility.yul\":9395:9417   */\n      add\n        /* \"#utility.yul\":9374:9427   */\n      tag_366\n      jump\t// in\n    tag_533:\n        /* \"#utility.yul\":9364:9427   */\n      swap4\n      pop\n        /* \"#utility.yul\":9320:9437   */\n      pop\n        /* \"#utility.yul\":9476:9478   */\n      0x20\n        /* \"#utility.yul\":9502:9555   */\n      tag_534\n        /* \"#utility.yul\":9547:9554   */\n      dup7\n        /* \"#utility.yul\":9538:9544   */\n      dup3\n        /* \"#utility.yul\":9527:9536   */\n      dup8\n        /* \"#utility.yul\":9523:9545   */\n      add\n        /* \"#utility.yul\":9502:9555   */\n      tag_353\n      jump\t// in\n    tag_534:\n        /* \"#utility.yul\":9492:9555   */\n      swap3\n      pop\n        /* \"#utility.yul\":9447:9565   */\n      pop\n        /* \"#utility.yul\":9604:9606   */\n      0x40\n        /* \"#utility.yul\":9630:9683   */\n      tag_535\n        /* \"#utility.yul\":9675:9682   */\n      dup7\n        /* \"#utility.yul\":9666:9672   */\n      dup3\n        /* \"#utility.yul\":9655:9664   */\n      dup8\n        /* \"#utility.yul\":9651:9673   */\n      add\n        /* \"#utility.yul\":9630:9683   */\n      tag_353\n      jump\t// in\n    tag_535:\n        /* \"#utility.yul\":9620:9683   */\n      swap2\n      pop\n        /* \"#utility.yul\":9575:9693   */\n      pop\n        /* \"#utility.yul\":9081:9700   */\n      swap3\n      pop\n      swap3\n      pop\n      swap3\n      jump\t// out\n        /* \"#utility.yul\":9706:9830   */\n    tag_371:\n        /* \"#utility.yul\":9783:9789   */\n      0x00\n        /* \"#utility.yul\":9817:9822   */\n      dup2\n        /* \"#utility.yul\":9811:9823   */\n      mload\n        /* \"#utility.yul\":9801:9823   */\n      swap1\n      pop\n        /* \"#utility.yul\":9706:9830   */\n      swap2\n      swap1\n      pop\n      jump\t// out\n        /* \"#utility.yul\":9836:10030   */\n    tag_372:\n        /* \"#utility.yul\":9945:9956   */\n      0x00\n        /* \"#utility.yul\":9979:9985   */\n      dup3\n        /* \"#utility.yul\":9974:9977   */\n      dup3\n        /* \"#utility.yul\":9967:9986   */\n      mstore\n        /* \"#utility.yul\":10019:10023   */\n      0x20\n        /* \"#utility.yul\":10014:10017   */\n      dup3\n        /* \"#utility.yul\":10010:10024   */\n      add\n        /* \"#utility.yul\":9995:10024   */\n      swap1\n      pop\n        /* \"#utility.yul\":9836:10030   */\n      swap3\n      swap2\n      pop\n      pop\n      jump\t// out\n        /* \"#utility.yul\":10036:10178   */\n    tag_373:\n        /* \"#utility.yul\":10113:10117   */\n      0x00\n        /* \"#utility.yul\":10136:10139   */\n      dup2\n        /* \"#utility.yul\":10128:10139   */\n      swap1\n      pop\n        /* \"#utility.yul\":10166:10170   */\n      0x20\n        /* \"#utility.yul\":10161:10164   */\n      dup3\n        /* \"#utility.yul\":10157:10171   */\n      add\n        /* \"#utility.yul\":10149:10171   */\n      swap1\n      pop\n        /* \"#utility.yul\":10036:10178   */\n      swap2\n      swap1\n      pop\n      jump\t// out\n        /* \"#utility.yul\":10184:10343   */\n    tag_374:\n        /* \"#utility.yul\":10258:10269   */\n      0x00\n        /* \"#utility.yul\":10292:10298   */\n      dup3\n        /* \"#utility.yul\":10287:10290   */\n      dup3\n        /* \"#utility.yul\":10280:10299   */\n      mstore\n        /* \"#utility.yul\":10332:10336   */\n      0x20\n        /* \"#utility.yul\":10327:10330   */\n      dup3\n        /* \"#utility.yul\":10323:10337   */\n      add\n        /* \"#utility.yul\":10308:10337   */\n      swap1\n      pop\n        /* \"#utility.yul\":10184:10343   */\n      swap3\n      swap2\n      pop\n      pop\n      jump\t// out\n        /* \"#utility.yul\":10349:10706   */\n    tag_375:\n        /* \"#utility.yul\":10427:10430   */\n      0x00\n        /* \"#utility.yul\":10455:10494   */\n      tag_541\n        /* \"#utility.yul\":10488:10493   */\n      dup3\n        /* \"#utility.yul\":10455:10494   */\n      tag_367\n      jump\t// in\n    tag_541:\n        /* \"#utility.yul\":10510:10571   */\n      tag_542\n        /* \"#utility.yul\":10564:10570   */\n      dup2\n        /* \"#utility.yul\":10559:10562   */\n      dup6\n        /* \"#utility.yul\":10510:10571   */\n      tag_374\n      jump\t// in\n    tag_542:\n        /* \"#utility.yul\":10503:10571   */\n      swap4\n      pop\n        /* \"#utility.yul\":10580:10645   */\n      tag_543\n        /* \"#utility.yul\":10638:10644   */\n      dup2\n        /* \"#utility.yul\":10633:10636   */\n      dup6\n        /* \"#utility.yul\":10626:10630   */\n      0x20\n        /* \"#utility.yul\":10619:10624   */\n      dup7\n        /* \"#utility.yul\":10615:10631   */\n      add\n        /* \"#utility.yul\":10580:10645   */\n      tag_369\n      jump\t// in\n    tag_543:\n        /* \"#utility.yul\":10670:10699   */\n      tag_544\n        /* \"#utility.yul\":10692:10698   */\n      dup2\n        /* \"#utility.yul\":10670:10699   */\n      tag_356\n      jump\t// in\n    tag_544:\n        /* \"#utility.yul\":10665:10668   */\n      dup5\n        /* \"#utility.yul\":10661:10700   */\n      add\n        /* \"#utility.yul\":10654:10700   */\n      swap2\n      pop\n        /* \"#utility.yul\":10431:10706   */\n      pop\n        /* \"#utility.yul\":10349:10706   */\n      swap3\n      swap2\n      pop\n      pop\n      jump\t// out\n        /* \"#utility.yul\":10712:10908   */\n    tag_376:\n        /* \"#utility.yul\":10801:10811   */\n      0x00\n        /* \"#utility.yul\":10836:10902   */\n      tag_546\n        /* \"#utility.yul\":10898:10901   */\n      dup4\n        /* \"#utility.yul\":10890:10896   */\n      dup4\n        /* \"#utility.yul\":10836:10902   */\n      tag_375\n      jump\t// in\n    tag_546:\n        /* \"#utility.yul\":10822:10902   */\n      swap1\n      pop\n        /* \"#utility.yul\":10712:10908   */\n      swap3\n      swap2\n      pop\n      pop\n      jump\t// out\n        /* \"#utility.yul\":10914:11037   */\n    tag_377:\n        /* \"#utility.yul\":10994:10998   */\n      0x00\n        /* \"#utility.yul\":11026:11030   */\n      0x20\n        /* \"#utility.yul\":11021:11024   */\n      dup3\n        /* \"#utility.yul\":11017:11031   */\n      add\n        /* \"#utility.yul\":11009:11031   */\n      swap1\n      pop\n        /* \"#utility.yul\":10914:11037   */\n      swap2\n      swap1\n      pop\n      jump\t// out\n        /* \"#utility.yul\":11071:12062   */\n    tag_378:\n        /* \"#utility.yul\":11210:11213   */\n      0x00\n        /* \"#utility.yul\":11239:11303   */\n      tag_549\n        /* \"#utility.yul\":11297:11302   */\n      dup3\n        /* \"#utility.yul\":11239:11303   */\n      tag_371\n      jump\t// in\n    tag_549:\n        /* \"#utility.yul\":11319:11415   */\n      tag_550\n        /* \"#utility.yul\":11408:11414   */\n      dup2\n        /* \"#utility.yul\":11403:11406   */\n      dup6\n        /* \"#utility.yul\":11319:11415   */\n      tag_372\n      jump\t// in\n    tag_550:\n        /* \"#utility.yul\":11312:11415   */\n      swap4\n      pop\n        /* \"#utility.yul\":11441:11444   */\n      dup4\n        /* \"#utility.yul\":11486:11490   */\n      0x20\n        /* \"#utility.yul\":11478:11484   */\n      dup3\n        /* \"#utility.yul\":11474:11491   */\n      mul\n        /* \"#utility.yul\":11469:11472   */\n      dup6\n        /* \"#utility.yul\":11465:11492   */\n      add\n        /* \"#utility.yul\":11516:11582   */\n      tag_551\n        /* \"#utility.yul\":11576:11581   */\n      dup6\n        /* \"#utility.yul\":11516:11582   */\n      tag_373\n      jump\t// in\n    tag_551:\n        /* \"#utility.yul\":11605:11612   */\n      dup1\n        /* \"#utility.yul\":11636:11637   */\n      0x00\n        /* \"#utility.yul\":11621:12017   */\n    tag_552:\n        /* \"#utility.yul\":11646:11652   */\n      dup6\n        /* \"#utility.yul\":11643:11644   */\n      dup2\n        /* \"#utility.yul\":11640:11653   */\n      lt\n        /* \"#utility.yul\":11621:12017   */\n      iszero\n      tag_554\n      jumpi\n        /* \"#utility.yul\":11717:11726   */\n      dup5\n        /* \"#utility.yul\":11711:11715   */\n      dup5\n        /* \"#utility.yul\":11707:11727   */\n      sub\n        /* \"#utility.yul\":11702:11705   */\n      dup10\n        /* \"#utility.yul\":11695:11728   */\n      mstore\n        /* \"#utility.yul\":11768:11774   */\n      dup2\n        /* \"#utility.yul\":11762:11775   */\n      mload\n        /* \"#utility.yul\":11796:11880   */\n      tag_555\n        /* \"#utility.yul\":11875:11879   */\n      dup6\n        /* \"#utility.yul\":11860:11873   */\n      dup3\n        /* \"#utility.yul\":11796:11880   */\n      tag_376\n      jump\t// in\n    tag_555:\n        /* \"#utility.yul\":11788:11880   */\n      swap5\n      pop\n        /* \"#utility.yul\":11903:11973   */\n      tag_556\n        /* \"#utility.yul\":11966:11972   */\n      dup4\n        /* \"#utility.yul\":11903:11973   */\n      tag_377\n      jump\t// in\n    tag_556:\n        /* \"#utility.yul\":11893:11973   */\n      swap3\n      pop\n        /* \"#utility.yul\":12002:12006   */\n      0x20\n        /* \"#utility.yul\":11997:12000   */\n      dup11\n        /* \"#utility.yul\":11993:12007   */\n      add\n        /* \"#utility.yul\":11986:12007   */\n      swap10\n      pop\n        /* \"#utility.yul\":11681:12017   */\n      pop\n        /* \"#utility.yul\":11668:11669   */\n      0x01\n        /* \"#utility.yul\":11665:11666   */\n      dup2\n        /* \"#utility.yul\":11661:11670   */\n      add\n        /* \"#utility.yul\":11656:11670   */\n      swap1\n      pop\n        /* \"#utility.yul\":11621:12017   */\n      jump(tag_552)\n    tag_554:\n        /* \"#utility.yul\":11625:11639   */\n      pop\n        /* \"#utility.yul\":12033:12037   */\n      dup3\n        /* \"#utility.yul\":12026:12037   */\n      swap8\n      pop\n        /* \"#utility.yul\":12053:12056   */\n      dup8\n        /* \"#utility.yul\":12046:12056   */\n      swap6\n      pop\n        /* \"#utility.yul\":11215:12062   */\n      pop\n      pop\n      pop\n      pop\n      pop\n        /* \"#utility.yul\":11071:12062   */\n      swap3\n      swap2\n      pop\n      pop\n      jump\t// out\n        /* \"#utility.yul\":12068:12481   */\n    tag_36:\n        /* \"#utility.yul\":12231:12235   */\n      0x00\n        /* \"#utility.yul\":12269:12271   */\n      0x20\n        /* \"#utility.yul\":12258:12267   */\n      dup3\n        /* \"#utility.yul\":12254:12272   */\n      add\n        /* \"#utility.yul\":12246:12272   */\n      swap1\n      pop\n        /* \"#utility.yul\":12318:12327   */\n      dup2\n        /* \"#utility.yul\":12312:12316   */\n      dup2\n        /* \"#utility.yul\":12308:12328   */\n      sub\n        /* \"#utility.yul\":12304:12305   */\n      0x00\n        /* \"#utility.yul\":12293:12302   */\n      dup4\n        /* \"#utility.yul\":12289:12306   */\n      add\n        /* \"#utility.yul\":12282:12329   */\n      mstore\n        /* \"#utility.yul\":12346:12474   */\n      tag_558\n        /* \"#utility.yul\":12469:12473   */\n      dup2\n        /* \"#utility.yul\":12460:12466   */\n      dup5\n        /* \"#utility.yul\":12346:12474   */\n      tag_378\n      jump\t// in\n    tag_558:\n        /* \"#utility.yul\":12338:12474   */\n      swap1\n      pop\n        /* \"#utility.yul\":12068:12481   */\n      swap3\n      swap2\n      pop\n      pop\n      jump\t// out\n        /* \"#utility.yul\":12487:12996   */\n    tag_40:\n        /* \"#utility.yul\":12556:12562   */\n      0x00\n        /* \"#utility.yul\":12605:12607   */\n      0x20\n        /* \"#utility.yul\":12593:12602   */\n      dup3\n        /* \"#utility.yul\":12584:12591   */\n      dup5\n        /* \"#utility.yul\":12580:12603   */\n      sub\n        /* \"#utility.yul\":12576:12608   */\n      slt\n        /* \"#utility.yul\":12573:12692   */\n      iszero\n      tag_560\n      jumpi\n        /* \"#utility.yul\":12611:12690   */\n      tag_561\n      tag_350\n      jump\t// in\n    tag_561:\n        /* \"#utility.yul\":12573:12692   */\n    tag_560:\n        /* \"#utility.yul\":12759:12760   */\n      0x00\n        /* \"#utility.yul\":12748:12757   */\n      dup3\n        /* \"#utility.yul\":12744:12761   */\n      add\n        /* \"#utility.yul\":12731:12762   */\n      calldataload\n        /* \"#utility.yul\":12789:12807   */\n      0xffffffffffffffff\n        /* \"#utility.yul\":12781:12787   */\n      dup2\n        /* \"#utility.yul\":12778:12808   */\n      gt\n        /* \"#utility.yul\":12775:12892   */\n      iszero\n      tag_562\n      jumpi\n        /* \"#utility.yul\":12811:12890   */\n      tag_563\n      tag_351\n      jump\t// in\n    tag_563:\n        /* \"#utility.yul\":12775:12892   */\n    tag_562:\n        /* \"#utility.yul\":12916:12979   */\n      tag_564\n        /* \"#utility.yul\":12971:12978   */\n      dup5\n        /* \"#utility.yul\":12962:12968   */\n      dup3\n        /* \"#utility.yul\":12951:12960   */\n      dup6\n        /* \"#utility.yul\":12947:12969   */\n      add\n        /* \"#utility.yul\":12916:12979   */\n      tag_362\n      jump\t// in\n    tag_564:\n        /* \"#utility.yul\":12906:12979   */\n      swap2\n      pop\n        /* \"#utility.yul\":12702:12989   */\n      pop\n        /* \"#utility.yul\":12487:12996   */\n      swap3\n      swap2\n      pop\n      pop\n      jump\t// out\n        /* \"#utility.yul\":13002:13124   */\n    tag_379:\n        /* \"#utility.yul\":13077:13083   */\n      0x00\n        /* \"#utility.yul\":13111:13116   */\n      dup2\n        /* \"#utility.yul\":13105:13117   */\n      mload\n        /* \"#utility.yul\":13095:13117   */\n      swap1\n      pop\n        /* \"#utility.yul\":13002:13124   */\n      swap2\n      swap1\n      pop\n      jump\t// out\n        /* \"#utility.yul\":13130:13270   */\n    tag_380:\n        /* \"#utility.yul\":13205:13209   */\n      0x00\n        /* \"#utility.yul\":13228:13231   */\n      dup2\n        /* \"#utility.yul\":13220:13231   */\n      swap1\n      pop\n        /* \"#utility.yul\":13258:13262   */\n      0x20\n        /* \"#utility.yul\":13253:13256   */\n      dup3\n        /* \"#utility.yul\":13249:13263   */\n      add\n        /* \"#utility.yul\":13241:13263   */\n      swap1\n      pop\n        /* \"#utility.yul\":13130:13270   */\n      swap2\n      swap1\n      pop\n      jump\t// out\n        /* \"#utility.yul\":13276:13391   */\n    tag_381:\n        /* \"#utility.yul\":13357:13360   */\n      0xc7\n        /* \"#utility.yul\":13350:13355   */\n      dup2\n        /* \"#utility.yul\":13347:13361   */\n      lt\n        /* \"#utility.yul\":13337:13385   */\n      tag_568\n      jumpi\n        /* \"#utility.yul\":13365:13383   */\n      tag_569\n      tag_81\n      jump\t// in\n    tag_569:\n        /* \"#utility.yul\":13337:13385   */\n    tag_568:\n        /* \"#utility.yul\":13276:13391   */\n      pop\n      jump\t// out\n        /* \"#utility.yul\":13397:13524   */\n    tag_382:\n        /* \"#utility.yul\":13442:13449   */\n      0x00\n        /* \"#utility.yul\":13471:13476   */\n      dup2\n        /* \"#utility.yul\":13460:13476   */\n      swap1\n      pop\n        /* \"#utility.yul\":13477:13518   */\n      tag_571\n        /* \"#utility.yul\":13512:13517   */\n      dup3\n        /* \"#utility.yul\":13477:13518   */\n      tag_381\n      jump\t// in\n    tag_571:\n        /* \"#utility.yul\":13397:13524   */\n      swap2\n      swap1\n      pop\n      jump\t// out\n        /* \"#utility.yul\":13530:13657   */\n    tag_383:\n        /* \"#utility.yul\":13586:13595   */\n      0x00\n        /* \"#utility.yul\":13619:13651   */\n      tag_573\n        /* \"#utility.yul\":13645:13650   */\n      dup3\n        /* \"#utility.yul\":13619:13651   */\n      tag_382\n      jump\t// in\n    tag_573:\n        /* \"#utility.yul\":13606:13651   */\n      swap1\n      pop\n        /* \"#utility.yul\":13530:13657   */\n      swap2\n      swap1\n      pop\n      jump\t// out\n        /* \"#utility.yul\":13663:13796   */\n    tag_384:\n        /* \"#utility.yul\":13746:13789   */\n      tag_575\n        /* \"#utility.yul\":13783:13788   */\n      dup2\n        /* \"#utility.yul\":13746:13789   */\n      tag_383\n      jump\t// in\n    tag_575:\n        /* \"#utility.yul\":13741:13744   */\n      dup3\n        /* \"#utility.yul\":13734:13790   */\n      mstore\n        /* \"#utility.yul\":13663:13796   */\n      pop\n      pop\n      jump\t// out\n        /* \"#utility.yul\":13802:13993   */\n    tag_385:\n        /* \"#utility.yul\":13877:13887   */\n      0x00\n        /* \"#utility.yul\":13898:13950   */\n      tag_577\n        /* \"#utility.yul\":13946:13949   */\n      dup4\n        /* \"#utility.yul\":13938:13944   */\n      dup4\n        /* \"#utility.yul\":13898:13950   */\n      tag_384\n      jump\t// in\n    tag_577:\n        /* \"#utility.yul\":13982:13986   */\n      0x20\n        /* \"#utility.yul\":13977:13980   */\n      dup4\n        /* \"#utility.yul\":13973:13987   */\n      add\n        /* \"#utility.yul\":13959:13987   */\n      swap1\n      pop\n        /* \"#utility.yul\":13802:13993   */\n      swap3\n      swap2\n      pop\n      pop\n      jump\t// out\n        /* \"#utility.yul\":13999:14120   */\n    tag_386:\n        /* \"#utility.yul\":14077:14081   */\n      0x00\n        /* \"#utility.yul\":14109:14113   */\n      0x20\n        /* \"#utility.yul\":14104:14107   */\n      dup3\n        /* \"#utility.yul\":14100:14114   */\n      add\n        /* \"#utility.yul\":14092:14114   */\n      swap1\n      pop\n        /* \"#utility.yul\":13999:14120   */\n      swap2\n      swap1\n      pop\n      jump\t// out\n        /* \"#utility.yul\":14162:14928   */\n    tag_387:\n        /* \"#utility.yul\":14287:14290   */\n      0x00\n        /* \"#utility.yul\":14316:14378   */\n      tag_580\n        /* \"#utility.yul\":14372:14377   */\n      dup3\n        /* \"#utility.yul\":14316:14378   */\n      tag_379\n      jump\t// in\n    tag_580:\n        /* \"#utility.yul\":14394:14478   */\n      tag_581\n        /* \"#utility.yul\":14471:14477   */\n      dup2\n        /* \"#utility.yul\":14466:14469   */\n      dup6\n        /* \"#utility.yul\":14394:14478   */\n      tag_338\n      jump\t// in\n    tag_581:\n        /* \"#utility.yul\":14387:14478   */\n      swap4\n      pop\n        /* \"#utility.yul\":14502:14566   */\n      tag_582\n        /* \"#utility.yul\":14560:14565   */\n      dup4\n        /* \"#utility.yul\":14502:14566   */\n      tag_380\n      jump\t// in\n    tag_582:\n        /* \"#utility.yul\":14589:14596   */\n      dup1\n        /* \"#utility.yul\":14620:14621   */\n      0x00\n        /* \"#utility.yul\":14605:14903   */\n    tag_583:\n        /* \"#utility.yul\":14630:14636   */\n      dup4\n        /* \"#utility.yul\":14627:14628   */\n      dup2\n        /* \"#utility.yul\":14624:14637   */\n      lt\n        /* \"#utility.yul\":14605:14903   */\n      iszero\n      tag_585\n      jumpi\n        /* \"#utility.yul\":14706:14712   */\n      dup2\n        /* \"#utility.yul\":14700:14713   */\n      mload\n        /* \"#utility.yul\":14733:14802   */\n      tag_586\n        /* \"#utility.yul\":14798:14801   */\n      dup9\n        /* \"#utility.yul\":14783:14796   */\n      dup3\n        /* \"#utility.yul\":14733:14802   */\n      tag_385\n      jump\t// in\n    tag_586:\n        /* \"#utility.yul\":14726:14802   */\n      swap8\n      pop\n        /* \"#utility.yul\":14825:14893   */\n      tag_587\n        /* \"#utility.yul\":14886:14892   */\n      dup4\n        /* \"#utility.yul\":14825:14893   */\n      tag_386\n      jump\t// in\n    tag_587:\n        /* \"#utility.yul\":14815:14893   */\n      swap3\n      pop\n        /* \"#utility.yul\":14665:14903   */\n      pop\n        /* \"#utility.yul\":14652:14653   */\n      0x01\n        /* \"#utility.yul\":14649:14650   */\n      dup2\n        /* \"#utility.yul\":14645:14654   */\n      add\n        /* \"#utility.yul\":14640:14654   */\n      swap1\n      pop\n        /* \"#utility.yul\":14605:14903   */\n      jump(tag_583)\n    tag_585:\n        /* \"#utility.yul\":14609:14623   */\n      pop\n        /* \"#utility.yul\":14919:14922   */\n      dup6\n        /* \"#utility.yul\":14912:14922   */\n      swap4\n      pop\n        /* \"#utility.yul\":14292:14928   */\n      pop\n      pop\n      pop\n        /* \"#utility.yul\":14162:14928   */\n      swap3\n      swap2\n      pop\n      pop\n      jump\t// out\n        /* \"#utility.yul\":14934:15592   */\n    tag_43:\n        /* \"#utility.yul\":15167:15171   */\n      0x00\n        /* \"#utility.yul\":15205:15207   */\n      0x40\n        /* \"#utility.yul\":15194:15203   */\n      dup3\n        /* \"#utility.yul\":15190:15208   */\n      add\n        /* \"#utility.yul\":15182:15208   */\n      swap1\n      pop\n        /* \"#utility.yul\":15254:15263   */\n      dup2\n        /* \"#utility.yul\":15248:15252   */\n      dup2\n        /* \"#utility.yul\":15244:15264   */\n      sub\n        /* \"#utility.yul\":15240:15241   */\n      0x00\n        /* \"#utility.yul\":15229:15238   */\n      dup4\n        /* \"#utility.yul\":15225:15242   */\n      add\n        /* \"#utility.yul\":15218:15265   */\n      mstore\n        /* \"#utility.yul\":15282:15396   */\n      tag_589\n        /* \"#utility.yul\":15391:15395   */\n      dup2\n        /* \"#utility.yul\":15382:15388   */\n      dup6\n        /* \"#utility.yul\":15282:15396   */\n      tag_387\n      jump\t// in\n    tag_589:\n        /* \"#utility.yul\":15274:15396   */\n      swap1\n      pop\n        /* \"#utility.yul\":15443:15452   */\n      dup2\n        /* \"#utility.yul\":15437:15441   */\n      dup2\n        /* \"#utility.yul\":15433:15453   */\n      sub\n        /* \"#utility.yul\":15428:15430   */\n      0x20\n        /* \"#utility.yul\":15417:15426   */\n      dup4\n        /* \"#utility.yul\":15413:15431   */\n      add\n        /* \"#utility.yul\":15406:15454   */\n      mstore\n        /* \"#utility.yul\":15471:15585   */\n      tag_590\n        /* \"#utility.yul\":15580:15584   */\n      dup2\n        /* \"#utility.yul\":15571:15577   */\n      dup5\n        /* \"#utility.yul\":15471:15585   */\n      tag_387\n      jump\t// in\n    tag_590:\n        /* \"#utility.yul\":15463:15585   */\n      swap1\n      pop\n        /* \"#utility.yul\":14934:15592   */\n      swap4\n      swap3\n      pop\n      pop\n      pop\n      jump\t// out\n        /* \"#utility.yul\":15598:16217   */\n    tag_47:\n        /* \"#utility.yul\":15675:15681   */\n      0x00\n        /* \"#utility.yul\":15683:15689   */\n      dup1\n        /* \"#utility.yul\":15691:15697   */\n      0x00\n        /* \"#utility.yul\":15740:15742   */\n      0x60\n        /* \"#utility.yul\":15728:15737   */\n      dup5\n        /* \"#utility.yul\":15719:15726   */\n      dup7\n        /* \"#utility.yul\":15715:15738   */\n      sub\n        /* \"#utility.yul\":15711:15743   */\n      slt\n        /* \"#utility.yul\":15708:15827   */\n      iszero\n      tag_592\n      jumpi\n        /* \"#utility.yul\":15746:15825   */\n      tag_593\n      tag_350\n      jump\t// in\n    tag_593:\n        /* \"#utility.yul\":15708:15827   */\n    tag_592:\n        /* \"#utility.yul\":15866:15867   */\n      0x00\n        /* \"#utility.yul\":15891:15944   */\n      tag_594\n        /* \"#utility.yul\":15936:15943   */\n      dup7\n        /* \"#utility.yul\":15927:15933   */\n      dup3\n        /* \"#utility.yul\":15916:15925   */\n      dup8\n        /* \"#utility.yul\":15912:15934   */\n      add\n        /* \"#utility.yul\":15891:15944   */\n      tag_353\n      jump\t// in\n    tag_594:\n        /* \"#utility.yul\":15881:15944   */\n      swap4\n      pop\n        /* \"#utility.yul\":15837:15954   */\n      pop\n        /* \"#utility.yul\":15993:15995   */\n      0x20\n        /* \"#utility.yul\":16019:16072   */\n      tag_595\n        /* \"#utility.yul\":16064:16071   */\n      dup7\n        /* \"#utility.yul\":16055:16061   */\n      dup3\n        /* \"#utility.yul\":16044:16053   */\n      dup8\n        /* \"#utility.yul\":16040:16062   */\n      add\n        /* \"#utility.yul\":16019:16072   */\n      tag_353\n      jump\t// in\n    tag_595:\n        /* \"#utility.yul\":16009:16072   */\n      swap3\n      pop\n        /* \"#utility.yul\":15964:16082   */\n      pop\n        /* \"#utility.yul\":16121:16123   */\n      0x40\n        /* \"#utility.yul\":16147:16200   */\n      tag_596\n        /* \"#utility.yul\":16192:16199   */\n      dup7\n        /* \"#utility.yul\":16183:16189   */\n      dup3\n        /* \"#utility.yul\":16172:16181   */\n      dup8\n        /* \"#utility.yul\":16168:16190   */\n      add\n        /* \"#utility.yul\":16147:16200   */\n      tag_353\n      jump\t// in\n    tag_596:\n        /* \"#utility.yul\":16137:16200   */\n      swap2\n      pop\n        /* \"#utility.yul\":16092:16210   */\n      pop\n        /* \"#utility.yul\":15598:16217   */\n      swap3\n      pop\n      swap3\n      pop\n      swap3\n      jump\t// out\n        /* \"#utility.yul\":16223:16530   */\n    tag_388:\n        /* \"#utility.yul\":16284:16288   */\n      0x00\n        /* \"#utility.yul\":16374:16392   */\n      0xffffffffffffffff\n        /* \"#utility.yul\":16366:16372   */\n      dup3\n        /* \"#utility.yul\":16363:16393   */\n      gt\n        /* \"#utility.yul\":16360:16416   */\n      iszero\n      tag_598\n      jumpi\n        /* \"#utility.yul\":16396:16414   */\n      tag_599\n      tag_74\n      jump\t// in\n    tag_599:\n        /* \"#utility.yul\":16360:16416   */\n    tag_598:\n        /* \"#utility.yul\":16434:16463   */\n      tag_600\n        /* \"#utility.yul\":16456:16462   */\n      dup3\n        /* \"#utility.yul\":16434:16463   */\n      tag_356\n      jump\t// in\n    tag_600:\n        /* \"#utility.yul\":16426:16463   */\n      swap1\n      pop\n        /* \"#utility.yul\":16518:16522   */\n      0x20\n        /* \"#utility.yul\":16512:16516   */\n      dup2\n        /* \"#utility.yul\":16508:16523   */\n      add\n        /* \"#utility.yul\":16500:16523   */\n      swap1\n      pop\n        /* \"#utility.yul\":16223:16530   */\n      swap2\n      swap1\n      pop\n      jump\t// out\n        /* \"#utility.yul\":16536:16959   */\n    tag_389:\n        /* \"#utility.yul\":16613:16618   */\n      0x00\n        /* \"#utility.yul\":16638:16703   */\n      tag_602\n        /* \"#utility.yul\":16654:16702   */\n      tag_603\n        /* \"#utility.yul\":16695:16701   */\n      dup5\n        /* \"#utility.yul\":16654:16702   */\n      tag_388\n      jump\t// in\n    tag_603:\n        /* \"#utility.yul\":16638:16703   */\n      tag_358\n      jump\t// in\n    tag_602:\n        /* \"#utility.yul\":16629:16703   */\n      swap1\n      pop\n        /* \"#utility.yul\":16726:16732   */\n      dup3\n        /* \"#utility.yul\":16719:16724   */\n      dup2\n        /* \"#utility.yul\":16712:16733   */\n      mstore\n        /* \"#utility.yul\":16764:16768   */\n      0x20\n        /* \"#utility.yul\":16757:16762   */\n      dup2\n        /* \"#utility.yul\":16753:16769   */\n      add\n        /* \"#utility.yul\":16802:16805   */\n      dup5\n        /* \"#utility.yul\":16793:16799   */\n      dup5\n        /* \"#utility.yul\":16788:16791   */\n      dup5\n        /* \"#utility.yul\":16784:16800   */\n      add\n        /* \"#utility.yul\":16781:16806   */\n      gt\n        /* \"#utility.yul\":16778:16890   */\n      iszero\n      tag_604\n      jumpi\n        /* \"#utility.yul\":16809:16888   */\n      tag_605\n      tag_355\n      jump\t// in\n    tag_605:\n        /* \"#utility.yul\":16778:16890   */\n    tag_604:\n        /* \"#utility.yul\":16899:16953   */\n      tag_606\n        /* \"#utility.yul\":16946:16952   */\n      dup5\n        /* \"#utility.yul\":16941:16944   */\n      dup3\n        /* \"#utility.yul\":16936:16939   */\n      dup6\n        /* \"#utility.yul\":16899:16953   */\n      tag_360\n      jump\t// in\n    tag_606:\n        /* \"#utility.yul\":16619:16959   */\n      pop\n        /* \"#utility.yul\":16536:16959   */\n      swap4\n      swap3\n      pop\n      pop\n      pop\n      jump\t// out\n        /* \"#utility.yul\":16978:17316   */\n    tag_390:\n        /* \"#utility.yul\":17033:17038   */\n      0x00\n        /* \"#utility.yul\":17082:17085   */\n      dup3\n        /* \"#utility.yul\":17075:17079   */\n      0x1f\n        /* \"#utility.yul\":17067:17073   */\n      dup4\n        /* \"#utility.yul\":17063:17080   */\n      add\n        /* \"#utility.yul\":17059:17086   */\n      slt\n        /* \"#utility.yul\":17049:17171   */\n      tag_608\n      jumpi\n        /* \"#utility.yul\":17090:17169   */\n      tag_609\n      tag_354\n      jump\t// in\n    tag_609:\n        /* \"#utility.yul\":17049:17171   */\n    tag_608:\n        /* \"#utility.yul\":17207:17213   */\n      dup2\n        /* \"#utility.yul\":17194:17214   */\n      calldataload\n        /* \"#utility.yul\":17232:17310   */\n      tag_610\n        /* \"#utility.yul\":17306:17309   */\n      dup5\n        /* \"#utility.yul\":17298:17304   */\n      dup3\n        /* \"#utility.yul\":17291:17295   */\n      0x20\n        /* \"#utility.yul\":17283:17289   */\n      dup7\n        /* \"#utility.yul\":17279:17296   */\n      add\n        /* \"#utility.yul\":17232:17310   */\n      tag_389\n      jump\t// in\n    tag_610:\n        /* \"#utility.yul\":17223:17310   */\n      swap2\n      pop\n        /* \"#utility.yul\":17039:17316   */\n      pop\n        /* \"#utility.yul\":16978:17316   */\n      swap3\n      swap2\n      pop\n      pop\n      jump\t// out\n        /* \"#utility.yul\":17322:18154   */\n    tag_53:\n        /* \"#utility.yul\":17409:17415   */\n      0x00\n        /* \"#utility.yul\":17417:17423   */\n      dup1\n        /* \"#utility.yul\":17466:17468   */\n      0x40\n        /* \"#utility.yul\":17454:17463   */\n      dup4\n        /* \"#utility.yul\":17445:17452   */\n      dup6\n        /* \"#utility.yul\":17441:17464   */\n      sub\n        /* \"#utility.yul\":17437:17469   */\n      slt\n        /* \"#utility.yul\":17434:17553   */\n      iszero\n      tag_612\n      jumpi\n        /* \"#utility.yul\":17472:17551   */\n      tag_613\n      tag_350\n      jump\t// in\n    tag_613:\n        /* \"#utility.yul\":17434:17553   */\n    tag_612:\n        /* \"#utility.yul\":17620:17621   */\n      0x00\n        /* \"#utility.yul\":17609:17618   */\n      dup4\n        /* \"#utility.yul\":17605:17622   */\n      add\n        /* \"#utility.yul\":17592:17623   */\n      calldataload\n        /* \"#utility.yul\":17650:17668   */\n      0xffffffffffffffff\n        /* \"#utility.yul\":17642:17648   */\n      dup2\n        /* \"#utility.yul\":17639:17669   */\n      gt\n        /* \"#utility.yul\":17636:17753   */\n      iszero\n      tag_614\n      jumpi\n        /* \"#utility.yul\":17672:17751   */\n      tag_615\n      tag_351\n      jump\t// in\n    tag_615:\n        /* \"#utility.yul\":17636:17753   */\n    tag_614:\n        /* \"#utility.yul\":17777:17840   */\n      tag_616\n        /* \"#utility.yul\":17832:17839   */\n      dup6\n        /* \"#utility.yul\":17823:17829   */\n      dup3\n        /* \"#utility.yul\":17812:17821   */\n      dup7\n        /* \"#utility.yul\":17808:17830   */\n      add\n        /* \"#utility.yul\":17777:17840   */\n      tag_362\n      jump\t// in\n    tag_616:\n        /* \"#utility.yul\":17767:17840   */\n      swap3\n      pop\n        /* \"#utility.yul\":17563:17850   */\n      pop\n        /* \"#utility.yul\":17917:17919   */\n      0x20\n        /* \"#utility.yul\":17906:17915   */\n      dup4\n        /* \"#utility.yul\":17902:17920   */\n      add\n        /* \"#utility.yul\":17889:17921   */\n      calldataload\n        /* \"#utility.yul\":17948:17966   */\n      0xffffffffffffffff\n        /* \"#utility.yul\":17940:17946   */\n      dup2\n        /* \"#utility.yul\":17937:17967   */\n      gt\n        /* \"#utility.yul\":17934:18051   */\n      iszero\n      tag_617\n      jumpi\n        /* \"#utility.yul\":17970:18049   */\n      tag_618\n      tag_351\n      jump\t// in\n    tag_618:\n        /* \"#utility.yul\":17934:18051   */\n    tag_617:\n        /* \"#utility.yul\":18075:18137   */\n      tag_619\n        /* \"#utility.yul\":18129:18136   */\n      dup6\n        /* \"#utility.yul\":18120:18126   */\n      dup3\n        /* \"#utility.yul\":18109:18118   */\n      dup7\n        /* \"#utility.yul\":18105:18127   */\n      add\n        /* \"#utility.yul\":18075:18137   */\n      tag_390\n      jump\t// in\n    tag_619:\n        /* \"#utility.yul\":18065:18137   */\n      swap2\n      pop\n        /* \"#utility.yul\":17860:18147   */\n      pop\n        /* \"#utility.yul\":17322:18154   */\n      swap3\n      pop\n      swap3\n      swap1\n      pop\n      jump\t// out\n        /* \"#utility.yul\":18160:18258   */\n    tag_391:\n        /* \"#utility.yul\":18211:18217   */\n      0x00\n        /* \"#utility.yul\":18245:18250   */\n      dup2\n        /* \"#utility.yul\":18239:18251   */\n      mload\n        /* \"#utility.yul\":18229:18251   */\n      swap1\n      pop\n        /* \"#utility.yul\":18160:18258   */\n      swap2\n      swap1\n      pop\n      jump\t// out\n        /* \"#utility.yul\":18264:18432   */\n    tag_392:\n        /* \"#utility.yul\":18347:18358   */\n      0x00\n        /* \"#utility.yul\":18381:18387   */\n      dup3\n        /* \"#utility.yul\":18376:18379   */\n      dup3\n        /* \"#utility.yul\":18369:18388   */\n      mstore\n        /* \"#utility.yul\":18421:18425   */\n      0x20\n        /* \"#utility.yul\":18416:18419   */\n      dup3\n        /* \"#utility.yul\":18412:18426   */\n      add\n        /* \"#utility.yul\":18397:18426   */\n      swap1\n      pop\n        /* \"#utility.yul\":18264:18432   */\n      swap3\n      swap2\n      pop\n      pop\n      jump\t// out\n        /* \"#utility.yul\":18438:18811   */\n    tag_393:\n        /* \"#utility.yul\":18524:18527   */\n      0x00\n        /* \"#utility.yul\":18552:18590   */\n      tag_623\n        /* \"#utility.yul\":18584:18589   */\n      dup3\n        /* \"#utility.yul\":18552:18590   */\n      tag_391\n      jump\t// in\n    tag_623:\n        /* \"#utility.yul\":18606:18676   */\n      tag_624\n        /* \"#utility.yul\":18669:18675   */\n      dup2\n        /* \"#utility.yul\":18664:18667   */\n      dup6\n        /* \"#utility.yul\":18606:18676   */\n      tag_392\n      jump\t// in\n    tag_624:\n        /* \"#utility.yul\":18599:18676   */\n      swap4\n      pop\n        /* \"#utility.yul\":18685:18750   */\n      tag_625\n        /* \"#utility.yul\":18743:18749   */\n      dup2\n        /* \"#utility.yul\":18738:18741   */\n      dup6\n        /* \"#utility.yul\":18731:18735   */\n      0x20\n        /* \"#utility.yul\":18724:18729   */\n      dup7\n        /* \"#utility.yul\":18720:18736   */\n      add\n        /* \"#utility.yul\":18685:18750   */\n      tag_369\n      jump\t// in\n    tag_625:\n        /* \"#utility.yul\":18775:18804   */\n      tag_626\n        /* \"#utility.yul\":18797:18803   */\n      dup2\n        /* \"#utility.yul\":18775:18804   */\n      tag_356\n      jump\t// in\n    tag_626:\n        /* \"#utility.yul\":18770:18773   */\n      dup5\n        /* \"#utility.yul\":18766:18805   */\n      add\n        /* \"#utility.yul\":18759:18805   */\n      swap2\n      pop\n        /* \"#utility.yul\":18528:18811   */\n      pop\n        /* \"#utility.yul\":18438:18811   */\n      swap3\n      swap2\n      pop\n      pop\n      jump\t// out\n        /* \"#utility.yul\":18817:19126   */\n    tag_56:\n        /* \"#utility.yul\":18928:18932   */\n      0x00\n        /* \"#utility.yul\":18966:18968   */\n      0x20\n        /* \"#utility.yul\":18955:18964   */\n      dup3\n        /* \"#utility.yul\":18951:18969   */\n      add\n        /* \"#utility.yul\":18943:18969   */\n      swap1\n      pop\n        /* \"#utility.yul\":19015:19024   */\n      dup2\n        /* \"#utility.yul\":19009:19013   */\n      dup2\n        /* \"#utility.yul\":19005:19025   */\n      sub\n        /* \"#utility.yul\":19001:19002   */\n      0x00\n        /* \"#utility.yul\":18990:18999   */\n      dup4\n        /* \"#utility.yul\":18986:19003   */\n      add\n        /* \"#utility.yul\":18979:19026   */\n      mstore\n        /* \"#utility.yul\":19043:19119   */\n      tag_628\n        /* \"#utility.yul\":19114:19118   */\n      dup2\n        /* \"#utility.yul\":19105:19111   */\n      dup5\n        /* \"#utility.yul\":19043:19119   */\n      tag_393\n      jump\t// in\n    tag_628:\n        /* \"#utility.yul\":19035:19119   */\n      swap1\n      pop\n        /* \"#utility.yul\":18817:19126   */\n      swap3\n      swap2\n      pop\n      pop\n      jump\t// out\n        /* \"#utility.yul\":19132:19244   */\n    tag_394:\n        /* \"#utility.yul\":19218:19219   */\n      0x04\n        /* \"#utility.yul\":19211:19216   */\n      dup2\n        /* \"#utility.yul\":19208:19220   */\n      lt\n        /* \"#utility.yul\":19198:19238   */\n      tag_630\n      jumpi\n        /* \"#utility.yul\":19234:19235   */\n      0x00\n        /* \"#utility.yul\":19231:19232   */\n      dup1\n        /* \"#utility.yul\":19224:19236   */\n      revert\n        /* \"#utility.yul\":19198:19238   */\n    tag_630:\n        /* \"#utility.yul\":19132:19244   */\n      pop\n      jump\t// out\n        /* \"#utility.yul\":19250:19415   */\n    tag_395:\n        /* \"#utility.yul\":19309:19314   */\n      0x00\n        /* \"#utility.yul\":19347:19353   */\n      dup2\n        /* \"#utility.yul\":19334:19354   */\n      calldataload\n        /* \"#utility.yul\":19325:19354   */\n      swap1\n      pop\n        /* \"#utility.yul\":19363:19409   */\n      tag_632\n        /* \"#utility.yul\":19403:19408   */\n      dup2\n        /* \"#utility.yul\":19363:19409   */\n      tag_394\n      jump\t// in\n    tag_632:\n        /* \"#utility.yul\":19250:19415   */\n      swap3\n      swap2\n      pop\n      pop\n      jump\t// out\n        /* \"#utility.yul\":19421:19776   */\n    tag_68:\n        /* \"#utility.yul\":19493:19499   */\n      0x00\n        /* \"#utility.yul\":19542:19544   */\n      0x20\n        /* \"#utility.yul\":19530:19539   */\n      dup3\n        /* \"#utility.yul\":19521:19528   */\n      dup5\n        /* \"#utility.yul\":19517:19540   */\n      sub\n        /* \"#utility.yul\":19513:19545   */\n      slt\n        /* \"#utility.yul\":19510:19629   */\n      iszero\n      tag_634\n      jumpi\n        /* \"#utility.yul\":19548:19627   */\n      tag_635\n      tag_350\n      jump\t// in\n    tag_635:\n        /* \"#utility.yul\":19510:19629   */\n    tag_634:\n        /* \"#utility.yul\":19668:19669   */\n      0x00\n        /* \"#utility.yul\":19693:19759   */\n      tag_636\n        /* \"#utility.yul\":19751:19758   */\n      dup5\n        /* \"#utility.yul\":19742:19748   */\n      dup3\n        /* \"#utility.yul\":19731:19740   */\n      dup6\n        /* \"#utility.yul\":19727:19749   */\n      add\n        /* \"#utility.yul\":19693:19759   */\n      tag_395\n      jump\t// in\n    tag_636:\n        /* \"#utility.yul\":19683:19759   */\n      swap2\n      pop\n        /* \"#utility.yul\":19639:19769   */\n      pop\n        /* \"#utility.yul\":19421:19776   */\n      swap3\n      swap2\n      pop\n      pop\n      jump\t// out\n        /* \"#utility.yul\":19782:19962   */\n    tag_78:\n        /* \"#utility.yul\":19830:19907   */\n      0x4e487b7100000000000000000000000000000000000000000000000000000000\n        /* \"#utility.yul\":19827:19828   */\n      0x00\n        /* \"#utility.yul\":19820:19908   */\n      mstore\n        /* \"#utility.yul\":19927:19931   */\n      0x32\n        /* \"#utility.yul\":19924:19925   */\n      0x04\n        /* \"#utility.yul\":19917:19932   */\n      mstore\n        /* \"#utility.yul\":19951:19955   */\n      0x24\n        /* \"#utility.yul\":19948:19949   */\n      0x00\n        /* \"#utility.yul\":19941:19956   */\n      revert\n        /* \"#utility.yul\":19968:20116   */\n    tag_396:\n        /* \"#utility.yul\":20070:20081   */\n      0x00\n        /* \"#utility.yul\":20107:20110   */\n      dup2\n        /* \"#utility.yul\":20092:20110   */\n      swap1\n      pop\n        /* \"#utility.yul\":19968:20116   */\n      swap3\n      swap2\n      pop\n      pop\n      jump\t// out\n        /* \"#utility.yul\":20122:20512   */\n    tag_397:\n        /* \"#utility.yul\":20228:20231   */\n      0x00\n        /* \"#utility.yul\":20256:20295   */\n      tag_640\n        /* \"#utility.yul\":20289:20294   */\n      dup3\n        /* \"#utility.yul\":20256:20295   */\n      tag_367\n      jump\t// in\n    tag_640:\n        /* \"#utility.yul\":20311:20400   */\n      tag_641\n        /* \"#utility.yul\":20393:20399   */\n      dup2\n        /* \"#utility.yul\":20388:20391   */\n      dup6\n        /* \"#utility.yul\":20311:20400   */\n      tag_396\n      jump\t// in\n    tag_641:\n        /* \"#utility.yul\":20304:20400   */\n      swap4\n      pop\n        /* \"#utility.yul\":20409:20474   */\n      tag_642\n        /* \"#utility.yul\":20467:20473   */\n      dup2\n        /* \"#utility.yul\":20462:20465   */\n      dup6\n        /* \"#utility.yul\":20455:20459   */\n      0x20\n        /* \"#utility.yul\":20448:20453   */\n      dup7\n        /* \"#utility.yul\":20444:20460   */\n      add\n        /* \"#utility.yul\":20409:20474   */\n      tag_369\n      jump\t// in\n    tag_642:\n        /* \"#utility.yul\":20499:20505   */\n      dup1\n        /* \"#utility.yul\":20494:20497   */\n      dup5\n        /* \"#utility.yul\":20490:20506   */\n      add\n        /* \"#utility.yul\":20483:20506   */\n      swap2\n      pop\n        /* \"#utility.yul\":20232:20512   */\n      pop\n        /* \"#utility.yul\":20122:20512   */\n      swap3\n      swap2\n      pop\n      pop\n      jump\t// out\n        /* \"#utility.yul\":20518:20669   */\n    tag_398:\n        /* \"#utility.yul\":20658:20661   */\n      0x2c00000000000000000000000000000000000000000000000000000000000000\n        /* \"#utility.yul\":20654:20655   */\n      0x00\n        /* \"#utility.yul\":20646:20652   */\n      dup3\n        /* \"#utility.yul\":20642:20656   */\n      add\n        /* \"#utility.yul\":20635:20662   */\n      mstore\n        /* \"#utility.yul\":20518:20669   */\n      pop\n      jump\t// out\n        /* \"#utility.yul\":20675:21075   */\n    tag_399:\n        /* \"#utility.yul\":20835:20838   */\n      0x00\n        /* \"#utility.yul\":20856:20940   */\n      tag_645\n        /* \"#utility.yul\":20938:20939   */\n      0x01\n        /* \"#utility.yul\":20933:20936   */\n      dup4\n        /* \"#utility.yul\":20856:20940   */\n      tag_396\n      jump\t// in\n    tag_645:\n        /* \"#utility.yul\":20849:20940   */\n      swap2\n      pop\n        /* \"#utility.yul\":20949:21042   */\n      tag_646\n        /* \"#utility.yul\":21038:21041   */\n      dup3\n        /* \"#utility.yul\":20949:21042   */\n      tag_398\n      jump\t// in\n    tag_646:\n        /* \"#utility.yul\":21067:21068   */\n      0x01\n        /* \"#utility.yul\":21062:21065   */\n      dup3\n        /* \"#utility.yul\":21058:21069   */\n      add\n        /* \"#utility.yul\":21051:21069   */\n      swap1\n      pop\n        /* \"#utility.yul\":20675:21075   */\n      swap2\n      swap1\n      pop\n      jump\t// out\n        /* \"#utility.yul\":21081:23486   */\n    tag_113:\n        /* \"#utility.yul\":21958:21961   */\n      0x00\n        /* \"#utility.yul\":21980:22075   */\n      tag_648\n        /* \"#utility.yul\":22071:22074   */\n      dup3\n        /* \"#utility.yul\":22062:22068   */\n      dup10\n        /* \"#utility.yul\":21980:22075   */\n      tag_397\n      jump\t// in\n    tag_648:\n        /* \"#utility.yul\":21973:22075   */\n      swap2\n      pop\n        /* \"#utility.yul\":22092:22240   */\n      tag_649\n        /* \"#utility.yul\":22236:22239   */\n      dup3\n        /* \"#utility.yul\":22092:22240   */\n      tag_399\n      jump\t// in\n    tag_649:\n        /* \"#utility.yul\":22085:22240   */\n      swap2\n      pop\n        /* \"#utility.yul\":22257:22352   */\n      tag_650\n        /* \"#utility.yul\":22348:22351   */\n      dup3\n        /* \"#utility.yul\":22339:22345   */\n      dup9\n        /* \"#utility.yul\":22257:22352   */\n      tag_397\n      jump\t// in\n    tag_650:\n        /* \"#utility.yul\":22250:22352   */\n      swap2\n      pop\n        /* \"#utility.yul\":22369:22517   */\n      tag_651\n        /* \"#utility.yul\":22513:22516   */\n      dup3\n        /* \"#utility.yul\":22369:22517   */\n      tag_399\n      jump\t// in\n    tag_651:\n        /* \"#utility.yul\":22362:22517   */\n      swap2\n      pop\n        /* \"#utility.yul\":22534:22629   */\n      tag_652\n        /* \"#utility.yul\":22625:22628   */\n      dup3\n        /* \"#utility.yul\":22616:22622   */\n      dup8\n        /* \"#utility.yul\":22534:22629   */\n      tag_397\n      jump\t// in\n    tag_652:\n        /* \"#utility.yul\":22527:22629   */\n      swap2\n      pop\n        /* \"#utility.yul\":22646:22794   */\n      tag_653\n        /* \"#utility.yul\":22790:22793   */\n      dup3\n        /* \"#utility.yul\":22646:22794   */\n      tag_399\n      jump\t// in\n    tag_653:\n        /* \"#utility.yul\":22639:22794   */\n      swap2\n      pop\n        /* \"#utility.yul\":22811:22906   */\n      tag_654\n        /* \"#utility.yul\":22902:22905   */\n      dup3\n        /* \"#utility.yul\":22893:22899   */\n      dup7\n        /* \"#utility.yul\":22811:22906   */\n      tag_397\n      jump\t// in\n    tag_654:\n        /* \"#utility.yul\":22804:22906   */\n      swap2\n      pop\n        /* \"#utility.yul\":22923:23071   */\n      tag_655\n        /* \"#utility.yul\":23067:23070   */\n      dup3\n        /* \"#utility.yul\":22923:23071   */\n      tag_399\n      jump\t// in\n    tag_655:\n        /* \"#utility.yul\":22916:23071   */\n      swap2\n      pop\n        /* \"#utility.yul\":23088:23183   */\n      tag_656\n        /* \"#utility.yul\":23179:23182   */\n      dup3\n        /* \"#utility.yul\":23170:23176   */\n      dup6\n        /* \"#utility.yul\":23088:23183   */\n      tag_397\n      jump\t// in\n    tag_656:\n        /* \"#utility.yul\":23081:23183   */\n      swap2\n      pop\n        /* \"#utility.yul\":23200:23348   */\n      tag_657\n        /* \"#utility.yul\":23344:23347   */\n      dup3\n        /* \"#utility.yul\":23200:23348   */\n      tag_399\n      jump\t// in\n    tag_657:\n        /* \"#utility.yul\":23193:23348   */\n      swap2\n      pop\n        /* \"#utility.yul\":23365:23460   */\n      tag_658\n        /* \"#utility.yul\":23456:23459   */\n      dup3\n        /* \"#utility.yul\":23447:23453   */\n      dup5\n        /* \"#utility.yul\":23365:23460   */\n      tag_397\n      jump\t// in\n    tag_658:\n        /* \"#utility.yul\":23358:23460   */\n      swap2\n      pop\n        /* \"#utility.yul\":23477:23480   */\n      dup2\n        /* \"#utility.yul\":23470:23480   */\n      swap1\n      pop\n        /* \"#utility.yul\":21081:23486   */\n      swap8\n      swap7\n      pop\n      pop\n      pop\n      pop\n      pop\n      pop\n      pop\n      jump\t// out\n        /* \"#utility.yul\":23492:23672   */\n    tag_400:\n        /* \"#utility.yul\":23540:23617   */\n      0x4e487b7100000000000000000000000000000000000000000000000000000000\n        /* \"#utility.yul\":23537:23538   */\n      0x00\n        /* \"#utility.yul\":23530:23618   */\n      mstore\n        /* \"#utility.yul\":23637:23641   */\n      0x11\n        /* \"#utility.yul\":23634:23635   */\n      0x04\n        /* \"#utility.yul\":23627:23642   */\n      mstore\n        /* \"#utility.yul\":23661:23665   */\n      0x24\n        /* \"#utility.yul\":23658:23659   */\n      0x00\n        /* \"#utility.yul\":23651:23666   */\n      revert\n        /* \"#utility.yul\":23678:23872   */\n    tag_123:\n        /* \"#utility.yul\":23718:23722   */\n      0x00\n        /* \"#utility.yul\":23738:23758   */\n      tag_661\n        /* \"#utility.yul\":23756:23757   */\n      dup3\n        /* \"#utility.yul\":23738:23758   */\n      tag_347\n      jump\t// in\n    tag_661:\n        /* \"#utility.yul\":23733:23758   */\n      swap2\n      pop\n        /* \"#utility.yul\":23772:23792   */\n      tag_662\n        /* \"#utility.yul\":23790:23791   */\n      dup4\n        /* \"#utility.yul\":23772:23792   */\n      tag_347\n      jump\t// in\n    tag_662:\n        /* \"#utility.yul\":23767:23792   */\n      swap3\n      pop\n        /* \"#utility.yul\":23816:23817   */\n      dup3\n        /* \"#utility.yul\":23813:23814   */\n      dup3\n        /* \"#utility.yul\":23809:23818   */\n      sub\n        /* \"#utility.yul\":23801:23818   */\n      swap1\n      pop\n        /* \"#utility.yul\":23840:23841   */\n      dup2\n        /* \"#utility.yul\":23834:23838   */\n      dup2\n        /* \"#utility.yul\":23831:23842   */\n      gt\n        /* \"#utility.yul\":23828:23865   */\n      iszero\n      tag_663\n      jumpi\n        /* \"#utility.yul\":23845:23863   */\n      tag_664\n      tag_400\n      jump\t// in\n    tag_664:\n        /* \"#utility.yul\":23828:23865   */\n    tag_663:\n        /* \"#utility.yul\":23678:23872   */\n      swap3\n      swap2\n      pop\n      pop\n      jump\t// out\n        /* \"#utility.yul\":23878:24058   */\n    tag_401:\n        /* \"#utility.yul\":23926:24003   */\n      0x4e487b7100000000000000000000000000000000000000000000000000000000\n        /* \"#utility.yul\":23923:23924   */\n      0x00\n        /* \"#utility.yul\":23916:24004   */\n      mstore\n        /* \"#utility.yul\":24023:24027   */\n      0x12\n        /* \"#utility.yul\":24020:24021   */\n      0x04\n        /* \"#utility.yul\":24013:24028   */\n      mstore\n        /* \"#utility.yul\":24047:24051   */\n      0x24\n        /* \"#utility.yul\":24044:24045   */\n      0x00\n        /* \"#utility.yul\":24037:24052   */\n      revert\n        /* \"#utility.yul\":24064:24249   */\n    tag_126:\n        /* \"#utility.yul\":24104:24105   */\n      0x00\n        /* \"#utility.yul\":24121:24141   */\n      tag_667\n        /* \"#utility.yul\":24139:24140   */\n      dup3\n        /* \"#utility.yul\":24121:24141   */\n      tag_347\n      jump\t// in\n    tag_667:\n        /* \"#utility.yul\":24116:24141   */\n      swap2\n      pop\n        /* \"#utility.yul\":24155:24175   */\n      tag_668\n        /* \"#utility.yul\":24173:24174   */\n      dup4\n        /* \"#utility.yul\":24155:24175   */\n      tag_347\n      jump\t// in\n    tag_668:\n        /* \"#utility.yul\":24150:24175   */\n      swap3\n      pop\n        /* \"#utility.yul\":24194:24195   */\n      dup3\n        /* \"#utility.yul\":24184:24219   */\n      tag_669\n      jumpi\n        /* \"#utility.yul\":24199:24217   */\n      tag_670\n      tag_401\n      jump\t// in\n    tag_670:\n        /* \"#utility.yul\":24184:24219   */\n    tag_669:\n        /* \"#utility.yul\":24241:24242   */\n      dup3\n        /* \"#utility.yul\":24238:24239   */\n      dup3\n        /* \"#utility.yul\":24234:24243   */\n      div\n        /* \"#utility.yul\":24229:24243   */\n      swap1\n      pop\n        /* \"#utility.yul\":24064:24249   */\n      swap3\n      swap2\n      pop\n      pop\n      jump\t// out\n        /* \"#utility.yul\":24255:24665   */\n    tag_135:\n        /* \"#utility.yul\":24295:24302   */\n      0x00\n        /* \"#utility.yul\":24318:24338   */\n      tag_672\n        /* \"#utility.yul\":24336:24337   */\n      dup3\n        /* \"#utility.yul\":24318:24338   */\n      tag_347\n      jump\t// in\n    tag_672:\n        /* \"#utility.yul\":24313:24338   */\n      swap2\n      pop\n        /* \"#utility.yul\":24352:24372   */\n      tag_673\n        /* \"#utility.yul\":24370:24371   */\n      dup4\n        /* \"#utility.yul\":24352:24372   */\n      tag_347\n      jump\t// in\n    tag_673:\n        /* \"#utility.yul\":24347:24372   */\n      swap3\n      pop\n        /* \"#utility.yul\":24407:24408   */\n      dup3\n        /* \"#utility.yul\":24404:24405   */\n      dup3\n        /* \"#utility.yul\":24400:24409   */\n      mul\n        /* \"#utility.yul\":24429:24459   */\n      tag_674\n        /* \"#utility.yul\":24447:24458   */\n      dup2\n        /* \"#utility.yul\":24429:24459   */\n      tag_347\n      jump\t// in\n    tag_674:\n        /* \"#utility.yul\":24418:24459   */\n      swap2\n      pop\n        /* \"#utility.yul\":24608:24609   */\n      dup3\n        /* \"#utility.yul\":24599:24606   */\n      dup3\n        /* \"#utility.yul\":24595:24610   */\n      div\n        /* \"#utility.yul\":24592:24593   */\n      dup5\n        /* \"#utility.yul\":24589:24611   */\n      eq\n        /* \"#utility.yul\":24569:24570   */\n      dup4\n        /* \"#utility.yul\":24562:24571   */\n      iszero\n        /* \"#utility.yul\":24542:24625   */\n      or\n        /* \"#utility.yul\":24519:24658   */\n      tag_675\n      jumpi\n        /* \"#utility.yul\":24638:24656   */\n      tag_676\n      tag_400\n      jump\t// in\n    tag_676:\n        /* \"#utility.yul\":24519:24658   */\n    tag_675:\n        /* \"#utility.yul\":24303:24665   */\n      pop\n        /* \"#utility.yul\":24255:24665   */\n      swap3\n      swap2\n      pop\n      pop\n      jump\t// out\n        /* \"#utility.yul\":24671:24862   */\n    tag_140:\n        /* \"#utility.yul\":24711:24714   */\n      0x00\n        /* \"#utility.yul\":24730:24750   */\n      tag_678\n        /* \"#utility.yul\":24748:24749   */\n      dup3\n        /* \"#utility.yul\":24730:24750   */\n      tag_347\n      jump\t// in\n    tag_678:\n        /* \"#utility.yul\":24725:24750   */\n      swap2\n      pop\n        /* \"#utility.yul\":24764:24784   */\n      tag_679\n        /* \"#utility.yul\":24782:24783   */\n      dup4\n        /* \"#utility.yul\":24764:24784   */\n      tag_347\n      jump\t// in\n    tag_679:\n        /* \"#utility.yul\":24759:24784   */\n      swap3\n      pop\n        /* \"#utility.yul\":24807:24808   */\n      dup3\n        /* \"#utility.yul\":24804:24805   */\n      dup3\n        /* \"#utility.yul\":24800:24809   */\n      add\n        /* \"#utility.yul\":24793:24809   */\n      swap1\n      pop\n        /* \"#utility.yul\":24828:24831   */\n      dup1\n        /* \"#utility.yul\":24825:24826   */\n      dup3\n        /* \"#utility.yul\":24822:24832   */\n      gt\n        /* \"#utility.yul\":24819:24855   */\n      iszero\n      tag_680\n      jumpi\n        /* \"#utility.yul\":24835:24853   */\n      tag_681\n      tag_400\n      jump\t// in\n    tag_681:\n        /* \"#utility.yul\":24819:24855   */\n    tag_680:\n        /* \"#utility.yul\":24671:24862   */\n      swap3\n      swap2\n      pop\n      pop\n      jump\t// out\n        /* \"#utility.yul\":24868:25048   */\n    tag_402:\n        /* \"#utility.yul\":24916:24993   */\n      0x4e487b7100000000000000000000000000000000000000000000000000000000\n        /* \"#utility.yul\":24913:24914   */\n      0x00\n        /* \"#utility.yul\":24906:24994   */\n      mstore\n        /* \"#utility.yul\":25013:25017   */\n      0x22\n        /* \"#utility.yul\":25010:25011   */\n      0x04\n        /* \"#utility.yul\":25003:25018   */\n      mstore\n        /* \"#utility.yul\":25037:25041   */\n      0x24\n        /* \"#utility.yul\":25034:25035   */\n      0x00\n        /* \"#utility.yul\":25027:25042   */\n      revert\n        /* \"#utility.yul\":25054:25374   */\n    tag_152:\n        /* \"#utility.yul\":25098:25104   */\n      0x00\n        /* \"#utility.yul\":25135:25136   */\n      0x02\n        /* \"#utility.yul\":25129:25133   */\n      dup3\n        /* \"#utility.yul\":25125:25137   */\n      div\n        /* \"#utility.yul\":25115:25137   */\n      swap1\n      pop\n        /* \"#utility.yul\":25182:25183   */\n      0x01\n        /* \"#utility.yul\":25176:25180   */\n      dup3\n        /* \"#utility.yul\":25172:25184   */\n      and\n        /* \"#utility.yul\":25203:25221   */\n      dup1\n        /* \"#utility.yul\":25193:25274   */\n      tag_684\n      jumpi\n        /* \"#utility.yul\":25259:25263   */\n      0x7f\n        /* \"#utility.yul\":25251:25257   */\n      dup3\n        /* \"#utility.yul\":25247:25264   */\n      and\n        /* \"#utility.yul\":25237:25264   */\n      swap2\n      pop\n        /* \"#utility.yul\":25193:25274   */\n    tag_684:\n        /* \"#utility.yul\":25321:25323   */\n      0x20\n        /* \"#utility.yul\":25313:25319   */\n      dup3\n        /* \"#utility.yul\":25310:25324   */\n      lt\n        /* \"#utility.yul\":25290:25308   */\n      dup2\n        /* \"#utility.yul\":25287:25325   */\n      sub\n        /* \"#utility.yul\":25284:25368   */\n      tag_685\n      jumpi\n        /* \"#utility.yul\":25340:25358   */\n      tag_686\n      tag_402\n      jump\t// in\n    tag_686:\n        /* \"#utility.yul\":25284:25368   */\n    tag_685:\n        /* \"#utility.yul\":25105:25374   */\n      pop\n        /* \"#utility.yul\":25054:25374   */\n      swap2\n      swap1\n      pop\n      jump\t// out\n        /* \"#utility.yul\":25380:25613   */\n    tag_160:\n        /* \"#utility.yul\":25419:25422   */\n      0x00\n        /* \"#utility.yul\":25442:25466   */\n      tag_688\n        /* \"#utility.yul\":25460:25465   */\n      dup3\n        /* \"#utility.yul\":25442:25466   */\n      tag_347\n      jump\t// in\n    tag_688:\n        /* \"#utility.yul\":25433:25466   */\n      swap2\n      pop\n        /* \"#utility.yul\":25488:25554   */\n      0xffffffffffffffffffffffffffffffffffffffffffffffffffffffffffffffff\n        /* \"#utility.yul\":25481:25486   */\n      dup3\n        /* \"#utility.yul\":25478:25555   */\n      sub\n        /* \"#utility.yul\":25475:25578   */\n      tag_689\n      jumpi\n        /* \"#utility.yul\":25558:25576   */\n      tag_690\n      tag_400\n      jump\t// in\n    tag_690:\n        /* \"#utility.yul\":25475:25578   */\n    tag_689:\n        /* \"#utility.yul\":25605:25606   */\n      0x01\n        /* \"#utility.yul\":25598:25603   */\n      dup3\n        /* \"#utility.yul\":25594:25607   */\n      add\n        /* \"#utility.yul\":25587:25607   */\n      swap1\n      pop\n        /* \"#utility.yul\":25380:25613   */\n      swap2\n      swap1\n      pop\n      jump\t// out\n        /* \"#utility.yul\":25619:25695   */\n    tag_403:\n        /* \"#utility.yul\":25655:25662   */\n      0x00\n        /* \"#utility.yul\":25684:25689   */\n      dup2\n        /* \"#utility.yul\":25673:25689   */\n      swap1\n      pop\n        /* \"#utility.yul\":25619:25695   */\n      swap2\n      swap1\n      pop\n      jump\t// out\n        /* \"#utility.yul\":25701:25932   */\n    tag_162:\n        /* \"#utility.yul\":25739:25742   */\n      0x00\n        /* \"#utility.yul\":25762:25785   */\n      tag_693\n        /* \"#utility.yul\":25779:25784   */\n      dup3\n        /* \"#utility.yul\":25762:25785   */\n      tag_403\n      jump\t// in\n    tag_693:\n        /* \"#utility.yul\":25753:25785   */\n      swap2\n      pop\n        /* \"#utility.yul\":25807:25873   */\n      0x8000000000000000000000000000000000000000000000000000000000000000\n        /* \"#utility.yul\":25800:25805   */\n      dup3\n        /* \"#utility.yul\":25797:25874   */\n      sub\n        /* \"#utility.yul\":25794:25897   */\n      tag_694\n      jumpi\n        /* \"#utility.yul\":25877:25895   */\n      tag_695\n      tag_400\n      jump\t// in\n    tag_695:\n        /* \"#utility.yul\":25794:25897   */\n    tag_694:\n        /* \"#utility.yul\":25924:25925   */\n      0x01\n        /* \"#utility.yul\":25917:25922   */\n      dup3\n        /* \"#utility.yul\":25913:25926   */\n      sub\n        /* \"#utility.yul\":25906:25926   */\n      swap1\n      pop\n        /* \"#utility.yul\":25701:25932   */\n      swap2\n      swap1\n      pop\n      jump\t// out\n        /* \"#utility.yul\":25938:26213   */\n    tag_165:\n        /* \"#utility.yul\":26070:26073   */\n      0x00\n        /* \"#utility.yul\":26092:26187   */\n      tag_697\n        /* \"#utility.yul\":26183:26186   */\n      dup3\n        /* \"#utility.yul\":26174:26180   */\n      dup5\n        /* \"#utility.yul\":26092:26187   */\n      tag_397\n      jump\t// in\n    tag_697:\n        /* \"#utility.yul\":26085:26187   */\n      swap2\n      pop\n        /* \"#utility.yul\":26204:26207   */\n      dup2\n        /* \"#utility.yul\":26197:26207   */\n      swap1\n      pop\n        /* \"#utility.yul\":25938:26213   */\n      swap3\n      swap2\n      pop\n      pop\n      jump\t// out\n        /* \"#utility.yul\":26219:26362   */\n    tag_404:\n        /* \"#utility.yul\":26276:26281   */\n      0x00\n        /* \"#utility.yul\":26307:26313   */\n      dup2\n        /* \"#utility.yul\":26301:26314   */\n      mload\n        /* \"#utility.yul\":26292:26314   */\n      swap1\n      pop\n        /* \"#utility.yul\":26323:26356   */\n      tag_699\n        /* \"#utility.yul\":26350:26355   */\n      dup2\n        /* \"#utility.yul\":26323:26356   */\n      tag_352\n      jump\t// in\n    tag_699:\n        /* \"#utility.yul\":26219:26362   */\n      swap3\n      swap2\n      pop\n      pop\n      jump\t// out\n        /* \"#utility.yul\":26368:26719   */\n    tag_222:\n        /* \"#utility.yul\":26438:26444   */\n      0x00\n        /* \"#utility.yul\":26487:26489   */\n      0x20\n        /* \"#utility.yul\":26475:26484   */\n      dup3\n        /* \"#utility.yul\":26466:26473   */\n      dup5\n        /* \"#utility.yul\":26462:26485   */\n      sub\n        /* \"#utility.yul\":26458:26490   */\n      slt\n        /* \"#utility.yul\":26455:26574   */\n      iszero\n      tag_701\n      jumpi\n        /* \"#utility.yul\":26493:26572   */\n      tag_702\n      tag_350\n      jump\t// in\n    tag_702:\n        /* \"#utility.yul\":26455:26574   */\n    tag_701:\n        /* \"#utility.yul\":26613:26614   */\n      0x00\n        /* \"#utility.yul\":26638:26702   */\n      tag_703\n        /* \"#utility.yul\":26694:26701   */\n      dup5\n        /* \"#utility.yul\":26685:26691   */\n      dup3\n        /* \"#utility.yul\":26674:26683   */\n      dup6\n        /* \"#utility.yul\":26670:26692   */\n      add\n        /* \"#utility.yul\":26638:26702   */\n      tag_404\n      jump\t// in\n    tag_703:\n        /* \"#utility.yul\":26628:26702   */\n      swap2\n      pop\n        /* \"#utility.yul\":26584:26712   */\n      pop\n        /* \"#utility.yul\":26368:26719   */\n      swap3\n      swap2\n      pop\n      pop\n      jump\t// out\n        /* \"#utility.yul\":26725:26843   */\n    tag_405:\n        /* \"#utility.yul\":26812:26836   */\n      tag_705\n        /* \"#utility.yul\":26830:26835   */\n      dup2\n        /* \"#utility.yul\":26812:26836   */\n      tag_364\n      jump\t// in\n    tag_705:\n        /* \"#utility.yul\":26807:26810   */\n      dup3\n        /* \"#utility.yul\":26800:26837   */\n      mstore\n        /* \"#utility.yul\":26725:26843   */\n      pop\n      pop\n      jump\t// out\n        /* \"#utility.yul\":26849:27493   */\n    tag_229:\n        /* \"#utility.yul\":27046:27050   */\n      0x00\n        /* \"#utility.yul\":27084:27087   */\n      0x80\n        /* \"#utility.yul\":27073:27082   */\n      dup3\n        /* \"#utility.yul\":27069:27088   */\n      add\n        /* \"#utility.yul\":27061:27088   */\n      swap1\n      pop\n        /* \"#utility.yul\":27098:27169   */\n      tag_707\n        /* \"#utility.yul\":27166:27167   */\n      0x00\n        /* \"#utility.yul\":27155:27164   */\n      dup4\n        /* \"#utility.yul\":27151:27168   */\n      add\n        /* \"#utility.yul\":27142:27148   */\n      dup8\n        /* \"#utility.yul\":27098:27169   */\n      tag_348\n      jump\t// in\n    tag_707:\n        /* \"#utility.yul\":27179:27251   */\n      tag_708\n        /* \"#utility.yul\":27247:27249   */\n      0x20\n        /* \"#utility.yul\":27236:27245   */\n      dup4\n        /* \"#utility.yul\":27232:27250   */\n      add\n        /* \"#utility.yul\":27223:27229   */\n      dup7\n        /* \"#utility.yul\":27179:27251   */\n      tag_348\n      jump\t// in\n    tag_708:\n        /* \"#utility.yul\":27298:27307   */\n      dup2\n        /* \"#utility.yul\":27292:27296   */\n      dup2\n        /* \"#utility.yul\":27288:27308   */\n      sub\n        /* \"#utility.yul\":27283:27285   */\n      0x40\n        /* \"#utility.yul\":27272:27281   */\n      dup4\n        /* \"#utility.yul\":27268:27286   */\n      add\n        /* \"#utility.yul\":27261:27309   */\n      mstore\n        /* \"#utility.yul\":27326:27404   */\n      tag_709\n        /* \"#utility.yul\":27399:27403   */\n      dup2\n        /* \"#utility.yul\":27390:27396   */\n      dup6\n        /* \"#utility.yul\":27326:27404   */\n      tag_370\n      jump\t// in\n    tag_709:\n        /* \"#utility.yul\":27318:27404   */\n      swap1\n      pop\n        /* \"#utility.yul\":27414:27486   */\n      tag_710\n        /* \"#utility.yul\":27482:27484   */\n      0x60\n        /* \"#utility.yul\":27471:27480   */\n      dup4\n        /* \"#utility.yul\":27467:27485   */\n      add\n        /* \"#utility.yul\":27458:27464   */\n      dup5\n        /* \"#utility.yul\":27414:27486   */\n      tag_405\n      jump\t// in\n    tag_710:\n        /* \"#utility.yul\":26849:27493   */\n      swap6\n      swap5\n      pop\n      pop\n      pop\n      pop\n      pop\n      jump\t// out\n        /* \"#utility.yul\":27499:28162   */\n    tag_234:\n        /* \"#utility.yul\":27587:27593   */\n      0x00\n        /* \"#utility.yul\":27595:27601   */\n      dup1\n        /* \"#utility.yul\":27603:27609   */\n      0x00\n        /* \"#utility.yul\":27652:27654   */\n      0x60\n        /* \"#utility.yul\":27640:27649   */\n      dup5\n        /* \"#utility.yul\":27631:27638   */\n      dup7\n        /* \"#utility.yul\":27627:27650   */\n      sub\n        /* \"#utility.yul\":27623:27655   */\n      slt\n        /* \"#utility.yul\":27620:27739   */\n      iszero\n      tag_712\n      jumpi\n        /* \"#utility.yul\":27658:27737   */\n      tag_713\n      tag_350\n      jump\t// in\n    tag_713:\n        /* \"#utility.yul\":27620:27739   */\n    tag_712:\n        /* \"#utility.yul\":27778:27779   */\n      0x00\n        /* \"#utility.yul\":27803:27867   */\n      tag_714\n        /* \"#utility.yul\":27859:27866   */\n      dup7\n        /* \"#utility.yul\":27850:27856   */\n      dup3\n        /* \"#utility.yul\":27839:27848   */\n      dup8\n        /* \"#utility.yul\":27835:27857   */\n      add\n        /* \"#utility.yul\":27803:27867   */\n      tag_404\n      jump\t// in\n    tag_714:\n        /* \"#utility.yul\":27793:27867   */\n      swap4\n      pop\n        /* \"#utility.yul\":27749:27877   */\n      pop\n        /* \"#utility.yul\":27916:27918   */\n      0x20\n        /* \"#utility.yul\":27942:28006   */\n      tag_715\n        /* \"#utility.yul\":27998:28005   */\n      dup7\n        /* \"#utility.yul\":27989:27995   */\n      dup3\n        /* \"#utility.yul\":27978:27987   */\n      dup8\n        /* \"#utility.yul\":27974:27996   */\n      add\n        /* \"#utility.yul\":27942:28006   */\n      tag_404\n      jump\t// in\n    tag_715:\n        /* \"#utility.yul\":27932:28006   */\n      swap3\n      pop\n        /* \"#utility.yul\":27887:28016   */\n      pop\n        /* \"#utility.yul\":28055:28057   */\n      0x40\n        /* \"#utility.yul\":28081:28145   */\n      tag_716\n        /* \"#utility.yul\":28137:28144   */\n      dup7\n        /* \"#utility.yul\":28128:28134   */\n      dup3\n        /* \"#utility.yul\":28117:28126   */\n      dup8\n        /* \"#utility.yul\":28113:28135   */\n      add\n        /* \"#utility.yul\":28081:28145   */\n      tag_404\n      jump\t// in\n    tag_716:\n        /* \"#utility.yul\":28071:28145   */\n      swap2\n      pop\n        /* \"#utility.yul\":28026:28155   */\n      pop\n        /* \"#utility.yul\":27499:28162   */\n      swap3\n      pop\n      swap3\n      pop\n      swap3\n      jump\t// out\n        /* \"#utility.yul\":28168:28272   */\n    tag_406:\n        /* \"#utility.yul\":28213:28220   */\n      0x00\n        /* \"#utility.yul\":28242:28266   */\n      tag_718\n        /* \"#utility.yul\":28260:28265   */\n      dup3\n        /* \"#utility.yul\":28242:28266   */\n      tag_363\n      jump\t// in\n    tag_718:\n        /* \"#utility.yul\":28231:28266   */\n      swap1\n      pop\n        /* \"#utility.yul\":28168:28272   */\n      swap2\n      swap1\n      pop\n      jump\t// out\n        /* \"#utility.yul\":28278:28416   */\n    tag_407:\n        /* \"#utility.yul\":28359:28391   */\n      tag_720\n        /* \"#utility.yul\":28385:28390   */\n      dup2\n        /* \"#utility.yul\":28359:28391   */\n      tag_406\n      jump\t// in\n    tag_720:\n        /* \"#utility.yul\":28352:28357   */\n      dup2\n        /* \"#utility.yul\":28349:28392   */\n      eq\n        /* \"#utility.yul\":28339:28410   */\n      tag_721\n      jumpi\n        /* \"#utility.yul\":28406:28407   */\n      0x00\n        /* \"#utility.yul\":28403:28404   */\n      dup1\n        /* \"#utility.yul\":28396:28408   */\n      revert\n        /* \"#utility.yul\":28339:28410   */\n    tag_721:\n        /* \"#utility.yul\":28278:28416   */\n      pop\n      jump\t// out\n        /* \"#utility.yul\":28422:28581   */\n    tag_408:\n        /* \"#utility.yul\":28487:28492   */\n      0x00\n        /* \"#utility.yul\":28518:28524   */\n      dup2\n        /* \"#utility.yul\":28512:28525   */\n      mload\n        /* \"#utility.yul\":28503:28525   */\n      swap1\n      pop\n        /* \"#utility.yul\":28534:28575   */\n      tag_723\n        /* \"#utility.yul\":28569:28574   */\n      dup2\n        /* \"#utility.yul\":28534:28575   */\n      tag_407\n      jump\t// in\n    tag_723:\n        /* \"#utility.yul\":28422:28581   */\n      swap3\n      swap2\n      pop\n      pop\n      jump\t// out\n        /* \"#utility.yul\":28587:29266   */\n    tag_241:\n        /* \"#utility.yul\":28683:28689   */\n      0x00\n        /* \"#utility.yul\":28691:28697   */\n      dup1\n        /* \"#utility.yul\":28699:28705   */\n      0x00\n        /* \"#utility.yul\":28748:28750   */\n      0x60\n        /* \"#utility.yul\":28736:28745   */\n      dup5\n        /* \"#utility.yul\":28727:28734   */\n      dup7\n        /* \"#utility.yul\":28723:28746   */\n      sub\n        /* \"#utility.yul\":28719:28751   */\n      slt\n        /* \"#utility.yul\":28716:28835   */\n      iszero\n      tag_725\n      jumpi\n        /* \"#utility.yul\":28754:28833   */\n      tag_726\n      tag_350\n      jump\t// in\n    tag_726:\n        /* \"#utility.yul\":28716:28835   */\n    tag_725:\n        /* \"#utility.yul\":28874:28875   */\n      0x00\n        /* \"#utility.yul\":28899:28971   */\n      tag_727\n        /* \"#utility.yul\":28963:28970   */\n      dup7\n        /* \"#utility.yul\":28954:28960   */\n      dup3\n        /* \"#utility.yul\":28943:28952   */\n      dup8\n        /* \"#utility.yul\":28939:28961   */\n      add\n        /* \"#utility.yul\":28899:28971   */\n      tag_408\n      jump\t// in\n    tag_727:\n        /* \"#utility.yul\":28889:28971   */\n      swap4\n      pop\n        /* \"#utility.yul\":28845:28981   */\n      pop\n        /* \"#utility.yul\":29020:29022   */\n      0x20\n        /* \"#utility.yul\":29046:29110   */\n      tag_728\n        /* \"#utility.yul\":29102:29109   */\n      dup7\n        /* \"#utility.yul\":29093:29099   */\n      dup3\n        /* \"#utility.yul\":29082:29091   */\n      dup8\n        /* \"#utility.yul\":29078:29100   */\n      add\n        /* \"#utility.yul\":29046:29110   */\n      tag_404\n      jump\t// in\n    tag_728:\n        /* \"#utility.yul\":29036:29110   */\n      swap3\n      pop\n        /* \"#utility.yul\":28991:29120   */\n      pop\n        /* \"#utility.yul\":29159:29161   */\n      0x40\n        /* \"#utility.yul\":29185:29249   */\n      tag_729\n        /* \"#utility.yul\":29241:29248   */\n      dup7\n        /* \"#utility.yul\":29232:29238   */\n      dup3\n        /* \"#utility.yul\":29221:29230   */\n      dup8\n        /* \"#utility.yul\":29217:29239   */\n      add\n        /* \"#utility.yul\":29185:29249   */\n      tag_404\n      jump\t// in\n    tag_729:\n        /* \"#utility.yul\":29175:29249   */\n      swap2\n      pop\n        /* \"#utility.yul\":29130:29259   */\n      pop\n        /* \"#utility.yul\":28587:29266   */\n      swap3\n      pop\n      swap3\n      pop\n      swap3\n      jump\t// out\n        /* \"#utility.yul\":29272:29386   */\n    tag_409:\n      pop\n      jump\t// out\n        /* \"#utility.yul\":29392:29756   */\n    tag_410:\n        /* \"#utility.yul\":29534:29537   */\n      0x00\n        /* \"#utility.yul\":29555:29621   */\n      tag_732\n        /* \"#utility.yul\":29619:29620   */\n      0x00\n        /* \"#utility.yul\":29614:29617   */\n      dup4\n        /* \"#utility.yul\":29555:29621   */\n      tag_368\n      jump\t// in\n    tag_732:\n        /* \"#utility.yul\":29548:29621   */\n      swap2\n      pop\n        /* \"#utility.yul\":29630:29723   */\n      tag_733\n        /* \"#utility.yul\":29719:29722   */\n      dup3\n        /* \"#utility.yul\":29630:29723   */\n      tag_409\n      jump\t// in\n    tag_733:\n        /* \"#utility.yul\":29748:29749   */\n      0x00\n        /* \"#utility.yul\":29743:29746   */\n      dup3\n        /* \"#utility.yul\":29739:29750   */\n      add\n        /* \"#utility.yul\":29732:29750   */\n      swap1\n      pop\n        /* \"#utility.yul\":29392:29756   */\n      swap2\n      swap1\n      pop\n      jump\t// out\n        /* \"#utility.yul\":29762:30181   */\n    tag_246:\n        /* \"#utility.yul\":29928:29932   */\n      0x00\n        /* \"#utility.yul\":29966:29968   */\n      0x20\n        /* \"#utility.yul\":29955:29964   */\n      dup3\n        /* \"#utility.yul\":29951:29969   */\n      add\n        /* \"#utility.yul\":29943:29969   */\n      swap1\n      pop\n        /* \"#utility.yul\":30015:30024   */\n      dup2\n        /* \"#utility.yul\":30009:30013   */\n      dup2\n        /* \"#utility.yul\":30005:30025   */\n      sub\n        /* \"#utility.yul\":30001:30002   */\n      0x00\n        /* \"#utility.yul\":29990:29999   */\n      dup4\n        /* \"#utility.yul\":29986:30003   */\n      add\n        /* \"#utility.yul\":29979:30026   */\n      mstore\n        /* \"#utility.yul\":30043:30174   */\n      tag_735\n        /* \"#utility.yul\":30169:30173   */\n      dup2\n        /* \"#utility.yul\":30043:30174   */\n      tag_410\n      jump\t// in\n    tag_735:\n        /* \"#utility.yul\":30035:30174   */\n      swap1\n      pop\n        /* \"#utility.yul\":29762:30181   */\n      swap2\n      swap1\n      pop\n      jump\t// out\n        /* \"#utility.yul\":30187:30621   */\n    tag_411:\n        /* \"#utility.yul\":30276:30281   */\n      0x00\n        /* \"#utility.yul\":30301:30367   */\n      tag_737\n        /* \"#utility.yul\":30317:30366   */\n      tag_738\n        /* \"#utility.yul\":30359:30365   */\n      dup5\n        /* \"#utility.yul\":30317:30366   */\n      tag_359\n      jump\t// in\n    tag_738:\n        /* \"#utility.yul\":30301:30367   */\n      tag_358\n      jump\t// in\n    tag_737:\n        /* \"#utility.yul\":30292:30367   */\n      swap1\n      pop\n        /* \"#utility.yul\":30390:30396   */\n      dup3\n        /* \"#utility.yul\":30383:30388   */\n      dup2\n        /* \"#utility.yul\":30376:30397   */\n      mstore\n        /* \"#utility.yul\":30428:30432   */\n      0x20\n        /* \"#utility.yul\":30421:30426   */\n      dup2\n        /* \"#utility.yul\":30417:30433   */\n      add\n        /* \"#utility.yul\":30466:30469   */\n      dup5\n        /* \"#utility.yul\":30457:30463   */\n      dup5\n        /* \"#utility.yul\":30452:30455   */\n      dup5\n        /* \"#utility.yul\":30448:30464   */\n      add\n        /* \"#utility.yul\":30445:30470   */\n      gt\n        /* \"#utility.yul\":30442:30554   */\n      iszero\n      tag_739\n      jumpi\n        /* \"#utility.yul\":30473:30552   */\n      tag_740\n      tag_355\n      jump\t// in\n    tag_740:\n        /* \"#utility.yul\":30442:30554   */\n    tag_739:\n        /* \"#utility.yul\":30563:30615   */\n      tag_741\n        /* \"#utility.yul\":30608:30614   */\n      dup5\n        /* \"#utility.yul\":30603:30606   */\n      dup3\n        /* \"#utility.yul\":30598:30601   */\n      dup6\n        /* \"#utility.yul\":30563:30615   */\n      tag_369\n      jump\t// in\n    tag_741:\n        /* \"#utility.yul\":30282:30621   */\n      pop\n        /* \"#utility.yul\":30187:30621   */\n      swap4\n      swap3\n      pop\n      pop\n      pop\n      jump\t// out\n        /* \"#utility.yul\":30641:30996   */\n    tag_412:\n        /* \"#utility.yul\":30708:30713   */\n      0x00\n        /* \"#utility.yul\":30757:30760   */\n      dup3\n        /* \"#utility.yul\":30750:30754   */\n      0x1f\n        /* \"#utility.yul\":30742:30748   */\n      dup4\n        /* \"#utility.yul\":30738:30755   */\n      add\n        /* \"#utility.yul\":30734:30761   */\n      slt\n        /* \"#utility.yul\":30724:30846   */\n      tag_743\n      jumpi\n        /* \"#utility.yul\":30765:30844   */\n      tag_744\n      tag_354\n      jump\t// in\n    tag_744:\n        /* \"#utility.yul\":30724:30846   */\n    tag_743:\n        /* \"#utility.yul\":30875:30881   */\n      dup2\n        /* \"#utility.yul\":30869:30882   */\n      mload\n        /* \"#utility.yul\":30900:30990   */\n      tag_745\n        /* \"#utility.yul\":30986:30989   */\n      dup5\n        /* \"#utility.yul\":30978:30984   */\n      dup3\n        /* \"#utility.yul\":30971:30975   */\n      0x20\n        /* \"#utility.yul\":30963:30969   */\n      dup7\n        /* \"#utility.yul\":30959:30976   */\n      add\n        /* \"#utility.yul\":30900:30990   */\n      tag_411\n      jump\t// in\n    tag_745:\n        /* \"#utility.yul\":30891:30990   */\n      swap2\n      pop\n        /* \"#utility.yul\":30714:30996   */\n      pop\n        /* \"#utility.yul\":30641:30996   */\n      swap3\n      swap2\n      pop\n      pop\n      jump\t// out\n        /* \"#utility.yul\":31002:32011   */\n    tag_251:\n        /* \"#utility.yul\":31110:31116   */\n      0x00\n        /* \"#utility.yul\":31118:31124   */\n      dup1\n        /* \"#utility.yul\":31126:31132   */\n      0x00\n        /* \"#utility.yul\":31175:31177   */\n      0x60\n        /* \"#utility.yul\":31163:31172   */\n      dup5\n        /* \"#utility.yul\":31154:31161   */\n      dup7\n        /* \"#utility.yul\":31150:31173   */\n      sub\n        /* \"#utility.yul\":31146:31178   */\n      slt\n        /* \"#utility.yul\":31143:31262   */\n      iszero\n      tag_747\n      jumpi\n        /* \"#utility.yul\":31181:31260   */\n      tag_748\n      tag_350\n      jump\t// in\n    tag_748:\n        /* \"#utility.yul\":31143:31262   */\n    tag_747:\n        /* \"#utility.yul\":31301:31302   */\n      0x00\n        /* \"#utility.yul\":31326:31390   */\n      tag_749\n        /* \"#utility.yul\":31382:31389   */\n      dup7\n        /* \"#utility.yul\":31373:31379   */\n      dup3\n        /* \"#utility.yul\":31362:31371   */\n      dup8\n        /* \"#utility.yul\":31358:31380   */\n      add\n        /* \"#utility.yul\":31326:31390   */\n      tag_404\n      jump\t// in\n    tag_749:\n        /* \"#utility.yul\":31316:31390   */\n      swap4\n      pop\n        /* \"#utility.yul\":31272:31400   */\n      pop\n        /* \"#utility.yul\":31460:31462   */\n      0x20\n        /* \"#utility.yul\":31449:31458   */\n      dup5\n        /* \"#utility.yul\":31445:31463   */\n      add\n        /* \"#utility.yul\":31439:31464   */\n      mload\n        /* \"#utility.yul\":31491:31509   */\n      0xffffffffffffffff\n        /* \"#utility.yul\":31483:31489   */\n      dup2\n        /* \"#utility.yul\":31480:31510   */\n      gt\n        /* \"#utility.yul\":31477:31594   */\n      iszero\n      tag_750\n      jumpi\n        /* \"#utility.yul\":31513:31592   */\n      tag_751\n      tag_351\n      jump\t// in\n    tag_751:\n        /* \"#utility.yul\":31477:31594   */\n    tag_750:\n        /* \"#utility.yul\":31618:31692   */\n      tag_752\n        /* \"#utility.yul\":31684:31691   */\n      dup7\n        /* \"#utility.yul\":31675:31681   */\n      dup3\n        /* \"#utility.yul\":31664:31673   */\n      dup8\n        /* \"#utility.yul\":31660:31682   */\n      add\n        /* \"#utility.yul\":31618:31692   */\n      tag_412\n      jump\t// in\n    tag_752:\n        /* \"#utility.yul\":31608:31692   */\n      swap3\n      pop\n        /* \"#utility.yul\":31410:31702   */\n      pop\n        /* \"#utility.yul\":31762:31764   */\n      0x40\n        /* \"#utility.yul\":31751:31760   */\n      dup5\n        /* \"#utility.yul\":31747:31765   */\n      add\n        /* \"#utility.yul\":31741:31766   */\n      mload\n        /* \"#utility.yul\":31793:31811   */\n      0xffffffffffffffff\n        /* \"#utility.yul\":31785:31791   */\n      dup2\n        /* \"#utility.yul\":31782:31812   */\n      gt\n        /* \"#utility.yul\":31779:31896   */\n      iszero\n      tag_753\n      jumpi\n        /* \"#utility.yul\":31815:31894   */\n      tag_754\n      tag_351\n      jump\t// in\n    tag_754:\n        /* \"#utility.yul\":31779:31896   */\n    tag_753:\n        /* \"#utility.yul\":31920:31994   */\n      tag_755\n        /* \"#utility.yul\":31986:31993   */\n      dup7\n        /* \"#utility.yul\":31977:31983   */\n      dup3\n        /* \"#utility.yul\":31966:31975   */\n      dup8\n        /* \"#utility.yul\":31962:31984   */\n      add\n        /* \"#utility.yul\":31920:31994   */\n      tag_412\n      jump\t// in\n    tag_755:\n        /* \"#utility.yul\":31910:31994   */\n      swap2\n      pop\n        /* \"#utility.yul\":31712:32004   */\n      pop\n        /* \"#utility.yul\":31002:32011   */\n      swap3\n      pop\n      swap3\n      pop\n      swap3\n      jump\t// out\n        /* \"#utility.yul\":32017:32158   */\n    tag_413:\n        /* \"#utility.yul\":32066:32070   */\n      0x00\n        /* \"#utility.yul\":32089:32092   */\n      dup2\n        /* \"#utility.yul\":32081:32092   */\n      swap1\n      pop\n        /* \"#utility.yul\":32112:32115   */\n      dup2\n        /* \"#utility.yul\":32109:32110   */\n      0x00\n        /* \"#utility.yul\":32102:32116   */\n      mstore\n        /* \"#utility.yul\":32146:32150   */\n      0x20\n        /* \"#utility.yul\":32143:32144   */\n      0x00\n        /* \"#utility.yul\":32133:32151   */\n      keccak256\n        /* \"#utility.yul\":32125:32151   */\n      swap1\n      pop\n        /* \"#utility.yul\":32017:32158   */\n      swap2\n      swap1\n      pop\n      jump\t// out\n        /* \"#utility.yul\":32164:32257   */\n    tag_414:\n        /* \"#utility.yul\":32201:32207   */\n      0x00\n        /* \"#utility.yul\":32248:32250   */\n      0x20\n        /* \"#utility.yul\":32243:32245   */\n      0x1f\n        /* \"#utility.yul\":32236:32241   */\n      dup4\n        /* \"#utility.yul\":32232:32246   */\n      add\n        /* \"#utility.yul\":32228:32251   */\n      div\n        /* \"#utility.yul\":32218:32251   */\n      swap1\n      pop\n        /* \"#utility.yul\":32164:32257   */\n      swap2\n      swap1\n      pop\n      jump\t// out\n        /* \"#utility.yul\":32263:32370   */\n    tag_415:\n        /* \"#utility.yul\":32307:32315   */\n      0x00\n        /* \"#utility.yul\":32357:32362   */\n      dup3\n        /* \"#utility.yul\":32351:32355   */\n      dup3\n        /* \"#utility.yul\":32347:32363   */\n      shl\n        /* \"#utility.yul\":32326:32363   */\n      swap1\n      pop\n        /* \"#utility.yul\":32263:32370   */\n      swap3\n      swap2\n      pop\n      pop\n      jump\t// out\n        /* \"#utility.yul\":32376:32769   */\n    tag_416:\n        /* \"#utility.yul\":32445:32451   */\n      0x00\n        /* \"#utility.yul\":32495:32496   */\n      0x08\n        /* \"#utility.yul\":32483:32493   */\n      dup4\n        /* \"#utility.yul\":32479:32497   */\n      mul\n        /* \"#utility.yul\":32518:32615   */\n      tag_760\n        /* \"#utility.yul\":32548:32614   */\n      0xffffffffffffffffffffffffffffffffffffffffffffffffffffffffffffffff\n        /* \"#utility.yul\":32537:32546   */\n      dup3\n        /* \"#utility.yul\":32518:32615   */\n      tag_415\n      jump\t// in\n    tag_760:\n        /* \"#utility.yul\":32636:32675   */\n      tag_761\n        /* \"#utility.yul\":32666:32674   */\n      dup7\n        /* \"#utility.yul\":32655:32664   */\n      dup4\n        /* \"#utility.yul\":32636:32675   */\n      tag_415\n      jump\t// in\n    tag_761:\n        /* \"#utility.yul\":32624:32675   */\n      swap6\n      pop\n        /* \"#utility.yul\":32708:32712   */\n      dup1\n        /* \"#utility.yul\":32704:32713   */\n      not\n        /* \"#utility.yul\":32697:32702   */\n      dup5\n        /* \"#utility.yul\":32693:32714   */\n      and\n        /* \"#utility.yul\":32684:32714   */\n      swap4\n      pop\n        /* \"#utility.yul\":32757:32761   */\n      dup1\n        /* \"#utility.yul\":32747:32755   */\n      dup7\n        /* \"#utility.yul\":32743:32762   */\n      and\n        /* \"#utility.yul\":32736:32741   */\n      dup5\n        /* \"#utility.yul\":32733:32763   */\n      or\n        /* \"#utility.yul\":32723:32763   */\n      swap3\n      pop\n        /* \"#utility.yul\":32452:32769   */\n      pop\n      pop\n        /* \"#utility.yul\":32376:32769   */\n      swap4\n      swap3\n      pop\n      pop\n      pop\n      jump\t// out\n        /* \"#utility.yul\":32775:32835   */\n    tag_417:\n        /* \"#utility.yul\":32803:32806   */\n      0x00\n        /* \"#utility.yul\":32824:32829   */\n      dup2\n        /* \"#utility.yul\":32817:32829   */\n      swap1\n      pop\n        /* \"#utility.yul\":32775:32835   */\n      swap2\n      swap1\n      pop\n      jump\t// out\n        /* \"#utility.yul\":32841:32983   */\n    tag_418:\n        /* \"#utility.yul\":32891:32900   */\n      0x00\n        /* \"#utility.yul\":32924:32977   */\n      tag_764\n        /* \"#utility.yul\":32942:32976   */\n      tag_765\n        /* \"#utility.yul\":32951:32975   */\n      tag_766\n        /* \"#utility.yul\":32969:32974   */\n      dup5\n        /* \"#utility.yul\":32951:32975   */\n      tag_347\n      jump\t// in\n    tag_766:\n        /* \"#utility.yul\":32942:32976   */\n      tag_417\n      jump\t// in\n    tag_765:\n        /* \"#utility.yul\":32924:32977   */\n      tag_347\n      jump\t// in\n    tag_764:\n        /* \"#utility.yul\":32911:32977   */\n      swap1\n      pop\n        /* \"#utility.yul\":32841:32983   */\n      swap2\n      swap1\n      pop\n      jump\t// out\n        /* \"#utility.yul\":32989:33064   */\n    tag_419:\n        /* \"#utility.yul\":33032:33035   */\n      0x00\n        /* \"#utility.yul\":33053:33058   */\n      dup2\n        /* \"#utility.yul\":33046:33058   */\n      swap1\n      pop\n        /* \"#utility.yul\":32989:33064   */\n      swap2\n      swap1\n      pop\n      jump\t// out\n        /* \"#utility.yul\":33070:33339   */\n    tag_420:\n        /* \"#utility.yul\":33180:33219   */\n      tag_769\n        /* \"#utility.yul\":33211:33218   */\n      dup4\n        /* \"#utility.yul\":33180:33219   */\n      tag_418\n      jump\t// in\n    tag_769:\n        /* \"#utility.yul\":33241:33332   */\n      tag_770\n        /* \"#utility.yul\":33290:33331   */\n      tag_771\n        /* \"#utility.yul\":33314:33330   */\n      dup3\n        /* \"#utility.yul\":33290:33331   */\n      tag_419\n      jump\t// in\n    tag_771:\n        /* \"#utility.yul\":33282:33288   */\n      dup5\n        /* \"#utility.yul\":33275:33279   */\n      dup5\n        /* \"#utility.yul\":33269:33280   */\n      sload\n        /* \"#utility.yul\":33241:33332   */\n      tag_416\n      jump\t// in\n    tag_770:\n        /* \"#utility.yul\":33235:33239   */\n      dup3\n        /* \"#utility.yul\":33228:33333   */\n      sstore\n        /* \"#utility.yul\":33146:33339   */\n      pop\n        /* \"#utility.yul\":33070:33339   */\n      pop\n      pop\n      pop\n      jump\t// out\n        /* \"#utility.yul\":33345:33418   */\n    tag_421:\n        /* \"#utility.yul\":33390:33393   */\n      0x00\n        /* \"#utility.yul\":33345:33418   */\n      swap1\n      jump\t// out\n        /* \"#utility.yul\":33424:33613   */\n    tag_422:\n        /* \"#utility.yul\":33501:33533   */\n      tag_774\n      tag_421\n      jump\t// in\n    tag_774:\n        /* \"#utility.yul\":33542:33607   */\n      tag_775\n        /* \"#utility.yul\":33600:33606   */\n      dup2\n        /* \"#utility.yul\":33592:33598   */\n      dup5\n        /* \"#utility.yul\":33586:33590   */\n      dup5\n        /* \"#utility.yul\":33542:33607   */\n      tag_420\n      jump\t// in\n    tag_775:\n        /* \"#utility.yul\":33477:33613   */\n      pop\n        /* \"#utility.yul\":33424:33613   */\n      pop\n      pop\n      jump\t// out\n        /* \"#utility.yul\":33619:33805   */\n    tag_423:\n        /* \"#utility.yul\":33679:33799   */\n    tag_777:\n        /* \"#utility.yul\":33696:33699   */\n      dup2\n        /* \"#utility.yul\":33689:33694   */\n      dup2\n        /* \"#utility.yul\":33686:33700   */\n      lt\n        /* \"#utility.yul\":33679:33799   */\n      iszero\n      tag_779\n      jumpi\n        /* \"#utility.yul\":33750:33789   */\n      tag_780\n        /* \"#utility.yul\":33787:33788   */\n      0x00\n        /* \"#utility.yul\":33780:33785   */\n      dup3\n        /* \"#utility.yul\":33750:33789   */\n      tag_422\n      jump\t// in\n    tag_780:\n        /* \"#utility.yul\":33723:33724   */\n      0x01\n        /* \"#utility.yul\":33716:33721   */\n      dup2\n        /* \"#utility.yul\":33712:33725   */\n      add\n        /* \"#utility.yul\":33703:33725   */\n      swap1\n      pop\n        /* \"#utility.yul\":33679:33799   */\n      jump(tag_777)\n    tag_779:\n        /* \"#utility.yul\":33619:33805   */\n      pop\n      pop\n      jump\t// out\n        /* \"#utility.yul\":33811:34354   */\n    tag_424:\n        /* \"#utility.yul\":33912:33914   */\n      0x1f\n        /* \"#utility.yul\":33907:33910   */\n      dup3\n        /* \"#utility.yul\":33904:33915   */\n      gt\n        /* \"#utility.yul\":33901:34347   */\n      iszero\n      tag_782\n      jumpi\n        /* \"#utility.yul\":33946:33984   */\n      tag_783\n        /* \"#utility.yul\":33978:33983   */\n      dup2\n        /* \"#utility.yul\":33946:33984   */\n      tag_413\n      jump\t// in\n    tag_783:\n        /* \"#utility.yul\":34030:34059   */\n      tag_784\n        /* \"#utility.yul\":34048:34058   */\n      dup5\n        /* \"#utility.yul\":34030:34059   */\n      tag_414\n      jump\t// in\n    tag_784:\n        /* \"#utility.yul\":34020:34028   */\n      dup2\n        /* \"#utility.yul\":34016:34060   */\n      add\n        /* \"#utility.yul\":34213:34215   */\n      0x20\n        /* \"#utility.yul\":34201:34211   */\n      dup6\n        /* \"#utility.yul\":34198:34216   */\n      lt\n        /* \"#utility.yul\":34195:34244   */\n      iszero\n      tag_785\n      jumpi\n        /* \"#utility.yul\":34234:34242   */\n      dup2\n        /* \"#utility.yul\":34219:34242   */\n      swap1\n      pop\n        /* \"#utility.yul\":34195:34244   */\n    tag_785:\n        /* \"#utility.yul\":34257:34337   */\n      tag_786\n        /* \"#utility.yul\":34313:34335   */\n      tag_787\n        /* \"#utility.yul\":34331:34334   */\n      dup6\n        /* \"#utility.yul\":34313:34335   */\n      tag_414\n      jump\t// in\n    tag_787:\n        /* \"#utility.yul\":34303:34311   */\n      dup4\n        /* \"#utility.yul\":34299:34336   */\n      add\n        /* \"#utility.yul\":34286:34297   */\n      dup3\n        /* \"#utility.yul\":34257:34337   */\n      tag_423\n      jump\t// in\n    tag_786:\n        /* \"#utility.yul\":33916:34347   */\n      pop\n      pop\n        /* \"#utility.yul\":33901:34347   */\n    tag_782:\n        /* \"#utility.yul\":33811:34354   */\n      pop\n      pop\n      pop\n      jump\t// out\n        /* \"#utility.yul\":34360:34477   */\n    tag_425:\n        /* \"#utility.yul\":34414:34422   */\n      0x00\n        /* \"#utility.yul\":34464:34469   */\n      dup3\n        /* \"#utility.yul\":34458:34462   */\n      dup3\n        /* \"#utility.yul\":34454:34470   */\n      shr\n        /* \"#utility.yul\":34433:34470   */\n      swap1\n      pop\n        /* \"#utility.yul\":34360:34477   */\n      swap3\n      swap2\n      pop\n      pop\n      jump\t// out\n        /* \"#utility.yul\":34483:34652   */\n    tag_426:\n        /* \"#utility.yul\":34527:34533   */\n      0x00\n        /* \"#utility.yul\":34560:34611   */\n      tag_790\n        /* \"#utility.yul\":34608:34609   */\n      0x00\n        /* \"#utility.yul\":34604:34610   */\n      not\n        /* \"#utility.yul\":34596:34601   */\n      dup5\n        /* \"#utility.yul\":34593:34594   */\n      0x08\n        /* \"#utility.yul\":34589:34602   */\n      mul\n        /* \"#utility.yul\":34560:34611   */\n      tag_425\n      jump\t// in\n    tag_790:\n        /* \"#utility.yul\":34556:34612   */\n      not\n        /* \"#utility.yul\":34641:34645   */\n      dup1\n        /* \"#utility.yul\":34635:34639   */\n      dup4\n        /* \"#utility.yul\":34631:34646   */\n      and\n        /* \"#utility.yul\":34621:34646   */\n      swap2\n      pop\n        /* \"#utility.yul\":34534:34652   */\n      pop\n        /* \"#utility.yul\":34483:34652   */\n      swap3\n      swap2\n      pop\n      pop\n      jump\t// out\n        /* \"#utility.yul\":34657:34952   */\n    tag_427:\n        /* \"#utility.yul\":34733:34737   */\n      0x00\n        /* \"#utility.yul\":34879:34908   */\n      tag_792\n        /* \"#utility.yul\":34904:34907   */\n      dup4\n        /* \"#utility.yul\":34898:34902   */\n      dup4\n        /* \"#utility.yul\":34879:34908   */\n      tag_426\n      jump\t// in\n    tag_792:\n        /* \"#utility.yul\":34871:34908   */\n      swap2\n      pop\n        /* \"#utility.yul\":34941:34944   */\n      dup3\n        /* \"#utility.yul\":34938:34939   */\n      0x02\n        /* \"#utility.yul\":34934:34945   */\n      mul\n        /* \"#utility.yul\":34928:34932   */\n      dup3\n        /* \"#utility.yul\":34925:34946   */\n      or\n        /* \"#utility.yul\":34917:34946   */\n      swap1\n      pop\n        /* \"#utility.yul\":34657:34952   */\n      swap3\n      swap2\n      pop\n      pop\n      jump\t// out\n        /* \"#utility.yul\":34957:36352   */\n    tag_254:\n        /* \"#utility.yul\":35074:35111   */\n      tag_794\n        /* \"#utility.yul\":35107:35110   */\n      dup3\n        /* \"#utility.yul\":35074:35111   */\n      tag_367\n      jump\t// in\n    tag_794:\n        /* \"#utility.yul\":35176:35194   */\n      0xffffffffffffffff\n        /* \"#utility.yul\":35168:35174   */\n      dup2\n        /* \"#utility.yul\":35165:35195   */\n      gt\n        /* \"#utility.yul\":35162:35218   */\n      iszero\n      tag_795\n      jumpi\n        /* \"#utility.yul\":35198:35216   */\n      tag_796\n      tag_74\n      jump\t// in\n    tag_796:\n        /* \"#utility.yul\":35162:35218   */\n    tag_795:\n        /* \"#utility.yul\":35242:35280   */\n      tag_797\n        /* \"#utility.yul\":35274:35278   */\n      dup3\n        /* \"#utility.yul\":35268:35279   */\n      sload\n        /* \"#utility.yul\":35242:35280   */\n      tag_152\n      jump\t// in\n    tag_797:\n        /* \"#utility.yul\":35327:35394   */\n      tag_798\n        /* \"#utility.yul\":35387:35393   */\n      dup3\n        /* \"#utility.yul\":35379:35385   */\n      dup3\n        /* \"#utility.yul\":35373:35377   */\n      dup6\n        /* \"#utility.yul\":35327:35394   */\n      tag_424\n      jump\t// in\n    tag_798:\n        /* \"#utility.yul\":35421:35422   */\n      0x00\n        /* \"#utility.yul\":35445:35449   */\n      0x20\n        /* \"#utility.yul\":35432:35449   */\n      swap1\n      pop\n        /* \"#utility.yul\":35477:35479   */\n      0x1f\n        /* \"#utility.yul\":35469:35475   */\n      dup4\n        /* \"#utility.yul\":35466:35480   */\n      gt\n        /* \"#utility.yul\":35494:35495   */\n      0x01\n        /* \"#utility.yul\":35489:36107   */\n      dup2\n      eq\n      tag_800\n      jumpi\n        /* \"#utility.yul\":36151:36152   */\n      0x00\n        /* \"#utility.yul\":36168:36174   */\n      dup5\n        /* \"#utility.yul\":36165:36242   */\n      iszero\n      tag_801\n      jumpi\n        /* \"#utility.yul\":36217:36226   */\n      dup3\n        /* \"#utility.yul\":36212:36215   */\n      dup8\n        /* \"#utility.yul\":36208:36227   */\n      add\n        /* \"#utility.yul\":36202:36228   */\n      mload\n        /* \"#utility.yul\":36193:36228   */\n      swap1\n      pop\n        /* \"#utility.yul\":36165:36242   */\n    tag_801:\n        /* \"#utility.yul\":36268:36335   */\n      tag_802\n        /* \"#utility.yul\":36328:36334   */\n      dup6\n        /* \"#utility.yul\":36321:36326   */\n      dup3\n        /* \"#utility.yul\":36268:36335   */\n      tag_427\n      jump\t// in\n    tag_802:\n        /* \"#utility.yul\":36262:36266   */\n      dup7\n        /* \"#utility.yul\":36255:36336   */\n      sstore\n        /* \"#utility.yul\":36124:36346   */\n      pop\n        /* \"#utility.yul\":35459:36346   */\n      jump(tag_799)\n        /* \"#utility.yul\":35489:36107   */\n    tag_800:\n        /* \"#utility.yul\":35541:35545   */\n      0x1f\n        /* \"#utility.yul\":35537:35546   */\n      not\n        /* \"#utility.yul\":35529:35535   */\n      dup5\n        /* \"#utility.yul\":35525:35547   */\n      and\n        /* \"#utility.yul\":35575:35612   */\n      tag_803\n        /* \"#utility.yul\":35607:35611   */\n      dup7\n        /* \"#utility.yul\":35575:35612   */\n      tag_413\n      jump\t// in\n    tag_803:\n        /* \"#utility.yul\":35634:35635   */\n      0x00\n        /* \"#utility.yul\":35648:35856   */\n    tag_804:\n        /* \"#utility.yul\":35662:35669   */\n      dup3\n        /* \"#utility.yul\":35659:35660   */\n      dup2\n        /* \"#utility.yul\":35656:35670   */\n      lt\n        /* \"#utility.yul\":35648:35856   */\n      iszero\n      tag_806\n      jumpi\n        /* \"#utility.yul\":35741:35750   */\n      dup5\n        /* \"#utility.yul\":35736:35739   */\n      dup10\n        /* \"#utility.yul\":35732:35751   */\n      add\n        /* \"#utility.yul\":35726:35752   */\n      mload\n        /* \"#utility.yul\":35718:35724   */\n      dup3\n        /* \"#utility.yul\":35711:35753   */\n      sstore\n        /* \"#utility.yul\":35792:35793   */\n      0x01\n        /* \"#utility.yul\":35784:35790   */\n      dup3\n        /* \"#utility.yul\":35780:35794   */\n      add\n        /* \"#utility.yul\":35770:35794   */\n      swap2\n      pop\n        /* \"#utility.yul\":35839:35841   */\n      0x20\n        /* \"#utility.yul\":35828:35837   */\n      dup6\n        /* \"#utility.yul\":35824:35842   */\n      add\n        /* \"#utility.yul\":35811:35842   */\n      swap5\n      pop\n        /* \"#utility.yul\":35685:35689   */\n      0x20\n        /* \"#utility.yul\":35682:35683   */\n      dup2\n        /* \"#utility.yul\":35678:35690   */\n      add\n        /* \"#utility.yul\":35673:35690   */\n      swap1\n      pop\n        /* \"#utility.yul\":35648:35856   */\n      jump(tag_804)\n    tag_806:\n        /* \"#utility.yul\":35884:35890   */\n      dup7\n        /* \"#utility.yul\":35875:35882   */\n      dup4\n        /* \"#utility.yul\":35872:35891   */\n      lt\n        /* \"#utility.yul\":35869:36048   */\n      iszero\n      tag_807\n      jumpi\n        /* \"#utility.yul\":35942:35951   */\n      dup5\n        /* \"#utility.yul\":35937:35940   */\n      dup10\n        /* \"#utility.yul\":35933:35952   */\n      add\n        /* \"#utility.yul\":35927:35953   */\n      mload\n        /* \"#utility.yul\":35985:36033   */\n      tag_808\n        /* \"#utility.yul\":36027:36031   */\n      0x1f\n        /* \"#utility.yul\":36019:36025   */\n      dup10\n        /* \"#utility.yul\":36015:36032   */\n      and\n        /* \"#utility.yul\":36004:36013   */\n      dup3\n        /* \"#utility.yul\":35985:36033   */\n      tag_426\n      jump\t// in\n    tag_808:\n        /* \"#utility.yul\":35977:35983   */\n      dup4\n        /* \"#utility.yul\":35970:36034   */\n      sstore\n        /* \"#utility.yul\":35892:36048   */\n      pop\n        /* \"#utility.yul\":35869:36048   */\n    tag_807:\n        /* \"#utility.yul\":36094:36095   */\n      0x01\n        /* \"#utility.yul\":36090:36091   */\n      0x02\n        /* \"#utility.yul\":36082:36088   */\n      dup9\n        /* \"#utility.yul\":36078:36092   */\n      mul\n        /* \"#utility.yul\":36074:36096   */\n      add\n        /* \"#utility.yul\":36068:36072   */\n      dup9\n        /* \"#utility.yul\":36061:36097   */\n      sstore\n        /* \"#utility.yul\":35496:36107   */\n      pop\n      pop\n      pop\n        /* \"#utility.yul\":35459:36346   */\n    tag_799:\n      pop\n        /* \"#utility.yul\":35049:36352   */\n      pop\n      pop\n      pop\n        /* \"#utility.yul\":34957:36352   */\n      pop\n      pop\n      jump\t// out\n        /* \"#utility.yul\":36358:36868   */\n    tag_263:\n        /* \"#utility.yul\":36517:36521   */\n      0x00\n        /* \"#utility.yul\":36555:36557   */\n      0x40\n        /* \"#utility.yul\":36544:36553   */\n      dup3\n        /* \"#utility.yul\":36540:36558   */\n      add\n        /* \"#utility.yul\":36532:36558   */\n      swap1\n      pop\n        /* \"#utility.yul\":36604:36613   */\n      dup2\n        /* \"#utility.yul\":36598:36602   */\n      dup2\n        /* \"#utility.yul\":36594:36614   */\n      sub\n        /* \"#utility.yul\":36590:36591   */\n      0x00\n        /* \"#utility.yul\":36579:36588   */\n      dup4\n        /* \"#utility.yul\":36575:36592   */\n      add\n        /* \"#utility.yul\":36568:36615   */\n      mstore\n        /* \"#utility.yul\":36632:36710   */\n      tag_810\n        /* \"#utility.yul\":36705:36709   */\n      dup2\n        /* \"#utility.yul\":36696:36702   */\n      dup6\n        /* \"#utility.yul\":36632:36710   */\n      tag_370\n      jump\t// in\n    tag_810:\n        /* \"#utility.yul\":36624:36710   */\n      swap1\n      pop\n        /* \"#utility.yul\":36757:36766   */\n      dup2\n        /* \"#utility.yul\":36751:36755   */\n      dup2\n        /* \"#utility.yul\":36747:36767   */\n      sub\n        /* \"#utility.yul\":36742:36744   */\n      0x20\n        /* \"#utility.yul\":36731:36740   */\n      dup4\n        /* \"#utility.yul\":36727:36745   */\n      add\n        /* \"#utility.yul\":36720:36768   */\n      mstore\n        /* \"#utility.yul\":36785:36861   */\n      tag_811\n        /* \"#utility.yul\":36856:36860   */\n      dup2\n        /* \"#utility.yul\":36847:36853   */\n      dup5\n        /* \"#utility.yul\":36785:36861   */\n      tag_393\n      jump\t// in\n    tag_811:\n        /* \"#utility.yul\":36777:36861   */\n      swap1\n      pop\n        /* \"#utility.yul\":36358:36868   */\n      swap4\n      swap3\n      pop\n      pop\n      pop\n      jump\t// out\n        /* \"#utility.yul\":36874:37050   */\n    tag_290:\n        /* \"#utility.yul\":36906:36907   */\n      0x00\n        /* \"#utility.yul\":36923:36943   */\n      tag_813\n        /* \"#utility.yul\":36941:36942   */\n      dup3\n        /* \"#utility.yul\":36923:36943   */\n      tag_347\n      jump\t// in\n    tag_813:\n        /* \"#utility.yul\":36918:36943   */\n      swap2\n      pop\n        /* \"#utility.yul\":36957:36977   */\n      tag_814\n        /* \"#utility.yul\":36975:36976   */\n      dup4\n        /* \"#utility.yul\":36957:36977   */\n      tag_347\n      jump\t// in\n    tag_814:\n        /* \"#utility.yul\":36952:36977   */\n      swap3\n      pop\n        /* \"#utility.yul\":36996:36997   */\n      dup3\n        /* \"#utility.yul\":36986:37021   */\n      tag_815\n      jumpi\n        /* \"#utility.yul\":37001:37019   */\n      tag_816\n      tag_401\n      jump\t// in\n    tag_816:\n        /* \"#utility.yul\":36986:37021   */\n    tag_815:\n        /* \"#utility.yul\":37042:37043   */\n      dup3\n        /* \"#utility.yul\":37039:37040   */\n      dup3\n        /* \"#utility.yul\":37035:37044   */\n      mod\n        /* \"#utility.yul\":37030:37044   */\n      swap1\n      pop\n        /* \"#utility.yul\":36874:37050   */\n      swap3\n      swap2\n      pop\n      pop\n      jump\t// out\n        /* \"#utility.yul\":37056:37227   */\n    tag_330:\n        /* \"#utility.yul\":37095:37098   */\n      0x00\n        /* \"#utility.yul\":37118:37142   */\n      tag_818\n        /* \"#utility.yul\":37136:37141   */\n      dup3\n        /* \"#utility.yul\":37118:37142   */\n      tag_347\n      jump\t// in\n    tag_818:\n        /* \"#utility.yul\":37109:37142   */\n      swap2\n      pop\n        /* \"#utility.yul\":37164:37168   */\n      0x00\n        /* \"#utility.yul\":37157:37162   */\n      dup3\n        /* \"#utility.yul\":37154:37169   */\n      sub\n        /* \"#utility.yul\":37151:37192   */\n      tag_819\n      jumpi\n        /* \"#utility.yul\":37172:37190   */\n      tag_820\n      tag_400\n      jump\t// in\n    tag_820:\n        /* \"#utility.yul\":37151:37192   */\n    tag_819:\n        /* \"#utility.yul\":37219:37220   */\n      0x01\n        /* \"#utility.yul\":37212:37217   */\n      dup3\n        /* \"#utility.yul\":37208:37221   */\n      sub\n        /* \"#utility.yul\":37201:37221   */\n      swap1\n      pop\n        /* \"#utility.yul\":37056:37227   */\n      swap2\n      swap1\n      pop\n      jump\t// out\n        /* \"#utility.yul\":37233:37415   */\n    tag_428:\n        /* \"#utility.yul\":37373:37407   */\n      0x537472696e67733a20686578206c656e67746820696e73756666696369656e74\n        /* \"#utility.yul\":37369:37370   */\n      0x00\n        /* \"#utility.yul\":37361:37367   */\n      dup3\n        /* \"#utility.yul\":37357:37371   */\n      add\n        /* \"#utility.yul\":37350:37408   */\n      mstore\n        /* \"#utility.yul\":37233:37415   */\n      pop\n      jump\t// out\n        /* \"#utility.yul\":37421:37787   */\n    tag_429:\n        /* \"#utility.yul\":37563:37566   */\n      0x00\n        /* \"#utility.yul\":37584:37651   */\n      tag_823\n        /* \"#utility.yul\":37648:37650   */\n      0x20\n        /* \"#utility.yul\":37643:37646   */\n      dup4\n        /* \"#utility.yul\":37584:37651   */\n      tag_368\n      jump\t// in\n    tag_823:\n        /* \"#utility.yul\":37577:37651   */\n      swap2\n      pop\n        /* \"#utility.yul\":37660:37753   */\n      tag_824\n        /* \"#utility.yul\":37749:37752   */\n      dup3\n        /* \"#utility.yul\":37660:37753   */\n      tag_428\n      jump\t// in\n    tag_824:\n        /* \"#utility.yul\":37778:37780   */\n      0x20\n        /* \"#utility.yul\":37773:37776   */\n      dup3\n        /* \"#utility.yul\":37769:37781   */\n      add\n        /* \"#utility.yul\":37762:37781   */\n      swap1\n      pop\n        /* \"#utility.yul\":37421:37787   */\n      swap2\n      swap1\n      pop\n      jump\t// out\n        /* \"#utility.yul\":37793:38212   */\n    tag_333:\n        /* \"#utility.yul\":37959:37963   */\n      0x00\n        /* \"#utility.yul\":37997:37999   */\n      0x20\n        /* \"#utility.yul\":37986:37995   */\n      dup3\n        /* \"#utility.yul\":37982:38000   */\n      add\n        /* \"#utility.yul\":37974:38000   */\n      swap1\n      pop\n        /* \"#utility.yul\":38046:38055   */\n      dup2\n        /* \"#utility.yul\":38040:38044   */\n      dup2\n        /* \"#utility.yul\":38036:38056   */\n      sub\n        /* \"#utility.yul\":38032:38033   */\n      0x00\n        /* \"#utility.yul\":38021:38030   */\n      dup4\n        /* \"#utility.yul\":38017:38034   */\n      add\n        /* \"#utility.yul\":38010:38057   */\n      mstore\n        /* \"#utility.yul\":38074:38205   */\n      tag_826\n        /* \"#utility.yul\":38200:38204   */\n      dup2\n        /* \"#utility.yul\":38074:38205   */\n      tag_429\n      jump\t// in\n    tag_826:\n        /* \"#utility.yul\":38066:38205   */\n      swap1\n      pop\n        /* \"#utility.yul\":37793:38212   */\n      swap2\n      swap1\n      pop\n      jump\t// out\n    stop\n    data_84d8a590de33e00cbdc16e1f28c3506f5ec15c599fab9a6a4bcd575cc2f110ce 4142434445464748494a4b4c4d4e4f505152535455565758595a6162636465666768696a6b6c6d6e6f707172737475767778797a303132333435363738392b2f\n\n    auxdata: 0xa264697066735822122083237f0ceb28adacefa8e1bc2c6e56d3af452e7d351a59fe07afc09d44d005d464736f6c63430008160033\n}\n",
				"bytecode": {
					"linkReferences": {},
					"object": "608060405234801562000010575f80fd5b505f600367ffffffffffffffff81111562000030576200002f620009e5565b5b6040519080825280602002602001820160405280156200005f5781602001602082028036833780820191505090505b5090506040815f815181106200007a576200007962000a12565b5b602002602001019060c681111562000097576200009662000a3f565b5b908160c6811115620000ae57620000ad62000a3f565b5b81525050606381600181518110620000cb57620000ca62000a12565b5b602002602001019060c6811115620000e857620000e762000a3f565b5b908160c6811115620000ff57620000fe62000a3f565b5b815250506063816002815181106200011c576200011b62000a12565b5b602002602001019060c681111562000139576200013862000a3f565b5b908160c681111562000150576200014f62000a3f565b5b815250505f600167ffffffffffffffff811115620001735762000172620009e5565b5b604051908082528060200260200182016040528015620001a25781602001602082028036833780820191505090505b5090506040815f81518110620001bd57620001bc62000a12565b5b602002602001019060c6811115620001da57620001d962000a3f565b5b908160c6811115620001f157620001f062000a3f565b5b815250505f600467ffffffffffffffff811115620002145762000213620009e5565b5b604051908082528060200260200182016040528015620002435781602001602082028036833780820191505090505b5090506040815f815181106200025e576200025d62000a12565b5b602002602001019060c68111156200027b576200027a62000a3f565b5b908160c681111562000292576200029162000a3f565b5b81525050604081600181518110620002af57620002ae62000a12565b5b602002602001019060c6811115620002cc57620002cb62000a3f565b5b908160c6811115620002e357620002e262000a3f565b5b815250506063816002815181106200030057620002ff62000a12565b5b602002602001019060c68111156200031d576200031c62000a3f565b5b908160c681111562000334576200033362000a3f565b5b8152505060418160038151811062000351576200035062000a12565b5b602002602001019060c68111156200036e576200036d62000a3f565b5b908160c681111562000385576200038462000a3f565b5b815250505f600367ffffffffffffffff811115620003a857620003a7620009e5565b5b604051908082528060200260200182016040528015620003d75781602001602082028036833780820191505090505b5090506040815f81518110620003f257620003f162000a12565b5b602002602001019060c68111156200040f576200040e62000a3f565b5b908160c681111562000426576200042562000a3f565b5b8152505060408160018151811062000443576200044262000a12565b5b602002602001019060c681111562000460576200045f62000a3f565b5b908160c681111562000477576200047662000a3f565b5b8152505060408160028151811062000494576200049362000a12565b5b602002602001019060c6811115620004b157620004b062000a3f565b5b908160c6811115620004c857620004c762000a3f565b5b815250505f600167ffffffffffffffff811115620004eb57620004ea620009e5565b5b6040519080825280602002602001820160405280156200051a5781602001602082028036833780820191505090505b50905060c6815f8151811062000535576200053462000a12565b5b602002602001019060c681111562000552576200055162000a3f565b5b908160c681111562000569576200056862000a3f565b5b815250505f600367ffffffffffffffff8111156200058c576200058b620009e5565b5b604051908082528060200260200182016040528015620005bb5781602001602082028036833780820191505090505b5090506041815f81518110620005d657620005d562000a12565b5b602002602001019060c6811115620005f357620005f262000a3f565b5b908160c68111156200060a576200060962000a3f565b5b8152505060408160018151811062000627576200062662000a12565b5b602002602001019060c681111562000644576200064362000a3f565b5b908160c68111156200065b576200065a62000a3f565b5b8152505060408160028151811062000678576200067762000a12565b5b602002602001019060c681111562000695576200069462000a3f565b5b908160c6811115620006ac57620006ab62000a3f565b5b81525050620007466040518060400160405280600b81526020017f706f7374436f6d6d656e740000000000000000000000000000000000000000008152506001885f67ffffffffffffffff8111156200070a5762000709620009e5565b5b604051908082528060200260200182016040528015620007395781602001602082028036833780820191505090505b506200082d60201b60201c565b6200078f6040518060400160405280600a81526020017f676574436f6d6d656e74000000000000000000000000000000000000000000008152505f87876200082d60201b60201c565b620007d86040518060400160405280600b81526020017f676574436f6d6d656e74730000000000000000000000000000000000000000008152505f85856200082d60201b60201c565b620008216040518060400160405280601481526020017f676574436f6d6d656e74734279416464726573730000000000000000000000008152505f83856200082d60201b60201c565b50505050505062000e09565b5f8084600381111562000845576200084462000a3f565b5b60038111156200085a576200085962000a3f565b5b81526020019081526020015f2084908060018154018082558091505060019003905f5260205f20015f90919091909150908162000898919062000ca3565b5081600185604051620008ac919062000df1565b90815260200160405180910390209080519060200190620008cf9291906200090d565b5080600285604051620008e3919062000df1565b90815260200160405180910390209080519060200190620009069291906200090d565b5050505050565b828054828255905f5260205f2090601f01602090048101928215620009b5579160200282015f5b838211156200098557835183826101000a81548160ff021916908360c681111562000964576200096362000a3f565b5b021790555092602001926001016020815f0104928301926001030262000934565b8015620009b35782816101000a81549060ff02191690556001016020815f0104928301926001030262000985565b505b509050620009c49190620009c8565b5090565b5b80821115620009e1575f815f905550600101620009c9565b5090565b7f4e487b71000000000000000000000000000000000000000000000000000000005f52604160045260245ffd5b7f4e487b71000000000000000000000000000000000000000000000000000000005f52603260045260245ffd5b7f4e487b71000000000000000000000000000000000000000000000000000000005f52602160045260245ffd5b5f81519050919050565b7f4e487b71000000000000000000000000000000000000000000000000000000005f52602260045260245ffd5b5f600282049050600182168062000abb57607f821691505b60208210810362000ad15762000ad062000a76565b5b50919050565b5f819050815f5260205f209050919050565b5f6020601f8301049050919050565b5f82821b905092915050565b5f6008830262000b357fffffffffffffffffffffffffffffffffffffffffffffffffffffffffffffffff8262000af8565b62000b41868362000af8565b95508019841693508086168417925050509392505050565b5f819050919050565b5f819050919050565b5f62000b8b62000b8562000b7f8462000b59565b62000b62565b62000b59565b9050919050565b5f819050919050565b62000ba68362000b6b565b62000bbe62000bb58262000b92565b84845462000b04565b825550505050565b5f90565b62000bd462000bc6565b62000be181848462000b9b565b505050565b5b8181101562000c085762000bfc5f8262000bca565b60018101905062000be7565b5050565b601f82111562000c575762000c218162000ad7565b62000c2c8462000ae9565b8101602085101562000c3c578190505b62000c5462000c4b8562000ae9565b83018262000be6565b50505b505050565b5f82821c905092915050565b5f62000c795f198460080262000c5c565b1980831691505092915050565b5f62000c93838362000c68565b9150826002028217905092915050565b62000cae8262000a6c565b67ffffffffffffffff81111562000cca5762000cc9620009e5565b5b62000cd6825462000aa3565b62000ce382828562000c0c565b5f60209050601f83116001811462000d19575f841562000d04578287015190505b62000d10858262000c86565b86555062000d7f565b601f19841662000d298662000ad7565b5f5b8281101562000d525784890151825560018201915060208501945060208101905062000d2b565b8683101562000d72578489015162000d6e601f89168262000c68565b8355505b6001600288020188555050505b505050505050565b5f81905092915050565b5f5b8381101562000db057808201518184015260208101905062000d93565b5f8484015250505050565b5f62000dc78262000a6c565b62000dd3818562000d87565b935062000de581856020860162000d91565b80840191505092915050565b5f62000dfe828462000dbb565b915081905092915050565b612cc58062000e175f395ff3fe608060405260043610610090575f3560e01c80636818ba1d116100585780636818ba1d1461019d578063aff62745146101d9578063b6ae042514610215578063e953647214610245578063f4856ccb1461027557610090565b80631069143a146100945780633e413065146100be5780633eae02b3146100e85780634423745414610124578063458ad6d414610160575b5f80fd5b34801561009f575f80fd5b506100a86102b1565b6040516100b59190611a6f565b60405180910390f35b3480156100c9575f80fd5b506100d2610425565b6040516100df9190611aa7565b60405180910390f35b3480156100f3575f80fd5b5061010e60048036038101906101099190611c91565b61042b565b60405161011b9190611dba565b60405180910390f35b34801561012f575f80fd5b5061014a60048036038101906101459190611dda565b6104aa565b6040516101579190611f2d565b60405180910390f35b34801561016b575f80fd5b5061018660048036038101906101819190611f4d565b610863565b604051610194929190612072565b60405180910390f35b3480156101a8575f80fd5b506101c360048036038101906101be91906120a7565b6109b1565b6040516101d09190611f2d565b60405180910390f35b3480156101e4575f80fd5b506101ff60048036038101906101fa9190612195565b610cba565b60405161020c919061225d565b60405180910390f35b61022f600480360381019061022a9190612195565b610fc7565b60405161023c919061225d565b60405180910390f35b61025f600480360381019061025a9190612195565b6112aa565b60405161026c919061225d565b60405180910390f35b348015610280575f80fd5b5061029b600480360381019061029691906122a0565b6112d6565b6040516102a89190611f2d565b60405180910390f35b60605f600467ffffffffffffffff8111156102cf576102ce611b13565b5b6040519080825280602002602001820160405280156102fd5781602001602082028036833780820191505090505b5090505f815f81518110610314576103136122cb565b5b6020026020010190600381111561032e5761032d61197d565b5b908160038111156103425761034161197d565b5b8152505060018160018151811061035c5761035b6122cb565b5b602002602001019060038111156103765761037561197d565b5b9081600381111561038a5761038961197d565b5b815250506002816002815181106103a4576103a36122cb565b5b602002602001019060038111156103be576103bd61197d565b5b908160038111156103d2576103d161197d565b5b815250506003816003815181106103ec576103eb6122cb565b5b602002602001019060038111156104065761040561197d565b5b9081600381111561041a5761041961197d565b5b815250508091505090565b60035481565b6060610436866113de565b61043f866113de565b61044886611537565b61045186611537565b6104728673ffffffffffffffffffffffffffffffffffffffff1660146116c7565b61047b426113de565b6040516020016104909695949392919061237c565b604051602081830303815290604052905095945050505050565b60605f60055f8673ffffffffffffffffffffffffffffffffffffffff1673ffffffffffffffffffffffffffffffffffffffff1681526020019081526020015f20540361054a575f8067ffffffffffffffff81111561050b5761050a611b13565b5b60405190808252806020026020018201604052801561053e57816020015b60608152602001906001900390816105295790505b5090508091505061085c565b6001831180156105b957506001836105629190612437565b82600160055f8873ffffffffffffffffffffffffffffffffffffffff1673ffffffffffffffffffffffffffffffffffffffff1681526020019081526020015f20546105ad9190612437565b6105b79190612497565b105b15610618575f8067ffffffffffffffff8111156105d9576105d8611b13565b5b60405190808252806020026020018201604052801561060c57816020015b60608152602001906001900390816105f75790505b5090508091505061085c565b5f805f90505f8460018761062c9190612437565b61063691906124c7565b600160055f8a73ffffffffffffffffffffffffffffffffffffffff1673ffffffffffffffffffffffffffffffffffffffff1681526020019081526020015f20546106809190612437565b61068a9190612437565b90505f858210156106ac575f90506001826106a59190612508565b93506106ca565b600186836106ba9190612437565b6106c49190612508565b90508593505b5f8467ffffffffffffffff8111156106e5576106e4611b13565b5b60405190808252806020026020018201604052801561071857816020015b60608152602001906001900390816107035790505b5090505f8390505b828112610852575f60075f8c73ffffffffffffffffffffffffffffffffffffffff1673ffffffffffffffffffffffffffffffffffffffff1681526020019081526020015f205f8381526020019081526020015f2054905060085f8281526020019081526020015f20600201805461079690612568565b80601f01602080910402602001604051908101604052809291908181526020018280546107c290612568565b801561080d5780601f106107e45761010080835404028352916020019161080d565b820191905f5260205f20905b8154815290600101906020018083116107f057829003601f168201915b5050505050838781518110610825576108246122cb565b5b6020026020010181905250858061083b90612598565b96505050808061084a906125e8565b915050610720565b5080955050505050505b9392505050565b606080600183604051610876919061262f565b9081526020016040518091039020600284604051610894919061262f565b90815260200160405180910390208180548060200260200160405190810160405280929190818152602001828054801561091e57602002820191905f5260205f20905f905b82829054906101000a900460ff1660c68111156108f9576108f861197d565b5b815260200190600101906020825f010492830192600103820291508084116108d95790505b50505050509150808054806020026020016040519081016040528092919081815260200182805480156109a157602002820191905f5260205f20905f905b82829054906101000a900460ff1660c681111561097c5761097b61197d565b5b815260200190600101906020825f0104928301926001038202915080841161095c5790505b5050505050905091509150915091565b60605f60045f8681526020019081526020015f205403610a25575f8067ffffffffffffffff8111156109e6576109e5611b13565b5b604051908082528060200260200182016040528015610a1957816020015b6060815260200190600190039081610a045790505b50905080915050610cb3565b600183118015610a685750600183610a3d9190612437565b82600160045f8881526020019081526020015f2054610a5c9190612437565b610a669190612497565b105b15610ac7575f8067ffffffffffffffff811115610a8857610a87611b13565b5b604051908082528060200260200182016040528015610abb57816020015b6060815260200190600190039081610aa65790505b50905080915050610cb3565b5f805f90505f84600187610adb9190612437565b610ae591906124c7565b600160045f8a81526020019081526020015f2054610b039190612437565b610b0d9190612437565b90505f85821015610b2f575f9050600182610b289190612508565b9350610b4d565b60018683610b3d9190612437565b610b479190612508565b90508593505b5f8467ffffffffffffffff811115610b6857610b67611b13565b5b604051908082528060200260200182016040528015610b9b57816020015b6060815260200190600190039081610b865790505b5090505f8390505b828112610ca9575f60065f8c81526020019081526020015f205f8381526020019081526020015f2054905060085f8281526020019081526020015f206002018054610bed90612568565b80601f0160208091040260200160405190810160405280929190818152602001828054610c1990612568565b8015610c645780601f10610c3b57610100808354040283529160200191610c64565b820191905f5260205f20905b815481529060010190602001808311610c4757829003601f168201915b5050505050838781518110610c7c57610c7b6122cb565b5b60200260200101819052508580610c9290612598565b965050508080610ca1906125e8565b915050610ba3565b5080955050505050505b9392505050565b6060610cfb836040518060400160405280600a81526020017f676574436f6d6d656e74000000000000000000000000000000000000000000008152506118fc565b15610e6c575f82806020019051810190610d159190612659565b90505f60085f8381526020019081526020015f206040518060800160405290815f820154815260200160018201548152602001600282018054610d5790612568565b80601f0160208091040260200160405190810160405280929190818152602001828054610d8390612568565b8015610dce5780601f10610da557610100808354040283529160200191610dce565b820191905f5260205f20905b815481529060010190602001808311610db157829003601f168201915b50505050508152602001600382015f9054906101000a900473ffffffffffffffffffffffffffffffffffffffff1673ffffffffffffffffffffffffffffffffffffffff1673ffffffffffffffffffffffffffffffffffffffff16815250509050805f0151816020015182604001518360600151604051602001610e549493929190612693565b60405160208183030381529060405292505050610fc1565b610eab836040518060400160405280600b81526020017f676574436f6d6d656e74730000000000000000000000000000000000000000008152506118fc565b15610f06575f805f84806020019051810190610ec791906126dd565b9250925092505f610ed98484846109b1565b905080604051602001610eec9190611f2d565b604051602081830303815290604052945050505050610fc1565b610f45836040518060400160405280601481526020017f676574436f6d6d656e74734279416464726573730000000000000000000000008152506118fc565b15610fa0575f805f84806020019051810190610f619190612768565b9250925092505f610f738484846104aa565b905080604051602001610f869190611f2d565b604051602081830303815290604052945050505050610fc1565b604051602001610faf906127db565b60405160208183030381529060405290505b92915050565b6060611008836040518060400160405280600b81526020017f706f7374436f6d6d656e740000000000000000000000000000000000000000008152506118fc565b15611283575f805f848060200190518101906110249190612867565b9250925092505f61103a8460035485853361042b565b90505f60045f8681526020019081526020015f205490505f60055f3373ffffffffffffffffffffffffffffffffffffffff1673ffffffffffffffffffffffffffffffffffffffff1681526020019081526020015f20549050604051806080016040528087815260200160035481526020018481526020013373ffffffffffffffffffffffffffffffffffffffff1681525060085f60035481526020019081526020015f205f820151815f01556020820151816001015560408201518160020190816111059190612a8c565b506060820151816003015f6101000a81548173ffffffffffffffffffffffffffffffffffffffff021916908373ffffffffffffffffffffffffffffffffffffffff16021790555090505060035460065f8881526020019081526020015f205f8481526020019081526020015f208190555060035460075f3373ffffffffffffffffffffffffffffffffffffffff1673ffffffffffffffffffffffffffffffffffffffff1681526020019081526020015f205f8381526020019081526020015f208190555060045f8781526020019081526020015f205f8154809291906111ea90612598565b919050555060055f3373ffffffffffffffffffffffffffffffffffffffff1673ffffffffffffffffffffffffffffffffffffffff1681526020019081526020015f205f81548092919061123c90612598565b919050555060035f81548092919061125390612598565b9190505550604051602001611267906127db565b60405160208183030381529060405296505050505050506112a4565b604051602001611292906127db565b60405160208183030381529060405290505b92915050565b606082826040516020016112bf929190612b5b565b604051602081830303815290604052905092915050565b60605f808360038111156112ed576112ec61197d565b5b60038111156112ff576112fe61197d565b5b81526020019081526020015f20805480602002602001604051908101604052809291908181526020015f905b828210156113d3578382905f5260205f2001805461134890612568565b80601f016020809104026020016040519081016040528092919081815260200182805461137490612568565b80156113bf5780601f10611396576101008083540402835291602001916113bf565b820191905f5260205f20905b8154815290600101906020018083116113a257829003601f168201915b50505050508152602001906001019061132b565b505050509050919050565b60605f8203611424576040518060400160405280600181526020017f30000000000000000000000000000000000000000000000000000000000000008152509050611532565b5f8290505f5b5f821461145357808061143c90612598565b915050600a8261144c9190612497565b915061142a565b5f8167ffffffffffffffff81111561146e5761146d611b13565b5b6040519080825280601f01601f1916602001820160405280156114a05781602001600182028036833780820191505090505b5090505b5f851461152b576001826114b89190612437565b9150600a856114c79190612b90565b60306114d39190612508565b60f81b8183815181106114e9576114e86122cb565b5b60200101907effffffffffffffffffffffffffffffffffffffffffffffffffffffffffffff191690815f1a905350600a856115249190612497565b94506114a4565b8093505050505b919050565b60605f825190505f810361155c5760405180602001604052805f8152509150506116c2565b5f600360028361156c9190612508565b6115769190612497565b600461158291906124c7565b90505f6020826115929190612508565b67ffffffffffffffff8111156115ab576115aa611b13565b5b6040519080825280601f01601f1916602001820160405280156115dd5781602001600182028036833780820191505090505b5090505f604051806060016040528060408152602001612c5060409139905060018101602083015f5b8681101561167f5760038101905062ffffff818a015116603f8160121c168401518060081b905060ff603f83600c1c1686015116810190508060081b905060ff603f8360061c1686015116810190508060081b905060ff603f831686015116810190508060e01b90508084526004840193505050611606565b50600386066001811461169957600281146116a9576116b4565b613d3d60f01b60028303526116b4565b603d60f81b60018303525b508484525050819450505050505b919050565b60605f60028360026116d991906124c7565b6116e39190612508565b67ffffffffffffffff8111156116fc576116fb611b13565b5b6040519080825280601f01601f19166020018201604052801561172e5781602001600182028036833780820191505090505b5090507f3000000000000000000000000000000000000000000000000000000000000000815f81518110611765576117646122cb565b5b60200101907effffffffffffffffffffffffffffffffffffffffffffffffffffffffffffff191690815f1a9053507f7800000000000000000000000000000000000000000000000000000000000000816001815181106117c8576117c76122cb565b5b60200101907effffffffffffffffffffffffffffffffffffffffffffffffffffffffffffff191690815f1a9053505f600184600261180691906124c7565b6118109190612508565b90505b60018111156118af577f3031323334353637383961626364656600000000000000000000000000000000600f861660108110611852576118516122cb565b5b1a60f81b828281518110611869576118686122cb565b5b60200101907effffffffffffffffffffffffffffffffffffffffffffffffffffffffffffff191690815f1a905350600485901c9450806118a890612bc0565b9050611813565b505f84146118f2576040517f08c379a00000000000000000000000000000000000000000000000000000000081526004016118e990612c31565b60405180910390fd5b8091505092915050565b5f8160405160200161190e919061262f565b6040516020818303038152906040528051906020012083604051602001611935919061262f565b6040516020818303038152906040528051906020012014905092915050565b5f81519050919050565b5f82825260208201905092915050565b5f819050602082019050919050565b7f4e487b71000000000000000000000000000000000000000000000000000000005f52602160045260245ffd5b600481106119bb576119ba61197d565b5b50565b5f8190506119cb826119aa565b919050565b5f6119da826119be565b9050919050565b6119ea816119d0565b82525050565b5f6119fb83836119e1565b60208301905092915050565b5f602082019050919050565b5f611a1d82611954565b611a27818561195e565b9350611a328361196e565b805f5b83811015611a62578151611a4988826119f0565b9750611a5483611a07565b925050600181019050611a35565b5085935050505092915050565b5f6020820190508181035f830152611a878184611a13565b905092915050565b5f819050919050565b611aa181611a8f565b82525050565b5f602082019050611aba5f830184611a98565b92915050565b5f604051905090565b5f80fd5b5f80fd5b611ada81611a8f565b8114611ae4575f80fd5b50565b5f81359050611af581611ad1565b92915050565b5f80fd5b5f80fd5b5f601f19601f8301169050919050565b7f4e487b71000000000000000000000000000000000000000000000000000000005f52604160045260245ffd5b611b4982611b03565b810181811067ffffffffffffffff82111715611b6857611b67611b13565b5b80604052505050565b5f611b7a611ac0565b9050611b868282611b40565b919050565b5f67ffffffffffffffff821115611ba557611ba4611b13565b5b611bae82611b03565b9050602081019050919050565b828183375f83830152505050565b5f611bdb611bd684611b8b565b611b71565b905082815260208101848484011115611bf757611bf6611aff565b5b611c02848285611bbb565b509392505050565b5f82601f830112611c1e57611c1d611afb565b5b8135611c2e848260208601611bc9565b91505092915050565b5f73ffffffffffffffffffffffffffffffffffffffff82169050919050565b5f611c6082611c37565b9050919050565b611c7081611c56565b8114611c7a575f80fd5b50565b5f81359050611c8b81611c67565b92915050565b5f805f805f60a08688031215611caa57611ca9611ac9565b5b5f611cb788828901611ae7565b9550506020611cc888828901611ae7565b945050604086013567ffffffffffffffff811115611ce957611ce8611acd565b5b611cf588828901611c0a565b935050606086013567ffffffffffffffff811115611d1657611d15611acd565b5b611d2288828901611c0a565b9250506080611d3388828901611c7d565b9150509295509295909350565b5f81519050919050565b5f82825260208201905092915050565b5f5b83811015611d77578082015181840152602081019050611d5c565b5f8484015250505050565b5f611d8c82611d40565b611d968185611d4a565b9350611da6818560208601611d5a565b611daf81611b03565b840191505092915050565b5f6020820190508181035f830152611dd28184611d82565b905092915050565b5f805f60608486031215611df157611df0611ac9565b5b5f611dfe86828701611c7d565b9350506020611e0f86828701611ae7565b9250506040611e2086828701611ae7565b9150509250925092565b5f81519050919050565b5f82825260208201905092915050565b5f819050602082019050919050565b5f82825260208201905092915050565b5f611e6d82611d40565b611e778185611e53565b9350611e87818560208601611d5a565b611e9081611b03565b840191505092915050565b5f611ea68383611e63565b905092915050565b5f602082019050919050565b5f611ec482611e2a565b611ece8185611e34565b935083602082028501611ee085611e44565b805f5b85811015611f1b5784840389528151611efc8582611e9b565b9450611f0783611eae565b925060208a01995050600181019050611ee3565b50829750879550505050505092915050565b5f6020820190508181035f830152611f458184611eba565b905092915050565b5f60208284031215611f6257611f61611ac9565b5b5f82013567ffffffffffffffff811115611f7f57611f7e611acd565b5b611f8b84828501611c0a565b91505092915050565b5f81519050919050565b5f819050602082019050919050565b60c78110611fbe57611fbd61197d565b5b50565b5f819050611fce82611fad565b919050565b5f611fdd82611fc1565b9050919050565b611fed81611fd3565b82525050565b5f611ffe8383611fe4565b60208301905092915050565b5f602082019050919050565b5f61202082611f94565b61202a818561195e565b935061203583611f9e565b805f5b8381101561206557815161204c8882611ff3565b97506120578361200a565b925050600181019050612038565b5085935050505092915050565b5f6040820190508181035f83015261208a8185612016565b9050818103602083015261209e8184612016565b90509392505050565b5f805f606084860312156120be576120bd611ac9565b5b5f6120cb86828701611ae7565b93505060206120dc86828701611ae7565b92505060406120ed86828701611ae7565b9150509250925092565b5f67ffffffffffffffff82111561211157612110611b13565b5b61211a82611b03565b9050602081019050919050565b5f612139612134846120f7565b611b71565b90508281526020810184848401111561215557612154611aff565b5b612160848285611bbb565b509392505050565b5f82601f83011261217c5761217b611afb565b5b813561218c848260208601612127565b91505092915050565b5f80604083850312156121ab576121aa611ac9565b5b5f83013567ffffffffffffffff8111156121c8576121c7611acd565b5b6121d485828601611c0a565b925050602083013567ffffffffffffffff8111156121f5576121f4611acd565b5b61220185828601612168565b9150509250929050565b5f81519050919050565b5f82825260208201905092915050565b5f61222f8261220b565b6122398185612215565b9350612249818560208601611d5a565b61225281611b03565b840191505092915050565b5f6020820190508181035f8301526122758184612225565b905092915050565b60048110612289575f80fd5b50565b5f8135905061229a8161227d565b92915050565b5f602082840312156122b5576122b4611ac9565b5b5f6122c28482850161228c565b91505092915050565b7f4e487b71000000000000000000000000000000000000000000000000000000005f52603260045260245ffd5b5f81905092915050565b5f61230c82611d40565b61231681856122f8565b9350612326818560208601611d5a565b80840191505092915050565b7f2c000000000000000000000000000000000000000000000000000000000000005f82015250565b5f6123666001836122f8565b915061237182612332565b600182019050919050565b5f6123878289612302565b91506123928261235a565b915061239e8288612302565b91506123a98261235a565b91506123b58287612302565b91506123c08261235a565b91506123cc8286612302565b91506123d78261235a565b91506123e38285612302565b91506123ee8261235a565b91506123fa8284612302565b9150819050979650505050505050565b7f4e487b71000000000000000000000000000000000000000000000000000000005f52601160045260245ffd5b5f61244182611a8f565b915061244c83611a8f565b92508282039050818111156124645761246361240a565b5b92915050565b7f4e487b71000000000000000000000000000000000000000000000000000000005f52601260045260245ffd5b5f6124a182611a8f565b91506124ac83611a8f565b9250826124bc576124bb61246a565b5b828204905092915050565b5f6124d182611a8f565b91506124dc83611a8f565b92508282026124ea81611a8f565b915082820484148315176125015761250061240a565b5b5092915050565b5f61251282611a8f565b915061251d83611a8f565b92508282019050808211156125355761253461240a565b5b92915050565b7f4e487b71000000000000000000000000000000000000000000000000000000005f52602260045260245ffd5b5f600282049050600182168061257f57607f821691505b6020821081036125925761259161253b565b5b50919050565b5f6125a282611a8f565b91507fffffffffffffffffffffffffffffffffffffffffffffffffffffffffffffffff82036125d4576125d361240a565b5b600182019050919050565b5f819050919050565b5f6125f2826125df565b91507f800000000000000000000000000000000000000000000000000000000000000082036126245761262361240a565b5b600182039050919050565b5f61263a8284612302565b915081905092915050565b5f8151905061265381611ad1565b92915050565b5f6020828403121561266e5761266d611ac9565b5b5f61267b84828501612645565b91505092915050565b61268d81611c56565b82525050565b5f6080820190506126a65f830187611a98565b6126b36020830186611a98565b81810360408301526126c58185611d82565b90506126d46060830184612684565b95945050505050565b5f805f606084860312156126f4576126f3611ac9565b5b5f61270186828701612645565b935050602061271286828701612645565b925050604061272386828701612645565b9150509250925092565b5f61273782611c37565b9050919050565b6127478161272d565b8114612751575f80fd5b50565b5f815190506127628161273e565b92915050565b5f805f6060848603121561277f5761277e611ac9565b5b5f61278c86828701612754565b935050602061279d86828701612645565b92505060406127ae86828701612645565b9150509250925092565b50565b5f6127c65f83611d4a565b91506127d1826127b8565b5f82019050919050565b5f6020820190508181035f8301526127f2816127bb565b9050919050565b5f61280b61280684611b8b565b611b71565b90508281526020810184848401111561282757612826611aff565b5b612832848285611d5a565b509392505050565b5f82601f83011261284e5761284d611afb565b5b815161285e8482602086016127f9565b91505092915050565b5f805f6060848603121561287e5761287d611ac9565b5b5f61288b86828701612645565b935050602084015167ffffffffffffffff8111156128ac576128ab611acd565b5b6128b88682870161283a565b925050604084015167ffffffffffffffff8111156128d9576128d8611acd565b5b6128e58682870161283a565b9150509250925092565b5f819050815f5260205f209050919050565b5f6020601f8301049050919050565b5f82821b905092915050565b5f6008830261294b7fffffffffffffffffffffffffffffffffffffffffffffffffffffffffffffffff82612910565b6129558683612910565b95508019841693508086168417925050509392505050565b5f819050919050565b5f61299061298b61298684611a8f565b61296d565b611a8f565b9050919050565b5f819050919050565b6129a983612976565b6129bd6129b582612997565b84845461291c565b825550505050565b5f90565b6129d16129c5565b6129dc8184846129a0565b505050565b5b818110156129ff576129f45f826129c9565b6001810190506129e2565b5050565b601f821115612a4457612a15816128ef565b612a1e84612901565b81016020851015612a2d578190505b612a41612a3985612901565b8301826129e1565b50505b505050565b5f82821c905092915050565b5f612a645f1984600802612a49565b1980831691505092915050565b5f612a7c8383612a55565b9150826002028217905092915050565b612a9582611d40565b67ffffffffffffffff811115612aae57612aad611b13565b5b612ab88254612568565b612ac3828285612a03565b5f60209050601f831160018114612af4575f8415612ae2578287015190505b612aec8582612a71565b865550612b53565b601f198416612b02866128ef565b5f5b82811015612b2957848901518255600182019150602085019450602081019050612b04565b86831015612b465784890151612b42601f891682612a55565b8355505b6001600288020188555050505b505050505050565b5f6040820190508181035f830152612b738185611d82565b90508181036020830152612b878184612225565b90509392505050565b5f612b9a82611a8f565b9150612ba583611a8f565b925082612bb557612bb461246a565b5b828206905092915050565b5f612bca82611a8f565b91505f8203612bdc57612bdb61240a565b5b600182039050919050565b7f537472696e67733a20686578206c656e67746820696e73756666696369656e745f82015250565b5f612c1b602083611d4a565b9150612c2682612be7565b602082019050919050565b5f6020820190508181035f830152612c4881612c0f565b905091905056fe4142434445464748494a4b4c4d4e4f505152535455565758595a6162636465666768696a6b6c6d6e6f707172737475767778797a303132333435363738392b2fa264697066735822122083237f0ceb28adacefa8e1bc2c6e56d3af452e7d351a59fe07afc09d44d005d464736f6c63430008160033",
					"opcodes": "PUSH1 0x80 PUSH1 0x40 MSTORE CALLVALUE DUP1 ISZERO PUSH3 0x10 JUMPI PUSH0 DUP1 REVERT JUMPDEST POP PUSH0 PUSH1 0x3 PUSH8 0xFFFFFFFFFFFFFFFF DUP2 GT ISZERO PUSH3 0x30 JUMPI PUSH3 0x2F PUSH3 0x9E5 JUMP JUMPDEST JUMPDEST PUSH1 0x40 MLOAD SWAP1 DUP1 DUP3 MSTORE DUP1 PUSH1 0x20 MUL PUSH1 0x20 ADD DUP3 ADD PUSH1 0x40 MSTORE DUP1 ISZERO PUSH3 0x5F JUMPI DUP2 PUSH1 0x20 ADD PUSH1 0x20 DUP3 MUL DUP1 CALLDATASIZE DUP4 CALLDATACOPY DUP1 DUP3 ADD SWAP2 POP POP SWAP1 POP JUMPDEST POP SWAP1 POP PUSH1 0x40 DUP2 PUSH0 DUP2 MLOAD DUP2 LT PUSH3 0x7A JUMPI PUSH3 0x79 PUSH3 0xA12 JUMP JUMPDEST JUMPDEST PUSH1 0x20 MUL PUSH1 0x20 ADD ADD SWAP1 PUSH1 0xC6 DUP2 GT ISZERO PUSH3 0x97 JUMPI PUSH3 0x96 PUSH3 0xA3F JUMP JUMPDEST JUMPDEST SWAP1 DUP2 PUSH1 0xC6 DUP2 GT ISZERO PUSH3 0xAE JUMPI PUSH3 0xAD PUSH3 0xA3F JUMP JUMPDEST JUMPDEST DUP2 MSTORE POP POP PUSH1 0x63 DUP2 PUSH1 0x1 DUP2 MLOAD DUP2 LT PUSH3 0xCB JUMPI PUSH3 0xCA PUSH3 0xA12 JUMP JUMPDEST JUMPDEST PUSH1 0x20 MUL PUSH1 0x20 ADD ADD SWAP1 PUSH1 0xC6 DUP2 GT ISZERO PUSH3 0xE8 JUMPI PUSH3 0xE7 PUSH3 0xA3F JUMP JUMPDEST JUMPDEST SWAP1 DUP2 PUSH1 0xC6 DUP2 GT ISZERO PUSH3 0xFF JUMPI PUSH3 0xFE PUSH3 0xA3F JUMP JUMPDEST JUMPDEST DUP2 MSTORE POP POP PUSH1 0x63 DUP2 PUSH1 0x2 DUP2 MLOAD DUP2 LT PUSH3 0x11C JUMPI PUSH3 0x11B PUSH3 0xA12 JUMP JUMPDEST JUMPDEST PUSH1 0x20 MUL PUSH1 0x20 ADD ADD SWAP1 PUSH1 0xC6 DUP2 GT ISZERO PUSH3 0x139 JUMPI PUSH3 0x138 PUSH3 0xA3F JUMP JUMPDEST JUMPDEST SWAP1 DUP2 PUSH1 0xC6 DUP2 GT ISZERO PUSH3 0x150 JUMPI PUSH3 0x14F PUSH3 0xA3F JUMP JUMPDEST JUMPDEST DUP2 MSTORE POP POP PUSH0 PUSH1 0x1 PUSH8 0xFFFFFFFFFFFFFFFF DUP2 GT ISZERO PUSH3 0x173 JUMPI PUSH3 0x172 PUSH3 0x9E5 JUMP JUMPDEST JUMPDEST PUSH1 0x40 MLOAD SWAP1 DUP1 DUP3 MSTORE DUP1 PUSH1 0x20 MUL PUSH1 0x20 ADD DUP3 ADD PUSH1 0x40 MSTORE DUP1 ISZERO PUSH3 0x1A2 JUMPI DUP2 PUSH1 0x20 ADD PUSH1 0x20 DUP3 MUL DUP1 CALLDATASIZE DUP4 CALLDATACOPY DUP1 DUP3 ADD SWAP2 POP POP SWAP1 POP JUMPDEST POP SWAP1 POP PUSH1 0x40 DUP2 PUSH0 DUP2 MLOAD DUP2 LT PUSH3 0x1BD JUMPI PUSH3 0x1BC PUSH3 0xA12 JUMP JUMPDEST JUMPDEST PUSH1 0x20 MUL PUSH1 0x20 ADD ADD SWAP1 PUSH1 0xC6 DUP2 GT ISZERO PUSH3 0x1DA JUMPI PUSH3 0x1D9 PUSH3 0xA3F JUMP JUMPDEST JUMPDEST SWAP1 DUP2 PUSH1 0xC6 DUP2 GT ISZERO PUSH3 0x1F1 JUMPI PUSH3 0x1F0 PUSH3 0xA3F JUMP JUMPDEST JUMPDEST DUP2 MSTORE POP POP PUSH0 PUSH1 0x4 PUSH8 0xFFFFFFFFFFFFFFFF DUP2 GT ISZERO PUSH3 0x214 JUMPI PUSH3 0x213 PUSH3 0x9E5 JUMP JUMPDEST JUMPDEST PUSH1 0x40 MLOAD SWAP1 DUP1 DUP3 MSTORE DUP1 PUSH1 0x20 MUL PUSH1 0x20 ADD DUP3 ADD PUSH1 0x40 MSTORE DUP1 ISZERO PUSH3 0x243 JUMPI DUP2 PUSH1 0x20 ADD PUSH1 0x20 DUP3 MUL DUP1 CALLDATASIZE DUP4 CALLDATACOPY DUP1 DUP3 ADD SWAP2 POP POP SWAP1 POP JUMPDEST POP SWAP1 POP PUSH1 0x40 DUP2 PUSH0 DUP2 MLOAD DUP2 LT PUSH3 0x25E JUMPI PUSH3 0x25D PUSH3 0xA12 JUMP JUMPDEST JUMPDEST PUSH1 0x20 MUL PUSH1 0x20 ADD ADD SWAP1 PUSH1 0xC6 DUP2 GT ISZERO PUSH3 0x27B JUMPI PUSH3 0x27A PUSH3 0xA3F JUMP JUMPDEST JUMPDEST SWAP1 DUP2 PUSH1 0xC6 DUP2 GT ISZERO PUSH3 0x292 JUMPI PUSH3 0x291 PUSH3 0xA3F JUMP JUMPDEST JUMPDEST DUP2 MSTORE POP POP PUSH1 0x40 DUP2 PUSH1 0x1 DUP2 MLOAD DUP2 LT PUSH3 0x2AF JUMPI PUSH3 0x2AE PUSH3 0xA12 JUMP JUMPDEST JUMPDEST PUSH1 0x20 MUL PUSH1 0x20 ADD ADD SWAP1 PUSH1 0xC6 DUP2 GT ISZERO PUSH3 0x2CC JUMPI PUSH3 0x2CB PUSH3 0xA3F JUMP JUMPDEST JUMPDEST SWAP1 DUP2 PUSH1 0xC6 DUP2 GT ISZERO PUSH3 0x2E3 JUMPI PUSH3 0x2E2 PUSH3 0xA3F JUMP JUMPDEST JUMPDEST DUP2 MSTORE POP POP PUSH1 0x63 DUP2 PUSH1 0x2 DUP2 MLOAD DUP2 LT PUSH3 0x300 JUMPI PUSH3 0x2FF PUSH3 0xA12 JUMP JUMPDEST JUMPDEST PUSH1 0x20 MUL PUSH1 0x20 ADD ADD SWAP1 PUSH1 0xC6 DUP2 GT ISZERO PUSH3 0x31D JUMPI PUSH3 0x31C PUSH3 0xA3F JUMP JUMPDEST JUMPDEST SWAP1 DUP2 PUSH1 0xC6 DUP2 GT ISZERO PUSH3 0x334 JUMPI PUSH3 0x333 PUSH3 0xA3F JUMP JUMPDEST JUMPDEST DUP2 MSTORE POP POP PUSH1 0x41 DUP2 PUSH1 0x3 DUP2 MLOAD DUP2 LT PUSH3 0x351 JUMPI PUSH3 0x350 PUSH3 0xA12 JUMP JUMPDEST JUMPDEST PUSH1 0x20 MUL PUSH1 0x20 ADD ADD SWAP1 PUSH1 0xC6 DUP2 GT ISZERO PUSH3 0x36E JUMPI PUSH3 0x36D PUSH3 0xA3F JUMP JUMPDEST JUMPDEST SWAP1 DUP2 PUSH1 0xC6 DUP2 GT ISZERO PUSH3 0x385 JUMPI PUSH3 0x384 PUSH3 0xA3F JUMP JUMPDEST JUMPDEST DUP2 MSTORE POP POP PUSH0 PUSH1 0x3 PUSH8 0xFFFFFFFFFFFFFFFF DUP2 GT ISZERO PUSH3 0x3A8 JUMPI PUSH3 0x3A7 PUSH3 0x9E5 JUMP JUMPDEST JUMPDEST PUSH1 0x40 MLOAD SWAP1 DUP1 DUP3 MSTORE DUP1 PUSH1 0x20 MUL PUSH1 0x20 ADD DUP3 ADD PUSH1 0x40 MSTORE DUP1 ISZERO PUSH3 0x3D7 JUMPI DUP2 PUSH1 0x20 ADD PUSH1 0x20 DUP3 MUL DUP1 CALLDATASIZE DUP4 CALLDATACOPY DUP1 DUP3 ADD SWAP2 POP POP SWAP1 POP JUMPDEST POP SWAP1 POP PUSH1 0x40 DUP2 PUSH0 DUP2 MLOAD DUP2 LT PUSH3 0x3F2 JUMPI PUSH3 0x3F1 PUSH3 0xA12 JUMP JUMPDEST JUMPDEST PUSH1 0x20 MUL PUSH1 0x20 ADD ADD SWAP1 PUSH1 0xC6 DUP2 GT ISZERO PUSH3 0x40F JUMPI PUSH3 0x40E PUSH3 0xA3F JUMP JUMPDEST JUMPDEST SWAP1 DUP2 PUSH1 0xC6 DUP2 GT ISZERO PUSH3 0x426 JUMPI PUSH3 0x425 PUSH3 0xA3F JUMP JUMPDEST JUMPDEST DUP2 MSTORE POP POP PUSH1 0x40 DUP2 PUSH1 0x1 DUP2 MLOAD DUP2 LT PUSH3 0x443 JUMPI PUSH3 0x442 PUSH3 0xA12 JUMP JUMPDEST JUMPDEST PUSH1 0x20 MUL PUSH1 0x20 ADD ADD SWAP1 PUSH1 0xC6 DUP2 GT ISZERO PUSH3 0x460 JUMPI PUSH3 0x45F PUSH3 0xA3F JUMP JUMPDEST JUMPDEST SWAP1 DUP2 PUSH1 0xC6 DUP2 GT ISZERO PUSH3 0x477 JUMPI PUSH3 0x476 PUSH3 0xA3F JUMP JUMPDEST JUMPDEST DUP2 MSTORE POP POP PUSH1 0x40 DUP2 PUSH1 0x2 DUP2 MLOAD DUP2 LT PUSH3 0x494 JUMPI PUSH3 0x493 PUSH3 0xA12 JUMP JUMPDEST JUMPDEST PUSH1 0x20 MUL PUSH1 0x20 ADD ADD SWAP1 PUSH1 0xC6 DUP2 GT ISZERO PUSH3 0x4B1 JUMPI PUSH3 0x4B0 PUSH3 0xA3F JUMP JUMPDEST JUMPDEST SWAP1 DUP2 PUSH1 0xC6 DUP2 GT ISZERO PUSH3 0x4C8 JUMPI PUSH3 0x4C7 PUSH3 0xA3F JUMP JUMPDEST JUMPDEST DUP2 MSTORE POP POP PUSH0 PUSH1 0x1 PUSH8 0xFFFFFFFFFFFFFFFF DUP2 GT ISZERO PUSH3 0x4EB JUMPI PUSH3 0x4EA PUSH3 0x9E5 JUMP JUMPDEST JUMPDEST PUSH1 0x40 MLOAD SWAP1 DUP1 DUP3 MSTORE DUP1 PUSH1 0x20 MUL PUSH1 0x20 ADD DUP3 ADD PUSH1 0x40 MSTORE DUP1 ISZERO PUSH3 0x51A JUMPI DUP2 PUSH1 0x20 ADD PUSH1 0x20 DUP3 MUL DUP1 CALLDATASIZE DUP4 CALLDATACOPY DUP1 DUP3 ADD SWAP2 POP POP SWAP1 POP JUMPDEST POP SWAP1 POP PUSH1 0xC6 DUP2 PUSH0 DUP2 MLOAD DUP2 LT PUSH3 0x535 JUMPI PUSH3 0x534 PUSH3 0xA12 JUMP JUMPDEST JUMPDEST PUSH1 0x20 MUL PUSH1 0x20 ADD ADD SWAP1 PUSH1 0xC6 DUP2 GT ISZERO PUSH3 0x552 JUMPI PUSH3 0x551 PUSH3 0xA3F JUMP JUMPDEST JUMPDEST SWAP1 DUP2 PUSH1 0xC6 DUP2 GT ISZERO PUSH3 0x569 JUMPI PUSH3 0x568 PUSH3 0xA3F JUMP JUMPDEST JUMPDEST DUP2 MSTORE POP POP PUSH0 PUSH1 0x3 PUSH8 0xFFFFFFFFFFFFFFFF DUP2 GT ISZERO PUSH3 0x58C JUMPI PUSH3 0x58B PUSH3 0x9E5 JUMP JUMPDEST JUMPDEST PUSH1 0x40 MLOAD SWAP1 DUP1 DUP3 MSTORE DUP1 PUSH1 0x20 MUL PUSH1 0x20 ADD DUP3 ADD PUSH1 0x40 MSTORE DUP1 ISZERO PUSH3 0x5BB JUMPI DUP2 PUSH1 0x20 ADD PUSH1 0x20 DUP3 MUL DUP1 CALLDATASIZE DUP4 CALLDATACOPY DUP1 DUP3 ADD SWAP2 POP POP SWAP1 POP JUMPDEST POP SWAP1 POP PUSH1 0x41 DUP2 PUSH0 DUP2 MLOAD DUP2 LT PUSH3 0x5D6 JUMPI PUSH3 0x5D5 PUSH3 0xA12 JUMP JUMPDEST JUMPDEST PUSH1 0x20 MUL PUSH1 0x20 ADD ADD SWAP1 PUSH1 0xC6 DUP2 GT ISZERO PUSH3 0x5F3 JUMPI PUSH3 0x5F2 PUSH3 0xA3F JUMP JUMPDEST JUMPDEST SWAP1 DUP2 PUSH1 0xC6 DUP2 GT ISZERO PUSH3 0x60A JUMPI PUSH3 0x609 PUSH3 0xA3F JUMP JUMPDEST JUMPDEST DUP2 MSTORE POP POP PUSH1 0x40 DUP2 PUSH1 0x1 DUP2 MLOAD DUP2 LT PUSH3 0x627 JUMPI PUSH3 0x626 PUSH3 0xA12 JUMP JUMPDEST JUMPDEST PUSH1 0x20 MUL PUSH1 0x20 ADD ADD SWAP1 PUSH1 0xC6 DUP2 GT ISZERO PUSH3 0x644 JUMPI PUSH3 0x643 PUSH3 0xA3F JUMP JUMPDEST JUMPDEST SWAP1 DUP2 PUSH1 0xC6 DUP2 GT ISZERO PUSH3 0x65B JUMPI PUSH3 0x65A PUSH3 0xA3F JUMP JUMPDEST JUMPDEST DUP2 MSTORE POP POP PUSH1 0x40 DUP2 PUSH1 0x2 DUP2 MLOAD DUP2 LT PUSH3 0x678 JUMPI PUSH3 0x677 PUSH3 0xA12 JUMP JUMPDEST JUMPDEST PUSH1 0x20 MUL PUSH1 0x20 ADD ADD SWAP1 PUSH1 0xC6 DUP2 GT ISZERO PUSH3 0x695 JUMPI PUSH3 0x694 PUSH3 0xA3F JUMP JUMPDEST JUMPDEST SWAP1 DUP2 PUSH1 0xC6 DUP2 GT ISZERO PUSH3 0x6AC JUMPI PUSH3 0x6AB PUSH3 0xA3F JUMP JUMPDEST JUMPDEST DUP2 MSTORE POP POP PUSH3 0x746 PUSH1 0x40 MLOAD DUP1 PUSH1 0x40 ADD PUSH1 0x40 MSTORE DUP1 PUSH1 0xB DUP2 MSTORE PUSH1 0x20 ADD PUSH32 0x706F7374436F6D6D656E74000000000000000000000000000000000000000000 DUP2 MSTORE POP PUSH1 0x1 DUP9 PUSH0 PUSH8 0xFFFFFFFFFFFFFFFF DUP2 GT ISZERO PUSH3 0x70A JUMPI PUSH3 0x709 PUSH3 0x9E5 JUMP JUMPDEST JUMPDEST PUSH1 0x40 MLOAD SWAP1 DUP1 DUP3 MSTORE DUP1 PUSH1 0x20 MUL PUSH1 0x20 ADD DUP3 ADD PUSH1 0x40 MSTORE DUP1 ISZERO PUSH3 0x739 JUMPI DUP2 PUSH1 0x20 ADD PUSH1 0x20 DUP3 MUL DUP1 CALLDATASIZE DUP4 CALLDATACOPY DUP1 DUP3 ADD SWAP2 POP POP SWAP1 POP JUMPDEST POP PUSH3 0x82D PUSH1 0x20 SHL PUSH1 0x20 SHR JUMP JUMPDEST PUSH3 0x78F PUSH1 0x40 MLOAD DUP1 PUSH1 0x40 ADD PUSH1 0x40 MSTORE DUP1 PUSH1 0xA DUP2 MSTORE PUSH1 0x20 ADD PUSH32 0x676574436F6D6D656E7400000000000000000000000000000000000000000000 DUP2 MSTORE POP PUSH0 DUP8 DUP8 PUSH3 0x82D PUSH1 0x20 SHL PUSH1 0x20 SHR JUMP JUMPDEST PUSH3 0x7D8 PUSH1 0x40 MLOAD DUP1 PUSH1 0x40 ADD PUSH1 0x40 MSTORE DUP1 PUSH1 0xB DUP2 MSTORE PUSH1 0x20 ADD PUSH32 0x676574436F6D6D656E7473000000000000000000000000000000000000000000 DUP2 MSTORE POP PUSH0 DUP6 DUP6 PUSH3 0x82D PUSH1 0x20 SHL PUSH1 0x20 SHR JUMP JUMPDEST PUSH3 0x821 PUSH1 0x40 MLOAD DUP1 PUSH1 0x40 ADD PUSH1 0x40 MSTORE DUP1 PUSH1 0x14 DUP2 MSTORE PUSH1 0x20 ADD PUSH32 0x676574436F6D6D656E7473427941646472657373000000000000000000000000 DUP2 MSTORE POP PUSH0 DUP4 DUP6 PUSH3 0x82D PUSH1 0x20 SHL PUSH1 0x20 SHR JUMP JUMPDEST POP POP POP POP POP POP PUSH3 0xE09 JUMP JUMPDEST PUSH0 DUP1 DUP5 PUSH1 0x3 DUP2 GT ISZERO PUSH3 0x845 JUMPI PUSH3 0x844 PUSH3 0xA3F JUMP JUMPDEST JUMPDEST PUSH1 0x3 DUP2 GT ISZERO PUSH3 0x85A JUMPI PUSH3 0x859 PUSH3 0xA3F JUMP JUMPDEST JUMPDEST DUP2 MSTORE PUSH1 0x20 ADD SWAP1 DUP2 MSTORE PUSH1 0x20 ADD PUSH0 KECCAK256 DUP5 SWAP1 DUP1 PUSH1 0x1 DUP2 SLOAD ADD DUP1 DUP3 SSTORE DUP1 SWAP2 POP POP PUSH1 0x1 SWAP1 SUB SWAP1 PUSH0 MSTORE PUSH1 0x20 PUSH0 KECCAK256 ADD PUSH0 SWAP1 SWAP2 SWAP1 SWAP2 SWAP1 SWAP2 POP SWAP1 DUP2 PUSH3 0x898 SWAP2 SWAP1 PUSH3 0xCA3 JUMP JUMPDEST POP DUP2 PUSH1 0x1 DUP6 PUSH1 0x40 MLOAD PUSH3 0x8AC SWAP2 SWAP1 PUSH3 0xDF1 JUMP JUMPDEST SWAP1 DUP2 MSTORE PUSH1 0x20 ADD PUSH1 0x40 MLOAD DUP1 SWAP2 SUB SWAP1 KECCAK256 SWAP1 DUP1 MLOAD SWAP1 PUSH1 0x20 ADD SWAP1 PUSH3 0x8CF SWAP3 SWAP2 SWAP1 PUSH3 0x90D JUMP JUMPDEST POP DUP1 PUSH1 0x2 DUP6 PUSH1 0x40 MLOAD PUSH3 0x8E3 SWAP2 SWAP1 PUSH3 0xDF1 JUMP JUMPDEST SWAP1 DUP2 MSTORE PUSH1 0x20 ADD PUSH1 0x40 MLOAD DUP1 SWAP2 SUB SWAP1 KECCAK256 SWAP1 DUP1 MLOAD SWAP1 PUSH1 0x20 ADD SWAP1 PUSH3 0x906 SWAP3 SWAP2 SWAP1 PUSH3 0x90D JUMP JUMPDEST POP POP POP POP POP JUMP JUMPDEST DUP3 DUP1 SLOAD DUP3 DUP3 SSTORE SWAP1 PUSH0 MSTORE PUSH1 0x20 PUSH0 KECCAK256 SWAP1 PUSH1 0x1F ADD PUSH1 0x20 SWAP1 DIV DUP2 ADD SWAP3 DUP3 ISZERO PUSH3 0x9B5 JUMPI SWAP2 PUSH1 0x20 MUL DUP3 ADD PUSH0 JUMPDEST DUP4 DUP3 GT ISZERO PUSH3 0x985 JUMPI DUP4 MLOAD DUP4 DUP3 PUSH2 0x100 EXP DUP2 SLOAD DUP2 PUSH1 0xFF MUL NOT AND SWAP1 DUP4 PUSH1 0xC6 DUP2 GT ISZERO PUSH3 0x964 JUMPI PUSH3 0x963 PUSH3 0xA3F JUMP JUMPDEST JUMPDEST MUL OR SWAP1 SSTORE POP SWAP3 PUSH1 0x20 ADD SWAP3 PUSH1 0x1 ADD PUSH1 0x20 DUP2 PUSH0 ADD DIV SWAP3 DUP4 ADD SWAP3 PUSH1 0x1 SUB MUL PUSH3 0x934 JUMP JUMPDEST DUP1 ISZERO PUSH3 0x9B3 JUMPI DUP3 DUP2 PUSH2 0x100 EXP DUP2 SLOAD SWAP1 PUSH1 0xFF MUL NOT AND SWAP1 SSTORE PUSH1 0x1 ADD PUSH1 0x20 DUP2 PUSH0 ADD DIV SWAP3 DUP4 ADD SWAP3 PUSH1 0x1 SUB MUL PUSH3 0x985 JUMP JUMPDEST POP JUMPDEST POP SWAP1 POP PUSH3 0x9C4 SWAP2 SWAP1 PUSH3 0x9C8 JUMP JUMPDEST POP SWAP1 JUMP JUMPDEST JUMPDEST DUP1 DUP3 GT ISZERO PUSH3 0x9E1 JUMPI PUSH0 DUP2 PUSH0 SWAP1 SSTORE POP PUSH1 0x1 ADD PUSH3 0x9C9 JUMP JUMPDEST POP SWAP1 JUMP JUMPDEST PUSH32 0x4E487B7100000000000000000000000000000000000000000000000000000000 PUSH0 MSTORE PUSH1 0x41 PUSH1 0x4 MSTORE PUSH1 0x24 PUSH0 REVERT JUMPDEST PUSH32 0x4E487B7100000000000000000000000000000000000000000000000000000000 PUSH0 MSTORE PUSH1 0x32 PUSH1 0x4 MSTORE PUSH1 0x24 PUSH0 REVERT JUMPDEST PUSH32 0x4E487B7100000000000000000000000000000000000000000000000000000000 PUSH0 MSTORE PUSH1 0x21 PUSH1 0x4 MSTORE PUSH1 0x24 PUSH0 REVERT JUMPDEST PUSH0 DUP2 MLOAD SWAP1 POP SWAP2 SWAP1 POP JUMP JUMPDEST PUSH32 0x4E487B7100000000000000000000000000000000000000000000000000000000 PUSH0 MSTORE PUSH1 0x22 PUSH1 0x4 MSTORE PUSH1 0x24 PUSH0 REVERT JUMPDEST PUSH0 PUSH1 0x2 DUP3 DIV SWAP1 POP PUSH1 0x1 DUP3 AND DUP1 PUSH3 0xABB JUMPI PUSH1 0x7F DUP3 AND SWAP2 POP JUMPDEST PUSH1 0x20 DUP3 LT DUP2 SUB PUSH3 0xAD1 JUMPI PUSH3 0xAD0 PUSH3 0xA76 JUMP JUMPDEST JUMPDEST POP SWAP2 SWAP1 POP JUMP JUMPDEST PUSH0 DUP2 SWAP1 POP DUP2 PUSH0 MSTORE PUSH1 0x20 PUSH0 KECCAK256 SWAP1 POP SWAP2 SWAP1 POP JUMP JUMPDEST PUSH0 PUSH1 0x20 PUSH1 0x1F DUP4 ADD DIV SWAP1 POP SWAP2 SWAP1 POP JUMP JUMPDEST PUSH0 DUP3 DUP3 SHL SWAP1 POP SWAP3 SWAP2 POP POP JUMP JUMPDEST PUSH0 PUSH1 0x8 DUP4 MUL PUSH3 0xB35 PUSH32 0xFFFFFFFFFFFFFFFFFFFFFFFFFFFFFFFFFFFFFFFFFFFFFFFFFFFFFFFFFFFFFFFF DUP3 PUSH3 0xAF8 JUMP JUMPDEST PUSH3 0xB41 DUP7 DUP4 PUSH3 0xAF8 JUMP JUMPDEST SWAP6 POP DUP1 NOT DUP5 AND SWAP4 POP DUP1 DUP7 AND DUP5 OR SWAP3 POP POP POP SWAP4 SWAP3 POP POP POP JUMP JUMPDEST PUSH0 DUP2 SWAP1 POP SWAP2 SWAP1 POP JUMP JUMPDEST PUSH0 DUP2 SWAP1 POP SWAP2 SWAP1 POP JUMP JUMPDEST PUSH0 PUSH3 0xB8B PUSH3 0xB85 PUSH3 0xB7F DUP5 PUSH3 0xB59 JUMP JUMPDEST PUSH3 0xB62 JUMP JUMPDEST PUSH3 0xB59 JUMP JUMPDEST SWAP1 POP SWAP2 SWAP1 POP JUMP JUMPDEST PUSH0 DUP2 SWAP1 POP SWAP2 SWAP1 POP JUMP JUMPDEST PUSH3 0xBA6 DUP4 PUSH3 0xB6B JUMP JUMPDEST PUSH3 0xBBE PUSH3 0xBB5 DUP3 PUSH3 0xB92 JUMP JUMPDEST DUP5 DUP5 SLOAD PUSH3 0xB04 JUMP JUMPDEST DUP3 SSTORE POP POP POP POP JUMP JUMPDEST PUSH0 SWAP1 JUMP JUMPDEST PUSH3 0xBD4 PUSH3 0xBC6 JUMP JUMPDEST PUSH3 0xBE1 DUP2 DUP5 DUP5 PUSH3 0xB9B JUMP JUMPDEST POP POP POP JUMP JUMPDEST JUMPDEST DUP2 DUP2 LT ISZERO PUSH3 0xC08 JUMPI PUSH3 0xBFC PUSH0 DUP3 PUSH3 0xBCA JUMP JUMPDEST PUSH1 0x1 DUP2 ADD SWAP1 POP PUSH3 0xBE7 JUMP JUMPDEST POP POP JUMP JUMPDEST PUSH1 0x1F DUP3 GT ISZERO PUSH3 0xC57 JUMPI PUSH3 0xC21 DUP2 PUSH3 0xAD7 JUMP JUMPDEST PUSH3 0xC2C DUP5 PUSH3 0xAE9 JUMP JUMPDEST DUP2 ADD PUSH1 0x20 DUP6 LT ISZERO PUSH3 0xC3C JUMPI DUP2 SWAP1 POP JUMPDEST PUSH3 0xC54 PUSH3 0xC4B DUP6 PUSH3 0xAE9 JUMP JUMPDEST DUP4 ADD DUP3 PUSH3 0xBE6 JUMP JUMPDEST POP POP JUMPDEST POP POP POP JUMP JUMPDEST PUSH0 DUP3 DUP3 SHR SWAP1 POP SWAP3 SWAP2 POP POP JUMP JUMPDEST PUSH0 PUSH3 0xC79 PUSH0 NOT DUP5 PUSH1 0x8 MUL PUSH3 0xC5C JUMP JUMPDEST NOT DUP1 DUP4 AND SWAP2 POP POP SWAP3 SWAP2 POP POP JUMP JUMPDEST PUSH0 PUSH3 0xC93 DUP4 DUP4 PUSH3 0xC68 JUMP JUMPDEST SWAP2 POP DUP3 PUSH1 0x2 MUL DUP3 OR SWAP1 POP SWAP3 SWAP2 POP POP JUMP JUMPDEST PUSH3 0xCAE DUP3 PUSH3 0xA6C JUMP JUMPDEST PUSH8 0xFFFFFFFFFFFFFFFF DUP2 GT ISZERO PUSH3 0xCCA JUMPI PUSH3 0xCC9 PUSH3 0x9E5 JUMP JUMPDEST JUMPDEST PUSH3 0xCD6 DUP3 SLOAD PUSH3 0xAA3 JUMP JUMPDEST PUSH3 0xCE3 DUP3 DUP3 DUP6 PUSH3 0xC0C JUMP JUMPDEST PUSH0 PUSH1 0x20 SWAP1 POP PUSH1 0x1F DUP4 GT PUSH1 0x1 DUP2 EQ PUSH3 0xD19 JUMPI PUSH0 DUP5 ISZERO PUSH3 0xD04 JUMPI DUP3 DUP8 ADD MLOAD SWAP1 POP JUMPDEST PUSH3 0xD10 DUP6 DUP3 PUSH3 0xC86 JUMP JUMPDEST DUP7 SSTORE POP PUSH3 0xD7F JUMP JUMPDEST PUSH1 0x1F NOT DUP5 AND PUSH3 0xD29 DUP7 PUSH3 0xAD7 JUMP JUMPDEST PUSH0 JUMPDEST DUP3 DUP2 LT ISZERO PUSH3 0xD52 JUMPI DUP5 DUP10 ADD MLOAD DUP3 SSTORE PUSH1 0x1 DUP3 ADD SWAP2 POP PUSH1 0x20 DUP6 ADD SWAP5 POP PUSH1 0x20 DUP2 ADD SWAP1 POP PUSH3 0xD2B JUMP JUMPDEST DUP7 DUP4 LT ISZERO PUSH3 0xD72 JUMPI DUP5 DUP10 ADD MLOAD PUSH3 0xD6E PUSH1 0x1F DUP10 AND DUP3 PUSH3 0xC68 JUMP JUMPDEST DUP4 SSTORE POP JUMPDEST PUSH1 0x1 PUSH1 0x2 DUP9 MUL ADD DUP9 SSTORE POP POP POP JUMPDEST POP POP POP POP POP POP JUMP JUMPDEST PUSH0 DUP2 SWAP1 POP SWAP3 SWAP2 POP POP JUMP JUMPDEST PUSH0 JUMPDEST DUP4 DUP2 LT ISZERO PUSH3 0xDB0 JUMPI DUP1 DUP3 ADD MLOAD DUP2 DUP5 ADD MSTORE PUSH1 0x20 DUP2 ADD SWAP1 POP PUSH3 0xD93 JUMP JUMPDEST PUSH0 DUP5 DUP5 ADD MSTORE POP POP POP POP JUMP JUMPDEST PUSH0 PUSH3 0xDC7 DUP3 PUSH3 0xA6C JUMP JUMPDEST PUSH3 0xDD3 DUP2 DUP6 PUSH3 0xD87 JUMP JUMPDEST SWAP4 POP PUSH3 0xDE5 DUP2 DUP6 PUSH1 0x20 DUP7 ADD PUSH3 0xD91 JUMP JUMPDEST DUP1 DUP5 ADD SWAP2 POP POP SWAP3 SWAP2 POP POP JUMP JUMPDEST PUSH0 PUSH3 0xDFE DUP3 DUP5 PUSH3 0xDBB JUMP JUMPDEST SWAP2 POP DUP2 SWAP1 POP SWAP3 SWAP2 POP POP JUMP JUMPDEST PUSH2 0x2CC5 DUP1 PUSH3 0xE17 PUSH0 CODECOPY PUSH0 RETURN INVALID PUSH1 0x80 PUSH1 0x40 MSTORE PUSH1 0x4 CALLDATASIZE LT PUSH2 0x90 JUMPI PUSH0 CALLDATALOAD PUSH1 0xE0 SHR DUP1 PUSH4 0x6818BA1D GT PUSH2 0x58 JUMPI DUP1 PUSH4 0x6818BA1D EQ PUSH2 0x19D JUMPI DUP1 PUSH4 0xAFF62745 EQ PUSH2 0x1D9 JUMPI DUP1 PUSH4 0xB6AE0425 EQ PUSH2 0x215 JUMPI DUP1 PUSH4 0xE9536472 EQ PUSH2 0x245 JUMPI DUP1 PUSH4 0xF4856CCB EQ PUSH2 0x275 JUMPI PUSH2 0x90 JUMP JUMPDEST DUP1 PUSH4 0x1069143A EQ PUSH2 0x94 JUMPI DUP1 PUSH4 0x3E413065 EQ PUSH2 0xBE JUMPI DUP1 PUSH4 0x3EAE02B3 EQ PUSH2 0xE8 JUMPI DUP1 PUSH4 0x44237454 EQ PUSH2 0x124 JUMPI DUP1 PUSH4 0x458AD6D4 EQ PUSH2 0x160 JUMPI JUMPDEST PUSH0 DUP1 REVERT JUMPDEST CALLVALUE DUP1 ISZERO PUSH2 0x9F JUMPI PUSH0 DUP1 REVERT JUMPDEST POP PUSH2 0xA8 PUSH2 0x2B1 JUMP JUMPDEST PUSH1 0x40 MLOAD PUSH2 0xB5 SWAP2 SWAP1 PUSH2 0x1A6F JUMP JUMPDEST PUSH1 0x40 MLOAD DUP1 SWAP2 SUB SWAP1 RETURN JUMPDEST CALLVALUE DUP1 ISZERO PUSH2 0xC9 JUMPI PUSH0 DUP1 REVERT JUMPDEST POP PUSH2 0xD2 PUSH2 0x425 JUMP JUMPDEST PUSH1 0x40 MLOAD PUSH2 0xDF SWAP2 SWAP1 PUSH2 0x1AA7 JUMP JUMPDEST PUSH1 0x40 MLOAD DUP1 SWAP2 SUB SWAP1 RETURN JUMPDEST CALLVALUE DUP1 ISZERO PUSH2 0xF3 JUMPI PUSH0 DUP1 REVERT JUMPDEST POP PUSH2 0x10E PUSH1 0x4 DUP1 CALLDATASIZE SUB DUP2 ADD SWAP1 PUSH2 0x109 SWAP2 SWAP1 PUSH2 0x1C91 JUMP JUMPDEST PUSH2 0x42B JUMP JUMPDEST PUSH1 0x40 MLOAD PUSH2 0x11B SWAP2 SWAP1 PUSH2 0x1DBA JUMP JUMPDEST PUSH1 0x40 MLOAD DUP1 SWAP2 SUB SWAP1 RETURN JUMPDEST CALLVALUE DUP1 ISZERO PUSH2 0x12F JUMPI PUSH0 DUP1 REVERT JUMPDEST POP PUSH2 0x14A PUSH1 0x4 DUP1 CALLDATASIZE SUB DUP2 ADD SWAP1 PUSH2 0x145 SWAP2 SWAP1 PUSH2 0x1DDA JUMP JUMPDEST PUSH2 0x4AA JUMP JUMPDEST PUSH1 0x40 MLOAD PUSH2 0x157 SWAP2 SWAP1 PUSH2 0x1F2D JUMP JUMPDEST PUSH1 0x40 MLOAD DUP1 SWAP2 SUB SWAP1 RETURN JUMPDEST CALLVALUE DUP1 ISZERO PUSH2 0x16B JUMPI PUSH0 DUP1 REVERT JUMPDEST POP PUSH2 0x186 PUSH1 0x4 DUP1 CALLDATASIZE SUB DUP2 ADD SWAP1 PUSH2 0x181 SWAP2 SWAP1 PUSH2 0x1F4D JUMP JUMPDEST PUSH2 0x863 JUMP JUMPDEST PUSH1 0x40 MLOAD PUSH2 0x194 SWAP3 SWAP2 SWAP1 PUSH2 0x2072 JUMP JUMPDEST PUSH1 0x40 MLOAD DUP1 SWAP2 SUB SWAP1 RETURN JUMPDEST CALLVALUE DUP1 ISZERO PUSH2 0x1A8 JUMPI PUSH0 DUP1 REVERT JUMPDEST POP PUSH2 0x1C3 PUSH1 0x4 DUP1 CALLDATASIZE SUB DUP2 ADD SWAP1 PUSH2 0x1BE SWAP2 SWAP1 PUSH2 0x20A7 JUMP JUMPDEST PUSH2 0x9B1 JUMP JUMPDEST PUSH1 0x40 MLOAD PUSH2 0x1D0 SWAP2 SWAP1 PUSH2 0x1F2D JUMP JUMPDEST PUSH1 0x40 MLOAD DUP1 SWAP2 SUB SWAP1 RETURN JUMPDEST CALLVALUE DUP1 ISZERO PUSH2 0x1E4 JUMPI PUSH0 DUP1 REVERT JUMPDEST POP PUSH2 0x1FF PUSH1 0x4 DUP1 CALLDATASIZE SUB DUP2 ADD SWAP1 PUSH2 0x1FA SWAP2 SWAP1 PUSH2 0x2195 JUMP JUMPDEST PUSH2 0xCBA JUMP JUMPDEST PUSH1 0x40 MLOAD PUSH2 0x20C SWAP2 SWAP1 PUSH2 0x225D JUMP JUMPDEST PUSH1 0x40 MLOAD DUP1 SWAP2 SUB SWAP1 RETURN JUMPDEST PUSH2 0x22F PUSH1 0x4 DUP1 CALLDATASIZE SUB DUP2 ADD SWAP1 PUSH2 0x22A SWAP2 SWAP1 PUSH2 0x2195 JUMP JUMPDEST PUSH2 0xFC7 JUMP JUMPDEST PUSH1 0x40 MLOAD PUSH2 0x23C SWAP2 SWAP1 PUSH2 0x225D JUMP JUMPDEST PUSH1 0x40 MLOAD DUP1 SWAP2 SUB SWAP1 RETURN JUMPDEST PUSH2 0x25F PUSH1 0x4 DUP1 CALLDATASIZE SUB DUP2 ADD SWAP1 PUSH2 0x25A SWAP2 SWAP1 PUSH2 0x2195 JUMP JUMPDEST PUSH2 0x12AA JUMP JUMPDEST PUSH1 0x40 MLOAD PUSH2 0x26C SWAP2 SWAP1 PUSH2 0x225D JUMP JUMPDEST PUSH1 0x40 MLOAD DUP1 SWAP2 SUB SWAP1 RETURN JUMPDEST CALLVALUE DUP1 ISZERO PUSH2 0x280 JUMPI PUSH0 DUP1 REVERT JUMPDEST POP PUSH2 0x29B PUSH1 0x4 DUP1 CALLDATASIZE SUB DUP2 ADD SWAP1 PUSH2 0x296 SWAP2 SWAP1 PUSH2 0x22A0 JUMP JUMPDEST PUSH2 0x12D6 JUMP JUMPDEST PUSH1 0x40 MLOAD PUSH2 0x2A8 SWAP2 SWAP1 PUSH2 0x1F2D JUMP JUMPDEST PUSH1 0x40 MLOAD DUP1 SWAP2 SUB SWAP1 RETURN JUMPDEST PUSH1 0x60 PUSH0 PUSH1 0x4 PUSH8 0xFFFFFFFFFFFFFFFF DUP2 GT ISZERO PUSH2 0x2CF JUMPI PUSH2 0x2CE PUSH2 0x1B13 JUMP JUMPDEST JUMPDEST PUSH1 0x40 MLOAD SWAP1 DUP1 DUP3 MSTORE DUP1 PUSH1 0x20 MUL PUSH1 0x20 ADD DUP3 ADD PUSH1 0x40 MSTORE DUP1 ISZERO PUSH2 0x2FD JUMPI DUP2 PUSH1 0x20 ADD PUSH1 0x20 DUP3 MUL DUP1 CALLDATASIZE DUP4 CALLDATACOPY DUP1 DUP3 ADD SWAP2 POP POP SWAP1 POP JUMPDEST POP SWAP1 POP PUSH0 DUP2 PUSH0 DUP2 MLOAD DUP2 LT PUSH2 0x314 JUMPI PUSH2 0x313 PUSH2 0x22CB JUMP JUMPDEST JUMPDEST PUSH1 0x20 MUL PUSH1 0x20 ADD ADD SWAP1 PUSH1 0x3 DUP2 GT ISZERO PUSH2 0x32E JUMPI PUSH2 0x32D PUSH2 0x197D JUMP JUMPDEST JUMPDEST SWAP1 DUP2 PUSH1 0x3 DUP2 GT ISZERO PUSH2 0x342 JUMPI PUSH2 0x341 PUSH2 0x197D JUMP JUMPDEST JUMPDEST DUP2 MSTORE POP POP PUSH1 0x1 DUP2 PUSH1 0x1 DUP2 MLOAD DUP2 LT PUSH2 0x35C JUMPI PUSH2 0x35B PUSH2 0x22CB JUMP JUMPDEST JUMPDEST PUSH1 0x20 MUL PUSH1 0x20 ADD ADD SWAP1 PUSH1 0x3 DUP2 GT ISZERO PUSH2 0x376 JUMPI PUSH2 0x375 PUSH2 0x197D JUMP JUMPDEST JUMPDEST SWAP1 DUP2 PUSH1 0x3 DUP2 GT ISZERO PUSH2 0x38A JUMPI PUSH2 0x389 PUSH2 0x197D JUMP JUMPDEST JUMPDEST DUP2 MSTORE POP POP PUSH1 0x2 DUP2 PUSH1 0x2 DUP2 MLOAD DUP2 LT PUSH2 0x3A4 JUMPI PUSH2 0x3A3 PUSH2 0x22CB JUMP JUMPDEST JUMPDEST PUSH1 0x20 MUL PUSH1 0x20 ADD ADD SWAP1 PUSH1 0x3 DUP2 GT ISZERO PUSH2 0x3BE JUMPI PUSH2 0x3BD PUSH2 0x197D JUMP JUMPDEST JUMPDEST SWAP1 DUP2 PUSH1 0x3 DUP2 GT ISZERO PUSH2 0x3D2 JUMPI PUSH2 0x3D1 PUSH2 0x197D JUMP JUMPDEST JUMPDEST DUP2 MSTORE POP POP PUSH1 0x3 DUP2 PUSH1 0x3 DUP2 MLOAD DUP2 LT PUSH2 0x3EC JUMPI PUSH2 0x3EB PUSH2 0x22CB JUMP JUMPDEST JUMPDEST PUSH1 0x20 MUL PUSH1 0x20 ADD ADD SWAP1 PUSH1 0x3 DUP2 GT ISZERO PUSH2 0x406 JUMPI PUSH2 0x405 PUSH2 0x197D JUMP JUMPDEST JUMPDEST SWAP1 DUP2 PUSH1 0x3 DUP2 GT ISZERO PUSH2 0x41A JUMPI PUSH2 0x419 PUSH2 0x197D JUMP JUMPDEST JUMPDEST DUP2 MSTORE POP POP DUP1 SWAP2 POP POP SWAP1 JUMP JUMPDEST PUSH1 0x3 SLOAD DUP2 JUMP JUMPDEST PUSH1 0x60 PUSH2 0x436 DUP7 PUSH2 0x13DE JUMP JUMPDEST PUSH2 0x43F DUP7 PUSH2 0x13DE JUMP JUMPDEST PUSH2 0x448 DUP7 PUSH2 0x1537 JUMP JUMPDEST PUSH2 0x451 DUP7 PUSH2 0x1537 JUMP JUMPDEST PUSH2 0x472 DUP7 PUSH20 0xFFFFFFFFFFFFFFFFFFFFFFFFFFFFFFFFFFFFFFFF AND PUSH1 0x14 PUSH2 0x16C7 JUMP JUMPDEST PUSH2 0x47B TIMESTAMP PUSH2 0x13DE JUMP JUMPDEST PUSH1 0x40 MLOAD PUSH1 0x20 ADD PUSH2 0x490 SWAP7 SWAP6 SWAP5 SWAP4 SWAP3 SWAP2 SWAP1 PUSH2 0x237C JUMP JUMPDEST PUSH1 0x40 MLOAD PUSH1 0x20 DUP2 DUP4 SUB SUB DUP2 MSTORE SWAP1 PUSH1 0x40 MSTORE SWAP1 POP SWAP6 SWAP5 POP POP POP POP POP JUMP JUMPDEST PUSH1 0x60 PUSH0 PUSH1 0x5 PUSH0 DUP7 PUSH20 0xFFFFFFFFFFFFFFFFFFFFFFFFFFFFFFFFFFFFFFFF AND PUSH20 0xFFFFFFFFFFFFFFFFFFFFFFFFFFFFFFFFFFFFFFFF AND DUP2 MSTORE PUSH1 0x20 ADD SWAP1 DUP2 MSTORE PUSH1 0x20 ADD PUSH0 KECCAK256 SLOAD SUB PUSH2 0x54A JUMPI PUSH0 DUP1 PUSH8 0xFFFFFFFFFFFFFFFF DUP2 GT ISZERO PUSH2 0x50B JUMPI PUSH2 0x50A PUSH2 0x1B13 JUMP JUMPDEST JUMPDEST PUSH1 0x40 MLOAD SWAP1 DUP1 DUP3 MSTORE DUP1 PUSH1 0x20 MUL PUSH1 0x20 ADD DUP3 ADD PUSH1 0x40 MSTORE DUP1 ISZERO PUSH2 0x53E JUMPI DUP2 PUSH1 0x20 ADD JUMPDEST PUSH1 0x60 DUP2 MSTORE PUSH1 0x20 ADD SWAP1 PUSH1 0x1 SWAP1 SUB SWAP1 DUP2 PUSH2 0x529 JUMPI SWAP1 POP JUMPDEST POP SWAP1 POP DUP1 SWAP2 POP POP PUSH2 0x85C JUMP JUMPDEST PUSH1 0x1 DUP4 GT DUP1 ISZERO PUSH2 0x5B9 JUMPI POP PUSH1 0x1 DUP4 PUSH2 0x562 SWAP2 SWAP1 PUSH2 0x2437 JUMP JUMPDEST DUP3 PUSH1 0x1 PUSH1 0x5 PUSH0 DUP9 PUSH20 0xFFFFFFFFFFFFFFFFFFFFFFFFFFFFFFFFFFFFFFFF AND PUSH20 0xFFFFFFFFFFFFFFFFFFFFFFFFFFFFFFFFFFFFFFFF AND DUP2 MSTORE PUSH1 0x20 ADD SWAP1 DUP2 MSTORE PUSH1 0x20 ADD PUSH0 KECCAK256 SLOAD PUSH2 0x5AD SWAP2 SWAP1 PUSH2 0x2437 JUMP JUMPDEST PUSH2 0x5B7 SWAP2 SWAP1 PUSH2 0x2497 JUMP JUMPDEST LT JUMPDEST ISZERO PUSH2 0x618 JUMPI PUSH0 DUP1 PUSH8 0xFFFFFFFFFFFFFFFF DUP2 GT ISZERO PUSH2 0x5D9 JUMPI PUSH2 0x5D8 PUSH2 0x1B13 JUMP JUMPDEST JUMPDEST PUSH1 0x40 MLOAD SWAP1 DUP1 DUP3 MSTORE DUP1 PUSH1 0x20 MUL PUSH1 0x20 ADD DUP3 ADD PUSH1 0x40 MSTORE DUP1 ISZERO PUSH2 0x60C JUMPI DUP2 PUSH1 0x20 ADD JUMPDEST PUSH1 0x60 DUP2 MSTORE PUSH1 0x20 ADD SWAP1 PUSH1 0x1 SWAP1 SUB SWAP1 DUP2 PUSH2 0x5F7 JUMPI SWAP1 POP JUMPDEST POP SWAP1 POP DUP1 SWAP2 POP POP PUSH2 0x85C JUMP JUMPDEST PUSH0 DUP1 PUSH0 SWAP1 POP PUSH0 DUP5 PUSH1 0x1 DUP8 PUSH2 0x62C SWAP2 SWAP1 PUSH2 0x2437 JUMP JUMPDEST PUSH2 0x636 SWAP2 SWAP1 PUSH2 0x24C7 JUMP JUMPDEST PUSH1 0x1 PUSH1 0x5 PUSH0 DUP11 PUSH20 0xFFFFFFFFFFFFFFFFFFFFFFFFFFFFFFFFFFFFFFFF AND PUSH20 0xFFFFFFFFFFFFFFFFFFFFFFFFFFFFFFFFFFFFFFFF AND DUP2 MSTORE PUSH1 0x20 ADD SWAP1 DUP2 MSTORE PUSH1 0x20 ADD PUSH0 KECCAK256 SLOAD PUSH2 0x680 SWAP2 SWAP1 PUSH2 0x2437 JUMP JUMPDEST PUSH2 0x68A SWAP2 SWAP1 PUSH2 0x2437 JUMP JUMPDEST SWAP1 POP PUSH0 DUP6 DUP3 LT ISZERO PUSH2 0x6AC JUMPI PUSH0 SWAP1 POP PUSH1 0x1 DUP3 PUSH2 0x6A5 SWAP2 SWAP1 PUSH2 0x2508 JUMP JUMPDEST SWAP4 POP PUSH2 0x6CA JUMP JUMPDEST PUSH1 0x1 DUP7 DUP4 PUSH2 0x6BA SWAP2 SWAP1 PUSH2 0x2437 JUMP JUMPDEST PUSH2 0x6C4 SWAP2 SWAP1 PUSH2 0x2508 JUMP JUMPDEST SWAP1 POP DUP6 SWAP4 POP JUMPDEST PUSH0 DUP5 PUSH8 0xFFFFFFFFFFFFFFFF DUP2 GT ISZERO PUSH2 0x6E5 JUMPI PUSH2 0x6E4 PUSH2 0x1B13 JUMP JUMPDEST JUMPDEST PUSH1 0x40 MLOAD SWAP1 DUP1 DUP3 MSTORE DUP1 PUSH1 0x20 MUL PUSH1 0x20 ADD DUP3 ADD PUSH1 0x40 MSTORE DUP1 ISZERO PUSH2 0x718 JUMPI DUP2 PUSH1 0x20 ADD JUMPDEST PUSH1 0x60 DUP2 MSTORE PUSH1 0x20 ADD SWAP1 PUSH1 0x1 SWAP1 SUB SWAP1 DUP2 PUSH2 0x703 JUMPI SWAP1 POP JUMPDEST POP SWAP1 POP PUSH0 DUP4 SWAP1 POP JUMPDEST DUP3 DUP2 SLT PUSH2 0x852 JUMPI PUSH0 PUSH1 0x7 PUSH0 DUP13 PUSH20 0xFFFFFFFFFFFFFFFFFFFFFFFFFFFFFFFFFFFFFFFF AND PUSH20 0xFFFFFFFFFFFFFFFFFFFFFFFFFFFFFFFFFFFFFFFF AND DUP2 MSTORE PUSH1 0x20 ADD SWAP1 DUP2 MSTORE PUSH1 0x20 ADD PUSH0 KECCAK256 PUSH0 DUP4 DUP2 MSTORE PUSH1 0x20 ADD SWAP1 DUP2 MSTORE PUSH1 0x20 ADD PUSH0 KECCAK256 SLOAD SWAP1 POP PUSH1 0x8 PUSH0 DUP3 DUP2 MSTORE PUSH1 0x20 ADD SWAP1 DUP2 MSTORE PUSH1 0x20 ADD PUSH0 KECCAK256 PUSH1 0x2 ADD DUP1 SLOAD PUSH2 0x796 SWAP1 PUSH2 0x2568 JUMP JUMPDEST DUP1 PUSH1 0x1F ADD PUSH1 0x20 DUP1 SWAP2 DIV MUL PUSH1 0x20 ADD PUSH1 0x40 MLOAD SWAP1 DUP2 ADD PUSH1 0x40 MSTORE DUP1 SWAP3 SWAP2 SWAP1 DUP2 DUP2 MSTORE PUSH1 0x20 ADD DUP3 DUP1 SLOAD PUSH2 0x7C2 SWAP1 PUSH2 0x2568 JUMP JUMPDEST DUP1 ISZERO PUSH2 0x80D JUMPI DUP1 PUSH1 0x1F LT PUSH2 0x7E4 JUMPI PUSH2 0x100 DUP1 DUP4 SLOAD DIV MUL DUP4 MSTORE SWAP2 PUSH1 0x20 ADD SWAP2 PUSH2 0x80D JUMP JUMPDEST DUP3 ADD SWAP2 SWAP1 PUSH0 MSTORE PUSH1 0x20 PUSH0 KECCAK256 SWAP1 JUMPDEST DUP2 SLOAD DUP2 MSTORE SWAP1 PUSH1 0x1 ADD SWAP1 PUSH1 0x20 ADD DUP1 DUP4 GT PUSH2 0x7F0 JUMPI DUP3 SWAP1 SUB PUSH1 0x1F AND DUP3 ADD SWAP2 JUMPDEST POP POP POP POP POP DUP4 DUP8 DUP2 MLOAD DUP2 LT PUSH2 0x825 JUMPI PUSH2 0x824 PUSH2 0x22CB JUMP JUMPDEST JUMPDEST PUSH1 0x20 MUL PUSH1 0x20 ADD ADD DUP2 SWAP1 MSTORE POP DUP6 DUP1 PUSH2 0x83B SWAP1 PUSH2 0x2598 JUMP JUMPDEST SWAP7 POP POP POP DUP1 DUP1 PUSH2 0x84A SWAP1 PUSH2 0x25E8 JUMP JUMPDEST SWAP2 POP POP PUSH2 0x720 JUMP JUMPDEST POP DUP1 SWAP6 POP POP POP POP POP POP JUMPDEST SWAP4 SWAP3 POP POP POP JUMP JUMPDEST PUSH1 0x60 DUP1 PUSH1 0x1 DUP4 PUSH1 0x40 MLOAD PUSH2 0x876 SWAP2 SWAP1 PUSH2 0x262F JUMP JUMPDEST SWAP1 DUP2 MSTORE PUSH1 0x20 ADD PUSH1 0x40 MLOAD DUP1 SWAP2 SUB SWAP1 KECCAK256 PUSH1 0x2 DUP5 PUSH1 0x40 MLOAD PUSH2 0x894 SWAP2 SWAP1 PUSH2 0x262F JUMP JUMPDEST SWAP1 DUP2 MSTORE PUSH1 0x20 ADD PUSH1 0x40 MLOAD DUP1 SWAP2 SUB SWAP1 KECCAK256 DUP2 DUP1 SLOAD DUP1 PUSH1 0x20 MUL PUSH1 0x20 ADD PUSH1 0x40 MLOAD SWAP1 DUP2 ADD PUSH1 0x40 MSTORE DUP1 SWAP3 SWAP2 SWAP1 DUP2 DUP2 MSTORE PUSH1 0x20 ADD DUP3 DUP1 SLOAD DUP1 ISZERO PUSH2 0x91E JUMPI PUSH1 0x20 MUL DUP3 ADD SWAP2 SWAP1 PUSH0 MSTORE PUSH1 0x20 PUSH0 KECCAK256 SWAP1 PUSH0 SWAP1 JUMPDEST DUP3 DUP3 SWAP1 SLOAD SWAP1 PUSH2 0x100 EXP SWAP1 DIV PUSH1 0xFF AND PUSH1 0xC6 DUP2 GT ISZERO PUSH2 0x8F9 JUMPI PUSH2 0x8F8 PUSH2 0x197D JUMP JUMPDEST JUMPDEST DUP2 MSTORE PUSH1 0x20 ADD SWAP1 PUSH1 0x1 ADD SWAP1 PUSH1 0x20 DUP3 PUSH0 ADD DIV SWAP3 DUP4 ADD SWAP3 PUSH1 0x1 SUB DUP3 MUL SWAP2 POP DUP1 DUP5 GT PUSH2 0x8D9 JUMPI SWAP1 POP JUMPDEST POP POP POP POP POP SWAP2 POP DUP1 DUP1 SLOAD DUP1 PUSH1 0x20 MUL PUSH1 0x20 ADD PUSH1 0x40 MLOAD SWAP1 DUP2 ADD PUSH1 0x40 MSTORE DUP1 SWAP3 SWAP2 SWAP1 DUP2 DUP2 MSTORE PUSH1 0x20 ADD DUP3 DUP1 SLOAD DUP1 ISZERO PUSH2 0x9A1 JUMPI PUSH1 0x20 MUL DUP3 ADD SWAP2 SWAP1 PUSH0 MSTORE PUSH1 0x20 PUSH0 KECCAK256 SWAP1 PUSH0 SWAP1 JUMPDEST DUP3 DUP3 SWAP1 SLOAD SWAP1 PUSH2 0x100 EXP SWAP1 DIV PUSH1 0xFF AND PUSH1 0xC6 DUP2 GT ISZERO PUSH2 0x97C JUMPI PUSH2 0x97B PUSH2 0x197D JUMP JUMPDEST JUMPDEST DUP2 MSTORE PUSH1 0x20 ADD SWAP1 PUSH1 0x1 ADD SWAP1 PUSH1 0x20 DUP3 PUSH0 ADD DIV SWAP3 DUP4 ADD SWAP3 PUSH1 0x1 SUB DUP3 MUL SWAP2 POP DUP1 DUP5 GT PUSH2 0x95C JUMPI SWAP1 POP JUMPDEST POP POP POP POP POP SWAP1 POP SWAP2 POP SWAP2 POP SWAP2 POP SWAP2 JUMP JUMPDEST PUSH1 0x60 PUSH0 PUSH1 0x4 PUSH0 DUP7 DUP2 MSTORE PUSH1 0x20 ADD SWAP1 DUP2 MSTORE PUSH1 0x20 ADD PUSH0 KECCAK256 SLOAD SUB PUSH2 0xA25 JUMPI PUSH0 DUP1 PUSH8 0xFFFFFFFFFFFFFFFF DUP2 GT ISZERO PUSH2 0x9E6 JUMPI PUSH2 0x9E5 PUSH2 0x1B13 JUMP JUMPDEST JUMPDEST PUSH1 0x40 MLOAD SWAP1 DUP1 DUP3 MSTORE DUP1 PUSH1 0x20 MUL PUSH1 0x20 ADD DUP3 ADD PUSH1 0x40 MSTORE DUP1 ISZERO PUSH2 0xA19 JUMPI DUP2 PUSH1 0x20 ADD JUMPDEST PUSH1 0x60 DUP2 MSTORE PUSH1 0x20 ADD SWAP1 PUSH1 0x1 SWAP1 SUB SWAP1 DUP2 PUSH2 0xA04 JUMPI SWAP1 POP JUMPDEST POP SWAP1 POP DUP1 SWAP2 POP POP PUSH2 0xCB3 JUMP JUMPDEST PUSH1 0x1 DUP4 GT DUP1 ISZERO PUSH2 0xA68 JUMPI POP PUSH1 0x1 DUP4 PUSH2 0xA3D SWAP2 SWAP1 PUSH2 0x2437 JUMP JUMPDEST DUP3 PUSH1 0x1 PUSH1 0x4 PUSH0 DUP9 DUP2 MSTORE PUSH1 0x20 ADD SWAP1 DUP2 MSTORE PUSH1 0x20 ADD PUSH0 KECCAK256 SLOAD PUSH2 0xA5C SWAP2 SWAP1 PUSH2 0x2437 JUMP JUMPDEST PUSH2 0xA66 SWAP2 SWAP1 PUSH2 0x2497 JUMP JUMPDEST LT JUMPDEST ISZERO PUSH2 0xAC7 JUMPI PUSH0 DUP1 PUSH8 0xFFFFFFFFFFFFFFFF DUP2 GT ISZERO PUSH2 0xA88 JUMPI PUSH2 0xA87 PUSH2 0x1B13 JUMP JUMPDEST JUMPDEST PUSH1 0x40 MLOAD SWAP1 DUP1 DUP3 MSTORE DUP1 PUSH1 0x20 MUL PUSH1 0x20 ADD DUP3 ADD PUSH1 0x40 MSTORE DUP1 ISZERO PUSH2 0xABB JUMPI DUP2 PUSH1 0x20 ADD JUMPDEST PUSH1 0x60 DUP2 MSTORE PUSH1 0x20 ADD SWAP1 PUSH1 0x1 SWAP1 SUB SWAP1 DUP2 PUSH2 0xAA6 JUMPI SWAP1 POP JUMPDEST POP SWAP1 POP DUP1 SWAP2 POP POP PUSH2 0xCB3 JUMP JUMPDEST PUSH0 DUP1 PUSH0 SWAP1 POP PUSH0 DUP5 PUSH1 0x1 DUP8 PUSH2 0xADB SWAP2 SWAP1 PUSH2 0x2437 JUMP JUMPDEST PUSH2 0xAE5 SWAP2 SWAP1 PUSH2 0x24C7 JUMP JUMPDEST PUSH1 0x1 PUSH1 0x4 PUSH0 DUP11 DUP2 MSTORE PUSH1 0x20 ADD SWAP1 DUP2 MSTORE PUSH1 0x20 ADD PUSH0 KECCAK256 SLOAD PUSH2 0xB03 SWAP2 SWAP1 PUSH2 0x2437 JUMP JUMPDEST PUSH2 0xB0D SWAP2 SWAP1 PUSH2 0x2437 JUMP JUMPDEST SWAP1 POP PUSH0 DUP6 DUP3 LT ISZERO PUSH2 0xB2F JUMPI PUSH0 SWAP1 POP PUSH1 0x1 DUP3 PUSH2 0xB28 SWAP2 SWAP1 PUSH2 0x2508 JUMP JUMPDEST SWAP4 POP PUSH2 0xB4D JUMP JUMPDEST PUSH1 0x1 DUP7 DUP4 PUSH2 0xB3D SWAP2 SWAP1 PUSH2 0x2437 JUMP JUMPDEST PUSH2 0xB47 SWAP2 SWAP1 PUSH2 0x2508 JUMP JUMPDEST SWAP1 POP DUP6 SWAP4 POP JUMPDEST PUSH0 DUP5 PUSH8 0xFFFFFFFFFFFFFFFF DUP2 GT ISZERO PUSH2 0xB68 JUMPI PUSH2 0xB67 PUSH2 0x1B13 JUMP JUMPDEST JUMPDEST PUSH1 0x40 MLOAD SWAP1 DUP1 DUP3 MSTORE DUP1 PUSH1 0x20 MUL PUSH1 0x20 ADD DUP3 ADD PUSH1 0x40 MSTORE DUP1 ISZERO PUSH2 0xB9B JUMPI DUP2 PUSH1 0x20 ADD JUMPDEST PUSH1 0x60 DUP2 MSTORE PUSH1 0x20 ADD SWAP1 PUSH1 0x1 SWAP1 SUB SWAP1 DUP2 PUSH2 0xB86 JUMPI SWAP1 POP JUMPDEST POP SWAP1 POP PUSH0 DUP4 SWAP1 POP JUMPDEST DUP3 DUP2 SLT PUSH2 0xCA9 JUMPI PUSH0 PUSH1 0x6 PUSH0 DUP13 DUP2 MSTORE PUSH1 0x20 ADD SWAP1 DUP2 MSTORE PUSH1 0x20 ADD PUSH0 KECCAK256 PUSH0 DUP4 DUP2 MSTORE PUSH1 0x20 ADD SWAP1 DUP2 MSTORE PUSH1 0x20 ADD PUSH0 KECCAK256 SLOAD SWAP1 POP PUSH1 0x8 PUSH0 DUP3 DUP2 MSTORE PUSH1 0x20 ADD SWAP1 DUP2 MSTORE PUSH1 0x20 ADD PUSH0 KECCAK256 PUSH1 0x2 ADD DUP1 SLOAD PUSH2 0xBED SWAP1 PUSH2 0x2568 JUMP JUMPDEST DUP1 PUSH1 0x1F ADD PUSH1 0x20 DUP1 SWAP2 DIV MUL PUSH1 0x20 ADD PUSH1 0x40 MLOAD SWAP1 DUP2 ADD PUSH1 0x40 MSTORE DUP1 SWAP3 SWAP2 SWAP1 DUP2 DUP2 MSTORE PUSH1 0x20 ADD DUP3 DUP1 SLOAD PUSH2 0xC19 SWAP1 PUSH2 0x2568 JUMP JUMPDEST DUP1 ISZERO PUSH2 0xC64 JUMPI DUP1 PUSH1 0x1F LT PUSH2 0xC3B JUMPI PUSH2 0x100 DUP1 DUP4 SLOAD DIV MUL DUP4 MSTORE SWAP2 PUSH1 0x20 ADD SWAP2 PUSH2 0xC64 JUMP JUMPDEST DUP3 ADD SWAP2 SWAP1 PUSH0 MSTORE PUSH1 0x20 PUSH0 KECCAK256 SWAP1 JUMPDEST DUP2 SLOAD DUP2 MSTORE SWAP1 PUSH1 0x1 ADD SWAP1 PUSH1 0x20 ADD DUP1 DUP4 GT PUSH2 0xC47 JUMPI DUP3 SWAP1 SUB PUSH1 0x1F AND DUP3 ADD SWAP2 JUMPDEST POP POP POP POP POP DUP4 DUP8 DUP2 MLOAD DUP2 LT PUSH2 0xC7C JUMPI PUSH2 0xC7B PUSH2 0x22CB JUMP JUMPDEST JUMPDEST PUSH1 0x20 MUL PUSH1 0x20 ADD ADD DUP2 SWAP1 MSTORE POP DUP6 DUP1 PUSH2 0xC92 SWAP1 PUSH2 0x2598 JUMP JUMPDEST SWAP7 POP POP POP DUP1 DUP1 PUSH2 0xCA1 SWAP1 PUSH2 0x25E8 JUMP JUMPDEST SWAP2 POP POP PUSH2 0xBA3 JUMP JUMPDEST POP DUP1 SWAP6 POP POP POP POP POP POP JUMPDEST SWAP4 SWAP3 POP POP POP JUMP JUMPDEST PUSH1 0x60 PUSH2 0xCFB DUP4 PUSH1 0x40 MLOAD DUP1 PUSH1 0x40 ADD PUSH1 0x40 MSTORE DUP1 PUSH1 0xA DUP2 MSTORE PUSH1 0x20 ADD PUSH32 0x676574436F6D6D656E7400000000000000000000000000000000000000000000 DUP2 MSTORE POP PUSH2 0x18FC JUMP JUMPDEST ISZERO PUSH2 0xE6C JUMPI PUSH0 DUP3 DUP1 PUSH1 0x20 ADD SWAP1 MLOAD DUP2 ADD SWAP1 PUSH2 0xD15 SWAP2 SWAP1 PUSH2 0x2659 JUMP JUMPDEST SWAP1 POP PUSH0 PUSH1 0x8 PUSH0 DUP4 DUP2 MSTORE PUSH1 0x20 ADD SWAP1 DUP2 MSTORE PUSH1 0x20 ADD PUSH0 KECCAK256 PUSH1 0x40 MLOAD DUP1 PUSH1 0x80 ADD PUSH1 0x40 MSTORE SWAP1 DUP2 PUSH0 DUP3 ADD SLOAD DUP2 MSTORE PUSH1 0x20 ADD PUSH1 0x1 DUP3 ADD SLOAD DUP2 MSTORE PUSH1 0x20 ADD PUSH1 0x2 DUP3 ADD DUP1 SLOAD PUSH2 0xD57 SWAP1 PUSH2 0x2568 JUMP JUMPDEST DUP1 PUSH1 0x1F ADD PUSH1 0x20 DUP1 SWAP2 DIV MUL PUSH1 0x20 ADD PUSH1 0x40 MLOAD SWAP1 DUP2 ADD PUSH1 0x40 MSTORE DUP1 SWAP3 SWAP2 SWAP1 DUP2 DUP2 MSTORE PUSH1 0x20 ADD DUP3 DUP1 SLOAD PUSH2 0xD83 SWAP1 PUSH2 0x2568 JUMP JUMPDEST DUP1 ISZERO PUSH2 0xDCE JUMPI DUP1 PUSH1 0x1F LT PUSH2 0xDA5 JUMPI PUSH2 0x100 DUP1 DUP4 SLOAD DIV MUL DUP4 MSTORE SWAP2 PUSH1 0x20 ADD SWAP2 PUSH2 0xDCE JUMP JUMPDEST DUP3 ADD SWAP2 SWAP1 PUSH0 MSTORE PUSH1 0x20 PUSH0 KECCAK256 SWAP1 JUMPDEST DUP2 SLOAD DUP2 MSTORE SWAP1 PUSH1 0x1 ADD SWAP1 PUSH1 0x20 ADD DUP1 DUP4 GT PUSH2 0xDB1 JUMPI DUP3 SWAP1 SUB PUSH1 0x1F AND DUP3 ADD SWAP2 JUMPDEST POP POP POP POP POP DUP2 MSTORE PUSH1 0x20 ADD PUSH1 0x3 DUP3 ADD PUSH0 SWAP1 SLOAD SWAP1 PUSH2 0x100 EXP SWAP1 DIV PUSH20 0xFFFFFFFFFFFFFFFFFFFFFFFFFFFFFFFFFFFFFFFF AND PUSH20 0xFFFFFFFFFFFFFFFFFFFFFFFFFFFFFFFFFFFFFFFF AND PUSH20 0xFFFFFFFFFFFFFFFFFFFFFFFFFFFFFFFFFFFFFFFF AND DUP2 MSTORE POP POP SWAP1 POP DUP1 PUSH0 ADD MLOAD DUP2 PUSH1 0x20 ADD MLOAD DUP3 PUSH1 0x40 ADD MLOAD DUP4 PUSH1 0x60 ADD MLOAD PUSH1 0x40 MLOAD PUSH1 0x20 ADD PUSH2 0xE54 SWAP5 SWAP4 SWAP3 SWAP2 SWAP1 PUSH2 0x2693 JUMP JUMPDEST PUSH1 0x40 MLOAD PUSH1 0x20 DUP2 DUP4 SUB SUB DUP2 MSTORE SWAP1 PUSH1 0x40 MSTORE SWAP3 POP POP POP PUSH2 0xFC1 JUMP JUMPDEST PUSH2 0xEAB DUP4 PUSH1 0x40 MLOAD DUP1 PUSH1 0x40 ADD PUSH1 0x40 MSTORE DUP1 PUSH1 0xB DUP2 MSTORE PUSH1 0x20 ADD PUSH32 0x676574436F6D6D656E7473000000000000000000000000000000000000000000 DUP2 MSTORE POP PUSH2 0x18FC JUMP JUMPDEST ISZERO PUSH2 0xF06 JUMPI PUSH0 DUP1 PUSH0 DUP5 DUP1 PUSH1 0x20 ADD SWAP1 MLOAD DUP2 ADD SWAP1 PUSH2 0xEC7 SWAP2 SWAP1 PUSH2 0x26DD JUMP JUMPDEST SWAP3 POP SWAP3 POP SWAP3 POP PUSH0 PUSH2 0xED9 DUP5 DUP5 DUP5 PUSH2 0x9B1 JUMP JUMPDEST SWAP1 POP DUP1 PUSH1 0x40 MLOAD PUSH1 0x20 ADD PUSH2 0xEEC SWAP2 SWAP1 PUSH2 0x1F2D JUMP JUMPDEST PUSH1 0x40 MLOAD PUSH1 0x20 DUP2 DUP4 SUB SUB DUP2 MSTORE SWAP1 PUSH1 0x40 MSTORE SWAP5 POP POP POP POP POP PUSH2 0xFC1 JUMP JUMPDEST PUSH2 0xF45 DUP4 PUSH1 0x40 MLOAD DUP1 PUSH1 0x40 ADD PUSH1 0x40 MSTORE DUP1 PUSH1 0x14 DUP2 MSTORE PUSH1 0x20 ADD PUSH32 0x676574436F6D6D656E7473427941646472657373000000000000000000000000 DUP2 MSTORE POP PUSH2 0x18FC JUMP JUMPDEST ISZERO PUSH2 0xFA0 JUMPI PUSH0 DUP1 PUSH0 DUP5 DUP1 PUSH1 0x20 ADD SWAP1 MLOAD DUP2 ADD SWAP1 PUSH2 0xF61 SWAP2 SWAP1 PUSH2 0x2768 JUMP JUMPDEST SWAP3 POP SWAP3 POP SWAP3 POP PUSH0 PUSH2 0xF73 DUP5 DUP5 DUP5 PUSH2 0x4AA JUMP JUMPDEST SWAP1 POP DUP1 PUSH1 0x40 MLOAD PUSH1 0x20 ADD PUSH2 0xF86 SWAP2 SWAP1 PUSH2 0x1F2D JUMP JUMPDEST PUSH1 0x40 MLOAD PUSH1 0x20 DUP2 DUP4 SUB SUB DUP2 MSTORE SWAP1 PUSH1 0x40 MSTORE SWAP5 POP POP POP POP POP PUSH2 0xFC1 JUMP JUMPDEST PUSH1 0x40 MLOAD PUSH1 0x20 ADD PUSH2 0xFAF SWAP1 PUSH2 0x27DB JUMP JUMPDEST PUSH1 0x40 MLOAD PUSH1 0x20 DUP2 DUP4 SUB SUB DUP2 MSTORE SWAP1 PUSH1 0x40 MSTORE SWAP1 POP JUMPDEST SWAP3 SWAP2 POP POP JUMP JUMPDEST PUSH1 0x60 PUSH2 0x1008 DUP4 PUSH1 0x40 MLOAD DUP1 PUSH1 0x40 ADD PUSH1 0x40 MSTORE DUP1 PUSH1 0xB DUP2 MSTORE PUSH1 0x20 ADD PUSH32 0x706F7374436F6D6D656E74000000000000000000000000000000000000000000 DUP2 MSTORE POP PUSH2 0x18FC JUMP JUMPDEST ISZERO PUSH2 0x1283 JUMPI PUSH0 DUP1 PUSH0 DUP5 DUP1 PUSH1 0x20 ADD SWAP1 MLOAD DUP2 ADD SWAP1 PUSH2 0x1024 SWAP2 SWAP1 PUSH2 0x2867 JUMP JUMPDEST SWAP3 POP SWAP3 POP SWAP3 POP PUSH0 PUSH2 0x103A DUP5 PUSH1 0x3 SLOAD DUP6 DUP6 CALLER PUSH2 0x42B JUMP JUMPDEST SWAP1 POP PUSH0 PUSH1 0x4 PUSH0 DUP7 DUP2 MSTORE PUSH1 0x20 ADD SWAP1 DUP2 MSTORE PUSH1 0x20 ADD PUSH0 KECCAK256 SLOAD SWAP1 POP PUSH0 PUSH1 0x5 PUSH0 CALLER PUSH20 0xFFFFFFFFFFFFFFFFFFFFFFFFFFFFFFFFFFFFFFFF AND PUSH20 0xFFFFFFFFFFFFFFFFFFFFFFFFFFFFFFFFFFFFFFFF AND DUP2 MSTORE PUSH1 0x20 ADD SWAP1 DUP2 MSTORE PUSH1 0x20 ADD PUSH0 KECCAK256 SLOAD SWAP1 POP PUSH1 0x40 MLOAD DUP1 PUSH1 0x80 ADD PUSH1 0x40 MSTORE DUP1 DUP8 DUP2 MSTORE PUSH1 0x20 ADD PUSH1 0x3 SLOAD DUP2 MSTORE PUSH1 0x20 ADD DUP5 DUP2 MSTORE PUSH1 0x20 ADD CALLER PUSH20 0xFFFFFFFFFFFFFFFFFFFFFFFFFFFFFFFFFFFFFFFF AND DUP2 MSTORE POP PUSH1 0x8 PUSH0 PUSH1 0x3 SLOAD DUP2 MSTORE PUSH1 0x20 ADD SWAP1 DUP2 MSTORE PUSH1 0x20 ADD PUSH0 KECCAK256 PUSH0 DUP3 ADD MLOAD DUP2 PUSH0 ADD SSTORE PUSH1 0x20 DUP3 ADD MLOAD DUP2 PUSH1 0x1 ADD SSTORE PUSH1 0x40 DUP3 ADD MLOAD DUP2 PUSH1 0x2 ADD SWAP1 DUP2 PUSH2 0x1105 SWAP2 SWAP1 PUSH2 0x2A8C JUMP JUMPDEST POP PUSH1 0x60 DUP3 ADD MLOAD DUP2 PUSH1 0x3 ADD PUSH0 PUSH2 0x100 EXP DUP2 SLOAD DUP2 PUSH20 0xFFFFFFFFFFFFFFFFFFFFFFFFFFFFFFFFFFFFFFFF MUL NOT AND SWAP1 DUP4 PUSH20 0xFFFFFFFFFFFFFFFFFFFFFFFFFFFFFFFFFFFFFFFF AND MUL OR SWAP1 SSTORE POP SWAP1 POP POP PUSH1 0x3 SLOAD PUSH1 0x6 PUSH0 DUP9 DUP2 MSTORE PUSH1 0x20 ADD SWAP1 DUP2 MSTORE PUSH1 0x20 ADD PUSH0 KECCAK256 PUSH0 DUP5 DUP2 MSTORE PUSH1 0x20 ADD SWAP1 DUP2 MSTORE PUSH1 0x20 ADD PUSH0 KECCAK256 DUP2 SWAP1 SSTORE POP PUSH1 0x3 SLOAD PUSH1 0x7 PUSH0 CALLER PUSH20 0xFFFFFFFFFFFFFFFFFFFFFFFFFFFFFFFFFFFFFFFF AND PUSH20 0xFFFFFFFFFFFFFFFFFFFFFFFFFFFFFFFFFFFFFFFF AND DUP2 MSTORE PUSH1 0x20 ADD SWAP1 DUP2 MSTORE PUSH1 0x20 ADD PUSH0 KECCAK256 PUSH0 DUP4 DUP2 MSTORE PUSH1 0x20 ADD SWAP1 DUP2 MSTORE PUSH1 0x20 ADD PUSH0 KECCAK256 DUP2 SWAP1 SSTORE POP PUSH1 0x4 PUSH0 DUP8 DUP2 MSTORE PUSH1 0x20 ADD SWAP1 DUP2 MSTORE PUSH1 0x20 ADD PUSH0 KECCAK256 PUSH0 DUP2 SLOAD DUP1 SWAP3 SWAP2 SWAP1 PUSH2 0x11EA SWAP1 PUSH2 0x2598 JUMP JUMPDEST SWAP2 SWAP1 POP SSTORE POP PUSH1 0x5 PUSH0 CALLER PUSH20 0xFFFFFFFFFFFFFFFFFFFFFFFFFFFFFFFFFFFFFFFF AND PUSH20 0xFFFFFFFFFFFFFFFFFFFFFFFFFFFFFFFFFFFFFFFF AND DUP2 MSTORE PUSH1 0x20 ADD SWAP1 DUP2 MSTORE PUSH1 0x20 ADD PUSH0 KECCAK256 PUSH0 DUP2 SLOAD DUP1 SWAP3 SWAP2 SWAP1 PUSH2 0x123C SWAP1 PUSH2 0x2598 JUMP JUMPDEST SWAP2 SWAP1 POP SSTORE POP PUSH1 0x3 PUSH0 DUP2 SLOAD DUP1 SWAP3 SWAP2 SWAP1 PUSH2 0x1253 SWAP1 PUSH2 0x2598 JUMP JUMPDEST SWAP2 SWAP1 POP SSTORE POP PUSH1 0x40 MLOAD PUSH1 0x20 ADD PUSH2 0x1267 SWAP1 PUSH2 0x27DB JUMP JUMPDEST PUSH1 0x40 MLOAD PUSH1 0x20 DUP2 DUP4 SUB SUB DUP2 MSTORE SWAP1 PUSH1 0x40 MSTORE SWAP7 POP POP POP POP POP POP POP PUSH2 0x12A4 JUMP JUMPDEST PUSH1 0x40 MLOAD PUSH1 0x20 ADD PUSH2 0x1292 SWAP1 PUSH2 0x27DB JUMP JUMPDEST PUSH1 0x40 MLOAD PUSH1 0x20 DUP2 DUP4 SUB SUB DUP2 MSTORE SWAP1 PUSH1 0x40 MSTORE SWAP1 POP JUMPDEST SWAP3 SWAP2 POP POP JUMP JUMPDEST PUSH1 0x60 DUP3 DUP3 PUSH1 0x40 MLOAD PUSH1 0x20 ADD PUSH2 0x12BF SWAP3 SWAP2 SWAP1 PUSH2 0x2B5B JUMP JUMPDEST PUSH1 0x40 MLOAD PUSH1 0x20 DUP2 DUP4 SUB SUB DUP2 MSTORE SWAP1 PUSH1 0x40 MSTORE SWAP1 POP SWAP3 SWAP2 POP POP JUMP JUMPDEST PUSH1 0x60 PUSH0 DUP1 DUP4 PUSH1 0x3 DUP2 GT ISZERO PUSH2 0x12ED JUMPI PUSH2 0x12EC PUSH2 0x197D JUMP JUMPDEST JUMPDEST PUSH1 0x3 DUP2 GT ISZERO PUSH2 0x12FF JUMPI PUSH2 0x12FE PUSH2 0x197D JUMP JUMPDEST JUMPDEST DUP2 MSTORE PUSH1 0x20 ADD SWAP1 DUP2 MSTORE PUSH1 0x20 ADD PUSH0 KECCAK256 DUP1 SLOAD DUP1 PUSH1 0x20 MUL PUSH1 0x20 ADD PUSH1 0x40 MLOAD SWAP1 DUP2 ADD PUSH1 0x40 MSTORE DUP1 SWAP3 SWAP2 SWAP1 DUP2 DUP2 MSTORE PUSH1 0x20 ADD PUSH0 SWAP1 JUMPDEST DUP3 DUP3 LT ISZERO PUSH2 0x13D3 JUMPI DUP4 DUP3 SWAP1 PUSH0 MSTORE PUSH1 0x20 PUSH0 KECCAK256 ADD DUP1 SLOAD PUSH2 0x1348 SWAP1 PUSH2 0x2568 JUMP JUMPDEST DUP1 PUSH1 0x1F ADD PUSH1 0x20 DUP1 SWAP2 DIV MUL PUSH1 0x20 ADD PUSH1 0x40 MLOAD SWAP1 DUP2 ADD PUSH1 0x40 MSTORE DUP1 SWAP3 SWAP2 SWAP1 DUP2 DUP2 MSTORE PUSH1 0x20 ADD DUP3 DUP1 SLOAD PUSH2 0x1374 SWAP1 PUSH2 0x2568 JUMP JUMPDEST DUP1 ISZERO PUSH2 0x13BF JUMPI DUP1 PUSH1 0x1F LT PUSH2 0x1396 JUMPI PUSH2 0x100 DUP1 DUP4 SLOAD DIV MUL DUP4 MSTORE SWAP2 PUSH1 0x20 ADD SWAP2 PUSH2 0x13BF JUMP JUMPDEST DUP3 ADD SWAP2 SWAP1 PUSH0 MSTORE PUSH1 0x20 PUSH0 KECCAK256 SWAP1 JUMPDEST DUP2 SLOAD DUP2 MSTORE SWAP1 PUSH1 0x1 ADD SWAP1 PUSH1 0x20 ADD DUP1 DUP4 GT PUSH2 0x13A2 JUMPI DUP3 SWAP1 SUB PUSH1 0x1F AND DUP3 ADD SWAP2 JUMPDEST POP POP POP POP POP DUP2 MSTORE PUSH1 0x20 ADD SWAP1 PUSH1 0x1 ADD SWAP1 PUSH2 0x132B JUMP JUMPDEST POP POP POP POP SWAP1 POP SWAP2 SWAP1 POP JUMP JUMPDEST PUSH1 0x60 PUSH0 DUP3 SUB PUSH2 0x1424 JUMPI PUSH1 0x40 MLOAD DUP1 PUSH1 0x40 ADD PUSH1 0x40 MSTORE DUP1 PUSH1 0x1 DUP2 MSTORE PUSH1 0x20 ADD PUSH32 0x3000000000000000000000000000000000000000000000000000000000000000 DUP2 MSTORE POP SWAP1 POP PUSH2 0x1532 JUMP JUMPDEST PUSH0 DUP3 SWAP1 POP PUSH0 JUMPDEST PUSH0 DUP3 EQ PUSH2 0x1453 JUMPI DUP1 DUP1 PUSH2 0x143C SWAP1 PUSH2 0x2598 JUMP JUMPDEST SWAP2 POP POP PUSH1 0xA DUP3 PUSH2 0x144C SWAP2 SWAP1 PUSH2 0x2497 JUMP JUMPDEST SWAP2 POP PUSH2 0x142A JUMP JUMPDEST PUSH0 DUP2 PUSH8 0xFFFFFFFFFFFFFFFF DUP2 GT ISZERO PUSH2 0x146E JUMPI PUSH2 0x146D PUSH2 0x1B13 JUMP JUMPDEST JUMPDEST PUSH1 0x40 MLOAD SWAP1 DUP1 DUP3 MSTORE DUP1 PUSH1 0x1F ADD PUSH1 0x1F NOT AND PUSH1 0x20 ADD DUP3 ADD PUSH1 0x40 MSTORE DUP1 ISZERO PUSH2 0x14A0 JUMPI DUP2 PUSH1 0x20 ADD PUSH1 0x1 DUP3 MUL DUP1 CALLDATASIZE DUP4 CALLDATACOPY DUP1 DUP3 ADD SWAP2 POP POP SWAP1 POP JUMPDEST POP SWAP1 POP JUMPDEST PUSH0 DUP6 EQ PUSH2 0x152B JUMPI PUSH1 0x1 DUP3 PUSH2 0x14B8 SWAP2 SWAP1 PUSH2 0x2437 JUMP JUMPDEST SWAP2 POP PUSH1 0xA DUP6 PUSH2 0x14C7 SWAP2 SWAP1 PUSH2 0x2B90 JUMP JUMPDEST PUSH1 0x30 PUSH2 0x14D3 SWAP2 SWAP1 PUSH2 0x2508 JUMP JUMPDEST PUSH1 0xF8 SHL DUP2 DUP4 DUP2 MLOAD DUP2 LT PUSH2 0x14E9 JUMPI PUSH2 0x14E8 PUSH2 0x22CB JUMP JUMPDEST JUMPDEST PUSH1 0x20 ADD ADD SWAP1 PUSH31 0xFFFFFFFFFFFFFFFFFFFFFFFFFFFFFFFFFFFFFFFFFFFFFFFFFFFFFFFFFFFFFF NOT AND SWAP1 DUP2 PUSH0 BYTE SWAP1 MSTORE8 POP PUSH1 0xA DUP6 PUSH2 0x1524 SWAP2 SWAP1 PUSH2 0x2497 JUMP JUMPDEST SWAP5 POP PUSH2 0x14A4 JUMP JUMPDEST DUP1 SWAP4 POP POP POP POP JUMPDEST SWAP2 SWAP1 POP JUMP JUMPDEST PUSH1 0x60 PUSH0 DUP3 MLOAD SWAP1 POP PUSH0 DUP2 SUB PUSH2 0x155C JUMPI PUSH1 0x40 MLOAD DUP1 PUSH1 0x20 ADD PUSH1 0x40 MSTORE DUP1 PUSH0 DUP2 MSTORE POP SWAP2 POP POP PUSH2 0x16C2 JUMP JUMPDEST PUSH0 PUSH1 0x3 PUSH1 0x2 DUP4 PUSH2 0x156C SWAP2 SWAP1 PUSH2 0x2508 JUMP JUMPDEST PUSH2 0x1576 SWAP2 SWAP1 PUSH2 0x2497 JUMP JUMPDEST PUSH1 0x4 PUSH2 0x1582 SWAP2 SWAP1 PUSH2 0x24C7 JUMP JUMPDEST SWAP1 POP PUSH0 PUSH1 0x20 DUP3 PUSH2 0x1592 SWAP2 SWAP1 PUSH2 0x2508 JUMP JUMPDEST PUSH8 0xFFFFFFFFFFFFFFFF DUP2 GT ISZERO PUSH2 0x15AB JUMPI PUSH2 0x15AA PUSH2 0x1B13 JUMP JUMPDEST JUMPDEST PUSH1 0x40 MLOAD SWAP1 DUP1 DUP3 MSTORE DUP1 PUSH1 0x1F ADD PUSH1 0x1F NOT AND PUSH1 0x20 ADD DUP3 ADD PUSH1 0x40 MSTORE DUP1 ISZERO PUSH2 0x15DD JUMPI DUP2 PUSH1 0x20 ADD PUSH1 0x1 DUP3 MUL DUP1 CALLDATASIZE DUP4 CALLDATACOPY DUP1 DUP3 ADD SWAP2 POP POP SWAP1 POP JUMPDEST POP SWAP1 POP PUSH0 PUSH1 0x40 MLOAD DUP1 PUSH1 0x60 ADD PUSH1 0x40 MSTORE DUP1 PUSH1 0x40 DUP2 MSTORE PUSH1 0x20 ADD PUSH2 0x2C50 PUSH1 0x40 SWAP2 CODECOPY SWAP1 POP PUSH1 0x1 DUP2 ADD PUSH1 0x20 DUP4 ADD PUSH0 JUMPDEST DUP7 DUP2 LT ISZERO PUSH2 0x167F JUMPI PUSH1 0x3 DUP2 ADD SWAP1 POP PUSH3 0xFFFFFF DUP2 DUP11 ADD MLOAD AND PUSH1 0x3F DUP2 PUSH1 0x12 SHR AND DUP5 ADD MLOAD DUP1 PUSH1 0x8 SHL SWAP1 POP PUSH1 0xFF PUSH1 0x3F DUP4 PUSH1 0xC SHR AND DUP7 ADD MLOAD AND DUP2 ADD SWAP1 POP DUP1 PUSH1 0x8 SHL SWAP1 POP PUSH1 0xFF PUSH1 0x3F DUP4 PUSH1 0x6 SHR AND DUP7 ADD MLOAD AND DUP2 ADD SWAP1 POP DUP1 PUSH1 0x8 SHL SWAP1 POP PUSH1 0xFF PUSH1 0x3F DUP4 AND DUP7 ADD MLOAD AND DUP2 ADD SWAP1 POP DUP1 PUSH1 0xE0 SHL SWAP1 POP DUP1 DUP5 MSTORE PUSH1 0x4 DUP5 ADD SWAP4 POP POP POP PUSH2 0x1606 JUMP JUMPDEST POP PUSH1 0x3 DUP7 MOD PUSH1 0x1 DUP2 EQ PUSH2 0x1699 JUMPI PUSH1 0x2 DUP2 EQ PUSH2 0x16A9 JUMPI PUSH2 0x16B4 JUMP JUMPDEST PUSH2 0x3D3D PUSH1 0xF0 SHL PUSH1 0x2 DUP4 SUB MSTORE PUSH2 0x16B4 JUMP JUMPDEST PUSH1 0x3D PUSH1 0xF8 SHL PUSH1 0x1 DUP4 SUB MSTORE JUMPDEST POP DUP5 DUP5 MSTORE POP POP DUP2 SWAP5 POP POP POP POP POP JUMPDEST SWAP2 SWAP1 POP JUMP JUMPDEST PUSH1 0x60 PUSH0 PUSH1 0x2 DUP4 PUSH1 0x2 PUSH2 0x16D9 SWAP2 SWAP1 PUSH2 0x24C7 JUMP JUMPDEST PUSH2 0x16E3 SWAP2 SWAP1 PUSH2 0x2508 JUMP JUMPDEST PUSH8 0xFFFFFFFFFFFFFFFF DUP2 GT ISZERO PUSH2 0x16FC JUMPI PUSH2 0x16FB PUSH2 0x1B13 JUMP JUMPDEST JUMPDEST PUSH1 0x40 MLOAD SWAP1 DUP1 DUP3 MSTORE DUP1 PUSH1 0x1F ADD PUSH1 0x1F NOT AND PUSH1 0x20 ADD DUP3 ADD PUSH1 0x40 MSTORE DUP1 ISZERO PUSH2 0x172E JUMPI DUP2 PUSH1 0x20 ADD PUSH1 0x1 DUP3 MUL DUP1 CALLDATASIZE DUP4 CALLDATACOPY DUP1 DUP3 ADD SWAP2 POP POP SWAP1 POP JUMPDEST POP SWAP1 POP PUSH32 0x3000000000000000000000000000000000000000000000000000000000000000 DUP2 PUSH0 DUP2 MLOAD DUP2 LT PUSH2 0x1765 JUMPI PUSH2 0x1764 PUSH2 0x22CB JUMP JUMPDEST JUMPDEST PUSH1 0x20 ADD ADD SWAP1 PUSH31 0xFFFFFFFFFFFFFFFFFFFFFFFFFFFFFFFFFFFFFFFFFFFFFFFFFFFFFFFFFFFFFF NOT AND SWAP1 DUP2 PUSH0 BYTE SWAP1 MSTORE8 POP PUSH32 0x7800000000000000000000000000000000000000000000000000000000000000 DUP2 PUSH1 0x1 DUP2 MLOAD DUP2 LT PUSH2 0x17C8 JUMPI PUSH2 0x17C7 PUSH2 0x22CB JUMP JUMPDEST JUMPDEST PUSH1 0x20 ADD ADD SWAP1 PUSH31 0xFFFFFFFFFFFFFFFFFFFFFFFFFFFFFFFFFFFFFFFFFFFFFFFFFFFFFFFFFFFFFF NOT AND SWAP1 DUP2 PUSH0 BYTE SWAP1 MSTORE8 POP PUSH0 PUSH1 0x1 DUP5 PUSH1 0x2 PUSH2 0x1806 SWAP2 SWAP1 PUSH2 0x24C7 JUMP JUMPDEST PUSH2 0x1810 SWAP2 SWAP1 PUSH2 0x2508 JUMP JUMPDEST SWAP1 POP JUMPDEST PUSH1 0x1 DUP2 GT ISZERO PUSH2 0x18AF JUMPI PUSH32 0x3031323334353637383961626364656600000000000000000000000000000000 PUSH1 0xF DUP7 AND PUSH1 0x10 DUP2 LT PUSH2 0x1852 JUMPI PUSH2 0x1851 PUSH2 0x22CB JUMP JUMPDEST JUMPDEST BYTE PUSH1 0xF8 SHL DUP3 DUP3 DUP2 MLOAD DUP2 LT PUSH2 0x1869 JUMPI PUSH2 0x1868 PUSH2 0x22CB JUMP JUMPDEST JUMPDEST PUSH1 0x20 ADD ADD SWAP1 PUSH31 0xFFFFFFFFFFFFFFFFFFFFFFFFFFFFFFFFFFFFFFFFFFFFFFFFFFFFFFFFFFFFFF NOT AND SWAP1 DUP2 PUSH0 BYTE SWAP1 MSTORE8 POP PUSH1 0x4 DUP6 SWAP1 SHR SWAP5 POP DUP1 PUSH2 0x18A8 SWAP1 PUSH2 0x2BC0 JUMP JUMPDEST SWAP1 POP PUSH2 0x1813 JUMP JUMPDEST POP PUSH0 DUP5 EQ PUSH2 0x18F2 JUMPI PUSH1 0x40 MLOAD PUSH32 0x8C379A000000000000000000000000000000000000000000000000000000000 DUP2 MSTORE PUSH1 0x4 ADD PUSH2 0x18E9 SWAP1 PUSH2 0x2C31 JUMP JUMPDEST PUSH1 0x40 MLOAD DUP1 SWAP2 SUB SWAP1 REVERT JUMPDEST DUP1 SWAP2 POP POP SWAP3 SWAP2 POP POP JUMP JUMPDEST PUSH0 DUP2 PUSH1 0x40 MLOAD PUSH1 0x20 ADD PUSH2 0x190E SWAP2 SWAP1 PUSH2 0x262F JUMP JUMPDEST PUSH1 0x40 MLOAD PUSH1 0x20 DUP2 DUP4 SUB SUB DUP2 MSTORE SWAP1 PUSH1 0x40 MSTORE DUP1 MLOAD SWAP1 PUSH1 0x20 ADD KECCAK256 DUP4 PUSH1 0x40 MLOAD PUSH1 0x20 ADD PUSH2 0x1935 SWAP2 SWAP1 PUSH2 0x262F JUMP JUMPDEST PUSH1 0x40 MLOAD PUSH1 0x20 DUP2 DUP4 SUB SUB DUP2 MSTORE SWAP1 PUSH1 0x40 MSTORE DUP1 MLOAD SWAP1 PUSH1 0x20 ADD KECCAK256 EQ SWAP1 POP SWAP3 SWAP2 POP POP JUMP JUMPDEST PUSH0 DUP2 MLOAD SWAP1 POP SWAP2 SWAP1 POP JUMP JUMPDEST PUSH0 DUP3 DUP3 MSTORE PUSH1 0x20 DUP3 ADD SWAP1 POP SWAP3 SWAP2 POP POP JUMP JUMPDEST PUSH0 DUP2 SWAP1 POP PUSH1 0x20 DUP3 ADD SWAP1 POP SWAP2 SWAP1 POP JUMP JUMPDEST PUSH32 0x4E487B7100000000000000000000000000000000000000000000000000000000 PUSH0 MSTORE PUSH1 0x21 PUSH1 0x4 MSTORE PUSH1 0x24 PUSH0 REVERT JUMPDEST PUSH1 0x4 DUP2 LT PUSH2 0x19BB JUMPI PUSH2 0x19BA PUSH2 0x197D JUMP JUMPDEST JUMPDEST POP JUMP JUMPDEST PUSH0 DUP2 SWAP1 POP PUSH2 0x19CB DUP3 PUSH2 0x19AA JUMP JUMPDEST SWAP2 SWAP1 POP JUMP JUMPDEST PUSH0 PUSH2 0x19DA DUP3 PUSH2 0x19BE JUMP JUMPDEST SWAP1 POP SWAP2 SWAP1 POP JUMP JUMPDEST PUSH2 0x19EA DUP2 PUSH2 0x19D0 JUMP JUMPDEST DUP3 MSTORE POP POP JUMP JUMPDEST PUSH0 PUSH2 0x19FB DUP4 DUP4 PUSH2 0x19E1 JUMP JUMPDEST PUSH1 0x20 DUP4 ADD SWAP1 POP SWAP3 SWAP2 POP POP JUMP JUMPDEST PUSH0 PUSH1 0x20 DUP3 ADD SWAP1 POP SWAP2 SWAP1 POP JUMP JUMPDEST PUSH0 PUSH2 0x1A1D DUP3 PUSH2 0x1954 JUMP JUMPDEST PUSH2 0x1A27 DUP2 DUP6 PUSH2 0x195E JUMP JUMPDEST SWAP4 POP PUSH2 0x1A32 DUP4 PUSH2 0x196E JUMP JUMPDEST DUP1 PUSH0 JUMPDEST DUP4 DUP2 LT ISZERO PUSH2 0x1A62 JUMPI DUP2 MLOAD PUSH2 0x1A49 DUP9 DUP3 PUSH2 0x19F0 JUMP JUMPDEST SWAP8 POP PUSH2 0x1A54 DUP4 PUSH2 0x1A07 JUMP JUMPDEST SWAP3 POP POP PUSH1 0x1 DUP2 ADD SWAP1 POP PUSH2 0x1A35 JUMP JUMPDEST POP DUP6 SWAP4 POP POP POP POP SWAP3 SWAP2 POP POP JUMP JUMPDEST PUSH0 PUSH1 0x20 DUP3 ADD SWAP1 POP DUP2 DUP2 SUB PUSH0 DUP4 ADD MSTORE PUSH2 0x1A87 DUP2 DUP5 PUSH2 0x1A13 JUMP JUMPDEST SWAP1 POP SWAP3 SWAP2 POP POP JUMP JUMPDEST PUSH0 DUP2 SWAP1 POP SWAP2 SWAP1 POP JUMP JUMPDEST PUSH2 0x1AA1 DUP2 PUSH2 0x1A8F JUMP JUMPDEST DUP3 MSTORE POP POP JUMP JUMPDEST PUSH0 PUSH1 0x20 DUP3 ADD SWAP1 POP PUSH2 0x1ABA PUSH0 DUP4 ADD DUP5 PUSH2 0x1A98 JUMP JUMPDEST SWAP3 SWAP2 POP POP JUMP JUMPDEST PUSH0 PUSH1 0x40 MLOAD SWAP1 POP SWAP1 JUMP JUMPDEST PUSH0 DUP1 REVERT JUMPDEST PUSH0 DUP1 REVERT JUMPDEST PUSH2 0x1ADA DUP2 PUSH2 0x1A8F JUMP JUMPDEST DUP2 EQ PUSH2 0x1AE4 JUMPI PUSH0 DUP1 REVERT JUMPDEST POP JUMP JUMPDEST PUSH0 DUP2 CALLDATALOAD SWAP1 POP PUSH2 0x1AF5 DUP2 PUSH2 0x1AD1 JUMP JUMPDEST SWAP3 SWAP2 POP POP JUMP JUMPDEST PUSH0 DUP1 REVERT JUMPDEST PUSH0 DUP1 REVERT JUMPDEST PUSH0 PUSH1 0x1F NOT PUSH1 0x1F DUP4 ADD AND SWAP1 POP SWAP2 SWAP1 POP JUMP JUMPDEST PUSH32 0x4E487B7100000000000000000000000000000000000000000000000000000000 PUSH0 MSTORE PUSH1 0x41 PUSH1 0x4 MSTORE PUSH1 0x24 PUSH0 REVERT JUMPDEST PUSH2 0x1B49 DUP3 PUSH2 0x1B03 JUMP JUMPDEST DUP2 ADD DUP2 DUP2 LT PUSH8 0xFFFFFFFFFFFFFFFF DUP3 GT OR ISZERO PUSH2 0x1B68 JUMPI PUSH2 0x1B67 PUSH2 0x1B13 JUMP JUMPDEST JUMPDEST DUP1 PUSH1 0x40 MSTORE POP POP POP JUMP JUMPDEST PUSH0 PUSH2 0x1B7A PUSH2 0x1AC0 JUMP JUMPDEST SWAP1 POP PUSH2 0x1B86 DUP3 DUP3 PUSH2 0x1B40 JUMP JUMPDEST SWAP2 SWAP1 POP JUMP JUMPDEST PUSH0 PUSH8 0xFFFFFFFFFFFFFFFF DUP3 GT ISZERO PUSH2 0x1BA5 JUMPI PUSH2 0x1BA4 PUSH2 0x1B13 JUMP JUMPDEST JUMPDEST PUSH2 0x1BAE DUP3 PUSH2 0x1B03 JUMP JUMPDEST SWAP1 POP PUSH1 0x20 DUP2 ADD SWAP1 POP SWAP2 SWAP1 POP JUMP JUMPDEST DUP3 DUP2 DUP4 CALLDATACOPY PUSH0 DUP4 DUP4 ADD MSTORE POP POP POP JUMP JUMPDEST PUSH0 PUSH2 0x1BDB PUSH2 0x1BD6 DUP5 PUSH2 0x1B8B JUMP JUMPDEST PUSH2 0x1B71 JUMP JUMPDEST SWAP1 POP DUP3 DUP2 MSTORE PUSH1 0x20 DUP2 ADD DUP5 DUP5 DUP5 ADD GT ISZERO PUSH2 0x1BF7 JUMPI PUSH2 0x1BF6 PUSH2 0x1AFF JUMP JUMPDEST JUMPDEST PUSH2 0x1C02 DUP5 DUP3 DUP6 PUSH2 0x1BBB JUMP JUMPDEST POP SWAP4 SWAP3 POP POP POP JUMP JUMPDEST PUSH0 DUP3 PUSH1 0x1F DUP4 ADD SLT PUSH2 0x1C1E JUMPI PUSH2 0x1C1D PUSH2 0x1AFB JUMP JUMPDEST JUMPDEST DUP2 CALLDATALOAD PUSH2 0x1C2E DUP5 DUP3 PUSH1 0x20 DUP7 ADD PUSH2 0x1BC9 JUMP JUMPDEST SWAP2 POP POP SWAP3 SWAP2 POP POP JUMP JUMPDEST PUSH0 PUSH20 0xFFFFFFFFFFFFFFFFFFFFFFFFFFFFFFFFFFFFFFFF DUP3 AND SWAP1 POP SWAP2 SWAP1 POP JUMP JUMPDEST PUSH0 PUSH2 0x1C60 DUP3 PUSH2 0x1C37 JUMP JUMPDEST SWAP1 POP SWAP2 SWAP1 POP JUMP JUMPDEST PUSH2 0x1C70 DUP2 PUSH2 0x1C56 JUMP JUMPDEST DUP2 EQ PUSH2 0x1C7A JUMPI PUSH0 DUP1 REVERT JUMPDEST POP JUMP JUMPDEST PUSH0 DUP2 CALLDATALOAD SWAP1 POP PUSH2 0x1C8B DUP2 PUSH2 0x1C67 JUMP JUMPDEST SWAP3 SWAP2 POP POP JUMP JUMPDEST PUSH0 DUP1 PUSH0 DUP1 PUSH0 PUSH1 0xA0 DUP7 DUP9 SUB SLT ISZERO PUSH2 0x1CAA JUMPI PUSH2 0x1CA9 PUSH2 0x1AC9 JUMP JUMPDEST JUMPDEST PUSH0 PUSH2 0x1CB7 DUP9 DUP3 DUP10 ADD PUSH2 0x1AE7 JUMP JUMPDEST SWAP6 POP POP PUSH1 0x20 PUSH2 0x1CC8 DUP9 DUP3 DUP10 ADD PUSH2 0x1AE7 JUMP JUMPDEST SWAP5 POP POP PUSH1 0x40 DUP7 ADD CALLDATALOAD PUSH8 0xFFFFFFFFFFFFFFFF DUP2 GT ISZERO PUSH2 0x1CE9 JUMPI PUSH2 0x1CE8 PUSH2 0x1ACD JUMP JUMPDEST JUMPDEST PUSH2 0x1CF5 DUP9 DUP3 DUP10 ADD PUSH2 0x1C0A JUMP JUMPDEST SWAP4 POP POP PUSH1 0x60 DUP7 ADD CALLDATALOAD PUSH8 0xFFFFFFFFFFFFFFFF DUP2 GT ISZERO PUSH2 0x1D16 JUMPI PUSH2 0x1D15 PUSH2 0x1ACD JUMP JUMPDEST JUMPDEST PUSH2 0x1D22 DUP9 DUP3 DUP10 ADD PUSH2 0x1C0A JUMP JUMPDEST SWAP3 POP POP PUSH1 0x80 PUSH2 0x1D33 DUP9 DUP3 DUP10 ADD PUSH2 0x1C7D JUMP JUMPDEST SWAP2 POP POP SWAP3 SWAP6 POP SWAP3 SWAP6 SWAP1 SWAP4 POP JUMP JUMPDEST PUSH0 DUP2 MLOAD SWAP1 POP SWAP2 SWAP1 POP JUMP JUMPDEST PUSH0 DUP3 DUP3 MSTORE PUSH1 0x20 DUP3 ADD SWAP1 POP SWAP3 SWAP2 POP POP JUMP JUMPDEST PUSH0 JUMPDEST DUP4 DUP2 LT ISZERO PUSH2 0x1D77 JUMPI DUP1 DUP3 ADD MLOAD DUP2 DUP5 ADD MSTORE PUSH1 0x20 DUP2 ADD SWAP1 POP PUSH2 0x1D5C JUMP JUMPDEST PUSH0 DUP5 DUP5 ADD MSTORE POP POP POP POP JUMP JUMPDEST PUSH0 PUSH2 0x1D8C DUP3 PUSH2 0x1D40 JUMP JUMPDEST PUSH2 0x1D96 DUP2 DUP6 PUSH2 0x1D4A JUMP JUMPDEST SWAP4 POP PUSH2 0x1DA6 DUP2 DUP6 PUSH1 0x20 DUP7 ADD PUSH2 0x1D5A JUMP JUMPDEST PUSH2 0x1DAF DUP2 PUSH2 0x1B03 JUMP JUMPDEST DUP5 ADD SWAP2 POP POP SWAP3 SWAP2 POP POP JUMP JUMPDEST PUSH0 PUSH1 0x20 DUP3 ADD SWAP1 POP DUP2 DUP2 SUB PUSH0 DUP4 ADD MSTORE PUSH2 0x1DD2 DUP2 DUP5 PUSH2 0x1D82 JUMP JUMPDEST SWAP1 POP SWAP3 SWAP2 POP POP JUMP JUMPDEST PUSH0 DUP1 PUSH0 PUSH1 0x60 DUP5 DUP7 SUB SLT ISZERO PUSH2 0x1DF1 JUMPI PUSH2 0x1DF0 PUSH2 0x1AC9 JUMP JUMPDEST JUMPDEST PUSH0 PUSH2 0x1DFE DUP7 DUP3 DUP8 ADD PUSH2 0x1C7D JUMP JUMPDEST SWAP4 POP POP PUSH1 0x20 PUSH2 0x1E0F DUP7 DUP3 DUP8 ADD PUSH2 0x1AE7 JUMP JUMPDEST SWAP3 POP POP PUSH1 0x40 PUSH2 0x1E20 DUP7 DUP3 DUP8 ADD PUSH2 0x1AE7 JUMP JUMPDEST SWAP2 POP POP SWAP3 POP SWAP3 POP SWAP3 JUMP JUMPDEST PUSH0 DUP2 MLOAD SWAP1 POP SWAP2 SWAP1 POP JUMP JUMPDEST PUSH0 DUP3 DUP3 MSTORE PUSH1 0x20 DUP3 ADD SWAP1 POP SWAP3 SWAP2 POP POP JUMP JUMPDEST PUSH0 DUP2 SWAP1 POP PUSH1 0x20 DUP3 ADD SWAP1 POP SWAP2 SWAP1 POP JUMP JUMPDEST PUSH0 DUP3 DUP3 MSTORE PUSH1 0x20 DUP3 ADD SWAP1 POP SWAP3 SWAP2 POP POP JUMP JUMPDEST PUSH0 PUSH2 0x1E6D DUP3 PUSH2 0x1D40 JUMP JUMPDEST PUSH2 0x1E77 DUP2 DUP6 PUSH2 0x1E53 JUMP JUMPDEST SWAP4 POP PUSH2 0x1E87 DUP2 DUP6 PUSH1 0x20 DUP7 ADD PUSH2 0x1D5A JUMP JUMPDEST PUSH2 0x1E90 DUP2 PUSH2 0x1B03 JUMP JUMPDEST DUP5 ADD SWAP2 POP POP SWAP3 SWAP2 POP POP JUMP JUMPDEST PUSH0 PUSH2 0x1EA6 DUP4 DUP4 PUSH2 0x1E63 JUMP JUMPDEST SWAP1 POP SWAP3 SWAP2 POP POP JUMP JUMPDEST PUSH0 PUSH1 0x20 DUP3 ADD SWAP1 POP SWAP2 SWAP1 POP JUMP JUMPDEST PUSH0 PUSH2 0x1EC4 DUP3 PUSH2 0x1E2A JUMP JUMPDEST PUSH2 0x1ECE DUP2 DUP6 PUSH2 0x1E34 JUMP JUMPDEST SWAP4 POP DUP4 PUSH1 0x20 DUP3 MUL DUP6 ADD PUSH2 0x1EE0 DUP6 PUSH2 0x1E44 JUMP JUMPDEST DUP1 PUSH0 JUMPDEST DUP6 DUP2 LT ISZERO PUSH2 0x1F1B JUMPI DUP5 DUP5 SUB DUP10 MSTORE DUP2 MLOAD PUSH2 0x1EFC DUP6 DUP3 PUSH2 0x1E9B JUMP JUMPDEST SWAP5 POP PUSH2 0x1F07 DUP4 PUSH2 0x1EAE JUMP JUMPDEST SWAP3 POP PUSH1 0x20 DUP11 ADD SWAP10 POP POP PUSH1 0x1 DUP2 ADD SWAP1 POP PUSH2 0x1EE3 JUMP JUMPDEST POP DUP3 SWAP8 POP DUP8 SWAP6 POP POP POP POP POP POP SWAP3 SWAP2 POP POP JUMP JUMPDEST PUSH0 PUSH1 0x20 DUP3 ADD SWAP1 POP DUP2 DUP2 SUB PUSH0 DUP4 ADD MSTORE PUSH2 0x1F45 DUP2 DUP5 PUSH2 0x1EBA JUMP JUMPDEST SWAP1 POP SWAP3 SWAP2 POP POP JUMP JUMPDEST PUSH0 PUSH1 0x20 DUP3 DUP5 SUB SLT ISZERO PUSH2 0x1F62 JUMPI PUSH2 0x1F61 PUSH2 0x1AC9 JUMP JUMPDEST JUMPDEST PUSH0 DUP3 ADD CALLDATALOAD PUSH8 0xFFFFFFFFFFFFFFFF DUP2 GT ISZERO PUSH2 0x1F7F JUMPI PUSH2 0x1F7E PUSH2 0x1ACD JUMP JUMPDEST JUMPDEST PUSH2 0x1F8B DUP5 DUP3 DUP6 ADD PUSH2 0x1C0A JUMP JUMPDEST SWAP2 POP POP SWAP3 SWAP2 POP POP JUMP JUMPDEST PUSH0 DUP2 MLOAD SWAP1 POP SWAP2 SWAP1 POP JUMP JUMPDEST PUSH0 DUP2 SWAP1 POP PUSH1 0x20 DUP3 ADD SWAP1 POP SWAP2 SWAP1 POP JUMP JUMPDEST PUSH1 0xC7 DUP2 LT PUSH2 0x1FBE JUMPI PUSH2 0x1FBD PUSH2 0x197D JUMP JUMPDEST JUMPDEST POP JUMP JUMPDEST PUSH0 DUP2 SWAP1 POP PUSH2 0x1FCE DUP3 PUSH2 0x1FAD JUMP JUMPDEST SWAP2 SWAP1 POP JUMP JUMPDEST PUSH0 PUSH2 0x1FDD DUP3 PUSH2 0x1FC1 JUMP JUMPDEST SWAP1 POP SWAP2 SWAP1 POP JUMP JUMPDEST PUSH2 0x1FED DUP2 PUSH2 0x1FD3 JUMP JUMPDEST DUP3 MSTORE POP POP JUMP JUMPDEST PUSH0 PUSH2 0x1FFE DUP4 DUP4 PUSH2 0x1FE4 JUMP JUMPDEST PUSH1 0x20 DUP4 ADD SWAP1 POP SWAP3 SWAP2 POP POP JUMP JUMPDEST PUSH0 PUSH1 0x20 DUP3 ADD SWAP1 POP SWAP2 SWAP1 POP JUMP JUMPDEST PUSH0 PUSH2 0x2020 DUP3 PUSH2 0x1F94 JUMP JUMPDEST PUSH2 0x202A DUP2 DUP6 PUSH2 0x195E JUMP JUMPDEST SWAP4 POP PUSH2 0x2035 DUP4 PUSH2 0x1F9E JUMP JUMPDEST DUP1 PUSH0 JUMPDEST DUP4 DUP2 LT ISZERO PUSH2 0x2065 JUMPI DUP2 MLOAD PUSH2 0x204C DUP9 DUP3 PUSH2 0x1FF3 JUMP JUMPDEST SWAP8 POP PUSH2 0x2057 DUP4 PUSH2 0x200A JUMP JUMPDEST SWAP3 POP POP PUSH1 0x1 DUP2 ADD SWAP1 POP PUSH2 0x2038 JUMP JUMPDEST POP DUP6 SWAP4 POP POP POP POP SWAP3 SWAP2 POP POP JUMP JUMPDEST PUSH0 PUSH1 0x40 DUP3 ADD SWAP1 POP DUP2 DUP2 SUB PUSH0 DUP4 ADD MSTORE PUSH2 0x208A DUP2 DUP6 PUSH2 0x2016 JUMP JUMPDEST SWAP1 POP DUP2 DUP2 SUB PUSH1 0x20 DUP4 ADD MSTORE PUSH2 0x209E DUP2 DUP5 PUSH2 0x2016 JUMP JUMPDEST SWAP1 POP SWAP4 SWAP3 POP POP POP JUMP JUMPDEST PUSH0 DUP1 PUSH0 PUSH1 0x60 DUP5 DUP7 SUB SLT ISZERO PUSH2 0x20BE JUMPI PUSH2 0x20BD PUSH2 0x1AC9 JUMP JUMPDEST JUMPDEST PUSH0 PUSH2 0x20CB DUP7 DUP3 DUP8 ADD PUSH2 0x1AE7 JUMP JUMPDEST SWAP4 POP POP PUSH1 0x20 PUSH2 0x20DC DUP7 DUP3 DUP8 ADD PUSH2 0x1AE7 JUMP JUMPDEST SWAP3 POP POP PUSH1 0x40 PUSH2 0x20ED DUP7 DUP3 DUP8 ADD PUSH2 0x1AE7 JUMP JUMPDEST SWAP2 POP POP SWAP3 POP SWAP3 POP SWAP3 JUMP JUMPDEST PUSH0 PUSH8 0xFFFFFFFFFFFFFFFF DUP3 GT ISZERO PUSH2 0x2111 JUMPI PUSH2 0x2110 PUSH2 0x1B13 JUMP JUMPDEST JUMPDEST PUSH2 0x211A DUP3 PUSH2 0x1B03 JUMP JUMPDEST SWAP1 POP PUSH1 0x20 DUP2 ADD SWAP1 POP SWAP2 SWAP1 POP JUMP JUMPDEST PUSH0 PUSH2 0x2139 PUSH2 0x2134 DUP5 PUSH2 0x20F7 JUMP JUMPDEST PUSH2 0x1B71 JUMP JUMPDEST SWAP1 POP DUP3 DUP2 MSTORE PUSH1 0x20 DUP2 ADD DUP5 DUP5 DUP5 ADD GT ISZERO PUSH2 0x2155 JUMPI PUSH2 0x2154 PUSH2 0x1AFF JUMP JUMPDEST JUMPDEST PUSH2 0x2160 DUP5 DUP3 DUP6 PUSH2 0x1BBB JUMP JUMPDEST POP SWAP4 SWAP3 POP POP POP JUMP JUMPDEST PUSH0 DUP3 PUSH1 0x1F DUP4 ADD SLT PUSH2 0x217C JUMPI PUSH2 0x217B PUSH2 0x1AFB JUMP JUMPDEST JUMPDEST DUP2 CALLDATALOAD PUSH2 0x218C DUP5 DUP3 PUSH1 0x20 DUP7 ADD PUSH2 0x2127 JUMP JUMPDEST SWAP2 POP POP SWAP3 SWAP2 POP POP JUMP JUMPDEST PUSH0 DUP1 PUSH1 0x40 DUP4 DUP6 SUB SLT ISZERO PUSH2 0x21AB JUMPI PUSH2 0x21AA PUSH2 0x1AC9 JUMP JUMPDEST JUMPDEST PUSH0 DUP4 ADD CALLDATALOAD PUSH8 0xFFFFFFFFFFFFFFFF DUP2 GT ISZERO PUSH2 0x21C8 JUMPI PUSH2 0x21C7 PUSH2 0x1ACD JUMP JUMPDEST JUMPDEST PUSH2 0x21D4 DUP6 DUP3 DUP7 ADD PUSH2 0x1C0A JUMP JUMPDEST SWAP3 POP POP PUSH1 0x20 DUP4 ADD CALLDATALOAD PUSH8 0xFFFFFFFFFFFFFFFF DUP2 GT ISZERO PUSH2 0x21F5 JUMPI PUSH2 0x21F4 PUSH2 0x1ACD JUMP JUMPDEST JUMPDEST PUSH2 0x2201 DUP6 DUP3 DUP7 ADD PUSH2 0x2168 JUMP JUMPDEST SWAP2 POP POP SWAP3 POP SWAP3 SWAP1 POP JUMP JUMPDEST PUSH0 DUP2 MLOAD SWAP1 POP SWAP2 SWAP1 POP JUMP JUMPDEST PUSH0 DUP3 DUP3 MSTORE PUSH1 0x20 DUP3 ADD SWAP1 POP SWAP3 SWAP2 POP POP JUMP JUMPDEST PUSH0 PUSH2 0x222F DUP3 PUSH2 0x220B JUMP JUMPDEST PUSH2 0x2239 DUP2 DUP6 PUSH2 0x2215 JUMP JUMPDEST SWAP4 POP PUSH2 0x2249 DUP2 DUP6 PUSH1 0x20 DUP7 ADD PUSH2 0x1D5A JUMP JUMPDEST PUSH2 0x2252 DUP2 PUSH2 0x1B03 JUMP JUMPDEST DUP5 ADD SWAP2 POP POP SWAP3 SWAP2 POP POP JUMP JUMPDEST PUSH0 PUSH1 0x20 DUP3 ADD SWAP1 POP DUP2 DUP2 SUB PUSH0 DUP4 ADD MSTORE PUSH2 0x2275 DUP2 DUP5 PUSH2 0x2225 JUMP JUMPDEST SWAP1 POP SWAP3 SWAP2 POP POP JUMP JUMPDEST PUSH1 0x4 DUP2 LT PUSH2 0x2289 JUMPI PUSH0 DUP1 REVERT JUMPDEST POP JUMP JUMPDEST PUSH0 DUP2 CALLDATALOAD SWAP1 POP PUSH2 0x229A DUP2 PUSH2 0x227D JUMP JUMPDEST SWAP3 SWAP2 POP POP JUMP JUMPDEST PUSH0 PUSH1 0x20 DUP3 DUP5 SUB SLT ISZERO PUSH2 0x22B5 JUMPI PUSH2 0x22B4 PUSH2 0x1AC9 JUMP JUMPDEST JUMPDEST PUSH0 PUSH2 0x22C2 DUP5 DUP3 DUP6 ADD PUSH2 0x228C JUMP JUMPDEST SWAP2 POP POP SWAP3 SWAP2 POP POP JUMP JUMPDEST PUSH32 0x4E487B7100000000000000000000000000000000000000000000000000000000 PUSH0 MSTORE PUSH1 0x32 PUSH1 0x4 MSTORE PUSH1 0x24 PUSH0 REVERT JUMPDEST PUSH0 DUP2 SWAP1 POP SWAP3 SWAP2 POP POP JUMP JUMPDEST PUSH0 PUSH2 0x230C DUP3 PUSH2 0x1D40 JUMP JUMPDEST PUSH2 0x2316 DUP2 DUP6 PUSH2 0x22F8 JUMP JUMPDEST SWAP4 POP PUSH2 0x2326 DUP2 DUP6 PUSH1 0x20 DUP7 ADD PUSH2 0x1D5A JUMP JUMPDEST DUP1 DUP5 ADD SWAP2 POP POP SWAP3 SWAP2 POP POP JUMP JUMPDEST PUSH32 0x2C00000000000000000000000000000000000000000000000000000000000000 PUSH0 DUP3 ADD MSTORE POP JUMP JUMPDEST PUSH0 PUSH2 0x2366 PUSH1 0x1 DUP4 PUSH2 0x22F8 JUMP JUMPDEST SWAP2 POP PUSH2 0x2371 DUP3 PUSH2 0x2332 JUMP JUMPDEST PUSH1 0x1 DUP3 ADD SWAP1 POP SWAP2 SWAP1 POP JUMP JUMPDEST PUSH0 PUSH2 0x2387 DUP3 DUP10 PUSH2 0x2302 JUMP JUMPDEST SWAP2 POP PUSH2 0x2392 DUP3 PUSH2 0x235A JUMP JUMPDEST SWAP2 POP PUSH2 0x239E DUP3 DUP9 PUSH2 0x2302 JUMP JUMPDEST SWAP2 POP PUSH2 0x23A9 DUP3 PUSH2 0x235A JUMP JUMPDEST SWAP2 POP PUSH2 0x23B5 DUP3 DUP8 PUSH2 0x2302 JUMP JUMPDEST SWAP2 POP PUSH2 0x23C0 DUP3 PUSH2 0x235A JUMP JUMPDEST SWAP2 POP PUSH2 0x23CC DUP3 DUP7 PUSH2 0x2302 JUMP JUMPDEST SWAP2 POP PUSH2 0x23D7 DUP3 PUSH2 0x235A JUMP JUMPDEST SWAP2 POP PUSH2 0x23E3 DUP3 DUP6 PUSH2 0x2302 JUMP JUMPDEST SWAP2 POP PUSH2 0x23EE DUP3 PUSH2 0x235A JUMP JUMPDEST SWAP2 POP PUSH2 0x23FA DUP3 DUP5 PUSH2 0x2302 JUMP JUMPDEST SWAP2 POP DUP2 SWAP1 POP SWAP8 SWAP7 POP POP POP POP POP POP POP JUMP JUMPDEST PUSH32 0x4E487B7100000000000000000000000000000000000000000000000000000000 PUSH0 MSTORE PUSH1 0x11 PUSH1 0x4 MSTORE PUSH1 0x24 PUSH0 REVERT JUMPDEST PUSH0 PUSH2 0x2441 DUP3 PUSH2 0x1A8F JUMP JUMPDEST SWAP2 POP PUSH2 0x244C DUP4 PUSH2 0x1A8F JUMP JUMPDEST SWAP3 POP DUP3 DUP3 SUB SWAP1 POP DUP2 DUP2 GT ISZERO PUSH2 0x2464 JUMPI PUSH2 0x2463 PUSH2 0x240A JUMP JUMPDEST JUMPDEST SWAP3 SWAP2 POP POP JUMP JUMPDEST PUSH32 0x4E487B7100000000000000000000000000000000000000000000000000000000 PUSH0 MSTORE PUSH1 0x12 PUSH1 0x4 MSTORE PUSH1 0x24 PUSH0 REVERT JUMPDEST PUSH0 PUSH2 0x24A1 DUP3 PUSH2 0x1A8F JUMP JUMPDEST SWAP2 POP PUSH2 0x24AC DUP4 PUSH2 0x1A8F JUMP JUMPDEST SWAP3 POP DUP3 PUSH2 0x24BC JUMPI PUSH2 0x24BB PUSH2 0x246A JUMP JUMPDEST JUMPDEST DUP3 DUP3 DIV SWAP1 POP SWAP3 SWAP2 POP POP JUMP JUMPDEST PUSH0 PUSH2 0x24D1 DUP3 PUSH2 0x1A8F JUMP JUMPDEST SWAP2 POP PUSH2 0x24DC DUP4 PUSH2 0x1A8F JUMP JUMPDEST SWAP3 POP DUP3 DUP3 MUL PUSH2 0x24EA DUP2 PUSH2 0x1A8F JUMP JUMPDEST SWAP2 POP DUP3 DUP3 DIV DUP5 EQ DUP4 ISZERO OR PUSH2 0x2501 JUMPI PUSH2 0x2500 PUSH2 0x240A JUMP JUMPDEST JUMPDEST POP SWAP3 SWAP2 POP POP JUMP JUMPDEST PUSH0 PUSH2 0x2512 DUP3 PUSH2 0x1A8F JUMP JUMPDEST SWAP2 POP PUSH2 0x251D DUP4 PUSH2 0x1A8F JUMP JUMPDEST SWAP3 POP DUP3 DUP3 ADD SWAP1 POP DUP1 DUP3 GT ISZERO PUSH2 0x2535 JUMPI PUSH2 0x2534 PUSH2 0x240A JUMP JUMPDEST JUMPDEST SWAP3 SWAP2 POP POP JUMP JUMPDEST PUSH32 0x4E487B7100000000000000000000000000000000000000000000000000000000 PUSH0 MSTORE PUSH1 0x22 PUSH1 0x4 MSTORE PUSH1 0x24 PUSH0 REVERT JUMPDEST PUSH0 PUSH1 0x2 DUP3 DIV SWAP1 POP PUSH1 0x1 DUP3 AND DUP1 PUSH2 0x257F JUMPI PUSH1 0x7F DUP3 AND SWAP2 POP JUMPDEST PUSH1 0x20 DUP3 LT DUP2 SUB PUSH2 0x2592 JUMPI PUSH2 0x2591 PUSH2 0x253B JUMP JUMPDEST JUMPDEST POP SWAP2 SWAP1 POP JUMP JUMPDEST PUSH0 PUSH2 0x25A2 DUP3 PUSH2 0x1A8F JUMP JUMPDEST SWAP2 POP PUSH32 0xFFFFFFFFFFFFFFFFFFFFFFFFFFFFFFFFFFFFFFFFFFFFFFFFFFFFFFFFFFFFFFFF DUP3 SUB PUSH2 0x25D4 JUMPI PUSH2 0x25D3 PUSH2 0x240A JUMP JUMPDEST JUMPDEST PUSH1 0x1 DUP3 ADD SWAP1 POP SWAP2 SWAP1 POP JUMP JUMPDEST PUSH0 DUP2 SWAP1 POP SWAP2 SWAP1 POP JUMP JUMPDEST PUSH0 PUSH2 0x25F2 DUP3 PUSH2 0x25DF JUMP JUMPDEST SWAP2 POP PUSH32 0x8000000000000000000000000000000000000000000000000000000000000000 DUP3 SUB PUSH2 0x2624 JUMPI PUSH2 0x2623 PUSH2 0x240A JUMP JUMPDEST JUMPDEST PUSH1 0x1 DUP3 SUB SWAP1 POP SWAP2 SWAP1 POP JUMP JUMPDEST PUSH0 PUSH2 0x263A DUP3 DUP5 PUSH2 0x2302 JUMP JUMPDEST SWAP2 POP DUP2 SWAP1 POP SWAP3 SWAP2 POP POP JUMP JUMPDEST PUSH0 DUP2 MLOAD SWAP1 POP PUSH2 0x2653 DUP2 PUSH2 0x1AD1 JUMP JUMPDEST SWAP3 SWAP2 POP POP JUMP JUMPDEST PUSH0 PUSH1 0x20 DUP3 DUP5 SUB SLT ISZERO PUSH2 0x266E JUMPI PUSH2 0x266D PUSH2 0x1AC9 JUMP JUMPDEST JUMPDEST PUSH0 PUSH2 0x267B DUP5 DUP3 DUP6 ADD PUSH2 0x2645 JUMP JUMPDEST SWAP2 POP POP SWAP3 SWAP2 POP POP JUMP JUMPDEST PUSH2 0x268D DUP2 PUSH2 0x1C56 JUMP JUMPDEST DUP3 MSTORE POP POP JUMP JUMPDEST PUSH0 PUSH1 0x80 DUP3 ADD SWAP1 POP PUSH2 0x26A6 PUSH0 DUP4 ADD DUP8 PUSH2 0x1A98 JUMP JUMPDEST PUSH2 0x26B3 PUSH1 0x20 DUP4 ADD DUP7 PUSH2 0x1A98 JUMP JUMPDEST DUP2 DUP2 SUB PUSH1 0x40 DUP4 ADD MSTORE PUSH2 0x26C5 DUP2 DUP6 PUSH2 0x1D82 JUMP JUMPDEST SWAP1 POP PUSH2 0x26D4 PUSH1 0x60 DUP4 ADD DUP5 PUSH2 0x2684 JUMP JUMPDEST SWAP6 SWAP5 POP POP POP POP POP JUMP JUMPDEST PUSH0 DUP1 PUSH0 PUSH1 0x60 DUP5 DUP7 SUB SLT ISZERO PUSH2 0x26F4 JUMPI PUSH2 0x26F3 PUSH2 0x1AC9 JUMP JUMPDEST JUMPDEST PUSH0 PUSH2 0x2701 DUP7 DUP3 DUP8 ADD PUSH2 0x2645 JUMP JUMPDEST SWAP4 POP POP PUSH1 0x20 PUSH2 0x2712 DUP7 DUP3 DUP8 ADD PUSH2 0x2645 JUMP JUMPDEST SWAP3 POP POP PUSH1 0x40 PUSH2 0x2723 DUP7 DUP3 DUP8 ADD PUSH2 0x2645 JUMP JUMPDEST SWAP2 POP POP SWAP3 POP SWAP3 POP SWAP3 JUMP JUMPDEST PUSH0 PUSH2 0x2737 DUP3 PUSH2 0x1C37 JUMP JUMPDEST SWAP1 POP SWAP2 SWAP1 POP JUMP JUMPDEST PUSH2 0x2747 DUP2 PUSH2 0x272D JUMP JUMPDEST DUP2 EQ PUSH2 0x2751 JUMPI PUSH0 DUP1 REVERT JUMPDEST POP JUMP JUMPDEST PUSH0 DUP2 MLOAD SWAP1 POP PUSH2 0x2762 DUP2 PUSH2 0x273E JUMP JUMPDEST SWAP3 SWAP2 POP POP JUMP JUMPDEST PUSH0 DUP1 PUSH0 PUSH1 0x60 DUP5 DUP7 SUB SLT ISZERO PUSH2 0x277F JUMPI PUSH2 0x277E PUSH2 0x1AC9 JUMP JUMPDEST JUMPDEST PUSH0 PUSH2 0x278C DUP7 DUP3 DUP8 ADD PUSH2 0x2754 JUMP JUMPDEST SWAP4 POP POP PUSH1 0x20 PUSH2 0x279D DUP7 DUP3 DUP8 ADD PUSH2 0x2645 JUMP JUMPDEST SWAP3 POP POP PUSH1 0x40 PUSH2 0x27AE DUP7 DUP3 DUP8 ADD PUSH2 0x2645 JUMP JUMPDEST SWAP2 POP POP SWAP3 POP SWAP3 POP SWAP3 JUMP JUMPDEST POP JUMP JUMPDEST PUSH0 PUSH2 0x27C6 PUSH0 DUP4 PUSH2 0x1D4A JUMP JUMPDEST SWAP2 POP PUSH2 0x27D1 DUP3 PUSH2 0x27B8 JUMP JUMPDEST PUSH0 DUP3 ADD SWAP1 POP SWAP2 SWAP1 POP JUMP JUMPDEST PUSH0 PUSH1 0x20 DUP3 ADD SWAP1 POP DUP2 DUP2 SUB PUSH0 DUP4 ADD MSTORE PUSH2 0x27F2 DUP2 PUSH2 0x27BB JUMP JUMPDEST SWAP1 POP SWAP2 SWAP1 POP JUMP JUMPDEST PUSH0 PUSH2 0x280B PUSH2 0x2806 DUP5 PUSH2 0x1B8B JUMP JUMPDEST PUSH2 0x1B71 JUMP JUMPDEST SWAP1 POP DUP3 DUP2 MSTORE PUSH1 0x20 DUP2 ADD DUP5 DUP5 DUP5 ADD GT ISZERO PUSH2 0x2827 JUMPI PUSH2 0x2826 PUSH2 0x1AFF JUMP JUMPDEST JUMPDEST PUSH2 0x2832 DUP5 DUP3 DUP6 PUSH2 0x1D5A JUMP JUMPDEST POP SWAP4 SWAP3 POP POP POP JUMP JUMPDEST PUSH0 DUP3 PUSH1 0x1F DUP4 ADD SLT PUSH2 0x284E JUMPI PUSH2 0x284D PUSH2 0x1AFB JUMP JUMPDEST JUMPDEST DUP2 MLOAD PUSH2 0x285E DUP5 DUP3 PUSH1 0x20 DUP7 ADD PUSH2 0x27F9 JUMP JUMPDEST SWAP2 POP POP SWAP3 SWAP2 POP POP JUMP JUMPDEST PUSH0 DUP1 PUSH0 PUSH1 0x60 DUP5 DUP7 SUB SLT ISZERO PUSH2 0x287E JUMPI PUSH2 0x287D PUSH2 0x1AC9 JUMP JUMPDEST JUMPDEST PUSH0 PUSH2 0x288B DUP7 DUP3 DUP8 ADD PUSH2 0x2645 JUMP JUMPDEST SWAP4 POP POP PUSH1 0x20 DUP5 ADD MLOAD PUSH8 0xFFFFFFFFFFFFFFFF DUP2 GT ISZERO PUSH2 0x28AC JUMPI PUSH2 0x28AB PUSH2 0x1ACD JUMP JUMPDEST JUMPDEST PUSH2 0x28B8 DUP7 DUP3 DUP8 ADD PUSH2 0x283A JUMP JUMPDEST SWAP3 POP POP PUSH1 0x40 DUP5 ADD MLOAD PUSH8 0xFFFFFFFFFFFFFFFF DUP2 GT ISZERO PUSH2 0x28D9 JUMPI PUSH2 0x28D8 PUSH2 0x1ACD JUMP JUMPDEST JUMPDEST PUSH2 0x28E5 DUP7 DUP3 DUP8 ADD PUSH2 0x283A JUMP JUMPDEST SWAP2 POP POP SWAP3 POP SWAP3 POP SWAP3 JUMP JUMPDEST PUSH0 DUP2 SWAP1 POP DUP2 PUSH0 MSTORE PUSH1 0x20 PUSH0 KECCAK256 SWAP1 POP SWAP2 SWAP1 POP JUMP JUMPDEST PUSH0 PUSH1 0x20 PUSH1 0x1F DUP4 ADD DIV SWAP1 POP SWAP2 SWAP1 POP JUMP JUMPDEST PUSH0 DUP3 DUP3 SHL SWAP1 POP SWAP3 SWAP2 POP POP JUMP JUMPDEST PUSH0 PUSH1 0x8 DUP4 MUL PUSH2 0x294B PUSH32 0xFFFFFFFFFFFFFFFFFFFFFFFFFFFFFFFFFFFFFFFFFFFFFFFFFFFFFFFFFFFFFFFF DUP3 PUSH2 0x2910 JUMP JUMPDEST PUSH2 0x2955 DUP7 DUP4 PUSH2 0x2910 JUMP JUMPDEST SWAP6 POP DUP1 NOT DUP5 AND SWAP4 POP DUP1 DUP7 AND DUP5 OR SWAP3 POP POP POP SWAP4 SWAP3 POP POP POP JUMP JUMPDEST PUSH0 DUP2 SWAP1 POP SWAP2 SWAP1 POP JUMP JUMPDEST PUSH0 PUSH2 0x2990 PUSH2 0x298B PUSH2 0x2986 DUP5 PUSH2 0x1A8F JUMP JUMPDEST PUSH2 0x296D JUMP JUMPDEST PUSH2 0x1A8F JUMP JUMPDEST SWAP1 POP SWAP2 SWAP1 POP JUMP JUMPDEST PUSH0 DUP2 SWAP1 POP SWAP2 SWAP1 POP JUMP JUMPDEST PUSH2 0x29A9 DUP4 PUSH2 0x2976 JUMP JUMPDEST PUSH2 0x29BD PUSH2 0x29B5 DUP3 PUSH2 0x2997 JUMP JUMPDEST DUP5 DUP5 SLOAD PUSH2 0x291C JUMP JUMPDEST DUP3 SSTORE POP POP POP POP JUMP JUMPDEST PUSH0 SWAP1 JUMP JUMPDEST PUSH2 0x29D1 PUSH2 0x29C5 JUMP JUMPDEST PUSH2 0x29DC DUP2 DUP5 DUP5 PUSH2 0x29A0 JUMP JUMPDEST POP POP POP JUMP JUMPDEST JUMPDEST DUP2 DUP2 LT ISZERO PUSH2 0x29FF JUMPI PUSH2 0x29F4 PUSH0 DUP3 PUSH2 0x29C9 JUMP JUMPDEST PUSH1 0x1 DUP2 ADD SWAP1 POP PUSH2 0x29E2 JUMP JUMPDEST POP POP JUMP JUMPDEST PUSH1 0x1F DUP3 GT ISZERO PUSH2 0x2A44 JUMPI PUSH2 0x2A15 DUP2 PUSH2 0x28EF JUMP JUMPDEST PUSH2 0x2A1E DUP5 PUSH2 0x2901 JUMP JUMPDEST DUP2 ADD PUSH1 0x20 DUP6 LT ISZERO PUSH2 0x2A2D JUMPI DUP2 SWAP1 POP JUMPDEST PUSH2 0x2A41 PUSH2 0x2A39 DUP6 PUSH2 0x2901 JUMP JUMPDEST DUP4 ADD DUP3 PUSH2 0x29E1 JUMP JUMPDEST POP POP JUMPDEST POP POP POP JUMP JUMPDEST PUSH0 DUP3 DUP3 SHR SWAP1 POP SWAP3 SWAP2 POP POP JUMP JUMPDEST PUSH0 PUSH2 0x2A64 PUSH0 NOT DUP5 PUSH1 0x8 MUL PUSH2 0x2A49 JUMP JUMPDEST NOT DUP1 DUP4 AND SWAP2 POP POP SWAP3 SWAP2 POP POP JUMP JUMPDEST PUSH0 PUSH2 0x2A7C DUP4 DUP4 PUSH2 0x2A55 JUMP JUMPDEST SWAP2 POP DUP3 PUSH1 0x2 MUL DUP3 OR SWAP1 POP SWAP3 SWAP2 POP POP JUMP JUMPDEST PUSH2 0x2A95 DUP3 PUSH2 0x1D40 JUMP JUMPDEST PUSH8 0xFFFFFFFFFFFFFFFF DUP2 GT ISZERO PUSH2 0x2AAE JUMPI PUSH2 0x2AAD PUSH2 0x1B13 JUMP JUMPDEST JUMPDEST PUSH2 0x2AB8 DUP3 SLOAD PUSH2 0x2568 JUMP JUMPDEST PUSH2 0x2AC3 DUP3 DUP3 DUP6 PUSH2 0x2A03 JUMP JUMPDEST PUSH0 PUSH1 0x20 SWAP1 POP PUSH1 0x1F DUP4 GT PUSH1 0x1 DUP2 EQ PUSH2 0x2AF4 JUMPI PUSH0 DUP5 ISZERO PUSH2 0x2AE2 JUMPI DUP3 DUP8 ADD MLOAD SWAP1 POP JUMPDEST PUSH2 0x2AEC DUP6 DUP3 PUSH2 0x2A71 JUMP JUMPDEST DUP7 SSTORE POP PUSH2 0x2B53 JUMP JUMPDEST PUSH1 0x1F NOT DUP5 AND PUSH2 0x2B02 DUP7 PUSH2 0x28EF JUMP JUMPDEST PUSH0 JUMPDEST DUP3 DUP2 LT ISZERO PUSH2 0x2B29 JUMPI DUP5 DUP10 ADD MLOAD DUP3 SSTORE PUSH1 0x1 DUP3 ADD SWAP2 POP PUSH1 0x20 DUP6 ADD SWAP5 POP PUSH1 0x20 DUP2 ADD SWAP1 POP PUSH2 0x2B04 JUMP JUMPDEST DUP7 DUP4 LT ISZERO PUSH2 0x2B46 JUMPI DUP5 DUP10 ADD MLOAD PUSH2 0x2B42 PUSH1 0x1F DUP10 AND DUP3 PUSH2 0x2A55 JUMP JUMPDEST DUP4 SSTORE POP JUMPDEST PUSH1 0x1 PUSH1 0x2 DUP9 MUL ADD DUP9 SSTORE POP POP POP JUMPDEST POP POP POP POP POP POP JUMP JUMPDEST PUSH0 PUSH1 0x40 DUP3 ADD SWAP1 POP DUP2 DUP2 SUB PUSH0 DUP4 ADD MSTORE PUSH2 0x2B73 DUP2 DUP6 PUSH2 0x1D82 JUMP JUMPDEST SWAP1 POP DUP2 DUP2 SUB PUSH1 0x20 DUP4 ADD MSTORE PUSH2 0x2B87 DUP2 DUP5 PUSH2 0x2225 JUMP JUMPDEST SWAP1 POP SWAP4 SWAP3 POP POP POP JUMP JUMPDEST PUSH0 PUSH2 0x2B9A DUP3 PUSH2 0x1A8F JUMP JUMPDEST SWAP2 POP PUSH2 0x2BA5 DUP4 PUSH2 0x1A8F JUMP JUMPDEST SWAP3 POP DUP3 PUSH2 0x2BB5 JUMPI PUSH2 0x2BB4 PUSH2 0x246A JUMP JUMPDEST JUMPDEST DUP3 DUP3 MOD SWAP1 POP SWAP3 SWAP2 POP POP JUMP JUMPDEST PUSH0 PUSH2 0x2BCA DUP3 PUSH2 0x1A8F JUMP JUMPDEST SWAP2 POP PUSH0 DUP3 SUB PUSH2 0x2BDC JUMPI PUSH2 0x2BDB PUSH2 0x240A JUMP JUMPDEST JUMPDEST PUSH1 0x1 DUP3 SUB SWAP1 POP SWAP2 SWAP1 POP JUMP JUMPDEST PUSH32 0x537472696E67733A20686578206C656E67746820696E73756666696369656E74 PUSH0 DUP3 ADD MSTORE POP JUMP JUMPDEST PUSH0 PUSH2 0x2C1B PUSH1 0x20 DUP4 PUSH2 0x1D4A JUMP JUMPDEST SWAP2 POP PUSH2 0x2C26 DUP3 PUSH2 0x2BE7 JUMP JUMPDEST PUSH1 0x20 DUP3 ADD SWAP1 POP SWAP2 SWAP1 POP JUMP JUMPDEST PUSH0 PUSH1 0x20 DUP3 ADD SWAP1 POP DUP2 DUP2 SUB PUSH0 DUP4 ADD MSTORE PUSH2 0x2C48 DUP2 PUSH2 0x2C0F JUMP JUMPDEST SWAP1 POP SWAP2 SWAP1 POP JUMP INVALID COINBASE TIMESTAMP NUMBER PREVRANDAO GASLIMIT CHAINID SELFBALANCE BASEFEE 0x49 0x4A 0x4B 0x4C 0x4D 0x4E 0x4F POP MLOAD MSTORE MSTORE8 SLOAD SSTORE JUMP JUMPI PC MSIZE GAS PUSH2 0x6263 PUSH5 0x6566676869 PUSH11 0x6B6C6D6E6F707172737475 PUSH23 0x7778797A303132333435363738392B2FA2646970667358 0x22 SLT KECCAK256 DUP4 0x23 PUSH32 0xCEB28ADACEFA8E1BC2C6E56D3AF452E7D351A59FE07AFC09D44D005D464736F PUSH13 0x63430008160033000000000000 "
				},
				"gasEstimates": {
					"creation": {
						"codeDepositCost": "2292200",
						"executionCost": "infinite",
						"totalCost": "infinite"
					},
					"external": {
						"commentIds()": "2448",
						"generateBase64(uint256,uint256,string,string,address)": "infinite",
						"get(string,bytes)": "infinite",
						"getComments(uint256,uint256,uint256)": "infinite",
						"getCommentsByAddress(address,uint256,uint256)": "infinite",
						"getMethodReqAndRes(string)": "infinite",
						"getMethods(uint8)": "infinite",
						"options()": "infinite",
						"post(string,bytes)": "infinite",
						"put(string,bytes)": "infinite"
					},
					"internal": {
						"compareStrings(string memory,string memory)": "infinite",
						"setMethod(string memory,enum IComponent.MethodTypes,enum Types.Type[] memory,enum Types.Type[] memory)": "infinite"
					}
				},
				"methodIdentifiers": {
					"commentIds()": "3e413065",
					"generateBase64(uint256,uint256,string,string,address)": "3eae02b3",
					"get(string,bytes)": "aff62745",
					"getComments(uint256,uint256,uint256)": "6818ba1d",
					"getCommentsByAddress(address,uint256,uint256)": "44237454",
					"getMethodReqAndRes(string)": "458ad6d4",
					"getMethods(uint8)": "f4856ccb",
					"options()": "1069143a",
					"post(string,bytes)": "b6ae0425",
					"put(string,bytes)": "e9536472"
				}
			},
			"storageLayout": {
				"storage": [
					{
						"astId": 557,
						"contract": "contracts/AmeComponents/VibeProfiles/VibeProfiles.sol:VibeComment",
						"label": "methods",
						"offset": 0,
						"slot": "0",
						"type": "t_mapping(t_enum(MethodTypes)8,t_array(t_string_storage)dyn_storage)"
					},
					{
						"astId": 563,
						"contract": "contracts/AmeComponents/VibeProfiles/VibeProfiles.sol:VibeComment",
						"label": "methodRequests",
						"offset": 0,
						"slot": "1",
						"type": "t_mapping(t_string_memory_ptr,t_array(t_enum(Type)278)dyn_storage)"
					},
					{
						"astId": 569,
						"contract": "contracts/AmeComponents/VibeProfiles/VibeProfiles.sol:VibeComment",
						"label": "methodResponses",
						"offset": 0,
						"slot": "2",
						"type": "t_mapping(t_string_memory_ptr,t_array(t_enum(Type)278)dyn_storage)"
					},
					{
						"astId": 571,
						"contract": "contracts/AmeComponents/VibeProfiles/VibeProfiles.sol:VibeComment",
						"label": "commentIds",
						"offset": 0,
						"slot": "3",
						"type": "t_uint256"
					},
					{
						"astId": 575,
						"contract": "contracts/AmeComponents/VibeProfiles/VibeProfiles.sol:VibeComment",
						"label": "VibeCommentIndexs",
						"offset": 0,
						"slot": "4",
						"type": "t_mapping(t_uint256,t_uint256)"
					},
					{
						"astId": 579,
						"contract": "contracts/AmeComponents/VibeProfiles/VibeProfiles.sol:VibeComment",
						"label": "UserCommentIndexs",
						"offset": 0,
						"slot": "5",
						"type": "t_mapping(t_address,t_uint256)"
					},
					{
						"astId": 585,
						"contract": "contracts/AmeComponents/VibeProfiles/VibeProfiles.sol:VibeComment",
						"label": "VibeCommentIds",
						"offset": 0,
						"slot": "6",
						"type": "t_mapping(t_uint256,t_mapping(t_uint256,t_uint256))"
					},
					{
						"astId": 591,
						"contract": "contracts/AmeComponents/VibeProfiles/VibeProfiles.sol:VibeComment",
						"label": "UserIndexCommentIds",
						"offset": 0,
						"slot": "7",
						"type": "t_mapping(t_address,t_mapping(t_uint256,t_uint256))"
					},
					{
						"astId": 596,
						"contract": "contracts/AmeComponents/VibeProfiles/VibeProfiles.sol:VibeComment",
						"label": "Comments",
						"offset": 0,
						"slot": "8",
						"type": "t_mapping(t_uint256,t_struct(Comment)605_storage)"
					}
				],
				"types": {
					"t_address": {
						"encoding": "inplace",
						"label": "address",
						"numberOfBytes": "20"
					},
					"t_array(t_enum(Type)278)dyn_storage": {
						"base": "t_enum(Type)278",
						"encoding": "dynamic_array",
						"label": "enum Types.Type[]",
						"numberOfBytes": "32"
					},
					"t_array(t_string_storage)dyn_storage": {
						"base": "t_string_storage",
						"encoding": "dynamic_array",
						"label": "string[]",
						"numberOfBytes": "32"
					},
					"t_enum(MethodTypes)8": {
						"encoding": "inplace",
						"label": "enum IComponent.MethodTypes",
						"numberOfBytes": "1"
					},
					"t_enum(Type)278": {
						"encoding": "inplace",
						"label": "enum Types.Type",
						"numberOfBytes": "1"
					},
					"t_mapping(t_address,t_mapping(t_uint256,t_uint256))": {
						"encoding": "mapping",
						"key": "t_address",
						"label": "mapping(address => mapping(uint256 => uint256))",
						"numberOfBytes": "32",
						"value": "t_mapping(t_uint256,t_uint256)"
					},
					"t_mapping(t_address,t_uint256)": {
						"encoding": "mapping",
						"key": "t_address",
						"label": "mapping(address => uint256)",
						"numberOfBytes": "32",
						"value": "t_uint256"
					},
					"t_mapping(t_enum(MethodTypes)8,t_array(t_string_storage)dyn_storage)": {
						"encoding": "mapping",
						"key": "t_enum(MethodTypes)8",
						"label": "mapping(enum IComponent.MethodTypes => string[])",
						"numberOfBytes": "32",
						"value": "t_array(t_string_storage)dyn_storage"
					},
					"t_mapping(t_string_memory_ptr,t_array(t_enum(Type)278)dyn_storage)": {
						"encoding": "mapping",
						"key": "t_string_memory_ptr",
						"label": "mapping(string => enum Types.Type[])",
						"numberOfBytes": "32",
						"value": "t_array(t_enum(Type)278)dyn_storage"
					},
					"t_mapping(t_uint256,t_mapping(t_uint256,t_uint256))": {
						"encoding": "mapping",
						"key": "t_uint256",
						"label": "mapping(uint256 => mapping(uint256 => uint256))",
						"numberOfBytes": "32",
						"value": "t_mapping(t_uint256,t_uint256)"
					},
					"t_mapping(t_uint256,t_struct(Comment)605_storage)": {
						"encoding": "mapping",
						"key": "t_uint256",
						"label": "mapping(uint256 => struct VibeComment.Comment)",
						"numberOfBytes": "32",
						"value": "t_struct(Comment)605_storage"
					},
					"t_mapping(t_uint256,t_uint256)": {
						"encoding": "mapping",
						"key": "t_uint256",
						"label": "mapping(uint256 => uint256)",
						"numberOfBytes": "32",
						"value": "t_uint256"
					},
					"t_string_memory_ptr": {
						"encoding": "bytes",
						"label": "string",
						"numberOfBytes": "32"
					},
					"t_string_storage": {
						"encoding": "bytes",
						"label": "string",
						"numberOfBytes": "32"
					},
					"t_struct(Comment)605_storage": {
						"encoding": "inplace",
						"label": "struct VibeComment.Comment",
						"members": [
							{
								"astId": 598,
								"contract": "contracts/AmeComponents/VibeProfiles/VibeProfiles.sol:VibeComment",
								"label": "vibeId",
								"offset": 0,
								"slot": "0",
								"type": "t_uint256"
							},
							{
								"astId": 600,
								"contract": "contracts/AmeComponents/VibeProfiles/VibeProfiles.sol:VibeComment",
								"label": "commentId",
								"offset": 0,
								"slot": "1",
								"type": "t_uint256"
							},
							{
								"astId": 602,
								"contract": "contracts/AmeComponents/VibeProfiles/VibeProfiles.sol:VibeComment",
								"label": "content",
								"offset": 0,
								"slot": "2",
								"type": "t_string_storage"
							},
							{
								"astId": 604,
								"contract": "contracts/AmeComponents/VibeProfiles/VibeProfiles.sol:VibeComment",
								"label": "user",
								"offset": 0,
								"slot": "3",
								"type": "t_address"
							}
						],
						"numberOfBytes": "128"
					},
					"t_uint256": {
						"encoding": "inplace",
						"label": "uint256",
						"numberOfBytes": "32"
					}
				}
			},
			"userdoc": {
				"events": {
					"Response(bytes)": {
						"notice": "Response data event."
					}
				},
				"kind": "user",
				"methods": {
					"get(string,bytes)": {
						"notice": "Request the contract to retrieve records."
					},
					"getMethodReqAndRes(string)": {
						"notice": "Get the data types of request parameters and return parameters based on the requested method name."
					},
					"getMethods(uint8)": {
						"notice": "Get method names based on request method type."
					},
					"options()": {
						"notice": "Supported request method types."
					},
					"post(string,bytes)": {
						"notice": "Request the contract to create a new record."
					},
					"put(string,bytes)": {
						"notice": "Request the contract to update a record."
					}
				},
				"version": 1
			}
		}
	}
}