{
	"contracts/AmeComponents/VibeProfiles/VibeProfile.sol": {
		"VibeProfile": {
			"abi": [
				{
					"inputs": [],
					"stateMutability": "nonpayable",
					"type": "constructor"
				},
				{
					"anonymous": false,
					"inputs": [
						{
							"indexed": false,
							"internalType": "bytes",
							"name": "_response",
							"type": "bytes"
						}
					],
					"name": "Response",
					"type": "event"
				},
				{
					"anonymous": false,
					"inputs": [
						{
							"indexed": true,
							"internalType": "address",
							"name": "_user",
							"type": "address"
						},
						{
							"indexed": true,
							"internalType": "string",
							"name": "_handle",
							"type": "string"
						},
						{
							"indexed": false,
							"internalType": "string",
							"name": "_nickname",
							"type": "string"
						},
						{
							"indexed": false,
							"internalType": "string",
							"name": "_avatar",
							"type": "string"
						},
						{
							"indexed": false,
							"internalType": "string",
							"name": "_profile",
							"type": "string"
						}
					],
					"name": "UpdateProfile",
					"type": "event"
				},
				{
					"inputs": [
						{
							"internalType": "string",
							"name": "_methodName",
							"type": "string"
						},
						{
							"internalType": "bytes",
							"name": "_methodReq",
							"type": "bytes"
						}
					],
					"name": "get",
					"outputs": [
						{
							"internalType": "bytes",
							"name": "",
							"type": "bytes"
						}
					],
					"stateMutability": "view",
					"type": "function"
				},
				{
					"inputs": [
						{
							"internalType": "string",
							"name": "_methodName",
							"type": "string"
						}
					],
					"name": "getMethodReqAndRes",
					"outputs": [
						{
							"internalType": "enum Types.Type[]",
							"name": "",
							"type": "uint8[]"
						},
						{
							"internalType": "enum Types.Type[]",
							"name": "",
							"type": "uint8[]"
						}
					],
					"stateMutability": "view",
					"type": "function"
				},
				{
					"inputs": [
						{
							"internalType": "enum IComponent.MethodTypes",
							"name": "_methodTypes",
							"type": "uint8"
						}
					],
					"name": "getMethods",
					"outputs": [
						{
							"internalType": "string[]",
							"name": "",
							"type": "string[]"
						}
					],
					"stateMutability": "view",
					"type": "function"
				},
				{
					"inputs": [
						{
							"internalType": "string",
							"name": "str",
							"type": "string"
						}
					],
					"name": "isEmptyString",
					"outputs": [
						{
							"internalType": "bool",
							"name": "",
							"type": "bool"
						}
					],
					"stateMutability": "pure",
					"type": "function"
				},
				{
					"inputs": [
						{
							"internalType": "string",
							"name": "str",
							"type": "string"
						}
					],
					"name": "isValidString",
					"outputs": [
						{
							"internalType": "bool",
							"name": "",
							"type": "bool"
						}
					],
					"stateMutability": "pure",
					"type": "function"
				},
				{
					"inputs": [],
					"name": "options",
					"outputs": [
						{
							"internalType": "enum IComponent.MethodTypes[]",
							"name": "",
							"type": "uint8[]"
						}
					],
					"stateMutability": "pure",
					"type": "function"
				},
				{
					"inputs": [
						{
							"internalType": "string",
							"name": "_methodName",
							"type": "string"
						},
						{
							"internalType": "bytes",
							"name": "_methodReq",
							"type": "bytes"
						}
					],
					"name": "post",
					"outputs": [
						{
							"internalType": "bytes",
							"name": "",
							"type": "bytes"
						}
					],
					"stateMutability": "payable",
					"type": "function"
				},
				{
					"inputs": [
						{
							"internalType": "string",
							"name": "_methodName",
							"type": "string"
						},
						{
							"internalType": "bytes",
							"name": "_methodReq",
							"type": "bytes"
						}
					],
					"name": "put",
					"outputs": [
						{
							"internalType": "bytes",
							"name": "",
							"type": "bytes"
						}
					],
					"stateMutability": "payable",
					"type": "function"
				},
				{
					"inputs": [
						{
							"internalType": "string",
							"name": "str",
							"type": "string"
						}
					],
					"name": "toLower",
					"outputs": [
						{
							"internalType": "string",
							"name": "",
							"type": "string"
						}
					],
					"stateMutability": "pure",
					"type": "function"
				}
			],
			"devdoc": {
				"events": {
					"Response(bytes)": {
						"params": {
							"_response": "is the response value of the post request or put request."
						}
					}
				},
				"kind": "dev",
				"methods": {
					"get(string,bytes)": {
						"params": {
							"_methodName": "is the method name.",
							"_methodReq": "is the method type."
						},
						"returns": {
							"_0": "The response to the get request."
						}
					},
					"getMethodReqAndRes(string)": {
						"params": {
							"_methodName": "is the method name."
						},
						"returns": {
							"_0": "Data types of request parameters and return parameters."
						}
					},
					"getMethods(uint8)": {
						"params": {
							"_methodTypes": "is the request method type."
						},
						"returns": {
							"_0": "Method names."
						}
					},
					"options()": {
						"returns": {
							"_0": "Method types."
						}
					},
					"post(string,bytes)": {
						"params": {
							"_methodName": "is the method name.",
							"_methodReq": "is the method type."
						},
						"returns": {
							"_0": "The response to the post request."
						}
					},
					"put(string,bytes)": {
						"params": {
							"_methodName": "is the method name.",
							"_methodReq": "is the method type."
						},
						"returns": {
							"_0": "The response to the put request."
						}
					}
				},
				"version": 1
			},
			"evm": {
				"assembly": "    /* \"contracts/AmeComponents/VibeProfiles/VibeProfile.sol\":193:9241  contract VibeProfile is IComponent {... */\n  mstore(0x40, 0x80)\n    /* \"contracts/AmeComponents/VibeProfiles/VibeProfile.sol\":811:2475  constructor() {... */\n  callvalue\n  dup1\n  iszero\n  tag_1\n  jumpi\n  0x00\n  dup1\n  revert\ntag_1:\n  pop\n    /* \"contracts/AmeComponents/VibeProfiles/VibeProfile.sol\":835:860  Types.Type[] memory type1 */\n  0x00\n    /* \"contracts/AmeComponents/VibeProfiles/VibeProfile.sol\":880:881  4 */\n  0x04\n    /* \"contracts/AmeComponents/VibeProfiles/VibeProfile.sol\":863:882  new Types.Type[](4) */\n  0xffffffffffffffff\n  dup2\n  gt\n  iszero\n  tag_4\n  jumpi\n  tag_5\n  tag_6\n  jump\t// in\ntag_5:\ntag_4:\n  mload(0x40)\n  swap1\n  dup1\n  dup3\n  mstore\n  dup1\n  0x20\n  mul\n  0x20\n  add\n  dup3\n  add\n  0x40\n  mstore\n  dup1\n  iszero\n  tag_7\n  jumpi\n  dup2\n  0x20\n  add\n  0x20\n  dup3\n  mul\n  dup1\n  calldatasize\n  dup4\n  calldatacopy\n  dup1\n  dup3\n  add\n  swap2\n  pop\n  pop\n  swap1\n  pop\ntag_7:\n  pop\n    /* \"contracts/AmeComponents/VibeProfiles/VibeProfile.sol\":835:882  Types.Type[] memory type1 = new Types.Type[](4) */\n  swap1\n  pop\n    /* \"contracts/AmeComponents/VibeProfiles/VibeProfile.sol\":903:920  Types.Type.STRING */\n  0x63\n    /* \"contracts/AmeComponents/VibeProfiles/VibeProfile.sol\":892:897  type1 */\n  dup2\n    /* \"contracts/AmeComponents/VibeProfiles/VibeProfile.sol\":898:899  0 */\n  0x00\n    /* \"contracts/AmeComponents/VibeProfiles/VibeProfile.sol\":892:900  type1[0] */\n  dup2\n  mload\n  dup2\n  lt\n  tag_8\n  jumpi\n  tag_9\n  tag_10\n  jump\t// in\ntag_9:\ntag_8:\n  0x20\n  mul\n  0x20\n  add\n  add\n    /* \"contracts/AmeComponents/VibeProfiles/VibeProfile.sol\":892:920  type1[0] = Types.Type.STRING */\n  swap1\n  0xc6\n  dup2\n  gt\n  iszero\n  tag_11\n  jumpi\n  tag_12\n  tag_13\n  jump\t// in\ntag_12:\ntag_11:\n  swap1\n  dup2\n  0xc6\n  dup2\n  gt\n  iszero\n  tag_14\n  jumpi\n  tag_15\n  tag_13\n  jump\t// in\ntag_15:\ntag_14:\n  dup2\n  mstore\n  pop\n  pop\n    /* \"contracts/AmeComponents/VibeProfiles/VibeProfile.sol\":941:958  Types.Type.STRING */\n  0x63\n    /* \"contracts/AmeComponents/VibeProfiles/VibeProfile.sol\":930:935  type1 */\n  dup2\n    /* \"contracts/AmeComponents/VibeProfiles/VibeProfile.sol\":936:937  1 */\n  0x01\n    /* \"contracts/AmeComponents/VibeProfiles/VibeProfile.sol\":930:938  type1[1] */\n  dup2\n  mload\n  dup2\n  lt\n  tag_16\n  jumpi\n  tag_17\n  tag_10\n  jump\t// in\ntag_17:\ntag_16:\n  0x20\n  mul\n  0x20\n  add\n  add\n    /* \"contracts/AmeComponents/VibeProfiles/VibeProfile.sol\":930:958  type1[1] = Types.Type.STRING */\n  swap1\n  0xc6\n  dup2\n  gt\n  iszero\n  tag_18\n  jumpi\n  tag_19\n  tag_13\n  jump\t// in\ntag_19:\ntag_18:\n  swap1\n  dup2\n  0xc6\n  dup2\n  gt\n  iszero\n  tag_20\n  jumpi\n  tag_21\n  tag_13\n  jump\t// in\ntag_21:\ntag_20:\n  dup2\n  mstore\n  pop\n  pop\n    /* \"contracts/AmeComponents/VibeProfiles/VibeProfile.sol\":979:996  Types.Type.STRING */\n  0x63\n    /* \"contracts/AmeComponents/VibeProfiles/VibeProfile.sol\":968:973  type1 */\n  dup2\n    /* \"contracts/AmeComponents/VibeProfiles/VibeProfile.sol\":974:975  2 */\n  0x02\n    /* \"contracts/AmeComponents/VibeProfiles/VibeProfile.sol\":968:976  type1[2] */\n  dup2\n  mload\n  dup2\n  lt\n  tag_22\n  jumpi\n  tag_23\n  tag_10\n  jump\t// in\ntag_23:\ntag_22:\n  0x20\n  mul\n  0x20\n  add\n  add\n    /* \"contracts/AmeComponents/VibeProfiles/VibeProfile.sol\":968:996  type1[2] = Types.Type.STRING */\n  swap1\n  0xc6\n  dup2\n  gt\n  iszero\n  tag_24\n  jumpi\n  tag_25\n  tag_13\n  jump\t// in\ntag_25:\ntag_24:\n  swap1\n  dup2\n  0xc6\n  dup2\n  gt\n  iszero\n  tag_26\n  jumpi\n  tag_27\n  tag_13\n  jump\t// in\ntag_27:\ntag_26:\n  dup2\n  mstore\n  pop\n  pop\n    /* \"contracts/AmeComponents/VibeProfiles/VibeProfile.sol\":1017:1034  Types.Type.STRING */\n  0x63\n    /* \"contracts/AmeComponents/VibeProfiles/VibeProfile.sol\":1006:1011  type1 */\n  dup2\n    /* \"contracts/AmeComponents/VibeProfiles/VibeProfile.sol\":1012:1013  3 */\n  0x03\n    /* \"contracts/AmeComponents/VibeProfiles/VibeProfile.sol\":1006:1014  type1[3] */\n  dup2\n  mload\n  dup2\n  lt\n  tag_28\n  jumpi\n  tag_29\n  tag_10\n  jump\t// in\ntag_29:\ntag_28:\n  0x20\n  mul\n  0x20\n  add\n  add\n    /* \"contracts/AmeComponents/VibeProfiles/VibeProfile.sol\":1006:1034  type1[3] = Types.Type.STRING */\n  swap1\n  0xc6\n  dup2\n  gt\n  iszero\n  tag_30\n  jumpi\n  tag_31\n  tag_13\n  jump\t// in\ntag_31:\ntag_30:\n  swap1\n  dup2\n  0xc6\n  dup2\n  gt\n  iszero\n  tag_32\n  jumpi\n  tag_33\n  tag_13\n  jump\t// in\ntag_33:\ntag_32:\n  dup2\n  mstore\n  pop\n  pop\n    /* \"contracts/AmeComponents/VibeProfiles/VibeProfile.sol\":1046:1071  Types.Type[] memory type2 */\n  0x00\n    /* \"contracts/AmeComponents/VibeProfiles/VibeProfile.sol\":1091:1092  3 */\n  0x03\n    /* \"contracts/AmeComponents/VibeProfiles/VibeProfile.sol\":1074:1093  new Types.Type[](3) */\n  0xffffffffffffffff\n  dup2\n  gt\n  iszero\n  tag_34\n  jumpi\n  tag_35\n  tag_6\n  jump\t// in\ntag_35:\ntag_34:\n  mload(0x40)\n  swap1\n  dup1\n  dup3\n  mstore\n  dup1\n  0x20\n  mul\n  0x20\n  add\n  dup3\n  add\n  0x40\n  mstore\n  dup1\n  iszero\n  tag_36\n  jumpi\n  dup2\n  0x20\n  add\n  0x20\n  dup3\n  mul\n  dup1\n  calldatasize\n  dup4\n  calldatacopy\n  dup1\n  dup3\n  add\n  swap2\n  pop\n  pop\n  swap1\n  pop\ntag_36:\n  pop\n    /* \"contracts/AmeComponents/VibeProfiles/VibeProfile.sol\":1046:1093  Types.Type[] memory type2 = new Types.Type[](3) */\n  swap1\n  pop\n    /* \"contracts/AmeComponents/VibeProfiles/VibeProfile.sol\":1114:1131  Types.Type.STRING */\n  0x63\n    /* \"contracts/AmeComponents/VibeProfiles/VibeProfile.sol\":1103:1108  type2 */\n  dup2\n    /* \"contracts/AmeComponents/VibeProfiles/VibeProfile.sol\":1109:1110  0 */\n  0x00\n    /* \"contracts/AmeComponents/VibeProfiles/VibeProfile.sol\":1103:1111  type2[0] */\n  dup2\n  mload\n  dup2\n  lt\n  tag_37\n  jumpi\n  tag_38\n  tag_10\n  jump\t// in\ntag_38:\ntag_37:\n  0x20\n  mul\n  0x20\n  add\n  add\n    /* \"contracts/AmeComponents/VibeProfiles/VibeProfile.sol\":1103:1131  type2[0] = Types.Type.STRING */\n  swap1\n  0xc6\n  dup2\n  gt\n  iszero\n  tag_39\n  jumpi\n  tag_40\n  tag_13\n  jump\t// in\ntag_40:\ntag_39:\n  swap1\n  dup2\n  0xc6\n  dup2\n  gt\n  iszero\n  tag_41\n  jumpi\n  tag_42\n  tag_13\n  jump\t// in\ntag_42:\ntag_41:\n  dup2\n  mstore\n  pop\n  pop\n    /* \"contracts/AmeComponents/VibeProfiles/VibeProfile.sol\":1152:1169  Types.Type.STRING */\n  0x63\n    /* \"contracts/AmeComponents/VibeProfiles/VibeProfile.sol\":1141:1146  type2 */\n  dup2\n    /* \"contracts/AmeComponents/VibeProfiles/VibeProfile.sol\":1147:1148  1 */\n  0x01\n    /* \"contracts/AmeComponents/VibeProfiles/VibeProfile.sol\":1141:1149  type2[1] */\n  dup2\n  mload\n  dup2\n  lt\n  tag_43\n  jumpi\n  tag_44\n  tag_10\n  jump\t// in\ntag_44:\ntag_43:\n  0x20\n  mul\n  0x20\n  add\n  add\n    /* \"contracts/AmeComponents/VibeProfiles/VibeProfile.sol\":1141:1169  type2[1] = Types.Type.STRING */\n  swap1\n  0xc6\n  dup2\n  gt\n  iszero\n  tag_45\n  jumpi\n  tag_46\n  tag_13\n  jump\t// in\ntag_46:\ntag_45:\n  swap1\n  dup2\n  0xc6\n  dup2\n  gt\n  iszero\n  tag_47\n  jumpi\n  tag_48\n  tag_13\n  jump\t// in\ntag_48:\ntag_47:\n  dup2\n  mstore\n  pop\n  pop\n    /* \"contracts/AmeComponents/VibeProfiles/VibeProfile.sol\":1190:1207  Types.Type.STRING */\n  0x63\n    /* \"contracts/AmeComponents/VibeProfiles/VibeProfile.sol\":1179:1184  type2 */\n  dup2\n    /* \"contracts/AmeComponents/VibeProfiles/VibeProfile.sol\":1185:1186  2 */\n  0x02\n    /* \"contracts/AmeComponents/VibeProfiles/VibeProfile.sol\":1179:1187  type2[2] */\n  dup2\n  mload\n  dup2\n  lt\n  tag_49\n  jumpi\n  tag_50\n  tag_10\n  jump\t// in\ntag_50:\ntag_49:\n  0x20\n  mul\n  0x20\n  add\n  add\n    /* \"contracts/AmeComponents/VibeProfiles/VibeProfile.sol\":1179:1207  type2[2] = Types.Type.STRING */\n  swap1\n  0xc6\n  dup2\n  gt\n  iszero\n  tag_51\n  jumpi\n  tag_52\n  tag_13\n  jump\t// in\ntag_52:\ntag_51:\n  swap1\n  dup2\n  0xc6\n  dup2\n  gt\n  iszero\n  tag_53\n  jumpi\n  tag_54\n  tag_13\n  jump\t// in\ntag_54:\ntag_53:\n  dup2\n  mstore\n  pop\n  pop\n    /* \"contracts/AmeComponents/VibeProfiles/VibeProfile.sol\":1219:1244  Types.Type[] memory type3 */\n  0x00\n    /* \"contracts/AmeComponents/VibeProfiles/VibeProfile.sol\":1264:1265  1 */\n  0x01\n    /* \"contracts/AmeComponents/VibeProfiles/VibeProfile.sol\":1247:1266  new Types.Type[](1) */\n  0xffffffffffffffff\n  dup2\n  gt\n  iszero\n  tag_55\n  jumpi\n  tag_56\n  tag_6\n  jump\t// in\ntag_56:\ntag_55:\n  mload(0x40)\n  swap1\n  dup1\n  dup3\n  mstore\n  dup1\n  0x20\n  mul\n  0x20\n  add\n  dup3\n  add\n  0x40\n  mstore\n  dup1\n  iszero\n  tag_57\n  jumpi\n  dup2\n  0x20\n  add\n  0x20\n  dup3\n  mul\n  dup1\n  calldatasize\n  dup4\n  calldatacopy\n  dup1\n  dup3\n  add\n  swap2\n  pop\n  pop\n  swap1\n  pop\ntag_57:\n  pop\n    /* \"contracts/AmeComponents/VibeProfiles/VibeProfile.sol\":1219:1266  Types.Type[] memory type3 = new Types.Type[](1) */\n  swap1\n  pop\n    /* \"contracts/AmeComponents/VibeProfiles/VibeProfile.sol\":1287:1311  Types.Type.ADDRESS_ARRAY */\n  0xa4\n    /* \"contracts/AmeComponents/VibeProfiles/VibeProfile.sol\":1276:1281  type3 */\n  dup2\n    /* \"contracts/AmeComponents/VibeProfiles/VibeProfile.sol\":1282:1283  0 */\n  0x00\n    /* \"contracts/AmeComponents/VibeProfiles/VibeProfile.sol\":1276:1284  type3[0] */\n  dup2\n  mload\n  dup2\n  lt\n  tag_58\n  jumpi\n  tag_59\n  tag_10\n  jump\t// in\ntag_59:\ntag_58:\n  0x20\n  mul\n  0x20\n  add\n  add\n    /* \"contracts/AmeComponents/VibeProfiles/VibeProfile.sol\":1276:1311  type3[0] = Types.Type.ADDRESS_ARRAY */\n  swap1\n  0xc6\n  dup2\n  gt\n  iszero\n  tag_60\n  jumpi\n  tag_61\n  tag_13\n  jump\t// in\ntag_61:\ntag_60:\n  swap1\n  dup2\n  0xc6\n  dup2\n  gt\n  iszero\n  tag_62\n  jumpi\n  tag_63\n  tag_13\n  jump\t// in\ntag_63:\ntag_62:\n  dup2\n  mstore\n  pop\n  pop\n    /* \"contracts/AmeComponents/VibeProfiles/VibeProfile.sol\":1322:1347  Types.Type[] memory type4 */\n  0x00\n    /* \"contracts/AmeComponents/VibeProfiles/VibeProfile.sol\":1367:1368  4 */\n  0x04\n    /* \"contracts/AmeComponents/VibeProfiles/VibeProfile.sol\":1350:1369  new Types.Type[](4) */\n  0xffffffffffffffff\n  dup2\n  gt\n  iszero\n  tag_64\n  jumpi\n  tag_65\n  tag_6\n  jump\t// in\ntag_65:\ntag_64:\n  mload(0x40)\n  swap1\n  dup1\n  dup3\n  mstore\n  dup1\n  0x20\n  mul\n  0x20\n  add\n  dup3\n  add\n  0x40\n  mstore\n  dup1\n  iszero\n  tag_66\n  jumpi\n  dup2\n  0x20\n  add\n  0x20\n  dup3\n  mul\n  dup1\n  calldatasize\n  dup4\n  calldatacopy\n  dup1\n  dup3\n  add\n  swap2\n  pop\n  pop\n  swap1\n  pop\ntag_66:\n  pop\n    /* \"contracts/AmeComponents/VibeProfiles/VibeProfile.sol\":1322:1369  Types.Type[] memory type4 = new Types.Type[](4) */\n  swap1\n  pop\n    /* \"contracts/AmeComponents/VibeProfiles/VibeProfile.sol\":1390:1413  Types.Type.STRING_ARRAY */\n  0xc6\n    /* \"contracts/AmeComponents/VibeProfiles/VibeProfile.sol\":1379:1384  type4 */\n  dup2\n    /* \"contracts/AmeComponents/VibeProfiles/VibeProfile.sol\":1385:1386  0 */\n  0x00\n    /* \"contracts/AmeComponents/VibeProfiles/VibeProfile.sol\":1379:1387  type4[0] */\n  dup2\n  mload\n  dup2\n  lt\n  tag_67\n  jumpi\n  tag_68\n  tag_10\n  jump\t// in\ntag_68:\ntag_67:\n  0x20\n  mul\n  0x20\n  add\n  add\n    /* \"contracts/AmeComponents/VibeProfiles/VibeProfile.sol\":1379:1413  type4[0] = Types.Type.STRING_ARRAY */\n  swap1\n  0xc6\n  dup2\n  gt\n  iszero\n  tag_69\n  jumpi\n  tag_70\n  tag_13\n  jump\t// in\ntag_70:\ntag_69:\n  swap1\n  dup2\n  0xc6\n  dup2\n  gt\n  iszero\n  tag_71\n  jumpi\n  tag_72\n  tag_13\n  jump\t// in\ntag_72:\ntag_71:\n  dup2\n  mstore\n  pop\n  pop\n    /* \"contracts/AmeComponents/VibeProfiles/VibeProfile.sol\":1434:1457  Types.Type.STRING_ARRAY */\n  0xc6\n    /* \"contracts/AmeComponents/VibeProfiles/VibeProfile.sol\":1423:1428  type4 */\n  dup2\n    /* \"contracts/AmeComponents/VibeProfiles/VibeProfile.sol\":1429:1430  1 */\n  0x01\n    /* \"contracts/AmeComponents/VibeProfiles/VibeProfile.sol\":1423:1431  type4[1] */\n  dup2\n  mload\n  dup2\n  lt\n  tag_73\n  jumpi\n  tag_74\n  tag_10\n  jump\t// in\ntag_74:\ntag_73:\n  0x20\n  mul\n  0x20\n  add\n  add\n    /* \"contracts/AmeComponents/VibeProfiles/VibeProfile.sol\":1423:1457  type4[1] = Types.Type.STRING_ARRAY */\n  swap1\n  0xc6\n  dup2\n  gt\n  iszero\n  tag_75\n  jumpi\n  tag_76\n  tag_13\n  jump\t// in\ntag_76:\ntag_75:\n  swap1\n  dup2\n  0xc6\n  dup2\n  gt\n  iszero\n  tag_77\n  jumpi\n  tag_78\n  tag_13\n  jump\t// in\ntag_78:\ntag_77:\n  dup2\n  mstore\n  pop\n  pop\n    /* \"contracts/AmeComponents/VibeProfiles/VibeProfile.sol\":1478:1501  Types.Type.STRING_ARRAY */\n  0xc6\n    /* \"contracts/AmeComponents/VibeProfiles/VibeProfile.sol\":1467:1472  type4 */\n  dup2\n    /* \"contracts/AmeComponents/VibeProfiles/VibeProfile.sol\":1473:1474  2 */\n  0x02\n    /* \"contracts/AmeComponents/VibeProfiles/VibeProfile.sol\":1467:1475  type4[2] */\n  dup2\n  mload\n  dup2\n  lt\n  tag_79\n  jumpi\n  tag_80\n  tag_10\n  jump\t// in\ntag_80:\ntag_79:\n  0x20\n  mul\n  0x20\n  add\n  add\n    /* \"contracts/AmeComponents/VibeProfiles/VibeProfile.sol\":1467:1501  type4[2] = Types.Type.STRING_ARRAY */\n  swap1\n  0xc6\n  dup2\n  gt\n  iszero\n  tag_81\n  jumpi\n  tag_82\n  tag_13\n  jump\t// in\ntag_82:\ntag_81:\n  swap1\n  dup2\n  0xc6\n  dup2\n  gt\n  iszero\n  tag_83\n  jumpi\n  tag_84\n  tag_13\n  jump\t// in\ntag_84:\ntag_83:\n  dup2\n  mstore\n  pop\n  pop\n    /* \"contracts/AmeComponents/VibeProfiles/VibeProfile.sol\":1522:1545  Types.Type.STRING_ARRAY */\n  0xc6\n    /* \"contracts/AmeComponents/VibeProfiles/VibeProfile.sol\":1511:1516  type4 */\n  dup2\n    /* \"contracts/AmeComponents/VibeProfiles/VibeProfile.sol\":1517:1518  3 */\n  0x03\n    /* \"contracts/AmeComponents/VibeProfiles/VibeProfile.sol\":1511:1519  type4[3] */\n  dup2\n  mload\n  dup2\n  lt\n  tag_85\n  jumpi\n  tag_86\n  tag_10\n  jump\t// in\ntag_86:\ntag_85:\n  0x20\n  mul\n  0x20\n  add\n  add\n    /* \"contracts/AmeComponents/VibeProfiles/VibeProfile.sol\":1511:1545  type4[3] = Types.Type.STRING_ARRAY */\n  swap1\n  0xc6\n  dup2\n  gt\n  iszero\n  tag_87\n  jumpi\n  tag_88\n  tag_13\n  jump\t// in\ntag_88:\ntag_87:\n  swap1\n  dup2\n  0xc6\n  dup2\n  gt\n  iszero\n  tag_89\n  jumpi\n  tag_90\n  tag_13\n  jump\t// in\ntag_90:\ntag_89:\n  dup2\n  mstore\n  pop\n  pop\n    /* \"contracts/AmeComponents/VibeProfiles/VibeProfile.sol\":1556:1581  Types.Type[] memory type5 */\n  0x00\n    /* \"contracts/AmeComponents/VibeProfiles/VibeProfile.sol\":1601:1602  1 */\n  0x01\n    /* \"contracts/AmeComponents/VibeProfiles/VibeProfile.sol\":1584:1603  new Types.Type[](1) */\n  0xffffffffffffffff\n  dup2\n  gt\n  iszero\n  tag_91\n  jumpi\n  tag_92\n  tag_6\n  jump\t// in\ntag_92:\ntag_91:\n  mload(0x40)\n  swap1\n  dup1\n  dup3\n  mstore\n  dup1\n  0x20\n  mul\n  0x20\n  add\n  dup3\n  add\n  0x40\n  mstore\n  dup1\n  iszero\n  tag_93\n  jumpi\n  dup2\n  0x20\n  add\n  0x20\n  dup3\n  mul\n  dup1\n  calldatasize\n  dup4\n  calldatacopy\n  dup1\n  dup3\n  add\n  swap2\n  pop\n  pop\n  swap1\n  pop\ntag_93:\n  pop\n    /* \"contracts/AmeComponents/VibeProfiles/VibeProfile.sol\":1556:1603  Types.Type[] memory type5 = new Types.Type[](1) */\n  swap1\n  pop\n    /* \"contracts/AmeComponents/VibeProfiles/VibeProfile.sol\":1624:1642  Types.Type.ADDRESS */\n  0x41\n    /* \"contracts/AmeComponents/VibeProfiles/VibeProfile.sol\":1613:1618  type5 */\n  dup2\n    /* \"contracts/AmeComponents/VibeProfiles/VibeProfile.sol\":1619:1620  0 */\n  0x00\n    /* \"contracts/AmeComponents/VibeProfiles/VibeProfile.sol\":1613:1621  type5[0] */\n  dup2\n  mload\n  dup2\n  lt\n  tag_94\n  jumpi\n  tag_95\n  tag_10\n  jump\t// in\ntag_95:\ntag_94:\n  0x20\n  mul\n  0x20\n  add\n  add\n    /* \"contracts/AmeComponents/VibeProfiles/VibeProfile.sol\":1613:1642  type5[0] = Types.Type.ADDRESS */\n  swap1\n  0xc6\n  dup2\n  gt\n  iszero\n  tag_96\n  jumpi\n  tag_97\n  tag_13\n  jump\t// in\ntag_97:\ntag_96:\n  swap1\n  dup2\n  0xc6\n  dup2\n  gt\n  iszero\n  tag_98\n  jumpi\n  tag_99\n  tag_13\n  jump\t// in\ntag_99:\ntag_98:\n  dup2\n  mstore\n  pop\n  pop\n    /* \"contracts/AmeComponents/VibeProfiles/VibeProfile.sol\":1653:1678  Types.Type[] memory type6 */\n  0x00\n    /* \"contracts/AmeComponents/VibeProfiles/VibeProfile.sol\":1698:1699  1 */\n  0x01\n    /* \"contracts/AmeComponents/VibeProfiles/VibeProfile.sol\":1681:1700  new Types.Type[](1) */\n  0xffffffffffffffff\n  dup2\n  gt\n  iszero\n  tag_100\n  jumpi\n  tag_101\n  tag_6\n  jump\t// in\ntag_101:\ntag_100:\n  mload(0x40)\n  swap1\n  dup1\n  dup3\n  mstore\n  dup1\n  0x20\n  mul\n  0x20\n  add\n  dup3\n  add\n  0x40\n  mstore\n  dup1\n  iszero\n  tag_102\n  jumpi\n  dup2\n  0x20\n  add\n  0x20\n  dup3\n  mul\n  dup1\n  calldatasize\n  dup4\n  calldatacopy\n  dup1\n  dup3\n  add\n  swap2\n  pop\n  pop\n  swap1\n  pop\ntag_102:\n  pop\n    /* \"contracts/AmeComponents/VibeProfiles/VibeProfile.sol\":1653:1700  Types.Type[] memory type6 = new Types.Type[](1) */\n  swap1\n  pop\n    /* \"contracts/AmeComponents/VibeProfiles/VibeProfile.sol\":1721:1738  Types.Type.STRING */\n  0x63\n    /* \"contracts/AmeComponents/VibeProfiles/VibeProfile.sol\":1710:1715  type6 */\n  dup2\n    /* \"contracts/AmeComponents/VibeProfiles/VibeProfile.sol\":1716:1717  0 */\n  0x00\n    /* \"contracts/AmeComponents/VibeProfiles/VibeProfile.sol\":1710:1718  type6[0] */\n  dup2\n  mload\n  dup2\n  lt\n  tag_103\n  jumpi\n  tag_104\n  tag_10\n  jump\t// in\ntag_104:\ntag_103:\n  0x20\n  mul\n  0x20\n  add\n  add\n    /* \"contracts/AmeComponents/VibeProfiles/VibeProfile.sol\":1710:1738  type6[0] = Types.Type.STRING */\n  swap1\n  0xc6\n  dup2\n  gt\n  iszero\n  tag_105\n  jumpi\n  tag_106\n  tag_13\n  jump\t// in\ntag_106:\ntag_105:\n  swap1\n  dup2\n  0xc6\n  dup2\n  gt\n  iszero\n  tag_107\n  jumpi\n  tag_108\n  tag_13\n  jump\t// in\ntag_108:\ntag_107:\n  dup2\n  mstore\n  pop\n  pop\n    /* \"contracts/AmeComponents/VibeProfiles/VibeProfile.sol\":1749:1774  Types.Type[] memory type7 */\n  0x00\n    /* \"contracts/AmeComponents/VibeProfiles/VibeProfile.sol\":1794:1795  1 */\n  0x01\n    /* \"contracts/AmeComponents/VibeProfiles/VibeProfile.sol\":1777:1796  new Types.Type[](1) */\n  0xffffffffffffffff\n  dup2\n  gt\n  iszero\n  tag_109\n  jumpi\n  tag_110\n  tag_6\n  jump\t// in\ntag_110:\ntag_109:\n  mload(0x40)\n  swap1\n  dup1\n  dup3\n  mstore\n  dup1\n  0x20\n  mul\n  0x20\n  add\n  dup3\n  add\n  0x40\n  mstore\n  dup1\n  iszero\n  tag_111\n  jumpi\n  dup2\n  0x20\n  add\n  0x20\n  dup3\n  mul\n  dup1\n  calldatasize\n  dup4\n  calldatacopy\n  dup1\n  dup3\n  add\n  swap2\n  pop\n  pop\n  swap1\n  pop\ntag_111:\n  pop\n    /* \"contracts/AmeComponents/VibeProfiles/VibeProfile.sol\":1749:1796  Types.Type[] memory type7 = new Types.Type[](1) */\n  swap1\n  pop\n    /* \"contracts/AmeComponents/VibeProfiles/VibeProfile.sol\":1817:1840  Types.Type.STRING_ARRAY */\n  0xc6\n    /* \"contracts/AmeComponents/VibeProfiles/VibeProfile.sol\":1806:1811  type7 */\n  dup2\n    /* \"contracts/AmeComponents/VibeProfiles/VibeProfile.sol\":1812:1813  0 */\n  0x00\n    /* \"contracts/AmeComponents/VibeProfiles/VibeProfile.sol\":1806:1814  type7[0] */\n  dup2\n  mload\n  dup2\n  lt\n  tag_112\n  jumpi\n  tag_113\n  tag_10\n  jump\t// in\ntag_113:\ntag_112:\n  0x20\n  mul\n  0x20\n  add\n  add\n    /* \"contracts/AmeComponents/VibeProfiles/VibeProfile.sol\":1806:1840  type7[0] = Types.Type.STRING_ARRAY */\n  swap1\n  0xc6\n  dup2\n  gt\n  iszero\n  tag_114\n  jumpi\n  tag_115\n  tag_13\n  jump\t// in\ntag_115:\ntag_114:\n  swap1\n  dup2\n  0xc6\n  dup2\n  gt\n  iszero\n  tag_116\n  jumpi\n  tag_117\n  tag_13\n  jump\t// in\ntag_117:\ntag_116:\n  dup2\n  mstore\n  pop\n  pop\n    /* \"contracts/AmeComponents/VibeProfiles/VibeProfile.sol\":1851:1876  Types.Type[] memory type8 */\n  0x00\n    /* \"contracts/AmeComponents/VibeProfiles/VibeProfile.sol\":1896:1897  4 */\n  0x04\n    /* \"contracts/AmeComponents/VibeProfiles/VibeProfile.sol\":1879:1898  new Types.Type[](4) */\n  0xffffffffffffffff\n  dup2\n  gt\n  iszero\n  tag_118\n  jumpi\n  tag_119\n  tag_6\n  jump\t// in\ntag_119:\ntag_118:\n  mload(0x40)\n  swap1\n  dup1\n  dup3\n  mstore\n  dup1\n  0x20\n  mul\n  0x20\n  add\n  dup3\n  add\n  0x40\n  mstore\n  dup1\n  iszero\n  tag_120\n  jumpi\n  dup2\n  0x20\n  add\n  0x20\n  dup3\n  mul\n  dup1\n  calldatasize\n  dup4\n  calldatacopy\n  dup1\n  dup3\n  add\n  swap2\n  pop\n  pop\n  swap1\n  pop\ntag_120:\n  pop\n    /* \"contracts/AmeComponents/VibeProfiles/VibeProfile.sol\":1851:1898  Types.Type[] memory type8 = new Types.Type[](4) */\n  swap1\n  pop\n    /* \"contracts/AmeComponents/VibeProfiles/VibeProfile.sol\":1919:1943  Types.Type.ADDRESS_ARRAY */\n  0xa4\n    /* \"contracts/AmeComponents/VibeProfiles/VibeProfile.sol\":1908:1913  type8 */\n  dup2\n    /* \"contracts/AmeComponents/VibeProfiles/VibeProfile.sol\":1914:1915  0 */\n  0x00\n    /* \"contracts/AmeComponents/VibeProfiles/VibeProfile.sol\":1908:1916  type8[0] */\n  dup2\n  mload\n  dup2\n  lt\n  tag_121\n  jumpi\n  tag_122\n  tag_10\n  jump\t// in\ntag_122:\ntag_121:\n  0x20\n  mul\n  0x20\n  add\n  add\n    /* \"contracts/AmeComponents/VibeProfiles/VibeProfile.sol\":1908:1943  type8[0] = Types.Type.ADDRESS_ARRAY */\n  swap1\n  0xc6\n  dup2\n  gt\n  iszero\n  tag_123\n  jumpi\n  tag_124\n  tag_13\n  jump\t// in\ntag_124:\ntag_123:\n  swap1\n  dup2\n  0xc6\n  dup2\n  gt\n  iszero\n  tag_125\n  jumpi\n  tag_126\n  tag_13\n  jump\t// in\ntag_126:\ntag_125:\n  dup2\n  mstore\n  pop\n  pop\n    /* \"contracts/AmeComponents/VibeProfiles/VibeProfile.sol\":1964:1987  Types.Type.STRING_ARRAY */\n  0xc6\n    /* \"contracts/AmeComponents/VibeProfiles/VibeProfile.sol\":1953:1958  type8 */\n  dup2\n    /* \"contracts/AmeComponents/VibeProfiles/VibeProfile.sol\":1959:1960  1 */\n  0x01\n    /* \"contracts/AmeComponents/VibeProfiles/VibeProfile.sol\":1953:1961  type8[1] */\n  dup2\n  mload\n  dup2\n  lt\n  tag_127\n  jumpi\n  tag_128\n  tag_10\n  jump\t// in\ntag_128:\ntag_127:\n  0x20\n  mul\n  0x20\n  add\n  add\n    /* \"contracts/AmeComponents/VibeProfiles/VibeProfile.sol\":1953:1987  type8[1] = Types.Type.STRING_ARRAY */\n  swap1\n  0xc6\n  dup2\n  gt\n  iszero\n  tag_129\n  jumpi\n  tag_130\n  tag_13\n  jump\t// in\ntag_130:\ntag_129:\n  swap1\n  dup2\n  0xc6\n  dup2\n  gt\n  iszero\n  tag_131\n  jumpi\n  tag_132\n  tag_13\n  jump\t// in\ntag_132:\ntag_131:\n  dup2\n  mstore\n  pop\n  pop\n    /* \"contracts/AmeComponents/VibeProfiles/VibeProfile.sol\":2008:2031  Types.Type.STRING_ARRAY */\n  0xc6\n    /* \"contracts/AmeComponents/VibeProfiles/VibeProfile.sol\":1997:2002  type8 */\n  dup2\n    /* \"contracts/AmeComponents/VibeProfiles/VibeProfile.sol\":2003:2004  2 */\n  0x02\n    /* \"contracts/AmeComponents/VibeProfiles/VibeProfile.sol\":1997:2005  type8[2] */\n  dup2\n  mload\n  dup2\n  lt\n  tag_133\n  jumpi\n  tag_134\n  tag_10\n  jump\t// in\ntag_134:\ntag_133:\n  0x20\n  mul\n  0x20\n  add\n  add\n    /* \"contracts/AmeComponents/VibeProfiles/VibeProfile.sol\":1997:2031  type8[2] = Types.Type.STRING_ARRAY */\n  swap1\n  0xc6\n  dup2\n  gt\n  iszero\n  tag_135\n  jumpi\n  tag_136\n  tag_13\n  jump\t// in\ntag_136:\ntag_135:\n  swap1\n  dup2\n  0xc6\n  dup2\n  gt\n  iszero\n  tag_137\n  jumpi\n  tag_138\n  tag_13\n  jump\t// in\ntag_138:\ntag_137:\n  dup2\n  mstore\n  pop\n  pop\n    /* \"contracts/AmeComponents/VibeProfiles/VibeProfile.sol\":2052:2075  Types.Type.STRING_ARRAY */\n  0xc6\n    /* \"contracts/AmeComponents/VibeProfiles/VibeProfile.sol\":2041:2046  type8 */\n  dup2\n    /* \"contracts/AmeComponents/VibeProfiles/VibeProfile.sol\":2047:2048  3 */\n  0x03\n    /* \"contracts/AmeComponents/VibeProfiles/VibeProfile.sol\":2041:2049  type8[3] */\n  dup2\n  mload\n  dup2\n  lt\n  tag_139\n  jumpi\n  tag_140\n  tag_10\n  jump\t// in\ntag_140:\ntag_139:\n  0x20\n  mul\n  0x20\n  add\n  add\n    /* \"contracts/AmeComponents/VibeProfiles/VibeProfile.sol\":2041:2075  type8[3] = Types.Type.STRING_ARRAY */\n  swap1\n  0xc6\n  dup2\n  gt\n  iszero\n  tag_141\n  jumpi\n  tag_142\n  tag_13\n  jump\t// in\ntag_142:\ntag_141:\n  swap1\n  dup2\n  0xc6\n  dup2\n  gt\n  iszero\n  tag_143\n  jumpi\n  tag_144\n  tag_13\n  jump\t// in\ntag_144:\ntag_143:\n  dup2\n  mstore\n  pop\n  pop\n    /* \"contracts/AmeComponents/VibeProfiles/VibeProfile.sol\":2086:2155  setMethod(\"createUser\", MethodTypes.POST, type1, new Types.Type[](0)) */\n  tag_145\n  mload(0x40)\n  dup1\n  0x40\n  add\n  0x40\n  mstore\n  dup1\n  0x0a\n  dup2\n  mstore\n  0x20\n  add\n  0x6372656174655573657200000000000000000000000000000000000000000000\n  dup2\n  mstore\n  pop\n    /* \"contracts/AmeComponents/VibeProfiles/VibeProfile.sol\":2110:2126  MethodTypes.POST */\n  0x01\n    /* \"contracts/AmeComponents/VibeProfiles/VibeProfile.sol\":2128:2133  type1 */\n  dup11\n    /* \"contracts/AmeComponents/VibeProfiles/VibeProfile.sol\":2152:2153  0 */\n  0x00\n    /* \"contracts/AmeComponents/VibeProfiles/VibeProfile.sol\":2135:2154  new Types.Type[](0) */\n  0xffffffffffffffff\n  dup2\n  gt\n  iszero\n  tag_146\n  jumpi\n  tag_147\n  tag_6\n  jump\t// in\ntag_147:\ntag_146:\n  mload(0x40)\n  swap1\n  dup1\n  dup3\n  mstore\n  dup1\n  0x20\n  mul\n  0x20\n  add\n  dup3\n  add\n  0x40\n  mstore\n  dup1\n  iszero\n  tag_148\n  jumpi\n  dup2\n  0x20\n  add\n  0x20\n  dup3\n  mul\n  dup1\n  calldatasize\n  dup4\n  calldatacopy\n  dup1\n  dup3\n  add\n  swap2\n  pop\n  pop\n  swap1\n  pop\ntag_148:\n  pop\n    /* \"contracts/AmeComponents/VibeProfiles/VibeProfile.sol\":2086:2095  setMethod */\n  shl(0x20, tag_149)\n    /* \"contracts/AmeComponents/VibeProfiles/VibeProfile.sol\":2086:2155  setMethod(\"createUser\", MethodTypes.POST, type1, new Types.Type[](0)) */\n  0x20\n  shr\n  jump\t// in\ntag_145:\n    /* \"contracts/AmeComponents/VibeProfiles/VibeProfile.sol\":2165:2237  setMethod(\"updateUserInfo\", MethodTypes.PUT, type2, new Types.Type[](0)) */\n  tag_150\n  mload(0x40)\n  dup1\n  0x40\n  add\n  0x40\n  mstore\n  dup1\n  0x0e\n  dup2\n  mstore\n  0x20\n  add\n  0x75706461746555736572496e666f000000000000000000000000000000000000\n  dup2\n  mstore\n  pop\n    /* \"contracts/AmeComponents/VibeProfiles/VibeProfile.sol\":2193:2208  MethodTypes.PUT */\n  0x02\n    /* \"contracts/AmeComponents/VibeProfiles/VibeProfile.sol\":2210:2215  type2 */\n  dup10\n    /* \"contracts/AmeComponents/VibeProfiles/VibeProfile.sol\":2234:2235  0 */\n  0x00\n    /* \"contracts/AmeComponents/VibeProfiles/VibeProfile.sol\":2217:2236  new Types.Type[](0) */\n  0xffffffffffffffff\n  dup2\n  gt\n  iszero\n  tag_151\n  jumpi\n  tag_152\n  tag_6\n  jump\t// in\ntag_152:\ntag_151:\n  mload(0x40)\n  swap1\n  dup1\n  dup3\n  mstore\n  dup1\n  0x20\n  mul\n  0x20\n  add\n  dup3\n  add\n  0x40\n  mstore\n  dup1\n  iszero\n  tag_153\n  jumpi\n  dup2\n  0x20\n  add\n  0x20\n  dup3\n  mul\n  dup1\n  calldatasize\n  dup4\n  calldatacopy\n  dup1\n  dup3\n  add\n  swap2\n  pop\n  pop\n  swap1\n  pop\ntag_153:\n  pop\n    /* \"contracts/AmeComponents/VibeProfiles/VibeProfile.sol\":2165:2174  setMethod */\n  shl(0x20, tag_149)\n    /* \"contracts/AmeComponents/VibeProfiles/VibeProfile.sol\":2165:2237  setMethod(\"updateUserInfo\", MethodTypes.PUT, type2, new Types.Type[](0)) */\n  0x20\n  shr\n  jump\t// in\ntag_150:\n    /* \"contracts/AmeComponents/VibeProfiles/VibeProfile.sol\":2247:2313  setMethod(\"getUserInfoByAddresses\", MethodTypes.GET, type3, type4) */\n  tag_154\n  mload(0x40)\n  dup1\n  0x40\n  add\n  0x40\n  mstore\n  dup1\n  0x16\n  dup2\n  mstore\n  0x20\n  add\n  0x67657455736572496e666f427941646472657373657300000000000000000000\n  dup2\n  mstore\n  pop\n    /* \"contracts/AmeComponents/VibeProfiles/VibeProfile.sol\":2283:2298  MethodTypes.GET */\n  0x00\n    /* \"contracts/AmeComponents/VibeProfiles/VibeProfile.sol\":2300:2305  type3 */\n  dup9\n    /* \"contracts/AmeComponents/VibeProfiles/VibeProfile.sol\":2307:2312  type4 */\n  dup9\n    /* \"contracts/AmeComponents/VibeProfiles/VibeProfile.sol\":2247:2256  setMethod */\n  shl(0x20, tag_149)\n    /* \"contracts/AmeComponents/VibeProfiles/VibeProfile.sol\":2247:2313  setMethod(\"getUserInfoByAddresses\", MethodTypes.GET, type3, type4) */\n  0x20\n  shr\n  jump\t// in\ntag_154:\n    /* \"contracts/AmeComponents/VibeProfiles/VibeProfile.sol\":2323:2387  setMethod(\"getUserInfoByHandles\", MethodTypes.GET, type7, type8) */\n  tag_155\n  mload(0x40)\n  dup1\n  0x40\n  add\n  0x40\n  mstore\n  dup1\n  0x14\n  dup2\n  mstore\n  0x20\n  add\n  0x67657455736572496e666f427948616e646c6573000000000000000000000000\n  dup2\n  mstore\n  pop\n    /* \"contracts/AmeComponents/VibeProfiles/VibeProfile.sol\":2357:2372  MethodTypes.GET */\n  0x00\n    /* \"contracts/AmeComponents/VibeProfiles/VibeProfile.sol\":2374:2379  type7 */\n  dup5\n    /* \"contracts/AmeComponents/VibeProfiles/VibeProfile.sol\":2381:2386  type8 */\n  dup5\n    /* \"contracts/AmeComponents/VibeProfiles/VibeProfile.sol\":2323:2332  setMethod */\n  shl(0x20, tag_149)\n    /* \"contracts/AmeComponents/VibeProfiles/VibeProfile.sol\":2323:2387  setMethod(\"getUserInfoByHandles\", MethodTypes.GET, type7, type8) */\n  0x20\n  shr\n  jump\t// in\ntag_155:\n    /* \"contracts/AmeComponents/VibeProfiles/VibeProfile.sol\":2397:2459  setMethod(\"getAddressByHandle\", MethodTypes.GET, type6, type5) */\n  tag_156\n  mload(0x40)\n  dup1\n  0x40\n  add\n  0x40\n  mstore\n  dup1\n  0x12\n  dup2\n  mstore\n  0x20\n  add\n  0x67657441646472657373427948616e646c650000000000000000000000000000\n  dup2\n  mstore\n  pop\n    /* \"contracts/AmeComponents/VibeProfiles/VibeProfile.sol\":2429:2444  MethodTypes.GET */\n  0x00\n    /* \"contracts/AmeComponents/VibeProfiles/VibeProfile.sol\":2446:2451  type6 */\n  dup6\n    /* \"contracts/AmeComponents/VibeProfiles/VibeProfile.sol\":2453:2458  type5 */\n  dup8\n    /* \"contracts/AmeComponents/VibeProfiles/VibeProfile.sol\":2397:2406  setMethod */\n  shl(0x20, tag_149)\n    /* \"contracts/AmeComponents/VibeProfiles/VibeProfile.sol\":2397:2459  setMethod(\"getAddressByHandle\", MethodTypes.GET, type6, type5) */\n  0x20\n  shr\n  jump\t// in\ntag_156:\n    /* \"contracts/AmeComponents/VibeProfiles/VibeProfile.sol\":825:2475  {... */\n  pop\n  pop\n  pop\n  pop\n  pop\n  pop\n  pop\n  pop\n    /* \"contracts/AmeComponents/VibeProfiles/VibeProfile.sol\":193:9241  contract VibeProfile is IComponent {... */\n  jump(tag_157)\n    /* \"contracts/AmeComponents/VibeProfiles/VibeProfile.sol\":6899:7236  function setMethod(... */\ntag_149:\n    /* \"contracts/AmeComponents/VibeProfiles/VibeProfile.sol\":7090:7097  methods */\n  0x00\n    /* \"contracts/AmeComponents/VibeProfiles/VibeProfile.sol\":7090:7110  methods[_methodType] */\n  dup1\n    /* \"contracts/AmeComponents/VibeProfiles/VibeProfile.sol\":7098:7109  _methodType */\n  dup5\n    /* \"contracts/AmeComponents/VibeProfiles/VibeProfile.sol\":7090:7110  methods[_methodType] */\n  0x03\n  dup2\n  gt\n  iszero\n  tag_159\n  jumpi\n  tag_160\n  tag_13\n  jump\t// in\ntag_160:\ntag_159:\n  0x03\n  dup2\n  gt\n  iszero\n  tag_161\n  jumpi\n  tag_162\n  tag_13\n  jump\t// in\ntag_162:\ntag_161:\n  dup2\n  mstore\n  0x20\n  add\n  swap1\n  dup2\n  mstore\n  0x20\n  add\n  0x00\n  keccak256\n    /* \"contracts/AmeComponents/VibeProfiles/VibeProfile.sol\":7116:7127  _methodName */\n  dup5\n    /* \"contracts/AmeComponents/VibeProfiles/VibeProfile.sol\":7090:7128  methods[_methodType].push(_methodName) */\n  swap1\n  dup1\n  0x01\n  dup2\n  sload\n  add\n  dup1\n  dup3\n  sstore\n  dup1\n  swap2\n  pop\n  pop\n  0x01\n  swap1\n  sub\n  swap1\n  0x00\n  mstore\n  keccak256(0x00, 0x20)\n  add\n  0x00\n  swap1\n  swap2\n  swap1\n  swap2\n  swap1\n  swap2\n  pop\n  swap1\n  dup2\n  tag_164\n  swap2\n  swap1\n  tag_165\n  jump\t// in\ntag_164:\n  pop\n    /* \"contracts/AmeComponents/VibeProfiles/VibeProfile.sol\":7168:7178  _methodReq */\n  dup2\n    /* \"contracts/AmeComponents/VibeProfiles/VibeProfile.sol\":7138:7152  methodRequests */\n  0x01\n    /* \"contracts/AmeComponents/VibeProfiles/VibeProfile.sol\":7153:7164  _methodName */\n  dup6\n    /* \"contracts/AmeComponents/VibeProfiles/VibeProfile.sol\":7138:7165  methodRequests[_methodName] */\n  mload(0x40)\n  tag_166\n  swap2\n  swap1\n  tag_167\n  jump\t// in\ntag_166:\n  swap1\n  dup2\n  mstore\n  0x20\n  add\n  mload(0x40)\n  dup1\n  swap2\n  sub\n  swap1\n  keccak256\n    /* \"contracts/AmeComponents/VibeProfiles/VibeProfile.sol\":7138:7178  methodRequests[_methodName] = _methodReq */\n  swap1\n  dup1\n  mload\n  swap1\n  0x20\n  add\n  swap1\n  tag_168\n  swap3\n  swap2\n  swap1\n  tag_169\n  jump\t// in\ntag_168:\n  pop\n    /* \"contracts/AmeComponents/VibeProfiles/VibeProfile.sol\":7219:7229  _methodRes */\n  dup1\n    /* \"contracts/AmeComponents/VibeProfiles/VibeProfile.sol\":7188:7203  methodResponses */\n  0x02\n    /* \"contracts/AmeComponents/VibeProfiles/VibeProfile.sol\":7204:7215  _methodName */\n  dup6\n    /* \"contracts/AmeComponents/VibeProfiles/VibeProfile.sol\":7188:7216  methodResponses[_methodName] */\n  mload(0x40)\n  tag_170\n  swap2\n  swap1\n  tag_167\n  jump\t// in\ntag_170:\n  swap1\n  dup2\n  mstore\n  0x20\n  add\n  mload(0x40)\n  dup1\n  swap2\n  sub\n  swap1\n  keccak256\n    /* \"contracts/AmeComponents/VibeProfiles/VibeProfile.sol\":7188:7229  methodResponses[_methodName] = _methodRes */\n  swap1\n  dup1\n  mload\n  swap1\n  0x20\n  add\n  swap1\n  tag_171\n  swap3\n  swap2\n  swap1\n  tag_169\n  jump\t// in\ntag_171:\n  pop\n    /* \"contracts/AmeComponents/VibeProfiles/VibeProfile.sol\":6899:7236  function setMethod(... */\n  pop\n  pop\n  pop\n  pop\n  jump\t// out\n    /* \"contracts/AmeComponents/VibeProfiles/VibeProfile.sol\":193:9241  contract VibeProfile is IComponent {... */\ntag_169:\n  dup3\n  dup1\n  sload\n  dup3\n  dup3\n  sstore\n  swap1\n  0x00\n  mstore\n  keccak256(0x00, 0x20)\n  swap1\n  0x1f\n  add\n  0x20\n  swap1\n  div\n  dup2\n  add\n  swap3\n  dup3\n  iszero\n  tag_172\n  jumpi\n  swap2\n  0x20\n  mul\n  dup3\n  add\n  0x00\ntag_173:\n  dup4\n  dup3\n  gt\n  iszero\n  tag_174\n  jumpi\n  dup4\n  mload\n  dup4\n  dup3\n  0x0100\n  exp\n  dup2\n  sload\n  dup2\n  0xff\n  mul\n  not\n  and\n  swap1\n  dup4\n  0xc6\n  dup2\n  gt\n  iszero\n  tag_175\n  jumpi\n  tag_176\n  tag_13\n  jump\t// in\ntag_176:\ntag_175:\n  mul\n  or\n  swap1\n  sstore\n  pop\n  swap3\n  0x20\n  add\n  swap3\n  0x01\n  add\n  0x20\n  dup2\n  0x00\n  add\n  div\n  swap3\n  dup4\n  add\n  swap3\n  0x01\n  sub\n  mul\n  jump(tag_173)\ntag_174:\n  dup1\n  iszero\n  tag_177\n  jumpi\n  dup3\n  dup2\n  0x0100\n  exp\n  dup2\n  sload\n  swap1\n  0xff\n  mul\n  not\n  and\n  swap1\n  sstore\n  0x01\n  add\n  0x20\n  dup2\n  0x00\n  add\n  div\n  swap3\n  dup4\n  add\n  swap3\n  0x01\n  sub\n  mul\n  jump(tag_174)\ntag_177:\n  pop\ntag_172:\n  pop\n  swap1\n  pop\n  tag_178\n  swap2\n  swap1\n  tag_179\n  jump\t// in\ntag_178:\n  pop\n  swap1\n  jump\t// out\ntag_179:\ntag_180:\n  dup1\n  dup3\n  gt\n  iszero\n  tag_181\n  jumpi\n  0x00\n  dup2\n  0x00\n  swap1\n  sstore\n  pop\n  0x01\n  add\n  jump(tag_180)\ntag_181:\n  pop\n  swap1\n  jump\t// out\n    /* \"#utility.yul\":7:187   */\ntag_6:\n    /* \"#utility.yul\":55:132   */\n  0x4e487b7100000000000000000000000000000000000000000000000000000000\n    /* \"#utility.yul\":52:53   */\n  0x00\n    /* \"#utility.yul\":45:133   */\n  mstore\n    /* \"#utility.yul\":152:156   */\n  0x41\n    /* \"#utility.yul\":149:150   */\n  0x04\n    /* \"#utility.yul\":142:157   */\n  mstore\n    /* \"#utility.yul\":176:180   */\n  0x24\n    /* \"#utility.yul\":173:174   */\n  0x00\n    /* \"#utility.yul\":166:181   */\n  revert\n    /* \"#utility.yul\":193:373   */\ntag_10:\n    /* \"#utility.yul\":241:318   */\n  0x4e487b7100000000000000000000000000000000000000000000000000000000\n    /* \"#utility.yul\":238:239   */\n  0x00\n    /* \"#utility.yul\":231:319   */\n  mstore\n    /* \"#utility.yul\":338:342   */\n  0x32\n    /* \"#utility.yul\":335:336   */\n  0x04\n    /* \"#utility.yul\":328:343   */\n  mstore\n    /* \"#utility.yul\":362:366   */\n  0x24\n    /* \"#utility.yul\":359:360   */\n  0x00\n    /* \"#utility.yul\":352:367   */\n  revert\n    /* \"#utility.yul\":379:559   */\ntag_13:\n    /* \"#utility.yul\":427:504   */\n  0x4e487b7100000000000000000000000000000000000000000000000000000000\n    /* \"#utility.yul\":424:425   */\n  0x00\n    /* \"#utility.yul\":417:505   */\n  mstore\n    /* \"#utility.yul\":524:528   */\n  0x21\n    /* \"#utility.yul\":521:522   */\n  0x04\n    /* \"#utility.yul\":514:529   */\n  mstore\n    /* \"#utility.yul\":548:552   */\n  0x24\n    /* \"#utility.yul\":545:546   */\n  0x00\n    /* \"#utility.yul\":538:553   */\n  revert\n    /* \"#utility.yul\":565:664   */\ntag_182:\n    /* \"#utility.yul\":617:623   */\n  0x00\n    /* \"#utility.yul\":651:656   */\n  dup2\n    /* \"#utility.yul\":645:657   */\n  mload\n    /* \"#utility.yul\":635:657   */\n  swap1\n  pop\n    /* \"#utility.yul\":565:664   */\n  swap2\n  swap1\n  pop\n  jump\t// out\n    /* \"#utility.yul\":670:850   */\ntag_183:\n    /* \"#utility.yul\":718:795   */\n  0x4e487b7100000000000000000000000000000000000000000000000000000000\n    /* \"#utility.yul\":715:716   */\n  0x00\n    /* \"#utility.yul\":708:796   */\n  mstore\n    /* \"#utility.yul\":815:819   */\n  0x22\n    /* \"#utility.yul\":812:813   */\n  0x04\n    /* \"#utility.yul\":805:820   */\n  mstore\n    /* \"#utility.yul\":839:843   */\n  0x24\n    /* \"#utility.yul\":836:837   */\n  0x00\n    /* \"#utility.yul\":829:844   */\n  revert\n    /* \"#utility.yul\":856:1176   */\ntag_184:\n    /* \"#utility.yul\":900:906   */\n  0x00\n    /* \"#utility.yul\":937:938   */\n  0x02\n    /* \"#utility.yul\":931:935   */\n  dup3\n    /* \"#utility.yul\":927:939   */\n  div\n    /* \"#utility.yul\":917:939   */\n  swap1\n  pop\n    /* \"#utility.yul\":984:985   */\n  0x01\n    /* \"#utility.yul\":978:982   */\n  dup3\n    /* \"#utility.yul\":974:986   */\n  and\n    /* \"#utility.yul\":1005:1023   */\n  dup1\n    /* \"#utility.yul\":995:1076   */\n  tag_211\n  jumpi\n    /* \"#utility.yul\":1061:1065   */\n  0x7f\n    /* \"#utility.yul\":1053:1059   */\n  dup3\n    /* \"#utility.yul\":1049:1066   */\n  and\n    /* \"#utility.yul\":1039:1066   */\n  swap2\n  pop\n    /* \"#utility.yul\":995:1076   */\ntag_211:\n    /* \"#utility.yul\":1123:1125   */\n  0x20\n    /* \"#utility.yul\":1115:1121   */\n  dup3\n    /* \"#utility.yul\":1112:1126   */\n  lt\n    /* \"#utility.yul\":1092:1110   */\n  dup2\n    /* \"#utility.yul\":1089:1127   */\n  sub\n    /* \"#utility.yul\":1086:1170   */\n  tag_212\n  jumpi\n    /* \"#utility.yul\":1142:1160   */\n  tag_213\n  tag_183\n  jump\t// in\ntag_213:\n    /* \"#utility.yul\":1086:1170   */\ntag_212:\n    /* \"#utility.yul\":907:1176   */\n  pop\n    /* \"#utility.yul\":856:1176   */\n  swap2\n  swap1\n  pop\n  jump\t// out\n    /* \"#utility.yul\":1182:1323   */\ntag_185:\n    /* \"#utility.yul\":1231:1235   */\n  0x00\n    /* \"#utility.yul\":1254:1257   */\n  dup2\n    /* \"#utility.yul\":1246:1257   */\n  swap1\n  pop\n    /* \"#utility.yul\":1277:1280   */\n  dup2\n    /* \"#utility.yul\":1274:1275   */\n  0x00\n    /* \"#utility.yul\":1267:1281   */\n  mstore\n    /* \"#utility.yul\":1311:1315   */\n  0x20\n    /* \"#utility.yul\":1308:1309   */\n  0x00\n    /* \"#utility.yul\":1298:1316   */\n  keccak256\n    /* \"#utility.yul\":1290:1316   */\n  swap1\n  pop\n    /* \"#utility.yul\":1182:1323   */\n  swap2\n  swap1\n  pop\n  jump\t// out\n    /* \"#utility.yul\":1329:1422   */\ntag_186:\n    /* \"#utility.yul\":1366:1372   */\n  0x00\n    /* \"#utility.yul\":1413:1415   */\n  0x20\n    /* \"#utility.yul\":1408:1410   */\n  0x1f\n    /* \"#utility.yul\":1401:1406   */\n  dup4\n    /* \"#utility.yul\":1397:1411   */\n  add\n    /* \"#utility.yul\":1393:1416   */\n  div\n    /* \"#utility.yul\":1383:1416   */\n  swap1\n  pop\n    /* \"#utility.yul\":1329:1422   */\n  swap2\n  swap1\n  pop\n  jump\t// out\n    /* \"#utility.yul\":1428:1535   */\ntag_187:\n    /* \"#utility.yul\":1472:1480   */\n  0x00\n    /* \"#utility.yul\":1522:1527   */\n  dup3\n    /* \"#utility.yul\":1516:1520   */\n  dup3\n    /* \"#utility.yul\":1512:1528   */\n  shl\n    /* \"#utility.yul\":1491:1528   */\n  swap1\n  pop\n    /* \"#utility.yul\":1428:1535   */\n  swap3\n  swap2\n  pop\n  pop\n  jump\t// out\n    /* \"#utility.yul\":1541:1934   */\ntag_188:\n    /* \"#utility.yul\":1610:1616   */\n  0x00\n    /* \"#utility.yul\":1660:1661   */\n  0x08\n    /* \"#utility.yul\":1648:1658   */\n  dup4\n    /* \"#utility.yul\":1644:1662   */\n  mul\n    /* \"#utility.yul\":1683:1780   */\n  tag_218\n    /* \"#utility.yul\":1713:1779   */\n  0xffffffffffffffffffffffffffffffffffffffffffffffffffffffffffffffff\n    /* \"#utility.yul\":1702:1711   */\n  dup3\n    /* \"#utility.yul\":1683:1780   */\n  tag_187\n  jump\t// in\ntag_218:\n    /* \"#utility.yul\":1801:1840   */\n  tag_219\n    /* \"#utility.yul\":1831:1839   */\n  dup7\n    /* \"#utility.yul\":1820:1829   */\n  dup4\n    /* \"#utility.yul\":1801:1840   */\n  tag_187\n  jump\t// in\ntag_219:\n    /* \"#utility.yul\":1789:1840   */\n  swap6\n  pop\n    /* \"#utility.yul\":1873:1877   */\n  dup1\n    /* \"#utility.yul\":1869:1878   */\n  not\n    /* \"#utility.yul\":1862:1867   */\n  dup5\n    /* \"#utility.yul\":1858:1879   */\n  and\n    /* \"#utility.yul\":1849:1879   */\n  swap4\n  pop\n    /* \"#utility.yul\":1922:1926   */\n  dup1\n    /* \"#utility.yul\":1912:1920   */\n  dup7\n    /* \"#utility.yul\":1908:1927   */\n  and\n    /* \"#utility.yul\":1901:1906   */\n  dup5\n    /* \"#utility.yul\":1898:1928   */\n  or\n    /* \"#utility.yul\":1888:1928   */\n  swap3\n  pop\n    /* \"#utility.yul\":1617:1934   */\n  pop\n  pop\n    /* \"#utility.yul\":1541:1934   */\n  swap4\n  swap3\n  pop\n  pop\n  pop\n  jump\t// out\n    /* \"#utility.yul\":1940:2017   */\ntag_189:\n    /* \"#utility.yul\":1977:1984   */\n  0x00\n    /* \"#utility.yul\":2006:2011   */\n  dup2\n    /* \"#utility.yul\":1995:2011   */\n  swap1\n  pop\n    /* \"#utility.yul\":1940:2017   */\n  swap2\n  swap1\n  pop\n  jump\t// out\n    /* \"#utility.yul\":2023:2083   */\ntag_190:\n    /* \"#utility.yul\":2051:2054   */\n  0x00\n    /* \"#utility.yul\":2072:2077   */\n  dup2\n    /* \"#utility.yul\":2065:2077   */\n  swap1\n  pop\n    /* \"#utility.yul\":2023:2083   */\n  swap2\n  swap1\n  pop\n  jump\t// out\n    /* \"#utility.yul\":2089:2231   */\ntag_191:\n    /* \"#utility.yul\":2139:2148   */\n  0x00\n    /* \"#utility.yul\":2172:2225   */\n  tag_223\n    /* \"#utility.yul\":2190:2224   */\n  tag_224\n    /* \"#utility.yul\":2199:2223   */\n  tag_225\n    /* \"#utility.yul\":2217:2222   */\n  dup5\n    /* \"#utility.yul\":2199:2223   */\n  tag_189\n  jump\t// in\ntag_225:\n    /* \"#utility.yul\":2190:2224   */\n  tag_190\n  jump\t// in\ntag_224:\n    /* \"#utility.yul\":2172:2225   */\n  tag_189\n  jump\t// in\ntag_223:\n    /* \"#utility.yul\":2159:2225   */\n  swap1\n  pop\n    /* \"#utility.yul\":2089:2231   */\n  swap2\n  swap1\n  pop\n  jump\t// out\n    /* \"#utility.yul\":2237:2312   */\ntag_192:\n    /* \"#utility.yul\":2280:2283   */\n  0x00\n    /* \"#utility.yul\":2301:2306   */\n  dup2\n    /* \"#utility.yul\":2294:2306   */\n  swap1\n  pop\n    /* \"#utility.yul\":2237:2312   */\n  swap2\n  swap1\n  pop\n  jump\t// out\n    /* \"#utility.yul\":2318:2587   */\ntag_193:\n    /* \"#utility.yul\":2428:2467   */\n  tag_228\n    /* \"#utility.yul\":2459:2466   */\n  dup4\n    /* \"#utility.yul\":2428:2467   */\n  tag_191\n  jump\t// in\ntag_228:\n    /* \"#utility.yul\":2489:2580   */\n  tag_229\n    /* \"#utility.yul\":2538:2579   */\n  tag_230\n    /* \"#utility.yul\":2562:2578   */\n  dup3\n    /* \"#utility.yul\":2538:2579   */\n  tag_192\n  jump\t// in\ntag_230:\n    /* \"#utility.yul\":2530:2536   */\n  dup5\n    /* \"#utility.yul\":2523:2527   */\n  dup5\n    /* \"#utility.yul\":2517:2528   */\n  sload\n    /* \"#utility.yul\":2489:2580   */\n  tag_188\n  jump\t// in\ntag_229:\n    /* \"#utility.yul\":2483:2487   */\n  dup3\n    /* \"#utility.yul\":2476:2581   */\n  sstore\n    /* \"#utility.yul\":2394:2587   */\n  pop\n    /* \"#utility.yul\":2318:2587   */\n  pop\n  pop\n  pop\n  jump\t// out\n    /* \"#utility.yul\":2593:2666   */\ntag_194:\n    /* \"#utility.yul\":2638:2641   */\n  0x00\n    /* \"#utility.yul\":2593:2666   */\n  swap1\n  jump\t// out\n    /* \"#utility.yul\":2672:2861   */\ntag_195:\n    /* \"#utility.yul\":2749:2781   */\n  tag_233\n  tag_194\n  jump\t// in\ntag_233:\n    /* \"#utility.yul\":2790:2855   */\n  tag_234\n    /* \"#utility.yul\":2848:2854   */\n  dup2\n    /* \"#utility.yul\":2840:2846   */\n  dup5\n    /* \"#utility.yul\":2834:2838   */\n  dup5\n    /* \"#utility.yul\":2790:2855   */\n  tag_193\n  jump\t// in\ntag_234:\n    /* \"#utility.yul\":2725:2861   */\n  pop\n    /* \"#utility.yul\":2672:2861   */\n  pop\n  pop\n  jump\t// out\n    /* \"#utility.yul\":2867:3053   */\ntag_196:\n    /* \"#utility.yul\":2927:3047   */\ntag_236:\n    /* \"#utility.yul\":2944:2947   */\n  dup2\n    /* \"#utility.yul\":2937:2942   */\n  dup2\n    /* \"#utility.yul\":2934:2948   */\n  lt\n    /* \"#utility.yul\":2927:3047   */\n  iszero\n  tag_238\n  jumpi\n    /* \"#utility.yul\":2998:3037   */\n  tag_239\n    /* \"#utility.yul\":3035:3036   */\n  0x00\n    /* \"#utility.yul\":3028:3033   */\n  dup3\n    /* \"#utility.yul\":2998:3037   */\n  tag_195\n  jump\t// in\ntag_239:\n    /* \"#utility.yul\":2971:2972   */\n  0x01\n    /* \"#utility.yul\":2964:2969   */\n  dup2\n    /* \"#utility.yul\":2960:2973   */\n  add\n    /* \"#utility.yul\":2951:2973   */\n  swap1\n  pop\n    /* \"#utility.yul\":2927:3047   */\n  jump(tag_236)\ntag_238:\n    /* \"#utility.yul\":2867:3053   */\n  pop\n  pop\n  jump\t// out\n    /* \"#utility.yul\":3059:3602   */\ntag_197:\n    /* \"#utility.yul\":3160:3162   */\n  0x1f\n    /* \"#utility.yul\":3155:3158   */\n  dup3\n    /* \"#utility.yul\":3152:3163   */\n  gt\n    /* \"#utility.yul\":3149:3595   */\n  iszero\n  tag_241\n  jumpi\n    /* \"#utility.yul\":3194:3232   */\n  tag_242\n    /* \"#utility.yul\":3226:3231   */\n  dup2\n    /* \"#utility.yul\":3194:3232   */\n  tag_185\n  jump\t// in\ntag_242:\n    /* \"#utility.yul\":3278:3307   */\n  tag_243\n    /* \"#utility.yul\":3296:3306   */\n  dup5\n    /* \"#utility.yul\":3278:3307   */\n  tag_186\n  jump\t// in\ntag_243:\n    /* \"#utility.yul\":3268:3276   */\n  dup2\n    /* \"#utility.yul\":3264:3308   */\n  add\n    /* \"#utility.yul\":3461:3463   */\n  0x20\n    /* \"#utility.yul\":3449:3459   */\n  dup6\n    /* \"#utility.yul\":3446:3464   */\n  lt\n    /* \"#utility.yul\":3443:3492   */\n  iszero\n  tag_244\n  jumpi\n    /* \"#utility.yul\":3482:3490   */\n  dup2\n    /* \"#utility.yul\":3467:3490   */\n  swap1\n  pop\n    /* \"#utility.yul\":3443:3492   */\ntag_244:\n    /* \"#utility.yul\":3505:3585   */\n  tag_245\n    /* \"#utility.yul\":3561:3583   */\n  tag_246\n    /* \"#utility.yul\":3579:3582   */\n  dup6\n    /* \"#utility.yul\":3561:3583   */\n  tag_186\n  jump\t// in\ntag_246:\n    /* \"#utility.yul\":3551:3559   */\n  dup4\n    /* \"#utility.yul\":3547:3584   */\n  add\n    /* \"#utility.yul\":3534:3545   */\n  dup3\n    /* \"#utility.yul\":3505:3585   */\n  tag_196\n  jump\t// in\ntag_245:\n    /* \"#utility.yul\":3164:3595   */\n  pop\n  pop\n    /* \"#utility.yul\":3149:3595   */\ntag_241:\n    /* \"#utility.yul\":3059:3602   */\n  pop\n  pop\n  pop\n  jump\t// out\n    /* \"#utility.yul\":3608:3725   */\ntag_198:\n    /* \"#utility.yul\":3662:3670   */\n  0x00\n    /* \"#utility.yul\":3712:3717   */\n  dup3\n    /* \"#utility.yul\":3706:3710   */\n  dup3\n    /* \"#utility.yul\":3702:3718   */\n  shr\n    /* \"#utility.yul\":3681:3718   */\n  swap1\n  pop\n    /* \"#utility.yul\":3608:3725   */\n  swap3\n  swap2\n  pop\n  pop\n  jump\t// out\n    /* \"#utility.yul\":3731:3900   */\ntag_199:\n    /* \"#utility.yul\":3775:3781   */\n  0x00\n    /* \"#utility.yul\":3808:3859   */\n  tag_249\n    /* \"#utility.yul\":3856:3857   */\n  0x00\n    /* \"#utility.yul\":3852:3858   */\n  not\n    /* \"#utility.yul\":3844:3849   */\n  dup5\n    /* \"#utility.yul\":3841:3842   */\n  0x08\n    /* \"#utility.yul\":3837:3850   */\n  mul\n    /* \"#utility.yul\":3808:3859   */\n  tag_198\n  jump\t// in\ntag_249:\n    /* \"#utility.yul\":3804:3860   */\n  not\n    /* \"#utility.yul\":3889:3893   */\n  dup1\n    /* \"#utility.yul\":3883:3887   */\n  dup4\n    /* \"#utility.yul\":3879:3894   */\n  and\n    /* \"#utility.yul\":3869:3894   */\n  swap2\n  pop\n    /* \"#utility.yul\":3782:3900   */\n  pop\n    /* \"#utility.yul\":3731:3900   */\n  swap3\n  swap2\n  pop\n  pop\n  jump\t// out\n    /* \"#utility.yul\":3905:4200   */\ntag_200:\n    /* \"#utility.yul\":3981:3985   */\n  0x00\n    /* \"#utility.yul\":4127:4156   */\n  tag_251\n    /* \"#utility.yul\":4152:4155   */\n  dup4\n    /* \"#utility.yul\":4146:4150   */\n  dup4\n    /* \"#utility.yul\":4127:4156   */\n  tag_199\n  jump\t// in\ntag_251:\n    /* \"#utility.yul\":4119:4156   */\n  swap2\n  pop\n    /* \"#utility.yul\":4189:4192   */\n  dup3\n    /* \"#utility.yul\":4186:4187   */\n  0x02\n    /* \"#utility.yul\":4182:4193   */\n  mul\n    /* \"#utility.yul\":4176:4180   */\n  dup3\n    /* \"#utility.yul\":4173:4194   */\n  or\n    /* \"#utility.yul\":4165:4194   */\n  swap1\n  pop\n    /* \"#utility.yul\":3905:4200   */\n  swap3\n  swap2\n  pop\n  pop\n  jump\t// out\n    /* \"#utility.yul\":4205:5600   */\ntag_165:\n    /* \"#utility.yul\":4322:4359   */\n  tag_253\n    /* \"#utility.yul\":4355:4358   */\n  dup3\n    /* \"#utility.yul\":4322:4359   */\n  tag_182\n  jump\t// in\ntag_253:\n    /* \"#utility.yul\":4424:4442   */\n  0xffffffffffffffff\n    /* \"#utility.yul\":4416:4422   */\n  dup2\n    /* \"#utility.yul\":4413:4443   */\n  gt\n    /* \"#utility.yul\":4410:4466   */\n  iszero\n  tag_254\n  jumpi\n    /* \"#utility.yul\":4446:4464   */\n  tag_255\n  tag_6\n  jump\t// in\ntag_255:\n    /* \"#utility.yul\":4410:4466   */\ntag_254:\n    /* \"#utility.yul\":4490:4528   */\n  tag_256\n    /* \"#utility.yul\":4522:4526   */\n  dup3\n    /* \"#utility.yul\":4516:4527   */\n  sload\n    /* \"#utility.yul\":4490:4528   */\n  tag_184\n  jump\t// in\ntag_256:\n    /* \"#utility.yul\":4575:4642   */\n  tag_257\n    /* \"#utility.yul\":4635:4641   */\n  dup3\n    /* \"#utility.yul\":4627:4633   */\n  dup3\n    /* \"#utility.yul\":4621:4625   */\n  dup6\n    /* \"#utility.yul\":4575:4642   */\n  tag_197\n  jump\t// in\ntag_257:\n    /* \"#utility.yul\":4669:4670   */\n  0x00\n    /* \"#utility.yul\":4693:4697   */\n  0x20\n    /* \"#utility.yul\":4680:4697   */\n  swap1\n  pop\n    /* \"#utility.yul\":4725:4727   */\n  0x1f\n    /* \"#utility.yul\":4717:4723   */\n  dup4\n    /* \"#utility.yul\":4714:4728   */\n  gt\n    /* \"#utility.yul\":4742:4743   */\n  0x01\n    /* \"#utility.yul\":4737:5355   */\n  dup2\n  eq\n  tag_259\n  jumpi\n    /* \"#utility.yul\":5399:5400   */\n  0x00\n    /* \"#utility.yul\":5416:5422   */\n  dup5\n    /* \"#utility.yul\":5413:5490   */\n  iszero\n  tag_260\n  jumpi\n    /* \"#utility.yul\":5465:5474   */\n  dup3\n    /* \"#utility.yul\":5460:5463   */\n  dup8\n    /* \"#utility.yul\":5456:5475   */\n  add\n    /* \"#utility.yul\":5450:5476   */\n  mload\n    /* \"#utility.yul\":5441:5476   */\n  swap1\n  pop\n    /* \"#utility.yul\":5413:5490   */\ntag_260:\n    /* \"#utility.yul\":5516:5583   */\n  tag_261\n    /* \"#utility.yul\":5576:5582   */\n  dup6\n    /* \"#utility.yul\":5569:5574   */\n  dup3\n    /* \"#utility.yul\":5516:5583   */\n  tag_200\n  jump\t// in\ntag_261:\n    /* \"#utility.yul\":5510:5514   */\n  dup7\n    /* \"#utility.yul\":5503:5584   */\n  sstore\n    /* \"#utility.yul\":5372:5594   */\n  pop\n    /* \"#utility.yul\":4707:5594   */\n  jump(tag_258)\n    /* \"#utility.yul\":4737:5355   */\ntag_259:\n    /* \"#utility.yul\":4789:4793   */\n  0x1f\n    /* \"#utility.yul\":4785:4794   */\n  not\n    /* \"#utility.yul\":4777:4783   */\n  dup5\n    /* \"#utility.yul\":4773:4795   */\n  and\n    /* \"#utility.yul\":4823:4860   */\n  tag_262\n    /* \"#utility.yul\":4855:4859   */\n  dup7\n    /* \"#utility.yul\":4823:4860   */\n  tag_185\n  jump\t// in\ntag_262:\n    /* \"#utility.yul\":4882:4883   */\n  0x00\n    /* \"#utility.yul\":4896:5104   */\ntag_263:\n    /* \"#utility.yul\":4910:4917   */\n  dup3\n    /* \"#utility.yul\":4907:4908   */\n  dup2\n    /* \"#utility.yul\":4904:4918   */\n  lt\n    /* \"#utility.yul\":4896:5104   */\n  iszero\n  tag_265\n  jumpi\n    /* \"#utility.yul\":4989:4998   */\n  dup5\n    /* \"#utility.yul\":4984:4987   */\n  dup10\n    /* \"#utility.yul\":4980:4999   */\n  add\n    /* \"#utility.yul\":4974:5000   */\n  mload\n    /* \"#utility.yul\":4966:4972   */\n  dup3\n    /* \"#utility.yul\":4959:5001   */\n  sstore\n    /* \"#utility.yul\":5040:5041   */\n  0x01\n    /* \"#utility.yul\":5032:5038   */\n  dup3\n    /* \"#utility.yul\":5028:5042   */\n  add\n    /* \"#utility.yul\":5018:5042   */\n  swap2\n  pop\n    /* \"#utility.yul\":5087:5089   */\n  0x20\n    /* \"#utility.yul\":5076:5085   */\n  dup6\n    /* \"#utility.yul\":5072:5090   */\n  add\n    /* \"#utility.yul\":5059:5090   */\n  swap5\n  pop\n    /* \"#utility.yul\":4933:4937   */\n  0x20\n    /* \"#utility.yul\":4930:4931   */\n  dup2\n    /* \"#utility.yul\":4926:4938   */\n  add\n    /* \"#utility.yul\":4921:4938   */\n  swap1\n  pop\n    /* \"#utility.yul\":4896:5104   */\n  jump(tag_263)\ntag_265:\n    /* \"#utility.yul\":5132:5138   */\n  dup7\n    /* \"#utility.yul\":5123:5130   */\n  dup4\n    /* \"#utility.yul\":5120:5139   */\n  lt\n    /* \"#utility.yul\":5117:5296   */\n  iszero\n  tag_266\n  jumpi\n    /* \"#utility.yul\":5190:5199   */\n  dup5\n    /* \"#utility.yul\":5185:5188   */\n  dup10\n    /* \"#utility.yul\":5181:5200   */\n  add\n    /* \"#utility.yul\":5175:5201   */\n  mload\n    /* \"#utility.yul\":5233:5281   */\n  tag_267\n    /* \"#utility.yul\":5275:5279   */\n  0x1f\n    /* \"#utility.yul\":5267:5273   */\n  dup10\n    /* \"#utility.yul\":5263:5280   */\n  and\n    /* \"#utility.yul\":5252:5261   */\n  dup3\n    /* \"#utility.yul\":5233:5281   */\n  tag_199\n  jump\t// in\ntag_267:\n    /* \"#utility.yul\":5225:5231   */\n  dup4\n    /* \"#utility.yul\":5218:5282   */\n  sstore\n    /* \"#utility.yul\":5140:5296   */\n  pop\n    /* \"#utility.yul\":5117:5296   */\ntag_266:\n    /* \"#utility.yul\":5342:5343   */\n  0x01\n    /* \"#utility.yul\":5338:5339   */\n  0x02\n    /* \"#utility.yul\":5330:5336   */\n  dup9\n    /* \"#utility.yul\":5326:5340   */\n  mul\n    /* \"#utility.yul\":5322:5344   */\n  add\n    /* \"#utility.yul\":5316:5320   */\n  dup9\n    /* \"#utility.yul\":5309:5345   */\n  sstore\n    /* \"#utility.yul\":4744:5355   */\n  pop\n  pop\n  pop\n    /* \"#utility.yul\":4707:5594   */\ntag_258:\n  pop\n    /* \"#utility.yul\":4297:5600   */\n  pop\n  pop\n  pop\n    /* \"#utility.yul\":4205:5600   */\n  pop\n  pop\n  jump\t// out\n    /* \"#utility.yul\":5606:5754   */\ntag_201:\n    /* \"#utility.yul\":5708:5719   */\n  0x00\n    /* \"#utility.yul\":5745:5748   */\n  dup2\n    /* \"#utility.yul\":5730:5748   */\n  swap1\n  pop\n    /* \"#utility.yul\":5606:5754   */\n  swap3\n  swap2\n  pop\n  pop\n  jump\t// out\n    /* \"#utility.yul\":5760:6006   */\ntag_202:\n    /* \"#utility.yul\":5841:5842   */\n  0x00\n    /* \"#utility.yul\":5851:5964   */\ntag_270:\n    /* \"#utility.yul\":5865:5871   */\n  dup4\n    /* \"#utility.yul\":5862:5863   */\n  dup2\n    /* \"#utility.yul\":5859:5872   */\n  lt\n    /* \"#utility.yul\":5851:5964   */\n  iszero\n  tag_272\n  jumpi\n    /* \"#utility.yul\":5950:5951   */\n  dup1\n    /* \"#utility.yul\":5945:5948   */\n  dup3\n    /* \"#utility.yul\":5941:5952   */\n  add\n    /* \"#utility.yul\":5935:5953   */\n  mload\n    /* \"#utility.yul\":5931:5932   */\n  dup2\n    /* \"#utility.yul\":5926:5929   */\n  dup5\n    /* \"#utility.yul\":5922:5933   */\n  add\n    /* \"#utility.yul\":5915:5954   */\n  mstore\n    /* \"#utility.yul\":5887:5889   */\n  0x20\n    /* \"#utility.yul\":5884:5885   */\n  dup2\n    /* \"#utility.yul\":5880:5890   */\n  add\n    /* \"#utility.yul\":5875:5890   */\n  swap1\n  pop\n    /* \"#utility.yul\":5851:5964   */\n  jump(tag_270)\ntag_272:\n    /* \"#utility.yul\":5998:5999   */\n  0x00\n    /* \"#utility.yul\":5989:5995   */\n  dup5\n    /* \"#utility.yul\":5984:5987   */\n  dup5\n    /* \"#utility.yul\":5980:5996   */\n  add\n    /* \"#utility.yul\":5973:6000   */\n  mstore\n    /* \"#utility.yul\":5822:6006   */\n  pop\n    /* \"#utility.yul\":5760:6006   */\n  pop\n  pop\n  pop\n  jump\t// out\n    /* \"#utility.yul\":6012:6402   */\ntag_203:\n    /* \"#utility.yul\":6118:6121   */\n  0x00\n    /* \"#utility.yul\":6146:6185   */\n  tag_274\n    /* \"#utility.yul\":6179:6184   */\n  dup3\n    /* \"#utility.yul\":6146:6185   */\n  tag_182\n  jump\t// in\ntag_274:\n    /* \"#utility.yul\":6201:6290   */\n  tag_275\n    /* \"#utility.yul\":6283:6289   */\n  dup2\n    /* \"#utility.yul\":6278:6281   */\n  dup6\n    /* \"#utility.yul\":6201:6290   */\n  tag_201\n  jump\t// in\ntag_275:\n    /* \"#utility.yul\":6194:6290   */\n  swap4\n  pop\n    /* \"#utility.yul\":6299:6364   */\n  tag_276\n    /* \"#utility.yul\":6357:6363   */\n  dup2\n    /* \"#utility.yul\":6352:6355   */\n  dup6\n    /* \"#utility.yul\":6345:6349   */\n  0x20\n    /* \"#utility.yul\":6338:6343   */\n  dup7\n    /* \"#utility.yul\":6334:6350   */\n  add\n    /* \"#utility.yul\":6299:6364   */\n  tag_202\n  jump\t// in\ntag_276:\n    /* \"#utility.yul\":6389:6395   */\n  dup1\n    /* \"#utility.yul\":6384:6387   */\n  dup5\n    /* \"#utility.yul\":6380:6396   */\n  add\n    /* \"#utility.yul\":6373:6396   */\n  swap2\n  pop\n    /* \"#utility.yul\":6122:6402   */\n  pop\n    /* \"#utility.yul\":6012:6402   */\n  swap3\n  swap2\n  pop\n  pop\n  jump\t// out\n    /* \"#utility.yul\":6408:6683   */\ntag_167:\n    /* \"#utility.yul\":6540:6543   */\n  0x00\n    /* \"#utility.yul\":6562:6657   */\n  tag_278\n    /* \"#utility.yul\":6653:6656   */\n  dup3\n    /* \"#utility.yul\":6644:6650   */\n  dup5\n    /* \"#utility.yul\":6562:6657   */\n  tag_203\n  jump\t// in\ntag_278:\n    /* \"#utility.yul\":6555:6657   */\n  swap2\n  pop\n    /* \"#utility.yul\":6674:6677   */\n  dup2\n    /* \"#utility.yul\":6667:6677   */\n  swap1\n  pop\n    /* \"#utility.yul\":6408:6683   */\n  swap3\n  swap2\n  pop\n  pop\n  jump\t// out\n    /* \"contracts/AmeComponents/VibeProfiles/VibeProfile.sol\":193:9241  contract VibeProfile is IComponent {... */\ntag_157:\n  dataSize(sub_0)\n  dup1\n  dataOffset(sub_0)\n  0x00\n  codecopy\n  0x00\n  return\nstop\n\nsub_0: assembly {\n        /* \"contracts/AmeComponents/VibeProfiles/VibeProfile.sol\":193:9241  contract VibeProfile is IComponent {... */\n      mstore(0x40, 0x80)\n      jumpi(tag_1, lt(calldatasize, 0x04))\n      shr(0xe0, calldataload(0x00))\n      dup1\n      0xaff62745\n      gt\n      tag_11\n      jumpi\n      dup1\n      0xaff62745\n      eq\n      tag_6\n      jumpi\n      dup1\n      0xb6ae0425\n      eq\n      tag_7\n      jumpi\n      dup1\n      0xc502607f\n      eq\n      tag_8\n      jumpi\n      dup1\n      0xe9536472\n      eq\n      tag_9\n      jumpi\n      dup1\n      0xf4856ccb\n      eq\n      tag_10\n      jumpi\n      jump(tag_1)\n    tag_11:\n      dup1\n      0x1069143a\n      eq\n      tag_2\n      jumpi\n      dup1\n      0x458ad6d4\n      eq\n      tag_3\n      jumpi\n      dup1\n      0x9416b423\n      eq\n      tag_4\n      jumpi\n      dup1\n      0xa45f379e\n      eq\n      tag_5\n      jumpi\n    tag_1:\n      0x00\n      dup1\n      revert\n        /* \"contracts/AmeComponents/VibeProfiles/VibeProfile.sol\":6558:6893  function options() public pure returns (MethodTypes[] memory) {... */\n    tag_2:\n      callvalue\n      dup1\n      iszero\n      tag_12\n      jumpi\n      0x00\n      dup1\n      revert\n    tag_12:\n      pop\n      tag_13\n      tag_14\n      jump\t// in\n    tag_13:\n      mload(0x40)\n      tag_15\n      swap2\n      swap1\n      tag_16\n      jump\t// in\n    tag_15:\n      mload(0x40)\n      dup1\n      swap2\n      sub\n      swap1\n      return\n        /* \"contracts/AmeComponents/VibeProfiles/VibeProfile.sol\":7242:7471  function getMethodReqAndRes(string memory _methodName)... */\n    tag_3:\n      callvalue\n      dup1\n      iszero\n      tag_17\n      jumpi\n      0x00\n      dup1\n      revert\n    tag_17:\n      pop\n      tag_18\n      0x04\n      dup1\n      calldatasize\n      sub\n      dup2\n      add\n      swap1\n      tag_19\n      swap2\n      swap1\n      tag_20\n      jump\t// in\n    tag_19:\n      tag_21\n      jump\t// in\n    tag_18:\n      mload(0x40)\n      tag_22\n      swap3\n      swap2\n      swap1\n      tag_23\n      jump\t// in\n    tag_22:\n      mload(0x40)\n      dup1\n      swap2\n      sub\n      swap1\n      return\n        /* \"contracts/AmeComponents/VibeProfiles/VibeProfile.sol\":8077:8540  function toLower(string memory str) public pure returns (string memory) {... */\n    tag_4:\n      callvalue\n      dup1\n      iszero\n      tag_24\n      jumpi\n      0x00\n      dup1\n      revert\n    tag_24:\n      pop\n      tag_25\n      0x04\n      dup1\n      calldatasize\n      sub\n      dup2\n      add\n      swap1\n      tag_26\n      swap2\n      swap1\n      tag_20\n      jump\t// in\n    tag_26:\n      tag_27\n      jump\t// in\n    tag_25:\n      mload(0x40)\n      tag_28\n      swap2\n      swap1\n      tag_29\n      jump\t// in\n    tag_28:\n      mload(0x40)\n      dup1\n      swap2\n      sub\n      swap1\n      return\n        /* \"contracts/AmeComponents/VibeProfiles/VibeProfile.sol\":7909:8071  function isEmptyString(string memory str) public pure returns (bool) {... */\n    tag_5:\n      callvalue\n      dup1\n      iszero\n      tag_30\n      jumpi\n      0x00\n      dup1\n      revert\n    tag_30:\n      pop\n      tag_31\n      0x04\n      dup1\n      calldatasize\n      sub\n      dup2\n      add\n      swap1\n      tag_32\n      swap2\n      swap1\n      tag_20\n      jump\t// in\n    tag_32:\n      tag_33\n      jump\t// in\n    tag_31:\n      mload(0x40)\n      tag_34\n      swap2\n      swap1\n      tag_35\n      jump\t// in\n    tag_34:\n      mload(0x40)\n      dup1\n      swap2\n      sub\n      swap1\n      return\n        /* \"contracts/AmeComponents/VibeProfiles/VibeProfile.sol\":2481:4559  function get(string memory _methodName, bytes memory _methodReq)... */\n    tag_6:\n      callvalue\n      dup1\n      iszero\n      tag_36\n      jumpi\n      0x00\n      dup1\n      revert\n    tag_36:\n      pop\n      tag_37\n      0x04\n      dup1\n      calldatasize\n      sub\n      dup2\n      add\n      swap1\n      tag_38\n      swap2\n      swap1\n      tag_39\n      jump\t// in\n    tag_38:\n      tag_40\n      jump\t// in\n    tag_37:\n      mload(0x40)\n      tag_41\n      swap2\n      swap1\n      tag_42\n      jump\t// in\n    tag_41:\n      mload(0x40)\n      dup1\n      swap2\n      sub\n      swap1\n      return\n        /* \"contracts/AmeComponents/VibeProfiles/VibeProfile.sol\":4565:5669  function post(string memory _methodName, bytes memory _methodReq)... */\n    tag_7:\n      tag_43\n      0x04\n      dup1\n      calldatasize\n      sub\n      dup2\n      add\n      swap1\n      tag_44\n      swap2\n      swap1\n      tag_39\n      jump\t// in\n    tag_44:\n      tag_45\n      jump\t// in\n    tag_43:\n      mload(0x40)\n      tag_46\n      swap2\n      swap1\n      tag_42\n      jump\t// in\n    tag_46:\n      mload(0x40)\n      dup1\n      swap2\n      sub\n      swap1\n      return\n        /* \"contracts/AmeComponents/VibeProfiles/VibeProfile.sol\":8549:9230  function isValidString(string memory str) public pure returns (bool) {... */\n    tag_8:\n      callvalue\n      dup1\n      iszero\n      tag_47\n      jumpi\n      0x00\n      dup1\n      revert\n    tag_47:\n      pop\n      tag_48\n      0x04\n      dup1\n      calldatasize\n      sub\n      dup2\n      add\n      swap1\n      tag_49\n      swap2\n      swap1\n      tag_20\n      jump\t// in\n    tag_49:\n      tag_50\n      jump\t// in\n    tag_48:\n      mload(0x40)\n      tag_51\n      swap2\n      swap1\n      tag_35\n      jump\t// in\n    tag_51:\n      mload(0x40)\n      dup1\n      swap2\n      sub\n      swap1\n      return\n        /* \"contracts/AmeComponents/VibeProfiles/VibeProfile.sol\":5685:6552  function put(string memory _methodName, bytes memory _methodReq)... */\n    tag_9:\n      tag_52\n      0x04\n      dup1\n      calldatasize\n      sub\n      dup2\n      add\n      swap1\n      tag_53\n      swap2\n      swap1\n      tag_39\n      jump\t// in\n    tag_53:\n      tag_54\n      jump\t// in\n    tag_52:\n      mload(0x40)\n      tag_55\n      swap2\n      swap1\n      tag_42\n      jump\t// in\n    tag_55:\n      mload(0x40)\n      dup1\n      swap2\n      sub\n      swap1\n      return\n        /* \"contracts/AmeComponents/VibeProfiles/VibeProfile.sol\":7477:7634  function getMethods(MethodTypes _methodTypes)... */\n    tag_10:\n      callvalue\n      dup1\n      iszero\n      tag_56\n      jumpi\n      0x00\n      dup1\n      revert\n    tag_56:\n      pop\n      tag_57\n      0x04\n      dup1\n      calldatasize\n      sub\n      dup2\n      add\n      swap1\n      tag_58\n      swap2\n      swap1\n      tag_59\n      jump\t// in\n    tag_58:\n      tag_60\n      jump\t// in\n    tag_57:\n      mload(0x40)\n      tag_61\n      swap2\n      swap1\n      tag_62\n      jump\t// in\n    tag_61:\n      mload(0x40)\n      dup1\n      swap2\n      sub\n      swap1\n      return\n        /* \"contracts/AmeComponents/VibeProfiles/VibeProfile.sol\":6558:6893  function options() public pure returns (MethodTypes[] memory) {... */\n    tag_14:\n        /* \"contracts/AmeComponents/VibeProfiles/VibeProfile.sol\":6598:6618  MethodTypes[] memory */\n      0x60\n        /* \"contracts/AmeComponents/VibeProfiles/VibeProfile.sol\":6630:6662  MethodTypes[] memory methodTypes */\n      0x00\n        /* \"contracts/AmeComponents/VibeProfiles/VibeProfile.sol\":6683:6684  4 */\n      0x04\n        /* \"contracts/AmeComponents/VibeProfiles/VibeProfile.sol\":6665:6685  new MethodTypes[](4) */\n      0xffffffffffffffff\n      dup2\n      gt\n      iszero\n      tag_64\n      jumpi\n      tag_65\n      tag_66\n      jump\t// in\n    tag_65:\n    tag_64:\n      mload(0x40)\n      swap1\n      dup1\n      dup3\n      mstore\n      dup1\n      0x20\n      mul\n      0x20\n      add\n      dup3\n      add\n      0x40\n      mstore\n      dup1\n      iszero\n      tag_67\n      jumpi\n      dup2\n      0x20\n      add\n      0x20\n      dup3\n      mul\n      dup1\n      calldatasize\n      dup4\n      calldatacopy\n      dup1\n      dup3\n      add\n      swap2\n      pop\n      pop\n      swap1\n      pop\n    tag_67:\n      pop\n        /* \"contracts/AmeComponents/VibeProfiles/VibeProfile.sol\":6630:6685  MethodTypes[] memory methodTypes = new MethodTypes[](4) */\n      swap1\n      pop\n        /* \"contracts/AmeComponents/VibeProfiles/VibeProfile.sol\":6712:6727  MethodTypes.GET */\n      0x00\n        /* \"contracts/AmeComponents/VibeProfiles/VibeProfile.sol\":6695:6706  methodTypes */\n      dup2\n        /* \"contracts/AmeComponents/VibeProfiles/VibeProfile.sol\":6707:6708  0 */\n      0x00\n        /* \"contracts/AmeComponents/VibeProfiles/VibeProfile.sol\":6695:6709  methodTypes[0] */\n      dup2\n      mload\n      dup2\n      lt\n      tag_68\n      jumpi\n      tag_69\n      tag_70\n      jump\t// in\n    tag_69:\n    tag_68:\n      0x20\n      mul\n      0x20\n      add\n      add\n        /* \"contracts/AmeComponents/VibeProfiles/VibeProfile.sol\":6695:6727  methodTypes[0] = MethodTypes.GET */\n      swap1\n      0x03\n      dup2\n      gt\n      iszero\n      tag_71\n      jumpi\n      tag_72\n      tag_73\n      jump\t// in\n    tag_72:\n    tag_71:\n      swap1\n      dup2\n      0x03\n      dup2\n      gt\n      iszero\n      tag_74\n      jumpi\n      tag_75\n      tag_73\n      jump\t// in\n    tag_75:\n    tag_74:\n      dup2\n      mstore\n      pop\n      pop\n        /* \"contracts/AmeComponents/VibeProfiles/VibeProfile.sol\":6754:6770  MethodTypes.POST */\n      0x01\n        /* \"contracts/AmeComponents/VibeProfiles/VibeProfile.sol\":6737:6748  methodTypes */\n      dup2\n        /* \"contracts/AmeComponents/VibeProfiles/VibeProfile.sol\":6749:6750  1 */\n      0x01\n        /* \"contracts/AmeComponents/VibeProfiles/VibeProfile.sol\":6737:6751  methodTypes[1] */\n      dup2\n      mload\n      dup2\n      lt\n      tag_76\n      jumpi\n      tag_77\n      tag_70\n      jump\t// in\n    tag_77:\n    tag_76:\n      0x20\n      mul\n      0x20\n      add\n      add\n        /* \"contracts/AmeComponents/VibeProfiles/VibeProfile.sol\":6737:6770  methodTypes[1] = MethodTypes.POST */\n      swap1\n      0x03\n      dup2\n      gt\n      iszero\n      tag_78\n      jumpi\n      tag_79\n      tag_73\n      jump\t// in\n    tag_79:\n    tag_78:\n      swap1\n      dup2\n      0x03\n      dup2\n      gt\n      iszero\n      tag_80\n      jumpi\n      tag_81\n      tag_73\n      jump\t// in\n    tag_81:\n    tag_80:\n      dup2\n      mstore\n      pop\n      pop\n        /* \"contracts/AmeComponents/VibeProfiles/VibeProfile.sol\":6797:6812  MethodTypes.PUT */\n      0x02\n        /* \"contracts/AmeComponents/VibeProfiles/VibeProfile.sol\":6780:6791  methodTypes */\n      dup2\n        /* \"contracts/AmeComponents/VibeProfiles/VibeProfile.sol\":6792:6793  2 */\n      0x02\n        /* \"contracts/AmeComponents/VibeProfiles/VibeProfile.sol\":6780:6794  methodTypes[2] */\n      dup2\n      mload\n      dup2\n      lt\n      tag_82\n      jumpi\n      tag_83\n      tag_70\n      jump\t// in\n    tag_83:\n    tag_82:\n      0x20\n      mul\n      0x20\n      add\n      add\n        /* \"contracts/AmeComponents/VibeProfiles/VibeProfile.sol\":6780:6812  methodTypes[2] = MethodTypes.PUT */\n      swap1\n      0x03\n      dup2\n      gt\n      iszero\n      tag_84\n      jumpi\n      tag_85\n      tag_73\n      jump\t// in\n    tag_85:\n    tag_84:\n      swap1\n      dup2\n      0x03\n      dup2\n      gt\n      iszero\n      tag_86\n      jumpi\n      tag_87\n      tag_73\n      jump\t// in\n    tag_87:\n    tag_86:\n      dup2\n      mstore\n      pop\n      pop\n        /* \"contracts/AmeComponents/VibeProfiles/VibeProfile.sol\":6839:6858  MethodTypes.OPTIONS */\n      0x03\n        /* \"contracts/AmeComponents/VibeProfiles/VibeProfile.sol\":6822:6833  methodTypes */\n      dup2\n        /* \"contracts/AmeComponents/VibeProfiles/VibeProfile.sol\":6834:6835  3 */\n      0x03\n        /* \"contracts/AmeComponents/VibeProfiles/VibeProfile.sol\":6822:6836  methodTypes[3] */\n      dup2\n      mload\n      dup2\n      lt\n      tag_88\n      jumpi\n      tag_89\n      tag_70\n      jump\t// in\n    tag_89:\n    tag_88:\n      0x20\n      mul\n      0x20\n      add\n      add\n        /* \"contracts/AmeComponents/VibeProfiles/VibeProfile.sol\":6822:6858  methodTypes[3] = MethodTypes.OPTIONS */\n      swap1\n      0x03\n      dup2\n      gt\n      iszero\n      tag_90\n      jumpi\n      tag_91\n      tag_73\n      jump\t// in\n    tag_91:\n    tag_90:\n      swap1\n      dup2\n      0x03\n      dup2\n      gt\n      iszero\n      tag_92\n      jumpi\n      tag_93\n      tag_73\n      jump\t// in\n    tag_93:\n    tag_92:\n      dup2\n      mstore\n      pop\n      pop\n        /* \"contracts/AmeComponents/VibeProfiles/VibeProfile.sol\":6875:6886  methodTypes */\n      dup1\n        /* \"contracts/AmeComponents/VibeProfiles/VibeProfile.sol\":6868:6886  return methodTypes */\n      swap2\n      pop\n      pop\n        /* \"contracts/AmeComponents/VibeProfiles/VibeProfile.sol\":6558:6893  function options() public pure returns (MethodTypes[] memory) {... */\n      swap1\n      jump\t// out\n        /* \"contracts/AmeComponents/VibeProfiles/VibeProfile.sol\":7242:7471  function getMethodReqAndRes(string memory _methodName)... */\n    tag_21:\n        /* \"contracts/AmeComponents/VibeProfiles/VibeProfile.sol\":7342:7361  Types.Type[] memory */\n      0x60\n        /* \"contracts/AmeComponents/VibeProfiles/VibeProfile.sol\":7363:7382  Types.Type[] memory */\n      dup1\n        /* \"contracts/AmeComponents/VibeProfiles/VibeProfile.sol\":7406:7420  methodRequests */\n      0x01\n        /* \"contracts/AmeComponents/VibeProfiles/VibeProfile.sol\":7421:7432  _methodName */\n      dup4\n        /* \"contracts/AmeComponents/VibeProfiles/VibeProfile.sol\":7406:7433  methodRequests[_methodName] */\n      mload(0x40)\n      tag_95\n      swap2\n      swap1\n      tag_96\n      jump\t// in\n    tag_95:\n      swap1\n      dup2\n      mstore\n      0x20\n      add\n      mload(0x40)\n      dup1\n      swap2\n      sub\n      swap1\n      keccak256\n        /* \"contracts/AmeComponents/VibeProfiles/VibeProfile.sol\":7435:7450  methodResponses */\n      0x02\n        /* \"contracts/AmeComponents/VibeProfiles/VibeProfile.sol\":7451:7462  _methodName */\n      dup5\n        /* \"contracts/AmeComponents/VibeProfiles/VibeProfile.sol\":7435:7463  methodResponses[_methodName] */\n      mload(0x40)\n      tag_97\n      swap2\n      swap1\n      tag_96\n      jump\t// in\n    tag_97:\n      swap1\n      dup2\n      mstore\n      0x20\n      add\n      mload(0x40)\n      dup1\n      swap2\n      sub\n      swap1\n      keccak256\n        /* \"contracts/AmeComponents/VibeProfiles/VibeProfile.sol\":7398:7464  return (methodRequests[_methodName], methodResponses[_methodName]) */\n      dup2\n      dup1\n      sload\n      dup1\n      0x20\n      mul\n      0x20\n      add\n      mload(0x40)\n      swap1\n      dup2\n      add\n      0x40\n      mstore\n      dup1\n      swap3\n      swap2\n      swap1\n      dup2\n      dup2\n      mstore\n      0x20\n      add\n      dup3\n      dup1\n      sload\n      dup1\n      iszero\n      tag_98\n      jumpi\n      0x20\n      mul\n      dup3\n      add\n      swap2\n      swap1\n      0x00\n      mstore\n      keccak256(0x00, 0x20)\n      swap1\n      0x00\n      swap1\n    tag_99:\n      dup3\n      dup3\n      swap1\n      sload\n      swap1\n      0x0100\n      exp\n      swap1\n      div\n      0xff\n      and\n      0xc6\n      dup2\n      gt\n      iszero\n      tag_100\n      jumpi\n      tag_101\n      tag_73\n      jump\t// in\n    tag_101:\n    tag_100:\n      dup2\n      mstore\n      0x20\n      add\n      swap1\n      0x01\n      add\n      swap1\n      0x20\n      dup3\n      0x00\n      add\n      div\n      swap3\n      dup4\n      add\n      swap3\n      0x01\n      sub\n      dup3\n      mul\n      swap2\n      pop\n      dup1\n      dup5\n      gt\n      tag_99\n      jumpi\n      swap1\n      pop\n    tag_98:\n      pop\n      pop\n      pop\n      pop\n      pop\n      swap2\n      pop\n      dup1\n      dup1\n      sload\n      dup1\n      0x20\n      mul\n      0x20\n      add\n      mload(0x40)\n      swap1\n      dup2\n      add\n      0x40\n      mstore\n      dup1\n      swap3\n      swap2\n      swap1\n      dup2\n      dup2\n      mstore\n      0x20\n      add\n      dup3\n      dup1\n      sload\n      dup1\n      iszero\n      tag_102\n      jumpi\n      0x20\n      mul\n      dup3\n      add\n      swap2\n      swap1\n      0x00\n      mstore\n      keccak256(0x00, 0x20)\n      swap1\n      0x00\n      swap1\n    tag_103:\n      dup3\n      dup3\n      swap1\n      sload\n      swap1\n      0x0100\n      exp\n      swap1\n      div\n      0xff\n      and\n      0xc6\n      dup2\n      gt\n      iszero\n      tag_104\n      jumpi\n      tag_105\n      tag_73\n      jump\t// in\n    tag_105:\n    tag_104:\n      dup2\n      mstore\n      0x20\n      add\n      swap1\n      0x01\n      add\n      swap1\n      0x20\n      dup3\n      0x00\n      add\n      div\n      swap3\n      dup4\n      add\n      swap3\n      0x01\n      sub\n      dup3\n      mul\n      swap2\n      pop\n      dup1\n      dup5\n      gt\n      tag_103\n      jumpi\n      swap1\n      pop\n    tag_102:\n      pop\n      pop\n      pop\n      pop\n      pop\n      swap1\n      pop\n      swap2\n      pop\n      swap2\n      pop\n        /* \"contracts/AmeComponents/VibeProfiles/VibeProfile.sol\":7242:7471  function getMethodReqAndRes(string memory _methodName)... */\n      swap2\n      pop\n      swap2\n      jump\t// out\n        /* \"contracts/AmeComponents/VibeProfiles/VibeProfile.sol\":8077:8540  function toLower(string memory str) public pure returns (string memory) {... */\n    tag_27:\n        /* \"contracts/AmeComponents/VibeProfiles/VibeProfile.sol\":8134:8147  string memory */\n      0x60\n        /* \"contracts/AmeComponents/VibeProfiles/VibeProfile.sol\":8159:8176  bytes memory bStr */\n      0x00\n        /* \"contracts/AmeComponents/VibeProfiles/VibeProfile.sol\":8185:8188  str */\n      dup3\n        /* \"contracts/AmeComponents/VibeProfiles/VibeProfile.sol\":8159:8189  bytes memory bStr = bytes(str) */\n      swap1\n      pop\n        /* \"contracts/AmeComponents/VibeProfiles/VibeProfile.sol\":8199:8218  bytes memory bLower */\n      0x00\n        /* \"contracts/AmeComponents/VibeProfiles/VibeProfile.sol\":8231:8235  bStr */\n      dup2\n        /* \"contracts/AmeComponents/VibeProfiles/VibeProfile.sol\":8231:8242  bStr.length */\n      mload\n        /* \"contracts/AmeComponents/VibeProfiles/VibeProfile.sol\":8221:8243  new bytes(bStr.length) */\n      0xffffffffffffffff\n      dup2\n      gt\n      iszero\n      tag_107\n      jumpi\n      tag_108\n      tag_66\n      jump\t// in\n    tag_108:\n    tag_107:\n      mload(0x40)\n      swap1\n      dup1\n      dup3\n      mstore\n      dup1\n      0x1f\n      add\n      not(0x1f)\n      and\n      0x20\n      add\n      dup3\n      add\n      0x40\n      mstore\n      dup1\n      iszero\n      tag_109\n      jumpi\n      dup2\n      0x20\n      add\n      0x01\n      dup3\n      mul\n      dup1\n      calldatasize\n      dup4\n      calldatacopy\n      dup1\n      dup3\n      add\n      swap2\n      pop\n      pop\n      swap1\n      pop\n    tag_109:\n      pop\n        /* \"contracts/AmeComponents/VibeProfiles/VibeProfile.sol\":8199:8243  bytes memory bLower = new bytes(bStr.length) */\n      swap1\n      pop\n        /* \"contracts/AmeComponents/VibeProfiles/VibeProfile.sol\":8259:8265  uint i */\n      0x00\n        /* \"contracts/AmeComponents/VibeProfiles/VibeProfile.sol\":8254:8503  for (uint i = 0; i < bStr.length; i++) {... */\n    tag_110:\n        /* \"contracts/AmeComponents/VibeProfiles/VibeProfile.sol\":8275:8279  bStr */\n      dup3\n        /* \"contracts/AmeComponents/VibeProfiles/VibeProfile.sol\":8275:8286  bStr.length */\n      mload\n        /* \"contracts/AmeComponents/VibeProfiles/VibeProfile.sol\":8271:8272  i */\n      dup2\n        /* \"contracts/AmeComponents/VibeProfiles/VibeProfile.sol\":8271:8286  i < bStr.length */\n      lt\n        /* \"contracts/AmeComponents/VibeProfiles/VibeProfile.sol\":8254:8503  for (uint i = 0; i < bStr.length; i++) {... */\n      iszero\n      tag_111\n      jumpi\n        /* \"contracts/AmeComponents/VibeProfiles/VibeProfile.sol\":8335:8339  0x41 */\n      0x41\n        /* \"contracts/AmeComponents/VibeProfiles/VibeProfile.sol\":8324:8339  bStr[i] >= 0x41 */\n      0xf8\n      shl\n        /* \"contracts/AmeComponents/VibeProfiles/VibeProfile.sol\":8324:8328  bStr */\n      dup4\n        /* \"contracts/AmeComponents/VibeProfiles/VibeProfile.sol\":8329:8330  i */\n      dup3\n        /* \"contracts/AmeComponents/VibeProfiles/VibeProfile.sol\":8324:8331  bStr[i] */\n      dup2\n      mload\n      dup2\n      lt\n      tag_113\n      jumpi\n      tag_114\n      tag_70\n      jump\t// in\n    tag_114:\n    tag_113:\n      0x20\n      add\n      add\n      mload\n      0xf8\n      shr\n      0xf8\n      shl\n        /* \"contracts/AmeComponents/VibeProfiles/VibeProfile.sol\":8324:8339  bStr[i] >= 0x41 */\n      not(0xffffffffffffffffffffffffffffffffffffffffffffffffffffffffffffff)\n      and\n      lt\n      iszero\n        /* \"contracts/AmeComponents/VibeProfiles/VibeProfile.sol\":8324:8358  bStr[i] >= 0x41 && bStr[i] <= 0x5A */\n      dup1\n      iszero\n      tag_115\n      jumpi\n      pop\n        /* \"contracts/AmeComponents/VibeProfiles/VibeProfile.sol\":8354:8358  0x5A */\n      0x5a\n        /* \"contracts/AmeComponents/VibeProfiles/VibeProfile.sol\":8343:8358  bStr[i] <= 0x5A */\n      0xf8\n      shl\n        /* \"contracts/AmeComponents/VibeProfiles/VibeProfile.sol\":8343:8347  bStr */\n      dup4\n        /* \"contracts/AmeComponents/VibeProfiles/VibeProfile.sol\":8348:8349  i */\n      dup3\n        /* \"contracts/AmeComponents/VibeProfiles/VibeProfile.sol\":8343:8350  bStr[i] */\n      dup2\n      mload\n      dup2\n      lt\n      tag_116\n      jumpi\n      tag_117\n      tag_70\n      jump\t// in\n    tag_117:\n    tag_116:\n      0x20\n      add\n      add\n      mload\n      0xf8\n      shr\n      0xf8\n      shl\n        /* \"contracts/AmeComponents/VibeProfiles/VibeProfile.sol\":8343:8358  bStr[i] <= 0x5A */\n      not(0xffffffffffffffffffffffffffffffffffffffffffffffffffffffffffffff)\n      and\n      gt\n      iszero\n        /* \"contracts/AmeComponents/VibeProfiles/VibeProfile.sol\":8324:8358  bStr[i] >= 0x41 && bStr[i] <= 0x5A */\n    tag_115:\n        /* \"contracts/AmeComponents/VibeProfiles/VibeProfile.sol\":8320:8493  if (bStr[i] >= 0x41 && bStr[i] <= 0x5A) { ... */\n      iszero\n      tag_118\n      jumpi\n        /* \"contracts/AmeComponents/VibeProfiles/VibeProfile.sol\":8415:8417  32 */\n      0x20\n        /* \"contracts/AmeComponents/VibeProfiles/VibeProfile.sol\":8404:8408  bStr */\n      dup4\n        /* \"contracts/AmeComponents/VibeProfiles/VibeProfile.sol\":8409:8410  i */\n      dup3\n        /* \"contracts/AmeComponents/VibeProfiles/VibeProfile.sol\":8404:8411  bStr[i] */\n      dup2\n      mload\n      dup2\n      lt\n      tag_119\n      jumpi\n      tag_120\n      tag_70\n      jump\t// in\n    tag_120:\n    tag_119:\n      0x20\n      add\n      add\n      mload\n      0xf8\n      shr\n      0xf8\n      shl\n        /* \"contracts/AmeComponents/VibeProfiles/VibeProfile.sol\":8398:8412  uint8(bStr[i]) */\n      0xf8\n      shr\n        /* \"contracts/AmeComponents/VibeProfiles/VibeProfile.sol\":8398:8417  uint8(bStr[i]) + 32 */\n      tag_121\n      swap2\n      swap1\n      tag_122\n      jump\t// in\n    tag_121:\n        /* \"contracts/AmeComponents/VibeProfiles/VibeProfile.sol\":8391:8418  bytes1(uint8(bStr[i]) + 32) */\n      0xf8\n      shl\n        /* \"contracts/AmeComponents/VibeProfiles/VibeProfile.sol\":8379:8385  bLower */\n      dup3\n        /* \"contracts/AmeComponents/VibeProfiles/VibeProfile.sol\":8386:8387  i */\n      dup3\n        /* \"contracts/AmeComponents/VibeProfiles/VibeProfile.sol\":8379:8388  bLower[i] */\n      dup2\n      mload\n      dup2\n      lt\n      tag_123\n      jumpi\n      tag_124\n      tag_70\n      jump\t// in\n    tag_124:\n    tag_123:\n      0x20\n      add\n      add\n        /* \"contracts/AmeComponents/VibeProfiles/VibeProfile.sol\":8379:8418  bLower[i] = bytes1(uint8(bStr[i]) + 32) */\n      swap1\n      not(0xffffffffffffffffffffffffffffffffffffffffffffffffffffffffffffff)\n      and\n      swap1\n      dup2\n      0x00\n      byte\n      swap1\n      mstore8\n      pop\n        /* \"contracts/AmeComponents/VibeProfiles/VibeProfile.sol\":8320:8493  if (bStr[i] >= 0x41 && bStr[i] <= 0x5A) { ... */\n      jump(tag_125)\n    tag_118:\n        /* \"contracts/AmeComponents/VibeProfiles/VibeProfile.sol\":8470:8474  bStr */\n      dup3\n        /* \"contracts/AmeComponents/VibeProfiles/VibeProfile.sol\":8475:8476  i */\n      dup2\n        /* \"contracts/AmeComponents/VibeProfiles/VibeProfile.sol\":8470:8477  bStr[i] */\n      dup2\n      mload\n      dup2\n      lt\n      tag_126\n      jumpi\n      tag_127\n      tag_70\n      jump\t// in\n    tag_127:\n    tag_126:\n      0x20\n      add\n      add\n      mload\n      0xf8\n      shr\n      0xf8\n      shl\n        /* \"contracts/AmeComponents/VibeProfiles/VibeProfile.sol\":8458:8464  bLower */\n      dup3\n        /* \"contracts/AmeComponents/VibeProfiles/VibeProfile.sol\":8465:8466  i */\n      dup3\n        /* \"contracts/AmeComponents/VibeProfiles/VibeProfile.sol\":8458:8467  bLower[i] */\n      dup2\n      mload\n      dup2\n      lt\n      tag_128\n      jumpi\n      tag_129\n      tag_70\n      jump\t// in\n    tag_129:\n    tag_128:\n      0x20\n      add\n      add\n        /* \"contracts/AmeComponents/VibeProfiles/VibeProfile.sol\":8458:8477  bLower[i] = bStr[i] */\n      swap1\n      not(0xffffffffffffffffffffffffffffffffffffffffffffffffffffffffffffff)\n      and\n      swap1\n      dup2\n      0x00\n      byte\n      swap1\n      mstore8\n      pop\n        /* \"contracts/AmeComponents/VibeProfiles/VibeProfile.sol\":8320:8493  if (bStr[i] >= 0x41 && bStr[i] <= 0x5A) { ... */\n    tag_125:\n        /* \"contracts/AmeComponents/VibeProfiles/VibeProfile.sol\":8288:8291  i++ */\n      dup1\n      dup1\n      0x01\n      add\n      swap2\n      pop\n      pop\n        /* \"contracts/AmeComponents/VibeProfiles/VibeProfile.sol\":8254:8503  for (uint i = 0; i < bStr.length; i++) {... */\n      jump(tag_110)\n    tag_111:\n      pop\n        /* \"contracts/AmeComponents/VibeProfiles/VibeProfile.sol\":8526:8532  bLower */\n      dup1\n        /* \"contracts/AmeComponents/VibeProfiles/VibeProfile.sol\":8512:8533  return string(bLower) */\n      swap3\n      pop\n      pop\n      pop\n        /* \"contracts/AmeComponents/VibeProfiles/VibeProfile.sol\":8077:8540  function toLower(string memory str) public pure returns (string memory) {... */\n      swap2\n      swap1\n      pop\n      jump\t// out\n        /* \"contracts/AmeComponents/VibeProfiles/VibeProfile.sol\":7909:8071  function isEmptyString(string memory str) public pure returns (bool) {... */\n    tag_33:\n        /* \"contracts/AmeComponents/VibeProfiles/VibeProfile.sol\":7972:7976  bool */\n      0x00\n        /* \"contracts/AmeComponents/VibeProfiles/VibeProfile.sol\":7989:8010  bytes memory strBytes */\n      dup1\n        /* \"contracts/AmeComponents/VibeProfiles/VibeProfile.sol\":8019:8022  str */\n      dup3\n        /* \"contracts/AmeComponents/VibeProfiles/VibeProfile.sol\":7989:8023  bytes memory strBytes = bytes(str) */\n      swap1\n      pop\n        /* \"contracts/AmeComponents/VibeProfiles/VibeProfile.sol\":8063:8064  0 */\n      0x00\n        /* \"contracts/AmeComponents/VibeProfiles/VibeProfile.sol\":8044:8052  strBytes */\n      dup2\n        /* \"contracts/AmeComponents/VibeProfiles/VibeProfile.sol\":8044:8059  strBytes.length */\n      mload\n        /* \"contracts/AmeComponents/VibeProfiles/VibeProfile.sol\":8044:8064  strBytes.length == 0 */\n      eq\n        /* \"contracts/AmeComponents/VibeProfiles/VibeProfile.sol\":8037:8064  return strBytes.length == 0 */\n      swap2\n      pop\n      pop\n        /* \"contracts/AmeComponents/VibeProfiles/VibeProfile.sol\":7909:8071  function isEmptyString(string memory str) public pure returns (bool) {... */\n      swap2\n      swap1\n      pop\n      jump\t// out\n        /* \"contracts/AmeComponents/VibeProfiles/VibeProfile.sol\":2481:4559  function get(string memory _methodName, bytes memory _methodReq)... */\n    tag_40:\n        /* \"contracts/AmeComponents/VibeProfiles/VibeProfile.sol\":2591:2603  bytes memory */\n      0x60\n        /* \"contracts/AmeComponents/VibeProfiles/VibeProfile.sol\":2623:2676  compareStrings(_methodName, \"getUserInfoByAddresses\") */\n      tag_132\n        /* \"contracts/AmeComponents/VibeProfiles/VibeProfile.sol\":2638:2649  _methodName */\n      dup4\n        /* \"contracts/AmeComponents/VibeProfiles/VibeProfile.sol\":2623:2676  compareStrings(_methodName, \"getUserInfoByAddresses\") */\n      mload(0x40)\n      dup1\n      0x40\n      add\n      0x40\n      mstore\n      dup1\n      0x16\n      dup2\n      mstore\n      0x20\n      add\n      0x67657455736572496e666f427941646472657373657300000000000000000000\n      dup2\n      mstore\n      pop\n        /* \"contracts/AmeComponents/VibeProfiles/VibeProfile.sol\":2623:2637  compareStrings */\n      tag_133\n        /* \"contracts/AmeComponents/VibeProfiles/VibeProfile.sol\":2623:2676  compareStrings(_methodName, \"getUserInfoByAddresses\") */\n      jump\t// in\n    tag_132:\n        /* \"contracts/AmeComponents/VibeProfiles/VibeProfile.sol\":2619:4553  if (compareStrings(_methodName, \"getUserInfoByAddresses\")) {... */\n      iszero\n      tag_134\n      jumpi\n        /* \"contracts/AmeComponents/VibeProfiles/VibeProfile.sol\":2694:2716  address[] memory users */\n      0x00\n        /* \"contracts/AmeComponents/VibeProfiles/VibeProfile.sol\":2731:2741  _methodReq */\n      dup3\n        /* \"contracts/AmeComponents/VibeProfiles/VibeProfile.sol\":2720:2755  abi.decode(_methodReq, (address[])) */\n      dup1\n      0x20\n      add\n      swap1\n      mload\n      dup2\n      add\n      swap1\n      tag_135\n      swap2\n      swap1\n      tag_136\n      jump\t// in\n    tag_135:\n        /* \"contracts/AmeComponents/VibeProfiles/VibeProfile.sol\":2693:2755  (address[] memory users) = abi.decode(_methodReq, (address[])) */\n      swap1\n      pop\n        /* \"contracts/AmeComponents/VibeProfiles/VibeProfile.sol\":2782:2805  string[] memory handles */\n      0x00\n        /* \"contracts/AmeComponents/VibeProfiles/VibeProfile.sol\":2819:2824  users */\n      dup2\n        /* \"contracts/AmeComponents/VibeProfiles/VibeProfile.sol\":2819:2831  users.length */\n      mload\n        /* \"contracts/AmeComponents/VibeProfiles/VibeProfile.sol\":2806:2832  new string[](users.length) */\n      0xffffffffffffffff\n      dup2\n      gt\n      iszero\n      tag_137\n      jumpi\n      tag_138\n      tag_66\n      jump\t// in\n    tag_138:\n    tag_137:\n      mload(0x40)\n      swap1\n      dup1\n      dup3\n      mstore\n      dup1\n      0x20\n      mul\n      0x20\n      add\n      dup3\n      add\n      0x40\n      mstore\n      dup1\n      iszero\n      tag_139\n      jumpi\n      dup2\n      0x20\n      add\n    tag_140:\n      0x60\n      dup2\n      mstore\n      0x20\n      add\n      swap1\n      0x01\n      swap1\n      sub\n      swap1\n      dup2\n      tag_140\n      jumpi\n      swap1\n      pop\n    tag_139:\n      pop\n        /* \"contracts/AmeComponents/VibeProfiles/VibeProfile.sol\":2782:2832  string[] memory handles=new string[](users.length) */\n      swap1\n      pop\n        /* \"contracts/AmeComponents/VibeProfiles/VibeProfile.sol\":2846:2872  string[] memory nincknames */\n      0x00\n        /* \"contracts/AmeComponents/VibeProfiles/VibeProfile.sol\":2886:2891  users */\n      dup3\n        /* \"contracts/AmeComponents/VibeProfiles/VibeProfile.sol\":2886:2898  users.length */\n      mload\n        /* \"contracts/AmeComponents/VibeProfiles/VibeProfile.sol\":2873:2899  new string[](users.length) */\n      0xffffffffffffffff\n      dup2\n      gt\n      iszero\n      tag_141\n      jumpi\n      tag_142\n      tag_66\n      jump\t// in\n    tag_142:\n    tag_141:\n      mload(0x40)\n      swap1\n      dup1\n      dup3\n      mstore\n      dup1\n      0x20\n      mul\n      0x20\n      add\n      dup3\n      add\n      0x40\n      mstore\n      dup1\n      iszero\n      tag_143\n      jumpi\n      dup2\n      0x20\n      add\n    tag_144:\n      0x60\n      dup2\n      mstore\n      0x20\n      add\n      swap1\n      0x01\n      swap1\n      sub\n      swap1\n      dup2\n      tag_144\n      jumpi\n      swap1\n      pop\n    tag_143:\n      pop\n        /* \"contracts/AmeComponents/VibeProfiles/VibeProfile.sol\":2846:2899  string[] memory nincknames=new string[](users.length) */\n      swap1\n      pop\n        /* \"contracts/AmeComponents/VibeProfiles/VibeProfile.sol\":2913:2936  string[] memory avatars */\n      0x00\n        /* \"contracts/AmeComponents/VibeProfiles/VibeProfile.sol\":2950:2955  users */\n      dup4\n        /* \"contracts/AmeComponents/VibeProfiles/VibeProfile.sol\":2950:2962  users.length */\n      mload\n        /* \"contracts/AmeComponents/VibeProfiles/VibeProfile.sol\":2937:2963  new string[](users.length) */\n      0xffffffffffffffff\n      dup2\n      gt\n      iszero\n      tag_145\n      jumpi\n      tag_146\n      tag_66\n      jump\t// in\n    tag_146:\n    tag_145:\n      mload(0x40)\n      swap1\n      dup1\n      dup3\n      mstore\n      dup1\n      0x20\n      mul\n      0x20\n      add\n      dup3\n      add\n      0x40\n      mstore\n      dup1\n      iszero\n      tag_147\n      jumpi\n      dup2\n      0x20\n      add\n    tag_148:\n      0x60\n      dup2\n      mstore\n      0x20\n      add\n      swap1\n      0x01\n      swap1\n      sub\n      swap1\n      dup2\n      tag_148\n      jumpi\n      swap1\n      pop\n    tag_147:\n      pop\n        /* \"contracts/AmeComponents/VibeProfiles/VibeProfile.sol\":2913:2963  string[] memory avatars=new string[](users.length) */\n      swap1\n      pop\n        /* \"contracts/AmeComponents/VibeProfiles/VibeProfile.sol\":2977:3001  string[] memory profiles */\n      0x00\n        /* \"contracts/AmeComponents/VibeProfiles/VibeProfile.sol\":3015:3020  users */\n      dup5\n        /* \"contracts/AmeComponents/VibeProfiles/VibeProfile.sol\":3015:3027  users.length */\n      mload\n        /* \"contracts/AmeComponents/VibeProfiles/VibeProfile.sol\":3002:3028  new string[](users.length) */\n      0xffffffffffffffff\n      dup2\n      gt\n      iszero\n      tag_149\n      jumpi\n      tag_150\n      tag_66\n      jump\t// in\n    tag_150:\n    tag_149:\n      mload(0x40)\n      swap1\n      dup1\n      dup3\n      mstore\n      dup1\n      0x20\n      mul\n      0x20\n      add\n      dup3\n      add\n      0x40\n      mstore\n      dup1\n      iszero\n      tag_151\n      jumpi\n      dup2\n      0x20\n      add\n    tag_152:\n      0x60\n      dup2\n      mstore\n      0x20\n      add\n      swap1\n      0x01\n      swap1\n      sub\n      swap1\n      dup2\n      tag_152\n      jumpi\n      swap1\n      pop\n    tag_151:\n      pop\n        /* \"contracts/AmeComponents/VibeProfiles/VibeProfile.sol\":2977:3028  string[] memory profiles=new string[](users.length) */\n      swap1\n      pop\n        /* \"contracts/AmeComponents/VibeProfiles/VibeProfile.sol\":3047:3056  uint256 i */\n      0x00\n        /* \"contracts/AmeComponents/VibeProfiles/VibeProfile.sol\":3043:3344  for(uint256 i=0;i<users.length;i++){... */\n    tag_153:\n        /* \"contracts/AmeComponents/VibeProfiles/VibeProfile.sol\":3061:3066  users */\n      dup6\n        /* \"contracts/AmeComponents/VibeProfiles/VibeProfile.sol\":3061:3073  users.length */\n      mload\n        /* \"contracts/AmeComponents/VibeProfiles/VibeProfile.sol\":3059:3060  i */\n      dup2\n        /* \"contracts/AmeComponents/VibeProfiles/VibeProfile.sol\":3059:3073  i<users.length */\n      lt\n        /* \"contracts/AmeComponents/VibeProfiles/VibeProfile.sol\":3043:3344  for(uint256 i=0;i<users.length;i++){... */\n      iszero\n      tag_154\n      jumpi\n        /* \"contracts/AmeComponents/VibeProfiles/VibeProfile.sol\":3096:3120  UserInfo memory userInfo */\n      0x00\n        /* \"contracts/AmeComponents/VibeProfiles/VibeProfile.sol\":3121:3136  addressUserInfo */\n      0x03\n        /* \"contracts/AmeComponents/VibeProfiles/VibeProfile.sol\":3121:3146  addressUserInfo[users[i]] */\n      0x00\n        /* \"contracts/AmeComponents/VibeProfiles/VibeProfile.sol\":3137:3142  users */\n      dup9\n        /* \"contracts/AmeComponents/VibeProfiles/VibeProfile.sol\":3143:3144  i */\n      dup5\n        /* \"contracts/AmeComponents/VibeProfiles/VibeProfile.sol\":3137:3145  users[i] */\n      dup2\n      mload\n      dup2\n      lt\n      tag_156\n      jumpi\n      tag_157\n      tag_70\n      jump\t// in\n    tag_157:\n    tag_156:\n      0x20\n      mul\n      0x20\n      add\n      add\n      mload\n        /* \"contracts/AmeComponents/VibeProfiles/VibeProfile.sol\":3121:3146  addressUserInfo[users[i]] */\n      0xffffffffffffffffffffffffffffffffffffffff\n      and\n      0xffffffffffffffffffffffffffffffffffffffff\n      and\n      dup2\n      mstore\n      0x20\n      add\n      swap1\n      dup2\n      mstore\n      0x20\n      add\n      0x00\n      keccak256\n        /* \"contracts/AmeComponents/VibeProfiles/VibeProfile.sol\":3096:3146  UserInfo memory userInfo=addressUserInfo[users[i]] */\n      mload(0x40)\n      dup1\n      0x80\n      add\n      0x40\n      mstore\n      swap1\n      dup2\n      0x00\n      dup3\n      add\n      dup1\n      sload\n      tag_158\n      swap1\n      tag_159\n      jump\t// in\n    tag_158:\n      dup1\n      0x1f\n      add\n      0x20\n      dup1\n      swap2\n      div\n      mul\n      0x20\n      add\n      mload(0x40)\n      swap1\n      dup2\n      add\n      0x40\n      mstore\n      dup1\n      swap3\n      swap2\n      swap1\n      dup2\n      dup2\n      mstore\n      0x20\n      add\n      dup3\n      dup1\n      sload\n      tag_160\n      swap1\n      tag_159\n      jump\t// in\n    tag_160:\n      dup1\n      iszero\n      tag_161\n      jumpi\n      dup1\n      0x1f\n      lt\n      tag_162\n      jumpi\n      0x0100\n      dup1\n      dup4\n      sload\n      div\n      mul\n      dup4\n      mstore\n      swap2\n      0x20\n      add\n      swap2\n      jump(tag_161)\n    tag_162:\n      dup3\n      add\n      swap2\n      swap1\n      0x00\n      mstore\n      keccak256(0x00, 0x20)\n      swap1\n    tag_163:\n      dup2\n      sload\n      dup2\n      mstore\n      swap1\n      0x01\n      add\n      swap1\n      0x20\n      add\n      dup1\n      dup4\n      gt\n      tag_163\n      jumpi\n      dup3\n      swap1\n      sub\n      0x1f\n      and\n      dup3\n      add\n      swap2\n    tag_161:\n      pop\n      pop\n      pop\n      pop\n      pop\n      dup2\n      mstore\n      0x20\n      add\n      0x01\n      dup3\n      add\n      dup1\n      sload\n      tag_164\n      swap1\n      tag_159\n      jump\t// in\n    tag_164:\n      dup1\n      0x1f\n      add\n      0x20\n      dup1\n      swap2\n      div\n      mul\n      0x20\n      add\n      mload(0x40)\n      swap1\n      dup2\n      add\n      0x40\n      mstore\n      dup1\n      swap3\n      swap2\n      swap1\n      dup2\n      dup2\n      mstore\n      0x20\n      add\n      dup3\n      dup1\n      sload\n      tag_165\n      swap1\n      tag_159\n      jump\t// in\n    tag_165:\n      dup1\n      iszero\n      tag_166\n      jumpi\n      dup1\n      0x1f\n      lt\n      tag_167\n      jumpi\n      0x0100\n      dup1\n      dup4\n      sload\n      div\n      mul\n      dup4\n      mstore\n      swap2\n      0x20\n      add\n      swap2\n      jump(tag_166)\n    tag_167:\n      dup3\n      add\n      swap2\n      swap1\n      0x00\n      mstore\n      keccak256(0x00, 0x20)\n      swap1\n    tag_168:\n      dup2\n      sload\n      dup2\n      mstore\n      swap1\n      0x01\n      add\n      swap1\n      0x20\n      add\n      dup1\n      dup4\n      gt\n      tag_168\n      jumpi\n      dup3\n      swap1\n      sub\n      0x1f\n      and\n      dup3\n      add\n      swap2\n    tag_166:\n      pop\n      pop\n      pop\n      pop\n      pop\n      dup2\n      mstore\n      0x20\n      add\n      0x02\n      dup3\n      add\n      dup1\n      sload\n      tag_169\n      swap1\n      tag_159\n      jump\t// in\n    tag_169:\n      dup1\n      0x1f\n      add\n      0x20\n      dup1\n      swap2\n      div\n      mul\n      0x20\n      add\n      mload(0x40)\n      swap1\n      dup2\n      add\n      0x40\n      mstore\n      dup1\n      swap3\n      swap2\n      swap1\n      dup2\n      dup2\n      mstore\n      0x20\n      add\n      dup3\n      dup1\n      sload\n      tag_170\n      swap1\n      tag_159\n      jump\t// in\n    tag_170:\n      dup1\n      iszero\n      tag_171\n      jumpi\n      dup1\n      0x1f\n      lt\n      tag_172\n      jumpi\n      0x0100\n      dup1\n      dup4\n      sload\n      div\n      mul\n      dup4\n      mstore\n      swap2\n      0x20\n      add\n      swap2\n      jump(tag_171)\n    tag_172:\n      dup3\n      add\n      swap2\n      swap1\n      0x00\n      mstore\n      keccak256(0x00, 0x20)\n      swap1\n    tag_173:\n      dup2\n      sload\n      dup2\n      mstore\n      swap1\n      0x01\n      add\n      swap1\n      0x20\n      add\n      dup1\n      dup4\n      gt\n      tag_173\n      jumpi\n      dup3\n      swap1\n      sub\n      0x1f\n      and\n      dup3\n      add\n      swap2\n    tag_171:\n      pop\n      pop\n      pop\n      pop\n      pop\n      dup2\n      mstore\n      0x20\n      add\n      0x03\n      dup3\n      add\n      dup1\n      sload\n      tag_174\n      swap1\n      tag_159\n      jump\t// in\n    tag_174:\n      dup1\n      0x1f\n      add\n      0x20\n      dup1\n      swap2\n      div\n      mul\n      0x20\n      add\n      mload(0x40)\n      swap1\n      dup2\n      add\n      0x40\n      mstore\n      dup1\n      swap3\n      swap2\n      swap1\n      dup2\n      dup2\n      mstore\n      0x20\n      add\n      dup3\n      dup1\n      sload\n      tag_175\n      swap1\n      tag_159\n      jump\t// in\n    tag_175:\n      dup1\n      iszero\n      tag_176\n      jumpi\n      dup1\n      0x1f\n      lt\n      tag_177\n      jumpi\n      0x0100\n      dup1\n      dup4\n      sload\n      div\n      mul\n      dup4\n      mstore\n      swap2\n      0x20\n      add\n      swap2\n      jump(tag_176)\n    tag_177:\n      dup3\n      add\n      swap2\n      swap1\n      0x00\n      mstore\n      keccak256(0x00, 0x20)\n      swap1\n    tag_178:\n      dup2\n      sload\n      dup2\n      mstore\n      swap1\n      0x01\n      add\n      swap1\n      0x20\n      add\n      dup1\n      dup4\n      gt\n      tag_178\n      jumpi\n      dup3\n      swap1\n      sub\n      0x1f\n      and\n      dup3\n      add\n      swap2\n    tag_176:\n      pop\n      pop\n      pop\n      pop\n      pop\n      dup2\n      mstore\n      pop\n      pop\n      swap1\n      pop\n        /* \"contracts/AmeComponents/VibeProfiles/VibeProfile.sol\":3175:3183  userInfo */\n      dup1\n        /* \"contracts/AmeComponents/VibeProfiles/VibeProfile.sol\":3175:3190  userInfo.handle */\n      0x00\n      add\n      mload\n        /* \"contracts/AmeComponents/VibeProfiles/VibeProfile.sol\":3164:3171  handles */\n      dup7\n        /* \"contracts/AmeComponents/VibeProfiles/VibeProfile.sol\":3172:3173  i */\n      dup4\n        /* \"contracts/AmeComponents/VibeProfiles/VibeProfile.sol\":3164:3174  handles[i] */\n      dup2\n      mload\n      dup2\n      lt\n      tag_179\n      jumpi\n      tag_180\n      tag_70\n      jump\t// in\n    tag_180:\n    tag_179:\n      0x20\n      mul\n      0x20\n      add\n      add\n        /* \"contracts/AmeComponents/VibeProfiles/VibeProfile.sol\":3164:3190  handles[i]=userInfo.handle */\n      dup2\n      swap1\n      mstore\n      pop\n        /* \"contracts/AmeComponents/VibeProfiles/VibeProfile.sol\":3222:3230  userInfo */\n      dup1\n        /* \"contracts/AmeComponents/VibeProfiles/VibeProfile.sol\":3222:3239  userInfo.nickname */\n      0x20\n      add\n      mload\n        /* \"contracts/AmeComponents/VibeProfiles/VibeProfile.sol\":3208:3218  nincknames */\n      dup6\n        /* \"contracts/AmeComponents/VibeProfiles/VibeProfile.sol\":3219:3220  i */\n      dup4\n        /* \"contracts/AmeComponents/VibeProfiles/VibeProfile.sol\":3208:3221  nincknames[i] */\n      dup2\n      mload\n      dup2\n      lt\n      tag_181\n      jumpi\n      tag_182\n      tag_70\n      jump\t// in\n    tag_182:\n    tag_181:\n      0x20\n      mul\n      0x20\n      add\n      add\n        /* \"contracts/AmeComponents/VibeProfiles/VibeProfile.sol\":3208:3239  nincknames[i]=userInfo.nickname */\n      dup2\n      swap1\n      mstore\n      pop\n        /* \"contracts/AmeComponents/VibeProfiles/VibeProfile.sol\":3268:3276  userInfo */\n      dup1\n        /* \"contracts/AmeComponents/VibeProfiles/VibeProfile.sol\":3268:3283  userInfo.avatar */\n      0x40\n      add\n      mload\n        /* \"contracts/AmeComponents/VibeProfiles/VibeProfile.sol\":3257:3264  avatars */\n      dup5\n        /* \"contracts/AmeComponents/VibeProfiles/VibeProfile.sol\":3265:3266  i */\n      dup4\n        /* \"contracts/AmeComponents/VibeProfiles/VibeProfile.sol\":3257:3267  avatars[i] */\n      dup2\n      mload\n      dup2\n      lt\n      tag_183\n      jumpi\n      tag_184\n      tag_70\n      jump\t// in\n    tag_184:\n    tag_183:\n      0x20\n      mul\n      0x20\n      add\n      add\n        /* \"contracts/AmeComponents/VibeProfiles/VibeProfile.sol\":3257:3283  avatars[i]=userInfo.avatar */\n      dup2\n      swap1\n      mstore\n      pop\n        /* \"contracts/AmeComponents/VibeProfiles/VibeProfile.sol\":3313:3321  userInfo */\n      dup1\n        /* \"contracts/AmeComponents/VibeProfiles/VibeProfile.sol\":3313:3329  userInfo.profile */\n      0x60\n      add\n      mload\n        /* \"contracts/AmeComponents/VibeProfiles/VibeProfile.sol\":3301:3309  profiles */\n      dup4\n        /* \"contracts/AmeComponents/VibeProfiles/VibeProfile.sol\":3310:3311  i */\n      dup4\n        /* \"contracts/AmeComponents/VibeProfiles/VibeProfile.sol\":3301:3312  profiles[i] */\n      dup2\n      mload\n      dup2\n      lt\n      tag_185\n      jumpi\n      tag_186\n      tag_70\n      jump\t// in\n    tag_186:\n    tag_185:\n      0x20\n      mul\n      0x20\n      add\n      add\n        /* \"contracts/AmeComponents/VibeProfiles/VibeProfile.sol\":3301:3329  profiles[i]=userInfo.profile */\n      dup2\n      swap1\n      mstore\n      pop\n        /* \"contracts/AmeComponents/VibeProfiles/VibeProfile.sol\":3078:3344  {... */\n      pop\n        /* \"contracts/AmeComponents/VibeProfiles/VibeProfile.sol\":3074:3077  i++ */\n      dup1\n      dup1\n      0x01\n      add\n      swap2\n      pop\n      pop\n        /* \"contracts/AmeComponents/VibeProfiles/VibeProfile.sol\":3043:3344  for(uint256 i=0;i<users.length;i++){... */\n      jump(tag_153)\n    tag_154:\n      pop\n        /* \"contracts/AmeComponents/VibeProfiles/VibeProfile.sol\":3376:3383  handles */\n      dup4\n        /* \"contracts/AmeComponents/VibeProfiles/VibeProfile.sol\":3384:3394  nincknames */\n      dup4\n        /* \"contracts/AmeComponents/VibeProfiles/VibeProfile.sol\":3395:3402  avatars */\n      dup4\n        /* \"contracts/AmeComponents/VibeProfiles/VibeProfile.sol\":3403:3411  profiles */\n      dup4\n        /* \"contracts/AmeComponents/VibeProfiles/VibeProfile.sol\":3365:3412  abi.encode(handles,nincknames,avatars,profiles) */\n      add(0x20, mload(0x40))\n      tag_187\n      swap5\n      swap4\n      swap3\n      swap2\n      swap1\n      tag_188\n      jump\t// in\n    tag_187:\n      mload(0x40)\n      0x20\n      dup2\n      dup4\n      sub\n      sub\n      dup2\n      mstore\n      swap1\n      0x40\n      mstore\n        /* \"contracts/AmeComponents/VibeProfiles/VibeProfile.sol\":3358:3412  return abi.encode(handles,nincknames,avatars,profiles) */\n      swap6\n      pop\n      pop\n      pop\n      pop\n      pop\n      pop\n      jump(tag_131)\n        /* \"contracts/AmeComponents/VibeProfiles/VibeProfile.sol\":2619:4553  if (compareStrings(_methodName, \"getUserInfoByAddresses\")) {... */\n    tag_134:\n        /* \"contracts/AmeComponents/VibeProfiles/VibeProfile.sol\":3445:3496  compareStrings(_methodName, \"getUserInfoByHandles\") */\n      tag_190\n        /* \"contracts/AmeComponents/VibeProfiles/VibeProfile.sol\":3460:3471  _methodName */\n      dup4\n        /* \"contracts/AmeComponents/VibeProfiles/VibeProfile.sol\":3445:3496  compareStrings(_methodName, \"getUserInfoByHandles\") */\n      mload(0x40)\n      dup1\n      0x40\n      add\n      0x40\n      mstore\n      dup1\n      0x14\n      dup2\n      mstore\n      0x20\n      add\n      0x67657455736572496e666f427948616e646c6573000000000000000000000000\n      dup2\n      mstore\n      pop\n        /* \"contracts/AmeComponents/VibeProfiles/VibeProfile.sol\":3445:3459  compareStrings */\n      tag_133\n        /* \"contracts/AmeComponents/VibeProfiles/VibeProfile.sol\":3445:3496  compareStrings(_methodName, \"getUserInfoByHandles\") */\n      jump\t// in\n    tag_190:\n        /* \"contracts/AmeComponents/VibeProfiles/VibeProfile.sol\":3441:4553  if (compareStrings(_methodName, \"getUserInfoByHandles\")) {... */\n      iszero\n      tag_191\n      jumpi\n        /* \"contracts/AmeComponents/VibeProfiles/VibeProfile.sol\":3514:3538  string[] memory _handles */\n      0x00\n        /* \"contracts/AmeComponents/VibeProfiles/VibeProfile.sol\":3553:3563  _methodReq */\n      dup3\n        /* \"contracts/AmeComponents/VibeProfiles/VibeProfile.sol\":3542:3576  abi.decode(_methodReq, (string[])) */\n      dup1\n      0x20\n      add\n      swap1\n      mload\n      dup2\n      add\n      swap1\n      tag_192\n      swap2\n      swap1\n      tag_193\n      jump\t// in\n    tag_192:\n        /* \"contracts/AmeComponents/VibeProfiles/VibeProfile.sol\":3513:3576  (string[] memory _handles) = abi.decode(_methodReq, (string[])) */\n      swap1\n      pop\n        /* \"contracts/AmeComponents/VibeProfiles/VibeProfile.sol\":3603:3625  address[] memory users */\n      0x00\n        /* \"contracts/AmeComponents/VibeProfiles/VibeProfile.sol\":3640:3648  _handles */\n      dup2\n        /* \"contracts/AmeComponents/VibeProfiles/VibeProfile.sol\":3640:3655  _handles.length */\n      mload\n        /* \"contracts/AmeComponents/VibeProfiles/VibeProfile.sol\":3626:3656  new address[](_handles.length) */\n      0xffffffffffffffff\n      dup2\n      gt\n      iszero\n      tag_194\n      jumpi\n      tag_195\n      tag_66\n      jump\t// in\n    tag_195:\n    tag_194:\n      mload(0x40)\n      swap1\n      dup1\n      dup3\n      mstore\n      dup1\n      0x20\n      mul\n      0x20\n      add\n      dup3\n      add\n      0x40\n      mstore\n      dup1\n      iszero\n      tag_196\n      jumpi\n      dup2\n      0x20\n      add\n      0x20\n      dup3\n      mul\n      dup1\n      calldatasize\n      dup4\n      calldatacopy\n      dup1\n      dup3\n      add\n      swap2\n      pop\n      pop\n      swap1\n      pop\n    tag_196:\n      pop\n        /* \"contracts/AmeComponents/VibeProfiles/VibeProfile.sol\":3603:3656  address[] memory users=new address[](_handles.length) */\n      swap1\n      pop\n        /* \"contracts/AmeComponents/VibeProfiles/VibeProfile.sol\":3670:3696  string[] memory nincknames */\n      0x00\n        /* \"contracts/AmeComponents/VibeProfiles/VibeProfile.sol\":3710:3718  _handles */\n      dup3\n        /* \"contracts/AmeComponents/VibeProfiles/VibeProfile.sol\":3710:3725  _handles.length */\n      mload\n        /* \"contracts/AmeComponents/VibeProfiles/VibeProfile.sol\":3697:3726  new string[](_handles.length) */\n      0xffffffffffffffff\n      dup2\n      gt\n      iszero\n      tag_197\n      jumpi\n      tag_198\n      tag_66\n      jump\t// in\n    tag_198:\n    tag_197:\n      mload(0x40)\n      swap1\n      dup1\n      dup3\n      mstore\n      dup1\n      0x20\n      mul\n      0x20\n      add\n      dup3\n      add\n      0x40\n      mstore\n      dup1\n      iszero\n      tag_199\n      jumpi\n      dup2\n      0x20\n      add\n    tag_200:\n      0x60\n      dup2\n      mstore\n      0x20\n      add\n      swap1\n      0x01\n      swap1\n      sub\n      swap1\n      dup2\n      tag_200\n      jumpi\n      swap1\n      pop\n    tag_199:\n      pop\n        /* \"contracts/AmeComponents/VibeProfiles/VibeProfile.sol\":3670:3726  string[] memory nincknames=new string[](_handles.length) */\n      swap1\n      pop\n        /* \"contracts/AmeComponents/VibeProfiles/VibeProfile.sol\":3740:3763  string[] memory avatars */\n      0x00\n        /* \"contracts/AmeComponents/VibeProfiles/VibeProfile.sol\":3777:3785  _handles */\n      dup4\n        /* \"contracts/AmeComponents/VibeProfiles/VibeProfile.sol\":3777:3792  _handles.length */\n      mload\n        /* \"contracts/AmeComponents/VibeProfiles/VibeProfile.sol\":3764:3793  new string[](_handles.length) */\n      0xffffffffffffffff\n      dup2\n      gt\n      iszero\n      tag_201\n      jumpi\n      tag_202\n      tag_66\n      jump\t// in\n    tag_202:\n    tag_201:\n      mload(0x40)\n      swap1\n      dup1\n      dup3\n      mstore\n      dup1\n      0x20\n      mul\n      0x20\n      add\n      dup3\n      add\n      0x40\n      mstore\n      dup1\n      iszero\n      tag_203\n      jumpi\n      dup2\n      0x20\n      add\n    tag_204:\n      0x60\n      dup2\n      mstore\n      0x20\n      add\n      swap1\n      0x01\n      swap1\n      sub\n      swap1\n      dup2\n      tag_204\n      jumpi\n      swap1\n      pop\n    tag_203:\n      pop\n        /* \"contracts/AmeComponents/VibeProfiles/VibeProfile.sol\":3740:3793  string[] memory avatars=new string[](_handles.length) */\n      swap1\n      pop\n        /* \"contracts/AmeComponents/VibeProfiles/VibeProfile.sol\":3807:3831  string[] memory profiles */\n      0x00\n        /* \"contracts/AmeComponents/VibeProfiles/VibeProfile.sol\":3845:3853  _handles */\n      dup5\n        /* \"contracts/AmeComponents/VibeProfiles/VibeProfile.sol\":3845:3860  _handles.length */\n      mload\n        /* \"contracts/AmeComponents/VibeProfiles/VibeProfile.sol\":3832:3861  new string[](_handles.length) */\n      0xffffffffffffffff\n      dup2\n      gt\n      iszero\n      tag_205\n      jumpi\n      tag_206\n      tag_66\n      jump\t// in\n    tag_206:\n    tag_205:\n      mload(0x40)\n      swap1\n      dup1\n      dup3\n      mstore\n      dup1\n      0x20\n      mul\n      0x20\n      add\n      dup3\n      add\n      0x40\n      mstore\n      dup1\n      iszero\n      tag_207\n      jumpi\n      dup2\n      0x20\n      add\n    tag_208:\n      0x60\n      dup2\n      mstore\n      0x20\n      add\n      swap1\n      0x01\n      swap1\n      sub\n      swap1\n      dup2\n      tag_208\n      jumpi\n      swap1\n      pop\n    tag_207:\n      pop\n        /* \"contracts/AmeComponents/VibeProfiles/VibeProfile.sol\":3807:3861  string[] memory profiles=new string[](_handles.length) */\n      swap1\n      pop\n        /* \"contracts/AmeComponents/VibeProfiles/VibeProfile.sol\":3880:3889  uint256 i */\n      0x00\n        /* \"contracts/AmeComponents/VibeProfiles/VibeProfile.sol\":3876:4211  for(uint256 i=0;i<_handles.length;i++){... */\n    tag_209:\n        /* \"contracts/AmeComponents/VibeProfiles/VibeProfile.sol\":3894:3902  _handles */\n      dup6\n        /* \"contracts/AmeComponents/VibeProfiles/VibeProfile.sol\":3894:3909  _handles.length */\n      mload\n        /* \"contracts/AmeComponents/VibeProfiles/VibeProfile.sol\":3892:3893  i */\n      dup2\n        /* \"contracts/AmeComponents/VibeProfiles/VibeProfile.sol\":3892:3909  i<_handles.length */\n      lt\n        /* \"contracts/AmeComponents/VibeProfiles/VibeProfile.sol\":3876:4211  for(uint256 i=0;i<_handles.length;i++){... */\n      iszero\n      tag_210\n      jumpi\n        /* \"contracts/AmeComponents/VibeProfiles/VibeProfile.sol\":3932:3956  UserInfo memory userInfo */\n      0x00\n        /* \"contracts/AmeComponents/VibeProfiles/VibeProfile.sol\":3957:3972  addressUserInfo */\n      0x03\n        /* \"contracts/AmeComponents/VibeProfiles/VibeProfile.sol\":3957:4002  addressUserInfo[handleAddresses[_handles[i]]] */\n      0x00\n        /* \"contracts/AmeComponents/VibeProfiles/VibeProfile.sol\":3973:3988  handleAddresses */\n      0x04\n        /* \"contracts/AmeComponents/VibeProfiles/VibeProfile.sol\":3989:3997  _handles */\n      dup10\n        /* \"contracts/AmeComponents/VibeProfiles/VibeProfile.sol\":3998:3999  i */\n      dup6\n        /* \"contracts/AmeComponents/VibeProfiles/VibeProfile.sol\":3989:4000  _handles[i] */\n      dup2\n      mload\n      dup2\n      lt\n      tag_212\n      jumpi\n      tag_213\n      tag_70\n      jump\t// in\n    tag_213:\n    tag_212:\n      0x20\n      mul\n      0x20\n      add\n      add\n      mload\n        /* \"contracts/AmeComponents/VibeProfiles/VibeProfile.sol\":3973:4001  handleAddresses[_handles[i]] */\n      mload(0x40)\n      tag_214\n      swap2\n      swap1\n      tag_96\n      jump\t// in\n    tag_214:\n      swap1\n      dup2\n      mstore\n      0x20\n      add\n      mload(0x40)\n      dup1\n      swap2\n      sub\n      swap1\n      keccak256\n      0x00\n      swap1\n      sload\n      swap1\n      0x0100\n      exp\n      swap1\n      div\n      0xffffffffffffffffffffffffffffffffffffffff\n      and\n        /* \"contracts/AmeComponents/VibeProfiles/VibeProfile.sol\":3957:4002  addressUserInfo[handleAddresses[_handles[i]]] */\n      0xffffffffffffffffffffffffffffffffffffffff\n      and\n      0xffffffffffffffffffffffffffffffffffffffff\n      and\n      dup2\n      mstore\n      0x20\n      add\n      swap1\n      dup2\n      mstore\n      0x20\n      add\n      0x00\n      keccak256\n        /* \"contracts/AmeComponents/VibeProfiles/VibeProfile.sol\":3932:4002  UserInfo memory userInfo=addressUserInfo[handleAddresses[_handles[i]]] */\n      mload(0x40)\n      dup1\n      0x80\n      add\n      0x40\n      mstore\n      swap1\n      dup2\n      0x00\n      dup3\n      add\n      dup1\n      sload\n      tag_215\n      swap1\n      tag_159\n      jump\t// in\n    tag_215:\n      dup1\n      0x1f\n      add\n      0x20\n      dup1\n      swap2\n      div\n      mul\n      0x20\n      add\n      mload(0x40)\n      swap1\n      dup2\n      add\n      0x40\n      mstore\n      dup1\n      swap3\n      swap2\n      swap1\n      dup2\n      dup2\n      mstore\n      0x20\n      add\n      dup3\n      dup1\n      sload\n      tag_216\n      swap1\n      tag_159\n      jump\t// in\n    tag_216:\n      dup1\n      iszero\n      tag_217\n      jumpi\n      dup1\n      0x1f\n      lt\n      tag_218\n      jumpi\n      0x0100\n      dup1\n      dup4\n      sload\n      div\n      mul\n      dup4\n      mstore\n      swap2\n      0x20\n      add\n      swap2\n      jump(tag_217)\n    tag_218:\n      dup3\n      add\n      swap2\n      swap1\n      0x00\n      mstore\n      keccak256(0x00, 0x20)\n      swap1\n    tag_219:\n      dup2\n      sload\n      dup2\n      mstore\n      swap1\n      0x01\n      add\n      swap1\n      0x20\n      add\n      dup1\n      dup4\n      gt\n      tag_219\n      jumpi\n      dup3\n      swap1\n      sub\n      0x1f\n      and\n      dup3\n      add\n      swap2\n    tag_217:\n      pop\n      pop\n      pop\n      pop\n      pop\n      dup2\n      mstore\n      0x20\n      add\n      0x01\n      dup3\n      add\n      dup1\n      sload\n      tag_220\n      swap1\n      tag_159\n      jump\t// in\n    tag_220:\n      dup1\n      0x1f\n      add\n      0x20\n      dup1\n      swap2\n      div\n      mul\n      0x20\n      add\n      mload(0x40)\n      swap1\n      dup2\n      add\n      0x40\n      mstore\n      dup1\n      swap3\n      swap2\n      swap1\n      dup2\n      dup2\n      mstore\n      0x20\n      add\n      dup3\n      dup1\n      sload\n      tag_221\n      swap1\n      tag_159\n      jump\t// in\n    tag_221:\n      dup1\n      iszero\n      tag_222\n      jumpi\n      dup1\n      0x1f\n      lt\n      tag_223\n      jumpi\n      0x0100\n      dup1\n      dup4\n      sload\n      div\n      mul\n      dup4\n      mstore\n      swap2\n      0x20\n      add\n      swap2\n      jump(tag_222)\n    tag_223:\n      dup3\n      add\n      swap2\n      swap1\n      0x00\n      mstore\n      keccak256(0x00, 0x20)\n      swap1\n    tag_224:\n      dup2\n      sload\n      dup2\n      mstore\n      swap1\n      0x01\n      add\n      swap1\n      0x20\n      add\n      dup1\n      dup4\n      gt\n      tag_224\n      jumpi\n      dup3\n      swap1\n      sub\n      0x1f\n      and\n      dup3\n      add\n      swap2\n    tag_222:\n      pop\n      pop\n      pop\n      pop\n      pop\n      dup2\n      mstore\n      0x20\n      add\n      0x02\n      dup3\n      add\n      dup1\n      sload\n      tag_225\n      swap1\n      tag_159\n      jump\t// in\n    tag_225:\n      dup1\n      0x1f\n      add\n      0x20\n      dup1\n      swap2\n      div\n      mul\n      0x20\n      add\n      mload(0x40)\n      swap1\n      dup2\n      add\n      0x40\n      mstore\n      dup1\n      swap3\n      swap2\n      swap1\n      dup2\n      dup2\n      mstore\n      0x20\n      add\n      dup3\n      dup1\n      sload\n      tag_226\n      swap1\n      tag_159\n      jump\t// in\n    tag_226:\n      dup1\n      iszero\n      tag_227\n      jumpi\n      dup1\n      0x1f\n      lt\n      tag_228\n      jumpi\n      0x0100\n      dup1\n      dup4\n      sload\n      div\n      mul\n      dup4\n      mstore\n      swap2\n      0x20\n      add\n      swap2\n      jump(tag_227)\n    tag_228:\n      dup3\n      add\n      swap2\n      swap1\n      0x00\n      mstore\n      keccak256(0x00, 0x20)\n      swap1\n    tag_229:\n      dup2\n      sload\n      dup2\n      mstore\n      swap1\n      0x01\n      add\n      swap1\n      0x20\n      add\n      dup1\n      dup4\n      gt\n      tag_229\n      jumpi\n      dup3\n      swap1\n      sub\n      0x1f\n      and\n      dup3\n      add\n      swap2\n    tag_227:\n      pop\n      pop\n      pop\n      pop\n      pop\n      dup2\n      mstore\n      0x20\n      add\n      0x03\n      dup3\n      add\n      dup1\n      sload\n      tag_230\n      swap1\n      tag_159\n      jump\t// in\n    tag_230:\n      dup1\n      0x1f\n      add\n      0x20\n      dup1\n      swap2\n      div\n      mul\n      0x20\n      add\n      mload(0x40)\n      swap1\n      dup2\n      add\n      0x40\n      mstore\n      dup1\n      swap3\n      swap2\n      swap1\n      dup2\n      dup2\n      mstore\n      0x20\n      add\n      dup3\n      dup1\n      sload\n      tag_231\n      swap1\n      tag_159\n      jump\t// in\n    tag_231:\n      dup1\n      iszero\n      tag_232\n      jumpi\n      dup1\n      0x1f\n      lt\n      tag_233\n      jumpi\n      0x0100\n      dup1\n      dup4\n      sload\n      div\n      mul\n      dup4\n      mstore\n      swap2\n      0x20\n      add\n      swap2\n      jump(tag_232)\n    tag_233:\n      dup3\n      add\n      swap2\n      swap1\n      0x00\n      mstore\n      keccak256(0x00, 0x20)\n      swap1\n    tag_234:\n      dup2\n      sload\n      dup2\n      mstore\n      swap1\n      0x01\n      add\n      swap1\n      0x20\n      add\n      dup1\n      dup4\n      gt\n      tag_234\n      jumpi\n      dup3\n      swap1\n      sub\n      0x1f\n      and\n      dup3\n      add\n      swap2\n    tag_232:\n      pop\n      pop\n      pop\n      pop\n      pop\n      dup2\n      mstore\n      pop\n      pop\n      swap1\n      pop\n        /* \"contracts/AmeComponents/VibeProfiles/VibeProfile.sol\":4029:4044  handleAddresses */\n      0x04\n        /* \"contracts/AmeComponents/VibeProfiles/VibeProfile.sol\":4045:4053  _handles */\n      dup8\n        /* \"contracts/AmeComponents/VibeProfiles/VibeProfile.sol\":4054:4055  i */\n      dup4\n        /* \"contracts/AmeComponents/VibeProfiles/VibeProfile.sol\":4045:4056  _handles[i] */\n      dup2\n      mload\n      dup2\n      lt\n      tag_235\n      jumpi\n      tag_236\n      tag_70\n      jump\t// in\n    tag_236:\n    tag_235:\n      0x20\n      mul\n      0x20\n      add\n      add\n      mload\n        /* \"contracts/AmeComponents/VibeProfiles/VibeProfile.sol\":4029:4057  handleAddresses[_handles[i]] */\n      mload(0x40)\n      tag_237\n      swap2\n      swap1\n      tag_96\n      jump\t// in\n    tag_237:\n      swap1\n      dup2\n      mstore\n      0x20\n      add\n      mload(0x40)\n      dup1\n      swap2\n      sub\n      swap1\n      keccak256\n      0x00\n      swap1\n      sload\n      swap1\n      0x0100\n      exp\n      swap1\n      div\n      0xffffffffffffffffffffffffffffffffffffffff\n      and\n        /* \"contracts/AmeComponents/VibeProfiles/VibeProfile.sol\":4020:4025  users */\n      dup7\n        /* \"contracts/AmeComponents/VibeProfiles/VibeProfile.sol\":4026:4027  i */\n      dup4\n        /* \"contracts/AmeComponents/VibeProfiles/VibeProfile.sol\":4020:4028  users[i] */\n      dup2\n      mload\n      dup2\n      lt\n      tag_238\n      jumpi\n      tag_239\n      tag_70\n      jump\t// in\n    tag_239:\n    tag_238:\n      0x20\n      mul\n      0x20\n      add\n      add\n        /* \"contracts/AmeComponents/VibeProfiles/VibeProfile.sol\":4020:4057  users[i]=handleAddresses[_handles[i]] */\n      swap1\n      0xffffffffffffffffffffffffffffffffffffffff\n      and\n      swap1\n      dup2\n      0xffffffffffffffffffffffffffffffffffffffff\n      and\n      dup2\n      mstore\n      pop\n      pop\n        /* \"contracts/AmeComponents/VibeProfiles/VibeProfile.sol\":4089:4097  userInfo */\n      dup1\n        /* \"contracts/AmeComponents/VibeProfiles/VibeProfile.sol\":4089:4106  userInfo.nickname */\n      0x20\n      add\n      mload\n        /* \"contracts/AmeComponents/VibeProfiles/VibeProfile.sol\":4075:4085  nincknames */\n      dup6\n        /* \"contracts/AmeComponents/VibeProfiles/VibeProfile.sol\":4086:4087  i */\n      dup4\n        /* \"contracts/AmeComponents/VibeProfiles/VibeProfile.sol\":4075:4088  nincknames[i] */\n      dup2\n      mload\n      dup2\n      lt\n      tag_240\n      jumpi\n      tag_241\n      tag_70\n      jump\t// in\n    tag_241:\n    tag_240:\n      0x20\n      mul\n      0x20\n      add\n      add\n        /* \"contracts/AmeComponents/VibeProfiles/VibeProfile.sol\":4075:4106  nincknames[i]=userInfo.nickname */\n      dup2\n      swap1\n      mstore\n      pop\n        /* \"contracts/AmeComponents/VibeProfiles/VibeProfile.sol\":4135:4143  userInfo */\n      dup1\n        /* \"contracts/AmeComponents/VibeProfiles/VibeProfile.sol\":4135:4150  userInfo.avatar */\n      0x40\n      add\n      mload\n        /* \"contracts/AmeComponents/VibeProfiles/VibeProfile.sol\":4124:4131  avatars */\n      dup5\n        /* \"contracts/AmeComponents/VibeProfiles/VibeProfile.sol\":4132:4133  i */\n      dup4\n        /* \"contracts/AmeComponents/VibeProfiles/VibeProfile.sol\":4124:4134  avatars[i] */\n      dup2\n      mload\n      dup2\n      lt\n      tag_242\n      jumpi\n      tag_243\n      tag_70\n      jump\t// in\n    tag_243:\n    tag_242:\n      0x20\n      mul\n      0x20\n      add\n      add\n        /* \"contracts/AmeComponents/VibeProfiles/VibeProfile.sol\":4124:4150  avatars[i]=userInfo.avatar */\n      dup2\n      swap1\n      mstore\n      pop\n        /* \"contracts/AmeComponents/VibeProfiles/VibeProfile.sol\":4180:4188  userInfo */\n      dup1\n        /* \"contracts/AmeComponents/VibeProfiles/VibeProfile.sol\":4180:4196  userInfo.profile */\n      0x60\n      add\n      mload\n        /* \"contracts/AmeComponents/VibeProfiles/VibeProfile.sol\":4168:4176  profiles */\n      dup4\n        /* \"contracts/AmeComponents/VibeProfiles/VibeProfile.sol\":4177:4178  i */\n      dup4\n        /* \"contracts/AmeComponents/VibeProfiles/VibeProfile.sol\":4168:4179  profiles[i] */\n      dup2\n      mload\n      dup2\n      lt\n      tag_244\n      jumpi\n      tag_245\n      tag_70\n      jump\t// in\n    tag_245:\n    tag_244:\n      0x20\n      mul\n      0x20\n      add\n      add\n        /* \"contracts/AmeComponents/VibeProfiles/VibeProfile.sol\":4168:4196  profiles[i]=userInfo.profile */\n      dup2\n      swap1\n      mstore\n      pop\n        /* \"contracts/AmeComponents/VibeProfiles/VibeProfile.sol\":3914:4211  {... */\n      pop\n        /* \"contracts/AmeComponents/VibeProfiles/VibeProfile.sol\":3910:3913  i++ */\n      dup1\n      dup1\n      0x01\n      add\n      swap2\n      pop\n      pop\n        /* \"contracts/AmeComponents/VibeProfiles/VibeProfile.sol\":3876:4211  for(uint256 i=0;i<_handles.length;i++){... */\n      jump(tag_209)\n    tag_210:\n      pop\n        /* \"contracts/AmeComponents/VibeProfiles/VibeProfile.sol\":4243:4248  users */\n      dup4\n        /* \"contracts/AmeComponents/VibeProfiles/VibeProfile.sol\":4249:4259  nincknames */\n      dup4\n        /* \"contracts/AmeComponents/VibeProfiles/VibeProfile.sol\":4260:4267  avatars */\n      dup4\n        /* \"contracts/AmeComponents/VibeProfiles/VibeProfile.sol\":4268:4276  profiles */\n      dup4\n        /* \"contracts/AmeComponents/VibeProfiles/VibeProfile.sol\":4232:4277  abi.encode(users,nincknames,avatars,profiles) */\n      add(0x20, mload(0x40))\n      tag_246\n      swap5\n      swap4\n      swap3\n      swap2\n      swap1\n      tag_247\n      jump\t// in\n    tag_246:\n      mload(0x40)\n      0x20\n      dup2\n      dup4\n      sub\n      sub\n      dup2\n      mstore\n      swap1\n      0x40\n      mstore\n        /* \"contracts/AmeComponents/VibeProfiles/VibeProfile.sol\":4225:4277  return abi.encode(users,nincknames,avatars,profiles) */\n      swap6\n      pop\n      pop\n      pop\n      pop\n      pop\n      pop\n      jump(tag_131)\n        /* \"contracts/AmeComponents/VibeProfiles/VibeProfile.sol\":3441:4553  if (compareStrings(_methodName, \"getUserInfoByHandles\")) {... */\n    tag_191:\n        /* \"contracts/AmeComponents/VibeProfiles/VibeProfile.sol\":4309:4358  compareStrings(_methodName, \"getAddressByHandle\") */\n      tag_249\n        /* \"contracts/AmeComponents/VibeProfiles/VibeProfile.sol\":4324:4335  _methodName */\n      dup4\n        /* \"contracts/AmeComponents/VibeProfiles/VibeProfile.sol\":4309:4358  compareStrings(_methodName, \"getAddressByHandle\") */\n      mload(0x40)\n      dup1\n      0x40\n      add\n      0x40\n      mstore\n      dup1\n      0x12\n      dup2\n      mstore\n      0x20\n      add\n      0x67657441646472657373427948616e646c650000000000000000000000000000\n      dup2\n      mstore\n      pop\n        /* \"contracts/AmeComponents/VibeProfiles/VibeProfile.sol\":4309:4323  compareStrings */\n      tag_133\n        /* \"contracts/AmeComponents/VibeProfiles/VibeProfile.sol\":4309:4358  compareStrings(_methodName, \"getAddressByHandle\") */\n      jump\t// in\n    tag_249:\n        /* \"contracts/AmeComponents/VibeProfiles/VibeProfile.sol\":4306:4553  if(compareStrings(_methodName, \"getAddressByHandle\")){... */\n      iszero\n      tag_250\n      jumpi\n        /* \"contracts/AmeComponents/VibeProfiles/VibeProfile.sol\":4375:4396  string memory _handle */\n      0x00\n        /* \"contracts/AmeComponents/VibeProfiles/VibeProfile.sol\":4411:4421  _methodReq */\n      dup3\n        /* \"contracts/AmeComponents/VibeProfiles/VibeProfile.sol\":4400:4432  abi.decode(_methodReq, (string)) */\n      dup1\n      0x20\n      add\n      swap1\n      mload\n      dup2\n      add\n      swap1\n      tag_251\n      swap2\n      swap1\n      tag_252\n      jump\t// in\n    tag_251:\n        /* \"contracts/AmeComponents/VibeProfiles/VibeProfile.sol\":4374:4432  (string memory _handle) = abi.decode(_methodReq, (string)) */\n      swap1\n      pop\n        /* \"contracts/AmeComponents/VibeProfiles/VibeProfile.sol\":4464:4479  handleAddresses */\n      0x04\n        /* \"contracts/AmeComponents/VibeProfiles/VibeProfile.sol\":4480:4487  _handle */\n      dup2\n        /* \"contracts/AmeComponents/VibeProfiles/VibeProfile.sol\":4464:4488  handleAddresses[_handle] */\n      mload(0x40)\n      tag_253\n      swap2\n      swap1\n      tag_96\n      jump\t// in\n    tag_253:\n      swap1\n      dup2\n      mstore\n      0x20\n      add\n      mload(0x40)\n      dup1\n      swap2\n      sub\n      swap1\n      keccak256\n      0x00\n      swap1\n      sload\n      swap1\n      0x0100\n      exp\n      swap1\n      div\n      0xffffffffffffffffffffffffffffffffffffffff\n      and\n        /* \"contracts/AmeComponents/VibeProfiles/VibeProfile.sol\":4453:4489  abi.encode(handleAddresses[_handle]) */\n      add(0x20, mload(0x40))\n      tag_254\n      swap2\n      swap1\n      tag_255\n      jump\t// in\n    tag_254:\n      mload(0x40)\n      0x20\n      dup2\n      dup4\n      sub\n      sub\n      dup2\n      mstore\n      swap1\n      0x40\n      mstore\n        /* \"contracts/AmeComponents/VibeProfiles/VibeProfile.sol\":4446:4489  return abi.encode(handleAddresses[_handle]) */\n      swap2\n      pop\n      pop\n      jump(tag_131)\n        /* \"contracts/AmeComponents/VibeProfiles/VibeProfile.sol\":4306:4553  if(compareStrings(_methodName, \"getAddressByHandle\")){... */\n    tag_250:\n        /* \"contracts/AmeComponents/VibeProfiles/VibeProfile.sol\":4528:4542  abi.encode(\"\") */\n      add(0x20, mload(0x40))\n      tag_257\n      swap1\n      tag_258\n      jump\t// in\n    tag_257:\n      mload(0x40)\n      0x20\n      dup2\n      dup4\n      sub\n      sub\n      dup2\n      mstore\n      swap1\n      0x40\n      mstore\n        /* \"contracts/AmeComponents/VibeProfiles/VibeProfile.sol\":4521:4542  return abi.encode(\"\") */\n      swap1\n      pop\n        /* \"contracts/AmeComponents/VibeProfiles/VibeProfile.sol\":2481:4559  function get(string memory _methodName, bytes memory _methodReq)... */\n    tag_131:\n      swap3\n      swap2\n      pop\n      pop\n      jump\t// out\n        /* \"contracts/AmeComponents/VibeProfiles/VibeProfile.sol\":4565:5669  function post(string memory _methodName, bytes memory _methodReq)... */\n    tag_45:\n        /* \"contracts/AmeComponents/VibeProfiles/VibeProfile.sol\":4679:4691  bytes memory */\n      0x60\n        /* \"contracts/AmeComponents/VibeProfiles/VibeProfile.sol\":4721:4762  compareStrings(_methodName, \"createUser\") */\n      tag_260\n        /* \"contracts/AmeComponents/VibeProfiles/VibeProfile.sol\":4736:4747  _methodName */\n      dup4\n        /* \"contracts/AmeComponents/VibeProfiles/VibeProfile.sol\":4721:4762  compareStrings(_methodName, \"createUser\") */\n      mload(0x40)\n      dup1\n      0x40\n      add\n      0x40\n      mstore\n      dup1\n      0x0a\n      dup2\n      mstore\n      0x20\n      add\n      0x6372656174655573657200000000000000000000000000000000000000000000\n      dup2\n      mstore\n      pop\n        /* \"contracts/AmeComponents/VibeProfiles/VibeProfile.sol\":4721:4735  compareStrings */\n      tag_133\n        /* \"contracts/AmeComponents/VibeProfiles/VibeProfile.sol\":4721:4762  compareStrings(_methodName, \"createUser\") */\n      jump\t// in\n    tag_260:\n        /* \"contracts/AmeComponents/VibeProfiles/VibeProfile.sol\":4717:5663  if (compareStrings(_methodName, \"createUser\")) {... */\n      iszero\n      tag_261\n      jumpi\n        /* \"contracts/AmeComponents/VibeProfiles/VibeProfile.sol\":4780:4801  string memory _handle */\n      0x00\n        /* \"contracts/AmeComponents/VibeProfiles/VibeProfile.sol\":4803:4826  string memory _nickname */\n      dup1\n        /* \"contracts/AmeComponents/VibeProfiles/VibeProfile.sol\":4828:4849  string memory _avatar */\n      0x00\n        /* \"contracts/AmeComponents/VibeProfiles/VibeProfile.sol\":4850:4872  string memory _profile */\n      dup1\n        /* \"contracts/AmeComponents/VibeProfiles/VibeProfile.sol\":4887:4897  _methodReq */\n      dup6\n        /* \"contracts/AmeComponents/VibeProfiles/VibeProfile.sol\":4876:4929  abi.decode(_methodReq, (string,string,string,string)) */\n      dup1\n      0x20\n      add\n      swap1\n      mload\n      dup2\n      add\n      swap1\n      tag_262\n      swap2\n      swap1\n      tag_263\n      jump\t// in\n    tag_262:\n        /* \"contracts/AmeComponents/VibeProfiles/VibeProfile.sol\":4779:4929  (string memory _handle, string memory _nickname, string memory _avatar,string memory _profile) = abi.decode(_methodReq, (string,string,string,string)) */\n      swap4\n      pop\n      swap4\n      pop\n      swap4\n      pop\n      swap4\n      pop\n        /* \"contracts/AmeComponents/VibeProfiles/VibeProfile.sol\":4952:4974  isValidString(_handle) */\n      tag_264\n        /* \"contracts/AmeComponents/VibeProfiles/VibeProfile.sol\":4966:4973  _handle */\n      dup5\n        /* \"contracts/AmeComponents/VibeProfiles/VibeProfile.sol\":4952:4965  isValidString */\n      tag_50\n        /* \"contracts/AmeComponents/VibeProfiles/VibeProfile.sol\":4952:4974  isValidString(_handle) */\n      jump\t// in\n    tag_264:\n        /* \"contracts/AmeComponents/VibeProfiles/VibeProfile.sol\":4944:4995  require(isValidString(_handle),\"handle is invalid\") */\n      tag_265\n      jumpi\n      mload(0x40)\n      0x08c379a000000000000000000000000000000000000000000000000000000000\n      dup2\n      mstore\n      0x04\n      add\n      tag_266\n      swap1\n      tag_267\n      jump\t// in\n    tag_266:\n      mload(0x40)\n      dup1\n      swap2\n      sub\n      swap1\n      revert\n    tag_265:\n        /* \"contracts/AmeComponents/VibeProfiles/VibeProfile.sol\":5022:5046  UserInfo memory userInfo */\n      0x00\n        /* \"contracts/AmeComponents/VibeProfiles/VibeProfile.sol\":5047:5062  addressUserInfo */\n      0x03\n        /* \"contracts/AmeComponents/VibeProfiles/VibeProfile.sol\":5047:5074  addressUserInfo[msg.sender] */\n      0x00\n        /* \"contracts/AmeComponents/VibeProfiles/VibeProfile.sol\":5063:5073  msg.sender */\n      caller\n        /* \"contracts/AmeComponents/VibeProfiles/VibeProfile.sol\":5047:5074  addressUserInfo[msg.sender] */\n      0xffffffffffffffffffffffffffffffffffffffff\n      and\n      0xffffffffffffffffffffffffffffffffffffffff\n      and\n      dup2\n      mstore\n      0x20\n      add\n      swap1\n      dup2\n      mstore\n      0x20\n      add\n      0x00\n      keccak256\n        /* \"contracts/AmeComponents/VibeProfiles/VibeProfile.sol\":5022:5074  UserInfo memory userInfo=addressUserInfo[msg.sender] */\n      mload(0x40)\n      dup1\n      0x80\n      add\n      0x40\n      mstore\n      swap1\n      dup2\n      0x00\n      dup3\n      add\n      dup1\n      sload\n      tag_268\n      swap1\n      tag_159\n      jump\t// in\n    tag_268:\n      dup1\n      0x1f\n      add\n      0x20\n      dup1\n      swap2\n      div\n      mul\n      0x20\n      add\n      mload(0x40)\n      swap1\n      dup2\n      add\n      0x40\n      mstore\n      dup1\n      swap3\n      swap2\n      swap1\n      dup2\n      dup2\n      mstore\n      0x20\n      add\n      dup3\n      dup1\n      sload\n      tag_269\n      swap1\n      tag_159\n      jump\t// in\n    tag_269:\n      dup1\n      iszero\n      tag_270\n      jumpi\n      dup1\n      0x1f\n      lt\n      tag_271\n      jumpi\n      0x0100\n      dup1\n      dup4\n      sload\n      div\n      mul\n      dup4\n      mstore\n      swap2\n      0x20\n      add\n      swap2\n      jump(tag_270)\n    tag_271:\n      dup3\n      add\n      swap2\n      swap1\n      0x00\n      mstore\n      keccak256(0x00, 0x20)\n      swap1\n    tag_272:\n      dup2\n      sload\n      dup2\n      mstore\n      swap1\n      0x01\n      add\n      swap1\n      0x20\n      add\n      dup1\n      dup4\n      gt\n      tag_272\n      jumpi\n      dup3\n      swap1\n      sub\n      0x1f\n      and\n      dup3\n      add\n      swap2\n    tag_270:\n      pop\n      pop\n      pop\n      pop\n      pop\n      dup2\n      mstore\n      0x20\n      add\n      0x01\n      dup3\n      add\n      dup1\n      sload\n      tag_273\n      swap1\n      tag_159\n      jump\t// in\n    tag_273:\n      dup1\n      0x1f\n      add\n      0x20\n      dup1\n      swap2\n      div\n      mul\n      0x20\n      add\n      mload(0x40)\n      swap1\n      dup2\n      add\n      0x40\n      mstore\n      dup1\n      swap3\n      swap2\n      swap1\n      dup2\n      dup2\n      mstore\n      0x20\n      add\n      dup3\n      dup1\n      sload\n      tag_274\n      swap1\n      tag_159\n      jump\t// in\n    tag_274:\n      dup1\n      iszero\n      tag_275\n      jumpi\n      dup1\n      0x1f\n      lt\n      tag_276\n      jumpi\n      0x0100\n      dup1\n      dup4\n      sload\n      div\n      mul\n      dup4\n      mstore\n      swap2\n      0x20\n      add\n      swap2\n      jump(tag_275)\n    tag_276:\n      dup3\n      add\n      swap2\n      swap1\n      0x00\n      mstore\n      keccak256(0x00, 0x20)\n      swap1\n    tag_277:\n      dup2\n      sload\n      dup2\n      mstore\n      swap1\n      0x01\n      add\n      swap1\n      0x20\n      add\n      dup1\n      dup4\n      gt\n      tag_277\n      jumpi\n      dup3\n      swap1\n      sub\n      0x1f\n      and\n      dup3\n      add\n      swap2\n    tag_275:\n      pop\n      pop\n      pop\n      pop\n      pop\n      dup2\n      mstore\n      0x20\n      add\n      0x02\n      dup3\n      add\n      dup1\n      sload\n      tag_278\n      swap1\n      tag_159\n      jump\t// in\n    tag_278:\n      dup1\n      0x1f\n      add\n      0x20\n      dup1\n      swap2\n      div\n      mul\n      0x20\n      add\n      mload(0x40)\n      swap1\n      dup2\n      add\n      0x40\n      mstore\n      dup1\n      swap3\n      swap2\n      swap1\n      dup2\n      dup2\n      mstore\n      0x20\n      add\n      dup3\n      dup1\n      sload\n      tag_279\n      swap1\n      tag_159\n      jump\t// in\n    tag_279:\n      dup1\n      iszero\n      tag_280\n      jumpi\n      dup1\n      0x1f\n      lt\n      tag_281\n      jumpi\n      0x0100\n      dup1\n      dup4\n      sload\n      div\n      mul\n      dup4\n      mstore\n      swap2\n      0x20\n      add\n      swap2\n      jump(tag_280)\n    tag_281:\n      dup3\n      add\n      swap2\n      swap1\n      0x00\n      mstore\n      keccak256(0x00, 0x20)\n      swap1\n    tag_282:\n      dup2\n      sload\n      dup2\n      mstore\n      swap1\n      0x01\n      add\n      swap1\n      0x20\n      add\n      dup1\n      dup4\n      gt\n      tag_282\n      jumpi\n      dup3\n      swap1\n      sub\n      0x1f\n      and\n      dup3\n      add\n      swap2\n    tag_280:\n      pop\n      pop\n      pop\n      pop\n      pop\n      dup2\n      mstore\n      0x20\n      add\n      0x03\n      dup3\n      add\n      dup1\n      sload\n      tag_283\n      swap1\n      tag_159\n      jump\t// in\n    tag_283:\n      dup1\n      0x1f\n      add\n      0x20\n      dup1\n      swap2\n      div\n      mul\n      0x20\n      add\n      mload(0x40)\n      swap1\n      dup2\n      add\n      0x40\n      mstore\n      dup1\n      swap3\n      swap2\n      swap1\n      dup2\n      dup2\n      mstore\n      0x20\n      add\n      dup3\n      dup1\n      sload\n      tag_284\n      swap1\n      tag_159\n      jump\t// in\n    tag_284:\n      dup1\n      iszero\n      tag_285\n      jumpi\n      dup1\n      0x1f\n      lt\n      tag_286\n      jumpi\n      0x0100\n      dup1\n      dup4\n      sload\n      div\n      mul\n      dup4\n      mstore\n      swap2\n      0x20\n      add\n      swap2\n      jump(tag_285)\n    tag_286:\n      dup3\n      add\n      swap2\n      swap1\n      0x00\n      mstore\n      keccak256(0x00, 0x20)\n      swap1\n    tag_287:\n      dup2\n      sload\n      dup2\n      mstore\n      swap1\n      0x01\n      add\n      swap1\n      0x20\n      add\n      dup1\n      dup4\n      gt\n      tag_287\n      jumpi\n      dup3\n      swap1\n      sub\n      0x1f\n      and\n      dup3\n      add\n      swap2\n    tag_285:\n      pop\n      pop\n      pop\n      pop\n      pop\n      dup2\n      mstore\n      pop\n      pop\n      swap1\n      pop\n        /* \"contracts/AmeComponents/VibeProfiles/VibeProfile.sol\":5131:5132  0 */\n      0x00\n        /* \"contracts/AmeComponents/VibeProfiles/VibeProfile.sol\":5097:5133  handleAddresses[_handle]==address(0) */\n      0xffffffffffffffffffffffffffffffffffffffff\n      and\n        /* \"contracts/AmeComponents/VibeProfiles/VibeProfile.sol\":5097:5112  handleAddresses */\n      0x04\n        /* \"contracts/AmeComponents/VibeProfiles/VibeProfile.sol\":5113:5120  _handle */\n      dup7\n        /* \"contracts/AmeComponents/VibeProfiles/VibeProfile.sol\":5097:5121  handleAddresses[_handle] */\n      mload(0x40)\n      tag_288\n      swap2\n      swap1\n      tag_96\n      jump\t// in\n    tag_288:\n      swap1\n      dup2\n      mstore\n      0x20\n      add\n      mload(0x40)\n      dup1\n      swap2\n      sub\n      swap1\n      keccak256\n      0x00\n      swap1\n      sload\n      swap1\n      0x0100\n      exp\n      swap1\n      div\n      0xffffffffffffffffffffffffffffffffffffffff\n      and\n        /* \"contracts/AmeComponents/VibeProfiles/VibeProfile.sol\":5097:5133  handleAddresses[_handle]==address(0) */\n      0xffffffffffffffffffffffffffffffffffffffff\n      and\n      eq\n        /* \"contracts/AmeComponents/VibeProfiles/VibeProfile.sol\":5089:5167  require(handleAddresses[_handle]==address(0),\"the handle has been registered\") */\n      tag_289\n      jumpi\n      mload(0x40)\n      0x08c379a000000000000000000000000000000000000000000000000000000000\n      dup2\n      mstore\n      0x04\n      add\n      tag_290\n      swap1\n      tag_291\n      jump\t// in\n    tag_290:\n      mload(0x40)\n      dup1\n      swap2\n      sub\n      swap1\n      revert\n    tag_289:\n        /* \"contracts/AmeComponents/VibeProfiles/VibeProfile.sol\":5206:5236  isEmptyString(userInfo.handle) */\n      tag_292\n        /* \"contracts/AmeComponents/VibeProfiles/VibeProfile.sol\":5220:5228  userInfo */\n      dup2\n        /* \"contracts/AmeComponents/VibeProfiles/VibeProfile.sol\":5220:5235  userInfo.handle */\n      0x00\n      add\n      mload\n        /* \"contracts/AmeComponents/VibeProfiles/VibeProfile.sol\":5206:5219  isEmptyString */\n      tag_33\n        /* \"contracts/AmeComponents/VibeProfiles/VibeProfile.sol\":5206:5236  isEmptyString(userInfo.handle) */\n      jump\t// in\n    tag_292:\n        /* \"contracts/AmeComponents/VibeProfiles/VibeProfile.sol\":5203:5566  if(isEmptyString(userInfo.handle)){... */\n      iszero\n      tag_293\n      jumpi\n        /* \"contracts/AmeComponents/VibeProfiles/VibeProfile.sol\":5283:5327  UserInfo(_handle,_nickname,_avatar,_profile) */\n      mload(0x40)\n      dup1\n      0x80\n      add\n      0x40\n      mstore\n      dup1\n        /* \"contracts/AmeComponents/VibeProfiles/VibeProfile.sol\":5292:5299  _handle */\n      dup7\n        /* \"contracts/AmeComponents/VibeProfiles/VibeProfile.sol\":5283:5327  UserInfo(_handle,_nickname,_avatar,_profile) */\n      dup2\n      mstore\n      0x20\n      add\n        /* \"contracts/AmeComponents/VibeProfiles/VibeProfile.sol\":5300:5309  _nickname */\n      dup6\n        /* \"contracts/AmeComponents/VibeProfiles/VibeProfile.sol\":5283:5327  UserInfo(_handle,_nickname,_avatar,_profile) */\n      dup2\n      mstore\n      0x20\n      add\n        /* \"contracts/AmeComponents/VibeProfiles/VibeProfile.sol\":5310:5317  _avatar */\n      dup5\n        /* \"contracts/AmeComponents/VibeProfiles/VibeProfile.sol\":5283:5327  UserInfo(_handle,_nickname,_avatar,_profile) */\n      dup2\n      mstore\n      0x20\n      add\n        /* \"contracts/AmeComponents/VibeProfiles/VibeProfile.sol\":5318:5326  _profile */\n      dup4\n        /* \"contracts/AmeComponents/VibeProfiles/VibeProfile.sol\":5283:5327  UserInfo(_handle,_nickname,_avatar,_profile) */\n      dup2\n      mstore\n      pop\n        /* \"contracts/AmeComponents/VibeProfiles/VibeProfile.sol\":5255:5270  addressUserInfo */\n      0x03\n        /* \"contracts/AmeComponents/VibeProfiles/VibeProfile.sol\":5255:5282  addressUserInfo[msg.sender] */\n      0x00\n        /* \"contracts/AmeComponents/VibeProfiles/VibeProfile.sol\":5271:5281  msg.sender */\n      caller\n        /* \"contracts/AmeComponents/VibeProfiles/VibeProfile.sol\":5255:5282  addressUserInfo[msg.sender] */\n      0xffffffffffffffffffffffffffffffffffffffff\n      and\n      0xffffffffffffffffffffffffffffffffffffffff\n      and\n      dup2\n      mstore\n      0x20\n      add\n      swap1\n      dup2\n      mstore\n      0x20\n      add\n      0x00\n      keccak256\n        /* \"contracts/AmeComponents/VibeProfiles/VibeProfile.sol\":5255:5327  addressUserInfo[msg.sender]=UserInfo(_handle,_nickname,_avatar,_profile) */\n      0x00\n      dup3\n      add\n      mload\n      dup2\n      0x00\n      add\n      swap1\n      dup2\n      tag_294\n      swap2\n      swap1\n      tag_295\n      jump\t// in\n    tag_294:\n      pop\n      0x20\n      dup3\n      add\n      mload\n      dup2\n      0x01\n      add\n      swap1\n      dup2\n      tag_296\n      swap2\n      swap1\n      tag_295\n      jump\t// in\n    tag_296:\n      pop\n      0x40\n      dup3\n      add\n      mload\n      dup2\n      0x02\n      add\n      swap1\n      dup2\n      tag_297\n      swap2\n      swap1\n      tag_295\n      jump\t// in\n    tag_297:\n      pop\n      0x60\n      dup3\n      add\n      mload\n      dup2\n      0x03\n      add\n      swap1\n      dup2\n      tag_298\n      swap2\n      swap1\n      tag_295\n      jump\t// in\n    tag_298:\n      pop\n      swap1\n      pop\n      pop\n        /* \"contracts/AmeComponents/VibeProfiles/VibeProfile.sol\":5370:5380  msg.sender */\n      caller\n        /* \"contracts/AmeComponents/VibeProfiles/VibeProfile.sol\":5345:5360  handleAddresses */\n      0x04\n        /* \"contracts/AmeComponents/VibeProfiles/VibeProfile.sol\":5361:5368  _handle */\n      dup7\n        /* \"contracts/AmeComponents/VibeProfiles/VibeProfile.sol\":5345:5369  handleAddresses[_handle] */\n      mload(0x40)\n      tag_299\n      swap2\n      swap1\n      tag_96\n      jump\t// in\n    tag_299:\n      swap1\n      dup2\n      mstore\n      0x20\n      add\n      mload(0x40)\n      dup1\n      swap2\n      sub\n      swap1\n      keccak256\n      0x00\n        /* \"contracts/AmeComponents/VibeProfiles/VibeProfile.sol\":5345:5380  handleAddresses[_handle]=msg.sender */\n      0x0100\n      exp\n      dup2\n      sload\n      dup2\n      0xffffffffffffffffffffffffffffffffffffffff\n      mul\n      not\n      and\n      swap1\n      dup4\n      0xffffffffffffffffffffffffffffffffffffffff\n      and\n      mul\n      or\n      swap1\n      sstore\n      pop\n        /* \"contracts/AmeComponents/VibeProfiles/VibeProfile.sol\":5447:5454  _handle */\n      dup5\n        /* \"contracts/AmeComponents/VibeProfiles/VibeProfile.sol\":5420:5485  UpdateProfile( msg.sender, _handle, _nickname, _avatar, _profile) */\n      mload(0x40)\n      tag_300\n      swap2\n      swap1\n      tag_96\n      jump\t// in\n    tag_300:\n      mload(0x40)\n      dup1\n      swap2\n      sub\n      swap1\n      keccak256\n        /* \"contracts/AmeComponents/VibeProfiles/VibeProfile.sol\":5435:5445  msg.sender */\n      caller\n        /* \"contracts/AmeComponents/VibeProfiles/VibeProfile.sol\":5420:5485  UpdateProfile( msg.sender, _handle, _nickname, _avatar, _profile) */\n      0xffffffffffffffffffffffffffffffffffffffff\n      and\n      0x1c4834c8729cca3a7ea1e1c19a12ce6721cb054f67cb6590e733a2bb4b8be85a\n        /* \"contracts/AmeComponents/VibeProfiles/VibeProfile.sol\":5456:5465  _nickname */\n      dup7\n        /* \"contracts/AmeComponents/VibeProfiles/VibeProfile.sol\":5467:5474  _avatar */\n      dup7\n        /* \"contracts/AmeComponents/VibeProfiles/VibeProfile.sol\":5476:5484  _profile */\n      dup7\n        /* \"contracts/AmeComponents/VibeProfiles/VibeProfile.sol\":5420:5485  UpdateProfile( msg.sender, _handle, _nickname, _avatar, _profile) */\n      mload(0x40)\n      tag_301\n      swap4\n      swap3\n      swap2\n      swap1\n      tag_302\n      jump\t// in\n    tag_301:\n      mload(0x40)\n      dup1\n      swap2\n      sub\n      swap1\n      log3\n        /* \"contracts/AmeComponents/VibeProfiles/VibeProfile.sol\":5203:5566  if(isEmptyString(userInfo.handle)){... */\n      jump(tag_303)\n    tag_293:\n        /* \"contracts/AmeComponents/VibeProfiles/VibeProfile.sol\":5522:5551  revert(\"user has registered\") */\n      mload(0x40)\n      0x08c379a000000000000000000000000000000000000000000000000000000000\n      dup2\n      mstore\n      0x04\n      add\n      tag_304\n      swap1\n      tag_305\n      jump\t// in\n    tag_304:\n      mload(0x40)\n      dup1\n      swap2\n      sub\n      swap1\n      revert\n        /* \"contracts/AmeComponents/VibeProfiles/VibeProfile.sol\":5203:5566  if(isEmptyString(userInfo.handle)){... */\n    tag_303:\n        /* \"contracts/AmeComponents/VibeProfiles/VibeProfile.sol\":5586:5600  abi.encode(\"\") */\n      add(0x20, mload(0x40))\n      tag_306\n      swap1\n      tag_258\n      jump\t// in\n    tag_306:\n      mload(0x40)\n      0x20\n      dup2\n      dup4\n      sub\n      sub\n      dup2\n      mstore\n      swap1\n      0x40\n      mstore\n        /* \"contracts/AmeComponents/VibeProfiles/VibeProfile.sol\":5579:5600  return abi.encode(\"\") */\n      swap6\n      pop\n      pop\n      pop\n      pop\n      pop\n      pop\n      jump(tag_259)\n        /* \"contracts/AmeComponents/VibeProfiles/VibeProfile.sol\":4717:5663  if (compareStrings(_methodName, \"createUser\")) {... */\n    tag_261:\n        /* \"contracts/AmeComponents/VibeProfiles/VibeProfile.sol\":5638:5652  abi.encode(\"\") */\n      add(0x20, mload(0x40))\n      tag_308\n      swap1\n      tag_258\n      jump\t// in\n    tag_308:\n      mload(0x40)\n      0x20\n      dup2\n      dup4\n      sub\n      sub\n      dup2\n      mstore\n      swap1\n      0x40\n      mstore\n        /* \"contracts/AmeComponents/VibeProfiles/VibeProfile.sol\":5631:5652  return abi.encode(\"\") */\n      swap1\n      pop\n        /* \"contracts/AmeComponents/VibeProfiles/VibeProfile.sol\":4565:5669  function post(string memory _methodName, bytes memory _methodReq)... */\n    tag_259:\n      swap3\n      swap2\n      pop\n      pop\n      jump\t// out\n        /* \"contracts/AmeComponents/VibeProfiles/VibeProfile.sol\":8549:9230  function isValidString(string memory str) public pure returns (bool) {... */\n    tag_50:\n        /* \"contracts/AmeComponents/VibeProfiles/VibeProfile.sol\":8612:8616  bool */\n      0x00\n        /* \"contracts/AmeComponents/VibeProfiles/VibeProfile.sol\":8628:8649  bytes memory strBytes */\n      dup1\n        /* \"contracts/AmeComponents/VibeProfiles/VibeProfile.sol\":8658:8661  str */\n      dup3\n        /* \"contracts/AmeComponents/VibeProfiles/VibeProfile.sol\":8628:8662  bytes memory strBytes = bytes(str) */\n      swap1\n      pop\n        /* \"contracts/AmeComponents/VibeProfiles/VibeProfile.sol\":8705:8706  0 */\n      0x00\n        /* \"contracts/AmeComponents/VibeProfiles/VibeProfile.sol\":8686:8694  strBytes */\n      dup2\n        /* \"contracts/AmeComponents/VibeProfiles/VibeProfile.sol\":8686:8701  strBytes.length */\n      mload\n        /* \"contracts/AmeComponents/VibeProfiles/VibeProfile.sol\":8686:8706  strBytes.length == 0 */\n      eq\n        /* \"contracts/AmeComponents/VibeProfiles/VibeProfile.sol\":8686:8730  strBytes.length == 0 || strBytes.length > 20 */\n      dup1\n      tag_310\n      jumpi\n      pop\n        /* \"contracts/AmeComponents/VibeProfiles/VibeProfile.sol\":8728:8730  20 */\n      0x14\n        /* \"contracts/AmeComponents/VibeProfiles/VibeProfile.sol\":8710:8718  strBytes */\n      dup2\n        /* \"contracts/AmeComponents/VibeProfiles/VibeProfile.sol\":8710:8725  strBytes.length */\n      mload\n        /* \"contracts/AmeComponents/VibeProfiles/VibeProfile.sol\":8710:8730  strBytes.length > 20 */\n      gt\n        /* \"contracts/AmeComponents/VibeProfiles/VibeProfile.sol\":8686:8730  strBytes.length == 0 || strBytes.length > 20 */\n    tag_310:\n        /* \"contracts/AmeComponents/VibeProfiles/VibeProfile.sol\":8682:8744  if (strBytes.length == 0 || strBytes.length > 20) return false */\n      iszero\n      tag_311\n      jumpi\n        /* \"contracts/AmeComponents/VibeProfiles/VibeProfile.sol\":8739:8744  false */\n      0x00\n        /* \"contracts/AmeComponents/VibeProfiles/VibeProfile.sol\":8732:8744  return false */\n      swap2\n      pop\n      pop\n      jump(tag_309)\n        /* \"contracts/AmeComponents/VibeProfiles/VibeProfile.sol\":8682:8744  if (strBytes.length == 0 || strBytes.length > 20) return false */\n    tag_311:\n        /* \"contracts/AmeComponents/VibeProfiles/VibeProfile.sol\":8760:8766  uint i */\n      0x00\n        /* \"contracts/AmeComponents/VibeProfiles/VibeProfile.sol\":8755:9194  for (uint i = 0; i < strBytes.length; i++) {... */\n    tag_312:\n        /* \"contracts/AmeComponents/VibeProfiles/VibeProfile.sol\":8776:8784  strBytes */\n      dup2\n        /* \"contracts/AmeComponents/VibeProfiles/VibeProfile.sol\":8776:8791  strBytes.length */\n      mload\n        /* \"contracts/AmeComponents/VibeProfiles/VibeProfile.sol\":8772:8773  i */\n      dup2\n        /* \"contracts/AmeComponents/VibeProfiles/VibeProfile.sol\":8772:8791  i < strBytes.length */\n      lt\n        /* \"contracts/AmeComponents/VibeProfiles/VibeProfile.sol\":8755:9194  for (uint i = 0; i < strBytes.length; i++) {... */\n      iszero\n      tag_313\n      jumpi\n        /* \"contracts/AmeComponents/VibeProfiles/VibeProfile.sol\":8812:8823  bytes1 char */\n      0x00\n        /* \"contracts/AmeComponents/VibeProfiles/VibeProfile.sol\":8826:8834  strBytes */\n      dup3\n        /* \"contracts/AmeComponents/VibeProfiles/VibeProfile.sol\":8835:8836  i */\n      dup3\n        /* \"contracts/AmeComponents/VibeProfiles/VibeProfile.sol\":8826:8837  strBytes[i] */\n      dup2\n      mload\n      dup2\n      lt\n      tag_315\n      jumpi\n      tag_316\n      tag_70\n      jump\t// in\n    tag_316:\n    tag_315:\n      0x20\n      add\n      add\n      mload\n      0xf8\n      shr\n      0xf8\n      shl\n        /* \"contracts/AmeComponents/VibeProfiles/VibeProfile.sol\":8812:8837  bytes1 char = strBytes[i] */\n      swap1\n      pop\n        /* \"contracts/AmeComponents/VibeProfiles/VibeProfile.sol\":8879:8883  0x61 */\n      0x61\n        /* \"contracts/AmeComponents/VibeProfiles/VibeProfile.sol\":8871:8883  char >= 0x61 */\n      0xf8\n      shl\n        /* \"contracts/AmeComponents/VibeProfiles/VibeProfile.sol\":8871:8875  char */\n      dup2\n        /* \"contracts/AmeComponents/VibeProfiles/VibeProfile.sol\":8871:8883  char >= 0x61 */\n      not(0xffffffffffffffffffffffffffffffffffffffffffffffffffffffffffffff)\n      and\n      lt\n      iszero\n        /* \"contracts/AmeComponents/VibeProfiles/VibeProfile.sol\":8871:8899  char >= 0x61 && char <= 0x7A */\n      dup1\n      iszero\n      tag_317\n      jumpi\n      pop\n        /* \"contracts/AmeComponents/VibeProfiles/VibeProfile.sol\":8895:8899  0x7A */\n      0x7a\n        /* \"contracts/AmeComponents/VibeProfiles/VibeProfile.sol\":8887:8899  char <= 0x7A */\n      0xf8\n      shl\n        /* \"contracts/AmeComponents/VibeProfiles/VibeProfile.sol\":8887:8891  char */\n      dup2\n        /* \"contracts/AmeComponents/VibeProfiles/VibeProfile.sol\":8887:8899  char <= 0x7A */\n      not(0xffffffffffffffffffffffffffffffffffffffffffffffffffffffffffffff)\n      and\n      gt\n      iszero\n        /* \"contracts/AmeComponents/VibeProfiles/VibeProfile.sol\":8871:8899  char >= 0x61 && char <= 0x7A */\n    tag_317:\n        /* \"contracts/AmeComponents/VibeProfiles/VibeProfile.sol\":8867:9184  if (char >= 0x61 && char <= 0x7A) {... */\n      iszero\n      tag_318\n      jumpi\n        /* \"contracts/AmeComponents/VibeProfiles/VibeProfile.sol\":8919:8927  continue */\n      pop\n      jump(tag_314)\n        /* \"contracts/AmeComponents/VibeProfiles/VibeProfile.sol\":8867:9184  if (char >= 0x61 && char <= 0x7A) {... */\n    tag_318:\n        /* \"contracts/AmeComponents/VibeProfiles/VibeProfile.sol\":8979:8983  0x30 */\n      0x30\n        /* \"contracts/AmeComponents/VibeProfiles/VibeProfile.sol\":8971:8983  char >= 0x30 */\n      0xf8\n      shl\n        /* \"contracts/AmeComponents/VibeProfiles/VibeProfile.sol\":8971:8975  char */\n      dup2\n        /* \"contracts/AmeComponents/VibeProfiles/VibeProfile.sol\":8971:8983  char >= 0x30 */\n      not(0xffffffffffffffffffffffffffffffffffffffffffffffffffffffffffffff)\n      and\n      lt\n      iszero\n        /* \"contracts/AmeComponents/VibeProfiles/VibeProfile.sol\":8971:8999  char >= 0x30 && char <= 0x39 */\n      dup1\n      iszero\n      tag_320\n      jumpi\n      pop\n        /* \"contracts/AmeComponents/VibeProfiles/VibeProfile.sol\":8995:8999  0x39 */\n      0x39\n        /* \"contracts/AmeComponents/VibeProfiles/VibeProfile.sol\":8987:8999  char <= 0x39 */\n      0xf8\n      shl\n        /* \"contracts/AmeComponents/VibeProfiles/VibeProfile.sol\":8987:8991  char */\n      dup2\n        /* \"contracts/AmeComponents/VibeProfiles/VibeProfile.sol\":8987:8999  char <= 0x39 */\n      not(0xffffffffffffffffffffffffffffffffffffffffffffffffffffffffffffff)\n      and\n      gt\n      iszero\n        /* \"contracts/AmeComponents/VibeProfiles/VibeProfile.sol\":8971:8999  char >= 0x30 && char <= 0x39 */\n    tag_320:\n        /* \"contracts/AmeComponents/VibeProfiles/VibeProfile.sol\":8967:9184  if (char >= 0x30 && char <= 0x39) {... */\n      iszero\n      tag_321\n      jumpi\n        /* \"contracts/AmeComponents/VibeProfiles/VibeProfile.sol\":9019:9027  continue */\n      pop\n      jump(tag_314)\n        /* \"contracts/AmeComponents/VibeProfiles/VibeProfile.sol\":8967:9184  if (char >= 0x30 && char <= 0x39) {... */\n    tag_321:\n        /* \"contracts/AmeComponents/VibeProfiles/VibeProfile.sol\":9073:9077  0x5F */\n      0x5f\n        /* \"contracts/AmeComponents/VibeProfiles/VibeProfile.sol\":9065:9077  char == 0x5F */\n      0xf8\n      shl\n        /* \"contracts/AmeComponents/VibeProfiles/VibeProfile.sol\":9065:9069  char */\n      dup2\n        /* \"contracts/AmeComponents/VibeProfiles/VibeProfile.sol\":9065:9077  char == 0x5F */\n      not(0xffffffffffffffffffffffffffffffffffffffffffffffffffffffffffffff)\n      and\n      sub\n        /* \"contracts/AmeComponents/VibeProfiles/VibeProfile.sol\":9061:9184  if (char == 0x5F) {... */\n      tag_323\n      jumpi\n        /* \"contracts/AmeComponents/VibeProfiles/VibeProfile.sol\":9097:9105  continue */\n      pop\n      jump(tag_314)\n        /* \"contracts/AmeComponents/VibeProfiles/VibeProfile.sol\":9061:9184  if (char == 0x5F) {... */\n    tag_323:\n        /* \"contracts/AmeComponents/VibeProfiles/VibeProfile.sol\":9164:9169  false */\n      0x00\n        /* \"contracts/AmeComponents/VibeProfiles/VibeProfile.sol\":9157:9169  return false */\n      swap4\n      pop\n      pop\n      pop\n      pop\n      jump(tag_309)\n        /* \"contracts/AmeComponents/VibeProfiles/VibeProfile.sol\":8755:9194  for (uint i = 0; i < strBytes.length; i++) {... */\n    tag_314:\n        /* \"contracts/AmeComponents/VibeProfiles/VibeProfile.sol\":8793:8796  i++ */\n      dup1\n      dup1\n      0x01\n      add\n      swap2\n      pop\n      pop\n        /* \"contracts/AmeComponents/VibeProfiles/VibeProfile.sol\":8755:9194  for (uint i = 0; i < strBytes.length; i++) {... */\n      jump(tag_312)\n    tag_313:\n      pop\n        /* \"contracts/AmeComponents/VibeProfiles/VibeProfile.sol\":9219:9223  true */\n      0x01\n        /* \"contracts/AmeComponents/VibeProfiles/VibeProfile.sol\":9212:9223  return true */\n      swap2\n      pop\n      pop\n        /* \"contracts/AmeComponents/VibeProfiles/VibeProfile.sol\":8549:9230  function isValidString(string memory str) public pure returns (bool) {... */\n    tag_309:\n      swap2\n      swap1\n      pop\n      jump\t// out\n        /* \"contracts/AmeComponents/VibeProfiles/VibeProfile.sol\":5685:6552  function put(string memory _methodName, bytes memory _methodReq)... */\n    tag_54:\n        /* \"contracts/AmeComponents/VibeProfiles/VibeProfile.sol\":5798:5810  bytes memory */\n      0x60\n        /* \"contracts/AmeComponents/VibeProfiles/VibeProfile.sol\":5832:5877  compareStrings(_methodName, \"updateUserInfo\") */\n      tag_326\n        /* \"contracts/AmeComponents/VibeProfiles/VibeProfile.sol\":5847:5858  _methodName */\n      dup4\n        /* \"contracts/AmeComponents/VibeProfiles/VibeProfile.sol\":5832:5877  compareStrings(_methodName, \"updateUserInfo\") */\n      mload(0x40)\n      dup1\n      0x40\n      add\n      0x40\n      mstore\n      dup1\n      0x0e\n      dup2\n      mstore\n      0x20\n      add\n      0x75706461746555736572496e666f000000000000000000000000000000000000\n      dup2\n      mstore\n      pop\n        /* \"contracts/AmeComponents/VibeProfiles/VibeProfile.sol\":5832:5846  compareStrings */\n      tag_133\n        /* \"contracts/AmeComponents/VibeProfiles/VibeProfile.sol\":5832:5877  compareStrings(_methodName, \"updateUserInfo\") */\n      jump\t// in\n    tag_326:\n        /* \"contracts/AmeComponents/VibeProfiles/VibeProfile.sol\":5829:6494  if(compareStrings(_methodName, \"updateUserInfo\")){... */\n      iszero\n      tag_327\n      jumpi\n        /* \"contracts/AmeComponents/VibeProfiles/VibeProfile.sol\":5893:5917  UserInfo memory userInfo */\n      0x00\n        /* \"contracts/AmeComponents/VibeProfiles/VibeProfile.sol\":5918:5933  addressUserInfo */\n      0x03\n        /* \"contracts/AmeComponents/VibeProfiles/VibeProfile.sol\":5918:5945  addressUserInfo[msg.sender] */\n      0x00\n        /* \"contracts/AmeComponents/VibeProfiles/VibeProfile.sol\":5934:5944  msg.sender */\n      caller\n        /* \"contracts/AmeComponents/VibeProfiles/VibeProfile.sol\":5918:5945  addressUserInfo[msg.sender] */\n      0xffffffffffffffffffffffffffffffffffffffff\n      and\n      0xffffffffffffffffffffffffffffffffffffffff\n      and\n      dup2\n      mstore\n      0x20\n      add\n      swap1\n      dup2\n      mstore\n      0x20\n      add\n      0x00\n      keccak256\n        /* \"contracts/AmeComponents/VibeProfiles/VibeProfile.sol\":5893:5945  UserInfo memory userInfo=addressUserInfo[msg.sender] */\n      mload(0x40)\n      dup1\n      0x80\n      add\n      0x40\n      mstore\n      swap1\n      dup2\n      0x00\n      dup3\n      add\n      dup1\n      sload\n      tag_328\n      swap1\n      tag_159\n      jump\t// in\n    tag_328:\n      dup1\n      0x1f\n      add\n      0x20\n      dup1\n      swap2\n      div\n      mul\n      0x20\n      add\n      mload(0x40)\n      swap1\n      dup2\n      add\n      0x40\n      mstore\n      dup1\n      swap3\n      swap2\n      swap1\n      dup2\n      dup2\n      mstore\n      0x20\n      add\n      dup3\n      dup1\n      sload\n      tag_329\n      swap1\n      tag_159\n      jump\t// in\n    tag_329:\n      dup1\n      iszero\n      tag_330\n      jumpi\n      dup1\n      0x1f\n      lt\n      tag_331\n      jumpi\n      0x0100\n      dup1\n      dup4\n      sload\n      div\n      mul\n      dup4\n      mstore\n      swap2\n      0x20\n      add\n      swap2\n      jump(tag_330)\n    tag_331:\n      dup3\n      add\n      swap2\n      swap1\n      0x00\n      mstore\n      keccak256(0x00, 0x20)\n      swap1\n    tag_332:\n      dup2\n      sload\n      dup2\n      mstore\n      swap1\n      0x01\n      add\n      swap1\n      0x20\n      add\n      dup1\n      dup4\n      gt\n      tag_332\n      jumpi\n      dup3\n      swap1\n      sub\n      0x1f\n      and\n      dup3\n      add\n      swap2\n    tag_330:\n      pop\n      pop\n      pop\n      pop\n      pop\n      dup2\n      mstore\n      0x20\n      add\n      0x01\n      dup3\n      add\n      dup1\n      sload\n      tag_333\n      swap1\n      tag_159\n      jump\t// in\n    tag_333:\n      dup1\n      0x1f\n      add\n      0x20\n      dup1\n      swap2\n      div\n      mul\n      0x20\n      add\n      mload(0x40)\n      swap1\n      dup2\n      add\n      0x40\n      mstore\n      dup1\n      swap3\n      swap2\n      swap1\n      dup2\n      dup2\n      mstore\n      0x20\n      add\n      dup3\n      dup1\n      sload\n      tag_334\n      swap1\n      tag_159\n      jump\t// in\n    tag_334:\n      dup1\n      iszero\n      tag_335\n      jumpi\n      dup1\n      0x1f\n      lt\n      tag_336\n      jumpi\n      0x0100\n      dup1\n      dup4\n      sload\n      div\n      mul\n      dup4\n      mstore\n      swap2\n      0x20\n      add\n      swap2\n      jump(tag_335)\n    tag_336:\n      dup3\n      add\n      swap2\n      swap1\n      0x00\n      mstore\n      keccak256(0x00, 0x20)\n      swap1\n    tag_337:\n      dup2\n      sload\n      dup2\n      mstore\n      swap1\n      0x01\n      add\n      swap1\n      0x20\n      add\n      dup1\n      dup4\n      gt\n      tag_337\n      jumpi\n      dup3\n      swap1\n      sub\n      0x1f\n      and\n      dup3\n      add\n      swap2\n    tag_335:\n      pop\n      pop\n      pop\n      pop\n      pop\n      dup2\n      mstore\n      0x20\n      add\n      0x02\n      dup3\n      add\n      dup1\n      sload\n      tag_338\n      swap1\n      tag_159\n      jump\t// in\n    tag_338:\n      dup1\n      0x1f\n      add\n      0x20\n      dup1\n      swap2\n      div\n      mul\n      0x20\n      add\n      mload(0x40)\n      swap1\n      dup2\n      add\n      0x40\n      mstore\n      dup1\n      swap3\n      swap2\n      swap1\n      dup2\n      dup2\n      mstore\n      0x20\n      add\n      dup3\n      dup1\n      sload\n      tag_339\n      swap1\n      tag_159\n      jump\t// in\n    tag_339:\n      dup1\n      iszero\n      tag_340\n      jumpi\n      dup1\n      0x1f\n      lt\n      tag_341\n      jumpi\n      0x0100\n      dup1\n      dup4\n      sload\n      div\n      mul\n      dup4\n      mstore\n      swap2\n      0x20\n      add\n      swap2\n      jump(tag_340)\n    tag_341:\n      dup3\n      add\n      swap2\n      swap1\n      0x00\n      mstore\n      keccak256(0x00, 0x20)\n      swap1\n    tag_342:\n      dup2\n      sload\n      dup2\n      mstore\n      swap1\n      0x01\n      add\n      swap1\n      0x20\n      add\n      dup1\n      dup4\n      gt\n      tag_342\n      jumpi\n      dup3\n      swap1\n      sub\n      0x1f\n      and\n      dup3\n      add\n      swap2\n    tag_340:\n      pop\n      pop\n      pop\n      pop\n      pop\n      dup2\n      mstore\n      0x20\n      add\n      0x03\n      dup3\n      add\n      dup1\n      sload\n      tag_343\n      swap1\n      tag_159\n      jump\t// in\n    tag_343:\n      dup1\n      0x1f\n      add\n      0x20\n      dup1\n      swap2\n      div\n      mul\n      0x20\n      add\n      mload(0x40)\n      swap1\n      dup2\n      add\n      0x40\n      mstore\n      dup1\n      swap3\n      swap2\n      swap1\n      dup2\n      dup2\n      mstore\n      0x20\n      add\n      dup3\n      dup1\n      sload\n      tag_344\n      swap1\n      tag_159\n      jump\t// in\n    tag_344:\n      dup1\n      iszero\n      tag_345\n      jumpi\n      dup1\n      0x1f\n      lt\n      tag_346\n      jumpi\n      0x0100\n      dup1\n      dup4\n      sload\n      div\n      mul\n      dup4\n      mstore\n      swap2\n      0x20\n      add\n      swap2\n      jump(tag_345)\n    tag_346:\n      dup3\n      add\n      swap2\n      swap1\n      0x00\n      mstore\n      keccak256(0x00, 0x20)\n      swap1\n    tag_347:\n      dup2\n      sload\n      dup2\n      mstore\n      swap1\n      0x01\n      add\n      swap1\n      0x20\n      add\n      dup1\n      dup4\n      gt\n      tag_347\n      jumpi\n      dup3\n      swap1\n      sub\n      0x1f\n      and\n      dup3\n      add\n      swap2\n    tag_345:\n      pop\n      pop\n      pop\n      pop\n      pop\n      dup2\n      mstore\n      pop\n      pop\n      swap1\n      pop\n        /* \"contracts/AmeComponents/VibeProfiles/VibeProfile.sol\":5963:5993  isEmptyString(userInfo.handle) */\n      tag_348\n        /* \"contracts/AmeComponents/VibeProfiles/VibeProfile.sol\":5977:5985  userInfo */\n      dup2\n        /* \"contracts/AmeComponents/VibeProfiles/VibeProfile.sol\":5977:5992  userInfo.handle */\n      0x00\n      add\n      mload\n        /* \"contracts/AmeComponents/VibeProfiles/VibeProfile.sol\":5963:5976  isEmptyString */\n      tag_33\n        /* \"contracts/AmeComponents/VibeProfiles/VibeProfile.sol\":5963:5993  isEmptyString(userInfo.handle) */\n      jump\t// in\n    tag_348:\n        /* \"contracts/AmeComponents/VibeProfiles/VibeProfile.sol\":5959:6484  if(!isEmptyString(userInfo.handle)){... */\n      tag_349\n      jumpi\n        /* \"contracts/AmeComponents/VibeProfiles/VibeProfile.sol\":6010:6033  string memory _nickname */\n      0x00\n        /* \"contracts/AmeComponents/VibeProfiles/VibeProfile.sol\":6035:6056  string memory _avatar */\n      dup1\n        /* \"contracts/AmeComponents/VibeProfiles/VibeProfile.sol\":6057:6079  string memory _profile */\n      0x00\n        /* \"contracts/AmeComponents/VibeProfiles/VibeProfile.sol\":6094:6104  _methodReq */\n      dup6\n        /* \"contracts/AmeComponents/VibeProfiles/VibeProfile.sol\":6083:6129  abi.decode(_methodReq, (string,string,string)) */\n      dup1\n      0x20\n      add\n      swap1\n      mload\n      dup2\n      add\n      swap1\n      tag_350\n      swap2\n      swap1\n      tag_351\n      jump\t// in\n    tag_350:\n        /* \"contracts/AmeComponents/VibeProfiles/VibeProfile.sol\":6008:6129  ( string memory _nickname, string memory _avatar,string memory _profile) = abi.decode(_methodReq, (string,string,string)) */\n      swap3\n      pop\n      swap3\n      pop\n      swap3\n      pop\n        /* \"contracts/AmeComponents/VibeProfiles/VibeProfile.sol\":6168:6177  _nickname */\n      dup3\n        /* \"contracts/AmeComponents/VibeProfiles/VibeProfile.sol\":6150:6158  userInfo */\n      dup5\n        /* \"contracts/AmeComponents/VibeProfiles/VibeProfile.sol\":6150:6167  userInfo.nickname */\n      0x20\n      add\n        /* \"contracts/AmeComponents/VibeProfiles/VibeProfile.sol\":6150:6177  userInfo.nickname=_nickname */\n      dup2\n      swap1\n      mstore\n      pop\n        /* \"contracts/AmeComponents/VibeProfiles/VibeProfile.sol\":6207:6214  _avatar */\n      dup2\n        /* \"contracts/AmeComponents/VibeProfiles/VibeProfile.sol\":6191:6199  userInfo */\n      dup5\n        /* \"contracts/AmeComponents/VibeProfiles/VibeProfile.sol\":6191:6206  userInfo.avatar */\n      0x40\n      add\n        /* \"contracts/AmeComponents/VibeProfiles/VibeProfile.sol\":6191:6214  userInfo.avatar=_avatar */\n      dup2\n      swap1\n      mstore\n      pop\n        /* \"contracts/AmeComponents/VibeProfiles/VibeProfile.sol\":6245:6253  _profile */\n      dup1\n        /* \"contracts/AmeComponents/VibeProfiles/VibeProfile.sol\":6228:6236  userInfo */\n      dup5\n        /* \"contracts/AmeComponents/VibeProfiles/VibeProfile.sol\":6228:6244  userInfo.profile */\n      0x60\n      add\n        /* \"contracts/AmeComponents/VibeProfiles/VibeProfile.sol\":6228:6253  userInfo.profile=_profile */\n      dup2\n      swap1\n      mstore\n      pop\n        /* \"contracts/AmeComponents/VibeProfiles/VibeProfile.sol\":6295:6303  userInfo */\n      dup4\n        /* \"contracts/AmeComponents/VibeProfiles/VibeProfile.sol\":6267:6282  addressUserInfo */\n      0x03\n        /* \"contracts/AmeComponents/VibeProfiles/VibeProfile.sol\":6267:6294  addressUserInfo[msg.sender] */\n      0x00\n        /* \"contracts/AmeComponents/VibeProfiles/VibeProfile.sol\":6283:6293  msg.sender */\n      caller\n        /* \"contracts/AmeComponents/VibeProfiles/VibeProfile.sol\":6267:6294  addressUserInfo[msg.sender] */\n      0xffffffffffffffffffffffffffffffffffffffff\n      and\n      0xffffffffffffffffffffffffffffffffffffffff\n      and\n      dup2\n      mstore\n      0x20\n      add\n      swap1\n      dup2\n      mstore\n      0x20\n      add\n      0x00\n      keccak256\n        /* \"contracts/AmeComponents/VibeProfiles/VibeProfile.sol\":6267:6303  addressUserInfo[msg.sender]=userInfo */\n      0x00\n      dup3\n      add\n      mload\n      dup2\n      0x00\n      add\n      swap1\n      dup2\n      tag_352\n      swap2\n      swap1\n      tag_295\n      jump\t// in\n    tag_352:\n      pop\n      0x20\n      dup3\n      add\n      mload\n      dup2\n      0x01\n      add\n      swap1\n      dup2\n      tag_353\n      swap2\n      swap1\n      tag_295\n      jump\t// in\n    tag_353:\n      pop\n      0x40\n      dup3\n      add\n      mload\n      dup2\n      0x02\n      add\n      swap1\n      dup2\n      tag_354\n      swap2\n      swap1\n      tag_295\n      jump\t// in\n    tag_354:\n      pop\n      0x60\n      dup3\n      add\n      mload\n      dup2\n      0x03\n      add\n      swap1\n      dup2\n      tag_355\n      swap2\n      swap1\n      tag_295\n      jump\t// in\n    tag_355:\n      pop\n      swap1\n      pop\n      pop\n        /* \"contracts/AmeComponents/VibeProfiles/VibeProfile.sol\":6350:6358  userInfo */\n      dup4\n        /* \"contracts/AmeComponents/VibeProfiles/VibeProfile.sol\":6350:6365  userInfo.handle */\n      0x00\n      add\n      mload\n        /* \"contracts/AmeComponents/VibeProfiles/VibeProfile.sol\":6323:6396  UpdateProfile( msg.sender, userInfo.handle, _nickname, _avatar, _profile) */\n      mload(0x40)\n      tag_356\n      swap2\n      swap1\n      tag_96\n      jump\t// in\n    tag_356:\n      mload(0x40)\n      dup1\n      swap2\n      sub\n      swap1\n      keccak256\n        /* \"contracts/AmeComponents/VibeProfiles/VibeProfile.sol\":6338:6348  msg.sender */\n      caller\n        /* \"contracts/AmeComponents/VibeProfiles/VibeProfile.sol\":6323:6396  UpdateProfile( msg.sender, userInfo.handle, _nickname, _avatar, _profile) */\n      0xffffffffffffffffffffffffffffffffffffffff\n      and\n      0x1c4834c8729cca3a7ea1e1c19a12ce6721cb054f67cb6590e733a2bb4b8be85a\n        /* \"contracts/AmeComponents/VibeProfiles/VibeProfile.sol\":6367:6376  _nickname */\n      dup6\n        /* \"contracts/AmeComponents/VibeProfiles/VibeProfile.sol\":6378:6385  _avatar */\n      dup6\n        /* \"contracts/AmeComponents/VibeProfiles/VibeProfile.sol\":6387:6395  _profile */\n      dup6\n        /* \"contracts/AmeComponents/VibeProfiles/VibeProfile.sol\":6323:6396  UpdateProfile( msg.sender, userInfo.handle, _nickname, _avatar, _profile) */\n      mload(0x40)\n      tag_357\n      swap4\n      swap3\n      swap2\n      swap1\n      tag_302\n      jump\t// in\n    tag_357:\n      mload(0x40)\n      dup1\n      swap2\n      sub\n      swap1\n      log3\n        /* \"contracts/AmeComponents/VibeProfiles/VibeProfile.sol\":5994:6411  {... */\n      pop\n      pop\n      pop\n        /* \"contracts/AmeComponents/VibeProfiles/VibeProfile.sol\":5959:6484  if(!isEmptyString(userInfo.handle)){... */\n      jump(tag_358)\n    tag_349:\n        /* \"contracts/AmeComponents/VibeProfiles/VibeProfile.sol\":6433:6469  revert(\"the user is not registered\") */\n      mload(0x40)\n      0x08c379a000000000000000000000000000000000000000000000000000000000\n      dup2\n      mstore\n      0x04\n      add\n      tag_359\n      swap1\n      tag_360\n      jump\t// in\n    tag_359:\n      mload(0x40)\n      dup1\n      swap2\n      sub\n      swap1\n      revert\n        /* \"contracts/AmeComponents/VibeProfiles/VibeProfile.sol\":5959:6484  if(!isEmptyString(userInfo.handle)){... */\n    tag_358:\n        /* \"contracts/AmeComponents/VibeProfiles/VibeProfile.sol\":5878:6494  {... */\n      pop\n        /* \"contracts/AmeComponents/VibeProfiles/VibeProfile.sol\":5829:6494  if(compareStrings(_methodName, \"updateUserInfo\")){... */\n    tag_327:\n        /* \"contracts/AmeComponents/VibeProfiles/VibeProfile.sol\":6521:6532  _methodName */\n      dup3\n        /* \"contracts/AmeComponents/VibeProfiles/VibeProfile.sol\":6534:6544  _methodReq */\n      dup3\n        /* \"contracts/AmeComponents/VibeProfiles/VibeProfile.sol\":6510:6545  abi.encode(_methodName, _methodReq) */\n      add(0x20, mload(0x40))\n      tag_361\n      swap3\n      swap2\n      swap1\n      tag_362\n      jump\t// in\n    tag_361:\n      mload(0x40)\n      0x20\n      dup2\n      dup4\n      sub\n      sub\n      dup2\n      mstore\n      swap1\n      0x40\n      mstore\n        /* \"contracts/AmeComponents/VibeProfiles/VibeProfile.sol\":6503:6545  return abi.encode(_methodName, _methodReq) */\n      swap1\n      pop\n        /* \"contracts/AmeComponents/VibeProfiles/VibeProfile.sol\":5685:6552  function put(string memory _methodName, bytes memory _methodReq)... */\n      swap3\n      swap2\n      pop\n      pop\n      jump\t// out\n        /* \"contracts/AmeComponents/VibeProfiles/VibeProfile.sol\":7477:7634  function getMethods(MethodTypes _methodTypes)... */\n    tag_60:\n        /* \"contracts/AmeComponents/VibeProfiles/VibeProfile.sol\":7568:7583  string[] memory */\n      0x60\n        /* \"contracts/AmeComponents/VibeProfiles/VibeProfile.sol\":7606:7613  methods */\n      0x00\n        /* \"contracts/AmeComponents/VibeProfiles/VibeProfile.sol\":7606:7627  methods[_methodTypes] */\n      dup1\n        /* \"contracts/AmeComponents/VibeProfiles/VibeProfile.sol\":7614:7626  _methodTypes */\n      dup4\n        /* \"contracts/AmeComponents/VibeProfiles/VibeProfile.sol\":7606:7627  methods[_methodTypes] */\n      0x03\n      dup2\n      gt\n      iszero\n      tag_364\n      jumpi\n      tag_365\n      tag_73\n      jump\t// in\n    tag_365:\n    tag_364:\n      0x03\n      dup2\n      gt\n      iszero\n      tag_366\n      jumpi\n      tag_367\n      tag_73\n      jump\t// in\n    tag_367:\n    tag_366:\n      dup2\n      mstore\n      0x20\n      add\n      swap1\n      dup2\n      mstore\n      0x20\n      add\n      0x00\n      keccak256\n        /* \"contracts/AmeComponents/VibeProfiles/VibeProfile.sol\":7599:7627  return methods[_methodTypes] */\n      dup1\n      sload\n      dup1\n      0x20\n      mul\n      0x20\n      add\n      mload(0x40)\n      swap1\n      dup2\n      add\n      0x40\n      mstore\n      dup1\n      swap3\n      swap2\n      swap1\n      dup2\n      dup2\n      mstore\n      0x20\n      add\n      0x00\n      swap1\n    tag_368:\n      dup3\n      dup3\n      lt\n      iszero\n      tag_369\n      jumpi\n      dup4\n      dup3\n      swap1\n      0x00\n      mstore\n      keccak256(0x00, 0x20)\n      add\n      dup1\n      sload\n      tag_371\n      swap1\n      tag_159\n      jump\t// in\n    tag_371:\n      dup1\n      0x1f\n      add\n      0x20\n      dup1\n      swap2\n      div\n      mul\n      0x20\n      add\n      mload(0x40)\n      swap1\n      dup2\n      add\n      0x40\n      mstore\n      dup1\n      swap3\n      swap2\n      swap1\n      dup2\n      dup2\n      mstore\n      0x20\n      add\n      dup3\n      dup1\n      sload\n      tag_372\n      swap1\n      tag_159\n      jump\t// in\n    tag_372:\n      dup1\n      iszero\n      tag_373\n      jumpi\n      dup1\n      0x1f\n      lt\n      tag_374\n      jumpi\n      0x0100\n      dup1\n      dup4\n      sload\n      div\n      mul\n      dup4\n      mstore\n      swap2\n      0x20\n      add\n      swap2\n      jump(tag_373)\n    tag_374:\n      dup3\n      add\n      swap2\n      swap1\n      0x00\n      mstore\n      keccak256(0x00, 0x20)\n      swap1\n    tag_375:\n      dup2\n      sload\n      dup2\n      mstore\n      swap1\n      0x01\n      add\n      swap1\n      0x20\n      add\n      dup1\n      dup4\n      gt\n      tag_375\n      jumpi\n      dup3\n      swap1\n      sub\n      0x1f\n      and\n      dup3\n      add\n      swap2\n    tag_373:\n      pop\n      pop\n      pop\n      pop\n      pop\n      dup2\n      mstore\n      0x20\n      add\n      swap1\n      0x01\n      add\n      swap1\n      jump(tag_368)\n    tag_369:\n      pop\n      pop\n      pop\n      pop\n      swap1\n      pop\n        /* \"contracts/AmeComponents/VibeProfiles/VibeProfile.sol\":7477:7634  function getMethods(MethodTypes _methodTypes)... */\n      swap2\n      swap1\n      pop\n      jump\t// out\n        /* \"contracts/AmeComponents/VibeProfiles/VibeProfile.sol\":7685:7903  function compareStrings(string memory _a, string memory _b)... */\n    tag_133:\n        /* \"contracts/AmeComponents/VibeProfiles/VibeProfile.sol\":7791:7795  bool */\n      0x00\n        /* \"contracts/AmeComponents/VibeProfiles/VibeProfile.sol\":7892:7894  _b */\n      dup2\n        /* \"contracts/AmeComponents/VibeProfiles/VibeProfile.sol\":7875:7895  abi.encodePacked(_b) */\n      add(0x20, mload(0x40))\n      tag_377\n      swap2\n      swap1\n      tag_96\n      jump\t// in\n    tag_377:\n      mload(0x40)\n      0x20\n      dup2\n      dup4\n      sub\n      sub\n      dup2\n      mstore\n      swap1\n      0x40\n      mstore\n        /* \"contracts/AmeComponents/VibeProfiles/VibeProfile.sol\":7865:7896  keccak256(abi.encodePacked(_b)) */\n      dup1\n      mload\n      swap1\n      0x20\n      add\n      keccak256\n        /* \"contracts/AmeComponents/VibeProfiles/VibeProfile.sol\":7857:7859  _a */\n      dup4\n        /* \"contracts/AmeComponents/VibeProfiles/VibeProfile.sol\":7840:7860  abi.encodePacked(_a) */\n      add(0x20, mload(0x40))\n      tag_378\n      swap2\n      swap1\n      tag_96\n      jump\t// in\n    tag_378:\n      mload(0x40)\n      0x20\n      dup2\n      dup4\n      sub\n      sub\n      dup2\n      mstore\n      swap1\n      0x40\n      mstore\n        /* \"contracts/AmeComponents/VibeProfiles/VibeProfile.sol\":7830:7861  keccak256(abi.encodePacked(_a)) */\n      dup1\n      mload\n      swap1\n      0x20\n      add\n      keccak256\n        /* \"contracts/AmeComponents/VibeProfiles/VibeProfile.sol\":7830:7896  keccak256(abi.encodePacked(_a)) == keccak256(abi.encodePacked(_b)) */\n      eq\n        /* \"contracts/AmeComponents/VibeProfiles/VibeProfile.sol\":7811:7896  return... */\n      swap1\n      pop\n        /* \"contracts/AmeComponents/VibeProfiles/VibeProfile.sol\":7685:7903  function compareStrings(string memory _a, string memory _b)... */\n      swap3\n      swap2\n      pop\n      pop\n      jump\t// out\n        /* \"#utility.yul\":7:134   */\n    tag_379:\n        /* \"#utility.yul\":87:93   */\n      0x00\n        /* \"#utility.yul\":121:126   */\n      dup2\n        /* \"#utility.yul\":115:127   */\n      mload\n        /* \"#utility.yul\":105:127   */\n      swap1\n      pop\n        /* \"#utility.yul\":7:134   */\n      swap2\n      swap1\n      pop\n      jump\t// out\n        /* \"#utility.yul\":140:322   */\n    tag_380:\n        /* \"#utility.yul\":237:248   */\n      0x00\n        /* \"#utility.yul\":271:277   */\n      dup3\n        /* \"#utility.yul\":266:269   */\n      dup3\n        /* \"#utility.yul\":259:278   */\n      mstore\n        /* \"#utility.yul\":311:315   */\n      0x20\n        /* \"#utility.yul\":306:309   */\n      dup3\n        /* \"#utility.yul\":302:316   */\n      add\n        /* \"#utility.yul\":287:316   */\n      swap1\n      pop\n        /* \"#utility.yul\":140:322   */\n      swap3\n      swap2\n      pop\n      pop\n      jump\t// out\n        /* \"#utility.yul\":328:473   */\n    tag_381:\n        /* \"#utility.yul\":408:412   */\n      0x00\n        /* \"#utility.yul\":431:434   */\n      dup2\n        /* \"#utility.yul\":423:434   */\n      swap1\n      pop\n        /* \"#utility.yul\":461:465   */\n      0x20\n        /* \"#utility.yul\":456:459   */\n      dup3\n        /* \"#utility.yul\":452:466   */\n      add\n        /* \"#utility.yul\":444:466   */\n      swap1\n      pop\n        /* \"#utility.yul\":328:473   */\n      swap2\n      swap1\n      pop\n      jump\t// out\n        /* \"#utility.yul\":479:659   */\n    tag_73:\n        /* \"#utility.yul\":527:604   */\n      0x4e487b7100000000000000000000000000000000000000000000000000000000\n        /* \"#utility.yul\":524:525   */\n      0x00\n        /* \"#utility.yul\":517:605   */\n      mstore\n        /* \"#utility.yul\":624:628   */\n      0x21\n        /* \"#utility.yul\":621:622   */\n      0x04\n        /* \"#utility.yul\":614:629   */\n      mstore\n        /* \"#utility.yul\":648:652   */\n      0x24\n        /* \"#utility.yul\":645:646   */\n      0x00\n        /* \"#utility.yul\":638:653   */\n      revert\n        /* \"#utility.yul\":665:783   */\n    tag_382:\n        /* \"#utility.yul\":751:752   */\n      0x04\n        /* \"#utility.yul\":744:749   */\n      dup2\n        /* \"#utility.yul\":741:753   */\n      lt\n        /* \"#utility.yul\":731:777   */\n      tag_490\n      jumpi\n        /* \"#utility.yul\":757:775   */\n      tag_491\n      tag_73\n      jump\t// in\n    tag_491:\n        /* \"#utility.yul\":731:777   */\n    tag_490:\n        /* \"#utility.yul\":665:783   */\n      pop\n      jump\t// out\n        /* \"#utility.yul\":789:926   */\n    tag_383:\n        /* \"#utility.yul\":839:846   */\n      0x00\n        /* \"#utility.yul\":868:873   */\n      dup2\n        /* \"#utility.yul\":857:873   */\n      swap1\n      pop\n        /* \"#utility.yul\":874:920   */\n      tag_493\n        /* \"#utility.yul\":914:919   */\n      dup3\n        /* \"#utility.yul\":874:920   */\n      tag_382\n      jump\t// in\n    tag_493:\n        /* \"#utility.yul\":789:926   */\n      swap2\n      swap1\n      pop\n      jump\t// out\n        /* \"#utility.yul\":932:1069   */\n    tag_384:\n        /* \"#utility.yul\":993:1002   */\n      0x00\n        /* \"#utility.yul\":1026:1063   */\n      tag_495\n        /* \"#utility.yul\":1057:1062   */\n      dup3\n        /* \"#utility.yul\":1026:1063   */\n      tag_383\n      jump\t// in\n    tag_495:\n        /* \"#utility.yul\":1013:1063   */\n      swap1\n      pop\n        /* \"#utility.yul\":932:1069   */\n      swap2\n      swap1\n      pop\n      jump\t// out\n        /* \"#utility.yul\":1075:1218   */\n    tag_385:\n        /* \"#utility.yul\":1163:1211   */\n      tag_497\n        /* \"#utility.yul\":1205:1210   */\n      dup2\n        /* \"#utility.yul\":1163:1211   */\n      tag_384\n      jump\t// in\n    tag_497:\n        /* \"#utility.yul\":1158:1161   */\n      dup3\n        /* \"#utility.yul\":1151:1212   */\n      mstore\n        /* \"#utility.yul\":1075:1218   */\n      pop\n      pop\n      jump\t// out\n        /* \"#utility.yul\":1224:1425   */\n    tag_386:\n        /* \"#utility.yul\":1304:1314   */\n      0x00\n        /* \"#utility.yul\":1325:1382   */\n      tag_499\n        /* \"#utility.yul\":1378:1381   */\n      dup4\n        /* \"#utility.yul\":1370:1376   */\n      dup4\n        /* \"#utility.yul\":1325:1382   */\n      tag_385\n      jump\t// in\n    tag_499:\n        /* \"#utility.yul\":1414:1418   */\n      0x20\n        /* \"#utility.yul\":1409:1412   */\n      dup4\n        /* \"#utility.yul\":1405:1419   */\n      add\n        /* \"#utility.yul\":1391:1419   */\n      swap1\n      pop\n        /* \"#utility.yul\":1224:1425   */\n      swap3\n      swap2\n      pop\n      pop\n      jump\t// out\n        /* \"#utility.yul\":1431:1557   */\n    tag_387:\n        /* \"#utility.yul\":1514:1518   */\n      0x00\n        /* \"#utility.yul\":1546:1550   */\n      0x20\n        /* \"#utility.yul\":1541:1544   */\n      dup3\n        /* \"#utility.yul\":1537:1551   */\n      add\n        /* \"#utility.yul\":1529:1551   */\n      swap1\n      pop\n        /* \"#utility.yul\":1431:1557   */\n      swap2\n      swap1\n      pop\n      jump\t// out\n        /* \"#utility.yul\":1611:2402   */\n    tag_388:\n        /* \"#utility.yul\":1741:1744   */\n      0x00\n        /* \"#utility.yul\":1770:1837   */\n      tag_502\n        /* \"#utility.yul\":1831:1836   */\n      dup3\n        /* \"#utility.yul\":1770:1837   */\n      tag_379\n      jump\t// in\n    tag_502:\n        /* \"#utility.yul\":1853:1937   */\n      tag_503\n        /* \"#utility.yul\":1930:1936   */\n      dup2\n        /* \"#utility.yul\":1925:1928   */\n      dup6\n        /* \"#utility.yul\":1853:1937   */\n      tag_380\n      jump\t// in\n    tag_503:\n        /* \"#utility.yul\":1846:1937   */\n      swap4\n      pop\n        /* \"#utility.yul\":1961:2030   */\n      tag_504\n        /* \"#utility.yul\":2024:2029   */\n      dup4\n        /* \"#utility.yul\":1961:2030   */\n      tag_381\n      jump\t// in\n    tag_504:\n        /* \"#utility.yul\":2053:2060   */\n      dup1\n        /* \"#utility.yul\":2084:2085   */\n      0x00\n        /* \"#utility.yul\":2069:2377   */\n    tag_505:\n        /* \"#utility.yul\":2094:2100   */\n      dup4\n        /* \"#utility.yul\":2091:2092   */\n      dup2\n        /* \"#utility.yul\":2088:2101   */\n      lt\n        /* \"#utility.yul\":2069:2377   */\n      iszero\n      tag_507\n      jumpi\n        /* \"#utility.yul\":2170:2176   */\n      dup2\n        /* \"#utility.yul\":2164:2177   */\n      mload\n        /* \"#utility.yul\":2197:2271   */\n      tag_508\n        /* \"#utility.yul\":2267:2270   */\n      dup9\n        /* \"#utility.yul\":2252:2265   */\n      dup3\n        /* \"#utility.yul\":2197:2271   */\n      tag_386\n      jump\t// in\n    tag_508:\n        /* \"#utility.yul\":2190:2271   */\n      swap8\n      pop\n        /* \"#utility.yul\":2294:2367   */\n      tag_509\n        /* \"#utility.yul\":2360:2366   */\n      dup4\n        /* \"#utility.yul\":2294:2367   */\n      tag_387\n      jump\t// in\n    tag_509:\n        /* \"#utility.yul\":2284:2367   */\n      swap3\n      pop\n        /* \"#utility.yul\":2129:2377   */\n      pop\n        /* \"#utility.yul\":2116:2117   */\n      0x01\n        /* \"#utility.yul\":2113:2114   */\n      dup2\n        /* \"#utility.yul\":2109:2118   */\n      add\n        /* \"#utility.yul\":2104:2118   */\n      swap1\n      pop\n        /* \"#utility.yul\":2069:2377   */\n      jump(tag_505)\n    tag_507:\n        /* \"#utility.yul\":2073:2087   */\n      pop\n        /* \"#utility.yul\":2393:2396   */\n      dup6\n        /* \"#utility.yul\":2386:2396   */\n      swap4\n      pop\n        /* \"#utility.yul\":1746:2402   */\n      pop\n      pop\n      pop\n        /* \"#utility.yul\":1611:2402   */\n      swap3\n      swap2\n      pop\n      pop\n      jump\t// out\n        /* \"#utility.yul\":2408:2803   */\n    tag_16:\n        /* \"#utility.yul\":2562:2566   */\n      0x00\n        /* \"#utility.yul\":2600:2602   */\n      0x20\n        /* \"#utility.yul\":2589:2598   */\n      dup3\n        /* \"#utility.yul\":2585:2603   */\n      add\n        /* \"#utility.yul\":2577:2603   */\n      swap1\n      pop\n        /* \"#utility.yul\":2649:2658   */\n      dup2\n        /* \"#utility.yul\":2643:2647   */\n      dup2\n        /* \"#utility.yul\":2639:2659   */\n      sub\n        /* \"#utility.yul\":2635:2636   */\n      0x00\n        /* \"#utility.yul\":2624:2633   */\n      dup4\n        /* \"#utility.yul\":2620:2637   */\n      add\n        /* \"#utility.yul\":2613:2660   */\n      mstore\n        /* \"#utility.yul\":2677:2796   */\n      tag_511\n        /* \"#utility.yul\":2791:2795   */\n      dup2\n        /* \"#utility.yul\":2782:2788   */\n      dup5\n        /* \"#utility.yul\":2677:2796   */\n      tag_388\n      jump\t// in\n    tag_511:\n        /* \"#utility.yul\":2669:2796   */\n      swap1\n      pop\n        /* \"#utility.yul\":2408:2803   */\n      swap3\n      swap2\n      pop\n      pop\n      jump\t// out\n        /* \"#utility.yul\":2809:2884   */\n    tag_389:\n        /* \"#utility.yul\":2842:2848   */\n      0x00\n        /* \"#utility.yul\":2875:2877   */\n      0x40\n        /* \"#utility.yul\":2869:2878   */\n      mload\n        /* \"#utility.yul\":2859:2878   */\n      swap1\n      pop\n        /* \"#utility.yul\":2809:2884   */\n      swap1\n      jump\t// out\n        /* \"#utility.yul\":2890:3007   */\n    tag_390:\n        /* \"#utility.yul\":2999:3000   */\n      0x00\n        /* \"#utility.yul\":2996:2997   */\n      dup1\n        /* \"#utility.yul\":2989:3001   */\n      revert\n        /* \"#utility.yul\":3013:3130   */\n    tag_391:\n        /* \"#utility.yul\":3122:3123   */\n      0x00\n        /* \"#utility.yul\":3119:3120   */\n      dup1\n        /* \"#utility.yul\":3112:3124   */\n      revert\n        /* \"#utility.yul\":3136:3253   */\n    tag_392:\n        /* \"#utility.yul\":3245:3246   */\n      0x00\n        /* \"#utility.yul\":3242:3243   */\n      dup1\n        /* \"#utility.yul\":3235:3247   */\n      revert\n        /* \"#utility.yul\":3259:3376   */\n    tag_393:\n        /* \"#utility.yul\":3368:3369   */\n      0x00\n        /* \"#utility.yul\":3365:3366   */\n      dup1\n        /* \"#utility.yul\":3358:3370   */\n      revert\n        /* \"#utility.yul\":3382:3484   */\n    tag_394:\n        /* \"#utility.yul\":3423:3429   */\n      0x00\n        /* \"#utility.yul\":3474:3476   */\n      0x1f\n        /* \"#utility.yul\":3470:3477   */\n      not\n        /* \"#utility.yul\":3465:3467   */\n      0x1f\n        /* \"#utility.yul\":3458:3463   */\n      dup4\n        /* \"#utility.yul\":3454:3468   */\n      add\n        /* \"#utility.yul\":3450:3478   */\n      and\n        /* \"#utility.yul\":3440:3478   */\n      swap1\n      pop\n        /* \"#utility.yul\":3382:3484   */\n      swap2\n      swap1\n      pop\n      jump\t// out\n        /* \"#utility.yul\":3490:3670   */\n    tag_66:\n        /* \"#utility.yul\":3538:3615   */\n      0x4e487b7100000000000000000000000000000000000000000000000000000000\n        /* \"#utility.yul\":3535:3536   */\n      0x00\n        /* \"#utility.yul\":3528:3616   */\n      mstore\n        /* \"#utility.yul\":3635:3639   */\n      0x41\n        /* \"#utility.yul\":3632:3633   */\n      0x04\n        /* \"#utility.yul\":3625:3640   */\n      mstore\n        /* \"#utility.yul\":3659:3663   */\n      0x24\n        /* \"#utility.yul\":3656:3657   */\n      0x00\n        /* \"#utility.yul\":3649:3664   */\n      revert\n        /* \"#utility.yul\":3676:3957   */\n    tag_395:\n        /* \"#utility.yul\":3759:3786   */\n      tag_520\n        /* \"#utility.yul\":3781:3785   */\n      dup3\n        /* \"#utility.yul\":3759:3786   */\n      tag_394\n      jump\t// in\n    tag_520:\n        /* \"#utility.yul\":3751:3757   */\n      dup2\n        /* \"#utility.yul\":3747:3787   */\n      add\n        /* \"#utility.yul\":3889:3895   */\n      dup2\n        /* \"#utility.yul\":3877:3887   */\n      dup2\n        /* \"#utility.yul\":3874:3896   */\n      lt\n        /* \"#utility.yul\":3853:3871   */\n      0xffffffffffffffff\n        /* \"#utility.yul\":3841:3851   */\n      dup3\n        /* \"#utility.yul\":3838:3872   */\n      gt\n        /* \"#utility.yul\":3835:3897   */\n      or\n        /* \"#utility.yul\":3832:3920   */\n      iszero\n      tag_521\n      jumpi\n        /* \"#utility.yul\":3900:3918   */\n      tag_522\n      tag_66\n      jump\t// in\n    tag_522:\n        /* \"#utility.yul\":3832:3920   */\n    tag_521:\n        /* \"#utility.yul\":3940:3950   */\n      dup1\n        /* \"#utility.yul\":3936:3938   */\n      0x40\n        /* \"#utility.yul\":3929:3951   */\n      mstore\n        /* \"#utility.yul\":3719:3957   */\n      pop\n        /* \"#utility.yul\":3676:3957   */\n      pop\n      pop\n      jump\t// out\n        /* \"#utility.yul\":3963:4092   */\n    tag_396:\n        /* \"#utility.yul\":3997:4003   */\n      0x00\n        /* \"#utility.yul\":4024:4044   */\n      tag_524\n      tag_389\n      jump\t// in\n    tag_524:\n        /* \"#utility.yul\":4014:4044   */\n      swap1\n      pop\n        /* \"#utility.yul\":4053:4086   */\n      tag_525\n        /* \"#utility.yul\":4081:4085   */\n      dup3\n        /* \"#utility.yul\":4073:4079   */\n      dup3\n        /* \"#utility.yul\":4053:4086   */\n      tag_395\n      jump\t// in\n    tag_525:\n        /* \"#utility.yul\":3963:4092   */\n      swap2\n      swap1\n      pop\n      jump\t// out\n        /* \"#utility.yul\":4098:4406   */\n    tag_397:\n        /* \"#utility.yul\":4160:4164   */\n      0x00\n        /* \"#utility.yul\":4250:4268   */\n      0xffffffffffffffff\n        /* \"#utility.yul\":4242:4248   */\n      dup3\n        /* \"#utility.yul\":4239:4269   */\n      gt\n        /* \"#utility.yul\":4236:4292   */\n      iszero\n      tag_527\n      jumpi\n        /* \"#utility.yul\":4272:4290   */\n      tag_528\n      tag_66\n      jump\t// in\n    tag_528:\n        /* \"#utility.yul\":4236:4292   */\n    tag_527:\n        /* \"#utility.yul\":4310:4339   */\n      tag_529\n        /* \"#utility.yul\":4332:4338   */\n      dup3\n        /* \"#utility.yul\":4310:4339   */\n      tag_394\n      jump\t// in\n    tag_529:\n        /* \"#utility.yul\":4302:4339   */\n      swap1\n      pop\n        /* \"#utility.yul\":4394:4398   */\n      0x20\n        /* \"#utility.yul\":4388:4392   */\n      dup2\n        /* \"#utility.yul\":4384:4399   */\n      add\n        /* \"#utility.yul\":4376:4399   */\n      swap1\n      pop\n        /* \"#utility.yul\":4098:4406   */\n      swap2\n      swap1\n      pop\n      jump\t// out\n        /* \"#utility.yul\":4412:4558   */\n    tag_398:\n        /* \"#utility.yul\":4509:4515   */\n      dup3\n        /* \"#utility.yul\":4504:4507   */\n      dup2\n        /* \"#utility.yul\":4499:4502   */\n      dup4\n        /* \"#utility.yul\":4486:4516   */\n      calldatacopy\n        /* \"#utility.yul\":4550:4551   */\n      0x00\n        /* \"#utility.yul\":4541:4547   */\n      dup4\n        /* \"#utility.yul\":4536:4539   */\n      dup4\n        /* \"#utility.yul\":4532:4548   */\n      add\n        /* \"#utility.yul\":4525:4552   */\n      mstore\n        /* \"#utility.yul\":4412:4558   */\n      pop\n      pop\n      pop\n      jump\t// out\n        /* \"#utility.yul\":4564:4989   */\n    tag_399:\n        /* \"#utility.yul\":4642:4647   */\n      0x00\n        /* \"#utility.yul\":4667:4733   */\n      tag_532\n        /* \"#utility.yul\":4683:4732   */\n      tag_533\n        /* \"#utility.yul\":4725:4731   */\n      dup5\n        /* \"#utility.yul\":4683:4732   */\n      tag_397\n      jump\t// in\n    tag_533:\n        /* \"#utility.yul\":4667:4733   */\n      tag_396\n      jump\t// in\n    tag_532:\n        /* \"#utility.yul\":4658:4733   */\n      swap1\n      pop\n        /* \"#utility.yul\":4756:4762   */\n      dup3\n        /* \"#utility.yul\":4749:4754   */\n      dup2\n        /* \"#utility.yul\":4742:4763   */\n      mstore\n        /* \"#utility.yul\":4794:4798   */\n      0x20\n        /* \"#utility.yul\":4787:4792   */\n      dup2\n        /* \"#utility.yul\":4783:4799   */\n      add\n        /* \"#utility.yul\":4832:4835   */\n      dup5\n        /* \"#utility.yul\":4823:4829   */\n      dup5\n        /* \"#utility.yul\":4818:4821   */\n      dup5\n        /* \"#utility.yul\":4814:4830   */\n      add\n        /* \"#utility.yul\":4811:4836   */\n      gt\n        /* \"#utility.yul\":4808:4920   */\n      iszero\n      tag_534\n      jumpi\n        /* \"#utility.yul\":4839:4918   */\n      tag_535\n      tag_393\n      jump\t// in\n    tag_535:\n        /* \"#utility.yul\":4808:4920   */\n    tag_534:\n        /* \"#utility.yul\":4929:4983   */\n      tag_536\n        /* \"#utility.yul\":4976:4982   */\n      dup5\n        /* \"#utility.yul\":4971:4974   */\n      dup3\n        /* \"#utility.yul\":4966:4969   */\n      dup6\n        /* \"#utility.yul\":4929:4983   */\n      tag_398\n      jump\t// in\n    tag_536:\n        /* \"#utility.yul\":4648:4989   */\n      pop\n        /* \"#utility.yul\":4564:4989   */\n      swap4\n      swap3\n      pop\n      pop\n      pop\n      jump\t// out\n        /* \"#utility.yul\":5009:5349   */\n    tag_400:\n        /* \"#utility.yul\":5065:5070   */\n      0x00\n        /* \"#utility.yul\":5114:5117   */\n      dup3\n        /* \"#utility.yul\":5107:5111   */\n      0x1f\n        /* \"#utility.yul\":5099:5105   */\n      dup4\n        /* \"#utility.yul\":5095:5112   */\n      add\n        /* \"#utility.yul\":5091:5118   */\n      slt\n        /* \"#utility.yul\":5081:5203   */\n      tag_538\n      jumpi\n        /* \"#utility.yul\":5122:5201   */\n      tag_539\n      tag_392\n      jump\t// in\n    tag_539:\n        /* \"#utility.yul\":5081:5203   */\n    tag_538:\n        /* \"#utility.yul\":5239:5245   */\n      dup2\n        /* \"#utility.yul\":5226:5246   */\n      calldataload\n        /* \"#utility.yul\":5264:5343   */\n      tag_540\n        /* \"#utility.yul\":5339:5342   */\n      dup5\n        /* \"#utility.yul\":5331:5337   */\n      dup3\n        /* \"#utility.yul\":5324:5328   */\n      0x20\n        /* \"#utility.yul\":5316:5322   */\n      dup7\n        /* \"#utility.yul\":5312:5329   */\n      add\n        /* \"#utility.yul\":5264:5343   */\n      tag_399\n      jump\t// in\n    tag_540:\n        /* \"#utility.yul\":5255:5343   */\n      swap2\n      pop\n        /* \"#utility.yul\":5071:5349   */\n      pop\n        /* \"#utility.yul\":5009:5349   */\n      swap3\n      swap2\n      pop\n      pop\n      jump\t// out\n        /* \"#utility.yul\":5355:5864   */\n    tag_20:\n        /* \"#utility.yul\":5424:5430   */\n      0x00\n        /* \"#utility.yul\":5473:5475   */\n      0x20\n        /* \"#utility.yul\":5461:5470   */\n      dup3\n        /* \"#utility.yul\":5452:5459   */\n      dup5\n        /* \"#utility.yul\":5448:5471   */\n      sub\n        /* \"#utility.yul\":5444:5476   */\n      slt\n        /* \"#utility.yul\":5441:5560   */\n      iszero\n      tag_542\n      jumpi\n        /* \"#utility.yul\":5479:5558   */\n      tag_543\n      tag_390\n      jump\t// in\n    tag_543:\n        /* \"#utility.yul\":5441:5560   */\n    tag_542:\n        /* \"#utility.yul\":5627:5628   */\n      0x00\n        /* \"#utility.yul\":5616:5625   */\n      dup3\n        /* \"#utility.yul\":5612:5629   */\n      add\n        /* \"#utility.yul\":5599:5630   */\n      calldataload\n        /* \"#utility.yul\":5657:5675   */\n      0xffffffffffffffff\n        /* \"#utility.yul\":5649:5655   */\n      dup2\n        /* \"#utility.yul\":5646:5676   */\n      gt\n        /* \"#utility.yul\":5643:5760   */\n      iszero\n      tag_544\n      jumpi\n        /* \"#utility.yul\":5679:5758   */\n      tag_545\n      tag_391\n      jump\t// in\n    tag_545:\n        /* \"#utility.yul\":5643:5760   */\n    tag_544:\n        /* \"#utility.yul\":5784:5847   */\n      tag_546\n        /* \"#utility.yul\":5839:5846   */\n      dup5\n        /* \"#utility.yul\":5830:5836   */\n      dup3\n        /* \"#utility.yul\":5819:5828   */\n      dup6\n        /* \"#utility.yul\":5815:5837   */\n      add\n        /* \"#utility.yul\":5784:5847   */\n      tag_400\n      jump\t// in\n    tag_546:\n        /* \"#utility.yul\":5774:5847   */\n      swap2\n      pop\n        /* \"#utility.yul\":5570:5857   */\n      pop\n        /* \"#utility.yul\":5355:5864   */\n      swap3\n      swap2\n      pop\n      pop\n      jump\t// out\n        /* \"#utility.yul\":5870:5992   */\n    tag_401:\n        /* \"#utility.yul\":5945:5951   */\n      0x00\n        /* \"#utility.yul\":5979:5984   */\n      dup2\n        /* \"#utility.yul\":5973:5985   */\n      mload\n        /* \"#utility.yul\":5963:5985   */\n      swap1\n      pop\n        /* \"#utility.yul\":5870:5992   */\n      swap2\n      swap1\n      pop\n      jump\t// out\n        /* \"#utility.yul\":5998:6138   */\n    tag_402:\n        /* \"#utility.yul\":6073:6077   */\n      0x00\n        /* \"#utility.yul\":6096:6099   */\n      dup2\n        /* \"#utility.yul\":6088:6099   */\n      swap1\n      pop\n        /* \"#utility.yul\":6126:6130   */\n      0x20\n        /* \"#utility.yul\":6121:6124   */\n      dup3\n        /* \"#utility.yul\":6117:6131   */\n      add\n        /* \"#utility.yul\":6109:6131   */\n      swap1\n      pop\n        /* \"#utility.yul\":5998:6138   */\n      swap2\n      swap1\n      pop\n      jump\t// out\n        /* \"#utility.yul\":6144:6259   */\n    tag_403:\n        /* \"#utility.yul\":6225:6228   */\n      0xc7\n        /* \"#utility.yul\":6218:6223   */\n      dup2\n        /* \"#utility.yul\":6215:6229   */\n      lt\n        /* \"#utility.yul\":6205:6253   */\n      tag_550\n      jumpi\n        /* \"#utility.yul\":6233:6251   */\n      tag_551\n      tag_73\n      jump\t// in\n    tag_551:\n        /* \"#utility.yul\":6205:6253   */\n    tag_550:\n        /* \"#utility.yul\":6144:6259   */\n      pop\n      jump\t// out\n        /* \"#utility.yul\":6265:6392   */\n    tag_404:\n        /* \"#utility.yul\":6310:6317   */\n      0x00\n        /* \"#utility.yul\":6339:6344   */\n      dup2\n        /* \"#utility.yul\":6328:6344   */\n      swap1\n      pop\n        /* \"#utility.yul\":6345:6386   */\n      tag_553\n        /* \"#utility.yul\":6380:6385   */\n      dup3\n        /* \"#utility.yul\":6345:6386   */\n      tag_403\n      jump\t// in\n    tag_553:\n        /* \"#utility.yul\":6265:6392   */\n      swap2\n      swap1\n      pop\n      jump\t// out\n        /* \"#utility.yul\":6398:6525   */\n    tag_405:\n        /* \"#utility.yul\":6454:6463   */\n      0x00\n        /* \"#utility.yul\":6487:6519   */\n      tag_555\n        /* \"#utility.yul\":6513:6518   */\n      dup3\n        /* \"#utility.yul\":6487:6519   */\n      tag_404\n      jump\t// in\n    tag_555:\n        /* \"#utility.yul\":6474:6519   */\n      swap1\n      pop\n        /* \"#utility.yul\":6398:6525   */\n      swap2\n      swap1\n      pop\n      jump\t// out\n        /* \"#utility.yul\":6531:6664   */\n    tag_406:\n        /* \"#utility.yul\":6614:6657   */\n      tag_557\n        /* \"#utility.yul\":6651:6656   */\n      dup2\n        /* \"#utility.yul\":6614:6657   */\n      tag_405\n      jump\t// in\n    tag_557:\n        /* \"#utility.yul\":6609:6612   */\n      dup3\n        /* \"#utility.yul\":6602:6658   */\n      mstore\n        /* \"#utility.yul\":6531:6664   */\n      pop\n      pop\n      jump\t// out\n        /* \"#utility.yul\":6670:6861   */\n    tag_407:\n        /* \"#utility.yul\":6745:6755   */\n      0x00\n        /* \"#utility.yul\":6766:6818   */\n      tag_559\n        /* \"#utility.yul\":6814:6817   */\n      dup4\n        /* \"#utility.yul\":6806:6812   */\n      dup4\n        /* \"#utility.yul\":6766:6818   */\n      tag_406\n      jump\t// in\n    tag_559:\n        /* \"#utility.yul\":6850:6854   */\n      0x20\n        /* \"#utility.yul\":6845:6848   */\n      dup4\n        /* \"#utility.yul\":6841:6855   */\n      add\n        /* \"#utility.yul\":6827:6855   */\n      swap1\n      pop\n        /* \"#utility.yul\":6670:6861   */\n      swap3\n      swap2\n      pop\n      pop\n      jump\t// out\n        /* \"#utility.yul\":6867:6988   */\n    tag_408:\n        /* \"#utility.yul\":6945:6949   */\n      0x00\n        /* \"#utility.yul\":6977:6981   */\n      0x20\n        /* \"#utility.yul\":6972:6975   */\n      dup3\n        /* \"#utility.yul\":6968:6982   */\n      add\n        /* \"#utility.yul\":6960:6982   */\n      swap1\n      pop\n        /* \"#utility.yul\":6867:6988   */\n      swap2\n      swap1\n      pop\n      jump\t// out\n        /* \"#utility.yul\":7030:7796   */\n    tag_409:\n        /* \"#utility.yul\":7155:7158   */\n      0x00\n        /* \"#utility.yul\":7184:7246   */\n      tag_562\n        /* \"#utility.yul\":7240:7245   */\n      dup3\n        /* \"#utility.yul\":7184:7246   */\n      tag_401\n      jump\t// in\n    tag_562:\n        /* \"#utility.yul\":7262:7346   */\n      tag_563\n        /* \"#utility.yul\":7339:7345   */\n      dup2\n        /* \"#utility.yul\":7334:7337   */\n      dup6\n        /* \"#utility.yul\":7262:7346   */\n      tag_380\n      jump\t// in\n    tag_563:\n        /* \"#utility.yul\":7255:7346   */\n      swap4\n      pop\n        /* \"#utility.yul\":7370:7434   */\n      tag_564\n        /* \"#utility.yul\":7428:7433   */\n      dup4\n        /* \"#utility.yul\":7370:7434   */\n      tag_402\n      jump\t// in\n    tag_564:\n        /* \"#utility.yul\":7457:7464   */\n      dup1\n        /* \"#utility.yul\":7488:7489   */\n      0x00\n        /* \"#utility.yul\":7473:7771   */\n    tag_565:\n        /* \"#utility.yul\":7498:7504   */\n      dup4\n        /* \"#utility.yul\":7495:7496   */\n      dup2\n        /* \"#utility.yul\":7492:7505   */\n      lt\n        /* \"#utility.yul\":7473:7771   */\n      iszero\n      tag_567\n      jumpi\n        /* \"#utility.yul\":7574:7580   */\n      dup2\n        /* \"#utility.yul\":7568:7581   */\n      mload\n        /* \"#utility.yul\":7601:7670   */\n      tag_568\n        /* \"#utility.yul\":7666:7669   */\n      dup9\n        /* \"#utility.yul\":7651:7664   */\n      dup3\n        /* \"#utility.yul\":7601:7670   */\n      tag_407\n      jump\t// in\n    tag_568:\n        /* \"#utility.yul\":7594:7670   */\n      swap8\n      pop\n        /* \"#utility.yul\":7693:7761   */\n      tag_569\n        /* \"#utility.yul\":7754:7760   */\n      dup4\n        /* \"#utility.yul\":7693:7761   */\n      tag_408\n      jump\t// in\n    tag_569:\n        /* \"#utility.yul\":7683:7761   */\n      swap3\n      pop\n        /* \"#utility.yul\":7533:7771   */\n      pop\n        /* \"#utility.yul\":7520:7521   */\n      0x01\n        /* \"#utility.yul\":7517:7518   */\n      dup2\n        /* \"#utility.yul\":7513:7522   */\n      add\n        /* \"#utility.yul\":7508:7522   */\n      swap1\n      pop\n        /* \"#utility.yul\":7473:7771   */\n      jump(tag_565)\n    tag_567:\n        /* \"#utility.yul\":7477:7491   */\n      pop\n        /* \"#utility.yul\":7787:7790   */\n      dup6\n        /* \"#utility.yul\":7780:7790   */\n      swap4\n      pop\n        /* \"#utility.yul\":7160:7796   */\n      pop\n      pop\n      pop\n        /* \"#utility.yul\":7030:7796   */\n      swap3\n      swap2\n      pop\n      pop\n      jump\t// out\n        /* \"#utility.yul\":7802:8460   */\n    tag_23:\n        /* \"#utility.yul\":8035:8039   */\n      0x00\n        /* \"#utility.yul\":8073:8075   */\n      0x40\n        /* \"#utility.yul\":8062:8071   */\n      dup3\n        /* \"#utility.yul\":8058:8076   */\n      add\n        /* \"#utility.yul\":8050:8076   */\n      swap1\n      pop\n        /* \"#utility.yul\":8122:8131   */\n      dup2\n        /* \"#utility.yul\":8116:8120   */\n      dup2\n        /* \"#utility.yul\":8112:8132   */\n      sub\n        /* \"#utility.yul\":8108:8109   */\n      0x00\n        /* \"#utility.yul\":8097:8106   */\n      dup4\n        /* \"#utility.yul\":8093:8110   */\n      add\n        /* \"#utility.yul\":8086:8133   */\n      mstore\n        /* \"#utility.yul\":8150:8264   */\n      tag_571\n        /* \"#utility.yul\":8259:8263   */\n      dup2\n        /* \"#utility.yul\":8250:8256   */\n      dup6\n        /* \"#utility.yul\":8150:8264   */\n      tag_409\n      jump\t// in\n    tag_571:\n        /* \"#utility.yul\":8142:8264   */\n      swap1\n      pop\n        /* \"#utility.yul\":8311:8320   */\n      dup2\n        /* \"#utility.yul\":8305:8309   */\n      dup2\n        /* \"#utility.yul\":8301:8321   */\n      sub\n        /* \"#utility.yul\":8296:8298   */\n      0x20\n        /* \"#utility.yul\":8285:8294   */\n      dup4\n        /* \"#utility.yul\":8281:8299   */\n      add\n        /* \"#utility.yul\":8274:8322   */\n      mstore\n        /* \"#utility.yul\":8339:8453   */\n      tag_572\n        /* \"#utility.yul\":8448:8452   */\n      dup2\n        /* \"#utility.yul\":8439:8445   */\n      dup5\n        /* \"#utility.yul\":8339:8453   */\n      tag_409\n      jump\t// in\n    tag_572:\n        /* \"#utility.yul\":8331:8453   */\n      swap1\n      pop\n        /* \"#utility.yul\":7802:8460   */\n      swap4\n      swap3\n      pop\n      pop\n      pop\n      jump\t// out\n        /* \"#utility.yul\":8466:8565   */\n    tag_410:\n        /* \"#utility.yul\":8518:8524   */\n      0x00\n        /* \"#utility.yul\":8552:8557   */\n      dup2\n        /* \"#utility.yul\":8546:8558   */\n      mload\n        /* \"#utility.yul\":8536:8558   */\n      swap1\n      pop\n        /* \"#utility.yul\":8466:8565   */\n      swap2\n      swap1\n      pop\n      jump\t// out\n        /* \"#utility.yul\":8571:8740   */\n    tag_411:\n        /* \"#utility.yul\":8655:8666   */\n      0x00\n        /* \"#utility.yul\":8689:8695   */\n      dup3\n        /* \"#utility.yul\":8684:8687   */\n      dup3\n        /* \"#utility.yul\":8677:8696   */\n      mstore\n        /* \"#utility.yul\":8729:8733   */\n      0x20\n        /* \"#utility.yul\":8724:8727   */\n      dup3\n        /* \"#utility.yul\":8720:8734   */\n      add\n        /* \"#utility.yul\":8705:8734   */\n      swap1\n      pop\n        /* \"#utility.yul\":8571:8740   */\n      swap3\n      swap2\n      pop\n      pop\n      jump\t// out\n        /* \"#utility.yul\":8746:8992   */\n    tag_412:\n        /* \"#utility.yul\":8827:8828   */\n      0x00\n        /* \"#utility.yul\":8837:8950   */\n    tag_576:\n        /* \"#utility.yul\":8851:8857   */\n      dup4\n        /* \"#utility.yul\":8848:8849   */\n      dup2\n        /* \"#utility.yul\":8845:8858   */\n      lt\n        /* \"#utility.yul\":8837:8950   */\n      iszero\n      tag_578\n      jumpi\n        /* \"#utility.yul\":8936:8937   */\n      dup1\n        /* \"#utility.yul\":8931:8934   */\n      dup3\n        /* \"#utility.yul\":8927:8938   */\n      add\n        /* \"#utility.yul\":8921:8939   */\n      mload\n        /* \"#utility.yul\":8917:8918   */\n      dup2\n        /* \"#utility.yul\":8912:8915   */\n      dup5\n        /* \"#utility.yul\":8908:8919   */\n      add\n        /* \"#utility.yul\":8901:8940   */\n      mstore\n        /* \"#utility.yul\":8873:8875   */\n      0x20\n        /* \"#utility.yul\":8870:8871   */\n      dup2\n        /* \"#utility.yul\":8866:8876   */\n      add\n        /* \"#utility.yul\":8861:8876   */\n      swap1\n      pop\n        /* \"#utility.yul\":8837:8950   */\n      jump(tag_576)\n    tag_578:\n        /* \"#utility.yul\":8984:8985   */\n      0x00\n        /* \"#utility.yul\":8975:8981   */\n      dup5\n        /* \"#utility.yul\":8970:8973   */\n      dup5\n        /* \"#utility.yul\":8966:8982   */\n      add\n        /* \"#utility.yul\":8959:8986   */\n      mstore\n        /* \"#utility.yul\":8808:8992   */\n      pop\n        /* \"#utility.yul\":8746:8992   */\n      pop\n      pop\n      pop\n      jump\t// out\n        /* \"#utility.yul\":8998:9375   */\n    tag_413:\n        /* \"#utility.yul\":9086:9089   */\n      0x00\n        /* \"#utility.yul\":9114:9153   */\n      tag_580\n        /* \"#utility.yul\":9147:9152   */\n      dup3\n        /* \"#utility.yul\":9114:9153   */\n      tag_410\n      jump\t// in\n    tag_580:\n        /* \"#utility.yul\":9169:9240   */\n      tag_581\n        /* \"#utility.yul\":9233:9239   */\n      dup2\n        /* \"#utility.yul\":9228:9231   */\n      dup6\n        /* \"#utility.yul\":9169:9240   */\n      tag_411\n      jump\t// in\n    tag_581:\n        /* \"#utility.yul\":9162:9240   */\n      swap4\n      pop\n        /* \"#utility.yul\":9249:9314   */\n      tag_582\n        /* \"#utility.yul\":9307:9313   */\n      dup2\n        /* \"#utility.yul\":9302:9305   */\n      dup6\n        /* \"#utility.yul\":9295:9299   */\n      0x20\n        /* \"#utility.yul\":9288:9293   */\n      dup7\n        /* \"#utility.yul\":9284:9300   */\n      add\n        /* \"#utility.yul\":9249:9314   */\n      tag_412\n      jump\t// in\n    tag_582:\n        /* \"#utility.yul\":9339:9368   */\n      tag_583\n        /* \"#utility.yul\":9361:9367   */\n      dup2\n        /* \"#utility.yul\":9339:9368   */\n      tag_394\n      jump\t// in\n    tag_583:\n        /* \"#utility.yul\":9334:9337   */\n      dup5\n        /* \"#utility.yul\":9330:9369   */\n      add\n        /* \"#utility.yul\":9323:9369   */\n      swap2\n      pop\n        /* \"#utility.yul\":9090:9375   */\n      pop\n        /* \"#utility.yul\":8998:9375   */\n      swap3\n      swap2\n      pop\n      pop\n      jump\t// out\n        /* \"#utility.yul\":9381:9694   */\n    tag_29:\n        /* \"#utility.yul\":9494:9498   */\n      0x00\n        /* \"#utility.yul\":9532:9534   */\n      0x20\n        /* \"#utility.yul\":9521:9530   */\n      dup3\n        /* \"#utility.yul\":9517:9535   */\n      add\n        /* \"#utility.yul\":9509:9535   */\n      swap1\n      pop\n        /* \"#utility.yul\":9581:9590   */\n      dup2\n        /* \"#utility.yul\":9575:9579   */\n      dup2\n        /* \"#utility.yul\":9571:9591   */\n      sub\n        /* \"#utility.yul\":9567:9568   */\n      0x00\n        /* \"#utility.yul\":9556:9565   */\n      dup4\n        /* \"#utility.yul\":9552:9569   */\n      add\n        /* \"#utility.yul\":9545:9592   */\n      mstore\n        /* \"#utility.yul\":9609:9687   */\n      tag_585\n        /* \"#utility.yul\":9682:9686   */\n      dup2\n        /* \"#utility.yul\":9673:9679   */\n      dup5\n        /* \"#utility.yul\":9609:9687   */\n      tag_413\n      jump\t// in\n    tag_585:\n        /* \"#utility.yul\":9601:9687   */\n      swap1\n      pop\n        /* \"#utility.yul\":9381:9694   */\n      swap3\n      swap2\n      pop\n      pop\n      jump\t// out\n        /* \"#utility.yul\":9700:9790   */\n    tag_414:\n        /* \"#utility.yul\":9734:9741   */\n      0x00\n        /* \"#utility.yul\":9777:9782   */\n      dup2\n        /* \"#utility.yul\":9770:9783   */\n      iszero\n        /* \"#utility.yul\":9763:9784   */\n      iszero\n        /* \"#utility.yul\":9752:9784   */\n      swap1\n      pop\n        /* \"#utility.yul\":9700:9790   */\n      swap2\n      swap1\n      pop\n      jump\t// out\n        /* \"#utility.yul\":9796:9905   */\n    tag_415:\n        /* \"#utility.yul\":9877:9898   */\n      tag_588\n        /* \"#utility.yul\":9892:9897   */\n      dup2\n        /* \"#utility.yul\":9877:9898   */\n      tag_414\n      jump\t// in\n    tag_588:\n        /* \"#utility.yul\":9872:9875   */\n      dup3\n        /* \"#utility.yul\":9865:9899   */\n      mstore\n        /* \"#utility.yul\":9796:9905   */\n      pop\n      pop\n      jump\t// out\n        /* \"#utility.yul\":9911:10121   */\n    tag_35:\n        /* \"#utility.yul\":9998:10002   */\n      0x00\n        /* \"#utility.yul\":10036:10038   */\n      0x20\n        /* \"#utility.yul\":10025:10034   */\n      dup3\n        /* \"#utility.yul\":10021:10039   */\n      add\n        /* \"#utility.yul\":10013:10039   */\n      swap1\n      pop\n        /* \"#utility.yul\":10049:10114   */\n      tag_590\n        /* \"#utility.yul\":10111:10112   */\n      0x00\n        /* \"#utility.yul\":10100:10109   */\n      dup4\n        /* \"#utility.yul\":10096:10113   */\n      add\n        /* \"#utility.yul\":10087:10093   */\n      dup5\n        /* \"#utility.yul\":10049:10114   */\n      tag_415\n      jump\t// in\n    tag_590:\n        /* \"#utility.yul\":9911:10121   */\n      swap3\n      swap2\n      pop\n      pop\n      jump\t// out\n        /* \"#utility.yul\":10127:10434   */\n    tag_416:\n        /* \"#utility.yul\":10188:10192   */\n      0x00\n        /* \"#utility.yul\":10278:10296   */\n      0xffffffffffffffff\n        /* \"#utility.yul\":10270:10276   */\n      dup3\n        /* \"#utility.yul\":10267:10297   */\n      gt\n        /* \"#utility.yul\":10264:10320   */\n      iszero\n      tag_592\n      jumpi\n        /* \"#utility.yul\":10300:10318   */\n      tag_593\n      tag_66\n      jump\t// in\n    tag_593:\n        /* \"#utility.yul\":10264:10320   */\n    tag_592:\n        /* \"#utility.yul\":10338:10367   */\n      tag_594\n        /* \"#utility.yul\":10360:10366   */\n      dup3\n        /* \"#utility.yul\":10338:10367   */\n      tag_394\n      jump\t// in\n    tag_594:\n        /* \"#utility.yul\":10330:10367   */\n      swap1\n      pop\n        /* \"#utility.yul\":10422:10426   */\n      0x20\n        /* \"#utility.yul\":10416:10420   */\n      dup2\n        /* \"#utility.yul\":10412:10427   */\n      add\n        /* \"#utility.yul\":10404:10427   */\n      swap1\n      pop\n        /* \"#utility.yul\":10127:10434   */\n      swap2\n      swap1\n      pop\n      jump\t// out\n        /* \"#utility.yul\":10440:10863   */\n    tag_417:\n        /* \"#utility.yul\":10517:10522   */\n      0x00\n        /* \"#utility.yul\":10542:10607   */\n      tag_596\n        /* \"#utility.yul\":10558:10606   */\n      tag_597\n        /* \"#utility.yul\":10599:10605   */\n      dup5\n        /* \"#utility.yul\":10558:10606   */\n      tag_416\n      jump\t// in\n    tag_597:\n        /* \"#utility.yul\":10542:10607   */\n      tag_396\n      jump\t// in\n    tag_596:\n        /* \"#utility.yul\":10533:10607   */\n      swap1\n      pop\n        /* \"#utility.yul\":10630:10636   */\n      dup3\n        /* \"#utility.yul\":10623:10628   */\n      dup2\n        /* \"#utility.yul\":10616:10637   */\n      mstore\n        /* \"#utility.yul\":10668:10672   */\n      0x20\n        /* \"#utility.yul\":10661:10666   */\n      dup2\n        /* \"#utility.yul\":10657:10673   */\n      add\n        /* \"#utility.yul\":10706:10709   */\n      dup5\n        /* \"#utility.yul\":10697:10703   */\n      dup5\n        /* \"#utility.yul\":10692:10695   */\n      dup5\n        /* \"#utility.yul\":10688:10704   */\n      add\n        /* \"#utility.yul\":10685:10710   */\n      gt\n        /* \"#utility.yul\":10682:10794   */\n      iszero\n      tag_598\n      jumpi\n        /* \"#utility.yul\":10713:10792   */\n      tag_599\n      tag_393\n      jump\t// in\n    tag_599:\n        /* \"#utility.yul\":10682:10794   */\n    tag_598:\n        /* \"#utility.yul\":10803:10857   */\n      tag_600\n        /* \"#utility.yul\":10850:10856   */\n      dup5\n        /* \"#utility.yul\":10845:10848   */\n      dup3\n        /* \"#utility.yul\":10840:10843   */\n      dup6\n        /* \"#utility.yul\":10803:10857   */\n      tag_398\n      jump\t// in\n    tag_600:\n        /* \"#utility.yul\":10523:10863   */\n      pop\n        /* \"#utility.yul\":10440:10863   */\n      swap4\n      swap3\n      pop\n      pop\n      pop\n      jump\t// out\n        /* \"#utility.yul\":10882:11220   */\n    tag_418:\n        /* \"#utility.yul\":10937:10942   */\n      0x00\n        /* \"#utility.yul\":10986:10989   */\n      dup3\n        /* \"#utility.yul\":10979:10983   */\n      0x1f\n        /* \"#utility.yul\":10971:10977   */\n      dup4\n        /* \"#utility.yul\":10967:10984   */\n      add\n        /* \"#utility.yul\":10963:10990   */\n      slt\n        /* \"#utility.yul\":10953:11075   */\n      tag_602\n      jumpi\n        /* \"#utility.yul\":10994:11073   */\n      tag_603\n      tag_392\n      jump\t// in\n    tag_603:\n        /* \"#utility.yul\":10953:11075   */\n    tag_602:\n        /* \"#utility.yul\":11111:11117   */\n      dup2\n        /* \"#utility.yul\":11098:11118   */\n      calldataload\n        /* \"#utility.yul\":11136:11214   */\n      tag_604\n        /* \"#utility.yul\":11210:11213   */\n      dup5\n        /* \"#utility.yul\":11202:11208   */\n      dup3\n        /* \"#utility.yul\":11195:11199   */\n      0x20\n        /* \"#utility.yul\":11187:11193   */\n      dup7\n        /* \"#utility.yul\":11183:11200   */\n      add\n        /* \"#utility.yul\":11136:11214   */\n      tag_417\n      jump\t// in\n    tag_604:\n        /* \"#utility.yul\":11127:11214   */\n      swap2\n      pop\n        /* \"#utility.yul\":10943:11220   */\n      pop\n        /* \"#utility.yul\":10882:11220   */\n      swap3\n      swap2\n      pop\n      pop\n      jump\t// out\n        /* \"#utility.yul\":11226:12058   */\n    tag_39:\n        /* \"#utility.yul\":11313:11319   */\n      0x00\n        /* \"#utility.yul\":11321:11327   */\n      dup1\n        /* \"#utility.yul\":11370:11372   */\n      0x40\n        /* \"#utility.yul\":11358:11367   */\n      dup4\n        /* \"#utility.yul\":11349:11356   */\n      dup6\n        /* \"#utility.yul\":11345:11368   */\n      sub\n        /* \"#utility.yul\":11341:11373   */\n      slt\n        /* \"#utility.yul\":11338:11457   */\n      iszero\n      tag_606\n      jumpi\n        /* \"#utility.yul\":11376:11455   */\n      tag_607\n      tag_390\n      jump\t// in\n    tag_607:\n        /* \"#utility.yul\":11338:11457   */\n    tag_606:\n        /* \"#utility.yul\":11524:11525   */\n      0x00\n        /* \"#utility.yul\":11513:11522   */\n      dup4\n        /* \"#utility.yul\":11509:11526   */\n      add\n        /* \"#utility.yul\":11496:11527   */\n      calldataload\n        /* \"#utility.yul\":11554:11572   */\n      0xffffffffffffffff\n        /* \"#utility.yul\":11546:11552   */\n      dup2\n        /* \"#utility.yul\":11543:11573   */\n      gt\n        /* \"#utility.yul\":11540:11657   */\n      iszero\n      tag_608\n      jumpi\n        /* \"#utility.yul\":11576:11655   */\n      tag_609\n      tag_391\n      jump\t// in\n    tag_609:\n        /* \"#utility.yul\":11540:11657   */\n    tag_608:\n        /* \"#utility.yul\":11681:11744   */\n      tag_610\n        /* \"#utility.yul\":11736:11743   */\n      dup6\n        /* \"#utility.yul\":11727:11733   */\n      dup3\n        /* \"#utility.yul\":11716:11725   */\n      dup7\n        /* \"#utility.yul\":11712:11734   */\n      add\n        /* \"#utility.yul\":11681:11744   */\n      tag_400\n      jump\t// in\n    tag_610:\n        /* \"#utility.yul\":11671:11744   */\n      swap3\n      pop\n        /* \"#utility.yul\":11467:11754   */\n      pop\n        /* \"#utility.yul\":11821:11823   */\n      0x20\n        /* \"#utility.yul\":11810:11819   */\n      dup4\n        /* \"#utility.yul\":11806:11824   */\n      add\n        /* \"#utility.yul\":11793:11825   */\n      calldataload\n        /* \"#utility.yul\":11852:11870   */\n      0xffffffffffffffff\n        /* \"#utility.yul\":11844:11850   */\n      dup2\n        /* \"#utility.yul\":11841:11871   */\n      gt\n        /* \"#utility.yul\":11838:11955   */\n      iszero\n      tag_611\n      jumpi\n        /* \"#utility.yul\":11874:11953   */\n      tag_612\n      tag_391\n      jump\t// in\n    tag_612:\n        /* \"#utility.yul\":11838:11955   */\n    tag_611:\n        /* \"#utility.yul\":11979:12041   */\n      tag_613\n        /* \"#utility.yul\":12033:12040   */\n      dup6\n        /* \"#utility.yul\":12024:12030   */\n      dup3\n        /* \"#utility.yul\":12013:12022   */\n      dup7\n        /* \"#utility.yul\":12009:12031   */\n      add\n        /* \"#utility.yul\":11979:12041   */\n      tag_418\n      jump\t// in\n    tag_613:\n        /* \"#utility.yul\":11969:12041   */\n      swap2\n      pop\n        /* \"#utility.yul\":11764:12051   */\n      pop\n        /* \"#utility.yul\":11226:12058   */\n      swap3\n      pop\n      swap3\n      swap1\n      pop\n      jump\t// out\n        /* \"#utility.yul\":12064:12162   */\n    tag_419:\n        /* \"#utility.yul\":12115:12121   */\n      0x00\n        /* \"#utility.yul\":12149:12154   */\n      dup2\n        /* \"#utility.yul\":12143:12155   */\n      mload\n        /* \"#utility.yul\":12133:12155   */\n      swap1\n      pop\n        /* \"#utility.yul\":12064:12162   */\n      swap2\n      swap1\n      pop\n      jump\t// out\n        /* \"#utility.yul\":12168:12336   */\n    tag_420:\n        /* \"#utility.yul\":12251:12262   */\n      0x00\n        /* \"#utility.yul\":12285:12291   */\n      dup3\n        /* \"#utility.yul\":12280:12283   */\n      dup3\n        /* \"#utility.yul\":12273:12292   */\n      mstore\n        /* \"#utility.yul\":12325:12329   */\n      0x20\n        /* \"#utility.yul\":12320:12323   */\n      dup3\n        /* \"#utility.yul\":12316:12330   */\n      add\n        /* \"#utility.yul\":12301:12330   */\n      swap1\n      pop\n        /* \"#utility.yul\":12168:12336   */\n      swap3\n      swap2\n      pop\n      pop\n      jump\t// out\n        /* \"#utility.yul\":12342:12715   */\n    tag_421:\n        /* \"#utility.yul\":12428:12431   */\n      0x00\n        /* \"#utility.yul\":12456:12494   */\n      tag_617\n        /* \"#utility.yul\":12488:12493   */\n      dup3\n        /* \"#utility.yul\":12456:12494   */\n      tag_419\n      jump\t// in\n    tag_617:\n        /* \"#utility.yul\":12510:12580   */\n      tag_618\n        /* \"#utility.yul\":12573:12579   */\n      dup2\n        /* \"#utility.yul\":12568:12571   */\n      dup6\n        /* \"#utility.yul\":12510:12580   */\n      tag_420\n      jump\t// in\n    tag_618:\n        /* \"#utility.yul\":12503:12580   */\n      swap4\n      pop\n        /* \"#utility.yul\":12589:12654   */\n      tag_619\n        /* \"#utility.yul\":12647:12653   */\n      dup2\n        /* \"#utility.yul\":12642:12645   */\n      dup6\n        /* \"#utility.yul\":12635:12639   */\n      0x20\n        /* \"#utility.yul\":12628:12633   */\n      dup7\n        /* \"#utility.yul\":12624:12640   */\n      add\n        /* \"#utility.yul\":12589:12654   */\n      tag_412\n      jump\t// in\n    tag_619:\n        /* \"#utility.yul\":12679:12708   */\n      tag_620\n        /* \"#utility.yul\":12701:12707   */\n      dup2\n        /* \"#utility.yul\":12679:12708   */\n      tag_394\n      jump\t// in\n    tag_620:\n        /* \"#utility.yul\":12674:12677   */\n      dup5\n        /* \"#utility.yul\":12670:12709   */\n      add\n        /* \"#utility.yul\":12663:12709   */\n      swap2\n      pop\n        /* \"#utility.yul\":12432:12715   */\n      pop\n        /* \"#utility.yul\":12342:12715   */\n      swap3\n      swap2\n      pop\n      pop\n      jump\t// out\n        /* \"#utility.yul\":12721:13030   */\n    tag_42:\n        /* \"#utility.yul\":12832:12836   */\n      0x00\n        /* \"#utility.yul\":12870:12872   */\n      0x20\n        /* \"#utility.yul\":12859:12868   */\n      dup3\n        /* \"#utility.yul\":12855:12873   */\n      add\n        /* \"#utility.yul\":12847:12873   */\n      swap1\n      pop\n        /* \"#utility.yul\":12919:12928   */\n      dup2\n        /* \"#utility.yul\":12913:12917   */\n      dup2\n        /* \"#utility.yul\":12909:12929   */\n      sub\n        /* \"#utility.yul\":12905:12906   */\n      0x00\n        /* \"#utility.yul\":12894:12903   */\n      dup4\n        /* \"#utility.yul\":12890:12907   */\n      add\n        /* \"#utility.yul\":12883:12930   */\n      mstore\n        /* \"#utility.yul\":12947:13023   */\n      tag_622\n        /* \"#utility.yul\":13018:13022   */\n      dup2\n        /* \"#utility.yul\":13009:13015   */\n      dup5\n        /* \"#utility.yul\":12947:13023   */\n      tag_421\n      jump\t// in\n    tag_622:\n        /* \"#utility.yul\":12939:13023   */\n      swap1\n      pop\n        /* \"#utility.yul\":12721:13030   */\n      swap3\n      swap2\n      pop\n      pop\n      jump\t// out\n        /* \"#utility.yul\":13036:13148   */\n    tag_422:\n        /* \"#utility.yul\":13122:13123   */\n      0x04\n        /* \"#utility.yul\":13115:13120   */\n      dup2\n        /* \"#utility.yul\":13112:13124   */\n      lt\n        /* \"#utility.yul\":13102:13142   */\n      tag_624\n      jumpi\n        /* \"#utility.yul\":13138:13139   */\n      0x00\n        /* \"#utility.yul\":13135:13136   */\n      dup1\n        /* \"#utility.yul\":13128:13140   */\n      revert\n        /* \"#utility.yul\":13102:13142   */\n    tag_624:\n        /* \"#utility.yul\":13036:13148   */\n      pop\n      jump\t// out\n        /* \"#utility.yul\":13154:13319   */\n    tag_423:\n        /* \"#utility.yul\":13213:13218   */\n      0x00\n        /* \"#utility.yul\":13251:13257   */\n      dup2\n        /* \"#utility.yul\":13238:13258   */\n      calldataload\n        /* \"#utility.yul\":13229:13258   */\n      swap1\n      pop\n        /* \"#utility.yul\":13267:13313   */\n      tag_626\n        /* \"#utility.yul\":13307:13312   */\n      dup2\n        /* \"#utility.yul\":13267:13313   */\n      tag_422\n      jump\t// in\n    tag_626:\n        /* \"#utility.yul\":13154:13319   */\n      swap3\n      swap2\n      pop\n      pop\n      jump\t// out\n        /* \"#utility.yul\":13325:13680   */\n    tag_59:\n        /* \"#utility.yul\":13397:13403   */\n      0x00\n        /* \"#utility.yul\":13446:13448   */\n      0x20\n        /* \"#utility.yul\":13434:13443   */\n      dup3\n        /* \"#utility.yul\":13425:13432   */\n      dup5\n        /* \"#utility.yul\":13421:13444   */\n      sub\n        /* \"#utility.yul\":13417:13449   */\n      slt\n        /* \"#utility.yul\":13414:13533   */\n      iszero\n      tag_628\n      jumpi\n        /* \"#utility.yul\":13452:13531   */\n      tag_629\n      tag_390\n      jump\t// in\n    tag_629:\n        /* \"#utility.yul\":13414:13533   */\n    tag_628:\n        /* \"#utility.yul\":13572:13573   */\n      0x00\n        /* \"#utility.yul\":13597:13663   */\n      tag_630\n        /* \"#utility.yul\":13655:13662   */\n      dup5\n        /* \"#utility.yul\":13646:13652   */\n      dup3\n        /* \"#utility.yul\":13635:13644   */\n      dup6\n        /* \"#utility.yul\":13631:13653   */\n      add\n        /* \"#utility.yul\":13597:13663   */\n      tag_423\n      jump\t// in\n    tag_630:\n        /* \"#utility.yul\":13587:13663   */\n      swap2\n      pop\n        /* \"#utility.yul\":13543:13673   */\n      pop\n        /* \"#utility.yul\":13325:13680   */\n      swap3\n      swap2\n      pop\n      pop\n      jump\t// out\n        /* \"#utility.yul\":13686:13810   */\n    tag_424:\n        /* \"#utility.yul\":13763:13769   */\n      0x00\n        /* \"#utility.yul\":13797:13802   */\n      dup2\n        /* \"#utility.yul\":13791:13803   */\n      mload\n        /* \"#utility.yul\":13781:13803   */\n      swap1\n      pop\n        /* \"#utility.yul\":13686:13810   */\n      swap2\n      swap1\n      pop\n      jump\t// out\n        /* \"#utility.yul\":13816:14010   */\n    tag_425:\n        /* \"#utility.yul\":13925:13936   */\n      0x00\n        /* \"#utility.yul\":13959:13965   */\n      dup3\n        /* \"#utility.yul\":13954:13957   */\n      dup3\n        /* \"#utility.yul\":13947:13966   */\n      mstore\n        /* \"#utility.yul\":13999:14003   */\n      0x20\n        /* \"#utility.yul\":13994:13997   */\n      dup3\n        /* \"#utility.yul\":13990:14004   */\n      add\n        /* \"#utility.yul\":13975:14004   */\n      swap1\n      pop\n        /* \"#utility.yul\":13816:14010   */\n      swap3\n      swap2\n      pop\n      pop\n      jump\t// out\n        /* \"#utility.yul\":14016:14158   */\n    tag_426:\n        /* \"#utility.yul\":14093:14097   */\n      0x00\n        /* \"#utility.yul\":14116:14119   */\n      dup2\n        /* \"#utility.yul\":14108:14119   */\n      swap1\n      pop\n        /* \"#utility.yul\":14146:14150   */\n      0x20\n        /* \"#utility.yul\":14141:14144   */\n      dup3\n        /* \"#utility.yul\":14137:14151   */\n      add\n        /* \"#utility.yul\":14129:14151   */\n      swap1\n      pop\n        /* \"#utility.yul\":14016:14158   */\n      swap2\n      swap1\n      pop\n      jump\t// out\n        /* \"#utility.yul\":14164:14323   */\n    tag_427:\n        /* \"#utility.yul\":14238:14249   */\n      0x00\n        /* \"#utility.yul\":14272:14278   */\n      dup3\n        /* \"#utility.yul\":14267:14270   */\n      dup3\n        /* \"#utility.yul\":14260:14279   */\n      mstore\n        /* \"#utility.yul\":14312:14316   */\n      0x20\n        /* \"#utility.yul\":14307:14310   */\n      dup3\n        /* \"#utility.yul\":14303:14317   */\n      add\n        /* \"#utility.yul\":14288:14317   */\n      swap1\n      pop\n        /* \"#utility.yul\":14164:14323   */\n      swap3\n      swap2\n      pop\n      pop\n      jump\t// out\n        /* \"#utility.yul\":14329:14686   */\n    tag_428:\n        /* \"#utility.yul\":14407:14410   */\n      0x00\n        /* \"#utility.yul\":14435:14474   */\n      tag_636\n        /* \"#utility.yul\":14468:14473   */\n      dup3\n        /* \"#utility.yul\":14435:14474   */\n      tag_410\n      jump\t// in\n    tag_636:\n        /* \"#utility.yul\":14490:14551   */\n      tag_637\n        /* \"#utility.yul\":14544:14550   */\n      dup2\n        /* \"#utility.yul\":14539:14542   */\n      dup6\n        /* \"#utility.yul\":14490:14551   */\n      tag_427\n      jump\t// in\n    tag_637:\n        /* \"#utility.yul\":14483:14551   */\n      swap4\n      pop\n        /* \"#utility.yul\":14560:14625   */\n      tag_638\n        /* \"#utility.yul\":14618:14624   */\n      dup2\n        /* \"#utility.yul\":14613:14616   */\n      dup6\n        /* \"#utility.yul\":14606:14610   */\n      0x20\n        /* \"#utility.yul\":14599:14604   */\n      dup7\n        /* \"#utility.yul\":14595:14611   */\n      add\n        /* \"#utility.yul\":14560:14625   */\n      tag_412\n      jump\t// in\n    tag_638:\n        /* \"#utility.yul\":14650:14679   */\n      tag_639\n        /* \"#utility.yul\":14672:14678   */\n      dup2\n        /* \"#utility.yul\":14650:14679   */\n      tag_394\n      jump\t// in\n    tag_639:\n        /* \"#utility.yul\":14645:14648   */\n      dup5\n        /* \"#utility.yul\":14641:14680   */\n      add\n        /* \"#utility.yul\":14634:14680   */\n      swap2\n      pop\n        /* \"#utility.yul\":14411:14686   */\n      pop\n        /* \"#utility.yul\":14329:14686   */\n      swap3\n      swap2\n      pop\n      pop\n      jump\t// out\n        /* \"#utility.yul\":14692:14888   */\n    tag_429:\n        /* \"#utility.yul\":14781:14791   */\n      0x00\n        /* \"#utility.yul\":14816:14882   */\n      tag_641\n        /* \"#utility.yul\":14878:14881   */\n      dup4\n        /* \"#utility.yul\":14870:14876   */\n      dup4\n        /* \"#utility.yul\":14816:14882   */\n      tag_428\n      jump\t// in\n    tag_641:\n        /* \"#utility.yul\":14802:14882   */\n      swap1\n      pop\n        /* \"#utility.yul\":14692:14888   */\n      swap3\n      swap2\n      pop\n      pop\n      jump\t// out\n        /* \"#utility.yul\":14894:15017   */\n    tag_430:\n        /* \"#utility.yul\":14974:14978   */\n      0x00\n        /* \"#utility.yul\":15006:15010   */\n      0x20\n        /* \"#utility.yul\":15001:15004   */\n      dup3\n        /* \"#utility.yul\":14997:15011   */\n      add\n        /* \"#utility.yul\":14989:15011   */\n      swap1\n      pop\n        /* \"#utility.yul\":14894:15017   */\n      swap2\n      swap1\n      pop\n      jump\t// out\n        /* \"#utility.yul\":15051:16042   */\n    tag_431:\n        /* \"#utility.yul\":15190:15193   */\n      0x00\n        /* \"#utility.yul\":15219:15283   */\n      tag_644\n        /* \"#utility.yul\":15277:15282   */\n      dup3\n        /* \"#utility.yul\":15219:15283   */\n      tag_424\n      jump\t// in\n    tag_644:\n        /* \"#utility.yul\":15299:15395   */\n      tag_645\n        /* \"#utility.yul\":15388:15394   */\n      dup2\n        /* \"#utility.yul\":15383:15386   */\n      dup6\n        /* \"#utility.yul\":15299:15395   */\n      tag_425\n      jump\t// in\n    tag_645:\n        /* \"#utility.yul\":15292:15395   */\n      swap4\n      pop\n        /* \"#utility.yul\":15421:15424   */\n      dup4\n        /* \"#utility.yul\":15466:15470   */\n      0x20\n        /* \"#utility.yul\":15458:15464   */\n      dup3\n        /* \"#utility.yul\":15454:15471   */\n      mul\n        /* \"#utility.yul\":15449:15452   */\n      dup6\n        /* \"#utility.yul\":15445:15472   */\n      add\n        /* \"#utility.yul\":15496:15562   */\n      tag_646\n        /* \"#utility.yul\":15556:15561   */\n      dup6\n        /* \"#utility.yul\":15496:15562   */\n      tag_426\n      jump\t// in\n    tag_646:\n        /* \"#utility.yul\":15585:15592   */\n      dup1\n        /* \"#utility.yul\":15616:15617   */\n      0x00\n        /* \"#utility.yul\":15601:15997   */\n    tag_647:\n        /* \"#utility.yul\":15626:15632   */\n      dup6\n        /* \"#utility.yul\":15623:15624   */\n      dup2\n        /* \"#utility.yul\":15620:15633   */\n      lt\n        /* \"#utility.yul\":15601:15997   */\n      iszero\n      tag_649\n      jumpi\n        /* \"#utility.yul\":15697:15706   */\n      dup5\n        /* \"#utility.yul\":15691:15695   */\n      dup5\n        /* \"#utility.yul\":15687:15707   */\n      sub\n        /* \"#utility.yul\":15682:15685   */\n      dup10\n        /* \"#utility.yul\":15675:15708   */\n      mstore\n        /* \"#utility.yul\":15748:15754   */\n      dup2\n        /* \"#utility.yul\":15742:15755   */\n      mload\n        /* \"#utility.yul\":15776:15860   */\n      tag_650\n        /* \"#utility.yul\":15855:15859   */\n      dup6\n        /* \"#utility.yul\":15840:15853   */\n      dup3\n        /* \"#utility.yul\":15776:15860   */\n      tag_429\n      jump\t// in\n    tag_650:\n        /* \"#utility.yul\":15768:15860   */\n      swap5\n      pop\n        /* \"#utility.yul\":15883:15953   */\n      tag_651\n        /* \"#utility.yul\":15946:15952   */\n      dup4\n        /* \"#utility.yul\":15883:15953   */\n      tag_430\n      jump\t// in\n    tag_651:\n        /* \"#utility.yul\":15873:15953   */\n      swap3\n      pop\n        /* \"#utility.yul\":15982:15986   */\n      0x20\n        /* \"#utility.yul\":15977:15980   */\n      dup11\n        /* \"#utility.yul\":15973:15987   */\n      add\n        /* \"#utility.yul\":15966:15987   */\n      swap10\n      pop\n        /* \"#utility.yul\":15661:15997   */\n      pop\n        /* \"#utility.yul\":15648:15649   */\n      0x01\n        /* \"#utility.yul\":15645:15646   */\n      dup2\n        /* \"#utility.yul\":15641:15650   */\n      add\n        /* \"#utility.yul\":15636:15650   */\n      swap1\n      pop\n        /* \"#utility.yul\":15601:15997   */\n      jump(tag_647)\n    tag_649:\n        /* \"#utility.yul\":15605:15619   */\n      pop\n        /* \"#utility.yul\":16013:16017   */\n      dup3\n        /* \"#utility.yul\":16006:16017   */\n      swap8\n      pop\n        /* \"#utility.yul\":16033:16036   */\n      dup8\n        /* \"#utility.yul\":16026:16036   */\n      swap6\n      pop\n        /* \"#utility.yul\":15195:16042   */\n      pop\n      pop\n      pop\n      pop\n      pop\n        /* \"#utility.yul\":15051:16042   */\n      swap3\n      swap2\n      pop\n      pop\n      jump\t// out\n        /* \"#utility.yul\":16048:16461   */\n    tag_62:\n        /* \"#utility.yul\":16211:16215   */\n      0x00\n        /* \"#utility.yul\":16249:16251   */\n      0x20\n        /* \"#utility.yul\":16238:16247   */\n      dup3\n        /* \"#utility.yul\":16234:16252   */\n      add\n        /* \"#utility.yul\":16226:16252   */\n      swap1\n      pop\n        /* \"#utility.yul\":16298:16307   */\n      dup2\n        /* \"#utility.yul\":16292:16296   */\n      dup2\n        /* \"#utility.yul\":16288:16308   */\n      sub\n        /* \"#utility.yul\":16284:16285   */\n      0x00\n        /* \"#utility.yul\":16273:16282   */\n      dup4\n        /* \"#utility.yul\":16269:16286   */\n      add\n        /* \"#utility.yul\":16262:16309   */\n      mstore\n        /* \"#utility.yul\":16326:16454   */\n      tag_653\n        /* \"#utility.yul\":16449:16453   */\n      dup2\n        /* \"#utility.yul\":16440:16446   */\n      dup5\n        /* \"#utility.yul\":16326:16454   */\n      tag_431\n      jump\t// in\n    tag_653:\n        /* \"#utility.yul\":16318:16454   */\n      swap1\n      pop\n        /* \"#utility.yul\":16048:16461   */\n      swap3\n      swap2\n      pop\n      pop\n      jump\t// out\n        /* \"#utility.yul\":16467:16647   */\n    tag_70:\n        /* \"#utility.yul\":16515:16592   */\n      0x4e487b7100000000000000000000000000000000000000000000000000000000\n        /* \"#utility.yul\":16512:16513   */\n      0x00\n        /* \"#utility.yul\":16505:16593   */\n      mstore\n        /* \"#utility.yul\":16612:16616   */\n      0x32\n        /* \"#utility.yul\":16609:16610   */\n      0x04\n        /* \"#utility.yul\":16602:16617   */\n      mstore\n        /* \"#utility.yul\":16636:16640   */\n      0x24\n        /* \"#utility.yul\":16633:16634   */\n      0x00\n        /* \"#utility.yul\":16626:16641   */\n      revert\n        /* \"#utility.yul\":16653:16801   */\n    tag_432:\n        /* \"#utility.yul\":16755:16766   */\n      0x00\n        /* \"#utility.yul\":16792:16795   */\n      dup2\n        /* \"#utility.yul\":16777:16795   */\n      swap1\n      pop\n        /* \"#utility.yul\":16653:16801   */\n      swap3\n      swap2\n      pop\n      pop\n      jump\t// out\n        /* \"#utility.yul\":16807:17197   */\n    tag_433:\n        /* \"#utility.yul\":16913:16916   */\n      0x00\n        /* \"#utility.yul\":16941:16980   */\n      tag_657\n        /* \"#utility.yul\":16974:16979   */\n      dup3\n        /* \"#utility.yul\":16941:16980   */\n      tag_410\n      jump\t// in\n    tag_657:\n        /* \"#utility.yul\":16996:17085   */\n      tag_658\n        /* \"#utility.yul\":17078:17084   */\n      dup2\n        /* \"#utility.yul\":17073:17076   */\n      dup6\n        /* \"#utility.yul\":16996:17085   */\n      tag_432\n      jump\t// in\n    tag_658:\n        /* \"#utility.yul\":16989:17085   */\n      swap4\n      pop\n        /* \"#utility.yul\":17094:17159   */\n      tag_659\n        /* \"#utility.yul\":17152:17158   */\n      dup2\n        /* \"#utility.yul\":17147:17150   */\n      dup6\n        /* \"#utility.yul\":17140:17144   */\n      0x20\n        /* \"#utility.yul\":17133:17138   */\n      dup7\n        /* \"#utility.yul\":17129:17145   */\n      add\n        /* \"#utility.yul\":17094:17159   */\n      tag_412\n      jump\t// in\n    tag_659:\n        /* \"#utility.yul\":17184:17190   */\n      dup1\n        /* \"#utility.yul\":17179:17182   */\n      dup5\n        /* \"#utility.yul\":17175:17191   */\n      add\n        /* \"#utility.yul\":17168:17191   */\n      swap2\n      pop\n        /* \"#utility.yul\":16917:17197   */\n      pop\n        /* \"#utility.yul\":16807:17197   */\n      swap3\n      swap2\n      pop\n      pop\n      jump\t// out\n        /* \"#utility.yul\":17203:17478   */\n    tag_96:\n        /* \"#utility.yul\":17335:17338   */\n      0x00\n        /* \"#utility.yul\":17357:17452   */\n      tag_661\n        /* \"#utility.yul\":17448:17451   */\n      dup3\n        /* \"#utility.yul\":17439:17445   */\n      dup5\n        /* \"#utility.yul\":17357:17452   */\n      tag_433\n      jump\t// in\n    tag_661:\n        /* \"#utility.yul\":17350:17452   */\n      swap2\n      pop\n        /* \"#utility.yul\":17469:17472   */\n      dup2\n        /* \"#utility.yul\":17462:17472   */\n      swap1\n      pop\n        /* \"#utility.yul\":17203:17478   */\n      swap3\n      swap2\n      pop\n      pop\n      jump\t// out\n        /* \"#utility.yul\":17484:17570   */\n    tag_434:\n        /* \"#utility.yul\":17519:17526   */\n      0x00\n        /* \"#utility.yul\":17559:17563   */\n      0xff\n        /* \"#utility.yul\":17552:17557   */\n      dup3\n        /* \"#utility.yul\":17548:17564   */\n      and\n        /* \"#utility.yul\":17537:17564   */\n      swap1\n      pop\n        /* \"#utility.yul\":17484:17570   */\n      swap2\n      swap1\n      pop\n      jump\t// out\n        /* \"#utility.yul\":17576:17756   */\n    tag_435:\n        /* \"#utility.yul\":17624:17701   */\n      0x4e487b7100000000000000000000000000000000000000000000000000000000\n        /* \"#utility.yul\":17621:17622   */\n      0x00\n        /* \"#utility.yul\":17614:17702   */\n      mstore\n        /* \"#utility.yul\":17721:17725   */\n      0x11\n        /* \"#utility.yul\":17718:17719   */\n      0x04\n        /* \"#utility.yul\":17711:17726   */\n      mstore\n        /* \"#utility.yul\":17745:17749   */\n      0x24\n        /* \"#utility.yul\":17742:17743   */\n      0x00\n        /* \"#utility.yul\":17735:17750   */\n      revert\n        /* \"#utility.yul\":17762:17950   */\n    tag_122:\n        /* \"#utility.yul\":17800:17803   */\n      0x00\n        /* \"#utility.yul\":17819:17837   */\n      tag_665\n        /* \"#utility.yul\":17835:17836   */\n      dup3\n        /* \"#utility.yul\":17819:17837   */\n      tag_434\n      jump\t// in\n    tag_665:\n        /* \"#utility.yul\":17814:17837   */\n      swap2\n      pop\n        /* \"#utility.yul\":17851:17869   */\n      tag_666\n        /* \"#utility.yul\":17867:17868   */\n      dup4\n        /* \"#utility.yul\":17851:17869   */\n      tag_434\n      jump\t// in\n    tag_666:\n        /* \"#utility.yul\":17846:17869   */\n      swap3\n      pop\n        /* \"#utility.yul\":17892:17893   */\n      dup3\n        /* \"#utility.yul\":17889:17890   */\n      dup3\n        /* \"#utility.yul\":17885:17894   */\n      add\n        /* \"#utility.yul\":17878:17894   */\n      swap1\n      pop\n        /* \"#utility.yul\":17915:17919   */\n      0xff\n        /* \"#utility.yul\":17910:17913   */\n      dup2\n        /* \"#utility.yul\":17907:17920   */\n      gt\n        /* \"#utility.yul\":17904:17943   */\n      iszero\n      tag_667\n      jumpi\n        /* \"#utility.yul\":17923:17941   */\n      tag_668\n      tag_435\n      jump\t// in\n    tag_668:\n        /* \"#utility.yul\":17904:17943   */\n    tag_667:\n        /* \"#utility.yul\":17762:17950   */\n      swap3\n      swap2\n      pop\n      pop\n      jump\t// out\n        /* \"#utility.yul\":17956:18267   */\n    tag_436:\n        /* \"#utility.yul\":18033:18037   */\n      0x00\n        /* \"#utility.yul\":18123:18141   */\n      0xffffffffffffffff\n        /* \"#utility.yul\":18115:18121   */\n      dup3\n        /* \"#utility.yul\":18112:18142   */\n      gt\n        /* \"#utility.yul\":18109:18165   */\n      iszero\n      tag_670\n      jumpi\n        /* \"#utility.yul\":18145:18163   */\n      tag_671\n      tag_66\n      jump\t// in\n    tag_671:\n        /* \"#utility.yul\":18109:18165   */\n    tag_670:\n        /* \"#utility.yul\":18195:18199   */\n      0x20\n        /* \"#utility.yul\":18187:18193   */\n      dup3\n        /* \"#utility.yul\":18183:18200   */\n      mul\n        /* \"#utility.yul\":18175:18200   */\n      swap1\n      pop\n        /* \"#utility.yul\":18255:18259   */\n      0x20\n        /* \"#utility.yul\":18249:18253   */\n      dup2\n        /* \"#utility.yul\":18245:18260   */\n      add\n        /* \"#utility.yul\":18237:18260   */\n      swap1\n      pop\n        /* \"#utility.yul\":17956:18267   */\n      swap2\n      swap1\n      pop\n      jump\t// out\n        /* \"#utility.yul\":18273:18390   */\n    tag_437:\n        /* \"#utility.yul\":18382:18383   */\n      0x00\n        /* \"#utility.yul\":18379:18380   */\n      dup1\n        /* \"#utility.yul\":18372:18384   */\n      revert\n        /* \"#utility.yul\":18396:18522   */\n    tag_438:\n        /* \"#utility.yul\":18433:18440   */\n      0x00\n        /* \"#utility.yul\":18473:18515   */\n      0xffffffffffffffffffffffffffffffffffffffff\n        /* \"#utility.yul\":18466:18471   */\n      dup3\n        /* \"#utility.yul\":18462:18516   */\n      and\n        /* \"#utility.yul\":18451:18516   */\n      swap1\n      pop\n        /* \"#utility.yul\":18396:18522   */\n      swap2\n      swap1\n      pop\n      jump\t// out\n        /* \"#utility.yul\":18528:18624   */\n    tag_439:\n        /* \"#utility.yul\":18565:18572   */\n      0x00\n        /* \"#utility.yul\":18594:18618   */\n      tag_675\n        /* \"#utility.yul\":18612:18617   */\n      dup3\n        /* \"#utility.yul\":18594:18618   */\n      tag_438\n      jump\t// in\n    tag_675:\n        /* \"#utility.yul\":18583:18618   */\n      swap1\n      pop\n        /* \"#utility.yul\":18528:18624   */\n      swap2\n      swap1\n      pop\n      jump\t// out\n        /* \"#utility.yul\":18630:18752   */\n    tag_440:\n        /* \"#utility.yul\":18703:18727   */\n      tag_677\n        /* \"#utility.yul\":18721:18726   */\n      dup2\n        /* \"#utility.yul\":18703:18727   */\n      tag_439\n      jump\t// in\n    tag_677:\n        /* \"#utility.yul\":18696:18701   */\n      dup2\n        /* \"#utility.yul\":18693:18728   */\n      eq\n        /* \"#utility.yul\":18683:18746   */\n      tag_678\n      jumpi\n        /* \"#utility.yul\":18742:18743   */\n      0x00\n        /* \"#utility.yul\":18739:18740   */\n      dup1\n        /* \"#utility.yul\":18732:18744   */\n      revert\n        /* \"#utility.yul\":18683:18746   */\n    tag_678:\n        /* \"#utility.yul\":18630:18752   */\n      pop\n      jump\t// out\n        /* \"#utility.yul\":18758:18901   */\n    tag_441:\n        /* \"#utility.yul\":18815:18820   */\n      0x00\n        /* \"#utility.yul\":18846:18852   */\n      dup2\n        /* \"#utility.yul\":18840:18853   */\n      mload\n        /* \"#utility.yul\":18831:18853   */\n      swap1\n      pop\n        /* \"#utility.yul\":18862:18895   */\n      tag_680\n        /* \"#utility.yul\":18889:18894   */\n      dup2\n        /* \"#utility.yul\":18862:18895   */\n      tag_440\n      jump\t// in\n    tag_680:\n        /* \"#utility.yul\":18758:18901   */\n      swap3\n      swap2\n      pop\n      pop\n      jump\t// out\n        /* \"#utility.yul\":18924:19656   */\n    tag_442:\n        /* \"#utility.yul\":19031:19036   */\n      0x00\n        /* \"#utility.yul\":19056:19137   */\n      tag_682\n        /* \"#utility.yul\":19072:19136   */\n      tag_683\n        /* \"#utility.yul\":19129:19135   */\n      dup5\n        /* \"#utility.yul\":19072:19136   */\n      tag_436\n      jump\t// in\n    tag_683:\n        /* \"#utility.yul\":19056:19137   */\n      tag_396\n      jump\t// in\n    tag_682:\n        /* \"#utility.yul\":19047:19137   */\n      swap1\n      pop\n        /* \"#utility.yul\":19157:19162   */\n      dup1\n        /* \"#utility.yul\":19186:19192   */\n      dup4\n        /* \"#utility.yul\":19179:19184   */\n      dup3\n        /* \"#utility.yul\":19172:19193   */\n      mstore\n        /* \"#utility.yul\":19220:19224   */\n      0x20\n        /* \"#utility.yul\":19213:19218   */\n      dup3\n        /* \"#utility.yul\":19209:19225   */\n      add\n        /* \"#utility.yul\":19202:19225   */\n      swap1\n      pop\n        /* \"#utility.yul\":19273:19277   */\n      0x20\n        /* \"#utility.yul\":19265:19271   */\n      dup5\n        /* \"#utility.yul\":19261:19278   */\n      mul\n        /* \"#utility.yul\":19253:19259   */\n      dup4\n        /* \"#utility.yul\":19249:19279   */\n      add\n        /* \"#utility.yul\":19302:19305   */\n      dup6\n        /* \"#utility.yul\":19294:19300   */\n      dup2\n        /* \"#utility.yul\":19291:19306   */\n      gt\n        /* \"#utility.yul\":19288:19410   */\n      iszero\n      tag_684\n      jumpi\n        /* \"#utility.yul\":19321:19400   */\n      tag_685\n      tag_437\n      jump\t// in\n    tag_685:\n        /* \"#utility.yul\":19288:19410   */\n    tag_684:\n        /* \"#utility.yul\":19436:19442   */\n      dup4\n        /* \"#utility.yul\":19419:19650   */\n    tag_686:\n        /* \"#utility.yul\":19453:19459   */\n      dup2\n        /* \"#utility.yul\":19448:19451   */\n      dup2\n        /* \"#utility.yul\":19445:19460   */\n      lt\n        /* \"#utility.yul\":19419:19650   */\n      iszero\n      tag_688\n      jumpi\n        /* \"#utility.yul\":19528:19531   */\n      dup1\n        /* \"#utility.yul\":19557:19605   */\n      tag_689\n        /* \"#utility.yul\":19601:19604   */\n      dup9\n        /* \"#utility.yul\":19589:19599   */\n      dup3\n        /* \"#utility.yul\":19557:19605   */\n      tag_441\n      jump\t// in\n    tag_689:\n        /* \"#utility.yul\":19552:19555   */\n      dup5\n        /* \"#utility.yul\":19545:19606   */\n      mstore\n        /* \"#utility.yul\":19635:19639   */\n      0x20\n        /* \"#utility.yul\":19630:19633   */\n      dup5\n        /* \"#utility.yul\":19626:19640   */\n      add\n        /* \"#utility.yul\":19619:19640   */\n      swap4\n      pop\n        /* \"#utility.yul\":19495:19650   */\n      pop\n        /* \"#utility.yul\":19479:19483   */\n      0x20\n        /* \"#utility.yul\":19474:19477   */\n      dup2\n        /* \"#utility.yul\":19470:19484   */\n      add\n        /* \"#utility.yul\":19463:19484   */\n      swap1\n      pop\n        /* \"#utility.yul\":19419:19650   */\n      jump(tag_686)\n    tag_688:\n        /* \"#utility.yul\":19423:19444   */\n      pop\n        /* \"#utility.yul\":19037:19656   */\n      pop\n      pop\n        /* \"#utility.yul\":18924:19656   */\n      swap4\n      swap3\n      pop\n      pop\n      pop\n      jump\t// out\n        /* \"#utility.yul\":19679:20064   */\n    tag_443:\n        /* \"#utility.yul\":19761:19766   */\n      0x00\n        /* \"#utility.yul\":19810:19813   */\n      dup3\n        /* \"#utility.yul\":19803:19807   */\n      0x1f\n        /* \"#utility.yul\":19795:19801   */\n      dup4\n        /* \"#utility.yul\":19791:19808   */\n      add\n        /* \"#utility.yul\":19787:19814   */\n      slt\n        /* \"#utility.yul\":19777:19899   */\n      tag_691\n      jumpi\n        /* \"#utility.yul\":19818:19897   */\n      tag_692\n      tag_392\n      jump\t// in\n    tag_692:\n        /* \"#utility.yul\":19777:19899   */\n    tag_691:\n        /* \"#utility.yul\":19928:19934   */\n      dup2\n        /* \"#utility.yul\":19922:19935   */\n      mload\n        /* \"#utility.yul\":19953:20058   */\n      tag_693\n        /* \"#utility.yul\":20054:20057   */\n      dup5\n        /* \"#utility.yul\":20046:20052   */\n      dup3\n        /* \"#utility.yul\":20039:20043   */\n      0x20\n        /* \"#utility.yul\":20031:20037   */\n      dup7\n        /* \"#utility.yul\":20027:20044   */\n      add\n        /* \"#utility.yul\":19953:20058   */\n      tag_442\n      jump\t// in\n    tag_693:\n        /* \"#utility.yul\":19944:20058   */\n      swap2\n      pop\n        /* \"#utility.yul\":19767:20064   */\n      pop\n        /* \"#utility.yul\":19679:20064   */\n      swap3\n      swap2\n      pop\n      pop\n      jump\t// out\n        /* \"#utility.yul\":20070:20624   */\n    tag_136:\n        /* \"#utility.yul\":20165:20171   */\n      0x00\n        /* \"#utility.yul\":20214:20216   */\n      0x20\n        /* \"#utility.yul\":20202:20211   */\n      dup3\n        /* \"#utility.yul\":20193:20200   */\n      dup5\n        /* \"#utility.yul\":20189:20212   */\n      sub\n        /* \"#utility.yul\":20185:20217   */\n      slt\n        /* \"#utility.yul\":20182:20301   */\n      iszero\n      tag_695\n      jumpi\n        /* \"#utility.yul\":20220:20299   */\n      tag_696\n      tag_390\n      jump\t// in\n    tag_696:\n        /* \"#utility.yul\":20182:20301   */\n    tag_695:\n        /* \"#utility.yul\":20361:20362   */\n      0x00\n        /* \"#utility.yul\":20350:20359   */\n      dup3\n        /* \"#utility.yul\":20346:20363   */\n      add\n        /* \"#utility.yul\":20340:20364   */\n      mload\n        /* \"#utility.yul\":20391:20409   */\n      0xffffffffffffffff\n        /* \"#utility.yul\":20383:20389   */\n      dup2\n        /* \"#utility.yul\":20380:20410   */\n      gt\n        /* \"#utility.yul\":20377:20494   */\n      iszero\n      tag_697\n      jumpi\n        /* \"#utility.yul\":20413:20492   */\n      tag_698\n      tag_391\n      jump\t// in\n    tag_698:\n        /* \"#utility.yul\":20377:20494   */\n    tag_697:\n        /* \"#utility.yul\":20518:20607   */\n      tag_699\n        /* \"#utility.yul\":20599:20606   */\n      dup5\n        /* \"#utility.yul\":20590:20596   */\n      dup3\n        /* \"#utility.yul\":20579:20588   */\n      dup6\n        /* \"#utility.yul\":20575:20597   */\n      add\n        /* \"#utility.yul\":20518:20607   */\n      tag_443\n      jump\t// in\n    tag_699:\n        /* \"#utility.yul\":20508:20607   */\n      swap2\n      pop\n        /* \"#utility.yul\":20311:20617   */\n      pop\n        /* \"#utility.yul\":20070:20624   */\n      swap3\n      swap2\n      pop\n      pop\n      jump\t// out\n        /* \"#utility.yul\":20630:20810   */\n    tag_444:\n        /* \"#utility.yul\":20678:20755   */\n      0x4e487b7100000000000000000000000000000000000000000000000000000000\n        /* \"#utility.yul\":20675:20676   */\n      0x00\n        /* \"#utility.yul\":20668:20756   */\n      mstore\n        /* \"#utility.yul\":20775:20779   */\n      0x22\n        /* \"#utility.yul\":20772:20773   */\n      0x04\n        /* \"#utility.yul\":20765:20780   */\n      mstore\n        /* \"#utility.yul\":20799:20803   */\n      0x24\n        /* \"#utility.yul\":20796:20797   */\n      0x00\n        /* \"#utility.yul\":20789:20804   */\n      revert\n        /* \"#utility.yul\":20816:21136   */\n    tag_159:\n        /* \"#utility.yul\":20860:20866   */\n      0x00\n        /* \"#utility.yul\":20897:20898   */\n      0x02\n        /* \"#utility.yul\":20891:20895   */\n      dup3\n        /* \"#utility.yul\":20887:20899   */\n      div\n        /* \"#utility.yul\":20877:20899   */\n      swap1\n      pop\n        /* \"#utility.yul\":20944:20945   */\n      0x01\n        /* \"#utility.yul\":20938:20942   */\n      dup3\n        /* \"#utility.yul\":20934:20946   */\n      and\n        /* \"#utility.yul\":20965:20983   */\n      dup1\n        /* \"#utility.yul\":20955:21036   */\n      tag_702\n      jumpi\n        /* \"#utility.yul\":21021:21025   */\n      0x7f\n        /* \"#utility.yul\":21013:21019   */\n      dup3\n        /* \"#utility.yul\":21009:21026   */\n      and\n        /* \"#utility.yul\":20999:21026   */\n      swap2\n      pop\n        /* \"#utility.yul\":20955:21036   */\n    tag_702:\n        /* \"#utility.yul\":21083:21085   */\n      0x20\n        /* \"#utility.yul\":21075:21081   */\n      dup3\n        /* \"#utility.yul\":21072:21086   */\n      lt\n        /* \"#utility.yul\":21052:21070   */\n      dup2\n        /* \"#utility.yul\":21049:21087   */\n      sub\n        /* \"#utility.yul\":21046:21130   */\n      tag_703\n      jumpi\n        /* \"#utility.yul\":21102:21120   */\n      tag_704\n      tag_444\n      jump\t// in\n    tag_704:\n        /* \"#utility.yul\":21046:21130   */\n    tag_703:\n        /* \"#utility.yul\":20867:21136   */\n      pop\n        /* \"#utility.yul\":20816:21136   */\n      swap2\n      swap1\n      pop\n      jump\t// out\n        /* \"#utility.yul\":21142:22459   */\n    tag_188:\n        /* \"#utility.yul\":21599:21603   */\n      0x00\n        /* \"#utility.yul\":21637:21640   */\n      0x80\n        /* \"#utility.yul\":21626:21635   */\n      dup3\n        /* \"#utility.yul\":21622:21641   */\n      add\n        /* \"#utility.yul\":21614:21641   */\n      swap1\n      pop\n        /* \"#utility.yul\":21687:21696   */\n      dup2\n        /* \"#utility.yul\":21681:21685   */\n      dup2\n        /* \"#utility.yul\":21677:21697   */\n      sub\n        /* \"#utility.yul\":21673:21674   */\n      0x00\n        /* \"#utility.yul\":21662:21671   */\n      dup4\n        /* \"#utility.yul\":21658:21675   */\n      add\n        /* \"#utility.yul\":21651:21698   */\n      mstore\n        /* \"#utility.yul\":21715:21843   */\n      tag_706\n        /* \"#utility.yul\":21838:21842   */\n      dup2\n        /* \"#utility.yul\":21829:21835   */\n      dup8\n        /* \"#utility.yul\":21715:21843   */\n      tag_431\n      jump\t// in\n    tag_706:\n        /* \"#utility.yul\":21707:21843   */\n      swap1\n      pop\n        /* \"#utility.yul\":21890:21899   */\n      dup2\n        /* \"#utility.yul\":21884:21888   */\n      dup2\n        /* \"#utility.yul\":21880:21900   */\n      sub\n        /* \"#utility.yul\":21875:21877   */\n      0x20\n        /* \"#utility.yul\":21864:21873   */\n      dup4\n        /* \"#utility.yul\":21860:21878   */\n      add\n        /* \"#utility.yul\":21853:21901   */\n      mstore\n        /* \"#utility.yul\":21918:22046   */\n      tag_707\n        /* \"#utility.yul\":22041:22045   */\n      dup2\n        /* \"#utility.yul\":22032:22038   */\n      dup7\n        /* \"#utility.yul\":21918:22046   */\n      tag_431\n      jump\t// in\n    tag_707:\n        /* \"#utility.yul\":21910:22046   */\n      swap1\n      pop\n        /* \"#utility.yul\":22093:22102   */\n      dup2\n        /* \"#utility.yul\":22087:22091   */\n      dup2\n        /* \"#utility.yul\":22083:22103   */\n      sub\n        /* \"#utility.yul\":22078:22080   */\n      0x40\n        /* \"#utility.yul\":22067:22076   */\n      dup4\n        /* \"#utility.yul\":22063:22081   */\n      add\n        /* \"#utility.yul\":22056:22104   */\n      mstore\n        /* \"#utility.yul\":22121:22249   */\n      tag_708\n        /* \"#utility.yul\":22244:22248   */\n      dup2\n        /* \"#utility.yul\":22235:22241   */\n      dup6\n        /* \"#utility.yul\":22121:22249   */\n      tag_431\n      jump\t// in\n    tag_708:\n        /* \"#utility.yul\":22113:22249   */\n      swap1\n      pop\n        /* \"#utility.yul\":22296:22305   */\n      dup2\n        /* \"#utility.yul\":22290:22294   */\n      dup2\n        /* \"#utility.yul\":22286:22306   */\n      sub\n        /* \"#utility.yul\":22281:22283   */\n      0x60\n        /* \"#utility.yul\":22270:22279   */\n      dup4\n        /* \"#utility.yul\":22266:22284   */\n      add\n        /* \"#utility.yul\":22259:22307   */\n      mstore\n        /* \"#utility.yul\":22324:22452   */\n      tag_709\n        /* \"#utility.yul\":22447:22451   */\n      dup2\n        /* \"#utility.yul\":22438:22444   */\n      dup5\n        /* \"#utility.yul\":22324:22452   */\n      tag_431\n      jump\t// in\n    tag_709:\n        /* \"#utility.yul\":22316:22452   */\n      swap1\n      pop\n        /* \"#utility.yul\":21142:22459   */\n      swap6\n      swap5\n      pop\n      pop\n      pop\n      pop\n      pop\n      jump\t// out\n        /* \"#utility.yul\":22465:22786   */\n    tag_445:\n        /* \"#utility.yul\":22552:22556   */\n      0x00\n        /* \"#utility.yul\":22642:22660   */\n      0xffffffffffffffff\n        /* \"#utility.yul\":22634:22640   */\n      dup3\n        /* \"#utility.yul\":22631:22661   */\n      gt\n        /* \"#utility.yul\":22628:22684   */\n      iszero\n      tag_711\n      jumpi\n        /* \"#utility.yul\":22664:22682   */\n      tag_712\n      tag_66\n      jump\t// in\n    tag_712:\n        /* \"#utility.yul\":22628:22684   */\n    tag_711:\n        /* \"#utility.yul\":22714:22718   */\n      0x20\n        /* \"#utility.yul\":22706:22712   */\n      dup3\n        /* \"#utility.yul\":22702:22719   */\n      mul\n        /* \"#utility.yul\":22694:22719   */\n      swap1\n      pop\n        /* \"#utility.yul\":22774:22778   */\n      0x20\n        /* \"#utility.yul\":22768:22772   */\n      dup2\n        /* \"#utility.yul\":22764:22779   */\n      add\n        /* \"#utility.yul\":22756:22779   */\n      swap1\n      pop\n        /* \"#utility.yul\":22465:22786   */\n      swap2\n      swap1\n      pop\n      jump\t// out\n        /* \"#utility.yul\":22792:23226   */\n    tag_446:\n        /* \"#utility.yul\":22881:22886   */\n      0x00\n        /* \"#utility.yul\":22906:22972   */\n      tag_714\n        /* \"#utility.yul\":22922:22971   */\n      tag_715\n        /* \"#utility.yul\":22964:22970   */\n      dup5\n        /* \"#utility.yul\":22922:22971   */\n      tag_397\n      jump\t// in\n    tag_715:\n        /* \"#utility.yul\":22906:22972   */\n      tag_396\n      jump\t// in\n    tag_714:\n        /* \"#utility.yul\":22897:22972   */\n      swap1\n      pop\n        /* \"#utility.yul\":22995:23001   */\n      dup3\n        /* \"#utility.yul\":22988:22993   */\n      dup2\n        /* \"#utility.yul\":22981:23002   */\n      mstore\n        /* \"#utility.yul\":23033:23037   */\n      0x20\n        /* \"#utility.yul\":23026:23031   */\n      dup2\n        /* \"#utility.yul\":23022:23038   */\n      add\n        /* \"#utility.yul\":23071:23074   */\n      dup5\n        /* \"#utility.yul\":23062:23068   */\n      dup5\n        /* \"#utility.yul\":23057:23060   */\n      dup5\n        /* \"#utility.yul\":23053:23069   */\n      add\n        /* \"#utility.yul\":23050:23075   */\n      gt\n        /* \"#utility.yul\":23047:23159   */\n      iszero\n      tag_716\n      jumpi\n        /* \"#utility.yul\":23078:23157   */\n      tag_717\n      tag_393\n      jump\t// in\n    tag_717:\n        /* \"#utility.yul\":23047:23159   */\n    tag_716:\n        /* \"#utility.yul\":23168:23220   */\n      tag_718\n        /* \"#utility.yul\":23213:23219   */\n      dup5\n        /* \"#utility.yul\":23208:23211   */\n      dup3\n        /* \"#utility.yul\":23203:23206   */\n      dup6\n        /* \"#utility.yul\":23168:23220   */\n      tag_412\n      jump\t// in\n    tag_718:\n        /* \"#utility.yul\":22887:23226   */\n      pop\n        /* \"#utility.yul\":22792:23226   */\n      swap4\n      swap3\n      pop\n      pop\n      pop\n      jump\t// out\n        /* \"#utility.yul\":23246:23601   */\n    tag_447:\n        /* \"#utility.yul\":23313:23318   */\n      0x00\n        /* \"#utility.yul\":23362:23365   */\n      dup3\n        /* \"#utility.yul\":23355:23359   */\n      0x1f\n        /* \"#utility.yul\":23347:23353   */\n      dup4\n        /* \"#utility.yul\":23343:23360   */\n      add\n        /* \"#utility.yul\":23339:23366   */\n      slt\n        /* \"#utility.yul\":23329:23451   */\n      tag_720\n      jumpi\n        /* \"#utility.yul\":23370:23449   */\n      tag_721\n      tag_392\n      jump\t// in\n    tag_721:\n        /* \"#utility.yul\":23329:23451   */\n    tag_720:\n        /* \"#utility.yul\":23480:23486   */\n      dup2\n        /* \"#utility.yul\":23474:23487   */\n      mload\n        /* \"#utility.yul\":23505:23595   */\n      tag_722\n        /* \"#utility.yul\":23591:23594   */\n      dup5\n        /* \"#utility.yul\":23583:23589   */\n      dup3\n        /* \"#utility.yul\":23576:23580   */\n      0x20\n        /* \"#utility.yul\":23568:23574   */\n      dup7\n        /* \"#utility.yul\":23564:23581   */\n      add\n        /* \"#utility.yul\":23505:23595   */\n      tag_446\n      jump\t// in\n    tag_722:\n        /* \"#utility.yul\":23496:23595   */\n      swap2\n      pop\n        /* \"#utility.yul\":23319:23601   */\n      pop\n        /* \"#utility.yul\":23246:23601   */\n      swap3\n      swap2\n      pop\n      pop\n      jump\t// out\n        /* \"#utility.yul\":23623:24583   */\n    tag_448:\n        /* \"#utility.yul\":23740:23745   */\n      0x00\n        /* \"#utility.yul\":23765:23856   */\n      tag_724\n        /* \"#utility.yul\":23781:23855   */\n      tag_725\n        /* \"#utility.yul\":23848:23854   */\n      dup5\n        /* \"#utility.yul\":23781:23855   */\n      tag_445\n      jump\t// in\n    tag_725:\n        /* \"#utility.yul\":23765:23856   */\n      tag_396\n      jump\t// in\n    tag_724:\n        /* \"#utility.yul\":23756:23856   */\n      swap1\n      pop\n        /* \"#utility.yul\":23876:23881   */\n      dup1\n        /* \"#utility.yul\":23905:23911   */\n      dup4\n        /* \"#utility.yul\":23898:23903   */\n      dup3\n        /* \"#utility.yul\":23891:23912   */\n      mstore\n        /* \"#utility.yul\":23939:23943   */\n      0x20\n        /* \"#utility.yul\":23932:23937   */\n      dup3\n        /* \"#utility.yul\":23928:23944   */\n      add\n        /* \"#utility.yul\":23921:23944   */\n      swap1\n      pop\n        /* \"#utility.yul\":23992:23996   */\n      0x20\n        /* \"#utility.yul\":23984:23990   */\n      dup5\n        /* \"#utility.yul\":23980:23997   */\n      mul\n        /* \"#utility.yul\":23972:23978   */\n      dup4\n        /* \"#utility.yul\":23968:23998   */\n      add\n        /* \"#utility.yul\":24021:24024   */\n      dup6\n        /* \"#utility.yul\":24013:24019   */\n      dup2\n        /* \"#utility.yul\":24010:24025   */\n      gt\n        /* \"#utility.yul\":24007:24129   */\n      iszero\n      tag_726\n      jumpi\n        /* \"#utility.yul\":24040:24119   */\n      tag_727\n      tag_437\n      jump\t// in\n    tag_727:\n        /* \"#utility.yul\":24007:24129   */\n    tag_726:\n        /* \"#utility.yul\":24155:24161   */\n      dup4\n        /* \"#utility.yul\":24138:24577   */\n    tag_728:\n        /* \"#utility.yul\":24172:24178   */\n      dup2\n        /* \"#utility.yul\":24167:24170   */\n      dup2\n        /* \"#utility.yul\":24164:24179   */\n      lt\n        /* \"#utility.yul\":24138:24577   */\n      iszero\n      tag_730\n      jumpi\n        /* \"#utility.yul\":24254:24257   */\n      dup1\n        /* \"#utility.yul\":24248:24258   */\n      mload\n        /* \"#utility.yul\":24290:24308   */\n      0xffffffffffffffff\n        /* \"#utility.yul\":24277:24288   */\n      dup2\n        /* \"#utility.yul\":24274:24309   */\n      gt\n        /* \"#utility.yul\":24271:24393   */\n      iszero\n      tag_731\n      jumpi\n        /* \"#utility.yul\":24312:24391   */\n      tag_732\n      tag_392\n      jump\t// in\n    tag_732:\n        /* \"#utility.yul\":24271:24393   */\n    tag_731:\n        /* \"#utility.yul\":24436:24447   */\n      dup1\n        /* \"#utility.yul\":24428:24434   */\n      dup7\n        /* \"#utility.yul\":24424:24448   */\n      add\n        /* \"#utility.yul\":24474:24532   */\n      tag_733\n        /* \"#utility.yul\":24528:24531   */\n      dup10\n        /* \"#utility.yul\":24516:24526   */\n      dup3\n        /* \"#utility.yul\":24474:24532   */\n      tag_447\n      jump\t// in\n    tag_733:\n        /* \"#utility.yul\":24469:24472   */\n      dup6\n        /* \"#utility.yul\":24462:24533   */\n      mstore\n        /* \"#utility.yul\":24562:24566   */\n      0x20\n        /* \"#utility.yul\":24557:24560   */\n      dup6\n        /* \"#utility.yul\":24553:24567   */\n      add\n        /* \"#utility.yul\":24546:24567   */\n      swap5\n      pop\n        /* \"#utility.yul\":24214:24577   */\n      pop\n      pop\n        /* \"#utility.yul\":24198:24202   */\n      0x20\n        /* \"#utility.yul\":24193:24196   */\n      dup2\n        /* \"#utility.yul\":24189:24203   */\n      add\n        /* \"#utility.yul\":24182:24203   */\n      swap1\n      pop\n        /* \"#utility.yul\":24138:24577   */\n      jump(tag_728)\n    tag_730:\n        /* \"#utility.yul\":24142:24163   */\n      pop\n        /* \"#utility.yul\":23746:24583   */\n      pop\n      pop\n        /* \"#utility.yul\":23623:24583   */\n      swap4\n      swap3\n      pop\n      pop\n      pop\n      jump\t// out\n        /* \"#utility.yul\":24605:25010   */\n    tag_449:\n        /* \"#utility.yul\":24697:24702   */\n      0x00\n        /* \"#utility.yul\":24746:24749   */\n      dup3\n        /* \"#utility.yul\":24739:24743   */\n      0x1f\n        /* \"#utility.yul\":24731:24737   */\n      dup4\n        /* \"#utility.yul\":24727:24744   */\n      add\n        /* \"#utility.yul\":24723:24750   */\n      slt\n        /* \"#utility.yul\":24713:24835   */\n      tag_735\n      jumpi\n        /* \"#utility.yul\":24754:24833   */\n      tag_736\n      tag_392\n      jump\t// in\n    tag_736:\n        /* \"#utility.yul\":24713:24835   */\n    tag_735:\n        /* \"#utility.yul\":24864:24870   */\n      dup2\n        /* \"#utility.yul\":24858:24871   */\n      mload\n        /* \"#utility.yul\":24889:25004   */\n      tag_737\n        /* \"#utility.yul\":25000:25003   */\n      dup5\n        /* \"#utility.yul\":24992:24998   */\n      dup3\n        /* \"#utility.yul\":24985:24989   */\n      0x20\n        /* \"#utility.yul\":24977:24983   */\n      dup7\n        /* \"#utility.yul\":24973:24990   */\n      add\n        /* \"#utility.yul\":24889:25004   */\n      tag_448\n      jump\t// in\n    tag_737:\n        /* \"#utility.yul\":24880:25004   */\n      swap2\n      pop\n        /* \"#utility.yul\":24703:25010   */\n      pop\n        /* \"#utility.yul\":24605:25010   */\n      swap3\n      swap2\n      pop\n      pop\n      jump\t// out\n        /* \"#utility.yul\":25016:25590   */\n    tag_193:\n        /* \"#utility.yul\":25121:25127   */\n      0x00\n        /* \"#utility.yul\":25170:25172   */\n      0x20\n        /* \"#utility.yul\":25158:25167   */\n      dup3\n        /* \"#utility.yul\":25149:25156   */\n      dup5\n        /* \"#utility.yul\":25145:25168   */\n      sub\n        /* \"#utility.yul\":25141:25173   */\n      slt\n        /* \"#utility.yul\":25138:25257   */\n      iszero\n      tag_739\n      jumpi\n        /* \"#utility.yul\":25176:25255   */\n      tag_740\n      tag_390\n      jump\t// in\n    tag_740:\n        /* \"#utility.yul\":25138:25257   */\n    tag_739:\n        /* \"#utility.yul\":25317:25318   */\n      0x00\n        /* \"#utility.yul\":25306:25315   */\n      dup3\n        /* \"#utility.yul\":25302:25319   */\n      add\n        /* \"#utility.yul\":25296:25320   */\n      mload\n        /* \"#utility.yul\":25347:25365   */\n      0xffffffffffffffff\n        /* \"#utility.yul\":25339:25345   */\n      dup2\n        /* \"#utility.yul\":25336:25366   */\n      gt\n        /* \"#utility.yul\":25333:25450   */\n      iszero\n      tag_741\n      jumpi\n        /* \"#utility.yul\":25369:25448   */\n      tag_742\n      tag_391\n      jump\t// in\n    tag_742:\n        /* \"#utility.yul\":25333:25450   */\n    tag_741:\n        /* \"#utility.yul\":25474:25573   */\n      tag_743\n        /* \"#utility.yul\":25565:25572   */\n      dup5\n        /* \"#utility.yul\":25556:25562   */\n      dup3\n        /* \"#utility.yul\":25545:25554   */\n      dup6\n        /* \"#utility.yul\":25541:25563   */\n      add\n        /* \"#utility.yul\":25474:25573   */\n      tag_449\n      jump\t// in\n    tag_743:\n        /* \"#utility.yul\":25464:25573   */\n      swap2\n      pop\n        /* \"#utility.yul\":25267:25583   */\n      pop\n        /* \"#utility.yul\":25016:25590   */\n      swap3\n      swap2\n      pop\n      pop\n      jump\t// out\n        /* \"#utility.yul\":25596:25710   */\n    tag_450:\n        /* \"#utility.yul\":25663:25669   */\n      0x00\n        /* \"#utility.yul\":25697:25702   */\n      dup2\n        /* \"#utility.yul\":25691:25703   */\n      mload\n        /* \"#utility.yul\":25681:25703   */\n      swap1\n      pop\n        /* \"#utility.yul\":25596:25710   */\n      swap2\n      swap1\n      pop\n      jump\t// out\n        /* \"#utility.yul\":25716:25900   */\n    tag_451:\n        /* \"#utility.yul\":25815:25826   */\n      0x00\n        /* \"#utility.yul\":25849:25855   */\n      dup3\n        /* \"#utility.yul\":25844:25847   */\n      dup3\n        /* \"#utility.yul\":25837:25856   */\n      mstore\n        /* \"#utility.yul\":25889:25893   */\n      0x20\n        /* \"#utility.yul\":25884:25887   */\n      dup3\n        /* \"#utility.yul\":25880:25894   */\n      add\n        /* \"#utility.yul\":25865:25894   */\n      swap1\n      pop\n        /* \"#utility.yul\":25716:25900   */\n      swap3\n      swap2\n      pop\n      pop\n      jump\t// out\n        /* \"#utility.yul\":25906:26038   */\n    tag_452:\n        /* \"#utility.yul\":25973:25977   */\n      0x00\n        /* \"#utility.yul\":25996:25999   */\n      dup2\n        /* \"#utility.yul\":25988:25999   */\n      swap1\n      pop\n        /* \"#utility.yul\":26026:26030   */\n      0x20\n        /* \"#utility.yul\":26021:26024   */\n      dup3\n        /* \"#utility.yul\":26017:26031   */\n      add\n        /* \"#utility.yul\":26009:26031   */\n      swap1\n      pop\n        /* \"#utility.yul\":25906:26038   */\n      swap2\n      swap1\n      pop\n      jump\t// out\n        /* \"#utility.yul\":26044:26152   */\n    tag_453:\n        /* \"#utility.yul\":26121:26145   */\n      tag_748\n        /* \"#utility.yul\":26139:26144   */\n      dup2\n        /* \"#utility.yul\":26121:26145   */\n      tag_439\n      jump\t// in\n    tag_748:\n        /* \"#utility.yul\":26116:26119   */\n      dup3\n        /* \"#utility.yul\":26109:26146   */\n      mstore\n        /* \"#utility.yul\":26044:26152   */\n      pop\n      pop\n      jump\t// out\n        /* \"#utility.yul\":26158:26337   */\n    tag_454:\n        /* \"#utility.yul\":26227:26237   */\n      0x00\n        /* \"#utility.yul\":26248:26294   */\n      tag_750\n        /* \"#utility.yul\":26290:26293   */\n      dup4\n        /* \"#utility.yul\":26282:26288   */\n      dup4\n        /* \"#utility.yul\":26248:26294   */\n      tag_453\n      jump\t// in\n    tag_750:\n        /* \"#utility.yul\":26326:26330   */\n      0x20\n        /* \"#utility.yul\":26321:26324   */\n      dup4\n        /* \"#utility.yul\":26317:26331   */\n      add\n        /* \"#utility.yul\":26303:26331   */\n      swap1\n      pop\n        /* \"#utility.yul\":26158:26337   */\n      swap3\n      swap2\n      pop\n      pop\n      jump\t// out\n        /* \"#utility.yul\":26343:26456   */\n    tag_455:\n        /* \"#utility.yul\":26413:26417   */\n      0x00\n        /* \"#utility.yul\":26445:26449   */\n      0x20\n        /* \"#utility.yul\":26440:26443   */\n      dup3\n        /* \"#utility.yul\":26436:26450   */\n      add\n        /* \"#utility.yul\":26428:26450   */\n      swap1\n      pop\n        /* \"#utility.yul\":26343:26456   */\n      swap2\n      swap1\n      pop\n      jump\t// out\n        /* \"#utility.yul\":26492:27224   */\n    tag_456:\n        /* \"#utility.yul\":26611:26614   */\n      0x00\n        /* \"#utility.yul\":26640:26694   */\n      tag_753\n        /* \"#utility.yul\":26688:26693   */\n      dup3\n        /* \"#utility.yul\":26640:26694   */\n      tag_450\n      jump\t// in\n    tag_753:\n        /* \"#utility.yul\":26710:26796   */\n      tag_754\n        /* \"#utility.yul\":26789:26795   */\n      dup2\n        /* \"#utility.yul\":26784:26787   */\n      dup6\n        /* \"#utility.yul\":26710:26796   */\n      tag_451\n      jump\t// in\n    tag_754:\n        /* \"#utility.yul\":26703:26796   */\n      swap4\n      pop\n        /* \"#utility.yul\":26820:26876   */\n      tag_755\n        /* \"#utility.yul\":26870:26875   */\n      dup4\n        /* \"#utility.yul\":26820:26876   */\n      tag_452\n      jump\t// in\n    tag_755:\n        /* \"#utility.yul\":26899:26906   */\n      dup1\n        /* \"#utility.yul\":26930:26931   */\n      0x00\n        /* \"#utility.yul\":26915:27199   */\n    tag_756:\n        /* \"#utility.yul\":26940:26946   */\n      dup4\n        /* \"#utility.yul\":26937:26938   */\n      dup2\n        /* \"#utility.yul\":26934:26947   */\n      lt\n        /* \"#utility.yul\":26915:27199   */\n      iszero\n      tag_758\n      jumpi\n        /* \"#utility.yul\":27016:27022   */\n      dup2\n        /* \"#utility.yul\":27010:27023   */\n      mload\n        /* \"#utility.yul\":27043:27106   */\n      tag_759\n        /* \"#utility.yul\":27102:27105   */\n      dup9\n        /* \"#utility.yul\":27087:27100   */\n      dup3\n        /* \"#utility.yul\":27043:27106   */\n      tag_454\n      jump\t// in\n    tag_759:\n        /* \"#utility.yul\":27036:27106   */\n      swap8\n      pop\n        /* \"#utility.yul\":27129:27189   */\n      tag_760\n        /* \"#utility.yul\":27182:27188   */\n      dup4\n        /* \"#utility.yul\":27129:27189   */\n      tag_455\n      jump\t// in\n    tag_760:\n        /* \"#utility.yul\":27119:27189   */\n      swap3\n      pop\n        /* \"#utility.yul\":26975:27199   */\n      pop\n        /* \"#utility.yul\":26962:26963   */\n      0x01\n        /* \"#utility.yul\":26959:26960   */\n      dup2\n        /* \"#utility.yul\":26955:26964   */\n      add\n        /* \"#utility.yul\":26950:26964   */\n      swap1\n      pop\n        /* \"#utility.yul\":26915:27199   */\n      jump(tag_756)\n    tag_758:\n        /* \"#utility.yul\":26919:26933   */\n      pop\n        /* \"#utility.yul\":27215:27218   */\n      dup6\n        /* \"#utility.yul\":27208:27218   */\n      swap4\n      pop\n        /* \"#utility.yul\":26616:27224   */\n      pop\n      pop\n      pop\n        /* \"#utility.yul\":26492:27224   */\n      swap3\n      swap2\n      pop\n      pop\n      jump\t// out\n        /* \"#utility.yul\":27230:28507   */\n    tag_247:\n        /* \"#utility.yul\":27667:27671   */\n      0x00\n        /* \"#utility.yul\":27705:27708   */\n      0x80\n        /* \"#utility.yul\":27694:27703   */\n      dup3\n        /* \"#utility.yul\":27690:27709   */\n      add\n        /* \"#utility.yul\":27682:27709   */\n      swap1\n      pop\n        /* \"#utility.yul\":27755:27764   */\n      dup2\n        /* \"#utility.yul\":27749:27753   */\n      dup2\n        /* \"#utility.yul\":27745:27765   */\n      sub\n        /* \"#utility.yul\":27741:27742   */\n      0x00\n        /* \"#utility.yul\":27730:27739   */\n      dup4\n        /* \"#utility.yul\":27726:27743   */\n      add\n        /* \"#utility.yul\":27719:27766   */\n      mstore\n        /* \"#utility.yul\":27783:27891   */\n      tag_762\n        /* \"#utility.yul\":27886:27890   */\n      dup2\n        /* \"#utility.yul\":27877:27883   */\n      dup8\n        /* \"#utility.yul\":27783:27891   */\n      tag_456\n      jump\t// in\n    tag_762:\n        /* \"#utility.yul\":27775:27891   */\n      swap1\n      pop\n        /* \"#utility.yul\":27938:27947   */\n      dup2\n        /* \"#utility.yul\":27932:27936   */\n      dup2\n        /* \"#utility.yul\":27928:27948   */\n      sub\n        /* \"#utility.yul\":27923:27925   */\n      0x20\n        /* \"#utility.yul\":27912:27921   */\n      dup4\n        /* \"#utility.yul\":27908:27926   */\n      add\n        /* \"#utility.yul\":27901:27949   */\n      mstore\n        /* \"#utility.yul\":27966:28094   */\n      tag_763\n        /* \"#utility.yul\":28089:28093   */\n      dup2\n        /* \"#utility.yul\":28080:28086   */\n      dup7\n        /* \"#utility.yul\":27966:28094   */\n      tag_431\n      jump\t// in\n    tag_763:\n        /* \"#utility.yul\":27958:28094   */\n      swap1\n      pop\n        /* \"#utility.yul\":28141:28150   */\n      dup2\n        /* \"#utility.yul\":28135:28139   */\n      dup2\n        /* \"#utility.yul\":28131:28151   */\n      sub\n        /* \"#utility.yul\":28126:28128   */\n      0x40\n        /* \"#utility.yul\":28115:28124   */\n      dup4\n        /* \"#utility.yul\":28111:28129   */\n      add\n        /* \"#utility.yul\":28104:28152   */\n      mstore\n        /* \"#utility.yul\":28169:28297   */\n      tag_764\n        /* \"#utility.yul\":28292:28296   */\n      dup2\n        /* \"#utility.yul\":28283:28289   */\n      dup6\n        /* \"#utility.yul\":28169:28297   */\n      tag_431\n      jump\t// in\n    tag_764:\n        /* \"#utility.yul\":28161:28297   */\n      swap1\n      pop\n        /* \"#utility.yul\":28344:28353   */\n      dup2\n        /* \"#utility.yul\":28338:28342   */\n      dup2\n        /* \"#utility.yul\":28334:28354   */\n      sub\n        /* \"#utility.yul\":28329:28331   */\n      0x60\n        /* \"#utility.yul\":28318:28327   */\n      dup4\n        /* \"#utility.yul\":28314:28332   */\n      add\n        /* \"#utility.yul\":28307:28355   */\n      mstore\n        /* \"#utility.yul\":28372:28500   */\n      tag_765\n        /* \"#utility.yul\":28495:28499   */\n      dup2\n        /* \"#utility.yul\":28486:28492   */\n      dup5\n        /* \"#utility.yul\":28372:28500   */\n      tag_431\n      jump\t// in\n    tag_765:\n        /* \"#utility.yul\":28364:28500   */\n      swap1\n      pop\n        /* \"#utility.yul\":27230:28507   */\n      swap6\n      swap5\n      pop\n      pop\n      pop\n      pop\n      pop\n      jump\t// out\n        /* \"#utility.yul\":28513:29037   */\n    tag_252:\n        /* \"#utility.yul\":28593:28599   */\n      0x00\n        /* \"#utility.yul\":28642:28644   */\n      0x20\n        /* \"#utility.yul\":28630:28639   */\n      dup3\n        /* \"#utility.yul\":28621:28628   */\n      dup5\n        /* \"#utility.yul\":28617:28640   */\n      sub\n        /* \"#utility.yul\":28613:28645   */\n      slt\n        /* \"#utility.yul\":28610:28729   */\n      iszero\n      tag_767\n      jumpi\n        /* \"#utility.yul\":28648:28727   */\n      tag_768\n      tag_390\n      jump\t// in\n    tag_768:\n        /* \"#utility.yul\":28610:28729   */\n    tag_767:\n        /* \"#utility.yul\":28789:28790   */\n      0x00\n        /* \"#utility.yul\":28778:28787   */\n      dup3\n        /* \"#utility.yul\":28774:28791   */\n      add\n        /* \"#utility.yul\":28768:28792   */\n      mload\n        /* \"#utility.yul\":28819:28837   */\n      0xffffffffffffffff\n        /* \"#utility.yul\":28811:28817   */\n      dup2\n        /* \"#utility.yul\":28808:28838   */\n      gt\n        /* \"#utility.yul\":28805:28922   */\n      iszero\n      tag_769\n      jumpi\n        /* \"#utility.yul\":28841:28920   */\n      tag_770\n      tag_391\n      jump\t// in\n    tag_770:\n        /* \"#utility.yul\":28805:28922   */\n    tag_769:\n        /* \"#utility.yul\":28946:29020   */\n      tag_771\n        /* \"#utility.yul\":29012:29019   */\n      dup5\n        /* \"#utility.yul\":29003:29009   */\n      dup3\n        /* \"#utility.yul\":28992:29001   */\n      dup6\n        /* \"#utility.yul\":28988:29010   */\n      add\n        /* \"#utility.yul\":28946:29020   */\n      tag_447\n      jump\t// in\n    tag_771:\n        /* \"#utility.yul\":28936:29020   */\n      swap2\n      pop\n        /* \"#utility.yul\":28739:29030   */\n      pop\n        /* \"#utility.yul\":28513:29037   */\n      swap3\n      swap2\n      pop\n      pop\n      jump\t// out\n        /* \"#utility.yul\":29043:29161   */\n    tag_457:\n        /* \"#utility.yul\":29130:29154   */\n      tag_773\n        /* \"#utility.yul\":29148:29153   */\n      dup2\n        /* \"#utility.yul\":29130:29154   */\n      tag_439\n      jump\t// in\n    tag_773:\n        /* \"#utility.yul\":29125:29128   */\n      dup3\n        /* \"#utility.yul\":29118:29155   */\n      mstore\n        /* \"#utility.yul\":29043:29161   */\n      pop\n      pop\n      jump\t// out\n        /* \"#utility.yul\":29167:29389   */\n    tag_255:\n        /* \"#utility.yul\":29260:29264   */\n      0x00\n        /* \"#utility.yul\":29298:29300   */\n      0x20\n        /* \"#utility.yul\":29287:29296   */\n      dup3\n        /* \"#utility.yul\":29283:29301   */\n      add\n        /* \"#utility.yul\":29275:29301   */\n      swap1\n      pop\n        /* \"#utility.yul\":29311:29382   */\n      tag_775\n        /* \"#utility.yul\":29379:29380   */\n      0x00\n        /* \"#utility.yul\":29368:29377   */\n      dup4\n        /* \"#utility.yul\":29364:29381   */\n      add\n        /* \"#utility.yul\":29355:29361   */\n      dup5\n        /* \"#utility.yul\":29311:29382   */\n      tag_457\n      jump\t// in\n    tag_775:\n        /* \"#utility.yul\":29167:29389   */\n      swap3\n      swap2\n      pop\n      pop\n      jump\t// out\n        /* \"#utility.yul\":29395:29509   */\n    tag_458:\n      pop\n      jump\t// out\n        /* \"#utility.yul\":29515:29879   */\n    tag_459:\n        /* \"#utility.yul\":29657:29660   */\n      0x00\n        /* \"#utility.yul\":29678:29744   */\n      tag_778\n        /* \"#utility.yul\":29742:29743   */\n      0x00\n        /* \"#utility.yul\":29737:29740   */\n      dup4\n        /* \"#utility.yul\":29678:29744   */\n      tag_411\n      jump\t// in\n    tag_778:\n        /* \"#utility.yul\":29671:29744   */\n      swap2\n      pop\n        /* \"#utility.yul\":29753:29846   */\n      tag_779\n        /* \"#utility.yul\":29842:29845   */\n      dup3\n        /* \"#utility.yul\":29753:29846   */\n      tag_458\n      jump\t// in\n    tag_779:\n        /* \"#utility.yul\":29871:29872   */\n      0x00\n        /* \"#utility.yul\":29866:29869   */\n      dup3\n        /* \"#utility.yul\":29862:29873   */\n      add\n        /* \"#utility.yul\":29855:29873   */\n      swap1\n      pop\n        /* \"#utility.yul\":29515:29879   */\n      swap2\n      swap1\n      pop\n      jump\t// out\n        /* \"#utility.yul\":29885:30304   */\n    tag_258:\n        /* \"#utility.yul\":30051:30055   */\n      0x00\n        /* \"#utility.yul\":30089:30091   */\n      0x20\n        /* \"#utility.yul\":30078:30087   */\n      dup3\n        /* \"#utility.yul\":30074:30092   */\n      add\n        /* \"#utility.yul\":30066:30092   */\n      swap1\n      pop\n        /* \"#utility.yul\":30138:30147   */\n      dup2\n        /* \"#utility.yul\":30132:30136   */\n      dup2\n        /* \"#utility.yul\":30128:30148   */\n      sub\n        /* \"#utility.yul\":30124:30125   */\n      0x00\n        /* \"#utility.yul\":30113:30122   */\n      dup4\n        /* \"#utility.yul\":30109:30126   */\n      add\n        /* \"#utility.yul\":30102:30149   */\n      mstore\n        /* \"#utility.yul\":30166:30297   */\n      tag_781\n        /* \"#utility.yul\":30292:30296   */\n      dup2\n        /* \"#utility.yul\":30166:30297   */\n      tag_459\n      jump\t// in\n    tag_781:\n        /* \"#utility.yul\":30158:30297   */\n      swap1\n      pop\n        /* \"#utility.yul\":29885:30304   */\n      swap2\n      swap1\n      pop\n      jump\t// out\n        /* \"#utility.yul\":30310:31822   */\n    tag_263:\n        /* \"#utility.yul\":30447:30453   */\n      0x00\n        /* \"#utility.yul\":30455:30461   */\n      dup1\n        /* \"#utility.yul\":30463:30469   */\n      0x00\n        /* \"#utility.yul\":30471:30477   */\n      dup1\n        /* \"#utility.yul\":30520:30523   */\n      0x80\n        /* \"#utility.yul\":30508:30517   */\n      dup6\n        /* \"#utility.yul\":30499:30506   */\n      dup8\n        /* \"#utility.yul\":30495:30518   */\n      sub\n        /* \"#utility.yul\":30491:30524   */\n      slt\n        /* \"#utility.yul\":30488:30608   */\n      iszero\n      tag_783\n      jumpi\n        /* \"#utility.yul\":30527:30606   */\n      tag_784\n      tag_390\n      jump\t// in\n    tag_784:\n        /* \"#utility.yul\":30488:30608   */\n    tag_783:\n        /* \"#utility.yul\":30668:30669   */\n      0x00\n        /* \"#utility.yul\":30657:30666   */\n      dup6\n        /* \"#utility.yul\":30653:30670   */\n      add\n        /* \"#utility.yul\":30647:30671   */\n      mload\n        /* \"#utility.yul\":30698:30716   */\n      0xffffffffffffffff\n        /* \"#utility.yul\":30690:30696   */\n      dup2\n        /* \"#utility.yul\":30687:30717   */\n      gt\n        /* \"#utility.yul\":30684:30801   */\n      iszero\n      tag_785\n      jumpi\n        /* \"#utility.yul\":30720:30799   */\n      tag_786\n      tag_391\n      jump\t// in\n    tag_786:\n        /* \"#utility.yul\":30684:30801   */\n    tag_785:\n        /* \"#utility.yul\":30825:30899   */\n      tag_787\n        /* \"#utility.yul\":30891:30898   */\n      dup8\n        /* \"#utility.yul\":30882:30888   */\n      dup3\n        /* \"#utility.yul\":30871:30880   */\n      dup9\n        /* \"#utility.yul\":30867:30889   */\n      add\n        /* \"#utility.yul\":30825:30899   */\n      tag_447\n      jump\t// in\n    tag_787:\n        /* \"#utility.yul\":30815:30899   */\n      swap5\n      pop\n        /* \"#utility.yul\":30618:30909   */\n      pop\n        /* \"#utility.yul\":30969:30971   */\n      0x20\n        /* \"#utility.yul\":30958:30967   */\n      dup6\n        /* \"#utility.yul\":30954:30972   */\n      add\n        /* \"#utility.yul\":30948:30973   */\n      mload\n        /* \"#utility.yul\":31000:31018   */\n      0xffffffffffffffff\n        /* \"#utility.yul\":30992:30998   */\n      dup2\n        /* \"#utility.yul\":30989:31019   */\n      gt\n        /* \"#utility.yul\":30986:31103   */\n      iszero\n      tag_788\n      jumpi\n        /* \"#utility.yul\":31022:31101   */\n      tag_789\n      tag_391\n      jump\t// in\n    tag_789:\n        /* \"#utility.yul\":30986:31103   */\n    tag_788:\n        /* \"#utility.yul\":31127:31201   */\n      tag_790\n        /* \"#utility.yul\":31193:31200   */\n      dup8\n        /* \"#utility.yul\":31184:31190   */\n      dup3\n        /* \"#utility.yul\":31173:31182   */\n      dup9\n        /* \"#utility.yul\":31169:31191   */\n      add\n        /* \"#utility.yul\":31127:31201   */\n      tag_447\n      jump\t// in\n    tag_790:\n        /* \"#utility.yul\":31117:31201   */\n      swap4\n      pop\n        /* \"#utility.yul\":30919:31211   */\n      pop\n        /* \"#utility.yul\":31271:31273   */\n      0x40\n        /* \"#utility.yul\":31260:31269   */\n      dup6\n        /* \"#utility.yul\":31256:31274   */\n      add\n        /* \"#utility.yul\":31250:31275   */\n      mload\n        /* \"#utility.yul\":31302:31320   */\n      0xffffffffffffffff\n        /* \"#utility.yul\":31294:31300   */\n      dup2\n        /* \"#utility.yul\":31291:31321   */\n      gt\n        /* \"#utility.yul\":31288:31405   */\n      iszero\n      tag_791\n      jumpi\n        /* \"#utility.yul\":31324:31403   */\n      tag_792\n      tag_391\n      jump\t// in\n    tag_792:\n        /* \"#utility.yul\":31288:31405   */\n    tag_791:\n        /* \"#utility.yul\":31429:31503   */\n      tag_793\n        /* \"#utility.yul\":31495:31502   */\n      dup8\n        /* \"#utility.yul\":31486:31492   */\n      dup3\n        /* \"#utility.yul\":31475:31484   */\n      dup9\n        /* \"#utility.yul\":31471:31493   */\n      add\n        /* \"#utility.yul\":31429:31503   */\n      tag_447\n      jump\t// in\n    tag_793:\n        /* \"#utility.yul\":31419:31503   */\n      swap3\n      pop\n        /* \"#utility.yul\":31221:31513   */\n      pop\n        /* \"#utility.yul\":31573:31575   */\n      0x60\n        /* \"#utility.yul\":31562:31571   */\n      dup6\n        /* \"#utility.yul\":31558:31576   */\n      add\n        /* \"#utility.yul\":31552:31577   */\n      mload\n        /* \"#utility.yul\":31604:31622   */\n      0xffffffffffffffff\n        /* \"#utility.yul\":31596:31602   */\n      dup2\n        /* \"#utility.yul\":31593:31623   */\n      gt\n        /* \"#utility.yul\":31590:31707   */\n      iszero\n      tag_794\n      jumpi\n        /* \"#utility.yul\":31626:31705   */\n      tag_795\n      tag_391\n      jump\t// in\n    tag_795:\n        /* \"#utility.yul\":31590:31707   */\n    tag_794:\n        /* \"#utility.yul\":31731:31805   */\n      tag_796\n        /* \"#utility.yul\":31797:31804   */\n      dup8\n        /* \"#utility.yul\":31788:31794   */\n      dup3\n        /* \"#utility.yul\":31777:31786   */\n      dup9\n        /* \"#utility.yul\":31773:31795   */\n      add\n        /* \"#utility.yul\":31731:31805   */\n      tag_447\n      jump\t// in\n    tag_796:\n        /* \"#utility.yul\":31721:31805   */\n      swap2\n      pop\n        /* \"#utility.yul\":31523:31815   */\n      pop\n        /* \"#utility.yul\":30310:31822   */\n      swap3\n      swap6\n      swap2\n      swap5\n      pop\n      swap3\n      pop\n      jump\t// out\n        /* \"#utility.yul\":31828:31995   */\n    tag_460:\n        /* \"#utility.yul\":31968:31987   */\n      0x68616e646c6520697320696e76616c6964000000000000000000000000000000\n        /* \"#utility.yul\":31964:31965   */\n      0x00\n        /* \"#utility.yul\":31956:31962   */\n      dup3\n        /* \"#utility.yul\":31952:31966   */\n      add\n        /* \"#utility.yul\":31945:31988   */\n      mstore\n        /* \"#utility.yul\":31828:31995   */\n      pop\n      jump\t// out\n        /* \"#utility.yul\":32001:32367   */\n    tag_461:\n        /* \"#utility.yul\":32143:32146   */\n      0x00\n        /* \"#utility.yul\":32164:32231   */\n      tag_799\n        /* \"#utility.yul\":32228:32230   */\n      0x11\n        /* \"#utility.yul\":32223:32226   */\n      dup4\n        /* \"#utility.yul\":32164:32231   */\n      tag_411\n      jump\t// in\n    tag_799:\n        /* \"#utility.yul\":32157:32231   */\n      swap2\n      pop\n        /* \"#utility.yul\":32240:32333   */\n      tag_800\n        /* \"#utility.yul\":32329:32332   */\n      dup3\n        /* \"#utility.yul\":32240:32333   */\n      tag_460\n      jump\t// in\n    tag_800:\n        /* \"#utility.yul\":32358:32360   */\n      0x20\n        /* \"#utility.yul\":32353:32356   */\n      dup3\n        /* \"#utility.yul\":32349:32361   */\n      add\n        /* \"#utility.yul\":32342:32361   */\n      swap1\n      pop\n        /* \"#utility.yul\":32001:32367   */\n      swap2\n      swap1\n      pop\n      jump\t// out\n        /* \"#utility.yul\":32373:32792   */\n    tag_267:\n        /* \"#utility.yul\":32539:32543   */\n      0x00\n        /* \"#utility.yul\":32577:32579   */\n      0x20\n        /* \"#utility.yul\":32566:32575   */\n      dup3\n        /* \"#utility.yul\":32562:32580   */\n      add\n        /* \"#utility.yul\":32554:32580   */\n      swap1\n      pop\n        /* \"#utility.yul\":32626:32635   */\n      dup2\n        /* \"#utility.yul\":32620:32624   */\n      dup2\n        /* \"#utility.yul\":32616:32636   */\n      sub\n        /* \"#utility.yul\":32612:32613   */\n      0x00\n        /* \"#utility.yul\":32601:32610   */\n      dup4\n        /* \"#utility.yul\":32597:32614   */\n      add\n        /* \"#utility.yul\":32590:32637   */\n      mstore\n        /* \"#utility.yul\":32654:32785   */\n      tag_802\n        /* \"#utility.yul\":32780:32784   */\n      dup2\n        /* \"#utility.yul\":32654:32785   */\n      tag_461\n      jump\t// in\n    tag_802:\n        /* \"#utility.yul\":32646:32785   */\n      swap1\n      pop\n        /* \"#utility.yul\":32373:32792   */\n      swap2\n      swap1\n      pop\n      jump\t// out\n        /* \"#utility.yul\":32798:32978   */\n    tag_462:\n        /* \"#utility.yul\":32938:32970   */\n      0x7468652068616e646c6520686173206265656e20726567697374657265640000\n        /* \"#utility.yul\":32934:32935   */\n      0x00\n        /* \"#utility.yul\":32926:32932   */\n      dup3\n        /* \"#utility.yul\":32922:32936   */\n      add\n        /* \"#utility.yul\":32915:32971   */\n      mstore\n        /* \"#utility.yul\":32798:32978   */\n      pop\n      jump\t// out\n        /* \"#utility.yul\":32984:33350   */\n    tag_463:\n        /* \"#utility.yul\":33126:33129   */\n      0x00\n        /* \"#utility.yul\":33147:33214   */\n      tag_805\n        /* \"#utility.yul\":33211:33213   */\n      0x1e\n        /* \"#utility.yul\":33206:33209   */\n      dup4\n        /* \"#utility.yul\":33147:33214   */\n      tag_411\n      jump\t// in\n    tag_805:\n        /* \"#utility.yul\":33140:33214   */\n      swap2\n      pop\n        /* \"#utility.yul\":33223:33316   */\n      tag_806\n        /* \"#utility.yul\":33312:33315   */\n      dup3\n        /* \"#utility.yul\":33223:33316   */\n      tag_462\n      jump\t// in\n    tag_806:\n        /* \"#utility.yul\":33341:33343   */\n      0x20\n        /* \"#utility.yul\":33336:33339   */\n      dup3\n        /* \"#utility.yul\":33332:33344   */\n      add\n        /* \"#utility.yul\":33325:33344   */\n      swap1\n      pop\n        /* \"#utility.yul\":32984:33350   */\n      swap2\n      swap1\n      pop\n      jump\t// out\n        /* \"#utility.yul\":33356:33775   */\n    tag_291:\n        /* \"#utility.yul\":33522:33526   */\n      0x00\n        /* \"#utility.yul\":33560:33562   */\n      0x20\n        /* \"#utility.yul\":33549:33558   */\n      dup3\n        /* \"#utility.yul\":33545:33563   */\n      add\n        /* \"#utility.yul\":33537:33563   */\n      swap1\n      pop\n        /* \"#utility.yul\":33609:33618   */\n      dup2\n        /* \"#utility.yul\":33603:33607   */\n      dup2\n        /* \"#utility.yul\":33599:33619   */\n      sub\n        /* \"#utility.yul\":33595:33596   */\n      0x00\n        /* \"#utility.yul\":33584:33593   */\n      dup4\n        /* \"#utility.yul\":33580:33597   */\n      add\n        /* \"#utility.yul\":33573:33620   */\n      mstore\n        /* \"#utility.yul\":33637:33768   */\n      tag_808\n        /* \"#utility.yul\":33763:33767   */\n      dup2\n        /* \"#utility.yul\":33637:33768   */\n      tag_463\n      jump\t// in\n    tag_808:\n        /* \"#utility.yul\":33629:33768   */\n      swap1\n      pop\n        /* \"#utility.yul\":33356:33775   */\n      swap2\n      swap1\n      pop\n      jump\t// out\n        /* \"#utility.yul\":33781:33922   */\n    tag_464:\n        /* \"#utility.yul\":33830:33834   */\n      0x00\n        /* \"#utility.yul\":33853:33856   */\n      dup2\n        /* \"#utility.yul\":33845:33856   */\n      swap1\n      pop\n        /* \"#utility.yul\":33876:33879   */\n      dup2\n        /* \"#utility.yul\":33873:33874   */\n      0x00\n        /* \"#utility.yul\":33866:33880   */\n      mstore\n        /* \"#utility.yul\":33910:33914   */\n      0x20\n        /* \"#utility.yul\":33907:33908   */\n      0x00\n        /* \"#utility.yul\":33897:33915   */\n      keccak256\n        /* \"#utility.yul\":33889:33915   */\n      swap1\n      pop\n        /* \"#utility.yul\":33781:33922   */\n      swap2\n      swap1\n      pop\n      jump\t// out\n        /* \"#utility.yul\":33928:34021   */\n    tag_465:\n        /* \"#utility.yul\":33965:33971   */\n      0x00\n        /* \"#utility.yul\":34012:34014   */\n      0x20\n        /* \"#utility.yul\":34007:34009   */\n      0x1f\n        /* \"#utility.yul\":34000:34005   */\n      dup4\n        /* \"#utility.yul\":33996:34010   */\n      add\n        /* \"#utility.yul\":33992:34015   */\n      div\n        /* \"#utility.yul\":33982:34015   */\n      swap1\n      pop\n        /* \"#utility.yul\":33928:34021   */\n      swap2\n      swap1\n      pop\n      jump\t// out\n        /* \"#utility.yul\":34027:34134   */\n    tag_466:\n        /* \"#utility.yul\":34071:34079   */\n      0x00\n        /* \"#utility.yul\":34121:34126   */\n      dup3\n        /* \"#utility.yul\":34115:34119   */\n      dup3\n        /* \"#utility.yul\":34111:34127   */\n      shl\n        /* \"#utility.yul\":34090:34127   */\n      swap1\n      pop\n        /* \"#utility.yul\":34027:34134   */\n      swap3\n      swap2\n      pop\n      pop\n      jump\t// out\n        /* \"#utility.yul\":34140:34533   */\n    tag_467:\n        /* \"#utility.yul\":34209:34215   */\n      0x00\n        /* \"#utility.yul\":34259:34260   */\n      0x08\n        /* \"#utility.yul\":34247:34257   */\n      dup4\n        /* \"#utility.yul\":34243:34261   */\n      mul\n        /* \"#utility.yul\":34282:34379   */\n      tag_813\n        /* \"#utility.yul\":34312:34378   */\n      0xffffffffffffffffffffffffffffffffffffffffffffffffffffffffffffffff\n        /* \"#utility.yul\":34301:34310   */\n      dup3\n        /* \"#utility.yul\":34282:34379   */\n      tag_466\n      jump\t// in\n    tag_813:\n        /* \"#utility.yul\":34400:34439   */\n      tag_814\n        /* \"#utility.yul\":34430:34438   */\n      dup7\n        /* \"#utility.yul\":34419:34428   */\n      dup4\n        /* \"#utility.yul\":34400:34439   */\n      tag_466\n      jump\t// in\n    tag_814:\n        /* \"#utility.yul\":34388:34439   */\n      swap6\n      pop\n        /* \"#utility.yul\":34472:34476   */\n      dup1\n        /* \"#utility.yul\":34468:34477   */\n      not\n        /* \"#utility.yul\":34461:34466   */\n      dup5\n        /* \"#utility.yul\":34457:34478   */\n      and\n        /* \"#utility.yul\":34448:34478   */\n      swap4\n      pop\n        /* \"#utility.yul\":34521:34525   */\n      dup1\n        /* \"#utility.yul\":34511:34519   */\n      dup7\n        /* \"#utility.yul\":34507:34526   */\n      and\n        /* \"#utility.yul\":34500:34505   */\n      dup5\n        /* \"#utility.yul\":34497:34527   */\n      or\n        /* \"#utility.yul\":34487:34527   */\n      swap3\n      pop\n        /* \"#utility.yul\":34216:34533   */\n      pop\n      pop\n        /* \"#utility.yul\":34140:34533   */\n      swap4\n      swap3\n      pop\n      pop\n      pop\n      jump\t// out\n        /* \"#utility.yul\":34539:34616   */\n    tag_468:\n        /* \"#utility.yul\":34576:34583   */\n      0x00\n        /* \"#utility.yul\":34605:34610   */\n      dup2\n        /* \"#utility.yul\":34594:34610   */\n      swap1\n      pop\n        /* \"#utility.yul\":34539:34616   */\n      swap2\n      swap1\n      pop\n      jump\t// out\n        /* \"#utility.yul\":34622:34682   */\n    tag_469:\n        /* \"#utility.yul\":34650:34653   */\n      0x00\n        /* \"#utility.yul\":34671:34676   */\n      dup2\n        /* \"#utility.yul\":34664:34676   */\n      swap1\n      pop\n        /* \"#utility.yul\":34622:34682   */\n      swap2\n      swap1\n      pop\n      jump\t// out\n        /* \"#utility.yul\":34688:34830   */\n    tag_470:\n        /* \"#utility.yul\":34738:34747   */\n      0x00\n        /* \"#utility.yul\":34771:34824   */\n      tag_818\n        /* \"#utility.yul\":34789:34823   */\n      tag_819\n        /* \"#utility.yul\":34798:34822   */\n      tag_820\n        /* \"#utility.yul\":34816:34821   */\n      dup5\n        /* \"#utility.yul\":34798:34822   */\n      tag_468\n      jump\t// in\n    tag_820:\n        /* \"#utility.yul\":34789:34823   */\n      tag_469\n      jump\t// in\n    tag_819:\n        /* \"#utility.yul\":34771:34824   */\n      tag_468\n      jump\t// in\n    tag_818:\n        /* \"#utility.yul\":34758:34824   */\n      swap1\n      pop\n        /* \"#utility.yul\":34688:34830   */\n      swap2\n      swap1\n      pop\n      jump\t// out\n        /* \"#utility.yul\":34836:34911   */\n    tag_471:\n        /* \"#utility.yul\":34879:34882   */\n      0x00\n        /* \"#utility.yul\":34900:34905   */\n      dup2\n        /* \"#utility.yul\":34893:34905   */\n      swap1\n      pop\n        /* \"#utility.yul\":34836:34911   */\n      swap2\n      swap1\n      pop\n      jump\t// out\n        /* \"#utility.yul\":34917:35186   */\n    tag_472:\n        /* \"#utility.yul\":35027:35066   */\n      tag_823\n        /* \"#utility.yul\":35058:35065   */\n      dup4\n        /* \"#utility.yul\":35027:35066   */\n      tag_470\n      jump\t// in\n    tag_823:\n        /* \"#utility.yul\":35088:35179   */\n      tag_824\n        /* \"#utility.yul\":35137:35178   */\n      tag_825\n        /* \"#utility.yul\":35161:35177   */\n      dup3\n        /* \"#utility.yul\":35137:35178   */\n      tag_471\n      jump\t// in\n    tag_825:\n        /* \"#utility.yul\":35129:35135   */\n      dup5\n        /* \"#utility.yul\":35122:35126   */\n      dup5\n        /* \"#utility.yul\":35116:35127   */\n      sload\n        /* \"#utility.yul\":35088:35179   */\n      tag_467\n      jump\t// in\n    tag_824:\n        /* \"#utility.yul\":35082:35086   */\n      dup3\n        /* \"#utility.yul\":35075:35180   */\n      sstore\n        /* \"#utility.yul\":34993:35186   */\n      pop\n        /* \"#utility.yul\":34917:35186   */\n      pop\n      pop\n      pop\n      jump\t// out\n        /* \"#utility.yul\":35192:35265   */\n    tag_473:\n        /* \"#utility.yul\":35237:35240   */\n      0x00\n        /* \"#utility.yul\":35192:35265   */\n      swap1\n      jump\t// out\n        /* \"#utility.yul\":35271:35460   */\n    tag_474:\n        /* \"#utility.yul\":35348:35380   */\n      tag_828\n      tag_473\n      jump\t// in\n    tag_828:\n        /* \"#utility.yul\":35389:35454   */\n      tag_829\n        /* \"#utility.yul\":35447:35453   */\n      dup2\n        /* \"#utility.yul\":35439:35445   */\n      dup5\n        /* \"#utility.yul\":35433:35437   */\n      dup5\n        /* \"#utility.yul\":35389:35454   */\n      tag_472\n      jump\t// in\n    tag_829:\n        /* \"#utility.yul\":35324:35460   */\n      pop\n        /* \"#utility.yul\":35271:35460   */\n      pop\n      pop\n      jump\t// out\n        /* \"#utility.yul\":35466:35652   */\n    tag_475:\n        /* \"#utility.yul\":35526:35646   */\n    tag_831:\n        /* \"#utility.yul\":35543:35546   */\n      dup2\n        /* \"#utility.yul\":35536:35541   */\n      dup2\n        /* \"#utility.yul\":35533:35547   */\n      lt\n        /* \"#utility.yul\":35526:35646   */\n      iszero\n      tag_833\n      jumpi\n        /* \"#utility.yul\":35597:35636   */\n      tag_834\n        /* \"#utility.yul\":35634:35635   */\n      0x00\n        /* \"#utility.yul\":35627:35632   */\n      dup3\n        /* \"#utility.yul\":35597:35636   */\n      tag_474\n      jump\t// in\n    tag_834:\n        /* \"#utility.yul\":35570:35571   */\n      0x01\n        /* \"#utility.yul\":35563:35568   */\n      dup2\n        /* \"#utility.yul\":35559:35572   */\n      add\n        /* \"#utility.yul\":35550:35572   */\n      swap1\n      pop\n        /* \"#utility.yul\":35526:35646   */\n      jump(tag_831)\n    tag_833:\n        /* \"#utility.yul\":35466:35652   */\n      pop\n      pop\n      jump\t// out\n        /* \"#utility.yul\":35658:36201   */\n    tag_476:\n        /* \"#utility.yul\":35759:35761   */\n      0x1f\n        /* \"#utility.yul\":35754:35757   */\n      dup3\n        /* \"#utility.yul\":35751:35762   */\n      gt\n        /* \"#utility.yul\":35748:36194   */\n      iszero\n      tag_836\n      jumpi\n        /* \"#utility.yul\":35793:35831   */\n      tag_837\n        /* \"#utility.yul\":35825:35830   */\n      dup2\n        /* \"#utility.yul\":35793:35831   */\n      tag_464\n      jump\t// in\n    tag_837:\n        /* \"#utility.yul\":35877:35906   */\n      tag_838\n        /* \"#utility.yul\":35895:35905   */\n      dup5\n        /* \"#utility.yul\":35877:35906   */\n      tag_465\n      jump\t// in\n    tag_838:\n        /* \"#utility.yul\":35867:35875   */\n      dup2\n        /* \"#utility.yul\":35863:35907   */\n      add\n        /* \"#utility.yul\":36060:36062   */\n      0x20\n        /* \"#utility.yul\":36048:36058   */\n      dup6\n        /* \"#utility.yul\":36045:36063   */\n      lt\n        /* \"#utility.yul\":36042:36091   */\n      iszero\n      tag_839\n      jumpi\n        /* \"#utility.yul\":36081:36089   */\n      dup2\n        /* \"#utility.yul\":36066:36089   */\n      swap1\n      pop\n        /* \"#utility.yul\":36042:36091   */\n    tag_839:\n        /* \"#utility.yul\":36104:36184   */\n      tag_840\n        /* \"#utility.yul\":36160:36182   */\n      tag_841\n        /* \"#utility.yul\":36178:36181   */\n      dup6\n        /* \"#utility.yul\":36160:36182   */\n      tag_465\n      jump\t// in\n    tag_841:\n        /* \"#utility.yul\":36150:36158   */\n      dup4\n        /* \"#utility.yul\":36146:36183   */\n      add\n        /* \"#utility.yul\":36133:36144   */\n      dup3\n        /* \"#utility.yul\":36104:36184   */\n      tag_475\n      jump\t// in\n    tag_840:\n        /* \"#utility.yul\":35763:36194   */\n      pop\n      pop\n        /* \"#utility.yul\":35748:36194   */\n    tag_836:\n        /* \"#utility.yul\":35658:36201   */\n      pop\n      pop\n      pop\n      jump\t// out\n        /* \"#utility.yul\":36207:36324   */\n    tag_477:\n        /* \"#utility.yul\":36261:36269   */\n      0x00\n        /* \"#utility.yul\":36311:36316   */\n      dup3\n        /* \"#utility.yul\":36305:36309   */\n      dup3\n        /* \"#utility.yul\":36301:36317   */\n      shr\n        /* \"#utility.yul\":36280:36317   */\n      swap1\n      pop\n        /* \"#utility.yul\":36207:36324   */\n      swap3\n      swap2\n      pop\n      pop\n      jump\t// out\n        /* \"#utility.yul\":36330:36499   */\n    tag_478:\n        /* \"#utility.yul\":36374:36380   */\n      0x00\n        /* \"#utility.yul\":36407:36458   */\n      tag_844\n        /* \"#utility.yul\":36455:36456   */\n      0x00\n        /* \"#utility.yul\":36451:36457   */\n      not\n        /* \"#utility.yul\":36443:36448   */\n      dup5\n        /* \"#utility.yul\":36440:36441   */\n      0x08\n        /* \"#utility.yul\":36436:36449   */\n      mul\n        /* \"#utility.yul\":36407:36458   */\n      tag_477\n      jump\t// in\n    tag_844:\n        /* \"#utility.yul\":36403:36459   */\n      not\n        /* \"#utility.yul\":36488:36492   */\n      dup1\n        /* \"#utility.yul\":36482:36486   */\n      dup4\n        /* \"#utility.yul\":36478:36493   */\n      and\n        /* \"#utility.yul\":36468:36493   */\n      swap2\n      pop\n        /* \"#utility.yul\":36381:36499   */\n      pop\n        /* \"#utility.yul\":36330:36499   */\n      swap3\n      swap2\n      pop\n      pop\n      jump\t// out\n        /* \"#utility.yul\":36504:36799   */\n    tag_479:\n        /* \"#utility.yul\":36580:36584   */\n      0x00\n        /* \"#utility.yul\":36726:36755   */\n      tag_846\n        /* \"#utility.yul\":36751:36754   */\n      dup4\n        /* \"#utility.yul\":36745:36749   */\n      dup4\n        /* \"#utility.yul\":36726:36755   */\n      tag_478\n      jump\t// in\n    tag_846:\n        /* \"#utility.yul\":36718:36755   */\n      swap2\n      pop\n        /* \"#utility.yul\":36788:36791   */\n      dup3\n        /* \"#utility.yul\":36785:36786   */\n      0x02\n        /* \"#utility.yul\":36781:36792   */\n      mul\n        /* \"#utility.yul\":36775:36779   */\n      dup3\n        /* \"#utility.yul\":36772:36793   */\n      or\n        /* \"#utility.yul\":36764:36793   */\n      swap1\n      pop\n        /* \"#utility.yul\":36504:36799   */\n      swap3\n      swap2\n      pop\n      pop\n      jump\t// out\n        /* \"#utility.yul\":36804:38199   */\n    tag_295:\n        /* \"#utility.yul\":36921:36958   */\n      tag_848\n        /* \"#utility.yul\":36954:36957   */\n      dup3\n        /* \"#utility.yul\":36921:36958   */\n      tag_410\n      jump\t// in\n    tag_848:\n        /* \"#utility.yul\":37023:37041   */\n      0xffffffffffffffff\n        /* \"#utility.yul\":37015:37021   */\n      dup2\n        /* \"#utility.yul\":37012:37042   */\n      gt\n        /* \"#utility.yul\":37009:37065   */\n      iszero\n      tag_849\n      jumpi\n        /* \"#utility.yul\":37045:37063   */\n      tag_850\n      tag_66\n      jump\t// in\n    tag_850:\n        /* \"#utility.yul\":37009:37065   */\n    tag_849:\n        /* \"#utility.yul\":37089:37127   */\n      tag_851\n        /* \"#utility.yul\":37121:37125   */\n      dup3\n        /* \"#utility.yul\":37115:37126   */\n      sload\n        /* \"#utility.yul\":37089:37127   */\n      tag_159\n      jump\t// in\n    tag_851:\n        /* \"#utility.yul\":37174:37241   */\n      tag_852\n        /* \"#utility.yul\":37234:37240   */\n      dup3\n        /* \"#utility.yul\":37226:37232   */\n      dup3\n        /* \"#utility.yul\":37220:37224   */\n      dup6\n        /* \"#utility.yul\":37174:37241   */\n      tag_476\n      jump\t// in\n    tag_852:\n        /* \"#utility.yul\":37268:37269   */\n      0x00\n        /* \"#utility.yul\":37292:37296   */\n      0x20\n        /* \"#utility.yul\":37279:37296   */\n      swap1\n      pop\n        /* \"#utility.yul\":37324:37326   */\n      0x1f\n        /* \"#utility.yul\":37316:37322   */\n      dup4\n        /* \"#utility.yul\":37313:37327   */\n      gt\n        /* \"#utility.yul\":37341:37342   */\n      0x01\n        /* \"#utility.yul\":37336:37954   */\n      dup2\n      eq\n      tag_854\n      jumpi\n        /* \"#utility.yul\":37998:37999   */\n      0x00\n        /* \"#utility.yul\":38015:38021   */\n      dup5\n        /* \"#utility.yul\":38012:38089   */\n      iszero\n      tag_855\n      jumpi\n        /* \"#utility.yul\":38064:38073   */\n      dup3\n        /* \"#utility.yul\":38059:38062   */\n      dup8\n        /* \"#utility.yul\":38055:38074   */\n      add\n        /* \"#utility.yul\":38049:38075   */\n      mload\n        /* \"#utility.yul\":38040:38075   */\n      swap1\n      pop\n        /* \"#utility.yul\":38012:38089   */\n    tag_855:\n        /* \"#utility.yul\":38115:38182   */\n      tag_856\n        /* \"#utility.yul\":38175:38181   */\n      dup6\n        /* \"#utility.yul\":38168:38173   */\n      dup3\n        /* \"#utility.yul\":38115:38182   */\n      tag_479\n      jump\t// in\n    tag_856:\n        /* \"#utility.yul\":38109:38113   */\n      dup7\n        /* \"#utility.yul\":38102:38183   */\n      sstore\n        /* \"#utility.yul\":37971:38193   */\n      pop\n        /* \"#utility.yul\":37306:38193   */\n      jump(tag_853)\n        /* \"#utility.yul\":37336:37954   */\n    tag_854:\n        /* \"#utility.yul\":37388:37392   */\n      0x1f\n        /* \"#utility.yul\":37384:37393   */\n      not\n        /* \"#utility.yul\":37376:37382   */\n      dup5\n        /* \"#utility.yul\":37372:37394   */\n      and\n        /* \"#utility.yul\":37422:37459   */\n      tag_857\n        /* \"#utility.yul\":37454:37458   */\n      dup7\n        /* \"#utility.yul\":37422:37459   */\n      tag_464\n      jump\t// in\n    tag_857:\n        /* \"#utility.yul\":37481:37482   */\n      0x00\n        /* \"#utility.yul\":37495:37703   */\n    tag_858:\n        /* \"#utility.yul\":37509:37516   */\n      dup3\n        /* \"#utility.yul\":37506:37507   */\n      dup2\n        /* \"#utility.yul\":37503:37517   */\n      lt\n        /* \"#utility.yul\":37495:37703   */\n      iszero\n      tag_860\n      jumpi\n        /* \"#utility.yul\":37588:37597   */\n      dup5\n        /* \"#utility.yul\":37583:37586   */\n      dup10\n        /* \"#utility.yul\":37579:37598   */\n      add\n        /* \"#utility.yul\":37573:37599   */\n      mload\n        /* \"#utility.yul\":37565:37571   */\n      dup3\n        /* \"#utility.yul\":37558:37600   */\n      sstore\n        /* \"#utility.yul\":37639:37640   */\n      0x01\n        /* \"#utility.yul\":37631:37637   */\n      dup3\n        /* \"#utility.yul\":37627:37641   */\n      add\n        /* \"#utility.yul\":37617:37641   */\n      swap2\n      pop\n        /* \"#utility.yul\":37686:37688   */\n      0x20\n        /* \"#utility.yul\":37675:37684   */\n      dup6\n        /* \"#utility.yul\":37671:37689   */\n      add\n        /* \"#utility.yul\":37658:37689   */\n      swap5\n      pop\n        /* \"#utility.yul\":37532:37536   */\n      0x20\n        /* \"#utility.yul\":37529:37530   */\n      dup2\n        /* \"#utility.yul\":37525:37537   */\n      add\n        /* \"#utility.yul\":37520:37537   */\n      swap1\n      pop\n        /* \"#utility.yul\":37495:37703   */\n      jump(tag_858)\n    tag_860:\n        /* \"#utility.yul\":37731:37737   */\n      dup7\n        /* \"#utility.yul\":37722:37729   */\n      dup4\n        /* \"#utility.yul\":37719:37738   */\n      lt\n        /* \"#utility.yul\":37716:37895   */\n      iszero\n      tag_861\n      jumpi\n        /* \"#utility.yul\":37789:37798   */\n      dup5\n        /* \"#utility.yul\":37784:37787   */\n      dup10\n        /* \"#utility.yul\":37780:37799   */\n      add\n        /* \"#utility.yul\":37774:37800   */\n      mload\n        /* \"#utility.yul\":37832:37880   */\n      tag_862\n        /* \"#utility.yul\":37874:37878   */\n      0x1f\n        /* \"#utility.yul\":37866:37872   */\n      dup10\n        /* \"#utility.yul\":37862:37879   */\n      and\n        /* \"#utility.yul\":37851:37860   */\n      dup3\n        /* \"#utility.yul\":37832:37880   */\n      tag_478\n      jump\t// in\n    tag_862:\n        /* \"#utility.yul\":37824:37830   */\n      dup4\n        /* \"#utility.yul\":37817:37881   */\n      sstore\n        /* \"#utility.yul\":37739:37895   */\n      pop\n        /* \"#utility.yul\":37716:37895   */\n    tag_861:\n        /* \"#utility.yul\":37941:37942   */\n      0x01\n        /* \"#utility.yul\":37937:37938   */\n      0x02\n        /* \"#utility.yul\":37929:37935   */\n      dup9\n        /* \"#utility.yul\":37925:37939   */\n      mul\n        /* \"#utility.yul\":37921:37943   */\n      add\n        /* \"#utility.yul\":37915:37919   */\n      dup9\n        /* \"#utility.yul\":37908:37944   */\n      sstore\n        /* \"#utility.yul\":37343:37954   */\n      pop\n      pop\n      pop\n        /* \"#utility.yul\":37306:38193   */\n    tag_853:\n      pop\n        /* \"#utility.yul\":36896:38199   */\n      pop\n      pop\n      pop\n        /* \"#utility.yul\":36804:38199   */\n      pop\n      pop\n      jump\t// out\n        /* \"#utility.yul\":38205:38920   */\n    tag_302:\n        /* \"#utility.yul\":38414:38418   */\n      0x00\n        /* \"#utility.yul\":38452:38454   */\n      0x60\n        /* \"#utility.yul\":38441:38450   */\n      dup3\n        /* \"#utility.yul\":38437:38455   */\n      add\n        /* \"#utility.yul\":38429:38455   */\n      swap1\n      pop\n        /* \"#utility.yul\":38501:38510   */\n      dup2\n        /* \"#utility.yul\":38495:38499   */\n      dup2\n        /* \"#utility.yul\":38491:38511   */\n      sub\n        /* \"#utility.yul\":38487:38488   */\n      0x00\n        /* \"#utility.yul\":38476:38485   */\n      dup4\n        /* \"#utility.yul\":38472:38489   */\n      add\n        /* \"#utility.yul\":38465:38512   */\n      mstore\n        /* \"#utility.yul\":38529:38607   */\n      tag_864\n        /* \"#utility.yul\":38602:38606   */\n      dup2\n        /* \"#utility.yul\":38593:38599   */\n      dup7\n        /* \"#utility.yul\":38529:38607   */\n      tag_413\n      jump\t// in\n    tag_864:\n        /* \"#utility.yul\":38521:38607   */\n      swap1\n      pop\n        /* \"#utility.yul\":38654:38663   */\n      dup2\n        /* \"#utility.yul\":38648:38652   */\n      dup2\n        /* \"#utility.yul\":38644:38664   */\n      sub\n        /* \"#utility.yul\":38639:38641   */\n      0x20\n        /* \"#utility.yul\":38628:38637   */\n      dup4\n        /* \"#utility.yul\":38624:38642   */\n      add\n        /* \"#utility.yul\":38617:38665   */\n      mstore\n        /* \"#utility.yul\":38682:38760   */\n      tag_865\n        /* \"#utility.yul\":38755:38759   */\n      dup2\n        /* \"#utility.yul\":38746:38752   */\n      dup6\n        /* \"#utility.yul\":38682:38760   */\n      tag_413\n      jump\t// in\n    tag_865:\n        /* \"#utility.yul\":38674:38760   */\n      swap1\n      pop\n        /* \"#utility.yul\":38807:38816   */\n      dup2\n        /* \"#utility.yul\":38801:38805   */\n      dup2\n        /* \"#utility.yul\":38797:38817   */\n      sub\n        /* \"#utility.yul\":38792:38794   */\n      0x40\n        /* \"#utility.yul\":38781:38790   */\n      dup4\n        /* \"#utility.yul\":38777:38795   */\n      add\n        /* \"#utility.yul\":38770:38818   */\n      mstore\n        /* \"#utility.yul\":38835:38913   */\n      tag_866\n        /* \"#utility.yul\":38908:38912   */\n      dup2\n        /* \"#utility.yul\":38899:38905   */\n      dup5\n        /* \"#utility.yul\":38835:38913   */\n      tag_413\n      jump\t// in\n    tag_866:\n        /* \"#utility.yul\":38827:38913   */\n      swap1\n      pop\n        /* \"#utility.yul\":38205:38920   */\n      swap5\n      swap4\n      pop\n      pop\n      pop\n      pop\n      jump\t// out\n        /* \"#utility.yul\":38926:39095   */\n    tag_480:\n        /* \"#utility.yul\":39066:39087   */\n      0x7573657220686173207265676973746572656400000000000000000000000000\n        /* \"#utility.yul\":39062:39063   */\n      0x00\n        /* \"#utility.yul\":39054:39060   */\n      dup3\n        /* \"#utility.yul\":39050:39064   */\n      add\n        /* \"#utility.yul\":39043:39088   */\n      mstore\n        /* \"#utility.yul\":38926:39095   */\n      pop\n      jump\t// out\n        /* \"#utility.yul\":39101:39467   */\n    tag_481:\n        /* \"#utility.yul\":39243:39246   */\n      0x00\n        /* \"#utility.yul\":39264:39331   */\n      tag_869\n        /* \"#utility.yul\":39328:39330   */\n      0x13\n        /* \"#utility.yul\":39323:39326   */\n      dup4\n        /* \"#utility.yul\":39264:39331   */\n      tag_411\n      jump\t// in\n    tag_869:\n        /* \"#utility.yul\":39257:39331   */\n      swap2\n      pop\n        /* \"#utility.yul\":39340:39433   */\n      tag_870\n        /* \"#utility.yul\":39429:39432   */\n      dup3\n        /* \"#utility.yul\":39340:39433   */\n      tag_480\n      jump\t// in\n    tag_870:\n        /* \"#utility.yul\":39458:39460   */\n      0x20\n        /* \"#utility.yul\":39453:39456   */\n      dup3\n        /* \"#utility.yul\":39449:39461   */\n      add\n        /* \"#utility.yul\":39442:39461   */\n      swap1\n      pop\n        /* \"#utility.yul\":39101:39467   */\n      swap2\n      swap1\n      pop\n      jump\t// out\n        /* \"#utility.yul\":39473:39892   */\n    tag_305:\n        /* \"#utility.yul\":39639:39643   */\n      0x00\n        /* \"#utility.yul\":39677:39679   */\n      0x20\n        /* \"#utility.yul\":39666:39675   */\n      dup3\n        /* \"#utility.yul\":39662:39680   */\n      add\n        /* \"#utility.yul\":39654:39680   */\n      swap1\n      pop\n        /* \"#utility.yul\":39726:39735   */\n      dup2\n        /* \"#utility.yul\":39720:39724   */\n      dup2\n        /* \"#utility.yul\":39716:39736   */\n      sub\n        /* \"#utility.yul\":39712:39713   */\n      0x00\n        /* \"#utility.yul\":39701:39710   */\n      dup4\n        /* \"#utility.yul\":39697:39714   */\n      add\n        /* \"#utility.yul\":39690:39737   */\n      mstore\n        /* \"#utility.yul\":39754:39885   */\n      tag_872\n        /* \"#utility.yul\":39880:39884   */\n      dup2\n        /* \"#utility.yul\":39754:39885   */\n      tag_481\n      jump\t// in\n    tag_872:\n        /* \"#utility.yul\":39746:39885   */\n      swap1\n      pop\n        /* \"#utility.yul\":39473:39892   */\n      swap2\n      swap1\n      pop\n      jump\t// out\n        /* \"#utility.yul\":39898:41080   */\n    tag_351:\n        /* \"#utility.yul\":40016:40022   */\n      0x00\n        /* \"#utility.yul\":40024:40030   */\n      dup1\n        /* \"#utility.yul\":40032:40038   */\n      0x00\n        /* \"#utility.yul\":40081:40083   */\n      0x60\n        /* \"#utility.yul\":40069:40078   */\n      dup5\n        /* \"#utility.yul\":40060:40067   */\n      dup7\n        /* \"#utility.yul\":40056:40079   */\n      sub\n        /* \"#utility.yul\":40052:40084   */\n      slt\n        /* \"#utility.yul\":40049:40168   */\n      iszero\n      tag_874\n      jumpi\n        /* \"#utility.yul\":40087:40166   */\n      tag_875\n      tag_390\n      jump\t// in\n    tag_875:\n        /* \"#utility.yul\":40049:40168   */\n    tag_874:\n        /* \"#utility.yul\":40228:40229   */\n      0x00\n        /* \"#utility.yul\":40217:40226   */\n      dup5\n        /* \"#utility.yul\":40213:40230   */\n      add\n        /* \"#utility.yul\":40207:40231   */\n      mload\n        /* \"#utility.yul\":40258:40276   */\n      0xffffffffffffffff\n        /* \"#utility.yul\":40250:40256   */\n      dup2\n        /* \"#utility.yul\":40247:40277   */\n      gt\n        /* \"#utility.yul\":40244:40361   */\n      iszero\n      tag_876\n      jumpi\n        /* \"#utility.yul\":40280:40359   */\n      tag_877\n      tag_391\n      jump\t// in\n    tag_877:\n        /* \"#utility.yul\":40244:40361   */\n    tag_876:\n        /* \"#utility.yul\":40385:40459   */\n      tag_878\n        /* \"#utility.yul\":40451:40458   */\n      dup7\n        /* \"#utility.yul\":40442:40448   */\n      dup3\n        /* \"#utility.yul\":40431:40440   */\n      dup8\n        /* \"#utility.yul\":40427:40449   */\n      add\n        /* \"#utility.yul\":40385:40459   */\n      tag_447\n      jump\t// in\n    tag_878:\n        /* \"#utility.yul\":40375:40459   */\n      swap4\n      pop\n        /* \"#utility.yul\":40178:40469   */\n      pop\n        /* \"#utility.yul\":40529:40531   */\n      0x20\n        /* \"#utility.yul\":40518:40527   */\n      dup5\n        /* \"#utility.yul\":40514:40532   */\n      add\n        /* \"#utility.yul\":40508:40533   */\n      mload\n        /* \"#utility.yul\":40560:40578   */\n      0xffffffffffffffff\n        /* \"#utility.yul\":40552:40558   */\n      dup2\n        /* \"#utility.yul\":40549:40579   */\n      gt\n        /* \"#utility.yul\":40546:40663   */\n      iszero\n      tag_879\n      jumpi\n        /* \"#utility.yul\":40582:40661   */\n      tag_880\n      tag_391\n      jump\t// in\n    tag_880:\n        /* \"#utility.yul\":40546:40663   */\n    tag_879:\n        /* \"#utility.yul\":40687:40761   */\n      tag_881\n        /* \"#utility.yul\":40753:40760   */\n      dup7\n        /* \"#utility.yul\":40744:40750   */\n      dup3\n        /* \"#utility.yul\":40733:40742   */\n      dup8\n        /* \"#utility.yul\":40729:40751   */\n      add\n        /* \"#utility.yul\":40687:40761   */\n      tag_447\n      jump\t// in\n    tag_881:\n        /* \"#utility.yul\":40677:40761   */\n      swap3\n      pop\n        /* \"#utility.yul\":40479:40771   */\n      pop\n        /* \"#utility.yul\":40831:40833   */\n      0x40\n        /* \"#utility.yul\":40820:40829   */\n      dup5\n        /* \"#utility.yul\":40816:40834   */\n      add\n        /* \"#utility.yul\":40810:40835   */\n      mload\n        /* \"#utility.yul\":40862:40880   */\n      0xffffffffffffffff\n        /* \"#utility.yul\":40854:40860   */\n      dup2\n        /* \"#utility.yul\":40851:40881   */\n      gt\n        /* \"#utility.yul\":40848:40965   */\n      iszero\n      tag_882\n      jumpi\n        /* \"#utility.yul\":40884:40963   */\n      tag_883\n      tag_391\n      jump\t// in\n    tag_883:\n        /* \"#utility.yul\":40848:40965   */\n    tag_882:\n        /* \"#utility.yul\":40989:41063   */\n      tag_884\n        /* \"#utility.yul\":41055:41062   */\n      dup7\n        /* \"#utility.yul\":41046:41052   */\n      dup3\n        /* \"#utility.yul\":41035:41044   */\n      dup8\n        /* \"#utility.yul\":41031:41053   */\n      add\n        /* \"#utility.yul\":40989:41063   */\n      tag_447\n      jump\t// in\n    tag_884:\n        /* \"#utility.yul\":40979:41063   */\n      swap2\n      pop\n        /* \"#utility.yul\":40781:41073   */\n      pop\n        /* \"#utility.yul\":39898:41080   */\n      swap3\n      pop\n      swap3\n      pop\n      swap3\n      jump\t// out\n        /* \"#utility.yul\":41086:41262   */\n    tag_482:\n        /* \"#utility.yul\":41226:41254   */\n      0x7468652075736572206973206e6f742072656769737465726564000000000000\n        /* \"#utility.yul\":41222:41223   */\n      0x00\n        /* \"#utility.yul\":41214:41220   */\n      dup3\n        /* \"#utility.yul\":41210:41224   */\n      add\n        /* \"#utility.yul\":41203:41255   */\n      mstore\n        /* \"#utility.yul\":41086:41262   */\n      pop\n      jump\t// out\n        /* \"#utility.yul\":41268:41634   */\n    tag_483:\n        /* \"#utility.yul\":41410:41413   */\n      0x00\n        /* \"#utility.yul\":41431:41498   */\n      tag_887\n        /* \"#utility.yul\":41495:41497   */\n      0x1a\n        /* \"#utility.yul\":41490:41493   */\n      dup4\n        /* \"#utility.yul\":41431:41498   */\n      tag_411\n      jump\t// in\n    tag_887:\n        /* \"#utility.yul\":41424:41498   */\n      swap2\n      pop\n        /* \"#utility.yul\":41507:41600   */\n      tag_888\n        /* \"#utility.yul\":41596:41599   */\n      dup3\n        /* \"#utility.yul\":41507:41600   */\n      tag_482\n      jump\t// in\n    tag_888:\n        /* \"#utility.yul\":41625:41627   */\n      0x20\n        /* \"#utility.yul\":41620:41623   */\n      dup3\n        /* \"#utility.yul\":41616:41628   */\n      add\n        /* \"#utility.yul\":41609:41628   */\n      swap1\n      pop\n        /* \"#utility.yul\":41268:41634   */\n      swap2\n      swap1\n      pop\n      jump\t// out\n        /* \"#utility.yul\":41640:42059   */\n    tag_360:\n        /* \"#utility.yul\":41806:41810   */\n      0x00\n        /* \"#utility.yul\":41844:41846   */\n      0x20\n        /* \"#utility.yul\":41833:41842   */\n      dup3\n        /* \"#utility.yul\":41829:41847   */\n      add\n        /* \"#utility.yul\":41821:41847   */\n      swap1\n      pop\n        /* \"#utility.yul\":41893:41902   */\n      dup2\n        /* \"#utility.yul\":41887:41891   */\n      dup2\n        /* \"#utility.yul\":41883:41903   */\n      sub\n        /* \"#utility.yul\":41879:41880   */\n      0x00\n        /* \"#utility.yul\":41868:41877   */\n      dup4\n        /* \"#utility.yul\":41864:41881   */\n      add\n        /* \"#utility.yul\":41857:41904   */\n      mstore\n        /* \"#utility.yul\":41921:42052   */\n      tag_890\n        /* \"#utility.yul\":42047:42051   */\n      dup2\n        /* \"#utility.yul\":41921:42052   */\n      tag_483\n      jump\t// in\n    tag_890:\n        /* \"#utility.yul\":41913:42052   */\n      swap1\n      pop\n        /* \"#utility.yul\":41640:42059   */\n      swap2\n      swap1\n      pop\n      jump\t// out\n        /* \"#utility.yul\":42065:42575   */\n    tag_362:\n        /* \"#utility.yul\":42224:42228   */\n      0x00\n        /* \"#utility.yul\":42262:42264   */\n      0x40\n        /* \"#utility.yul\":42251:42260   */\n      dup3\n        /* \"#utility.yul\":42247:42265   */\n      add\n        /* \"#utility.yul\":42239:42265   */\n      swap1\n      pop\n        /* \"#utility.yul\":42311:42320   */\n      dup2\n        /* \"#utility.yul\":42305:42309   */\n      dup2\n        /* \"#utility.yul\":42301:42321   */\n      sub\n        /* \"#utility.yul\":42297:42298   */\n      0x00\n        /* \"#utility.yul\":42286:42295   */\n      dup4\n        /* \"#utility.yul\":42282:42299   */\n      add\n        /* \"#utility.yul\":42275:42322   */\n      mstore\n        /* \"#utility.yul\":42339:42417   */\n      tag_892\n        /* \"#utility.yul\":42412:42416   */\n      dup2\n        /* \"#utility.yul\":42403:42409   */\n      dup6\n        /* \"#utility.yul\":42339:42417   */\n      tag_413\n      jump\t// in\n    tag_892:\n        /* \"#utility.yul\":42331:42417   */\n      swap1\n      pop\n        /* \"#utility.yul\":42464:42473   */\n      dup2\n        /* \"#utility.yul\":42458:42462   */\n      dup2\n        /* \"#utility.yul\":42454:42474   */\n      sub\n        /* \"#utility.yul\":42449:42451   */\n      0x20\n        /* \"#utility.yul\":42438:42447   */\n      dup4\n        /* \"#utility.yul\":42434:42452   */\n      add\n        /* \"#utility.yul\":42427:42475   */\n      mstore\n        /* \"#utility.yul\":42492:42568   */\n      tag_893\n        /* \"#utility.yul\":42563:42567   */\n      dup2\n        /* \"#utility.yul\":42554:42560   */\n      dup5\n        /* \"#utility.yul\":42492:42568   */\n      tag_421\n      jump\t// in\n    tag_893:\n        /* \"#utility.yul\":42484:42568   */\n      swap1\n      pop\n        /* \"#utility.yul\":42065:42575   */\n      swap4\n      swap3\n      pop\n      pop\n      pop\n      jump\t// out\n\n    auxdata: 0xa26469706673582212208f197bdd09f7fa16320790e71bec005936d55bf04cdff8ea67d16456152485ae64736f6c63430008160033\n}\n",
				"bytecode": {
					"linkReferences": {},
					"object": "608060405234801562000010575f80fd5b505f600467ffffffffffffffff81111562000030576200002f62000c61565b5b6040519080825280602002602001820160405280156200005f5781602001602082028036833780820191505090505b5090506063815f815181106200007a576200007962000c8e565b5b602002602001019060c681111562000097576200009662000cbb565b5b908160c6811115620000ae57620000ad62000cbb565b5b81525050606381600181518110620000cb57620000ca62000c8e565b5b602002602001019060c6811115620000e857620000e762000cbb565b5b908160c6811115620000ff57620000fe62000cbb565b5b815250506063816002815181106200011c576200011b62000c8e565b5b602002602001019060c681111562000139576200013862000cbb565b5b908160c681111562000150576200014f62000cbb565b5b815250506063816003815181106200016d576200016c62000c8e565b5b602002602001019060c68111156200018a576200018962000cbb565b5b908160c6811115620001a157620001a062000cbb565b5b815250505f600367ffffffffffffffff811115620001c457620001c362000c61565b5b604051908082528060200260200182016040528015620001f35781602001602082028036833780820191505090505b5090506063815f815181106200020e576200020d62000c8e565b5b602002602001019060c68111156200022b576200022a62000cbb565b5b908160c681111562000242576200024162000cbb565b5b815250506063816001815181106200025f576200025e62000c8e565b5b602002602001019060c68111156200027c576200027b62000cbb565b5b908160c681111562000293576200029262000cbb565b5b81525050606381600281518110620002b057620002af62000c8e565b5b602002602001019060c6811115620002cd57620002cc62000cbb565b5b908160c6811115620002e457620002e362000cbb565b5b815250505f600167ffffffffffffffff81111562000307576200030662000c61565b5b604051908082528060200260200182016040528015620003365781602001602082028036833780820191505090505b50905060a4815f8151811062000351576200035062000c8e565b5b602002602001019060c68111156200036e576200036d62000cbb565b5b908160c681111562000385576200038462000cbb565b5b815250505f600467ffffffffffffffff811115620003a857620003a762000c61565b5b604051908082528060200260200182016040528015620003d75781602001602082028036833780820191505090505b50905060c6815f81518110620003f257620003f162000c8e565b5b602002602001019060c68111156200040f576200040e62000cbb565b5b908160c681111562000426576200042562000cbb565b5b8152505060c68160018151811062000443576200044262000c8e565b5b602002602001019060c681111562000460576200045f62000cbb565b5b908160c681111562000477576200047662000cbb565b5b8152505060c68160028151811062000494576200049362000c8e565b5b602002602001019060c6811115620004b157620004b062000cbb565b5b908160c6811115620004c857620004c762000cbb565b5b8152505060c681600381518110620004e557620004e462000c8e565b5b602002602001019060c681111562000502576200050162000cbb565b5b908160c681111562000519576200051862000cbb565b5b815250505f600167ffffffffffffffff8111156200053c576200053b62000c61565b5b6040519080825280602002602001820160405280156200056b5781602001602082028036833780820191505090505b5090506041815f8151811062000586576200058562000c8e565b5b602002602001019060c6811115620005a357620005a262000cbb565b5b908160c6811115620005ba57620005b962000cbb565b5b815250505f600167ffffffffffffffff811115620005dd57620005dc62000c61565b5b6040519080825280602002602001820160405280156200060c5781602001602082028036833780820191505090505b5090506063815f8151811062000627576200062662000c8e565b5b602002602001019060c681111562000644576200064362000cbb565b5b908160c68111156200065b576200065a62000cbb565b5b815250505f600167ffffffffffffffff8111156200067e576200067d62000c61565b5b604051908082528060200260200182016040528015620006ad5781602001602082028036833780820191505090505b50905060c6815f81518110620006c857620006c762000c8e565b5b602002602001019060c6811115620006e557620006e462000cbb565b5b908160c6811115620006fc57620006fb62000cbb565b5b815250505f600467ffffffffffffffff8111156200071f576200071e62000c61565b5b6040519080825280602002602001820160405280156200074e5781602001602082028036833780820191505090505b50905060a4815f8151811062000769576200076862000c8e565b5b602002602001019060c681111562000786576200078562000cbb565b5b908160c68111156200079d576200079c62000cbb565b5b8152505060c681600181518110620007ba57620007b962000c8e565b5b602002602001019060c6811115620007d757620007d662000cbb565b5b908160c6811115620007ee57620007ed62000cbb565b5b8152505060c6816002815181106200080b576200080a62000c8e565b5b602002602001019060c681111562000828576200082762000cbb565b5b908160c68111156200083f576200083e62000cbb565b5b8152505060c6816003815181106200085c576200085b62000c8e565b5b602002602001019060c681111562000879576200087862000cbb565b5b908160c681111562000890576200088f62000cbb565b5b815250506200092a6040518060400160405280600a81526020017f637265617465557365720000000000000000000000000000000000000000000081525060018a5f67ffffffffffffffff811115620008ee57620008ed62000c61565b5b6040519080825280602002602001820160405280156200091d5781602001602082028036833780820191505090505b5062000aa960201b60201c565b620009c06040518060400160405280600e81526020017f75706461746555736572496e666f0000000000000000000000000000000000008152506002895f67ffffffffffffffff81111562000984576200098362000c61565b5b604051908082528060200260200182016040528015620009b35781602001602082028036833780820191505090505b5062000aa960201b60201c565b62000a096040518060400160405280601681526020017f67657455736572496e666f4279416464726573736573000000000000000000008152505f888862000aa960201b60201c565b62000a526040518060400160405280601481526020017f67657455736572496e666f427948616e646c65730000000000000000000000008152505f848462000aa960201b60201c565b62000a9b6040518060400160405280601281526020017f67657441646472657373427948616e646c6500000000000000000000000000008152505f858762000aa960201b60201c565b505050505050505062001085565b5f8084600381111562000ac15762000ac062000cbb565b5b600381111562000ad65762000ad562000cbb565b5b81526020019081526020015f2084908060018154018082558091505060019003905f5260205f20015f90919091909150908162000b14919062000f1f565b508160018560405162000b2891906200106d565b9081526020016040518091039020908051906020019062000b4b92919062000b89565b508060028560405162000b5f91906200106d565b9081526020016040518091039020908051906020019062000b8292919062000b89565b5050505050565b828054828255905f5260205f2090601f0160209004810192821562000c31579160200282015f5b8382111562000c0157835183826101000a81548160ff021916908360c681111562000be05762000bdf62000cbb565b5b021790555092602001926001016020815f0104928301926001030262000bb0565b801562000c2f5782816101000a81549060ff02191690556001016020815f0104928301926001030262000c01565b505b50905062000c40919062000c44565b5090565b5b8082111562000c5d575f815f90555060010162000c45565b5090565b7f4e487b71000000000000000000000000000000000000000000000000000000005f52604160045260245ffd5b7f4e487b71000000000000000000000000000000000000000000000000000000005f52603260045260245ffd5b7f4e487b71000000000000000000000000000000000000000000000000000000005f52602160045260245ffd5b5f81519050919050565b7f4e487b71000000000000000000000000000000000000000000000000000000005f52602260045260245ffd5b5f600282049050600182168062000d3757607f821691505b60208210810362000d4d5762000d4c62000cf2565b5b50919050565b5f819050815f5260205f209050919050565b5f6020601f8301049050919050565b5f82821b905092915050565b5f6008830262000db17fffffffffffffffffffffffffffffffffffffffffffffffffffffffffffffffff8262000d74565b62000dbd868362000d74565b95508019841693508086168417925050509392505050565b5f819050919050565b5f819050919050565b5f62000e0762000e0162000dfb8462000dd5565b62000dde565b62000dd5565b9050919050565b5f819050919050565b62000e228362000de7565b62000e3a62000e318262000e0e565b84845462000d80565b825550505050565b5f90565b62000e5062000e42565b62000e5d81848462000e17565b505050565b5b8181101562000e845762000e785f8262000e46565b60018101905062000e63565b5050565b601f82111562000ed35762000e9d8162000d53565b62000ea88462000d65565b8101602085101562000eb8578190505b62000ed062000ec78562000d65565b83018262000e62565b50505b505050565b5f82821c905092915050565b5f62000ef55f198460080262000ed8565b1980831691505092915050565b5f62000f0f838362000ee4565b9150826002028217905092915050565b62000f2a8262000ce8565b67ffffffffffffffff81111562000f465762000f4562000c61565b5b62000f52825462000d1f565b62000f5f82828562000e88565b5f60209050601f83116001811462000f95575f841562000f80578287015190505b62000f8c858262000f02565b86555062000ffb565b601f19841662000fa58662000d53565b5f5b8281101562000fce5784890151825560018201915060208501945060208101905062000fa7565b8683101562000fee578489015162000fea601f89168262000ee4565b8355505b6001600288020188555050505b505050505050565b5f81905092915050565b5f5b838110156200102c5780820151818401526020810190506200100f565b5f8484015250505050565b5f620010438262000ce8565b6200104f818562001003565b9350620010618185602086016200100d565b80840191505092915050565b5f6200107a828462001037565b915081905092915050565b6134c380620010935f395ff3fe608060405260043610610085575f3560e01c8063aff6274511610058578063aff6274514610168578063b6ae0425146101a4578063c502607f146101d4578063e953647214610210578063f4856ccb1461024057610085565b80631069143a14610089578063458ad6d4146100b35780639416b423146100f0578063a45f379e1461012c575b5f80fd5b348015610094575f80fd5b5061009d61027c565b6040516100aa9190612192565b60405180910390f35b3480156100be575f80fd5b506100d960048036038101906100d491906122ff565b6103f0565b6040516100e7929190612424565b60405180910390f35b3480156100fb575f80fd5b50610116600480360381019061011191906122ff565b61053e565b60405161012391906124d3565b60405180910390f35b348015610137575f80fd5b50610152600480360381019061014d91906122ff565b610729565b60405161015f919061250d565b60405180910390f35b348015610173575f80fd5b5061018e600480360381019061018991906125c4565b61073a565b60405161019b919061268c565b60405180910390f35b6101be60048036038101906101b991906125c4565b61131a565b6040516101cb919061268c565b60405180910390f35b3480156101df575f80fd5b506101fa60048036038101906101f591906122ff565b61191a565b604051610207919061250d565b60405180910390f35b61022a600480360381019061022591906125c4565b611a8e565b604051610237919061268c565b60405180910390f35b34801561024b575f80fd5b50610266600480360381019061026191906126cf565b611f17565b60405161027391906127fd565b60405180910390f35b60605f600467ffffffffffffffff81111561029a576102996121db565b5b6040519080825280602002602001820160405280156102c85781602001602082028036833780820191505090505b5090505f815f815181106102df576102de61281d565b5b602002602001019060038111156102f9576102f86120a0565b5b9081600381111561030d5761030c6120a0565b5b815250506001816001815181106103275761032661281d565b5b60200260200101906003811115610341576103406120a0565b5b90816003811115610355576103546120a0565b5b8152505060028160028151811061036f5761036e61281d565b5b60200260200101906003811115610389576103886120a0565b5b9081600381111561039d5761039c6120a0565b5b815250506003816003815181106103b7576103b661281d565b5b602002602001019060038111156103d1576103d06120a0565b5b908160038111156103e5576103e46120a0565b5b815250508091505090565b6060806001836040516104039190612884565b90815260200160405180910390206002846040516104219190612884565b9081526020016040518091039020818054806020026020016040519081016040528092919081815260200182805480156104ab57602002820191905f5260205f20905f905b82829054906101000a900460ff1660c6811115610486576104856120a0565b5b815260200190600101906020825f010492830192600103820291508084116104665790505b505050505091508080548060200260200160405190810160405280929190818152602001828054801561052e57602002820191905f5260205f20905f905b82829054906101000a900460ff1660c6811115610509576105086120a0565b5b815260200190600101906020825f010492830192600103820291508084116104e95790505b5050505050905091509150915091565b60605f8290505f815167ffffffffffffffff8111156105605761055f6121db565b5b6040519080825280601f01601f1916602001820160405280156105925781602001600182028036833780820191505090505b5090505f5b825181101561071e57604160f81b8382815181106105b8576105b761281d565b5b602001015160f81c60f81b7effffffffffffffffffffffffffffffffffffffffffffffffffffffffffffff1916101580156106365750605a60f81b8382815181106106065761060561281d565b5b602001015160f81c60f81b7effffffffffffffffffffffffffffffffffffffffffffffffffffffffffffff191611155b156106b15760208382815181106106505761064f61281d565b5b602001015160f81c60f81b60f81c61066891906128d3565b60f81b82828151811061067e5761067d61281d565b5b60200101907effffffffffffffffffffffffffffffffffffffffffffffffffffffffffffff191690815f1a905350610711565b8281815181106106c4576106c361281d565b5b602001015160f81c60f81b8282815181106106e2576106e161281d565b5b60200101907effffffffffffffffffffffffffffffffffffffffffffffffffffffffffffff191690815f1a9053505b8080600101915050610597565b508092505050919050565b5f808290505f815114915050919050565b606061077b836040518060400160405280601681526020017f67657455736572496e666f42794164647265737365730000000000000000000081525061201f565b15610c5a575f828060200190518101906107959190612a25565b90505f815167ffffffffffffffff8111156107b3576107b26121db565b5b6040519080825280602002602001820160405280156107e657816020015b60608152602001906001900390816107d15790505b5090505f825167ffffffffffffffff811115610805576108046121db565b5b60405190808252806020026020018201604052801561083857816020015b60608152602001906001900390816108235790505b5090505f835167ffffffffffffffff811115610857576108566121db565b5b60405190808252806020026020018201604052801561088a57816020015b60608152602001906001900390816108755790505b5090505f845167ffffffffffffffff8111156108a9576108a86121db565b5b6040519080825280602002602001820160405280156108dc57816020015b60608152602001906001900390816108c75790505b5090505f5b8551811015610c27575f60035f8884815181106109015761090061281d565b5b602002602001015173ffffffffffffffffffffffffffffffffffffffff1673ffffffffffffffffffffffffffffffffffffffff1681526020019081526020015f206040518060800160405290815f8201805461095c90612a99565b80601f016020809104026020016040519081016040528092919081815260200182805461098890612a99565b80156109d35780601f106109aa576101008083540402835291602001916109d3565b820191905f5260205f20905b8154815290600101906020018083116109b657829003601f168201915b505050505081526020016001820180546109ec90612a99565b80601f0160208091040260200160405190810160405280929190818152602001828054610a1890612a99565b8015610a635780601f10610a3a57610100808354040283529160200191610a63565b820191905f5260205f20905b815481529060010190602001808311610a4657829003601f168201915b50505050508152602001600282018054610a7c90612a99565b80601f0160208091040260200160405190810160405280929190818152602001828054610aa890612a99565b8015610af35780601f10610aca57610100808354040283529160200191610af3565b820191905f5260205f20905b815481529060010190602001808311610ad657829003601f168201915b50505050508152602001600382018054610b0c90612a99565b80601f0160208091040260200160405190810160405280929190818152602001828054610b3890612a99565b8015610b835780601f10610b5a57610100808354040283529160200191610b83565b820191905f5260205f20905b815481529060010190602001808311610b6657829003601f168201915b5050505050815250509050805f0151868381518110610ba557610ba461281d565b5b60200260200101819052508060200151858381518110610bc857610bc761281d565b5b60200260200101819052508060400151848381518110610beb57610bea61281d565b5b60200260200101819052508060600151838381518110610c0e57610c0d61281d565b5b60200260200101819052505080806001019150506108e1565b5083838383604051602001610c3f9493929190612ac9565b60405160208183030381529060405295505050505050611314565b610c99836040518060400160405280601481526020017f67657455736572496e666f427948616e646c657300000000000000000000000081525061201f565b15611233575f82806020019051810190610cb39190612c74565b90505f815167ffffffffffffffff811115610cd157610cd06121db565b5b604051908082528060200260200182016040528015610cff5781602001602082028036833780820191505090505b5090505f825167ffffffffffffffff811115610d1e57610d1d6121db565b5b604051908082528060200260200182016040528015610d5157816020015b6060815260200190600190039081610d3c5790505b5090505f835167ffffffffffffffff811115610d7057610d6f6121db565b5b604051908082528060200260200182016040528015610da357816020015b6060815260200190600190039081610d8e5790505b5090505f845167ffffffffffffffff811115610dc257610dc16121db565b5b604051908082528060200260200182016040528015610df557816020015b6060815260200190600190039081610de05790505b5090505f5b8551811015611200575f60035f6004898581518110610e1c57610e1b61281d565b5b6020026020010151604051610e319190612884565b90815260200160405180910390205f9054906101000a900473ffffffffffffffffffffffffffffffffffffffff1673ffffffffffffffffffffffffffffffffffffffff1673ffffffffffffffffffffffffffffffffffffffff1681526020019081526020015f206040518060800160405290815f82018054610eb290612a99565b80601f0160208091040260200160405190810160405280929190818152602001828054610ede90612a99565b8015610f295780601f10610f0057610100808354040283529160200191610f29565b820191905f5260205f20905b815481529060010190602001808311610f0c57829003601f168201915b50505050508152602001600182018054610f4290612a99565b80601f0160208091040260200160405190810160405280929190818152602001828054610f6e90612a99565b8015610fb95780601f10610f9057610100808354040283529160200191610fb9565b820191905f5260205f20905b815481529060010190602001808311610f9c57829003601f168201915b50505050508152602001600282018054610fd290612a99565b80601f0160208091040260200160405190810160405280929190818152602001828054610ffe90612a99565b80156110495780601f1061102057610100808354040283529160200191611049565b820191905f5260205f20905b81548152906001019060200180831161102c57829003601f168201915b5050505050815260200160038201805461106290612a99565b80601f016020809104026020016040519081016040528092919081815260200182805461108e90612a99565b80156110d95780601f106110b0576101008083540402835291602001916110d9565b820191905f5260205f20905b8154815290600101906020018083116110bc57829003601f168201915b505050505081525050905060048783815181106110f9576110f861281d565b5b602002602001015160405161110e9190612884565b90815260200160405180910390205f9054906101000a900473ffffffffffffffffffffffffffffffffffffffff1686838151811061114f5761114e61281d565b5b602002602001019073ffffffffffffffffffffffffffffffffffffffff16908173ffffffffffffffffffffffffffffffffffffffff168152505080602001518583815181106111a1576111a061281d565b5b602002602001018190525080604001518483815181106111c4576111c361281d565b5b602002602001018190525080606001518383815181106111e7576111e661281d565b5b6020026020010181905250508080600101915050610dfa565b50838383836040516020016112189493929190612d72565b60405160208183030381529060405295505050505050611314565b611272836040518060400160405280601281526020017f67657441646472657373427948616e646c65000000000000000000000000000081525061201f565b156112f3575f8280602001905181019061128c9190612dd1565b905060048160405161129e9190612884565b90815260200160405180910390205f9054906101000a900473ffffffffffffffffffffffffffffffffffffffff166040516020016112dc9190612e27565b604051602081830303815290604052915050611314565b60405160200161130290612e63565b60405160208183030381529060405290505b92915050565b606061135b836040518060400160405280600a81526020017f637265617465557365720000000000000000000000000000000000000000000081525061201f565b156118f3575f805f80858060200190518101906113789190612e81565b93509350935093506113898461191a565b6113c8576040517f08c379a00000000000000000000000000000000000000000000000000000000081526004016113bf90612f9f565b60405180910390fd5b5f60035f3373ffffffffffffffffffffffffffffffffffffffff1673ffffffffffffffffffffffffffffffffffffffff1681526020019081526020015f206040518060800160405290815f8201805461142090612a99565b80601f016020809104026020016040519081016040528092919081815260200182805461144c90612a99565b80156114975780601f1061146e57610100808354040283529160200191611497565b820191905f5260205f20905b81548152906001019060200180831161147a57829003601f168201915b505050505081526020016001820180546114b090612a99565b80601f01602080910402602001604051908101604052809291908181526020018280546114dc90612a99565b80156115275780601f106114fe57610100808354040283529160200191611527565b820191905f5260205f20905b81548152906001019060200180831161150a57829003601f168201915b5050505050815260200160028201805461154090612a99565b80601f016020809104026020016040519081016040528092919081815260200182805461156c90612a99565b80156115b75780601f1061158e576101008083540402835291602001916115b7565b820191905f5260205f20905b81548152906001019060200180831161159a57829003601f168201915b505050505081526020016003820180546115d090612a99565b80601f01602080910402602001604051908101604052809291908181526020018280546115fc90612a99565b80156116475780601f1061161e57610100808354040283529160200191611647565b820191905f5260205f20905b81548152906001019060200180831161162a57829003601f168201915b50505050508152505090505f73ffffffffffffffffffffffffffffffffffffffff166004866040516116799190612884565b90815260200160405180910390205f9054906101000a900473ffffffffffffffffffffffffffffffffffffffff1673ffffffffffffffffffffffffffffffffffffffff16146116fd576040517f08c379a00000000000000000000000000000000000000000000000000000000081526004016116f490613007565b60405180910390fd5b611709815f0151610729565b1561188e5760405180608001604052808681526020018581526020018481526020018381525060035f3373ffffffffffffffffffffffffffffffffffffffff1673ffffffffffffffffffffffffffffffffffffffff1681526020019081526020015f205f820151815f01908161177f91906131cb565b50602082015181600101908161179591906131cb565b5060408201518160020190816117ab91906131cb565b5060608201518160030190816117c191906131cb565b50905050336004866040516117d69190612884565b90815260200160405180910390205f6101000a81548173ffffffffffffffffffffffffffffffffffffffff021916908373ffffffffffffffffffffffffffffffffffffffff1602179055508460405161182f9190612884565b60405180910390203373ffffffffffffffffffffffffffffffffffffffff167f1c4834c8729cca3a7ea1e1c19a12ce6721cb054f67cb6590e733a2bb4b8be85a8686866040516118819392919061329a565b60405180910390a36118c9565b6040517f08c379a00000000000000000000000000000000000000000000000000000000081526004016118c09061332e565b60405180910390fd5b6040516020016118d890612e63565b60405160208183030381529060405295505050505050611914565b60405160200161190290612e63565b60405160208183030381529060405290505b92915050565b5f808290505f8151148061192f575060148151115b1561193d575f915050611a89565b5f5b8151811015611a82575f82828151811061195c5761195b61281d565b5b602001015160f81c60f81b9050606160f81b817effffffffffffffffffffffffffffffffffffffffffffffffffffffffffffff1916101580156119c55750607a60f81b817effffffffffffffffffffffffffffffffffffffffffffffffffffffffffffff191611155b156119d05750611a75565b603060f81b817effffffffffffffffffffffffffffffffffffffffffffffffffffffffffffff191610158015611a2c5750603960f81b817effffffffffffffffffffffffffffffffffffffffffffffffffffffffffffff191611155b15611a375750611a75565b605f60f81b817effffffffffffffffffffffffffffffffffffffffffffffffffffffffffffff191603611a6a5750611a75565b5f9350505050611a89565b808060010191505061193f565b5060019150505b919050565b6060611acf836040518060400160405280600e81526020017f75706461746555736572496e666f00000000000000000000000000000000000081525061201f565b15611eed575f60035f3373ffffffffffffffffffffffffffffffffffffffff1673ffffffffffffffffffffffffffffffffffffffff1681526020019081526020015f206040518060800160405290815f82018054611b2c90612a99565b80601f0160208091040260200160405190810160405280929190818152602001828054611b5890612a99565b8015611ba35780601f10611b7a57610100808354040283529160200191611ba3565b820191905f5260205f20905b815481529060010190602001808311611b8657829003601f168201915b50505050508152602001600182018054611bbc90612a99565b80601f0160208091040260200160405190810160405280929190818152602001828054611be890612a99565b8015611c335780601f10611c0a57610100808354040283529160200191611c33565b820191905f5260205f20905b815481529060010190602001808311611c1657829003601f168201915b50505050508152602001600282018054611c4c90612a99565b80601f0160208091040260200160405190810160405280929190818152602001828054611c7890612a99565b8015611cc35780601f10611c9a57610100808354040283529160200191611cc3565b820191905f5260205f20905b815481529060010190602001808311611ca657829003601f168201915b50505050508152602001600382018054611cdc90612a99565b80601f0160208091040260200160405190810160405280929190818152602001828054611d0890612a99565b8015611d535780601f10611d2a57610100808354040283529160200191611d53565b820191905f5260205f20905b815481529060010190602001808311611d3657829003601f168201915b5050505050815250509050611d6a815f0151610729565b611eb0575f805f85806020019051810190611d85919061334c565b9250925092508284602001819052508184604001819052508084606001819052508360035f3373ffffffffffffffffffffffffffffffffffffffff1673ffffffffffffffffffffffffffffffffffffffff1681526020019081526020015f205f820151815f019081611df791906131cb565b506020820151816001019081611e0d91906131cb565b506040820151816002019081611e2391906131cb565b506060820151816003019081611e3991906131cb565b50905050835f0151604051611e4e9190612884565b60405180910390203373ffffffffffffffffffffffffffffffffffffffff167f1c4834c8729cca3a7ea1e1c19a12ce6721cb054f67cb6590e733a2bb4b8be85a858585604051611ea09392919061329a565b60405180910390a3505050611eeb565b6040517f08c379a0000000000000000000000000000000000000000000000000000000008152600401611ee29061343a565b60405180910390fd5b505b8282604051602001611f00929190613458565b604051602081830303815290604052905092915050565b60605f80836003811115611f2e57611f2d6120a0565b5b6003811115611f4057611f3f6120a0565b5b81526020019081526020015f20805480602002602001604051908101604052809291908181526020015f905b82821015612014578382905f5260205f20018054611f8990612a99565b80601f0160208091040260200160405190810160405280929190818152602001828054611fb590612a99565b80156120005780601f10611fd757610100808354040283529160200191612000565b820191905f5260205f20905b815481529060010190602001808311611fe357829003601f168201915b505050505081526020019060010190611f6c565b505050509050919050565b5f816040516020016120319190612884565b60405160208183030381529060405280519060200120836040516020016120589190612884565b6040516020818303038152906040528051906020012014905092915050565b5f81519050919050565b5f82825260208201905092915050565b5f819050602082019050919050565b7f4e487b71000000000000000000000000000000000000000000000000000000005f52602160045260245ffd5b600481106120de576120dd6120a0565b5b50565b5f8190506120ee826120cd565b919050565b5f6120fd826120e1565b9050919050565b61210d816120f3565b82525050565b5f61211e8383612104565b60208301905092915050565b5f602082019050919050565b5f61214082612077565b61214a8185612081565b935061215583612091565b805f5b8381101561218557815161216c8882612113565b97506121778361212a565b925050600181019050612158565b5085935050505092915050565b5f6020820190508181035f8301526121aa8184612136565b905092915050565b5f604051905090565b5f80fd5b5f80fd5b5f80fd5b5f80fd5b5f601f19601f8301169050919050565b7f4e487b71000000000000000000000000000000000000000000000000000000005f52604160045260245ffd5b612211826121cb565b810181811067ffffffffffffffff821117156122305761222f6121db565b5b80604052505050565b5f6122426121b2565b905061224e8282612208565b919050565b5f67ffffffffffffffff82111561226d5761226c6121db565b5b612276826121cb565b9050602081019050919050565b828183375f83830152505050565b5f6122a361229e84612253565b612239565b9050828152602081018484840111156122bf576122be6121c7565b5b6122ca848285612283565b509392505050565b5f82601f8301126122e6576122e56121c3565b5b81356122f6848260208601612291565b91505092915050565b5f60208284031215612314576123136121bb565b5b5f82013567ffffffffffffffff811115612331576123306121bf565b5b61233d848285016122d2565b91505092915050565b5f81519050919050565b5f819050602082019050919050565b60c781106123705761236f6120a0565b5b50565b5f8190506123808261235f565b919050565b5f61238f82612373565b9050919050565b61239f81612385565b82525050565b5f6123b08383612396565b60208301905092915050565b5f602082019050919050565b5f6123d282612346565b6123dc8185612081565b93506123e783612350565b805f5b838110156124175781516123fe88826123a5565b9750612409836123bc565b9250506001810190506123ea565b5085935050505092915050565b5f6040820190508181035f83015261243c81856123c8565b9050818103602083015261245081846123c8565b90509392505050565b5f81519050919050565b5f82825260208201905092915050565b5f5b83811015612490578082015181840152602081019050612475565b5f8484015250505050565b5f6124a582612459565b6124af8185612463565b93506124bf818560208601612473565b6124c8816121cb565b840191505092915050565b5f6020820190508181035f8301526124eb818461249b565b905092915050565b5f8115159050919050565b612507816124f3565b82525050565b5f6020820190506125205f8301846124fe565b92915050565b5f67ffffffffffffffff8211156125405761253f6121db565b5b612549826121cb565b9050602081019050919050565b5f61256861256384612526565b612239565b905082815260208101848484011115612584576125836121c7565b5b61258f848285612283565b509392505050565b5f82601f8301126125ab576125aa6121c3565b5b81356125bb848260208601612556565b91505092915050565b5f80604083850312156125da576125d96121bb565b5b5f83013567ffffffffffffffff8111156125f7576125f66121bf565b5b612603858286016122d2565b925050602083013567ffffffffffffffff811115612624576126236121bf565b5b61263085828601612597565b9150509250929050565b5f81519050919050565b5f82825260208201905092915050565b5f61265e8261263a565b6126688185612644565b9350612678818560208601612473565b612681816121cb565b840191505092915050565b5f6020820190508181035f8301526126a48184612654565b905092915050565b600481106126b8575f80fd5b50565b5f813590506126c9816126ac565b92915050565b5f602082840312156126e4576126e36121bb565b5b5f6126f1848285016126bb565b91505092915050565b5f81519050919050565b5f82825260208201905092915050565b5f819050602082019050919050565b5f82825260208201905092915050565b5f61273d82612459565b6127478185612723565b9350612757818560208601612473565b612760816121cb565b840191505092915050565b5f6127768383612733565b905092915050565b5f602082019050919050565b5f612794826126fa565b61279e8185612704565b9350836020820285016127b085612714565b805f5b858110156127eb57848403895281516127cc858261276b565b94506127d78361277e565b925060208a019950506001810190506127b3565b50829750879550505050505092915050565b5f6020820190508181035f830152612815818461278a565b905092915050565b7f4e487b71000000000000000000000000000000000000000000000000000000005f52603260045260245ffd5b5f81905092915050565b5f61285e82612459565b612868818561284a565b9350612878818560208601612473565b80840191505092915050565b5f61288f8284612854565b915081905092915050565b5f60ff82169050919050565b7f4e487b71000000000000000000000000000000000000000000000000000000005f52601160045260245ffd5b5f6128dd8261289a565b91506128e88361289a565b9250828201905060ff811115612901576129006128a6565b5b92915050565b5f67ffffffffffffffff821115612921576129206121db565b5b602082029050602081019050919050565b5f80fd5b5f73ffffffffffffffffffffffffffffffffffffffff82169050919050565b5f61295f82612936565b9050919050565b61296f81612955565b8114612979575f80fd5b50565b5f8151905061298a81612966565b92915050565b5f6129a261299d84612907565b612239565b905080838252602082019050602084028301858111156129c5576129c4612932565b5b835b818110156129ee57806129da888261297c565b8452602084019350506020810190506129c7565b5050509392505050565b5f82601f830112612a0c57612a0b6121c3565b5b8151612a1c848260208601612990565b91505092915050565b5f60208284031215612a3a57612a396121bb565b5b5f82015167ffffffffffffffff811115612a5757612a566121bf565b5b612a63848285016129f8565b91505092915050565b7f4e487b71000000000000000000000000000000000000000000000000000000005f52602260045260245ffd5b5f6002820490506001821680612ab057607f821691505b602082108103612ac357612ac2612a6c565b5b50919050565b5f6080820190508181035f830152612ae1818761278a565b90508181036020830152612af5818661278a565b90508181036040830152612b09818561278a565b90508181036060830152612b1d818461278a565b905095945050505050565b5f67ffffffffffffffff821115612b4257612b416121db565b5b602082029050602081019050919050565b5f612b65612b6084612253565b612239565b905082815260208101848484011115612b8157612b806121c7565b5b612b8c848285612473565b509392505050565b5f82601f830112612ba857612ba76121c3565b5b8151612bb8848260208601612b53565b91505092915050565b5f612bd3612bce84612b28565b612239565b90508083825260208201905060208402830185811115612bf657612bf5612932565b5b835b81811015612c3d57805167ffffffffffffffff811115612c1b57612c1a6121c3565b5b808601612c288982612b94565b85526020850194505050602081019050612bf8565b5050509392505050565b5f82601f830112612c5b57612c5a6121c3565b5b8151612c6b848260208601612bc1565b91505092915050565b5f60208284031215612c8957612c886121bb565b5b5f82015167ffffffffffffffff811115612ca657612ca56121bf565b5b612cb284828501612c47565b91505092915050565b5f81519050919050565b5f82825260208201905092915050565b5f819050602082019050919050565b612ced81612955565b82525050565b5f612cfe8383612ce4565b60208301905092915050565b5f602082019050919050565b5f612d2082612cbb565b612d2a8185612cc5565b9350612d3583612cd5565b805f5b83811015612d65578151612d4c8882612cf3565b9750612d5783612d0a565b925050600181019050612d38565b5085935050505092915050565b5f6080820190508181035f830152612d8a8187612d16565b90508181036020830152612d9e818661278a565b90508181036040830152612db2818561278a565b90508181036060830152612dc6818461278a565b905095945050505050565b5f60208284031215612de657612de56121bb565b5b5f82015167ffffffffffffffff811115612e0357612e026121bf565b5b612e0f84828501612b94565b91505092915050565b612e2181612955565b82525050565b5f602082019050612e3a5f830184612e18565b92915050565b50565b5f612e4e5f83612463565b9150612e5982612e40565b5f82019050919050565b5f6020820190508181035f830152612e7a81612e43565b9050919050565b5f805f8060808587031215612e9957612e986121bb565b5b5f85015167ffffffffffffffff811115612eb657612eb56121bf565b5b612ec287828801612b94565b945050602085015167ffffffffffffffff811115612ee357612ee26121bf565b5b612eef87828801612b94565b935050604085015167ffffffffffffffff811115612f1057612f0f6121bf565b5b612f1c87828801612b94565b925050606085015167ffffffffffffffff811115612f3d57612f3c6121bf565b5b612f4987828801612b94565b91505092959194509250565b7f68616e646c6520697320696e76616c69640000000000000000000000000000005f82015250565b5f612f89601183612463565b9150612f9482612f55565b602082019050919050565b5f6020820190508181035f830152612fb681612f7d565b9050919050565b7f7468652068616e646c6520686173206265656e207265676973746572656400005f82015250565b5f612ff1601e83612463565b9150612ffc82612fbd565b602082019050919050565b5f6020820190508181035f83015261301e81612fe5565b9050919050565b5f819050815f5260205f209050919050565b5f6020601f8301049050919050565b5f82821b905092915050565b5f600883026130817fffffffffffffffffffffffffffffffffffffffffffffffffffffffffffffffff82613046565b61308b8683613046565b95508019841693508086168417925050509392505050565b5f819050919050565b5f819050919050565b5f6130cf6130ca6130c5846130a3565b6130ac565b6130a3565b9050919050565b5f819050919050565b6130e8836130b5565b6130fc6130f4826130d6565b848454613052565b825550505050565b5f90565b613110613104565b61311b8184846130df565b505050565b5b8181101561313e576131335f82613108565b600181019050613121565b5050565b601f8211156131835761315481613025565b61315d84613037565b8101602085101561316c578190505b61318061317885613037565b830182613120565b50505b505050565b5f82821c905092915050565b5f6131a35f1984600802613188565b1980831691505092915050565b5f6131bb8383613194565b9150826002028217905092915050565b6131d482612459565b67ffffffffffffffff8111156131ed576131ec6121db565b5b6131f78254612a99565b613202828285613142565b5f60209050601f831160018114613233575f8415613221578287015190505b61322b85826131b0565b865550613292565b601f19841661324186613025565b5f5b8281101561326857848901518255600182019150602085019450602081019050613243565b868310156132855784890151613281601f891682613194565b8355505b6001600288020188555050505b505050505050565b5f6060820190508181035f8301526132b2818661249b565b905081810360208301526132c6818561249b565b905081810360408301526132da818461249b565b9050949350505050565b7f75736572206861732072656769737465726564000000000000000000000000005f82015250565b5f613318601383612463565b9150613323826132e4565b602082019050919050565b5f6020820190508181035f8301526133458161330c565b9050919050565b5f805f60608486031215613363576133626121bb565b5b5f84015167ffffffffffffffff8111156133805761337f6121bf565b5b61338c86828701612b94565b935050602084015167ffffffffffffffff8111156133ad576133ac6121bf565b5b6133b986828701612b94565b925050604084015167ffffffffffffffff8111156133da576133d96121bf565b5b6133e686828701612b94565b9150509250925092565b7f7468652075736572206973206e6f7420726567697374657265640000000000005f82015250565b5f613424601a83612463565b915061342f826133f0565b602082019050919050565b5f6020820190508181035f83015261345181613418565b9050919050565b5f6040820190508181035f830152613470818561249b565b905081810360208301526134848184612654565b9050939250505056fea26469706673582212208f197bdd09f7fa16320790e71bec005936d55bf04cdff8ea67d16456152485ae64736f6c63430008160033",
					"opcodes": "PUSH1 0x80 PUSH1 0x40 MSTORE CALLVALUE DUP1 ISZERO PUSH3 0x10 JUMPI PUSH0 DUP1 REVERT JUMPDEST POP PUSH0 PUSH1 0x4 PUSH8 0xFFFFFFFFFFFFFFFF DUP2 GT ISZERO PUSH3 0x30 JUMPI PUSH3 0x2F PUSH3 0xC61 JUMP JUMPDEST JUMPDEST PUSH1 0x40 MLOAD SWAP1 DUP1 DUP3 MSTORE DUP1 PUSH1 0x20 MUL PUSH1 0x20 ADD DUP3 ADD PUSH1 0x40 MSTORE DUP1 ISZERO PUSH3 0x5F JUMPI DUP2 PUSH1 0x20 ADD PUSH1 0x20 DUP3 MUL DUP1 CALLDATASIZE DUP4 CALLDATACOPY DUP1 DUP3 ADD SWAP2 POP POP SWAP1 POP JUMPDEST POP SWAP1 POP PUSH1 0x63 DUP2 PUSH0 DUP2 MLOAD DUP2 LT PUSH3 0x7A JUMPI PUSH3 0x79 PUSH3 0xC8E JUMP JUMPDEST JUMPDEST PUSH1 0x20 MUL PUSH1 0x20 ADD ADD SWAP1 PUSH1 0xC6 DUP2 GT ISZERO PUSH3 0x97 JUMPI PUSH3 0x96 PUSH3 0xCBB JUMP JUMPDEST JUMPDEST SWAP1 DUP2 PUSH1 0xC6 DUP2 GT ISZERO PUSH3 0xAE JUMPI PUSH3 0xAD PUSH3 0xCBB JUMP JUMPDEST JUMPDEST DUP2 MSTORE POP POP PUSH1 0x63 DUP2 PUSH1 0x1 DUP2 MLOAD DUP2 LT PUSH3 0xCB JUMPI PUSH3 0xCA PUSH3 0xC8E JUMP JUMPDEST JUMPDEST PUSH1 0x20 MUL PUSH1 0x20 ADD ADD SWAP1 PUSH1 0xC6 DUP2 GT ISZERO PUSH3 0xE8 JUMPI PUSH3 0xE7 PUSH3 0xCBB JUMP JUMPDEST JUMPDEST SWAP1 DUP2 PUSH1 0xC6 DUP2 GT ISZERO PUSH3 0xFF JUMPI PUSH3 0xFE PUSH3 0xCBB JUMP JUMPDEST JUMPDEST DUP2 MSTORE POP POP PUSH1 0x63 DUP2 PUSH1 0x2 DUP2 MLOAD DUP2 LT PUSH3 0x11C JUMPI PUSH3 0x11B PUSH3 0xC8E JUMP JUMPDEST JUMPDEST PUSH1 0x20 MUL PUSH1 0x20 ADD ADD SWAP1 PUSH1 0xC6 DUP2 GT ISZERO PUSH3 0x139 JUMPI PUSH3 0x138 PUSH3 0xCBB JUMP JUMPDEST JUMPDEST SWAP1 DUP2 PUSH1 0xC6 DUP2 GT ISZERO PUSH3 0x150 JUMPI PUSH3 0x14F PUSH3 0xCBB JUMP JUMPDEST JUMPDEST DUP2 MSTORE POP POP PUSH1 0x63 DUP2 PUSH1 0x3 DUP2 MLOAD DUP2 LT PUSH3 0x16D JUMPI PUSH3 0x16C PUSH3 0xC8E JUMP JUMPDEST JUMPDEST PUSH1 0x20 MUL PUSH1 0x20 ADD ADD SWAP1 PUSH1 0xC6 DUP2 GT ISZERO PUSH3 0x18A JUMPI PUSH3 0x189 PUSH3 0xCBB JUMP JUMPDEST JUMPDEST SWAP1 DUP2 PUSH1 0xC6 DUP2 GT ISZERO PUSH3 0x1A1 JUMPI PUSH3 0x1A0 PUSH3 0xCBB JUMP JUMPDEST JUMPDEST DUP2 MSTORE POP POP PUSH0 PUSH1 0x3 PUSH8 0xFFFFFFFFFFFFFFFF DUP2 GT ISZERO PUSH3 0x1C4 JUMPI PUSH3 0x1C3 PUSH3 0xC61 JUMP JUMPDEST JUMPDEST PUSH1 0x40 MLOAD SWAP1 DUP1 DUP3 MSTORE DUP1 PUSH1 0x20 MUL PUSH1 0x20 ADD DUP3 ADD PUSH1 0x40 MSTORE DUP1 ISZERO PUSH3 0x1F3 JUMPI DUP2 PUSH1 0x20 ADD PUSH1 0x20 DUP3 MUL DUP1 CALLDATASIZE DUP4 CALLDATACOPY DUP1 DUP3 ADD SWAP2 POP POP SWAP1 POP JUMPDEST POP SWAP1 POP PUSH1 0x63 DUP2 PUSH0 DUP2 MLOAD DUP2 LT PUSH3 0x20E JUMPI PUSH3 0x20D PUSH3 0xC8E JUMP JUMPDEST JUMPDEST PUSH1 0x20 MUL PUSH1 0x20 ADD ADD SWAP1 PUSH1 0xC6 DUP2 GT ISZERO PUSH3 0x22B JUMPI PUSH3 0x22A PUSH3 0xCBB JUMP JUMPDEST JUMPDEST SWAP1 DUP2 PUSH1 0xC6 DUP2 GT ISZERO PUSH3 0x242 JUMPI PUSH3 0x241 PUSH3 0xCBB JUMP JUMPDEST JUMPDEST DUP2 MSTORE POP POP PUSH1 0x63 DUP2 PUSH1 0x1 DUP2 MLOAD DUP2 LT PUSH3 0x25F JUMPI PUSH3 0x25E PUSH3 0xC8E JUMP JUMPDEST JUMPDEST PUSH1 0x20 MUL PUSH1 0x20 ADD ADD SWAP1 PUSH1 0xC6 DUP2 GT ISZERO PUSH3 0x27C JUMPI PUSH3 0x27B PUSH3 0xCBB JUMP JUMPDEST JUMPDEST SWAP1 DUP2 PUSH1 0xC6 DUP2 GT ISZERO PUSH3 0x293 JUMPI PUSH3 0x292 PUSH3 0xCBB JUMP JUMPDEST JUMPDEST DUP2 MSTORE POP POP PUSH1 0x63 DUP2 PUSH1 0x2 DUP2 MLOAD DUP2 LT PUSH3 0x2B0 JUMPI PUSH3 0x2AF PUSH3 0xC8E JUMP JUMPDEST JUMPDEST PUSH1 0x20 MUL PUSH1 0x20 ADD ADD SWAP1 PUSH1 0xC6 DUP2 GT ISZERO PUSH3 0x2CD JUMPI PUSH3 0x2CC PUSH3 0xCBB JUMP JUMPDEST JUMPDEST SWAP1 DUP2 PUSH1 0xC6 DUP2 GT ISZERO PUSH3 0x2E4 JUMPI PUSH3 0x2E3 PUSH3 0xCBB JUMP JUMPDEST JUMPDEST DUP2 MSTORE POP POP PUSH0 PUSH1 0x1 PUSH8 0xFFFFFFFFFFFFFFFF DUP2 GT ISZERO PUSH3 0x307 JUMPI PUSH3 0x306 PUSH3 0xC61 JUMP JUMPDEST JUMPDEST PUSH1 0x40 MLOAD SWAP1 DUP1 DUP3 MSTORE DUP1 PUSH1 0x20 MUL PUSH1 0x20 ADD DUP3 ADD PUSH1 0x40 MSTORE DUP1 ISZERO PUSH3 0x336 JUMPI DUP2 PUSH1 0x20 ADD PUSH1 0x20 DUP3 MUL DUP1 CALLDATASIZE DUP4 CALLDATACOPY DUP1 DUP3 ADD SWAP2 POP POP SWAP1 POP JUMPDEST POP SWAP1 POP PUSH1 0xA4 DUP2 PUSH0 DUP2 MLOAD DUP2 LT PUSH3 0x351 JUMPI PUSH3 0x350 PUSH3 0xC8E JUMP JUMPDEST JUMPDEST PUSH1 0x20 MUL PUSH1 0x20 ADD ADD SWAP1 PUSH1 0xC6 DUP2 GT ISZERO PUSH3 0x36E JUMPI PUSH3 0x36D PUSH3 0xCBB JUMP JUMPDEST JUMPDEST SWAP1 DUP2 PUSH1 0xC6 DUP2 GT ISZERO PUSH3 0x385 JUMPI PUSH3 0x384 PUSH3 0xCBB JUMP JUMPDEST JUMPDEST DUP2 MSTORE POP POP PUSH0 PUSH1 0x4 PUSH8 0xFFFFFFFFFFFFFFFF DUP2 GT ISZERO PUSH3 0x3A8 JUMPI PUSH3 0x3A7 PUSH3 0xC61 JUMP JUMPDEST JUMPDEST PUSH1 0x40 MLOAD SWAP1 DUP1 DUP3 MSTORE DUP1 PUSH1 0x20 MUL PUSH1 0x20 ADD DUP3 ADD PUSH1 0x40 MSTORE DUP1 ISZERO PUSH3 0x3D7 JUMPI DUP2 PUSH1 0x20 ADD PUSH1 0x20 DUP3 MUL DUP1 CALLDATASIZE DUP4 CALLDATACOPY DUP1 DUP3 ADD SWAP2 POP POP SWAP1 POP JUMPDEST POP SWAP1 POP PUSH1 0xC6 DUP2 PUSH0 DUP2 MLOAD DUP2 LT PUSH3 0x3F2 JUMPI PUSH3 0x3F1 PUSH3 0xC8E JUMP JUMPDEST JUMPDEST PUSH1 0x20 MUL PUSH1 0x20 ADD ADD SWAP1 PUSH1 0xC6 DUP2 GT ISZERO PUSH3 0x40F JUMPI PUSH3 0x40E PUSH3 0xCBB JUMP JUMPDEST JUMPDEST SWAP1 DUP2 PUSH1 0xC6 DUP2 GT ISZERO PUSH3 0x426 JUMPI PUSH3 0x425 PUSH3 0xCBB JUMP JUMPDEST JUMPDEST DUP2 MSTORE POP POP PUSH1 0xC6 DUP2 PUSH1 0x1 DUP2 MLOAD DUP2 LT PUSH3 0x443 JUMPI PUSH3 0x442 PUSH3 0xC8E JUMP JUMPDEST JUMPDEST PUSH1 0x20 MUL PUSH1 0x20 ADD ADD SWAP1 PUSH1 0xC6 DUP2 GT ISZERO PUSH3 0x460 JUMPI PUSH3 0x45F PUSH3 0xCBB JUMP JUMPDEST JUMPDEST SWAP1 DUP2 PUSH1 0xC6 DUP2 GT ISZERO PUSH3 0x477 JUMPI PUSH3 0x476 PUSH3 0xCBB JUMP JUMPDEST JUMPDEST DUP2 MSTORE POP POP PUSH1 0xC6 DUP2 PUSH1 0x2 DUP2 MLOAD DUP2 LT PUSH3 0x494 JUMPI PUSH3 0x493 PUSH3 0xC8E JUMP JUMPDEST JUMPDEST PUSH1 0x20 MUL PUSH1 0x20 ADD ADD SWAP1 PUSH1 0xC6 DUP2 GT ISZERO PUSH3 0x4B1 JUMPI PUSH3 0x4B0 PUSH3 0xCBB JUMP JUMPDEST JUMPDEST SWAP1 DUP2 PUSH1 0xC6 DUP2 GT ISZERO PUSH3 0x4C8 JUMPI PUSH3 0x4C7 PUSH3 0xCBB JUMP JUMPDEST JUMPDEST DUP2 MSTORE POP POP PUSH1 0xC6 DUP2 PUSH1 0x3 DUP2 MLOAD DUP2 LT PUSH3 0x4E5 JUMPI PUSH3 0x4E4 PUSH3 0xC8E JUMP JUMPDEST JUMPDEST PUSH1 0x20 MUL PUSH1 0x20 ADD ADD SWAP1 PUSH1 0xC6 DUP2 GT ISZERO PUSH3 0x502 JUMPI PUSH3 0x501 PUSH3 0xCBB JUMP JUMPDEST JUMPDEST SWAP1 DUP2 PUSH1 0xC6 DUP2 GT ISZERO PUSH3 0x519 JUMPI PUSH3 0x518 PUSH3 0xCBB JUMP JUMPDEST JUMPDEST DUP2 MSTORE POP POP PUSH0 PUSH1 0x1 PUSH8 0xFFFFFFFFFFFFFFFF DUP2 GT ISZERO PUSH3 0x53C JUMPI PUSH3 0x53B PUSH3 0xC61 JUMP JUMPDEST JUMPDEST PUSH1 0x40 MLOAD SWAP1 DUP1 DUP3 MSTORE DUP1 PUSH1 0x20 MUL PUSH1 0x20 ADD DUP3 ADD PUSH1 0x40 MSTORE DUP1 ISZERO PUSH3 0x56B JUMPI DUP2 PUSH1 0x20 ADD PUSH1 0x20 DUP3 MUL DUP1 CALLDATASIZE DUP4 CALLDATACOPY DUP1 DUP3 ADD SWAP2 POP POP SWAP1 POP JUMPDEST POP SWAP1 POP PUSH1 0x41 DUP2 PUSH0 DUP2 MLOAD DUP2 LT PUSH3 0x586 JUMPI PUSH3 0x585 PUSH3 0xC8E JUMP JUMPDEST JUMPDEST PUSH1 0x20 MUL PUSH1 0x20 ADD ADD SWAP1 PUSH1 0xC6 DUP2 GT ISZERO PUSH3 0x5A3 JUMPI PUSH3 0x5A2 PUSH3 0xCBB JUMP JUMPDEST JUMPDEST SWAP1 DUP2 PUSH1 0xC6 DUP2 GT ISZERO PUSH3 0x5BA JUMPI PUSH3 0x5B9 PUSH3 0xCBB JUMP JUMPDEST JUMPDEST DUP2 MSTORE POP POP PUSH0 PUSH1 0x1 PUSH8 0xFFFFFFFFFFFFFFFF DUP2 GT ISZERO PUSH3 0x5DD JUMPI PUSH3 0x5DC PUSH3 0xC61 JUMP JUMPDEST JUMPDEST PUSH1 0x40 MLOAD SWAP1 DUP1 DUP3 MSTORE DUP1 PUSH1 0x20 MUL PUSH1 0x20 ADD DUP3 ADD PUSH1 0x40 MSTORE DUP1 ISZERO PUSH3 0x60C JUMPI DUP2 PUSH1 0x20 ADD PUSH1 0x20 DUP3 MUL DUP1 CALLDATASIZE DUP4 CALLDATACOPY DUP1 DUP3 ADD SWAP2 POP POP SWAP1 POP JUMPDEST POP SWAP1 POP PUSH1 0x63 DUP2 PUSH0 DUP2 MLOAD DUP2 LT PUSH3 0x627 JUMPI PUSH3 0x626 PUSH3 0xC8E JUMP JUMPDEST JUMPDEST PUSH1 0x20 MUL PUSH1 0x20 ADD ADD SWAP1 PUSH1 0xC6 DUP2 GT ISZERO PUSH3 0x644 JUMPI PUSH3 0x643 PUSH3 0xCBB JUMP JUMPDEST JUMPDEST SWAP1 DUP2 PUSH1 0xC6 DUP2 GT ISZERO PUSH3 0x65B JUMPI PUSH3 0x65A PUSH3 0xCBB JUMP JUMPDEST JUMPDEST DUP2 MSTORE POP POP PUSH0 PUSH1 0x1 PUSH8 0xFFFFFFFFFFFFFFFF DUP2 GT ISZERO PUSH3 0x67E JUMPI PUSH3 0x67D PUSH3 0xC61 JUMP JUMPDEST JUMPDEST PUSH1 0x40 MLOAD SWAP1 DUP1 DUP3 MSTORE DUP1 PUSH1 0x20 MUL PUSH1 0x20 ADD DUP3 ADD PUSH1 0x40 MSTORE DUP1 ISZERO PUSH3 0x6AD JUMPI DUP2 PUSH1 0x20 ADD PUSH1 0x20 DUP3 MUL DUP1 CALLDATASIZE DUP4 CALLDATACOPY DUP1 DUP3 ADD SWAP2 POP POP SWAP1 POP JUMPDEST POP SWAP1 POP PUSH1 0xC6 DUP2 PUSH0 DUP2 MLOAD DUP2 LT PUSH3 0x6C8 JUMPI PUSH3 0x6C7 PUSH3 0xC8E JUMP JUMPDEST JUMPDEST PUSH1 0x20 MUL PUSH1 0x20 ADD ADD SWAP1 PUSH1 0xC6 DUP2 GT ISZERO PUSH3 0x6E5 JUMPI PUSH3 0x6E4 PUSH3 0xCBB JUMP JUMPDEST JUMPDEST SWAP1 DUP2 PUSH1 0xC6 DUP2 GT ISZERO PUSH3 0x6FC JUMPI PUSH3 0x6FB PUSH3 0xCBB JUMP JUMPDEST JUMPDEST DUP2 MSTORE POP POP PUSH0 PUSH1 0x4 PUSH8 0xFFFFFFFFFFFFFFFF DUP2 GT ISZERO PUSH3 0x71F JUMPI PUSH3 0x71E PUSH3 0xC61 JUMP JUMPDEST JUMPDEST PUSH1 0x40 MLOAD SWAP1 DUP1 DUP3 MSTORE DUP1 PUSH1 0x20 MUL PUSH1 0x20 ADD DUP3 ADD PUSH1 0x40 MSTORE DUP1 ISZERO PUSH3 0x74E JUMPI DUP2 PUSH1 0x20 ADD PUSH1 0x20 DUP3 MUL DUP1 CALLDATASIZE DUP4 CALLDATACOPY DUP1 DUP3 ADD SWAP2 POP POP SWAP1 POP JUMPDEST POP SWAP1 POP PUSH1 0xA4 DUP2 PUSH0 DUP2 MLOAD DUP2 LT PUSH3 0x769 JUMPI PUSH3 0x768 PUSH3 0xC8E JUMP JUMPDEST JUMPDEST PUSH1 0x20 MUL PUSH1 0x20 ADD ADD SWAP1 PUSH1 0xC6 DUP2 GT ISZERO PUSH3 0x786 JUMPI PUSH3 0x785 PUSH3 0xCBB JUMP JUMPDEST JUMPDEST SWAP1 DUP2 PUSH1 0xC6 DUP2 GT ISZERO PUSH3 0x79D JUMPI PUSH3 0x79C PUSH3 0xCBB JUMP JUMPDEST JUMPDEST DUP2 MSTORE POP POP PUSH1 0xC6 DUP2 PUSH1 0x1 DUP2 MLOAD DUP2 LT PUSH3 0x7BA JUMPI PUSH3 0x7B9 PUSH3 0xC8E JUMP JUMPDEST JUMPDEST PUSH1 0x20 MUL PUSH1 0x20 ADD ADD SWAP1 PUSH1 0xC6 DUP2 GT ISZERO PUSH3 0x7D7 JUMPI PUSH3 0x7D6 PUSH3 0xCBB JUMP JUMPDEST JUMPDEST SWAP1 DUP2 PUSH1 0xC6 DUP2 GT ISZERO PUSH3 0x7EE JUMPI PUSH3 0x7ED PUSH3 0xCBB JUMP JUMPDEST JUMPDEST DUP2 MSTORE POP POP PUSH1 0xC6 DUP2 PUSH1 0x2 DUP2 MLOAD DUP2 LT PUSH3 0x80B JUMPI PUSH3 0x80A PUSH3 0xC8E JUMP JUMPDEST JUMPDEST PUSH1 0x20 MUL PUSH1 0x20 ADD ADD SWAP1 PUSH1 0xC6 DUP2 GT ISZERO PUSH3 0x828 JUMPI PUSH3 0x827 PUSH3 0xCBB JUMP JUMPDEST JUMPDEST SWAP1 DUP2 PUSH1 0xC6 DUP2 GT ISZERO PUSH3 0x83F JUMPI PUSH3 0x83E PUSH3 0xCBB JUMP JUMPDEST JUMPDEST DUP2 MSTORE POP POP PUSH1 0xC6 DUP2 PUSH1 0x3 DUP2 MLOAD DUP2 LT PUSH3 0x85C JUMPI PUSH3 0x85B PUSH3 0xC8E JUMP JUMPDEST JUMPDEST PUSH1 0x20 MUL PUSH1 0x20 ADD ADD SWAP1 PUSH1 0xC6 DUP2 GT ISZERO PUSH3 0x879 JUMPI PUSH3 0x878 PUSH3 0xCBB JUMP JUMPDEST JUMPDEST SWAP1 DUP2 PUSH1 0xC6 DUP2 GT ISZERO PUSH3 0x890 JUMPI PUSH3 0x88F PUSH3 0xCBB JUMP JUMPDEST JUMPDEST DUP2 MSTORE POP POP PUSH3 0x92A PUSH1 0x40 MLOAD DUP1 PUSH1 0x40 ADD PUSH1 0x40 MSTORE DUP1 PUSH1 0xA DUP2 MSTORE PUSH1 0x20 ADD PUSH32 0x6372656174655573657200000000000000000000000000000000000000000000 DUP2 MSTORE POP PUSH1 0x1 DUP11 PUSH0 PUSH8 0xFFFFFFFFFFFFFFFF DUP2 GT ISZERO PUSH3 0x8EE JUMPI PUSH3 0x8ED PUSH3 0xC61 JUMP JUMPDEST JUMPDEST PUSH1 0x40 MLOAD SWAP1 DUP1 DUP3 MSTORE DUP1 PUSH1 0x20 MUL PUSH1 0x20 ADD DUP3 ADD PUSH1 0x40 MSTORE DUP1 ISZERO PUSH3 0x91D JUMPI DUP2 PUSH1 0x20 ADD PUSH1 0x20 DUP3 MUL DUP1 CALLDATASIZE DUP4 CALLDATACOPY DUP1 DUP3 ADD SWAP2 POP POP SWAP1 POP JUMPDEST POP PUSH3 0xAA9 PUSH1 0x20 SHL PUSH1 0x20 SHR JUMP JUMPDEST PUSH3 0x9C0 PUSH1 0x40 MLOAD DUP1 PUSH1 0x40 ADD PUSH1 0x40 MSTORE DUP1 PUSH1 0xE DUP2 MSTORE PUSH1 0x20 ADD PUSH32 0x75706461746555736572496E666F000000000000000000000000000000000000 DUP2 MSTORE POP PUSH1 0x2 DUP10 PUSH0 PUSH8 0xFFFFFFFFFFFFFFFF DUP2 GT ISZERO PUSH3 0x984 JUMPI PUSH3 0x983 PUSH3 0xC61 JUMP JUMPDEST JUMPDEST PUSH1 0x40 MLOAD SWAP1 DUP1 DUP3 MSTORE DUP1 PUSH1 0x20 MUL PUSH1 0x20 ADD DUP3 ADD PUSH1 0x40 MSTORE DUP1 ISZERO PUSH3 0x9B3 JUMPI DUP2 PUSH1 0x20 ADD PUSH1 0x20 DUP3 MUL DUP1 CALLDATASIZE DUP4 CALLDATACOPY DUP1 DUP3 ADD SWAP2 POP POP SWAP1 POP JUMPDEST POP PUSH3 0xAA9 PUSH1 0x20 SHL PUSH1 0x20 SHR JUMP JUMPDEST PUSH3 0xA09 PUSH1 0x40 MLOAD DUP1 PUSH1 0x40 ADD PUSH1 0x40 MSTORE DUP1 PUSH1 0x16 DUP2 MSTORE PUSH1 0x20 ADD PUSH32 0x67657455736572496E666F427941646472657373657300000000000000000000 DUP2 MSTORE POP PUSH0 DUP9 DUP9 PUSH3 0xAA9 PUSH1 0x20 SHL PUSH1 0x20 SHR JUMP JUMPDEST PUSH3 0xA52 PUSH1 0x40 MLOAD DUP1 PUSH1 0x40 ADD PUSH1 0x40 MSTORE DUP1 PUSH1 0x14 DUP2 MSTORE PUSH1 0x20 ADD PUSH32 0x67657455736572496E666F427948616E646C6573000000000000000000000000 DUP2 MSTORE POP PUSH0 DUP5 DUP5 PUSH3 0xAA9 PUSH1 0x20 SHL PUSH1 0x20 SHR JUMP JUMPDEST PUSH3 0xA9B PUSH1 0x40 MLOAD DUP1 PUSH1 0x40 ADD PUSH1 0x40 MSTORE DUP1 PUSH1 0x12 DUP2 MSTORE PUSH1 0x20 ADD PUSH32 0x67657441646472657373427948616E646C650000000000000000000000000000 DUP2 MSTORE POP PUSH0 DUP6 DUP8 PUSH3 0xAA9 PUSH1 0x20 SHL PUSH1 0x20 SHR JUMP JUMPDEST POP POP POP POP POP POP POP POP PUSH3 0x1085 JUMP JUMPDEST PUSH0 DUP1 DUP5 PUSH1 0x3 DUP2 GT ISZERO PUSH3 0xAC1 JUMPI PUSH3 0xAC0 PUSH3 0xCBB JUMP JUMPDEST JUMPDEST PUSH1 0x3 DUP2 GT ISZERO PUSH3 0xAD6 JUMPI PUSH3 0xAD5 PUSH3 0xCBB JUMP JUMPDEST JUMPDEST DUP2 MSTORE PUSH1 0x20 ADD SWAP1 DUP2 MSTORE PUSH1 0x20 ADD PUSH0 KECCAK256 DUP5 SWAP1 DUP1 PUSH1 0x1 DUP2 SLOAD ADD DUP1 DUP3 SSTORE DUP1 SWAP2 POP POP PUSH1 0x1 SWAP1 SUB SWAP1 PUSH0 MSTORE PUSH1 0x20 PUSH0 KECCAK256 ADD PUSH0 SWAP1 SWAP2 SWAP1 SWAP2 SWAP1 SWAP2 POP SWAP1 DUP2 PUSH3 0xB14 SWAP2 SWAP1 PUSH3 0xF1F JUMP JUMPDEST POP DUP2 PUSH1 0x1 DUP6 PUSH1 0x40 MLOAD PUSH3 0xB28 SWAP2 SWAP1 PUSH3 0x106D JUMP JUMPDEST SWAP1 DUP2 MSTORE PUSH1 0x20 ADD PUSH1 0x40 MLOAD DUP1 SWAP2 SUB SWAP1 KECCAK256 SWAP1 DUP1 MLOAD SWAP1 PUSH1 0x20 ADD SWAP1 PUSH3 0xB4B SWAP3 SWAP2 SWAP1 PUSH3 0xB89 JUMP JUMPDEST POP DUP1 PUSH1 0x2 DUP6 PUSH1 0x40 MLOAD PUSH3 0xB5F SWAP2 SWAP1 PUSH3 0x106D JUMP JUMPDEST SWAP1 DUP2 MSTORE PUSH1 0x20 ADD PUSH1 0x40 MLOAD DUP1 SWAP2 SUB SWAP1 KECCAK256 SWAP1 DUP1 MLOAD SWAP1 PUSH1 0x20 ADD SWAP1 PUSH3 0xB82 SWAP3 SWAP2 SWAP1 PUSH3 0xB89 JUMP JUMPDEST POP POP POP POP POP JUMP JUMPDEST DUP3 DUP1 SLOAD DUP3 DUP3 SSTORE SWAP1 PUSH0 MSTORE PUSH1 0x20 PUSH0 KECCAK256 SWAP1 PUSH1 0x1F ADD PUSH1 0x20 SWAP1 DIV DUP2 ADD SWAP3 DUP3 ISZERO PUSH3 0xC31 JUMPI SWAP2 PUSH1 0x20 MUL DUP3 ADD PUSH0 JUMPDEST DUP4 DUP3 GT ISZERO PUSH3 0xC01 JUMPI DUP4 MLOAD DUP4 DUP3 PUSH2 0x100 EXP DUP2 SLOAD DUP2 PUSH1 0xFF MUL NOT AND SWAP1 DUP4 PUSH1 0xC6 DUP2 GT ISZERO PUSH3 0xBE0 JUMPI PUSH3 0xBDF PUSH3 0xCBB JUMP JUMPDEST JUMPDEST MUL OR SWAP1 SSTORE POP SWAP3 PUSH1 0x20 ADD SWAP3 PUSH1 0x1 ADD PUSH1 0x20 DUP2 PUSH0 ADD DIV SWAP3 DUP4 ADD SWAP3 PUSH1 0x1 SUB MUL PUSH3 0xBB0 JUMP JUMPDEST DUP1 ISZERO PUSH3 0xC2F JUMPI DUP3 DUP2 PUSH2 0x100 EXP DUP2 SLOAD SWAP1 PUSH1 0xFF MUL NOT AND SWAP1 SSTORE PUSH1 0x1 ADD PUSH1 0x20 DUP2 PUSH0 ADD DIV SWAP3 DUP4 ADD SWAP3 PUSH1 0x1 SUB MUL PUSH3 0xC01 JUMP JUMPDEST POP JUMPDEST POP SWAP1 POP PUSH3 0xC40 SWAP2 SWAP1 PUSH3 0xC44 JUMP JUMPDEST POP SWAP1 JUMP JUMPDEST JUMPDEST DUP1 DUP3 GT ISZERO PUSH3 0xC5D JUMPI PUSH0 DUP2 PUSH0 SWAP1 SSTORE POP PUSH1 0x1 ADD PUSH3 0xC45 JUMP JUMPDEST POP SWAP1 JUMP JUMPDEST PUSH32 0x4E487B7100000000000000000000000000000000000000000000000000000000 PUSH0 MSTORE PUSH1 0x41 PUSH1 0x4 MSTORE PUSH1 0x24 PUSH0 REVERT JUMPDEST PUSH32 0x4E487B7100000000000000000000000000000000000000000000000000000000 PUSH0 MSTORE PUSH1 0x32 PUSH1 0x4 MSTORE PUSH1 0x24 PUSH0 REVERT JUMPDEST PUSH32 0x4E487B7100000000000000000000000000000000000000000000000000000000 PUSH0 MSTORE PUSH1 0x21 PUSH1 0x4 MSTORE PUSH1 0x24 PUSH0 REVERT JUMPDEST PUSH0 DUP2 MLOAD SWAP1 POP SWAP2 SWAP1 POP JUMP JUMPDEST PUSH32 0x4E487B7100000000000000000000000000000000000000000000000000000000 PUSH0 MSTORE PUSH1 0x22 PUSH1 0x4 MSTORE PUSH1 0x24 PUSH0 REVERT JUMPDEST PUSH0 PUSH1 0x2 DUP3 DIV SWAP1 POP PUSH1 0x1 DUP3 AND DUP1 PUSH3 0xD37 JUMPI PUSH1 0x7F DUP3 AND SWAP2 POP JUMPDEST PUSH1 0x20 DUP3 LT DUP2 SUB PUSH3 0xD4D JUMPI PUSH3 0xD4C PUSH3 0xCF2 JUMP JUMPDEST JUMPDEST POP SWAP2 SWAP1 POP JUMP JUMPDEST PUSH0 DUP2 SWAP1 POP DUP2 PUSH0 MSTORE PUSH1 0x20 PUSH0 KECCAK256 SWAP1 POP SWAP2 SWAP1 POP JUMP JUMPDEST PUSH0 PUSH1 0x20 PUSH1 0x1F DUP4 ADD DIV SWAP1 POP SWAP2 SWAP1 POP JUMP JUMPDEST PUSH0 DUP3 DUP3 SHL SWAP1 POP SWAP3 SWAP2 POP POP JUMP JUMPDEST PUSH0 PUSH1 0x8 DUP4 MUL PUSH3 0xDB1 PUSH32 0xFFFFFFFFFFFFFFFFFFFFFFFFFFFFFFFFFFFFFFFFFFFFFFFFFFFFFFFFFFFFFFFF DUP3 PUSH3 0xD74 JUMP JUMPDEST PUSH3 0xDBD DUP7 DUP4 PUSH3 0xD74 JUMP JUMPDEST SWAP6 POP DUP1 NOT DUP5 AND SWAP4 POP DUP1 DUP7 AND DUP5 OR SWAP3 POP POP POP SWAP4 SWAP3 POP POP POP JUMP JUMPDEST PUSH0 DUP2 SWAP1 POP SWAP2 SWAP1 POP JUMP JUMPDEST PUSH0 DUP2 SWAP1 POP SWAP2 SWAP1 POP JUMP JUMPDEST PUSH0 PUSH3 0xE07 PUSH3 0xE01 PUSH3 0xDFB DUP5 PUSH3 0xDD5 JUMP JUMPDEST PUSH3 0xDDE JUMP JUMPDEST PUSH3 0xDD5 JUMP JUMPDEST SWAP1 POP SWAP2 SWAP1 POP JUMP JUMPDEST PUSH0 DUP2 SWAP1 POP SWAP2 SWAP1 POP JUMP JUMPDEST PUSH3 0xE22 DUP4 PUSH3 0xDE7 JUMP JUMPDEST PUSH3 0xE3A PUSH3 0xE31 DUP3 PUSH3 0xE0E JUMP JUMPDEST DUP5 DUP5 SLOAD PUSH3 0xD80 JUMP JUMPDEST DUP3 SSTORE POP POP POP POP JUMP JUMPDEST PUSH0 SWAP1 JUMP JUMPDEST PUSH3 0xE50 PUSH3 0xE42 JUMP JUMPDEST PUSH3 0xE5D DUP2 DUP5 DUP5 PUSH3 0xE17 JUMP JUMPDEST POP POP POP JUMP JUMPDEST JUMPDEST DUP2 DUP2 LT ISZERO PUSH3 0xE84 JUMPI PUSH3 0xE78 PUSH0 DUP3 PUSH3 0xE46 JUMP JUMPDEST PUSH1 0x1 DUP2 ADD SWAP1 POP PUSH3 0xE63 JUMP JUMPDEST POP POP JUMP JUMPDEST PUSH1 0x1F DUP3 GT ISZERO PUSH3 0xED3 JUMPI PUSH3 0xE9D DUP2 PUSH3 0xD53 JUMP JUMPDEST PUSH3 0xEA8 DUP5 PUSH3 0xD65 JUMP JUMPDEST DUP2 ADD PUSH1 0x20 DUP6 LT ISZERO PUSH3 0xEB8 JUMPI DUP2 SWAP1 POP JUMPDEST PUSH3 0xED0 PUSH3 0xEC7 DUP6 PUSH3 0xD65 JUMP JUMPDEST DUP4 ADD DUP3 PUSH3 0xE62 JUMP JUMPDEST POP POP JUMPDEST POP POP POP JUMP JUMPDEST PUSH0 DUP3 DUP3 SHR SWAP1 POP SWAP3 SWAP2 POP POP JUMP JUMPDEST PUSH0 PUSH3 0xEF5 PUSH0 NOT DUP5 PUSH1 0x8 MUL PUSH3 0xED8 JUMP JUMPDEST NOT DUP1 DUP4 AND SWAP2 POP POP SWAP3 SWAP2 POP POP JUMP JUMPDEST PUSH0 PUSH3 0xF0F DUP4 DUP4 PUSH3 0xEE4 JUMP JUMPDEST SWAP2 POP DUP3 PUSH1 0x2 MUL DUP3 OR SWAP1 POP SWAP3 SWAP2 POP POP JUMP JUMPDEST PUSH3 0xF2A DUP3 PUSH3 0xCE8 JUMP JUMPDEST PUSH8 0xFFFFFFFFFFFFFFFF DUP2 GT ISZERO PUSH3 0xF46 JUMPI PUSH3 0xF45 PUSH3 0xC61 JUMP JUMPDEST JUMPDEST PUSH3 0xF52 DUP3 SLOAD PUSH3 0xD1F JUMP JUMPDEST PUSH3 0xF5F DUP3 DUP3 DUP6 PUSH3 0xE88 JUMP JUMPDEST PUSH0 PUSH1 0x20 SWAP1 POP PUSH1 0x1F DUP4 GT PUSH1 0x1 DUP2 EQ PUSH3 0xF95 JUMPI PUSH0 DUP5 ISZERO PUSH3 0xF80 JUMPI DUP3 DUP8 ADD MLOAD SWAP1 POP JUMPDEST PUSH3 0xF8C DUP6 DUP3 PUSH3 0xF02 JUMP JUMPDEST DUP7 SSTORE POP PUSH3 0xFFB JUMP JUMPDEST PUSH1 0x1F NOT DUP5 AND PUSH3 0xFA5 DUP7 PUSH3 0xD53 JUMP JUMPDEST PUSH0 JUMPDEST DUP3 DUP2 LT ISZERO PUSH3 0xFCE JUMPI DUP5 DUP10 ADD MLOAD DUP3 SSTORE PUSH1 0x1 DUP3 ADD SWAP2 POP PUSH1 0x20 DUP6 ADD SWAP5 POP PUSH1 0x20 DUP2 ADD SWAP1 POP PUSH3 0xFA7 JUMP JUMPDEST DUP7 DUP4 LT ISZERO PUSH3 0xFEE JUMPI DUP5 DUP10 ADD MLOAD PUSH3 0xFEA PUSH1 0x1F DUP10 AND DUP3 PUSH3 0xEE4 JUMP JUMPDEST DUP4 SSTORE POP JUMPDEST PUSH1 0x1 PUSH1 0x2 DUP9 MUL ADD DUP9 SSTORE POP POP POP JUMPDEST POP POP POP POP POP POP JUMP JUMPDEST PUSH0 DUP2 SWAP1 POP SWAP3 SWAP2 POP POP JUMP JUMPDEST PUSH0 JUMPDEST DUP4 DUP2 LT ISZERO PUSH3 0x102C JUMPI DUP1 DUP3 ADD MLOAD DUP2 DUP5 ADD MSTORE PUSH1 0x20 DUP2 ADD SWAP1 POP PUSH3 0x100F JUMP JUMPDEST PUSH0 DUP5 DUP5 ADD MSTORE POP POP POP POP JUMP JUMPDEST PUSH0 PUSH3 0x1043 DUP3 PUSH3 0xCE8 JUMP JUMPDEST PUSH3 0x104F DUP2 DUP6 PUSH3 0x1003 JUMP JUMPDEST SWAP4 POP PUSH3 0x1061 DUP2 DUP6 PUSH1 0x20 DUP7 ADD PUSH3 0x100D JUMP JUMPDEST DUP1 DUP5 ADD SWAP2 POP POP SWAP3 SWAP2 POP POP JUMP JUMPDEST PUSH0 PUSH3 0x107A DUP3 DUP5 PUSH3 0x1037 JUMP JUMPDEST SWAP2 POP DUP2 SWAP1 POP SWAP3 SWAP2 POP POP JUMP JUMPDEST PUSH2 0x34C3 DUP1 PUSH3 0x1093 PUSH0 CODECOPY PUSH0 RETURN INVALID PUSH1 0x80 PUSH1 0x40 MSTORE PUSH1 0x4 CALLDATASIZE LT PUSH2 0x85 JUMPI PUSH0 CALLDATALOAD PUSH1 0xE0 SHR DUP1 PUSH4 0xAFF62745 GT PUSH2 0x58 JUMPI DUP1 PUSH4 0xAFF62745 EQ PUSH2 0x168 JUMPI DUP1 PUSH4 0xB6AE0425 EQ PUSH2 0x1A4 JUMPI DUP1 PUSH4 0xC502607F EQ PUSH2 0x1D4 JUMPI DUP1 PUSH4 0xE9536472 EQ PUSH2 0x210 JUMPI DUP1 PUSH4 0xF4856CCB EQ PUSH2 0x240 JUMPI PUSH2 0x85 JUMP JUMPDEST DUP1 PUSH4 0x1069143A EQ PUSH2 0x89 JUMPI DUP1 PUSH4 0x458AD6D4 EQ PUSH2 0xB3 JUMPI DUP1 PUSH4 0x9416B423 EQ PUSH2 0xF0 JUMPI DUP1 PUSH4 0xA45F379E EQ PUSH2 0x12C JUMPI JUMPDEST PUSH0 DUP1 REVERT JUMPDEST CALLVALUE DUP1 ISZERO PUSH2 0x94 JUMPI PUSH0 DUP1 REVERT JUMPDEST POP PUSH2 0x9D PUSH2 0x27C JUMP JUMPDEST PUSH1 0x40 MLOAD PUSH2 0xAA SWAP2 SWAP1 PUSH2 0x2192 JUMP JUMPDEST PUSH1 0x40 MLOAD DUP1 SWAP2 SUB SWAP1 RETURN JUMPDEST CALLVALUE DUP1 ISZERO PUSH2 0xBE JUMPI PUSH0 DUP1 REVERT JUMPDEST POP PUSH2 0xD9 PUSH1 0x4 DUP1 CALLDATASIZE SUB DUP2 ADD SWAP1 PUSH2 0xD4 SWAP2 SWAP1 PUSH2 0x22FF JUMP JUMPDEST PUSH2 0x3F0 JUMP JUMPDEST PUSH1 0x40 MLOAD PUSH2 0xE7 SWAP3 SWAP2 SWAP1 PUSH2 0x2424 JUMP JUMPDEST PUSH1 0x40 MLOAD DUP1 SWAP2 SUB SWAP1 RETURN JUMPDEST CALLVALUE DUP1 ISZERO PUSH2 0xFB JUMPI PUSH0 DUP1 REVERT JUMPDEST POP PUSH2 0x116 PUSH1 0x4 DUP1 CALLDATASIZE SUB DUP2 ADD SWAP1 PUSH2 0x111 SWAP2 SWAP1 PUSH2 0x22FF JUMP JUMPDEST PUSH2 0x53E JUMP JUMPDEST PUSH1 0x40 MLOAD PUSH2 0x123 SWAP2 SWAP1 PUSH2 0x24D3 JUMP JUMPDEST PUSH1 0x40 MLOAD DUP1 SWAP2 SUB SWAP1 RETURN JUMPDEST CALLVALUE DUP1 ISZERO PUSH2 0x137 JUMPI PUSH0 DUP1 REVERT JUMPDEST POP PUSH2 0x152 PUSH1 0x4 DUP1 CALLDATASIZE SUB DUP2 ADD SWAP1 PUSH2 0x14D SWAP2 SWAP1 PUSH2 0x22FF JUMP JUMPDEST PUSH2 0x729 JUMP JUMPDEST PUSH1 0x40 MLOAD PUSH2 0x15F SWAP2 SWAP1 PUSH2 0x250D JUMP JUMPDEST PUSH1 0x40 MLOAD DUP1 SWAP2 SUB SWAP1 RETURN JUMPDEST CALLVALUE DUP1 ISZERO PUSH2 0x173 JUMPI PUSH0 DUP1 REVERT JUMPDEST POP PUSH2 0x18E PUSH1 0x4 DUP1 CALLDATASIZE SUB DUP2 ADD SWAP1 PUSH2 0x189 SWAP2 SWAP1 PUSH2 0x25C4 JUMP JUMPDEST PUSH2 0x73A JUMP JUMPDEST PUSH1 0x40 MLOAD PUSH2 0x19B SWAP2 SWAP1 PUSH2 0x268C JUMP JUMPDEST PUSH1 0x40 MLOAD DUP1 SWAP2 SUB SWAP1 RETURN JUMPDEST PUSH2 0x1BE PUSH1 0x4 DUP1 CALLDATASIZE SUB DUP2 ADD SWAP1 PUSH2 0x1B9 SWAP2 SWAP1 PUSH2 0x25C4 JUMP JUMPDEST PUSH2 0x131A JUMP JUMPDEST PUSH1 0x40 MLOAD PUSH2 0x1CB SWAP2 SWAP1 PUSH2 0x268C JUMP JUMPDEST PUSH1 0x40 MLOAD DUP1 SWAP2 SUB SWAP1 RETURN JUMPDEST CALLVALUE DUP1 ISZERO PUSH2 0x1DF JUMPI PUSH0 DUP1 REVERT JUMPDEST POP PUSH2 0x1FA PUSH1 0x4 DUP1 CALLDATASIZE SUB DUP2 ADD SWAP1 PUSH2 0x1F5 SWAP2 SWAP1 PUSH2 0x22FF JUMP JUMPDEST PUSH2 0x191A JUMP JUMPDEST PUSH1 0x40 MLOAD PUSH2 0x207 SWAP2 SWAP1 PUSH2 0x250D JUMP JUMPDEST PUSH1 0x40 MLOAD DUP1 SWAP2 SUB SWAP1 RETURN JUMPDEST PUSH2 0x22A PUSH1 0x4 DUP1 CALLDATASIZE SUB DUP2 ADD SWAP1 PUSH2 0x225 SWAP2 SWAP1 PUSH2 0x25C4 JUMP JUMPDEST PUSH2 0x1A8E JUMP JUMPDEST PUSH1 0x40 MLOAD PUSH2 0x237 SWAP2 SWAP1 PUSH2 0x268C JUMP JUMPDEST PUSH1 0x40 MLOAD DUP1 SWAP2 SUB SWAP1 RETURN JUMPDEST CALLVALUE DUP1 ISZERO PUSH2 0x24B JUMPI PUSH0 DUP1 REVERT JUMPDEST POP PUSH2 0x266 PUSH1 0x4 DUP1 CALLDATASIZE SUB DUP2 ADD SWAP1 PUSH2 0x261 SWAP2 SWAP1 PUSH2 0x26CF JUMP JUMPDEST PUSH2 0x1F17 JUMP JUMPDEST PUSH1 0x40 MLOAD PUSH2 0x273 SWAP2 SWAP1 PUSH2 0x27FD JUMP JUMPDEST PUSH1 0x40 MLOAD DUP1 SWAP2 SUB SWAP1 RETURN JUMPDEST PUSH1 0x60 PUSH0 PUSH1 0x4 PUSH8 0xFFFFFFFFFFFFFFFF DUP2 GT ISZERO PUSH2 0x29A JUMPI PUSH2 0x299 PUSH2 0x21DB JUMP JUMPDEST JUMPDEST PUSH1 0x40 MLOAD SWAP1 DUP1 DUP3 MSTORE DUP1 PUSH1 0x20 MUL PUSH1 0x20 ADD DUP3 ADD PUSH1 0x40 MSTORE DUP1 ISZERO PUSH2 0x2C8 JUMPI DUP2 PUSH1 0x20 ADD PUSH1 0x20 DUP3 MUL DUP1 CALLDATASIZE DUP4 CALLDATACOPY DUP1 DUP3 ADD SWAP2 POP POP SWAP1 POP JUMPDEST POP SWAP1 POP PUSH0 DUP2 PUSH0 DUP2 MLOAD DUP2 LT PUSH2 0x2DF JUMPI PUSH2 0x2DE PUSH2 0x281D JUMP JUMPDEST JUMPDEST PUSH1 0x20 MUL PUSH1 0x20 ADD ADD SWAP1 PUSH1 0x3 DUP2 GT ISZERO PUSH2 0x2F9 JUMPI PUSH2 0x2F8 PUSH2 0x20A0 JUMP JUMPDEST JUMPDEST SWAP1 DUP2 PUSH1 0x3 DUP2 GT ISZERO PUSH2 0x30D JUMPI PUSH2 0x30C PUSH2 0x20A0 JUMP JUMPDEST JUMPDEST DUP2 MSTORE POP POP PUSH1 0x1 DUP2 PUSH1 0x1 DUP2 MLOAD DUP2 LT PUSH2 0x327 JUMPI PUSH2 0x326 PUSH2 0x281D JUMP JUMPDEST JUMPDEST PUSH1 0x20 MUL PUSH1 0x20 ADD ADD SWAP1 PUSH1 0x3 DUP2 GT ISZERO PUSH2 0x341 JUMPI PUSH2 0x340 PUSH2 0x20A0 JUMP JUMPDEST JUMPDEST SWAP1 DUP2 PUSH1 0x3 DUP2 GT ISZERO PUSH2 0x355 JUMPI PUSH2 0x354 PUSH2 0x20A0 JUMP JUMPDEST JUMPDEST DUP2 MSTORE POP POP PUSH1 0x2 DUP2 PUSH1 0x2 DUP2 MLOAD DUP2 LT PUSH2 0x36F JUMPI PUSH2 0x36E PUSH2 0x281D JUMP JUMPDEST JUMPDEST PUSH1 0x20 MUL PUSH1 0x20 ADD ADD SWAP1 PUSH1 0x3 DUP2 GT ISZERO PUSH2 0x389 JUMPI PUSH2 0x388 PUSH2 0x20A0 JUMP JUMPDEST JUMPDEST SWAP1 DUP2 PUSH1 0x3 DUP2 GT ISZERO PUSH2 0x39D JUMPI PUSH2 0x39C PUSH2 0x20A0 JUMP JUMPDEST JUMPDEST DUP2 MSTORE POP POP PUSH1 0x3 DUP2 PUSH1 0x3 DUP2 MLOAD DUP2 LT PUSH2 0x3B7 JUMPI PUSH2 0x3B6 PUSH2 0x281D JUMP JUMPDEST JUMPDEST PUSH1 0x20 MUL PUSH1 0x20 ADD ADD SWAP1 PUSH1 0x3 DUP2 GT ISZERO PUSH2 0x3D1 JUMPI PUSH2 0x3D0 PUSH2 0x20A0 JUMP JUMPDEST JUMPDEST SWAP1 DUP2 PUSH1 0x3 DUP2 GT ISZERO PUSH2 0x3E5 JUMPI PUSH2 0x3E4 PUSH2 0x20A0 JUMP JUMPDEST JUMPDEST DUP2 MSTORE POP POP DUP1 SWAP2 POP POP SWAP1 JUMP JUMPDEST PUSH1 0x60 DUP1 PUSH1 0x1 DUP4 PUSH1 0x40 MLOAD PUSH2 0x403 SWAP2 SWAP1 PUSH2 0x2884 JUMP JUMPDEST SWAP1 DUP2 MSTORE PUSH1 0x20 ADD PUSH1 0x40 MLOAD DUP1 SWAP2 SUB SWAP1 KECCAK256 PUSH1 0x2 DUP5 PUSH1 0x40 MLOAD PUSH2 0x421 SWAP2 SWAP1 PUSH2 0x2884 JUMP JUMPDEST SWAP1 DUP2 MSTORE PUSH1 0x20 ADD PUSH1 0x40 MLOAD DUP1 SWAP2 SUB SWAP1 KECCAK256 DUP2 DUP1 SLOAD DUP1 PUSH1 0x20 MUL PUSH1 0x20 ADD PUSH1 0x40 MLOAD SWAP1 DUP2 ADD PUSH1 0x40 MSTORE DUP1 SWAP3 SWAP2 SWAP1 DUP2 DUP2 MSTORE PUSH1 0x20 ADD DUP3 DUP1 SLOAD DUP1 ISZERO PUSH2 0x4AB JUMPI PUSH1 0x20 MUL DUP3 ADD SWAP2 SWAP1 PUSH0 MSTORE PUSH1 0x20 PUSH0 KECCAK256 SWAP1 PUSH0 SWAP1 JUMPDEST DUP3 DUP3 SWAP1 SLOAD SWAP1 PUSH2 0x100 EXP SWAP1 DIV PUSH1 0xFF AND PUSH1 0xC6 DUP2 GT ISZERO PUSH2 0x486 JUMPI PUSH2 0x485 PUSH2 0x20A0 JUMP JUMPDEST JUMPDEST DUP2 MSTORE PUSH1 0x20 ADD SWAP1 PUSH1 0x1 ADD SWAP1 PUSH1 0x20 DUP3 PUSH0 ADD DIV SWAP3 DUP4 ADD SWAP3 PUSH1 0x1 SUB DUP3 MUL SWAP2 POP DUP1 DUP5 GT PUSH2 0x466 JUMPI SWAP1 POP JUMPDEST POP POP POP POP POP SWAP2 POP DUP1 DUP1 SLOAD DUP1 PUSH1 0x20 MUL PUSH1 0x20 ADD PUSH1 0x40 MLOAD SWAP1 DUP2 ADD PUSH1 0x40 MSTORE DUP1 SWAP3 SWAP2 SWAP1 DUP2 DUP2 MSTORE PUSH1 0x20 ADD DUP3 DUP1 SLOAD DUP1 ISZERO PUSH2 0x52E JUMPI PUSH1 0x20 MUL DUP3 ADD SWAP2 SWAP1 PUSH0 MSTORE PUSH1 0x20 PUSH0 KECCAK256 SWAP1 PUSH0 SWAP1 JUMPDEST DUP3 DUP3 SWAP1 SLOAD SWAP1 PUSH2 0x100 EXP SWAP1 DIV PUSH1 0xFF AND PUSH1 0xC6 DUP2 GT ISZERO PUSH2 0x509 JUMPI PUSH2 0x508 PUSH2 0x20A0 JUMP JUMPDEST JUMPDEST DUP2 MSTORE PUSH1 0x20 ADD SWAP1 PUSH1 0x1 ADD SWAP1 PUSH1 0x20 DUP3 PUSH0 ADD DIV SWAP3 DUP4 ADD SWAP3 PUSH1 0x1 SUB DUP3 MUL SWAP2 POP DUP1 DUP5 GT PUSH2 0x4E9 JUMPI SWAP1 POP JUMPDEST POP POP POP POP POP SWAP1 POP SWAP2 POP SWAP2 POP SWAP2 POP SWAP2 JUMP JUMPDEST PUSH1 0x60 PUSH0 DUP3 SWAP1 POP PUSH0 DUP2 MLOAD PUSH8 0xFFFFFFFFFFFFFFFF DUP2 GT ISZERO PUSH2 0x560 JUMPI PUSH2 0x55F PUSH2 0x21DB JUMP JUMPDEST JUMPDEST PUSH1 0x40 MLOAD SWAP1 DUP1 DUP3 MSTORE DUP1 PUSH1 0x1F ADD PUSH1 0x1F NOT AND PUSH1 0x20 ADD DUP3 ADD PUSH1 0x40 MSTORE DUP1 ISZERO PUSH2 0x592 JUMPI DUP2 PUSH1 0x20 ADD PUSH1 0x1 DUP3 MUL DUP1 CALLDATASIZE DUP4 CALLDATACOPY DUP1 DUP3 ADD SWAP2 POP POP SWAP1 POP JUMPDEST POP SWAP1 POP PUSH0 JUMPDEST DUP3 MLOAD DUP2 LT ISZERO PUSH2 0x71E JUMPI PUSH1 0x41 PUSH1 0xF8 SHL DUP4 DUP3 DUP2 MLOAD DUP2 LT PUSH2 0x5B8 JUMPI PUSH2 0x5B7 PUSH2 0x281D JUMP JUMPDEST JUMPDEST PUSH1 0x20 ADD ADD MLOAD PUSH1 0xF8 SHR PUSH1 0xF8 SHL PUSH31 0xFFFFFFFFFFFFFFFFFFFFFFFFFFFFFFFFFFFFFFFFFFFFFFFFFFFFFFFFFFFFFF NOT AND LT ISZERO DUP1 ISZERO PUSH2 0x636 JUMPI POP PUSH1 0x5A PUSH1 0xF8 SHL DUP4 DUP3 DUP2 MLOAD DUP2 LT PUSH2 0x606 JUMPI PUSH2 0x605 PUSH2 0x281D JUMP JUMPDEST JUMPDEST PUSH1 0x20 ADD ADD MLOAD PUSH1 0xF8 SHR PUSH1 0xF8 SHL PUSH31 0xFFFFFFFFFFFFFFFFFFFFFFFFFFFFFFFFFFFFFFFFFFFFFFFFFFFFFFFFFFFFFF NOT AND GT ISZERO JUMPDEST ISZERO PUSH2 0x6B1 JUMPI PUSH1 0x20 DUP4 DUP3 DUP2 MLOAD DUP2 LT PUSH2 0x650 JUMPI PUSH2 0x64F PUSH2 0x281D JUMP JUMPDEST JUMPDEST PUSH1 0x20 ADD ADD MLOAD PUSH1 0xF8 SHR PUSH1 0xF8 SHL PUSH1 0xF8 SHR PUSH2 0x668 SWAP2 SWAP1 PUSH2 0x28D3 JUMP JUMPDEST PUSH1 0xF8 SHL DUP3 DUP3 DUP2 MLOAD DUP2 LT PUSH2 0x67E JUMPI PUSH2 0x67D PUSH2 0x281D JUMP JUMPDEST JUMPDEST PUSH1 0x20 ADD ADD SWAP1 PUSH31 0xFFFFFFFFFFFFFFFFFFFFFFFFFFFFFFFFFFFFFFFFFFFFFFFFFFFFFFFFFFFFFF NOT AND SWAP1 DUP2 PUSH0 BYTE SWAP1 MSTORE8 POP PUSH2 0x711 JUMP JUMPDEST DUP3 DUP2 DUP2 MLOAD DUP2 LT PUSH2 0x6C4 JUMPI PUSH2 0x6C3 PUSH2 0x281D JUMP JUMPDEST JUMPDEST PUSH1 0x20 ADD ADD MLOAD PUSH1 0xF8 SHR PUSH1 0xF8 SHL DUP3 DUP3 DUP2 MLOAD DUP2 LT PUSH2 0x6E2 JUMPI PUSH2 0x6E1 PUSH2 0x281D JUMP JUMPDEST JUMPDEST PUSH1 0x20 ADD ADD SWAP1 PUSH31 0xFFFFFFFFFFFFFFFFFFFFFFFFFFFFFFFFFFFFFFFFFFFFFFFFFFFFFFFFFFFFFF NOT AND SWAP1 DUP2 PUSH0 BYTE SWAP1 MSTORE8 POP JUMPDEST DUP1 DUP1 PUSH1 0x1 ADD SWAP2 POP POP PUSH2 0x597 JUMP JUMPDEST POP DUP1 SWAP3 POP POP POP SWAP2 SWAP1 POP JUMP JUMPDEST PUSH0 DUP1 DUP3 SWAP1 POP PUSH0 DUP2 MLOAD EQ SWAP2 POP POP SWAP2 SWAP1 POP JUMP JUMPDEST PUSH1 0x60 PUSH2 0x77B DUP4 PUSH1 0x40 MLOAD DUP1 PUSH1 0x40 ADD PUSH1 0x40 MSTORE DUP1 PUSH1 0x16 DUP2 MSTORE PUSH1 0x20 ADD PUSH32 0x67657455736572496E666F427941646472657373657300000000000000000000 DUP2 MSTORE POP PUSH2 0x201F JUMP JUMPDEST ISZERO PUSH2 0xC5A JUMPI PUSH0 DUP3 DUP1 PUSH1 0x20 ADD SWAP1 MLOAD DUP2 ADD SWAP1 PUSH2 0x795 SWAP2 SWAP1 PUSH2 0x2A25 JUMP JUMPDEST SWAP1 POP PUSH0 DUP2 MLOAD PUSH8 0xFFFFFFFFFFFFFFFF DUP2 GT ISZERO PUSH2 0x7B3 JUMPI PUSH2 0x7B2 PUSH2 0x21DB JUMP JUMPDEST JUMPDEST PUSH1 0x40 MLOAD SWAP1 DUP1 DUP3 MSTORE DUP1 PUSH1 0x20 MUL PUSH1 0x20 ADD DUP3 ADD PUSH1 0x40 MSTORE DUP1 ISZERO PUSH2 0x7E6 JUMPI DUP2 PUSH1 0x20 ADD JUMPDEST PUSH1 0x60 DUP2 MSTORE PUSH1 0x20 ADD SWAP1 PUSH1 0x1 SWAP1 SUB SWAP1 DUP2 PUSH2 0x7D1 JUMPI SWAP1 POP JUMPDEST POP SWAP1 POP PUSH0 DUP3 MLOAD PUSH8 0xFFFFFFFFFFFFFFFF DUP2 GT ISZERO PUSH2 0x805 JUMPI PUSH2 0x804 PUSH2 0x21DB JUMP JUMPDEST JUMPDEST PUSH1 0x40 MLOAD SWAP1 DUP1 DUP3 MSTORE DUP1 PUSH1 0x20 MUL PUSH1 0x20 ADD DUP3 ADD PUSH1 0x40 MSTORE DUP1 ISZERO PUSH2 0x838 JUMPI DUP2 PUSH1 0x20 ADD JUMPDEST PUSH1 0x60 DUP2 MSTORE PUSH1 0x20 ADD SWAP1 PUSH1 0x1 SWAP1 SUB SWAP1 DUP2 PUSH2 0x823 JUMPI SWAP1 POP JUMPDEST POP SWAP1 POP PUSH0 DUP4 MLOAD PUSH8 0xFFFFFFFFFFFFFFFF DUP2 GT ISZERO PUSH2 0x857 JUMPI PUSH2 0x856 PUSH2 0x21DB JUMP JUMPDEST JUMPDEST PUSH1 0x40 MLOAD SWAP1 DUP1 DUP3 MSTORE DUP1 PUSH1 0x20 MUL PUSH1 0x20 ADD DUP3 ADD PUSH1 0x40 MSTORE DUP1 ISZERO PUSH2 0x88A JUMPI DUP2 PUSH1 0x20 ADD JUMPDEST PUSH1 0x60 DUP2 MSTORE PUSH1 0x20 ADD SWAP1 PUSH1 0x1 SWAP1 SUB SWAP1 DUP2 PUSH2 0x875 JUMPI SWAP1 POP JUMPDEST POP SWAP1 POP PUSH0 DUP5 MLOAD PUSH8 0xFFFFFFFFFFFFFFFF DUP2 GT ISZERO PUSH2 0x8A9 JUMPI PUSH2 0x8A8 PUSH2 0x21DB JUMP JUMPDEST JUMPDEST PUSH1 0x40 MLOAD SWAP1 DUP1 DUP3 MSTORE DUP1 PUSH1 0x20 MUL PUSH1 0x20 ADD DUP3 ADD PUSH1 0x40 MSTORE DUP1 ISZERO PUSH2 0x8DC JUMPI DUP2 PUSH1 0x20 ADD JUMPDEST PUSH1 0x60 DUP2 MSTORE PUSH1 0x20 ADD SWAP1 PUSH1 0x1 SWAP1 SUB SWAP1 DUP2 PUSH2 0x8C7 JUMPI SWAP1 POP JUMPDEST POP SWAP1 POP PUSH0 JUMPDEST DUP6 MLOAD DUP2 LT ISZERO PUSH2 0xC27 JUMPI PUSH0 PUSH1 0x3 PUSH0 DUP9 DUP5 DUP2 MLOAD DUP2 LT PUSH2 0x901 JUMPI PUSH2 0x900 PUSH2 0x281D JUMP JUMPDEST JUMPDEST PUSH1 0x20 MUL PUSH1 0x20 ADD ADD MLOAD PUSH20 0xFFFFFFFFFFFFFFFFFFFFFFFFFFFFFFFFFFFFFFFF AND PUSH20 0xFFFFFFFFFFFFFFFFFFFFFFFFFFFFFFFFFFFFFFFF AND DUP2 MSTORE PUSH1 0x20 ADD SWAP1 DUP2 MSTORE PUSH1 0x20 ADD PUSH0 KECCAK256 PUSH1 0x40 MLOAD DUP1 PUSH1 0x80 ADD PUSH1 0x40 MSTORE SWAP1 DUP2 PUSH0 DUP3 ADD DUP1 SLOAD PUSH2 0x95C SWAP1 PUSH2 0x2A99 JUMP JUMPDEST DUP1 PUSH1 0x1F ADD PUSH1 0x20 DUP1 SWAP2 DIV MUL PUSH1 0x20 ADD PUSH1 0x40 MLOAD SWAP1 DUP2 ADD PUSH1 0x40 MSTORE DUP1 SWAP3 SWAP2 SWAP1 DUP2 DUP2 MSTORE PUSH1 0x20 ADD DUP3 DUP1 SLOAD PUSH2 0x988 SWAP1 PUSH2 0x2A99 JUMP JUMPDEST DUP1 ISZERO PUSH2 0x9D3 JUMPI DUP1 PUSH1 0x1F LT PUSH2 0x9AA JUMPI PUSH2 0x100 DUP1 DUP4 SLOAD DIV MUL DUP4 MSTORE SWAP2 PUSH1 0x20 ADD SWAP2 PUSH2 0x9D3 JUMP JUMPDEST DUP3 ADD SWAP2 SWAP1 PUSH0 MSTORE PUSH1 0x20 PUSH0 KECCAK256 SWAP1 JUMPDEST DUP2 SLOAD DUP2 MSTORE SWAP1 PUSH1 0x1 ADD SWAP1 PUSH1 0x20 ADD DUP1 DUP4 GT PUSH2 0x9B6 JUMPI DUP3 SWAP1 SUB PUSH1 0x1F AND DUP3 ADD SWAP2 JUMPDEST POP POP POP POP POP DUP2 MSTORE PUSH1 0x20 ADD PUSH1 0x1 DUP3 ADD DUP1 SLOAD PUSH2 0x9EC SWAP1 PUSH2 0x2A99 JUMP JUMPDEST DUP1 PUSH1 0x1F ADD PUSH1 0x20 DUP1 SWAP2 DIV MUL PUSH1 0x20 ADD PUSH1 0x40 MLOAD SWAP1 DUP2 ADD PUSH1 0x40 MSTORE DUP1 SWAP3 SWAP2 SWAP1 DUP2 DUP2 MSTORE PUSH1 0x20 ADD DUP3 DUP1 SLOAD PUSH2 0xA18 SWAP1 PUSH2 0x2A99 JUMP JUMPDEST DUP1 ISZERO PUSH2 0xA63 JUMPI DUP1 PUSH1 0x1F LT PUSH2 0xA3A JUMPI PUSH2 0x100 DUP1 DUP4 SLOAD DIV MUL DUP4 MSTORE SWAP2 PUSH1 0x20 ADD SWAP2 PUSH2 0xA63 JUMP JUMPDEST DUP3 ADD SWAP2 SWAP1 PUSH0 MSTORE PUSH1 0x20 PUSH0 KECCAK256 SWAP1 JUMPDEST DUP2 SLOAD DUP2 MSTORE SWAP1 PUSH1 0x1 ADD SWAP1 PUSH1 0x20 ADD DUP1 DUP4 GT PUSH2 0xA46 JUMPI DUP3 SWAP1 SUB PUSH1 0x1F AND DUP3 ADD SWAP2 JUMPDEST POP POP POP POP POP DUP2 MSTORE PUSH1 0x20 ADD PUSH1 0x2 DUP3 ADD DUP1 SLOAD PUSH2 0xA7C SWAP1 PUSH2 0x2A99 JUMP JUMPDEST DUP1 PUSH1 0x1F ADD PUSH1 0x20 DUP1 SWAP2 DIV MUL PUSH1 0x20 ADD PUSH1 0x40 MLOAD SWAP1 DUP2 ADD PUSH1 0x40 MSTORE DUP1 SWAP3 SWAP2 SWAP1 DUP2 DUP2 MSTORE PUSH1 0x20 ADD DUP3 DUP1 SLOAD PUSH2 0xAA8 SWAP1 PUSH2 0x2A99 JUMP JUMPDEST DUP1 ISZERO PUSH2 0xAF3 JUMPI DUP1 PUSH1 0x1F LT PUSH2 0xACA JUMPI PUSH2 0x100 DUP1 DUP4 SLOAD DIV MUL DUP4 MSTORE SWAP2 PUSH1 0x20 ADD SWAP2 PUSH2 0xAF3 JUMP JUMPDEST DUP3 ADD SWAP2 SWAP1 PUSH0 MSTORE PUSH1 0x20 PUSH0 KECCAK256 SWAP1 JUMPDEST DUP2 SLOAD DUP2 MSTORE SWAP1 PUSH1 0x1 ADD SWAP1 PUSH1 0x20 ADD DUP1 DUP4 GT PUSH2 0xAD6 JUMPI DUP3 SWAP1 SUB PUSH1 0x1F AND DUP3 ADD SWAP2 JUMPDEST POP POP POP POP POP DUP2 MSTORE PUSH1 0x20 ADD PUSH1 0x3 DUP3 ADD DUP1 SLOAD PUSH2 0xB0C SWAP1 PUSH2 0x2A99 JUMP JUMPDEST DUP1 PUSH1 0x1F ADD PUSH1 0x20 DUP1 SWAP2 DIV MUL PUSH1 0x20 ADD PUSH1 0x40 MLOAD SWAP1 DUP2 ADD PUSH1 0x40 MSTORE DUP1 SWAP3 SWAP2 SWAP1 DUP2 DUP2 MSTORE PUSH1 0x20 ADD DUP3 DUP1 SLOAD PUSH2 0xB38 SWAP1 PUSH2 0x2A99 JUMP JUMPDEST DUP1 ISZERO PUSH2 0xB83 JUMPI DUP1 PUSH1 0x1F LT PUSH2 0xB5A JUMPI PUSH2 0x100 DUP1 DUP4 SLOAD DIV MUL DUP4 MSTORE SWAP2 PUSH1 0x20 ADD SWAP2 PUSH2 0xB83 JUMP JUMPDEST DUP3 ADD SWAP2 SWAP1 PUSH0 MSTORE PUSH1 0x20 PUSH0 KECCAK256 SWAP1 JUMPDEST DUP2 SLOAD DUP2 MSTORE SWAP1 PUSH1 0x1 ADD SWAP1 PUSH1 0x20 ADD DUP1 DUP4 GT PUSH2 0xB66 JUMPI DUP3 SWAP1 SUB PUSH1 0x1F AND DUP3 ADD SWAP2 JUMPDEST POP POP POP POP POP DUP2 MSTORE POP POP SWAP1 POP DUP1 PUSH0 ADD MLOAD DUP7 DUP4 DUP2 MLOAD DUP2 LT PUSH2 0xBA5 JUMPI PUSH2 0xBA4 PUSH2 0x281D JUMP JUMPDEST JUMPDEST PUSH1 0x20 MUL PUSH1 0x20 ADD ADD DUP2 SWAP1 MSTORE POP DUP1 PUSH1 0x20 ADD MLOAD DUP6 DUP4 DUP2 MLOAD DUP2 LT PUSH2 0xBC8 JUMPI PUSH2 0xBC7 PUSH2 0x281D JUMP JUMPDEST JUMPDEST PUSH1 0x20 MUL PUSH1 0x20 ADD ADD DUP2 SWAP1 MSTORE POP DUP1 PUSH1 0x40 ADD MLOAD DUP5 DUP4 DUP2 MLOAD DUP2 LT PUSH2 0xBEB JUMPI PUSH2 0xBEA PUSH2 0x281D JUMP JUMPDEST JUMPDEST PUSH1 0x20 MUL PUSH1 0x20 ADD ADD DUP2 SWAP1 MSTORE POP DUP1 PUSH1 0x60 ADD MLOAD DUP4 DUP4 DUP2 MLOAD DUP2 LT PUSH2 0xC0E JUMPI PUSH2 0xC0D PUSH2 0x281D JUMP JUMPDEST JUMPDEST PUSH1 0x20 MUL PUSH1 0x20 ADD ADD DUP2 SWAP1 MSTORE POP POP DUP1 DUP1 PUSH1 0x1 ADD SWAP2 POP POP PUSH2 0x8E1 JUMP JUMPDEST POP DUP4 DUP4 DUP4 DUP4 PUSH1 0x40 MLOAD PUSH1 0x20 ADD PUSH2 0xC3F SWAP5 SWAP4 SWAP3 SWAP2 SWAP1 PUSH2 0x2AC9 JUMP JUMPDEST PUSH1 0x40 MLOAD PUSH1 0x20 DUP2 DUP4 SUB SUB DUP2 MSTORE SWAP1 PUSH1 0x40 MSTORE SWAP6 POP POP POP POP POP POP PUSH2 0x1314 JUMP JUMPDEST PUSH2 0xC99 DUP4 PUSH1 0x40 MLOAD DUP1 PUSH1 0x40 ADD PUSH1 0x40 MSTORE DUP1 PUSH1 0x14 DUP2 MSTORE PUSH1 0x20 ADD PUSH32 0x67657455736572496E666F427948616E646C6573000000000000000000000000 DUP2 MSTORE POP PUSH2 0x201F JUMP JUMPDEST ISZERO PUSH2 0x1233 JUMPI PUSH0 DUP3 DUP1 PUSH1 0x20 ADD SWAP1 MLOAD DUP2 ADD SWAP1 PUSH2 0xCB3 SWAP2 SWAP1 PUSH2 0x2C74 JUMP JUMPDEST SWAP1 POP PUSH0 DUP2 MLOAD PUSH8 0xFFFFFFFFFFFFFFFF DUP2 GT ISZERO PUSH2 0xCD1 JUMPI PUSH2 0xCD0 PUSH2 0x21DB JUMP JUMPDEST JUMPDEST PUSH1 0x40 MLOAD SWAP1 DUP1 DUP3 MSTORE DUP1 PUSH1 0x20 MUL PUSH1 0x20 ADD DUP3 ADD PUSH1 0x40 MSTORE DUP1 ISZERO PUSH2 0xCFF JUMPI DUP2 PUSH1 0x20 ADD PUSH1 0x20 DUP3 MUL DUP1 CALLDATASIZE DUP4 CALLDATACOPY DUP1 DUP3 ADD SWAP2 POP POP SWAP1 POP JUMPDEST POP SWAP1 POP PUSH0 DUP3 MLOAD PUSH8 0xFFFFFFFFFFFFFFFF DUP2 GT ISZERO PUSH2 0xD1E JUMPI PUSH2 0xD1D PUSH2 0x21DB JUMP JUMPDEST JUMPDEST PUSH1 0x40 MLOAD SWAP1 DUP1 DUP3 MSTORE DUP1 PUSH1 0x20 MUL PUSH1 0x20 ADD DUP3 ADD PUSH1 0x40 MSTORE DUP1 ISZERO PUSH2 0xD51 JUMPI DUP2 PUSH1 0x20 ADD JUMPDEST PUSH1 0x60 DUP2 MSTORE PUSH1 0x20 ADD SWAP1 PUSH1 0x1 SWAP1 SUB SWAP1 DUP2 PUSH2 0xD3C JUMPI SWAP1 POP JUMPDEST POP SWAP1 POP PUSH0 DUP4 MLOAD PUSH8 0xFFFFFFFFFFFFFFFF DUP2 GT ISZERO PUSH2 0xD70 JUMPI PUSH2 0xD6F PUSH2 0x21DB JUMP JUMPDEST JUMPDEST PUSH1 0x40 MLOAD SWAP1 DUP1 DUP3 MSTORE DUP1 PUSH1 0x20 MUL PUSH1 0x20 ADD DUP3 ADD PUSH1 0x40 MSTORE DUP1 ISZERO PUSH2 0xDA3 JUMPI DUP2 PUSH1 0x20 ADD JUMPDEST PUSH1 0x60 DUP2 MSTORE PUSH1 0x20 ADD SWAP1 PUSH1 0x1 SWAP1 SUB SWAP1 DUP2 PUSH2 0xD8E JUMPI SWAP1 POP JUMPDEST POP SWAP1 POP PUSH0 DUP5 MLOAD PUSH8 0xFFFFFFFFFFFFFFFF DUP2 GT ISZERO PUSH2 0xDC2 JUMPI PUSH2 0xDC1 PUSH2 0x21DB JUMP JUMPDEST JUMPDEST PUSH1 0x40 MLOAD SWAP1 DUP1 DUP3 MSTORE DUP1 PUSH1 0x20 MUL PUSH1 0x20 ADD DUP3 ADD PUSH1 0x40 MSTORE DUP1 ISZERO PUSH2 0xDF5 JUMPI DUP2 PUSH1 0x20 ADD JUMPDEST PUSH1 0x60 DUP2 MSTORE PUSH1 0x20 ADD SWAP1 PUSH1 0x1 SWAP1 SUB SWAP1 DUP2 PUSH2 0xDE0 JUMPI SWAP1 POP JUMPDEST POP SWAP1 POP PUSH0 JUMPDEST DUP6 MLOAD DUP2 LT ISZERO PUSH2 0x1200 JUMPI PUSH0 PUSH1 0x3 PUSH0 PUSH1 0x4 DUP10 DUP6 DUP2 MLOAD DUP2 LT PUSH2 0xE1C JUMPI PUSH2 0xE1B PUSH2 0x281D JUMP JUMPDEST JUMPDEST PUSH1 0x20 MUL PUSH1 0x20 ADD ADD MLOAD PUSH1 0x40 MLOAD PUSH2 0xE31 SWAP2 SWAP1 PUSH2 0x2884 JUMP JUMPDEST SWAP1 DUP2 MSTORE PUSH1 0x20 ADD PUSH1 0x40 MLOAD DUP1 SWAP2 SUB SWAP1 KECCAK256 PUSH0 SWAP1 SLOAD SWAP1 PUSH2 0x100 EXP SWAP1 DIV PUSH20 0xFFFFFFFFFFFFFFFFFFFFFFFFFFFFFFFFFFFFFFFF AND PUSH20 0xFFFFFFFFFFFFFFFFFFFFFFFFFFFFFFFFFFFFFFFF AND PUSH20 0xFFFFFFFFFFFFFFFFFFFFFFFFFFFFFFFFFFFFFFFF AND DUP2 MSTORE PUSH1 0x20 ADD SWAP1 DUP2 MSTORE PUSH1 0x20 ADD PUSH0 KECCAK256 PUSH1 0x40 MLOAD DUP1 PUSH1 0x80 ADD PUSH1 0x40 MSTORE SWAP1 DUP2 PUSH0 DUP3 ADD DUP1 SLOAD PUSH2 0xEB2 SWAP1 PUSH2 0x2A99 JUMP JUMPDEST DUP1 PUSH1 0x1F ADD PUSH1 0x20 DUP1 SWAP2 DIV MUL PUSH1 0x20 ADD PUSH1 0x40 MLOAD SWAP1 DUP2 ADD PUSH1 0x40 MSTORE DUP1 SWAP3 SWAP2 SWAP1 DUP2 DUP2 MSTORE PUSH1 0x20 ADD DUP3 DUP1 SLOAD PUSH2 0xEDE SWAP1 PUSH2 0x2A99 JUMP JUMPDEST DUP1 ISZERO PUSH2 0xF29 JUMPI DUP1 PUSH1 0x1F LT PUSH2 0xF00 JUMPI PUSH2 0x100 DUP1 DUP4 SLOAD DIV MUL DUP4 MSTORE SWAP2 PUSH1 0x20 ADD SWAP2 PUSH2 0xF29 JUMP JUMPDEST DUP3 ADD SWAP2 SWAP1 PUSH0 MSTORE PUSH1 0x20 PUSH0 KECCAK256 SWAP1 JUMPDEST DUP2 SLOAD DUP2 MSTORE SWAP1 PUSH1 0x1 ADD SWAP1 PUSH1 0x20 ADD DUP1 DUP4 GT PUSH2 0xF0C JUMPI DUP3 SWAP1 SUB PUSH1 0x1F AND DUP3 ADD SWAP2 JUMPDEST POP POP POP POP POP DUP2 MSTORE PUSH1 0x20 ADD PUSH1 0x1 DUP3 ADD DUP1 SLOAD PUSH2 0xF42 SWAP1 PUSH2 0x2A99 JUMP JUMPDEST DUP1 PUSH1 0x1F ADD PUSH1 0x20 DUP1 SWAP2 DIV MUL PUSH1 0x20 ADD PUSH1 0x40 MLOAD SWAP1 DUP2 ADD PUSH1 0x40 MSTORE DUP1 SWAP3 SWAP2 SWAP1 DUP2 DUP2 MSTORE PUSH1 0x20 ADD DUP3 DUP1 SLOAD PUSH2 0xF6E SWAP1 PUSH2 0x2A99 JUMP JUMPDEST DUP1 ISZERO PUSH2 0xFB9 JUMPI DUP1 PUSH1 0x1F LT PUSH2 0xF90 JUMPI PUSH2 0x100 DUP1 DUP4 SLOAD DIV MUL DUP4 MSTORE SWAP2 PUSH1 0x20 ADD SWAP2 PUSH2 0xFB9 JUMP JUMPDEST DUP3 ADD SWAP2 SWAP1 PUSH0 MSTORE PUSH1 0x20 PUSH0 KECCAK256 SWAP1 JUMPDEST DUP2 SLOAD DUP2 MSTORE SWAP1 PUSH1 0x1 ADD SWAP1 PUSH1 0x20 ADD DUP1 DUP4 GT PUSH2 0xF9C JUMPI DUP3 SWAP1 SUB PUSH1 0x1F AND DUP3 ADD SWAP2 JUMPDEST POP POP POP POP POP DUP2 MSTORE PUSH1 0x20 ADD PUSH1 0x2 DUP3 ADD DUP1 SLOAD PUSH2 0xFD2 SWAP1 PUSH2 0x2A99 JUMP JUMPDEST DUP1 PUSH1 0x1F ADD PUSH1 0x20 DUP1 SWAP2 DIV MUL PUSH1 0x20 ADD PUSH1 0x40 MLOAD SWAP1 DUP2 ADD PUSH1 0x40 MSTORE DUP1 SWAP3 SWAP2 SWAP1 DUP2 DUP2 MSTORE PUSH1 0x20 ADD DUP3 DUP1 SLOAD PUSH2 0xFFE SWAP1 PUSH2 0x2A99 JUMP JUMPDEST DUP1 ISZERO PUSH2 0x1049 JUMPI DUP1 PUSH1 0x1F LT PUSH2 0x1020 JUMPI PUSH2 0x100 DUP1 DUP4 SLOAD DIV MUL DUP4 MSTORE SWAP2 PUSH1 0x20 ADD SWAP2 PUSH2 0x1049 JUMP JUMPDEST DUP3 ADD SWAP2 SWAP1 PUSH0 MSTORE PUSH1 0x20 PUSH0 KECCAK256 SWAP1 JUMPDEST DUP2 SLOAD DUP2 MSTORE SWAP1 PUSH1 0x1 ADD SWAP1 PUSH1 0x20 ADD DUP1 DUP4 GT PUSH2 0x102C JUMPI DUP3 SWAP1 SUB PUSH1 0x1F AND DUP3 ADD SWAP2 JUMPDEST POP POP POP POP POP DUP2 MSTORE PUSH1 0x20 ADD PUSH1 0x3 DUP3 ADD DUP1 SLOAD PUSH2 0x1062 SWAP1 PUSH2 0x2A99 JUMP JUMPDEST DUP1 PUSH1 0x1F ADD PUSH1 0x20 DUP1 SWAP2 DIV MUL PUSH1 0x20 ADD PUSH1 0x40 MLOAD SWAP1 DUP2 ADD PUSH1 0x40 MSTORE DUP1 SWAP3 SWAP2 SWAP1 DUP2 DUP2 MSTORE PUSH1 0x20 ADD DUP3 DUP1 SLOAD PUSH2 0x108E SWAP1 PUSH2 0x2A99 JUMP JUMPDEST DUP1 ISZERO PUSH2 0x10D9 JUMPI DUP1 PUSH1 0x1F LT PUSH2 0x10B0 JUMPI PUSH2 0x100 DUP1 DUP4 SLOAD DIV MUL DUP4 MSTORE SWAP2 PUSH1 0x20 ADD SWAP2 PUSH2 0x10D9 JUMP JUMPDEST DUP3 ADD SWAP2 SWAP1 PUSH0 MSTORE PUSH1 0x20 PUSH0 KECCAK256 SWAP1 JUMPDEST DUP2 SLOAD DUP2 MSTORE SWAP1 PUSH1 0x1 ADD SWAP1 PUSH1 0x20 ADD DUP1 DUP4 GT PUSH2 0x10BC JUMPI DUP3 SWAP1 SUB PUSH1 0x1F AND DUP3 ADD SWAP2 JUMPDEST POP POP POP POP POP DUP2 MSTORE POP POP SWAP1 POP PUSH1 0x4 DUP8 DUP4 DUP2 MLOAD DUP2 LT PUSH2 0x10F9 JUMPI PUSH2 0x10F8 PUSH2 0x281D JUMP JUMPDEST JUMPDEST PUSH1 0x20 MUL PUSH1 0x20 ADD ADD MLOAD PUSH1 0x40 MLOAD PUSH2 0x110E SWAP2 SWAP1 PUSH2 0x2884 JUMP JUMPDEST SWAP1 DUP2 MSTORE PUSH1 0x20 ADD PUSH1 0x40 MLOAD DUP1 SWAP2 SUB SWAP1 KECCAK256 PUSH0 SWAP1 SLOAD SWAP1 PUSH2 0x100 EXP SWAP1 DIV PUSH20 0xFFFFFFFFFFFFFFFFFFFFFFFFFFFFFFFFFFFFFFFF AND DUP7 DUP4 DUP2 MLOAD DUP2 LT PUSH2 0x114F JUMPI PUSH2 0x114E PUSH2 0x281D JUMP JUMPDEST JUMPDEST PUSH1 0x20 MUL PUSH1 0x20 ADD ADD SWAP1 PUSH20 0xFFFFFFFFFFFFFFFFFFFFFFFFFFFFFFFFFFFFFFFF AND SWAP1 DUP2 PUSH20 0xFFFFFFFFFFFFFFFFFFFFFFFFFFFFFFFFFFFFFFFF AND DUP2 MSTORE POP POP DUP1 PUSH1 0x20 ADD MLOAD DUP6 DUP4 DUP2 MLOAD DUP2 LT PUSH2 0x11A1 JUMPI PUSH2 0x11A0 PUSH2 0x281D JUMP JUMPDEST JUMPDEST PUSH1 0x20 MUL PUSH1 0x20 ADD ADD DUP2 SWAP1 MSTORE POP DUP1 PUSH1 0x40 ADD MLOAD DUP5 DUP4 DUP2 MLOAD DUP2 LT PUSH2 0x11C4 JUMPI PUSH2 0x11C3 PUSH2 0x281D JUMP JUMPDEST JUMPDEST PUSH1 0x20 MUL PUSH1 0x20 ADD ADD DUP2 SWAP1 MSTORE POP DUP1 PUSH1 0x60 ADD MLOAD DUP4 DUP4 DUP2 MLOAD DUP2 LT PUSH2 0x11E7 JUMPI PUSH2 0x11E6 PUSH2 0x281D JUMP JUMPDEST JUMPDEST PUSH1 0x20 MUL PUSH1 0x20 ADD ADD DUP2 SWAP1 MSTORE POP POP DUP1 DUP1 PUSH1 0x1 ADD SWAP2 POP POP PUSH2 0xDFA JUMP JUMPDEST POP DUP4 DUP4 DUP4 DUP4 PUSH1 0x40 MLOAD PUSH1 0x20 ADD PUSH2 0x1218 SWAP5 SWAP4 SWAP3 SWAP2 SWAP1 PUSH2 0x2D72 JUMP JUMPDEST PUSH1 0x40 MLOAD PUSH1 0x20 DUP2 DUP4 SUB SUB DUP2 MSTORE SWAP1 PUSH1 0x40 MSTORE SWAP6 POP POP POP POP POP POP PUSH2 0x1314 JUMP JUMPDEST PUSH2 0x1272 DUP4 PUSH1 0x40 MLOAD DUP1 PUSH1 0x40 ADD PUSH1 0x40 MSTORE DUP1 PUSH1 0x12 DUP2 MSTORE PUSH1 0x20 ADD PUSH32 0x67657441646472657373427948616E646C650000000000000000000000000000 DUP2 MSTORE POP PUSH2 0x201F JUMP JUMPDEST ISZERO PUSH2 0x12F3 JUMPI PUSH0 DUP3 DUP1 PUSH1 0x20 ADD SWAP1 MLOAD DUP2 ADD SWAP1 PUSH2 0x128C SWAP2 SWAP1 PUSH2 0x2DD1 JUMP JUMPDEST SWAP1 POP PUSH1 0x4 DUP2 PUSH1 0x40 MLOAD PUSH2 0x129E SWAP2 SWAP1 PUSH2 0x2884 JUMP JUMPDEST SWAP1 DUP2 MSTORE PUSH1 0x20 ADD PUSH1 0x40 MLOAD DUP1 SWAP2 SUB SWAP1 KECCAK256 PUSH0 SWAP1 SLOAD SWAP1 PUSH2 0x100 EXP SWAP1 DIV PUSH20 0xFFFFFFFFFFFFFFFFFFFFFFFFFFFFFFFFFFFFFFFF AND PUSH1 0x40 MLOAD PUSH1 0x20 ADD PUSH2 0x12DC SWAP2 SWAP1 PUSH2 0x2E27 JUMP JUMPDEST PUSH1 0x40 MLOAD PUSH1 0x20 DUP2 DUP4 SUB SUB DUP2 MSTORE SWAP1 PUSH1 0x40 MSTORE SWAP2 POP POP PUSH2 0x1314 JUMP JUMPDEST PUSH1 0x40 MLOAD PUSH1 0x20 ADD PUSH2 0x1302 SWAP1 PUSH2 0x2E63 JUMP JUMPDEST PUSH1 0x40 MLOAD PUSH1 0x20 DUP2 DUP4 SUB SUB DUP2 MSTORE SWAP1 PUSH1 0x40 MSTORE SWAP1 POP JUMPDEST SWAP3 SWAP2 POP POP JUMP JUMPDEST PUSH1 0x60 PUSH2 0x135B DUP4 PUSH1 0x40 MLOAD DUP1 PUSH1 0x40 ADD PUSH1 0x40 MSTORE DUP1 PUSH1 0xA DUP2 MSTORE PUSH1 0x20 ADD PUSH32 0x6372656174655573657200000000000000000000000000000000000000000000 DUP2 MSTORE POP PUSH2 0x201F JUMP JUMPDEST ISZERO PUSH2 0x18F3 JUMPI PUSH0 DUP1 PUSH0 DUP1 DUP6 DUP1 PUSH1 0x20 ADD SWAP1 MLOAD DUP2 ADD SWAP1 PUSH2 0x1378 SWAP2 SWAP1 PUSH2 0x2E81 JUMP JUMPDEST SWAP4 POP SWAP4 POP SWAP4 POP SWAP4 POP PUSH2 0x1389 DUP5 PUSH2 0x191A JUMP JUMPDEST PUSH2 0x13C8 JUMPI PUSH1 0x40 MLOAD PUSH32 0x8C379A000000000000000000000000000000000000000000000000000000000 DUP2 MSTORE PUSH1 0x4 ADD PUSH2 0x13BF SWAP1 PUSH2 0x2F9F JUMP JUMPDEST PUSH1 0x40 MLOAD DUP1 SWAP2 SUB SWAP1 REVERT JUMPDEST PUSH0 PUSH1 0x3 PUSH0 CALLER PUSH20 0xFFFFFFFFFFFFFFFFFFFFFFFFFFFFFFFFFFFFFFFF AND PUSH20 0xFFFFFFFFFFFFFFFFFFFFFFFFFFFFFFFFFFFFFFFF AND DUP2 MSTORE PUSH1 0x20 ADD SWAP1 DUP2 MSTORE PUSH1 0x20 ADD PUSH0 KECCAK256 PUSH1 0x40 MLOAD DUP1 PUSH1 0x80 ADD PUSH1 0x40 MSTORE SWAP1 DUP2 PUSH0 DUP3 ADD DUP1 SLOAD PUSH2 0x1420 SWAP1 PUSH2 0x2A99 JUMP JUMPDEST DUP1 PUSH1 0x1F ADD PUSH1 0x20 DUP1 SWAP2 DIV MUL PUSH1 0x20 ADD PUSH1 0x40 MLOAD SWAP1 DUP2 ADD PUSH1 0x40 MSTORE DUP1 SWAP3 SWAP2 SWAP1 DUP2 DUP2 MSTORE PUSH1 0x20 ADD DUP3 DUP1 SLOAD PUSH2 0x144C SWAP1 PUSH2 0x2A99 JUMP JUMPDEST DUP1 ISZERO PUSH2 0x1497 JUMPI DUP1 PUSH1 0x1F LT PUSH2 0x146E JUMPI PUSH2 0x100 DUP1 DUP4 SLOAD DIV MUL DUP4 MSTORE SWAP2 PUSH1 0x20 ADD SWAP2 PUSH2 0x1497 JUMP JUMPDEST DUP3 ADD SWAP2 SWAP1 PUSH0 MSTORE PUSH1 0x20 PUSH0 KECCAK256 SWAP1 JUMPDEST DUP2 SLOAD DUP2 MSTORE SWAP1 PUSH1 0x1 ADD SWAP1 PUSH1 0x20 ADD DUP1 DUP4 GT PUSH2 0x147A JUMPI DUP3 SWAP1 SUB PUSH1 0x1F AND DUP3 ADD SWAP2 JUMPDEST POP POP POP POP POP DUP2 MSTORE PUSH1 0x20 ADD PUSH1 0x1 DUP3 ADD DUP1 SLOAD PUSH2 0x14B0 SWAP1 PUSH2 0x2A99 JUMP JUMPDEST DUP1 PUSH1 0x1F ADD PUSH1 0x20 DUP1 SWAP2 DIV MUL PUSH1 0x20 ADD PUSH1 0x40 MLOAD SWAP1 DUP2 ADD PUSH1 0x40 MSTORE DUP1 SWAP3 SWAP2 SWAP1 DUP2 DUP2 MSTORE PUSH1 0x20 ADD DUP3 DUP1 SLOAD PUSH2 0x14DC SWAP1 PUSH2 0x2A99 JUMP JUMPDEST DUP1 ISZERO PUSH2 0x1527 JUMPI DUP1 PUSH1 0x1F LT PUSH2 0x14FE JUMPI PUSH2 0x100 DUP1 DUP4 SLOAD DIV MUL DUP4 MSTORE SWAP2 PUSH1 0x20 ADD SWAP2 PUSH2 0x1527 JUMP JUMPDEST DUP3 ADD SWAP2 SWAP1 PUSH0 MSTORE PUSH1 0x20 PUSH0 KECCAK256 SWAP1 JUMPDEST DUP2 SLOAD DUP2 MSTORE SWAP1 PUSH1 0x1 ADD SWAP1 PUSH1 0x20 ADD DUP1 DUP4 GT PUSH2 0x150A JUMPI DUP3 SWAP1 SUB PUSH1 0x1F AND DUP3 ADD SWAP2 JUMPDEST POP POP POP POP POP DUP2 MSTORE PUSH1 0x20 ADD PUSH1 0x2 DUP3 ADD DUP1 SLOAD PUSH2 0x1540 SWAP1 PUSH2 0x2A99 JUMP JUMPDEST DUP1 PUSH1 0x1F ADD PUSH1 0x20 DUP1 SWAP2 DIV MUL PUSH1 0x20 ADD PUSH1 0x40 MLOAD SWAP1 DUP2 ADD PUSH1 0x40 MSTORE DUP1 SWAP3 SWAP2 SWAP1 DUP2 DUP2 MSTORE PUSH1 0x20 ADD DUP3 DUP1 SLOAD PUSH2 0x156C SWAP1 PUSH2 0x2A99 JUMP JUMPDEST DUP1 ISZERO PUSH2 0x15B7 JUMPI DUP1 PUSH1 0x1F LT PUSH2 0x158E JUMPI PUSH2 0x100 DUP1 DUP4 SLOAD DIV MUL DUP4 MSTORE SWAP2 PUSH1 0x20 ADD SWAP2 PUSH2 0x15B7 JUMP JUMPDEST DUP3 ADD SWAP2 SWAP1 PUSH0 MSTORE PUSH1 0x20 PUSH0 KECCAK256 SWAP1 JUMPDEST DUP2 SLOAD DUP2 MSTORE SWAP1 PUSH1 0x1 ADD SWAP1 PUSH1 0x20 ADD DUP1 DUP4 GT PUSH2 0x159A JUMPI DUP3 SWAP1 SUB PUSH1 0x1F AND DUP3 ADD SWAP2 JUMPDEST POP POP POP POP POP DUP2 MSTORE PUSH1 0x20 ADD PUSH1 0x3 DUP3 ADD DUP1 SLOAD PUSH2 0x15D0 SWAP1 PUSH2 0x2A99 JUMP JUMPDEST DUP1 PUSH1 0x1F ADD PUSH1 0x20 DUP1 SWAP2 DIV MUL PUSH1 0x20 ADD PUSH1 0x40 MLOAD SWAP1 DUP2 ADD PUSH1 0x40 MSTORE DUP1 SWAP3 SWAP2 SWAP1 DUP2 DUP2 MSTORE PUSH1 0x20 ADD DUP3 DUP1 SLOAD PUSH2 0x15FC SWAP1 PUSH2 0x2A99 JUMP JUMPDEST DUP1 ISZERO PUSH2 0x1647 JUMPI DUP1 PUSH1 0x1F LT PUSH2 0x161E JUMPI PUSH2 0x100 DUP1 DUP4 SLOAD DIV MUL DUP4 MSTORE SWAP2 PUSH1 0x20 ADD SWAP2 PUSH2 0x1647 JUMP JUMPDEST DUP3 ADD SWAP2 SWAP1 PUSH0 MSTORE PUSH1 0x20 PUSH0 KECCAK256 SWAP1 JUMPDEST DUP2 SLOAD DUP2 MSTORE SWAP1 PUSH1 0x1 ADD SWAP1 PUSH1 0x20 ADD DUP1 DUP4 GT PUSH2 0x162A JUMPI DUP3 SWAP1 SUB PUSH1 0x1F AND DUP3 ADD SWAP2 JUMPDEST POP POP POP POP POP DUP2 MSTORE POP POP SWAP1 POP PUSH0 PUSH20 0xFFFFFFFFFFFFFFFFFFFFFFFFFFFFFFFFFFFFFFFF AND PUSH1 0x4 DUP7 PUSH1 0x40 MLOAD PUSH2 0x1679 SWAP2 SWAP1 PUSH2 0x2884 JUMP JUMPDEST SWAP1 DUP2 MSTORE PUSH1 0x20 ADD PUSH1 0x40 MLOAD DUP1 SWAP2 SUB SWAP1 KECCAK256 PUSH0 SWAP1 SLOAD SWAP1 PUSH2 0x100 EXP SWAP1 DIV PUSH20 0xFFFFFFFFFFFFFFFFFFFFFFFFFFFFFFFFFFFFFFFF AND PUSH20 0xFFFFFFFFFFFFFFFFFFFFFFFFFFFFFFFFFFFFFFFF AND EQ PUSH2 0x16FD JUMPI PUSH1 0x40 MLOAD PUSH32 0x8C379A000000000000000000000000000000000000000000000000000000000 DUP2 MSTORE PUSH1 0x4 ADD PUSH2 0x16F4 SWAP1 PUSH2 0x3007 JUMP JUMPDEST PUSH1 0x40 MLOAD DUP1 SWAP2 SUB SWAP1 REVERT JUMPDEST PUSH2 0x1709 DUP2 PUSH0 ADD MLOAD PUSH2 0x729 JUMP JUMPDEST ISZERO PUSH2 0x188E JUMPI PUSH1 0x40 MLOAD DUP1 PUSH1 0x80 ADD PUSH1 0x40 MSTORE DUP1 DUP7 DUP2 MSTORE PUSH1 0x20 ADD DUP6 DUP2 MSTORE PUSH1 0x20 ADD DUP5 DUP2 MSTORE PUSH1 0x20 ADD DUP4 DUP2 MSTORE POP PUSH1 0x3 PUSH0 CALLER PUSH20 0xFFFFFFFFFFFFFFFFFFFFFFFFFFFFFFFFFFFFFFFF AND PUSH20 0xFFFFFFFFFFFFFFFFFFFFFFFFFFFFFFFFFFFFFFFF AND DUP2 MSTORE PUSH1 0x20 ADD SWAP1 DUP2 MSTORE PUSH1 0x20 ADD PUSH0 KECCAK256 PUSH0 DUP3 ADD MLOAD DUP2 PUSH0 ADD SWAP1 DUP2 PUSH2 0x177F SWAP2 SWAP1 PUSH2 0x31CB JUMP JUMPDEST POP PUSH1 0x20 DUP3 ADD MLOAD DUP2 PUSH1 0x1 ADD SWAP1 DUP2 PUSH2 0x1795 SWAP2 SWAP1 PUSH2 0x31CB JUMP JUMPDEST POP PUSH1 0x40 DUP3 ADD MLOAD DUP2 PUSH1 0x2 ADD SWAP1 DUP2 PUSH2 0x17AB SWAP2 SWAP1 PUSH2 0x31CB JUMP JUMPDEST POP PUSH1 0x60 DUP3 ADD MLOAD DUP2 PUSH1 0x3 ADD SWAP1 DUP2 PUSH2 0x17C1 SWAP2 SWAP1 PUSH2 0x31CB JUMP JUMPDEST POP SWAP1 POP POP CALLER PUSH1 0x4 DUP7 PUSH1 0x40 MLOAD PUSH2 0x17D6 SWAP2 SWAP1 PUSH2 0x2884 JUMP JUMPDEST SWAP1 DUP2 MSTORE PUSH1 0x20 ADD PUSH1 0x40 MLOAD DUP1 SWAP2 SUB SWAP1 KECCAK256 PUSH0 PUSH2 0x100 EXP DUP2 SLOAD DUP2 PUSH20 0xFFFFFFFFFFFFFFFFFFFFFFFFFFFFFFFFFFFFFFFF MUL NOT AND SWAP1 DUP4 PUSH20 0xFFFFFFFFFFFFFFFFFFFFFFFFFFFFFFFFFFFFFFFF AND MUL OR SWAP1 SSTORE POP DUP5 PUSH1 0x40 MLOAD PUSH2 0x182F SWAP2 SWAP1 PUSH2 0x2884 JUMP JUMPDEST PUSH1 0x40 MLOAD DUP1 SWAP2 SUB SWAP1 KECCAK256 CALLER PUSH20 0xFFFFFFFFFFFFFFFFFFFFFFFFFFFFFFFFFFFFFFFF AND PUSH32 0x1C4834C8729CCA3A7EA1E1C19A12CE6721CB054F67CB6590E733A2BB4B8BE85A DUP7 DUP7 DUP7 PUSH1 0x40 MLOAD PUSH2 0x1881 SWAP4 SWAP3 SWAP2 SWAP1 PUSH2 0x329A JUMP JUMPDEST PUSH1 0x40 MLOAD DUP1 SWAP2 SUB SWAP1 LOG3 PUSH2 0x18C9 JUMP JUMPDEST PUSH1 0x40 MLOAD PUSH32 0x8C379A000000000000000000000000000000000000000000000000000000000 DUP2 MSTORE PUSH1 0x4 ADD PUSH2 0x18C0 SWAP1 PUSH2 0x332E JUMP JUMPDEST PUSH1 0x40 MLOAD DUP1 SWAP2 SUB SWAP1 REVERT JUMPDEST PUSH1 0x40 MLOAD PUSH1 0x20 ADD PUSH2 0x18D8 SWAP1 PUSH2 0x2E63 JUMP JUMPDEST PUSH1 0x40 MLOAD PUSH1 0x20 DUP2 DUP4 SUB SUB DUP2 MSTORE SWAP1 PUSH1 0x40 MSTORE SWAP6 POP POP POP POP POP POP PUSH2 0x1914 JUMP JUMPDEST PUSH1 0x40 MLOAD PUSH1 0x20 ADD PUSH2 0x1902 SWAP1 PUSH2 0x2E63 JUMP JUMPDEST PUSH1 0x40 MLOAD PUSH1 0x20 DUP2 DUP4 SUB SUB DUP2 MSTORE SWAP1 PUSH1 0x40 MSTORE SWAP1 POP JUMPDEST SWAP3 SWAP2 POP POP JUMP JUMPDEST PUSH0 DUP1 DUP3 SWAP1 POP PUSH0 DUP2 MLOAD EQ DUP1 PUSH2 0x192F JUMPI POP PUSH1 0x14 DUP2 MLOAD GT JUMPDEST ISZERO PUSH2 0x193D JUMPI PUSH0 SWAP2 POP POP PUSH2 0x1A89 JUMP JUMPDEST PUSH0 JUMPDEST DUP2 MLOAD DUP2 LT ISZERO PUSH2 0x1A82 JUMPI PUSH0 DUP3 DUP3 DUP2 MLOAD DUP2 LT PUSH2 0x195C JUMPI PUSH2 0x195B PUSH2 0x281D JUMP JUMPDEST JUMPDEST PUSH1 0x20 ADD ADD MLOAD PUSH1 0xF8 SHR PUSH1 0xF8 SHL SWAP1 POP PUSH1 0x61 PUSH1 0xF8 SHL DUP2 PUSH31 0xFFFFFFFFFFFFFFFFFFFFFFFFFFFFFFFFFFFFFFFFFFFFFFFFFFFFFFFFFFFFFF NOT AND LT ISZERO DUP1 ISZERO PUSH2 0x19C5 JUMPI POP PUSH1 0x7A PUSH1 0xF8 SHL DUP2 PUSH31 0xFFFFFFFFFFFFFFFFFFFFFFFFFFFFFFFFFFFFFFFFFFFFFFFFFFFFFFFFFFFFFF NOT AND GT ISZERO JUMPDEST ISZERO PUSH2 0x19D0 JUMPI POP PUSH2 0x1A75 JUMP JUMPDEST PUSH1 0x30 PUSH1 0xF8 SHL DUP2 PUSH31 0xFFFFFFFFFFFFFFFFFFFFFFFFFFFFFFFFFFFFFFFFFFFFFFFFFFFFFFFFFFFFFF NOT AND LT ISZERO DUP1 ISZERO PUSH2 0x1A2C JUMPI POP PUSH1 0x39 PUSH1 0xF8 SHL DUP2 PUSH31 0xFFFFFFFFFFFFFFFFFFFFFFFFFFFFFFFFFFFFFFFFFFFFFFFFFFFFFFFFFFFFFF NOT AND GT ISZERO JUMPDEST ISZERO PUSH2 0x1A37 JUMPI POP PUSH2 0x1A75 JUMP JUMPDEST PUSH1 0x5F PUSH1 0xF8 SHL DUP2 PUSH31 0xFFFFFFFFFFFFFFFFFFFFFFFFFFFFFFFFFFFFFFFFFFFFFFFFFFFFFFFFFFFFFF NOT AND SUB PUSH2 0x1A6A JUMPI POP PUSH2 0x1A75 JUMP JUMPDEST PUSH0 SWAP4 POP POP POP POP PUSH2 0x1A89 JUMP JUMPDEST DUP1 DUP1 PUSH1 0x1 ADD SWAP2 POP POP PUSH2 0x193F JUMP JUMPDEST POP PUSH1 0x1 SWAP2 POP POP JUMPDEST SWAP2 SWAP1 POP JUMP JUMPDEST PUSH1 0x60 PUSH2 0x1ACF DUP4 PUSH1 0x40 MLOAD DUP1 PUSH1 0x40 ADD PUSH1 0x40 MSTORE DUP1 PUSH1 0xE DUP2 MSTORE PUSH1 0x20 ADD PUSH32 0x75706461746555736572496E666F000000000000000000000000000000000000 DUP2 MSTORE POP PUSH2 0x201F JUMP JUMPDEST ISZERO PUSH2 0x1EED JUMPI PUSH0 PUSH1 0x3 PUSH0 CALLER PUSH20 0xFFFFFFFFFFFFFFFFFFFFFFFFFFFFFFFFFFFFFFFF AND PUSH20 0xFFFFFFFFFFFFFFFFFFFFFFFFFFFFFFFFFFFFFFFF AND DUP2 MSTORE PUSH1 0x20 ADD SWAP1 DUP2 MSTORE PUSH1 0x20 ADD PUSH0 KECCAK256 PUSH1 0x40 MLOAD DUP1 PUSH1 0x80 ADD PUSH1 0x40 MSTORE SWAP1 DUP2 PUSH0 DUP3 ADD DUP1 SLOAD PUSH2 0x1B2C SWAP1 PUSH2 0x2A99 JUMP JUMPDEST DUP1 PUSH1 0x1F ADD PUSH1 0x20 DUP1 SWAP2 DIV MUL PUSH1 0x20 ADD PUSH1 0x40 MLOAD SWAP1 DUP2 ADD PUSH1 0x40 MSTORE DUP1 SWAP3 SWAP2 SWAP1 DUP2 DUP2 MSTORE PUSH1 0x20 ADD DUP3 DUP1 SLOAD PUSH2 0x1B58 SWAP1 PUSH2 0x2A99 JUMP JUMPDEST DUP1 ISZERO PUSH2 0x1BA3 JUMPI DUP1 PUSH1 0x1F LT PUSH2 0x1B7A JUMPI PUSH2 0x100 DUP1 DUP4 SLOAD DIV MUL DUP4 MSTORE SWAP2 PUSH1 0x20 ADD SWAP2 PUSH2 0x1BA3 JUMP JUMPDEST DUP3 ADD SWAP2 SWAP1 PUSH0 MSTORE PUSH1 0x20 PUSH0 KECCAK256 SWAP1 JUMPDEST DUP2 SLOAD DUP2 MSTORE SWAP1 PUSH1 0x1 ADD SWAP1 PUSH1 0x20 ADD DUP1 DUP4 GT PUSH2 0x1B86 JUMPI DUP3 SWAP1 SUB PUSH1 0x1F AND DUP3 ADD SWAP2 JUMPDEST POP POP POP POP POP DUP2 MSTORE PUSH1 0x20 ADD PUSH1 0x1 DUP3 ADD DUP1 SLOAD PUSH2 0x1BBC SWAP1 PUSH2 0x2A99 JUMP JUMPDEST DUP1 PUSH1 0x1F ADD PUSH1 0x20 DUP1 SWAP2 DIV MUL PUSH1 0x20 ADD PUSH1 0x40 MLOAD SWAP1 DUP2 ADD PUSH1 0x40 MSTORE DUP1 SWAP3 SWAP2 SWAP1 DUP2 DUP2 MSTORE PUSH1 0x20 ADD DUP3 DUP1 SLOAD PUSH2 0x1BE8 SWAP1 PUSH2 0x2A99 JUMP JUMPDEST DUP1 ISZERO PUSH2 0x1C33 JUMPI DUP1 PUSH1 0x1F LT PUSH2 0x1C0A JUMPI PUSH2 0x100 DUP1 DUP4 SLOAD DIV MUL DUP4 MSTORE SWAP2 PUSH1 0x20 ADD SWAP2 PUSH2 0x1C33 JUMP JUMPDEST DUP3 ADD SWAP2 SWAP1 PUSH0 MSTORE PUSH1 0x20 PUSH0 KECCAK256 SWAP1 JUMPDEST DUP2 SLOAD DUP2 MSTORE SWAP1 PUSH1 0x1 ADD SWAP1 PUSH1 0x20 ADD DUP1 DUP4 GT PUSH2 0x1C16 JUMPI DUP3 SWAP1 SUB PUSH1 0x1F AND DUP3 ADD SWAP2 JUMPDEST POP POP POP POP POP DUP2 MSTORE PUSH1 0x20 ADD PUSH1 0x2 DUP3 ADD DUP1 SLOAD PUSH2 0x1C4C SWAP1 PUSH2 0x2A99 JUMP JUMPDEST DUP1 PUSH1 0x1F ADD PUSH1 0x20 DUP1 SWAP2 DIV MUL PUSH1 0x20 ADD PUSH1 0x40 MLOAD SWAP1 DUP2 ADD PUSH1 0x40 MSTORE DUP1 SWAP3 SWAP2 SWAP1 DUP2 DUP2 MSTORE PUSH1 0x20 ADD DUP3 DUP1 SLOAD PUSH2 0x1C78 SWAP1 PUSH2 0x2A99 JUMP JUMPDEST DUP1 ISZERO PUSH2 0x1CC3 JUMPI DUP1 PUSH1 0x1F LT PUSH2 0x1C9A JUMPI PUSH2 0x100 DUP1 DUP4 SLOAD DIV MUL DUP4 MSTORE SWAP2 PUSH1 0x20 ADD SWAP2 PUSH2 0x1CC3 JUMP JUMPDEST DUP3 ADD SWAP2 SWAP1 PUSH0 MSTORE PUSH1 0x20 PUSH0 KECCAK256 SWAP1 JUMPDEST DUP2 SLOAD DUP2 MSTORE SWAP1 PUSH1 0x1 ADD SWAP1 PUSH1 0x20 ADD DUP1 DUP4 GT PUSH2 0x1CA6 JUMPI DUP3 SWAP1 SUB PUSH1 0x1F AND DUP3 ADD SWAP2 JUMPDEST POP POP POP POP POP DUP2 MSTORE PUSH1 0x20 ADD PUSH1 0x3 DUP3 ADD DUP1 SLOAD PUSH2 0x1CDC SWAP1 PUSH2 0x2A99 JUMP JUMPDEST DUP1 PUSH1 0x1F ADD PUSH1 0x20 DUP1 SWAP2 DIV MUL PUSH1 0x20 ADD PUSH1 0x40 MLOAD SWAP1 DUP2 ADD PUSH1 0x40 MSTORE DUP1 SWAP3 SWAP2 SWAP1 DUP2 DUP2 MSTORE PUSH1 0x20 ADD DUP3 DUP1 SLOAD PUSH2 0x1D08 SWAP1 PUSH2 0x2A99 JUMP JUMPDEST DUP1 ISZERO PUSH2 0x1D53 JUMPI DUP1 PUSH1 0x1F LT PUSH2 0x1D2A JUMPI PUSH2 0x100 DUP1 DUP4 SLOAD DIV MUL DUP4 MSTORE SWAP2 PUSH1 0x20 ADD SWAP2 PUSH2 0x1D53 JUMP JUMPDEST DUP3 ADD SWAP2 SWAP1 PUSH0 MSTORE PUSH1 0x20 PUSH0 KECCAK256 SWAP1 JUMPDEST DUP2 SLOAD DUP2 MSTORE SWAP1 PUSH1 0x1 ADD SWAP1 PUSH1 0x20 ADD DUP1 DUP4 GT PUSH2 0x1D36 JUMPI DUP3 SWAP1 SUB PUSH1 0x1F AND DUP3 ADD SWAP2 JUMPDEST POP POP POP POP POP DUP2 MSTORE POP POP SWAP1 POP PUSH2 0x1D6A DUP2 PUSH0 ADD MLOAD PUSH2 0x729 JUMP JUMPDEST PUSH2 0x1EB0 JUMPI PUSH0 DUP1 PUSH0 DUP6 DUP1 PUSH1 0x20 ADD SWAP1 MLOAD DUP2 ADD SWAP1 PUSH2 0x1D85 SWAP2 SWAP1 PUSH2 0x334C JUMP JUMPDEST SWAP3 POP SWAP3 POP SWAP3 POP DUP3 DUP5 PUSH1 0x20 ADD DUP2 SWAP1 MSTORE POP DUP2 DUP5 PUSH1 0x40 ADD DUP2 SWAP1 MSTORE POP DUP1 DUP5 PUSH1 0x60 ADD DUP2 SWAP1 MSTORE POP DUP4 PUSH1 0x3 PUSH0 CALLER PUSH20 0xFFFFFFFFFFFFFFFFFFFFFFFFFFFFFFFFFFFFFFFF AND PUSH20 0xFFFFFFFFFFFFFFFFFFFFFFFFFFFFFFFFFFFFFFFF AND DUP2 MSTORE PUSH1 0x20 ADD SWAP1 DUP2 MSTORE PUSH1 0x20 ADD PUSH0 KECCAK256 PUSH0 DUP3 ADD MLOAD DUP2 PUSH0 ADD SWAP1 DUP2 PUSH2 0x1DF7 SWAP2 SWAP1 PUSH2 0x31CB JUMP JUMPDEST POP PUSH1 0x20 DUP3 ADD MLOAD DUP2 PUSH1 0x1 ADD SWAP1 DUP2 PUSH2 0x1E0D SWAP2 SWAP1 PUSH2 0x31CB JUMP JUMPDEST POP PUSH1 0x40 DUP3 ADD MLOAD DUP2 PUSH1 0x2 ADD SWAP1 DUP2 PUSH2 0x1E23 SWAP2 SWAP1 PUSH2 0x31CB JUMP JUMPDEST POP PUSH1 0x60 DUP3 ADD MLOAD DUP2 PUSH1 0x3 ADD SWAP1 DUP2 PUSH2 0x1E39 SWAP2 SWAP1 PUSH2 0x31CB JUMP JUMPDEST POP SWAP1 POP POP DUP4 PUSH0 ADD MLOAD PUSH1 0x40 MLOAD PUSH2 0x1E4E SWAP2 SWAP1 PUSH2 0x2884 JUMP JUMPDEST PUSH1 0x40 MLOAD DUP1 SWAP2 SUB SWAP1 KECCAK256 CALLER PUSH20 0xFFFFFFFFFFFFFFFFFFFFFFFFFFFFFFFFFFFFFFFF AND PUSH32 0x1C4834C8729CCA3A7EA1E1C19A12CE6721CB054F67CB6590E733A2BB4B8BE85A DUP6 DUP6 DUP6 PUSH1 0x40 MLOAD PUSH2 0x1EA0 SWAP4 SWAP3 SWAP2 SWAP1 PUSH2 0x329A JUMP JUMPDEST PUSH1 0x40 MLOAD DUP1 SWAP2 SUB SWAP1 LOG3 POP POP POP PUSH2 0x1EEB JUMP JUMPDEST PUSH1 0x40 MLOAD PUSH32 0x8C379A000000000000000000000000000000000000000000000000000000000 DUP2 MSTORE PUSH1 0x4 ADD PUSH2 0x1EE2 SWAP1 PUSH2 0x343A JUMP JUMPDEST PUSH1 0x40 MLOAD DUP1 SWAP2 SUB SWAP1 REVERT JUMPDEST POP JUMPDEST DUP3 DUP3 PUSH1 0x40 MLOAD PUSH1 0x20 ADD PUSH2 0x1F00 SWAP3 SWAP2 SWAP1 PUSH2 0x3458 JUMP JUMPDEST PUSH1 0x40 MLOAD PUSH1 0x20 DUP2 DUP4 SUB SUB DUP2 MSTORE SWAP1 PUSH1 0x40 MSTORE SWAP1 POP SWAP3 SWAP2 POP POP JUMP JUMPDEST PUSH1 0x60 PUSH0 DUP1 DUP4 PUSH1 0x3 DUP2 GT ISZERO PUSH2 0x1F2E JUMPI PUSH2 0x1F2D PUSH2 0x20A0 JUMP JUMPDEST JUMPDEST PUSH1 0x3 DUP2 GT ISZERO PUSH2 0x1F40 JUMPI PUSH2 0x1F3F PUSH2 0x20A0 JUMP JUMPDEST JUMPDEST DUP2 MSTORE PUSH1 0x20 ADD SWAP1 DUP2 MSTORE PUSH1 0x20 ADD PUSH0 KECCAK256 DUP1 SLOAD DUP1 PUSH1 0x20 MUL PUSH1 0x20 ADD PUSH1 0x40 MLOAD SWAP1 DUP2 ADD PUSH1 0x40 MSTORE DUP1 SWAP3 SWAP2 SWAP1 DUP2 DUP2 MSTORE PUSH1 0x20 ADD PUSH0 SWAP1 JUMPDEST DUP3 DUP3 LT ISZERO PUSH2 0x2014 JUMPI DUP4 DUP3 SWAP1 PUSH0 MSTORE PUSH1 0x20 PUSH0 KECCAK256 ADD DUP1 SLOAD PUSH2 0x1F89 SWAP1 PUSH2 0x2A99 JUMP JUMPDEST DUP1 PUSH1 0x1F ADD PUSH1 0x20 DUP1 SWAP2 DIV MUL PUSH1 0x20 ADD PUSH1 0x40 MLOAD SWAP1 DUP2 ADD PUSH1 0x40 MSTORE DUP1 SWAP3 SWAP2 SWAP1 DUP2 DUP2 MSTORE PUSH1 0x20 ADD DUP3 DUP1 SLOAD PUSH2 0x1FB5 SWAP1 PUSH2 0x2A99 JUMP JUMPDEST DUP1 ISZERO PUSH2 0x2000 JUMPI DUP1 PUSH1 0x1F LT PUSH2 0x1FD7 JUMPI PUSH2 0x100 DUP1 DUP4 SLOAD DIV MUL DUP4 MSTORE SWAP2 PUSH1 0x20 ADD SWAP2 PUSH2 0x2000 JUMP JUMPDEST DUP3 ADD SWAP2 SWAP1 PUSH0 MSTORE PUSH1 0x20 PUSH0 KECCAK256 SWAP1 JUMPDEST DUP2 SLOAD DUP2 MSTORE SWAP1 PUSH1 0x1 ADD SWAP1 PUSH1 0x20 ADD DUP1 DUP4 GT PUSH2 0x1FE3 JUMPI DUP3 SWAP1 SUB PUSH1 0x1F AND DUP3 ADD SWAP2 JUMPDEST POP POP POP POP POP DUP2 MSTORE PUSH1 0x20 ADD SWAP1 PUSH1 0x1 ADD SWAP1 PUSH2 0x1F6C JUMP JUMPDEST POP POP POP POP SWAP1 POP SWAP2 SWAP1 POP JUMP JUMPDEST PUSH0 DUP2 PUSH1 0x40 MLOAD PUSH1 0x20 ADD PUSH2 0x2031 SWAP2 SWAP1 PUSH2 0x2884 JUMP JUMPDEST PUSH1 0x40 MLOAD PUSH1 0x20 DUP2 DUP4 SUB SUB DUP2 MSTORE SWAP1 PUSH1 0x40 MSTORE DUP1 MLOAD SWAP1 PUSH1 0x20 ADD KECCAK256 DUP4 PUSH1 0x40 MLOAD PUSH1 0x20 ADD PUSH2 0x2058 SWAP2 SWAP1 PUSH2 0x2884 JUMP JUMPDEST PUSH1 0x40 MLOAD PUSH1 0x20 DUP2 DUP4 SUB SUB DUP2 MSTORE SWAP1 PUSH1 0x40 MSTORE DUP1 MLOAD SWAP1 PUSH1 0x20 ADD KECCAK256 EQ SWAP1 POP SWAP3 SWAP2 POP POP JUMP JUMPDEST PUSH0 DUP2 MLOAD SWAP1 POP SWAP2 SWAP1 POP JUMP JUMPDEST PUSH0 DUP3 DUP3 MSTORE PUSH1 0x20 DUP3 ADD SWAP1 POP SWAP3 SWAP2 POP POP JUMP JUMPDEST PUSH0 DUP2 SWAP1 POP PUSH1 0x20 DUP3 ADD SWAP1 POP SWAP2 SWAP1 POP JUMP JUMPDEST PUSH32 0x4E487B7100000000000000000000000000000000000000000000000000000000 PUSH0 MSTORE PUSH1 0x21 PUSH1 0x4 MSTORE PUSH1 0x24 PUSH0 REVERT JUMPDEST PUSH1 0x4 DUP2 LT PUSH2 0x20DE JUMPI PUSH2 0x20DD PUSH2 0x20A0 JUMP JUMPDEST JUMPDEST POP JUMP JUMPDEST PUSH0 DUP2 SWAP1 POP PUSH2 0x20EE DUP3 PUSH2 0x20CD JUMP JUMPDEST SWAP2 SWAP1 POP JUMP JUMPDEST PUSH0 PUSH2 0x20FD DUP3 PUSH2 0x20E1 JUMP JUMPDEST SWAP1 POP SWAP2 SWAP1 POP JUMP JUMPDEST PUSH2 0x210D DUP2 PUSH2 0x20F3 JUMP JUMPDEST DUP3 MSTORE POP POP JUMP JUMPDEST PUSH0 PUSH2 0x211E DUP4 DUP4 PUSH2 0x2104 JUMP JUMPDEST PUSH1 0x20 DUP4 ADD SWAP1 POP SWAP3 SWAP2 POP POP JUMP JUMPDEST PUSH0 PUSH1 0x20 DUP3 ADD SWAP1 POP SWAP2 SWAP1 POP JUMP JUMPDEST PUSH0 PUSH2 0x2140 DUP3 PUSH2 0x2077 JUMP JUMPDEST PUSH2 0x214A DUP2 DUP6 PUSH2 0x2081 JUMP JUMPDEST SWAP4 POP PUSH2 0x2155 DUP4 PUSH2 0x2091 JUMP JUMPDEST DUP1 PUSH0 JUMPDEST DUP4 DUP2 LT ISZERO PUSH2 0x2185 JUMPI DUP2 MLOAD PUSH2 0x216C DUP9 DUP3 PUSH2 0x2113 JUMP JUMPDEST SWAP8 POP PUSH2 0x2177 DUP4 PUSH2 0x212A JUMP JUMPDEST SWAP3 POP POP PUSH1 0x1 DUP2 ADD SWAP1 POP PUSH2 0x2158 JUMP JUMPDEST POP DUP6 SWAP4 POP POP POP POP SWAP3 SWAP2 POP POP JUMP JUMPDEST PUSH0 PUSH1 0x20 DUP3 ADD SWAP1 POP DUP2 DUP2 SUB PUSH0 DUP4 ADD MSTORE PUSH2 0x21AA DUP2 DUP5 PUSH2 0x2136 JUMP JUMPDEST SWAP1 POP SWAP3 SWAP2 POP POP JUMP JUMPDEST PUSH0 PUSH1 0x40 MLOAD SWAP1 POP SWAP1 JUMP JUMPDEST PUSH0 DUP1 REVERT JUMPDEST PUSH0 DUP1 REVERT JUMPDEST PUSH0 DUP1 REVERT JUMPDEST PUSH0 DUP1 REVERT JUMPDEST PUSH0 PUSH1 0x1F NOT PUSH1 0x1F DUP4 ADD AND SWAP1 POP SWAP2 SWAP1 POP JUMP JUMPDEST PUSH32 0x4E487B7100000000000000000000000000000000000000000000000000000000 PUSH0 MSTORE PUSH1 0x41 PUSH1 0x4 MSTORE PUSH1 0x24 PUSH0 REVERT JUMPDEST PUSH2 0x2211 DUP3 PUSH2 0x21CB JUMP JUMPDEST DUP2 ADD DUP2 DUP2 LT PUSH8 0xFFFFFFFFFFFFFFFF DUP3 GT OR ISZERO PUSH2 0x2230 JUMPI PUSH2 0x222F PUSH2 0x21DB JUMP JUMPDEST JUMPDEST DUP1 PUSH1 0x40 MSTORE POP POP POP JUMP JUMPDEST PUSH0 PUSH2 0x2242 PUSH2 0x21B2 JUMP JUMPDEST SWAP1 POP PUSH2 0x224E DUP3 DUP3 PUSH2 0x2208 JUMP JUMPDEST SWAP2 SWAP1 POP JUMP JUMPDEST PUSH0 PUSH8 0xFFFFFFFFFFFFFFFF DUP3 GT ISZERO PUSH2 0x226D JUMPI PUSH2 0x226C PUSH2 0x21DB JUMP JUMPDEST JUMPDEST PUSH2 0x2276 DUP3 PUSH2 0x21CB JUMP JUMPDEST SWAP1 POP PUSH1 0x20 DUP2 ADD SWAP1 POP SWAP2 SWAP1 POP JUMP JUMPDEST DUP3 DUP2 DUP4 CALLDATACOPY PUSH0 DUP4 DUP4 ADD MSTORE POP POP POP JUMP JUMPDEST PUSH0 PUSH2 0x22A3 PUSH2 0x229E DUP5 PUSH2 0x2253 JUMP JUMPDEST PUSH2 0x2239 JUMP JUMPDEST SWAP1 POP DUP3 DUP2 MSTORE PUSH1 0x20 DUP2 ADD DUP5 DUP5 DUP5 ADD GT ISZERO PUSH2 0x22BF JUMPI PUSH2 0x22BE PUSH2 0x21C7 JUMP JUMPDEST JUMPDEST PUSH2 0x22CA DUP5 DUP3 DUP6 PUSH2 0x2283 JUMP JUMPDEST POP SWAP4 SWAP3 POP POP POP JUMP JUMPDEST PUSH0 DUP3 PUSH1 0x1F DUP4 ADD SLT PUSH2 0x22E6 JUMPI PUSH2 0x22E5 PUSH2 0x21C3 JUMP JUMPDEST JUMPDEST DUP2 CALLDATALOAD PUSH2 0x22F6 DUP5 DUP3 PUSH1 0x20 DUP7 ADD PUSH2 0x2291 JUMP JUMPDEST SWAP2 POP POP SWAP3 SWAP2 POP POP JUMP JUMPDEST PUSH0 PUSH1 0x20 DUP3 DUP5 SUB SLT ISZERO PUSH2 0x2314 JUMPI PUSH2 0x2313 PUSH2 0x21BB JUMP JUMPDEST JUMPDEST PUSH0 DUP3 ADD CALLDATALOAD PUSH8 0xFFFFFFFFFFFFFFFF DUP2 GT ISZERO PUSH2 0x2331 JUMPI PUSH2 0x2330 PUSH2 0x21BF JUMP JUMPDEST JUMPDEST PUSH2 0x233D DUP5 DUP3 DUP6 ADD PUSH2 0x22D2 JUMP JUMPDEST SWAP2 POP POP SWAP3 SWAP2 POP POP JUMP JUMPDEST PUSH0 DUP2 MLOAD SWAP1 POP SWAP2 SWAP1 POP JUMP JUMPDEST PUSH0 DUP2 SWAP1 POP PUSH1 0x20 DUP3 ADD SWAP1 POP SWAP2 SWAP1 POP JUMP JUMPDEST PUSH1 0xC7 DUP2 LT PUSH2 0x2370 JUMPI PUSH2 0x236F PUSH2 0x20A0 JUMP JUMPDEST JUMPDEST POP JUMP JUMPDEST PUSH0 DUP2 SWAP1 POP PUSH2 0x2380 DUP3 PUSH2 0x235F JUMP JUMPDEST SWAP2 SWAP1 POP JUMP JUMPDEST PUSH0 PUSH2 0x238F DUP3 PUSH2 0x2373 JUMP JUMPDEST SWAP1 POP SWAP2 SWAP1 POP JUMP JUMPDEST PUSH2 0x239F DUP2 PUSH2 0x2385 JUMP JUMPDEST DUP3 MSTORE POP POP JUMP JUMPDEST PUSH0 PUSH2 0x23B0 DUP4 DUP4 PUSH2 0x2396 JUMP JUMPDEST PUSH1 0x20 DUP4 ADD SWAP1 POP SWAP3 SWAP2 POP POP JUMP JUMPDEST PUSH0 PUSH1 0x20 DUP3 ADD SWAP1 POP SWAP2 SWAP1 POP JUMP JUMPDEST PUSH0 PUSH2 0x23D2 DUP3 PUSH2 0x2346 JUMP JUMPDEST PUSH2 0x23DC DUP2 DUP6 PUSH2 0x2081 JUMP JUMPDEST SWAP4 POP PUSH2 0x23E7 DUP4 PUSH2 0x2350 JUMP JUMPDEST DUP1 PUSH0 JUMPDEST DUP4 DUP2 LT ISZERO PUSH2 0x2417 JUMPI DUP2 MLOAD PUSH2 0x23FE DUP9 DUP3 PUSH2 0x23A5 JUMP JUMPDEST SWAP8 POP PUSH2 0x2409 DUP4 PUSH2 0x23BC JUMP JUMPDEST SWAP3 POP POP PUSH1 0x1 DUP2 ADD SWAP1 POP PUSH2 0x23EA JUMP JUMPDEST POP DUP6 SWAP4 POP POP POP POP SWAP3 SWAP2 POP POP JUMP JUMPDEST PUSH0 PUSH1 0x40 DUP3 ADD SWAP1 POP DUP2 DUP2 SUB PUSH0 DUP4 ADD MSTORE PUSH2 0x243C DUP2 DUP6 PUSH2 0x23C8 JUMP JUMPDEST SWAP1 POP DUP2 DUP2 SUB PUSH1 0x20 DUP4 ADD MSTORE PUSH2 0x2450 DUP2 DUP5 PUSH2 0x23C8 JUMP JUMPDEST SWAP1 POP SWAP4 SWAP3 POP POP POP JUMP JUMPDEST PUSH0 DUP2 MLOAD SWAP1 POP SWAP2 SWAP1 POP JUMP JUMPDEST PUSH0 DUP3 DUP3 MSTORE PUSH1 0x20 DUP3 ADD SWAP1 POP SWAP3 SWAP2 POP POP JUMP JUMPDEST PUSH0 JUMPDEST DUP4 DUP2 LT ISZERO PUSH2 0x2490 JUMPI DUP1 DUP3 ADD MLOAD DUP2 DUP5 ADD MSTORE PUSH1 0x20 DUP2 ADD SWAP1 POP PUSH2 0x2475 JUMP JUMPDEST PUSH0 DUP5 DUP5 ADD MSTORE POP POP POP POP JUMP JUMPDEST PUSH0 PUSH2 0x24A5 DUP3 PUSH2 0x2459 JUMP JUMPDEST PUSH2 0x24AF DUP2 DUP6 PUSH2 0x2463 JUMP JUMPDEST SWAP4 POP PUSH2 0x24BF DUP2 DUP6 PUSH1 0x20 DUP7 ADD PUSH2 0x2473 JUMP JUMPDEST PUSH2 0x24C8 DUP2 PUSH2 0x21CB JUMP JUMPDEST DUP5 ADD SWAP2 POP POP SWAP3 SWAP2 POP POP JUMP JUMPDEST PUSH0 PUSH1 0x20 DUP3 ADD SWAP1 POP DUP2 DUP2 SUB PUSH0 DUP4 ADD MSTORE PUSH2 0x24EB DUP2 DUP5 PUSH2 0x249B JUMP JUMPDEST SWAP1 POP SWAP3 SWAP2 POP POP JUMP JUMPDEST PUSH0 DUP2 ISZERO ISZERO SWAP1 POP SWAP2 SWAP1 POP JUMP JUMPDEST PUSH2 0x2507 DUP2 PUSH2 0x24F3 JUMP JUMPDEST DUP3 MSTORE POP POP JUMP JUMPDEST PUSH0 PUSH1 0x20 DUP3 ADD SWAP1 POP PUSH2 0x2520 PUSH0 DUP4 ADD DUP5 PUSH2 0x24FE JUMP JUMPDEST SWAP3 SWAP2 POP POP JUMP JUMPDEST PUSH0 PUSH8 0xFFFFFFFFFFFFFFFF DUP3 GT ISZERO PUSH2 0x2540 JUMPI PUSH2 0x253F PUSH2 0x21DB JUMP JUMPDEST JUMPDEST PUSH2 0x2549 DUP3 PUSH2 0x21CB JUMP JUMPDEST SWAP1 POP PUSH1 0x20 DUP2 ADD SWAP1 POP SWAP2 SWAP1 POP JUMP JUMPDEST PUSH0 PUSH2 0x2568 PUSH2 0x2563 DUP5 PUSH2 0x2526 JUMP JUMPDEST PUSH2 0x2239 JUMP JUMPDEST SWAP1 POP DUP3 DUP2 MSTORE PUSH1 0x20 DUP2 ADD DUP5 DUP5 DUP5 ADD GT ISZERO PUSH2 0x2584 JUMPI PUSH2 0x2583 PUSH2 0x21C7 JUMP JUMPDEST JUMPDEST PUSH2 0x258F DUP5 DUP3 DUP6 PUSH2 0x2283 JUMP JUMPDEST POP SWAP4 SWAP3 POP POP POP JUMP JUMPDEST PUSH0 DUP3 PUSH1 0x1F DUP4 ADD SLT PUSH2 0x25AB JUMPI PUSH2 0x25AA PUSH2 0x21C3 JUMP JUMPDEST JUMPDEST DUP2 CALLDATALOAD PUSH2 0x25BB DUP5 DUP3 PUSH1 0x20 DUP7 ADD PUSH2 0x2556 JUMP JUMPDEST SWAP2 POP POP SWAP3 SWAP2 POP POP JUMP JUMPDEST PUSH0 DUP1 PUSH1 0x40 DUP4 DUP6 SUB SLT ISZERO PUSH2 0x25DA JUMPI PUSH2 0x25D9 PUSH2 0x21BB JUMP JUMPDEST JUMPDEST PUSH0 DUP4 ADD CALLDATALOAD PUSH8 0xFFFFFFFFFFFFFFFF DUP2 GT ISZERO PUSH2 0x25F7 JUMPI PUSH2 0x25F6 PUSH2 0x21BF JUMP JUMPDEST JUMPDEST PUSH2 0x2603 DUP6 DUP3 DUP7 ADD PUSH2 0x22D2 JUMP JUMPDEST SWAP3 POP POP PUSH1 0x20 DUP4 ADD CALLDATALOAD PUSH8 0xFFFFFFFFFFFFFFFF DUP2 GT ISZERO PUSH2 0x2624 JUMPI PUSH2 0x2623 PUSH2 0x21BF JUMP JUMPDEST JUMPDEST PUSH2 0x2630 DUP6 DUP3 DUP7 ADD PUSH2 0x2597 JUMP JUMPDEST SWAP2 POP POP SWAP3 POP SWAP3 SWAP1 POP JUMP JUMPDEST PUSH0 DUP2 MLOAD SWAP1 POP SWAP2 SWAP1 POP JUMP JUMPDEST PUSH0 DUP3 DUP3 MSTORE PUSH1 0x20 DUP3 ADD SWAP1 POP SWAP3 SWAP2 POP POP JUMP JUMPDEST PUSH0 PUSH2 0x265E DUP3 PUSH2 0x263A JUMP JUMPDEST PUSH2 0x2668 DUP2 DUP6 PUSH2 0x2644 JUMP JUMPDEST SWAP4 POP PUSH2 0x2678 DUP2 DUP6 PUSH1 0x20 DUP7 ADD PUSH2 0x2473 JUMP JUMPDEST PUSH2 0x2681 DUP2 PUSH2 0x21CB JUMP JUMPDEST DUP5 ADD SWAP2 POP POP SWAP3 SWAP2 POP POP JUMP JUMPDEST PUSH0 PUSH1 0x20 DUP3 ADD SWAP1 POP DUP2 DUP2 SUB PUSH0 DUP4 ADD MSTORE PUSH2 0x26A4 DUP2 DUP5 PUSH2 0x2654 JUMP JUMPDEST SWAP1 POP SWAP3 SWAP2 POP POP JUMP JUMPDEST PUSH1 0x4 DUP2 LT PUSH2 0x26B8 JUMPI PUSH0 DUP1 REVERT JUMPDEST POP JUMP JUMPDEST PUSH0 DUP2 CALLDATALOAD SWAP1 POP PUSH2 0x26C9 DUP2 PUSH2 0x26AC JUMP JUMPDEST SWAP3 SWAP2 POP POP JUMP JUMPDEST PUSH0 PUSH1 0x20 DUP3 DUP5 SUB SLT ISZERO PUSH2 0x26E4 JUMPI PUSH2 0x26E3 PUSH2 0x21BB JUMP JUMPDEST JUMPDEST PUSH0 PUSH2 0x26F1 DUP5 DUP3 DUP6 ADD PUSH2 0x26BB JUMP JUMPDEST SWAP2 POP POP SWAP3 SWAP2 POP POP JUMP JUMPDEST PUSH0 DUP2 MLOAD SWAP1 POP SWAP2 SWAP1 POP JUMP JUMPDEST PUSH0 DUP3 DUP3 MSTORE PUSH1 0x20 DUP3 ADD SWAP1 POP SWAP3 SWAP2 POP POP JUMP JUMPDEST PUSH0 DUP2 SWAP1 POP PUSH1 0x20 DUP3 ADD SWAP1 POP SWAP2 SWAP1 POP JUMP JUMPDEST PUSH0 DUP3 DUP3 MSTORE PUSH1 0x20 DUP3 ADD SWAP1 POP SWAP3 SWAP2 POP POP JUMP JUMPDEST PUSH0 PUSH2 0x273D DUP3 PUSH2 0x2459 JUMP JUMPDEST PUSH2 0x2747 DUP2 DUP6 PUSH2 0x2723 JUMP JUMPDEST SWAP4 POP PUSH2 0x2757 DUP2 DUP6 PUSH1 0x20 DUP7 ADD PUSH2 0x2473 JUMP JUMPDEST PUSH2 0x2760 DUP2 PUSH2 0x21CB JUMP JUMPDEST DUP5 ADD SWAP2 POP POP SWAP3 SWAP2 POP POP JUMP JUMPDEST PUSH0 PUSH2 0x2776 DUP4 DUP4 PUSH2 0x2733 JUMP JUMPDEST SWAP1 POP SWAP3 SWAP2 POP POP JUMP JUMPDEST PUSH0 PUSH1 0x20 DUP3 ADD SWAP1 POP SWAP2 SWAP1 POP JUMP JUMPDEST PUSH0 PUSH2 0x2794 DUP3 PUSH2 0x26FA JUMP JUMPDEST PUSH2 0x279E DUP2 DUP6 PUSH2 0x2704 JUMP JUMPDEST SWAP4 POP DUP4 PUSH1 0x20 DUP3 MUL DUP6 ADD PUSH2 0x27B0 DUP6 PUSH2 0x2714 JUMP JUMPDEST DUP1 PUSH0 JUMPDEST DUP6 DUP2 LT ISZERO PUSH2 0x27EB JUMPI DUP5 DUP5 SUB DUP10 MSTORE DUP2 MLOAD PUSH2 0x27CC DUP6 DUP3 PUSH2 0x276B JUMP JUMPDEST SWAP5 POP PUSH2 0x27D7 DUP4 PUSH2 0x277E JUMP JUMPDEST SWAP3 POP PUSH1 0x20 DUP11 ADD SWAP10 POP POP PUSH1 0x1 DUP2 ADD SWAP1 POP PUSH2 0x27B3 JUMP JUMPDEST POP DUP3 SWAP8 POP DUP8 SWAP6 POP POP POP POP POP POP SWAP3 SWAP2 POP POP JUMP JUMPDEST PUSH0 PUSH1 0x20 DUP3 ADD SWAP1 POP DUP2 DUP2 SUB PUSH0 DUP4 ADD MSTORE PUSH2 0x2815 DUP2 DUP5 PUSH2 0x278A JUMP JUMPDEST SWAP1 POP SWAP3 SWAP2 POP POP JUMP JUMPDEST PUSH32 0x4E487B7100000000000000000000000000000000000000000000000000000000 PUSH0 MSTORE PUSH1 0x32 PUSH1 0x4 MSTORE PUSH1 0x24 PUSH0 REVERT JUMPDEST PUSH0 DUP2 SWAP1 POP SWAP3 SWAP2 POP POP JUMP JUMPDEST PUSH0 PUSH2 0x285E DUP3 PUSH2 0x2459 JUMP JUMPDEST PUSH2 0x2868 DUP2 DUP6 PUSH2 0x284A JUMP JUMPDEST SWAP4 POP PUSH2 0x2878 DUP2 DUP6 PUSH1 0x20 DUP7 ADD PUSH2 0x2473 JUMP JUMPDEST DUP1 DUP5 ADD SWAP2 POP POP SWAP3 SWAP2 POP POP JUMP JUMPDEST PUSH0 PUSH2 0x288F DUP3 DUP5 PUSH2 0x2854 JUMP JUMPDEST SWAP2 POP DUP2 SWAP1 POP SWAP3 SWAP2 POP POP JUMP JUMPDEST PUSH0 PUSH1 0xFF DUP3 AND SWAP1 POP SWAP2 SWAP1 POP JUMP JUMPDEST PUSH32 0x4E487B7100000000000000000000000000000000000000000000000000000000 PUSH0 MSTORE PUSH1 0x11 PUSH1 0x4 MSTORE PUSH1 0x24 PUSH0 REVERT JUMPDEST PUSH0 PUSH2 0x28DD DUP3 PUSH2 0x289A JUMP JUMPDEST SWAP2 POP PUSH2 0x28E8 DUP4 PUSH2 0x289A JUMP JUMPDEST SWAP3 POP DUP3 DUP3 ADD SWAP1 POP PUSH1 0xFF DUP2 GT ISZERO PUSH2 0x2901 JUMPI PUSH2 0x2900 PUSH2 0x28A6 JUMP JUMPDEST JUMPDEST SWAP3 SWAP2 POP POP JUMP JUMPDEST PUSH0 PUSH8 0xFFFFFFFFFFFFFFFF DUP3 GT ISZERO PUSH2 0x2921 JUMPI PUSH2 0x2920 PUSH2 0x21DB JUMP JUMPDEST JUMPDEST PUSH1 0x20 DUP3 MUL SWAP1 POP PUSH1 0x20 DUP2 ADD SWAP1 POP SWAP2 SWAP1 POP JUMP JUMPDEST PUSH0 DUP1 REVERT JUMPDEST PUSH0 PUSH20 0xFFFFFFFFFFFFFFFFFFFFFFFFFFFFFFFFFFFFFFFF DUP3 AND SWAP1 POP SWAP2 SWAP1 POP JUMP JUMPDEST PUSH0 PUSH2 0x295F DUP3 PUSH2 0x2936 JUMP JUMPDEST SWAP1 POP SWAP2 SWAP1 POP JUMP JUMPDEST PUSH2 0x296F DUP2 PUSH2 0x2955 JUMP JUMPDEST DUP2 EQ PUSH2 0x2979 JUMPI PUSH0 DUP1 REVERT JUMPDEST POP JUMP JUMPDEST PUSH0 DUP2 MLOAD SWAP1 POP PUSH2 0x298A DUP2 PUSH2 0x2966 JUMP JUMPDEST SWAP3 SWAP2 POP POP JUMP JUMPDEST PUSH0 PUSH2 0x29A2 PUSH2 0x299D DUP5 PUSH2 0x2907 JUMP JUMPDEST PUSH2 0x2239 JUMP JUMPDEST SWAP1 POP DUP1 DUP4 DUP3 MSTORE PUSH1 0x20 DUP3 ADD SWAP1 POP PUSH1 0x20 DUP5 MUL DUP4 ADD DUP6 DUP2 GT ISZERO PUSH2 0x29C5 JUMPI PUSH2 0x29C4 PUSH2 0x2932 JUMP JUMPDEST JUMPDEST DUP4 JUMPDEST DUP2 DUP2 LT ISZERO PUSH2 0x29EE JUMPI DUP1 PUSH2 0x29DA DUP9 DUP3 PUSH2 0x297C JUMP JUMPDEST DUP5 MSTORE PUSH1 0x20 DUP5 ADD SWAP4 POP POP PUSH1 0x20 DUP2 ADD SWAP1 POP PUSH2 0x29C7 JUMP JUMPDEST POP POP POP SWAP4 SWAP3 POP POP POP JUMP JUMPDEST PUSH0 DUP3 PUSH1 0x1F DUP4 ADD SLT PUSH2 0x2A0C JUMPI PUSH2 0x2A0B PUSH2 0x21C3 JUMP JUMPDEST JUMPDEST DUP2 MLOAD PUSH2 0x2A1C DUP5 DUP3 PUSH1 0x20 DUP7 ADD PUSH2 0x2990 JUMP JUMPDEST SWAP2 POP POP SWAP3 SWAP2 POP POP JUMP JUMPDEST PUSH0 PUSH1 0x20 DUP3 DUP5 SUB SLT ISZERO PUSH2 0x2A3A JUMPI PUSH2 0x2A39 PUSH2 0x21BB JUMP JUMPDEST JUMPDEST PUSH0 DUP3 ADD MLOAD PUSH8 0xFFFFFFFFFFFFFFFF DUP2 GT ISZERO PUSH2 0x2A57 JUMPI PUSH2 0x2A56 PUSH2 0x21BF JUMP JUMPDEST JUMPDEST PUSH2 0x2A63 DUP5 DUP3 DUP6 ADD PUSH2 0x29F8 JUMP JUMPDEST SWAP2 POP POP SWAP3 SWAP2 POP POP JUMP JUMPDEST PUSH32 0x4E487B7100000000000000000000000000000000000000000000000000000000 PUSH0 MSTORE PUSH1 0x22 PUSH1 0x4 MSTORE PUSH1 0x24 PUSH0 REVERT JUMPDEST PUSH0 PUSH1 0x2 DUP3 DIV SWAP1 POP PUSH1 0x1 DUP3 AND DUP1 PUSH2 0x2AB0 JUMPI PUSH1 0x7F DUP3 AND SWAP2 POP JUMPDEST PUSH1 0x20 DUP3 LT DUP2 SUB PUSH2 0x2AC3 JUMPI PUSH2 0x2AC2 PUSH2 0x2A6C JUMP JUMPDEST JUMPDEST POP SWAP2 SWAP1 POP JUMP JUMPDEST PUSH0 PUSH1 0x80 DUP3 ADD SWAP1 POP DUP2 DUP2 SUB PUSH0 DUP4 ADD MSTORE PUSH2 0x2AE1 DUP2 DUP8 PUSH2 0x278A JUMP JUMPDEST SWAP1 POP DUP2 DUP2 SUB PUSH1 0x20 DUP4 ADD MSTORE PUSH2 0x2AF5 DUP2 DUP7 PUSH2 0x278A JUMP JUMPDEST SWAP1 POP DUP2 DUP2 SUB PUSH1 0x40 DUP4 ADD MSTORE PUSH2 0x2B09 DUP2 DUP6 PUSH2 0x278A JUMP JUMPDEST SWAP1 POP DUP2 DUP2 SUB PUSH1 0x60 DUP4 ADD MSTORE PUSH2 0x2B1D DUP2 DUP5 PUSH2 0x278A JUMP JUMPDEST SWAP1 POP SWAP6 SWAP5 POP POP POP POP POP JUMP JUMPDEST PUSH0 PUSH8 0xFFFFFFFFFFFFFFFF DUP3 GT ISZERO PUSH2 0x2B42 JUMPI PUSH2 0x2B41 PUSH2 0x21DB JUMP JUMPDEST JUMPDEST PUSH1 0x20 DUP3 MUL SWAP1 POP PUSH1 0x20 DUP2 ADD SWAP1 POP SWAP2 SWAP1 POP JUMP JUMPDEST PUSH0 PUSH2 0x2B65 PUSH2 0x2B60 DUP5 PUSH2 0x2253 JUMP JUMPDEST PUSH2 0x2239 JUMP JUMPDEST SWAP1 POP DUP3 DUP2 MSTORE PUSH1 0x20 DUP2 ADD DUP5 DUP5 DUP5 ADD GT ISZERO PUSH2 0x2B81 JUMPI PUSH2 0x2B80 PUSH2 0x21C7 JUMP JUMPDEST JUMPDEST PUSH2 0x2B8C DUP5 DUP3 DUP6 PUSH2 0x2473 JUMP JUMPDEST POP SWAP4 SWAP3 POP POP POP JUMP JUMPDEST PUSH0 DUP3 PUSH1 0x1F DUP4 ADD SLT PUSH2 0x2BA8 JUMPI PUSH2 0x2BA7 PUSH2 0x21C3 JUMP JUMPDEST JUMPDEST DUP2 MLOAD PUSH2 0x2BB8 DUP5 DUP3 PUSH1 0x20 DUP7 ADD PUSH2 0x2B53 JUMP JUMPDEST SWAP2 POP POP SWAP3 SWAP2 POP POP JUMP JUMPDEST PUSH0 PUSH2 0x2BD3 PUSH2 0x2BCE DUP5 PUSH2 0x2B28 JUMP JUMPDEST PUSH2 0x2239 JUMP JUMPDEST SWAP1 POP DUP1 DUP4 DUP3 MSTORE PUSH1 0x20 DUP3 ADD SWAP1 POP PUSH1 0x20 DUP5 MUL DUP4 ADD DUP6 DUP2 GT ISZERO PUSH2 0x2BF6 JUMPI PUSH2 0x2BF5 PUSH2 0x2932 JUMP JUMPDEST JUMPDEST DUP4 JUMPDEST DUP2 DUP2 LT ISZERO PUSH2 0x2C3D JUMPI DUP1 MLOAD PUSH8 0xFFFFFFFFFFFFFFFF DUP2 GT ISZERO PUSH2 0x2C1B JUMPI PUSH2 0x2C1A PUSH2 0x21C3 JUMP JUMPDEST JUMPDEST DUP1 DUP7 ADD PUSH2 0x2C28 DUP10 DUP3 PUSH2 0x2B94 JUMP JUMPDEST DUP6 MSTORE PUSH1 0x20 DUP6 ADD SWAP5 POP POP POP PUSH1 0x20 DUP2 ADD SWAP1 POP PUSH2 0x2BF8 JUMP JUMPDEST POP POP POP SWAP4 SWAP3 POP POP POP JUMP JUMPDEST PUSH0 DUP3 PUSH1 0x1F DUP4 ADD SLT PUSH2 0x2C5B JUMPI PUSH2 0x2C5A PUSH2 0x21C3 JUMP JUMPDEST JUMPDEST DUP2 MLOAD PUSH2 0x2C6B DUP5 DUP3 PUSH1 0x20 DUP7 ADD PUSH2 0x2BC1 JUMP JUMPDEST SWAP2 POP POP SWAP3 SWAP2 POP POP JUMP JUMPDEST PUSH0 PUSH1 0x20 DUP3 DUP5 SUB SLT ISZERO PUSH2 0x2C89 JUMPI PUSH2 0x2C88 PUSH2 0x21BB JUMP JUMPDEST JUMPDEST PUSH0 DUP3 ADD MLOAD PUSH8 0xFFFFFFFFFFFFFFFF DUP2 GT ISZERO PUSH2 0x2CA6 JUMPI PUSH2 0x2CA5 PUSH2 0x21BF JUMP JUMPDEST JUMPDEST PUSH2 0x2CB2 DUP5 DUP3 DUP6 ADD PUSH2 0x2C47 JUMP JUMPDEST SWAP2 POP POP SWAP3 SWAP2 POP POP JUMP JUMPDEST PUSH0 DUP2 MLOAD SWAP1 POP SWAP2 SWAP1 POP JUMP JUMPDEST PUSH0 DUP3 DUP3 MSTORE PUSH1 0x20 DUP3 ADD SWAP1 POP SWAP3 SWAP2 POP POP JUMP JUMPDEST PUSH0 DUP2 SWAP1 POP PUSH1 0x20 DUP3 ADD SWAP1 POP SWAP2 SWAP1 POP JUMP JUMPDEST PUSH2 0x2CED DUP2 PUSH2 0x2955 JUMP JUMPDEST DUP3 MSTORE POP POP JUMP JUMPDEST PUSH0 PUSH2 0x2CFE DUP4 DUP4 PUSH2 0x2CE4 JUMP JUMPDEST PUSH1 0x20 DUP4 ADD SWAP1 POP SWAP3 SWAP2 POP POP JUMP JUMPDEST PUSH0 PUSH1 0x20 DUP3 ADD SWAP1 POP SWAP2 SWAP1 POP JUMP JUMPDEST PUSH0 PUSH2 0x2D20 DUP3 PUSH2 0x2CBB JUMP JUMPDEST PUSH2 0x2D2A DUP2 DUP6 PUSH2 0x2CC5 JUMP JUMPDEST SWAP4 POP PUSH2 0x2D35 DUP4 PUSH2 0x2CD5 JUMP JUMPDEST DUP1 PUSH0 JUMPDEST DUP4 DUP2 LT ISZERO PUSH2 0x2D65 JUMPI DUP2 MLOAD PUSH2 0x2D4C DUP9 DUP3 PUSH2 0x2CF3 JUMP JUMPDEST SWAP8 POP PUSH2 0x2D57 DUP4 PUSH2 0x2D0A JUMP JUMPDEST SWAP3 POP POP PUSH1 0x1 DUP2 ADD SWAP1 POP PUSH2 0x2D38 JUMP JUMPDEST POP DUP6 SWAP4 POP POP POP POP SWAP3 SWAP2 POP POP JUMP JUMPDEST PUSH0 PUSH1 0x80 DUP3 ADD SWAP1 POP DUP2 DUP2 SUB PUSH0 DUP4 ADD MSTORE PUSH2 0x2D8A DUP2 DUP8 PUSH2 0x2D16 JUMP JUMPDEST SWAP1 POP DUP2 DUP2 SUB PUSH1 0x20 DUP4 ADD MSTORE PUSH2 0x2D9E DUP2 DUP7 PUSH2 0x278A JUMP JUMPDEST SWAP1 POP DUP2 DUP2 SUB PUSH1 0x40 DUP4 ADD MSTORE PUSH2 0x2DB2 DUP2 DUP6 PUSH2 0x278A JUMP JUMPDEST SWAP1 POP DUP2 DUP2 SUB PUSH1 0x60 DUP4 ADD MSTORE PUSH2 0x2DC6 DUP2 DUP5 PUSH2 0x278A JUMP JUMPDEST SWAP1 POP SWAP6 SWAP5 POP POP POP POP POP JUMP JUMPDEST PUSH0 PUSH1 0x20 DUP3 DUP5 SUB SLT ISZERO PUSH2 0x2DE6 JUMPI PUSH2 0x2DE5 PUSH2 0x21BB JUMP JUMPDEST JUMPDEST PUSH0 DUP3 ADD MLOAD PUSH8 0xFFFFFFFFFFFFFFFF DUP2 GT ISZERO PUSH2 0x2E03 JUMPI PUSH2 0x2E02 PUSH2 0x21BF JUMP JUMPDEST JUMPDEST PUSH2 0x2E0F DUP5 DUP3 DUP6 ADD PUSH2 0x2B94 JUMP JUMPDEST SWAP2 POP POP SWAP3 SWAP2 POP POP JUMP JUMPDEST PUSH2 0x2E21 DUP2 PUSH2 0x2955 JUMP JUMPDEST DUP3 MSTORE POP POP JUMP JUMPDEST PUSH0 PUSH1 0x20 DUP3 ADD SWAP1 POP PUSH2 0x2E3A PUSH0 DUP4 ADD DUP5 PUSH2 0x2E18 JUMP JUMPDEST SWAP3 SWAP2 POP POP JUMP JUMPDEST POP JUMP JUMPDEST PUSH0 PUSH2 0x2E4E PUSH0 DUP4 PUSH2 0x2463 JUMP JUMPDEST SWAP2 POP PUSH2 0x2E59 DUP3 PUSH2 0x2E40 JUMP JUMPDEST PUSH0 DUP3 ADD SWAP1 POP SWAP2 SWAP1 POP JUMP JUMPDEST PUSH0 PUSH1 0x20 DUP3 ADD SWAP1 POP DUP2 DUP2 SUB PUSH0 DUP4 ADD MSTORE PUSH2 0x2E7A DUP2 PUSH2 0x2E43 JUMP JUMPDEST SWAP1 POP SWAP2 SWAP1 POP JUMP JUMPDEST PUSH0 DUP1 PUSH0 DUP1 PUSH1 0x80 DUP6 DUP8 SUB SLT ISZERO PUSH2 0x2E99 JUMPI PUSH2 0x2E98 PUSH2 0x21BB JUMP JUMPDEST JUMPDEST PUSH0 DUP6 ADD MLOAD PUSH8 0xFFFFFFFFFFFFFFFF DUP2 GT ISZERO PUSH2 0x2EB6 JUMPI PUSH2 0x2EB5 PUSH2 0x21BF JUMP JUMPDEST JUMPDEST PUSH2 0x2EC2 DUP8 DUP3 DUP9 ADD PUSH2 0x2B94 JUMP JUMPDEST SWAP5 POP POP PUSH1 0x20 DUP6 ADD MLOAD PUSH8 0xFFFFFFFFFFFFFFFF DUP2 GT ISZERO PUSH2 0x2EE3 JUMPI PUSH2 0x2EE2 PUSH2 0x21BF JUMP JUMPDEST JUMPDEST PUSH2 0x2EEF DUP8 DUP3 DUP9 ADD PUSH2 0x2B94 JUMP JUMPDEST SWAP4 POP POP PUSH1 0x40 DUP6 ADD MLOAD PUSH8 0xFFFFFFFFFFFFFFFF DUP2 GT ISZERO PUSH2 0x2F10 JUMPI PUSH2 0x2F0F PUSH2 0x21BF JUMP JUMPDEST JUMPDEST PUSH2 0x2F1C DUP8 DUP3 DUP9 ADD PUSH2 0x2B94 JUMP JUMPDEST SWAP3 POP POP PUSH1 0x60 DUP6 ADD MLOAD PUSH8 0xFFFFFFFFFFFFFFFF DUP2 GT ISZERO PUSH2 0x2F3D JUMPI PUSH2 0x2F3C PUSH2 0x21BF JUMP JUMPDEST JUMPDEST PUSH2 0x2F49 DUP8 DUP3 DUP9 ADD PUSH2 0x2B94 JUMP JUMPDEST SWAP2 POP POP SWAP3 SWAP6 SWAP2 SWAP5 POP SWAP3 POP JUMP JUMPDEST PUSH32 0x68616E646C6520697320696E76616C6964000000000000000000000000000000 PUSH0 DUP3 ADD MSTORE POP JUMP JUMPDEST PUSH0 PUSH2 0x2F89 PUSH1 0x11 DUP4 PUSH2 0x2463 JUMP JUMPDEST SWAP2 POP PUSH2 0x2F94 DUP3 PUSH2 0x2F55 JUMP JUMPDEST PUSH1 0x20 DUP3 ADD SWAP1 POP SWAP2 SWAP1 POP JUMP JUMPDEST PUSH0 PUSH1 0x20 DUP3 ADD SWAP1 POP DUP2 DUP2 SUB PUSH0 DUP4 ADD MSTORE PUSH2 0x2FB6 DUP2 PUSH2 0x2F7D JUMP JUMPDEST SWAP1 POP SWAP2 SWAP1 POP JUMP JUMPDEST PUSH32 0x7468652068616E646C6520686173206265656E20726567697374657265640000 PUSH0 DUP3 ADD MSTORE POP JUMP JUMPDEST PUSH0 PUSH2 0x2FF1 PUSH1 0x1E DUP4 PUSH2 0x2463 JUMP JUMPDEST SWAP2 POP PUSH2 0x2FFC DUP3 PUSH2 0x2FBD JUMP JUMPDEST PUSH1 0x20 DUP3 ADD SWAP1 POP SWAP2 SWAP1 POP JUMP JUMPDEST PUSH0 PUSH1 0x20 DUP3 ADD SWAP1 POP DUP2 DUP2 SUB PUSH0 DUP4 ADD MSTORE PUSH2 0x301E DUP2 PUSH2 0x2FE5 JUMP JUMPDEST SWAP1 POP SWAP2 SWAP1 POP JUMP JUMPDEST PUSH0 DUP2 SWAP1 POP DUP2 PUSH0 MSTORE PUSH1 0x20 PUSH0 KECCAK256 SWAP1 POP SWAP2 SWAP1 POP JUMP JUMPDEST PUSH0 PUSH1 0x20 PUSH1 0x1F DUP4 ADD DIV SWAP1 POP SWAP2 SWAP1 POP JUMP JUMPDEST PUSH0 DUP3 DUP3 SHL SWAP1 POP SWAP3 SWAP2 POP POP JUMP JUMPDEST PUSH0 PUSH1 0x8 DUP4 MUL PUSH2 0x3081 PUSH32 0xFFFFFFFFFFFFFFFFFFFFFFFFFFFFFFFFFFFFFFFFFFFFFFFFFFFFFFFFFFFFFFFF DUP3 PUSH2 0x3046 JUMP JUMPDEST PUSH2 0x308B DUP7 DUP4 PUSH2 0x3046 JUMP JUMPDEST SWAP6 POP DUP1 NOT DUP5 AND SWAP4 POP DUP1 DUP7 AND DUP5 OR SWAP3 POP POP POP SWAP4 SWAP3 POP POP POP JUMP JUMPDEST PUSH0 DUP2 SWAP1 POP SWAP2 SWAP1 POP JUMP JUMPDEST PUSH0 DUP2 SWAP1 POP SWAP2 SWAP1 POP JUMP JUMPDEST PUSH0 PUSH2 0x30CF PUSH2 0x30CA PUSH2 0x30C5 DUP5 PUSH2 0x30A3 JUMP JUMPDEST PUSH2 0x30AC JUMP JUMPDEST PUSH2 0x30A3 JUMP JUMPDEST SWAP1 POP SWAP2 SWAP1 POP JUMP JUMPDEST PUSH0 DUP2 SWAP1 POP SWAP2 SWAP1 POP JUMP JUMPDEST PUSH2 0x30E8 DUP4 PUSH2 0x30B5 JUMP JUMPDEST PUSH2 0x30FC PUSH2 0x30F4 DUP3 PUSH2 0x30D6 JUMP JUMPDEST DUP5 DUP5 SLOAD PUSH2 0x3052 JUMP JUMPDEST DUP3 SSTORE POP POP POP POP JUMP JUMPDEST PUSH0 SWAP1 JUMP JUMPDEST PUSH2 0x3110 PUSH2 0x3104 JUMP JUMPDEST PUSH2 0x311B DUP2 DUP5 DUP5 PUSH2 0x30DF JUMP JUMPDEST POP POP POP JUMP JUMPDEST JUMPDEST DUP2 DUP2 LT ISZERO PUSH2 0x313E JUMPI PUSH2 0x3133 PUSH0 DUP3 PUSH2 0x3108 JUMP JUMPDEST PUSH1 0x1 DUP2 ADD SWAP1 POP PUSH2 0x3121 JUMP JUMPDEST POP POP JUMP JUMPDEST PUSH1 0x1F DUP3 GT ISZERO PUSH2 0x3183 JUMPI PUSH2 0x3154 DUP2 PUSH2 0x3025 JUMP JUMPDEST PUSH2 0x315D DUP5 PUSH2 0x3037 JUMP JUMPDEST DUP2 ADD PUSH1 0x20 DUP6 LT ISZERO PUSH2 0x316C JUMPI DUP2 SWAP1 POP JUMPDEST PUSH2 0x3180 PUSH2 0x3178 DUP6 PUSH2 0x3037 JUMP JUMPDEST DUP4 ADD DUP3 PUSH2 0x3120 JUMP JUMPDEST POP POP JUMPDEST POP POP POP JUMP JUMPDEST PUSH0 DUP3 DUP3 SHR SWAP1 POP SWAP3 SWAP2 POP POP JUMP JUMPDEST PUSH0 PUSH2 0x31A3 PUSH0 NOT DUP5 PUSH1 0x8 MUL PUSH2 0x3188 JUMP JUMPDEST NOT DUP1 DUP4 AND SWAP2 POP POP SWAP3 SWAP2 POP POP JUMP JUMPDEST PUSH0 PUSH2 0x31BB DUP4 DUP4 PUSH2 0x3194 JUMP JUMPDEST SWAP2 POP DUP3 PUSH1 0x2 MUL DUP3 OR SWAP1 POP SWAP3 SWAP2 POP POP JUMP JUMPDEST PUSH2 0x31D4 DUP3 PUSH2 0x2459 JUMP JUMPDEST PUSH8 0xFFFFFFFFFFFFFFFF DUP2 GT ISZERO PUSH2 0x31ED JUMPI PUSH2 0x31EC PUSH2 0x21DB JUMP JUMPDEST JUMPDEST PUSH2 0x31F7 DUP3 SLOAD PUSH2 0x2A99 JUMP JUMPDEST PUSH2 0x3202 DUP3 DUP3 DUP6 PUSH2 0x3142 JUMP JUMPDEST PUSH0 PUSH1 0x20 SWAP1 POP PUSH1 0x1F DUP4 GT PUSH1 0x1 DUP2 EQ PUSH2 0x3233 JUMPI PUSH0 DUP5 ISZERO PUSH2 0x3221 JUMPI DUP3 DUP8 ADD MLOAD SWAP1 POP JUMPDEST PUSH2 0x322B DUP6 DUP3 PUSH2 0x31B0 JUMP JUMPDEST DUP7 SSTORE POP PUSH2 0x3292 JUMP JUMPDEST PUSH1 0x1F NOT DUP5 AND PUSH2 0x3241 DUP7 PUSH2 0x3025 JUMP JUMPDEST PUSH0 JUMPDEST DUP3 DUP2 LT ISZERO PUSH2 0x3268 JUMPI DUP5 DUP10 ADD MLOAD DUP3 SSTORE PUSH1 0x1 DUP3 ADD SWAP2 POP PUSH1 0x20 DUP6 ADD SWAP5 POP PUSH1 0x20 DUP2 ADD SWAP1 POP PUSH2 0x3243 JUMP JUMPDEST DUP7 DUP4 LT ISZERO PUSH2 0x3285 JUMPI DUP5 DUP10 ADD MLOAD PUSH2 0x3281 PUSH1 0x1F DUP10 AND DUP3 PUSH2 0x3194 JUMP JUMPDEST DUP4 SSTORE POP JUMPDEST PUSH1 0x1 PUSH1 0x2 DUP9 MUL ADD DUP9 SSTORE POP POP POP JUMPDEST POP POP POP POP POP POP JUMP JUMPDEST PUSH0 PUSH1 0x60 DUP3 ADD SWAP1 POP DUP2 DUP2 SUB PUSH0 DUP4 ADD MSTORE PUSH2 0x32B2 DUP2 DUP7 PUSH2 0x249B JUMP JUMPDEST SWAP1 POP DUP2 DUP2 SUB PUSH1 0x20 DUP4 ADD MSTORE PUSH2 0x32C6 DUP2 DUP6 PUSH2 0x249B JUMP JUMPDEST SWAP1 POP DUP2 DUP2 SUB PUSH1 0x40 DUP4 ADD MSTORE PUSH2 0x32DA DUP2 DUP5 PUSH2 0x249B JUMP JUMPDEST SWAP1 POP SWAP5 SWAP4 POP POP POP POP JUMP JUMPDEST PUSH32 0x7573657220686173207265676973746572656400000000000000000000000000 PUSH0 DUP3 ADD MSTORE POP JUMP JUMPDEST PUSH0 PUSH2 0x3318 PUSH1 0x13 DUP4 PUSH2 0x2463 JUMP JUMPDEST SWAP2 POP PUSH2 0x3323 DUP3 PUSH2 0x32E4 JUMP JUMPDEST PUSH1 0x20 DUP3 ADD SWAP1 POP SWAP2 SWAP1 POP JUMP JUMPDEST PUSH0 PUSH1 0x20 DUP3 ADD SWAP1 POP DUP2 DUP2 SUB PUSH0 DUP4 ADD MSTORE PUSH2 0x3345 DUP2 PUSH2 0x330C JUMP JUMPDEST SWAP1 POP SWAP2 SWAP1 POP JUMP JUMPDEST PUSH0 DUP1 PUSH0 PUSH1 0x60 DUP5 DUP7 SUB SLT ISZERO PUSH2 0x3363 JUMPI PUSH2 0x3362 PUSH2 0x21BB JUMP JUMPDEST JUMPDEST PUSH0 DUP5 ADD MLOAD PUSH8 0xFFFFFFFFFFFFFFFF DUP2 GT ISZERO PUSH2 0x3380 JUMPI PUSH2 0x337F PUSH2 0x21BF JUMP JUMPDEST JUMPDEST PUSH2 0x338C DUP7 DUP3 DUP8 ADD PUSH2 0x2B94 JUMP JUMPDEST SWAP4 POP POP PUSH1 0x20 DUP5 ADD MLOAD PUSH8 0xFFFFFFFFFFFFFFFF DUP2 GT ISZERO PUSH2 0x33AD JUMPI PUSH2 0x33AC PUSH2 0x21BF JUMP JUMPDEST JUMPDEST PUSH2 0x33B9 DUP7 DUP3 DUP8 ADD PUSH2 0x2B94 JUMP JUMPDEST SWAP3 POP POP PUSH1 0x40 DUP5 ADD MLOAD PUSH8 0xFFFFFFFFFFFFFFFF DUP2 GT ISZERO PUSH2 0x33DA JUMPI PUSH2 0x33D9 PUSH2 0x21BF JUMP JUMPDEST JUMPDEST PUSH2 0x33E6 DUP7 DUP3 DUP8 ADD PUSH2 0x2B94 JUMP JUMPDEST SWAP2 POP POP SWAP3 POP SWAP3 POP SWAP3 JUMP JUMPDEST PUSH32 0x7468652075736572206973206E6F742072656769737465726564000000000000 PUSH0 DUP3 ADD MSTORE POP JUMP JUMPDEST PUSH0 PUSH2 0x3424 PUSH1 0x1A DUP4 PUSH2 0x2463 JUMP JUMPDEST SWAP2 POP PUSH2 0x342F DUP3 PUSH2 0x33F0 JUMP JUMPDEST PUSH1 0x20 DUP3 ADD SWAP1 POP SWAP2 SWAP1 POP JUMP JUMPDEST PUSH0 PUSH1 0x20 DUP3 ADD SWAP1 POP DUP2 DUP2 SUB PUSH0 DUP4 ADD MSTORE PUSH2 0x3451 DUP2 PUSH2 0x3418 JUMP JUMPDEST SWAP1 POP SWAP2 SWAP1 POP JUMP JUMPDEST PUSH0 PUSH1 0x40 DUP3 ADD SWAP1 POP DUP2 DUP2 SUB PUSH0 DUP4 ADD MSTORE PUSH2 0x3470 DUP2 DUP6 PUSH2 0x249B JUMP JUMPDEST SWAP1 POP DUP2 DUP2 SUB PUSH1 0x20 DUP4 ADD MSTORE PUSH2 0x3484 DUP2 DUP5 PUSH2 0x2654 JUMP JUMPDEST SWAP1 POP SWAP4 SWAP3 POP POP POP JUMP INVALID LOG2 PUSH5 0x6970667358 0x22 SLT KECCAK256 DUP16 NOT PUSH28 0xDD09F7FA16320790E71BEC005936D55BF04CDFF8EA67D16456152485 0xAE PUSH5 0x736F6C6343 STOP ADDMOD AND STOP CALLER "
				},
				"gasEstimates": {
					"creation": {
						"codeDepositCost": "2701400",
						"executionCost": "infinite",
						"totalCost": "infinite"
					},
					"external": {
						"get(string,bytes)": "infinite",
						"getMethodReqAndRes(string)": "infinite",
						"getMethods(uint8)": "infinite",
						"isEmptyString(string)": "infinite",
						"isValidString(string)": "infinite",
						"options()": "infinite",
						"post(string,bytes)": "infinite",
						"put(string,bytes)": "infinite",
						"toLower(string)": "infinite"
					},
					"internal": {
						"compareStrings(string memory,string memory)": "infinite",
						"setMethod(string memory,enum IComponent.MethodTypes,enum Types.Type[] memory,enum Types.Type[] memory)": "infinite"
					}
				},
				"methodIdentifiers": {
					"get(string,bytes)": "aff62745",
					"getMethodReqAndRes(string)": "458ad6d4",
					"getMethods(uint8)": "f4856ccb",
					"isEmptyString(string)": "a45f379e",
					"isValidString(string)": "c502607f",
					"options()": "1069143a",
					"post(string,bytes)": "b6ae0425",
					"put(string,bytes)": "e9536472",
					"toLower(string)": "9416b423"
				}
			},
			"storageLayout": {
				"storage": [
					{
						"astId": 557,
						"contract": "contracts/AmeComponents/VibeProfiles/VibeProfile.sol:VibeProfile",
						"label": "methods",
						"offset": 0,
						"slot": "0",
						"type": "t_mapping(t_enum(MethodTypes)8,t_array(t_string_storage)dyn_storage)"
					},
					{
						"astId": 563,
						"contract": "contracts/AmeComponents/VibeProfiles/VibeProfile.sol:VibeProfile",
						"label": "methodRequests",
						"offset": 0,
						"slot": "1",
						"type": "t_mapping(t_string_memory_ptr,t_array(t_enum(Type)278)dyn_storage)"
					},
					{
						"astId": 569,
						"contract": "contracts/AmeComponents/VibeProfiles/VibeProfile.sol:VibeProfile",
						"label": "methodResponses",
						"offset": 0,
						"slot": "2",
						"type": "t_mapping(t_string_memory_ptr,t_array(t_enum(Type)278)dyn_storage)"
					},
					{
						"astId": 583,
						"contract": "contracts/AmeComponents/VibeProfiles/VibeProfile.sol:VibeProfile",
						"label": "addressUserInfo",
						"offset": 0,
						"slot": "3",
						"type": "t_mapping(t_address,t_struct(UserInfo)578_storage)"
					},
					{
						"astId": 587,
						"contract": "contracts/AmeComponents/VibeProfiles/VibeProfile.sol:VibeProfile",
						"label": "handleAddresses",
						"offset": 0,
						"slot": "4",
						"type": "t_mapping(t_string_memory_ptr,t_address)"
					}
				],
				"types": {
					"t_address": {
						"encoding": "inplace",
						"label": "address",
						"numberOfBytes": "20"
					},
					"t_array(t_enum(Type)278)dyn_storage": {
						"base": "t_enum(Type)278",
						"encoding": "dynamic_array",
						"label": "enum Types.Type[]",
						"numberOfBytes": "32"
					},
					"t_array(t_string_storage)dyn_storage": {
						"base": "t_string_storage",
						"encoding": "dynamic_array",
						"label": "string[]",
						"numberOfBytes": "32"
					},
					"t_enum(MethodTypes)8": {
						"encoding": "inplace",
						"label": "enum IComponent.MethodTypes",
						"numberOfBytes": "1"
					},
					"t_enum(Type)278": {
						"encoding": "inplace",
						"label": "enum Types.Type",
						"numberOfBytes": "1"
					},
					"t_mapping(t_address,t_struct(UserInfo)578_storage)": {
						"encoding": "mapping",
						"key": "t_address",
						"label": "mapping(address => struct VibeProfile.UserInfo)",
						"numberOfBytes": "32",
						"value": "t_struct(UserInfo)578_storage"
					},
					"t_mapping(t_enum(MethodTypes)8,t_array(t_string_storage)dyn_storage)": {
						"encoding": "mapping",
						"key": "t_enum(MethodTypes)8",
						"label": "mapping(enum IComponent.MethodTypes => string[])",
						"numberOfBytes": "32",
						"value": "t_array(t_string_storage)dyn_storage"
					},
					"t_mapping(t_string_memory_ptr,t_address)": {
						"encoding": "mapping",
						"key": "t_string_memory_ptr",
						"label": "mapping(string => address)",
						"numberOfBytes": "32",
						"value": "t_address"
					},
					"t_mapping(t_string_memory_ptr,t_array(t_enum(Type)278)dyn_storage)": {
						"encoding": "mapping",
						"key": "t_string_memory_ptr",
						"label": "mapping(string => enum Types.Type[])",
						"numberOfBytes": "32",
						"value": "t_array(t_enum(Type)278)dyn_storage"
					},
					"t_string_memory_ptr": {
						"encoding": "bytes",
						"label": "string",
						"numberOfBytes": "32"
					},
					"t_string_storage": {
						"encoding": "bytes",
						"label": "string",
						"numberOfBytes": "32"
					},
					"t_struct(UserInfo)578_storage": {
						"encoding": "inplace",
						"label": "struct VibeProfile.UserInfo",
						"members": [
							{
								"astId": 571,
								"contract": "contracts/AmeComponents/VibeProfiles/VibeProfile.sol:VibeProfile",
								"label": "handle",
								"offset": 0,
								"slot": "0",
								"type": "t_string_storage"
							},
							{
								"astId": 573,
								"contract": "contracts/AmeComponents/VibeProfiles/VibeProfile.sol:VibeProfile",
								"label": "nickname",
								"offset": 0,
								"slot": "1",
								"type": "t_string_storage"
							},
							{
								"astId": 575,
								"contract": "contracts/AmeComponents/VibeProfiles/VibeProfile.sol:VibeProfile",
								"label": "avatar",
								"offset": 0,
								"slot": "2",
								"type": "t_string_storage"
							},
							{
								"astId": 577,
								"contract": "contracts/AmeComponents/VibeProfiles/VibeProfile.sol:VibeProfile",
								"label": "profile",
								"offset": 0,
								"slot": "3",
								"type": "t_string_storage"
							}
						],
						"numberOfBytes": "128"
					}
				}
			},
			"userdoc": {
				"events": {
					"Response(bytes)": {
						"notice": "Response data event."
					}
				},
				"kind": "user",
				"methods": {
					"get(string,bytes)": {
						"notice": "Request the contract to retrieve records."
					},
					"getMethodReqAndRes(string)": {
						"notice": "Get the data types of request parameters and return parameters based on the requested method name."
					},
					"getMethods(uint8)": {
						"notice": "Get method names based on request method type."
					},
					"options()": {
						"notice": "Supported request method types."
					},
					"post(string,bytes)": {
						"notice": "Request the contract to create a new record."
					},
					"put(string,bytes)": {
						"notice": "Request the contract to update a record."
					}
				},
				"version": 1
			}
		}
	}
}