{
	"data": {
		"bytecode": {
			"linkReferences": {},
			"object": "608060405234801562000010575f80fd5b505f600467ffffffffffffffff81111562000030576200002f62000c61565b5b6040519080825280602002602001820160405280156200005f5781602001602082028036833780820191505090505b5090506063815f815181106200007a576200007962000c8e565b5b602002602001019060c681111562000097576200009662000cbb565b5b908160c6811115620000ae57620000ad62000cbb565b5b81525050606381600181518110620000cb57620000ca62000c8e565b5b602002602001019060c6811115620000e857620000e762000cbb565b5b908160c6811115620000ff57620000fe62000cbb565b5b815250506063816002815181106200011c576200011b62000c8e565b5b602002602001019060c681111562000139576200013862000cbb565b5b908160c681111562000150576200014f62000cbb565b5b815250506063816003815181106200016d576200016c62000c8e565b5b602002602001019060c68111156200018a576200018962000cbb565b5b908160c6811115620001a157620001a062000cbb565b5b815250505f600367ffffffffffffffff811115620001c457620001c362000c61565b5b604051908082528060200260200182016040528015620001f35781602001602082028036833780820191505090505b5090506063815f815181106200020e576200020d62000c8e565b5b602002602001019060c68111156200022b576200022a62000cbb565b5b908160c681111562000242576200024162000cbb565b5b815250506063816001815181106200025f576200025e62000c8e565b5b602002602001019060c68111156200027c576200027b62000cbb565b5b908160c681111562000293576200029262000cbb565b5b81525050606381600281518110620002b057620002af62000c8e565b5b602002602001019060c6811115620002cd57620002cc62000cbb565b5b908160c6811115620002e457620002e362000cbb565b5b815250505f600167ffffffffffffffff81111562000307576200030662000c61565b5b604051908082528060200260200182016040528015620003365781602001602082028036833780820191505090505b50905060a4815f8151811062000351576200035062000c8e565b5b602002602001019060c68111156200036e576200036d62000cbb565b5b908160c681111562000385576200038462000cbb565b5b815250505f600467ffffffffffffffff811115620003a857620003a762000c61565b5b604051908082528060200260200182016040528015620003d75781602001602082028036833780820191505090505b50905060c6815f81518110620003f257620003f162000c8e565b5b602002602001019060c68111156200040f576200040e62000cbb565b5b908160c681111562000426576200042562000cbb565b5b8152505060c68160018151811062000443576200044262000c8e565b5b602002602001019060c681111562000460576200045f62000cbb565b5b908160c681111562000477576200047662000cbb565b5b8152505060c68160028151811062000494576200049362000c8e565b5b602002602001019060c6811115620004b157620004b062000cbb565b5b908160c6811115620004c857620004c762000cbb565b5b8152505060c681600381518110620004e557620004e462000c8e565b5b602002602001019060c681111562000502576200050162000cbb565b5b908160c681111562000519576200051862000cbb565b5b815250505f600167ffffffffffffffff8111156200053c576200053b62000c61565b5b6040519080825280602002602001820160405280156200056b5781602001602082028036833780820191505090505b5090506041815f8151811062000586576200058562000c8e565b5b602002602001019060c6811115620005a357620005a262000cbb565b5b908160c6811115620005ba57620005b962000cbb565b5b815250505f600167ffffffffffffffff811115620005dd57620005dc62000c61565b5b6040519080825280602002602001820160405280156200060c5781602001602082028036833780820191505090505b5090506063815f8151811062000627576200062662000c8e565b5b602002602001019060c681111562000644576200064362000cbb565b5b908160c68111156200065b576200065a62000cbb565b5b815250505f600167ffffffffffffffff8111156200067e576200067d62000c61565b5b604051908082528060200260200182016040528015620006ad5781602001602082028036833780820191505090505b50905060c6815f81518110620006c857620006c762000c8e565b5b602002602001019060c6811115620006e557620006e462000cbb565b5b908160c6811115620006fc57620006fb62000cbb565b5b815250505f600467ffffffffffffffff8111156200071f576200071e62000c61565b5b6040519080825280602002602001820160405280156200074e5781602001602082028036833780820191505090505b50905060a4815f8151811062000769576200076862000c8e565b5b602002602001019060c681111562000786576200078562000cbb565b5b908160c68111156200079d576200079c62000cbb565b5b8152505060c681600181518110620007ba57620007b962000c8e565b5b602002602001019060c6811115620007d757620007d662000cbb565b5b908160c6811115620007ee57620007ed62000cbb565b5b8152505060c6816002815181106200080b576200080a62000c8e565b5b602002602001019060c681111562000828576200082762000cbb565b5b908160c68111156200083f576200083e62000cbb565b5b8152505060c6816003815181106200085c576200085b62000c8e565b5b602002602001019060c681111562000879576200087862000cbb565b5b908160c681111562000890576200088f62000cbb565b5b815250506200092a6040518060400160405280600a81526020017f637265617465557365720000000000000000000000000000000000000000000081525060018a5f67ffffffffffffffff811115620008ee57620008ed62000c61565b5b6040519080825280602002602001820160405280156200091d5781602001602082028036833780820191505090505b5062000aa960201b60201c565b620009c06040518060400160405280600e81526020017f75706461746555736572496e666f0000000000000000000000000000000000008152506002895f67ffffffffffffffff81111562000984576200098362000c61565b5b604051908082528060200260200182016040528015620009b35781602001602082028036833780820191505090505b5062000aa960201b60201c565b62000a096040518060400160405280601681526020017f67657455736572496e666f4279416464726573736573000000000000000000008152505f888862000aa960201b60201c565b62000a526040518060400160405280601481526020017f67657455736572496e666f427948616e646c65730000000000000000000000008152505f848462000aa960201b60201c565b62000a9b6040518060400160405280601281526020017f67657441646472657373427948616e646c6500000000000000000000000000008152505f858762000aa960201b60201c565b505050505050505062001085565b5f8084600381111562000ac15762000ac062000cbb565b5b600381111562000ad65762000ad562000cbb565b5b81526020019081526020015f2084908060018154018082558091505060019003905f5260205f20015f90919091909150908162000b14919062000f1f565b508160018560405162000b2891906200106d565b9081526020016040518091039020908051906020019062000b4b92919062000b89565b508060028560405162000b5f91906200106d565b9081526020016040518091039020908051906020019062000b8292919062000b89565b5050505050565b828054828255905f5260205f2090601f0160209004810192821562000c31579160200282015f5b8382111562000c0157835183826101000a81548160ff021916908360c681111562000be05762000bdf62000cbb565b5b021790555092602001926001016020815f0104928301926001030262000bb0565b801562000c2f5782816101000a81549060ff02191690556001016020815f0104928301926001030262000c01565b505b50905062000c40919062000c44565b5090565b5b8082111562000c5d575f815f90555060010162000c45565b5090565b7f4e487b71000000000000000000000000000000000000000000000000000000005f52604160045260245ffd5b7f4e487b71000000000000000000000000000000000000000000000000000000005f52603260045260245ffd5b7f4e487b71000000000000000000000000000000000000000000000000000000005f52602160045260245ffd5b5f81519050919050565b7f4e487b71000000000000000000000000000000000000000000000000000000005f52602260045260245ffd5b5f600282049050600182168062000d3757607f821691505b60208210810362000d4d5762000d4c62000cf2565b5b50919050565b5f819050815f5260205f209050919050565b5f6020601f8301049050919050565b5f82821b905092915050565b5f6008830262000db17fffffffffffffffffffffffffffffffffffffffffffffffffffffffffffffffff8262000d74565b62000dbd868362000d74565b95508019841693508086168417925050509392505050565b5f819050919050565b5f819050919050565b5f62000e0762000e0162000dfb8462000dd5565b62000dde565b62000dd5565b9050919050565b5f819050919050565b62000e228362000de7565b62000e3a62000e318262000e0e565b84845462000d80565b825550505050565b5f90565b62000e5062000e42565b62000e5d81848462000e17565b505050565b5b8181101562000e845762000e785f8262000e46565b60018101905062000e63565b5050565b601f82111562000ed35762000e9d8162000d53565b62000ea88462000d65565b8101602085101562000eb8578190505b62000ed062000ec78562000d65565b83018262000e62565b50505b505050565b5f82821c905092915050565b5f62000ef55f198460080262000ed8565b1980831691505092915050565b5f62000f0f838362000ee4565b9150826002028217905092915050565b62000f2a8262000ce8565b67ffffffffffffffff81111562000f465762000f4562000c61565b5b62000f52825462000d1f565b62000f5f82828562000e88565b5f60209050601f83116001811462000f95575f841562000f80578287015190505b62000f8c858262000f02565b86555062000ffb565b601f19841662000fa58662000d53565b5f5b8281101562000fce5784890151825560018201915060208501945060208101905062000fa7565b8683101562000fee578489015162000fea601f89168262000ee4565b8355505b6001600288020188555050505b505050505050565b5f81905092915050565b5f5b838110156200102c5780820151818401526020810190506200100f565b5f8484015250505050565b5f620010438262000ce8565b6200104f818562001003565b9350620010618185602086016200100d565b80840191505092915050565b5f6200107a828462001037565b915081905092915050565b6134c380620010935f395ff3fe608060405260043610610085575f3560e01c8063aff6274511610058578063aff6274514610168578063b6ae0425146101a4578063c502607f146101d4578063e953647214610210578063f4856ccb1461024057610085565b80631069143a14610089578063458ad6d4146100b35780639416b423146100f0578063a45f379e1461012c575b5f80fd5b348015610094575f80fd5b5061009d61027c565b6040516100aa9190612192565b60405180910390f35b3480156100be575f80fd5b506100d960048036038101906100d491906122ff565b6103f0565b6040516100e7929190612424565b60405180910390f35b3480156100fb575f80fd5b50610116600480360381019061011191906122ff565b61053e565b60405161012391906124d3565b60405180910390f35b348015610137575f80fd5b50610152600480360381019061014d91906122ff565b610729565b60405161015f919061250d565b60405180910390f35b348015610173575f80fd5b5061018e600480360381019061018991906125c4565b61073a565b60405161019b919061268c565b60405180910390f35b6101be60048036038101906101b991906125c4565b61131a565b6040516101cb919061268c565b60405180910390f35b3480156101df575f80fd5b506101fa60048036038101906101f591906122ff565b61191a565b604051610207919061250d565b60405180910390f35b61022a600480360381019061022591906125c4565b611a8e565b604051610237919061268c565b60405180910390f35b34801561024b575f80fd5b50610266600480360381019061026191906126cf565b611f17565b60405161027391906127fd565b60405180910390f35b60605f600467ffffffffffffffff81111561029a576102996121db565b5b6040519080825280602002602001820160405280156102c85781602001602082028036833780820191505090505b5090505f815f815181106102df576102de61281d565b5b602002602001019060038111156102f9576102f86120a0565b5b9081600381111561030d5761030c6120a0565b5b815250506001816001815181106103275761032661281d565b5b60200260200101906003811115610341576103406120a0565b5b90816003811115610355576103546120a0565b5b8152505060028160028151811061036f5761036e61281d565b5b60200260200101906003811115610389576103886120a0565b5b9081600381111561039d5761039c6120a0565b5b815250506003816003815181106103b7576103b661281d565b5b602002602001019060038111156103d1576103d06120a0565b5b908160038111156103e5576103e46120a0565b5b815250508091505090565b6060806001836040516104039190612884565b90815260200160405180910390206002846040516104219190612884565b9081526020016040518091039020818054806020026020016040519081016040528092919081815260200182805480156104ab57602002820191905f5260205f20905f905b82829054906101000a900460ff1660c6811115610486576104856120a0565b5b815260200190600101906020825f010492830192600103820291508084116104665790505b505050505091508080548060200260200160405190810160405280929190818152602001828054801561052e57602002820191905f5260205f20905f905b82829054906101000a900460ff1660c6811115610509576105086120a0565b5b815260200190600101906020825f010492830192600103820291508084116104e95790505b5050505050905091509150915091565b60605f8290505f815167ffffffffffffffff8111156105605761055f6121db565b5b6040519080825280601f01601f1916602001820160405280156105925781602001600182028036833780820191505090505b5090505f5b825181101561071e57604160f81b8382815181106105b8576105b761281d565b5b602001015160f81c60f81b7effffffffffffffffffffffffffffffffffffffffffffffffffffffffffffff1916101580156106365750605a60f81b8382815181106106065761060561281d565b5b602001015160f81c60f81b7effffffffffffffffffffffffffffffffffffffffffffffffffffffffffffff191611155b156106b15760208382815181106106505761064f61281d565b5b602001015160f81c60f81b60f81c61066891906128d3565b60f81b82828151811061067e5761067d61281d565b5b60200101907effffffffffffffffffffffffffffffffffffffffffffffffffffffffffffff191690815f1a905350610711565b8281815181106106c4576106c361281d565b5b602001015160f81c60f81b8282815181106106e2576106e161281d565b5b60200101907effffffffffffffffffffffffffffffffffffffffffffffffffffffffffffff191690815f1a9053505b8080600101915050610597565b508092505050919050565b5f808290505f815114915050919050565b606061077b836040518060400160405280601681526020017f67657455736572496e666f42794164647265737365730000000000000000000081525061201f565b15610c5a575f828060200190518101906107959190612a25565b90505f815167ffffffffffffffff8111156107b3576107b26121db565b5b6040519080825280602002602001820160405280156107e657816020015b60608152602001906001900390816107d15790505b5090505f825167ffffffffffffffff811115610805576108046121db565b5b60405190808252806020026020018201604052801561083857816020015b60608152602001906001900390816108235790505b5090505f835167ffffffffffffffff811115610857576108566121db565b5b60405190808252806020026020018201604052801561088a57816020015b60608152602001906001900390816108755790505b5090505f845167ffffffffffffffff8111156108a9576108a86121db565b5b6040519080825280602002602001820160405280156108dc57816020015b60608152602001906001900390816108c75790505b5090505f5b8551811015610c27575f60035f8884815181106109015761090061281d565b5b602002602001015173ffffffffffffffffffffffffffffffffffffffff1673ffffffffffffffffffffffffffffffffffffffff1681526020019081526020015f206040518060800160405290815f8201805461095c90612a99565b80601f016020809104026020016040519081016040528092919081815260200182805461098890612a99565b80156109d35780601f106109aa576101008083540402835291602001916109d3565b820191905f5260205f20905b8154815290600101906020018083116109b657829003601f168201915b505050505081526020016001820180546109ec90612a99565b80601f0160208091040260200160405190810160405280929190818152602001828054610a1890612a99565b8015610a635780601f10610a3a57610100808354040283529160200191610a63565b820191905f5260205f20905b815481529060010190602001808311610a4657829003601f168201915b50505050508152602001600282018054610a7c90612a99565b80601f0160208091040260200160405190810160405280929190818152602001828054610aa890612a99565b8015610af35780601f10610aca57610100808354040283529160200191610af3565b820191905f5260205f20905b815481529060010190602001808311610ad657829003601f168201915b50505050508152602001600382018054610b0c90612a99565b80601f0160208091040260200160405190810160405280929190818152602001828054610b3890612a99565b8015610b835780601f10610b5a57610100808354040283529160200191610b83565b820191905f5260205f20905b815481529060010190602001808311610b6657829003601f168201915b5050505050815250509050805f0151868381518110610ba557610ba461281d565b5b60200260200101819052508060200151858381518110610bc857610bc761281d565b5b60200260200101819052508060400151848381518110610beb57610bea61281d565b5b60200260200101819052508060600151838381518110610c0e57610c0d61281d565b5b60200260200101819052505080806001019150506108e1565b5083838383604051602001610c3f9493929190612ac9565b60405160208183030381529060405295505050505050611314565b610c99836040518060400160405280601481526020017f67657455736572496e666f427948616e646c657300000000000000000000000081525061201f565b15611233575f82806020019051810190610cb39190612c74565b90505f815167ffffffffffffffff811115610cd157610cd06121db565b5b604051908082528060200260200182016040528015610cff5781602001602082028036833780820191505090505b5090505f825167ffffffffffffffff811115610d1e57610d1d6121db565b5b604051908082528060200260200182016040528015610d5157816020015b6060815260200190600190039081610d3c5790505b5090505f835167ffffffffffffffff811115610d7057610d6f6121db565b5b604051908082528060200260200182016040528015610da357816020015b6060815260200190600190039081610d8e5790505b5090505f845167ffffffffffffffff811115610dc257610dc16121db565b5b604051908082528060200260200182016040528015610df557816020015b6060815260200190600190039081610de05790505b5090505f5b8551811015611200575f60035f6004898581518110610e1c57610e1b61281d565b5b6020026020010151604051610e319190612884565b90815260200160405180910390205f9054906101000a900473ffffffffffffffffffffffffffffffffffffffff1673ffffffffffffffffffffffffffffffffffffffff1673ffffffffffffffffffffffffffffffffffffffff1681526020019081526020015f206040518060800160405290815f82018054610eb290612a99565b80601f0160208091040260200160405190810160405280929190818152602001828054610ede90612a99565b8015610f295780601f10610f0057610100808354040283529160200191610f29565b820191905f5260205f20905b815481529060010190602001808311610f0c57829003601f168201915b50505050508152602001600182018054610f4290612a99565b80601f0160208091040260200160405190810160405280929190818152602001828054610f6e90612a99565b8015610fb95780601f10610f9057610100808354040283529160200191610fb9565b820191905f5260205f20905b815481529060010190602001808311610f9c57829003601f168201915b50505050508152602001600282018054610fd290612a99565b80601f0160208091040260200160405190810160405280929190818152602001828054610ffe90612a99565b80156110495780601f1061102057610100808354040283529160200191611049565b820191905f5260205f20905b81548152906001019060200180831161102c57829003601f168201915b5050505050815260200160038201805461106290612a99565b80601f016020809104026020016040519081016040528092919081815260200182805461108e90612a99565b80156110d95780601f106110b0576101008083540402835291602001916110d9565b820191905f5260205f20905b8154815290600101906020018083116110bc57829003601f168201915b505050505081525050905060048783815181106110f9576110f861281d565b5b602002602001015160405161110e9190612884565b90815260200160405180910390205f9054906101000a900473ffffffffffffffffffffffffffffffffffffffff1686838151811061114f5761114e61281d565b5b602002602001019073ffffffffffffffffffffffffffffffffffffffff16908173ffffffffffffffffffffffffffffffffffffffff168152505080602001518583815181106111a1576111a061281d565b5b602002602001018190525080604001518483815181106111c4576111c361281d565b5b602002602001018190525080606001518383815181106111e7576111e661281d565b5b6020026020010181905250508080600101915050610dfa565b50838383836040516020016112189493929190612d72565b60405160208183030381529060405295505050505050611314565b611272836040518060400160405280601281526020017f67657441646472657373427948616e646c65000000000000000000000000000081525061201f565b156112f3575f8280602001905181019061128c9190612dd1565b905060048160405161129e9190612884565b90815260200160405180910390205f9054906101000a900473ffffffffffffffffffffffffffffffffffffffff166040516020016112dc9190612e27565b604051602081830303815290604052915050611314565b60405160200161130290612e63565b60405160208183030381529060405290505b92915050565b606061135b836040518060400160405280600a81526020017f637265617465557365720000000000000000000000000000000000000000000081525061201f565b156118f3575f805f80858060200190518101906113789190612e81565b93509350935093506113898461191a565b6113c8576040517f08c379a00000000000000000000000000000000000000000000000000000000081526004016113bf90612f9f565b60405180910390fd5b5f60035f3373ffffffffffffffffffffffffffffffffffffffff1673ffffffffffffffffffffffffffffffffffffffff1681526020019081526020015f206040518060800160405290815f8201805461142090612a99565b80601f016020809104026020016040519081016040528092919081815260200182805461144c90612a99565b80156114975780601f1061146e57610100808354040283529160200191611497565b820191905f5260205f20905b81548152906001019060200180831161147a57829003601f168201915b505050505081526020016001820180546114b090612a99565b80601f01602080910402602001604051908101604052809291908181526020018280546114dc90612a99565b80156115275780601f106114fe57610100808354040283529160200191611527565b820191905f5260205f20905b81548152906001019060200180831161150a57829003601f168201915b5050505050815260200160028201805461154090612a99565b80601f016020809104026020016040519081016040528092919081815260200182805461156c90612a99565b80156115b75780601f1061158e576101008083540402835291602001916115b7565b820191905f5260205f20905b81548152906001019060200180831161159a57829003601f168201915b505050505081526020016003820180546115d090612a99565b80601f01602080910402602001604051908101604052809291908181526020018280546115fc90612a99565b80156116475780601f1061161e57610100808354040283529160200191611647565b820191905f5260205f20905b81548152906001019060200180831161162a57829003601f168201915b50505050508152505090505f73ffffffffffffffffffffffffffffffffffffffff166004866040516116799190612884565b90815260200160405180910390205f9054906101000a900473ffffffffffffffffffffffffffffffffffffffff1673ffffffffffffffffffffffffffffffffffffffff16146116fd576040517f08c379a00000000000000000000000000000000000000000000000000000000081526004016116f490613007565b60405180910390fd5b611709815f0151610729565b1561188e5760405180608001604052808681526020018581526020018481526020018381525060035f3373ffffffffffffffffffffffffffffffffffffffff1673ffffffffffffffffffffffffffffffffffffffff1681526020019081526020015f205f820151815f01908161177f91906131cb565b50602082015181600101908161179591906131cb565b5060408201518160020190816117ab91906131cb565b5060608201518160030190816117c191906131cb565b50905050336004866040516117d69190612884565b90815260200160405180910390205f6101000a81548173ffffffffffffffffffffffffffffffffffffffff021916908373ffffffffffffffffffffffffffffffffffffffff1602179055508460405161182f9190612884565b60405180910390203373ffffffffffffffffffffffffffffffffffffffff167f1c4834c8729cca3a7ea1e1c19a12ce6721cb054f67cb6590e733a2bb4b8be85a8686866040516118819392919061329a565b60405180910390a36118c9565b6040517f08c379a00000000000000000000000000000000000000000000000000000000081526004016118c09061332e565b60405180910390fd5b6040516020016118d890612e63565b60405160208183030381529060405295505050505050611914565b60405160200161190290612e63565b60405160208183030381529060405290505b92915050565b5f808290505f8151148061192f575060148151115b1561193d575f915050611a89565b5f5b8151811015611a82575f82828151811061195c5761195b61281d565b5b602001015160f81c60f81b9050606160f81b817effffffffffffffffffffffffffffffffffffffffffffffffffffffffffffff1916101580156119c55750607a60f81b817effffffffffffffffffffffffffffffffffffffffffffffffffffffffffffff191611155b156119d05750611a75565b603060f81b817effffffffffffffffffffffffffffffffffffffffffffffffffffffffffffff191610158015611a2c5750603960f81b817effffffffffffffffffffffffffffffffffffffffffffffffffffffffffffff191611155b15611a375750611a75565b605f60f81b817effffffffffffffffffffffffffffffffffffffffffffffffffffffffffffff191603611a6a5750611a75565b5f9350505050611a89565b808060010191505061193f565b5060019150505b919050565b6060611acf836040518060400160405280600e81526020017f75706461746555736572496e666f00000000000000000000000000000000000081525061201f565b15611eed575f60035f3373ffffffffffffffffffffffffffffffffffffffff1673ffffffffffffffffffffffffffffffffffffffff1681526020019081526020015f206040518060800160405290815f82018054611b2c90612a99565b80601f0160208091040260200160405190810160405280929190818152602001828054611b5890612a99565b8015611ba35780601f10611b7a57610100808354040283529160200191611ba3565b820191905f5260205f20905b815481529060010190602001808311611b8657829003601f168201915b50505050508152602001600182018054611bbc90612a99565b80601f0160208091040260200160405190810160405280929190818152602001828054611be890612a99565b8015611c335780601f10611c0a57610100808354040283529160200191611c33565b820191905f5260205f20905b815481529060010190602001808311611c1657829003601f168201915b50505050508152602001600282018054611c4c90612a99565b80601f0160208091040260200160405190810160405280929190818152602001828054611c7890612a99565b8015611cc35780601f10611c9a57610100808354040283529160200191611cc3565b820191905f5260205f20905b815481529060010190602001808311611ca657829003601f168201915b50505050508152602001600382018054611cdc90612a99565b80601f0160208091040260200160405190810160405280929190818152602001828054611d0890612a99565b8015611d535780601f10611d2a57610100808354040283529160200191611d53565b820191905f5260205f20905b815481529060010190602001808311611d3657829003601f168201915b5050505050815250509050611d6a815f0151610729565b611eb0575f805f85806020019051810190611d85919061334c565b9250925092508284602001819052508184604001819052508084606001819052508360035f3373ffffffffffffffffffffffffffffffffffffffff1673ffffffffffffffffffffffffffffffffffffffff1681526020019081526020015f205f820151815f019081611df791906131cb565b506020820151816001019081611e0d91906131cb565b506040820151816002019081611e2391906131cb565b506060820151816003019081611e3991906131cb565b50905050835f0151604051611e4e9190612884565b60405180910390203373ffffffffffffffffffffffffffffffffffffffff167f1c4834c8729cca3a7ea1e1c19a12ce6721cb054f67cb6590e733a2bb4b8be85a858585604051611ea09392919061329a565b60405180910390a3505050611eeb565b6040517f08c379a0000000000000000000000000000000000000000000000000000000008152600401611ee29061343a565b60405180910390fd5b505b8282604051602001611f00929190613458565b604051602081830303815290604052905092915050565b60605f80836003811115611f2e57611f2d6120a0565b5b6003811115611f4057611f3f6120a0565b5b81526020019081526020015f20805480602002602001604051908101604052809291908181526020015f905b82821015612014578382905f5260205f20018054611f8990612a99565b80601f0160208091040260200160405190810160405280929190818152602001828054611fb590612a99565b80156120005780601f10611fd757610100808354040283529160200191612000565b820191905f5260205f20905b815481529060010190602001808311611fe357829003601f168201915b505050505081526020019060010190611f6c565b505050509050919050565b5f816040516020016120319190612884565b60405160208183030381529060405280519060200120836040516020016120589190612884565b6040516020818303038152906040528051906020012014905092915050565b5f81519050919050565b5f82825260208201905092915050565b5f819050602082019050919050565b7f4e487b71000000000000000000000000000000000000000000000000000000005f52602160045260245ffd5b600481106120de576120dd6120a0565b5b50565b5f8190506120ee826120cd565b919050565b5f6120fd826120e1565b9050919050565b61210d816120f3565b82525050565b5f61211e8383612104565b60208301905092915050565b5f602082019050919050565b5f61214082612077565b61214a8185612081565b935061215583612091565b805f5b8381101561218557815161216c8882612113565b97506121778361212a565b925050600181019050612158565b5085935050505092915050565b5f6020820190508181035f8301526121aa8184612136565b905092915050565b5f604051905090565b5f80fd5b5f80fd5b5f80fd5b5f80fd5b5f601f19601f8301169050919050565b7f4e487b71000000000000000000000000000000000000000000000000000000005f52604160045260245ffd5b612211826121cb565b810181811067ffffffffffffffff821117156122305761222f6121db565b5b80604052505050565b5f6122426121b2565b905061224e8282612208565b919050565b5f67ffffffffffffffff82111561226d5761226c6121db565b5b612276826121cb565b9050602081019050919050565b828183375f83830152505050565b5f6122a361229e84612253565b612239565b9050828152602081018484840111156122bf576122be6121c7565b5b6122ca848285612283565b509392505050565b5f82601f8301126122e6576122e56121c3565b5b81356122f6848260208601612291565b91505092915050565b5f60208284031215612314576123136121bb565b5b5f82013567ffffffffffffffff811115612331576123306121bf565b5b61233d848285016122d2565b91505092915050565b5f81519050919050565b5f819050602082019050919050565b60c781106123705761236f6120a0565b5b50565b5f8190506123808261235f565b919050565b5f61238f82612373565b9050919050565b61239f81612385565b82525050565b5f6123b08383612396565b60208301905092915050565b5f602082019050919050565b5f6123d282612346565b6123dc8185612081565b93506123e783612350565b805f5b838110156124175781516123fe88826123a5565b9750612409836123bc565b9250506001810190506123ea565b5085935050505092915050565b5f6040820190508181035f83015261243c81856123c8565b9050818103602083015261245081846123c8565b90509392505050565b5f81519050919050565b5f82825260208201905092915050565b5f5b83811015612490578082015181840152602081019050612475565b5f8484015250505050565b5f6124a582612459565b6124af8185612463565b93506124bf818560208601612473565b6124c8816121cb565b840191505092915050565b5f6020820190508181035f8301526124eb818461249b565b905092915050565b5f8115159050919050565b612507816124f3565b82525050565b5f6020820190506125205f8301846124fe565b92915050565b5f67ffffffffffffffff8211156125405761253f6121db565b5b612549826121cb565b9050602081019050919050565b5f61256861256384612526565b612239565b905082815260208101848484011115612584576125836121c7565b5b61258f848285612283565b509392505050565b5f82601f8301126125ab576125aa6121c3565b5b81356125bb848260208601612556565b91505092915050565b5f80604083850312156125da576125d96121bb565b5b5f83013567ffffffffffffffff8111156125f7576125f66121bf565b5b612603858286016122d2565b925050602083013567ffffffffffffffff811115612624576126236121bf565b5b61263085828601612597565b9150509250929050565b5f81519050919050565b5f82825260208201905092915050565b5f61265e8261263a565b6126688185612644565b9350612678818560208601612473565b612681816121cb565b840191505092915050565b5f6020820190508181035f8301526126a48184612654565b905092915050565b600481106126b8575f80fd5b50565b5f813590506126c9816126ac565b92915050565b5f602082840312156126e4576126e36121bb565b5b5f6126f1848285016126bb565b91505092915050565b5f81519050919050565b5f82825260208201905092915050565b5f819050602082019050919050565b5f82825260208201905092915050565b5f61273d82612459565b6127478185612723565b9350612757818560208601612473565b612760816121cb565b840191505092915050565b5f6127768383612733565b905092915050565b5f602082019050919050565b5f612794826126fa565b61279e8185612704565b9350836020820285016127b085612714565b805f5b858110156127eb57848403895281516127cc858261276b565b94506127d78361277e565b925060208a019950506001810190506127b3565b50829750879550505050505092915050565b5f6020820190508181035f830152612815818461278a565b905092915050565b7f4e487b71000000000000000000000000000000000000000000000000000000005f52603260045260245ffd5b5f81905092915050565b5f61285e82612459565b612868818561284a565b9350612878818560208601612473565b80840191505092915050565b5f61288f8284612854565b915081905092915050565b5f60ff82169050919050565b7f4e487b71000000000000000000000000000000000000000000000000000000005f52601160045260245ffd5b5f6128dd8261289a565b91506128e88361289a565b9250828201905060ff811115612901576129006128a6565b5b92915050565b5f67ffffffffffffffff821115612921576129206121db565b5b602082029050602081019050919050565b5f80fd5b5f73ffffffffffffffffffffffffffffffffffffffff82169050919050565b5f61295f82612936565b9050919050565b61296f81612955565b8114612979575f80fd5b50565b5f8151905061298a81612966565b92915050565b5f6129a261299d84612907565b612239565b905080838252602082019050602084028301858111156129c5576129c4612932565b5b835b818110156129ee57806129da888261297c565b8452602084019350506020810190506129c7565b5050509392505050565b5f82601f830112612a0c57612a0b6121c3565b5b8151612a1c848260208601612990565b91505092915050565b5f60208284031215612a3a57612a396121bb565b5b5f82015167ffffffffffffffff811115612a5757612a566121bf565b5b612a63848285016129f8565b91505092915050565b7f4e487b71000000000000000000000000000000000000000000000000000000005f52602260045260245ffd5b5f6002820490506001821680612ab057607f821691505b602082108103612ac357612ac2612a6c565b5b50919050565b5f6080820190508181035f830152612ae1818761278a565b90508181036020830152612af5818661278a565b90508181036040830152612b09818561278a565b90508181036060830152612b1d818461278a565b905095945050505050565b5f67ffffffffffffffff821115612b4257612b416121db565b5b602082029050602081019050919050565b5f612b65612b6084612253565b612239565b905082815260208101848484011115612b8157612b806121c7565b5b612b8c848285612473565b509392505050565b5f82601f830112612ba857612ba76121c3565b5b8151612bb8848260208601612b53565b91505092915050565b5f612bd3612bce84612b28565b612239565b90508083825260208201905060208402830185811115612bf657612bf5612932565b5b835b81811015612c3d57805167ffffffffffffffff811115612c1b57612c1a6121c3565b5b808601612c288982612b94565b85526020850194505050602081019050612bf8565b5050509392505050565b5f82601f830112612c5b57612c5a6121c3565b5b8151612c6b848260208601612bc1565b91505092915050565b5f60208284031215612c8957612c886121bb565b5b5f82015167ffffffffffffffff811115612ca657612ca56121bf565b5b612cb284828501612c47565b91505092915050565b5f81519050919050565b5f82825260208201905092915050565b5f819050602082019050919050565b612ced81612955565b82525050565b5f612cfe8383612ce4565b60208301905092915050565b5f602082019050919050565b5f612d2082612cbb565b612d2a8185612cc5565b9350612d3583612cd5565b805f5b83811015612d65578151612d4c8882612cf3565b9750612d5783612d0a565b925050600181019050612d38565b5085935050505092915050565b5f6080820190508181035f830152612d8a8187612d16565b90508181036020830152612d9e818661278a565b90508181036040830152612db2818561278a565b90508181036060830152612dc6818461278a565b905095945050505050565b5f60208284031215612de657612de56121bb565b5b5f82015167ffffffffffffffff811115612e0357612e026121bf565b5b612e0f84828501612b94565b91505092915050565b612e2181612955565b82525050565b5f602082019050612e3a5f830184612e18565b92915050565b50565b5f612e4e5f83612463565b9150612e5982612e40565b5f82019050919050565b5f6020820190508181035f830152612e7a81612e43565b9050919050565b5f805f8060808587031215612e9957612e986121bb565b5b5f85015167ffffffffffffffff811115612eb657612eb56121bf565b5b612ec287828801612b94565b945050602085015167ffffffffffffffff811115612ee357612ee26121bf565b5b612eef87828801612b94565b935050604085015167ffffffffffffffff811115612f1057612f0f6121bf565b5b612f1c87828801612b94565b925050606085015167ffffffffffffffff811115612f3d57612f3c6121bf565b5b612f4987828801612b94565b91505092959194509250565b7f68616e646c6520697320696e76616c69640000000000000000000000000000005f82015250565b5f612f89601183612463565b9150612f9482612f55565b602082019050919050565b5f6020820190508181035f830152612fb681612f7d565b9050919050565b7f7468652068616e646c6520686173206265656e207265676973746572656400005f82015250565b5f612ff1601e83612463565b9150612ffc82612fbd565b602082019050919050565b5f6020820190508181035f83015261301e81612fe5565b9050919050565b5f819050815f5260205f209050919050565b5f6020601f8301049050919050565b5f82821b905092915050565b5f600883026130817fffffffffffffffffffffffffffffffffffffffffffffffffffffffffffffffff82613046565b61308b8683613046565b95508019841693508086168417925050509392505050565b5f819050919050565b5f819050919050565b5f6130cf6130ca6130c5846130a3565b6130ac565b6130a3565b9050919050565b5f819050919050565b6130e8836130b5565b6130fc6130f4826130d6565b848454613052565b825550505050565b5f90565b613110613104565b61311b8184846130df565b505050565b5b8181101561313e576131335f82613108565b600181019050613121565b5050565b601f8211156131835761315481613025565b61315d84613037565b8101602085101561316c578190505b61318061317885613037565b830182613120565b50505b505050565b5f82821c905092915050565b5f6131a35f1984600802613188565b1980831691505092915050565b5f6131bb8383613194565b9150826002028217905092915050565b6131d482612459565b67ffffffffffffffff8111156131ed576131ec6121db565b5b6131f78254612a99565b613202828285613142565b5f60209050601f831160018114613233575f8415613221578287015190505b61322b85826131b0565b865550613292565b601f19841661324186613025565b5f5b8281101561326857848901518255600182019150602085019450602081019050613243565b868310156132855784890151613281601f891682613194565b8355505b6001600288020188555050505b505050505050565b5f6060820190508181035f8301526132b2818661249b565b905081810360208301526132c6818561249b565b905081810360408301526132da818461249b565b9050949350505050565b7f75736572206861732072656769737465726564000000000000000000000000005f82015250565b5f613318601383612463565b9150613323826132e4565b602082019050919050565b5f6020820190508181035f8301526133458161330c565b9050919050565b5f805f60608486031215613363576133626121bb565b5b5f84015167ffffffffffffffff8111156133805761337f6121bf565b5b61338c86828701612b94565b935050602084015167ffffffffffffffff8111156133ad576133ac6121bf565b5b6133b986828701612b94565b925050604084015167ffffffffffffffff8111156133da576133d96121bf565b5b6133e686828701612b94565b9150509250925092565b7f7468652075736572206973206e6f7420726567697374657265640000000000005f82015250565b5f613424601a83612463565b915061342f826133f0565b602082019050919050565b5f6020820190508181035f83015261345181613418565b9050919050565b5f6040820190508181035f830152613470818561249b565b905081810360208301526134848184612654565b9050939250505056fea26469706673582212208f197bdd09f7fa16320790e71bec005936d55bf04cdff8ea67d16456152485ae64736f6c63430008160033",
			"opcodes": "PUSH1 0x80 PUSH1 0x40 MSTORE CALLVALUE DUP1 ISZERO PUSH3 0x10 JUMPI PUSH0 DUP1 REVERT JUMPDEST POP PUSH0 PUSH1 0x4 PUSH8 0xFFFFFFFFFFFFFFFF DUP2 GT ISZERO PUSH3 0x30 JUMPI PUSH3 0x2F PUSH3 0xC61 JUMP JUMPDEST JUMPDEST PUSH1 0x40 MLOAD SWAP1 DUP1 DUP3 MSTORE DUP1 PUSH1 0x20 MUL PUSH1 0x20 ADD DUP3 ADD PUSH1 0x40 MSTORE DUP1 ISZERO PUSH3 0x5F JUMPI DUP2 PUSH1 0x20 ADD PUSH1 0x20 DUP3 MUL DUP1 CALLDATASIZE DUP4 CALLDATACOPY DUP1 DUP3 ADD SWAP2 POP POP SWAP1 POP JUMPDEST POP SWAP1 POP PUSH1 0x63 DUP2 PUSH0 DUP2 MLOAD DUP2 LT PUSH3 0x7A JUMPI PUSH3 0x79 PUSH3 0xC8E JUMP JUMPDEST JUMPDEST PUSH1 0x20 MUL PUSH1 0x20 ADD ADD SWAP1 PUSH1 0xC6 DUP2 GT ISZERO PUSH3 0x97 JUMPI PUSH3 0x96 PUSH3 0xCBB JUMP JUMPDEST JUMPDEST SWAP1 DUP2 PUSH1 0xC6 DUP2 GT ISZERO PUSH3 0xAE JUMPI PUSH3 0xAD PUSH3 0xCBB JUMP JUMPDEST JUMPDEST DUP2 MSTORE POP POP PUSH1 0x63 DUP2 PUSH1 0x1 DUP2 MLOAD DUP2 LT PUSH3 0xCB JUMPI PUSH3 0xCA PUSH3 0xC8E JUMP JUMPDEST JUMPDEST PUSH1 0x20 MUL PUSH1 0x20 ADD ADD SWAP1 PUSH1 0xC6 DUP2 GT ISZERO PUSH3 0xE8 JUMPI PUSH3 0xE7 PUSH3 0xCBB JUMP JUMPDEST JUMPDEST SWAP1 DUP2 PUSH1 0xC6 DUP2 GT ISZERO PUSH3 0xFF JUMPI PUSH3 0xFE PUSH3 0xCBB JUMP JUMPDEST JUMPDEST DUP2 MSTORE POP POP PUSH1 0x63 DUP2 PUSH1 0x2 DUP2 MLOAD DUP2 LT PUSH3 0x11C JUMPI PUSH3 0x11B PUSH3 0xC8E JUMP JUMPDEST JUMPDEST PUSH1 0x20 MUL PUSH1 0x20 ADD ADD SWAP1 PUSH1 0xC6 DUP2 GT ISZERO PUSH3 0x139 JUMPI PUSH3 0x138 PUSH3 0xCBB JUMP JUMPDEST JUMPDEST SWAP1 DUP2 PUSH1 0xC6 DUP2 GT ISZERO PUSH3 0x150 JUMPI PUSH3 0x14F PUSH3 0xCBB JUMP JUMPDEST JUMPDEST DUP2 MSTORE POP POP PUSH1 0x63 DUP2 PUSH1 0x3 DUP2 MLOAD DUP2 LT PUSH3 0x16D JUMPI PUSH3 0x16C PUSH3 0xC8E JUMP JUMPDEST JUMPDEST PUSH1 0x20 MUL PUSH1 0x20 ADD ADD SWAP1 PUSH1 0xC6 DUP2 GT ISZERO PUSH3 0x18A JUMPI PUSH3 0x189 PUSH3 0xCBB JUMP JUMPDEST JUMPDEST SWAP1 DUP2 PUSH1 0xC6 DUP2 GT ISZERO PUSH3 0x1A1 JUMPI PUSH3 0x1A0 PUSH3 0xCBB JUMP JUMPDEST JUMPDEST DUP2 MSTORE POP POP PUSH0 PUSH1 0x3 PUSH8 0xFFFFFFFFFFFFFFFF DUP2 GT ISZERO PUSH3 0x1C4 JUMPI PUSH3 0x1C3 PUSH3 0xC61 JUMP JUMPDEST JUMPDEST PUSH1 0x40 MLOAD SWAP1 DUP1 DUP3 MSTORE DUP1 PUSH1 0x20 MUL PUSH1 0x20 ADD DUP3 ADD PUSH1 0x40 MSTORE DUP1 ISZERO PUSH3 0x1F3 JUMPI DUP2 PUSH1 0x20 ADD PUSH1 0x20 DUP3 MUL DUP1 CALLDATASIZE DUP4 CALLDATACOPY DUP1 DUP3 ADD SWAP2 POP POP SWAP1 POP JUMPDEST POP SWAP1 POP PUSH1 0x63 DUP2 PUSH0 DUP2 MLOAD DUP2 LT PUSH3 0x20E JUMPI PUSH3 0x20D PUSH3 0xC8E JUMP JUMPDEST JUMPDEST PUSH1 0x20 MUL PUSH1 0x20 ADD ADD SWAP1 PUSH1 0xC6 DUP2 GT ISZERO PUSH3 0x22B JUMPI PUSH3 0x22A PUSH3 0xCBB JUMP JUMPDEST JUMPDEST SWAP1 DUP2 PUSH1 0xC6 DUP2 GT ISZERO PUSH3 0x242 JUMPI PUSH3 0x241 PUSH3 0xCBB JUMP JUMPDEST JUMPDEST DUP2 MSTORE POP POP PUSH1 0x63 DUP2 PUSH1 0x1 DUP2 MLOAD DUP2 LT PUSH3 0x25F JUMPI PUSH3 0x25E PUSH3 0xC8E JUMP JUMPDEST JUMPDEST PUSH1 0x20 MUL PUSH1 0x20 ADD ADD SWAP1 PUSH1 0xC6 DUP2 GT ISZERO PUSH3 0x27C JUMPI PUSH3 0x27B PUSH3 0xCBB JUMP JUMPDEST JUMPDEST SWAP1 DUP2 PUSH1 0xC6 DUP2 GT ISZERO PUSH3 0x293 JUMPI PUSH3 0x292 PUSH3 0xCBB JUMP JUMPDEST JUMPDEST DUP2 MSTORE POP POP PUSH1 0x63 DUP2 PUSH1 0x2 DUP2 MLOAD DUP2 LT PUSH3 0x2B0 JUMPI PUSH3 0x2AF PUSH3 0xC8E JUMP JUMPDEST JUMPDEST PUSH1 0x20 MUL PUSH1 0x20 ADD ADD SWAP1 PUSH1 0xC6 DUP2 GT ISZERO PUSH3 0x2CD JUMPI PUSH3 0x2CC PUSH3 0xCBB JUMP JUMPDEST JUMPDEST SWAP1 DUP2 PUSH1 0xC6 DUP2 GT ISZERO PUSH3 0x2E4 JUMPI PUSH3 0x2E3 PUSH3 0xCBB JUMP JUMPDEST JUMPDEST DUP2 MSTORE POP POP PUSH0 PUSH1 0x1 PUSH8 0xFFFFFFFFFFFFFFFF DUP2 GT ISZERO PUSH3 0x307 JUMPI PUSH3 0x306 PUSH3 0xC61 JUMP JUMPDEST JUMPDEST PUSH1 0x40 MLOAD SWAP1 DUP1 DUP3 MSTORE DUP1 PUSH1 0x20 MUL PUSH1 0x20 ADD DUP3 ADD PUSH1 0x40 MSTORE DUP1 ISZERO PUSH3 0x336 JUMPI DUP2 PUSH1 0x20 ADD PUSH1 0x20 DUP3 MUL DUP1 CALLDATASIZE DUP4 CALLDATACOPY DUP1 DUP3 ADD SWAP2 POP POP SWAP1 POP JUMPDEST POP SWAP1 POP PUSH1 0xA4 DUP2 PUSH0 DUP2 MLOAD DUP2 LT PUSH3 0x351 JUMPI PUSH3 0x350 PUSH3 0xC8E JUMP JUMPDEST JUMPDEST PUSH1 0x20 MUL PUSH1 0x20 ADD ADD SWAP1 PUSH1 0xC6 DUP2 GT ISZERO PUSH3 0x36E JUMPI PUSH3 0x36D PUSH3 0xCBB JUMP JUMPDEST JUMPDEST SWAP1 DUP2 PUSH1 0xC6 DUP2 GT ISZERO PUSH3 0x385 JUMPI PUSH3 0x384 PUSH3 0xCBB JUMP JUMPDEST JUMPDEST DUP2 MSTORE POP POP PUSH0 PUSH1 0x4 PUSH8 0xFFFFFFFFFFFFFFFF DUP2 GT ISZERO PUSH3 0x3A8 JUMPI PUSH3 0x3A7 PUSH3 0xC61 JUMP JUMPDEST JUMPDEST PUSH1 0x40 MLOAD SWAP1 DUP1 DUP3 MSTORE DUP1 PUSH1 0x20 MUL PUSH1 0x20 ADD DUP3 ADD PUSH1 0x40 MSTORE DUP1 ISZERO PUSH3 0x3D7 JUMPI DUP2 PUSH1 0x20 ADD PUSH1 0x20 DUP3 MUL DUP1 CALLDATASIZE DUP4 CALLDATACOPY DUP1 DUP3 ADD SWAP2 POP POP SWAP1 POP JUMPDEST POP SWAP1 POP PUSH1 0xC6 DUP2 PUSH0 DUP2 MLOAD DUP2 LT PUSH3 0x3F2 JUMPI PUSH3 0x3F1 PUSH3 0xC8E JUMP JUMPDEST JUMPDEST PUSH1 0x20 MUL PUSH1 0x20 ADD ADD SWAP1 PUSH1 0xC6 DUP2 GT ISZERO PUSH3 0x40F JUMPI PUSH3 0x40E PUSH3 0xCBB JUMP JUMPDEST JUMPDEST SWAP1 DUP2 PUSH1 0xC6 DUP2 GT ISZERO PUSH3 0x426 JUMPI PUSH3 0x425 PUSH3 0xCBB JUMP JUMPDEST JUMPDEST DUP2 MSTORE POP POP PUSH1 0xC6 DUP2 PUSH1 0x1 DUP2 MLOAD DUP2 LT PUSH3 0x443 JUMPI PUSH3 0x442 PUSH3 0xC8E JUMP JUMPDEST JUMPDEST PUSH1 0x20 MUL PUSH1 0x20 ADD ADD SWAP1 PUSH1 0xC6 DUP2 GT ISZERO PUSH3 0x460 JUMPI PUSH3 0x45F PUSH3 0xCBB JUMP JUMPDEST JUMPDEST SWAP1 DUP2 PUSH1 0xC6 DUP2 GT ISZERO PUSH3 0x477 JUMPI PUSH3 0x476 PUSH3 0xCBB JUMP JUMPDEST JUMPDEST DUP2 MSTORE POP POP PUSH1 0xC6 DUP2 PUSH1 0x2 DUP2 MLOAD DUP2 LT PUSH3 0x494 JUMPI PUSH3 0x493 PUSH3 0xC8E JUMP JUMPDEST JUMPDEST PUSH1 0x20 MUL PUSH1 0x20 ADD ADD SWAP1 PUSH1 0xC6 DUP2 GT ISZERO PUSH3 0x4B1 JUMPI PUSH3 0x4B0 PUSH3 0xCBB JUMP JUMPDEST JUMPDEST SWAP1 DUP2 PUSH1 0xC6 DUP2 GT ISZERO PUSH3 0x4C8 JUMPI PUSH3 0x4C7 PUSH3 0xCBB JUMP JUMPDEST JUMPDEST DUP2 MSTORE POP POP PUSH1 0xC6 DUP2 PUSH1 0x3 DUP2 MLOAD DUP2 LT PUSH3 0x4E5 JUMPI PUSH3 0x4E4 PUSH3 0xC8E JUMP JUMPDEST JUMPDEST PUSH1 0x20 MUL PUSH1 0x20 ADD ADD SWAP1 PUSH1 0xC6 DUP2 GT ISZERO PUSH3 0x502 JUMPI PUSH3 0x501 PUSH3 0xCBB JUMP JUMPDEST JUMPDEST SWAP1 DUP2 PUSH1 0xC6 DUP2 GT ISZERO PUSH3 0x519 JUMPI PUSH3 0x518 PUSH3 0xCBB JUMP JUMPDEST JUMPDEST DUP2 MSTORE POP POP PUSH0 PUSH1 0x1 PUSH8 0xFFFFFFFFFFFFFFFF DUP2 GT ISZERO PUSH3 0x53C JUMPI PUSH3 0x53B PUSH3 0xC61 JUMP JUMPDEST JUMPDEST PUSH1 0x40 MLOAD SWAP1 DUP1 DUP3 MSTORE DUP1 PUSH1 0x20 MUL PUSH1 0x20 ADD DUP3 ADD PUSH1 0x40 MSTORE DUP1 ISZERO PUSH3 0x56B JUMPI DUP2 PUSH1 0x20 ADD PUSH1 0x20 DUP3 MUL DUP1 CALLDATASIZE DUP4 CALLDATACOPY DUP1 DUP3 ADD SWAP2 POP POP SWAP1 POP JUMPDEST POP SWAP1 POP PUSH1 0x41 DUP2 PUSH0 DUP2 MLOAD DUP2 LT PUSH3 0x586 JUMPI PUSH3 0x585 PUSH3 0xC8E JUMP JUMPDEST JUMPDEST PUSH1 0x20 MUL PUSH1 0x20 ADD ADD SWAP1 PUSH1 0xC6 DUP2 GT ISZERO PUSH3 0x5A3 JUMPI PUSH3 0x5A2 PUSH3 0xCBB JUMP JUMPDEST JUMPDEST SWAP1 DUP2 PUSH1 0xC6 DUP2 GT ISZERO PUSH3 0x5BA JUMPI PUSH3 0x5B9 PUSH3 0xCBB JUMP JUMPDEST JUMPDEST DUP2 MSTORE POP POP PUSH0 PUSH1 0x1 PUSH8 0xFFFFFFFFFFFFFFFF DUP2 GT ISZERO PUSH3 0x5DD JUMPI PUSH3 0x5DC PUSH3 0xC61 JUMP JUMPDEST JUMPDEST PUSH1 0x40 MLOAD SWAP1 DUP1 DUP3 MSTORE DUP1 PUSH1 0x20 MUL PUSH1 0x20 ADD DUP3 ADD PUSH1 0x40 MSTORE DUP1 ISZERO PUSH3 0x60C JUMPI DUP2 PUSH1 0x20 ADD PUSH1 0x20 DUP3 MUL DUP1 CALLDATASIZE DUP4 CALLDATACOPY DUP1 DUP3 ADD SWAP2 POP POP SWAP1 POP JUMPDEST POP SWAP1 POP PUSH1 0x63 DUP2 PUSH0 DUP2 MLOAD DUP2 LT PUSH3 0x627 JUMPI PUSH3 0x626 PUSH3 0xC8E JUMP JUMPDEST JUMPDEST PUSH1 0x20 MUL PUSH1 0x20 ADD ADD SWAP1 PUSH1 0xC6 DUP2 GT ISZERO PUSH3 0x644 JUMPI PUSH3 0x643 PUSH3 0xCBB JUMP JUMPDEST JUMPDEST SWAP1 DUP2 PUSH1 0xC6 DUP2 GT ISZERO PUSH3 0x65B JUMPI PUSH3 0x65A PUSH3 0xCBB JUMP JUMPDEST JUMPDEST DUP2 MSTORE POP POP PUSH0 PUSH1 0x1 PUSH8 0xFFFFFFFFFFFFFFFF DUP2 GT ISZERO PUSH3 0x67E JUMPI PUSH3 0x67D PUSH3 0xC61 JUMP JUMPDEST JUMPDEST PUSH1 0x40 MLOAD SWAP1 DUP1 DUP3 MSTORE DUP1 PUSH1 0x20 MUL PUSH1 0x20 ADD DUP3 ADD PUSH1 0x40 MSTORE DUP1 ISZERO PUSH3 0x6AD JUMPI DUP2 PUSH1 0x20 ADD PUSH1 0x20 DUP3 MUL DUP1 CALLDATASIZE DUP4 CALLDATACOPY DUP1 DUP3 ADD SWAP2 POP POP SWAP1 POP JUMPDEST POP SWAP1 POP PUSH1 0xC6 DUP2 PUSH0 DUP2 MLOAD DUP2 LT PUSH3 0x6C8 JUMPI PUSH3 0x6C7 PUSH3 0xC8E JUMP JUMPDEST JUMPDEST PUSH1 0x20 MUL PUSH1 0x20 ADD ADD SWAP1 PUSH1 0xC6 DUP2 GT ISZERO PUSH3 0x6E5 JUMPI PUSH3 0x6E4 PUSH3 0xCBB JUMP JUMPDEST JUMPDEST SWAP1 DUP2 PUSH1 0xC6 DUP2 GT ISZERO PUSH3 0x6FC JUMPI PUSH3 0x6FB PUSH3 0xCBB JUMP JUMPDEST JUMPDEST DUP2 MSTORE POP POP PUSH0 PUSH1 0x4 PUSH8 0xFFFFFFFFFFFFFFFF DUP2 GT ISZERO PUSH3 0x71F JUMPI PUSH3 0x71E PUSH3 0xC61 JUMP JUMPDEST JUMPDEST PUSH1 0x40 MLOAD SWAP1 DUP1 DUP3 MSTORE DUP1 PUSH1 0x20 MUL PUSH1 0x20 ADD DUP3 ADD PUSH1 0x40 MSTORE DUP1 ISZERO PUSH3 0x74E JUMPI DUP2 PUSH1 0x20 ADD PUSH1 0x20 DUP3 MUL DUP1 CALLDATASIZE DUP4 CALLDATACOPY DUP1 DUP3 ADD SWAP2 POP POP SWAP1 POP JUMPDEST POP SWAP1 POP PUSH1 0xA4 DUP2 PUSH0 DUP2 MLOAD DUP2 LT PUSH3 0x769 JUMPI PUSH3 0x768 PUSH3 0xC8E JUMP JUMPDEST JUMPDEST PUSH1 0x20 MUL PUSH1 0x20 ADD ADD SWAP1 PUSH1 0xC6 DUP2 GT ISZERO PUSH3 0x786 JUMPI PUSH3 0x785 PUSH3 0xCBB JUMP JUMPDEST JUMPDEST SWAP1 DUP2 PUSH1 0xC6 DUP2 GT ISZERO PUSH3 0x79D JUMPI PUSH3 0x79C PUSH3 0xCBB JUMP JUMPDEST JUMPDEST DUP2 MSTORE POP POP PUSH1 0xC6 DUP2 PUSH1 0x1 DUP2 MLOAD DUP2 LT PUSH3 0x7BA JUMPI PUSH3 0x7B9 PUSH3 0xC8E JUMP JUMPDEST JUMPDEST PUSH1 0x20 MUL PUSH1 0x20 ADD ADD SWAP1 PUSH1 0xC6 DUP2 GT ISZERO PUSH3 0x7D7 JUMPI PUSH3 0x7D6 PUSH3 0xCBB JUMP JUMPDEST JUMPDEST SWAP1 DUP2 PUSH1 0xC6 DUP2 GT ISZERO PUSH3 0x7EE JUMPI PUSH3 0x7ED PUSH3 0xCBB JUMP JUMPDEST JUMPDEST DUP2 MSTORE POP POP PUSH1 0xC6 DUP2 PUSH1 0x2 DUP2 MLOAD DUP2 LT PUSH3 0x80B JUMPI PUSH3 0x80A PUSH3 0xC8E JUMP JUMPDEST JUMPDEST PUSH1 0x20 MUL PUSH1 0x20 ADD ADD SWAP1 PUSH1 0xC6 DUP2 GT ISZERO PUSH3 0x828 JUMPI PUSH3 0x827 PUSH3 0xCBB JUMP JUMPDEST JUMPDEST SWAP1 DUP2 PUSH1 0xC6 DUP2 GT ISZERO PUSH3 0x83F JUMPI PUSH3 0x83E PUSH3 0xCBB JUMP JUMPDEST JUMPDEST DUP2 MSTORE POP POP PUSH1 0xC6 DUP2 PUSH1 0x3 DUP2 MLOAD DUP2 LT PUSH3 0x85C JUMPI PUSH3 0x85B PUSH3 0xC8E JUMP JUMPDEST JUMPDEST PUSH1 0x20 MUL PUSH1 0x20 ADD ADD SWAP1 PUSH1 0xC6 DUP2 GT ISZERO PUSH3 0x879 JUMPI PUSH3 0x878 PUSH3 0xCBB JUMP JUMPDEST JUMPDEST SWAP1 DUP2 PUSH1 0xC6 DUP2 GT ISZERO PUSH3 0x890 JUMPI PUSH3 0x88F PUSH3 0xCBB JUMP JUMPDEST JUMPDEST DUP2 MSTORE POP POP PUSH3 0x92A PUSH1 0x40 MLOAD DUP1 PUSH1 0x40 ADD PUSH1 0x40 MSTORE DUP1 PUSH1 0xA DUP2 MSTORE PUSH1 0x20 ADD PUSH32 0x6372656174655573657200000000000000000000000000000000000000000000 DUP2 MSTORE POP PUSH1 0x1 DUP11 PUSH0 PUSH8 0xFFFFFFFFFFFFFFFF DUP2 GT ISZERO PUSH3 0x8EE JUMPI PUSH3 0x8ED PUSH3 0xC61 JUMP JUMPDEST JUMPDEST PUSH1 0x40 MLOAD SWAP1 DUP1 DUP3 MSTORE DUP1 PUSH1 0x20 MUL PUSH1 0x20 ADD DUP3 ADD PUSH1 0x40 MSTORE DUP1 ISZERO PUSH3 0x91D JUMPI DUP2 PUSH1 0x20 ADD PUSH1 0x20 DUP3 MUL DUP1 CALLDATASIZE DUP4 CALLDATACOPY DUP1 DUP3 ADD SWAP2 POP POP SWAP1 POP JUMPDEST POP PUSH3 0xAA9 PUSH1 0x20 SHL PUSH1 0x20 SHR JUMP JUMPDEST PUSH3 0x9C0 PUSH1 0x40 MLOAD DUP1 PUSH1 0x40 ADD PUSH1 0x40 MSTORE DUP1 PUSH1 0xE DUP2 MSTORE PUSH1 0x20 ADD PUSH32 0x75706461746555736572496E666F000000000000000000000000000000000000 DUP2 MSTORE POP PUSH1 0x2 DUP10 PUSH0 PUSH8 0xFFFFFFFFFFFFFFFF DUP2 GT ISZERO PUSH3 0x984 JUMPI PUSH3 0x983 PUSH3 0xC61 JUMP JUMPDEST JUMPDEST PUSH1 0x40 MLOAD SWAP1 DUP1 DUP3 MSTORE DUP1 PUSH1 0x20 MUL PUSH1 0x20 ADD DUP3 ADD PUSH1 0x40 MSTORE DUP1 ISZERO PUSH3 0x9B3 JUMPI DUP2 PUSH1 0x20 ADD PUSH1 0x20 DUP3 MUL DUP1 CALLDATASIZE DUP4 CALLDATACOPY DUP1 DUP3 ADD SWAP2 POP POP SWAP1 POP JUMPDEST POP PUSH3 0xAA9 PUSH1 0x20 SHL PUSH1 0x20 SHR JUMP JUMPDEST PUSH3 0xA09 PUSH1 0x40 MLOAD DUP1 PUSH1 0x40 ADD PUSH1 0x40 MSTORE DUP1 PUSH1 0x16 DUP2 MSTORE PUSH1 0x20 ADD PUSH32 0x67657455736572496E666F427941646472657373657300000000000000000000 DUP2 MSTORE POP PUSH0 DUP9 DUP9 PUSH3 0xAA9 PUSH1 0x20 SHL PUSH1 0x20 SHR JUMP JUMPDEST PUSH3 0xA52 PUSH1 0x40 MLOAD DUP1 PUSH1 0x40 ADD PUSH1 0x40 MSTORE DUP1 PUSH1 0x14 DUP2 MSTORE PUSH1 0x20 ADD PUSH32 0x67657455736572496E666F427948616E646C6573000000000000000000000000 DUP2 MSTORE POP PUSH0 DUP5 DUP5 PUSH3 0xAA9 PUSH1 0x20 SHL PUSH1 0x20 SHR JUMP JUMPDEST PUSH3 0xA9B PUSH1 0x40 MLOAD DUP1 PUSH1 0x40 ADD PUSH1 0x40 MSTORE DUP1 PUSH1 0x12 DUP2 MSTORE PUSH1 0x20 ADD PUSH32 0x67657441646472657373427948616E646C650000000000000000000000000000 DUP2 MSTORE POP PUSH0 DUP6 DUP8 PUSH3 0xAA9 PUSH1 0x20 SHL PUSH1 0x20 SHR JUMP JUMPDEST POP POP POP POP POP POP POP POP PUSH3 0x1085 JUMP JUMPDEST PUSH0 DUP1 DUP5 PUSH1 0x3 DUP2 GT ISZERO PUSH3 0xAC1 JUMPI PUSH3 0xAC0 PUSH3 0xCBB JUMP JUMPDEST JUMPDEST PUSH1 0x3 DUP2 GT ISZERO PUSH3 0xAD6 JUMPI PUSH3 0xAD5 PUSH3 0xCBB JUMP JUMPDEST JUMPDEST DUP2 MSTORE PUSH1 0x20 ADD SWAP1 DUP2 MSTORE PUSH1 0x20 ADD PUSH0 KECCAK256 DUP5 SWAP1 DUP1 PUSH1 0x1 DUP2 SLOAD ADD DUP1 DUP3 SSTORE DUP1 SWAP2 POP POP PUSH1 0x1 SWAP1 SUB SWAP1 PUSH0 MSTORE PUSH1 0x20 PUSH0 KECCAK256 ADD PUSH0 SWAP1 SWAP2 SWAP1 SWAP2 SWAP1 SWAP2 POP SWAP1 DUP2 PUSH3 0xB14 SWAP2 SWAP1 PUSH3 0xF1F JUMP JUMPDEST POP DUP2 PUSH1 0x1 DUP6 PUSH1 0x40 MLOAD PUSH3 0xB28 SWAP2 SWAP1 PUSH3 0x106D JUMP JUMPDEST SWAP1 DUP2 MSTORE PUSH1 0x20 ADD PUSH1 0x40 MLOAD DUP1 SWAP2 SUB SWAP1 KECCAK256 SWAP1 DUP1 MLOAD SWAP1 PUSH1 0x20 ADD SWAP1 PUSH3 0xB4B SWAP3 SWAP2 SWAP1 PUSH3 0xB89 JUMP JUMPDEST POP DUP1 PUSH1 0x2 DUP6 PUSH1 0x40 MLOAD PUSH3 0xB5F SWAP2 SWAP1 PUSH3 0x106D JUMP JUMPDEST SWAP1 DUP2 MSTORE PUSH1 0x20 ADD PUSH1 0x40 MLOAD DUP1 SWAP2 SUB SWAP1 KECCAK256 SWAP1 DUP1 MLOAD SWAP1 PUSH1 0x20 ADD SWAP1 PUSH3 0xB82 SWAP3 SWAP2 SWAP1 PUSH3 0xB89 JUMP JUMPDEST POP POP POP POP POP JUMP JUMPDEST DUP3 DUP1 SLOAD DUP3 DUP3 SSTORE SWAP1 PUSH0 MSTORE PUSH1 0x20 PUSH0 KECCAK256 SWAP1 PUSH1 0x1F ADD PUSH1 0x20 SWAP1 DIV DUP2 ADD SWAP3 DUP3 ISZERO PUSH3 0xC31 JUMPI SWAP2 PUSH1 0x20 MUL DUP3 ADD PUSH0 JUMPDEST DUP4 DUP3 GT ISZERO PUSH3 0xC01 JUMPI DUP4 MLOAD DUP4 DUP3 PUSH2 0x100 EXP DUP2 SLOAD DUP2 PUSH1 0xFF MUL NOT AND SWAP1 DUP4 PUSH1 0xC6 DUP2 GT ISZERO PUSH3 0xBE0 JUMPI PUSH3 0xBDF PUSH3 0xCBB JUMP JUMPDEST JUMPDEST MUL OR SWAP1 SSTORE POP SWAP3 PUSH1 0x20 ADD SWAP3 PUSH1 0x1 ADD PUSH1 0x20 DUP2 PUSH0 ADD DIV SWAP3 DUP4 ADD SWAP3 PUSH1 0x1 SUB MUL PUSH3 0xBB0 JUMP JUMPDEST DUP1 ISZERO PUSH3 0xC2F JUMPI DUP3 DUP2 PUSH2 0x100 EXP DUP2 SLOAD SWAP1 PUSH1 0xFF MUL NOT AND SWAP1 SSTORE PUSH1 0x1 ADD PUSH1 0x20 DUP2 PUSH0 ADD DIV SWAP3 DUP4 ADD SWAP3 PUSH1 0x1 SUB MUL PUSH3 0xC01 JUMP JUMPDEST POP JUMPDEST POP SWAP1 POP PUSH3 0xC40 SWAP2 SWAP1 PUSH3 0xC44 JUMP JUMPDEST POP SWAP1 JUMP JUMPDEST JUMPDEST DUP1 DUP3 GT ISZERO PUSH3 0xC5D JUMPI PUSH0 DUP2 PUSH0 SWAP1 SSTORE POP PUSH1 0x1 ADD PUSH3 0xC45 JUMP JUMPDEST POP SWAP1 JUMP JUMPDEST PUSH32 0x4E487B7100000000000000000000000000000000000000000000000000000000 PUSH0 MSTORE PUSH1 0x41 PUSH1 0x4 MSTORE PUSH1 0x24 PUSH0 REVERT JUMPDEST PUSH32 0x4E487B7100000000000000000000000000000000000000000000000000000000 PUSH0 MSTORE PUSH1 0x32 PUSH1 0x4 MSTORE PUSH1 0x24 PUSH0 REVERT JUMPDEST PUSH32 0x4E487B7100000000000000000000000000000000000000000000000000000000 PUSH0 MSTORE PUSH1 0x21 PUSH1 0x4 MSTORE PUSH1 0x24 PUSH0 REVERT JUMPDEST PUSH0 DUP2 MLOAD SWAP1 POP SWAP2 SWAP1 POP JUMP JUMPDEST PUSH32 0x4E487B7100000000000000000000000000000000000000000000000000000000 PUSH0 MSTORE PUSH1 0x22 PUSH1 0x4 MSTORE PUSH1 0x24 PUSH0 REVERT JUMPDEST PUSH0 PUSH1 0x2 DUP3 DIV SWAP1 POP PUSH1 0x1 DUP3 AND DUP1 PUSH3 0xD37 JUMPI PUSH1 0x7F DUP3 AND SWAP2 POP JUMPDEST PUSH1 0x20 DUP3 LT DUP2 SUB PUSH3 0xD4D JUMPI PUSH3 0xD4C PUSH3 0xCF2 JUMP JUMPDEST JUMPDEST POP SWAP2 SWAP1 POP JUMP JUMPDEST PUSH0 DUP2 SWAP1 POP DUP2 PUSH0 MSTORE PUSH1 0x20 PUSH0 KECCAK256 SWAP1 POP SWAP2 SWAP1 POP JUMP JUMPDEST PUSH0 PUSH1 0x20 PUSH1 0x1F DUP4 ADD DIV SWAP1 POP SWAP2 SWAP1 POP JUMP JUMPDEST PUSH0 DUP3 DUP3 SHL SWAP1 POP SWAP3 SWAP2 POP POP JUMP JUMPDEST PUSH0 PUSH1 0x8 DUP4 MUL PUSH3 0xDB1 PUSH32 0xFFFFFFFFFFFFFFFFFFFFFFFFFFFFFFFFFFFFFFFFFFFFFFFFFFFFFFFFFFFFFFFF DUP3 PUSH3 0xD74 JUMP JUMPDEST PUSH3 0xDBD DUP7 DUP4 PUSH3 0xD74 JUMP JUMPDEST SWAP6 POP DUP1 NOT DUP5 AND SWAP4 POP DUP1 DUP7 AND DUP5 OR SWAP3 POP POP POP SWAP4 SWAP3 POP POP POP JUMP JUMPDEST PUSH0 DUP2 SWAP1 POP SWAP2 SWAP1 POP JUMP JUMPDEST PUSH0 DUP2 SWAP1 POP SWAP2 SWAP1 POP JUMP JUMPDEST PUSH0 PUSH3 0xE07 PUSH3 0xE01 PUSH3 0xDFB DUP5 PUSH3 0xDD5 JUMP JUMPDEST PUSH3 0xDDE JUMP JUMPDEST PUSH3 0xDD5 JUMP JUMPDEST SWAP1 POP SWAP2 SWAP1 POP JUMP JUMPDEST PUSH0 DUP2 SWAP1 POP SWAP2 SWAP1 POP JUMP JUMPDEST PUSH3 0xE22 DUP4 PUSH3 0xDE7 JUMP JUMPDEST PUSH3 0xE3A PUSH3 0xE31 DUP3 PUSH3 0xE0E JUMP JUMPDEST DUP5 DUP5 SLOAD PUSH3 0xD80 JUMP JUMPDEST DUP3 SSTORE POP POP POP POP JUMP JUMPDEST PUSH0 SWAP1 JUMP JUMPDEST PUSH3 0xE50 PUSH3 0xE42 JUMP JUMPDEST PUSH3 0xE5D DUP2 DUP5 DUP5 PUSH3 0xE17 JUMP JUMPDEST POP POP POP JUMP JUMPDEST JUMPDEST DUP2 DUP2 LT ISZERO PUSH3 0xE84 JUMPI PUSH3 0xE78 PUSH0 DUP3 PUSH3 0xE46 JUMP JUMPDEST PUSH1 0x1 DUP2 ADD SWAP1 POP PUSH3 0xE63 JUMP JUMPDEST POP POP JUMP JUMPDEST PUSH1 0x1F DUP3 GT ISZERO PUSH3 0xED3 JUMPI PUSH3 0xE9D DUP2 PUSH3 0xD53 JUMP JUMPDEST PUSH3 0xEA8 DUP5 PUSH3 0xD65 JUMP JUMPDEST DUP2 ADD PUSH1 0x20 DUP6 LT ISZERO PUSH3 0xEB8 JUMPI DUP2 SWAP1 POP JUMPDEST PUSH3 0xED0 PUSH3 0xEC7 DUP6 PUSH3 0xD65 JUMP JUMPDEST DUP4 ADD DUP3 PUSH3 0xE62 JUMP JUMPDEST POP POP JUMPDEST POP POP POP JUMP JUMPDEST PUSH0 DUP3 DUP3 SHR SWAP1 POP SWAP3 SWAP2 POP POP JUMP JUMPDEST PUSH0 PUSH3 0xEF5 PUSH0 NOT DUP5 PUSH1 0x8 MUL PUSH3 0xED8 JUMP JUMPDEST NOT DUP1 DUP4 AND SWAP2 POP POP SWAP3 SWAP2 POP POP JUMP JUMPDEST PUSH0 PUSH3 0xF0F DUP4 DUP4 PUSH3 0xEE4 JUMP JUMPDEST SWAP2 POP DUP3 PUSH1 0x2 MUL DUP3 OR SWAP1 POP SWAP3 SWAP2 POP POP JUMP JUMPDEST PUSH3 0xF2A DUP3 PUSH3 0xCE8 JUMP JUMPDEST PUSH8 0xFFFFFFFFFFFFFFFF DUP2 GT ISZERO PUSH3 0xF46 JUMPI PUSH3 0xF45 PUSH3 0xC61 JUMP JUMPDEST JUMPDEST PUSH3 0xF52 DUP3 SLOAD PUSH3 0xD1F JUMP JUMPDEST PUSH3 0xF5F DUP3 DUP3 DUP6 PUSH3 0xE88 JUMP JUMPDEST PUSH0 PUSH1 0x20 SWAP1 POP PUSH1 0x1F DUP4 GT PUSH1 0x1 DUP2 EQ PUSH3 0xF95 JUMPI PUSH0 DUP5 ISZERO PUSH3 0xF80 JUMPI DUP3 DUP8 ADD MLOAD SWAP1 POP JUMPDEST PUSH3 0xF8C DUP6 DUP3 PUSH3 0xF02 JUMP JUMPDEST DUP7 SSTORE POP PUSH3 0xFFB JUMP JUMPDEST PUSH1 0x1F NOT DUP5 AND PUSH3 0xFA5 DUP7 PUSH3 0xD53 JUMP JUMPDEST PUSH0 JUMPDEST DUP3 DUP2 LT ISZERO PUSH3 0xFCE JUMPI DUP5 DUP10 ADD MLOAD DUP3 SSTORE PUSH1 0x1 DUP3 ADD SWAP2 POP PUSH1 0x20 DUP6 ADD SWAP5 POP PUSH1 0x20 DUP2 ADD SWAP1 POP PUSH3 0xFA7 JUMP JUMPDEST DUP7 DUP4 LT ISZERO PUSH3 0xFEE JUMPI DUP5 DUP10 ADD MLOAD PUSH3 0xFEA PUSH1 0x1F DUP10 AND DUP3 PUSH3 0xEE4 JUMP JUMPDEST DUP4 SSTORE POP JUMPDEST PUSH1 0x1 PUSH1 0x2 DUP9 MUL ADD DUP9 SSTORE POP POP POP JUMPDEST POP POP POP POP POP POP JUMP JUMPDEST PUSH0 DUP2 SWAP1 POP SWAP3 SWAP2 POP POP JUMP JUMPDEST PUSH0 JUMPDEST DUP4 DUP2 LT ISZERO PUSH3 0x102C JUMPI DUP1 DUP3 ADD MLOAD DUP2 DUP5 ADD MSTORE PUSH1 0x20 DUP2 ADD SWAP1 POP PUSH3 0x100F JUMP JUMPDEST PUSH0 DUP5 DUP5 ADD MSTORE POP POP POP POP JUMP JUMPDEST PUSH0 PUSH3 0x1043 DUP3 PUSH3 0xCE8 JUMP JUMPDEST PUSH3 0x104F DUP2 DUP6 PUSH3 0x1003 JUMP JUMPDEST SWAP4 POP PUSH3 0x1061 DUP2 DUP6 PUSH1 0x20 DUP7 ADD PUSH3 0x100D JUMP JUMPDEST DUP1 DUP5 ADD SWAP2 POP POP SWAP3 SWAP2 POP POP JUMP JUMPDEST PUSH0 PUSH3 0x107A DUP3 DUP5 PUSH3 0x1037 JUMP JUMPDEST SWAP2 POP DUP2 SWAP1 POP SWAP3 SWAP2 POP POP JUMP JUMPDEST PUSH2 0x34C3 DUP1 PUSH3 0x1093 PUSH0 CODECOPY PUSH0 RETURN INVALID PUSH1 0x80 PUSH1 0x40 MSTORE PUSH1 0x4 CALLDATASIZE LT PUSH2 0x85 JUMPI PUSH0 CALLDATALOAD PUSH1 0xE0 SHR DUP1 PUSH4 0xAFF62745 GT PUSH2 0x58 JUMPI DUP1 PUSH4 0xAFF62745 EQ PUSH2 0x168 JUMPI DUP1 PUSH4 0xB6AE0425 EQ PUSH2 0x1A4 JUMPI DUP1 PUSH4 0xC502607F EQ PUSH2 0x1D4 JUMPI DUP1 PUSH4 0xE9536472 EQ PUSH2 0x210 JUMPI DUP1 PUSH4 0xF4856CCB EQ PUSH2 0x240 JUMPI PUSH2 0x85 JUMP JUMPDEST DUP1 PUSH4 0x1069143A EQ PUSH2 0x89 JUMPI DUP1 PUSH4 0x458AD6D4 EQ PUSH2 0xB3 JUMPI DUP1 PUSH4 0x9416B423 EQ PUSH2 0xF0 JUMPI DUP1 PUSH4 0xA45F379E EQ PUSH2 0x12C JUMPI JUMPDEST PUSH0 DUP1 REVERT JUMPDEST CALLVALUE DUP1 ISZERO PUSH2 0x94 JUMPI PUSH0 DUP1 REVERT JUMPDEST POP PUSH2 0x9D PUSH2 0x27C JUMP JUMPDEST PUSH1 0x40 MLOAD PUSH2 0xAA SWAP2 SWAP1 PUSH2 0x2192 JUMP JUMPDEST PUSH1 0x40 MLOAD DUP1 SWAP2 SUB SWAP1 RETURN JUMPDEST CALLVALUE DUP1 ISZERO PUSH2 0xBE JUMPI PUSH0 DUP1 REVERT JUMPDEST POP PUSH2 0xD9 PUSH1 0x4 DUP1 CALLDATASIZE SUB DUP2 ADD SWAP1 PUSH2 0xD4 SWAP2 SWAP1 PUSH2 0x22FF JUMP JUMPDEST PUSH2 0x3F0 JUMP JUMPDEST PUSH1 0x40 MLOAD PUSH2 0xE7 SWAP3 SWAP2 SWAP1 PUSH2 0x2424 JUMP JUMPDEST PUSH1 0x40 MLOAD DUP1 SWAP2 SUB SWAP1 RETURN JUMPDEST CALLVALUE DUP1 ISZERO PUSH2 0xFB JUMPI PUSH0 DUP1 REVERT JUMPDEST POP PUSH2 0x116 PUSH1 0x4 DUP1 CALLDATASIZE SUB DUP2 ADD SWAP1 PUSH2 0x111 SWAP2 SWAP1 PUSH2 0x22FF JUMP JUMPDEST PUSH2 0x53E JUMP JUMPDEST PUSH1 0x40 MLOAD PUSH2 0x123 SWAP2 SWAP1 PUSH2 0x24D3 JUMP JUMPDEST PUSH1 0x40 MLOAD DUP1 SWAP2 SUB SWAP1 RETURN JUMPDEST CALLVALUE DUP1 ISZERO PUSH2 0x137 JUMPI PUSH0 DUP1 REVERT JUMPDEST POP PUSH2 0x152 PUSH1 0x4 DUP1 CALLDATASIZE SUB DUP2 ADD SWAP1 PUSH2 0x14D SWAP2 SWAP1 PUSH2 0x22FF JUMP JUMPDEST PUSH2 0x729 JUMP JUMPDEST PUSH1 0x40 MLOAD PUSH2 0x15F SWAP2 SWAP1 PUSH2 0x250D JUMP JUMPDEST PUSH1 0x40 MLOAD DUP1 SWAP2 SUB SWAP1 RETURN JUMPDEST CALLVALUE DUP1 ISZERO PUSH2 0x173 JUMPI PUSH0 DUP1 REVERT JUMPDEST POP PUSH2 0x18E PUSH1 0x4 DUP1 CALLDATASIZE SUB DUP2 ADD SWAP1 PUSH2 0x189 SWAP2 SWAP1 PUSH2 0x25C4 JUMP JUMPDEST PUSH2 0x73A JUMP JUMPDEST PUSH1 0x40 MLOAD PUSH2 0x19B SWAP2 SWAP1 PUSH2 0x268C JUMP JUMPDEST PUSH1 0x40 MLOAD DUP1 SWAP2 SUB SWAP1 RETURN JUMPDEST PUSH2 0x1BE PUSH1 0x4 DUP1 CALLDATASIZE SUB DUP2 ADD SWAP1 PUSH2 0x1B9 SWAP2 SWAP1 PUSH2 0x25C4 JUMP JUMPDEST PUSH2 0x131A JUMP JUMPDEST PUSH1 0x40 MLOAD PUSH2 0x1CB SWAP2 SWAP1 PUSH2 0x268C JUMP JUMPDEST PUSH1 0x40 MLOAD DUP1 SWAP2 SUB SWAP1 RETURN JUMPDEST CALLVALUE DUP1 ISZERO PUSH2 0x1DF JUMPI PUSH0 DUP1 REVERT JUMPDEST POP PUSH2 0x1FA PUSH1 0x4 DUP1 CALLDATASIZE SUB DUP2 ADD SWAP1 PUSH2 0x1F5 SWAP2 SWAP1 PUSH2 0x22FF JUMP JUMPDEST PUSH2 0x191A JUMP JUMPDEST PUSH1 0x40 MLOAD PUSH2 0x207 SWAP2 SWAP1 PUSH2 0x250D JUMP JUMPDEST PUSH1 0x40 MLOAD DUP1 SWAP2 SUB SWAP1 RETURN JUMPDEST PUSH2 0x22A PUSH1 0x4 DUP1 CALLDATASIZE SUB DUP2 ADD SWAP1 PUSH2 0x225 SWAP2 SWAP1 PUSH2 0x25C4 JUMP JUMPDEST PUSH2 0x1A8E JUMP JUMPDEST PUSH1 0x40 MLOAD PUSH2 0x237 SWAP2 SWAP1 PUSH2 0x268C JUMP JUMPDEST PUSH1 0x40 MLOAD DUP1 SWAP2 SUB SWAP1 RETURN JUMPDEST CALLVALUE DUP1 ISZERO PUSH2 0x24B JUMPI PUSH0 DUP1 REVERT JUMPDEST POP PUSH2 0x266 PUSH1 0x4 DUP1 CALLDATASIZE SUB DUP2 ADD SWAP1 PUSH2 0x261 SWAP2 SWAP1 PUSH2 0x26CF JUMP JUMPDEST PUSH2 0x1F17 JUMP JUMPDEST PUSH1 0x40 MLOAD PUSH2 0x273 SWAP2 SWAP1 PUSH2 0x27FD JUMP JUMPDEST PUSH1 0x40 MLOAD DUP1 SWAP2 SUB SWAP1 RETURN JUMPDEST PUSH1 0x60 PUSH0 PUSH1 0x4 PUSH8 0xFFFFFFFFFFFFFFFF DUP2 GT ISZERO PUSH2 0x29A JUMPI PUSH2 0x299 PUSH2 0x21DB JUMP JUMPDEST JUMPDEST PUSH1 0x40 MLOAD SWAP1 DUP1 DUP3 MSTORE DUP1 PUSH1 0x20 MUL PUSH1 0x20 ADD DUP3 ADD PUSH1 0x40 MSTORE DUP1 ISZERO PUSH2 0x2C8 JUMPI DUP2 PUSH1 0x20 ADD PUSH1 0x20 DUP3 MUL DUP1 CALLDATASIZE DUP4 CALLDATACOPY DUP1 DUP3 ADD SWAP2 POP POP SWAP1 POP JUMPDEST POP SWAP1 POP PUSH0 DUP2 PUSH0 DUP2 MLOAD DUP2 LT PUSH2 0x2DF JUMPI PUSH2 0x2DE PUSH2 0x281D JUMP JUMPDEST JUMPDEST PUSH1 0x20 MUL PUSH1 0x20 ADD ADD SWAP1 PUSH1 0x3 DUP2 GT ISZERO PUSH2 0x2F9 JUMPI PUSH2 0x2F8 PUSH2 0x20A0 JUMP JUMPDEST JUMPDEST SWAP1 DUP2 PUSH1 0x3 DUP2 GT ISZERO PUSH2 0x30D JUMPI PUSH2 0x30C PUSH2 0x20A0 JUMP JUMPDEST JUMPDEST DUP2 MSTORE POP POP PUSH1 0x1 DUP2 PUSH1 0x1 DUP2 MLOAD DUP2 LT PUSH2 0x327 JUMPI PUSH2 0x326 PUSH2 0x281D JUMP JUMPDEST JUMPDEST PUSH1 0x20 MUL PUSH1 0x20 ADD ADD SWAP1 PUSH1 0x3 DUP2 GT ISZERO PUSH2 0x341 JUMPI PUSH2 0x340 PUSH2 0x20A0 JUMP JUMPDEST JUMPDEST SWAP1 DUP2 PUSH1 0x3 DUP2 GT ISZERO PUSH2 0x355 JUMPI PUSH2 0x354 PUSH2 0x20A0 JUMP JUMPDEST JUMPDEST DUP2 MSTORE POP POP PUSH1 0x2 DUP2 PUSH1 0x2 DUP2 MLOAD DUP2 LT PUSH2 0x36F JUMPI PUSH2 0x36E PUSH2 0x281D JUMP JUMPDEST JUMPDEST PUSH1 0x20 MUL PUSH1 0x20 ADD ADD SWAP1 PUSH1 0x3 DUP2 GT ISZERO PUSH2 0x389 JUMPI PUSH2 0x388 PUSH2 0x20A0 JUMP JUMPDEST JUMPDEST SWAP1 DUP2 PUSH1 0x3 DUP2 GT ISZERO PUSH2 0x39D JUMPI PUSH2 0x39C PUSH2 0x20A0 JUMP JUMPDEST JUMPDEST DUP2 MSTORE POP POP PUSH1 0x3 DUP2 PUSH1 0x3 DUP2 MLOAD DUP2 LT PUSH2 0x3B7 JUMPI PUSH2 0x3B6 PUSH2 0x281D JUMP JUMPDEST JUMPDEST PUSH1 0x20 MUL PUSH1 0x20 ADD ADD SWAP1 PUSH1 0x3 DUP2 GT ISZERO PUSH2 0x3D1 JUMPI PUSH2 0x3D0 PUSH2 0x20A0 JUMP JUMPDEST JUMPDEST SWAP1 DUP2 PUSH1 0x3 DUP2 GT ISZERO PUSH2 0x3E5 JUMPI PUSH2 0x3E4 PUSH2 0x20A0 JUMP JUMPDEST JUMPDEST DUP2 MSTORE POP POP DUP1 SWAP2 POP POP SWAP1 JUMP JUMPDEST PUSH1 0x60 DUP1 PUSH1 0x1 DUP4 PUSH1 0x40 MLOAD PUSH2 0x403 SWAP2 SWAP1 PUSH2 0x2884 JUMP JUMPDEST SWAP1 DUP2 MSTORE PUSH1 0x20 ADD PUSH1 0x40 MLOAD DUP1 SWAP2 SUB SWAP1 KECCAK256 PUSH1 0x2 DUP5 PUSH1 0x40 MLOAD PUSH2 0x421 SWAP2 SWAP1 PUSH2 0x2884 JUMP JUMPDEST SWAP1 DUP2 MSTORE PUSH1 0x20 ADD PUSH1 0x40 MLOAD DUP1 SWAP2 SUB SWAP1 KECCAK256 DUP2 DUP1 SLOAD DUP1 PUSH1 0x20 MUL PUSH1 0x20 ADD PUSH1 0x40 MLOAD SWAP1 DUP2 ADD PUSH1 0x40 MSTORE DUP1 SWAP3 SWAP2 SWAP1 DUP2 DUP2 MSTORE PUSH1 0x20 ADD DUP3 DUP1 SLOAD DUP1 ISZERO PUSH2 0x4AB JUMPI PUSH1 0x20 MUL DUP3 ADD SWAP2 SWAP1 PUSH0 MSTORE PUSH1 0x20 PUSH0 KECCAK256 SWAP1 PUSH0 SWAP1 JUMPDEST DUP3 DUP3 SWAP1 SLOAD SWAP1 PUSH2 0x100 EXP SWAP1 DIV PUSH1 0xFF AND PUSH1 0xC6 DUP2 GT ISZERO PUSH2 0x486 JUMPI PUSH2 0x485 PUSH2 0x20A0 JUMP JUMPDEST JUMPDEST DUP2 MSTORE PUSH1 0x20 ADD SWAP1 PUSH1 0x1 ADD SWAP1 PUSH1 0x20 DUP3 PUSH0 ADD DIV SWAP3 DUP4 ADD SWAP3 PUSH1 0x1 SUB DUP3 MUL SWAP2 POP DUP1 DUP5 GT PUSH2 0x466 JUMPI SWAP1 POP JUMPDEST POP POP POP POP POP SWAP2 POP DUP1 DUP1 SLOAD DUP1 PUSH1 0x20 MUL PUSH1 0x20 ADD PUSH1 0x40 MLOAD SWAP1 DUP2 ADD PUSH1 0x40 MSTORE DUP1 SWAP3 SWAP2 SWAP1 DUP2 DUP2 MSTORE PUSH1 0x20 ADD DUP3 DUP1 SLOAD DUP1 ISZERO PUSH2 0x52E JUMPI PUSH1 0x20 MUL DUP3 ADD SWAP2 SWAP1 PUSH0 MSTORE PUSH1 0x20 PUSH0 KECCAK256 SWAP1 PUSH0 SWAP1 JUMPDEST DUP3 DUP3 SWAP1 SLOAD SWAP1 PUSH2 0x100 EXP SWAP1 DIV PUSH1 0xFF AND PUSH1 0xC6 DUP2 GT ISZERO PUSH2 0x509 JUMPI PUSH2 0x508 PUSH2 0x20A0 JUMP JUMPDEST JUMPDEST DUP2 MSTORE PUSH1 0x20 ADD SWAP1 PUSH1 0x1 ADD SWAP1 PUSH1 0x20 DUP3 PUSH0 ADD DIV SWAP3 DUP4 ADD SWAP3 PUSH1 0x1 SUB DUP3 MUL SWAP2 POP DUP1 DUP5 GT PUSH2 0x4E9 JUMPI SWAP1 POP JUMPDEST POP POP POP POP POP SWAP1 POP SWAP2 POP SWAP2 POP SWAP2 POP SWAP2 JUMP JUMPDEST PUSH1 0x60 PUSH0 DUP3 SWAP1 POP PUSH0 DUP2 MLOAD PUSH8 0xFFFFFFFFFFFFFFFF DUP2 GT ISZERO PUSH2 0x560 JUMPI PUSH2 0x55F PUSH2 0x21DB JUMP JUMPDEST JUMPDEST PUSH1 0x40 MLOAD SWAP1 DUP1 DUP3 MSTORE DUP1 PUSH1 0x1F ADD PUSH1 0x1F NOT AND PUSH1 0x20 ADD DUP3 ADD PUSH1 0x40 MSTORE DUP1 ISZERO PUSH2 0x592 JUMPI DUP2 PUSH1 0x20 ADD PUSH1 0x1 DUP3 MUL DUP1 CALLDATASIZE DUP4 CALLDATACOPY DUP1 DUP3 ADD SWAP2 POP POP SWAP1 POP JUMPDEST POP SWAP1 POP PUSH0 JUMPDEST DUP3 MLOAD DUP2 LT ISZERO PUSH2 0x71E JUMPI PUSH1 0x41 PUSH1 0xF8 SHL DUP4 DUP3 DUP2 MLOAD DUP2 LT PUSH2 0x5B8 JUMPI PUSH2 0x5B7 PUSH2 0x281D JUMP JUMPDEST JUMPDEST PUSH1 0x20 ADD ADD MLOAD PUSH1 0xF8 SHR PUSH1 0xF8 SHL PUSH31 0xFFFFFFFFFFFFFFFFFFFFFFFFFFFFFFFFFFFFFFFFFFFFFFFFFFFFFFFFFFFFFF NOT AND LT ISZERO DUP1 ISZERO PUSH2 0x636 JUMPI POP PUSH1 0x5A PUSH1 0xF8 SHL DUP4 DUP3 DUP2 MLOAD DUP2 LT PUSH2 0x606 JUMPI PUSH2 0x605 PUSH2 0x281D JUMP JUMPDEST JUMPDEST PUSH1 0x20 ADD ADD MLOAD PUSH1 0xF8 SHR PUSH1 0xF8 SHL PUSH31 0xFFFFFFFFFFFFFFFFFFFFFFFFFFFFFFFFFFFFFFFFFFFFFFFFFFFFFFFFFFFFFF NOT AND GT ISZERO JUMPDEST ISZERO PUSH2 0x6B1 JUMPI PUSH1 0x20 DUP4 DUP3 DUP2 MLOAD DUP2 LT PUSH2 0x650 JUMPI PUSH2 0x64F PUSH2 0x281D JUMP JUMPDEST JUMPDEST PUSH1 0x20 ADD ADD MLOAD PUSH1 0xF8 SHR PUSH1 0xF8 SHL PUSH1 0xF8 SHR PUSH2 0x668 SWAP2 SWAP1 PUSH2 0x28D3 JUMP JUMPDEST PUSH1 0xF8 SHL DUP3 DUP3 DUP2 MLOAD DUP2 LT PUSH2 0x67E JUMPI PUSH2 0x67D PUSH2 0x281D JUMP JUMPDEST JUMPDEST PUSH1 0x20 ADD ADD SWAP1 PUSH31 0xFFFFFFFFFFFFFFFFFFFFFFFFFFFFFFFFFFFFFFFFFFFFFFFFFFFFFFFFFFFFFF NOT AND SWAP1 DUP2 PUSH0 BYTE SWAP1 MSTORE8 POP PUSH2 0x711 JUMP JUMPDEST DUP3 DUP2 DUP2 MLOAD DUP2 LT PUSH2 0x6C4 JUMPI PUSH2 0x6C3 PUSH2 0x281D JUMP JUMPDEST JUMPDEST PUSH1 0x20 ADD ADD MLOAD PUSH1 0xF8 SHR PUSH1 0xF8 SHL DUP3 DUP3 DUP2 MLOAD DUP2 LT PUSH2 0x6E2 JUMPI PUSH2 0x6E1 PUSH2 0x281D JUMP JUMPDEST JUMPDEST PUSH1 0x20 ADD ADD SWAP1 PUSH31 0xFFFFFFFFFFFFFFFFFFFFFFFFFFFFFFFFFFFFFFFFFFFFFFFFFFFFFFFFFFFFFF NOT AND SWAP1 DUP2 PUSH0 BYTE SWAP1 MSTORE8 POP JUMPDEST DUP1 DUP1 PUSH1 0x1 ADD SWAP2 POP POP PUSH2 0x597 JUMP JUMPDEST POP DUP1 SWAP3 POP POP POP SWAP2 SWAP1 POP JUMP JUMPDEST PUSH0 DUP1 DUP3 SWAP1 POP PUSH0 DUP2 MLOAD EQ SWAP2 POP POP SWAP2 SWAP1 POP JUMP JUMPDEST PUSH1 0x60 PUSH2 0x77B DUP4 PUSH1 0x40 MLOAD DUP1 PUSH1 0x40 ADD PUSH1 0x40 MSTORE DUP1 PUSH1 0x16 DUP2 MSTORE PUSH1 0x20 ADD PUSH32 0x67657455736572496E666F427941646472657373657300000000000000000000 DUP2 MSTORE POP PUSH2 0x201F JUMP JUMPDEST ISZERO PUSH2 0xC5A JUMPI PUSH0 DUP3 DUP1 PUSH1 0x20 ADD SWAP1 MLOAD DUP2 ADD SWAP1 PUSH2 0x795 SWAP2 SWAP1 PUSH2 0x2A25 JUMP JUMPDEST SWAP1 POP PUSH0 DUP2 MLOAD PUSH8 0xFFFFFFFFFFFFFFFF DUP2 GT ISZERO PUSH2 0x7B3 JUMPI PUSH2 0x7B2 PUSH2 0x21DB JUMP JUMPDEST JUMPDEST PUSH1 0x40 MLOAD SWAP1 DUP1 DUP3 MSTORE DUP1 PUSH1 0x20 MUL PUSH1 0x20 ADD DUP3 ADD PUSH1 0x40 MSTORE DUP1 ISZERO PUSH2 0x7E6 JUMPI DUP2 PUSH1 0x20 ADD JUMPDEST PUSH1 0x60 DUP2 MSTORE PUSH1 0x20 ADD SWAP1 PUSH1 0x1 SWAP1 SUB SWAP1 DUP2 PUSH2 0x7D1 JUMPI SWAP1 POP JUMPDEST POP SWAP1 POP PUSH0 DUP3 MLOAD PUSH8 0xFFFFFFFFFFFFFFFF DUP2 GT ISZERO PUSH2 0x805 JUMPI PUSH2 0x804 PUSH2 0x21DB JUMP JUMPDEST JUMPDEST PUSH1 0x40 MLOAD SWAP1 DUP1 DUP3 MSTORE DUP1 PUSH1 0x20 MUL PUSH1 0x20 ADD DUP3 ADD PUSH1 0x40 MSTORE DUP1 ISZERO PUSH2 0x838 JUMPI DUP2 PUSH1 0x20 ADD JUMPDEST PUSH1 0x60 DUP2 MSTORE PUSH1 0x20 ADD SWAP1 PUSH1 0x1 SWAP1 SUB SWAP1 DUP2 PUSH2 0x823 JUMPI SWAP1 POP JUMPDEST POP SWAP1 POP PUSH0 DUP4 MLOAD PUSH8 0xFFFFFFFFFFFFFFFF DUP2 GT ISZERO PUSH2 0x857 JUMPI PUSH2 0x856 PUSH2 0x21DB JUMP JUMPDEST JUMPDEST PUSH1 0x40 MLOAD SWAP1 DUP1 DUP3 MSTORE DUP1 PUSH1 0x20 MUL PUSH1 0x20 ADD DUP3 ADD PUSH1 0x40 MSTORE DUP1 ISZERO PUSH2 0x88A JUMPI DUP2 PUSH1 0x20 ADD JUMPDEST PUSH1 0x60 DUP2 MSTORE PUSH1 0x20 ADD SWAP1 PUSH1 0x1 SWAP1 SUB SWAP1 DUP2 PUSH2 0x875 JUMPI SWAP1 POP JUMPDEST POP SWAP1 POP PUSH0 DUP5 MLOAD PUSH8 0xFFFFFFFFFFFFFFFF DUP2 GT ISZERO PUSH2 0x8A9 JUMPI PUSH2 0x8A8 PUSH2 0x21DB JUMP JUMPDEST JUMPDEST PUSH1 0x40 MLOAD SWAP1 DUP1 DUP3 MSTORE DUP1 PUSH1 0x20 MUL PUSH1 0x20 ADD DUP3 ADD PUSH1 0x40 MSTORE DUP1 ISZERO PUSH2 0x8DC JUMPI DUP2 PUSH1 0x20 ADD JUMPDEST PUSH1 0x60 DUP2 MSTORE PUSH1 0x20 ADD SWAP1 PUSH1 0x1 SWAP1 SUB SWAP1 DUP2 PUSH2 0x8C7 JUMPI SWAP1 POP JUMPDEST POP SWAP1 POP PUSH0 JUMPDEST DUP6 MLOAD DUP2 LT ISZERO PUSH2 0xC27 JUMPI PUSH0 PUSH1 0x3 PUSH0 DUP9 DUP5 DUP2 MLOAD DUP2 LT PUSH2 0x901 JUMPI PUSH2 0x900 PUSH2 0x281D JUMP JUMPDEST JUMPDEST PUSH1 0x20 MUL PUSH1 0x20 ADD ADD MLOAD PUSH20 0xFFFFFFFFFFFFFFFFFFFFFFFFFFFFFFFFFFFFFFFF AND PUSH20 0xFFFFFFFFFFFFFFFFFFFFFFFFFFFFFFFFFFFFFFFF AND DUP2 MSTORE PUSH1 0x20 ADD SWAP1 DUP2 MSTORE PUSH1 0x20 ADD PUSH0 KECCAK256 PUSH1 0x40 MLOAD DUP1 PUSH1 0x80 ADD PUSH1 0x40 MSTORE SWAP1 DUP2 PUSH0 DUP3 ADD DUP1 SLOAD PUSH2 0x95C SWAP1 PUSH2 0x2A99 JUMP JUMPDEST DUP1 PUSH1 0x1F ADD PUSH1 0x20 DUP1 SWAP2 DIV MUL PUSH1 0x20 ADD PUSH1 0x40 MLOAD SWAP1 DUP2 ADD PUSH1 0x40 MSTORE DUP1 SWAP3 SWAP2 SWAP1 DUP2 DUP2 MSTORE PUSH1 0x20 ADD DUP3 DUP1 SLOAD PUSH2 0x988 SWAP1 PUSH2 0x2A99 JUMP JUMPDEST DUP1 ISZERO PUSH2 0x9D3 JUMPI DUP1 PUSH1 0x1F LT PUSH2 0x9AA JUMPI PUSH2 0x100 DUP1 DUP4 SLOAD DIV MUL DUP4 MSTORE SWAP2 PUSH1 0x20 ADD SWAP2 PUSH2 0x9D3 JUMP JUMPDEST DUP3 ADD SWAP2 SWAP1 PUSH0 MSTORE PUSH1 0x20 PUSH0 KECCAK256 SWAP1 JUMPDEST DUP2 SLOAD DUP2 MSTORE SWAP1 PUSH1 0x1 ADD SWAP1 PUSH1 0x20 ADD DUP1 DUP4 GT PUSH2 0x9B6 JUMPI DUP3 SWAP1 SUB PUSH1 0x1F AND DUP3 ADD SWAP2 JUMPDEST POP POP POP POP POP DUP2 MSTORE PUSH1 0x20 ADD PUSH1 0x1 DUP3 ADD DUP1 SLOAD PUSH2 0x9EC SWAP1 PUSH2 0x2A99 JUMP JUMPDEST DUP1 PUSH1 0x1F ADD PUSH1 0x20 DUP1 SWAP2 DIV MUL PUSH1 0x20 ADD PUSH1 0x40 MLOAD SWAP1 DUP2 ADD PUSH1 0x40 MSTORE DUP1 SWAP3 SWAP2 SWAP1 DUP2 DUP2 MSTORE PUSH1 0x20 ADD DUP3 DUP1 SLOAD PUSH2 0xA18 SWAP1 PUSH2 0x2A99 JUMP JUMPDEST DUP1 ISZERO PUSH2 0xA63 JUMPI DUP1 PUSH1 0x1F LT PUSH2 0xA3A JUMPI PUSH2 0x100 DUP1 DUP4 SLOAD DIV MUL DUP4 MSTORE SWAP2 PUSH1 0x20 ADD SWAP2 PUSH2 0xA63 JUMP JUMPDEST DUP3 ADD SWAP2 SWAP1 PUSH0 MSTORE PUSH1 0x20 PUSH0 KECCAK256 SWAP1 JUMPDEST DUP2 SLOAD DUP2 MSTORE SWAP1 PUSH1 0x1 ADD SWAP1 PUSH1 0x20 ADD DUP1 DUP4 GT PUSH2 0xA46 JUMPI DUP3 SWAP1 SUB PUSH1 0x1F AND DUP3 ADD SWAP2 JUMPDEST POP POP POP POP POP DUP2 MSTORE PUSH1 0x20 ADD PUSH1 0x2 DUP3 ADD DUP1 SLOAD PUSH2 0xA7C SWAP1 PUSH2 0x2A99 JUMP JUMPDEST DUP1 PUSH1 0x1F ADD PUSH1 0x20 DUP1 SWAP2 DIV MUL PUSH1 0x20 ADD PUSH1 0x40 MLOAD SWAP1 DUP2 ADD PUSH1 0x40 MSTORE DUP1 SWAP3 SWAP2 SWAP1 DUP2 DUP2 MSTORE PUSH1 0x20 ADD DUP3 DUP1 SLOAD PUSH2 0xAA8 SWAP1 PUSH2 0x2A99 JUMP JUMPDEST DUP1 ISZERO PUSH2 0xAF3 JUMPI DUP1 PUSH1 0x1F LT PUSH2 0xACA JUMPI PUSH2 0x100 DUP1 DUP4 SLOAD DIV MUL DUP4 MSTORE SWAP2 PUSH1 0x20 ADD SWAP2 PUSH2 0xAF3 JUMP JUMPDEST DUP3 ADD SWAP2 SWAP1 PUSH0 MSTORE PUSH1 0x20 PUSH0 KECCAK256 SWAP1 JUMPDEST DUP2 SLOAD DUP2 MSTORE SWAP1 PUSH1 0x1 ADD SWAP1 PUSH1 0x20 ADD DUP1 DUP4 GT PUSH2 0xAD6 JUMPI DUP3 SWAP1 SUB PUSH1 0x1F AND DUP3 ADD SWAP2 JUMPDEST POP POP POP POP POP DUP2 MSTORE PUSH1 0x20 ADD PUSH1 0x3 DUP3 ADD DUP1 SLOAD PUSH2 0xB0C SWAP1 PUSH2 0x2A99 JUMP JUMPDEST DUP1 PUSH1 0x1F ADD PUSH1 0x20 DUP1 SWAP2 DIV MUL PUSH1 0x20 ADD PUSH1 0x40 MLOAD SWAP1 DUP2 ADD PUSH1 0x40 MSTORE DUP1 SWAP3 SWAP2 SWAP1 DUP2 DUP2 MSTORE PUSH1 0x20 ADD DUP3 DUP1 SLOAD PUSH2 0xB38 SWAP1 PUSH2 0x2A99 JUMP JUMPDEST DUP1 ISZERO PUSH2 0xB83 JUMPI DUP1 PUSH1 0x1F LT PUSH2 0xB5A JUMPI PUSH2 0x100 DUP1 DUP4 SLOAD DIV MUL DUP4 MSTORE SWAP2 PUSH1 0x20 ADD SWAP2 PUSH2 0xB83 JUMP JUMPDEST DUP3 ADD SWAP2 SWAP1 PUSH0 MSTORE PUSH1 0x20 PUSH0 KECCAK256 SWAP1 JUMPDEST DUP2 SLOAD DUP2 MSTORE SWAP1 PUSH1 0x1 ADD SWAP1 PUSH1 0x20 ADD DUP1 DUP4 GT PUSH2 0xB66 JUMPI DUP3 SWAP1 SUB PUSH1 0x1F AND DUP3 ADD SWAP2 JUMPDEST POP POP POP POP POP DUP2 MSTORE POP POP SWAP1 POP DUP1 PUSH0 ADD MLOAD DUP7 DUP4 DUP2 MLOAD DUP2 LT PUSH2 0xBA5 JUMPI PUSH2 0xBA4 PUSH2 0x281D JUMP JUMPDEST JUMPDEST PUSH1 0x20 MUL PUSH1 0x20 ADD ADD DUP2 SWAP1 MSTORE POP DUP1 PUSH1 0x20 ADD MLOAD DUP6 DUP4 DUP2 MLOAD DUP2 LT PUSH2 0xBC8 JUMPI PUSH2 0xBC7 PUSH2 0x281D JUMP JUMPDEST JUMPDEST PUSH1 0x20 MUL PUSH1 0x20 ADD ADD DUP2 SWAP1 MSTORE POP DUP1 PUSH1 0x40 ADD MLOAD DUP5 DUP4 DUP2 MLOAD DUP2 LT PUSH2 0xBEB JUMPI PUSH2 0xBEA PUSH2 0x281D JUMP JUMPDEST JUMPDEST PUSH1 0x20 MUL PUSH1 0x20 ADD ADD DUP2 SWAP1 MSTORE POP DUP1 PUSH1 0x60 ADD MLOAD DUP4 DUP4 DUP2 MLOAD DUP2 LT PUSH2 0xC0E JUMPI PUSH2 0xC0D PUSH2 0x281D JUMP JUMPDEST JUMPDEST PUSH1 0x20 MUL PUSH1 0x20 ADD ADD DUP2 SWAP1 MSTORE POP POP DUP1 DUP1 PUSH1 0x1 ADD SWAP2 POP POP PUSH2 0x8E1 JUMP JUMPDEST POP DUP4 DUP4 DUP4 DUP4 PUSH1 0x40 MLOAD PUSH1 0x20 ADD PUSH2 0xC3F SWAP5 SWAP4 SWAP3 SWAP2 SWAP1 PUSH2 0x2AC9 JUMP JUMPDEST PUSH1 0x40 MLOAD PUSH1 0x20 DUP2 DUP4 SUB SUB DUP2 MSTORE SWAP1 PUSH1 0x40 MSTORE SWAP6 POP POP POP POP POP POP PUSH2 0x1314 JUMP JUMPDEST PUSH2 0xC99 DUP4 PUSH1 0x40 MLOAD DUP1 PUSH1 0x40 ADD PUSH1 0x40 MSTORE DUP1 PUSH1 0x14 DUP2 MSTORE PUSH1 0x20 ADD PUSH32 0x67657455736572496E666F427948616E646C6573000000000000000000000000 DUP2 MSTORE POP PUSH2 0x201F JUMP JUMPDEST ISZERO PUSH2 0x1233 JUMPI PUSH0 DUP3 DUP1 PUSH1 0x20 ADD SWAP1 MLOAD DUP2 ADD SWAP1 PUSH2 0xCB3 SWAP2 SWAP1 PUSH2 0x2C74 JUMP JUMPDEST SWAP1 POP PUSH0 DUP2 MLOAD PUSH8 0xFFFFFFFFFFFFFFFF DUP2 GT ISZERO PUSH2 0xCD1 JUMPI PUSH2 0xCD0 PUSH2 0x21DB JUMP JUMPDEST JUMPDEST PUSH1 0x40 MLOAD SWAP1 DUP1 DUP3 MSTORE DUP1 PUSH1 0x20 MUL PUSH1 0x20 ADD DUP3 ADD PUSH1 0x40 MSTORE DUP1 ISZERO PUSH2 0xCFF JUMPI DUP2 PUSH1 0x20 ADD PUSH1 0x20 DUP3 MUL DUP1 CALLDATASIZE DUP4 CALLDATACOPY DUP1 DUP3 ADD SWAP2 POP POP SWAP1 POP JUMPDEST POP SWAP1 POP PUSH0 DUP3 MLOAD PUSH8 0xFFFFFFFFFFFFFFFF DUP2 GT ISZERO PUSH2 0xD1E JUMPI PUSH2 0xD1D PUSH2 0x21DB JUMP JUMPDEST JUMPDEST PUSH1 0x40 MLOAD SWAP1 DUP1 DUP3 MSTORE DUP1 PUSH1 0x20 MUL PUSH1 0x20 ADD DUP3 ADD PUSH1 0x40 MSTORE DUP1 ISZERO PUSH2 0xD51 JUMPI DUP2 PUSH1 0x20 ADD JUMPDEST PUSH1 0x60 DUP2 MSTORE PUSH1 0x20 ADD SWAP1 PUSH1 0x1 SWAP1 SUB SWAP1 DUP2 PUSH2 0xD3C JUMPI SWAP1 POP JUMPDEST POP SWAP1 POP PUSH0 DUP4 MLOAD PUSH8 0xFFFFFFFFFFFFFFFF DUP2 GT ISZERO PUSH2 0xD70 JUMPI PUSH2 0xD6F PUSH2 0x21DB JUMP JUMPDEST JUMPDEST PUSH1 0x40 MLOAD SWAP1 DUP1 DUP3 MSTORE DUP1 PUSH1 0x20 MUL PUSH1 0x20 ADD DUP3 ADD PUSH1 0x40 MSTORE DUP1 ISZERO PUSH2 0xDA3 JUMPI DUP2 PUSH1 0x20 ADD JUMPDEST PUSH1 0x60 DUP2 MSTORE PUSH1 0x20 ADD SWAP1 PUSH1 0x1 SWAP1 SUB SWAP1 DUP2 PUSH2 0xD8E JUMPI SWAP1 POP JUMPDEST POP SWAP1 POP PUSH0 DUP5 MLOAD PUSH8 0xFFFFFFFFFFFFFFFF DUP2 GT ISZERO PUSH2 0xDC2 JUMPI PUSH2 0xDC1 PUSH2 0x21DB JUMP JUMPDEST JUMPDEST PUSH1 0x40 MLOAD SWAP1 DUP1 DUP3 MSTORE DUP1 PUSH1 0x20 MUL PUSH1 0x20 ADD DUP3 ADD PUSH1 0x40 MSTORE DUP1 ISZERO PUSH2 0xDF5 JUMPI DUP2 PUSH1 0x20 ADD JUMPDEST PUSH1 0x60 DUP2 MSTORE PUSH1 0x20 ADD SWAP1 PUSH1 0x1 SWAP1 SUB SWAP1 DUP2 PUSH2 0xDE0 JUMPI SWAP1 POP JUMPDEST POP SWAP1 POP PUSH0 JUMPDEST DUP6 MLOAD DUP2 LT ISZERO PUSH2 0x1200 JUMPI PUSH0 PUSH1 0x3 PUSH0 PUSH1 0x4 DUP10 DUP6 DUP2 MLOAD DUP2 LT PUSH2 0xE1C JUMPI PUSH2 0xE1B PUSH2 0x281D JUMP JUMPDEST JUMPDEST PUSH1 0x20 MUL PUSH1 0x20 ADD ADD MLOAD PUSH1 0x40 MLOAD PUSH2 0xE31 SWAP2 SWAP1 PUSH2 0x2884 JUMP JUMPDEST SWAP1 DUP2 MSTORE PUSH1 0x20 ADD PUSH1 0x40 MLOAD DUP1 SWAP2 SUB SWAP1 KECCAK256 PUSH0 SWAP1 SLOAD SWAP1 PUSH2 0x100 EXP SWAP1 DIV PUSH20 0xFFFFFFFFFFFFFFFFFFFFFFFFFFFFFFFFFFFFFFFF AND PUSH20 0xFFFFFFFFFFFFFFFFFFFFFFFFFFFFFFFFFFFFFFFF AND PUSH20 0xFFFFFFFFFFFFFFFFFFFFFFFFFFFFFFFFFFFFFFFF AND DUP2 MSTORE PUSH1 0x20 ADD SWAP1 DUP2 MSTORE PUSH1 0x20 ADD PUSH0 KECCAK256 PUSH1 0x40 MLOAD DUP1 PUSH1 0x80 ADD PUSH1 0x40 MSTORE SWAP1 DUP2 PUSH0 DUP3 ADD DUP1 SLOAD PUSH2 0xEB2 SWAP1 PUSH2 0x2A99 JUMP JUMPDEST DUP1 PUSH1 0x1F ADD PUSH1 0x20 DUP1 SWAP2 DIV MUL PUSH1 0x20 ADD PUSH1 0x40 MLOAD SWAP1 DUP2 ADD PUSH1 0x40 MSTORE DUP1 SWAP3 SWAP2 SWAP1 DUP2 DUP2 MSTORE PUSH1 0x20 ADD DUP3 DUP1 SLOAD PUSH2 0xEDE SWAP1 PUSH2 0x2A99 JUMP JUMPDEST DUP1 ISZERO PUSH2 0xF29 JUMPI DUP1 PUSH1 0x1F LT PUSH2 0xF00 JUMPI PUSH2 0x100 DUP1 DUP4 SLOAD DIV MUL DUP4 MSTORE SWAP2 PUSH1 0x20 ADD SWAP2 PUSH2 0xF29 JUMP JUMPDEST DUP3 ADD SWAP2 SWAP1 PUSH0 MSTORE PUSH1 0x20 PUSH0 KECCAK256 SWAP1 JUMPDEST DUP2 SLOAD DUP2 MSTORE SWAP1 PUSH1 0x1 ADD SWAP1 PUSH1 0x20 ADD DUP1 DUP4 GT PUSH2 0xF0C JUMPI DUP3 SWAP1 SUB PUSH1 0x1F AND DUP3 ADD SWAP2 JUMPDEST POP POP POP POP POP DUP2 MSTORE PUSH1 0x20 ADD PUSH1 0x1 DUP3 ADD DUP1 SLOAD PUSH2 0xF42 SWAP1 PUSH2 0x2A99 JUMP JUMPDEST DUP1 PUSH1 0x1F ADD PUSH1 0x20 DUP1 SWAP2 DIV MUL PUSH1 0x20 ADD PUSH1 0x40 MLOAD SWAP1 DUP2 ADD PUSH1 0x40 MSTORE DUP1 SWAP3 SWAP2 SWAP1 DUP2 DUP2 MSTORE PUSH1 0x20 ADD DUP3 DUP1 SLOAD PUSH2 0xF6E SWAP1 PUSH2 0x2A99 JUMP JUMPDEST DUP1 ISZERO PUSH2 0xFB9 JUMPI DUP1 PUSH1 0x1F LT PUSH2 0xF90 JUMPI PUSH2 0x100 DUP1 DUP4 SLOAD DIV MUL DUP4 MSTORE SWAP2 PUSH1 0x20 ADD SWAP2 PUSH2 0xFB9 JUMP JUMPDEST DUP3 ADD SWAP2 SWAP1 PUSH0 MSTORE PUSH1 0x20 PUSH0 KECCAK256 SWAP1 JUMPDEST DUP2 SLOAD DUP2 MSTORE SWAP1 PUSH1 0x1 ADD SWAP1 PUSH1 0x20 ADD DUP1 DUP4 GT PUSH2 0xF9C JUMPI DUP3 SWAP1 SUB PUSH1 0x1F AND DUP3 ADD SWAP2 JUMPDEST POP POP POP POP POP DUP2 MSTORE PUSH1 0x20 ADD PUSH1 0x2 DUP3 ADD DUP1 SLOAD PUSH2 0xFD2 SWAP1 PUSH2 0x2A99 JUMP JUMPDEST DUP1 PUSH1 0x1F ADD PUSH1 0x20 DUP1 SWAP2 DIV MUL PUSH1 0x20 ADD PUSH1 0x40 MLOAD SWAP1 DUP2 ADD PUSH1 0x40 MSTORE DUP1 SWAP3 SWAP2 SWAP1 DUP2 DUP2 MSTORE PUSH1 0x20 ADD DUP3 DUP1 SLOAD PUSH2 0xFFE SWAP1 PUSH2 0x2A99 JUMP JUMPDEST DUP1 ISZERO PUSH2 0x1049 JUMPI DUP1 PUSH1 0x1F LT PUSH2 0x1020 JUMPI PUSH2 0x100 DUP1 DUP4 SLOAD DIV MUL DUP4 MSTORE SWAP2 PUSH1 0x20 ADD SWAP2 PUSH2 0x1049 JUMP JUMPDEST DUP3 ADD SWAP2 SWAP1 PUSH0 MSTORE PUSH1 0x20 PUSH0 KECCAK256 SWAP1 JUMPDEST DUP2 SLOAD DUP2 MSTORE SWAP1 PUSH1 0x1 ADD SWAP1 PUSH1 0x20 ADD DUP1 DUP4 GT PUSH2 0x102C JUMPI DUP3 SWAP1 SUB PUSH1 0x1F AND DUP3 ADD SWAP2 JUMPDEST POP POP POP POP POP DUP2 MSTORE PUSH1 0x20 ADD PUSH1 0x3 DUP3 ADD DUP1 SLOAD PUSH2 0x1062 SWAP1 PUSH2 0x2A99 JUMP JUMPDEST DUP1 PUSH1 0x1F ADD PUSH1 0x20 DUP1 SWAP2 DIV MUL PUSH1 0x20 ADD PUSH1 0x40 MLOAD SWAP1 DUP2 ADD PUSH1 0x40 MSTORE DUP1 SWAP3 SWAP2 SWAP1 DUP2 DUP2 MSTORE PUSH1 0x20 ADD DUP3 DUP1 SLOAD PUSH2 0x108E SWAP1 PUSH2 0x2A99 JUMP JUMPDEST DUP1 ISZERO PUSH2 0x10D9 JUMPI DUP1 PUSH1 0x1F LT PUSH2 0x10B0 JUMPI PUSH2 0x100 DUP1 DUP4 SLOAD DIV MUL DUP4 MSTORE SWAP2 PUSH1 0x20 ADD SWAP2 PUSH2 0x10D9 JUMP JUMPDEST DUP3 ADD SWAP2 SWAP1 PUSH0 MSTORE PUSH1 0x20 PUSH0 KECCAK256 SWAP1 JUMPDEST DUP2 SLOAD DUP2 MSTORE SWAP1 PUSH1 0x1 ADD SWAP1 PUSH1 0x20 ADD DUP1 DUP4 GT PUSH2 0x10BC JUMPI DUP3 SWAP1 SUB PUSH1 0x1F AND DUP3 ADD SWAP2 JUMPDEST POP POP POP POP POP DUP2 MSTORE POP POP SWAP1 POP PUSH1 0x4 DUP8 DUP4 DUP2 MLOAD DUP2 LT PUSH2 0x10F9 JUMPI PUSH2 0x10F8 PUSH2 0x281D JUMP JUMPDEST JUMPDEST PUSH1 0x20 MUL PUSH1 0x20 ADD ADD MLOAD PUSH1 0x40 MLOAD PUSH2 0x110E SWAP2 SWAP1 PUSH2 0x2884 JUMP JUMPDEST SWAP1 DUP2 MSTORE PUSH1 0x20 ADD PUSH1 0x40 MLOAD DUP1 SWAP2 SUB SWAP1 KECCAK256 PUSH0 SWAP1 SLOAD SWAP1 PUSH2 0x100 EXP SWAP1 DIV PUSH20 0xFFFFFFFFFFFFFFFFFFFFFFFFFFFFFFFFFFFFFFFF AND DUP7 DUP4 DUP2 MLOAD DUP2 LT PUSH2 0x114F JUMPI PUSH2 0x114E PUSH2 0x281D JUMP JUMPDEST JUMPDEST PUSH1 0x20 MUL PUSH1 0x20 ADD ADD SWAP1 PUSH20 0xFFFFFFFFFFFFFFFFFFFFFFFFFFFFFFFFFFFFFFFF AND SWAP1 DUP2 PUSH20 0xFFFFFFFFFFFFFFFFFFFFFFFFFFFFFFFFFFFFFFFF AND DUP2 MSTORE POP POP DUP1 PUSH1 0x20 ADD MLOAD DUP6 DUP4 DUP2 MLOAD DUP2 LT PUSH2 0x11A1 JUMPI PUSH2 0x11A0 PUSH2 0x281D JUMP JUMPDEST JUMPDEST PUSH1 0x20 MUL PUSH1 0x20 ADD ADD DUP2 SWAP1 MSTORE POP DUP1 PUSH1 0x40 ADD MLOAD DUP5 DUP4 DUP2 MLOAD DUP2 LT PUSH2 0x11C4 JUMPI PUSH2 0x11C3 PUSH2 0x281D JUMP JUMPDEST JUMPDEST PUSH1 0x20 MUL PUSH1 0x20 ADD ADD DUP2 SWAP1 MSTORE POP DUP1 PUSH1 0x60 ADD MLOAD DUP4 DUP4 DUP2 MLOAD DUP2 LT PUSH2 0x11E7 JUMPI PUSH2 0x11E6 PUSH2 0x281D JUMP JUMPDEST JUMPDEST PUSH1 0x20 MUL PUSH1 0x20 ADD ADD DUP2 SWAP1 MSTORE POP POP DUP1 DUP1 PUSH1 0x1 ADD SWAP2 POP POP PUSH2 0xDFA JUMP JUMPDEST POP DUP4 DUP4 DUP4 DUP4 PUSH1 0x40 MLOAD PUSH1 0x20 ADD PUSH2 0x1218 SWAP5 SWAP4 SWAP3 SWAP2 SWAP1 PUSH2 0x2D72 JUMP JUMPDEST PUSH1 0x40 MLOAD PUSH1 0x20 DUP2 DUP4 SUB SUB DUP2 MSTORE SWAP1 PUSH1 0x40 MSTORE SWAP6 POP POP POP POP POP POP PUSH2 0x1314 JUMP JUMPDEST PUSH2 0x1272 DUP4 PUSH1 0x40 MLOAD DUP1 PUSH1 0x40 ADD PUSH1 0x40 MSTORE DUP1 PUSH1 0x12 DUP2 MSTORE PUSH1 0x20 ADD PUSH32 0x67657441646472657373427948616E646C650000000000000000000000000000 DUP2 MSTORE POP PUSH2 0x201F JUMP JUMPDEST ISZERO PUSH2 0x12F3 JUMPI PUSH0 DUP3 DUP1 PUSH1 0x20 ADD SWAP1 MLOAD DUP2 ADD SWAP1 PUSH2 0x128C SWAP2 SWAP1 PUSH2 0x2DD1 JUMP JUMPDEST SWAP1 POP PUSH1 0x4 DUP2 PUSH1 0x40 MLOAD PUSH2 0x129E SWAP2 SWAP1 PUSH2 0x2884 JUMP JUMPDEST SWAP1 DUP2 MSTORE PUSH1 0x20 ADD PUSH1 0x40 MLOAD DUP1 SWAP2 SUB SWAP1 KECCAK256 PUSH0 SWAP1 SLOAD SWAP1 PUSH2 0x100 EXP SWAP1 DIV PUSH20 0xFFFFFFFFFFFFFFFFFFFFFFFFFFFFFFFFFFFFFFFF AND PUSH1 0x40 MLOAD PUSH1 0x20 ADD PUSH2 0x12DC SWAP2 SWAP1 PUSH2 0x2E27 JUMP JUMPDEST PUSH1 0x40 MLOAD PUSH1 0x20 DUP2 DUP4 SUB SUB DUP2 MSTORE SWAP1 PUSH1 0x40 MSTORE SWAP2 POP POP PUSH2 0x1314 JUMP JUMPDEST PUSH1 0x40 MLOAD PUSH1 0x20 ADD PUSH2 0x1302 SWAP1 PUSH2 0x2E63 JUMP JUMPDEST PUSH1 0x40 MLOAD PUSH1 0x20 DUP2 DUP4 SUB SUB DUP2 MSTORE SWAP1 PUSH1 0x40 MSTORE SWAP1 POP JUMPDEST SWAP3 SWAP2 POP POP JUMP JUMPDEST PUSH1 0x60 PUSH2 0x135B DUP4 PUSH1 0x40 MLOAD DUP1 PUSH1 0x40 ADD PUSH1 0x40 MSTORE DUP1 PUSH1 0xA DUP2 MSTORE PUSH1 0x20 ADD PUSH32 0x6372656174655573657200000000000000000000000000000000000000000000 DUP2 MSTORE POP PUSH2 0x201F JUMP JUMPDEST ISZERO PUSH2 0x18F3 JUMPI PUSH0 DUP1 PUSH0 DUP1 DUP6 DUP1 PUSH1 0x20 ADD SWAP1 MLOAD DUP2 ADD SWAP1 PUSH2 0x1378 SWAP2 SWAP1 PUSH2 0x2E81 JUMP JUMPDEST SWAP4 POP SWAP4 POP SWAP4 POP SWAP4 POP PUSH2 0x1389 DUP5 PUSH2 0x191A JUMP JUMPDEST PUSH2 0x13C8 JUMPI PUSH1 0x40 MLOAD PUSH32 0x8C379A000000000000000000000000000000000000000000000000000000000 DUP2 MSTORE PUSH1 0x4 ADD PUSH2 0x13BF SWAP1 PUSH2 0x2F9F JUMP JUMPDEST PUSH1 0x40 MLOAD DUP1 SWAP2 SUB SWAP1 REVERT JUMPDEST PUSH0 PUSH1 0x3 PUSH0 CALLER PUSH20 0xFFFFFFFFFFFFFFFFFFFFFFFFFFFFFFFFFFFFFFFF AND PUSH20 0xFFFFFFFFFFFFFFFFFFFFFFFFFFFFFFFFFFFFFFFF AND DUP2 MSTORE PUSH1 0x20 ADD SWAP1 DUP2 MSTORE PUSH1 0x20 ADD PUSH0 KECCAK256 PUSH1 0x40 MLOAD DUP1 PUSH1 0x80 ADD PUSH1 0x40 MSTORE SWAP1 DUP2 PUSH0 DUP3 ADD DUP1 SLOAD PUSH2 0x1420 SWAP1 PUSH2 0x2A99 JUMP JUMPDEST DUP1 PUSH1 0x1F ADD PUSH1 0x20 DUP1 SWAP2 DIV MUL PUSH1 0x20 ADD PUSH1 0x40 MLOAD SWAP1 DUP2 ADD PUSH1 0x40 MSTORE DUP1 SWAP3 SWAP2 SWAP1 DUP2 DUP2 MSTORE PUSH1 0x20 ADD DUP3 DUP1 SLOAD PUSH2 0x144C SWAP1 PUSH2 0x2A99 JUMP JUMPDEST DUP1 ISZERO PUSH2 0x1497 JUMPI DUP1 PUSH1 0x1F LT PUSH2 0x146E JUMPI PUSH2 0x100 DUP1 DUP4 SLOAD DIV MUL DUP4 MSTORE SWAP2 PUSH1 0x20 ADD SWAP2 PUSH2 0x1497 JUMP JUMPDEST DUP3 ADD SWAP2 SWAP1 PUSH0 MSTORE PUSH1 0x20 PUSH0 KECCAK256 SWAP1 JUMPDEST DUP2 SLOAD DUP2 MSTORE SWAP1 PUSH1 0x1 ADD SWAP1 PUSH1 0x20 ADD DUP1 DUP4 GT PUSH2 0x147A JUMPI DUP3 SWAP1 SUB PUSH1 0x1F AND DUP3 ADD SWAP2 JUMPDEST POP POP POP POP POP DUP2 MSTORE PUSH1 0x20 ADD PUSH1 0x1 DUP3 ADD DUP1 SLOAD PUSH2 0x14B0 SWAP1 PUSH2 0x2A99 JUMP JUMPDEST DUP1 PUSH1 0x1F ADD PUSH1 0x20 DUP1 SWAP2 DIV MUL PUSH1 0x20 ADD PUSH1 0x40 MLOAD SWAP1 DUP2 ADD PUSH1 0x40 MSTORE DUP1 SWAP3 SWAP2 SWAP1 DUP2 DUP2 MSTORE PUSH1 0x20 ADD DUP3 DUP1 SLOAD PUSH2 0x14DC SWAP1 PUSH2 0x2A99 JUMP JUMPDEST DUP1 ISZERO PUSH2 0x1527 JUMPI DUP1 PUSH1 0x1F LT PUSH2 0x14FE JUMPI PUSH2 0x100 DUP1 DUP4 SLOAD DIV MUL DUP4 MSTORE SWAP2 PUSH1 0x20 ADD SWAP2 PUSH2 0x1527 JUMP JUMPDEST DUP3 ADD SWAP2 SWAP1 PUSH0 MSTORE PUSH1 0x20 PUSH0 KECCAK256 SWAP1 JUMPDEST DUP2 SLOAD DUP2 MSTORE SWAP1 PUSH1 0x1 ADD SWAP1 PUSH1 0x20 ADD DUP1 DUP4 GT PUSH2 0x150A JUMPI DUP3 SWAP1 SUB PUSH1 0x1F AND DUP3 ADD SWAP2 JUMPDEST POP POP POP POP POP DUP2 MSTORE PUSH1 0x20 ADD PUSH1 0x2 DUP3 ADD DUP1 SLOAD PUSH2 0x1540 SWAP1 PUSH2 0x2A99 JUMP JUMPDEST DUP1 PUSH1 0x1F ADD PUSH1 0x20 DUP1 SWAP2 DIV MUL PUSH1 0x20 ADD PUSH1 0x40 MLOAD SWAP1 DUP2 ADD PUSH1 0x40 MSTORE DUP1 SWAP3 SWAP2 SWAP1 DUP2 DUP2 MSTORE PUSH1 0x20 ADD DUP3 DUP1 SLOAD PUSH2 0x156C SWAP1 PUSH2 0x2A99 JUMP JUMPDEST DUP1 ISZERO PUSH2 0x15B7 JUMPI DUP1 PUSH1 0x1F LT PUSH2 0x158E JUMPI PUSH2 0x100 DUP1 DUP4 SLOAD DIV MUL DUP4 MSTORE SWAP2 PUSH1 0x20 ADD SWAP2 PUSH2 0x15B7 JUMP JUMPDEST DUP3 ADD SWAP2 SWAP1 PUSH0 MSTORE PUSH1 0x20 PUSH0 KECCAK256 SWAP1 JUMPDEST DUP2 SLOAD DUP2 MSTORE SWAP1 PUSH1 0x1 ADD SWAP1 PUSH1 0x20 ADD DUP1 DUP4 GT PUSH2 0x159A JUMPI DUP3 SWAP1 SUB PUSH1 0x1F AND DUP3 ADD SWAP2 JUMPDEST POP POP POP POP POP DUP2 MSTORE PUSH1 0x20 ADD PUSH1 0x3 DUP3 ADD DUP1 SLOAD PUSH2 0x15D0 SWAP1 PUSH2 0x2A99 JUMP JUMPDEST DUP1 PUSH1 0x1F ADD PUSH1 0x20 DUP1 SWAP2 DIV MUL PUSH1 0x20 ADD PUSH1 0x40 MLOAD SWAP1 DUP2 ADD PUSH1 0x40 MSTORE DUP1 SWAP3 SWAP2 SWAP1 DUP2 DUP2 MSTORE PUSH1 0x20 ADD DUP3 DUP1 SLOAD PUSH2 0x15FC SWAP1 PUSH2 0x2A99 JUMP JUMPDEST DUP1 ISZERO PUSH2 0x1647 JUMPI DUP1 PUSH1 0x1F LT PUSH2 0x161E JUMPI PUSH2 0x100 DUP1 DUP4 SLOAD DIV MUL DUP4 MSTORE SWAP2 PUSH1 0x20 ADD SWAP2 PUSH2 0x1647 JUMP JUMPDEST DUP3 ADD SWAP2 SWAP1 PUSH0 MSTORE PUSH1 0x20 PUSH0 KECCAK256 SWAP1 JUMPDEST DUP2 SLOAD DUP2 MSTORE SWAP1 PUSH1 0x1 ADD SWAP1 PUSH1 0x20 ADD DUP1 DUP4 GT PUSH2 0x162A JUMPI DUP3 SWAP1 SUB PUSH1 0x1F AND DUP3 ADD SWAP2 JUMPDEST POP POP POP POP POP DUP2 MSTORE POP POP SWAP1 POP PUSH0 PUSH20 0xFFFFFFFFFFFFFFFFFFFFFFFFFFFFFFFFFFFFFFFF AND PUSH1 0x4 DUP7 PUSH1 0x40 MLOAD PUSH2 0x1679 SWAP2 SWAP1 PUSH2 0x2884 JUMP JUMPDEST SWAP1 DUP2 MSTORE PUSH1 0x20 ADD PUSH1 0x40 MLOAD DUP1 SWAP2 SUB SWAP1 KECCAK256 PUSH0 SWAP1 SLOAD SWAP1 PUSH2 0x100 EXP SWAP1 DIV PUSH20 0xFFFFFFFFFFFFFFFFFFFFFFFFFFFFFFFFFFFFFFFF AND PUSH20 0xFFFFFFFFFFFFFFFFFFFFFFFFFFFFFFFFFFFFFFFF AND EQ PUSH2 0x16FD JUMPI PUSH1 0x40 MLOAD PUSH32 0x8C379A000000000000000000000000000000000000000000000000000000000 DUP2 MSTORE PUSH1 0x4 ADD PUSH2 0x16F4 SWAP1 PUSH2 0x3007 JUMP JUMPDEST PUSH1 0x40 MLOAD DUP1 SWAP2 SUB SWAP1 REVERT JUMPDEST PUSH2 0x1709 DUP2 PUSH0 ADD MLOAD PUSH2 0x729 JUMP JUMPDEST ISZERO PUSH2 0x188E JUMPI PUSH1 0x40 MLOAD DUP1 PUSH1 0x80 ADD PUSH1 0x40 MSTORE DUP1 DUP7 DUP2 MSTORE PUSH1 0x20 ADD DUP6 DUP2 MSTORE PUSH1 0x20 ADD DUP5 DUP2 MSTORE PUSH1 0x20 ADD DUP4 DUP2 MSTORE POP PUSH1 0x3 PUSH0 CALLER PUSH20 0xFFFFFFFFFFFFFFFFFFFFFFFFFFFFFFFFFFFFFFFF AND PUSH20 0xFFFFFFFFFFFFFFFFFFFFFFFFFFFFFFFFFFFFFFFF AND DUP2 MSTORE PUSH1 0x20 ADD SWAP1 DUP2 MSTORE PUSH1 0x20 ADD PUSH0 KECCAK256 PUSH0 DUP3 ADD MLOAD DUP2 PUSH0 ADD SWAP1 DUP2 PUSH2 0x177F SWAP2 SWAP1 PUSH2 0x31CB JUMP JUMPDEST POP PUSH1 0x20 DUP3 ADD MLOAD DUP2 PUSH1 0x1 ADD SWAP1 DUP2 PUSH2 0x1795 SWAP2 SWAP1 PUSH2 0x31CB JUMP JUMPDEST POP PUSH1 0x40 DUP3 ADD MLOAD DUP2 PUSH1 0x2 ADD SWAP1 DUP2 PUSH2 0x17AB SWAP2 SWAP1 PUSH2 0x31CB JUMP JUMPDEST POP PUSH1 0x60 DUP3 ADD MLOAD DUP2 PUSH1 0x3 ADD SWAP1 DUP2 PUSH2 0x17C1 SWAP2 SWAP1 PUSH2 0x31CB JUMP JUMPDEST POP SWAP1 POP POP CALLER PUSH1 0x4 DUP7 PUSH1 0x40 MLOAD PUSH2 0x17D6 SWAP2 SWAP1 PUSH2 0x2884 JUMP JUMPDEST SWAP1 DUP2 MSTORE PUSH1 0x20 ADD PUSH1 0x40 MLOAD DUP1 SWAP2 SUB SWAP1 KECCAK256 PUSH0 PUSH2 0x100 EXP DUP2 SLOAD DUP2 PUSH20 0xFFFFFFFFFFFFFFFFFFFFFFFFFFFFFFFFFFFFFFFF MUL NOT AND SWAP1 DUP4 PUSH20 0xFFFFFFFFFFFFFFFFFFFFFFFFFFFFFFFFFFFFFFFF AND MUL OR SWAP1 SSTORE POP DUP5 PUSH1 0x40 MLOAD PUSH2 0x182F SWAP2 SWAP1 PUSH2 0x2884 JUMP JUMPDEST PUSH1 0x40 MLOAD DUP1 SWAP2 SUB SWAP1 KECCAK256 CALLER PUSH20 0xFFFFFFFFFFFFFFFFFFFFFFFFFFFFFFFFFFFFFFFF AND PUSH32 0x1C4834C8729CCA3A7EA1E1C19A12CE6721CB054F67CB6590E733A2BB4B8BE85A DUP7 DUP7 DUP7 PUSH1 0x40 MLOAD PUSH2 0x1881 SWAP4 SWAP3 SWAP2 SWAP1 PUSH2 0x329A JUMP JUMPDEST PUSH1 0x40 MLOAD DUP1 SWAP2 SUB SWAP1 LOG3 PUSH2 0x18C9 JUMP JUMPDEST PUSH1 0x40 MLOAD PUSH32 0x8C379A000000000000000000000000000000000000000000000000000000000 DUP2 MSTORE PUSH1 0x4 ADD PUSH2 0x18C0 SWAP1 PUSH2 0x332E JUMP JUMPDEST PUSH1 0x40 MLOAD DUP1 SWAP2 SUB SWAP1 REVERT JUMPDEST PUSH1 0x40 MLOAD PUSH1 0x20 ADD PUSH2 0x18D8 SWAP1 PUSH2 0x2E63 JUMP JUMPDEST PUSH1 0x40 MLOAD PUSH1 0x20 DUP2 DUP4 SUB SUB DUP2 MSTORE SWAP1 PUSH1 0x40 MSTORE SWAP6 POP POP POP POP POP POP PUSH2 0x1914 JUMP JUMPDEST PUSH1 0x40 MLOAD PUSH1 0x20 ADD PUSH2 0x1902 SWAP1 PUSH2 0x2E63 JUMP JUMPDEST PUSH1 0x40 MLOAD PUSH1 0x20 DUP2 DUP4 SUB SUB DUP2 MSTORE SWAP1 PUSH1 0x40 MSTORE SWAP1 POP JUMPDEST SWAP3 SWAP2 POP POP JUMP JUMPDEST PUSH0 DUP1 DUP3 SWAP1 POP PUSH0 DUP2 MLOAD EQ DUP1 PUSH2 0x192F JUMPI POP PUSH1 0x14 DUP2 MLOAD GT JUMPDEST ISZERO PUSH2 0x193D JUMPI PUSH0 SWAP2 POP POP PUSH2 0x1A89 JUMP JUMPDEST PUSH0 JUMPDEST DUP2 MLOAD DUP2 LT ISZERO PUSH2 0x1A82 JUMPI PUSH0 DUP3 DUP3 DUP2 MLOAD DUP2 LT PUSH2 0x195C JUMPI PUSH2 0x195B PUSH2 0x281D JUMP JUMPDEST JUMPDEST PUSH1 0x20 ADD ADD MLOAD PUSH1 0xF8 SHR PUSH1 0xF8 SHL SWAP1 POP PUSH1 0x61 PUSH1 0xF8 SHL DUP2 PUSH31 0xFFFFFFFFFFFFFFFFFFFFFFFFFFFFFFFFFFFFFFFFFFFFFFFFFFFFFFFFFFFFFF NOT AND LT ISZERO DUP1 ISZERO PUSH2 0x19C5 JUMPI POP PUSH1 0x7A PUSH1 0xF8 SHL DUP2 PUSH31 0xFFFFFFFFFFFFFFFFFFFFFFFFFFFFFFFFFFFFFFFFFFFFFFFFFFFFFFFFFFFFFF NOT AND GT ISZERO JUMPDEST ISZERO PUSH2 0x19D0 JUMPI POP PUSH2 0x1A75 JUMP JUMPDEST PUSH1 0x30 PUSH1 0xF8 SHL DUP2 PUSH31 0xFFFFFFFFFFFFFFFFFFFFFFFFFFFFFFFFFFFFFFFFFFFFFFFFFFFFFFFFFFFFFF NOT AND LT ISZERO DUP1 ISZERO PUSH2 0x1A2C JUMPI POP PUSH1 0x39 PUSH1 0xF8 SHL DUP2 PUSH31 0xFFFFFFFFFFFFFFFFFFFFFFFFFFFFFFFFFFFFFFFFFFFFFFFFFFFFFFFFFFFFFF NOT AND GT ISZERO JUMPDEST ISZERO PUSH2 0x1A37 JUMPI POP PUSH2 0x1A75 JUMP JUMPDEST PUSH1 0x5F PUSH1 0xF8 SHL DUP2 PUSH31 0xFFFFFFFFFFFFFFFFFFFFFFFFFFFFFFFFFFFFFFFFFFFFFFFFFFFFFFFFFFFFFF NOT AND SUB PUSH2 0x1A6A JUMPI POP PUSH2 0x1A75 JUMP JUMPDEST PUSH0 SWAP4 POP POP POP POP PUSH2 0x1A89 JUMP JUMPDEST DUP1 DUP1 PUSH1 0x1 ADD SWAP2 POP POP PUSH2 0x193F JUMP JUMPDEST POP PUSH1 0x1 SWAP2 POP POP JUMPDEST SWAP2 SWAP1 POP JUMP JUMPDEST PUSH1 0x60 PUSH2 0x1ACF DUP4 PUSH1 0x40 MLOAD DUP1 PUSH1 0x40 ADD PUSH1 0x40 MSTORE DUP1 PUSH1 0xE DUP2 MSTORE PUSH1 0x20 ADD PUSH32 0x75706461746555736572496E666F000000000000000000000000000000000000 DUP2 MSTORE POP PUSH2 0x201F JUMP JUMPDEST ISZERO PUSH2 0x1EED JUMPI PUSH0 PUSH1 0x3 PUSH0 CALLER PUSH20 0xFFFFFFFFFFFFFFFFFFFFFFFFFFFFFFFFFFFFFFFF AND PUSH20 0xFFFFFFFFFFFFFFFFFFFFFFFFFFFFFFFFFFFFFFFF AND DUP2 MSTORE PUSH1 0x20 ADD SWAP1 DUP2 MSTORE PUSH1 0x20 ADD PUSH0 KECCAK256 PUSH1 0x40 MLOAD DUP1 PUSH1 0x80 ADD PUSH1 0x40 MSTORE SWAP1 DUP2 PUSH0 DUP3 ADD DUP1 SLOAD PUSH2 0x1B2C SWAP1 PUSH2 0x2A99 JUMP JUMPDEST DUP1 PUSH1 0x1F ADD PUSH1 0x20 DUP1 SWAP2 DIV MUL PUSH1 0x20 ADD PUSH1 0x40 MLOAD SWAP1 DUP2 ADD PUSH1 0x40 MSTORE DUP1 SWAP3 SWAP2 SWAP1 DUP2 DUP2 MSTORE PUSH1 0x20 ADD DUP3 DUP1 SLOAD PUSH2 0x1B58 SWAP1 PUSH2 0x2A99 JUMP JUMPDEST DUP1 ISZERO PUSH2 0x1BA3 JUMPI DUP1 PUSH1 0x1F LT PUSH2 0x1B7A JUMPI PUSH2 0x100 DUP1 DUP4 SLOAD DIV MUL DUP4 MSTORE SWAP2 PUSH1 0x20 ADD SWAP2 PUSH2 0x1BA3 JUMP JUMPDEST DUP3 ADD SWAP2 SWAP1 PUSH0 MSTORE PUSH1 0x20 PUSH0 KECCAK256 SWAP1 JUMPDEST DUP2 SLOAD DUP2 MSTORE SWAP1 PUSH1 0x1 ADD SWAP1 PUSH1 0x20 ADD DUP1 DUP4 GT PUSH2 0x1B86 JUMPI DUP3 SWAP1 SUB PUSH1 0x1F AND DUP3 ADD SWAP2 JUMPDEST POP POP POP POP POP DUP2 MSTORE PUSH1 0x20 ADD PUSH1 0x1 DUP3 ADD DUP1 SLOAD PUSH2 0x1BBC SWAP1 PUSH2 0x2A99 JUMP JUMPDEST DUP1 PUSH1 0x1F ADD PUSH1 0x20 DUP1 SWAP2 DIV MUL PUSH1 0x20 ADD PUSH1 0x40 MLOAD SWAP1 DUP2 ADD PUSH1 0x40 MSTORE DUP1 SWAP3 SWAP2 SWAP1 DUP2 DUP2 MSTORE PUSH1 0x20 ADD DUP3 DUP1 SLOAD PUSH2 0x1BE8 SWAP1 PUSH2 0x2A99 JUMP JUMPDEST DUP1 ISZERO PUSH2 0x1C33 JUMPI DUP1 PUSH1 0x1F LT PUSH2 0x1C0A JUMPI PUSH2 0x100 DUP1 DUP4 SLOAD DIV MUL DUP4 MSTORE SWAP2 PUSH1 0x20 ADD SWAP2 PUSH2 0x1C33 JUMP JUMPDEST DUP3 ADD SWAP2 SWAP1 PUSH0 MSTORE PUSH1 0x20 PUSH0 KECCAK256 SWAP1 JUMPDEST DUP2 SLOAD DUP2 MSTORE SWAP1 PUSH1 0x1 ADD SWAP1 PUSH1 0x20 ADD DUP1 DUP4 GT PUSH2 0x1C16 JUMPI DUP3 SWAP1 SUB PUSH1 0x1F AND DUP3 ADD SWAP2 JUMPDEST POP POP POP POP POP DUP2 MSTORE PUSH1 0x20 ADD PUSH1 0x2 DUP3 ADD DUP1 SLOAD PUSH2 0x1C4C SWAP1 PUSH2 0x2A99 JUMP JUMPDEST DUP1 PUSH1 0x1F ADD PUSH1 0x20 DUP1 SWAP2 DIV MUL PUSH1 0x20 ADD PUSH1 0x40 MLOAD SWAP1 DUP2 ADD PUSH1 0x40 MSTORE DUP1 SWAP3 SWAP2 SWAP1 DUP2 DUP2 MSTORE PUSH1 0x20 ADD DUP3 DUP1 SLOAD PUSH2 0x1C78 SWAP1 PUSH2 0x2A99 JUMP JUMPDEST DUP1 ISZERO PUSH2 0x1CC3 JUMPI DUP1 PUSH1 0x1F LT PUSH2 0x1C9A JUMPI PUSH2 0x100 DUP1 DUP4 SLOAD DIV MUL DUP4 MSTORE SWAP2 PUSH1 0x20 ADD SWAP2 PUSH2 0x1CC3 JUMP JUMPDEST DUP3 ADD SWAP2 SWAP1 PUSH0 MSTORE PUSH1 0x20 PUSH0 KECCAK256 SWAP1 JUMPDEST DUP2 SLOAD DUP2 MSTORE SWAP1 PUSH1 0x1 ADD SWAP1 PUSH1 0x20 ADD DUP1 DUP4 GT PUSH2 0x1CA6 JUMPI DUP3 SWAP1 SUB PUSH1 0x1F AND DUP3 ADD SWAP2 JUMPDEST POP POP POP POP POP DUP2 MSTORE PUSH1 0x20 ADD PUSH1 0x3 DUP3 ADD DUP1 SLOAD PUSH2 0x1CDC SWAP1 PUSH2 0x2A99 JUMP JUMPDEST DUP1 PUSH1 0x1F ADD PUSH1 0x20 DUP1 SWAP2 DIV MUL PUSH1 0x20 ADD PUSH1 0x40 MLOAD SWAP1 DUP2 ADD PUSH1 0x40 MSTORE DUP1 SWAP3 SWAP2 SWAP1 DUP2 DUP2 MSTORE PUSH1 0x20 ADD DUP3 DUP1 SLOAD PUSH2 0x1D08 SWAP1 PUSH2 0x2A99 JUMP JUMPDEST DUP1 ISZERO PUSH2 0x1D53 JUMPI DUP1 PUSH1 0x1F LT PUSH2 0x1D2A JUMPI PUSH2 0x100 DUP1 DUP4 SLOAD DIV MUL DUP4 MSTORE SWAP2 PUSH1 0x20 ADD SWAP2 PUSH2 0x1D53 JUMP JUMPDEST DUP3 ADD SWAP2 SWAP1 PUSH0 MSTORE PUSH1 0x20 PUSH0 KECCAK256 SWAP1 JUMPDEST DUP2 SLOAD DUP2 MSTORE SWAP1 PUSH1 0x1 ADD SWAP1 PUSH1 0x20 ADD DUP1 DUP4 GT PUSH2 0x1D36 JUMPI DUP3 SWAP1 SUB PUSH1 0x1F AND DUP3 ADD SWAP2 JUMPDEST POP POP POP POP POP DUP2 MSTORE POP POP SWAP1 POP PUSH2 0x1D6A DUP2 PUSH0 ADD MLOAD PUSH2 0x729 JUMP JUMPDEST PUSH2 0x1EB0 JUMPI PUSH0 DUP1 PUSH0 DUP6 DUP1 PUSH1 0x20 ADD SWAP1 MLOAD DUP2 ADD SWAP1 PUSH2 0x1D85 SWAP2 SWAP1 PUSH2 0x334C JUMP JUMPDEST SWAP3 POP SWAP3 POP SWAP3 POP DUP3 DUP5 PUSH1 0x20 ADD DUP2 SWAP1 MSTORE POP DUP2 DUP5 PUSH1 0x40 ADD DUP2 SWAP1 MSTORE POP DUP1 DUP5 PUSH1 0x60 ADD DUP2 SWAP1 MSTORE POP DUP4 PUSH1 0x3 PUSH0 CALLER PUSH20 0xFFFFFFFFFFFFFFFFFFFFFFFFFFFFFFFFFFFFFFFF AND PUSH20 0xFFFFFFFFFFFFFFFFFFFFFFFFFFFFFFFFFFFFFFFF AND DUP2 MSTORE PUSH1 0x20 ADD SWAP1 DUP2 MSTORE PUSH1 0x20 ADD PUSH0 KECCAK256 PUSH0 DUP3 ADD MLOAD DUP2 PUSH0 ADD SWAP1 DUP2 PUSH2 0x1DF7 SWAP2 SWAP1 PUSH2 0x31CB JUMP JUMPDEST POP PUSH1 0x20 DUP3 ADD MLOAD DUP2 PUSH1 0x1 ADD SWAP1 DUP2 PUSH2 0x1E0D SWAP2 SWAP1 PUSH2 0x31CB JUMP JUMPDEST POP PUSH1 0x40 DUP3 ADD MLOAD DUP2 PUSH1 0x2 ADD SWAP1 DUP2 PUSH2 0x1E23 SWAP2 SWAP1 PUSH2 0x31CB JUMP JUMPDEST POP PUSH1 0x60 DUP3 ADD MLOAD DUP2 PUSH1 0x3 ADD SWAP1 DUP2 PUSH2 0x1E39 SWAP2 SWAP1 PUSH2 0x31CB JUMP JUMPDEST POP SWAP1 POP POP DUP4 PUSH0 ADD MLOAD PUSH1 0x40 MLOAD PUSH2 0x1E4E SWAP2 SWAP1 PUSH2 0x2884 JUMP JUMPDEST PUSH1 0x40 MLOAD DUP1 SWAP2 SUB SWAP1 KECCAK256 CALLER PUSH20 0xFFFFFFFFFFFFFFFFFFFFFFFFFFFFFFFFFFFFFFFF AND PUSH32 0x1C4834C8729CCA3A7EA1E1C19A12CE6721CB054F67CB6590E733A2BB4B8BE85A DUP6 DUP6 DUP6 PUSH1 0x40 MLOAD PUSH2 0x1EA0 SWAP4 SWAP3 SWAP2 SWAP1 PUSH2 0x329A JUMP JUMPDEST PUSH1 0x40 MLOAD DUP1 SWAP2 SUB SWAP1 LOG3 POP POP POP PUSH2 0x1EEB JUMP JUMPDEST PUSH1 0x40 MLOAD PUSH32 0x8C379A000000000000000000000000000000000000000000000000000000000 DUP2 MSTORE PUSH1 0x4 ADD PUSH2 0x1EE2 SWAP1 PUSH2 0x343A JUMP JUMPDEST PUSH1 0x40 MLOAD DUP1 SWAP2 SUB SWAP1 REVERT JUMPDEST POP JUMPDEST DUP3 DUP3 PUSH1 0x40 MLOAD PUSH1 0x20 ADD PUSH2 0x1F00 SWAP3 SWAP2 SWAP1 PUSH2 0x3458 JUMP JUMPDEST PUSH1 0x40 MLOAD PUSH1 0x20 DUP2 DUP4 SUB SUB DUP2 MSTORE SWAP1 PUSH1 0x40 MSTORE SWAP1 POP SWAP3 SWAP2 POP POP JUMP JUMPDEST PUSH1 0x60 PUSH0 DUP1 DUP4 PUSH1 0x3 DUP2 GT ISZERO PUSH2 0x1F2E JUMPI PUSH2 0x1F2D PUSH2 0x20A0 JUMP JUMPDEST JUMPDEST PUSH1 0x3 DUP2 GT ISZERO PUSH2 0x1F40 JUMPI PUSH2 0x1F3F PUSH2 0x20A0 JUMP JUMPDEST JUMPDEST DUP2 MSTORE PUSH1 0x20 ADD SWAP1 DUP2 MSTORE PUSH1 0x20 ADD PUSH0 KECCAK256 DUP1 SLOAD DUP1 PUSH1 0x20 MUL PUSH1 0x20 ADD PUSH1 0x40 MLOAD SWAP1 DUP2 ADD PUSH1 0x40 MSTORE DUP1 SWAP3 SWAP2 SWAP1 DUP2 DUP2 MSTORE PUSH1 0x20 ADD PUSH0 SWAP1 JUMPDEST DUP3 DUP3 LT ISZERO PUSH2 0x2014 JUMPI DUP4 DUP3 SWAP1 PUSH0 MSTORE PUSH1 0x20 PUSH0 KECCAK256 ADD DUP1 SLOAD PUSH2 0x1F89 SWAP1 PUSH2 0x2A99 JUMP JUMPDEST DUP1 PUSH1 0x1F ADD PUSH1 0x20 DUP1 SWAP2 DIV MUL PUSH1 0x20 ADD PUSH1 0x40 MLOAD SWAP1 DUP2 ADD PUSH1 0x40 MSTORE DUP1 SWAP3 SWAP2 SWAP1 DUP2 DUP2 MSTORE PUSH1 0x20 ADD DUP3 DUP1 SLOAD PUSH2 0x1FB5 SWAP1 PUSH2 0x2A99 JUMP JUMPDEST DUP1 ISZERO PUSH2 0x2000 JUMPI DUP1 PUSH1 0x1F LT PUSH2 0x1FD7 JUMPI PUSH2 0x100 DUP1 DUP4 SLOAD DIV MUL DUP4 MSTORE SWAP2 PUSH1 0x20 ADD SWAP2 PUSH2 0x2000 JUMP JUMPDEST DUP3 ADD SWAP2 SWAP1 PUSH0 MSTORE PUSH1 0x20 PUSH0 KECCAK256 SWAP1 JUMPDEST DUP2 SLOAD DUP2 MSTORE SWAP1 PUSH1 0x1 ADD SWAP1 PUSH1 0x20 ADD DUP1 DUP4 GT PUSH2 0x1FE3 JUMPI DUP3 SWAP1 SUB PUSH1 0x1F AND DUP3 ADD SWAP2 JUMPDEST POP POP POP POP POP DUP2 MSTORE PUSH1 0x20 ADD SWAP1 PUSH1 0x1 ADD SWAP1 PUSH2 0x1F6C JUMP JUMPDEST POP POP POP POP SWAP1 POP SWAP2 SWAP1 POP JUMP JUMPDEST PUSH0 DUP2 PUSH1 0x40 MLOAD PUSH1 0x20 ADD PUSH2 0x2031 SWAP2 SWAP1 PUSH2 0x2884 JUMP JUMPDEST PUSH1 0x40 MLOAD PUSH1 0x20 DUP2 DUP4 SUB SUB DUP2 MSTORE SWAP1 PUSH1 0x40 MSTORE DUP1 MLOAD SWAP1 PUSH1 0x20 ADD KECCAK256 DUP4 PUSH1 0x40 MLOAD PUSH1 0x20 ADD PUSH2 0x2058 SWAP2 SWAP1 PUSH2 0x2884 JUMP JUMPDEST PUSH1 0x40 MLOAD PUSH1 0x20 DUP2 DUP4 SUB SUB DUP2 MSTORE SWAP1 PUSH1 0x40 MSTORE DUP1 MLOAD SWAP1 PUSH1 0x20 ADD KECCAK256 EQ SWAP1 POP SWAP3 SWAP2 POP POP JUMP JUMPDEST PUSH0 DUP2 MLOAD SWAP1 POP SWAP2 SWAP1 POP JUMP JUMPDEST PUSH0 DUP3 DUP3 MSTORE PUSH1 0x20 DUP3 ADD SWAP1 POP SWAP3 SWAP2 POP POP JUMP JUMPDEST PUSH0 DUP2 SWAP1 POP PUSH1 0x20 DUP3 ADD SWAP1 POP SWAP2 SWAP1 POP JUMP JUMPDEST PUSH32 0x4E487B7100000000000000000000000000000000000000000000000000000000 PUSH0 MSTORE PUSH1 0x21 PUSH1 0x4 MSTORE PUSH1 0x24 PUSH0 REVERT JUMPDEST PUSH1 0x4 DUP2 LT PUSH2 0x20DE JUMPI PUSH2 0x20DD PUSH2 0x20A0 JUMP JUMPDEST JUMPDEST POP JUMP JUMPDEST PUSH0 DUP2 SWAP1 POP PUSH2 0x20EE DUP3 PUSH2 0x20CD JUMP JUMPDEST SWAP2 SWAP1 POP JUMP JUMPDEST PUSH0 PUSH2 0x20FD DUP3 PUSH2 0x20E1 JUMP JUMPDEST SWAP1 POP SWAP2 SWAP1 POP JUMP JUMPDEST PUSH2 0x210D DUP2 PUSH2 0x20F3 JUMP JUMPDEST DUP3 MSTORE POP POP JUMP JUMPDEST PUSH0 PUSH2 0x211E DUP4 DUP4 PUSH2 0x2104 JUMP JUMPDEST PUSH1 0x20 DUP4 ADD SWAP1 POP SWAP3 SWAP2 POP POP JUMP JUMPDEST PUSH0 PUSH1 0x20 DUP3 ADD SWAP1 POP SWAP2 SWAP1 POP JUMP JUMPDEST PUSH0 PUSH2 0x2140 DUP3 PUSH2 0x2077 JUMP JUMPDEST PUSH2 0x214A DUP2 DUP6 PUSH2 0x2081 JUMP JUMPDEST SWAP4 POP PUSH2 0x2155 DUP4 PUSH2 0x2091 JUMP JUMPDEST DUP1 PUSH0 JUMPDEST DUP4 DUP2 LT ISZERO PUSH2 0x2185 JUMPI DUP2 MLOAD PUSH2 0x216C DUP9 DUP3 PUSH2 0x2113 JUMP JUMPDEST SWAP8 POP PUSH2 0x2177 DUP4 PUSH2 0x212A JUMP JUMPDEST SWAP3 POP POP PUSH1 0x1 DUP2 ADD SWAP1 POP PUSH2 0x2158 JUMP JUMPDEST POP DUP6 SWAP4 POP POP POP POP SWAP3 SWAP2 POP POP JUMP JUMPDEST PUSH0 PUSH1 0x20 DUP3 ADD SWAP1 POP DUP2 DUP2 SUB PUSH0 DUP4 ADD MSTORE PUSH2 0x21AA DUP2 DUP5 PUSH2 0x2136 JUMP JUMPDEST SWAP1 POP SWAP3 SWAP2 POP POP JUMP JUMPDEST PUSH0 PUSH1 0x40 MLOAD SWAP1 POP SWAP1 JUMP JUMPDEST PUSH0 DUP1 REVERT JUMPDEST PUSH0 DUP1 REVERT JUMPDEST PUSH0 DUP1 REVERT JUMPDEST PUSH0 DUP1 REVERT JUMPDEST PUSH0 PUSH1 0x1F NOT PUSH1 0x1F DUP4 ADD AND SWAP1 POP SWAP2 SWAP1 POP JUMP JUMPDEST PUSH32 0x4E487B7100000000000000000000000000000000000000000000000000000000 PUSH0 MSTORE PUSH1 0x41 PUSH1 0x4 MSTORE PUSH1 0x24 PUSH0 REVERT JUMPDEST PUSH2 0x2211 DUP3 PUSH2 0x21CB JUMP JUMPDEST DUP2 ADD DUP2 DUP2 LT PUSH8 0xFFFFFFFFFFFFFFFF DUP3 GT OR ISZERO PUSH2 0x2230 JUMPI PUSH2 0x222F PUSH2 0x21DB JUMP JUMPDEST JUMPDEST DUP1 PUSH1 0x40 MSTORE POP POP POP JUMP JUMPDEST PUSH0 PUSH2 0x2242 PUSH2 0x21B2 JUMP JUMPDEST SWAP1 POP PUSH2 0x224E DUP3 DUP3 PUSH2 0x2208 JUMP JUMPDEST SWAP2 SWAP1 POP JUMP JUMPDEST PUSH0 PUSH8 0xFFFFFFFFFFFFFFFF DUP3 GT ISZERO PUSH2 0x226D JUMPI PUSH2 0x226C PUSH2 0x21DB JUMP JUMPDEST JUMPDEST PUSH2 0x2276 DUP3 PUSH2 0x21CB JUMP JUMPDEST SWAP1 POP PUSH1 0x20 DUP2 ADD SWAP1 POP SWAP2 SWAP1 POP JUMP JUMPDEST DUP3 DUP2 DUP4 CALLDATACOPY PUSH0 DUP4 DUP4 ADD MSTORE POP POP POP JUMP JUMPDEST PUSH0 PUSH2 0x22A3 PUSH2 0x229E DUP5 PUSH2 0x2253 JUMP JUMPDEST PUSH2 0x2239 JUMP JUMPDEST SWAP1 POP DUP3 DUP2 MSTORE PUSH1 0x20 DUP2 ADD DUP5 DUP5 DUP5 ADD GT ISZERO PUSH2 0x22BF JUMPI PUSH2 0x22BE PUSH2 0x21C7 JUMP JUMPDEST JUMPDEST PUSH2 0x22CA DUP5 DUP3 DUP6 PUSH2 0x2283 JUMP JUMPDEST POP SWAP4 SWAP3 POP POP POP JUMP JUMPDEST PUSH0 DUP3 PUSH1 0x1F DUP4 ADD SLT PUSH2 0x22E6 JUMPI PUSH2 0x22E5 PUSH2 0x21C3 JUMP JUMPDEST JUMPDEST DUP2 CALLDATALOAD PUSH2 0x22F6 DUP5 DUP3 PUSH1 0x20 DUP7 ADD PUSH2 0x2291 JUMP JUMPDEST SWAP2 POP POP SWAP3 SWAP2 POP POP JUMP JUMPDEST PUSH0 PUSH1 0x20 DUP3 DUP5 SUB SLT ISZERO PUSH2 0x2314 JUMPI PUSH2 0x2313 PUSH2 0x21BB JUMP JUMPDEST JUMPDEST PUSH0 DUP3 ADD CALLDATALOAD PUSH8 0xFFFFFFFFFFFFFFFF DUP2 GT ISZERO PUSH2 0x2331 JUMPI PUSH2 0x2330 PUSH2 0x21BF JUMP JUMPDEST JUMPDEST PUSH2 0x233D DUP5 DUP3 DUP6 ADD PUSH2 0x22D2 JUMP JUMPDEST SWAP2 POP POP SWAP3 SWAP2 POP POP JUMP JUMPDEST PUSH0 DUP2 MLOAD SWAP1 POP SWAP2 SWAP1 POP JUMP JUMPDEST PUSH0 DUP2 SWAP1 POP PUSH1 0x20 DUP3 ADD SWAP1 POP SWAP2 SWAP1 POP JUMP JUMPDEST PUSH1 0xC7 DUP2 LT PUSH2 0x2370 JUMPI PUSH2 0x236F PUSH2 0x20A0 JUMP JUMPDEST JUMPDEST POP JUMP JUMPDEST PUSH0 DUP2 SWAP1 POP PUSH2 0x2380 DUP3 PUSH2 0x235F JUMP JUMPDEST SWAP2 SWAP1 POP JUMP JUMPDEST PUSH0 PUSH2 0x238F DUP3 PUSH2 0x2373 JUMP JUMPDEST SWAP1 POP SWAP2 SWAP1 POP JUMP JUMPDEST PUSH2 0x239F DUP2 PUSH2 0x2385 JUMP JUMPDEST DUP3 MSTORE POP POP JUMP JUMPDEST PUSH0 PUSH2 0x23B0 DUP4 DUP4 PUSH2 0x2396 JUMP JUMPDEST PUSH1 0x20 DUP4 ADD SWAP1 POP SWAP3 SWAP2 POP POP JUMP JUMPDEST PUSH0 PUSH1 0x20 DUP3 ADD SWAP1 POP SWAP2 SWAP1 POP JUMP JUMPDEST PUSH0 PUSH2 0x23D2 DUP3 PUSH2 0x2346 JUMP JUMPDEST PUSH2 0x23DC DUP2 DUP6 PUSH2 0x2081 JUMP JUMPDEST SWAP4 POP PUSH2 0x23E7 DUP4 PUSH2 0x2350 JUMP JUMPDEST DUP1 PUSH0 JUMPDEST DUP4 DUP2 LT ISZERO PUSH2 0x2417 JUMPI DUP2 MLOAD PUSH2 0x23FE DUP9 DUP3 PUSH2 0x23A5 JUMP JUMPDEST SWAP8 POP PUSH2 0x2409 DUP4 PUSH2 0x23BC JUMP JUMPDEST SWAP3 POP POP PUSH1 0x1 DUP2 ADD SWAP1 POP PUSH2 0x23EA JUMP JUMPDEST POP DUP6 SWAP4 POP POP POP POP SWAP3 SWAP2 POP POP JUMP JUMPDEST PUSH0 PUSH1 0x40 DUP3 ADD SWAP1 POP DUP2 DUP2 SUB PUSH0 DUP4 ADD MSTORE PUSH2 0x243C DUP2 DUP6 PUSH2 0x23C8 JUMP JUMPDEST SWAP1 POP DUP2 DUP2 SUB PUSH1 0x20 DUP4 ADD MSTORE PUSH2 0x2450 DUP2 DUP5 PUSH2 0x23C8 JUMP JUMPDEST SWAP1 POP SWAP4 SWAP3 POP POP POP JUMP JUMPDEST PUSH0 DUP2 MLOAD SWAP1 POP SWAP2 SWAP1 POP JUMP JUMPDEST PUSH0 DUP3 DUP3 MSTORE PUSH1 0x20 DUP3 ADD SWAP1 POP SWAP3 SWAP2 POP POP JUMP JUMPDEST PUSH0 JUMPDEST DUP4 DUP2 LT ISZERO PUSH2 0x2490 JUMPI DUP1 DUP3 ADD MLOAD DUP2 DUP5 ADD MSTORE PUSH1 0x20 DUP2 ADD SWAP1 POP PUSH2 0x2475 JUMP JUMPDEST PUSH0 DUP5 DUP5 ADD MSTORE POP POP POP POP JUMP JUMPDEST PUSH0 PUSH2 0x24A5 DUP3 PUSH2 0x2459 JUMP JUMPDEST PUSH2 0x24AF DUP2 DUP6 PUSH2 0x2463 JUMP JUMPDEST SWAP4 POP PUSH2 0x24BF DUP2 DUP6 PUSH1 0x20 DUP7 ADD PUSH2 0x2473 JUMP JUMPDEST PUSH2 0x24C8 DUP2 PUSH2 0x21CB JUMP JUMPDEST DUP5 ADD SWAP2 POP POP SWAP3 SWAP2 POP POP JUMP JUMPDEST PUSH0 PUSH1 0x20 DUP3 ADD SWAP1 POP DUP2 DUP2 SUB PUSH0 DUP4 ADD MSTORE PUSH2 0x24EB DUP2 DUP5 PUSH2 0x249B JUMP JUMPDEST SWAP1 POP SWAP3 SWAP2 POP POP JUMP JUMPDEST PUSH0 DUP2 ISZERO ISZERO SWAP1 POP SWAP2 SWAP1 POP JUMP JUMPDEST PUSH2 0x2507 DUP2 PUSH2 0x24F3 JUMP JUMPDEST DUP3 MSTORE POP POP JUMP JUMPDEST PUSH0 PUSH1 0x20 DUP3 ADD SWAP1 POP PUSH2 0x2520 PUSH0 DUP4 ADD DUP5 PUSH2 0x24FE JUMP JUMPDEST SWAP3 SWAP2 POP POP JUMP JUMPDEST PUSH0 PUSH8 0xFFFFFFFFFFFFFFFF DUP3 GT ISZERO PUSH2 0x2540 JUMPI PUSH2 0x253F PUSH2 0x21DB JUMP JUMPDEST JUMPDEST PUSH2 0x2549 DUP3 PUSH2 0x21CB JUMP JUMPDEST SWAP1 POP PUSH1 0x20 DUP2 ADD SWAP1 POP SWAP2 SWAP1 POP JUMP JUMPDEST PUSH0 PUSH2 0x2568 PUSH2 0x2563 DUP5 PUSH2 0x2526 JUMP JUMPDEST PUSH2 0x2239 JUMP JUMPDEST SWAP1 POP DUP3 DUP2 MSTORE PUSH1 0x20 DUP2 ADD DUP5 DUP5 DUP5 ADD GT ISZERO PUSH2 0x2584 JUMPI PUSH2 0x2583 PUSH2 0x21C7 JUMP JUMPDEST JUMPDEST PUSH2 0x258F DUP5 DUP3 DUP6 PUSH2 0x2283 JUMP JUMPDEST POP SWAP4 SWAP3 POP POP POP JUMP JUMPDEST PUSH0 DUP3 PUSH1 0x1F DUP4 ADD SLT PUSH2 0x25AB JUMPI PUSH2 0x25AA PUSH2 0x21C3 JUMP JUMPDEST JUMPDEST DUP2 CALLDATALOAD PUSH2 0x25BB DUP5 DUP3 PUSH1 0x20 DUP7 ADD PUSH2 0x2556 JUMP JUMPDEST SWAP2 POP POP SWAP3 SWAP2 POP POP JUMP JUMPDEST PUSH0 DUP1 PUSH1 0x40 DUP4 DUP6 SUB SLT ISZERO PUSH2 0x25DA JUMPI PUSH2 0x25D9 PUSH2 0x21BB JUMP JUMPDEST JUMPDEST PUSH0 DUP4 ADD CALLDATALOAD PUSH8 0xFFFFFFFFFFFFFFFF DUP2 GT ISZERO PUSH2 0x25F7 JUMPI PUSH2 0x25F6 PUSH2 0x21BF JUMP JUMPDEST JUMPDEST PUSH2 0x2603 DUP6 DUP3 DUP7 ADD PUSH2 0x22D2 JUMP JUMPDEST SWAP3 POP POP PUSH1 0x20 DUP4 ADD CALLDATALOAD PUSH8 0xFFFFFFFFFFFFFFFF DUP2 GT ISZERO PUSH2 0x2624 JUMPI PUSH2 0x2623 PUSH2 0x21BF JUMP JUMPDEST JUMPDEST PUSH2 0x2630 DUP6 DUP3 DUP7 ADD PUSH2 0x2597 JUMP JUMPDEST SWAP2 POP POP SWAP3 POP SWAP3 SWAP1 POP JUMP JUMPDEST PUSH0 DUP2 MLOAD SWAP1 POP SWAP2 SWAP1 POP JUMP JUMPDEST PUSH0 DUP3 DUP3 MSTORE PUSH1 0x20 DUP3 ADD SWAP1 POP SWAP3 SWAP2 POP POP JUMP JUMPDEST PUSH0 PUSH2 0x265E DUP3 PUSH2 0x263A JUMP JUMPDEST PUSH2 0x2668 DUP2 DUP6 PUSH2 0x2644 JUMP JUMPDEST SWAP4 POP PUSH2 0x2678 DUP2 DUP6 PUSH1 0x20 DUP7 ADD PUSH2 0x2473 JUMP JUMPDEST PUSH2 0x2681 DUP2 PUSH2 0x21CB JUMP JUMPDEST DUP5 ADD SWAP2 POP POP SWAP3 SWAP2 POP POP JUMP JUMPDEST PUSH0 PUSH1 0x20 DUP3 ADD SWAP1 POP DUP2 DUP2 SUB PUSH0 DUP4 ADD MSTORE PUSH2 0x26A4 DUP2 DUP5 PUSH2 0x2654 JUMP JUMPDEST SWAP1 POP SWAP3 SWAP2 POP POP JUMP JUMPDEST PUSH1 0x4 DUP2 LT PUSH2 0x26B8 JUMPI PUSH0 DUP1 REVERT JUMPDEST POP JUMP JUMPDEST PUSH0 DUP2 CALLDATALOAD SWAP1 POP PUSH2 0x26C9 DUP2 PUSH2 0x26AC JUMP JUMPDEST SWAP3 SWAP2 POP POP JUMP JUMPDEST PUSH0 PUSH1 0x20 DUP3 DUP5 SUB SLT ISZERO PUSH2 0x26E4 JUMPI PUSH2 0x26E3 PUSH2 0x21BB JUMP JUMPDEST JUMPDEST PUSH0 PUSH2 0x26F1 DUP5 DUP3 DUP6 ADD PUSH2 0x26BB JUMP JUMPDEST SWAP2 POP POP SWAP3 SWAP2 POP POP JUMP JUMPDEST PUSH0 DUP2 MLOAD SWAP1 POP SWAP2 SWAP1 POP JUMP JUMPDEST PUSH0 DUP3 DUP3 MSTORE PUSH1 0x20 DUP3 ADD SWAP1 POP SWAP3 SWAP2 POP POP JUMP JUMPDEST PUSH0 DUP2 SWAP1 POP PUSH1 0x20 DUP3 ADD SWAP1 POP SWAP2 SWAP1 POP JUMP JUMPDEST PUSH0 DUP3 DUP3 MSTORE PUSH1 0x20 DUP3 ADD SWAP1 POP SWAP3 SWAP2 POP POP JUMP JUMPDEST PUSH0 PUSH2 0x273D DUP3 PUSH2 0x2459 JUMP JUMPDEST PUSH2 0x2747 DUP2 DUP6 PUSH2 0x2723 JUMP JUMPDEST SWAP4 POP PUSH2 0x2757 DUP2 DUP6 PUSH1 0x20 DUP7 ADD PUSH2 0x2473 JUMP JUMPDEST PUSH2 0x2760 DUP2 PUSH2 0x21CB JUMP JUMPDEST DUP5 ADD SWAP2 POP POP SWAP3 SWAP2 POP POP JUMP JUMPDEST PUSH0 PUSH2 0x2776 DUP4 DUP4 PUSH2 0x2733 JUMP JUMPDEST SWAP1 POP SWAP3 SWAP2 POP POP JUMP JUMPDEST PUSH0 PUSH1 0x20 DUP3 ADD SWAP1 POP SWAP2 SWAP1 POP JUMP JUMPDEST PUSH0 PUSH2 0x2794 DUP3 PUSH2 0x26FA JUMP JUMPDEST PUSH2 0x279E DUP2 DUP6 PUSH2 0x2704 JUMP JUMPDEST SWAP4 POP DUP4 PUSH1 0x20 DUP3 MUL DUP6 ADD PUSH2 0x27B0 DUP6 PUSH2 0x2714 JUMP JUMPDEST DUP1 PUSH0 JUMPDEST DUP6 DUP2 LT ISZERO PUSH2 0x27EB JUMPI DUP5 DUP5 SUB DUP10 MSTORE DUP2 MLOAD PUSH2 0x27CC DUP6 DUP3 PUSH2 0x276B JUMP JUMPDEST SWAP5 POP PUSH2 0x27D7 DUP4 PUSH2 0x277E JUMP JUMPDEST SWAP3 POP PUSH1 0x20 DUP11 ADD SWAP10 POP POP PUSH1 0x1 DUP2 ADD SWAP1 POP PUSH2 0x27B3 JUMP JUMPDEST POP DUP3 SWAP8 POP DUP8 SWAP6 POP POP POP POP POP POP SWAP3 SWAP2 POP POP JUMP JUMPDEST PUSH0 PUSH1 0x20 DUP3 ADD SWAP1 POP DUP2 DUP2 SUB PUSH0 DUP4 ADD MSTORE PUSH2 0x2815 DUP2 DUP5 PUSH2 0x278A JUMP JUMPDEST SWAP1 POP SWAP3 SWAP2 POP POP JUMP JUMPDEST PUSH32 0x4E487B7100000000000000000000000000000000000000000000000000000000 PUSH0 MSTORE PUSH1 0x32 PUSH1 0x4 MSTORE PUSH1 0x24 PUSH0 REVERT JUMPDEST PUSH0 DUP2 SWAP1 POP SWAP3 SWAP2 POP POP JUMP JUMPDEST PUSH0 PUSH2 0x285E DUP3 PUSH2 0x2459 JUMP JUMPDEST PUSH2 0x2868 DUP2 DUP6 PUSH2 0x284A JUMP JUMPDEST SWAP4 POP PUSH2 0x2878 DUP2 DUP6 PUSH1 0x20 DUP7 ADD PUSH2 0x2473 JUMP JUMPDEST DUP1 DUP5 ADD SWAP2 POP POP SWAP3 SWAP2 POP POP JUMP JUMPDEST PUSH0 PUSH2 0x288F DUP3 DUP5 PUSH2 0x2854 JUMP JUMPDEST SWAP2 POP DUP2 SWAP1 POP SWAP3 SWAP2 POP POP JUMP JUMPDEST PUSH0 PUSH1 0xFF DUP3 AND SWAP1 POP SWAP2 SWAP1 POP JUMP JUMPDEST PUSH32 0x4E487B7100000000000000000000000000000000000000000000000000000000 PUSH0 MSTORE PUSH1 0x11 PUSH1 0x4 MSTORE PUSH1 0x24 PUSH0 REVERT JUMPDEST PUSH0 PUSH2 0x28DD DUP3 PUSH2 0x289A JUMP JUMPDEST SWAP2 POP PUSH2 0x28E8 DUP4 PUSH2 0x289A JUMP JUMPDEST SWAP3 POP DUP3 DUP3 ADD SWAP1 POP PUSH1 0xFF DUP2 GT ISZERO PUSH2 0x2901 JUMPI PUSH2 0x2900 PUSH2 0x28A6 JUMP JUMPDEST JUMPDEST SWAP3 SWAP2 POP POP JUMP JUMPDEST PUSH0 PUSH8 0xFFFFFFFFFFFFFFFF DUP3 GT ISZERO PUSH2 0x2921 JUMPI PUSH2 0x2920 PUSH2 0x21DB JUMP JUMPDEST JUMPDEST PUSH1 0x20 DUP3 MUL SWAP1 POP PUSH1 0x20 DUP2 ADD SWAP1 POP SWAP2 SWAP1 POP JUMP JUMPDEST PUSH0 DUP1 REVERT JUMPDEST PUSH0 PUSH20 0xFFFFFFFFFFFFFFFFFFFFFFFFFFFFFFFFFFFFFFFF DUP3 AND SWAP1 POP SWAP2 SWAP1 POP JUMP JUMPDEST PUSH0 PUSH2 0x295F DUP3 PUSH2 0x2936 JUMP JUMPDEST SWAP1 POP SWAP2 SWAP1 POP JUMP JUMPDEST PUSH2 0x296F DUP2 PUSH2 0x2955 JUMP JUMPDEST DUP2 EQ PUSH2 0x2979 JUMPI PUSH0 DUP1 REVERT JUMPDEST POP JUMP JUMPDEST PUSH0 DUP2 MLOAD SWAP1 POP PUSH2 0x298A DUP2 PUSH2 0x2966 JUMP JUMPDEST SWAP3 SWAP2 POP POP JUMP JUMPDEST PUSH0 PUSH2 0x29A2 PUSH2 0x299D DUP5 PUSH2 0x2907 JUMP JUMPDEST PUSH2 0x2239 JUMP JUMPDEST SWAP1 POP DUP1 DUP4 DUP3 MSTORE PUSH1 0x20 DUP3 ADD SWAP1 POP PUSH1 0x20 DUP5 MUL DUP4 ADD DUP6 DUP2 GT ISZERO PUSH2 0x29C5 JUMPI PUSH2 0x29C4 PUSH2 0x2932 JUMP JUMPDEST JUMPDEST DUP4 JUMPDEST DUP2 DUP2 LT ISZERO PUSH2 0x29EE JUMPI DUP1 PUSH2 0x29DA DUP9 DUP3 PUSH2 0x297C JUMP JUMPDEST DUP5 MSTORE PUSH1 0x20 DUP5 ADD SWAP4 POP POP PUSH1 0x20 DUP2 ADD SWAP1 POP PUSH2 0x29C7 JUMP JUMPDEST POP POP POP SWAP4 SWAP3 POP POP POP JUMP JUMPDEST PUSH0 DUP3 PUSH1 0x1F DUP4 ADD SLT PUSH2 0x2A0C JUMPI PUSH2 0x2A0B PUSH2 0x21C3 JUMP JUMPDEST JUMPDEST DUP2 MLOAD PUSH2 0x2A1C DUP5 DUP3 PUSH1 0x20 DUP7 ADD PUSH2 0x2990 JUMP JUMPDEST SWAP2 POP POP SWAP3 SWAP2 POP POP JUMP JUMPDEST PUSH0 PUSH1 0x20 DUP3 DUP5 SUB SLT ISZERO PUSH2 0x2A3A JUMPI PUSH2 0x2A39 PUSH2 0x21BB JUMP JUMPDEST JUMPDEST PUSH0 DUP3 ADD MLOAD PUSH8 0xFFFFFFFFFFFFFFFF DUP2 GT ISZERO PUSH2 0x2A57 JUMPI PUSH2 0x2A56 PUSH2 0x21BF JUMP JUMPDEST JUMPDEST PUSH2 0x2A63 DUP5 DUP3 DUP6 ADD PUSH2 0x29F8 JUMP JUMPDEST SWAP2 POP POP SWAP3 SWAP2 POP POP JUMP JUMPDEST PUSH32 0x4E487B7100000000000000000000000000000000000000000000000000000000 PUSH0 MSTORE PUSH1 0x22 PUSH1 0x4 MSTORE PUSH1 0x24 PUSH0 REVERT JUMPDEST PUSH0 PUSH1 0x2 DUP3 DIV SWAP1 POP PUSH1 0x1 DUP3 AND DUP1 PUSH2 0x2AB0 JUMPI PUSH1 0x7F DUP3 AND SWAP2 POP JUMPDEST PUSH1 0x20 DUP3 LT DUP2 SUB PUSH2 0x2AC3 JUMPI PUSH2 0x2AC2 PUSH2 0x2A6C JUMP JUMPDEST JUMPDEST POP SWAP2 SWAP1 POP JUMP JUMPDEST PUSH0 PUSH1 0x80 DUP3 ADD SWAP1 POP DUP2 DUP2 SUB PUSH0 DUP4 ADD MSTORE PUSH2 0x2AE1 DUP2 DUP8 PUSH2 0x278A JUMP JUMPDEST SWAP1 POP DUP2 DUP2 SUB PUSH1 0x20 DUP4 ADD MSTORE PUSH2 0x2AF5 DUP2 DUP7 PUSH2 0x278A JUMP JUMPDEST SWAP1 POP DUP2 DUP2 SUB PUSH1 0x40 DUP4 ADD MSTORE PUSH2 0x2B09 DUP2 DUP6 PUSH2 0x278A JUMP JUMPDEST SWAP1 POP DUP2 DUP2 SUB PUSH1 0x60 DUP4 ADD MSTORE PUSH2 0x2B1D DUP2 DUP5 PUSH2 0x278A JUMP JUMPDEST SWAP1 POP SWAP6 SWAP5 POP POP POP POP POP JUMP JUMPDEST PUSH0 PUSH8 0xFFFFFFFFFFFFFFFF DUP3 GT ISZERO PUSH2 0x2B42 JUMPI PUSH2 0x2B41 PUSH2 0x21DB JUMP JUMPDEST JUMPDEST PUSH1 0x20 DUP3 MUL SWAP1 POP PUSH1 0x20 DUP2 ADD SWAP1 POP SWAP2 SWAP1 POP JUMP JUMPDEST PUSH0 PUSH2 0x2B65 PUSH2 0x2B60 DUP5 PUSH2 0x2253 JUMP JUMPDEST PUSH2 0x2239 JUMP JUMPDEST SWAP1 POP DUP3 DUP2 MSTORE PUSH1 0x20 DUP2 ADD DUP5 DUP5 DUP5 ADD GT ISZERO PUSH2 0x2B81 JUMPI PUSH2 0x2B80 PUSH2 0x21C7 JUMP JUMPDEST JUMPDEST PUSH2 0x2B8C DUP5 DUP3 DUP6 PUSH2 0x2473 JUMP JUMPDEST POP SWAP4 SWAP3 POP POP POP JUMP JUMPDEST PUSH0 DUP3 PUSH1 0x1F DUP4 ADD SLT PUSH2 0x2BA8 JUMPI PUSH2 0x2BA7 PUSH2 0x21C3 JUMP JUMPDEST JUMPDEST DUP2 MLOAD PUSH2 0x2BB8 DUP5 DUP3 PUSH1 0x20 DUP7 ADD PUSH2 0x2B53 JUMP JUMPDEST SWAP2 POP POP SWAP3 SWAP2 POP POP JUMP JUMPDEST PUSH0 PUSH2 0x2BD3 PUSH2 0x2BCE DUP5 PUSH2 0x2B28 JUMP JUMPDEST PUSH2 0x2239 JUMP JUMPDEST SWAP1 POP DUP1 DUP4 DUP3 MSTORE PUSH1 0x20 DUP3 ADD SWAP1 POP PUSH1 0x20 DUP5 MUL DUP4 ADD DUP6 DUP2 GT ISZERO PUSH2 0x2BF6 JUMPI PUSH2 0x2BF5 PUSH2 0x2932 JUMP JUMPDEST JUMPDEST DUP4 JUMPDEST DUP2 DUP2 LT ISZERO PUSH2 0x2C3D JUMPI DUP1 MLOAD PUSH8 0xFFFFFFFFFFFFFFFF DUP2 GT ISZERO PUSH2 0x2C1B JUMPI PUSH2 0x2C1A PUSH2 0x21C3 JUMP JUMPDEST JUMPDEST DUP1 DUP7 ADD PUSH2 0x2C28 DUP10 DUP3 PUSH2 0x2B94 JUMP JUMPDEST DUP6 MSTORE PUSH1 0x20 DUP6 ADD SWAP5 POP POP POP PUSH1 0x20 DUP2 ADD SWAP1 POP PUSH2 0x2BF8 JUMP JUMPDEST POP POP POP SWAP4 SWAP3 POP POP POP JUMP JUMPDEST PUSH0 DUP3 PUSH1 0x1F DUP4 ADD SLT PUSH2 0x2C5B JUMPI PUSH2 0x2C5A PUSH2 0x21C3 JUMP JUMPDEST JUMPDEST DUP2 MLOAD PUSH2 0x2C6B DUP5 DUP3 PUSH1 0x20 DUP7 ADD PUSH2 0x2BC1 JUMP JUMPDEST SWAP2 POP POP SWAP3 SWAP2 POP POP JUMP JUMPDEST PUSH0 PUSH1 0x20 DUP3 DUP5 SUB SLT ISZERO PUSH2 0x2C89 JUMPI PUSH2 0x2C88 PUSH2 0x21BB JUMP JUMPDEST JUMPDEST PUSH0 DUP3 ADD MLOAD PUSH8 0xFFFFFFFFFFFFFFFF DUP2 GT ISZERO PUSH2 0x2CA6 JUMPI PUSH2 0x2CA5 PUSH2 0x21BF JUMP JUMPDEST JUMPDEST PUSH2 0x2CB2 DUP5 DUP3 DUP6 ADD PUSH2 0x2C47 JUMP JUMPDEST SWAP2 POP POP SWAP3 SWAP2 POP POP JUMP JUMPDEST PUSH0 DUP2 MLOAD SWAP1 POP SWAP2 SWAP1 POP JUMP JUMPDEST PUSH0 DUP3 DUP3 MSTORE PUSH1 0x20 DUP3 ADD SWAP1 POP SWAP3 SWAP2 POP POP JUMP JUMPDEST PUSH0 DUP2 SWAP1 POP PUSH1 0x20 DUP3 ADD SWAP1 POP SWAP2 SWAP1 POP JUMP JUMPDEST PUSH2 0x2CED DUP2 PUSH2 0x2955 JUMP JUMPDEST DUP3 MSTORE POP POP JUMP JUMPDEST PUSH0 PUSH2 0x2CFE DUP4 DUP4 PUSH2 0x2CE4 JUMP JUMPDEST PUSH1 0x20 DUP4 ADD SWAP1 POP SWAP3 SWAP2 POP POP JUMP JUMPDEST PUSH0 PUSH1 0x20 DUP3 ADD SWAP1 POP SWAP2 SWAP1 POP JUMP JUMPDEST PUSH0 PUSH2 0x2D20 DUP3 PUSH2 0x2CBB JUMP JUMPDEST PUSH2 0x2D2A DUP2 DUP6 PUSH2 0x2CC5 JUMP JUMPDEST SWAP4 POP PUSH2 0x2D35 DUP4 PUSH2 0x2CD5 JUMP JUMPDEST DUP1 PUSH0 JUMPDEST DUP4 DUP2 LT ISZERO PUSH2 0x2D65 JUMPI DUP2 MLOAD PUSH2 0x2D4C DUP9 DUP3 PUSH2 0x2CF3 JUMP JUMPDEST SWAP8 POP PUSH2 0x2D57 DUP4 PUSH2 0x2D0A JUMP JUMPDEST SWAP3 POP POP PUSH1 0x1 DUP2 ADD SWAP1 POP PUSH2 0x2D38 JUMP JUMPDEST POP DUP6 SWAP4 POP POP POP POP SWAP3 SWAP2 POP POP JUMP JUMPDEST PUSH0 PUSH1 0x80 DUP3 ADD SWAP1 POP DUP2 DUP2 SUB PUSH0 DUP4 ADD MSTORE PUSH2 0x2D8A DUP2 DUP8 PUSH2 0x2D16 JUMP JUMPDEST SWAP1 POP DUP2 DUP2 SUB PUSH1 0x20 DUP4 ADD MSTORE PUSH2 0x2D9E DUP2 DUP7 PUSH2 0x278A JUMP JUMPDEST SWAP1 POP DUP2 DUP2 SUB PUSH1 0x40 DUP4 ADD MSTORE PUSH2 0x2DB2 DUP2 DUP6 PUSH2 0x278A JUMP JUMPDEST SWAP1 POP DUP2 DUP2 SUB PUSH1 0x60 DUP4 ADD MSTORE PUSH2 0x2DC6 DUP2 DUP5 PUSH2 0x278A JUMP JUMPDEST SWAP1 POP SWAP6 SWAP5 POP POP POP POP POP JUMP JUMPDEST PUSH0 PUSH1 0x20 DUP3 DUP5 SUB SLT ISZERO PUSH2 0x2DE6 JUMPI PUSH2 0x2DE5 PUSH2 0x21BB JUMP JUMPDEST JUMPDEST PUSH0 DUP3 ADD MLOAD PUSH8 0xFFFFFFFFFFFFFFFF DUP2 GT ISZERO PUSH2 0x2E03 JUMPI PUSH2 0x2E02 PUSH2 0x21BF JUMP JUMPDEST JUMPDEST PUSH2 0x2E0F DUP5 DUP3 DUP6 ADD PUSH2 0x2B94 JUMP JUMPDEST SWAP2 POP POP SWAP3 SWAP2 POP POP JUMP JUMPDEST PUSH2 0x2E21 DUP2 PUSH2 0x2955 JUMP JUMPDEST DUP3 MSTORE POP POP JUMP JUMPDEST PUSH0 PUSH1 0x20 DUP3 ADD SWAP1 POP PUSH2 0x2E3A PUSH0 DUP4 ADD DUP5 PUSH2 0x2E18 JUMP JUMPDEST SWAP3 SWAP2 POP POP JUMP JUMPDEST POP JUMP JUMPDEST PUSH0 PUSH2 0x2E4E PUSH0 DUP4 PUSH2 0x2463 JUMP JUMPDEST SWAP2 POP PUSH2 0x2E59 DUP3 PUSH2 0x2E40 JUMP JUMPDEST PUSH0 DUP3 ADD SWAP1 POP SWAP2 SWAP1 POP JUMP JUMPDEST PUSH0 PUSH1 0x20 DUP3 ADD SWAP1 POP DUP2 DUP2 SUB PUSH0 DUP4 ADD MSTORE PUSH2 0x2E7A DUP2 PUSH2 0x2E43 JUMP JUMPDEST SWAP1 POP SWAP2 SWAP1 POP JUMP JUMPDEST PUSH0 DUP1 PUSH0 DUP1 PUSH1 0x80 DUP6 DUP8 SUB SLT ISZERO PUSH2 0x2E99 JUMPI PUSH2 0x2E98 PUSH2 0x21BB JUMP JUMPDEST JUMPDEST PUSH0 DUP6 ADD MLOAD PUSH8 0xFFFFFFFFFFFFFFFF DUP2 GT ISZERO PUSH2 0x2EB6 JUMPI PUSH2 0x2EB5 PUSH2 0x21BF JUMP JUMPDEST JUMPDEST PUSH2 0x2EC2 DUP8 DUP3 DUP9 ADD PUSH2 0x2B94 JUMP JUMPDEST SWAP5 POP POP PUSH1 0x20 DUP6 ADD MLOAD PUSH8 0xFFFFFFFFFFFFFFFF DUP2 GT ISZERO PUSH2 0x2EE3 JUMPI PUSH2 0x2EE2 PUSH2 0x21BF JUMP JUMPDEST JUMPDEST PUSH2 0x2EEF DUP8 DUP3 DUP9 ADD PUSH2 0x2B94 JUMP JUMPDEST SWAP4 POP POP PUSH1 0x40 DUP6 ADD MLOAD PUSH8 0xFFFFFFFFFFFFFFFF DUP2 GT ISZERO PUSH2 0x2F10 JUMPI PUSH2 0x2F0F PUSH2 0x21BF JUMP JUMPDEST JUMPDEST PUSH2 0x2F1C DUP8 DUP3 DUP9 ADD PUSH2 0x2B94 JUMP JUMPDEST SWAP3 POP POP PUSH1 0x60 DUP6 ADD MLOAD PUSH8 0xFFFFFFFFFFFFFFFF DUP2 GT ISZERO PUSH2 0x2F3D JUMPI PUSH2 0x2F3C PUSH2 0x21BF JUMP JUMPDEST JUMPDEST PUSH2 0x2F49 DUP8 DUP3 DUP9 ADD PUSH2 0x2B94 JUMP JUMPDEST SWAP2 POP POP SWAP3 SWAP6 SWAP2 SWAP5 POP SWAP3 POP JUMP JUMPDEST PUSH32 0x68616E646C6520697320696E76616C6964000000000000000000000000000000 PUSH0 DUP3 ADD MSTORE POP JUMP JUMPDEST PUSH0 PUSH2 0x2F89 PUSH1 0x11 DUP4 PUSH2 0x2463 JUMP JUMPDEST SWAP2 POP PUSH2 0x2F94 DUP3 PUSH2 0x2F55 JUMP JUMPDEST PUSH1 0x20 DUP3 ADD SWAP1 POP SWAP2 SWAP1 POP JUMP JUMPDEST PUSH0 PUSH1 0x20 DUP3 ADD SWAP1 POP DUP2 DUP2 SUB PUSH0 DUP4 ADD MSTORE PUSH2 0x2FB6 DUP2 PUSH2 0x2F7D JUMP JUMPDEST SWAP1 POP SWAP2 SWAP1 POP JUMP JUMPDEST PUSH32 0x7468652068616E646C6520686173206265656E20726567697374657265640000 PUSH0 DUP3 ADD MSTORE POP JUMP JUMPDEST PUSH0 PUSH2 0x2FF1 PUSH1 0x1E DUP4 PUSH2 0x2463 JUMP JUMPDEST SWAP2 POP PUSH2 0x2FFC DUP3 PUSH2 0x2FBD JUMP JUMPDEST PUSH1 0x20 DUP3 ADD SWAP1 POP SWAP2 SWAP1 POP JUMP JUMPDEST PUSH0 PUSH1 0x20 DUP3 ADD SWAP1 POP DUP2 DUP2 SUB PUSH0 DUP4 ADD MSTORE PUSH2 0x301E DUP2 PUSH2 0x2FE5 JUMP JUMPDEST SWAP1 POP SWAP2 SWAP1 POP JUMP JUMPDEST PUSH0 DUP2 SWAP1 POP DUP2 PUSH0 MSTORE PUSH1 0x20 PUSH0 KECCAK256 SWAP1 POP SWAP2 SWAP1 POP JUMP JUMPDEST PUSH0 PUSH1 0x20 PUSH1 0x1F DUP4 ADD DIV SWAP1 POP SWAP2 SWAP1 POP JUMP JUMPDEST PUSH0 DUP3 DUP3 SHL SWAP1 POP SWAP3 SWAP2 POP POP JUMP JUMPDEST PUSH0 PUSH1 0x8 DUP4 MUL PUSH2 0x3081 PUSH32 0xFFFFFFFFFFFFFFFFFFFFFFFFFFFFFFFFFFFFFFFFFFFFFFFFFFFFFFFFFFFFFFFF DUP3 PUSH2 0x3046 JUMP JUMPDEST PUSH2 0x308B DUP7 DUP4 PUSH2 0x3046 JUMP JUMPDEST SWAP6 POP DUP1 NOT DUP5 AND SWAP4 POP DUP1 DUP7 AND DUP5 OR SWAP3 POP POP POP SWAP4 SWAP3 POP POP POP JUMP JUMPDEST PUSH0 DUP2 SWAP1 POP SWAP2 SWAP1 POP JUMP JUMPDEST PUSH0 DUP2 SWAP1 POP SWAP2 SWAP1 POP JUMP JUMPDEST PUSH0 PUSH2 0x30CF PUSH2 0x30CA PUSH2 0x30C5 DUP5 PUSH2 0x30A3 JUMP JUMPDEST PUSH2 0x30AC JUMP JUMPDEST PUSH2 0x30A3 JUMP JUMPDEST SWAP1 POP SWAP2 SWAP1 POP JUMP JUMPDEST PUSH0 DUP2 SWAP1 POP SWAP2 SWAP1 POP JUMP JUMPDEST PUSH2 0x30E8 DUP4 PUSH2 0x30B5 JUMP JUMPDEST PUSH2 0x30FC PUSH2 0x30F4 DUP3 PUSH2 0x30D6 JUMP JUMPDEST DUP5 DUP5 SLOAD PUSH2 0x3052 JUMP JUMPDEST DUP3 SSTORE POP POP POP POP JUMP JUMPDEST PUSH0 SWAP1 JUMP JUMPDEST PUSH2 0x3110 PUSH2 0x3104 JUMP JUMPDEST PUSH2 0x311B DUP2 DUP5 DUP5 PUSH2 0x30DF JUMP JUMPDEST POP POP POP JUMP JUMPDEST JUMPDEST DUP2 DUP2 LT ISZERO PUSH2 0x313E JUMPI PUSH2 0x3133 PUSH0 DUP3 PUSH2 0x3108 JUMP JUMPDEST PUSH1 0x1 DUP2 ADD SWAP1 POP PUSH2 0x3121 JUMP JUMPDEST POP POP JUMP JUMPDEST PUSH1 0x1F DUP3 GT ISZERO PUSH2 0x3183 JUMPI PUSH2 0x3154 DUP2 PUSH2 0x3025 JUMP JUMPDEST PUSH2 0x315D DUP5 PUSH2 0x3037 JUMP JUMPDEST DUP2 ADD PUSH1 0x20 DUP6 LT ISZERO PUSH2 0x316C JUMPI DUP2 SWAP1 POP JUMPDEST PUSH2 0x3180 PUSH2 0x3178 DUP6 PUSH2 0x3037 JUMP JUMPDEST DUP4 ADD DUP3 PUSH2 0x3120 JUMP JUMPDEST POP POP JUMPDEST POP POP POP JUMP JUMPDEST PUSH0 DUP3 DUP3 SHR SWAP1 POP SWAP3 SWAP2 POP POP JUMP JUMPDEST PUSH0 PUSH2 0x31A3 PUSH0 NOT DUP5 PUSH1 0x8 MUL PUSH2 0x3188 JUMP JUMPDEST NOT DUP1 DUP4 AND SWAP2 POP POP SWAP3 SWAP2 POP POP JUMP JUMPDEST PUSH0 PUSH2 0x31BB DUP4 DUP4 PUSH2 0x3194 JUMP JUMPDEST SWAP2 POP DUP3 PUSH1 0x2 MUL DUP3 OR SWAP1 POP SWAP3 SWAP2 POP POP JUMP JUMPDEST PUSH2 0x31D4 DUP3 PUSH2 0x2459 JUMP JUMPDEST PUSH8 0xFFFFFFFFFFFFFFFF DUP2 GT ISZERO PUSH2 0x31ED JUMPI PUSH2 0x31EC PUSH2 0x21DB JUMP JUMPDEST JUMPDEST PUSH2 0x31F7 DUP3 SLOAD PUSH2 0x2A99 JUMP JUMPDEST PUSH2 0x3202 DUP3 DUP3 DUP6 PUSH2 0x3142 JUMP JUMPDEST PUSH0 PUSH1 0x20 SWAP1 POP PUSH1 0x1F DUP4 GT PUSH1 0x1 DUP2 EQ PUSH2 0x3233 JUMPI PUSH0 DUP5 ISZERO PUSH2 0x3221 JUMPI DUP3 DUP8 ADD MLOAD SWAP1 POP JUMPDEST PUSH2 0x322B DUP6 DUP3 PUSH2 0x31B0 JUMP JUMPDEST DUP7 SSTORE POP PUSH2 0x3292 JUMP JUMPDEST PUSH1 0x1F NOT DUP5 AND PUSH2 0x3241 DUP7 PUSH2 0x3025 JUMP JUMPDEST PUSH0 JUMPDEST DUP3 DUP2 LT ISZERO PUSH2 0x3268 JUMPI DUP5 DUP10 ADD MLOAD DUP3 SSTORE PUSH1 0x1 DUP3 ADD SWAP2 POP PUSH1 0x20 DUP6 ADD SWAP5 POP PUSH1 0x20 DUP2 ADD SWAP1 POP PUSH2 0x3243 JUMP JUMPDEST DUP7 DUP4 LT ISZERO PUSH2 0x3285 JUMPI DUP5 DUP10 ADD MLOAD PUSH2 0x3281 PUSH1 0x1F DUP10 AND DUP3 PUSH2 0x3194 JUMP JUMPDEST DUP4 SSTORE POP JUMPDEST PUSH1 0x1 PUSH1 0x2 DUP9 MUL ADD DUP9 SSTORE POP POP POP JUMPDEST POP POP POP POP POP POP JUMP JUMPDEST PUSH0 PUSH1 0x60 DUP3 ADD SWAP1 POP DUP2 DUP2 SUB PUSH0 DUP4 ADD MSTORE PUSH2 0x32B2 DUP2 DUP7 PUSH2 0x249B JUMP JUMPDEST SWAP1 POP DUP2 DUP2 SUB PUSH1 0x20 DUP4 ADD MSTORE PUSH2 0x32C6 DUP2 DUP6 PUSH2 0x249B JUMP JUMPDEST SWAP1 POP DUP2 DUP2 SUB PUSH1 0x40 DUP4 ADD MSTORE PUSH2 0x32DA DUP2 DUP5 PUSH2 0x249B JUMP JUMPDEST SWAP1 POP SWAP5 SWAP4 POP POP POP POP JUMP JUMPDEST PUSH32 0x7573657220686173207265676973746572656400000000000000000000000000 PUSH0 DUP3 ADD MSTORE POP JUMP JUMPDEST PUSH0 PUSH2 0x3318 PUSH1 0x13 DUP4 PUSH2 0x2463 JUMP JUMPDEST SWAP2 POP PUSH2 0x3323 DUP3 PUSH2 0x32E4 JUMP JUMPDEST PUSH1 0x20 DUP3 ADD SWAP1 POP SWAP2 SWAP1 POP JUMP JUMPDEST PUSH0 PUSH1 0x20 DUP3 ADD SWAP1 POP DUP2 DUP2 SUB PUSH0 DUP4 ADD MSTORE PUSH2 0x3345 DUP2 PUSH2 0x330C JUMP JUMPDEST SWAP1 POP SWAP2 SWAP1 POP JUMP JUMPDEST PUSH0 DUP1 PUSH0 PUSH1 0x60 DUP5 DUP7 SUB SLT ISZERO PUSH2 0x3363 JUMPI PUSH2 0x3362 PUSH2 0x21BB JUMP JUMPDEST JUMPDEST PUSH0 DUP5 ADD MLOAD PUSH8 0xFFFFFFFFFFFFFFFF DUP2 GT ISZERO PUSH2 0x3380 JUMPI PUSH2 0x337F PUSH2 0x21BF JUMP JUMPDEST JUMPDEST PUSH2 0x338C DUP7 DUP3 DUP8 ADD PUSH2 0x2B94 JUMP JUMPDEST SWAP4 POP POP PUSH1 0x20 DUP5 ADD MLOAD PUSH8 0xFFFFFFFFFFFFFFFF DUP2 GT ISZERO PUSH2 0x33AD JUMPI PUSH2 0x33AC PUSH2 0x21BF JUMP JUMPDEST JUMPDEST PUSH2 0x33B9 DUP7 DUP3 DUP8 ADD PUSH2 0x2B94 JUMP JUMPDEST SWAP3 POP POP PUSH1 0x40 DUP5 ADD MLOAD PUSH8 0xFFFFFFFFFFFFFFFF DUP2 GT ISZERO PUSH2 0x33DA JUMPI PUSH2 0x33D9 PUSH2 0x21BF JUMP JUMPDEST JUMPDEST PUSH2 0x33E6 DUP7 DUP3 DUP8 ADD PUSH2 0x2B94 JUMP JUMPDEST SWAP2 POP POP SWAP3 POP SWAP3 POP SWAP3 JUMP JUMPDEST PUSH32 0x7468652075736572206973206E6F742072656769737465726564000000000000 PUSH0 DUP3 ADD MSTORE POP JUMP JUMPDEST PUSH0 PUSH2 0x3424 PUSH1 0x1A DUP4 PUSH2 0x2463 JUMP JUMPDEST SWAP2 POP PUSH2 0x342F DUP3 PUSH2 0x33F0 JUMP JUMPDEST PUSH1 0x20 DUP3 ADD SWAP1 POP SWAP2 SWAP1 POP JUMP JUMPDEST PUSH0 PUSH1 0x20 DUP3 ADD SWAP1 POP DUP2 DUP2 SUB PUSH0 DUP4 ADD MSTORE PUSH2 0x3451 DUP2 PUSH2 0x3418 JUMP JUMPDEST SWAP1 POP SWAP2 SWAP1 POP JUMP JUMPDEST PUSH0 PUSH1 0x40 DUP3 ADD SWAP1 POP DUP2 DUP2 SUB PUSH0 DUP4 ADD MSTORE PUSH2 0x3470 DUP2 DUP6 PUSH2 0x249B JUMP JUMPDEST SWAP1 POP DUP2 DUP2 SUB PUSH1 0x20 DUP4 ADD MSTORE PUSH2 0x3484 DUP2 DUP5 PUSH2 0x2654 JUMP JUMPDEST SWAP1 POP SWAP4 SWAP3 POP POP POP JUMP INVALID LOG2 PUSH5 0x6970667358 0x22 SLT KECCAK256 DUP16 NOT PUSH28 0xDD09F7FA16320790E71BEC005936D55BF04CDFF8EA67D16456152485 0xAE PUSH5 0x736F6C6343 STOP ADDMOD AND STOP CALLER "
		},
		"gasEstimates": {
			"creation": {
				"codeDepositCost": "2701400",
				"executionCost": "infinite",
				"totalCost": "infinite"
			},
			"external": {
				"get(string,bytes)": "infinite",
				"getMethodReqAndRes(string)": "infinite",
				"getMethods(uint8)": "infinite",
				"isEmptyString(string)": "infinite",
				"isValidString(string)": "infinite",
				"options()": "infinite",
				"post(string,bytes)": "infinite",
				"put(string,bytes)": "infinite",
				"toLower(string)": "infinite"
			},
			"internal": {
				"compareStrings(string memory,string memory)": "infinite",
				"setMethod(string memory,enum IComponent.MethodTypes,enum Types.Type[] memory,enum Types.Type[] memory)": "infinite"
			}
		},
		"methodIdentifiers": {
			"get(string,bytes)": "aff62745",
			"getMethodReqAndRes(string)": "458ad6d4",
			"getMethods(uint8)": "f4856ccb",
			"isEmptyString(string)": "a45f379e",
			"isValidString(string)": "c502607f",
			"options()": "1069143a",
			"post(string,bytes)": "b6ae0425",
			"put(string,bytes)": "e9536472",
			"toLower(string)": "9416b423"
		}
	},
	"abi": [
		{
			"inputs": [],
			"stateMutability": "nonpayable",
			"type": "constructor"
		},
		{
			"anonymous": false,
			"inputs": [
				{
					"indexed": false,
					"internalType": "bytes",
					"name": "_response",
					"type": "bytes"
				}
			],
			"name": "Response",
			"type": "event"
		},
		{
			"anonymous": false,
			"inputs": [
				{
					"indexed": true,
					"internalType": "address",
					"name": "_user",
					"type": "address"
				},
				{
					"indexed": true,
					"internalType": "string",
					"name": "_handle",
					"type": "string"
				},
				{
					"indexed": false,
					"internalType": "string",
					"name": "_nickname",
					"type": "string"
				},
				{
					"indexed": false,
					"internalType": "string",
					"name": "_avatar",
					"type": "string"
				},
				{
					"indexed": false,
					"internalType": "string",
					"name": "_profile",
					"type": "string"
				}
			],
			"name": "UpdateProfile",
			"type": "event"
		},
		{
			"inputs": [
				{
					"internalType": "string",
					"name": "_methodName",
					"type": "string"
				},
				{
					"internalType": "bytes",
					"name": "_methodReq",
					"type": "bytes"
				}
			],
			"name": "get",
			"outputs": [
				{
					"internalType": "bytes",
					"name": "",
					"type": "bytes"
				}
			],
			"stateMutability": "view",
			"type": "function"
		},
		{
			"inputs": [
				{
					"internalType": "string",
					"name": "_methodName",
					"type": "string"
				}
			],
			"name": "getMethodReqAndRes",
			"outputs": [
				{
					"internalType": "enum Types.Type[]",
					"name": "",
					"type": "uint8[]"
				},
				{
					"internalType": "enum Types.Type[]",
					"name": "",
					"type": "uint8[]"
				}
			],
			"stateMutability": "view",
			"type": "function"
		},
		{
			"inputs": [
				{
					"internalType": "enum IComponent.MethodTypes",
					"name": "_methodTypes",
					"type": "uint8"
				}
			],
			"name": "getMethods",
			"outputs": [
				{
					"internalType": "string[]",
					"name": "",
					"type": "string[]"
				}
			],
			"stateMutability": "view",
			"type": "function"
		},
		{
			"inputs": [
				{
					"internalType": "string",
					"name": "str",
					"type": "string"
				}
			],
			"name": "isEmptyString",
			"outputs": [
				{
					"internalType": "bool",
					"name": "",
					"type": "bool"
				}
			],
			"stateMutability": "pure",
			"type": "function"
		},
		{
			"inputs": [
				{
					"internalType": "string",
					"name": "str",
					"type": "string"
				}
			],
			"name": "isValidString",
			"outputs": [
				{
					"internalType": "bool",
					"name": "",
					"type": "bool"
				}
			],
			"stateMutability": "pure",
			"type": "function"
		},
		{
			"inputs": [],
			"name": "options",
			"outputs": [
				{
					"internalType": "enum IComponent.MethodTypes[]",
					"name": "",
					"type": "uint8[]"
				}
			],
			"stateMutability": "pure",
			"type": "function"
		},
		{
			"inputs": [
				{
					"internalType": "string",
					"name": "_methodName",
					"type": "string"
				},
				{
					"internalType": "bytes",
					"name": "_methodReq",
					"type": "bytes"
				}
			],
			"name": "post",
			"outputs": [
				{
					"internalType": "bytes",
					"name": "",
					"type": "bytes"
				}
			],
			"stateMutability": "payable",
			"type": "function"
		},
		{
			"inputs": [
				{
					"internalType": "string",
					"name": "_methodName",
					"type": "string"
				},
				{
					"internalType": "bytes",
					"name": "_methodReq",
					"type": "bytes"
				}
			],
			"name": "put",
			"outputs": [
				{
					"internalType": "bytes",
					"name": "",
					"type": "bytes"
				}
			],
			"stateMutability": "payable",
			"type": "function"
		},
		{
			"inputs": [
				{
					"internalType": "string",
					"name": "str",
					"type": "string"
				}
			],
			"name": "toLower",
			"outputs": [
				{
					"internalType": "string",
					"name": "",
					"type": "string"
				}
			],
			"stateMutability": "pure",
			"type": "function"
		}
	]
}