{
	"data": {
		"bytecode": {
			"linkReferences": {},
			"object": "608060405234801562000010575f80fd5b505f600367ffffffffffffffff81111562000030576200002f620009e5565b5b6040519080825280602002602001820160405280156200005f5781602001602082028036833780820191505090505b5090506040815f815181106200007a576200007962000a12565b5b602002602001019060c681111562000097576200009662000a3f565b5b908160c6811115620000ae57620000ad62000a3f565b5b81525050606381600181518110620000cb57620000ca62000a12565b5b602002602001019060c6811115620000e857620000e762000a3f565b5b908160c6811115620000ff57620000fe62000a3f565b5b815250506063816002815181106200011c576200011b62000a12565b5b602002602001019060c681111562000139576200013862000a3f565b5b908160c681111562000150576200014f62000a3f565b5b815250505f600167ffffffffffffffff811115620001735762000172620009e5565b5b604051908082528060200260200182016040528015620001a25781602001602082028036833780820191505090505b5090506040815f81518110620001bd57620001bc62000a12565b5b602002602001019060c6811115620001da57620001d962000a3f565b5b908160c6811115620001f157620001f062000a3f565b5b815250505f600467ffffffffffffffff811115620002145762000213620009e5565b5b604051908082528060200260200182016040528015620002435781602001602082028036833780820191505090505b5090506040815f815181106200025e576200025d62000a12565b5b602002602001019060c68111156200027b576200027a62000a3f565b5b908160c681111562000292576200029162000a3f565b5b81525050604081600181518110620002af57620002ae62000a12565b5b602002602001019060c6811115620002cc57620002cb62000a3f565b5b908160c6811115620002e357620002e262000a3f565b5b815250506063816002815181106200030057620002ff62000a12565b5b602002602001019060c68111156200031d576200031c62000a3f565b5b908160c681111562000334576200033362000a3f565b5b8152505060418160038151811062000351576200035062000a12565b5b602002602001019060c68111156200036e576200036d62000a3f565b5b908160c681111562000385576200038462000a3f565b5b815250505f600367ffffffffffffffff811115620003a857620003a7620009e5565b5b604051908082528060200260200182016040528015620003d75781602001602082028036833780820191505090505b5090506040815f81518110620003f257620003f162000a12565b5b602002602001019060c68111156200040f576200040e62000a3f565b5b908160c681111562000426576200042562000a3f565b5b8152505060408160018151811062000443576200044262000a12565b5b602002602001019060c681111562000460576200045f62000a3f565b5b908160c681111562000477576200047662000a3f565b5b8152505060408160028151811062000494576200049362000a12565b5b602002602001019060c6811115620004b157620004b062000a3f565b5b908160c6811115620004c857620004c762000a3f565b5b815250505f600167ffffffffffffffff811115620004eb57620004ea620009e5565b5b6040519080825280602002602001820160405280156200051a5781602001602082028036833780820191505090505b50905060c6815f8151811062000535576200053462000a12565b5b602002602001019060c681111562000552576200055162000a3f565b5b908160c681111562000569576200056862000a3f565b5b815250505f600367ffffffffffffffff8111156200058c576200058b620009e5565b5b604051908082528060200260200182016040528015620005bb5781602001602082028036833780820191505090505b5090506041815f81518110620005d657620005d562000a12565b5b602002602001019060c6811115620005f357620005f262000a3f565b5b908160c68111156200060a576200060962000a3f565b5b8152505060408160018151811062000627576200062662000a12565b5b602002602001019060c681111562000644576200064362000a3f565b5b908160c68111156200065b576200065a62000a3f565b5b8152505060408160028151811062000678576200067762000a12565b5b602002602001019060c681111562000695576200069462000a3f565b5b908160c6811115620006ac57620006ab62000a3f565b5b81525050620007466040518060400160405280600b81526020017f706f7374436f6d6d656e740000000000000000000000000000000000000000008152506001885f67ffffffffffffffff8111156200070a5762000709620009e5565b5b604051908082528060200260200182016040528015620007395781602001602082028036833780820191505090505b506200082d60201b60201c565b6200078f6040518060400160405280600a81526020017f676574436f6d6d656e74000000000000000000000000000000000000000000008152505f87876200082d60201b60201c565b620007d86040518060400160405280600b81526020017f676574436f6d6d656e74730000000000000000000000000000000000000000008152505f85856200082d60201b60201c565b620008216040518060400160405280601481526020017f676574436f6d6d656e74734279416464726573730000000000000000000000008152505f83856200082d60201b60201c565b50505050505062000e09565b5f8084600381111562000845576200084462000a3f565b5b60038111156200085a576200085962000a3f565b5b81526020019081526020015f2084908060018154018082558091505060019003905f5260205f20015f90919091909150908162000898919062000ca3565b5081600185604051620008ac919062000df1565b90815260200160405180910390209080519060200190620008cf9291906200090d565b5080600285604051620008e3919062000df1565b90815260200160405180910390209080519060200190620009069291906200090d565b5050505050565b828054828255905f5260205f2090601f01602090048101928215620009b5579160200282015f5b838211156200098557835183826101000a81548160ff021916908360c681111562000964576200096362000a3f565b5b021790555092602001926001016020815f0104928301926001030262000934565b8015620009b35782816101000a81549060ff02191690556001016020815f0104928301926001030262000985565b505b509050620009c49190620009c8565b5090565b5b80821115620009e1575f815f905550600101620009c9565b5090565b7f4e487b71000000000000000000000000000000000000000000000000000000005f52604160045260245ffd5b7f4e487b71000000000000000000000000000000000000000000000000000000005f52603260045260245ffd5b7f4e487b71000000000000000000000000000000000000000000000000000000005f52602160045260245ffd5b5f81519050919050565b7f4e487b71000000000000000000000000000000000000000000000000000000005f52602260045260245ffd5b5f600282049050600182168062000abb57607f821691505b60208210810362000ad15762000ad062000a76565b5b50919050565b5f819050815f5260205f209050919050565b5f6020601f8301049050919050565b5f82821b905092915050565b5f6008830262000b357fffffffffffffffffffffffffffffffffffffffffffffffffffffffffffffffff8262000af8565b62000b41868362000af8565b95508019841693508086168417925050509392505050565b5f819050919050565b5f819050919050565b5f62000b8b62000b8562000b7f8462000b59565b62000b62565b62000b59565b9050919050565b5f819050919050565b62000ba68362000b6b565b62000bbe62000bb58262000b92565b84845462000b04565b825550505050565b5f90565b62000bd462000bc6565b62000be181848462000b9b565b505050565b5b8181101562000c085762000bfc5f8262000bca565b60018101905062000be7565b5050565b601f82111562000c575762000c218162000ad7565b62000c2c8462000ae9565b8101602085101562000c3c578190505b62000c5462000c4b8562000ae9565b83018262000be6565b50505b505050565b5f82821c905092915050565b5f62000c795f198460080262000c5c565b1980831691505092915050565b5f62000c93838362000c68565b9150826002028217905092915050565b62000cae8262000a6c565b67ffffffffffffffff81111562000cca5762000cc9620009e5565b5b62000cd6825462000aa3565b62000ce382828562000c0c565b5f60209050601f83116001811462000d19575f841562000d04578287015190505b62000d10858262000c86565b86555062000d7f565b601f19841662000d298662000ad7565b5f5b8281101562000d525784890151825560018201915060208501945060208101905062000d2b565b8683101562000d72578489015162000d6e601f89168262000c68565b8355505b6001600288020188555050505b505050505050565b5f81905092915050565b5f5b8381101562000db057808201518184015260208101905062000d93565b5f8484015250505050565b5f62000dc78262000a6c565b62000dd3818562000d87565b935062000de581856020860162000d91565b80840191505092915050565b5f62000dfe828462000dbb565b915081905092915050565b612cc58062000e175f395ff3fe608060405260043610610090575f3560e01c80636818ba1d116100585780636818ba1d1461019d578063aff62745146101d9578063b6ae042514610215578063e953647214610245578063f4856ccb1461027557610090565b80631069143a146100945780633e413065146100be5780633eae02b3146100e85780634423745414610124578063458ad6d414610160575b5f80fd5b34801561009f575f80fd5b506100a86102b1565b6040516100b59190611a6f565b60405180910390f35b3480156100c9575f80fd5b506100d2610425565b6040516100df9190611aa7565b60405180910390f35b3480156100f3575f80fd5b5061010e60048036038101906101099190611c91565b61042b565b60405161011b9190611dba565b60405180910390f35b34801561012f575f80fd5b5061014a60048036038101906101459190611dda565b6104aa565b6040516101579190611f2d565b60405180910390f35b34801561016b575f80fd5b5061018660048036038101906101819190611f4d565b610863565b604051610194929190612072565b60405180910390f35b3480156101a8575f80fd5b506101c360048036038101906101be91906120a7565b6109b1565b6040516101d09190611f2d565b60405180910390f35b3480156101e4575f80fd5b506101ff60048036038101906101fa9190612195565b610cba565b60405161020c919061225d565b60405180910390f35b61022f600480360381019061022a9190612195565b610fc7565b60405161023c919061225d565b60405180910390f35b61025f600480360381019061025a9190612195565b6112aa565b60405161026c919061225d565b60405180910390f35b348015610280575f80fd5b5061029b600480360381019061029691906122a0565b6112d6565b6040516102a89190611f2d565b60405180910390f35b60605f600467ffffffffffffffff8111156102cf576102ce611b13565b5b6040519080825280602002602001820160405280156102fd5781602001602082028036833780820191505090505b5090505f815f81518110610314576103136122cb565b5b6020026020010190600381111561032e5761032d61197d565b5b908160038111156103425761034161197d565b5b8152505060018160018151811061035c5761035b6122cb565b5b602002602001019060038111156103765761037561197d565b5b9081600381111561038a5761038961197d565b5b815250506002816002815181106103a4576103a36122cb565b5b602002602001019060038111156103be576103bd61197d565b5b908160038111156103d2576103d161197d565b5b815250506003816003815181106103ec576103eb6122cb565b5b602002602001019060038111156104065761040561197d565b5b9081600381111561041a5761041961197d565b5b815250508091505090565b60035481565b6060610436866113de565b61043f866113de565b61044886611537565b61045186611537565b6104728673ffffffffffffffffffffffffffffffffffffffff1660146116c7565b61047b426113de565b6040516020016104909695949392919061237c565b604051602081830303815290604052905095945050505050565b60605f60055f8673ffffffffffffffffffffffffffffffffffffffff1673ffffffffffffffffffffffffffffffffffffffff1681526020019081526020015f20540361054a575f8067ffffffffffffffff81111561050b5761050a611b13565b5b60405190808252806020026020018201604052801561053e57816020015b60608152602001906001900390816105295790505b5090508091505061085c565b6001831180156105b957506001836105629190612437565b82600160055f8873ffffffffffffffffffffffffffffffffffffffff1673ffffffffffffffffffffffffffffffffffffffff1681526020019081526020015f20546105ad9190612437565b6105b79190612497565b105b15610618575f8067ffffffffffffffff8111156105d9576105d8611b13565b5b60405190808252806020026020018201604052801561060c57816020015b60608152602001906001900390816105f75790505b5090508091505061085c565b5f805f90505f8460018761062c9190612437565b61063691906124c7565b600160055f8a73ffffffffffffffffffffffffffffffffffffffff1673ffffffffffffffffffffffffffffffffffffffff1681526020019081526020015f20546106809190612437565b61068a9190612437565b90505f858210156106ac575f90506001826106a59190612508565b93506106ca565b600186836106ba9190612437565b6106c49190612508565b90508593505b5f8467ffffffffffffffff8111156106e5576106e4611b13565b5b60405190808252806020026020018201604052801561071857816020015b60608152602001906001900390816107035790505b5090505f8390505b828112610852575f60075f8c73ffffffffffffffffffffffffffffffffffffffff1673ffffffffffffffffffffffffffffffffffffffff1681526020019081526020015f205f8381526020019081526020015f2054905060085f8281526020019081526020015f20600201805461079690612568565b80601f01602080910402602001604051908101604052809291908181526020018280546107c290612568565b801561080d5780601f106107e45761010080835404028352916020019161080d565b820191905f5260205f20905b8154815290600101906020018083116107f057829003601f168201915b5050505050838781518110610825576108246122cb565b5b6020026020010181905250858061083b90612598565b96505050808061084a906125e8565b915050610720565b5080955050505050505b9392505050565b606080600183604051610876919061262f565b9081526020016040518091039020600284604051610894919061262f565b90815260200160405180910390208180548060200260200160405190810160405280929190818152602001828054801561091e57602002820191905f5260205f20905f905b82829054906101000a900460ff1660c68111156108f9576108f861197d565b5b815260200190600101906020825f010492830192600103820291508084116108d95790505b50505050509150808054806020026020016040519081016040528092919081815260200182805480156109a157602002820191905f5260205f20905f905b82829054906101000a900460ff1660c681111561097c5761097b61197d565b5b815260200190600101906020825f0104928301926001038202915080841161095c5790505b5050505050905091509150915091565b60605f60045f8681526020019081526020015f205403610a25575f8067ffffffffffffffff8111156109e6576109e5611b13565b5b604051908082528060200260200182016040528015610a1957816020015b6060815260200190600190039081610a045790505b50905080915050610cb3565b600183118015610a685750600183610a3d9190612437565b82600160045f8881526020019081526020015f2054610a5c9190612437565b610a669190612497565b105b15610ac7575f8067ffffffffffffffff811115610a8857610a87611b13565b5b604051908082528060200260200182016040528015610abb57816020015b6060815260200190600190039081610aa65790505b50905080915050610cb3565b5f805f90505f84600187610adb9190612437565b610ae591906124c7565b600160045f8a81526020019081526020015f2054610b039190612437565b610b0d9190612437565b90505f85821015610b2f575f9050600182610b289190612508565b9350610b4d565b60018683610b3d9190612437565b610b479190612508565b90508593505b5f8467ffffffffffffffff811115610b6857610b67611b13565b5b604051908082528060200260200182016040528015610b9b57816020015b6060815260200190600190039081610b865790505b5090505f8390505b828112610ca9575f60065f8c81526020019081526020015f205f8381526020019081526020015f2054905060085f8281526020019081526020015f206002018054610bed90612568565b80601f0160208091040260200160405190810160405280929190818152602001828054610c1990612568565b8015610c645780601f10610c3b57610100808354040283529160200191610c64565b820191905f5260205f20905b815481529060010190602001808311610c4757829003601f168201915b5050505050838781518110610c7c57610c7b6122cb565b5b60200260200101819052508580610c9290612598565b965050508080610ca1906125e8565b915050610ba3565b5080955050505050505b9392505050565b6060610cfb836040518060400160405280600a81526020017f676574436f6d6d656e74000000000000000000000000000000000000000000008152506118fc565b15610e6c575f82806020019051810190610d159190612659565b90505f60085f8381526020019081526020015f206040518060800160405290815f820154815260200160018201548152602001600282018054610d5790612568565b80601f0160208091040260200160405190810160405280929190818152602001828054610d8390612568565b8015610dce5780601f10610da557610100808354040283529160200191610dce565b820191905f5260205f20905b815481529060010190602001808311610db157829003601f168201915b50505050508152602001600382015f9054906101000a900473ffffffffffffffffffffffffffffffffffffffff1673ffffffffffffffffffffffffffffffffffffffff1673ffffffffffffffffffffffffffffffffffffffff16815250509050805f0151816020015182604001518360600151604051602001610e549493929190612693565b60405160208183030381529060405292505050610fc1565b610eab836040518060400160405280600b81526020017f676574436f6d6d656e74730000000000000000000000000000000000000000008152506118fc565b15610f06575f805f84806020019051810190610ec791906126dd565b9250925092505f610ed98484846109b1565b905080604051602001610eec9190611f2d565b604051602081830303815290604052945050505050610fc1565b610f45836040518060400160405280601481526020017f676574436f6d6d656e74734279416464726573730000000000000000000000008152506118fc565b15610fa0575f805f84806020019051810190610f619190612768565b9250925092505f610f738484846104aa565b905080604051602001610f869190611f2d565b604051602081830303815290604052945050505050610fc1565b604051602001610faf906127db565b60405160208183030381529060405290505b92915050565b6060611008836040518060400160405280600b81526020017f706f7374436f6d6d656e740000000000000000000000000000000000000000008152506118fc565b15611283575f805f848060200190518101906110249190612867565b9250925092505f61103a8460035485853361042b565b90505f60045f8681526020019081526020015f205490505f60055f3373ffffffffffffffffffffffffffffffffffffffff1673ffffffffffffffffffffffffffffffffffffffff1681526020019081526020015f20549050604051806080016040528087815260200160035481526020018481526020013373ffffffffffffffffffffffffffffffffffffffff1681525060085f60035481526020019081526020015f205f820151815f01556020820151816001015560408201518160020190816111059190612a8c565b506060820151816003015f6101000a81548173ffffffffffffffffffffffffffffffffffffffff021916908373ffffffffffffffffffffffffffffffffffffffff16021790555090505060035460065f8881526020019081526020015f205f8481526020019081526020015f208190555060035460075f3373ffffffffffffffffffffffffffffffffffffffff1673ffffffffffffffffffffffffffffffffffffffff1681526020019081526020015f205f8381526020019081526020015f208190555060045f8781526020019081526020015f205f8154809291906111ea90612598565b919050555060055f3373ffffffffffffffffffffffffffffffffffffffff1673ffffffffffffffffffffffffffffffffffffffff1681526020019081526020015f205f81548092919061123c90612598565b919050555060035f81548092919061125390612598565b9190505550604051602001611267906127db565b60405160208183030381529060405296505050505050506112a4565b604051602001611292906127db565b60405160208183030381529060405290505b92915050565b606082826040516020016112bf929190612b5b565b604051602081830303815290604052905092915050565b60605f808360038111156112ed576112ec61197d565b5b60038111156112ff576112fe61197d565b5b81526020019081526020015f20805480602002602001604051908101604052809291908181526020015f905b828210156113d3578382905f5260205f2001805461134890612568565b80601f016020809104026020016040519081016040528092919081815260200182805461137490612568565b80156113bf5780601f10611396576101008083540402835291602001916113bf565b820191905f5260205f20905b8154815290600101906020018083116113a257829003601f168201915b50505050508152602001906001019061132b565b505050509050919050565b60605f8203611424576040518060400160405280600181526020017f30000000000000000000000000000000000000000000000000000000000000008152509050611532565b5f8290505f5b5f821461145357808061143c90612598565b915050600a8261144c9190612497565b915061142a565b5f8167ffffffffffffffff81111561146e5761146d611b13565b5b6040519080825280601f01601f1916602001820160405280156114a05781602001600182028036833780820191505090505b5090505b5f851461152b576001826114b89190612437565b9150600a856114c79190612b90565b60306114d39190612508565b60f81b8183815181106114e9576114e86122cb565b5b60200101907effffffffffffffffffffffffffffffffffffffffffffffffffffffffffffff191690815f1a905350600a856115249190612497565b94506114a4565b8093505050505b919050565b60605f825190505f810361155c5760405180602001604052805f8152509150506116c2565b5f600360028361156c9190612508565b6115769190612497565b600461158291906124c7565b90505f6020826115929190612508565b67ffffffffffffffff8111156115ab576115aa611b13565b5b6040519080825280601f01601f1916602001820160405280156115dd5781602001600182028036833780820191505090505b5090505f604051806060016040528060408152602001612c5060409139905060018101602083015f5b8681101561167f5760038101905062ffffff818a015116603f8160121c168401518060081b905060ff603f83600c1c1686015116810190508060081b905060ff603f8360061c1686015116810190508060081b905060ff603f831686015116810190508060e01b90508084526004840193505050611606565b50600386066001811461169957600281146116a9576116b4565b613d3d60f01b60028303526116b4565b603d60f81b60018303525b508484525050819450505050505b919050565b60605f60028360026116d991906124c7565b6116e39190612508565b67ffffffffffffffff8111156116fc576116fb611b13565b5b6040519080825280601f01601f19166020018201604052801561172e5781602001600182028036833780820191505090505b5090507f3000000000000000000000000000000000000000000000000000000000000000815f81518110611765576117646122cb565b5b60200101907effffffffffffffffffffffffffffffffffffffffffffffffffffffffffffff191690815f1a9053507f7800000000000000000000000000000000000000000000000000000000000000816001815181106117c8576117c76122cb565b5b60200101907effffffffffffffffffffffffffffffffffffffffffffffffffffffffffffff191690815f1a9053505f600184600261180691906124c7565b6118109190612508565b90505b60018111156118af577f3031323334353637383961626364656600000000000000000000000000000000600f861660108110611852576118516122cb565b5b1a60f81b828281518110611869576118686122cb565b5b60200101907effffffffffffffffffffffffffffffffffffffffffffffffffffffffffffff191690815f1a905350600485901c9450806118a890612bc0565b9050611813565b505f84146118f2576040517f08c379a00000000000000000000000000000000000000000000000000000000081526004016118e990612c31565b60405180910390fd5b8091505092915050565b5f8160405160200161190e919061262f565b6040516020818303038152906040528051906020012083604051602001611935919061262f565b6040516020818303038152906040528051906020012014905092915050565b5f81519050919050565b5f82825260208201905092915050565b5f819050602082019050919050565b7f4e487b71000000000000000000000000000000000000000000000000000000005f52602160045260245ffd5b600481106119bb576119ba61197d565b5b50565b5f8190506119cb826119aa565b919050565b5f6119da826119be565b9050919050565b6119ea816119d0565b82525050565b5f6119fb83836119e1565b60208301905092915050565b5f602082019050919050565b5f611a1d82611954565b611a27818561195e565b9350611a328361196e565b805f5b83811015611a62578151611a4988826119f0565b9750611a5483611a07565b925050600181019050611a35565b5085935050505092915050565b5f6020820190508181035f830152611a878184611a13565b905092915050565b5f819050919050565b611aa181611a8f565b82525050565b5f602082019050611aba5f830184611a98565b92915050565b5f604051905090565b5f80fd5b5f80fd5b611ada81611a8f565b8114611ae4575f80fd5b50565b5f81359050611af581611ad1565b92915050565b5f80fd5b5f80fd5b5f601f19601f8301169050919050565b7f4e487b71000000000000000000000000000000000000000000000000000000005f52604160045260245ffd5b611b4982611b03565b810181811067ffffffffffffffff82111715611b6857611b67611b13565b5b80604052505050565b5f611b7a611ac0565b9050611b868282611b40565b919050565b5f67ffffffffffffffff821115611ba557611ba4611b13565b5b611bae82611b03565b9050602081019050919050565b828183375f83830152505050565b5f611bdb611bd684611b8b565b611b71565b905082815260208101848484011115611bf757611bf6611aff565b5b611c02848285611bbb565b509392505050565b5f82601f830112611c1e57611c1d611afb565b5b8135611c2e848260208601611bc9565b91505092915050565b5f73ffffffffffffffffffffffffffffffffffffffff82169050919050565b5f611c6082611c37565b9050919050565b611c7081611c56565b8114611c7a575f80fd5b50565b5f81359050611c8b81611c67565b92915050565b5f805f805f60a08688031215611caa57611ca9611ac9565b5b5f611cb788828901611ae7565b9550506020611cc888828901611ae7565b945050604086013567ffffffffffffffff811115611ce957611ce8611acd565b5b611cf588828901611c0a565b935050606086013567ffffffffffffffff811115611d1657611d15611acd565b5b611d2288828901611c0a565b9250506080611d3388828901611c7d565b9150509295509295909350565b5f81519050919050565b5f82825260208201905092915050565b5f5b83811015611d77578082015181840152602081019050611d5c565b5f8484015250505050565b5f611d8c82611d40565b611d968185611d4a565b9350611da6818560208601611d5a565b611daf81611b03565b840191505092915050565b5f6020820190508181035f830152611dd28184611d82565b905092915050565b5f805f60608486031215611df157611df0611ac9565b5b5f611dfe86828701611c7d565b9350506020611e0f86828701611ae7565b9250506040611e2086828701611ae7565b9150509250925092565b5f81519050919050565b5f82825260208201905092915050565b5f819050602082019050919050565b5f82825260208201905092915050565b5f611e6d82611d40565b611e778185611e53565b9350611e87818560208601611d5a565b611e9081611b03565b840191505092915050565b5f611ea68383611e63565b905092915050565b5f602082019050919050565b5f611ec482611e2a565b611ece8185611e34565b935083602082028501611ee085611e44565b805f5b85811015611f1b5784840389528151611efc8582611e9b565b9450611f0783611eae565b925060208a01995050600181019050611ee3565b50829750879550505050505092915050565b5f6020820190508181035f830152611f458184611eba565b905092915050565b5f60208284031215611f6257611f61611ac9565b5b5f82013567ffffffffffffffff811115611f7f57611f7e611acd565b5b611f8b84828501611c0a565b91505092915050565b5f81519050919050565b5f819050602082019050919050565b60c78110611fbe57611fbd61197d565b5b50565b5f819050611fce82611fad565b919050565b5f611fdd82611fc1565b9050919050565b611fed81611fd3565b82525050565b5f611ffe8383611fe4565b60208301905092915050565b5f602082019050919050565b5f61202082611f94565b61202a818561195e565b935061203583611f9e565b805f5b8381101561206557815161204c8882611ff3565b97506120578361200a565b925050600181019050612038565b5085935050505092915050565b5f6040820190508181035f83015261208a8185612016565b9050818103602083015261209e8184612016565b90509392505050565b5f805f606084860312156120be576120bd611ac9565b5b5f6120cb86828701611ae7565b93505060206120dc86828701611ae7565b92505060406120ed86828701611ae7565b9150509250925092565b5f67ffffffffffffffff82111561211157612110611b13565b5b61211a82611b03565b9050602081019050919050565b5f612139612134846120f7565b611b71565b90508281526020810184848401111561215557612154611aff565b5b612160848285611bbb565b509392505050565b5f82601f83011261217c5761217b611afb565b5b813561218c848260208601612127565b91505092915050565b5f80604083850312156121ab576121aa611ac9565b5b5f83013567ffffffffffffffff8111156121c8576121c7611acd565b5b6121d485828601611c0a565b925050602083013567ffffffffffffffff8111156121f5576121f4611acd565b5b61220185828601612168565b9150509250929050565b5f81519050919050565b5f82825260208201905092915050565b5f61222f8261220b565b6122398185612215565b9350612249818560208601611d5a565b61225281611b03565b840191505092915050565b5f6020820190508181035f8301526122758184612225565b905092915050565b60048110612289575f80fd5b50565b5f8135905061229a8161227d565b92915050565b5f602082840312156122b5576122b4611ac9565b5b5f6122c28482850161228c565b91505092915050565b7f4e487b71000000000000000000000000000000000000000000000000000000005f52603260045260245ffd5b5f81905092915050565b5f61230c82611d40565b61231681856122f8565b9350612326818560208601611d5a565b80840191505092915050565b7f2c000000000000000000000000000000000000000000000000000000000000005f82015250565b5f6123666001836122f8565b915061237182612332565b600182019050919050565b5f6123878289612302565b91506123928261235a565b915061239e8288612302565b91506123a98261235a565b91506123b58287612302565b91506123c08261235a565b91506123cc8286612302565b91506123d78261235a565b91506123e38285612302565b91506123ee8261235a565b91506123fa8284612302565b9150819050979650505050505050565b7f4e487b71000000000000000000000000000000000000000000000000000000005f52601160045260245ffd5b5f61244182611a8f565b915061244c83611a8f565b92508282039050818111156124645761246361240a565b5b92915050565b7f4e487b71000000000000000000000000000000000000000000000000000000005f52601260045260245ffd5b5f6124a182611a8f565b91506124ac83611a8f565b9250826124bc576124bb61246a565b5b828204905092915050565b5f6124d182611a8f565b91506124dc83611a8f565b92508282026124ea81611a8f565b915082820484148315176125015761250061240a565b5b5092915050565b5f61251282611a8f565b915061251d83611a8f565b92508282019050808211156125355761253461240a565b5b92915050565b7f4e487b71000000000000000000000000000000000000000000000000000000005f52602260045260245ffd5b5f600282049050600182168061257f57607f821691505b6020821081036125925761259161253b565b5b50919050565b5f6125a282611a8f565b91507fffffffffffffffffffffffffffffffffffffffffffffffffffffffffffffffff82036125d4576125d361240a565b5b600182019050919050565b5f819050919050565b5f6125f2826125df565b91507f800000000000000000000000000000000000000000000000000000000000000082036126245761262361240a565b5b600182039050919050565b5f61263a8284612302565b915081905092915050565b5f8151905061265381611ad1565b92915050565b5f6020828403121561266e5761266d611ac9565b5b5f61267b84828501612645565b91505092915050565b61268d81611c56565b82525050565b5f6080820190506126a65f830187611a98565b6126b36020830186611a98565b81810360408301526126c58185611d82565b90506126d46060830184612684565b95945050505050565b5f805f606084860312156126f4576126f3611ac9565b5b5f61270186828701612645565b935050602061271286828701612645565b925050604061272386828701612645565b9150509250925092565b5f61273782611c37565b9050919050565b6127478161272d565b8114612751575f80fd5b50565b5f815190506127628161273e565b92915050565b5f805f6060848603121561277f5761277e611ac9565b5b5f61278c86828701612754565b935050602061279d86828701612645565b92505060406127ae86828701612645565b9150509250925092565b50565b5f6127c65f83611d4a565b91506127d1826127b8565b5f82019050919050565b5f6020820190508181035f8301526127f2816127bb565b9050919050565b5f61280b61280684611b8b565b611b71565b90508281526020810184848401111561282757612826611aff565b5b612832848285611d5a565b509392505050565b5f82601f83011261284e5761284d611afb565b5b815161285e8482602086016127f9565b91505092915050565b5f805f6060848603121561287e5761287d611ac9565b5b5f61288b86828701612645565b935050602084015167ffffffffffffffff8111156128ac576128ab611acd565b5b6128b88682870161283a565b925050604084015167ffffffffffffffff8111156128d9576128d8611acd565b5b6128e58682870161283a565b9150509250925092565b5f819050815f5260205f209050919050565b5f6020601f8301049050919050565b5f82821b905092915050565b5f6008830261294b7fffffffffffffffffffffffffffffffffffffffffffffffffffffffffffffffff82612910565b6129558683612910565b95508019841693508086168417925050509392505050565b5f819050919050565b5f61299061298b61298684611a8f565b61296d565b611a8f565b9050919050565b5f819050919050565b6129a983612976565b6129bd6129b582612997565b84845461291c565b825550505050565b5f90565b6129d16129c5565b6129dc8184846129a0565b505050565b5b818110156129ff576129f45f826129c9565b6001810190506129e2565b5050565b601f821115612a4457612a15816128ef565b612a1e84612901565b81016020851015612a2d578190505b612a41612a3985612901565b8301826129e1565b50505b505050565b5f82821c905092915050565b5f612a645f1984600802612a49565b1980831691505092915050565b5f612a7c8383612a55565b9150826002028217905092915050565b612a9582611d40565b67ffffffffffffffff811115612aae57612aad611b13565b5b612ab88254612568565b612ac3828285612a03565b5f60209050601f831160018114612af4575f8415612ae2578287015190505b612aec8582612a71565b865550612b53565b601f198416612b02866128ef565b5f5b82811015612b2957848901518255600182019150602085019450602081019050612b04565b86831015612b465784890151612b42601f891682612a55565b8355505b6001600288020188555050505b505050505050565b5f6040820190508181035f830152612b738185611d82565b90508181036020830152612b878184612225565b90509392505050565b5f612b9a82611a8f565b9150612ba583611a8f565b925082612bb557612bb461246a565b5b828206905092915050565b5f612bca82611a8f565b91505f8203612bdc57612bdb61240a565b5b600182039050919050565b7f537472696e67733a20686578206c656e67746820696e73756666696369656e745f82015250565b5f612c1b602083611d4a565b9150612c2682612be7565b602082019050919050565b5f6020820190508181035f830152612c4881612c0f565b905091905056fe4142434445464748494a4b4c4d4e4f505152535455565758595a6162636465666768696a6b6c6d6e6f707172737475767778797a303132333435363738392b2fa264697066735822122083237f0ceb28adacefa8e1bc2c6e56d3af452e7d351a59fe07afc09d44d005d464736f6c63430008160033",
			"opcodes": "PUSH1 0x80 PUSH1 0x40 MSTORE CALLVALUE DUP1 ISZERO PUSH3 0x10 JUMPI PUSH0 DUP1 REVERT JUMPDEST POP PUSH0 PUSH1 0x3 PUSH8 0xFFFFFFFFFFFFFFFF DUP2 GT ISZERO PUSH3 0x30 JUMPI PUSH3 0x2F PUSH3 0x9E5 JUMP JUMPDEST JUMPDEST PUSH1 0x40 MLOAD SWAP1 DUP1 DUP3 MSTORE DUP1 PUSH1 0x20 MUL PUSH1 0x20 ADD DUP3 ADD PUSH1 0x40 MSTORE DUP1 ISZERO PUSH3 0x5F JUMPI DUP2 PUSH1 0x20 ADD PUSH1 0x20 DUP3 MUL DUP1 CALLDATASIZE DUP4 CALLDATACOPY DUP1 DUP3 ADD SWAP2 POP POP SWAP1 POP JUMPDEST POP SWAP1 POP PUSH1 0x40 DUP2 PUSH0 DUP2 MLOAD DUP2 LT PUSH3 0x7A JUMPI PUSH3 0x79 PUSH3 0xA12 JUMP JUMPDEST JUMPDEST PUSH1 0x20 MUL PUSH1 0x20 ADD ADD SWAP1 PUSH1 0xC6 DUP2 GT ISZERO PUSH3 0x97 JUMPI PUSH3 0x96 PUSH3 0xA3F JUMP JUMPDEST JUMPDEST SWAP1 DUP2 PUSH1 0xC6 DUP2 GT ISZERO PUSH3 0xAE JUMPI PUSH3 0xAD PUSH3 0xA3F JUMP JUMPDEST JUMPDEST DUP2 MSTORE POP POP PUSH1 0x63 DUP2 PUSH1 0x1 DUP2 MLOAD DUP2 LT PUSH3 0xCB JUMPI PUSH3 0xCA PUSH3 0xA12 JUMP JUMPDEST JUMPDEST PUSH1 0x20 MUL PUSH1 0x20 ADD ADD SWAP1 PUSH1 0xC6 DUP2 GT ISZERO PUSH3 0xE8 JUMPI PUSH3 0xE7 PUSH3 0xA3F JUMP JUMPDEST JUMPDEST SWAP1 DUP2 PUSH1 0xC6 DUP2 GT ISZERO PUSH3 0xFF JUMPI PUSH3 0xFE PUSH3 0xA3F JUMP JUMPDEST JUMPDEST DUP2 MSTORE POP POP PUSH1 0x63 DUP2 PUSH1 0x2 DUP2 MLOAD DUP2 LT PUSH3 0x11C JUMPI PUSH3 0x11B PUSH3 0xA12 JUMP JUMPDEST JUMPDEST PUSH1 0x20 MUL PUSH1 0x20 ADD ADD SWAP1 PUSH1 0xC6 DUP2 GT ISZERO PUSH3 0x139 JUMPI PUSH3 0x138 PUSH3 0xA3F JUMP JUMPDEST JUMPDEST SWAP1 DUP2 PUSH1 0xC6 DUP2 GT ISZERO PUSH3 0x150 JUMPI PUSH3 0x14F PUSH3 0xA3F JUMP JUMPDEST JUMPDEST DUP2 MSTORE POP POP PUSH0 PUSH1 0x1 PUSH8 0xFFFFFFFFFFFFFFFF DUP2 GT ISZERO PUSH3 0x173 JUMPI PUSH3 0x172 PUSH3 0x9E5 JUMP JUMPDEST JUMPDEST PUSH1 0x40 MLOAD SWAP1 DUP1 DUP3 MSTORE DUP1 PUSH1 0x20 MUL PUSH1 0x20 ADD DUP3 ADD PUSH1 0x40 MSTORE DUP1 ISZERO PUSH3 0x1A2 JUMPI DUP2 PUSH1 0x20 ADD PUSH1 0x20 DUP3 MUL DUP1 CALLDATASIZE DUP4 CALLDATACOPY DUP1 DUP3 ADD SWAP2 POP POP SWAP1 POP JUMPDEST POP SWAP1 POP PUSH1 0x40 DUP2 PUSH0 DUP2 MLOAD DUP2 LT PUSH3 0x1BD JUMPI PUSH3 0x1BC PUSH3 0xA12 JUMP JUMPDEST JUMPDEST PUSH1 0x20 MUL PUSH1 0x20 ADD ADD SWAP1 PUSH1 0xC6 DUP2 GT ISZERO PUSH3 0x1DA JUMPI PUSH3 0x1D9 PUSH3 0xA3F JUMP JUMPDEST JUMPDEST SWAP1 DUP2 PUSH1 0xC6 DUP2 GT ISZERO PUSH3 0x1F1 JUMPI PUSH3 0x1F0 PUSH3 0xA3F JUMP JUMPDEST JUMPDEST DUP2 MSTORE POP POP PUSH0 PUSH1 0x4 PUSH8 0xFFFFFFFFFFFFFFFF DUP2 GT ISZERO PUSH3 0x214 JUMPI PUSH3 0x213 PUSH3 0x9E5 JUMP JUMPDEST JUMPDEST PUSH1 0x40 MLOAD SWAP1 DUP1 DUP3 MSTORE DUP1 PUSH1 0x20 MUL PUSH1 0x20 ADD DUP3 ADD PUSH1 0x40 MSTORE DUP1 ISZERO PUSH3 0x243 JUMPI DUP2 PUSH1 0x20 ADD PUSH1 0x20 DUP3 MUL DUP1 CALLDATASIZE DUP4 CALLDATACOPY DUP1 DUP3 ADD SWAP2 POP POP SWAP1 POP JUMPDEST POP SWAP1 POP PUSH1 0x40 DUP2 PUSH0 DUP2 MLOAD DUP2 LT PUSH3 0x25E JUMPI PUSH3 0x25D PUSH3 0xA12 JUMP JUMPDEST JUMPDEST PUSH1 0x20 MUL PUSH1 0x20 ADD ADD SWAP1 PUSH1 0xC6 DUP2 GT ISZERO PUSH3 0x27B JUMPI PUSH3 0x27A PUSH3 0xA3F JUMP JUMPDEST JUMPDEST SWAP1 DUP2 PUSH1 0xC6 DUP2 GT ISZERO PUSH3 0x292 JUMPI PUSH3 0x291 PUSH3 0xA3F JUMP JUMPDEST JUMPDEST DUP2 MSTORE POP POP PUSH1 0x40 DUP2 PUSH1 0x1 DUP2 MLOAD DUP2 LT PUSH3 0x2AF JUMPI PUSH3 0x2AE PUSH3 0xA12 JUMP JUMPDEST JUMPDEST PUSH1 0x20 MUL PUSH1 0x20 ADD ADD SWAP1 PUSH1 0xC6 DUP2 GT ISZERO PUSH3 0x2CC JUMPI PUSH3 0x2CB PUSH3 0xA3F JUMP JUMPDEST JUMPDEST SWAP1 DUP2 PUSH1 0xC6 DUP2 GT ISZERO PUSH3 0x2E3 JUMPI PUSH3 0x2E2 PUSH3 0xA3F JUMP JUMPDEST JUMPDEST DUP2 MSTORE POP POP PUSH1 0x63 DUP2 PUSH1 0x2 DUP2 MLOAD DUP2 LT PUSH3 0x300 JUMPI PUSH3 0x2FF PUSH3 0xA12 JUMP JUMPDEST JUMPDEST PUSH1 0x20 MUL PUSH1 0x20 ADD ADD SWAP1 PUSH1 0xC6 DUP2 GT ISZERO PUSH3 0x31D JUMPI PUSH3 0x31C PUSH3 0xA3F JUMP JUMPDEST JUMPDEST SWAP1 DUP2 PUSH1 0xC6 DUP2 GT ISZERO PUSH3 0x334 JUMPI PUSH3 0x333 PUSH3 0xA3F JUMP JUMPDEST JUMPDEST DUP2 MSTORE POP POP PUSH1 0x41 DUP2 PUSH1 0x3 DUP2 MLOAD DUP2 LT PUSH3 0x351 JUMPI PUSH3 0x350 PUSH3 0xA12 JUMP JUMPDEST JUMPDEST PUSH1 0x20 MUL PUSH1 0x20 ADD ADD SWAP1 PUSH1 0xC6 DUP2 GT ISZERO PUSH3 0x36E JUMPI PUSH3 0x36D PUSH3 0xA3F JUMP JUMPDEST JUMPDEST SWAP1 DUP2 PUSH1 0xC6 DUP2 GT ISZERO PUSH3 0x385 JUMPI PUSH3 0x384 PUSH3 0xA3F JUMP JUMPDEST JUMPDEST DUP2 MSTORE POP POP PUSH0 PUSH1 0x3 PUSH8 0xFFFFFFFFFFFFFFFF DUP2 GT ISZERO PUSH3 0x3A8 JUMPI PUSH3 0x3A7 PUSH3 0x9E5 JUMP JUMPDEST JUMPDEST PUSH1 0x40 MLOAD SWAP1 DUP1 DUP3 MSTORE DUP1 PUSH1 0x20 MUL PUSH1 0x20 ADD DUP3 ADD PUSH1 0x40 MSTORE DUP1 ISZERO PUSH3 0x3D7 JUMPI DUP2 PUSH1 0x20 ADD PUSH1 0x20 DUP3 MUL DUP1 CALLDATASIZE DUP4 CALLDATACOPY DUP1 DUP3 ADD SWAP2 POP POP SWAP1 POP JUMPDEST POP SWAP1 POP PUSH1 0x40 DUP2 PUSH0 DUP2 MLOAD DUP2 LT PUSH3 0x3F2 JUMPI PUSH3 0x3F1 PUSH3 0xA12 JUMP JUMPDEST JUMPDEST PUSH1 0x20 MUL PUSH1 0x20 ADD ADD SWAP1 PUSH1 0xC6 DUP2 GT ISZERO PUSH3 0x40F JUMPI PUSH3 0x40E PUSH3 0xA3F JUMP JUMPDEST JUMPDEST SWAP1 DUP2 PUSH1 0xC6 DUP2 GT ISZERO PUSH3 0x426 JUMPI PUSH3 0x425 PUSH3 0xA3F JUMP JUMPDEST JUMPDEST DUP2 MSTORE POP POP PUSH1 0x40 DUP2 PUSH1 0x1 DUP2 MLOAD DUP2 LT PUSH3 0x443 JUMPI PUSH3 0x442 PUSH3 0xA12 JUMP JUMPDEST JUMPDEST PUSH1 0x20 MUL PUSH1 0x20 ADD ADD SWAP1 PUSH1 0xC6 DUP2 GT ISZERO PUSH3 0x460 JUMPI PUSH3 0x45F PUSH3 0xA3F JUMP JUMPDEST JUMPDEST SWAP1 DUP2 PUSH1 0xC6 DUP2 GT ISZERO PUSH3 0x477 JUMPI PUSH3 0x476 PUSH3 0xA3F JUMP JUMPDEST JUMPDEST DUP2 MSTORE POP POP PUSH1 0x40 DUP2 PUSH1 0x2 DUP2 MLOAD DUP2 LT PUSH3 0x494 JUMPI PUSH3 0x493 PUSH3 0xA12 JUMP JUMPDEST JUMPDEST PUSH1 0x20 MUL PUSH1 0x20 ADD ADD SWAP1 PUSH1 0xC6 DUP2 GT ISZERO PUSH3 0x4B1 JUMPI PUSH3 0x4B0 PUSH3 0xA3F JUMP JUMPDEST JUMPDEST SWAP1 DUP2 PUSH1 0xC6 DUP2 GT ISZERO PUSH3 0x4C8 JUMPI PUSH3 0x4C7 PUSH3 0xA3F JUMP JUMPDEST JUMPDEST DUP2 MSTORE POP POP PUSH0 PUSH1 0x1 PUSH8 0xFFFFFFFFFFFFFFFF DUP2 GT ISZERO PUSH3 0x4EB JUMPI PUSH3 0x4EA PUSH3 0x9E5 JUMP JUMPDEST JUMPDEST PUSH1 0x40 MLOAD SWAP1 DUP1 DUP3 MSTORE DUP1 PUSH1 0x20 MUL PUSH1 0x20 ADD DUP3 ADD PUSH1 0x40 MSTORE DUP1 ISZERO PUSH3 0x51A JUMPI DUP2 PUSH1 0x20 ADD PUSH1 0x20 DUP3 MUL DUP1 CALLDATASIZE DUP4 CALLDATACOPY DUP1 DUP3 ADD SWAP2 POP POP SWAP1 POP JUMPDEST POP SWAP1 POP PUSH1 0xC6 DUP2 PUSH0 DUP2 MLOAD DUP2 LT PUSH3 0x535 JUMPI PUSH3 0x534 PUSH3 0xA12 JUMP JUMPDEST JUMPDEST PUSH1 0x20 MUL PUSH1 0x20 ADD ADD SWAP1 PUSH1 0xC6 DUP2 GT ISZERO PUSH3 0x552 JUMPI PUSH3 0x551 PUSH3 0xA3F JUMP JUMPDEST JUMPDEST SWAP1 DUP2 PUSH1 0xC6 DUP2 GT ISZERO PUSH3 0x569 JUMPI PUSH3 0x568 PUSH3 0xA3F JUMP JUMPDEST JUMPDEST DUP2 MSTORE POP POP PUSH0 PUSH1 0x3 PUSH8 0xFFFFFFFFFFFFFFFF DUP2 GT ISZERO PUSH3 0x58C JUMPI PUSH3 0x58B PUSH3 0x9E5 JUMP JUMPDEST JUMPDEST PUSH1 0x40 MLOAD SWAP1 DUP1 DUP3 MSTORE DUP1 PUSH1 0x20 MUL PUSH1 0x20 ADD DUP3 ADD PUSH1 0x40 MSTORE DUP1 ISZERO PUSH3 0x5BB JUMPI DUP2 PUSH1 0x20 ADD PUSH1 0x20 DUP3 MUL DUP1 CALLDATASIZE DUP4 CALLDATACOPY DUP1 DUP3 ADD SWAP2 POP POP SWAP1 POP JUMPDEST POP SWAP1 POP PUSH1 0x41 DUP2 PUSH0 DUP2 MLOAD DUP2 LT PUSH3 0x5D6 JUMPI PUSH3 0x5D5 PUSH3 0xA12 JUMP JUMPDEST JUMPDEST PUSH1 0x20 MUL PUSH1 0x20 ADD ADD SWAP1 PUSH1 0xC6 DUP2 GT ISZERO PUSH3 0x5F3 JUMPI PUSH3 0x5F2 PUSH3 0xA3F JUMP JUMPDEST JUMPDEST SWAP1 DUP2 PUSH1 0xC6 DUP2 GT ISZERO PUSH3 0x60A JUMPI PUSH3 0x609 PUSH3 0xA3F JUMP JUMPDEST JUMPDEST DUP2 MSTORE POP POP PUSH1 0x40 DUP2 PUSH1 0x1 DUP2 MLOAD DUP2 LT PUSH3 0x627 JUMPI PUSH3 0x626 PUSH3 0xA12 JUMP JUMPDEST JUMPDEST PUSH1 0x20 MUL PUSH1 0x20 ADD ADD SWAP1 PUSH1 0xC6 DUP2 GT ISZERO PUSH3 0x644 JUMPI PUSH3 0x643 PUSH3 0xA3F JUMP JUMPDEST JUMPDEST SWAP1 DUP2 PUSH1 0xC6 DUP2 GT ISZERO PUSH3 0x65B JUMPI PUSH3 0x65A PUSH3 0xA3F JUMP JUMPDEST JUMPDEST DUP2 MSTORE POP POP PUSH1 0x40 DUP2 PUSH1 0x2 DUP2 MLOAD DUP2 LT PUSH3 0x678 JUMPI PUSH3 0x677 PUSH3 0xA12 JUMP JUMPDEST JUMPDEST PUSH1 0x20 MUL PUSH1 0x20 ADD ADD SWAP1 PUSH1 0xC6 DUP2 GT ISZERO PUSH3 0x695 JUMPI PUSH3 0x694 PUSH3 0xA3F JUMP JUMPDEST JUMPDEST SWAP1 DUP2 PUSH1 0xC6 DUP2 GT ISZERO PUSH3 0x6AC JUMPI PUSH3 0x6AB PUSH3 0xA3F JUMP JUMPDEST JUMPDEST DUP2 MSTORE POP POP PUSH3 0x746 PUSH1 0x40 MLOAD DUP1 PUSH1 0x40 ADD PUSH1 0x40 MSTORE DUP1 PUSH1 0xB DUP2 MSTORE PUSH1 0x20 ADD PUSH32 0x706F7374436F6D6D656E74000000000000000000000000000000000000000000 DUP2 MSTORE POP PUSH1 0x1 DUP9 PUSH0 PUSH8 0xFFFFFFFFFFFFFFFF DUP2 GT ISZERO PUSH3 0x70A JUMPI PUSH3 0x709 PUSH3 0x9E5 JUMP JUMPDEST JUMPDEST PUSH1 0x40 MLOAD SWAP1 DUP1 DUP3 MSTORE DUP1 PUSH1 0x20 MUL PUSH1 0x20 ADD DUP3 ADD PUSH1 0x40 MSTORE DUP1 ISZERO PUSH3 0x739 JUMPI DUP2 PUSH1 0x20 ADD PUSH1 0x20 DUP3 MUL DUP1 CALLDATASIZE DUP4 CALLDATACOPY DUP1 DUP3 ADD SWAP2 POP POP SWAP1 POP JUMPDEST POP PUSH3 0x82D PUSH1 0x20 SHL PUSH1 0x20 SHR JUMP JUMPDEST PUSH3 0x78F PUSH1 0x40 MLOAD DUP1 PUSH1 0x40 ADD PUSH1 0x40 MSTORE DUP1 PUSH1 0xA DUP2 MSTORE PUSH1 0x20 ADD PUSH32 0x676574436F6D6D656E7400000000000000000000000000000000000000000000 DUP2 MSTORE POP PUSH0 DUP8 DUP8 PUSH3 0x82D PUSH1 0x20 SHL PUSH1 0x20 SHR JUMP JUMPDEST PUSH3 0x7D8 PUSH1 0x40 MLOAD DUP1 PUSH1 0x40 ADD PUSH1 0x40 MSTORE DUP1 PUSH1 0xB DUP2 MSTORE PUSH1 0x20 ADD PUSH32 0x676574436F6D6D656E7473000000000000000000000000000000000000000000 DUP2 MSTORE POP PUSH0 DUP6 DUP6 PUSH3 0x82D PUSH1 0x20 SHL PUSH1 0x20 SHR JUMP JUMPDEST PUSH3 0x821 PUSH1 0x40 MLOAD DUP1 PUSH1 0x40 ADD PUSH1 0x40 MSTORE DUP1 PUSH1 0x14 DUP2 MSTORE PUSH1 0x20 ADD PUSH32 0x676574436F6D6D656E7473427941646472657373000000000000000000000000 DUP2 MSTORE POP PUSH0 DUP4 DUP6 PUSH3 0x82D PUSH1 0x20 SHL PUSH1 0x20 SHR JUMP JUMPDEST POP POP POP POP POP POP PUSH3 0xE09 JUMP JUMPDEST PUSH0 DUP1 DUP5 PUSH1 0x3 DUP2 GT ISZERO PUSH3 0x845 JUMPI PUSH3 0x844 PUSH3 0xA3F JUMP JUMPDEST JUMPDEST PUSH1 0x3 DUP2 GT ISZERO PUSH3 0x85A JUMPI PUSH3 0x859 PUSH3 0xA3F JUMP JUMPDEST JUMPDEST DUP2 MSTORE PUSH1 0x20 ADD SWAP1 DUP2 MSTORE PUSH1 0x20 ADD PUSH0 KECCAK256 DUP5 SWAP1 DUP1 PUSH1 0x1 DUP2 SLOAD ADD DUP1 DUP3 SSTORE DUP1 SWAP2 POP POP PUSH1 0x1 SWAP1 SUB SWAP1 PUSH0 MSTORE PUSH1 0x20 PUSH0 KECCAK256 ADD PUSH0 SWAP1 SWAP2 SWAP1 SWAP2 SWAP1 SWAP2 POP SWAP1 DUP2 PUSH3 0x898 SWAP2 SWAP1 PUSH3 0xCA3 JUMP JUMPDEST POP DUP2 PUSH1 0x1 DUP6 PUSH1 0x40 MLOAD PUSH3 0x8AC SWAP2 SWAP1 PUSH3 0xDF1 JUMP JUMPDEST SWAP1 DUP2 MSTORE PUSH1 0x20 ADD PUSH1 0x40 MLOAD DUP1 SWAP2 SUB SWAP1 KECCAK256 SWAP1 DUP1 MLOAD SWAP1 PUSH1 0x20 ADD SWAP1 PUSH3 0x8CF SWAP3 SWAP2 SWAP1 PUSH3 0x90D JUMP JUMPDEST POP DUP1 PUSH1 0x2 DUP6 PUSH1 0x40 MLOAD PUSH3 0x8E3 SWAP2 SWAP1 PUSH3 0xDF1 JUMP JUMPDEST SWAP1 DUP2 MSTORE PUSH1 0x20 ADD PUSH1 0x40 MLOAD DUP1 SWAP2 SUB SWAP1 KECCAK256 SWAP1 DUP1 MLOAD SWAP1 PUSH1 0x20 ADD SWAP1 PUSH3 0x906 SWAP3 SWAP2 SWAP1 PUSH3 0x90D JUMP JUMPDEST POP POP POP POP POP JUMP JUMPDEST DUP3 DUP1 SLOAD DUP3 DUP3 SSTORE SWAP1 PUSH0 MSTORE PUSH1 0x20 PUSH0 KECCAK256 SWAP1 PUSH1 0x1F ADD PUSH1 0x20 SWAP1 DIV DUP2 ADD SWAP3 DUP3 ISZERO PUSH3 0x9B5 JUMPI SWAP2 PUSH1 0x20 MUL DUP3 ADD PUSH0 JUMPDEST DUP4 DUP3 GT ISZERO PUSH3 0x985 JUMPI DUP4 MLOAD DUP4 DUP3 PUSH2 0x100 EXP DUP2 SLOAD DUP2 PUSH1 0xFF MUL NOT AND SWAP1 DUP4 PUSH1 0xC6 DUP2 GT ISZERO PUSH3 0x964 JUMPI PUSH3 0x963 PUSH3 0xA3F JUMP JUMPDEST JUMPDEST MUL OR SWAP1 SSTORE POP SWAP3 PUSH1 0x20 ADD SWAP3 PUSH1 0x1 ADD PUSH1 0x20 DUP2 PUSH0 ADD DIV SWAP3 DUP4 ADD SWAP3 PUSH1 0x1 SUB MUL PUSH3 0x934 JUMP JUMPDEST DUP1 ISZERO PUSH3 0x9B3 JUMPI DUP3 DUP2 PUSH2 0x100 EXP DUP2 SLOAD SWAP1 PUSH1 0xFF MUL NOT AND SWAP1 SSTORE PUSH1 0x1 ADD PUSH1 0x20 DUP2 PUSH0 ADD DIV SWAP3 DUP4 ADD SWAP3 PUSH1 0x1 SUB MUL PUSH3 0x985 JUMP JUMPDEST POP JUMPDEST POP SWAP1 POP PUSH3 0x9C4 SWAP2 SWAP1 PUSH3 0x9C8 JUMP JUMPDEST POP SWAP1 JUMP JUMPDEST JUMPDEST DUP1 DUP3 GT ISZERO PUSH3 0x9E1 JUMPI PUSH0 DUP2 PUSH0 SWAP1 SSTORE POP PUSH1 0x1 ADD PUSH3 0x9C9 JUMP JUMPDEST POP SWAP1 JUMP JUMPDEST PUSH32 0x4E487B7100000000000000000000000000000000000000000000000000000000 PUSH0 MSTORE PUSH1 0x41 PUSH1 0x4 MSTORE PUSH1 0x24 PUSH0 REVERT JUMPDEST PUSH32 0x4E487B7100000000000000000000000000000000000000000000000000000000 PUSH0 MSTORE PUSH1 0x32 PUSH1 0x4 MSTORE PUSH1 0x24 PUSH0 REVERT JUMPDEST PUSH32 0x4E487B7100000000000000000000000000000000000000000000000000000000 PUSH0 MSTORE PUSH1 0x21 PUSH1 0x4 MSTORE PUSH1 0x24 PUSH0 REVERT JUMPDEST PUSH0 DUP2 MLOAD SWAP1 POP SWAP2 SWAP1 POP JUMP JUMPDEST PUSH32 0x4E487B7100000000000000000000000000000000000000000000000000000000 PUSH0 MSTORE PUSH1 0x22 PUSH1 0x4 MSTORE PUSH1 0x24 PUSH0 REVERT JUMPDEST PUSH0 PUSH1 0x2 DUP3 DIV SWAP1 POP PUSH1 0x1 DUP3 AND DUP1 PUSH3 0xABB JUMPI PUSH1 0x7F DUP3 AND SWAP2 POP JUMPDEST PUSH1 0x20 DUP3 LT DUP2 SUB PUSH3 0xAD1 JUMPI PUSH3 0xAD0 PUSH3 0xA76 JUMP JUMPDEST JUMPDEST POP SWAP2 SWAP1 POP JUMP JUMPDEST PUSH0 DUP2 SWAP1 POP DUP2 PUSH0 MSTORE PUSH1 0x20 PUSH0 KECCAK256 SWAP1 POP SWAP2 SWAP1 POP JUMP JUMPDEST PUSH0 PUSH1 0x20 PUSH1 0x1F DUP4 ADD DIV SWAP1 POP SWAP2 SWAP1 POP JUMP JUMPDEST PUSH0 DUP3 DUP3 SHL SWAP1 POP SWAP3 SWAP2 POP POP JUMP JUMPDEST PUSH0 PUSH1 0x8 DUP4 MUL PUSH3 0xB35 PUSH32 0xFFFFFFFFFFFFFFFFFFFFFFFFFFFFFFFFFFFFFFFFFFFFFFFFFFFFFFFFFFFFFFFF DUP3 PUSH3 0xAF8 JUMP JUMPDEST PUSH3 0xB41 DUP7 DUP4 PUSH3 0xAF8 JUMP JUMPDEST SWAP6 POP DUP1 NOT DUP5 AND SWAP4 POP DUP1 DUP7 AND DUP5 OR SWAP3 POP POP POP SWAP4 SWAP3 POP POP POP JUMP JUMPDEST PUSH0 DUP2 SWAP1 POP SWAP2 SWAP1 POP JUMP JUMPDEST PUSH0 DUP2 SWAP1 POP SWAP2 SWAP1 POP JUMP JUMPDEST PUSH0 PUSH3 0xB8B PUSH3 0xB85 PUSH3 0xB7F DUP5 PUSH3 0xB59 JUMP JUMPDEST PUSH3 0xB62 JUMP JUMPDEST PUSH3 0xB59 JUMP JUMPDEST SWAP1 POP SWAP2 SWAP1 POP JUMP JUMPDEST PUSH0 DUP2 SWAP1 POP SWAP2 SWAP1 POP JUMP JUMPDEST PUSH3 0xBA6 DUP4 PUSH3 0xB6B JUMP JUMPDEST PUSH3 0xBBE PUSH3 0xBB5 DUP3 PUSH3 0xB92 JUMP JUMPDEST DUP5 DUP5 SLOAD PUSH3 0xB04 JUMP JUMPDEST DUP3 SSTORE POP POP POP POP JUMP JUMPDEST PUSH0 SWAP1 JUMP JUMPDEST PUSH3 0xBD4 PUSH3 0xBC6 JUMP JUMPDEST PUSH3 0xBE1 DUP2 DUP5 DUP5 PUSH3 0xB9B JUMP JUMPDEST POP POP POP JUMP JUMPDEST JUMPDEST DUP2 DUP2 LT ISZERO PUSH3 0xC08 JUMPI PUSH3 0xBFC PUSH0 DUP3 PUSH3 0xBCA JUMP JUMPDEST PUSH1 0x1 DUP2 ADD SWAP1 POP PUSH3 0xBE7 JUMP JUMPDEST POP POP JUMP JUMPDEST PUSH1 0x1F DUP3 GT ISZERO PUSH3 0xC57 JUMPI PUSH3 0xC21 DUP2 PUSH3 0xAD7 JUMP JUMPDEST PUSH3 0xC2C DUP5 PUSH3 0xAE9 JUMP JUMPDEST DUP2 ADD PUSH1 0x20 DUP6 LT ISZERO PUSH3 0xC3C JUMPI DUP2 SWAP1 POP JUMPDEST PUSH3 0xC54 PUSH3 0xC4B DUP6 PUSH3 0xAE9 JUMP JUMPDEST DUP4 ADD DUP3 PUSH3 0xBE6 JUMP JUMPDEST POP POP JUMPDEST POP POP POP JUMP JUMPDEST PUSH0 DUP3 DUP3 SHR SWAP1 POP SWAP3 SWAP2 POP POP JUMP JUMPDEST PUSH0 PUSH3 0xC79 PUSH0 NOT DUP5 PUSH1 0x8 MUL PUSH3 0xC5C JUMP JUMPDEST NOT DUP1 DUP4 AND SWAP2 POP POP SWAP3 SWAP2 POP POP JUMP JUMPDEST PUSH0 PUSH3 0xC93 DUP4 DUP4 PUSH3 0xC68 JUMP JUMPDEST SWAP2 POP DUP3 PUSH1 0x2 MUL DUP3 OR SWAP1 POP SWAP3 SWAP2 POP POP JUMP JUMPDEST PUSH3 0xCAE DUP3 PUSH3 0xA6C JUMP JUMPDEST PUSH8 0xFFFFFFFFFFFFFFFF DUP2 GT ISZERO PUSH3 0xCCA JUMPI PUSH3 0xCC9 PUSH3 0x9E5 JUMP JUMPDEST JUMPDEST PUSH3 0xCD6 DUP3 SLOAD PUSH3 0xAA3 JUMP JUMPDEST PUSH3 0xCE3 DUP3 DUP3 DUP6 PUSH3 0xC0C JUMP JUMPDEST PUSH0 PUSH1 0x20 SWAP1 POP PUSH1 0x1F DUP4 GT PUSH1 0x1 DUP2 EQ PUSH3 0xD19 JUMPI PUSH0 DUP5 ISZERO PUSH3 0xD04 JUMPI DUP3 DUP8 ADD MLOAD SWAP1 POP JUMPDEST PUSH3 0xD10 DUP6 DUP3 PUSH3 0xC86 JUMP JUMPDEST DUP7 SSTORE POP PUSH3 0xD7F JUMP JUMPDEST PUSH1 0x1F NOT DUP5 AND PUSH3 0xD29 DUP7 PUSH3 0xAD7 JUMP JUMPDEST PUSH0 JUMPDEST DUP3 DUP2 LT ISZERO PUSH3 0xD52 JUMPI DUP5 DUP10 ADD MLOAD DUP3 SSTORE PUSH1 0x1 DUP3 ADD SWAP2 POP PUSH1 0x20 DUP6 ADD SWAP5 POP PUSH1 0x20 DUP2 ADD SWAP1 POP PUSH3 0xD2B JUMP JUMPDEST DUP7 DUP4 LT ISZERO PUSH3 0xD72 JUMPI DUP5 DUP10 ADD MLOAD PUSH3 0xD6E PUSH1 0x1F DUP10 AND DUP3 PUSH3 0xC68 JUMP JUMPDEST DUP4 SSTORE POP JUMPDEST PUSH1 0x1 PUSH1 0x2 DUP9 MUL ADD DUP9 SSTORE POP POP POP JUMPDEST POP POP POP POP POP POP JUMP JUMPDEST PUSH0 DUP2 SWAP1 POP SWAP3 SWAP2 POP POP JUMP JUMPDEST PUSH0 JUMPDEST DUP4 DUP2 LT ISZERO PUSH3 0xDB0 JUMPI DUP1 DUP3 ADD MLOAD DUP2 DUP5 ADD MSTORE PUSH1 0x20 DUP2 ADD SWAP1 POP PUSH3 0xD93 JUMP JUMPDEST PUSH0 DUP5 DUP5 ADD MSTORE POP POP POP POP JUMP JUMPDEST PUSH0 PUSH3 0xDC7 DUP3 PUSH3 0xA6C JUMP JUMPDEST PUSH3 0xDD3 DUP2 DUP6 PUSH3 0xD87 JUMP JUMPDEST SWAP4 POP PUSH3 0xDE5 DUP2 DUP6 PUSH1 0x20 DUP7 ADD PUSH3 0xD91 JUMP JUMPDEST DUP1 DUP5 ADD SWAP2 POP POP SWAP3 SWAP2 POP POP JUMP JUMPDEST PUSH0 PUSH3 0xDFE DUP3 DUP5 PUSH3 0xDBB JUMP JUMPDEST SWAP2 POP DUP2 SWAP1 POP SWAP3 SWAP2 POP POP JUMP JUMPDEST PUSH2 0x2CC5 DUP1 PUSH3 0xE17 PUSH0 CODECOPY PUSH0 RETURN INVALID PUSH1 0x80 PUSH1 0x40 MSTORE PUSH1 0x4 CALLDATASIZE LT PUSH2 0x90 JUMPI PUSH0 CALLDATALOAD PUSH1 0xE0 SHR DUP1 PUSH4 0x6818BA1D GT PUSH2 0x58 JUMPI DUP1 PUSH4 0x6818BA1D EQ PUSH2 0x19D JUMPI DUP1 PUSH4 0xAFF62745 EQ PUSH2 0x1D9 JUMPI DUP1 PUSH4 0xB6AE0425 EQ PUSH2 0x215 JUMPI DUP1 PUSH4 0xE9536472 EQ PUSH2 0x245 JUMPI DUP1 PUSH4 0xF4856CCB EQ PUSH2 0x275 JUMPI PUSH2 0x90 JUMP JUMPDEST DUP1 PUSH4 0x1069143A EQ PUSH2 0x94 JUMPI DUP1 PUSH4 0x3E413065 EQ PUSH2 0xBE JUMPI DUP1 PUSH4 0x3EAE02B3 EQ PUSH2 0xE8 JUMPI DUP1 PUSH4 0x44237454 EQ PUSH2 0x124 JUMPI DUP1 PUSH4 0x458AD6D4 EQ PUSH2 0x160 JUMPI JUMPDEST PUSH0 DUP1 REVERT JUMPDEST CALLVALUE DUP1 ISZERO PUSH2 0x9F JUMPI PUSH0 DUP1 REVERT JUMPDEST POP PUSH2 0xA8 PUSH2 0x2B1 JUMP JUMPDEST PUSH1 0x40 MLOAD PUSH2 0xB5 SWAP2 SWAP1 PUSH2 0x1A6F JUMP JUMPDEST PUSH1 0x40 MLOAD DUP1 SWAP2 SUB SWAP1 RETURN JUMPDEST CALLVALUE DUP1 ISZERO PUSH2 0xC9 JUMPI PUSH0 DUP1 REVERT JUMPDEST POP PUSH2 0xD2 PUSH2 0x425 JUMP JUMPDEST PUSH1 0x40 MLOAD PUSH2 0xDF SWAP2 SWAP1 PUSH2 0x1AA7 JUMP JUMPDEST PUSH1 0x40 MLOAD DUP1 SWAP2 SUB SWAP1 RETURN JUMPDEST CALLVALUE DUP1 ISZERO PUSH2 0xF3 JUMPI PUSH0 DUP1 REVERT JUMPDEST POP PUSH2 0x10E PUSH1 0x4 DUP1 CALLDATASIZE SUB DUP2 ADD SWAP1 PUSH2 0x109 SWAP2 SWAP1 PUSH2 0x1C91 JUMP JUMPDEST PUSH2 0x42B JUMP JUMPDEST PUSH1 0x40 MLOAD PUSH2 0x11B SWAP2 SWAP1 PUSH2 0x1DBA JUMP JUMPDEST PUSH1 0x40 MLOAD DUP1 SWAP2 SUB SWAP1 RETURN JUMPDEST CALLVALUE DUP1 ISZERO PUSH2 0x12F JUMPI PUSH0 DUP1 REVERT JUMPDEST POP PUSH2 0x14A PUSH1 0x4 DUP1 CALLDATASIZE SUB DUP2 ADD SWAP1 PUSH2 0x145 SWAP2 SWAP1 PUSH2 0x1DDA JUMP JUMPDEST PUSH2 0x4AA JUMP JUMPDEST PUSH1 0x40 MLOAD PUSH2 0x157 SWAP2 SWAP1 PUSH2 0x1F2D JUMP JUMPDEST PUSH1 0x40 MLOAD DUP1 SWAP2 SUB SWAP1 RETURN JUMPDEST CALLVALUE DUP1 ISZERO PUSH2 0x16B JUMPI PUSH0 DUP1 REVERT JUMPDEST POP PUSH2 0x186 PUSH1 0x4 DUP1 CALLDATASIZE SUB DUP2 ADD SWAP1 PUSH2 0x181 SWAP2 SWAP1 PUSH2 0x1F4D JUMP JUMPDEST PUSH2 0x863 JUMP JUMPDEST PUSH1 0x40 MLOAD PUSH2 0x194 SWAP3 SWAP2 SWAP1 PUSH2 0x2072 JUMP JUMPDEST PUSH1 0x40 MLOAD DUP1 SWAP2 SUB SWAP1 RETURN JUMPDEST CALLVALUE DUP1 ISZERO PUSH2 0x1A8 JUMPI PUSH0 DUP1 REVERT JUMPDEST POP PUSH2 0x1C3 PUSH1 0x4 DUP1 CALLDATASIZE SUB DUP2 ADD SWAP1 PUSH2 0x1BE SWAP2 SWAP1 PUSH2 0x20A7 JUMP JUMPDEST PUSH2 0x9B1 JUMP JUMPDEST PUSH1 0x40 MLOAD PUSH2 0x1D0 SWAP2 SWAP1 PUSH2 0x1F2D JUMP JUMPDEST PUSH1 0x40 MLOAD DUP1 SWAP2 SUB SWAP1 RETURN JUMPDEST CALLVALUE DUP1 ISZERO PUSH2 0x1E4 JUMPI PUSH0 DUP1 REVERT JUMPDEST POP PUSH2 0x1FF PUSH1 0x4 DUP1 CALLDATASIZE SUB DUP2 ADD SWAP1 PUSH2 0x1FA SWAP2 SWAP1 PUSH2 0x2195 JUMP JUMPDEST PUSH2 0xCBA JUMP JUMPDEST PUSH1 0x40 MLOAD PUSH2 0x20C SWAP2 SWAP1 PUSH2 0x225D JUMP JUMPDEST PUSH1 0x40 MLOAD DUP1 SWAP2 SUB SWAP1 RETURN JUMPDEST PUSH2 0x22F PUSH1 0x4 DUP1 CALLDATASIZE SUB DUP2 ADD SWAP1 PUSH2 0x22A SWAP2 SWAP1 PUSH2 0x2195 JUMP JUMPDEST PUSH2 0xFC7 JUMP JUMPDEST PUSH1 0x40 MLOAD PUSH2 0x23C SWAP2 SWAP1 PUSH2 0x225D JUMP JUMPDEST PUSH1 0x40 MLOAD DUP1 SWAP2 SUB SWAP1 RETURN JUMPDEST PUSH2 0x25F PUSH1 0x4 DUP1 CALLDATASIZE SUB DUP2 ADD SWAP1 PUSH2 0x25A SWAP2 SWAP1 PUSH2 0x2195 JUMP JUMPDEST PUSH2 0x12AA JUMP JUMPDEST PUSH1 0x40 MLOAD PUSH2 0x26C SWAP2 SWAP1 PUSH2 0x225D JUMP JUMPDEST PUSH1 0x40 MLOAD DUP1 SWAP2 SUB SWAP1 RETURN JUMPDEST CALLVALUE DUP1 ISZERO PUSH2 0x280 JUMPI PUSH0 DUP1 REVERT JUMPDEST POP PUSH2 0x29B PUSH1 0x4 DUP1 CALLDATASIZE SUB DUP2 ADD SWAP1 PUSH2 0x296 SWAP2 SWAP1 PUSH2 0x22A0 JUMP JUMPDEST PUSH2 0x12D6 JUMP JUMPDEST PUSH1 0x40 MLOAD PUSH2 0x2A8 SWAP2 SWAP1 PUSH2 0x1F2D JUMP JUMPDEST PUSH1 0x40 MLOAD DUP1 SWAP2 SUB SWAP1 RETURN JUMPDEST PUSH1 0x60 PUSH0 PUSH1 0x4 PUSH8 0xFFFFFFFFFFFFFFFF DUP2 GT ISZERO PUSH2 0x2CF JUMPI PUSH2 0x2CE PUSH2 0x1B13 JUMP JUMPDEST JUMPDEST PUSH1 0x40 MLOAD SWAP1 DUP1 DUP3 MSTORE DUP1 PUSH1 0x20 MUL PUSH1 0x20 ADD DUP3 ADD PUSH1 0x40 MSTORE DUP1 ISZERO PUSH2 0x2FD JUMPI DUP2 PUSH1 0x20 ADD PUSH1 0x20 DUP3 MUL DUP1 CALLDATASIZE DUP4 CALLDATACOPY DUP1 DUP3 ADD SWAP2 POP POP SWAP1 POP JUMPDEST POP SWAP1 POP PUSH0 DUP2 PUSH0 DUP2 MLOAD DUP2 LT PUSH2 0x314 JUMPI PUSH2 0x313 PUSH2 0x22CB JUMP JUMPDEST JUMPDEST PUSH1 0x20 MUL PUSH1 0x20 ADD ADD SWAP1 PUSH1 0x3 DUP2 GT ISZERO PUSH2 0x32E JUMPI PUSH2 0x32D PUSH2 0x197D JUMP JUMPDEST JUMPDEST SWAP1 DUP2 PUSH1 0x3 DUP2 GT ISZERO PUSH2 0x342 JUMPI PUSH2 0x341 PUSH2 0x197D JUMP JUMPDEST JUMPDEST DUP2 MSTORE POP POP PUSH1 0x1 DUP2 PUSH1 0x1 DUP2 MLOAD DUP2 LT PUSH2 0x35C JUMPI PUSH2 0x35B PUSH2 0x22CB JUMP JUMPDEST JUMPDEST PUSH1 0x20 MUL PUSH1 0x20 ADD ADD SWAP1 PUSH1 0x3 DUP2 GT ISZERO PUSH2 0x376 JUMPI PUSH2 0x375 PUSH2 0x197D JUMP JUMPDEST JUMPDEST SWAP1 DUP2 PUSH1 0x3 DUP2 GT ISZERO PUSH2 0x38A JUMPI PUSH2 0x389 PUSH2 0x197D JUMP JUMPDEST JUMPDEST DUP2 MSTORE POP POP PUSH1 0x2 DUP2 PUSH1 0x2 DUP2 MLOAD DUP2 LT PUSH2 0x3A4 JUMPI PUSH2 0x3A3 PUSH2 0x22CB JUMP JUMPDEST JUMPDEST PUSH1 0x20 MUL PUSH1 0x20 ADD ADD SWAP1 PUSH1 0x3 DUP2 GT ISZERO PUSH2 0x3BE JUMPI PUSH2 0x3BD PUSH2 0x197D JUMP JUMPDEST JUMPDEST SWAP1 DUP2 PUSH1 0x3 DUP2 GT ISZERO PUSH2 0x3D2 JUMPI PUSH2 0x3D1 PUSH2 0x197D JUMP JUMPDEST JUMPDEST DUP2 MSTORE POP POP PUSH1 0x3 DUP2 PUSH1 0x3 DUP2 MLOAD DUP2 LT PUSH2 0x3EC JUMPI PUSH2 0x3EB PUSH2 0x22CB JUMP JUMPDEST JUMPDEST PUSH1 0x20 MUL PUSH1 0x20 ADD ADD SWAP1 PUSH1 0x3 DUP2 GT ISZERO PUSH2 0x406 JUMPI PUSH2 0x405 PUSH2 0x197D JUMP JUMPDEST JUMPDEST SWAP1 DUP2 PUSH1 0x3 DUP2 GT ISZERO PUSH2 0x41A JUMPI PUSH2 0x419 PUSH2 0x197D JUMP JUMPDEST JUMPDEST DUP2 MSTORE POP POP DUP1 SWAP2 POP POP SWAP1 JUMP JUMPDEST PUSH1 0x3 SLOAD DUP2 JUMP JUMPDEST PUSH1 0x60 PUSH2 0x436 DUP7 PUSH2 0x13DE JUMP JUMPDEST PUSH2 0x43F DUP7 PUSH2 0x13DE JUMP JUMPDEST PUSH2 0x448 DUP7 PUSH2 0x1537 JUMP JUMPDEST PUSH2 0x451 DUP7 PUSH2 0x1537 JUMP JUMPDEST PUSH2 0x472 DUP7 PUSH20 0xFFFFFFFFFFFFFFFFFFFFFFFFFFFFFFFFFFFFFFFF AND PUSH1 0x14 PUSH2 0x16C7 JUMP JUMPDEST PUSH2 0x47B TIMESTAMP PUSH2 0x13DE JUMP JUMPDEST PUSH1 0x40 MLOAD PUSH1 0x20 ADD PUSH2 0x490 SWAP7 SWAP6 SWAP5 SWAP4 SWAP3 SWAP2 SWAP1 PUSH2 0x237C JUMP JUMPDEST PUSH1 0x40 MLOAD PUSH1 0x20 DUP2 DUP4 SUB SUB DUP2 MSTORE SWAP1 PUSH1 0x40 MSTORE SWAP1 POP SWAP6 SWAP5 POP POP POP POP POP JUMP JUMPDEST PUSH1 0x60 PUSH0 PUSH1 0x5 PUSH0 DUP7 PUSH20 0xFFFFFFFFFFFFFFFFFFFFFFFFFFFFFFFFFFFFFFFF AND PUSH20 0xFFFFFFFFFFFFFFFFFFFFFFFFFFFFFFFFFFFFFFFF AND DUP2 MSTORE PUSH1 0x20 ADD SWAP1 DUP2 MSTORE PUSH1 0x20 ADD PUSH0 KECCAK256 SLOAD SUB PUSH2 0x54A JUMPI PUSH0 DUP1 PUSH8 0xFFFFFFFFFFFFFFFF DUP2 GT ISZERO PUSH2 0x50B JUMPI PUSH2 0x50A PUSH2 0x1B13 JUMP JUMPDEST JUMPDEST PUSH1 0x40 MLOAD SWAP1 DUP1 DUP3 MSTORE DUP1 PUSH1 0x20 MUL PUSH1 0x20 ADD DUP3 ADD PUSH1 0x40 MSTORE DUP1 ISZERO PUSH2 0x53E JUMPI DUP2 PUSH1 0x20 ADD JUMPDEST PUSH1 0x60 DUP2 MSTORE PUSH1 0x20 ADD SWAP1 PUSH1 0x1 SWAP1 SUB SWAP1 DUP2 PUSH2 0x529 JUMPI SWAP1 POP JUMPDEST POP SWAP1 POP DUP1 SWAP2 POP POP PUSH2 0x85C JUMP JUMPDEST PUSH1 0x1 DUP4 GT DUP1 ISZERO PUSH2 0x5B9 JUMPI POP PUSH1 0x1 DUP4 PUSH2 0x562 SWAP2 SWAP1 PUSH2 0x2437 JUMP JUMPDEST DUP3 PUSH1 0x1 PUSH1 0x5 PUSH0 DUP9 PUSH20 0xFFFFFFFFFFFFFFFFFFFFFFFFFFFFFFFFFFFFFFFF AND PUSH20 0xFFFFFFFFFFFFFFFFFFFFFFFFFFFFFFFFFFFFFFFF AND DUP2 MSTORE PUSH1 0x20 ADD SWAP1 DUP2 MSTORE PUSH1 0x20 ADD PUSH0 KECCAK256 SLOAD PUSH2 0x5AD SWAP2 SWAP1 PUSH2 0x2437 JUMP JUMPDEST PUSH2 0x5B7 SWAP2 SWAP1 PUSH2 0x2497 JUMP JUMPDEST LT JUMPDEST ISZERO PUSH2 0x618 JUMPI PUSH0 DUP1 PUSH8 0xFFFFFFFFFFFFFFFF DUP2 GT ISZERO PUSH2 0x5D9 JUMPI PUSH2 0x5D8 PUSH2 0x1B13 JUMP JUMPDEST JUMPDEST PUSH1 0x40 MLOAD SWAP1 DUP1 DUP3 MSTORE DUP1 PUSH1 0x20 MUL PUSH1 0x20 ADD DUP3 ADD PUSH1 0x40 MSTORE DUP1 ISZERO PUSH2 0x60C JUMPI DUP2 PUSH1 0x20 ADD JUMPDEST PUSH1 0x60 DUP2 MSTORE PUSH1 0x20 ADD SWAP1 PUSH1 0x1 SWAP1 SUB SWAP1 DUP2 PUSH2 0x5F7 JUMPI SWAP1 POP JUMPDEST POP SWAP1 POP DUP1 SWAP2 POP POP PUSH2 0x85C JUMP JUMPDEST PUSH0 DUP1 PUSH0 SWAP1 POP PUSH0 DUP5 PUSH1 0x1 DUP8 PUSH2 0x62C SWAP2 SWAP1 PUSH2 0x2437 JUMP JUMPDEST PUSH2 0x636 SWAP2 SWAP1 PUSH2 0x24C7 JUMP JUMPDEST PUSH1 0x1 PUSH1 0x5 PUSH0 DUP11 PUSH20 0xFFFFFFFFFFFFFFFFFFFFFFFFFFFFFFFFFFFFFFFF AND PUSH20 0xFFFFFFFFFFFFFFFFFFFFFFFFFFFFFFFFFFFFFFFF AND DUP2 MSTORE PUSH1 0x20 ADD SWAP1 DUP2 MSTORE PUSH1 0x20 ADD PUSH0 KECCAK256 SLOAD PUSH2 0x680 SWAP2 SWAP1 PUSH2 0x2437 JUMP JUMPDEST PUSH2 0x68A SWAP2 SWAP1 PUSH2 0x2437 JUMP JUMPDEST SWAP1 POP PUSH0 DUP6 DUP3 LT ISZERO PUSH2 0x6AC JUMPI PUSH0 SWAP1 POP PUSH1 0x1 DUP3 PUSH2 0x6A5 SWAP2 SWAP1 PUSH2 0x2508 JUMP JUMPDEST SWAP4 POP PUSH2 0x6CA JUMP JUMPDEST PUSH1 0x1 DUP7 DUP4 PUSH2 0x6BA SWAP2 SWAP1 PUSH2 0x2437 JUMP JUMPDEST PUSH2 0x6C4 SWAP2 SWAP1 PUSH2 0x2508 JUMP JUMPDEST SWAP1 POP DUP6 SWAP4 POP JUMPDEST PUSH0 DUP5 PUSH8 0xFFFFFFFFFFFFFFFF DUP2 GT ISZERO PUSH2 0x6E5 JUMPI PUSH2 0x6E4 PUSH2 0x1B13 JUMP JUMPDEST JUMPDEST PUSH1 0x40 MLOAD SWAP1 DUP1 DUP3 MSTORE DUP1 PUSH1 0x20 MUL PUSH1 0x20 ADD DUP3 ADD PUSH1 0x40 MSTORE DUP1 ISZERO PUSH2 0x718 JUMPI DUP2 PUSH1 0x20 ADD JUMPDEST PUSH1 0x60 DUP2 MSTORE PUSH1 0x20 ADD SWAP1 PUSH1 0x1 SWAP1 SUB SWAP1 DUP2 PUSH2 0x703 JUMPI SWAP1 POP JUMPDEST POP SWAP1 POP PUSH0 DUP4 SWAP1 POP JUMPDEST DUP3 DUP2 SLT PUSH2 0x852 JUMPI PUSH0 PUSH1 0x7 PUSH0 DUP13 PUSH20 0xFFFFFFFFFFFFFFFFFFFFFFFFFFFFFFFFFFFFFFFF AND PUSH20 0xFFFFFFFFFFFFFFFFFFFFFFFFFFFFFFFFFFFFFFFF AND DUP2 MSTORE PUSH1 0x20 ADD SWAP1 DUP2 MSTORE PUSH1 0x20 ADD PUSH0 KECCAK256 PUSH0 DUP4 DUP2 MSTORE PUSH1 0x20 ADD SWAP1 DUP2 MSTORE PUSH1 0x20 ADD PUSH0 KECCAK256 SLOAD SWAP1 POP PUSH1 0x8 PUSH0 DUP3 DUP2 MSTORE PUSH1 0x20 ADD SWAP1 DUP2 MSTORE PUSH1 0x20 ADD PUSH0 KECCAK256 PUSH1 0x2 ADD DUP1 SLOAD PUSH2 0x796 SWAP1 PUSH2 0x2568 JUMP JUMPDEST DUP1 PUSH1 0x1F ADD PUSH1 0x20 DUP1 SWAP2 DIV MUL PUSH1 0x20 ADD PUSH1 0x40 MLOAD SWAP1 DUP2 ADD PUSH1 0x40 MSTORE DUP1 SWAP3 SWAP2 SWAP1 DUP2 DUP2 MSTORE PUSH1 0x20 ADD DUP3 DUP1 SLOAD PUSH2 0x7C2 SWAP1 PUSH2 0x2568 JUMP JUMPDEST DUP1 ISZERO PUSH2 0x80D JUMPI DUP1 PUSH1 0x1F LT PUSH2 0x7E4 JUMPI PUSH2 0x100 DUP1 DUP4 SLOAD DIV MUL DUP4 MSTORE SWAP2 PUSH1 0x20 ADD SWAP2 PUSH2 0x80D JUMP JUMPDEST DUP3 ADD SWAP2 SWAP1 PUSH0 MSTORE PUSH1 0x20 PUSH0 KECCAK256 SWAP1 JUMPDEST DUP2 SLOAD DUP2 MSTORE SWAP1 PUSH1 0x1 ADD SWAP1 PUSH1 0x20 ADD DUP1 DUP4 GT PUSH2 0x7F0 JUMPI DUP3 SWAP1 SUB PUSH1 0x1F AND DUP3 ADD SWAP2 JUMPDEST POP POP POP POP POP DUP4 DUP8 DUP2 MLOAD DUP2 LT PUSH2 0x825 JUMPI PUSH2 0x824 PUSH2 0x22CB JUMP JUMPDEST JUMPDEST PUSH1 0x20 MUL PUSH1 0x20 ADD ADD DUP2 SWAP1 MSTORE POP DUP6 DUP1 PUSH2 0x83B SWAP1 PUSH2 0x2598 JUMP JUMPDEST SWAP7 POP POP POP DUP1 DUP1 PUSH2 0x84A SWAP1 PUSH2 0x25E8 JUMP JUMPDEST SWAP2 POP POP PUSH2 0x720 JUMP JUMPDEST POP DUP1 SWAP6 POP POP POP POP POP POP JUMPDEST SWAP4 SWAP3 POP POP POP JUMP JUMPDEST PUSH1 0x60 DUP1 PUSH1 0x1 DUP4 PUSH1 0x40 MLOAD PUSH2 0x876 SWAP2 SWAP1 PUSH2 0x262F JUMP JUMPDEST SWAP1 DUP2 MSTORE PUSH1 0x20 ADD PUSH1 0x40 MLOAD DUP1 SWAP2 SUB SWAP1 KECCAK256 PUSH1 0x2 DUP5 PUSH1 0x40 MLOAD PUSH2 0x894 SWAP2 SWAP1 PUSH2 0x262F JUMP JUMPDEST SWAP1 DUP2 MSTORE PUSH1 0x20 ADD PUSH1 0x40 MLOAD DUP1 SWAP2 SUB SWAP1 KECCAK256 DUP2 DUP1 SLOAD DUP1 PUSH1 0x20 MUL PUSH1 0x20 ADD PUSH1 0x40 MLOAD SWAP1 DUP2 ADD PUSH1 0x40 MSTORE DUP1 SWAP3 SWAP2 SWAP1 DUP2 DUP2 MSTORE PUSH1 0x20 ADD DUP3 DUP1 SLOAD DUP1 ISZERO PUSH2 0x91E JUMPI PUSH1 0x20 MUL DUP3 ADD SWAP2 SWAP1 PUSH0 MSTORE PUSH1 0x20 PUSH0 KECCAK256 SWAP1 PUSH0 SWAP1 JUMPDEST DUP3 DUP3 SWAP1 SLOAD SWAP1 PUSH2 0x100 EXP SWAP1 DIV PUSH1 0xFF AND PUSH1 0xC6 DUP2 GT ISZERO PUSH2 0x8F9 JUMPI PUSH2 0x8F8 PUSH2 0x197D JUMP JUMPDEST JUMPDEST DUP2 MSTORE PUSH1 0x20 ADD SWAP1 PUSH1 0x1 ADD SWAP1 PUSH1 0x20 DUP3 PUSH0 ADD DIV SWAP3 DUP4 ADD SWAP3 PUSH1 0x1 SUB DUP3 MUL SWAP2 POP DUP1 DUP5 GT PUSH2 0x8D9 JUMPI SWAP1 POP JUMPDEST POP POP POP POP POP SWAP2 POP DUP1 DUP1 SLOAD DUP1 PUSH1 0x20 MUL PUSH1 0x20 ADD PUSH1 0x40 MLOAD SWAP1 DUP2 ADD PUSH1 0x40 MSTORE DUP1 SWAP3 SWAP2 SWAP1 DUP2 DUP2 MSTORE PUSH1 0x20 ADD DUP3 DUP1 SLOAD DUP1 ISZERO PUSH2 0x9A1 JUMPI PUSH1 0x20 MUL DUP3 ADD SWAP2 SWAP1 PUSH0 MSTORE PUSH1 0x20 PUSH0 KECCAK256 SWAP1 PUSH0 SWAP1 JUMPDEST DUP3 DUP3 SWAP1 SLOAD SWAP1 PUSH2 0x100 EXP SWAP1 DIV PUSH1 0xFF AND PUSH1 0xC6 DUP2 GT ISZERO PUSH2 0x97C JUMPI PUSH2 0x97B PUSH2 0x197D JUMP JUMPDEST JUMPDEST DUP2 MSTORE PUSH1 0x20 ADD SWAP1 PUSH1 0x1 ADD SWAP1 PUSH1 0x20 DUP3 PUSH0 ADD DIV SWAP3 DUP4 ADD SWAP3 PUSH1 0x1 SUB DUP3 MUL SWAP2 POP DUP1 DUP5 GT PUSH2 0x95C JUMPI SWAP1 POP JUMPDEST POP POP POP POP POP SWAP1 POP SWAP2 POP SWAP2 POP SWAP2 POP SWAP2 JUMP JUMPDEST PUSH1 0x60 PUSH0 PUSH1 0x4 PUSH0 DUP7 DUP2 MSTORE PUSH1 0x20 ADD SWAP1 DUP2 MSTORE PUSH1 0x20 ADD PUSH0 KECCAK256 SLOAD SUB PUSH2 0xA25 JUMPI PUSH0 DUP1 PUSH8 0xFFFFFFFFFFFFFFFF DUP2 GT ISZERO PUSH2 0x9E6 JUMPI PUSH2 0x9E5 PUSH2 0x1B13 JUMP JUMPDEST JUMPDEST PUSH1 0x40 MLOAD SWAP1 DUP1 DUP3 MSTORE DUP1 PUSH1 0x20 MUL PUSH1 0x20 ADD DUP3 ADD PUSH1 0x40 MSTORE DUP1 ISZERO PUSH2 0xA19 JUMPI DUP2 PUSH1 0x20 ADD JUMPDEST PUSH1 0x60 DUP2 MSTORE PUSH1 0x20 ADD SWAP1 PUSH1 0x1 SWAP1 SUB SWAP1 DUP2 PUSH2 0xA04 JUMPI SWAP1 POP JUMPDEST POP SWAP1 POP DUP1 SWAP2 POP POP PUSH2 0xCB3 JUMP JUMPDEST PUSH1 0x1 DUP4 GT DUP1 ISZERO PUSH2 0xA68 JUMPI POP PUSH1 0x1 DUP4 PUSH2 0xA3D SWAP2 SWAP1 PUSH2 0x2437 JUMP JUMPDEST DUP3 PUSH1 0x1 PUSH1 0x4 PUSH0 DUP9 DUP2 MSTORE PUSH1 0x20 ADD SWAP1 DUP2 MSTORE PUSH1 0x20 ADD PUSH0 KECCAK256 SLOAD PUSH2 0xA5C SWAP2 SWAP1 PUSH2 0x2437 JUMP JUMPDEST PUSH2 0xA66 SWAP2 SWAP1 PUSH2 0x2497 JUMP JUMPDEST LT JUMPDEST ISZERO PUSH2 0xAC7 JUMPI PUSH0 DUP1 PUSH8 0xFFFFFFFFFFFFFFFF DUP2 GT ISZERO PUSH2 0xA88 JUMPI PUSH2 0xA87 PUSH2 0x1B13 JUMP JUMPDEST JUMPDEST PUSH1 0x40 MLOAD SWAP1 DUP1 DUP3 MSTORE DUP1 PUSH1 0x20 MUL PUSH1 0x20 ADD DUP3 ADD PUSH1 0x40 MSTORE DUP1 ISZERO PUSH2 0xABB JUMPI DUP2 PUSH1 0x20 ADD JUMPDEST PUSH1 0x60 DUP2 MSTORE PUSH1 0x20 ADD SWAP1 PUSH1 0x1 SWAP1 SUB SWAP1 DUP2 PUSH2 0xAA6 JUMPI SWAP1 POP JUMPDEST POP SWAP1 POP DUP1 SWAP2 POP POP PUSH2 0xCB3 JUMP JUMPDEST PUSH0 DUP1 PUSH0 SWAP1 POP PUSH0 DUP5 PUSH1 0x1 DUP8 PUSH2 0xADB SWAP2 SWAP1 PUSH2 0x2437 JUMP JUMPDEST PUSH2 0xAE5 SWAP2 SWAP1 PUSH2 0x24C7 JUMP JUMPDEST PUSH1 0x1 PUSH1 0x4 PUSH0 DUP11 DUP2 MSTORE PUSH1 0x20 ADD SWAP1 DUP2 MSTORE PUSH1 0x20 ADD PUSH0 KECCAK256 SLOAD PUSH2 0xB03 SWAP2 SWAP1 PUSH2 0x2437 JUMP JUMPDEST PUSH2 0xB0D SWAP2 SWAP1 PUSH2 0x2437 JUMP JUMPDEST SWAP1 POP PUSH0 DUP6 DUP3 LT ISZERO PUSH2 0xB2F JUMPI PUSH0 SWAP1 POP PUSH1 0x1 DUP3 PUSH2 0xB28 SWAP2 SWAP1 PUSH2 0x2508 JUMP JUMPDEST SWAP4 POP PUSH2 0xB4D JUMP JUMPDEST PUSH1 0x1 DUP7 DUP4 PUSH2 0xB3D SWAP2 SWAP1 PUSH2 0x2437 JUMP JUMPDEST PUSH2 0xB47 SWAP2 SWAP1 PUSH2 0x2508 JUMP JUMPDEST SWAP1 POP DUP6 SWAP4 POP JUMPDEST PUSH0 DUP5 PUSH8 0xFFFFFFFFFFFFFFFF DUP2 GT ISZERO PUSH2 0xB68 JUMPI PUSH2 0xB67 PUSH2 0x1B13 JUMP JUMPDEST JUMPDEST PUSH1 0x40 MLOAD SWAP1 DUP1 DUP3 MSTORE DUP1 PUSH1 0x20 MUL PUSH1 0x20 ADD DUP3 ADD PUSH1 0x40 MSTORE DUP1 ISZERO PUSH2 0xB9B JUMPI DUP2 PUSH1 0x20 ADD JUMPDEST PUSH1 0x60 DUP2 MSTORE PUSH1 0x20 ADD SWAP1 PUSH1 0x1 SWAP1 SUB SWAP1 DUP2 PUSH2 0xB86 JUMPI SWAP1 POP JUMPDEST POP SWAP1 POP PUSH0 DUP4 SWAP1 POP JUMPDEST DUP3 DUP2 SLT PUSH2 0xCA9 JUMPI PUSH0 PUSH1 0x6 PUSH0 DUP13 DUP2 MSTORE PUSH1 0x20 ADD SWAP1 DUP2 MSTORE PUSH1 0x20 ADD PUSH0 KECCAK256 PUSH0 DUP4 DUP2 MSTORE PUSH1 0x20 ADD SWAP1 DUP2 MSTORE PUSH1 0x20 ADD PUSH0 KECCAK256 SLOAD SWAP1 POP PUSH1 0x8 PUSH0 DUP3 DUP2 MSTORE PUSH1 0x20 ADD SWAP1 DUP2 MSTORE PUSH1 0x20 ADD PUSH0 KECCAK256 PUSH1 0x2 ADD DUP1 SLOAD PUSH2 0xBED SWAP1 PUSH2 0x2568 JUMP JUMPDEST DUP1 PUSH1 0x1F ADD PUSH1 0x20 DUP1 SWAP2 DIV MUL PUSH1 0x20 ADD PUSH1 0x40 MLOAD SWAP1 DUP2 ADD PUSH1 0x40 MSTORE DUP1 SWAP3 SWAP2 SWAP1 DUP2 DUP2 MSTORE PUSH1 0x20 ADD DUP3 DUP1 SLOAD PUSH2 0xC19 SWAP1 PUSH2 0x2568 JUMP JUMPDEST DUP1 ISZERO PUSH2 0xC64 JUMPI DUP1 PUSH1 0x1F LT PUSH2 0xC3B JUMPI PUSH2 0x100 DUP1 DUP4 SLOAD DIV MUL DUP4 MSTORE SWAP2 PUSH1 0x20 ADD SWAP2 PUSH2 0xC64 JUMP JUMPDEST DUP3 ADD SWAP2 SWAP1 PUSH0 MSTORE PUSH1 0x20 PUSH0 KECCAK256 SWAP1 JUMPDEST DUP2 SLOAD DUP2 MSTORE SWAP1 PUSH1 0x1 ADD SWAP1 PUSH1 0x20 ADD DUP1 DUP4 GT PUSH2 0xC47 JUMPI DUP3 SWAP1 SUB PUSH1 0x1F AND DUP3 ADD SWAP2 JUMPDEST POP POP POP POP POP DUP4 DUP8 DUP2 MLOAD DUP2 LT PUSH2 0xC7C JUMPI PUSH2 0xC7B PUSH2 0x22CB JUMP JUMPDEST JUMPDEST PUSH1 0x20 MUL PUSH1 0x20 ADD ADD DUP2 SWAP1 MSTORE POP DUP6 DUP1 PUSH2 0xC92 SWAP1 PUSH2 0x2598 JUMP JUMPDEST SWAP7 POP POP POP DUP1 DUP1 PUSH2 0xCA1 SWAP1 PUSH2 0x25E8 JUMP JUMPDEST SWAP2 POP POP PUSH2 0xBA3 JUMP JUMPDEST POP DUP1 SWAP6 POP POP POP POP POP POP JUMPDEST SWAP4 SWAP3 POP POP POP JUMP JUMPDEST PUSH1 0x60 PUSH2 0xCFB DUP4 PUSH1 0x40 MLOAD DUP1 PUSH1 0x40 ADD PUSH1 0x40 MSTORE DUP1 PUSH1 0xA DUP2 MSTORE PUSH1 0x20 ADD PUSH32 0x676574436F6D6D656E7400000000000000000000000000000000000000000000 DUP2 MSTORE POP PUSH2 0x18FC JUMP JUMPDEST ISZERO PUSH2 0xE6C JUMPI PUSH0 DUP3 DUP1 PUSH1 0x20 ADD SWAP1 MLOAD DUP2 ADD SWAP1 PUSH2 0xD15 SWAP2 SWAP1 PUSH2 0x2659 JUMP JUMPDEST SWAP1 POP PUSH0 PUSH1 0x8 PUSH0 DUP4 DUP2 MSTORE PUSH1 0x20 ADD SWAP1 DUP2 MSTORE PUSH1 0x20 ADD PUSH0 KECCAK256 PUSH1 0x40 MLOAD DUP1 PUSH1 0x80 ADD PUSH1 0x40 MSTORE SWAP1 DUP2 PUSH0 DUP3 ADD SLOAD DUP2 MSTORE PUSH1 0x20 ADD PUSH1 0x1 DUP3 ADD SLOAD DUP2 MSTORE PUSH1 0x20 ADD PUSH1 0x2 DUP3 ADD DUP1 SLOAD PUSH2 0xD57 SWAP1 PUSH2 0x2568 JUMP JUMPDEST DUP1 PUSH1 0x1F ADD PUSH1 0x20 DUP1 SWAP2 DIV MUL PUSH1 0x20 ADD PUSH1 0x40 MLOAD SWAP1 DUP2 ADD PUSH1 0x40 MSTORE DUP1 SWAP3 SWAP2 SWAP1 DUP2 DUP2 MSTORE PUSH1 0x20 ADD DUP3 DUP1 SLOAD PUSH2 0xD83 SWAP1 PUSH2 0x2568 JUMP JUMPDEST DUP1 ISZERO PUSH2 0xDCE JUMPI DUP1 PUSH1 0x1F LT PUSH2 0xDA5 JUMPI PUSH2 0x100 DUP1 DUP4 SLOAD DIV MUL DUP4 MSTORE SWAP2 PUSH1 0x20 ADD SWAP2 PUSH2 0xDCE JUMP JUMPDEST DUP3 ADD SWAP2 SWAP1 PUSH0 MSTORE PUSH1 0x20 PUSH0 KECCAK256 SWAP1 JUMPDEST DUP2 SLOAD DUP2 MSTORE SWAP1 PUSH1 0x1 ADD SWAP1 PUSH1 0x20 ADD DUP1 DUP4 GT PUSH2 0xDB1 JUMPI DUP3 SWAP1 SUB PUSH1 0x1F AND DUP3 ADD SWAP2 JUMPDEST POP POP POP POP POP DUP2 MSTORE PUSH1 0x20 ADD PUSH1 0x3 DUP3 ADD PUSH0 SWAP1 SLOAD SWAP1 PUSH2 0x100 EXP SWAP1 DIV PUSH20 0xFFFFFFFFFFFFFFFFFFFFFFFFFFFFFFFFFFFFFFFF AND PUSH20 0xFFFFFFFFFFFFFFFFFFFFFFFFFFFFFFFFFFFFFFFF AND PUSH20 0xFFFFFFFFFFFFFFFFFFFFFFFFFFFFFFFFFFFFFFFF AND DUP2 MSTORE POP POP SWAP1 POP DUP1 PUSH0 ADD MLOAD DUP2 PUSH1 0x20 ADD MLOAD DUP3 PUSH1 0x40 ADD MLOAD DUP4 PUSH1 0x60 ADD MLOAD PUSH1 0x40 MLOAD PUSH1 0x20 ADD PUSH2 0xE54 SWAP5 SWAP4 SWAP3 SWAP2 SWAP1 PUSH2 0x2693 JUMP JUMPDEST PUSH1 0x40 MLOAD PUSH1 0x20 DUP2 DUP4 SUB SUB DUP2 MSTORE SWAP1 PUSH1 0x40 MSTORE SWAP3 POP POP POP PUSH2 0xFC1 JUMP JUMPDEST PUSH2 0xEAB DUP4 PUSH1 0x40 MLOAD DUP1 PUSH1 0x40 ADD PUSH1 0x40 MSTORE DUP1 PUSH1 0xB DUP2 MSTORE PUSH1 0x20 ADD PUSH32 0x676574436F6D6D656E7473000000000000000000000000000000000000000000 DUP2 MSTORE POP PUSH2 0x18FC JUMP JUMPDEST ISZERO PUSH2 0xF06 JUMPI PUSH0 DUP1 PUSH0 DUP5 DUP1 PUSH1 0x20 ADD SWAP1 MLOAD DUP2 ADD SWAP1 PUSH2 0xEC7 SWAP2 SWAP1 PUSH2 0x26DD JUMP JUMPDEST SWAP3 POP SWAP3 POP SWAP3 POP PUSH0 PUSH2 0xED9 DUP5 DUP5 DUP5 PUSH2 0x9B1 JUMP JUMPDEST SWAP1 POP DUP1 PUSH1 0x40 MLOAD PUSH1 0x20 ADD PUSH2 0xEEC SWAP2 SWAP1 PUSH2 0x1F2D JUMP JUMPDEST PUSH1 0x40 MLOAD PUSH1 0x20 DUP2 DUP4 SUB SUB DUP2 MSTORE SWAP1 PUSH1 0x40 MSTORE SWAP5 POP POP POP POP POP PUSH2 0xFC1 JUMP JUMPDEST PUSH2 0xF45 DUP4 PUSH1 0x40 MLOAD DUP1 PUSH1 0x40 ADD PUSH1 0x40 MSTORE DUP1 PUSH1 0x14 DUP2 MSTORE PUSH1 0x20 ADD PUSH32 0x676574436F6D6D656E7473427941646472657373000000000000000000000000 DUP2 MSTORE POP PUSH2 0x18FC JUMP JUMPDEST ISZERO PUSH2 0xFA0 JUMPI PUSH0 DUP1 PUSH0 DUP5 DUP1 PUSH1 0x20 ADD SWAP1 MLOAD DUP2 ADD SWAP1 PUSH2 0xF61 SWAP2 SWAP1 PUSH2 0x2768 JUMP JUMPDEST SWAP3 POP SWAP3 POP SWAP3 POP PUSH0 PUSH2 0xF73 DUP5 DUP5 DUP5 PUSH2 0x4AA JUMP JUMPDEST SWAP1 POP DUP1 PUSH1 0x40 MLOAD PUSH1 0x20 ADD PUSH2 0xF86 SWAP2 SWAP1 PUSH2 0x1F2D JUMP JUMPDEST PUSH1 0x40 MLOAD PUSH1 0x20 DUP2 DUP4 SUB SUB DUP2 MSTORE SWAP1 PUSH1 0x40 MSTORE SWAP5 POP POP POP POP POP PUSH2 0xFC1 JUMP JUMPDEST PUSH1 0x40 MLOAD PUSH1 0x20 ADD PUSH2 0xFAF SWAP1 PUSH2 0x27DB JUMP JUMPDEST PUSH1 0x40 MLOAD PUSH1 0x20 DUP2 DUP4 SUB SUB DUP2 MSTORE SWAP1 PUSH1 0x40 MSTORE SWAP1 POP JUMPDEST SWAP3 SWAP2 POP POP JUMP JUMPDEST PUSH1 0x60 PUSH2 0x1008 DUP4 PUSH1 0x40 MLOAD DUP1 PUSH1 0x40 ADD PUSH1 0x40 MSTORE DUP1 PUSH1 0xB DUP2 MSTORE PUSH1 0x20 ADD PUSH32 0x706F7374436F6D6D656E74000000000000000000000000000000000000000000 DUP2 MSTORE POP PUSH2 0x18FC JUMP JUMPDEST ISZERO PUSH2 0x1283 JUMPI PUSH0 DUP1 PUSH0 DUP5 DUP1 PUSH1 0x20 ADD SWAP1 MLOAD DUP2 ADD SWAP1 PUSH2 0x1024 SWAP2 SWAP1 PUSH2 0x2867 JUMP JUMPDEST SWAP3 POP SWAP3 POP SWAP3 POP PUSH0 PUSH2 0x103A DUP5 PUSH1 0x3 SLOAD DUP6 DUP6 CALLER PUSH2 0x42B JUMP JUMPDEST SWAP1 POP PUSH0 PUSH1 0x4 PUSH0 DUP7 DUP2 MSTORE PUSH1 0x20 ADD SWAP1 DUP2 MSTORE PUSH1 0x20 ADD PUSH0 KECCAK256 SLOAD SWAP1 POP PUSH0 PUSH1 0x5 PUSH0 CALLER PUSH20 0xFFFFFFFFFFFFFFFFFFFFFFFFFFFFFFFFFFFFFFFF AND PUSH20 0xFFFFFFFFFFFFFFFFFFFFFFFFFFFFFFFFFFFFFFFF AND DUP2 MSTORE PUSH1 0x20 ADD SWAP1 DUP2 MSTORE PUSH1 0x20 ADD PUSH0 KECCAK256 SLOAD SWAP1 POP PUSH1 0x40 MLOAD DUP1 PUSH1 0x80 ADD PUSH1 0x40 MSTORE DUP1 DUP8 DUP2 MSTORE PUSH1 0x20 ADD PUSH1 0x3 SLOAD DUP2 MSTORE PUSH1 0x20 ADD DUP5 DUP2 MSTORE PUSH1 0x20 ADD CALLER PUSH20 0xFFFFFFFFFFFFFFFFFFFFFFFFFFFFFFFFFFFFFFFF AND DUP2 MSTORE POP PUSH1 0x8 PUSH0 PUSH1 0x3 SLOAD DUP2 MSTORE PUSH1 0x20 ADD SWAP1 DUP2 MSTORE PUSH1 0x20 ADD PUSH0 KECCAK256 PUSH0 DUP3 ADD MLOAD DUP2 PUSH0 ADD SSTORE PUSH1 0x20 DUP3 ADD MLOAD DUP2 PUSH1 0x1 ADD SSTORE PUSH1 0x40 DUP3 ADD MLOAD DUP2 PUSH1 0x2 ADD SWAP1 DUP2 PUSH2 0x1105 SWAP2 SWAP1 PUSH2 0x2A8C JUMP JUMPDEST POP PUSH1 0x60 DUP3 ADD MLOAD DUP2 PUSH1 0x3 ADD PUSH0 PUSH2 0x100 EXP DUP2 SLOAD DUP2 PUSH20 0xFFFFFFFFFFFFFFFFFFFFFFFFFFFFFFFFFFFFFFFF MUL NOT AND SWAP1 DUP4 PUSH20 0xFFFFFFFFFFFFFFFFFFFFFFFFFFFFFFFFFFFFFFFF AND MUL OR SWAP1 SSTORE POP SWAP1 POP POP PUSH1 0x3 SLOAD PUSH1 0x6 PUSH0 DUP9 DUP2 MSTORE PUSH1 0x20 ADD SWAP1 DUP2 MSTORE PUSH1 0x20 ADD PUSH0 KECCAK256 PUSH0 DUP5 DUP2 MSTORE PUSH1 0x20 ADD SWAP1 DUP2 MSTORE PUSH1 0x20 ADD PUSH0 KECCAK256 DUP2 SWAP1 SSTORE POP PUSH1 0x3 SLOAD PUSH1 0x7 PUSH0 CALLER PUSH20 0xFFFFFFFFFFFFFFFFFFFFFFFFFFFFFFFFFFFFFFFF AND PUSH20 0xFFFFFFFFFFFFFFFFFFFFFFFFFFFFFFFFFFFFFFFF AND DUP2 MSTORE PUSH1 0x20 ADD SWAP1 DUP2 MSTORE PUSH1 0x20 ADD PUSH0 KECCAK256 PUSH0 DUP4 DUP2 MSTORE PUSH1 0x20 ADD SWAP1 DUP2 MSTORE PUSH1 0x20 ADD PUSH0 KECCAK256 DUP2 SWAP1 SSTORE POP PUSH1 0x4 PUSH0 DUP8 DUP2 MSTORE PUSH1 0x20 ADD SWAP1 DUP2 MSTORE PUSH1 0x20 ADD PUSH0 KECCAK256 PUSH0 DUP2 SLOAD DUP1 SWAP3 SWAP2 SWAP1 PUSH2 0x11EA SWAP1 PUSH2 0x2598 JUMP JUMPDEST SWAP2 SWAP1 POP SSTORE POP PUSH1 0x5 PUSH0 CALLER PUSH20 0xFFFFFFFFFFFFFFFFFFFFFFFFFFFFFFFFFFFFFFFF AND PUSH20 0xFFFFFFFFFFFFFFFFFFFFFFFFFFFFFFFFFFFFFFFF AND DUP2 MSTORE PUSH1 0x20 ADD SWAP1 DUP2 MSTORE PUSH1 0x20 ADD PUSH0 KECCAK256 PUSH0 DUP2 SLOAD DUP1 SWAP3 SWAP2 SWAP1 PUSH2 0x123C SWAP1 PUSH2 0x2598 JUMP JUMPDEST SWAP2 SWAP1 POP SSTORE POP PUSH1 0x3 PUSH0 DUP2 SLOAD DUP1 SWAP3 SWAP2 SWAP1 PUSH2 0x1253 SWAP1 PUSH2 0x2598 JUMP JUMPDEST SWAP2 SWAP1 POP SSTORE POP PUSH1 0x40 MLOAD PUSH1 0x20 ADD PUSH2 0x1267 SWAP1 PUSH2 0x27DB JUMP JUMPDEST PUSH1 0x40 MLOAD PUSH1 0x20 DUP2 DUP4 SUB SUB DUP2 MSTORE SWAP1 PUSH1 0x40 MSTORE SWAP7 POP POP POP POP POP POP POP PUSH2 0x12A4 JUMP JUMPDEST PUSH1 0x40 MLOAD PUSH1 0x20 ADD PUSH2 0x1292 SWAP1 PUSH2 0x27DB JUMP JUMPDEST PUSH1 0x40 MLOAD PUSH1 0x20 DUP2 DUP4 SUB SUB DUP2 MSTORE SWAP1 PUSH1 0x40 MSTORE SWAP1 POP JUMPDEST SWAP3 SWAP2 POP POP JUMP JUMPDEST PUSH1 0x60 DUP3 DUP3 PUSH1 0x40 MLOAD PUSH1 0x20 ADD PUSH2 0x12BF SWAP3 SWAP2 SWAP1 PUSH2 0x2B5B JUMP JUMPDEST PUSH1 0x40 MLOAD PUSH1 0x20 DUP2 DUP4 SUB SUB DUP2 MSTORE SWAP1 PUSH1 0x40 MSTORE SWAP1 POP SWAP3 SWAP2 POP POP JUMP JUMPDEST PUSH1 0x60 PUSH0 DUP1 DUP4 PUSH1 0x3 DUP2 GT ISZERO PUSH2 0x12ED JUMPI PUSH2 0x12EC PUSH2 0x197D JUMP JUMPDEST JUMPDEST PUSH1 0x3 DUP2 GT ISZERO PUSH2 0x12FF JUMPI PUSH2 0x12FE PUSH2 0x197D JUMP JUMPDEST JUMPDEST DUP2 MSTORE PUSH1 0x20 ADD SWAP1 DUP2 MSTORE PUSH1 0x20 ADD PUSH0 KECCAK256 DUP1 SLOAD DUP1 PUSH1 0x20 MUL PUSH1 0x20 ADD PUSH1 0x40 MLOAD SWAP1 DUP2 ADD PUSH1 0x40 MSTORE DUP1 SWAP3 SWAP2 SWAP1 DUP2 DUP2 MSTORE PUSH1 0x20 ADD PUSH0 SWAP1 JUMPDEST DUP3 DUP3 LT ISZERO PUSH2 0x13D3 JUMPI DUP4 DUP3 SWAP1 PUSH0 MSTORE PUSH1 0x20 PUSH0 KECCAK256 ADD DUP1 SLOAD PUSH2 0x1348 SWAP1 PUSH2 0x2568 JUMP JUMPDEST DUP1 PUSH1 0x1F ADD PUSH1 0x20 DUP1 SWAP2 DIV MUL PUSH1 0x20 ADD PUSH1 0x40 MLOAD SWAP1 DUP2 ADD PUSH1 0x40 MSTORE DUP1 SWAP3 SWAP2 SWAP1 DUP2 DUP2 MSTORE PUSH1 0x20 ADD DUP3 DUP1 SLOAD PUSH2 0x1374 SWAP1 PUSH2 0x2568 JUMP JUMPDEST DUP1 ISZERO PUSH2 0x13BF JUMPI DUP1 PUSH1 0x1F LT PUSH2 0x1396 JUMPI PUSH2 0x100 DUP1 DUP4 SLOAD DIV MUL DUP4 MSTORE SWAP2 PUSH1 0x20 ADD SWAP2 PUSH2 0x13BF JUMP JUMPDEST DUP3 ADD SWAP2 SWAP1 PUSH0 MSTORE PUSH1 0x20 PUSH0 KECCAK256 SWAP1 JUMPDEST DUP2 SLOAD DUP2 MSTORE SWAP1 PUSH1 0x1 ADD SWAP1 PUSH1 0x20 ADD DUP1 DUP4 GT PUSH2 0x13A2 JUMPI DUP3 SWAP1 SUB PUSH1 0x1F AND DUP3 ADD SWAP2 JUMPDEST POP POP POP POP POP DUP2 MSTORE PUSH1 0x20 ADD SWAP1 PUSH1 0x1 ADD SWAP1 PUSH2 0x132B JUMP JUMPDEST POP POP POP POP SWAP1 POP SWAP2 SWAP1 POP JUMP JUMPDEST PUSH1 0x60 PUSH0 DUP3 SUB PUSH2 0x1424 JUMPI PUSH1 0x40 MLOAD DUP1 PUSH1 0x40 ADD PUSH1 0x40 MSTORE DUP1 PUSH1 0x1 DUP2 MSTORE PUSH1 0x20 ADD PUSH32 0x3000000000000000000000000000000000000000000000000000000000000000 DUP2 MSTORE POP SWAP1 POP PUSH2 0x1532 JUMP JUMPDEST PUSH0 DUP3 SWAP1 POP PUSH0 JUMPDEST PUSH0 DUP3 EQ PUSH2 0x1453 JUMPI DUP1 DUP1 PUSH2 0x143C SWAP1 PUSH2 0x2598 JUMP JUMPDEST SWAP2 POP POP PUSH1 0xA DUP3 PUSH2 0x144C SWAP2 SWAP1 PUSH2 0x2497 JUMP JUMPDEST SWAP2 POP PUSH2 0x142A JUMP JUMPDEST PUSH0 DUP2 PUSH8 0xFFFFFFFFFFFFFFFF DUP2 GT ISZERO PUSH2 0x146E JUMPI PUSH2 0x146D PUSH2 0x1B13 JUMP JUMPDEST JUMPDEST PUSH1 0x40 MLOAD SWAP1 DUP1 DUP3 MSTORE DUP1 PUSH1 0x1F ADD PUSH1 0x1F NOT AND PUSH1 0x20 ADD DUP3 ADD PUSH1 0x40 MSTORE DUP1 ISZERO PUSH2 0x14A0 JUMPI DUP2 PUSH1 0x20 ADD PUSH1 0x1 DUP3 MUL DUP1 CALLDATASIZE DUP4 CALLDATACOPY DUP1 DUP3 ADD SWAP2 POP POP SWAP1 POP JUMPDEST POP SWAP1 POP JUMPDEST PUSH0 DUP6 EQ PUSH2 0x152B JUMPI PUSH1 0x1 DUP3 PUSH2 0x14B8 SWAP2 SWAP1 PUSH2 0x2437 JUMP JUMPDEST SWAP2 POP PUSH1 0xA DUP6 PUSH2 0x14C7 SWAP2 SWAP1 PUSH2 0x2B90 JUMP JUMPDEST PUSH1 0x30 PUSH2 0x14D3 SWAP2 SWAP1 PUSH2 0x2508 JUMP JUMPDEST PUSH1 0xF8 SHL DUP2 DUP4 DUP2 MLOAD DUP2 LT PUSH2 0x14E9 JUMPI PUSH2 0x14E8 PUSH2 0x22CB JUMP JUMPDEST JUMPDEST PUSH1 0x20 ADD ADD SWAP1 PUSH31 0xFFFFFFFFFFFFFFFFFFFFFFFFFFFFFFFFFFFFFFFFFFFFFFFFFFFFFFFFFFFFFF NOT AND SWAP1 DUP2 PUSH0 BYTE SWAP1 MSTORE8 POP PUSH1 0xA DUP6 PUSH2 0x1524 SWAP2 SWAP1 PUSH2 0x2497 JUMP JUMPDEST SWAP5 POP PUSH2 0x14A4 JUMP JUMPDEST DUP1 SWAP4 POP POP POP POP JUMPDEST SWAP2 SWAP1 POP JUMP JUMPDEST PUSH1 0x60 PUSH0 DUP3 MLOAD SWAP1 POP PUSH0 DUP2 SUB PUSH2 0x155C JUMPI PUSH1 0x40 MLOAD DUP1 PUSH1 0x20 ADD PUSH1 0x40 MSTORE DUP1 PUSH0 DUP2 MSTORE POP SWAP2 POP POP PUSH2 0x16C2 JUMP JUMPDEST PUSH0 PUSH1 0x3 PUSH1 0x2 DUP4 PUSH2 0x156C SWAP2 SWAP1 PUSH2 0x2508 JUMP JUMPDEST PUSH2 0x1576 SWAP2 SWAP1 PUSH2 0x2497 JUMP JUMPDEST PUSH1 0x4 PUSH2 0x1582 SWAP2 SWAP1 PUSH2 0x24C7 JUMP JUMPDEST SWAP1 POP PUSH0 PUSH1 0x20 DUP3 PUSH2 0x1592 SWAP2 SWAP1 PUSH2 0x2508 JUMP JUMPDEST PUSH8 0xFFFFFFFFFFFFFFFF DUP2 GT ISZERO PUSH2 0x15AB JUMPI PUSH2 0x15AA PUSH2 0x1B13 JUMP JUMPDEST JUMPDEST PUSH1 0x40 MLOAD SWAP1 DUP1 DUP3 MSTORE DUP1 PUSH1 0x1F ADD PUSH1 0x1F NOT AND PUSH1 0x20 ADD DUP3 ADD PUSH1 0x40 MSTORE DUP1 ISZERO PUSH2 0x15DD JUMPI DUP2 PUSH1 0x20 ADD PUSH1 0x1 DUP3 MUL DUP1 CALLDATASIZE DUP4 CALLDATACOPY DUP1 DUP3 ADD SWAP2 POP POP SWAP1 POP JUMPDEST POP SWAP1 POP PUSH0 PUSH1 0x40 MLOAD DUP1 PUSH1 0x60 ADD PUSH1 0x40 MSTORE DUP1 PUSH1 0x40 DUP2 MSTORE PUSH1 0x20 ADD PUSH2 0x2C50 PUSH1 0x40 SWAP2 CODECOPY SWAP1 POP PUSH1 0x1 DUP2 ADD PUSH1 0x20 DUP4 ADD PUSH0 JUMPDEST DUP7 DUP2 LT ISZERO PUSH2 0x167F JUMPI PUSH1 0x3 DUP2 ADD SWAP1 POP PUSH3 0xFFFFFF DUP2 DUP11 ADD MLOAD AND PUSH1 0x3F DUP2 PUSH1 0x12 SHR AND DUP5 ADD MLOAD DUP1 PUSH1 0x8 SHL SWAP1 POP PUSH1 0xFF PUSH1 0x3F DUP4 PUSH1 0xC SHR AND DUP7 ADD MLOAD AND DUP2 ADD SWAP1 POP DUP1 PUSH1 0x8 SHL SWAP1 POP PUSH1 0xFF PUSH1 0x3F DUP4 PUSH1 0x6 SHR AND DUP7 ADD MLOAD AND DUP2 ADD SWAP1 POP DUP1 PUSH1 0x8 SHL SWAP1 POP PUSH1 0xFF PUSH1 0x3F DUP4 AND DUP7 ADD MLOAD AND DUP2 ADD SWAP1 POP DUP1 PUSH1 0xE0 SHL SWAP1 POP DUP1 DUP5 MSTORE PUSH1 0x4 DUP5 ADD SWAP4 POP POP POP PUSH2 0x1606 JUMP JUMPDEST POP PUSH1 0x3 DUP7 MOD PUSH1 0x1 DUP2 EQ PUSH2 0x1699 JUMPI PUSH1 0x2 DUP2 EQ PUSH2 0x16A9 JUMPI PUSH2 0x16B4 JUMP JUMPDEST PUSH2 0x3D3D PUSH1 0xF0 SHL PUSH1 0x2 DUP4 SUB MSTORE PUSH2 0x16B4 JUMP JUMPDEST PUSH1 0x3D PUSH1 0xF8 SHL PUSH1 0x1 DUP4 SUB MSTORE JUMPDEST POP DUP5 DUP5 MSTORE POP POP DUP2 SWAP5 POP POP POP POP POP JUMPDEST SWAP2 SWAP1 POP JUMP JUMPDEST PUSH1 0x60 PUSH0 PUSH1 0x2 DUP4 PUSH1 0x2 PUSH2 0x16D9 SWAP2 SWAP1 PUSH2 0x24C7 JUMP JUMPDEST PUSH2 0x16E3 SWAP2 SWAP1 PUSH2 0x2508 JUMP JUMPDEST PUSH8 0xFFFFFFFFFFFFFFFF DUP2 GT ISZERO PUSH2 0x16FC JUMPI PUSH2 0x16FB PUSH2 0x1B13 JUMP JUMPDEST JUMPDEST PUSH1 0x40 MLOAD SWAP1 DUP1 DUP3 MSTORE DUP1 PUSH1 0x1F ADD PUSH1 0x1F NOT AND PUSH1 0x20 ADD DUP3 ADD PUSH1 0x40 MSTORE DUP1 ISZERO PUSH2 0x172E JUMPI DUP2 PUSH1 0x20 ADD PUSH1 0x1 DUP3 MUL DUP1 CALLDATASIZE DUP4 CALLDATACOPY DUP1 DUP3 ADD SWAP2 POP POP SWAP1 POP JUMPDEST POP SWAP1 POP PUSH32 0x3000000000000000000000000000000000000000000000000000000000000000 DUP2 PUSH0 DUP2 MLOAD DUP2 LT PUSH2 0x1765 JUMPI PUSH2 0x1764 PUSH2 0x22CB JUMP JUMPDEST JUMPDEST PUSH1 0x20 ADD ADD SWAP1 PUSH31 0xFFFFFFFFFFFFFFFFFFFFFFFFFFFFFFFFFFFFFFFFFFFFFFFFFFFFFFFFFFFFFF NOT AND SWAP1 DUP2 PUSH0 BYTE SWAP1 MSTORE8 POP PUSH32 0x7800000000000000000000000000000000000000000000000000000000000000 DUP2 PUSH1 0x1 DUP2 MLOAD DUP2 LT PUSH2 0x17C8 JUMPI PUSH2 0x17C7 PUSH2 0x22CB JUMP JUMPDEST JUMPDEST PUSH1 0x20 ADD ADD SWAP1 PUSH31 0xFFFFFFFFFFFFFFFFFFFFFFFFFFFFFFFFFFFFFFFFFFFFFFFFFFFFFFFFFFFFFF NOT AND SWAP1 DUP2 PUSH0 BYTE SWAP1 MSTORE8 POP PUSH0 PUSH1 0x1 DUP5 PUSH1 0x2 PUSH2 0x1806 SWAP2 SWAP1 PUSH2 0x24C7 JUMP JUMPDEST PUSH2 0x1810 SWAP2 SWAP1 PUSH2 0x2508 JUMP JUMPDEST SWAP1 POP JUMPDEST PUSH1 0x1 DUP2 GT ISZERO PUSH2 0x18AF JUMPI PUSH32 0x3031323334353637383961626364656600000000000000000000000000000000 PUSH1 0xF DUP7 AND PUSH1 0x10 DUP2 LT PUSH2 0x1852 JUMPI PUSH2 0x1851 PUSH2 0x22CB JUMP JUMPDEST JUMPDEST BYTE PUSH1 0xF8 SHL DUP3 DUP3 DUP2 MLOAD DUP2 LT PUSH2 0x1869 JUMPI PUSH2 0x1868 PUSH2 0x22CB JUMP JUMPDEST JUMPDEST PUSH1 0x20 ADD ADD SWAP1 PUSH31 0xFFFFFFFFFFFFFFFFFFFFFFFFFFFFFFFFFFFFFFFFFFFFFFFFFFFFFFFFFFFFFF NOT AND SWAP1 DUP2 PUSH0 BYTE SWAP1 MSTORE8 POP PUSH1 0x4 DUP6 SWAP1 SHR SWAP5 POP DUP1 PUSH2 0x18A8 SWAP1 PUSH2 0x2BC0 JUMP JUMPDEST SWAP1 POP PUSH2 0x1813 JUMP JUMPDEST POP PUSH0 DUP5 EQ PUSH2 0x18F2 JUMPI PUSH1 0x40 MLOAD PUSH32 0x8C379A000000000000000000000000000000000000000000000000000000000 DUP2 MSTORE PUSH1 0x4 ADD PUSH2 0x18E9 SWAP1 PUSH2 0x2C31 JUMP JUMPDEST PUSH1 0x40 MLOAD DUP1 SWAP2 SUB SWAP1 REVERT JUMPDEST DUP1 SWAP2 POP POP SWAP3 SWAP2 POP POP JUMP JUMPDEST PUSH0 DUP2 PUSH1 0x40 MLOAD PUSH1 0x20 ADD PUSH2 0x190E SWAP2 SWAP1 PUSH2 0x262F JUMP JUMPDEST PUSH1 0x40 MLOAD PUSH1 0x20 DUP2 DUP4 SUB SUB DUP2 MSTORE SWAP1 PUSH1 0x40 MSTORE DUP1 MLOAD SWAP1 PUSH1 0x20 ADD KECCAK256 DUP4 PUSH1 0x40 MLOAD PUSH1 0x20 ADD PUSH2 0x1935 SWAP2 SWAP1 PUSH2 0x262F JUMP JUMPDEST PUSH1 0x40 MLOAD PUSH1 0x20 DUP2 DUP4 SUB SUB DUP2 MSTORE SWAP1 PUSH1 0x40 MSTORE DUP1 MLOAD SWAP1 PUSH1 0x20 ADD KECCAK256 EQ SWAP1 POP SWAP3 SWAP2 POP POP JUMP JUMPDEST PUSH0 DUP2 MLOAD SWAP1 POP SWAP2 SWAP1 POP JUMP JUMPDEST PUSH0 DUP3 DUP3 MSTORE PUSH1 0x20 DUP3 ADD SWAP1 POP SWAP3 SWAP2 POP POP JUMP JUMPDEST PUSH0 DUP2 SWAP1 POP PUSH1 0x20 DUP3 ADD SWAP1 POP SWAP2 SWAP1 POP JUMP JUMPDEST PUSH32 0x4E487B7100000000000000000000000000000000000000000000000000000000 PUSH0 MSTORE PUSH1 0x21 PUSH1 0x4 MSTORE PUSH1 0x24 PUSH0 REVERT JUMPDEST PUSH1 0x4 DUP2 LT PUSH2 0x19BB JUMPI PUSH2 0x19BA PUSH2 0x197D JUMP JUMPDEST JUMPDEST POP JUMP JUMPDEST PUSH0 DUP2 SWAP1 POP PUSH2 0x19CB DUP3 PUSH2 0x19AA JUMP JUMPDEST SWAP2 SWAP1 POP JUMP JUMPDEST PUSH0 PUSH2 0x19DA DUP3 PUSH2 0x19BE JUMP JUMPDEST SWAP1 POP SWAP2 SWAP1 POP JUMP JUMPDEST PUSH2 0x19EA DUP2 PUSH2 0x19D0 JUMP JUMPDEST DUP3 MSTORE POP POP JUMP JUMPDEST PUSH0 PUSH2 0x19FB DUP4 DUP4 PUSH2 0x19E1 JUMP JUMPDEST PUSH1 0x20 DUP4 ADD SWAP1 POP SWAP3 SWAP2 POP POP JUMP JUMPDEST PUSH0 PUSH1 0x20 DUP3 ADD SWAP1 POP SWAP2 SWAP1 POP JUMP JUMPDEST PUSH0 PUSH2 0x1A1D DUP3 PUSH2 0x1954 JUMP JUMPDEST PUSH2 0x1A27 DUP2 DUP6 PUSH2 0x195E JUMP JUMPDEST SWAP4 POP PUSH2 0x1A32 DUP4 PUSH2 0x196E JUMP JUMPDEST DUP1 PUSH0 JUMPDEST DUP4 DUP2 LT ISZERO PUSH2 0x1A62 JUMPI DUP2 MLOAD PUSH2 0x1A49 DUP9 DUP3 PUSH2 0x19F0 JUMP JUMPDEST SWAP8 POP PUSH2 0x1A54 DUP4 PUSH2 0x1A07 JUMP JUMPDEST SWAP3 POP POP PUSH1 0x1 DUP2 ADD SWAP1 POP PUSH2 0x1A35 JUMP JUMPDEST POP DUP6 SWAP4 POP POP POP POP SWAP3 SWAP2 POP POP JUMP JUMPDEST PUSH0 PUSH1 0x20 DUP3 ADD SWAP1 POP DUP2 DUP2 SUB PUSH0 DUP4 ADD MSTORE PUSH2 0x1A87 DUP2 DUP5 PUSH2 0x1A13 JUMP JUMPDEST SWAP1 POP SWAP3 SWAP2 POP POP JUMP JUMPDEST PUSH0 DUP2 SWAP1 POP SWAP2 SWAP1 POP JUMP JUMPDEST PUSH2 0x1AA1 DUP2 PUSH2 0x1A8F JUMP JUMPDEST DUP3 MSTORE POP POP JUMP JUMPDEST PUSH0 PUSH1 0x20 DUP3 ADD SWAP1 POP PUSH2 0x1ABA PUSH0 DUP4 ADD DUP5 PUSH2 0x1A98 JUMP JUMPDEST SWAP3 SWAP2 POP POP JUMP JUMPDEST PUSH0 PUSH1 0x40 MLOAD SWAP1 POP SWAP1 JUMP JUMPDEST PUSH0 DUP1 REVERT JUMPDEST PUSH0 DUP1 REVERT JUMPDEST PUSH2 0x1ADA DUP2 PUSH2 0x1A8F JUMP JUMPDEST DUP2 EQ PUSH2 0x1AE4 JUMPI PUSH0 DUP1 REVERT JUMPDEST POP JUMP JUMPDEST PUSH0 DUP2 CALLDATALOAD SWAP1 POP PUSH2 0x1AF5 DUP2 PUSH2 0x1AD1 JUMP JUMPDEST SWAP3 SWAP2 POP POP JUMP JUMPDEST PUSH0 DUP1 REVERT JUMPDEST PUSH0 DUP1 REVERT JUMPDEST PUSH0 PUSH1 0x1F NOT PUSH1 0x1F DUP4 ADD AND SWAP1 POP SWAP2 SWAP1 POP JUMP JUMPDEST PUSH32 0x4E487B7100000000000000000000000000000000000000000000000000000000 PUSH0 MSTORE PUSH1 0x41 PUSH1 0x4 MSTORE PUSH1 0x24 PUSH0 REVERT JUMPDEST PUSH2 0x1B49 DUP3 PUSH2 0x1B03 JUMP JUMPDEST DUP2 ADD DUP2 DUP2 LT PUSH8 0xFFFFFFFFFFFFFFFF DUP3 GT OR ISZERO PUSH2 0x1B68 JUMPI PUSH2 0x1B67 PUSH2 0x1B13 JUMP JUMPDEST JUMPDEST DUP1 PUSH1 0x40 MSTORE POP POP POP JUMP JUMPDEST PUSH0 PUSH2 0x1B7A PUSH2 0x1AC0 JUMP JUMPDEST SWAP1 POP PUSH2 0x1B86 DUP3 DUP3 PUSH2 0x1B40 JUMP JUMPDEST SWAP2 SWAP1 POP JUMP JUMPDEST PUSH0 PUSH8 0xFFFFFFFFFFFFFFFF DUP3 GT ISZERO PUSH2 0x1BA5 JUMPI PUSH2 0x1BA4 PUSH2 0x1B13 JUMP JUMPDEST JUMPDEST PUSH2 0x1BAE DUP3 PUSH2 0x1B03 JUMP JUMPDEST SWAP1 POP PUSH1 0x20 DUP2 ADD SWAP1 POP SWAP2 SWAP1 POP JUMP JUMPDEST DUP3 DUP2 DUP4 CALLDATACOPY PUSH0 DUP4 DUP4 ADD MSTORE POP POP POP JUMP JUMPDEST PUSH0 PUSH2 0x1BDB PUSH2 0x1BD6 DUP5 PUSH2 0x1B8B JUMP JUMPDEST PUSH2 0x1B71 JUMP JUMPDEST SWAP1 POP DUP3 DUP2 MSTORE PUSH1 0x20 DUP2 ADD DUP5 DUP5 DUP5 ADD GT ISZERO PUSH2 0x1BF7 JUMPI PUSH2 0x1BF6 PUSH2 0x1AFF JUMP JUMPDEST JUMPDEST PUSH2 0x1C02 DUP5 DUP3 DUP6 PUSH2 0x1BBB JUMP JUMPDEST POP SWAP4 SWAP3 POP POP POP JUMP JUMPDEST PUSH0 DUP3 PUSH1 0x1F DUP4 ADD SLT PUSH2 0x1C1E JUMPI PUSH2 0x1C1D PUSH2 0x1AFB JUMP JUMPDEST JUMPDEST DUP2 CALLDATALOAD PUSH2 0x1C2E DUP5 DUP3 PUSH1 0x20 DUP7 ADD PUSH2 0x1BC9 JUMP JUMPDEST SWAP2 POP POP SWAP3 SWAP2 POP POP JUMP JUMPDEST PUSH0 PUSH20 0xFFFFFFFFFFFFFFFFFFFFFFFFFFFFFFFFFFFFFFFF DUP3 AND SWAP1 POP SWAP2 SWAP1 POP JUMP JUMPDEST PUSH0 PUSH2 0x1C60 DUP3 PUSH2 0x1C37 JUMP JUMPDEST SWAP1 POP SWAP2 SWAP1 POP JUMP JUMPDEST PUSH2 0x1C70 DUP2 PUSH2 0x1C56 JUMP JUMPDEST DUP2 EQ PUSH2 0x1C7A JUMPI PUSH0 DUP1 REVERT JUMPDEST POP JUMP JUMPDEST PUSH0 DUP2 CALLDATALOAD SWAP1 POP PUSH2 0x1C8B DUP2 PUSH2 0x1C67 JUMP JUMPDEST SWAP3 SWAP2 POP POP JUMP JUMPDEST PUSH0 DUP1 PUSH0 DUP1 PUSH0 PUSH1 0xA0 DUP7 DUP9 SUB SLT ISZERO PUSH2 0x1CAA JUMPI PUSH2 0x1CA9 PUSH2 0x1AC9 JUMP JUMPDEST JUMPDEST PUSH0 PUSH2 0x1CB7 DUP9 DUP3 DUP10 ADD PUSH2 0x1AE7 JUMP JUMPDEST SWAP6 POP POP PUSH1 0x20 PUSH2 0x1CC8 DUP9 DUP3 DUP10 ADD PUSH2 0x1AE7 JUMP JUMPDEST SWAP5 POP POP PUSH1 0x40 DUP7 ADD CALLDATALOAD PUSH8 0xFFFFFFFFFFFFFFFF DUP2 GT ISZERO PUSH2 0x1CE9 JUMPI PUSH2 0x1CE8 PUSH2 0x1ACD JUMP JUMPDEST JUMPDEST PUSH2 0x1CF5 DUP9 DUP3 DUP10 ADD PUSH2 0x1C0A JUMP JUMPDEST SWAP4 POP POP PUSH1 0x60 DUP7 ADD CALLDATALOAD PUSH8 0xFFFFFFFFFFFFFFFF DUP2 GT ISZERO PUSH2 0x1D16 JUMPI PUSH2 0x1D15 PUSH2 0x1ACD JUMP JUMPDEST JUMPDEST PUSH2 0x1D22 DUP9 DUP3 DUP10 ADD PUSH2 0x1C0A JUMP JUMPDEST SWAP3 POP POP PUSH1 0x80 PUSH2 0x1D33 DUP9 DUP3 DUP10 ADD PUSH2 0x1C7D JUMP JUMPDEST SWAP2 POP POP SWAP3 SWAP6 POP SWAP3 SWAP6 SWAP1 SWAP4 POP JUMP JUMPDEST PUSH0 DUP2 MLOAD SWAP1 POP SWAP2 SWAP1 POP JUMP JUMPDEST PUSH0 DUP3 DUP3 MSTORE PUSH1 0x20 DUP3 ADD SWAP1 POP SWAP3 SWAP2 POP POP JUMP JUMPDEST PUSH0 JUMPDEST DUP4 DUP2 LT ISZERO PUSH2 0x1D77 JUMPI DUP1 DUP3 ADD MLOAD DUP2 DUP5 ADD MSTORE PUSH1 0x20 DUP2 ADD SWAP1 POP PUSH2 0x1D5C JUMP JUMPDEST PUSH0 DUP5 DUP5 ADD MSTORE POP POP POP POP JUMP JUMPDEST PUSH0 PUSH2 0x1D8C DUP3 PUSH2 0x1D40 JUMP JUMPDEST PUSH2 0x1D96 DUP2 DUP6 PUSH2 0x1D4A JUMP JUMPDEST SWAP4 POP PUSH2 0x1DA6 DUP2 DUP6 PUSH1 0x20 DUP7 ADD PUSH2 0x1D5A JUMP JUMPDEST PUSH2 0x1DAF DUP2 PUSH2 0x1B03 JUMP JUMPDEST DUP5 ADD SWAP2 POP POP SWAP3 SWAP2 POP POP JUMP JUMPDEST PUSH0 PUSH1 0x20 DUP3 ADD SWAP1 POP DUP2 DUP2 SUB PUSH0 DUP4 ADD MSTORE PUSH2 0x1DD2 DUP2 DUP5 PUSH2 0x1D82 JUMP JUMPDEST SWAP1 POP SWAP3 SWAP2 POP POP JUMP JUMPDEST PUSH0 DUP1 PUSH0 PUSH1 0x60 DUP5 DUP7 SUB SLT ISZERO PUSH2 0x1DF1 JUMPI PUSH2 0x1DF0 PUSH2 0x1AC9 JUMP JUMPDEST JUMPDEST PUSH0 PUSH2 0x1DFE DUP7 DUP3 DUP8 ADD PUSH2 0x1C7D JUMP JUMPDEST SWAP4 POP POP PUSH1 0x20 PUSH2 0x1E0F DUP7 DUP3 DUP8 ADD PUSH2 0x1AE7 JUMP JUMPDEST SWAP3 POP POP PUSH1 0x40 PUSH2 0x1E20 DUP7 DUP3 DUP8 ADD PUSH2 0x1AE7 JUMP JUMPDEST SWAP2 POP POP SWAP3 POP SWAP3 POP SWAP3 JUMP JUMPDEST PUSH0 DUP2 MLOAD SWAP1 POP SWAP2 SWAP1 POP JUMP JUMPDEST PUSH0 DUP3 DUP3 MSTORE PUSH1 0x20 DUP3 ADD SWAP1 POP SWAP3 SWAP2 POP POP JUMP JUMPDEST PUSH0 DUP2 SWAP1 POP PUSH1 0x20 DUP3 ADD SWAP1 POP SWAP2 SWAP1 POP JUMP JUMPDEST PUSH0 DUP3 DUP3 MSTORE PUSH1 0x20 DUP3 ADD SWAP1 POP SWAP3 SWAP2 POP POP JUMP JUMPDEST PUSH0 PUSH2 0x1E6D DUP3 PUSH2 0x1D40 JUMP JUMPDEST PUSH2 0x1E77 DUP2 DUP6 PUSH2 0x1E53 JUMP JUMPDEST SWAP4 POP PUSH2 0x1E87 DUP2 DUP6 PUSH1 0x20 DUP7 ADD PUSH2 0x1D5A JUMP JUMPDEST PUSH2 0x1E90 DUP2 PUSH2 0x1B03 JUMP JUMPDEST DUP5 ADD SWAP2 POP POP SWAP3 SWAP2 POP POP JUMP JUMPDEST PUSH0 PUSH2 0x1EA6 DUP4 DUP4 PUSH2 0x1E63 JUMP JUMPDEST SWAP1 POP SWAP3 SWAP2 POP POP JUMP JUMPDEST PUSH0 PUSH1 0x20 DUP3 ADD SWAP1 POP SWAP2 SWAP1 POP JUMP JUMPDEST PUSH0 PUSH2 0x1EC4 DUP3 PUSH2 0x1E2A JUMP JUMPDEST PUSH2 0x1ECE DUP2 DUP6 PUSH2 0x1E34 JUMP JUMPDEST SWAP4 POP DUP4 PUSH1 0x20 DUP3 MUL DUP6 ADD PUSH2 0x1EE0 DUP6 PUSH2 0x1E44 JUMP JUMPDEST DUP1 PUSH0 JUMPDEST DUP6 DUP2 LT ISZERO PUSH2 0x1F1B JUMPI DUP5 DUP5 SUB DUP10 MSTORE DUP2 MLOAD PUSH2 0x1EFC DUP6 DUP3 PUSH2 0x1E9B JUMP JUMPDEST SWAP5 POP PUSH2 0x1F07 DUP4 PUSH2 0x1EAE JUMP JUMPDEST SWAP3 POP PUSH1 0x20 DUP11 ADD SWAP10 POP POP PUSH1 0x1 DUP2 ADD SWAP1 POP PUSH2 0x1EE3 JUMP JUMPDEST POP DUP3 SWAP8 POP DUP8 SWAP6 POP POP POP POP POP POP SWAP3 SWAP2 POP POP JUMP JUMPDEST PUSH0 PUSH1 0x20 DUP3 ADD SWAP1 POP DUP2 DUP2 SUB PUSH0 DUP4 ADD MSTORE PUSH2 0x1F45 DUP2 DUP5 PUSH2 0x1EBA JUMP JUMPDEST SWAP1 POP SWAP3 SWAP2 POP POP JUMP JUMPDEST PUSH0 PUSH1 0x20 DUP3 DUP5 SUB SLT ISZERO PUSH2 0x1F62 JUMPI PUSH2 0x1F61 PUSH2 0x1AC9 JUMP JUMPDEST JUMPDEST PUSH0 DUP3 ADD CALLDATALOAD PUSH8 0xFFFFFFFFFFFFFFFF DUP2 GT ISZERO PUSH2 0x1F7F JUMPI PUSH2 0x1F7E PUSH2 0x1ACD JUMP JUMPDEST JUMPDEST PUSH2 0x1F8B DUP5 DUP3 DUP6 ADD PUSH2 0x1C0A JUMP JUMPDEST SWAP2 POP POP SWAP3 SWAP2 POP POP JUMP JUMPDEST PUSH0 DUP2 MLOAD SWAP1 POP SWAP2 SWAP1 POP JUMP JUMPDEST PUSH0 DUP2 SWAP1 POP PUSH1 0x20 DUP3 ADD SWAP1 POP SWAP2 SWAP1 POP JUMP JUMPDEST PUSH1 0xC7 DUP2 LT PUSH2 0x1FBE JUMPI PUSH2 0x1FBD PUSH2 0x197D JUMP JUMPDEST JUMPDEST POP JUMP JUMPDEST PUSH0 DUP2 SWAP1 POP PUSH2 0x1FCE DUP3 PUSH2 0x1FAD JUMP JUMPDEST SWAP2 SWAP1 POP JUMP JUMPDEST PUSH0 PUSH2 0x1FDD DUP3 PUSH2 0x1FC1 JUMP JUMPDEST SWAP1 POP SWAP2 SWAP1 POP JUMP JUMPDEST PUSH2 0x1FED DUP2 PUSH2 0x1FD3 JUMP JUMPDEST DUP3 MSTORE POP POP JUMP JUMPDEST PUSH0 PUSH2 0x1FFE DUP4 DUP4 PUSH2 0x1FE4 JUMP JUMPDEST PUSH1 0x20 DUP4 ADD SWAP1 POP SWAP3 SWAP2 POP POP JUMP JUMPDEST PUSH0 PUSH1 0x20 DUP3 ADD SWAP1 POP SWAP2 SWAP1 POP JUMP JUMPDEST PUSH0 PUSH2 0x2020 DUP3 PUSH2 0x1F94 JUMP JUMPDEST PUSH2 0x202A DUP2 DUP6 PUSH2 0x195E JUMP JUMPDEST SWAP4 POP PUSH2 0x2035 DUP4 PUSH2 0x1F9E JUMP JUMPDEST DUP1 PUSH0 JUMPDEST DUP4 DUP2 LT ISZERO PUSH2 0x2065 JUMPI DUP2 MLOAD PUSH2 0x204C DUP9 DUP3 PUSH2 0x1FF3 JUMP JUMPDEST SWAP8 POP PUSH2 0x2057 DUP4 PUSH2 0x200A JUMP JUMPDEST SWAP3 POP POP PUSH1 0x1 DUP2 ADD SWAP1 POP PUSH2 0x2038 JUMP JUMPDEST POP DUP6 SWAP4 POP POP POP POP SWAP3 SWAP2 POP POP JUMP JUMPDEST PUSH0 PUSH1 0x40 DUP3 ADD SWAP1 POP DUP2 DUP2 SUB PUSH0 DUP4 ADD MSTORE PUSH2 0x208A DUP2 DUP6 PUSH2 0x2016 JUMP JUMPDEST SWAP1 POP DUP2 DUP2 SUB PUSH1 0x20 DUP4 ADD MSTORE PUSH2 0x209E DUP2 DUP5 PUSH2 0x2016 JUMP JUMPDEST SWAP1 POP SWAP4 SWAP3 POP POP POP JUMP JUMPDEST PUSH0 DUP1 PUSH0 PUSH1 0x60 DUP5 DUP7 SUB SLT ISZERO PUSH2 0x20BE JUMPI PUSH2 0x20BD PUSH2 0x1AC9 JUMP JUMPDEST JUMPDEST PUSH0 PUSH2 0x20CB DUP7 DUP3 DUP8 ADD PUSH2 0x1AE7 JUMP JUMPDEST SWAP4 POP POP PUSH1 0x20 PUSH2 0x20DC DUP7 DUP3 DUP8 ADD PUSH2 0x1AE7 JUMP JUMPDEST SWAP3 POP POP PUSH1 0x40 PUSH2 0x20ED DUP7 DUP3 DUP8 ADD PUSH2 0x1AE7 JUMP JUMPDEST SWAP2 POP POP SWAP3 POP SWAP3 POP SWAP3 JUMP JUMPDEST PUSH0 PUSH8 0xFFFFFFFFFFFFFFFF DUP3 GT ISZERO PUSH2 0x2111 JUMPI PUSH2 0x2110 PUSH2 0x1B13 JUMP JUMPDEST JUMPDEST PUSH2 0x211A DUP3 PUSH2 0x1B03 JUMP JUMPDEST SWAP1 POP PUSH1 0x20 DUP2 ADD SWAP1 POP SWAP2 SWAP1 POP JUMP JUMPDEST PUSH0 PUSH2 0x2139 PUSH2 0x2134 DUP5 PUSH2 0x20F7 JUMP JUMPDEST PUSH2 0x1B71 JUMP JUMPDEST SWAP1 POP DUP3 DUP2 MSTORE PUSH1 0x20 DUP2 ADD DUP5 DUP5 DUP5 ADD GT ISZERO PUSH2 0x2155 JUMPI PUSH2 0x2154 PUSH2 0x1AFF JUMP JUMPDEST JUMPDEST PUSH2 0x2160 DUP5 DUP3 DUP6 PUSH2 0x1BBB JUMP JUMPDEST POP SWAP4 SWAP3 POP POP POP JUMP JUMPDEST PUSH0 DUP3 PUSH1 0x1F DUP4 ADD SLT PUSH2 0x217C JUMPI PUSH2 0x217B PUSH2 0x1AFB JUMP JUMPDEST JUMPDEST DUP2 CALLDATALOAD PUSH2 0x218C DUP5 DUP3 PUSH1 0x20 DUP7 ADD PUSH2 0x2127 JUMP JUMPDEST SWAP2 POP POP SWAP3 SWAP2 POP POP JUMP JUMPDEST PUSH0 DUP1 PUSH1 0x40 DUP4 DUP6 SUB SLT ISZERO PUSH2 0x21AB JUMPI PUSH2 0x21AA PUSH2 0x1AC9 JUMP JUMPDEST JUMPDEST PUSH0 DUP4 ADD CALLDATALOAD PUSH8 0xFFFFFFFFFFFFFFFF DUP2 GT ISZERO PUSH2 0x21C8 JUMPI PUSH2 0x21C7 PUSH2 0x1ACD JUMP JUMPDEST JUMPDEST PUSH2 0x21D4 DUP6 DUP3 DUP7 ADD PUSH2 0x1C0A JUMP JUMPDEST SWAP3 POP POP PUSH1 0x20 DUP4 ADD CALLDATALOAD PUSH8 0xFFFFFFFFFFFFFFFF DUP2 GT ISZERO PUSH2 0x21F5 JUMPI PUSH2 0x21F4 PUSH2 0x1ACD JUMP JUMPDEST JUMPDEST PUSH2 0x2201 DUP6 DUP3 DUP7 ADD PUSH2 0x2168 JUMP JUMPDEST SWAP2 POP POP SWAP3 POP SWAP3 SWAP1 POP JUMP JUMPDEST PUSH0 DUP2 MLOAD SWAP1 POP SWAP2 SWAP1 POP JUMP JUMPDEST PUSH0 DUP3 DUP3 MSTORE PUSH1 0x20 DUP3 ADD SWAP1 POP SWAP3 SWAP2 POP POP JUMP JUMPDEST PUSH0 PUSH2 0x222F DUP3 PUSH2 0x220B JUMP JUMPDEST PUSH2 0x2239 DUP2 DUP6 PUSH2 0x2215 JUMP JUMPDEST SWAP4 POP PUSH2 0x2249 DUP2 DUP6 PUSH1 0x20 DUP7 ADD PUSH2 0x1D5A JUMP JUMPDEST PUSH2 0x2252 DUP2 PUSH2 0x1B03 JUMP JUMPDEST DUP5 ADD SWAP2 POP POP SWAP3 SWAP2 POP POP JUMP JUMPDEST PUSH0 PUSH1 0x20 DUP3 ADD SWAP1 POP DUP2 DUP2 SUB PUSH0 DUP4 ADD MSTORE PUSH2 0x2275 DUP2 DUP5 PUSH2 0x2225 JUMP JUMPDEST SWAP1 POP SWAP3 SWAP2 POP POP JUMP JUMPDEST PUSH1 0x4 DUP2 LT PUSH2 0x2289 JUMPI PUSH0 DUP1 REVERT JUMPDEST POP JUMP JUMPDEST PUSH0 DUP2 CALLDATALOAD SWAP1 POP PUSH2 0x229A DUP2 PUSH2 0x227D JUMP JUMPDEST SWAP3 SWAP2 POP POP JUMP JUMPDEST PUSH0 PUSH1 0x20 DUP3 DUP5 SUB SLT ISZERO PUSH2 0x22B5 JUMPI PUSH2 0x22B4 PUSH2 0x1AC9 JUMP JUMPDEST JUMPDEST PUSH0 PUSH2 0x22C2 DUP5 DUP3 DUP6 ADD PUSH2 0x228C JUMP JUMPDEST SWAP2 POP POP SWAP3 SWAP2 POP POP JUMP JUMPDEST PUSH32 0x4E487B7100000000000000000000000000000000000000000000000000000000 PUSH0 MSTORE PUSH1 0x32 PUSH1 0x4 MSTORE PUSH1 0x24 PUSH0 REVERT JUMPDEST PUSH0 DUP2 SWAP1 POP SWAP3 SWAP2 POP POP JUMP JUMPDEST PUSH0 PUSH2 0x230C DUP3 PUSH2 0x1D40 JUMP JUMPDEST PUSH2 0x2316 DUP2 DUP6 PUSH2 0x22F8 JUMP JUMPDEST SWAP4 POP PUSH2 0x2326 DUP2 DUP6 PUSH1 0x20 DUP7 ADD PUSH2 0x1D5A JUMP JUMPDEST DUP1 DUP5 ADD SWAP2 POP POP SWAP3 SWAP2 POP POP JUMP JUMPDEST PUSH32 0x2C00000000000000000000000000000000000000000000000000000000000000 PUSH0 DUP3 ADD MSTORE POP JUMP JUMPDEST PUSH0 PUSH2 0x2366 PUSH1 0x1 DUP4 PUSH2 0x22F8 JUMP JUMPDEST SWAP2 POP PUSH2 0x2371 DUP3 PUSH2 0x2332 JUMP JUMPDEST PUSH1 0x1 DUP3 ADD SWAP1 POP SWAP2 SWAP1 POP JUMP JUMPDEST PUSH0 PUSH2 0x2387 DUP3 DUP10 PUSH2 0x2302 JUMP JUMPDEST SWAP2 POP PUSH2 0x2392 DUP3 PUSH2 0x235A JUMP JUMPDEST SWAP2 POP PUSH2 0x239E DUP3 DUP9 PUSH2 0x2302 JUMP JUMPDEST SWAP2 POP PUSH2 0x23A9 DUP3 PUSH2 0x235A JUMP JUMPDEST SWAP2 POP PUSH2 0x23B5 DUP3 DUP8 PUSH2 0x2302 JUMP JUMPDEST SWAP2 POP PUSH2 0x23C0 DUP3 PUSH2 0x235A JUMP JUMPDEST SWAP2 POP PUSH2 0x23CC DUP3 DUP7 PUSH2 0x2302 JUMP JUMPDEST SWAP2 POP PUSH2 0x23D7 DUP3 PUSH2 0x235A JUMP JUMPDEST SWAP2 POP PUSH2 0x23E3 DUP3 DUP6 PUSH2 0x2302 JUMP JUMPDEST SWAP2 POP PUSH2 0x23EE DUP3 PUSH2 0x235A JUMP JUMPDEST SWAP2 POP PUSH2 0x23FA DUP3 DUP5 PUSH2 0x2302 JUMP JUMPDEST SWAP2 POP DUP2 SWAP1 POP SWAP8 SWAP7 POP POP POP POP POP POP POP JUMP JUMPDEST PUSH32 0x4E487B7100000000000000000000000000000000000000000000000000000000 PUSH0 MSTORE PUSH1 0x11 PUSH1 0x4 MSTORE PUSH1 0x24 PUSH0 REVERT JUMPDEST PUSH0 PUSH2 0x2441 DUP3 PUSH2 0x1A8F JUMP JUMPDEST SWAP2 POP PUSH2 0x244C DUP4 PUSH2 0x1A8F JUMP JUMPDEST SWAP3 POP DUP3 DUP3 SUB SWAP1 POP DUP2 DUP2 GT ISZERO PUSH2 0x2464 JUMPI PUSH2 0x2463 PUSH2 0x240A JUMP JUMPDEST JUMPDEST SWAP3 SWAP2 POP POP JUMP JUMPDEST PUSH32 0x4E487B7100000000000000000000000000000000000000000000000000000000 PUSH0 MSTORE PUSH1 0x12 PUSH1 0x4 MSTORE PUSH1 0x24 PUSH0 REVERT JUMPDEST PUSH0 PUSH2 0x24A1 DUP3 PUSH2 0x1A8F JUMP JUMPDEST SWAP2 POP PUSH2 0x24AC DUP4 PUSH2 0x1A8F JUMP JUMPDEST SWAP3 POP DUP3 PUSH2 0x24BC JUMPI PUSH2 0x24BB PUSH2 0x246A JUMP JUMPDEST JUMPDEST DUP3 DUP3 DIV SWAP1 POP SWAP3 SWAP2 POP POP JUMP JUMPDEST PUSH0 PUSH2 0x24D1 DUP3 PUSH2 0x1A8F JUMP JUMPDEST SWAP2 POP PUSH2 0x24DC DUP4 PUSH2 0x1A8F JUMP JUMPDEST SWAP3 POP DUP3 DUP3 MUL PUSH2 0x24EA DUP2 PUSH2 0x1A8F JUMP JUMPDEST SWAP2 POP DUP3 DUP3 DIV DUP5 EQ DUP4 ISZERO OR PUSH2 0x2501 JUMPI PUSH2 0x2500 PUSH2 0x240A JUMP JUMPDEST JUMPDEST POP SWAP3 SWAP2 POP POP JUMP JUMPDEST PUSH0 PUSH2 0x2512 DUP3 PUSH2 0x1A8F JUMP JUMPDEST SWAP2 POP PUSH2 0x251D DUP4 PUSH2 0x1A8F JUMP JUMPDEST SWAP3 POP DUP3 DUP3 ADD SWAP1 POP DUP1 DUP3 GT ISZERO PUSH2 0x2535 JUMPI PUSH2 0x2534 PUSH2 0x240A JUMP JUMPDEST JUMPDEST SWAP3 SWAP2 POP POP JUMP JUMPDEST PUSH32 0x4E487B7100000000000000000000000000000000000000000000000000000000 PUSH0 MSTORE PUSH1 0x22 PUSH1 0x4 MSTORE PUSH1 0x24 PUSH0 REVERT JUMPDEST PUSH0 PUSH1 0x2 DUP3 DIV SWAP1 POP PUSH1 0x1 DUP3 AND DUP1 PUSH2 0x257F JUMPI PUSH1 0x7F DUP3 AND SWAP2 POP JUMPDEST PUSH1 0x20 DUP3 LT DUP2 SUB PUSH2 0x2592 JUMPI PUSH2 0x2591 PUSH2 0x253B JUMP JUMPDEST JUMPDEST POP SWAP2 SWAP1 POP JUMP JUMPDEST PUSH0 PUSH2 0x25A2 DUP3 PUSH2 0x1A8F JUMP JUMPDEST SWAP2 POP PUSH32 0xFFFFFFFFFFFFFFFFFFFFFFFFFFFFFFFFFFFFFFFFFFFFFFFFFFFFFFFFFFFFFFFF DUP3 SUB PUSH2 0x25D4 JUMPI PUSH2 0x25D3 PUSH2 0x240A JUMP JUMPDEST JUMPDEST PUSH1 0x1 DUP3 ADD SWAP1 POP SWAP2 SWAP1 POP JUMP JUMPDEST PUSH0 DUP2 SWAP1 POP SWAP2 SWAP1 POP JUMP JUMPDEST PUSH0 PUSH2 0x25F2 DUP3 PUSH2 0x25DF JUMP JUMPDEST SWAP2 POP PUSH32 0x8000000000000000000000000000000000000000000000000000000000000000 DUP3 SUB PUSH2 0x2624 JUMPI PUSH2 0x2623 PUSH2 0x240A JUMP JUMPDEST JUMPDEST PUSH1 0x1 DUP3 SUB SWAP1 POP SWAP2 SWAP1 POP JUMP JUMPDEST PUSH0 PUSH2 0x263A DUP3 DUP5 PUSH2 0x2302 JUMP JUMPDEST SWAP2 POP DUP2 SWAP1 POP SWAP3 SWAP2 POP POP JUMP JUMPDEST PUSH0 DUP2 MLOAD SWAP1 POP PUSH2 0x2653 DUP2 PUSH2 0x1AD1 JUMP JUMPDEST SWAP3 SWAP2 POP POP JUMP JUMPDEST PUSH0 PUSH1 0x20 DUP3 DUP5 SUB SLT ISZERO PUSH2 0x266E JUMPI PUSH2 0x266D PUSH2 0x1AC9 JUMP JUMPDEST JUMPDEST PUSH0 PUSH2 0x267B DUP5 DUP3 DUP6 ADD PUSH2 0x2645 JUMP JUMPDEST SWAP2 POP POP SWAP3 SWAP2 POP POP JUMP JUMPDEST PUSH2 0x268D DUP2 PUSH2 0x1C56 JUMP JUMPDEST DUP3 MSTORE POP POP JUMP JUMPDEST PUSH0 PUSH1 0x80 DUP3 ADD SWAP1 POP PUSH2 0x26A6 PUSH0 DUP4 ADD DUP8 PUSH2 0x1A98 JUMP JUMPDEST PUSH2 0x26B3 PUSH1 0x20 DUP4 ADD DUP7 PUSH2 0x1A98 JUMP JUMPDEST DUP2 DUP2 SUB PUSH1 0x40 DUP4 ADD MSTORE PUSH2 0x26C5 DUP2 DUP6 PUSH2 0x1D82 JUMP JUMPDEST SWAP1 POP PUSH2 0x26D4 PUSH1 0x60 DUP4 ADD DUP5 PUSH2 0x2684 JUMP JUMPDEST SWAP6 SWAP5 POP POP POP POP POP JUMP JUMPDEST PUSH0 DUP1 PUSH0 PUSH1 0x60 DUP5 DUP7 SUB SLT ISZERO PUSH2 0x26F4 JUMPI PUSH2 0x26F3 PUSH2 0x1AC9 JUMP JUMPDEST JUMPDEST PUSH0 PUSH2 0x2701 DUP7 DUP3 DUP8 ADD PUSH2 0x2645 JUMP JUMPDEST SWAP4 POP POP PUSH1 0x20 PUSH2 0x2712 DUP7 DUP3 DUP8 ADD PUSH2 0x2645 JUMP JUMPDEST SWAP3 POP POP PUSH1 0x40 PUSH2 0x2723 DUP7 DUP3 DUP8 ADD PUSH2 0x2645 JUMP JUMPDEST SWAP2 POP POP SWAP3 POP SWAP3 POP SWAP3 JUMP JUMPDEST PUSH0 PUSH2 0x2737 DUP3 PUSH2 0x1C37 JUMP JUMPDEST SWAP1 POP SWAP2 SWAP1 POP JUMP JUMPDEST PUSH2 0x2747 DUP2 PUSH2 0x272D JUMP JUMPDEST DUP2 EQ PUSH2 0x2751 JUMPI PUSH0 DUP1 REVERT JUMPDEST POP JUMP JUMPDEST PUSH0 DUP2 MLOAD SWAP1 POP PUSH2 0x2762 DUP2 PUSH2 0x273E JUMP JUMPDEST SWAP3 SWAP2 POP POP JUMP JUMPDEST PUSH0 DUP1 PUSH0 PUSH1 0x60 DUP5 DUP7 SUB SLT ISZERO PUSH2 0x277F JUMPI PUSH2 0x277E PUSH2 0x1AC9 JUMP JUMPDEST JUMPDEST PUSH0 PUSH2 0x278C DUP7 DUP3 DUP8 ADD PUSH2 0x2754 JUMP JUMPDEST SWAP4 POP POP PUSH1 0x20 PUSH2 0x279D DUP7 DUP3 DUP8 ADD PUSH2 0x2645 JUMP JUMPDEST SWAP3 POP POP PUSH1 0x40 PUSH2 0x27AE DUP7 DUP3 DUP8 ADD PUSH2 0x2645 JUMP JUMPDEST SWAP2 POP POP SWAP3 POP SWAP3 POP SWAP3 JUMP JUMPDEST POP JUMP JUMPDEST PUSH0 PUSH2 0x27C6 PUSH0 DUP4 PUSH2 0x1D4A JUMP JUMPDEST SWAP2 POP PUSH2 0x27D1 DUP3 PUSH2 0x27B8 JUMP JUMPDEST PUSH0 DUP3 ADD SWAP1 POP SWAP2 SWAP1 POP JUMP JUMPDEST PUSH0 PUSH1 0x20 DUP3 ADD SWAP1 POP DUP2 DUP2 SUB PUSH0 DUP4 ADD MSTORE PUSH2 0x27F2 DUP2 PUSH2 0x27BB JUMP JUMPDEST SWAP1 POP SWAP2 SWAP1 POP JUMP JUMPDEST PUSH0 PUSH2 0x280B PUSH2 0x2806 DUP5 PUSH2 0x1B8B JUMP JUMPDEST PUSH2 0x1B71 JUMP JUMPDEST SWAP1 POP DUP3 DUP2 MSTORE PUSH1 0x20 DUP2 ADD DUP5 DUP5 DUP5 ADD GT ISZERO PUSH2 0x2827 JUMPI PUSH2 0x2826 PUSH2 0x1AFF JUMP JUMPDEST JUMPDEST PUSH2 0x2832 DUP5 DUP3 DUP6 PUSH2 0x1D5A JUMP JUMPDEST POP SWAP4 SWAP3 POP POP POP JUMP JUMPDEST PUSH0 DUP3 PUSH1 0x1F DUP4 ADD SLT PUSH2 0x284E JUMPI PUSH2 0x284D PUSH2 0x1AFB JUMP JUMPDEST JUMPDEST DUP2 MLOAD PUSH2 0x285E DUP5 DUP3 PUSH1 0x20 DUP7 ADD PUSH2 0x27F9 JUMP JUMPDEST SWAP2 POP POP SWAP3 SWAP2 POP POP JUMP JUMPDEST PUSH0 DUP1 PUSH0 PUSH1 0x60 DUP5 DUP7 SUB SLT ISZERO PUSH2 0x287E JUMPI PUSH2 0x287D PUSH2 0x1AC9 JUMP JUMPDEST JUMPDEST PUSH0 PUSH2 0x288B DUP7 DUP3 DUP8 ADD PUSH2 0x2645 JUMP JUMPDEST SWAP4 POP POP PUSH1 0x20 DUP5 ADD MLOAD PUSH8 0xFFFFFFFFFFFFFFFF DUP2 GT ISZERO PUSH2 0x28AC JUMPI PUSH2 0x28AB PUSH2 0x1ACD JUMP JUMPDEST JUMPDEST PUSH2 0x28B8 DUP7 DUP3 DUP8 ADD PUSH2 0x283A JUMP JUMPDEST SWAP3 POP POP PUSH1 0x40 DUP5 ADD MLOAD PUSH8 0xFFFFFFFFFFFFFFFF DUP2 GT ISZERO PUSH2 0x28D9 JUMPI PUSH2 0x28D8 PUSH2 0x1ACD JUMP JUMPDEST JUMPDEST PUSH2 0x28E5 DUP7 DUP3 DUP8 ADD PUSH2 0x283A JUMP JUMPDEST SWAP2 POP POP SWAP3 POP SWAP3 POP SWAP3 JUMP JUMPDEST PUSH0 DUP2 SWAP1 POP DUP2 PUSH0 MSTORE PUSH1 0x20 PUSH0 KECCAK256 SWAP1 POP SWAP2 SWAP1 POP JUMP JUMPDEST PUSH0 PUSH1 0x20 PUSH1 0x1F DUP4 ADD DIV SWAP1 POP SWAP2 SWAP1 POP JUMP JUMPDEST PUSH0 DUP3 DUP3 SHL SWAP1 POP SWAP3 SWAP2 POP POP JUMP JUMPDEST PUSH0 PUSH1 0x8 DUP4 MUL PUSH2 0x294B PUSH32 0xFFFFFFFFFFFFFFFFFFFFFFFFFFFFFFFFFFFFFFFFFFFFFFFFFFFFFFFFFFFFFFFF DUP3 PUSH2 0x2910 JUMP JUMPDEST PUSH2 0x2955 DUP7 DUP4 PUSH2 0x2910 JUMP JUMPDEST SWAP6 POP DUP1 NOT DUP5 AND SWAP4 POP DUP1 DUP7 AND DUP5 OR SWAP3 POP POP POP SWAP4 SWAP3 POP POP POP JUMP JUMPDEST PUSH0 DUP2 SWAP1 POP SWAP2 SWAP1 POP JUMP JUMPDEST PUSH0 PUSH2 0x2990 PUSH2 0x298B PUSH2 0x2986 DUP5 PUSH2 0x1A8F JUMP JUMPDEST PUSH2 0x296D JUMP JUMPDEST PUSH2 0x1A8F JUMP JUMPDEST SWAP1 POP SWAP2 SWAP1 POP JUMP JUMPDEST PUSH0 DUP2 SWAP1 POP SWAP2 SWAP1 POP JUMP JUMPDEST PUSH2 0x29A9 DUP4 PUSH2 0x2976 JUMP JUMPDEST PUSH2 0x29BD PUSH2 0x29B5 DUP3 PUSH2 0x2997 JUMP JUMPDEST DUP5 DUP5 SLOAD PUSH2 0x291C JUMP JUMPDEST DUP3 SSTORE POP POP POP POP JUMP JUMPDEST PUSH0 SWAP1 JUMP JUMPDEST PUSH2 0x29D1 PUSH2 0x29C5 JUMP JUMPDEST PUSH2 0x29DC DUP2 DUP5 DUP5 PUSH2 0x29A0 JUMP JUMPDEST POP POP POP JUMP JUMPDEST JUMPDEST DUP2 DUP2 LT ISZERO PUSH2 0x29FF JUMPI PUSH2 0x29F4 PUSH0 DUP3 PUSH2 0x29C9 JUMP JUMPDEST PUSH1 0x1 DUP2 ADD SWAP1 POP PUSH2 0x29E2 JUMP JUMPDEST POP POP JUMP JUMPDEST PUSH1 0x1F DUP3 GT ISZERO PUSH2 0x2A44 JUMPI PUSH2 0x2A15 DUP2 PUSH2 0x28EF JUMP JUMPDEST PUSH2 0x2A1E DUP5 PUSH2 0x2901 JUMP JUMPDEST DUP2 ADD PUSH1 0x20 DUP6 LT ISZERO PUSH2 0x2A2D JUMPI DUP2 SWAP1 POP JUMPDEST PUSH2 0x2A41 PUSH2 0x2A39 DUP6 PUSH2 0x2901 JUMP JUMPDEST DUP4 ADD DUP3 PUSH2 0x29E1 JUMP JUMPDEST POP POP JUMPDEST POP POP POP JUMP JUMPDEST PUSH0 DUP3 DUP3 SHR SWAP1 POP SWAP3 SWAP2 POP POP JUMP JUMPDEST PUSH0 PUSH2 0x2A64 PUSH0 NOT DUP5 PUSH1 0x8 MUL PUSH2 0x2A49 JUMP JUMPDEST NOT DUP1 DUP4 AND SWAP2 POP POP SWAP3 SWAP2 POP POP JUMP JUMPDEST PUSH0 PUSH2 0x2A7C DUP4 DUP4 PUSH2 0x2A55 JUMP JUMPDEST SWAP2 POP DUP3 PUSH1 0x2 MUL DUP3 OR SWAP1 POP SWAP3 SWAP2 POP POP JUMP JUMPDEST PUSH2 0x2A95 DUP3 PUSH2 0x1D40 JUMP JUMPDEST PUSH8 0xFFFFFFFFFFFFFFFF DUP2 GT ISZERO PUSH2 0x2AAE JUMPI PUSH2 0x2AAD PUSH2 0x1B13 JUMP JUMPDEST JUMPDEST PUSH2 0x2AB8 DUP3 SLOAD PUSH2 0x2568 JUMP JUMPDEST PUSH2 0x2AC3 DUP3 DUP3 DUP6 PUSH2 0x2A03 JUMP JUMPDEST PUSH0 PUSH1 0x20 SWAP1 POP PUSH1 0x1F DUP4 GT PUSH1 0x1 DUP2 EQ PUSH2 0x2AF4 JUMPI PUSH0 DUP5 ISZERO PUSH2 0x2AE2 JUMPI DUP3 DUP8 ADD MLOAD SWAP1 POP JUMPDEST PUSH2 0x2AEC DUP6 DUP3 PUSH2 0x2A71 JUMP JUMPDEST DUP7 SSTORE POP PUSH2 0x2B53 JUMP JUMPDEST PUSH1 0x1F NOT DUP5 AND PUSH2 0x2B02 DUP7 PUSH2 0x28EF JUMP JUMPDEST PUSH0 JUMPDEST DUP3 DUP2 LT ISZERO PUSH2 0x2B29 JUMPI DUP5 DUP10 ADD MLOAD DUP3 SSTORE PUSH1 0x1 DUP3 ADD SWAP2 POP PUSH1 0x20 DUP6 ADD SWAP5 POP PUSH1 0x20 DUP2 ADD SWAP1 POP PUSH2 0x2B04 JUMP JUMPDEST DUP7 DUP4 LT ISZERO PUSH2 0x2B46 JUMPI DUP5 DUP10 ADD MLOAD PUSH2 0x2B42 PUSH1 0x1F DUP10 AND DUP3 PUSH2 0x2A55 JUMP JUMPDEST DUP4 SSTORE POP JUMPDEST PUSH1 0x1 PUSH1 0x2 DUP9 MUL ADD DUP9 SSTORE POP POP POP JUMPDEST POP POP POP POP POP POP JUMP JUMPDEST PUSH0 PUSH1 0x40 DUP3 ADD SWAP1 POP DUP2 DUP2 SUB PUSH0 DUP4 ADD MSTORE PUSH2 0x2B73 DUP2 DUP6 PUSH2 0x1D82 JUMP JUMPDEST SWAP1 POP DUP2 DUP2 SUB PUSH1 0x20 DUP4 ADD MSTORE PUSH2 0x2B87 DUP2 DUP5 PUSH2 0x2225 JUMP JUMPDEST SWAP1 POP SWAP4 SWAP3 POP POP POP JUMP JUMPDEST PUSH0 PUSH2 0x2B9A DUP3 PUSH2 0x1A8F JUMP JUMPDEST SWAP2 POP PUSH2 0x2BA5 DUP4 PUSH2 0x1A8F JUMP JUMPDEST SWAP3 POP DUP3 PUSH2 0x2BB5 JUMPI PUSH2 0x2BB4 PUSH2 0x246A JUMP JUMPDEST JUMPDEST DUP3 DUP3 MOD SWAP1 POP SWAP3 SWAP2 POP POP JUMP JUMPDEST PUSH0 PUSH2 0x2BCA DUP3 PUSH2 0x1A8F JUMP JUMPDEST SWAP2 POP PUSH0 DUP3 SUB PUSH2 0x2BDC JUMPI PUSH2 0x2BDB PUSH2 0x240A JUMP JUMPDEST JUMPDEST PUSH1 0x1 DUP3 SUB SWAP1 POP SWAP2 SWAP1 POP JUMP JUMPDEST PUSH32 0x537472696E67733A20686578206C656E67746820696E73756666696369656E74 PUSH0 DUP3 ADD MSTORE POP JUMP JUMPDEST PUSH0 PUSH2 0x2C1B PUSH1 0x20 DUP4 PUSH2 0x1D4A JUMP JUMPDEST SWAP2 POP PUSH2 0x2C26 DUP3 PUSH2 0x2BE7 JUMP JUMPDEST PUSH1 0x20 DUP3 ADD SWAP1 POP SWAP2 SWAP1 POP JUMP JUMPDEST PUSH0 PUSH1 0x20 DUP3 ADD SWAP1 POP DUP2 DUP2 SUB PUSH0 DUP4 ADD MSTORE PUSH2 0x2C48 DUP2 PUSH2 0x2C0F JUMP JUMPDEST SWAP1 POP SWAP2 SWAP1 POP JUMP INVALID COINBASE TIMESTAMP NUMBER PREVRANDAO GASLIMIT CHAINID SELFBALANCE BASEFEE 0x49 0x4A 0x4B 0x4C 0x4D 0x4E 0x4F POP MLOAD MSTORE MSTORE8 SLOAD SSTORE JUMP JUMPI PC MSIZE GAS PUSH2 0x6263 PUSH5 0x6566676869 PUSH11 0x6B6C6D6E6F707172737475 PUSH23 0x7778797A303132333435363738392B2FA2646970667358 0x22 SLT KECCAK256 DUP4 0x23 PUSH32 0xCEB28ADACEFA8E1BC2C6E56D3AF452E7D351A59FE07AFC09D44D005D464736F PUSH13 0x63430008160033000000000000 "
		},
		"gasEstimates": {
			"creation": {
				"codeDepositCost": "2292200",
				"executionCost": "infinite",
				"totalCost": "infinite"
			},
			"external": {
				"commentIds()": "2448",
				"generateBase64(uint256,uint256,string,string,address)": "infinite",
				"get(string,bytes)": "infinite",
				"getComments(uint256,uint256,uint256)": "infinite",
				"getCommentsByAddress(address,uint256,uint256)": "infinite",
				"getMethodReqAndRes(string)": "infinite",
				"getMethods(uint8)": "infinite",
				"options()": "infinite",
				"post(string,bytes)": "infinite",
				"put(string,bytes)": "infinite"
			},
			"internal": {
				"compareStrings(string memory,string memory)": "infinite",
				"setMethod(string memory,enum IComponent.MethodTypes,enum Types.Type[] memory,enum Types.Type[] memory)": "infinite"
			}
		},
		"methodIdentifiers": {
			"commentIds()": "3e413065",
			"generateBase64(uint256,uint256,string,string,address)": "3eae02b3",
			"get(string,bytes)": "aff62745",
			"getComments(uint256,uint256,uint256)": "6818ba1d",
			"getCommentsByAddress(address,uint256,uint256)": "44237454",
			"getMethodReqAndRes(string)": "458ad6d4",
			"getMethods(uint8)": "f4856ccb",
			"options()": "1069143a",
			"post(string,bytes)": "b6ae0425",
			"put(string,bytes)": "e9536472"
		}
	},
	"abi": [
		{
			"inputs": [],
			"stateMutability": "nonpayable",
			"type": "constructor"
		},
		{
			"anonymous": false,
			"inputs": [
				{
					"indexed": false,
					"internalType": "bytes",
					"name": "_response",
					"type": "bytes"
				}
			],
			"name": "Response",
			"type": "event"
		},
		{
			"inputs": [],
			"name": "commentIds",
			"outputs": [
				{
					"internalType": "uint256",
					"name": "",
					"type": "uint256"
				}
			],
			"stateMutability": "view",
			"type": "function"
		},
		{
			"inputs": [
				{
					"internalType": "uint256",
					"name": "_vibeId",
					"type": "uint256"
				},
				{
					"internalType": "uint256",
					"name": "_commentId",
					"type": "uint256"
				},
				{
					"internalType": "string",
					"name": "_content",
					"type": "string"
				},
				{
					"internalType": "string",
					"name": "_resources",
					"type": "string"
				},
				{
					"internalType": "address",
					"name": "_user",
					"type": "address"
				}
			],
			"name": "generateBase64",
			"outputs": [
				{
					"internalType": "string",
					"name": "",
					"type": "string"
				}
			],
			"stateMutability": "view",
			"type": "function"
		},
		{
			"inputs": [
				{
					"internalType": "string",
					"name": "_methodName",
					"type": "string"
				},
				{
					"internalType": "bytes",
					"name": "_methodReq",
					"type": "bytes"
				}
			],
			"name": "get",
			"outputs": [
				{
					"internalType": "bytes",
					"name": "",
					"type": "bytes"
				}
			],
			"stateMutability": "view",
			"type": "function"
		},
		{
			"inputs": [
				{
					"internalType": "uint256",
					"name": "_vibeId",
					"type": "uint256"
				},
				{
					"internalType": "uint256",
					"name": "_pageNum",
					"type": "uint256"
				},
				{
					"internalType": "uint256",
					"name": "_pageSize",
					"type": "uint256"
				}
			],
			"name": "getComments",
			"outputs": [
				{
					"internalType": "string[]",
					"name": "",
					"type": "string[]"
				}
			],
			"stateMutability": "view",
			"type": "function"
		},
		{
			"inputs": [
				{
					"internalType": "address",
					"name": "_user",
					"type": "address"
				},
				{
					"internalType": "uint256",
					"name": "_pageNum",
					"type": "uint256"
				},
				{
					"internalType": "uint256",
					"name": "_pageSize",
					"type": "uint256"
				}
			],
			"name": "getCommentsByAddress",
			"outputs": [
				{
					"internalType": "string[]",
					"name": "",
					"type": "string[]"
				}
			],
			"stateMutability": "view",
			"type": "function"
		},
		{
			"inputs": [
				{
					"internalType": "string",
					"name": "_methodName",
					"type": "string"
				}
			],
			"name": "getMethodReqAndRes",
			"outputs": [
				{
					"internalType": "enum Types.Type[]",
					"name": "",
					"type": "uint8[]"
				},
				{
					"internalType": "enum Types.Type[]",
					"name": "",
					"type": "uint8[]"
				}
			],
			"stateMutability": "view",
			"type": "function"
		},
		{
			"inputs": [
				{
					"internalType": "enum IComponent.MethodTypes",
					"name": "_methodTypes",
					"type": "uint8"
				}
			],
			"name": "getMethods",
			"outputs": [
				{
					"internalType": "string[]",
					"name": "",
					"type": "string[]"
				}
			],
			"stateMutability": "view",
			"type": "function"
		},
		{
			"inputs": [],
			"name": "options",
			"outputs": [
				{
					"internalType": "enum IComponent.MethodTypes[]",
					"name": "",
					"type": "uint8[]"
				}
			],
			"stateMutability": "pure",
			"type": "function"
		},
		{
			"inputs": [
				{
					"internalType": "string",
					"name": "_methodName",
					"type": "string"
				},
				{
					"internalType": "bytes",
					"name": "_methodReq",
					"type": "bytes"
				}
			],
			"name": "post",
			"outputs": [
				{
					"internalType": "bytes",
					"name": "",
					"type": "bytes"
				}
			],
			"stateMutability": "payable",
			"type": "function"
		},
		{
			"inputs": [
				{
					"internalType": "string",
					"name": "_methodName",
					"type": "string"
				},
				{
					"internalType": "bytes",
					"name": "_methodReq",
					"type": "bytes"
				}
			],
			"name": "put",
			"outputs": [
				{
					"internalType": "bytes",
					"name": "",
					"type": "bytes"
				}
			],
			"stateMutability": "payable",
			"type": "function"
		}
	]
}