{
	"contracts/AmeComponents/Vibe/VibeTest.sol": {
		"StringEscape": {
			"abi": [
				{
					"inputs": [
						{
							"internalType": "string",
							"name": "input",
							"type": "string"
						}
					],
					"name": "escapeString",
					"outputs": [
						{
							"internalType": "string",
							"name": "",
							"type": "string"
						}
					],
					"stateMutability": "pure",
					"type": "function"
				}
			],
			"devdoc": {
				"kind": "dev",
				"methods": {},
				"version": 1
			},
			"evm": {
				"assembly": "    /* \"contracts/AmeComponents/Vibe/VibeTest.sol\":57:989  contract StringEscape {... */\n  mstore(0x40, 0x80)\n  callvalue\n  dup1\n  iszero\n  tag_1\n  jumpi\n  0x00\n  dup1\n  revert\ntag_1:\n  pop\n  dataSize(sub_0)\n  dup1\n  dataOffset(sub_0)\n  0x00\n  codecopy\n  0x00\n  return\nstop\n\nsub_0: assembly {\n        /* \"contracts/AmeComponents/Vibe/VibeTest.sol\":57:989  contract StringEscape {... */\n      mstore(0x40, 0x80)\n      callvalue\n      dup1\n      iszero\n      tag_1\n      jumpi\n      0x00\n      dup1\n      revert\n    tag_1:\n      pop\n      jumpi(tag_2, lt(calldatasize, 0x04))\n      shr(0xe0, calldataload(0x00))\n      dup1\n      0xac79f961\n      eq\n      tag_3\n      jumpi\n    tag_2:\n      0x00\n      dup1\n      revert\n        /* \"contracts/AmeComponents/Vibe/VibeTest.sol\":85:987  function escapeString(string memory input) public pure returns (string memory) {... */\n    tag_3:\n      tag_4\n      0x04\n      dup1\n      calldatasize\n      sub\n      dup2\n      add\n      swap1\n      tag_5\n      swap2\n      swap1\n      tag_6\n      jump\t// in\n    tag_5:\n      tag_7\n      jump\t// in\n    tag_4:\n      mload(0x40)\n      tag_8\n      swap2\n      swap1\n      tag_9\n      jump\t// in\n    tag_8:\n      mload(0x40)\n      dup1\n      swap2\n      sub\n      swap1\n      return\n    tag_7:\n        /* \"contracts/AmeComponents/Vibe/VibeTest.sol\":149:162  string memory */\n      0x60\n        /* \"contracts/AmeComponents/Vibe/VibeTest.sol\":174:197  bytes memory inputBytes */\n      0x00\n        /* \"contracts/AmeComponents/Vibe/VibeTest.sol\":206:211  input */\n      dup3\n        /* \"contracts/AmeComponents/Vibe/VibeTest.sol\":174:212  bytes memory inputBytes = bytes(input) */\n      swap1\n      pop\n        /* \"contracts/AmeComponents/Vibe/VibeTest.sol\":222:247  bytes memory escapedBytes */\n      0x00\n        /* \"contracts/AmeComponents/Vibe/VibeTest.sol\":280:281  2 */\n      0x02\n        /* \"contracts/AmeComponents/Vibe/VibeTest.sol\":260:270  inputBytes */\n      dup3\n        /* \"contracts/AmeComponents/Vibe/VibeTest.sol\":260:277  inputBytes.length */\n      mload\n        /* \"contracts/AmeComponents/Vibe/VibeTest.sol\":260:281  inputBytes.length * 2 */\n      tag_11\n      swap2\n      swap1\n      tag_12\n      jump\t// in\n    tag_11:\n        /* \"contracts/AmeComponents/Vibe/VibeTest.sol\":250:282  new bytes(inputBytes.length * 2) */\n      0xffffffffffffffff\n      dup2\n      gt\n      iszero\n      tag_13\n      jumpi\n      tag_14\n      tag_15\n      jump\t// in\n    tag_14:\n    tag_13:\n      mload(0x40)\n      swap1\n      dup1\n      dup3\n      mstore\n      dup1\n      0x1f\n      add\n      not(0x1f)\n      and\n      0x20\n      add\n      dup3\n      add\n      0x40\n      mstore\n      dup1\n      iszero\n      tag_16\n      jumpi\n      dup2\n      0x20\n      add\n      0x01\n      dup3\n      mul\n      dup1\n      calldatasize\n      dup4\n      calldatacopy\n      dup1\n      dup3\n      add\n      swap2\n      pop\n      pop\n      swap1\n      pop\n    tag_16:\n      pop\n        /* \"contracts/AmeComponents/Vibe/VibeTest.sol\":222:282  bytes memory escapedBytes = new bytes(inputBytes.length * 2) */\n      swap1\n      pop\n        /* \"contracts/AmeComponents/Vibe/VibeTest.sol\":320:326  uint j */\n      0x00\n        /* \"contracts/AmeComponents/Vibe/VibeTest.sol\":346:352  uint i */\n      dup1\n        /* \"contracts/AmeComponents/Vibe/VibeTest.sol\":341:781  for (uint i = 0; i < inputBytes.length; i++) {... */\n    tag_17:\n        /* \"contracts/AmeComponents/Vibe/VibeTest.sol\":362:372  inputBytes */\n      dup4\n        /* \"contracts/AmeComponents/Vibe/VibeTest.sol\":362:379  inputBytes.length */\n      mload\n        /* \"contracts/AmeComponents/Vibe/VibeTest.sol\":358:359  i */\n      dup2\n        /* \"contracts/AmeComponents/Vibe/VibeTest.sol\":358:379  i < inputBytes.length */\n      lt\n        /* \"contracts/AmeComponents/Vibe/VibeTest.sol\":341:781  for (uint i = 0; i < inputBytes.length; i++) {... */\n      iszero\n      tag_18\n      jumpi\n        /* \"contracts/AmeComponents/Vibe/VibeTest.sol\":400:418  bytes1 currentChar */\n      0x00\n        /* \"contracts/AmeComponents/Vibe/VibeTest.sol\":421:431  inputBytes */\n      dup5\n        /* \"contracts/AmeComponents/Vibe/VibeTest.sol\":432:433  i */\n      dup3\n        /* \"contracts/AmeComponents/Vibe/VibeTest.sol\":421:434  inputBytes[i] */\n      dup2\n      mload\n      dup2\n      lt\n      tag_20\n      jumpi\n      tag_21\n      tag_22\n      jump\t// in\n    tag_21:\n    tag_20:\n      0x20\n      add\n      add\n      mload\n      0xf8\n      shr\n      0xf8\n      shl\n        /* \"contracts/AmeComponents/Vibe/VibeTest.sol\":400:434  bytes1 currentChar = inputBytes[i] */\n      swap1\n      pop\n        /* \"contracts/AmeComponents/Vibe/VibeTest.sol\":453:471  currentChar == '\"' */\n      0x2200000000000000000000000000000000000000000000000000000000000000\n        /* \"contracts/AmeComponents/Vibe/VibeTest.sol\":453:464  currentChar */\n      dup2\n        /* \"contracts/AmeComponents/Vibe/VibeTest.sol\":453:471  currentChar == '\"' */\n      not(0xffffffffffffffffffffffffffffffffffffffffffffffffffffffffffffff)\n      and\n      sub\n        /* \"contracts/AmeComponents/Vibe/VibeTest.sol\":449:771  if (currentChar == '\"') {... */\n      tag_23\n      jumpi\n        /* \"contracts/AmeComponents/Vibe/VibeTest.sol\":491:515  escapedBytes[j++] = '\\\\' */\n      0x5c00000000000000000000000000000000000000000000000000000000000000\n        /* \"contracts/AmeComponents/Vibe/VibeTest.sol\":491:503  escapedBytes */\n      dup5\n        /* \"contracts/AmeComponents/Vibe/VibeTest.sol\":504:507  j++ */\n      dup5\n      dup1\n      tag_24\n      swap1\n      tag_25\n      jump\t// in\n    tag_24:\n      swap6\n      pop\n        /* \"contracts/AmeComponents/Vibe/VibeTest.sol\":491:508  escapedBytes[j++] */\n      dup2\n      mload\n      dup2\n      lt\n      tag_26\n      jumpi\n      tag_27\n      tag_22\n      jump\t// in\n    tag_27:\n    tag_26:\n      0x20\n      add\n      add\n        /* \"contracts/AmeComponents/Vibe/VibeTest.sol\":491:515  escapedBytes[j++] = '\\\\' */\n      swap1\n      not(0xffffffffffffffffffffffffffffffffffffffffffffffffffffffffffffff)\n      and\n      swap1\n      dup2\n      0x00\n      byte\n      swap1\n      mstore8\n      pop\n        /* \"contracts/AmeComponents/Vibe/VibeTest.sol\":533:556  escapedBytes[j++] = '\"' */\n      0x2200000000000000000000000000000000000000000000000000000000000000\n        /* \"contracts/AmeComponents/Vibe/VibeTest.sol\":533:545  escapedBytes */\n      dup5\n        /* \"contracts/AmeComponents/Vibe/VibeTest.sol\":546:549  j++ */\n      dup5\n      dup1\n      tag_28\n      swap1\n      tag_25\n      jump\t// in\n    tag_28:\n      swap6\n      pop\n        /* \"contracts/AmeComponents/Vibe/VibeTest.sol\":533:550  escapedBytes[j++] */\n      dup2\n      mload\n      dup2\n      lt\n      tag_29\n      jumpi\n      tag_30\n      tag_22\n      jump\t// in\n    tag_30:\n    tag_29:\n      0x20\n      add\n      add\n        /* \"contracts/AmeComponents/Vibe/VibeTest.sol\":533:556  escapedBytes[j++] = '\"' */\n      swap1\n      not(0xffffffffffffffffffffffffffffffffffffffffffffffffffffffffffffff)\n      and\n      swap1\n      dup2\n      0x00\n      byte\n      swap1\n      mstore8\n      pop\n        /* \"contracts/AmeComponents/Vibe/VibeTest.sol\":449:771  if (currentChar == '\"') {... */\n      jump(tag_31)\n    tag_23:\n        /* \"contracts/AmeComponents/Vibe/VibeTest.sol\":581:600  currentChar == '\\\\' */\n      0x5c00000000000000000000000000000000000000000000000000000000000000\n        /* \"contracts/AmeComponents/Vibe/VibeTest.sol\":581:592  currentChar */\n      dup2\n        /* \"contracts/AmeComponents/Vibe/VibeTest.sol\":581:600  currentChar == '\\\\' */\n      not(0xffffffffffffffffffffffffffffffffffffffffffffffffffffffffffffff)\n      and\n      sub\n        /* \"contracts/AmeComponents/Vibe/VibeTest.sol\":577:771  if (currentChar == '\\\\') {... */\n      tag_32\n      jumpi\n        /* \"contracts/AmeComponents/Vibe/VibeTest.sol\":620:644  escapedBytes[j++] = '\\\\' */\n      0x5c00000000000000000000000000000000000000000000000000000000000000\n        /* \"contracts/AmeComponents/Vibe/VibeTest.sol\":620:632  escapedBytes */\n      dup5\n        /* \"contracts/AmeComponents/Vibe/VibeTest.sol\":633:636  j++ */\n      dup5\n      dup1\n      tag_33\n      swap1\n      tag_25\n      jump\t// in\n    tag_33:\n      swap6\n      pop\n        /* \"contracts/AmeComponents/Vibe/VibeTest.sol\":620:637  escapedBytes[j++] */\n      dup2\n      mload\n      dup2\n      lt\n      tag_34\n      jumpi\n      tag_35\n      tag_22\n      jump\t// in\n    tag_35:\n    tag_34:\n      0x20\n      add\n      add\n        /* \"contracts/AmeComponents/Vibe/VibeTest.sol\":620:644  escapedBytes[j++] = '\\\\' */\n      swap1\n      not(0xffffffffffffffffffffffffffffffffffffffffffffffffffffffffffffff)\n      and\n      swap1\n      dup2\n      0x00\n      byte\n      swap1\n      mstore8\n      pop\n        /* \"contracts/AmeComponents/Vibe/VibeTest.sol\":662:686  escapedBytes[j++] = '\\\\' */\n      0x5c00000000000000000000000000000000000000000000000000000000000000\n        /* \"contracts/AmeComponents/Vibe/VibeTest.sol\":662:674  escapedBytes */\n      dup5\n        /* \"contracts/AmeComponents/Vibe/VibeTest.sol\":675:678  j++ */\n      dup5\n      dup1\n      tag_36\n      swap1\n      tag_25\n      jump\t// in\n    tag_36:\n      swap6\n      pop\n        /* \"contracts/AmeComponents/Vibe/VibeTest.sol\":662:679  escapedBytes[j++] */\n      dup2\n      mload\n      dup2\n      lt\n      tag_37\n      jumpi\n      tag_38\n      tag_22\n      jump\t// in\n    tag_38:\n    tag_37:\n      0x20\n      add\n      add\n        /* \"contracts/AmeComponents/Vibe/VibeTest.sol\":662:686  escapedBytes[j++] = '\\\\' */\n      swap1\n      not(0xffffffffffffffffffffffffffffffffffffffffffffffffffffffffffffff)\n      and\n      swap1\n      dup2\n      0x00\n      byte\n      swap1\n      mstore8\n      pop\n        /* \"contracts/AmeComponents/Vibe/VibeTest.sol\":577:771  if (currentChar == '\\\\') {... */\n      jump(tag_39)\n    tag_32:\n        /* \"contracts/AmeComponents/Vibe/VibeTest.sol\":745:756  currentChar */\n      dup1\n        /* \"contracts/AmeComponents/Vibe/VibeTest.sol\":725:737  escapedBytes */\n      dup5\n        /* \"contracts/AmeComponents/Vibe/VibeTest.sol\":738:741  j++ */\n      dup5\n      dup1\n      tag_40\n      swap1\n      tag_25\n      jump\t// in\n    tag_40:\n      swap6\n      pop\n        /* \"contracts/AmeComponents/Vibe/VibeTest.sol\":725:742  escapedBytes[j++] */\n      dup2\n      mload\n      dup2\n      lt\n      tag_41\n      jumpi\n      tag_42\n      tag_22\n      jump\t// in\n    tag_42:\n    tag_41:\n      0x20\n      add\n      add\n        /* \"contracts/AmeComponents/Vibe/VibeTest.sol\":725:756  escapedBytes[j++] = currentChar */\n      swap1\n      not(0xffffffffffffffffffffffffffffffffffffffffffffffffffffffffffffff)\n      and\n      swap1\n      dup2\n      0x00\n      byte\n      swap1\n      mstore8\n      pop\n        /* \"contracts/AmeComponents/Vibe/VibeTest.sol\":577:771  if (currentChar == '\\\\') {... */\n    tag_39:\n        /* \"contracts/AmeComponents/Vibe/VibeTest.sol\":449:771  if (currentChar == '\"') {... */\n    tag_31:\n        /* \"contracts/AmeComponents/Vibe/VibeTest.sol\":386:781  {... */\n      pop\n        /* \"contracts/AmeComponents/Vibe/VibeTest.sol\":381:384  i++ */\n      dup1\n      dup1\n      0x01\n      add\n      swap2\n      pop\n      pop\n        /* \"contracts/AmeComponents/Vibe/VibeTest.sol\":341:781  for (uint i = 0; i < inputBytes.length; i++) {... */\n      jump(tag_17)\n    tag_18:\n      pop\n        /* \"contracts/AmeComponents/Vibe/VibeTest.sol\":824:843  bytes memory result */\n      0x00\n        /* \"contracts/AmeComponents/Vibe/VibeTest.sol\":856:857  j */\n      dup2\n        /* \"contracts/AmeComponents/Vibe/VibeTest.sol\":846:858  new bytes(j) */\n      0xffffffffffffffff\n      dup2\n      gt\n      iszero\n      tag_43\n      jumpi\n      tag_44\n      tag_15\n      jump\t// in\n    tag_44:\n    tag_43:\n      mload(0x40)\n      swap1\n      dup1\n      dup3\n      mstore\n      dup1\n      0x1f\n      add\n      not(0x1f)\n      and\n      0x20\n      add\n      dup3\n      add\n      0x40\n      mstore\n      dup1\n      iszero\n      tag_45\n      jumpi\n      dup2\n      0x20\n      add\n      0x01\n      dup3\n      mul\n      dup1\n      calldatasize\n      dup4\n      calldatacopy\n      dup1\n      dup3\n      add\n      swap2\n      pop\n      pop\n      swap1\n      pop\n    tag_45:\n      pop\n        /* \"contracts/AmeComponents/Vibe/VibeTest.sol\":824:858  bytes memory result = new bytes(j) */\n      swap1\n      pop\n        /* \"contracts/AmeComponents/Vibe/VibeTest.sol\":873:879  uint k */\n      0x00\n        /* \"contracts/AmeComponents/Vibe/VibeTest.sol\":868:949  for (uint k = 0; k < j; k++) {... */\n    tag_46:\n        /* \"contracts/AmeComponents/Vibe/VibeTest.sol\":889:890  j */\n      dup3\n        /* \"contracts/AmeComponents/Vibe/VibeTest.sol\":885:886  k */\n      dup2\n        /* \"contracts/AmeComponents/Vibe/VibeTest.sol\":885:890  k < j */\n      lt\n        /* \"contracts/AmeComponents/Vibe/VibeTest.sol\":868:949  for (uint k = 0; k < j; k++) {... */\n      iszero\n      tag_47\n      jumpi\n        /* \"contracts/AmeComponents/Vibe/VibeTest.sol\":923:935  escapedBytes */\n      dup4\n        /* \"contracts/AmeComponents/Vibe/VibeTest.sol\":936:937  k */\n      dup2\n        /* \"contracts/AmeComponents/Vibe/VibeTest.sol\":923:938  escapedBytes[k] */\n      dup2\n      mload\n      dup2\n      lt\n      tag_49\n      jumpi\n      tag_50\n      tag_22\n      jump\t// in\n    tag_50:\n    tag_49:\n      0x20\n      add\n      add\n      mload\n      0xf8\n      shr\n      0xf8\n      shl\n        /* \"contracts/AmeComponents/Vibe/VibeTest.sol\":911:917  result */\n      dup3\n        /* \"contracts/AmeComponents/Vibe/VibeTest.sol\":918:919  k */\n      dup3\n        /* \"contracts/AmeComponents/Vibe/VibeTest.sol\":911:920  result[k] */\n      dup2\n      mload\n      dup2\n      lt\n      tag_51\n      jumpi\n      tag_52\n      tag_22\n      jump\t// in\n    tag_52:\n    tag_51:\n      0x20\n      add\n      add\n        /* \"contracts/AmeComponents/Vibe/VibeTest.sol\":911:938  result[k] = escapedBytes[k] */\n      swap1\n      not(0xffffffffffffffffffffffffffffffffffffffffffffffffffffffffffffff)\n      and\n      swap1\n      dup2\n      0x00\n      byte\n      swap1\n      mstore8\n      pop\n        /* \"contracts/AmeComponents/Vibe/VibeTest.sol\":892:895  k++ */\n      dup1\n      dup1\n      0x01\n      add\n      swap2\n      pop\n      pop\n        /* \"contracts/AmeComponents/Vibe/VibeTest.sol\":868:949  for (uint k = 0; k < j; k++) {... */\n      jump(tag_46)\n    tag_47:\n      pop\n        /* \"contracts/AmeComponents/Vibe/VibeTest.sol\":973:979  result */\n      dup1\n        /* \"contracts/AmeComponents/Vibe/VibeTest.sol\":959:980  return string(result) */\n      swap5\n      pop\n      pop\n      pop\n      pop\n      pop\n        /* \"contracts/AmeComponents/Vibe/VibeTest.sol\":85:987  function escapeString(string memory input) public pure returns (string memory) {... */\n      swap2\n      swap1\n      pop\n      jump\t// out\n        /* \"#utility.yul\":7:82   */\n    tag_53:\n        /* \"#utility.yul\":40:46   */\n      0x00\n        /* \"#utility.yul\":73:75   */\n      0x40\n        /* \"#utility.yul\":67:76   */\n      mload\n        /* \"#utility.yul\":57:76   */\n      swap1\n      pop\n        /* \"#utility.yul\":7:82   */\n      swap1\n      jump\t// out\n        /* \"#utility.yul\":88:205   */\n    tag_54:\n        /* \"#utility.yul\":197:198   */\n      0x00\n        /* \"#utility.yul\":194:195   */\n      dup1\n        /* \"#utility.yul\":187:199   */\n      revert\n        /* \"#utility.yul\":211:328   */\n    tag_55:\n        /* \"#utility.yul\":320:321   */\n      0x00\n        /* \"#utility.yul\":317:318   */\n      dup1\n        /* \"#utility.yul\":310:322   */\n      revert\n        /* \"#utility.yul\":334:451   */\n    tag_56:\n        /* \"#utility.yul\":443:444   */\n      0x00\n        /* \"#utility.yul\":440:441   */\n      dup1\n        /* \"#utility.yul\":433:445   */\n      revert\n        /* \"#utility.yul\":457:574   */\n    tag_57:\n        /* \"#utility.yul\":566:567   */\n      0x00\n        /* \"#utility.yul\":563:564   */\n      dup1\n        /* \"#utility.yul\":556:568   */\n      revert\n        /* \"#utility.yul\":580:682   */\n    tag_58:\n        /* \"#utility.yul\":621:627   */\n      0x00\n        /* \"#utility.yul\":672:674   */\n      0x1f\n        /* \"#utility.yul\":668:675   */\n      not\n        /* \"#utility.yul\":663:665   */\n      0x1f\n        /* \"#utility.yul\":656:661   */\n      dup4\n        /* \"#utility.yul\":652:666   */\n      add\n        /* \"#utility.yul\":648:676   */\n      and\n        /* \"#utility.yul\":638:676   */\n      swap1\n      pop\n        /* \"#utility.yul\":580:682   */\n      swap2\n      swap1\n      pop\n      jump\t// out\n        /* \"#utility.yul\":688:868   */\n    tag_15:\n        /* \"#utility.yul\":736:813   */\n      0x4e487b7100000000000000000000000000000000000000000000000000000000\n        /* \"#utility.yul\":733:734   */\n      0x00\n        /* \"#utility.yul\":726:814   */\n      mstore\n        /* \"#utility.yul\":833:837   */\n      0x41\n        /* \"#utility.yul\":830:831   */\n      0x04\n        /* \"#utility.yul\":823:838   */\n      mstore\n        /* \"#utility.yul\":857:861   */\n      0x24\n        /* \"#utility.yul\":854:855   */\n      0x00\n        /* \"#utility.yul\":847:862   */\n      revert\n        /* \"#utility.yul\":874:1155   */\n    tag_59:\n        /* \"#utility.yul\":957:984   */\n      tag_80\n        /* \"#utility.yul\":979:983   */\n      dup3\n        /* \"#utility.yul\":957:984   */\n      tag_58\n      jump\t// in\n    tag_80:\n        /* \"#utility.yul\":949:955   */\n      dup2\n        /* \"#utility.yul\":945:985   */\n      add\n        /* \"#utility.yul\":1087:1093   */\n      dup2\n        /* \"#utility.yul\":1075:1085   */\n      dup2\n        /* \"#utility.yul\":1072:1094   */\n      lt\n        /* \"#utility.yul\":1051:1069   */\n      0xffffffffffffffff\n        /* \"#utility.yul\":1039:1049   */\n      dup3\n        /* \"#utility.yul\":1036:1070   */\n      gt\n        /* \"#utility.yul\":1033:1095   */\n      or\n        /* \"#utility.yul\":1030:1118   */\n      iszero\n      tag_81\n      jumpi\n        /* \"#utility.yul\":1098:1116   */\n      tag_82\n      tag_15\n      jump\t// in\n    tag_82:\n        /* \"#utility.yul\":1030:1118   */\n    tag_81:\n        /* \"#utility.yul\":1138:1148   */\n      dup1\n        /* \"#utility.yul\":1134:1136   */\n      0x40\n        /* \"#utility.yul\":1127:1149   */\n      mstore\n        /* \"#utility.yul\":917:1155   */\n      pop\n        /* \"#utility.yul\":874:1155   */\n      pop\n      pop\n      jump\t// out\n        /* \"#utility.yul\":1161:1290   */\n    tag_60:\n        /* \"#utility.yul\":1195:1201   */\n      0x00\n        /* \"#utility.yul\":1222:1242   */\n      tag_84\n      tag_53\n      jump\t// in\n    tag_84:\n        /* \"#utility.yul\":1212:1242   */\n      swap1\n      pop\n        /* \"#utility.yul\":1251:1284   */\n      tag_85\n        /* \"#utility.yul\":1279:1283   */\n      dup3\n        /* \"#utility.yul\":1271:1277   */\n      dup3\n        /* \"#utility.yul\":1251:1284   */\n      tag_59\n      jump\t// in\n    tag_85:\n        /* \"#utility.yul\":1161:1290   */\n      swap2\n      swap1\n      pop\n      jump\t// out\n        /* \"#utility.yul\":1296:1604   */\n    tag_61:\n        /* \"#utility.yul\":1358:1362   */\n      0x00\n        /* \"#utility.yul\":1448:1466   */\n      0xffffffffffffffff\n        /* \"#utility.yul\":1440:1446   */\n      dup3\n        /* \"#utility.yul\":1437:1467   */\n      gt\n        /* \"#utility.yul\":1434:1490   */\n      iszero\n      tag_87\n      jumpi\n        /* \"#utility.yul\":1470:1488   */\n      tag_88\n      tag_15\n      jump\t// in\n    tag_88:\n        /* \"#utility.yul\":1434:1490   */\n    tag_87:\n        /* \"#utility.yul\":1508:1537   */\n      tag_89\n        /* \"#utility.yul\":1530:1536   */\n      dup3\n        /* \"#utility.yul\":1508:1537   */\n      tag_58\n      jump\t// in\n    tag_89:\n        /* \"#utility.yul\":1500:1537   */\n      swap1\n      pop\n        /* \"#utility.yul\":1592:1596   */\n      0x20\n        /* \"#utility.yul\":1586:1590   */\n      dup2\n        /* \"#utility.yul\":1582:1597   */\n      add\n        /* \"#utility.yul\":1574:1597   */\n      swap1\n      pop\n        /* \"#utility.yul\":1296:1604   */\n      swap2\n      swap1\n      pop\n      jump\t// out\n        /* \"#utility.yul\":1610:1756   */\n    tag_62:\n        /* \"#utility.yul\":1707:1713   */\n      dup3\n        /* \"#utility.yul\":1702:1705   */\n      dup2\n        /* \"#utility.yul\":1697:1700   */\n      dup4\n        /* \"#utility.yul\":1684:1714   */\n      calldatacopy\n        /* \"#utility.yul\":1748:1749   */\n      0x00\n        /* \"#utility.yul\":1739:1745   */\n      dup4\n        /* \"#utility.yul\":1734:1737   */\n      dup4\n        /* \"#utility.yul\":1730:1746   */\n      add\n        /* \"#utility.yul\":1723:1750   */\n      mstore\n        /* \"#utility.yul\":1610:1756   */\n      pop\n      pop\n      pop\n      jump\t// out\n        /* \"#utility.yul\":1762:2187   */\n    tag_63:\n        /* \"#utility.yul\":1840:1845   */\n      0x00\n        /* \"#utility.yul\":1865:1931   */\n      tag_92\n        /* \"#utility.yul\":1881:1930   */\n      tag_93\n        /* \"#utility.yul\":1923:1929   */\n      dup5\n        /* \"#utility.yul\":1881:1930   */\n      tag_61\n      jump\t// in\n    tag_93:\n        /* \"#utility.yul\":1865:1931   */\n      tag_60\n      jump\t// in\n    tag_92:\n        /* \"#utility.yul\":1856:1931   */\n      swap1\n      pop\n        /* \"#utility.yul\":1954:1960   */\n      dup3\n        /* \"#utility.yul\":1947:1952   */\n      dup2\n        /* \"#utility.yul\":1940:1961   */\n      mstore\n        /* \"#utility.yul\":1992:1996   */\n      0x20\n        /* \"#utility.yul\":1985:1990   */\n      dup2\n        /* \"#utility.yul\":1981:1997   */\n      add\n        /* \"#utility.yul\":2030:2033   */\n      dup5\n        /* \"#utility.yul\":2021:2027   */\n      dup5\n        /* \"#utility.yul\":2016:2019   */\n      dup5\n        /* \"#utility.yul\":2012:2028   */\n      add\n        /* \"#utility.yul\":2009:2034   */\n      gt\n        /* \"#utility.yul\":2006:2118   */\n      iszero\n      tag_94\n      jumpi\n        /* \"#utility.yul\":2037:2116   */\n      tag_95\n      tag_57\n      jump\t// in\n    tag_95:\n        /* \"#utility.yul\":2006:2118   */\n    tag_94:\n        /* \"#utility.yul\":2127:2181   */\n      tag_96\n        /* \"#utility.yul\":2174:2180   */\n      dup5\n        /* \"#utility.yul\":2169:2172   */\n      dup3\n        /* \"#utility.yul\":2164:2167   */\n      dup6\n        /* \"#utility.yul\":2127:2181   */\n      tag_62\n      jump\t// in\n    tag_96:\n        /* \"#utility.yul\":1846:2187   */\n      pop\n        /* \"#utility.yul\":1762:2187   */\n      swap4\n      swap3\n      pop\n      pop\n      pop\n      jump\t// out\n        /* \"#utility.yul\":2207:2547   */\n    tag_64:\n        /* \"#utility.yul\":2263:2268   */\n      0x00\n        /* \"#utility.yul\":2312:2315   */\n      dup3\n        /* \"#utility.yul\":2305:2309   */\n      0x1f\n        /* \"#utility.yul\":2297:2303   */\n      dup4\n        /* \"#utility.yul\":2293:2310   */\n      add\n        /* \"#utility.yul\":2289:2316   */\n      slt\n        /* \"#utility.yul\":2279:2401   */\n      tag_98\n      jumpi\n        /* \"#utility.yul\":2320:2399   */\n      tag_99\n      tag_56\n      jump\t// in\n    tag_99:\n        /* \"#utility.yul\":2279:2401   */\n    tag_98:\n        /* \"#utility.yul\":2437:2443   */\n      dup2\n        /* \"#utility.yul\":2424:2444   */\n      calldataload\n        /* \"#utility.yul\":2462:2541   */\n      tag_100\n        /* \"#utility.yul\":2537:2540   */\n      dup5\n        /* \"#utility.yul\":2529:2535   */\n      dup3\n        /* \"#utility.yul\":2522:2526   */\n      0x20\n        /* \"#utility.yul\":2514:2520   */\n      dup7\n        /* \"#utility.yul\":2510:2527   */\n      add\n        /* \"#utility.yul\":2462:2541   */\n      tag_63\n      jump\t// in\n    tag_100:\n        /* \"#utility.yul\":2453:2541   */\n      swap2\n      pop\n        /* \"#utility.yul\":2269:2547   */\n      pop\n        /* \"#utility.yul\":2207:2547   */\n      swap3\n      swap2\n      pop\n      pop\n      jump\t// out\n        /* \"#utility.yul\":2553:3062   */\n    tag_6:\n        /* \"#utility.yul\":2622:2628   */\n      0x00\n        /* \"#utility.yul\":2671:2673   */\n      0x20\n        /* \"#utility.yul\":2659:2668   */\n      dup3\n        /* \"#utility.yul\":2650:2657   */\n      dup5\n        /* \"#utility.yul\":2646:2669   */\n      sub\n        /* \"#utility.yul\":2642:2674   */\n      slt\n        /* \"#utility.yul\":2639:2758   */\n      iszero\n      tag_102\n      jumpi\n        /* \"#utility.yul\":2677:2756   */\n      tag_103\n      tag_54\n      jump\t// in\n    tag_103:\n        /* \"#utility.yul\":2639:2758   */\n    tag_102:\n        /* \"#utility.yul\":2825:2826   */\n      0x00\n        /* \"#utility.yul\":2814:2823   */\n      dup3\n        /* \"#utility.yul\":2810:2827   */\n      add\n        /* \"#utility.yul\":2797:2828   */\n      calldataload\n        /* \"#utility.yul\":2855:2873   */\n      0xffffffffffffffff\n        /* \"#utility.yul\":2847:2853   */\n      dup2\n        /* \"#utility.yul\":2844:2874   */\n      gt\n        /* \"#utility.yul\":2841:2958   */\n      iszero\n      tag_104\n      jumpi\n        /* \"#utility.yul\":2877:2956   */\n      tag_105\n      tag_55\n      jump\t// in\n    tag_105:\n        /* \"#utility.yul\":2841:2958   */\n    tag_104:\n        /* \"#utility.yul\":2982:3045   */\n      tag_106\n        /* \"#utility.yul\":3037:3044   */\n      dup5\n        /* \"#utility.yul\":3028:3034   */\n      dup3\n        /* \"#utility.yul\":3017:3026   */\n      dup6\n        /* \"#utility.yul\":3013:3035   */\n      add\n        /* \"#utility.yul\":2982:3045   */\n      tag_64\n      jump\t// in\n    tag_106:\n        /* \"#utility.yul\":2972:3045   */\n      swap2\n      pop\n        /* \"#utility.yul\":2768:3055   */\n      pop\n        /* \"#utility.yul\":2553:3062   */\n      swap3\n      swap2\n      pop\n      pop\n      jump\t// out\n        /* \"#utility.yul\":3068:3167   */\n    tag_65:\n        /* \"#utility.yul\":3120:3126   */\n      0x00\n        /* \"#utility.yul\":3154:3159   */\n      dup2\n        /* \"#utility.yul\":3148:3160   */\n      mload\n        /* \"#utility.yul\":3138:3160   */\n      swap1\n      pop\n        /* \"#utility.yul\":3068:3167   */\n      swap2\n      swap1\n      pop\n      jump\t// out\n        /* \"#utility.yul\":3173:3342   */\n    tag_66:\n        /* \"#utility.yul\":3257:3268   */\n      0x00\n        /* \"#utility.yul\":3291:3297   */\n      dup3\n        /* \"#utility.yul\":3286:3289   */\n      dup3\n        /* \"#utility.yul\":3279:3298   */\n      mstore\n        /* \"#utility.yul\":3331:3335   */\n      0x20\n        /* \"#utility.yul\":3326:3329   */\n      dup3\n        /* \"#utility.yul\":3322:3336   */\n      add\n        /* \"#utility.yul\":3307:3336   */\n      swap1\n      pop\n        /* \"#utility.yul\":3173:3342   */\n      swap3\n      swap2\n      pop\n      pop\n      jump\t// out\n        /* \"#utility.yul\":3348:3594   */\n    tag_67:\n        /* \"#utility.yul\":3429:3430   */\n      0x00\n        /* \"#utility.yul\":3439:3552   */\n    tag_110:\n        /* \"#utility.yul\":3453:3459   */\n      dup4\n        /* \"#utility.yul\":3450:3451   */\n      dup2\n        /* \"#utility.yul\":3447:3460   */\n      lt\n        /* \"#utility.yul\":3439:3552   */\n      iszero\n      tag_112\n      jumpi\n        /* \"#utility.yul\":3538:3539   */\n      dup1\n        /* \"#utility.yul\":3533:3536   */\n      dup3\n        /* \"#utility.yul\":3529:3540   */\n      add\n        /* \"#utility.yul\":3523:3541   */\n      mload\n        /* \"#utility.yul\":3519:3520   */\n      dup2\n        /* \"#utility.yul\":3514:3517   */\n      dup5\n        /* \"#utility.yul\":3510:3521   */\n      add\n        /* \"#utility.yul\":3503:3542   */\n      mstore\n        /* \"#utility.yul\":3475:3477   */\n      0x20\n        /* \"#utility.yul\":3472:3473   */\n      dup2\n        /* \"#utility.yul\":3468:3478   */\n      add\n        /* \"#utility.yul\":3463:3478   */\n      swap1\n      pop\n        /* \"#utility.yul\":3439:3552   */\n      jump(tag_110)\n    tag_112:\n        /* \"#utility.yul\":3586:3587   */\n      0x00\n        /* \"#utility.yul\":3577:3583   */\n      dup5\n        /* \"#utility.yul\":3572:3575   */\n      dup5\n        /* \"#utility.yul\":3568:3584   */\n      add\n        /* \"#utility.yul\":3561:3588   */\n      mstore\n        /* \"#utility.yul\":3410:3594   */\n      pop\n        /* \"#utility.yul\":3348:3594   */\n      pop\n      pop\n      pop\n      jump\t// out\n        /* \"#utility.yul\":3600:3977   */\n    tag_68:\n        /* \"#utility.yul\":3688:3691   */\n      0x00\n        /* \"#utility.yul\":3716:3755   */\n      tag_114\n        /* \"#utility.yul\":3749:3754   */\n      dup3\n        /* \"#utility.yul\":3716:3755   */\n      tag_65\n      jump\t// in\n    tag_114:\n        /* \"#utility.yul\":3771:3842   */\n      tag_115\n        /* \"#utility.yul\":3835:3841   */\n      dup2\n        /* \"#utility.yul\":3830:3833   */\n      dup6\n        /* \"#utility.yul\":3771:3842   */\n      tag_66\n      jump\t// in\n    tag_115:\n        /* \"#utility.yul\":3764:3842   */\n      swap4\n      pop\n        /* \"#utility.yul\":3851:3916   */\n      tag_116\n        /* \"#utility.yul\":3909:3915   */\n      dup2\n        /* \"#utility.yul\":3904:3907   */\n      dup6\n        /* \"#utility.yul\":3897:3901   */\n      0x20\n        /* \"#utility.yul\":3890:3895   */\n      dup7\n        /* \"#utility.yul\":3886:3902   */\n      add\n        /* \"#utility.yul\":3851:3916   */\n      tag_67\n      jump\t// in\n    tag_116:\n        /* \"#utility.yul\":3941:3970   */\n      tag_117\n        /* \"#utility.yul\":3963:3969   */\n      dup2\n        /* \"#utility.yul\":3941:3970   */\n      tag_58\n      jump\t// in\n    tag_117:\n        /* \"#utility.yul\":3936:3939   */\n      dup5\n        /* \"#utility.yul\":3932:3971   */\n      add\n        /* \"#utility.yul\":3925:3971   */\n      swap2\n      pop\n        /* \"#utility.yul\":3692:3977   */\n      pop\n        /* \"#utility.yul\":3600:3977   */\n      swap3\n      swap2\n      pop\n      pop\n      jump\t// out\n        /* \"#utility.yul\":3983:4296   */\n    tag_9:\n        /* \"#utility.yul\":4096:4100   */\n      0x00\n        /* \"#utility.yul\":4134:4136   */\n      0x20\n        /* \"#utility.yul\":4123:4132   */\n      dup3\n        /* \"#utility.yul\":4119:4137   */\n      add\n        /* \"#utility.yul\":4111:4137   */\n      swap1\n      pop\n        /* \"#utility.yul\":4183:4192   */\n      dup2\n        /* \"#utility.yul\":4177:4181   */\n      dup2\n        /* \"#utility.yul\":4173:4193   */\n      sub\n        /* \"#utility.yul\":4169:4170   */\n      0x00\n        /* \"#utility.yul\":4158:4167   */\n      dup4\n        /* \"#utility.yul\":4154:4171   */\n      add\n        /* \"#utility.yul\":4147:4194   */\n      mstore\n        /* \"#utility.yul\":4211:4289   */\n      tag_119\n        /* \"#utility.yul\":4284:4288   */\n      dup2\n        /* \"#utility.yul\":4275:4281   */\n      dup5\n        /* \"#utility.yul\":4211:4289   */\n      tag_68\n      jump\t// in\n    tag_119:\n        /* \"#utility.yul\":4203:4289   */\n      swap1\n      pop\n        /* \"#utility.yul\":3983:4296   */\n      swap3\n      swap2\n      pop\n      pop\n      jump\t// out\n        /* \"#utility.yul\":4302:4379   */\n    tag_69:\n        /* \"#utility.yul\":4339:4346   */\n      0x00\n        /* \"#utility.yul\":4368:4373   */\n      dup2\n        /* \"#utility.yul\":4357:4373   */\n      swap1\n      pop\n        /* \"#utility.yul\":4302:4379   */\n      swap2\n      swap1\n      pop\n      jump\t// out\n        /* \"#utility.yul\":4385:4565   */\n    tag_70:\n        /* \"#utility.yul\":4433:4510   */\n      0x4e487b7100000000000000000000000000000000000000000000000000000000\n        /* \"#utility.yul\":4430:4431   */\n      0x00\n        /* \"#utility.yul\":4423:4511   */\n      mstore\n        /* \"#utility.yul\":4530:4534   */\n      0x11\n        /* \"#utility.yul\":4527:4528   */\n      0x04\n        /* \"#utility.yul\":4520:4535   */\n      mstore\n        /* \"#utility.yul\":4554:4558   */\n      0x24\n        /* \"#utility.yul\":4551:4552   */\n      0x00\n        /* \"#utility.yul\":4544:4559   */\n      revert\n        /* \"#utility.yul\":4571:4981   */\n    tag_12:\n        /* \"#utility.yul\":4611:4618   */\n      0x00\n        /* \"#utility.yul\":4634:4654   */\n      tag_123\n        /* \"#utility.yul\":4652:4653   */\n      dup3\n        /* \"#utility.yul\":4634:4654   */\n      tag_69\n      jump\t// in\n    tag_123:\n        /* \"#utility.yul\":4629:4654   */\n      swap2\n      pop\n        /* \"#utility.yul\":4668:4688   */\n      tag_124\n        /* \"#utility.yul\":4686:4687   */\n      dup4\n        /* \"#utility.yul\":4668:4688   */\n      tag_69\n      jump\t// in\n    tag_124:\n        /* \"#utility.yul\":4663:4688   */\n      swap3\n      pop\n        /* \"#utility.yul\":4723:4724   */\n      dup3\n        /* \"#utility.yul\":4720:4721   */\n      dup3\n        /* \"#utility.yul\":4716:4725   */\n      mul\n        /* \"#utility.yul\":4745:4775   */\n      tag_125\n        /* \"#utility.yul\":4763:4774   */\n      dup2\n        /* \"#utility.yul\":4745:4775   */\n      tag_69\n      jump\t// in\n    tag_125:\n        /* \"#utility.yul\":4734:4775   */\n      swap2\n      pop\n        /* \"#utility.yul\":4924:4925   */\n      dup3\n        /* \"#utility.yul\":4915:4922   */\n      dup3\n        /* \"#utility.yul\":4911:4926   */\n      div\n        /* \"#utility.yul\":4908:4909   */\n      dup5\n        /* \"#utility.yul\":4905:4927   */\n      eq\n        /* \"#utility.yul\":4885:4886   */\n      dup4\n        /* \"#utility.yul\":4878:4887   */\n      iszero\n        /* \"#utility.yul\":4858:4941   */\n      or\n        /* \"#utility.yul\":4835:4974   */\n      tag_126\n      jumpi\n        /* \"#utility.yul\":4954:4972   */\n      tag_127\n      tag_70\n      jump\t// in\n    tag_127:\n        /* \"#utility.yul\":4835:4974   */\n    tag_126:\n        /* \"#utility.yul\":4619:4981   */\n      pop\n        /* \"#utility.yul\":4571:4981   */\n      swap3\n      swap2\n      pop\n      pop\n      jump\t// out\n        /* \"#utility.yul\":4987:5167   */\n    tag_22:\n        /* \"#utility.yul\":5035:5112   */\n      0x4e487b7100000000000000000000000000000000000000000000000000000000\n        /* \"#utility.yul\":5032:5033   */\n      0x00\n        /* \"#utility.yul\":5025:5113   */\n      mstore\n        /* \"#utility.yul\":5132:5136   */\n      0x32\n        /* \"#utility.yul\":5129:5130   */\n      0x04\n        /* \"#utility.yul\":5122:5137   */\n      mstore\n        /* \"#utility.yul\":5156:5160   */\n      0x24\n        /* \"#utility.yul\":5153:5154   */\n      0x00\n        /* \"#utility.yul\":5146:5161   */\n      revert\n        /* \"#utility.yul\":5173:5406   */\n    tag_25:\n        /* \"#utility.yul\":5212:5215   */\n      0x00\n        /* \"#utility.yul\":5235:5259   */\n      tag_130\n        /* \"#utility.yul\":5253:5258   */\n      dup3\n        /* \"#utility.yul\":5235:5259   */\n      tag_69\n      jump\t// in\n    tag_130:\n        /* \"#utility.yul\":5226:5259   */\n      swap2\n      pop\n        /* \"#utility.yul\":5281:5347   */\n      0xffffffffffffffffffffffffffffffffffffffffffffffffffffffffffffffff\n        /* \"#utility.yul\":5274:5279   */\n      dup3\n        /* \"#utility.yul\":5271:5348   */\n      sub\n        /* \"#utility.yul\":5268:5371   */\n      tag_131\n      jumpi\n        /* \"#utility.yul\":5351:5369   */\n      tag_132\n      tag_70\n      jump\t// in\n    tag_132:\n        /* \"#utility.yul\":5268:5371   */\n    tag_131:\n        /* \"#utility.yul\":5398:5399   */\n      0x01\n        /* \"#utility.yul\":5391:5396   */\n      dup3\n        /* \"#utility.yul\":5387:5400   */\n      add\n        /* \"#utility.yul\":5380:5400   */\n      swap1\n      pop\n        /* \"#utility.yul\":5173:5406   */\n      swap2\n      swap1\n      pop\n      jump\t// out\n\n    auxdata: 0xa26469706673582212209f75742a88eb834a9d18ea96ef7d8ca7c55e508dd9a559b0bb291ef9e0ba5d0b64736f6c63430008160033\n}\n",
				"bytecode": {
					"linkReferences": {},
					"object": "608060405234801561000f575f80fd5b506107c28061001d5f395ff3fe608060405234801561000f575f80fd5b5060043610610029575f3560e01c8063ac79f9611461002d575b5f80fd5b610047600480360381019061004291906105c0565b61005d565b6040516100549190610681565b60405180910390f35b60605f8290505f6002825161007291906106d7565b67ffffffffffffffff81111561008b5761008a61049c565b5b6040519080825280601f01601f1916602001820160405280156100bd5781602001600182028036833780820191505090505b5090505f805b835181101561039f575f8482815181106100e0576100df610718565b5b602001015160f81c60f81b90507f2200000000000000000000000000000000000000000000000000000000000000817effffffffffffffffffffffffffffffffffffffffffffffffffffffffffffff191603610217577f5c0000000000000000000000000000000000000000000000000000000000000084848061016390610745565b95508151811061017657610175610718565b5b60200101907effffffffffffffffffffffffffffffffffffffffffffffffffffffffffffff191690815f1a9053507f22000000000000000000000000000000000000000000000000000000000000008484806101d190610745565b9550815181106101e4576101e3610718565b5b60200101907effffffffffffffffffffffffffffffffffffffffffffffffffffffffffffff191690815f1a905350610391565b7f5c00000000000000000000000000000000000000000000000000000000000000817effffffffffffffffffffffffffffffffffffffffffffffffffffffffffffff191603610341577f5c0000000000000000000000000000000000000000000000000000000000000084848061028d90610745565b9550815181106102a05761029f610718565b5b60200101907effffffffffffffffffffffffffffffffffffffffffffffffffffffffffffff191690815f1a9053507f5c000000000000000000000000000000000000000000000000000000000000008484806102fb90610745565b95508151811061030e5761030d610718565b5b60200101907effffffffffffffffffffffffffffffffffffffffffffffffffffffffffffff191690815f1a905350610390565b8084848061034e90610745565b95508151811061036157610360610718565b5b60200101907effffffffffffffffffffffffffffffffffffffffffffffffffffffffffffff191690815f1a9053505b5b5080806001019150506100c3565b505f8167ffffffffffffffff8111156103bb576103ba61049c565b5b6040519080825280601f01601f1916602001820160405280156103ed5781602001600182028036833780820191505090505b5090505f5b828110156104665783818151811061040d5761040c610718565b5b602001015160f81c60f81b82828151811061042b5761042a610718565b5b60200101907effffffffffffffffffffffffffffffffffffffffffffffffffffffffffffff191690815f1a90535080806001019150506103f2565b5080945050505050919050565b5f604051905090565b5f80fd5b5f80fd5b5f80fd5b5f80fd5b5f601f19601f8301169050919050565b7f4e487b71000000000000000000000000000000000000000000000000000000005f52604160045260245ffd5b6104d28261048c565b810181811067ffffffffffffffff821117156104f1576104f061049c565b5b80604052505050565b5f610503610473565b905061050f82826104c9565b919050565b5f67ffffffffffffffff82111561052e5761052d61049c565b5b6105378261048c565b9050602081019050919050565b828183375f83830152505050565b5f61056461055f84610514565b6104fa565b9050828152602081018484840111156105805761057f610488565b5b61058b848285610544565b509392505050565b5f82601f8301126105a7576105a6610484565b5b81356105b7848260208601610552565b91505092915050565b5f602082840312156105d5576105d461047c565b5b5f82013567ffffffffffffffff8111156105f2576105f1610480565b5b6105fe84828501610593565b91505092915050565b5f81519050919050565b5f82825260208201905092915050565b5f5b8381101561063e578082015181840152602081019050610623565b5f8484015250505050565b5f61065382610607565b61065d8185610611565b935061066d818560208601610621565b6106768161048c565b840191505092915050565b5f6020820190508181035f8301526106998184610649565b905092915050565b5f819050919050565b7f4e487b71000000000000000000000000000000000000000000000000000000005f52601160045260245ffd5b5f6106e1826106a1565b91506106ec836106a1565b92508282026106fa816106a1565b91508282048414831517610711576107106106aa565b5b5092915050565b7f4e487b71000000000000000000000000000000000000000000000000000000005f52603260045260245ffd5b5f61074f826106a1565b91507fffffffffffffffffffffffffffffffffffffffffffffffffffffffffffffffff8203610781576107806106aa565b5b60018201905091905056fea26469706673582212209f75742a88eb834a9d18ea96ef7d8ca7c55e508dd9a559b0bb291ef9e0ba5d0b64736f6c63430008160033",
					"opcodes": "PUSH1 0x80 PUSH1 0x40 MSTORE CALLVALUE DUP1 ISZERO PUSH2 0xF JUMPI PUSH0 DUP1 REVERT JUMPDEST POP PUSH2 0x7C2 DUP1 PUSH2 0x1D PUSH0 CODECOPY PUSH0 RETURN INVALID PUSH1 0x80 PUSH1 0x40 MSTORE CALLVALUE DUP1 ISZERO PUSH2 0xF JUMPI PUSH0 DUP1 REVERT JUMPDEST POP PUSH1 0x4 CALLDATASIZE LT PUSH2 0x29 JUMPI PUSH0 CALLDATALOAD PUSH1 0xE0 SHR DUP1 PUSH4 0xAC79F961 EQ PUSH2 0x2D JUMPI JUMPDEST PUSH0 DUP1 REVERT JUMPDEST PUSH2 0x47 PUSH1 0x4 DUP1 CALLDATASIZE SUB DUP2 ADD SWAP1 PUSH2 0x42 SWAP2 SWAP1 PUSH2 0x5C0 JUMP JUMPDEST PUSH2 0x5D JUMP JUMPDEST PUSH1 0x40 MLOAD PUSH2 0x54 SWAP2 SWAP1 PUSH2 0x681 JUMP JUMPDEST PUSH1 0x40 MLOAD DUP1 SWAP2 SUB SWAP1 RETURN JUMPDEST PUSH1 0x60 PUSH0 DUP3 SWAP1 POP PUSH0 PUSH1 0x2 DUP3 MLOAD PUSH2 0x72 SWAP2 SWAP1 PUSH2 0x6D7 JUMP JUMPDEST PUSH8 0xFFFFFFFFFFFFFFFF DUP2 GT ISZERO PUSH2 0x8B JUMPI PUSH2 0x8A PUSH2 0x49C JUMP JUMPDEST JUMPDEST PUSH1 0x40 MLOAD SWAP1 DUP1 DUP3 MSTORE DUP1 PUSH1 0x1F ADD PUSH1 0x1F NOT AND PUSH1 0x20 ADD DUP3 ADD PUSH1 0x40 MSTORE DUP1 ISZERO PUSH2 0xBD JUMPI DUP2 PUSH1 0x20 ADD PUSH1 0x1 DUP3 MUL DUP1 CALLDATASIZE DUP4 CALLDATACOPY DUP1 DUP3 ADD SWAP2 POP POP SWAP1 POP JUMPDEST POP SWAP1 POP PUSH0 DUP1 JUMPDEST DUP4 MLOAD DUP2 LT ISZERO PUSH2 0x39F JUMPI PUSH0 DUP5 DUP3 DUP2 MLOAD DUP2 LT PUSH2 0xE0 JUMPI PUSH2 0xDF PUSH2 0x718 JUMP JUMPDEST JUMPDEST PUSH1 0x20 ADD ADD MLOAD PUSH1 0xF8 SHR PUSH1 0xF8 SHL SWAP1 POP PUSH32 0x2200000000000000000000000000000000000000000000000000000000000000 DUP2 PUSH31 0xFFFFFFFFFFFFFFFFFFFFFFFFFFFFFFFFFFFFFFFFFFFFFFFFFFFFFFFFFFFFFF NOT AND SUB PUSH2 0x217 JUMPI PUSH32 0x5C00000000000000000000000000000000000000000000000000000000000000 DUP5 DUP5 DUP1 PUSH2 0x163 SWAP1 PUSH2 0x745 JUMP JUMPDEST SWAP6 POP DUP2 MLOAD DUP2 LT PUSH2 0x176 JUMPI PUSH2 0x175 PUSH2 0x718 JUMP JUMPDEST JUMPDEST PUSH1 0x20 ADD ADD SWAP1 PUSH31 0xFFFFFFFFFFFFFFFFFFFFFFFFFFFFFFFFFFFFFFFFFFFFFFFFFFFFFFFFFFFFFF NOT AND SWAP1 DUP2 PUSH0 BYTE SWAP1 MSTORE8 POP PUSH32 0x2200000000000000000000000000000000000000000000000000000000000000 DUP5 DUP5 DUP1 PUSH2 0x1D1 SWAP1 PUSH2 0x745 JUMP JUMPDEST SWAP6 POP DUP2 MLOAD DUP2 LT PUSH2 0x1E4 JUMPI PUSH2 0x1E3 PUSH2 0x718 JUMP JUMPDEST JUMPDEST PUSH1 0x20 ADD ADD SWAP1 PUSH31 0xFFFFFFFFFFFFFFFFFFFFFFFFFFFFFFFFFFFFFFFFFFFFFFFFFFFFFFFFFFFFFF NOT AND SWAP1 DUP2 PUSH0 BYTE SWAP1 MSTORE8 POP PUSH2 0x391 JUMP JUMPDEST PUSH32 0x5C00000000000000000000000000000000000000000000000000000000000000 DUP2 PUSH31 0xFFFFFFFFFFFFFFFFFFFFFFFFFFFFFFFFFFFFFFFFFFFFFFFFFFFFFFFFFFFFFF NOT AND SUB PUSH2 0x341 JUMPI PUSH32 0x5C00000000000000000000000000000000000000000000000000000000000000 DUP5 DUP5 DUP1 PUSH2 0x28D SWAP1 PUSH2 0x745 JUMP JUMPDEST SWAP6 POP DUP2 MLOAD DUP2 LT PUSH2 0x2A0 JUMPI PUSH2 0x29F PUSH2 0x718 JUMP JUMPDEST JUMPDEST PUSH1 0x20 ADD ADD SWAP1 PUSH31 0xFFFFFFFFFFFFFFFFFFFFFFFFFFFFFFFFFFFFFFFFFFFFFFFFFFFFFFFFFFFFFF NOT AND SWAP1 DUP2 PUSH0 BYTE SWAP1 MSTORE8 POP PUSH32 0x5C00000000000000000000000000000000000000000000000000000000000000 DUP5 DUP5 DUP1 PUSH2 0x2FB SWAP1 PUSH2 0x745 JUMP JUMPDEST SWAP6 POP DUP2 MLOAD DUP2 LT PUSH2 0x30E JUMPI PUSH2 0x30D PUSH2 0x718 JUMP JUMPDEST JUMPDEST PUSH1 0x20 ADD ADD SWAP1 PUSH31 0xFFFFFFFFFFFFFFFFFFFFFFFFFFFFFFFFFFFFFFFFFFFFFFFFFFFFFFFFFFFFFF NOT AND SWAP1 DUP2 PUSH0 BYTE SWAP1 MSTORE8 POP PUSH2 0x390 JUMP JUMPDEST DUP1 DUP5 DUP5 DUP1 PUSH2 0x34E SWAP1 PUSH2 0x745 JUMP JUMPDEST SWAP6 POP DUP2 MLOAD DUP2 LT PUSH2 0x361 JUMPI PUSH2 0x360 PUSH2 0x718 JUMP JUMPDEST JUMPDEST PUSH1 0x20 ADD ADD SWAP1 PUSH31 0xFFFFFFFFFFFFFFFFFFFFFFFFFFFFFFFFFFFFFFFFFFFFFFFFFFFFFFFFFFFFFF NOT AND SWAP1 DUP2 PUSH0 BYTE SWAP1 MSTORE8 POP JUMPDEST JUMPDEST POP DUP1 DUP1 PUSH1 0x1 ADD SWAP2 POP POP PUSH2 0xC3 JUMP JUMPDEST POP PUSH0 DUP2 PUSH8 0xFFFFFFFFFFFFFFFF DUP2 GT ISZERO PUSH2 0x3BB JUMPI PUSH2 0x3BA PUSH2 0x49C JUMP JUMPDEST JUMPDEST PUSH1 0x40 MLOAD SWAP1 DUP1 DUP3 MSTORE DUP1 PUSH1 0x1F ADD PUSH1 0x1F NOT AND PUSH1 0x20 ADD DUP3 ADD PUSH1 0x40 MSTORE DUP1 ISZERO PUSH2 0x3ED JUMPI DUP2 PUSH1 0x20 ADD PUSH1 0x1 DUP3 MUL DUP1 CALLDATASIZE DUP4 CALLDATACOPY DUP1 DUP3 ADD SWAP2 POP POP SWAP1 POP JUMPDEST POP SWAP1 POP PUSH0 JUMPDEST DUP3 DUP2 LT ISZERO PUSH2 0x466 JUMPI DUP4 DUP2 DUP2 MLOAD DUP2 LT PUSH2 0x40D JUMPI PUSH2 0x40C PUSH2 0x718 JUMP JUMPDEST JUMPDEST PUSH1 0x20 ADD ADD MLOAD PUSH1 0xF8 SHR PUSH1 0xF8 SHL DUP3 DUP3 DUP2 MLOAD DUP2 LT PUSH2 0x42B JUMPI PUSH2 0x42A PUSH2 0x718 JUMP JUMPDEST JUMPDEST PUSH1 0x20 ADD ADD SWAP1 PUSH31 0xFFFFFFFFFFFFFFFFFFFFFFFFFFFFFFFFFFFFFFFFFFFFFFFFFFFFFFFFFFFFFF NOT AND SWAP1 DUP2 PUSH0 BYTE SWAP1 MSTORE8 POP DUP1 DUP1 PUSH1 0x1 ADD SWAP2 POP POP PUSH2 0x3F2 JUMP JUMPDEST POP DUP1 SWAP5 POP POP POP POP POP SWAP2 SWAP1 POP JUMP JUMPDEST PUSH0 PUSH1 0x40 MLOAD SWAP1 POP SWAP1 JUMP JUMPDEST PUSH0 DUP1 REVERT JUMPDEST PUSH0 DUP1 REVERT JUMPDEST PUSH0 DUP1 REVERT JUMPDEST PUSH0 DUP1 REVERT JUMPDEST PUSH0 PUSH1 0x1F NOT PUSH1 0x1F DUP4 ADD AND SWAP1 POP SWAP2 SWAP1 POP JUMP JUMPDEST PUSH32 0x4E487B7100000000000000000000000000000000000000000000000000000000 PUSH0 MSTORE PUSH1 0x41 PUSH1 0x4 MSTORE PUSH1 0x24 PUSH0 REVERT JUMPDEST PUSH2 0x4D2 DUP3 PUSH2 0x48C JUMP JUMPDEST DUP2 ADD DUP2 DUP2 LT PUSH8 0xFFFFFFFFFFFFFFFF DUP3 GT OR ISZERO PUSH2 0x4F1 JUMPI PUSH2 0x4F0 PUSH2 0x49C JUMP JUMPDEST JUMPDEST DUP1 PUSH1 0x40 MSTORE POP POP POP JUMP JUMPDEST PUSH0 PUSH2 0x503 PUSH2 0x473 JUMP JUMPDEST SWAP1 POP PUSH2 0x50F DUP3 DUP3 PUSH2 0x4C9 JUMP JUMPDEST SWAP2 SWAP1 POP JUMP JUMPDEST PUSH0 PUSH8 0xFFFFFFFFFFFFFFFF DUP3 GT ISZERO PUSH2 0x52E JUMPI PUSH2 0x52D PUSH2 0x49C JUMP JUMPDEST JUMPDEST PUSH2 0x537 DUP3 PUSH2 0x48C JUMP JUMPDEST SWAP1 POP PUSH1 0x20 DUP2 ADD SWAP1 POP SWAP2 SWAP1 POP JUMP JUMPDEST DUP3 DUP2 DUP4 CALLDATACOPY PUSH0 DUP4 DUP4 ADD MSTORE POP POP POP JUMP JUMPDEST PUSH0 PUSH2 0x564 PUSH2 0x55F DUP5 PUSH2 0x514 JUMP JUMPDEST PUSH2 0x4FA JUMP JUMPDEST SWAP1 POP DUP3 DUP2 MSTORE PUSH1 0x20 DUP2 ADD DUP5 DUP5 DUP5 ADD GT ISZERO PUSH2 0x580 JUMPI PUSH2 0x57F PUSH2 0x488 JUMP JUMPDEST JUMPDEST PUSH2 0x58B DUP5 DUP3 DUP6 PUSH2 0x544 JUMP JUMPDEST POP SWAP4 SWAP3 POP POP POP JUMP JUMPDEST PUSH0 DUP3 PUSH1 0x1F DUP4 ADD SLT PUSH2 0x5A7 JUMPI PUSH2 0x5A6 PUSH2 0x484 JUMP JUMPDEST JUMPDEST DUP2 CALLDATALOAD PUSH2 0x5B7 DUP5 DUP3 PUSH1 0x20 DUP7 ADD PUSH2 0x552 JUMP JUMPDEST SWAP2 POP POP SWAP3 SWAP2 POP POP JUMP JUMPDEST PUSH0 PUSH1 0x20 DUP3 DUP5 SUB SLT ISZERO PUSH2 0x5D5 JUMPI PUSH2 0x5D4 PUSH2 0x47C JUMP JUMPDEST JUMPDEST PUSH0 DUP3 ADD CALLDATALOAD PUSH8 0xFFFFFFFFFFFFFFFF DUP2 GT ISZERO PUSH2 0x5F2 JUMPI PUSH2 0x5F1 PUSH2 0x480 JUMP JUMPDEST JUMPDEST PUSH2 0x5FE DUP5 DUP3 DUP6 ADD PUSH2 0x593 JUMP JUMPDEST SWAP2 POP POP SWAP3 SWAP2 POP POP JUMP JUMPDEST PUSH0 DUP2 MLOAD SWAP1 POP SWAP2 SWAP1 POP JUMP JUMPDEST PUSH0 DUP3 DUP3 MSTORE PUSH1 0x20 DUP3 ADD SWAP1 POP SWAP3 SWAP2 POP POP JUMP JUMPDEST PUSH0 JUMPDEST DUP4 DUP2 LT ISZERO PUSH2 0x63E JUMPI DUP1 DUP3 ADD MLOAD DUP2 DUP5 ADD MSTORE PUSH1 0x20 DUP2 ADD SWAP1 POP PUSH2 0x623 JUMP JUMPDEST PUSH0 DUP5 DUP5 ADD MSTORE POP POP POP POP JUMP JUMPDEST PUSH0 PUSH2 0x653 DUP3 PUSH2 0x607 JUMP JUMPDEST PUSH2 0x65D DUP2 DUP6 PUSH2 0x611 JUMP JUMPDEST SWAP4 POP PUSH2 0x66D DUP2 DUP6 PUSH1 0x20 DUP7 ADD PUSH2 0x621 JUMP JUMPDEST PUSH2 0x676 DUP2 PUSH2 0x48C JUMP JUMPDEST DUP5 ADD SWAP2 POP POP SWAP3 SWAP2 POP POP JUMP JUMPDEST PUSH0 PUSH1 0x20 DUP3 ADD SWAP1 POP DUP2 DUP2 SUB PUSH0 DUP4 ADD MSTORE PUSH2 0x699 DUP2 DUP5 PUSH2 0x649 JUMP JUMPDEST SWAP1 POP SWAP3 SWAP2 POP POP JUMP JUMPDEST PUSH0 DUP2 SWAP1 POP SWAP2 SWAP1 POP JUMP JUMPDEST PUSH32 0x4E487B7100000000000000000000000000000000000000000000000000000000 PUSH0 MSTORE PUSH1 0x11 PUSH1 0x4 MSTORE PUSH1 0x24 PUSH0 REVERT JUMPDEST PUSH0 PUSH2 0x6E1 DUP3 PUSH2 0x6A1 JUMP JUMPDEST SWAP2 POP PUSH2 0x6EC DUP4 PUSH2 0x6A1 JUMP JUMPDEST SWAP3 POP DUP3 DUP3 MUL PUSH2 0x6FA DUP2 PUSH2 0x6A1 JUMP JUMPDEST SWAP2 POP DUP3 DUP3 DIV DUP5 EQ DUP4 ISZERO OR PUSH2 0x711 JUMPI PUSH2 0x710 PUSH2 0x6AA JUMP JUMPDEST JUMPDEST POP SWAP3 SWAP2 POP POP JUMP JUMPDEST PUSH32 0x4E487B7100000000000000000000000000000000000000000000000000000000 PUSH0 MSTORE PUSH1 0x32 PUSH1 0x4 MSTORE PUSH1 0x24 PUSH0 REVERT JUMPDEST PUSH0 PUSH2 0x74F DUP3 PUSH2 0x6A1 JUMP JUMPDEST SWAP2 POP PUSH32 0xFFFFFFFFFFFFFFFFFFFFFFFFFFFFFFFFFFFFFFFFFFFFFFFFFFFFFFFFFFFFFFFF DUP3 SUB PUSH2 0x781 JUMPI PUSH2 0x780 PUSH2 0x6AA JUMP JUMPDEST JUMPDEST PUSH1 0x1 DUP3 ADD SWAP1 POP SWAP2 SWAP1 POP JUMP INVALID LOG2 PUSH5 0x6970667358 0x22 SLT KECCAK256 SWAP16 PUSH22 0x742A88EB834A9D18EA96EF7D8CA7C55E508DD9A559B0 0xBB 0x29 0x1E 0xF9 0xE0 0xBA 0x5D SIGNEXTEND PUSH5 0x736F6C6343 STOP ADDMOD AND STOP CALLER "
				},
				"gasEstimates": {
					"creation": {
						"codeDepositCost": "397200",
						"executionCost": "434",
						"totalCost": "397634"
					},
					"external": {
						"escapeString(string)": "infinite"
					}
				},
				"methodIdentifiers": {
					"escapeString(string)": "ac79f961"
				}
			},
			"storageLayout": {
				"storage": [],
				"types": null
			},
			"userdoc": {
				"kind": "user",
				"methods": {},
				"version": 1
			}
		}
	}
}