{
	"data": {
		"bytecode": {
			"linkReferences": {},
			"object": "608060405234801562000010575f80fd5b505f600267ffffffffffffffff81111562000030576200002f62000994565b5b6040519080825280602002602001820160405280156200005f5781602001602082028036833780820191505090505b5090506040815f815181106200007a5762000079620009c1565b5b602002602001019060c6811115620000975762000096620009ee565b5b908160c6811115620000ae57620000ad620009ee565b5b81525050606381600181518110620000cb57620000ca620009c1565b5b602002602001019060c6811115620000e857620000e7620009ee565b5b908160c6811115620000ff57620000fe620009ee565b5b815250505f600167ffffffffffffffff81111562000122576200012162000994565b5b604051908082528060200260200182016040528015620001515781602001602082028036833780820191505090505b5090506040815f815181106200016c576200016b620009c1565b5b602002602001019060c6811115620001895762000188620009ee565b5b908160c6811115620001a0576200019f620009ee565b5b815250505f600467ffffffffffffffff811115620001c357620001c262000994565b5b604051908082528060200260200182016040528015620001f25781602001602082028036833780820191505090505b5090506040815f815181106200020d576200020c620009c1565b5b602002602001019060c68111156200022a5762000229620009ee565b5b908160c6811115620002415762000240620009ee565b5b815250506040816001815181106200025e576200025d620009c1565b5b602002602001019060c68111156200027b576200027a620009ee565b5b908160c6811115620002925762000291620009ee565b5b81525050606381600281518110620002af57620002ae620009c1565b5b602002602001019060c6811115620002cc57620002cb620009ee565b5b908160c6811115620002e357620002e2620009ee565b5b815250506041816003815181106200030057620002ff620009c1565b5b602002602001019060c68111156200031d576200031c620009ee565b5b908160c6811115620003345762000333620009ee565b5b815250505f600367ffffffffffffffff81111562000357576200035662000994565b5b604051908082528060200260200182016040528015620003865781602001602082028036833780820191505090505b5090506040815f81518110620003a157620003a0620009c1565b5b602002602001019060c6811115620003be57620003bd620009ee565b5b908160c6811115620003d557620003d4620009ee565b5b81525050604081600181518110620003f257620003f1620009c1565b5b602002602001019060c68111156200040f576200040e620009ee565b5b908160c6811115620004265762000425620009ee565b5b81525050604081600281518110620004435762000442620009c1565b5b602002602001019060c681111562000460576200045f620009ee565b5b908160c6811115620004775762000476620009ee565b5b815250505f600167ffffffffffffffff8111156200049a576200049962000994565b5b604051908082528060200260200182016040528015620004c95781602001602082028036833780820191505090505b50905060c6815f81518110620004e457620004e3620009c1565b5b602002602001019060c6811115620005015762000500620009ee565b5b908160c6811115620005185762000517620009ee565b5b815250505f600367ffffffffffffffff8111156200053b576200053a62000994565b5b6040519080825280602002602001820160405280156200056a5781602001602082028036833780820191505090505b5090506041815f81518110620005855762000584620009c1565b5b602002602001019060c6811115620005a257620005a1620009ee565b5b908160c6811115620005b957620005b8620009ee565b5b81525050604081600181518110620005d657620005d5620009c1565b5b602002602001019060c6811115620005f357620005f2620009ee565b5b908160c68111156200060a5762000609620009ee565b5b81525050604081600281518110620006275762000626620009c1565b5b602002602001019060c6811115620006445762000643620009ee565b5b908160c68111156200065b576200065a620009ee565b5b81525050620006f56040518060400160405280600b81526020017f706f7374436f6d6d656e740000000000000000000000000000000000000000008152506001885f67ffffffffffffffff811115620006b957620006b862000994565b5b604051908082528060200260200182016040528015620006e85781602001602082028036833780820191505090505b50620007dc60201b60201c565b6200073e6040518060400160405280600a81526020017f676574436f6d6d656e74000000000000000000000000000000000000000000008152505f8787620007dc60201b60201c565b620007876040518060400160405280600b81526020017f676574436f6d6d656e74730000000000000000000000000000000000000000008152505f8585620007dc60201b60201c565b620007d06040518060400160405280601481526020017f676574436f6d6d656e74734279416464726573730000000000000000000000008152505f8385620007dc60201b60201c565b50505050505062000db8565b5f80846003811115620007f457620007f3620009ee565b5b6003811115620008095762000808620009ee565b5b81526020019081526020015f2084908060018154018082558091505060019003905f5260205f20015f90919091909150908162000847919062000c52565b50816001856040516200085b919062000da0565b908152602001604051809103902090805190602001906200087e929190620008bc565b508060028560405162000892919062000da0565b90815260200160405180910390209080519060200190620008b5929190620008bc565b5050505050565b828054828255905f5260205f2090601f0160209004810192821562000964579160200282015f5b838211156200093457835183826101000a81548160ff021916908360c6811115620009135762000912620009ee565b5b021790555092602001926001016020815f01049283019260010302620008e3565b8015620009625782816101000a81549060ff02191690556001016020815f0104928301926001030262000934565b505b50905062000973919062000977565b5090565b5b8082111562000990575f815f90555060010162000978565b5090565b7f4e487b71000000000000000000000000000000000000000000000000000000005f52604160045260245ffd5b7f4e487b71000000000000000000000000000000000000000000000000000000005f52603260045260245ffd5b7f4e487b71000000000000000000000000000000000000000000000000000000005f52602160045260245ffd5b5f81519050919050565b7f4e487b71000000000000000000000000000000000000000000000000000000005f52602260045260245ffd5b5f600282049050600182168062000a6a57607f821691505b60208210810362000a805762000a7f62000a25565b5b50919050565b5f819050815f5260205f209050919050565b5f6020601f8301049050919050565b5f82821b905092915050565b5f6008830262000ae47fffffffffffffffffffffffffffffffffffffffffffffffffffffffffffffffff8262000aa7565b62000af0868362000aa7565b95508019841693508086168417925050509392505050565b5f819050919050565b5f819050919050565b5f62000b3a62000b3462000b2e8462000b08565b62000b11565b62000b08565b9050919050565b5f819050919050565b62000b558362000b1a565b62000b6d62000b648262000b41565b84845462000ab3565b825550505050565b5f90565b62000b8362000b75565b62000b9081848462000b4a565b505050565b5b8181101562000bb75762000bab5f8262000b79565b60018101905062000b96565b5050565b601f82111562000c065762000bd08162000a86565b62000bdb8462000a98565b8101602085101562000beb578190505b62000c0362000bfa8562000a98565b83018262000b95565b50505b505050565b5f82821c905092915050565b5f62000c285f198460080262000c0b565b1980831691505092915050565b5f62000c42838362000c17565b9150826002028217905092915050565b62000c5d8262000a1b565b67ffffffffffffffff81111562000c795762000c7862000994565b5b62000c85825462000a52565b62000c9282828562000bbb565b5f60209050601f83116001811462000cc8575f841562000cb3578287015190505b62000cbf858262000c35565b86555062000d2e565b601f19841662000cd88662000a86565b5f5b8281101562000d015784890151825560018201915060208501945060208101905062000cda565b8683101562000d21578489015162000d1d601f89168262000c17565b8355505b6001600288020188555050505b505050505050565b5f81905092915050565b5f5b8381101562000d5f57808201518184015260208101905062000d42565b5f8484015250505050565b5f62000d768262000a1b565b62000d82818562000d36565b935062000d9481856020860162000d40565b80840191505092915050565b5f62000dad828462000d6a565b915081905092915050565b612bca8062000dc65f395ff3fe608060405260043610610090575f3560e01c80636818ba1d116100585780636818ba1d1461019d578063aff62745146101d9578063b6ae042514610215578063e953647214610245578063f4856ccb1461027557610090565b80631069143a146100945780631d16b70d146100be5780633e413065146100fa5780634423745414610124578063458ad6d414610160575b5f80fd5b34801561009f575f80fd5b506100a86102b1565b6040516100b591906119e9565b60405180910390f35b3480156100c9575f80fd5b506100e460048036038101906100df9190611be3565b610425565b6040516100f19190611cdd565b60405180910390f35b348015610105575f80fd5b5061010e610499565b60405161011b9190611d0c565b60405180910390f35b34801561012f575f80fd5b5061014a60048036038101906101459190611d25565b61049f565b6040516101579190611e78565b60405180910390f35b34801561016b575f80fd5b5061018660048036038101906101819190611e98565b610807565b604051610194929190611fbd565b60405180910390f35b3480156101a8575f80fd5b506101c360048036038101906101be9190611ff2565b610955565b6040516101d09190611e78565b60405180910390f35b3480156101e4575f80fd5b506101ff60048036038101906101fa91906120e0565b610c39565b60405161020c91906121a8565b60405180910390f35b61022f600480360381019061022a91906120e0565b610f46565b60405161023c91906121a8565b60405180910390f35b61025f600480360381019061025a91906120e0565b611224565b60405161026c91906121a8565b60405180910390f35b348015610280575f80fd5b5061029b600480360381019061029691906121eb565b611250565b6040516102a89190611e78565b60405180910390f35b60605f600467ffffffffffffffff8111156102cf576102ce611a65565b5b6040519080825280602002602001820160405280156102fd5781602001602082028036833780820191505090505b5090505f815f8151811061031457610313612216565b5b6020026020010190600381111561032e5761032d6118f7565b5b90816003811115610342576103416118f7565b5b8152505060018160018151811061035c5761035b612216565b5b60200260200101906003811115610376576103756118f7565b5b9081600381111561038a576103896118f7565b5b815250506002816002815181106103a4576103a3612216565b5b602002602001019060038111156103be576103bd6118f7565b5b908160038111156103d2576103d16118f7565b5b815250506003816003815181106103ec576103eb612216565b5b60200260200101906003811115610406576104056118f7565b5b9081600381111561041a576104196118f7565b5b815250508091505090565b606061043085611358565b61043985611358565b610442856114b1565b6104638573ffffffffffffffffffffffffffffffffffffffff166014611641565b61046c42611358565b6040516020016104809594939291906122c7565b6040516020818303038152906040529050949350505050565b60035481565b60605f60055f8673ffffffffffffffffffffffffffffffffffffffff1673ffffffffffffffffffffffffffffffffffffffff1681526020019081526020015f20540361053f575f8067ffffffffffffffff811115610500576104ff611a65565b5b60405190808252806020026020018201604052801561053357816020015b606081526020019060019003908161051e5790505b50905080915050610800565b6001831180156105ae5750600183610557919061236a565b82600160055f8873ffffffffffffffffffffffffffffffffffffffff1673ffffffffffffffffffffffffffffffffffffffff1681526020019081526020015f20546105a2919061236a565b6105ac91906123ca565b105b1561060d575f8067ffffffffffffffff8111156105ce576105cd611a65565b5b60405190808252806020026020018201604052801561060157816020015b60608152602001906001900390816105ec5790505b50905080915050610800565b5f805f90505f84600187610621919061236a565b61062b91906123fa565b600160055f8a73ffffffffffffffffffffffffffffffffffffffff1673ffffffffffffffffffffffffffffffffffffffff1681526020019081526020015f2054610675919061236a565b61067f919061236a565b90505f858210156106a1575f905060018261069a919061243b565b93506106bf565b600186836106af919061236a565b6106b9919061243b565b90508593505b5f8467ffffffffffffffff8111156106da576106d9611a65565b5b60405190808252806020026020018201604052801561070d57816020015b60608152602001906001900390816106f85790505b5090505f8390505b8281126107f65760085f8281526020019081526020015f20600201805461073b9061249b565b80601f01602080910402602001604051908101604052809291908181526020018280546107679061249b565b80156107b25780601f10610789576101008083540402835291602001916107b2565b820191905f5260205f20905b81548152906001019060200180831161079557829003601f168201915b50505050508286815181106107ca576107c9612216565b5b602002602001018190525084806107e0906124cb565b95505080806107ee9061251b565b915050610715565b5080955050505050505b9392505050565b60608060018360405161081a9190612562565b90815260200160405180910390206002846040516108389190612562565b9081526020016040518091039020818054806020026020016040519081016040528092919081815260200182805480156108c257602002820191905f5260205f20905f905b82829054906101000a900460ff1660c681111561089d5761089c6118f7565b5b815260200190600101906020825f0104928301926001038202915080841161087d5790505b505050505091508080548060200260200160405190810160405280929190818152602001828054801561094557602002820191905f5260205f20905f905b82829054906101000a900460ff1660c68111156109205761091f6118f7565b5b815260200190600101906020825f010492830192600103820291508084116109005790505b5050505050905091509150915091565b60605f60045f8681526020019081526020015f2054036109c9575f8067ffffffffffffffff81111561098a57610989611a65565b5b6040519080825280602002602001820160405280156109bd57816020015b60608152602001906001900390816109a85790505b50905080915050610c32565b600183118015610a0c57506001836109e1919061236a565b82600160045f8881526020019081526020015f2054610a00919061236a565b610a0a91906123ca565b105b15610a6b575f8067ffffffffffffffff811115610a2c57610a2b611a65565b5b604051908082528060200260200182016040528015610a5f57816020015b6060815260200190600190039081610a4a5790505b50905080915050610c32565b5f805f90505f84600187610a7f919061236a565b610a8991906123fa565b600160045f8a81526020019081526020015f2054610aa7919061236a565b610ab1919061236a565b90505f85821015610ad3575f9050600182610acc919061243b565b9350610af1565b60018683610ae1919061236a565b610aeb919061243b565b90508593505b5f8467ffffffffffffffff811115610b0c57610b0b611a65565b5b604051908082528060200260200182016040528015610b3f57816020015b6060815260200190600190039081610b2a5790505b5090505f8390505b828112610c285760085f8281526020019081526020015f206002018054610b6d9061249b565b80601f0160208091040260200160405190810160405280929190818152602001828054610b999061249b565b8015610be45780601f10610bbb57610100808354040283529160200191610be4565b820191905f5260205f20905b815481529060010190602001808311610bc757829003601f168201915b5050505050828681518110610bfc57610bfb612216565b5b60200260200101819052508480610c12906124cb565b9550508080610c209061251b565b915050610b47565b5080955050505050505b9392505050565b6060610c7a836040518060400160405280600a81526020017f676574436f6d6d656e7400000000000000000000000000000000000000000000815250611876565b15610deb575f82806020019051810190610c94919061258c565b90505f60085f8381526020019081526020015f206040518060800160405290815f820154815260200160018201548152602001600282018054610cd69061249b565b80601f0160208091040260200160405190810160405280929190818152602001828054610d029061249b565b8015610d4d5780601f10610d2457610100808354040283529160200191610d4d565b820191905f5260205f20905b815481529060010190602001808311610d3057829003601f168201915b50505050508152602001600382015f9054906101000a900473ffffffffffffffffffffffffffffffffffffffff1673ffffffffffffffffffffffffffffffffffffffff1673ffffffffffffffffffffffffffffffffffffffff16815250509050805f0151816020015182604001518360600151604051602001610dd394939291906125c6565b60405160208183030381529060405292505050610f40565b610e2a836040518060400160405280600b81526020017f676574436f6d6d656e7473000000000000000000000000000000000000000000815250611876565b15610e85575f805f84806020019051810190610e469190612610565b9250925092505f610e58848484610955565b905080604051602001610e6b9190611e78565b604051602081830303815290604052945050505050610f40565b610ec4836040518060400160405280601481526020017f676574436f6d6d656e7473427941646472657373000000000000000000000000815250611876565b15610f1f575f805f84806020019051810190610ee0919061269b565b9250925092505f610ef284848461049f565b905080604051602001610f059190611e78565b604051602081830303815290604052945050505050610f40565b604051602001610f2e9061270e565b60405160208183030381529060405290505b92915050565b6060610f87836040518060400160405280600b81526020017f706f7374436f6d6d656e74000000000000000000000000000000000000000000815250611876565b156111fd575f8083806020019051810190610fa2919061279a565b915091505f610fb5836003548433610425565b90505f60045f8581526020019081526020015f205490505f60055f3373ffffffffffffffffffffffffffffffffffffffff1673ffffffffffffffffffffffffffffffffffffffff1681526020019081526020015f20549050604051806080016040528086815260200160035481526020018481526020013373ffffffffffffffffffffffffffffffffffffffff1681525060085f60035481526020019081526020015f205f820151815f01556020820151816001015560408201518160020190816110809190612991565b506060820151816003015f6101000a81548173ffffffffffffffffffffffffffffffffffffffff021916908373ffffffffffffffffffffffffffffffffffffffff16021790555090505060035460065f8781526020019081526020015f205f8481526020019081526020015f208190555060035460075f3373ffffffffffffffffffffffffffffffffffffffff1673ffffffffffffffffffffffffffffffffffffffff1681526020019081526020015f205f8381526020019081526020015f208190555060045f8681526020019081526020015f205f815480929190611165906124cb565b919050555060055f3373ffffffffffffffffffffffffffffffffffffffff1673ffffffffffffffffffffffffffffffffffffffff1681526020019081526020015f205f8154809291906111b7906124cb565b919050555060035f8154809291906111ce906124cb565b91905055506040516020016111e29061270e565b6040516020818303038152906040529550505050505061121e565b60405160200161120c9061270e565b60405160208183030381529060405290505b92915050565b60608282604051602001611239929190612a60565b604051602081830303815290604052905092915050565b60605f80836003811115611267576112666118f7565b5b6003811115611279576112786118f7565b5b81526020019081526020015f20805480602002602001604051908101604052809291908181526020015f905b8282101561134d578382905f5260205f200180546112c29061249b565b80601f01602080910402602001604051908101604052809291908181526020018280546112ee9061249b565b80156113395780601f1061131057610100808354040283529160200191611339565b820191905f5260205f20905b81548152906001019060200180831161131c57829003601f168201915b5050505050815260200190600101906112a5565b505050509050919050565b60605f820361139e576040518060400160405280600181526020017f300000000000000000000000000000000000000000000000000000000000000081525090506114ac565b5f8290505f5b5f82146113cd5780806113b6906124cb565b915050600a826113c691906123ca565b91506113a4565b5f8167ffffffffffffffff8111156113e8576113e7611a65565b5b6040519080825280601f01601f19166020018201604052801561141a5781602001600182028036833780820191505090505b5090505b5f85146114a557600182611432919061236a565b9150600a856114419190612a95565b603061144d919061243b565b60f81b81838151811061146357611462612216565b5b60200101907effffffffffffffffffffffffffffffffffffffffffffffffffffffffffffff191690815f1a905350600a8561149e91906123ca565b945061141e565b8093505050505b919050565b60605f825190505f81036114d65760405180602001604052805f81525091505061163c565b5f60036002836114e6919061243b565b6114f091906123ca565b60046114fc91906123fa565b90505f60208261150c919061243b565b67ffffffffffffffff81111561152557611524611a65565b5b6040519080825280601f01601f1916602001820160405280156115575781602001600182028036833780820191505090505b5090505f604051806060016040528060408152602001612b5560409139905060018101602083015f5b868110156115f95760038101905062ffffff818a015116603f8160121c168401518060081b905060ff603f83600c1c1686015116810190508060081b905060ff603f8360061c1686015116810190508060081b905060ff603f831686015116810190508060e01b90508084526004840193505050611580565b50600386066001811461161357600281146116235761162e565b613d3d60f01b600283035261162e565b603d60f81b60018303525b508484525050819450505050505b919050565b60605f600283600261165391906123fa565b61165d919061243b565b67ffffffffffffffff81111561167657611675611a65565b5b6040519080825280601f01601f1916602001820160405280156116a85781602001600182028036833780820191505090505b5090507f3000000000000000000000000000000000000000000000000000000000000000815f815181106116df576116de612216565b5b60200101907effffffffffffffffffffffffffffffffffffffffffffffffffffffffffffff191690815f1a9053507f78000000000000000000000000000000000000000000000000000000000000008160018151811061174257611741612216565b5b60200101907effffffffffffffffffffffffffffffffffffffffffffffffffffffffffffff191690815f1a9053505f600184600261178091906123fa565b61178a919061243b565b90505b6001811115611829577f3031323334353637383961626364656600000000000000000000000000000000600f8616601081106117cc576117cb612216565b5b1a60f81b8282815181106117e3576117e2612216565b5b60200101907effffffffffffffffffffffffffffffffffffffffffffffffffffffffffffff191690815f1a905350600485901c94508061182290612ac5565b905061178d565b505f841461186c576040517f08c379a000000000000000000000000000000000000000000000000000000000815260040161186390612b36565b60405180910390fd5b8091505092915050565b5f816040516020016118889190612562565b60405160208183030381529060405280519060200120836040516020016118af9190612562565b6040516020818303038152906040528051906020012014905092915050565b5f81519050919050565b5f82825260208201905092915050565b5f819050602082019050919050565b7f4e487b71000000000000000000000000000000000000000000000000000000005f52602160045260245ffd5b60048110611935576119346118f7565b5b50565b5f81905061194582611924565b919050565b5f61195482611938565b9050919050565b6119648161194a565b82525050565b5f611975838361195b565b60208301905092915050565b5f602082019050919050565b5f611997826118ce565b6119a181856118d8565b93506119ac836118e8565b805f5b838110156119dc5781516119c3888261196a565b97506119ce83611981565b9250506001810190506119af565b5085935050505092915050565b5f6020820190508181035f830152611a01818461198d565b905092915050565b5f604051905090565b5f80fd5b5f80fd5b5f819050919050565b611a2c81611a1a565b8114611a36575f80fd5b50565b5f81359050611a4781611a23565b92915050565b5f80fd5b5f80fd5b5f601f19601f8301169050919050565b7f4e487b71000000000000000000000000000000000000000000000000000000005f52604160045260245ffd5b611a9b82611a55565b810181811067ffffffffffffffff82111715611aba57611ab9611a65565b5b80604052505050565b5f611acc611a09565b9050611ad88282611a92565b919050565b5f67ffffffffffffffff821115611af757611af6611a65565b5b611b0082611a55565b9050602081019050919050565b828183375f83830152505050565b5f611b2d611b2884611add565b611ac3565b905082815260208101848484011115611b4957611b48611a51565b5b611b54848285611b0d565b509392505050565b5f82601f830112611b7057611b6f611a4d565b5b8135611b80848260208601611b1b565b91505092915050565b5f73ffffffffffffffffffffffffffffffffffffffff82169050919050565b5f611bb282611b89565b9050919050565b611bc281611ba8565b8114611bcc575f80fd5b50565b5f81359050611bdd81611bb9565b92915050565b5f805f8060808587031215611bfb57611bfa611a12565b5b5f611c0887828801611a39565b9450506020611c1987828801611a39565b935050604085013567ffffffffffffffff811115611c3a57611c39611a16565b5b611c4687828801611b5c565b9250506060611c5787828801611bcf565b91505092959194509250565b5f81519050919050565b5f82825260208201905092915050565b5f5b83811015611c9a578082015181840152602081019050611c7f565b5f8484015250505050565b5f611caf82611c63565b611cb98185611c6d565b9350611cc9818560208601611c7d565b611cd281611a55565b840191505092915050565b5f6020820190508181035f830152611cf58184611ca5565b905092915050565b611d0681611a1a565b82525050565b5f602082019050611d1f5f830184611cfd565b92915050565b5f805f60608486031215611d3c57611d3b611a12565b5b5f611d4986828701611bcf565b9350506020611d5a86828701611a39565b9250506040611d6b86828701611a39565b9150509250925092565b5f81519050919050565b5f82825260208201905092915050565b5f819050602082019050919050565b5f82825260208201905092915050565b5f611db882611c63565b611dc28185611d9e565b9350611dd2818560208601611c7d565b611ddb81611a55565b840191505092915050565b5f611df18383611dae565b905092915050565b5f602082019050919050565b5f611e0f82611d75565b611e198185611d7f565b935083602082028501611e2b85611d8f565b805f5b85811015611e665784840389528151611e478582611de6565b9450611e5283611df9565b925060208a01995050600181019050611e2e565b50829750879550505050505092915050565b5f6020820190508181035f830152611e908184611e05565b905092915050565b5f60208284031215611ead57611eac611a12565b5b5f82013567ffffffffffffffff811115611eca57611ec9611a16565b5b611ed684828501611b5c565b91505092915050565b5f81519050919050565b5f819050602082019050919050565b60c78110611f0957611f086118f7565b5b50565b5f819050611f1982611ef8565b919050565b5f611f2882611f0c565b9050919050565b611f3881611f1e565b82525050565b5f611f498383611f2f565b60208301905092915050565b5f602082019050919050565b5f611f6b82611edf565b611f7581856118d8565b9350611f8083611ee9565b805f5b83811015611fb0578151611f978882611f3e565b9750611fa283611f55565b925050600181019050611f83565b5085935050505092915050565b5f6040820190508181035f830152611fd58185611f61565b90508181036020830152611fe98184611f61565b90509392505050565b5f805f6060848603121561200957612008611a12565b5b5f61201686828701611a39565b935050602061202786828701611a39565b925050604061203886828701611a39565b9150509250925092565b5f67ffffffffffffffff82111561205c5761205b611a65565b5b61206582611a55565b9050602081019050919050565b5f61208461207f84612042565b611ac3565b9050828152602081018484840111156120a05761209f611a51565b5b6120ab848285611b0d565b509392505050565b5f82601f8301126120c7576120c6611a4d565b5b81356120d7848260208601612072565b91505092915050565b5f80604083850312156120f6576120f5611a12565b5b5f83013567ffffffffffffffff81111561211357612112611a16565b5b61211f85828601611b5c565b925050602083013567ffffffffffffffff8111156121405761213f611a16565b5b61214c858286016120b3565b9150509250929050565b5f81519050919050565b5f82825260208201905092915050565b5f61217a82612156565b6121848185612160565b9350612194818560208601611c7d565b61219d81611a55565b840191505092915050565b5f6020820190508181035f8301526121c08184612170565b905092915050565b600481106121d4575f80fd5b50565b5f813590506121e5816121c8565b92915050565b5f60208284031215612200576121ff611a12565b5b5f61220d848285016121d7565b91505092915050565b7f4e487b71000000000000000000000000000000000000000000000000000000005f52603260045260245ffd5b5f81905092915050565b5f61225782611c63565b6122618185612243565b9350612271818560208601611c7d565b80840191505092915050565b7f2c000000000000000000000000000000000000000000000000000000000000005f82015250565b5f6122b1600183612243565b91506122bc8261227d565b600182019050919050565b5f6122d2828861224d565b91506122dd826122a5565b91506122e9828761224d565b91506122f4826122a5565b9150612300828661224d565b915061230b826122a5565b9150612317828561224d565b9150612322826122a5565b915061232e828461224d565b91508190509695505050505050565b7f4e487b71000000000000000000000000000000000000000000000000000000005f52601160045260245ffd5b5f61237482611a1a565b915061237f83611a1a565b92508282039050818111156123975761239661233d565b5b92915050565b7f4e487b71000000000000000000000000000000000000000000000000000000005f52601260045260245ffd5b5f6123d482611a1a565b91506123df83611a1a565b9250826123ef576123ee61239d565b5b828204905092915050565b5f61240482611a1a565b915061240f83611a1a565b925082820261241d81611a1a565b915082820484148315176124345761243361233d565b5b5092915050565b5f61244582611a1a565b915061245083611a1a565b92508282019050808211156124685761246761233d565b5b92915050565b7f4e487b71000000000000000000000000000000000000000000000000000000005f52602260045260245ffd5b5f60028204905060018216806124b257607f821691505b6020821081036124c5576124c461246e565b5b50919050565b5f6124d582611a1a565b91507fffffffffffffffffffffffffffffffffffffffffffffffffffffffffffffffff82036125075761250661233d565b5b600182019050919050565b5f819050919050565b5f61252582612512565b91507f800000000000000000000000000000000000000000000000000000000000000082036125575761255661233d565b5b600182039050919050565b5f61256d828461224d565b915081905092915050565b5f8151905061258681611a23565b92915050565b5f602082840312156125a1576125a0611a12565b5b5f6125ae84828501612578565b91505092915050565b6125c081611ba8565b82525050565b5f6080820190506125d95f830187611cfd565b6125e66020830186611cfd565b81810360408301526125f88185611ca5565b905061260760608301846125b7565b95945050505050565b5f805f6060848603121561262757612626611a12565b5b5f61263486828701612578565b935050602061264586828701612578565b925050604061265686828701612578565b9150509250925092565b5f61266a82611b89565b9050919050565b61267a81612660565b8114612684575f80fd5b50565b5f8151905061269581612671565b92915050565b5f805f606084860312156126b2576126b1611a12565b5b5f6126bf86828701612687565b93505060206126d086828701612578565b92505060406126e186828701612578565b9150509250925092565b50565b5f6126f95f83611c6d565b9150612704826126eb565b5f82019050919050565b5f6020820190508181035f830152612725816126ee565b9050919050565b5f61273e61273984611add565b611ac3565b90508281526020810184848401111561275a57612759611a51565b5b612765848285611c7d565b509392505050565b5f82601f83011261278157612780611a4d565b5b815161279184826020860161272c565b91505092915050565b5f80604083850312156127b0576127af611a12565b5b5f6127bd85828601612578565b925050602083015167ffffffffffffffff8111156127de576127dd611a16565b5b6127ea8582860161276d565b9150509250929050565b5f819050815f5260205f209050919050565b5f6020601f8301049050919050565b5f82821b905092915050565b5f600883026128507fffffffffffffffffffffffffffffffffffffffffffffffffffffffffffffffff82612815565b61285a8683612815565b95508019841693508086168417925050509392505050565b5f819050919050565b5f61289561289061288b84611a1a565b612872565b611a1a565b9050919050565b5f819050919050565b6128ae8361287b565b6128c26128ba8261289c565b848454612821565b825550505050565b5f90565b6128d66128ca565b6128e18184846128a5565b505050565b5b81811015612904576128f95f826128ce565b6001810190506128e7565b5050565b601f8211156129495761291a816127f4565b61292384612806565b81016020851015612932578190505b61294661293e85612806565b8301826128e6565b50505b505050565b5f82821c905092915050565b5f6129695f198460080261294e565b1980831691505092915050565b5f612981838361295a565b9150826002028217905092915050565b61299a82611c63565b67ffffffffffffffff8111156129b3576129b2611a65565b5b6129bd825461249b565b6129c8828285612908565b5f60209050601f8311600181146129f9575f84156129e7578287015190505b6129f18582612976565b865550612a58565b601f198416612a07866127f4565b5f5b82811015612a2e57848901518255600182019150602085019450602081019050612a09565b86831015612a4b5784890151612a47601f89168261295a565b8355505b6001600288020188555050505b505050505050565b5f6040820190508181035f830152612a788185611ca5565b90508181036020830152612a8c8184612170565b90509392505050565b5f612a9f82611a1a565b9150612aaa83611a1a565b925082612aba57612ab961239d565b5b828206905092915050565b5f612acf82611a1a565b91505f8203612ae157612ae061233d565b5b600182039050919050565b7f537472696e67733a20686578206c656e67746820696e73756666696369656e745f82015250565b5f612b20602083611c6d565b9150612b2b82612aec565b602082019050919050565b5f6020820190508181035f830152612b4d81612b14565b905091905056fe4142434445464748494a4b4c4d4e4f505152535455565758595a6162636465666768696a6b6c6d6e6f707172737475767778797a303132333435363738392b2fa2646970667358221220a9c8695b6b77ac824138a29513d5213bcb84134114c5ef0df8be9b35161acb8e64736f6c63430008160033",
			"opcodes": "PUSH1 0x80 PUSH1 0x40 MSTORE CALLVALUE DUP1 ISZERO PUSH3 0x10 JUMPI PUSH0 DUP1 REVERT JUMPDEST POP PUSH0 PUSH1 0x2 PUSH8 0xFFFFFFFFFFFFFFFF DUP2 GT ISZERO PUSH3 0x30 JUMPI PUSH3 0x2F PUSH3 0x994 JUMP JUMPDEST JUMPDEST PUSH1 0x40 MLOAD SWAP1 DUP1 DUP3 MSTORE DUP1 PUSH1 0x20 MUL PUSH1 0x20 ADD DUP3 ADD PUSH1 0x40 MSTORE DUP1 ISZERO PUSH3 0x5F JUMPI DUP2 PUSH1 0x20 ADD PUSH1 0x20 DUP3 MUL DUP1 CALLDATASIZE DUP4 CALLDATACOPY DUP1 DUP3 ADD SWAP2 POP POP SWAP1 POP JUMPDEST POP SWAP1 POP PUSH1 0x40 DUP2 PUSH0 DUP2 MLOAD DUP2 LT PUSH3 0x7A JUMPI PUSH3 0x79 PUSH3 0x9C1 JUMP JUMPDEST JUMPDEST PUSH1 0x20 MUL PUSH1 0x20 ADD ADD SWAP1 PUSH1 0xC6 DUP2 GT ISZERO PUSH3 0x97 JUMPI PUSH3 0x96 PUSH3 0x9EE JUMP JUMPDEST JUMPDEST SWAP1 DUP2 PUSH1 0xC6 DUP2 GT ISZERO PUSH3 0xAE JUMPI PUSH3 0xAD PUSH3 0x9EE JUMP JUMPDEST JUMPDEST DUP2 MSTORE POP POP PUSH1 0x63 DUP2 PUSH1 0x1 DUP2 MLOAD DUP2 LT PUSH3 0xCB JUMPI PUSH3 0xCA PUSH3 0x9C1 JUMP JUMPDEST JUMPDEST PUSH1 0x20 MUL PUSH1 0x20 ADD ADD SWAP1 PUSH1 0xC6 DUP2 GT ISZERO PUSH3 0xE8 JUMPI PUSH3 0xE7 PUSH3 0x9EE JUMP JUMPDEST JUMPDEST SWAP1 DUP2 PUSH1 0xC6 DUP2 GT ISZERO PUSH3 0xFF JUMPI PUSH3 0xFE PUSH3 0x9EE JUMP JUMPDEST JUMPDEST DUP2 MSTORE POP POP PUSH0 PUSH1 0x1 PUSH8 0xFFFFFFFFFFFFFFFF DUP2 GT ISZERO PUSH3 0x122 JUMPI PUSH3 0x121 PUSH3 0x994 JUMP JUMPDEST JUMPDEST PUSH1 0x40 MLOAD SWAP1 DUP1 DUP3 MSTORE DUP1 PUSH1 0x20 MUL PUSH1 0x20 ADD DUP3 ADD PUSH1 0x40 MSTORE DUP1 ISZERO PUSH3 0x151 JUMPI DUP2 PUSH1 0x20 ADD PUSH1 0x20 DUP3 MUL DUP1 CALLDATASIZE DUP4 CALLDATACOPY DUP1 DUP3 ADD SWAP2 POP POP SWAP1 POP JUMPDEST POP SWAP1 POP PUSH1 0x40 DUP2 PUSH0 DUP2 MLOAD DUP2 LT PUSH3 0x16C JUMPI PUSH3 0x16B PUSH3 0x9C1 JUMP JUMPDEST JUMPDEST PUSH1 0x20 MUL PUSH1 0x20 ADD ADD SWAP1 PUSH1 0xC6 DUP2 GT ISZERO PUSH3 0x189 JUMPI PUSH3 0x188 PUSH3 0x9EE JUMP JUMPDEST JUMPDEST SWAP1 DUP2 PUSH1 0xC6 DUP2 GT ISZERO PUSH3 0x1A0 JUMPI PUSH3 0x19F PUSH3 0x9EE JUMP JUMPDEST JUMPDEST DUP2 MSTORE POP POP PUSH0 PUSH1 0x4 PUSH8 0xFFFFFFFFFFFFFFFF DUP2 GT ISZERO PUSH3 0x1C3 JUMPI PUSH3 0x1C2 PUSH3 0x994 JUMP JUMPDEST JUMPDEST PUSH1 0x40 MLOAD SWAP1 DUP1 DUP3 MSTORE DUP1 PUSH1 0x20 MUL PUSH1 0x20 ADD DUP3 ADD PUSH1 0x40 MSTORE DUP1 ISZERO PUSH3 0x1F2 JUMPI DUP2 PUSH1 0x20 ADD PUSH1 0x20 DUP3 MUL DUP1 CALLDATASIZE DUP4 CALLDATACOPY DUP1 DUP3 ADD SWAP2 POP POP SWAP1 POP JUMPDEST POP SWAP1 POP PUSH1 0x40 DUP2 PUSH0 DUP2 MLOAD DUP2 LT PUSH3 0x20D JUMPI PUSH3 0x20C PUSH3 0x9C1 JUMP JUMPDEST JUMPDEST PUSH1 0x20 MUL PUSH1 0x20 ADD ADD SWAP1 PUSH1 0xC6 DUP2 GT ISZERO PUSH3 0x22A JUMPI PUSH3 0x229 PUSH3 0x9EE JUMP JUMPDEST JUMPDEST SWAP1 DUP2 PUSH1 0xC6 DUP2 GT ISZERO PUSH3 0x241 JUMPI PUSH3 0x240 PUSH3 0x9EE JUMP JUMPDEST JUMPDEST DUP2 MSTORE POP POP PUSH1 0x40 DUP2 PUSH1 0x1 DUP2 MLOAD DUP2 LT PUSH3 0x25E JUMPI PUSH3 0x25D PUSH3 0x9C1 JUMP JUMPDEST JUMPDEST PUSH1 0x20 MUL PUSH1 0x20 ADD ADD SWAP1 PUSH1 0xC6 DUP2 GT ISZERO PUSH3 0x27B JUMPI PUSH3 0x27A PUSH3 0x9EE JUMP JUMPDEST JUMPDEST SWAP1 DUP2 PUSH1 0xC6 DUP2 GT ISZERO PUSH3 0x292 JUMPI PUSH3 0x291 PUSH3 0x9EE JUMP JUMPDEST JUMPDEST DUP2 MSTORE POP POP PUSH1 0x63 DUP2 PUSH1 0x2 DUP2 MLOAD DUP2 LT PUSH3 0x2AF JUMPI PUSH3 0x2AE PUSH3 0x9C1 JUMP JUMPDEST JUMPDEST PUSH1 0x20 MUL PUSH1 0x20 ADD ADD SWAP1 PUSH1 0xC6 DUP2 GT ISZERO PUSH3 0x2CC JUMPI PUSH3 0x2CB PUSH3 0x9EE JUMP JUMPDEST JUMPDEST SWAP1 DUP2 PUSH1 0xC6 DUP2 GT ISZERO PUSH3 0x2E3 JUMPI PUSH3 0x2E2 PUSH3 0x9EE JUMP JUMPDEST JUMPDEST DUP2 MSTORE POP POP PUSH1 0x41 DUP2 PUSH1 0x3 DUP2 MLOAD DUP2 LT PUSH3 0x300 JUMPI PUSH3 0x2FF PUSH3 0x9C1 JUMP JUMPDEST JUMPDEST PUSH1 0x20 MUL PUSH1 0x20 ADD ADD SWAP1 PUSH1 0xC6 DUP2 GT ISZERO PUSH3 0x31D JUMPI PUSH3 0x31C PUSH3 0x9EE JUMP JUMPDEST JUMPDEST SWAP1 DUP2 PUSH1 0xC6 DUP2 GT ISZERO PUSH3 0x334 JUMPI PUSH3 0x333 PUSH3 0x9EE JUMP JUMPDEST JUMPDEST DUP2 MSTORE POP POP PUSH0 PUSH1 0x3 PUSH8 0xFFFFFFFFFFFFFFFF DUP2 GT ISZERO PUSH3 0x357 JUMPI PUSH3 0x356 PUSH3 0x994 JUMP JUMPDEST JUMPDEST PUSH1 0x40 MLOAD SWAP1 DUP1 DUP3 MSTORE DUP1 PUSH1 0x20 MUL PUSH1 0x20 ADD DUP3 ADD PUSH1 0x40 MSTORE DUP1 ISZERO PUSH3 0x386 JUMPI DUP2 PUSH1 0x20 ADD PUSH1 0x20 DUP3 MUL DUP1 CALLDATASIZE DUP4 CALLDATACOPY DUP1 DUP3 ADD SWAP2 POP POP SWAP1 POP JUMPDEST POP SWAP1 POP PUSH1 0x40 DUP2 PUSH0 DUP2 MLOAD DUP2 LT PUSH3 0x3A1 JUMPI PUSH3 0x3A0 PUSH3 0x9C1 JUMP JUMPDEST JUMPDEST PUSH1 0x20 MUL PUSH1 0x20 ADD ADD SWAP1 PUSH1 0xC6 DUP2 GT ISZERO PUSH3 0x3BE JUMPI PUSH3 0x3BD PUSH3 0x9EE JUMP JUMPDEST JUMPDEST SWAP1 DUP2 PUSH1 0xC6 DUP2 GT ISZERO PUSH3 0x3D5 JUMPI PUSH3 0x3D4 PUSH3 0x9EE JUMP JUMPDEST JUMPDEST DUP2 MSTORE POP POP PUSH1 0x40 DUP2 PUSH1 0x1 DUP2 MLOAD DUP2 LT PUSH3 0x3F2 JUMPI PUSH3 0x3F1 PUSH3 0x9C1 JUMP JUMPDEST JUMPDEST PUSH1 0x20 MUL PUSH1 0x20 ADD ADD SWAP1 PUSH1 0xC6 DUP2 GT ISZERO PUSH3 0x40F JUMPI PUSH3 0x40E PUSH3 0x9EE JUMP JUMPDEST JUMPDEST SWAP1 DUP2 PUSH1 0xC6 DUP2 GT ISZERO PUSH3 0x426 JUMPI PUSH3 0x425 PUSH3 0x9EE JUMP JUMPDEST JUMPDEST DUP2 MSTORE POP POP PUSH1 0x40 DUP2 PUSH1 0x2 DUP2 MLOAD DUP2 LT PUSH3 0x443 JUMPI PUSH3 0x442 PUSH3 0x9C1 JUMP JUMPDEST JUMPDEST PUSH1 0x20 MUL PUSH1 0x20 ADD ADD SWAP1 PUSH1 0xC6 DUP2 GT ISZERO PUSH3 0x460 JUMPI PUSH3 0x45F PUSH3 0x9EE JUMP JUMPDEST JUMPDEST SWAP1 DUP2 PUSH1 0xC6 DUP2 GT ISZERO PUSH3 0x477 JUMPI PUSH3 0x476 PUSH3 0x9EE JUMP JUMPDEST JUMPDEST DUP2 MSTORE POP POP PUSH0 PUSH1 0x1 PUSH8 0xFFFFFFFFFFFFFFFF DUP2 GT ISZERO PUSH3 0x49A JUMPI PUSH3 0x499 PUSH3 0x994 JUMP JUMPDEST JUMPDEST PUSH1 0x40 MLOAD SWAP1 DUP1 DUP3 MSTORE DUP1 PUSH1 0x20 MUL PUSH1 0x20 ADD DUP3 ADD PUSH1 0x40 MSTORE DUP1 ISZERO PUSH3 0x4C9 JUMPI DUP2 PUSH1 0x20 ADD PUSH1 0x20 DUP3 MUL DUP1 CALLDATASIZE DUP4 CALLDATACOPY DUP1 DUP3 ADD SWAP2 POP POP SWAP1 POP JUMPDEST POP SWAP1 POP PUSH1 0xC6 DUP2 PUSH0 DUP2 MLOAD DUP2 LT PUSH3 0x4E4 JUMPI PUSH3 0x4E3 PUSH3 0x9C1 JUMP JUMPDEST JUMPDEST PUSH1 0x20 MUL PUSH1 0x20 ADD ADD SWAP1 PUSH1 0xC6 DUP2 GT ISZERO PUSH3 0x501 JUMPI PUSH3 0x500 PUSH3 0x9EE JUMP JUMPDEST JUMPDEST SWAP1 DUP2 PUSH1 0xC6 DUP2 GT ISZERO PUSH3 0x518 JUMPI PUSH3 0x517 PUSH3 0x9EE JUMP JUMPDEST JUMPDEST DUP2 MSTORE POP POP PUSH0 PUSH1 0x3 PUSH8 0xFFFFFFFFFFFFFFFF DUP2 GT ISZERO PUSH3 0x53B JUMPI PUSH3 0x53A PUSH3 0x994 JUMP JUMPDEST JUMPDEST PUSH1 0x40 MLOAD SWAP1 DUP1 DUP3 MSTORE DUP1 PUSH1 0x20 MUL PUSH1 0x20 ADD DUP3 ADD PUSH1 0x40 MSTORE DUP1 ISZERO PUSH3 0x56A JUMPI DUP2 PUSH1 0x20 ADD PUSH1 0x20 DUP3 MUL DUP1 CALLDATASIZE DUP4 CALLDATACOPY DUP1 DUP3 ADD SWAP2 POP POP SWAP1 POP JUMPDEST POP SWAP1 POP PUSH1 0x41 DUP2 PUSH0 DUP2 MLOAD DUP2 LT PUSH3 0x585 JUMPI PUSH3 0x584 PUSH3 0x9C1 JUMP JUMPDEST JUMPDEST PUSH1 0x20 MUL PUSH1 0x20 ADD ADD SWAP1 PUSH1 0xC6 DUP2 GT ISZERO PUSH3 0x5A2 JUMPI PUSH3 0x5A1 PUSH3 0x9EE JUMP JUMPDEST JUMPDEST SWAP1 DUP2 PUSH1 0xC6 DUP2 GT ISZERO PUSH3 0x5B9 JUMPI PUSH3 0x5B8 PUSH3 0x9EE JUMP JUMPDEST JUMPDEST DUP2 MSTORE POP POP PUSH1 0x40 DUP2 PUSH1 0x1 DUP2 MLOAD DUP2 LT PUSH3 0x5D6 JUMPI PUSH3 0x5D5 PUSH3 0x9C1 JUMP JUMPDEST JUMPDEST PUSH1 0x20 MUL PUSH1 0x20 ADD ADD SWAP1 PUSH1 0xC6 DUP2 GT ISZERO PUSH3 0x5F3 JUMPI PUSH3 0x5F2 PUSH3 0x9EE JUMP JUMPDEST JUMPDEST SWAP1 DUP2 PUSH1 0xC6 DUP2 GT ISZERO PUSH3 0x60A JUMPI PUSH3 0x609 PUSH3 0x9EE JUMP JUMPDEST JUMPDEST DUP2 MSTORE POP POP PUSH1 0x40 DUP2 PUSH1 0x2 DUP2 MLOAD DUP2 LT PUSH3 0x627 JUMPI PUSH3 0x626 PUSH3 0x9C1 JUMP JUMPDEST JUMPDEST PUSH1 0x20 MUL PUSH1 0x20 ADD ADD SWAP1 PUSH1 0xC6 DUP2 GT ISZERO PUSH3 0x644 JUMPI PUSH3 0x643 PUSH3 0x9EE JUMP JUMPDEST JUMPDEST SWAP1 DUP2 PUSH1 0xC6 DUP2 GT ISZERO PUSH3 0x65B JUMPI PUSH3 0x65A PUSH3 0x9EE JUMP JUMPDEST JUMPDEST DUP2 MSTORE POP POP PUSH3 0x6F5 PUSH1 0x40 MLOAD DUP1 PUSH1 0x40 ADD PUSH1 0x40 MSTORE DUP1 PUSH1 0xB DUP2 MSTORE PUSH1 0x20 ADD PUSH32 0x706F7374436F6D6D656E74000000000000000000000000000000000000000000 DUP2 MSTORE POP PUSH1 0x1 DUP9 PUSH0 PUSH8 0xFFFFFFFFFFFFFFFF DUP2 GT ISZERO PUSH3 0x6B9 JUMPI PUSH3 0x6B8 PUSH3 0x994 JUMP JUMPDEST JUMPDEST PUSH1 0x40 MLOAD SWAP1 DUP1 DUP3 MSTORE DUP1 PUSH1 0x20 MUL PUSH1 0x20 ADD DUP3 ADD PUSH1 0x40 MSTORE DUP1 ISZERO PUSH3 0x6E8 JUMPI DUP2 PUSH1 0x20 ADD PUSH1 0x20 DUP3 MUL DUP1 CALLDATASIZE DUP4 CALLDATACOPY DUP1 DUP3 ADD SWAP2 POP POP SWAP1 POP JUMPDEST POP PUSH3 0x7DC PUSH1 0x20 SHL PUSH1 0x20 SHR JUMP JUMPDEST PUSH3 0x73E PUSH1 0x40 MLOAD DUP1 PUSH1 0x40 ADD PUSH1 0x40 MSTORE DUP1 PUSH1 0xA DUP2 MSTORE PUSH1 0x20 ADD PUSH32 0x676574436F6D6D656E7400000000000000000000000000000000000000000000 DUP2 MSTORE POP PUSH0 DUP8 DUP8 PUSH3 0x7DC PUSH1 0x20 SHL PUSH1 0x20 SHR JUMP JUMPDEST PUSH3 0x787 PUSH1 0x40 MLOAD DUP1 PUSH1 0x40 ADD PUSH1 0x40 MSTORE DUP1 PUSH1 0xB DUP2 MSTORE PUSH1 0x20 ADD PUSH32 0x676574436F6D6D656E7473000000000000000000000000000000000000000000 DUP2 MSTORE POP PUSH0 DUP6 DUP6 PUSH3 0x7DC PUSH1 0x20 SHL PUSH1 0x20 SHR JUMP JUMPDEST PUSH3 0x7D0 PUSH1 0x40 MLOAD DUP1 PUSH1 0x40 ADD PUSH1 0x40 MSTORE DUP1 PUSH1 0x14 DUP2 MSTORE PUSH1 0x20 ADD PUSH32 0x676574436F6D6D656E7473427941646472657373000000000000000000000000 DUP2 MSTORE POP PUSH0 DUP4 DUP6 PUSH3 0x7DC PUSH1 0x20 SHL PUSH1 0x20 SHR JUMP JUMPDEST POP POP POP POP POP POP PUSH3 0xDB8 JUMP JUMPDEST PUSH0 DUP1 DUP5 PUSH1 0x3 DUP2 GT ISZERO PUSH3 0x7F4 JUMPI PUSH3 0x7F3 PUSH3 0x9EE JUMP JUMPDEST JUMPDEST PUSH1 0x3 DUP2 GT ISZERO PUSH3 0x809 JUMPI PUSH3 0x808 PUSH3 0x9EE JUMP JUMPDEST JUMPDEST DUP2 MSTORE PUSH1 0x20 ADD SWAP1 DUP2 MSTORE PUSH1 0x20 ADD PUSH0 KECCAK256 DUP5 SWAP1 DUP1 PUSH1 0x1 DUP2 SLOAD ADD DUP1 DUP3 SSTORE DUP1 SWAP2 POP POP PUSH1 0x1 SWAP1 SUB SWAP1 PUSH0 MSTORE PUSH1 0x20 PUSH0 KECCAK256 ADD PUSH0 SWAP1 SWAP2 SWAP1 SWAP2 SWAP1 SWAP2 POP SWAP1 DUP2 PUSH3 0x847 SWAP2 SWAP1 PUSH3 0xC52 JUMP JUMPDEST POP DUP2 PUSH1 0x1 DUP6 PUSH1 0x40 MLOAD PUSH3 0x85B SWAP2 SWAP1 PUSH3 0xDA0 JUMP JUMPDEST SWAP1 DUP2 MSTORE PUSH1 0x20 ADD PUSH1 0x40 MLOAD DUP1 SWAP2 SUB SWAP1 KECCAK256 SWAP1 DUP1 MLOAD SWAP1 PUSH1 0x20 ADD SWAP1 PUSH3 0x87E SWAP3 SWAP2 SWAP1 PUSH3 0x8BC JUMP JUMPDEST POP DUP1 PUSH1 0x2 DUP6 PUSH1 0x40 MLOAD PUSH3 0x892 SWAP2 SWAP1 PUSH3 0xDA0 JUMP JUMPDEST SWAP1 DUP2 MSTORE PUSH1 0x20 ADD PUSH1 0x40 MLOAD DUP1 SWAP2 SUB SWAP1 KECCAK256 SWAP1 DUP1 MLOAD SWAP1 PUSH1 0x20 ADD SWAP1 PUSH3 0x8B5 SWAP3 SWAP2 SWAP1 PUSH3 0x8BC JUMP JUMPDEST POP POP POP POP POP JUMP JUMPDEST DUP3 DUP1 SLOAD DUP3 DUP3 SSTORE SWAP1 PUSH0 MSTORE PUSH1 0x20 PUSH0 KECCAK256 SWAP1 PUSH1 0x1F ADD PUSH1 0x20 SWAP1 DIV DUP2 ADD SWAP3 DUP3 ISZERO PUSH3 0x964 JUMPI SWAP2 PUSH1 0x20 MUL DUP3 ADD PUSH0 JUMPDEST DUP4 DUP3 GT ISZERO PUSH3 0x934 JUMPI DUP4 MLOAD DUP4 DUP3 PUSH2 0x100 EXP DUP2 SLOAD DUP2 PUSH1 0xFF MUL NOT AND SWAP1 DUP4 PUSH1 0xC6 DUP2 GT ISZERO PUSH3 0x913 JUMPI PUSH3 0x912 PUSH3 0x9EE JUMP JUMPDEST JUMPDEST MUL OR SWAP1 SSTORE POP SWAP3 PUSH1 0x20 ADD SWAP3 PUSH1 0x1 ADD PUSH1 0x20 DUP2 PUSH0 ADD DIV SWAP3 DUP4 ADD SWAP3 PUSH1 0x1 SUB MUL PUSH3 0x8E3 JUMP JUMPDEST DUP1 ISZERO PUSH3 0x962 JUMPI DUP3 DUP2 PUSH2 0x100 EXP DUP2 SLOAD SWAP1 PUSH1 0xFF MUL NOT AND SWAP1 SSTORE PUSH1 0x1 ADD PUSH1 0x20 DUP2 PUSH0 ADD DIV SWAP3 DUP4 ADD SWAP3 PUSH1 0x1 SUB MUL PUSH3 0x934 JUMP JUMPDEST POP JUMPDEST POP SWAP1 POP PUSH3 0x973 SWAP2 SWAP1 PUSH3 0x977 JUMP JUMPDEST POP SWAP1 JUMP JUMPDEST JUMPDEST DUP1 DUP3 GT ISZERO PUSH3 0x990 JUMPI PUSH0 DUP2 PUSH0 SWAP1 SSTORE POP PUSH1 0x1 ADD PUSH3 0x978 JUMP JUMPDEST POP SWAP1 JUMP JUMPDEST PUSH32 0x4E487B7100000000000000000000000000000000000000000000000000000000 PUSH0 MSTORE PUSH1 0x41 PUSH1 0x4 MSTORE PUSH1 0x24 PUSH0 REVERT JUMPDEST PUSH32 0x4E487B7100000000000000000000000000000000000000000000000000000000 PUSH0 MSTORE PUSH1 0x32 PUSH1 0x4 MSTORE PUSH1 0x24 PUSH0 REVERT JUMPDEST PUSH32 0x4E487B7100000000000000000000000000000000000000000000000000000000 PUSH0 MSTORE PUSH1 0x21 PUSH1 0x4 MSTORE PUSH1 0x24 PUSH0 REVERT JUMPDEST PUSH0 DUP2 MLOAD SWAP1 POP SWAP2 SWAP1 POP JUMP JUMPDEST PUSH32 0x4E487B7100000000000000000000000000000000000000000000000000000000 PUSH0 MSTORE PUSH1 0x22 PUSH1 0x4 MSTORE PUSH1 0x24 PUSH0 REVERT JUMPDEST PUSH0 PUSH1 0x2 DUP3 DIV SWAP1 POP PUSH1 0x1 DUP3 AND DUP1 PUSH3 0xA6A JUMPI PUSH1 0x7F DUP3 AND SWAP2 POP JUMPDEST PUSH1 0x20 DUP3 LT DUP2 SUB PUSH3 0xA80 JUMPI PUSH3 0xA7F PUSH3 0xA25 JUMP JUMPDEST JUMPDEST POP SWAP2 SWAP1 POP JUMP JUMPDEST PUSH0 DUP2 SWAP1 POP DUP2 PUSH0 MSTORE PUSH1 0x20 PUSH0 KECCAK256 SWAP1 POP SWAP2 SWAP1 POP JUMP JUMPDEST PUSH0 PUSH1 0x20 PUSH1 0x1F DUP4 ADD DIV SWAP1 POP SWAP2 SWAP1 POP JUMP JUMPDEST PUSH0 DUP3 DUP3 SHL SWAP1 POP SWAP3 SWAP2 POP POP JUMP JUMPDEST PUSH0 PUSH1 0x8 DUP4 MUL PUSH3 0xAE4 PUSH32 0xFFFFFFFFFFFFFFFFFFFFFFFFFFFFFFFFFFFFFFFFFFFFFFFFFFFFFFFFFFFFFFFF DUP3 PUSH3 0xAA7 JUMP JUMPDEST PUSH3 0xAF0 DUP7 DUP4 PUSH3 0xAA7 JUMP JUMPDEST SWAP6 POP DUP1 NOT DUP5 AND SWAP4 POP DUP1 DUP7 AND DUP5 OR SWAP3 POP POP POP SWAP4 SWAP3 POP POP POP JUMP JUMPDEST PUSH0 DUP2 SWAP1 POP SWAP2 SWAP1 POP JUMP JUMPDEST PUSH0 DUP2 SWAP1 POP SWAP2 SWAP1 POP JUMP JUMPDEST PUSH0 PUSH3 0xB3A PUSH3 0xB34 PUSH3 0xB2E DUP5 PUSH3 0xB08 JUMP JUMPDEST PUSH3 0xB11 JUMP JUMPDEST PUSH3 0xB08 JUMP JUMPDEST SWAP1 POP SWAP2 SWAP1 POP JUMP JUMPDEST PUSH0 DUP2 SWAP1 POP SWAP2 SWAP1 POP JUMP JUMPDEST PUSH3 0xB55 DUP4 PUSH3 0xB1A JUMP JUMPDEST PUSH3 0xB6D PUSH3 0xB64 DUP3 PUSH3 0xB41 JUMP JUMPDEST DUP5 DUP5 SLOAD PUSH3 0xAB3 JUMP JUMPDEST DUP3 SSTORE POP POP POP POP JUMP JUMPDEST PUSH0 SWAP1 JUMP JUMPDEST PUSH3 0xB83 PUSH3 0xB75 JUMP JUMPDEST PUSH3 0xB90 DUP2 DUP5 DUP5 PUSH3 0xB4A JUMP JUMPDEST POP POP POP JUMP JUMPDEST JUMPDEST DUP2 DUP2 LT ISZERO PUSH3 0xBB7 JUMPI PUSH3 0xBAB PUSH0 DUP3 PUSH3 0xB79 JUMP JUMPDEST PUSH1 0x1 DUP2 ADD SWAP1 POP PUSH3 0xB96 JUMP JUMPDEST POP POP JUMP JUMPDEST PUSH1 0x1F DUP3 GT ISZERO PUSH3 0xC06 JUMPI PUSH3 0xBD0 DUP2 PUSH3 0xA86 JUMP JUMPDEST PUSH3 0xBDB DUP5 PUSH3 0xA98 JUMP JUMPDEST DUP2 ADD PUSH1 0x20 DUP6 LT ISZERO PUSH3 0xBEB JUMPI DUP2 SWAP1 POP JUMPDEST PUSH3 0xC03 PUSH3 0xBFA DUP6 PUSH3 0xA98 JUMP JUMPDEST DUP4 ADD DUP3 PUSH3 0xB95 JUMP JUMPDEST POP POP JUMPDEST POP POP POP JUMP JUMPDEST PUSH0 DUP3 DUP3 SHR SWAP1 POP SWAP3 SWAP2 POP POP JUMP JUMPDEST PUSH0 PUSH3 0xC28 PUSH0 NOT DUP5 PUSH1 0x8 MUL PUSH3 0xC0B JUMP JUMPDEST NOT DUP1 DUP4 AND SWAP2 POP POP SWAP3 SWAP2 POP POP JUMP JUMPDEST PUSH0 PUSH3 0xC42 DUP4 DUP4 PUSH3 0xC17 JUMP JUMPDEST SWAP2 POP DUP3 PUSH1 0x2 MUL DUP3 OR SWAP1 POP SWAP3 SWAP2 POP POP JUMP JUMPDEST PUSH3 0xC5D DUP3 PUSH3 0xA1B JUMP JUMPDEST PUSH8 0xFFFFFFFFFFFFFFFF DUP2 GT ISZERO PUSH3 0xC79 JUMPI PUSH3 0xC78 PUSH3 0x994 JUMP JUMPDEST JUMPDEST PUSH3 0xC85 DUP3 SLOAD PUSH3 0xA52 JUMP JUMPDEST PUSH3 0xC92 DUP3 DUP3 DUP6 PUSH3 0xBBB JUMP JUMPDEST PUSH0 PUSH1 0x20 SWAP1 POP PUSH1 0x1F DUP4 GT PUSH1 0x1 DUP2 EQ PUSH3 0xCC8 JUMPI PUSH0 DUP5 ISZERO PUSH3 0xCB3 JUMPI DUP3 DUP8 ADD MLOAD SWAP1 POP JUMPDEST PUSH3 0xCBF DUP6 DUP3 PUSH3 0xC35 JUMP JUMPDEST DUP7 SSTORE POP PUSH3 0xD2E JUMP JUMPDEST PUSH1 0x1F NOT DUP5 AND PUSH3 0xCD8 DUP7 PUSH3 0xA86 JUMP JUMPDEST PUSH0 JUMPDEST DUP3 DUP2 LT ISZERO PUSH3 0xD01 JUMPI DUP5 DUP10 ADD MLOAD DUP3 SSTORE PUSH1 0x1 DUP3 ADD SWAP2 POP PUSH1 0x20 DUP6 ADD SWAP5 POP PUSH1 0x20 DUP2 ADD SWAP1 POP PUSH3 0xCDA JUMP JUMPDEST DUP7 DUP4 LT ISZERO PUSH3 0xD21 JUMPI DUP5 DUP10 ADD MLOAD PUSH3 0xD1D PUSH1 0x1F DUP10 AND DUP3 PUSH3 0xC17 JUMP JUMPDEST DUP4 SSTORE POP JUMPDEST PUSH1 0x1 PUSH1 0x2 DUP9 MUL ADD DUP9 SSTORE POP POP POP JUMPDEST POP POP POP POP POP POP JUMP JUMPDEST PUSH0 DUP2 SWAP1 POP SWAP3 SWAP2 POP POP JUMP JUMPDEST PUSH0 JUMPDEST DUP4 DUP2 LT ISZERO PUSH3 0xD5F JUMPI DUP1 DUP3 ADD MLOAD DUP2 DUP5 ADD MSTORE PUSH1 0x20 DUP2 ADD SWAP1 POP PUSH3 0xD42 JUMP JUMPDEST PUSH0 DUP5 DUP5 ADD MSTORE POP POP POP POP JUMP JUMPDEST PUSH0 PUSH3 0xD76 DUP3 PUSH3 0xA1B JUMP JUMPDEST PUSH3 0xD82 DUP2 DUP6 PUSH3 0xD36 JUMP JUMPDEST SWAP4 POP PUSH3 0xD94 DUP2 DUP6 PUSH1 0x20 DUP7 ADD PUSH3 0xD40 JUMP JUMPDEST DUP1 DUP5 ADD SWAP2 POP POP SWAP3 SWAP2 POP POP JUMP JUMPDEST PUSH0 PUSH3 0xDAD DUP3 DUP5 PUSH3 0xD6A JUMP JUMPDEST SWAP2 POP DUP2 SWAP1 POP SWAP3 SWAP2 POP POP JUMP JUMPDEST PUSH2 0x2BCA DUP1 PUSH3 0xDC6 PUSH0 CODECOPY PUSH0 RETURN INVALID PUSH1 0x80 PUSH1 0x40 MSTORE PUSH1 0x4 CALLDATASIZE LT PUSH2 0x90 JUMPI PUSH0 CALLDATALOAD PUSH1 0xE0 SHR DUP1 PUSH4 0x6818BA1D GT PUSH2 0x58 JUMPI DUP1 PUSH4 0x6818BA1D EQ PUSH2 0x19D JUMPI DUP1 PUSH4 0xAFF62745 EQ PUSH2 0x1D9 JUMPI DUP1 PUSH4 0xB6AE0425 EQ PUSH2 0x215 JUMPI DUP1 PUSH4 0xE9536472 EQ PUSH2 0x245 JUMPI DUP1 PUSH4 0xF4856CCB EQ PUSH2 0x275 JUMPI PUSH2 0x90 JUMP JUMPDEST DUP1 PUSH4 0x1069143A EQ PUSH2 0x94 JUMPI DUP1 PUSH4 0x1D16B70D EQ PUSH2 0xBE JUMPI DUP1 PUSH4 0x3E413065 EQ PUSH2 0xFA JUMPI DUP1 PUSH4 0x44237454 EQ PUSH2 0x124 JUMPI DUP1 PUSH4 0x458AD6D4 EQ PUSH2 0x160 JUMPI JUMPDEST PUSH0 DUP1 REVERT JUMPDEST CALLVALUE DUP1 ISZERO PUSH2 0x9F JUMPI PUSH0 DUP1 REVERT JUMPDEST POP PUSH2 0xA8 PUSH2 0x2B1 JUMP JUMPDEST PUSH1 0x40 MLOAD PUSH2 0xB5 SWAP2 SWAP1 PUSH2 0x19E9 JUMP JUMPDEST PUSH1 0x40 MLOAD DUP1 SWAP2 SUB SWAP1 RETURN JUMPDEST CALLVALUE DUP1 ISZERO PUSH2 0xC9 JUMPI PUSH0 DUP1 REVERT JUMPDEST POP PUSH2 0xE4 PUSH1 0x4 DUP1 CALLDATASIZE SUB DUP2 ADD SWAP1 PUSH2 0xDF SWAP2 SWAP1 PUSH2 0x1BE3 JUMP JUMPDEST PUSH2 0x425 JUMP JUMPDEST PUSH1 0x40 MLOAD PUSH2 0xF1 SWAP2 SWAP1 PUSH2 0x1CDD JUMP JUMPDEST PUSH1 0x40 MLOAD DUP1 SWAP2 SUB SWAP1 RETURN JUMPDEST CALLVALUE DUP1 ISZERO PUSH2 0x105 JUMPI PUSH0 DUP1 REVERT JUMPDEST POP PUSH2 0x10E PUSH2 0x499 JUMP JUMPDEST PUSH1 0x40 MLOAD PUSH2 0x11B SWAP2 SWAP1 PUSH2 0x1D0C JUMP JUMPDEST PUSH1 0x40 MLOAD DUP1 SWAP2 SUB SWAP1 RETURN JUMPDEST CALLVALUE DUP1 ISZERO PUSH2 0x12F JUMPI PUSH0 DUP1 REVERT JUMPDEST POP PUSH2 0x14A PUSH1 0x4 DUP1 CALLDATASIZE SUB DUP2 ADD SWAP1 PUSH2 0x145 SWAP2 SWAP1 PUSH2 0x1D25 JUMP JUMPDEST PUSH2 0x49F JUMP JUMPDEST PUSH1 0x40 MLOAD PUSH2 0x157 SWAP2 SWAP1 PUSH2 0x1E78 JUMP JUMPDEST PUSH1 0x40 MLOAD DUP1 SWAP2 SUB SWAP1 RETURN JUMPDEST CALLVALUE DUP1 ISZERO PUSH2 0x16B JUMPI PUSH0 DUP1 REVERT JUMPDEST POP PUSH2 0x186 PUSH1 0x4 DUP1 CALLDATASIZE SUB DUP2 ADD SWAP1 PUSH2 0x181 SWAP2 SWAP1 PUSH2 0x1E98 JUMP JUMPDEST PUSH2 0x807 JUMP JUMPDEST PUSH1 0x40 MLOAD PUSH2 0x194 SWAP3 SWAP2 SWAP1 PUSH2 0x1FBD JUMP JUMPDEST PUSH1 0x40 MLOAD DUP1 SWAP2 SUB SWAP1 RETURN JUMPDEST CALLVALUE DUP1 ISZERO PUSH2 0x1A8 JUMPI PUSH0 DUP1 REVERT JUMPDEST POP PUSH2 0x1C3 PUSH1 0x4 DUP1 CALLDATASIZE SUB DUP2 ADD SWAP1 PUSH2 0x1BE SWAP2 SWAP1 PUSH2 0x1FF2 JUMP JUMPDEST PUSH2 0x955 JUMP JUMPDEST PUSH1 0x40 MLOAD PUSH2 0x1D0 SWAP2 SWAP1 PUSH2 0x1E78 JUMP JUMPDEST PUSH1 0x40 MLOAD DUP1 SWAP2 SUB SWAP1 RETURN JUMPDEST CALLVALUE DUP1 ISZERO PUSH2 0x1E4 JUMPI PUSH0 DUP1 REVERT JUMPDEST POP PUSH2 0x1FF PUSH1 0x4 DUP1 CALLDATASIZE SUB DUP2 ADD SWAP1 PUSH2 0x1FA SWAP2 SWAP1 PUSH2 0x20E0 JUMP JUMPDEST PUSH2 0xC39 JUMP JUMPDEST PUSH1 0x40 MLOAD PUSH2 0x20C SWAP2 SWAP1 PUSH2 0x21A8 JUMP JUMPDEST PUSH1 0x40 MLOAD DUP1 SWAP2 SUB SWAP1 RETURN JUMPDEST PUSH2 0x22F PUSH1 0x4 DUP1 CALLDATASIZE SUB DUP2 ADD SWAP1 PUSH2 0x22A SWAP2 SWAP1 PUSH2 0x20E0 JUMP JUMPDEST PUSH2 0xF46 JUMP JUMPDEST PUSH1 0x40 MLOAD PUSH2 0x23C SWAP2 SWAP1 PUSH2 0x21A8 JUMP JUMPDEST PUSH1 0x40 MLOAD DUP1 SWAP2 SUB SWAP1 RETURN JUMPDEST PUSH2 0x25F PUSH1 0x4 DUP1 CALLDATASIZE SUB DUP2 ADD SWAP1 PUSH2 0x25A SWAP2 SWAP1 PUSH2 0x20E0 JUMP JUMPDEST PUSH2 0x1224 JUMP JUMPDEST PUSH1 0x40 MLOAD PUSH2 0x26C SWAP2 SWAP1 PUSH2 0x21A8 JUMP JUMPDEST PUSH1 0x40 MLOAD DUP1 SWAP2 SUB SWAP1 RETURN JUMPDEST CALLVALUE DUP1 ISZERO PUSH2 0x280 JUMPI PUSH0 DUP1 REVERT JUMPDEST POP PUSH2 0x29B PUSH1 0x4 DUP1 CALLDATASIZE SUB DUP2 ADD SWAP1 PUSH2 0x296 SWAP2 SWAP1 PUSH2 0x21EB JUMP JUMPDEST PUSH2 0x1250 JUMP JUMPDEST PUSH1 0x40 MLOAD PUSH2 0x2A8 SWAP2 SWAP1 PUSH2 0x1E78 JUMP JUMPDEST PUSH1 0x40 MLOAD DUP1 SWAP2 SUB SWAP1 RETURN JUMPDEST PUSH1 0x60 PUSH0 PUSH1 0x4 PUSH8 0xFFFFFFFFFFFFFFFF DUP2 GT ISZERO PUSH2 0x2CF JUMPI PUSH2 0x2CE PUSH2 0x1A65 JUMP JUMPDEST JUMPDEST PUSH1 0x40 MLOAD SWAP1 DUP1 DUP3 MSTORE DUP1 PUSH1 0x20 MUL PUSH1 0x20 ADD DUP3 ADD PUSH1 0x40 MSTORE DUP1 ISZERO PUSH2 0x2FD JUMPI DUP2 PUSH1 0x20 ADD PUSH1 0x20 DUP3 MUL DUP1 CALLDATASIZE DUP4 CALLDATACOPY DUP1 DUP3 ADD SWAP2 POP POP SWAP1 POP JUMPDEST POP SWAP1 POP PUSH0 DUP2 PUSH0 DUP2 MLOAD DUP2 LT PUSH2 0x314 JUMPI PUSH2 0x313 PUSH2 0x2216 JUMP JUMPDEST JUMPDEST PUSH1 0x20 MUL PUSH1 0x20 ADD ADD SWAP1 PUSH1 0x3 DUP2 GT ISZERO PUSH2 0x32E JUMPI PUSH2 0x32D PUSH2 0x18F7 JUMP JUMPDEST JUMPDEST SWAP1 DUP2 PUSH1 0x3 DUP2 GT ISZERO PUSH2 0x342 JUMPI PUSH2 0x341 PUSH2 0x18F7 JUMP JUMPDEST JUMPDEST DUP2 MSTORE POP POP PUSH1 0x1 DUP2 PUSH1 0x1 DUP2 MLOAD DUP2 LT PUSH2 0x35C JUMPI PUSH2 0x35B PUSH2 0x2216 JUMP JUMPDEST JUMPDEST PUSH1 0x20 MUL PUSH1 0x20 ADD ADD SWAP1 PUSH1 0x3 DUP2 GT ISZERO PUSH2 0x376 JUMPI PUSH2 0x375 PUSH2 0x18F7 JUMP JUMPDEST JUMPDEST SWAP1 DUP2 PUSH1 0x3 DUP2 GT ISZERO PUSH2 0x38A JUMPI PUSH2 0x389 PUSH2 0x18F7 JUMP JUMPDEST JUMPDEST DUP2 MSTORE POP POP PUSH1 0x2 DUP2 PUSH1 0x2 DUP2 MLOAD DUP2 LT PUSH2 0x3A4 JUMPI PUSH2 0x3A3 PUSH2 0x2216 JUMP JUMPDEST JUMPDEST PUSH1 0x20 MUL PUSH1 0x20 ADD ADD SWAP1 PUSH1 0x3 DUP2 GT ISZERO PUSH2 0x3BE JUMPI PUSH2 0x3BD PUSH2 0x18F7 JUMP JUMPDEST JUMPDEST SWAP1 DUP2 PUSH1 0x3 DUP2 GT ISZERO PUSH2 0x3D2 JUMPI PUSH2 0x3D1 PUSH2 0x18F7 JUMP JUMPDEST JUMPDEST DUP2 MSTORE POP POP PUSH1 0x3 DUP2 PUSH1 0x3 DUP2 MLOAD DUP2 LT PUSH2 0x3EC JUMPI PUSH2 0x3EB PUSH2 0x2216 JUMP JUMPDEST JUMPDEST PUSH1 0x20 MUL PUSH1 0x20 ADD ADD SWAP1 PUSH1 0x3 DUP2 GT ISZERO PUSH2 0x406 JUMPI PUSH2 0x405 PUSH2 0x18F7 JUMP JUMPDEST JUMPDEST SWAP1 DUP2 PUSH1 0x3 DUP2 GT ISZERO PUSH2 0x41A JUMPI PUSH2 0x419 PUSH2 0x18F7 JUMP JUMPDEST JUMPDEST DUP2 MSTORE POP POP DUP1 SWAP2 POP POP SWAP1 JUMP JUMPDEST PUSH1 0x60 PUSH2 0x430 DUP6 PUSH2 0x1358 JUMP JUMPDEST PUSH2 0x439 DUP6 PUSH2 0x1358 JUMP JUMPDEST PUSH2 0x442 DUP6 PUSH2 0x14B1 JUMP JUMPDEST PUSH2 0x463 DUP6 PUSH20 0xFFFFFFFFFFFFFFFFFFFFFFFFFFFFFFFFFFFFFFFF AND PUSH1 0x14 PUSH2 0x1641 JUMP JUMPDEST PUSH2 0x46C TIMESTAMP PUSH2 0x1358 JUMP JUMPDEST PUSH1 0x40 MLOAD PUSH1 0x20 ADD PUSH2 0x480 SWAP6 SWAP5 SWAP4 SWAP3 SWAP2 SWAP1 PUSH2 0x22C7 JUMP JUMPDEST PUSH1 0x40 MLOAD PUSH1 0x20 DUP2 DUP4 SUB SUB DUP2 MSTORE SWAP1 PUSH1 0x40 MSTORE SWAP1 POP SWAP5 SWAP4 POP POP POP POP JUMP JUMPDEST PUSH1 0x3 SLOAD DUP2 JUMP JUMPDEST PUSH1 0x60 PUSH0 PUSH1 0x5 PUSH0 DUP7 PUSH20 0xFFFFFFFFFFFFFFFFFFFFFFFFFFFFFFFFFFFFFFFF AND PUSH20 0xFFFFFFFFFFFFFFFFFFFFFFFFFFFFFFFFFFFFFFFF AND DUP2 MSTORE PUSH1 0x20 ADD SWAP1 DUP2 MSTORE PUSH1 0x20 ADD PUSH0 KECCAK256 SLOAD SUB PUSH2 0x53F JUMPI PUSH0 DUP1 PUSH8 0xFFFFFFFFFFFFFFFF DUP2 GT ISZERO PUSH2 0x500 JUMPI PUSH2 0x4FF PUSH2 0x1A65 JUMP JUMPDEST JUMPDEST PUSH1 0x40 MLOAD SWAP1 DUP1 DUP3 MSTORE DUP1 PUSH1 0x20 MUL PUSH1 0x20 ADD DUP3 ADD PUSH1 0x40 MSTORE DUP1 ISZERO PUSH2 0x533 JUMPI DUP2 PUSH1 0x20 ADD JUMPDEST PUSH1 0x60 DUP2 MSTORE PUSH1 0x20 ADD SWAP1 PUSH1 0x1 SWAP1 SUB SWAP1 DUP2 PUSH2 0x51E JUMPI SWAP1 POP JUMPDEST POP SWAP1 POP DUP1 SWAP2 POP POP PUSH2 0x800 JUMP JUMPDEST PUSH1 0x1 DUP4 GT DUP1 ISZERO PUSH2 0x5AE JUMPI POP PUSH1 0x1 DUP4 PUSH2 0x557 SWAP2 SWAP1 PUSH2 0x236A JUMP JUMPDEST DUP3 PUSH1 0x1 PUSH1 0x5 PUSH0 DUP9 PUSH20 0xFFFFFFFFFFFFFFFFFFFFFFFFFFFFFFFFFFFFFFFF AND PUSH20 0xFFFFFFFFFFFFFFFFFFFFFFFFFFFFFFFFFFFFFFFF AND DUP2 MSTORE PUSH1 0x20 ADD SWAP1 DUP2 MSTORE PUSH1 0x20 ADD PUSH0 KECCAK256 SLOAD PUSH2 0x5A2 SWAP2 SWAP1 PUSH2 0x236A JUMP JUMPDEST PUSH2 0x5AC SWAP2 SWAP1 PUSH2 0x23CA JUMP JUMPDEST LT JUMPDEST ISZERO PUSH2 0x60D JUMPI PUSH0 DUP1 PUSH8 0xFFFFFFFFFFFFFFFF DUP2 GT ISZERO PUSH2 0x5CE JUMPI PUSH2 0x5CD PUSH2 0x1A65 JUMP JUMPDEST JUMPDEST PUSH1 0x40 MLOAD SWAP1 DUP1 DUP3 MSTORE DUP1 PUSH1 0x20 MUL PUSH1 0x20 ADD DUP3 ADD PUSH1 0x40 MSTORE DUP1 ISZERO PUSH2 0x601 JUMPI DUP2 PUSH1 0x20 ADD JUMPDEST PUSH1 0x60 DUP2 MSTORE PUSH1 0x20 ADD SWAP1 PUSH1 0x1 SWAP1 SUB SWAP1 DUP2 PUSH2 0x5EC JUMPI SWAP1 POP JUMPDEST POP SWAP1 POP DUP1 SWAP2 POP POP PUSH2 0x800 JUMP JUMPDEST PUSH0 DUP1 PUSH0 SWAP1 POP PUSH0 DUP5 PUSH1 0x1 DUP8 PUSH2 0x621 SWAP2 SWAP1 PUSH2 0x236A JUMP JUMPDEST PUSH2 0x62B SWAP2 SWAP1 PUSH2 0x23FA JUMP JUMPDEST PUSH1 0x1 PUSH1 0x5 PUSH0 DUP11 PUSH20 0xFFFFFFFFFFFFFFFFFFFFFFFFFFFFFFFFFFFFFFFF AND PUSH20 0xFFFFFFFFFFFFFFFFFFFFFFFFFFFFFFFFFFFFFFFF AND DUP2 MSTORE PUSH1 0x20 ADD SWAP1 DUP2 MSTORE PUSH1 0x20 ADD PUSH0 KECCAK256 SLOAD PUSH2 0x675 SWAP2 SWAP1 PUSH2 0x236A JUMP JUMPDEST PUSH2 0x67F SWAP2 SWAP1 PUSH2 0x236A JUMP JUMPDEST SWAP1 POP PUSH0 DUP6 DUP3 LT ISZERO PUSH2 0x6A1 JUMPI PUSH0 SWAP1 POP PUSH1 0x1 DUP3 PUSH2 0x69A SWAP2 SWAP1 PUSH2 0x243B JUMP JUMPDEST SWAP4 POP PUSH2 0x6BF JUMP JUMPDEST PUSH1 0x1 DUP7 DUP4 PUSH2 0x6AF SWAP2 SWAP1 PUSH2 0x236A JUMP JUMPDEST PUSH2 0x6B9 SWAP2 SWAP1 PUSH2 0x243B JUMP JUMPDEST SWAP1 POP DUP6 SWAP4 POP JUMPDEST PUSH0 DUP5 PUSH8 0xFFFFFFFFFFFFFFFF DUP2 GT ISZERO PUSH2 0x6DA JUMPI PUSH2 0x6D9 PUSH2 0x1A65 JUMP JUMPDEST JUMPDEST PUSH1 0x40 MLOAD SWAP1 DUP1 DUP3 MSTORE DUP1 PUSH1 0x20 MUL PUSH1 0x20 ADD DUP3 ADD PUSH1 0x40 MSTORE DUP1 ISZERO PUSH2 0x70D JUMPI DUP2 PUSH1 0x20 ADD JUMPDEST PUSH1 0x60 DUP2 MSTORE PUSH1 0x20 ADD SWAP1 PUSH1 0x1 SWAP1 SUB SWAP1 DUP2 PUSH2 0x6F8 JUMPI SWAP1 POP JUMPDEST POP SWAP1 POP PUSH0 DUP4 SWAP1 POP JUMPDEST DUP3 DUP2 SLT PUSH2 0x7F6 JUMPI PUSH1 0x8 PUSH0 DUP3 DUP2 MSTORE PUSH1 0x20 ADD SWAP1 DUP2 MSTORE PUSH1 0x20 ADD PUSH0 KECCAK256 PUSH1 0x2 ADD DUP1 SLOAD PUSH2 0x73B SWAP1 PUSH2 0x249B JUMP JUMPDEST DUP1 PUSH1 0x1F ADD PUSH1 0x20 DUP1 SWAP2 DIV MUL PUSH1 0x20 ADD PUSH1 0x40 MLOAD SWAP1 DUP2 ADD PUSH1 0x40 MSTORE DUP1 SWAP3 SWAP2 SWAP1 DUP2 DUP2 MSTORE PUSH1 0x20 ADD DUP3 DUP1 SLOAD PUSH2 0x767 SWAP1 PUSH2 0x249B JUMP JUMPDEST DUP1 ISZERO PUSH2 0x7B2 JUMPI DUP1 PUSH1 0x1F LT PUSH2 0x789 JUMPI PUSH2 0x100 DUP1 DUP4 SLOAD DIV MUL DUP4 MSTORE SWAP2 PUSH1 0x20 ADD SWAP2 PUSH2 0x7B2 JUMP JUMPDEST DUP3 ADD SWAP2 SWAP1 PUSH0 MSTORE PUSH1 0x20 PUSH0 KECCAK256 SWAP1 JUMPDEST DUP2 SLOAD DUP2 MSTORE SWAP1 PUSH1 0x1 ADD SWAP1 PUSH1 0x20 ADD DUP1 DUP4 GT PUSH2 0x795 JUMPI DUP3 SWAP1 SUB PUSH1 0x1F AND DUP3 ADD SWAP2 JUMPDEST POP POP POP POP POP DUP3 DUP7 DUP2 MLOAD DUP2 LT PUSH2 0x7CA JUMPI PUSH2 0x7C9 PUSH2 0x2216 JUMP JUMPDEST JUMPDEST PUSH1 0x20 MUL PUSH1 0x20 ADD ADD DUP2 SWAP1 MSTORE POP DUP5 DUP1 PUSH2 0x7E0 SWAP1 PUSH2 0x24CB JUMP JUMPDEST SWAP6 POP POP DUP1 DUP1 PUSH2 0x7EE SWAP1 PUSH2 0x251B JUMP JUMPDEST SWAP2 POP POP PUSH2 0x715 JUMP JUMPDEST POP DUP1 SWAP6 POP POP POP POP POP POP JUMPDEST SWAP4 SWAP3 POP POP POP JUMP JUMPDEST PUSH1 0x60 DUP1 PUSH1 0x1 DUP4 PUSH1 0x40 MLOAD PUSH2 0x81A SWAP2 SWAP1 PUSH2 0x2562 JUMP JUMPDEST SWAP1 DUP2 MSTORE PUSH1 0x20 ADD PUSH1 0x40 MLOAD DUP1 SWAP2 SUB SWAP1 KECCAK256 PUSH1 0x2 DUP5 PUSH1 0x40 MLOAD PUSH2 0x838 SWAP2 SWAP1 PUSH2 0x2562 JUMP JUMPDEST SWAP1 DUP2 MSTORE PUSH1 0x20 ADD PUSH1 0x40 MLOAD DUP1 SWAP2 SUB SWAP1 KECCAK256 DUP2 DUP1 SLOAD DUP1 PUSH1 0x20 MUL PUSH1 0x20 ADD PUSH1 0x40 MLOAD SWAP1 DUP2 ADD PUSH1 0x40 MSTORE DUP1 SWAP3 SWAP2 SWAP1 DUP2 DUP2 MSTORE PUSH1 0x20 ADD DUP3 DUP1 SLOAD DUP1 ISZERO PUSH2 0x8C2 JUMPI PUSH1 0x20 MUL DUP3 ADD SWAP2 SWAP1 PUSH0 MSTORE PUSH1 0x20 PUSH0 KECCAK256 SWAP1 PUSH0 SWAP1 JUMPDEST DUP3 DUP3 SWAP1 SLOAD SWAP1 PUSH2 0x100 EXP SWAP1 DIV PUSH1 0xFF AND PUSH1 0xC6 DUP2 GT ISZERO PUSH2 0x89D JUMPI PUSH2 0x89C PUSH2 0x18F7 JUMP JUMPDEST JUMPDEST DUP2 MSTORE PUSH1 0x20 ADD SWAP1 PUSH1 0x1 ADD SWAP1 PUSH1 0x20 DUP3 PUSH0 ADD DIV SWAP3 DUP4 ADD SWAP3 PUSH1 0x1 SUB DUP3 MUL SWAP2 POP DUP1 DUP5 GT PUSH2 0x87D JUMPI SWAP1 POP JUMPDEST POP POP POP POP POP SWAP2 POP DUP1 DUP1 SLOAD DUP1 PUSH1 0x20 MUL PUSH1 0x20 ADD PUSH1 0x40 MLOAD SWAP1 DUP2 ADD PUSH1 0x40 MSTORE DUP1 SWAP3 SWAP2 SWAP1 DUP2 DUP2 MSTORE PUSH1 0x20 ADD DUP3 DUP1 SLOAD DUP1 ISZERO PUSH2 0x945 JUMPI PUSH1 0x20 MUL DUP3 ADD SWAP2 SWAP1 PUSH0 MSTORE PUSH1 0x20 PUSH0 KECCAK256 SWAP1 PUSH0 SWAP1 JUMPDEST DUP3 DUP3 SWAP1 SLOAD SWAP1 PUSH2 0x100 EXP SWAP1 DIV PUSH1 0xFF AND PUSH1 0xC6 DUP2 GT ISZERO PUSH2 0x920 JUMPI PUSH2 0x91F PUSH2 0x18F7 JUMP JUMPDEST JUMPDEST DUP2 MSTORE PUSH1 0x20 ADD SWAP1 PUSH1 0x1 ADD SWAP1 PUSH1 0x20 DUP3 PUSH0 ADD DIV SWAP3 DUP4 ADD SWAP3 PUSH1 0x1 SUB DUP3 MUL SWAP2 POP DUP1 DUP5 GT PUSH2 0x900 JUMPI SWAP1 POP JUMPDEST POP POP POP POP POP SWAP1 POP SWAP2 POP SWAP2 POP SWAP2 POP SWAP2 JUMP JUMPDEST PUSH1 0x60 PUSH0 PUSH1 0x4 PUSH0 DUP7 DUP2 MSTORE PUSH1 0x20 ADD SWAP1 DUP2 MSTORE PUSH1 0x20 ADD PUSH0 KECCAK256 SLOAD SUB PUSH2 0x9C9 JUMPI PUSH0 DUP1 PUSH8 0xFFFFFFFFFFFFFFFF DUP2 GT ISZERO PUSH2 0x98A JUMPI PUSH2 0x989 PUSH2 0x1A65 JUMP JUMPDEST JUMPDEST PUSH1 0x40 MLOAD SWAP1 DUP1 DUP3 MSTORE DUP1 PUSH1 0x20 MUL PUSH1 0x20 ADD DUP3 ADD PUSH1 0x40 MSTORE DUP1 ISZERO PUSH2 0x9BD JUMPI DUP2 PUSH1 0x20 ADD JUMPDEST PUSH1 0x60 DUP2 MSTORE PUSH1 0x20 ADD SWAP1 PUSH1 0x1 SWAP1 SUB SWAP1 DUP2 PUSH2 0x9A8 JUMPI SWAP1 POP JUMPDEST POP SWAP1 POP DUP1 SWAP2 POP POP PUSH2 0xC32 JUMP JUMPDEST PUSH1 0x1 DUP4 GT DUP1 ISZERO PUSH2 0xA0C JUMPI POP PUSH1 0x1 DUP4 PUSH2 0x9E1 SWAP2 SWAP1 PUSH2 0x236A JUMP JUMPDEST DUP3 PUSH1 0x1 PUSH1 0x4 PUSH0 DUP9 DUP2 MSTORE PUSH1 0x20 ADD SWAP1 DUP2 MSTORE PUSH1 0x20 ADD PUSH0 KECCAK256 SLOAD PUSH2 0xA00 SWAP2 SWAP1 PUSH2 0x236A JUMP JUMPDEST PUSH2 0xA0A SWAP2 SWAP1 PUSH2 0x23CA JUMP JUMPDEST LT JUMPDEST ISZERO PUSH2 0xA6B JUMPI PUSH0 DUP1 PUSH8 0xFFFFFFFFFFFFFFFF DUP2 GT ISZERO PUSH2 0xA2C JUMPI PUSH2 0xA2B PUSH2 0x1A65 JUMP JUMPDEST JUMPDEST PUSH1 0x40 MLOAD SWAP1 DUP1 DUP3 MSTORE DUP1 PUSH1 0x20 MUL PUSH1 0x20 ADD DUP3 ADD PUSH1 0x40 MSTORE DUP1 ISZERO PUSH2 0xA5F JUMPI DUP2 PUSH1 0x20 ADD JUMPDEST PUSH1 0x60 DUP2 MSTORE PUSH1 0x20 ADD SWAP1 PUSH1 0x1 SWAP1 SUB SWAP1 DUP2 PUSH2 0xA4A JUMPI SWAP1 POP JUMPDEST POP SWAP1 POP DUP1 SWAP2 POP POP PUSH2 0xC32 JUMP JUMPDEST PUSH0 DUP1 PUSH0 SWAP1 POP PUSH0 DUP5 PUSH1 0x1 DUP8 PUSH2 0xA7F SWAP2 SWAP1 PUSH2 0x236A JUMP JUMPDEST PUSH2 0xA89 SWAP2 SWAP1 PUSH2 0x23FA JUMP JUMPDEST PUSH1 0x1 PUSH1 0x4 PUSH0 DUP11 DUP2 MSTORE PUSH1 0x20 ADD SWAP1 DUP2 MSTORE PUSH1 0x20 ADD PUSH0 KECCAK256 SLOAD PUSH2 0xAA7 SWAP2 SWAP1 PUSH2 0x236A JUMP JUMPDEST PUSH2 0xAB1 SWAP2 SWAP1 PUSH2 0x236A JUMP JUMPDEST SWAP1 POP PUSH0 DUP6 DUP3 LT ISZERO PUSH2 0xAD3 JUMPI PUSH0 SWAP1 POP PUSH1 0x1 DUP3 PUSH2 0xACC SWAP2 SWAP1 PUSH2 0x243B JUMP JUMPDEST SWAP4 POP PUSH2 0xAF1 JUMP JUMPDEST PUSH1 0x1 DUP7 DUP4 PUSH2 0xAE1 SWAP2 SWAP1 PUSH2 0x236A JUMP JUMPDEST PUSH2 0xAEB SWAP2 SWAP1 PUSH2 0x243B JUMP JUMPDEST SWAP1 POP DUP6 SWAP4 POP JUMPDEST PUSH0 DUP5 PUSH8 0xFFFFFFFFFFFFFFFF DUP2 GT ISZERO PUSH2 0xB0C JUMPI PUSH2 0xB0B PUSH2 0x1A65 JUMP JUMPDEST JUMPDEST PUSH1 0x40 MLOAD SWAP1 DUP1 DUP3 MSTORE DUP1 PUSH1 0x20 MUL PUSH1 0x20 ADD DUP3 ADD PUSH1 0x40 MSTORE DUP1 ISZERO PUSH2 0xB3F JUMPI DUP2 PUSH1 0x20 ADD JUMPDEST PUSH1 0x60 DUP2 MSTORE PUSH1 0x20 ADD SWAP1 PUSH1 0x1 SWAP1 SUB SWAP1 DUP2 PUSH2 0xB2A JUMPI SWAP1 POP JUMPDEST POP SWAP1 POP PUSH0 DUP4 SWAP1 POP JUMPDEST DUP3 DUP2 SLT PUSH2 0xC28 JUMPI PUSH1 0x8 PUSH0 DUP3 DUP2 MSTORE PUSH1 0x20 ADD SWAP1 DUP2 MSTORE PUSH1 0x20 ADD PUSH0 KECCAK256 PUSH1 0x2 ADD DUP1 SLOAD PUSH2 0xB6D SWAP1 PUSH2 0x249B JUMP JUMPDEST DUP1 PUSH1 0x1F ADD PUSH1 0x20 DUP1 SWAP2 DIV MUL PUSH1 0x20 ADD PUSH1 0x40 MLOAD SWAP1 DUP2 ADD PUSH1 0x40 MSTORE DUP1 SWAP3 SWAP2 SWAP1 DUP2 DUP2 MSTORE PUSH1 0x20 ADD DUP3 DUP1 SLOAD PUSH2 0xB99 SWAP1 PUSH2 0x249B JUMP JUMPDEST DUP1 ISZERO PUSH2 0xBE4 JUMPI DUP1 PUSH1 0x1F LT PUSH2 0xBBB JUMPI PUSH2 0x100 DUP1 DUP4 SLOAD DIV MUL DUP4 MSTORE SWAP2 PUSH1 0x20 ADD SWAP2 PUSH2 0xBE4 JUMP JUMPDEST DUP3 ADD SWAP2 SWAP1 PUSH0 MSTORE PUSH1 0x20 PUSH0 KECCAK256 SWAP1 JUMPDEST DUP2 SLOAD DUP2 MSTORE SWAP1 PUSH1 0x1 ADD SWAP1 PUSH1 0x20 ADD DUP1 DUP4 GT PUSH2 0xBC7 JUMPI DUP3 SWAP1 SUB PUSH1 0x1F AND DUP3 ADD SWAP2 JUMPDEST POP POP POP POP POP DUP3 DUP7 DUP2 MLOAD DUP2 LT PUSH2 0xBFC JUMPI PUSH2 0xBFB PUSH2 0x2216 JUMP JUMPDEST JUMPDEST PUSH1 0x20 MUL PUSH1 0x20 ADD ADD DUP2 SWAP1 MSTORE POP DUP5 DUP1 PUSH2 0xC12 SWAP1 PUSH2 0x24CB JUMP JUMPDEST SWAP6 POP POP DUP1 DUP1 PUSH2 0xC20 SWAP1 PUSH2 0x251B JUMP JUMPDEST SWAP2 POP POP PUSH2 0xB47 JUMP JUMPDEST POP DUP1 SWAP6 POP POP POP POP POP POP JUMPDEST SWAP4 SWAP3 POP POP POP JUMP JUMPDEST PUSH1 0x60 PUSH2 0xC7A DUP4 PUSH1 0x40 MLOAD DUP1 PUSH1 0x40 ADD PUSH1 0x40 MSTORE DUP1 PUSH1 0xA DUP2 MSTORE PUSH1 0x20 ADD PUSH32 0x676574436F6D6D656E7400000000000000000000000000000000000000000000 DUP2 MSTORE POP PUSH2 0x1876 JUMP JUMPDEST ISZERO PUSH2 0xDEB JUMPI PUSH0 DUP3 DUP1 PUSH1 0x20 ADD SWAP1 MLOAD DUP2 ADD SWAP1 PUSH2 0xC94 SWAP2 SWAP1 PUSH2 0x258C JUMP JUMPDEST SWAP1 POP PUSH0 PUSH1 0x8 PUSH0 DUP4 DUP2 MSTORE PUSH1 0x20 ADD SWAP1 DUP2 MSTORE PUSH1 0x20 ADD PUSH0 KECCAK256 PUSH1 0x40 MLOAD DUP1 PUSH1 0x80 ADD PUSH1 0x40 MSTORE SWAP1 DUP2 PUSH0 DUP3 ADD SLOAD DUP2 MSTORE PUSH1 0x20 ADD PUSH1 0x1 DUP3 ADD SLOAD DUP2 MSTORE PUSH1 0x20 ADD PUSH1 0x2 DUP3 ADD DUP1 SLOAD PUSH2 0xCD6 SWAP1 PUSH2 0x249B JUMP JUMPDEST DUP1 PUSH1 0x1F ADD PUSH1 0x20 DUP1 SWAP2 DIV MUL PUSH1 0x20 ADD PUSH1 0x40 MLOAD SWAP1 DUP2 ADD PUSH1 0x40 MSTORE DUP1 SWAP3 SWAP2 SWAP1 DUP2 DUP2 MSTORE PUSH1 0x20 ADD DUP3 DUP1 SLOAD PUSH2 0xD02 SWAP1 PUSH2 0x249B JUMP JUMPDEST DUP1 ISZERO PUSH2 0xD4D JUMPI DUP1 PUSH1 0x1F LT PUSH2 0xD24 JUMPI PUSH2 0x100 DUP1 DUP4 SLOAD DIV MUL DUP4 MSTORE SWAP2 PUSH1 0x20 ADD SWAP2 PUSH2 0xD4D JUMP JUMPDEST DUP3 ADD SWAP2 SWAP1 PUSH0 MSTORE PUSH1 0x20 PUSH0 KECCAK256 SWAP1 JUMPDEST DUP2 SLOAD DUP2 MSTORE SWAP1 PUSH1 0x1 ADD SWAP1 PUSH1 0x20 ADD DUP1 DUP4 GT PUSH2 0xD30 JUMPI DUP3 SWAP1 SUB PUSH1 0x1F AND DUP3 ADD SWAP2 JUMPDEST POP POP POP POP POP DUP2 MSTORE PUSH1 0x20 ADD PUSH1 0x3 DUP3 ADD PUSH0 SWAP1 SLOAD SWAP1 PUSH2 0x100 EXP SWAP1 DIV PUSH20 0xFFFFFFFFFFFFFFFFFFFFFFFFFFFFFFFFFFFFFFFF AND PUSH20 0xFFFFFFFFFFFFFFFFFFFFFFFFFFFFFFFFFFFFFFFF AND PUSH20 0xFFFFFFFFFFFFFFFFFFFFFFFFFFFFFFFFFFFFFFFF AND DUP2 MSTORE POP POP SWAP1 POP DUP1 PUSH0 ADD MLOAD DUP2 PUSH1 0x20 ADD MLOAD DUP3 PUSH1 0x40 ADD MLOAD DUP4 PUSH1 0x60 ADD MLOAD PUSH1 0x40 MLOAD PUSH1 0x20 ADD PUSH2 0xDD3 SWAP5 SWAP4 SWAP3 SWAP2 SWAP1 PUSH2 0x25C6 JUMP JUMPDEST PUSH1 0x40 MLOAD PUSH1 0x20 DUP2 DUP4 SUB SUB DUP2 MSTORE SWAP1 PUSH1 0x40 MSTORE SWAP3 POP POP POP PUSH2 0xF40 JUMP JUMPDEST PUSH2 0xE2A DUP4 PUSH1 0x40 MLOAD DUP1 PUSH1 0x40 ADD PUSH1 0x40 MSTORE DUP1 PUSH1 0xB DUP2 MSTORE PUSH1 0x20 ADD PUSH32 0x676574436F6D6D656E7473000000000000000000000000000000000000000000 DUP2 MSTORE POP PUSH2 0x1876 JUMP JUMPDEST ISZERO PUSH2 0xE85 JUMPI PUSH0 DUP1 PUSH0 DUP5 DUP1 PUSH1 0x20 ADD SWAP1 MLOAD DUP2 ADD SWAP1 PUSH2 0xE46 SWAP2 SWAP1 PUSH2 0x2610 JUMP JUMPDEST SWAP3 POP SWAP3 POP SWAP3 POP PUSH0 PUSH2 0xE58 DUP5 DUP5 DUP5 PUSH2 0x955 JUMP JUMPDEST SWAP1 POP DUP1 PUSH1 0x40 MLOAD PUSH1 0x20 ADD PUSH2 0xE6B SWAP2 SWAP1 PUSH2 0x1E78 JUMP JUMPDEST PUSH1 0x40 MLOAD PUSH1 0x20 DUP2 DUP4 SUB SUB DUP2 MSTORE SWAP1 PUSH1 0x40 MSTORE SWAP5 POP POP POP POP POP PUSH2 0xF40 JUMP JUMPDEST PUSH2 0xEC4 DUP4 PUSH1 0x40 MLOAD DUP1 PUSH1 0x40 ADD PUSH1 0x40 MSTORE DUP1 PUSH1 0x14 DUP2 MSTORE PUSH1 0x20 ADD PUSH32 0x676574436F6D6D656E7473427941646472657373000000000000000000000000 DUP2 MSTORE POP PUSH2 0x1876 JUMP JUMPDEST ISZERO PUSH2 0xF1F JUMPI PUSH0 DUP1 PUSH0 DUP5 DUP1 PUSH1 0x20 ADD SWAP1 MLOAD DUP2 ADD SWAP1 PUSH2 0xEE0 SWAP2 SWAP1 PUSH2 0x269B JUMP JUMPDEST SWAP3 POP SWAP3 POP SWAP3 POP PUSH0 PUSH2 0xEF2 DUP5 DUP5 DUP5 PUSH2 0x49F JUMP JUMPDEST SWAP1 POP DUP1 PUSH1 0x40 MLOAD PUSH1 0x20 ADD PUSH2 0xF05 SWAP2 SWAP1 PUSH2 0x1E78 JUMP JUMPDEST PUSH1 0x40 MLOAD PUSH1 0x20 DUP2 DUP4 SUB SUB DUP2 MSTORE SWAP1 PUSH1 0x40 MSTORE SWAP5 POP POP POP POP POP PUSH2 0xF40 JUMP JUMPDEST PUSH1 0x40 MLOAD PUSH1 0x20 ADD PUSH2 0xF2E SWAP1 PUSH2 0x270E JUMP JUMPDEST PUSH1 0x40 MLOAD PUSH1 0x20 DUP2 DUP4 SUB SUB DUP2 MSTORE SWAP1 PUSH1 0x40 MSTORE SWAP1 POP JUMPDEST SWAP3 SWAP2 POP POP JUMP JUMPDEST PUSH1 0x60 PUSH2 0xF87 DUP4 PUSH1 0x40 MLOAD DUP1 PUSH1 0x40 ADD PUSH1 0x40 MSTORE DUP1 PUSH1 0xB DUP2 MSTORE PUSH1 0x20 ADD PUSH32 0x706F7374436F6D6D656E74000000000000000000000000000000000000000000 DUP2 MSTORE POP PUSH2 0x1876 JUMP JUMPDEST ISZERO PUSH2 0x11FD JUMPI PUSH0 DUP1 DUP4 DUP1 PUSH1 0x20 ADD SWAP1 MLOAD DUP2 ADD SWAP1 PUSH2 0xFA2 SWAP2 SWAP1 PUSH2 0x279A JUMP JUMPDEST SWAP2 POP SWAP2 POP PUSH0 PUSH2 0xFB5 DUP4 PUSH1 0x3 SLOAD DUP5 CALLER PUSH2 0x425 JUMP JUMPDEST SWAP1 POP PUSH0 PUSH1 0x4 PUSH0 DUP6 DUP2 MSTORE PUSH1 0x20 ADD SWAP1 DUP2 MSTORE PUSH1 0x20 ADD PUSH0 KECCAK256 SLOAD SWAP1 POP PUSH0 PUSH1 0x5 PUSH0 CALLER PUSH20 0xFFFFFFFFFFFFFFFFFFFFFFFFFFFFFFFFFFFFFFFF AND PUSH20 0xFFFFFFFFFFFFFFFFFFFFFFFFFFFFFFFFFFFFFFFF AND DUP2 MSTORE PUSH1 0x20 ADD SWAP1 DUP2 MSTORE PUSH1 0x20 ADD PUSH0 KECCAK256 SLOAD SWAP1 POP PUSH1 0x40 MLOAD DUP1 PUSH1 0x80 ADD PUSH1 0x40 MSTORE DUP1 DUP7 DUP2 MSTORE PUSH1 0x20 ADD PUSH1 0x3 SLOAD DUP2 MSTORE PUSH1 0x20 ADD DUP5 DUP2 MSTORE PUSH1 0x20 ADD CALLER PUSH20 0xFFFFFFFFFFFFFFFFFFFFFFFFFFFFFFFFFFFFFFFF AND DUP2 MSTORE POP PUSH1 0x8 PUSH0 PUSH1 0x3 SLOAD DUP2 MSTORE PUSH1 0x20 ADD SWAP1 DUP2 MSTORE PUSH1 0x20 ADD PUSH0 KECCAK256 PUSH0 DUP3 ADD MLOAD DUP2 PUSH0 ADD SSTORE PUSH1 0x20 DUP3 ADD MLOAD DUP2 PUSH1 0x1 ADD SSTORE PUSH1 0x40 DUP3 ADD MLOAD DUP2 PUSH1 0x2 ADD SWAP1 DUP2 PUSH2 0x1080 SWAP2 SWAP1 PUSH2 0x2991 JUMP JUMPDEST POP PUSH1 0x60 DUP3 ADD MLOAD DUP2 PUSH1 0x3 ADD PUSH0 PUSH2 0x100 EXP DUP2 SLOAD DUP2 PUSH20 0xFFFFFFFFFFFFFFFFFFFFFFFFFFFFFFFFFFFFFFFF MUL NOT AND SWAP1 DUP4 PUSH20 0xFFFFFFFFFFFFFFFFFFFFFFFFFFFFFFFFFFFFFFFF AND MUL OR SWAP1 SSTORE POP SWAP1 POP POP PUSH1 0x3 SLOAD PUSH1 0x6 PUSH0 DUP8 DUP2 MSTORE PUSH1 0x20 ADD SWAP1 DUP2 MSTORE PUSH1 0x20 ADD PUSH0 KECCAK256 PUSH0 DUP5 DUP2 MSTORE PUSH1 0x20 ADD SWAP1 DUP2 MSTORE PUSH1 0x20 ADD PUSH0 KECCAK256 DUP2 SWAP1 SSTORE POP PUSH1 0x3 SLOAD PUSH1 0x7 PUSH0 CALLER PUSH20 0xFFFFFFFFFFFFFFFFFFFFFFFFFFFFFFFFFFFFFFFF AND PUSH20 0xFFFFFFFFFFFFFFFFFFFFFFFFFFFFFFFFFFFFFFFF AND DUP2 MSTORE PUSH1 0x20 ADD SWAP1 DUP2 MSTORE PUSH1 0x20 ADD PUSH0 KECCAK256 PUSH0 DUP4 DUP2 MSTORE PUSH1 0x20 ADD SWAP1 DUP2 MSTORE PUSH1 0x20 ADD PUSH0 KECCAK256 DUP2 SWAP1 SSTORE POP PUSH1 0x4 PUSH0 DUP7 DUP2 MSTORE PUSH1 0x20 ADD SWAP1 DUP2 MSTORE PUSH1 0x20 ADD PUSH0 KECCAK256 PUSH0 DUP2 SLOAD DUP1 SWAP3 SWAP2 SWAP1 PUSH2 0x1165 SWAP1 PUSH2 0x24CB JUMP JUMPDEST SWAP2 SWAP1 POP SSTORE POP PUSH1 0x5 PUSH0 CALLER PUSH20 0xFFFFFFFFFFFFFFFFFFFFFFFFFFFFFFFFFFFFFFFF AND PUSH20 0xFFFFFFFFFFFFFFFFFFFFFFFFFFFFFFFFFFFFFFFF AND DUP2 MSTORE PUSH1 0x20 ADD SWAP1 DUP2 MSTORE PUSH1 0x20 ADD PUSH0 KECCAK256 PUSH0 DUP2 SLOAD DUP1 SWAP3 SWAP2 SWAP1 PUSH2 0x11B7 SWAP1 PUSH2 0x24CB JUMP JUMPDEST SWAP2 SWAP1 POP SSTORE POP PUSH1 0x3 PUSH0 DUP2 SLOAD DUP1 SWAP3 SWAP2 SWAP1 PUSH2 0x11CE SWAP1 PUSH2 0x24CB JUMP JUMPDEST SWAP2 SWAP1 POP SSTORE POP PUSH1 0x40 MLOAD PUSH1 0x20 ADD PUSH2 0x11E2 SWAP1 PUSH2 0x270E JUMP JUMPDEST PUSH1 0x40 MLOAD PUSH1 0x20 DUP2 DUP4 SUB SUB DUP2 MSTORE SWAP1 PUSH1 0x40 MSTORE SWAP6 POP POP POP POP POP POP PUSH2 0x121E JUMP JUMPDEST PUSH1 0x40 MLOAD PUSH1 0x20 ADD PUSH2 0x120C SWAP1 PUSH2 0x270E JUMP JUMPDEST PUSH1 0x40 MLOAD PUSH1 0x20 DUP2 DUP4 SUB SUB DUP2 MSTORE SWAP1 PUSH1 0x40 MSTORE SWAP1 POP JUMPDEST SWAP3 SWAP2 POP POP JUMP JUMPDEST PUSH1 0x60 DUP3 DUP3 PUSH1 0x40 MLOAD PUSH1 0x20 ADD PUSH2 0x1239 SWAP3 SWAP2 SWAP1 PUSH2 0x2A60 JUMP JUMPDEST PUSH1 0x40 MLOAD PUSH1 0x20 DUP2 DUP4 SUB SUB DUP2 MSTORE SWAP1 PUSH1 0x40 MSTORE SWAP1 POP SWAP3 SWAP2 POP POP JUMP JUMPDEST PUSH1 0x60 PUSH0 DUP1 DUP4 PUSH1 0x3 DUP2 GT ISZERO PUSH2 0x1267 JUMPI PUSH2 0x1266 PUSH2 0x18F7 JUMP JUMPDEST JUMPDEST PUSH1 0x3 DUP2 GT ISZERO PUSH2 0x1279 JUMPI PUSH2 0x1278 PUSH2 0x18F7 JUMP JUMPDEST JUMPDEST DUP2 MSTORE PUSH1 0x20 ADD SWAP1 DUP2 MSTORE PUSH1 0x20 ADD PUSH0 KECCAK256 DUP1 SLOAD DUP1 PUSH1 0x20 MUL PUSH1 0x20 ADD PUSH1 0x40 MLOAD SWAP1 DUP2 ADD PUSH1 0x40 MSTORE DUP1 SWAP3 SWAP2 SWAP1 DUP2 DUP2 MSTORE PUSH1 0x20 ADD PUSH0 SWAP1 JUMPDEST DUP3 DUP3 LT ISZERO PUSH2 0x134D JUMPI DUP4 DUP3 SWAP1 PUSH0 MSTORE PUSH1 0x20 PUSH0 KECCAK256 ADD DUP1 SLOAD PUSH2 0x12C2 SWAP1 PUSH2 0x249B JUMP JUMPDEST DUP1 PUSH1 0x1F ADD PUSH1 0x20 DUP1 SWAP2 DIV MUL PUSH1 0x20 ADD PUSH1 0x40 MLOAD SWAP1 DUP2 ADD PUSH1 0x40 MSTORE DUP1 SWAP3 SWAP2 SWAP1 DUP2 DUP2 MSTORE PUSH1 0x20 ADD DUP3 DUP1 SLOAD PUSH2 0x12EE SWAP1 PUSH2 0x249B JUMP JUMPDEST DUP1 ISZERO PUSH2 0x1339 JUMPI DUP1 PUSH1 0x1F LT PUSH2 0x1310 JUMPI PUSH2 0x100 DUP1 DUP4 SLOAD DIV MUL DUP4 MSTORE SWAP2 PUSH1 0x20 ADD SWAP2 PUSH2 0x1339 JUMP JUMPDEST DUP3 ADD SWAP2 SWAP1 PUSH0 MSTORE PUSH1 0x20 PUSH0 KECCAK256 SWAP1 JUMPDEST DUP2 SLOAD DUP2 MSTORE SWAP1 PUSH1 0x1 ADD SWAP1 PUSH1 0x20 ADD DUP1 DUP4 GT PUSH2 0x131C JUMPI DUP3 SWAP1 SUB PUSH1 0x1F AND DUP3 ADD SWAP2 JUMPDEST POP POP POP POP POP DUP2 MSTORE PUSH1 0x20 ADD SWAP1 PUSH1 0x1 ADD SWAP1 PUSH2 0x12A5 JUMP JUMPDEST POP POP POP POP SWAP1 POP SWAP2 SWAP1 POP JUMP JUMPDEST PUSH1 0x60 PUSH0 DUP3 SUB PUSH2 0x139E JUMPI PUSH1 0x40 MLOAD DUP1 PUSH1 0x40 ADD PUSH1 0x40 MSTORE DUP1 PUSH1 0x1 DUP2 MSTORE PUSH1 0x20 ADD PUSH32 0x3000000000000000000000000000000000000000000000000000000000000000 DUP2 MSTORE POP SWAP1 POP PUSH2 0x14AC JUMP JUMPDEST PUSH0 DUP3 SWAP1 POP PUSH0 JUMPDEST PUSH0 DUP3 EQ PUSH2 0x13CD JUMPI DUP1 DUP1 PUSH2 0x13B6 SWAP1 PUSH2 0x24CB JUMP JUMPDEST SWAP2 POP POP PUSH1 0xA DUP3 PUSH2 0x13C6 SWAP2 SWAP1 PUSH2 0x23CA JUMP JUMPDEST SWAP2 POP PUSH2 0x13A4 JUMP JUMPDEST PUSH0 DUP2 PUSH8 0xFFFFFFFFFFFFFFFF DUP2 GT ISZERO PUSH2 0x13E8 JUMPI PUSH2 0x13E7 PUSH2 0x1A65 JUMP JUMPDEST JUMPDEST PUSH1 0x40 MLOAD SWAP1 DUP1 DUP3 MSTORE DUP1 PUSH1 0x1F ADD PUSH1 0x1F NOT AND PUSH1 0x20 ADD DUP3 ADD PUSH1 0x40 MSTORE DUP1 ISZERO PUSH2 0x141A JUMPI DUP2 PUSH1 0x20 ADD PUSH1 0x1 DUP3 MUL DUP1 CALLDATASIZE DUP4 CALLDATACOPY DUP1 DUP3 ADD SWAP2 POP POP SWAP1 POP JUMPDEST POP SWAP1 POP JUMPDEST PUSH0 DUP6 EQ PUSH2 0x14A5 JUMPI PUSH1 0x1 DUP3 PUSH2 0x1432 SWAP2 SWAP1 PUSH2 0x236A JUMP JUMPDEST SWAP2 POP PUSH1 0xA DUP6 PUSH2 0x1441 SWAP2 SWAP1 PUSH2 0x2A95 JUMP JUMPDEST PUSH1 0x30 PUSH2 0x144D SWAP2 SWAP1 PUSH2 0x243B JUMP JUMPDEST PUSH1 0xF8 SHL DUP2 DUP4 DUP2 MLOAD DUP2 LT PUSH2 0x1463 JUMPI PUSH2 0x1462 PUSH2 0x2216 JUMP JUMPDEST JUMPDEST PUSH1 0x20 ADD ADD SWAP1 PUSH31 0xFFFFFFFFFFFFFFFFFFFFFFFFFFFFFFFFFFFFFFFFFFFFFFFFFFFFFFFFFFFFFF NOT AND SWAP1 DUP2 PUSH0 BYTE SWAP1 MSTORE8 POP PUSH1 0xA DUP6 PUSH2 0x149E SWAP2 SWAP1 PUSH2 0x23CA JUMP JUMPDEST SWAP5 POP PUSH2 0x141E JUMP JUMPDEST DUP1 SWAP4 POP POP POP POP JUMPDEST SWAP2 SWAP1 POP JUMP JUMPDEST PUSH1 0x60 PUSH0 DUP3 MLOAD SWAP1 POP PUSH0 DUP2 SUB PUSH2 0x14D6 JUMPI PUSH1 0x40 MLOAD DUP1 PUSH1 0x20 ADD PUSH1 0x40 MSTORE DUP1 PUSH0 DUP2 MSTORE POP SWAP2 POP POP PUSH2 0x163C JUMP JUMPDEST PUSH0 PUSH1 0x3 PUSH1 0x2 DUP4 PUSH2 0x14E6 SWAP2 SWAP1 PUSH2 0x243B JUMP JUMPDEST PUSH2 0x14F0 SWAP2 SWAP1 PUSH2 0x23CA JUMP JUMPDEST PUSH1 0x4 PUSH2 0x14FC SWAP2 SWAP1 PUSH2 0x23FA JUMP JUMPDEST SWAP1 POP PUSH0 PUSH1 0x20 DUP3 PUSH2 0x150C SWAP2 SWAP1 PUSH2 0x243B JUMP JUMPDEST PUSH8 0xFFFFFFFFFFFFFFFF DUP2 GT ISZERO PUSH2 0x1525 JUMPI PUSH2 0x1524 PUSH2 0x1A65 JUMP JUMPDEST JUMPDEST PUSH1 0x40 MLOAD SWAP1 DUP1 DUP3 MSTORE DUP1 PUSH1 0x1F ADD PUSH1 0x1F NOT AND PUSH1 0x20 ADD DUP3 ADD PUSH1 0x40 MSTORE DUP1 ISZERO PUSH2 0x1557 JUMPI DUP2 PUSH1 0x20 ADD PUSH1 0x1 DUP3 MUL DUP1 CALLDATASIZE DUP4 CALLDATACOPY DUP1 DUP3 ADD SWAP2 POP POP SWAP1 POP JUMPDEST POP SWAP1 POP PUSH0 PUSH1 0x40 MLOAD DUP1 PUSH1 0x60 ADD PUSH1 0x40 MSTORE DUP1 PUSH1 0x40 DUP2 MSTORE PUSH1 0x20 ADD PUSH2 0x2B55 PUSH1 0x40 SWAP2 CODECOPY SWAP1 POP PUSH1 0x1 DUP2 ADD PUSH1 0x20 DUP4 ADD PUSH0 JUMPDEST DUP7 DUP2 LT ISZERO PUSH2 0x15F9 JUMPI PUSH1 0x3 DUP2 ADD SWAP1 POP PUSH3 0xFFFFFF DUP2 DUP11 ADD MLOAD AND PUSH1 0x3F DUP2 PUSH1 0x12 SHR AND DUP5 ADD MLOAD DUP1 PUSH1 0x8 SHL SWAP1 POP PUSH1 0xFF PUSH1 0x3F DUP4 PUSH1 0xC SHR AND DUP7 ADD MLOAD AND DUP2 ADD SWAP1 POP DUP1 PUSH1 0x8 SHL SWAP1 POP PUSH1 0xFF PUSH1 0x3F DUP4 PUSH1 0x6 SHR AND DUP7 ADD MLOAD AND DUP2 ADD SWAP1 POP DUP1 PUSH1 0x8 SHL SWAP1 POP PUSH1 0xFF PUSH1 0x3F DUP4 AND DUP7 ADD MLOAD AND DUP2 ADD SWAP1 POP DUP1 PUSH1 0xE0 SHL SWAP1 POP DUP1 DUP5 MSTORE PUSH1 0x4 DUP5 ADD SWAP4 POP POP POP PUSH2 0x1580 JUMP JUMPDEST POP PUSH1 0x3 DUP7 MOD PUSH1 0x1 DUP2 EQ PUSH2 0x1613 JUMPI PUSH1 0x2 DUP2 EQ PUSH2 0x1623 JUMPI PUSH2 0x162E JUMP JUMPDEST PUSH2 0x3D3D PUSH1 0xF0 SHL PUSH1 0x2 DUP4 SUB MSTORE PUSH2 0x162E JUMP JUMPDEST PUSH1 0x3D PUSH1 0xF8 SHL PUSH1 0x1 DUP4 SUB MSTORE JUMPDEST POP DUP5 DUP5 MSTORE POP POP DUP2 SWAP5 POP POP POP POP POP JUMPDEST SWAP2 SWAP1 POP JUMP JUMPDEST PUSH1 0x60 PUSH0 PUSH1 0x2 DUP4 PUSH1 0x2 PUSH2 0x1653 SWAP2 SWAP1 PUSH2 0x23FA JUMP JUMPDEST PUSH2 0x165D SWAP2 SWAP1 PUSH2 0x243B JUMP JUMPDEST PUSH8 0xFFFFFFFFFFFFFFFF DUP2 GT ISZERO PUSH2 0x1676 JUMPI PUSH2 0x1675 PUSH2 0x1A65 JUMP JUMPDEST JUMPDEST PUSH1 0x40 MLOAD SWAP1 DUP1 DUP3 MSTORE DUP1 PUSH1 0x1F ADD PUSH1 0x1F NOT AND PUSH1 0x20 ADD DUP3 ADD PUSH1 0x40 MSTORE DUP1 ISZERO PUSH2 0x16A8 JUMPI DUP2 PUSH1 0x20 ADD PUSH1 0x1 DUP3 MUL DUP1 CALLDATASIZE DUP4 CALLDATACOPY DUP1 DUP3 ADD SWAP2 POP POP SWAP1 POP JUMPDEST POP SWAP1 POP PUSH32 0x3000000000000000000000000000000000000000000000000000000000000000 DUP2 PUSH0 DUP2 MLOAD DUP2 LT PUSH2 0x16DF JUMPI PUSH2 0x16DE PUSH2 0x2216 JUMP JUMPDEST JUMPDEST PUSH1 0x20 ADD ADD SWAP1 PUSH31 0xFFFFFFFFFFFFFFFFFFFFFFFFFFFFFFFFFFFFFFFFFFFFFFFFFFFFFFFFFFFFFF NOT AND SWAP1 DUP2 PUSH0 BYTE SWAP1 MSTORE8 POP PUSH32 0x7800000000000000000000000000000000000000000000000000000000000000 DUP2 PUSH1 0x1 DUP2 MLOAD DUP2 LT PUSH2 0x1742 JUMPI PUSH2 0x1741 PUSH2 0x2216 JUMP JUMPDEST JUMPDEST PUSH1 0x20 ADD ADD SWAP1 PUSH31 0xFFFFFFFFFFFFFFFFFFFFFFFFFFFFFFFFFFFFFFFFFFFFFFFFFFFFFFFFFFFFFF NOT AND SWAP1 DUP2 PUSH0 BYTE SWAP1 MSTORE8 POP PUSH0 PUSH1 0x1 DUP5 PUSH1 0x2 PUSH2 0x1780 SWAP2 SWAP1 PUSH2 0x23FA JUMP JUMPDEST PUSH2 0x178A SWAP2 SWAP1 PUSH2 0x243B JUMP JUMPDEST SWAP1 POP JUMPDEST PUSH1 0x1 DUP2 GT ISZERO PUSH2 0x1829 JUMPI PUSH32 0x3031323334353637383961626364656600000000000000000000000000000000 PUSH1 0xF DUP7 AND PUSH1 0x10 DUP2 LT PUSH2 0x17CC JUMPI PUSH2 0x17CB PUSH2 0x2216 JUMP JUMPDEST JUMPDEST BYTE PUSH1 0xF8 SHL DUP3 DUP3 DUP2 MLOAD DUP2 LT PUSH2 0x17E3 JUMPI PUSH2 0x17E2 PUSH2 0x2216 JUMP JUMPDEST JUMPDEST PUSH1 0x20 ADD ADD SWAP1 PUSH31 0xFFFFFFFFFFFFFFFFFFFFFFFFFFFFFFFFFFFFFFFFFFFFFFFFFFFFFFFFFFFFFF NOT AND SWAP1 DUP2 PUSH0 BYTE SWAP1 MSTORE8 POP PUSH1 0x4 DUP6 SWAP1 SHR SWAP5 POP DUP1 PUSH2 0x1822 SWAP1 PUSH2 0x2AC5 JUMP JUMPDEST SWAP1 POP PUSH2 0x178D JUMP JUMPDEST POP PUSH0 DUP5 EQ PUSH2 0x186C JUMPI PUSH1 0x40 MLOAD PUSH32 0x8C379A000000000000000000000000000000000000000000000000000000000 DUP2 MSTORE PUSH1 0x4 ADD PUSH2 0x1863 SWAP1 PUSH2 0x2B36 JUMP JUMPDEST PUSH1 0x40 MLOAD DUP1 SWAP2 SUB SWAP1 REVERT JUMPDEST DUP1 SWAP2 POP POP SWAP3 SWAP2 POP POP JUMP JUMPDEST PUSH0 DUP2 PUSH1 0x40 MLOAD PUSH1 0x20 ADD PUSH2 0x1888 SWAP2 SWAP1 PUSH2 0x2562 JUMP JUMPDEST PUSH1 0x40 MLOAD PUSH1 0x20 DUP2 DUP4 SUB SUB DUP2 MSTORE SWAP1 PUSH1 0x40 MSTORE DUP1 MLOAD SWAP1 PUSH1 0x20 ADD KECCAK256 DUP4 PUSH1 0x40 MLOAD PUSH1 0x20 ADD PUSH2 0x18AF SWAP2 SWAP1 PUSH2 0x2562 JUMP JUMPDEST PUSH1 0x40 MLOAD PUSH1 0x20 DUP2 DUP4 SUB SUB DUP2 MSTORE SWAP1 PUSH1 0x40 MSTORE DUP1 MLOAD SWAP1 PUSH1 0x20 ADD KECCAK256 EQ SWAP1 POP SWAP3 SWAP2 POP POP JUMP JUMPDEST PUSH0 DUP2 MLOAD SWAP1 POP SWAP2 SWAP1 POP JUMP JUMPDEST PUSH0 DUP3 DUP3 MSTORE PUSH1 0x20 DUP3 ADD SWAP1 POP SWAP3 SWAP2 POP POP JUMP JUMPDEST PUSH0 DUP2 SWAP1 POP PUSH1 0x20 DUP3 ADD SWAP1 POP SWAP2 SWAP1 POP JUMP JUMPDEST PUSH32 0x4E487B7100000000000000000000000000000000000000000000000000000000 PUSH0 MSTORE PUSH1 0x21 PUSH1 0x4 MSTORE PUSH1 0x24 PUSH0 REVERT JUMPDEST PUSH1 0x4 DUP2 LT PUSH2 0x1935 JUMPI PUSH2 0x1934 PUSH2 0x18F7 JUMP JUMPDEST JUMPDEST POP JUMP JUMPDEST PUSH0 DUP2 SWAP1 POP PUSH2 0x1945 DUP3 PUSH2 0x1924 JUMP JUMPDEST SWAP2 SWAP1 POP JUMP JUMPDEST PUSH0 PUSH2 0x1954 DUP3 PUSH2 0x1938 JUMP JUMPDEST SWAP1 POP SWAP2 SWAP1 POP JUMP JUMPDEST PUSH2 0x1964 DUP2 PUSH2 0x194A JUMP JUMPDEST DUP3 MSTORE POP POP JUMP JUMPDEST PUSH0 PUSH2 0x1975 DUP4 DUP4 PUSH2 0x195B JUMP JUMPDEST PUSH1 0x20 DUP4 ADD SWAP1 POP SWAP3 SWAP2 POP POP JUMP JUMPDEST PUSH0 PUSH1 0x20 DUP3 ADD SWAP1 POP SWAP2 SWAP1 POP JUMP JUMPDEST PUSH0 PUSH2 0x1997 DUP3 PUSH2 0x18CE JUMP JUMPDEST PUSH2 0x19A1 DUP2 DUP6 PUSH2 0x18D8 JUMP JUMPDEST SWAP4 POP PUSH2 0x19AC DUP4 PUSH2 0x18E8 JUMP JUMPDEST DUP1 PUSH0 JUMPDEST DUP4 DUP2 LT ISZERO PUSH2 0x19DC JUMPI DUP2 MLOAD PUSH2 0x19C3 DUP9 DUP3 PUSH2 0x196A JUMP JUMPDEST SWAP8 POP PUSH2 0x19CE DUP4 PUSH2 0x1981 JUMP JUMPDEST SWAP3 POP POP PUSH1 0x1 DUP2 ADD SWAP1 POP PUSH2 0x19AF JUMP JUMPDEST POP DUP6 SWAP4 POP POP POP POP SWAP3 SWAP2 POP POP JUMP JUMPDEST PUSH0 PUSH1 0x20 DUP3 ADD SWAP1 POP DUP2 DUP2 SUB PUSH0 DUP4 ADD MSTORE PUSH2 0x1A01 DUP2 DUP5 PUSH2 0x198D JUMP JUMPDEST SWAP1 POP SWAP3 SWAP2 POP POP JUMP JUMPDEST PUSH0 PUSH1 0x40 MLOAD SWAP1 POP SWAP1 JUMP JUMPDEST PUSH0 DUP1 REVERT JUMPDEST PUSH0 DUP1 REVERT JUMPDEST PUSH0 DUP2 SWAP1 POP SWAP2 SWAP1 POP JUMP JUMPDEST PUSH2 0x1A2C DUP2 PUSH2 0x1A1A JUMP JUMPDEST DUP2 EQ PUSH2 0x1A36 JUMPI PUSH0 DUP1 REVERT JUMPDEST POP JUMP JUMPDEST PUSH0 DUP2 CALLDATALOAD SWAP1 POP PUSH2 0x1A47 DUP2 PUSH2 0x1A23 JUMP JUMPDEST SWAP3 SWAP2 POP POP JUMP JUMPDEST PUSH0 DUP1 REVERT JUMPDEST PUSH0 DUP1 REVERT JUMPDEST PUSH0 PUSH1 0x1F NOT PUSH1 0x1F DUP4 ADD AND SWAP1 POP SWAP2 SWAP1 POP JUMP JUMPDEST PUSH32 0x4E487B7100000000000000000000000000000000000000000000000000000000 PUSH0 MSTORE PUSH1 0x41 PUSH1 0x4 MSTORE PUSH1 0x24 PUSH0 REVERT JUMPDEST PUSH2 0x1A9B DUP3 PUSH2 0x1A55 JUMP JUMPDEST DUP2 ADD DUP2 DUP2 LT PUSH8 0xFFFFFFFFFFFFFFFF DUP3 GT OR ISZERO PUSH2 0x1ABA JUMPI PUSH2 0x1AB9 PUSH2 0x1A65 JUMP JUMPDEST JUMPDEST DUP1 PUSH1 0x40 MSTORE POP POP POP JUMP JUMPDEST PUSH0 PUSH2 0x1ACC PUSH2 0x1A09 JUMP JUMPDEST SWAP1 POP PUSH2 0x1AD8 DUP3 DUP3 PUSH2 0x1A92 JUMP JUMPDEST SWAP2 SWAP1 POP JUMP JUMPDEST PUSH0 PUSH8 0xFFFFFFFFFFFFFFFF DUP3 GT ISZERO PUSH2 0x1AF7 JUMPI PUSH2 0x1AF6 PUSH2 0x1A65 JUMP JUMPDEST JUMPDEST PUSH2 0x1B00 DUP3 PUSH2 0x1A55 JUMP JUMPDEST SWAP1 POP PUSH1 0x20 DUP2 ADD SWAP1 POP SWAP2 SWAP1 POP JUMP JUMPDEST DUP3 DUP2 DUP4 CALLDATACOPY PUSH0 DUP4 DUP4 ADD MSTORE POP POP POP JUMP JUMPDEST PUSH0 PUSH2 0x1B2D PUSH2 0x1B28 DUP5 PUSH2 0x1ADD JUMP JUMPDEST PUSH2 0x1AC3 JUMP JUMPDEST SWAP1 POP DUP3 DUP2 MSTORE PUSH1 0x20 DUP2 ADD DUP5 DUP5 DUP5 ADD GT ISZERO PUSH2 0x1B49 JUMPI PUSH2 0x1B48 PUSH2 0x1A51 JUMP JUMPDEST JUMPDEST PUSH2 0x1B54 DUP5 DUP3 DUP6 PUSH2 0x1B0D JUMP JUMPDEST POP SWAP4 SWAP3 POP POP POP JUMP JUMPDEST PUSH0 DUP3 PUSH1 0x1F DUP4 ADD SLT PUSH2 0x1B70 JUMPI PUSH2 0x1B6F PUSH2 0x1A4D JUMP JUMPDEST JUMPDEST DUP2 CALLDATALOAD PUSH2 0x1B80 DUP5 DUP3 PUSH1 0x20 DUP7 ADD PUSH2 0x1B1B JUMP JUMPDEST SWAP2 POP POP SWAP3 SWAP2 POP POP JUMP JUMPDEST PUSH0 PUSH20 0xFFFFFFFFFFFFFFFFFFFFFFFFFFFFFFFFFFFFFFFF DUP3 AND SWAP1 POP SWAP2 SWAP1 POP JUMP JUMPDEST PUSH0 PUSH2 0x1BB2 DUP3 PUSH2 0x1B89 JUMP JUMPDEST SWAP1 POP SWAP2 SWAP1 POP JUMP JUMPDEST PUSH2 0x1BC2 DUP2 PUSH2 0x1BA8 JUMP JUMPDEST DUP2 EQ PUSH2 0x1BCC JUMPI PUSH0 DUP1 REVERT JUMPDEST POP JUMP JUMPDEST PUSH0 DUP2 CALLDATALOAD SWAP1 POP PUSH2 0x1BDD DUP2 PUSH2 0x1BB9 JUMP JUMPDEST SWAP3 SWAP2 POP POP JUMP JUMPDEST PUSH0 DUP1 PUSH0 DUP1 PUSH1 0x80 DUP6 DUP8 SUB SLT ISZERO PUSH2 0x1BFB JUMPI PUSH2 0x1BFA PUSH2 0x1A12 JUMP JUMPDEST JUMPDEST PUSH0 PUSH2 0x1C08 DUP8 DUP3 DUP9 ADD PUSH2 0x1A39 JUMP JUMPDEST SWAP5 POP POP PUSH1 0x20 PUSH2 0x1C19 DUP8 DUP3 DUP9 ADD PUSH2 0x1A39 JUMP JUMPDEST SWAP4 POP POP PUSH1 0x40 DUP6 ADD CALLDATALOAD PUSH8 0xFFFFFFFFFFFFFFFF DUP2 GT ISZERO PUSH2 0x1C3A JUMPI PUSH2 0x1C39 PUSH2 0x1A16 JUMP JUMPDEST JUMPDEST PUSH2 0x1C46 DUP8 DUP3 DUP9 ADD PUSH2 0x1B5C JUMP JUMPDEST SWAP3 POP POP PUSH1 0x60 PUSH2 0x1C57 DUP8 DUP3 DUP9 ADD PUSH2 0x1BCF JUMP JUMPDEST SWAP2 POP POP SWAP3 SWAP6 SWAP2 SWAP5 POP SWAP3 POP JUMP JUMPDEST PUSH0 DUP2 MLOAD SWAP1 POP SWAP2 SWAP1 POP JUMP JUMPDEST PUSH0 DUP3 DUP3 MSTORE PUSH1 0x20 DUP3 ADD SWAP1 POP SWAP3 SWAP2 POP POP JUMP JUMPDEST PUSH0 JUMPDEST DUP4 DUP2 LT ISZERO PUSH2 0x1C9A JUMPI DUP1 DUP3 ADD MLOAD DUP2 DUP5 ADD MSTORE PUSH1 0x20 DUP2 ADD SWAP1 POP PUSH2 0x1C7F JUMP JUMPDEST PUSH0 DUP5 DUP5 ADD MSTORE POP POP POP POP JUMP JUMPDEST PUSH0 PUSH2 0x1CAF DUP3 PUSH2 0x1C63 JUMP JUMPDEST PUSH2 0x1CB9 DUP2 DUP6 PUSH2 0x1C6D JUMP JUMPDEST SWAP4 POP PUSH2 0x1CC9 DUP2 DUP6 PUSH1 0x20 DUP7 ADD PUSH2 0x1C7D JUMP JUMPDEST PUSH2 0x1CD2 DUP2 PUSH2 0x1A55 JUMP JUMPDEST DUP5 ADD SWAP2 POP POP SWAP3 SWAP2 POP POP JUMP JUMPDEST PUSH0 PUSH1 0x20 DUP3 ADD SWAP1 POP DUP2 DUP2 SUB PUSH0 DUP4 ADD MSTORE PUSH2 0x1CF5 DUP2 DUP5 PUSH2 0x1CA5 JUMP JUMPDEST SWAP1 POP SWAP3 SWAP2 POP POP JUMP JUMPDEST PUSH2 0x1D06 DUP2 PUSH2 0x1A1A JUMP JUMPDEST DUP3 MSTORE POP POP JUMP JUMPDEST PUSH0 PUSH1 0x20 DUP3 ADD SWAP1 POP PUSH2 0x1D1F PUSH0 DUP4 ADD DUP5 PUSH2 0x1CFD JUMP JUMPDEST SWAP3 SWAP2 POP POP JUMP JUMPDEST PUSH0 DUP1 PUSH0 PUSH1 0x60 DUP5 DUP7 SUB SLT ISZERO PUSH2 0x1D3C JUMPI PUSH2 0x1D3B PUSH2 0x1A12 JUMP JUMPDEST JUMPDEST PUSH0 PUSH2 0x1D49 DUP7 DUP3 DUP8 ADD PUSH2 0x1BCF JUMP JUMPDEST SWAP4 POP POP PUSH1 0x20 PUSH2 0x1D5A DUP7 DUP3 DUP8 ADD PUSH2 0x1A39 JUMP JUMPDEST SWAP3 POP POP PUSH1 0x40 PUSH2 0x1D6B DUP7 DUP3 DUP8 ADD PUSH2 0x1A39 JUMP JUMPDEST SWAP2 POP POP SWAP3 POP SWAP3 POP SWAP3 JUMP JUMPDEST PUSH0 DUP2 MLOAD SWAP1 POP SWAP2 SWAP1 POP JUMP JUMPDEST PUSH0 DUP3 DUP3 MSTORE PUSH1 0x20 DUP3 ADD SWAP1 POP SWAP3 SWAP2 POP POP JUMP JUMPDEST PUSH0 DUP2 SWAP1 POP PUSH1 0x20 DUP3 ADD SWAP1 POP SWAP2 SWAP1 POP JUMP JUMPDEST PUSH0 DUP3 DUP3 MSTORE PUSH1 0x20 DUP3 ADD SWAP1 POP SWAP3 SWAP2 POP POP JUMP JUMPDEST PUSH0 PUSH2 0x1DB8 DUP3 PUSH2 0x1C63 JUMP JUMPDEST PUSH2 0x1DC2 DUP2 DUP6 PUSH2 0x1D9E JUMP JUMPDEST SWAP4 POP PUSH2 0x1DD2 DUP2 DUP6 PUSH1 0x20 DUP7 ADD PUSH2 0x1C7D JUMP JUMPDEST PUSH2 0x1DDB DUP2 PUSH2 0x1A55 JUMP JUMPDEST DUP5 ADD SWAP2 POP POP SWAP3 SWAP2 POP POP JUMP JUMPDEST PUSH0 PUSH2 0x1DF1 DUP4 DUP4 PUSH2 0x1DAE JUMP JUMPDEST SWAP1 POP SWAP3 SWAP2 POP POP JUMP JUMPDEST PUSH0 PUSH1 0x20 DUP3 ADD SWAP1 POP SWAP2 SWAP1 POP JUMP JUMPDEST PUSH0 PUSH2 0x1E0F DUP3 PUSH2 0x1D75 JUMP JUMPDEST PUSH2 0x1E19 DUP2 DUP6 PUSH2 0x1D7F JUMP JUMPDEST SWAP4 POP DUP4 PUSH1 0x20 DUP3 MUL DUP6 ADD PUSH2 0x1E2B DUP6 PUSH2 0x1D8F JUMP JUMPDEST DUP1 PUSH0 JUMPDEST DUP6 DUP2 LT ISZERO PUSH2 0x1E66 JUMPI DUP5 DUP5 SUB DUP10 MSTORE DUP2 MLOAD PUSH2 0x1E47 DUP6 DUP3 PUSH2 0x1DE6 JUMP JUMPDEST SWAP5 POP PUSH2 0x1E52 DUP4 PUSH2 0x1DF9 JUMP JUMPDEST SWAP3 POP PUSH1 0x20 DUP11 ADD SWAP10 POP POP PUSH1 0x1 DUP2 ADD SWAP1 POP PUSH2 0x1E2E JUMP JUMPDEST POP DUP3 SWAP8 POP DUP8 SWAP6 POP POP POP POP POP POP SWAP3 SWAP2 POP POP JUMP JUMPDEST PUSH0 PUSH1 0x20 DUP3 ADD SWAP1 POP DUP2 DUP2 SUB PUSH0 DUP4 ADD MSTORE PUSH2 0x1E90 DUP2 DUP5 PUSH2 0x1E05 JUMP JUMPDEST SWAP1 POP SWAP3 SWAP2 POP POP JUMP JUMPDEST PUSH0 PUSH1 0x20 DUP3 DUP5 SUB SLT ISZERO PUSH2 0x1EAD JUMPI PUSH2 0x1EAC PUSH2 0x1A12 JUMP JUMPDEST JUMPDEST PUSH0 DUP3 ADD CALLDATALOAD PUSH8 0xFFFFFFFFFFFFFFFF DUP2 GT ISZERO PUSH2 0x1ECA JUMPI PUSH2 0x1EC9 PUSH2 0x1A16 JUMP JUMPDEST JUMPDEST PUSH2 0x1ED6 DUP5 DUP3 DUP6 ADD PUSH2 0x1B5C JUMP JUMPDEST SWAP2 POP POP SWAP3 SWAP2 POP POP JUMP JUMPDEST PUSH0 DUP2 MLOAD SWAP1 POP SWAP2 SWAP1 POP JUMP JUMPDEST PUSH0 DUP2 SWAP1 POP PUSH1 0x20 DUP3 ADD SWAP1 POP SWAP2 SWAP1 POP JUMP JUMPDEST PUSH1 0xC7 DUP2 LT PUSH2 0x1F09 JUMPI PUSH2 0x1F08 PUSH2 0x18F7 JUMP JUMPDEST JUMPDEST POP JUMP JUMPDEST PUSH0 DUP2 SWAP1 POP PUSH2 0x1F19 DUP3 PUSH2 0x1EF8 JUMP JUMPDEST SWAP2 SWAP1 POP JUMP JUMPDEST PUSH0 PUSH2 0x1F28 DUP3 PUSH2 0x1F0C JUMP JUMPDEST SWAP1 POP SWAP2 SWAP1 POP JUMP JUMPDEST PUSH2 0x1F38 DUP2 PUSH2 0x1F1E JUMP JUMPDEST DUP3 MSTORE POP POP JUMP JUMPDEST PUSH0 PUSH2 0x1F49 DUP4 DUP4 PUSH2 0x1F2F JUMP JUMPDEST PUSH1 0x20 DUP4 ADD SWAP1 POP SWAP3 SWAP2 POP POP JUMP JUMPDEST PUSH0 PUSH1 0x20 DUP3 ADD SWAP1 POP SWAP2 SWAP1 POP JUMP JUMPDEST PUSH0 PUSH2 0x1F6B DUP3 PUSH2 0x1EDF JUMP JUMPDEST PUSH2 0x1F75 DUP2 DUP6 PUSH2 0x18D8 JUMP JUMPDEST SWAP4 POP PUSH2 0x1F80 DUP4 PUSH2 0x1EE9 JUMP JUMPDEST DUP1 PUSH0 JUMPDEST DUP4 DUP2 LT ISZERO PUSH2 0x1FB0 JUMPI DUP2 MLOAD PUSH2 0x1F97 DUP9 DUP3 PUSH2 0x1F3E JUMP JUMPDEST SWAP8 POP PUSH2 0x1FA2 DUP4 PUSH2 0x1F55 JUMP JUMPDEST SWAP3 POP POP PUSH1 0x1 DUP2 ADD SWAP1 POP PUSH2 0x1F83 JUMP JUMPDEST POP DUP6 SWAP4 POP POP POP POP SWAP3 SWAP2 POP POP JUMP JUMPDEST PUSH0 PUSH1 0x40 DUP3 ADD SWAP1 POP DUP2 DUP2 SUB PUSH0 DUP4 ADD MSTORE PUSH2 0x1FD5 DUP2 DUP6 PUSH2 0x1F61 JUMP JUMPDEST SWAP1 POP DUP2 DUP2 SUB PUSH1 0x20 DUP4 ADD MSTORE PUSH2 0x1FE9 DUP2 DUP5 PUSH2 0x1F61 JUMP JUMPDEST SWAP1 POP SWAP4 SWAP3 POP POP POP JUMP JUMPDEST PUSH0 DUP1 PUSH0 PUSH1 0x60 DUP5 DUP7 SUB SLT ISZERO PUSH2 0x2009 JUMPI PUSH2 0x2008 PUSH2 0x1A12 JUMP JUMPDEST JUMPDEST PUSH0 PUSH2 0x2016 DUP7 DUP3 DUP8 ADD PUSH2 0x1A39 JUMP JUMPDEST SWAP4 POP POP PUSH1 0x20 PUSH2 0x2027 DUP7 DUP3 DUP8 ADD PUSH2 0x1A39 JUMP JUMPDEST SWAP3 POP POP PUSH1 0x40 PUSH2 0x2038 DUP7 DUP3 DUP8 ADD PUSH2 0x1A39 JUMP JUMPDEST SWAP2 POP POP SWAP3 POP SWAP3 POP SWAP3 JUMP JUMPDEST PUSH0 PUSH8 0xFFFFFFFFFFFFFFFF DUP3 GT ISZERO PUSH2 0x205C JUMPI PUSH2 0x205B PUSH2 0x1A65 JUMP JUMPDEST JUMPDEST PUSH2 0x2065 DUP3 PUSH2 0x1A55 JUMP JUMPDEST SWAP1 POP PUSH1 0x20 DUP2 ADD SWAP1 POP SWAP2 SWAP1 POP JUMP JUMPDEST PUSH0 PUSH2 0x2084 PUSH2 0x207F DUP5 PUSH2 0x2042 JUMP JUMPDEST PUSH2 0x1AC3 JUMP JUMPDEST SWAP1 POP DUP3 DUP2 MSTORE PUSH1 0x20 DUP2 ADD DUP5 DUP5 DUP5 ADD GT ISZERO PUSH2 0x20A0 JUMPI PUSH2 0x209F PUSH2 0x1A51 JUMP JUMPDEST JUMPDEST PUSH2 0x20AB DUP5 DUP3 DUP6 PUSH2 0x1B0D JUMP JUMPDEST POP SWAP4 SWAP3 POP POP POP JUMP JUMPDEST PUSH0 DUP3 PUSH1 0x1F DUP4 ADD SLT PUSH2 0x20C7 JUMPI PUSH2 0x20C6 PUSH2 0x1A4D JUMP JUMPDEST JUMPDEST DUP2 CALLDATALOAD PUSH2 0x20D7 DUP5 DUP3 PUSH1 0x20 DUP7 ADD PUSH2 0x2072 JUMP JUMPDEST SWAP2 POP POP SWAP3 SWAP2 POP POP JUMP JUMPDEST PUSH0 DUP1 PUSH1 0x40 DUP4 DUP6 SUB SLT ISZERO PUSH2 0x20F6 JUMPI PUSH2 0x20F5 PUSH2 0x1A12 JUMP JUMPDEST JUMPDEST PUSH0 DUP4 ADD CALLDATALOAD PUSH8 0xFFFFFFFFFFFFFFFF DUP2 GT ISZERO PUSH2 0x2113 JUMPI PUSH2 0x2112 PUSH2 0x1A16 JUMP JUMPDEST JUMPDEST PUSH2 0x211F DUP6 DUP3 DUP7 ADD PUSH2 0x1B5C JUMP JUMPDEST SWAP3 POP POP PUSH1 0x20 DUP4 ADD CALLDATALOAD PUSH8 0xFFFFFFFFFFFFFFFF DUP2 GT ISZERO PUSH2 0x2140 JUMPI PUSH2 0x213F PUSH2 0x1A16 JUMP JUMPDEST JUMPDEST PUSH2 0x214C DUP6 DUP3 DUP7 ADD PUSH2 0x20B3 JUMP JUMPDEST SWAP2 POP POP SWAP3 POP SWAP3 SWAP1 POP JUMP JUMPDEST PUSH0 DUP2 MLOAD SWAP1 POP SWAP2 SWAP1 POP JUMP JUMPDEST PUSH0 DUP3 DUP3 MSTORE PUSH1 0x20 DUP3 ADD SWAP1 POP SWAP3 SWAP2 POP POP JUMP JUMPDEST PUSH0 PUSH2 0x217A DUP3 PUSH2 0x2156 JUMP JUMPDEST PUSH2 0x2184 DUP2 DUP6 PUSH2 0x2160 JUMP JUMPDEST SWAP4 POP PUSH2 0x2194 DUP2 DUP6 PUSH1 0x20 DUP7 ADD PUSH2 0x1C7D JUMP JUMPDEST PUSH2 0x219D DUP2 PUSH2 0x1A55 JUMP JUMPDEST DUP5 ADD SWAP2 POP POP SWAP3 SWAP2 POP POP JUMP JUMPDEST PUSH0 PUSH1 0x20 DUP3 ADD SWAP1 POP DUP2 DUP2 SUB PUSH0 DUP4 ADD MSTORE PUSH2 0x21C0 DUP2 DUP5 PUSH2 0x2170 JUMP JUMPDEST SWAP1 POP SWAP3 SWAP2 POP POP JUMP JUMPDEST PUSH1 0x4 DUP2 LT PUSH2 0x21D4 JUMPI PUSH0 DUP1 REVERT JUMPDEST POP JUMP JUMPDEST PUSH0 DUP2 CALLDATALOAD SWAP1 POP PUSH2 0x21E5 DUP2 PUSH2 0x21C8 JUMP JUMPDEST SWAP3 SWAP2 POP POP JUMP JUMPDEST PUSH0 PUSH1 0x20 DUP3 DUP5 SUB SLT ISZERO PUSH2 0x2200 JUMPI PUSH2 0x21FF PUSH2 0x1A12 JUMP JUMPDEST JUMPDEST PUSH0 PUSH2 0x220D DUP5 DUP3 DUP6 ADD PUSH2 0x21D7 JUMP JUMPDEST SWAP2 POP POP SWAP3 SWAP2 POP POP JUMP JUMPDEST PUSH32 0x4E487B7100000000000000000000000000000000000000000000000000000000 PUSH0 MSTORE PUSH1 0x32 PUSH1 0x4 MSTORE PUSH1 0x24 PUSH0 REVERT JUMPDEST PUSH0 DUP2 SWAP1 POP SWAP3 SWAP2 POP POP JUMP JUMPDEST PUSH0 PUSH2 0x2257 DUP3 PUSH2 0x1C63 JUMP JUMPDEST PUSH2 0x2261 DUP2 DUP6 PUSH2 0x2243 JUMP JUMPDEST SWAP4 POP PUSH2 0x2271 DUP2 DUP6 PUSH1 0x20 DUP7 ADD PUSH2 0x1C7D JUMP JUMPDEST DUP1 DUP5 ADD SWAP2 POP POP SWAP3 SWAP2 POP POP JUMP JUMPDEST PUSH32 0x2C00000000000000000000000000000000000000000000000000000000000000 PUSH0 DUP3 ADD MSTORE POP JUMP JUMPDEST PUSH0 PUSH2 0x22B1 PUSH1 0x1 DUP4 PUSH2 0x2243 JUMP JUMPDEST SWAP2 POP PUSH2 0x22BC DUP3 PUSH2 0x227D JUMP JUMPDEST PUSH1 0x1 DUP3 ADD SWAP1 POP SWAP2 SWAP1 POP JUMP JUMPDEST PUSH0 PUSH2 0x22D2 DUP3 DUP9 PUSH2 0x224D JUMP JUMPDEST SWAP2 POP PUSH2 0x22DD DUP3 PUSH2 0x22A5 JUMP JUMPDEST SWAP2 POP PUSH2 0x22E9 DUP3 DUP8 PUSH2 0x224D JUMP JUMPDEST SWAP2 POP PUSH2 0x22F4 DUP3 PUSH2 0x22A5 JUMP JUMPDEST SWAP2 POP PUSH2 0x2300 DUP3 DUP7 PUSH2 0x224D JUMP JUMPDEST SWAP2 POP PUSH2 0x230B DUP3 PUSH2 0x22A5 JUMP JUMPDEST SWAP2 POP PUSH2 0x2317 DUP3 DUP6 PUSH2 0x224D JUMP JUMPDEST SWAP2 POP PUSH2 0x2322 DUP3 PUSH2 0x22A5 JUMP JUMPDEST SWAP2 POP PUSH2 0x232E DUP3 DUP5 PUSH2 0x224D JUMP JUMPDEST SWAP2 POP DUP2 SWAP1 POP SWAP7 SWAP6 POP POP POP POP POP POP JUMP JUMPDEST PUSH32 0x4E487B7100000000000000000000000000000000000000000000000000000000 PUSH0 MSTORE PUSH1 0x11 PUSH1 0x4 MSTORE PUSH1 0x24 PUSH0 REVERT JUMPDEST PUSH0 PUSH2 0x2374 DUP3 PUSH2 0x1A1A JUMP JUMPDEST SWAP2 POP PUSH2 0x237F DUP4 PUSH2 0x1A1A JUMP JUMPDEST SWAP3 POP DUP3 DUP3 SUB SWAP1 POP DUP2 DUP2 GT ISZERO PUSH2 0x2397 JUMPI PUSH2 0x2396 PUSH2 0x233D JUMP JUMPDEST JUMPDEST SWAP3 SWAP2 POP POP JUMP JUMPDEST PUSH32 0x4E487B7100000000000000000000000000000000000000000000000000000000 PUSH0 MSTORE PUSH1 0x12 PUSH1 0x4 MSTORE PUSH1 0x24 PUSH0 REVERT JUMPDEST PUSH0 PUSH2 0x23D4 DUP3 PUSH2 0x1A1A JUMP JUMPDEST SWAP2 POP PUSH2 0x23DF DUP4 PUSH2 0x1A1A JUMP JUMPDEST SWAP3 POP DUP3 PUSH2 0x23EF JUMPI PUSH2 0x23EE PUSH2 0x239D JUMP JUMPDEST JUMPDEST DUP3 DUP3 DIV SWAP1 POP SWAP3 SWAP2 POP POP JUMP JUMPDEST PUSH0 PUSH2 0x2404 DUP3 PUSH2 0x1A1A JUMP JUMPDEST SWAP2 POP PUSH2 0x240F DUP4 PUSH2 0x1A1A JUMP JUMPDEST SWAP3 POP DUP3 DUP3 MUL PUSH2 0x241D DUP2 PUSH2 0x1A1A JUMP JUMPDEST SWAP2 POP DUP3 DUP3 DIV DUP5 EQ DUP4 ISZERO OR PUSH2 0x2434 JUMPI PUSH2 0x2433 PUSH2 0x233D JUMP JUMPDEST JUMPDEST POP SWAP3 SWAP2 POP POP JUMP JUMPDEST PUSH0 PUSH2 0x2445 DUP3 PUSH2 0x1A1A JUMP JUMPDEST SWAP2 POP PUSH2 0x2450 DUP4 PUSH2 0x1A1A JUMP JUMPDEST SWAP3 POP DUP3 DUP3 ADD SWAP1 POP DUP1 DUP3 GT ISZERO PUSH2 0x2468 JUMPI PUSH2 0x2467 PUSH2 0x233D JUMP JUMPDEST JUMPDEST SWAP3 SWAP2 POP POP JUMP JUMPDEST PUSH32 0x4E487B7100000000000000000000000000000000000000000000000000000000 PUSH0 MSTORE PUSH1 0x22 PUSH1 0x4 MSTORE PUSH1 0x24 PUSH0 REVERT JUMPDEST PUSH0 PUSH1 0x2 DUP3 DIV SWAP1 POP PUSH1 0x1 DUP3 AND DUP1 PUSH2 0x24B2 JUMPI PUSH1 0x7F DUP3 AND SWAP2 POP JUMPDEST PUSH1 0x20 DUP3 LT DUP2 SUB PUSH2 0x24C5 JUMPI PUSH2 0x24C4 PUSH2 0x246E JUMP JUMPDEST JUMPDEST POP SWAP2 SWAP1 POP JUMP JUMPDEST PUSH0 PUSH2 0x24D5 DUP3 PUSH2 0x1A1A JUMP JUMPDEST SWAP2 POP PUSH32 0xFFFFFFFFFFFFFFFFFFFFFFFFFFFFFFFFFFFFFFFFFFFFFFFFFFFFFFFFFFFFFFFF DUP3 SUB PUSH2 0x2507 JUMPI PUSH2 0x2506 PUSH2 0x233D JUMP JUMPDEST JUMPDEST PUSH1 0x1 DUP3 ADD SWAP1 POP SWAP2 SWAP1 POP JUMP JUMPDEST PUSH0 DUP2 SWAP1 POP SWAP2 SWAP1 POP JUMP JUMPDEST PUSH0 PUSH2 0x2525 DUP3 PUSH2 0x2512 JUMP JUMPDEST SWAP2 POP PUSH32 0x8000000000000000000000000000000000000000000000000000000000000000 DUP3 SUB PUSH2 0x2557 JUMPI PUSH2 0x2556 PUSH2 0x233D JUMP JUMPDEST JUMPDEST PUSH1 0x1 DUP3 SUB SWAP1 POP SWAP2 SWAP1 POP JUMP JUMPDEST PUSH0 PUSH2 0x256D DUP3 DUP5 PUSH2 0x224D JUMP JUMPDEST SWAP2 POP DUP2 SWAP1 POP SWAP3 SWAP2 POP POP JUMP JUMPDEST PUSH0 DUP2 MLOAD SWAP1 POP PUSH2 0x2586 DUP2 PUSH2 0x1A23 JUMP JUMPDEST SWAP3 SWAP2 POP POP JUMP JUMPDEST PUSH0 PUSH1 0x20 DUP3 DUP5 SUB SLT ISZERO PUSH2 0x25A1 JUMPI PUSH2 0x25A0 PUSH2 0x1A12 JUMP JUMPDEST JUMPDEST PUSH0 PUSH2 0x25AE DUP5 DUP3 DUP6 ADD PUSH2 0x2578 JUMP JUMPDEST SWAP2 POP POP SWAP3 SWAP2 POP POP JUMP JUMPDEST PUSH2 0x25C0 DUP2 PUSH2 0x1BA8 JUMP JUMPDEST DUP3 MSTORE POP POP JUMP JUMPDEST PUSH0 PUSH1 0x80 DUP3 ADD SWAP1 POP PUSH2 0x25D9 PUSH0 DUP4 ADD DUP8 PUSH2 0x1CFD JUMP JUMPDEST PUSH2 0x25E6 PUSH1 0x20 DUP4 ADD DUP7 PUSH2 0x1CFD JUMP JUMPDEST DUP2 DUP2 SUB PUSH1 0x40 DUP4 ADD MSTORE PUSH2 0x25F8 DUP2 DUP6 PUSH2 0x1CA5 JUMP JUMPDEST SWAP1 POP PUSH2 0x2607 PUSH1 0x60 DUP4 ADD DUP5 PUSH2 0x25B7 JUMP JUMPDEST SWAP6 SWAP5 POP POP POP POP POP JUMP JUMPDEST PUSH0 DUP1 PUSH0 PUSH1 0x60 DUP5 DUP7 SUB SLT ISZERO PUSH2 0x2627 JUMPI PUSH2 0x2626 PUSH2 0x1A12 JUMP JUMPDEST JUMPDEST PUSH0 PUSH2 0x2634 DUP7 DUP3 DUP8 ADD PUSH2 0x2578 JUMP JUMPDEST SWAP4 POP POP PUSH1 0x20 PUSH2 0x2645 DUP7 DUP3 DUP8 ADD PUSH2 0x2578 JUMP JUMPDEST SWAP3 POP POP PUSH1 0x40 PUSH2 0x2656 DUP7 DUP3 DUP8 ADD PUSH2 0x2578 JUMP JUMPDEST SWAP2 POP POP SWAP3 POP SWAP3 POP SWAP3 JUMP JUMPDEST PUSH0 PUSH2 0x266A DUP3 PUSH2 0x1B89 JUMP JUMPDEST SWAP1 POP SWAP2 SWAP1 POP JUMP JUMPDEST PUSH2 0x267A DUP2 PUSH2 0x2660 JUMP JUMPDEST DUP2 EQ PUSH2 0x2684 JUMPI PUSH0 DUP1 REVERT JUMPDEST POP JUMP JUMPDEST PUSH0 DUP2 MLOAD SWAP1 POP PUSH2 0x2695 DUP2 PUSH2 0x2671 JUMP JUMPDEST SWAP3 SWAP2 POP POP JUMP JUMPDEST PUSH0 DUP1 PUSH0 PUSH1 0x60 DUP5 DUP7 SUB SLT ISZERO PUSH2 0x26B2 JUMPI PUSH2 0x26B1 PUSH2 0x1A12 JUMP JUMPDEST JUMPDEST PUSH0 PUSH2 0x26BF DUP7 DUP3 DUP8 ADD PUSH2 0x2687 JUMP JUMPDEST SWAP4 POP POP PUSH1 0x20 PUSH2 0x26D0 DUP7 DUP3 DUP8 ADD PUSH2 0x2578 JUMP JUMPDEST SWAP3 POP POP PUSH1 0x40 PUSH2 0x26E1 DUP7 DUP3 DUP8 ADD PUSH2 0x2578 JUMP JUMPDEST SWAP2 POP POP SWAP3 POP SWAP3 POP SWAP3 JUMP JUMPDEST POP JUMP JUMPDEST PUSH0 PUSH2 0x26F9 PUSH0 DUP4 PUSH2 0x1C6D JUMP JUMPDEST SWAP2 POP PUSH2 0x2704 DUP3 PUSH2 0x26EB JUMP JUMPDEST PUSH0 DUP3 ADD SWAP1 POP SWAP2 SWAP1 POP JUMP JUMPDEST PUSH0 PUSH1 0x20 DUP3 ADD SWAP1 POP DUP2 DUP2 SUB PUSH0 DUP4 ADD MSTORE PUSH2 0x2725 DUP2 PUSH2 0x26EE JUMP JUMPDEST SWAP1 POP SWAP2 SWAP1 POP JUMP JUMPDEST PUSH0 PUSH2 0x273E PUSH2 0x2739 DUP5 PUSH2 0x1ADD JUMP JUMPDEST PUSH2 0x1AC3 JUMP JUMPDEST SWAP1 POP DUP3 DUP2 MSTORE PUSH1 0x20 DUP2 ADD DUP5 DUP5 DUP5 ADD GT ISZERO PUSH2 0x275A JUMPI PUSH2 0x2759 PUSH2 0x1A51 JUMP JUMPDEST JUMPDEST PUSH2 0x2765 DUP5 DUP3 DUP6 PUSH2 0x1C7D JUMP JUMPDEST POP SWAP4 SWAP3 POP POP POP JUMP JUMPDEST PUSH0 DUP3 PUSH1 0x1F DUP4 ADD SLT PUSH2 0x2781 JUMPI PUSH2 0x2780 PUSH2 0x1A4D JUMP JUMPDEST JUMPDEST DUP2 MLOAD PUSH2 0x2791 DUP5 DUP3 PUSH1 0x20 DUP7 ADD PUSH2 0x272C JUMP JUMPDEST SWAP2 POP POP SWAP3 SWAP2 POP POP JUMP JUMPDEST PUSH0 DUP1 PUSH1 0x40 DUP4 DUP6 SUB SLT ISZERO PUSH2 0x27B0 JUMPI PUSH2 0x27AF PUSH2 0x1A12 JUMP JUMPDEST JUMPDEST PUSH0 PUSH2 0x27BD DUP6 DUP3 DUP7 ADD PUSH2 0x2578 JUMP JUMPDEST SWAP3 POP POP PUSH1 0x20 DUP4 ADD MLOAD PUSH8 0xFFFFFFFFFFFFFFFF DUP2 GT ISZERO PUSH2 0x27DE JUMPI PUSH2 0x27DD PUSH2 0x1A16 JUMP JUMPDEST JUMPDEST PUSH2 0x27EA DUP6 DUP3 DUP7 ADD PUSH2 0x276D JUMP JUMPDEST SWAP2 POP POP SWAP3 POP SWAP3 SWAP1 POP JUMP JUMPDEST PUSH0 DUP2 SWAP1 POP DUP2 PUSH0 MSTORE PUSH1 0x20 PUSH0 KECCAK256 SWAP1 POP SWAP2 SWAP1 POP JUMP JUMPDEST PUSH0 PUSH1 0x20 PUSH1 0x1F DUP4 ADD DIV SWAP1 POP SWAP2 SWAP1 POP JUMP JUMPDEST PUSH0 DUP3 DUP3 SHL SWAP1 POP SWAP3 SWAP2 POP POP JUMP JUMPDEST PUSH0 PUSH1 0x8 DUP4 MUL PUSH2 0x2850 PUSH32 0xFFFFFFFFFFFFFFFFFFFFFFFFFFFFFFFFFFFFFFFFFFFFFFFFFFFFFFFFFFFFFFFF DUP3 PUSH2 0x2815 JUMP JUMPDEST PUSH2 0x285A DUP7 DUP4 PUSH2 0x2815 JUMP JUMPDEST SWAP6 POP DUP1 NOT DUP5 AND SWAP4 POP DUP1 DUP7 AND DUP5 OR SWAP3 POP POP POP SWAP4 SWAP3 POP POP POP JUMP JUMPDEST PUSH0 DUP2 SWAP1 POP SWAP2 SWAP1 POP JUMP JUMPDEST PUSH0 PUSH2 0x2895 PUSH2 0x2890 PUSH2 0x288B DUP5 PUSH2 0x1A1A JUMP JUMPDEST PUSH2 0x2872 JUMP JUMPDEST PUSH2 0x1A1A JUMP JUMPDEST SWAP1 POP SWAP2 SWAP1 POP JUMP JUMPDEST PUSH0 DUP2 SWAP1 POP SWAP2 SWAP1 POP JUMP JUMPDEST PUSH2 0x28AE DUP4 PUSH2 0x287B JUMP JUMPDEST PUSH2 0x28C2 PUSH2 0x28BA DUP3 PUSH2 0x289C JUMP JUMPDEST DUP5 DUP5 SLOAD PUSH2 0x2821 JUMP JUMPDEST DUP3 SSTORE POP POP POP POP JUMP JUMPDEST PUSH0 SWAP1 JUMP JUMPDEST PUSH2 0x28D6 PUSH2 0x28CA JUMP JUMPDEST PUSH2 0x28E1 DUP2 DUP5 DUP5 PUSH2 0x28A5 JUMP JUMPDEST POP POP POP JUMP JUMPDEST JUMPDEST DUP2 DUP2 LT ISZERO PUSH2 0x2904 JUMPI PUSH2 0x28F9 PUSH0 DUP3 PUSH2 0x28CE JUMP JUMPDEST PUSH1 0x1 DUP2 ADD SWAP1 POP PUSH2 0x28E7 JUMP JUMPDEST POP POP JUMP JUMPDEST PUSH1 0x1F DUP3 GT ISZERO PUSH2 0x2949 JUMPI PUSH2 0x291A DUP2 PUSH2 0x27F4 JUMP JUMPDEST PUSH2 0x2923 DUP5 PUSH2 0x2806 JUMP JUMPDEST DUP2 ADD PUSH1 0x20 DUP6 LT ISZERO PUSH2 0x2932 JUMPI DUP2 SWAP1 POP JUMPDEST PUSH2 0x2946 PUSH2 0x293E DUP6 PUSH2 0x2806 JUMP JUMPDEST DUP4 ADD DUP3 PUSH2 0x28E6 JUMP JUMPDEST POP POP JUMPDEST POP POP POP JUMP JUMPDEST PUSH0 DUP3 DUP3 SHR SWAP1 POP SWAP3 SWAP2 POP POP JUMP JUMPDEST PUSH0 PUSH2 0x2969 PUSH0 NOT DUP5 PUSH1 0x8 MUL PUSH2 0x294E JUMP JUMPDEST NOT DUP1 DUP4 AND SWAP2 POP POP SWAP3 SWAP2 POP POP JUMP JUMPDEST PUSH0 PUSH2 0x2981 DUP4 DUP4 PUSH2 0x295A JUMP JUMPDEST SWAP2 POP DUP3 PUSH1 0x2 MUL DUP3 OR SWAP1 POP SWAP3 SWAP2 POP POP JUMP JUMPDEST PUSH2 0x299A DUP3 PUSH2 0x1C63 JUMP JUMPDEST PUSH8 0xFFFFFFFFFFFFFFFF DUP2 GT ISZERO PUSH2 0x29B3 JUMPI PUSH2 0x29B2 PUSH2 0x1A65 JUMP JUMPDEST JUMPDEST PUSH2 0x29BD DUP3 SLOAD PUSH2 0x249B JUMP JUMPDEST PUSH2 0x29C8 DUP3 DUP3 DUP6 PUSH2 0x2908 JUMP JUMPDEST PUSH0 PUSH1 0x20 SWAP1 POP PUSH1 0x1F DUP4 GT PUSH1 0x1 DUP2 EQ PUSH2 0x29F9 JUMPI PUSH0 DUP5 ISZERO PUSH2 0x29E7 JUMPI DUP3 DUP8 ADD MLOAD SWAP1 POP JUMPDEST PUSH2 0x29F1 DUP6 DUP3 PUSH2 0x2976 JUMP JUMPDEST DUP7 SSTORE POP PUSH2 0x2A58 JUMP JUMPDEST PUSH1 0x1F NOT DUP5 AND PUSH2 0x2A07 DUP7 PUSH2 0x27F4 JUMP JUMPDEST PUSH0 JUMPDEST DUP3 DUP2 LT ISZERO PUSH2 0x2A2E JUMPI DUP5 DUP10 ADD MLOAD DUP3 SSTORE PUSH1 0x1 DUP3 ADD SWAP2 POP PUSH1 0x20 DUP6 ADD SWAP5 POP PUSH1 0x20 DUP2 ADD SWAP1 POP PUSH2 0x2A09 JUMP JUMPDEST DUP7 DUP4 LT ISZERO PUSH2 0x2A4B JUMPI DUP5 DUP10 ADD MLOAD PUSH2 0x2A47 PUSH1 0x1F DUP10 AND DUP3 PUSH2 0x295A JUMP JUMPDEST DUP4 SSTORE POP JUMPDEST PUSH1 0x1 PUSH1 0x2 DUP9 MUL ADD DUP9 SSTORE POP POP POP JUMPDEST POP POP POP POP POP POP JUMP JUMPDEST PUSH0 PUSH1 0x40 DUP3 ADD SWAP1 POP DUP2 DUP2 SUB PUSH0 DUP4 ADD MSTORE PUSH2 0x2A78 DUP2 DUP6 PUSH2 0x1CA5 JUMP JUMPDEST SWAP1 POP DUP2 DUP2 SUB PUSH1 0x20 DUP4 ADD MSTORE PUSH2 0x2A8C DUP2 DUP5 PUSH2 0x2170 JUMP JUMPDEST SWAP1 POP SWAP4 SWAP3 POP POP POP JUMP JUMPDEST PUSH0 PUSH2 0x2A9F DUP3 PUSH2 0x1A1A JUMP JUMPDEST SWAP2 POP PUSH2 0x2AAA DUP4 PUSH2 0x1A1A JUMP JUMPDEST SWAP3 POP DUP3 PUSH2 0x2ABA JUMPI PUSH2 0x2AB9 PUSH2 0x239D JUMP JUMPDEST JUMPDEST DUP3 DUP3 MOD SWAP1 POP SWAP3 SWAP2 POP POP JUMP JUMPDEST PUSH0 PUSH2 0x2ACF DUP3 PUSH2 0x1A1A JUMP JUMPDEST SWAP2 POP PUSH0 DUP3 SUB PUSH2 0x2AE1 JUMPI PUSH2 0x2AE0 PUSH2 0x233D JUMP JUMPDEST JUMPDEST PUSH1 0x1 DUP3 SUB SWAP1 POP SWAP2 SWAP1 POP JUMP JUMPDEST PUSH32 0x537472696E67733A20686578206C656E67746820696E73756666696369656E74 PUSH0 DUP3 ADD MSTORE POP JUMP JUMPDEST PUSH0 PUSH2 0x2B20 PUSH1 0x20 DUP4 PUSH2 0x1C6D JUMP JUMPDEST SWAP2 POP PUSH2 0x2B2B DUP3 PUSH2 0x2AEC JUMP JUMPDEST PUSH1 0x20 DUP3 ADD SWAP1 POP SWAP2 SWAP1 POP JUMP JUMPDEST PUSH0 PUSH1 0x20 DUP3 ADD SWAP1 POP DUP2 DUP2 SUB PUSH0 DUP4 ADD MSTORE PUSH2 0x2B4D DUP2 PUSH2 0x2B14 JUMP JUMPDEST SWAP1 POP SWAP2 SWAP1 POP JUMP INVALID COINBASE TIMESTAMP NUMBER PREVRANDAO GASLIMIT CHAINID SELFBALANCE BASEFEE 0x49 0x4A 0x4B 0x4C 0x4D 0x4E 0x4F POP MLOAD MSTORE MSTORE8 SLOAD SSTORE JUMP JUMPI PC MSIZE GAS PUSH2 0x6263 PUSH5 0x6566676869 PUSH11 0x6B6C6D6E6F707172737475 PUSH23 0x7778797A303132333435363738392B2FA2646970667358 0x22 SLT KECCAK256 0xA9 0xC8 PUSH10 0x5B6B77AC824138A29513 0xD5 0x21 EXTCODESIZE 0xCB DUP5 SGT COINBASE EQ 0xC5 0xEF 0xD 0xF8 0xBE SWAP12 CALLDATALOAD AND BYTE 0xCB DUP15 PUSH5 0x736F6C6343 STOP ADDMOD AND STOP CALLER "
		},
		"gasEstimates": {
			"creation": {
				"codeDepositCost": "2242000",
				"executionCost": "infinite",
				"totalCost": "infinite"
			},
			"external": {
				"commentIds()": "2470",
				"generateBase64(uint256,uint256,string,address)": "infinite",
				"get(string,bytes)": "infinite",
				"getComments(uint256,uint256,uint256)": "infinite",
				"getCommentsByAddress(address,uint256,uint256)": "infinite",
				"getMethodReqAndRes(string)": "infinite",
				"getMethods(uint8)": "infinite",
				"options()": "infinite",
				"post(string,bytes)": "infinite",
				"put(string,bytes)": "infinite"
			},
			"internal": {
				"compareStrings(string memory,string memory)": "infinite",
				"setMethod(string memory,enum IComponent.MethodTypes,enum Types.Type[] memory,enum Types.Type[] memory)": "infinite"
			}
		},
		"methodIdentifiers": {
			"commentIds()": "3e413065",
			"generateBase64(uint256,uint256,string,address)": "1d16b70d",
			"get(string,bytes)": "aff62745",
			"getComments(uint256,uint256,uint256)": "6818ba1d",
			"getCommentsByAddress(address,uint256,uint256)": "44237454",
			"getMethodReqAndRes(string)": "458ad6d4",
			"getMethods(uint8)": "f4856ccb",
			"options()": "1069143a",
			"post(string,bytes)": "b6ae0425",
			"put(string,bytes)": "e9536472"
		}
	},
	"abi": [
		{
			"inputs": [],
			"stateMutability": "nonpayable",
			"type": "constructor"
		},
		{
			"anonymous": false,
			"inputs": [
				{
					"indexed": false,
					"internalType": "bytes",
					"name": "_response",
					"type": "bytes"
				}
			],
			"name": "Response",
			"type": "event"
		},
		{
			"inputs": [],
			"name": "commentIds",
			"outputs": [
				{
					"internalType": "uint256",
					"name": "",
					"type": "uint256"
				}
			],
			"stateMutability": "view",
			"type": "function"
		},
		{
			"inputs": [
				{
					"internalType": "uint256",
					"name": "_vibeId",
					"type": "uint256"
				},
				{
					"internalType": "uint256",
					"name": "_commentId",
					"type": "uint256"
				},
				{
					"internalType": "string",
					"name": "_content",
					"type": "string"
				},
				{
					"internalType": "address",
					"name": "_user",
					"type": "address"
				}
			],
			"name": "generateBase64",
			"outputs": [
				{
					"internalType": "string",
					"name": "",
					"type": "string"
				}
			],
			"stateMutability": "view",
			"type": "function"
		},
		{
			"inputs": [
				{
					"internalType": "string",
					"name": "_methodName",
					"type": "string"
				},
				{
					"internalType": "bytes",
					"name": "_methodReq",
					"type": "bytes"
				}
			],
			"name": "get",
			"outputs": [
				{
					"internalType": "bytes",
					"name": "",
					"type": "bytes"
				}
			],
			"stateMutability": "view",
			"type": "function"
		},
		{
			"inputs": [
				{
					"internalType": "uint256",
					"name": "_vibeId",
					"type": "uint256"
				},
				{
					"internalType": "uint256",
					"name": "_pageNum",
					"type": "uint256"
				},
				{
					"internalType": "uint256",
					"name": "_pageSize",
					"type": "uint256"
				}
			],
			"name": "getComments",
			"outputs": [
				{
					"internalType": "string[]",
					"name": "",
					"type": "string[]"
				}
			],
			"stateMutability": "view",
			"type": "function"
		},
		{
			"inputs": [
				{
					"internalType": "address",
					"name": "_user",
					"type": "address"
				},
				{
					"internalType": "uint256",
					"name": "_pageNum",
					"type": "uint256"
				},
				{
					"internalType": "uint256",
					"name": "_pageSize",
					"type": "uint256"
				}
			],
			"name": "getCommentsByAddress",
			"outputs": [
				{
					"internalType": "string[]",
					"name": "",
					"type": "string[]"
				}
			],
			"stateMutability": "view",
			"type": "function"
		},
		{
			"inputs": [
				{
					"internalType": "string",
					"name": "_methodName",
					"type": "string"
				}
			],
			"name": "getMethodReqAndRes",
			"outputs": [
				{
					"internalType": "enum Types.Type[]",
					"name": "",
					"type": "uint8[]"
				},
				{
					"internalType": "enum Types.Type[]",
					"name": "",
					"type": "uint8[]"
				}
			],
			"stateMutability": "view",
			"type": "function"
		},
		{
			"inputs": [
				{
					"internalType": "enum IComponent.MethodTypes",
					"name": "_methodTypes",
					"type": "uint8"
				}
			],
			"name": "getMethods",
			"outputs": [
				{
					"internalType": "string[]",
					"name": "",
					"type": "string[]"
				}
			],
			"stateMutability": "view",
			"type": "function"
		},
		{
			"inputs": [],
			"name": "options",
			"outputs": [
				{
					"internalType": "enum IComponent.MethodTypes[]",
					"name": "",
					"type": "uint8[]"
				}
			],
			"stateMutability": "pure",
			"type": "function"
		},
		{
			"inputs": [
				{
					"internalType": "string",
					"name": "_methodName",
					"type": "string"
				},
				{
					"internalType": "bytes",
					"name": "_methodReq",
					"type": "bytes"
				}
			],
			"name": "post",
			"outputs": [
				{
					"internalType": "bytes",
					"name": "",
					"type": "bytes"
				}
			],
			"stateMutability": "payable",
			"type": "function"
		},
		{
			"inputs": [
				{
					"internalType": "string",
					"name": "_methodName",
					"type": "string"
				},
				{
					"internalType": "bytes",
					"name": "_methodReq",
					"type": "bytes"
				}
			],
			"name": "put",
			"outputs": [
				{
					"internalType": "bytes",
					"name": "",
					"type": "bytes"
				}
			],
			"stateMutability": "payable",
			"type": "function"
		}
	]
}