{
	"contracts/AmeComponents/Comment/Comment.sol": {
		"VibeComment": {
			"abi": [
				{
					"inputs": [],
					"stateMutability": "nonpayable",
					"type": "constructor"
				},
				{
					"anonymous": false,
					"inputs": [
						{
							"indexed": false,
							"internalType": "bytes",
							"name": "_response",
							"type": "bytes"
						}
					],
					"name": "Response",
					"type": "event"
				},
				{
					"inputs": [],
					"name": "commentIds",
					"outputs": [
						{
							"internalType": "uint256",
							"name": "",
							"type": "uint256"
						}
					],
					"stateMutability": "view",
					"type": "function"
				},
				{
					"inputs": [
						{
							"internalType": "uint256",
							"name": "_vibeId",
							"type": "uint256"
						},
						{
							"internalType": "uint256",
							"name": "_commentId",
							"type": "uint256"
						},
						{
							"internalType": "string",
							"name": "_content",
							"type": "string"
						},
						{
							"internalType": "address",
							"name": "_user",
							"type": "address"
						}
					],
					"name": "generateBase64",
					"outputs": [
						{
							"internalType": "string",
							"name": "",
							"type": "string"
						}
					],
					"stateMutability": "view",
					"type": "function"
				},
				{
					"inputs": [
						{
							"internalType": "string",
							"name": "_methodName",
							"type": "string"
						},
						{
							"internalType": "bytes",
							"name": "_methodReq",
							"type": "bytes"
						}
					],
					"name": "get",
					"outputs": [
						{
							"internalType": "bytes",
							"name": "",
							"type": "bytes"
						}
					],
					"stateMutability": "view",
					"type": "function"
				},
				{
					"inputs": [
						{
							"internalType": "uint256",
							"name": "_vibeId",
							"type": "uint256"
						},
						{
							"internalType": "uint256",
							"name": "_pageNum",
							"type": "uint256"
						},
						{
							"internalType": "uint256",
							"name": "_pageSize",
							"type": "uint256"
						}
					],
					"name": "getComments",
					"outputs": [
						{
							"internalType": "string[]",
							"name": "",
							"type": "string[]"
						}
					],
					"stateMutability": "view",
					"type": "function"
				},
				{
					"inputs": [
						{
							"internalType": "address",
							"name": "_user",
							"type": "address"
						},
						{
							"internalType": "uint256",
							"name": "_pageNum",
							"type": "uint256"
						},
						{
							"internalType": "uint256",
							"name": "_pageSize",
							"type": "uint256"
						}
					],
					"name": "getCommentsByAddress",
					"outputs": [
						{
							"internalType": "string[]",
							"name": "",
							"type": "string[]"
						}
					],
					"stateMutability": "view",
					"type": "function"
				},
				{
					"inputs": [
						{
							"internalType": "string",
							"name": "_methodName",
							"type": "string"
						}
					],
					"name": "getMethodReqAndRes",
					"outputs": [
						{
							"internalType": "enum Types.Type[]",
							"name": "",
							"type": "uint8[]"
						},
						{
							"internalType": "enum Types.Type[]",
							"name": "",
							"type": "uint8[]"
						}
					],
					"stateMutability": "view",
					"type": "function"
				},
				{
					"inputs": [
						{
							"internalType": "enum IComponent.MethodTypes",
							"name": "_methodTypes",
							"type": "uint8"
						}
					],
					"name": "getMethods",
					"outputs": [
						{
							"internalType": "string[]",
							"name": "",
							"type": "string[]"
						}
					],
					"stateMutability": "view",
					"type": "function"
				},
				{
					"inputs": [],
					"name": "options",
					"outputs": [
						{
							"internalType": "enum IComponent.MethodTypes[]",
							"name": "",
							"type": "uint8[]"
						}
					],
					"stateMutability": "pure",
					"type": "function"
				},
				{
					"inputs": [
						{
							"internalType": "string",
							"name": "_methodName",
							"type": "string"
						},
						{
							"internalType": "bytes",
							"name": "_methodReq",
							"type": "bytes"
						}
					],
					"name": "post",
					"outputs": [
						{
							"internalType": "bytes",
							"name": "",
							"type": "bytes"
						}
					],
					"stateMutability": "payable",
					"type": "function"
				},
				{
					"inputs": [
						{
							"internalType": "string",
							"name": "_methodName",
							"type": "string"
						},
						{
							"internalType": "bytes",
							"name": "_methodReq",
							"type": "bytes"
						}
					],
					"name": "put",
					"outputs": [
						{
							"internalType": "bytes",
							"name": "",
							"type": "bytes"
						}
					],
					"stateMutability": "payable",
					"type": "function"
				}
			],
			"devdoc": {
				"events": {
					"Response(bytes)": {
						"params": {
							"_response": "is the response value of the post request or put request."
						}
					}
				},
				"kind": "dev",
				"methods": {
					"get(string,bytes)": {
						"params": {
							"_methodName": "is the method name.",
							"_methodReq": "is the method type."
						},
						"returns": {
							"_0": "The response to the get request."
						}
					},
					"getMethodReqAndRes(string)": {
						"params": {
							"_methodName": "is the method name."
						},
						"returns": {
							"_0": "Data types of request parameters and return parameters."
						}
					},
					"getMethods(uint8)": {
						"params": {
							"_methodTypes": "is the request method type."
						},
						"returns": {
							"_0": "Method names."
						}
					},
					"options()": {
						"returns": {
							"_0": "Method types."
						}
					},
					"post(string,bytes)": {
						"params": {
							"_methodName": "is the method name.",
							"_methodReq": "is the method type."
						},
						"returns": {
							"_0": "The response to the post request."
						}
					},
					"put(string,bytes)": {
						"params": {
							"_methodName": "is the method name.",
							"_methodReq": "is the method type."
						},
						"returns": {
							"_0": "The response to the put request."
						}
					}
				},
				"version": 1
			},
			"evm": {
				"assembly": "    /* \"contracts/AmeComponents/Comment/Comment.sol\":169:9669  contract VibeComment is IComponent {... */\n  mstore(0x40, 0x80)\n    /* \"contracts/AmeComponents/Comment/Comment.sol\":891:2092  constructor() {... */\n  callvalue\n  dup1\n  iszero\n  tag_1\n  jumpi\n  0x00\n  dup1\n  revert\ntag_1:\n  pop\n    /* \"contracts/AmeComponents/Comment/Comment.sol\":915:940  Types.Type[] memory type1 */\n  0x00\n    /* \"contracts/AmeComponents/Comment/Comment.sol\":960:961  2 */\n  0x02\n    /* \"contracts/AmeComponents/Comment/Comment.sol\":943:962  new Types.Type[](2) */\n  0xffffffffffffffff\n  dup2\n  gt\n  iszero\n  tag_4\n  jumpi\n  tag_5\n  tag_6\n  jump\t// in\ntag_5:\ntag_4:\n  mload(0x40)\n  swap1\n  dup1\n  dup3\n  mstore\n  dup1\n  0x20\n  mul\n  0x20\n  add\n  dup3\n  add\n  0x40\n  mstore\n  dup1\n  iszero\n  tag_7\n  jumpi\n  dup2\n  0x20\n  add\n  0x20\n  dup3\n  mul\n  dup1\n  calldatasize\n  dup4\n  calldatacopy\n  dup1\n  dup3\n  add\n  swap2\n  pop\n  pop\n  swap1\n  pop\ntag_7:\n  pop\n    /* \"contracts/AmeComponents/Comment/Comment.sol\":915:962  Types.Type[] memory type1 = new Types.Type[](2) */\n  swap1\n  pop\n    /* \"contracts/AmeComponents/Comment/Comment.sol\":983:1001  Types.Type.UINT256 */\n  0x40\n    /* \"contracts/AmeComponents/Comment/Comment.sol\":972:977  type1 */\n  dup2\n    /* \"contracts/AmeComponents/Comment/Comment.sol\":978:979  0 */\n  0x00\n    /* \"contracts/AmeComponents/Comment/Comment.sol\":972:980  type1[0] */\n  dup2\n  mload\n  dup2\n  lt\n  tag_8\n  jumpi\n  tag_9\n  tag_10\n  jump\t// in\ntag_9:\ntag_8:\n  0x20\n  mul\n  0x20\n  add\n  add\n    /* \"contracts/AmeComponents/Comment/Comment.sol\":972:1001  type1[0] = Types.Type.UINT256 */\n  swap1\n  0xc6\n  dup2\n  gt\n  iszero\n  tag_11\n  jumpi\n  tag_12\n  tag_13\n  jump\t// in\ntag_12:\ntag_11:\n  swap1\n  dup2\n  0xc6\n  dup2\n  gt\n  iszero\n  tag_14\n  jumpi\n  tag_15\n  tag_13\n  jump\t// in\ntag_15:\ntag_14:\n  dup2\n  mstore\n  pop\n  pop\n    /* \"contracts/AmeComponents/Comment/Comment.sol\":1022:1039  Types.Type.STRING */\n  0x63\n    /* \"contracts/AmeComponents/Comment/Comment.sol\":1011:1016  type1 */\n  dup2\n    /* \"contracts/AmeComponents/Comment/Comment.sol\":1017:1018  1 */\n  0x01\n    /* \"contracts/AmeComponents/Comment/Comment.sol\":1011:1019  type1[1] */\n  dup2\n  mload\n  dup2\n  lt\n  tag_16\n  jumpi\n  tag_17\n  tag_10\n  jump\t// in\ntag_17:\ntag_16:\n  0x20\n  mul\n  0x20\n  add\n  add\n    /* \"contracts/AmeComponents/Comment/Comment.sol\":1011:1039  type1[1] = Types.Type.STRING */\n  swap1\n  0xc6\n  dup2\n  gt\n  iszero\n  tag_18\n  jumpi\n  tag_19\n  tag_13\n  jump\t// in\ntag_19:\ntag_18:\n  swap1\n  dup2\n  0xc6\n  dup2\n  gt\n  iszero\n  tag_20\n  jumpi\n  tag_21\n  tag_13\n  jump\t// in\ntag_21:\ntag_20:\n  dup2\n  mstore\n  pop\n  pop\n    /* \"contracts/AmeComponents/Comment/Comment.sol\":1050:1075  Types.Type[] memory type2 */\n  0x00\n    /* \"contracts/AmeComponents/Comment/Comment.sol\":1095:1096  1 */\n  0x01\n    /* \"contracts/AmeComponents/Comment/Comment.sol\":1078:1097  new Types.Type[](1) */\n  0xffffffffffffffff\n  dup2\n  gt\n  iszero\n  tag_22\n  jumpi\n  tag_23\n  tag_6\n  jump\t// in\ntag_23:\ntag_22:\n  mload(0x40)\n  swap1\n  dup1\n  dup3\n  mstore\n  dup1\n  0x20\n  mul\n  0x20\n  add\n  dup3\n  add\n  0x40\n  mstore\n  dup1\n  iszero\n  tag_24\n  jumpi\n  dup2\n  0x20\n  add\n  0x20\n  dup3\n  mul\n  dup1\n  calldatasize\n  dup4\n  calldatacopy\n  dup1\n  dup3\n  add\n  swap2\n  pop\n  pop\n  swap1\n  pop\ntag_24:\n  pop\n    /* \"contracts/AmeComponents/Comment/Comment.sol\":1050:1097  Types.Type[] memory type2 = new Types.Type[](1) */\n  swap1\n  pop\n    /* \"contracts/AmeComponents/Comment/Comment.sol\":1118:1136  Types.Type.UINT256 */\n  0x40\n    /* \"contracts/AmeComponents/Comment/Comment.sol\":1107:1112  type2 */\n  dup2\n    /* \"contracts/AmeComponents/Comment/Comment.sol\":1113:1114  0 */\n  0x00\n    /* \"contracts/AmeComponents/Comment/Comment.sol\":1107:1115  type2[0] */\n  dup2\n  mload\n  dup2\n  lt\n  tag_25\n  jumpi\n  tag_26\n  tag_10\n  jump\t// in\ntag_26:\ntag_25:\n  0x20\n  mul\n  0x20\n  add\n  add\n    /* \"contracts/AmeComponents/Comment/Comment.sol\":1107:1136  type2[0] = Types.Type.UINT256 */\n  swap1\n  0xc6\n  dup2\n  gt\n  iszero\n  tag_27\n  jumpi\n  tag_28\n  tag_13\n  jump\t// in\ntag_28:\ntag_27:\n  swap1\n  dup2\n  0xc6\n  dup2\n  gt\n  iszero\n  tag_29\n  jumpi\n  tag_30\n  tag_13\n  jump\t// in\ntag_30:\ntag_29:\n  dup2\n  mstore\n  pop\n  pop\n    /* \"contracts/AmeComponents/Comment/Comment.sol\":1147:1172  Types.Type[] memory type3 */\n  0x00\n    /* \"contracts/AmeComponents/Comment/Comment.sol\":1192:1193  4 */\n  0x04\n    /* \"contracts/AmeComponents/Comment/Comment.sol\":1175:1194  new Types.Type[](4) */\n  0xffffffffffffffff\n  dup2\n  gt\n  iszero\n  tag_31\n  jumpi\n  tag_32\n  tag_6\n  jump\t// in\ntag_32:\ntag_31:\n  mload(0x40)\n  swap1\n  dup1\n  dup3\n  mstore\n  dup1\n  0x20\n  mul\n  0x20\n  add\n  dup3\n  add\n  0x40\n  mstore\n  dup1\n  iszero\n  tag_33\n  jumpi\n  dup2\n  0x20\n  add\n  0x20\n  dup3\n  mul\n  dup1\n  calldatasize\n  dup4\n  calldatacopy\n  dup1\n  dup3\n  add\n  swap2\n  pop\n  pop\n  swap1\n  pop\ntag_33:\n  pop\n    /* \"contracts/AmeComponents/Comment/Comment.sol\":1147:1194  Types.Type[] memory type3 = new Types.Type[](4) */\n  swap1\n  pop\n    /* \"contracts/AmeComponents/Comment/Comment.sol\":1215:1233  Types.Type.UINT256 */\n  0x40\n    /* \"contracts/AmeComponents/Comment/Comment.sol\":1204:1209  type3 */\n  dup2\n    /* \"contracts/AmeComponents/Comment/Comment.sol\":1210:1211  0 */\n  0x00\n    /* \"contracts/AmeComponents/Comment/Comment.sol\":1204:1212  type3[0] */\n  dup2\n  mload\n  dup2\n  lt\n  tag_34\n  jumpi\n  tag_35\n  tag_10\n  jump\t// in\ntag_35:\ntag_34:\n  0x20\n  mul\n  0x20\n  add\n  add\n    /* \"contracts/AmeComponents/Comment/Comment.sol\":1204:1233  type3[0] = Types.Type.UINT256 */\n  swap1\n  0xc6\n  dup2\n  gt\n  iszero\n  tag_36\n  jumpi\n  tag_37\n  tag_13\n  jump\t// in\ntag_37:\ntag_36:\n  swap1\n  dup2\n  0xc6\n  dup2\n  gt\n  iszero\n  tag_38\n  jumpi\n  tag_39\n  tag_13\n  jump\t// in\ntag_39:\ntag_38:\n  dup2\n  mstore\n  pop\n  pop\n    /* \"contracts/AmeComponents/Comment/Comment.sol\":1254:1272  Types.Type.UINT256 */\n  0x40\n    /* \"contracts/AmeComponents/Comment/Comment.sol\":1243:1248  type3 */\n  dup2\n    /* \"contracts/AmeComponents/Comment/Comment.sol\":1249:1250  1 */\n  0x01\n    /* \"contracts/AmeComponents/Comment/Comment.sol\":1243:1251  type3[1] */\n  dup2\n  mload\n  dup2\n  lt\n  tag_40\n  jumpi\n  tag_41\n  tag_10\n  jump\t// in\ntag_41:\ntag_40:\n  0x20\n  mul\n  0x20\n  add\n  add\n    /* \"contracts/AmeComponents/Comment/Comment.sol\":1243:1272  type3[1] = Types.Type.UINT256 */\n  swap1\n  0xc6\n  dup2\n  gt\n  iszero\n  tag_42\n  jumpi\n  tag_43\n  tag_13\n  jump\t// in\ntag_43:\ntag_42:\n  swap1\n  dup2\n  0xc6\n  dup2\n  gt\n  iszero\n  tag_44\n  jumpi\n  tag_45\n  tag_13\n  jump\t// in\ntag_45:\ntag_44:\n  dup2\n  mstore\n  pop\n  pop\n    /* \"contracts/AmeComponents/Comment/Comment.sol\":1293:1310  Types.Type.STRING */\n  0x63\n    /* \"contracts/AmeComponents/Comment/Comment.sol\":1282:1287  type3 */\n  dup2\n    /* \"contracts/AmeComponents/Comment/Comment.sol\":1288:1289  2 */\n  0x02\n    /* \"contracts/AmeComponents/Comment/Comment.sol\":1282:1290  type3[2] */\n  dup2\n  mload\n  dup2\n  lt\n  tag_46\n  jumpi\n  tag_47\n  tag_10\n  jump\t// in\ntag_47:\ntag_46:\n  0x20\n  mul\n  0x20\n  add\n  add\n    /* \"contracts/AmeComponents/Comment/Comment.sol\":1282:1310  type3[2] = Types.Type.STRING */\n  swap1\n  0xc6\n  dup2\n  gt\n  iszero\n  tag_48\n  jumpi\n  tag_49\n  tag_13\n  jump\t// in\ntag_49:\ntag_48:\n  swap1\n  dup2\n  0xc6\n  dup2\n  gt\n  iszero\n  tag_50\n  jumpi\n  tag_51\n  tag_13\n  jump\t// in\ntag_51:\ntag_50:\n  dup2\n  mstore\n  pop\n  pop\n    /* \"contracts/AmeComponents/Comment/Comment.sol\":1331:1349  Types.Type.ADDRESS */\n  0x41\n    /* \"contracts/AmeComponents/Comment/Comment.sol\":1320:1325  type3 */\n  dup2\n    /* \"contracts/AmeComponents/Comment/Comment.sol\":1326:1327  3 */\n  0x03\n    /* \"contracts/AmeComponents/Comment/Comment.sol\":1320:1328  type3[3] */\n  dup2\n  mload\n  dup2\n  lt\n  tag_52\n  jumpi\n  tag_53\n  tag_10\n  jump\t// in\ntag_53:\ntag_52:\n  0x20\n  mul\n  0x20\n  add\n  add\n    /* \"contracts/AmeComponents/Comment/Comment.sol\":1320:1349  type3[3] = Types.Type.ADDRESS */\n  swap1\n  0xc6\n  dup2\n  gt\n  iszero\n  tag_54\n  jumpi\n  tag_55\n  tag_13\n  jump\t// in\ntag_55:\ntag_54:\n  swap1\n  dup2\n  0xc6\n  dup2\n  gt\n  iszero\n  tag_56\n  jumpi\n  tag_57\n  tag_13\n  jump\t// in\ntag_57:\ntag_56:\n  dup2\n  mstore\n  pop\n  pop\n    /* \"contracts/AmeComponents/Comment/Comment.sol\":1360:1385  Types.Type[] memory type4 */\n  0x00\n    /* \"contracts/AmeComponents/Comment/Comment.sol\":1405:1406  3 */\n  0x03\n    /* \"contracts/AmeComponents/Comment/Comment.sol\":1388:1407  new Types.Type[](3) */\n  0xffffffffffffffff\n  dup2\n  gt\n  iszero\n  tag_58\n  jumpi\n  tag_59\n  tag_6\n  jump\t// in\ntag_59:\ntag_58:\n  mload(0x40)\n  swap1\n  dup1\n  dup3\n  mstore\n  dup1\n  0x20\n  mul\n  0x20\n  add\n  dup3\n  add\n  0x40\n  mstore\n  dup1\n  iszero\n  tag_60\n  jumpi\n  dup2\n  0x20\n  add\n  0x20\n  dup3\n  mul\n  dup1\n  calldatasize\n  dup4\n  calldatacopy\n  dup1\n  dup3\n  add\n  swap2\n  pop\n  pop\n  swap1\n  pop\ntag_60:\n  pop\n    /* \"contracts/AmeComponents/Comment/Comment.sol\":1360:1407  Types.Type[] memory type4 = new Types.Type[](3) */\n  swap1\n  pop\n    /* \"contracts/AmeComponents/Comment/Comment.sol\":1428:1446  Types.Type.UINT256 */\n  0x40\n    /* \"contracts/AmeComponents/Comment/Comment.sol\":1417:1422  type4 */\n  dup2\n    /* \"contracts/AmeComponents/Comment/Comment.sol\":1423:1424  0 */\n  0x00\n    /* \"contracts/AmeComponents/Comment/Comment.sol\":1417:1425  type4[0] */\n  dup2\n  mload\n  dup2\n  lt\n  tag_61\n  jumpi\n  tag_62\n  tag_10\n  jump\t// in\ntag_62:\ntag_61:\n  0x20\n  mul\n  0x20\n  add\n  add\n    /* \"contracts/AmeComponents/Comment/Comment.sol\":1417:1446  type4[0] = Types.Type.UINT256 */\n  swap1\n  0xc6\n  dup2\n  gt\n  iszero\n  tag_63\n  jumpi\n  tag_64\n  tag_13\n  jump\t// in\ntag_64:\ntag_63:\n  swap1\n  dup2\n  0xc6\n  dup2\n  gt\n  iszero\n  tag_65\n  jumpi\n  tag_66\n  tag_13\n  jump\t// in\ntag_66:\ntag_65:\n  dup2\n  mstore\n  pop\n  pop\n    /* \"contracts/AmeComponents/Comment/Comment.sol\":1467:1485  Types.Type.UINT256 */\n  0x40\n    /* \"contracts/AmeComponents/Comment/Comment.sol\":1456:1461  type4 */\n  dup2\n    /* \"contracts/AmeComponents/Comment/Comment.sol\":1462:1463  1 */\n  0x01\n    /* \"contracts/AmeComponents/Comment/Comment.sol\":1456:1464  type4[1] */\n  dup2\n  mload\n  dup2\n  lt\n  tag_67\n  jumpi\n  tag_68\n  tag_10\n  jump\t// in\ntag_68:\ntag_67:\n  0x20\n  mul\n  0x20\n  add\n  add\n    /* \"contracts/AmeComponents/Comment/Comment.sol\":1456:1485  type4[1] = Types.Type.UINT256 */\n  swap1\n  0xc6\n  dup2\n  gt\n  iszero\n  tag_69\n  jumpi\n  tag_70\n  tag_13\n  jump\t// in\ntag_70:\ntag_69:\n  swap1\n  dup2\n  0xc6\n  dup2\n  gt\n  iszero\n  tag_71\n  jumpi\n  tag_72\n  tag_13\n  jump\t// in\ntag_72:\ntag_71:\n  dup2\n  mstore\n  pop\n  pop\n    /* \"contracts/AmeComponents/Comment/Comment.sol\":1506:1524  Types.Type.UINT256 */\n  0x40\n    /* \"contracts/AmeComponents/Comment/Comment.sol\":1495:1500  type4 */\n  dup2\n    /* \"contracts/AmeComponents/Comment/Comment.sol\":1501:1502  2 */\n  0x02\n    /* \"contracts/AmeComponents/Comment/Comment.sol\":1495:1503  type4[2] */\n  dup2\n  mload\n  dup2\n  lt\n  tag_73\n  jumpi\n  tag_74\n  tag_10\n  jump\t// in\ntag_74:\ntag_73:\n  0x20\n  mul\n  0x20\n  add\n  add\n    /* \"contracts/AmeComponents/Comment/Comment.sol\":1495:1524  type4[2] = Types.Type.UINT256 */\n  swap1\n  0xc6\n  dup2\n  gt\n  iszero\n  tag_75\n  jumpi\n  tag_76\n  tag_13\n  jump\t// in\ntag_76:\ntag_75:\n  swap1\n  dup2\n  0xc6\n  dup2\n  gt\n  iszero\n  tag_77\n  jumpi\n  tag_78\n  tag_13\n  jump\t// in\ntag_78:\ntag_77:\n  dup2\n  mstore\n  pop\n  pop\n    /* \"contracts/AmeComponents/Comment/Comment.sol\":1535:1560  Types.Type[] memory type5 */\n  0x00\n    /* \"contracts/AmeComponents/Comment/Comment.sol\":1580:1581  1 */\n  0x01\n    /* \"contracts/AmeComponents/Comment/Comment.sol\":1563:1582  new Types.Type[](1) */\n  0xffffffffffffffff\n  dup2\n  gt\n  iszero\n  tag_79\n  jumpi\n  tag_80\n  tag_6\n  jump\t// in\ntag_80:\ntag_79:\n  mload(0x40)\n  swap1\n  dup1\n  dup3\n  mstore\n  dup1\n  0x20\n  mul\n  0x20\n  add\n  dup3\n  add\n  0x40\n  mstore\n  dup1\n  iszero\n  tag_81\n  jumpi\n  dup2\n  0x20\n  add\n  0x20\n  dup3\n  mul\n  dup1\n  calldatasize\n  dup4\n  calldatacopy\n  dup1\n  dup3\n  add\n  swap2\n  pop\n  pop\n  swap1\n  pop\ntag_81:\n  pop\n    /* \"contracts/AmeComponents/Comment/Comment.sol\":1535:1582  Types.Type[] memory type5 = new Types.Type[](1) */\n  swap1\n  pop\n    /* \"contracts/AmeComponents/Comment/Comment.sol\":1603:1626  Types.Type.STRING_ARRAY */\n  0xc6\n    /* \"contracts/AmeComponents/Comment/Comment.sol\":1592:1597  type5 */\n  dup2\n    /* \"contracts/AmeComponents/Comment/Comment.sol\":1598:1599  0 */\n  0x00\n    /* \"contracts/AmeComponents/Comment/Comment.sol\":1592:1600  type5[0] */\n  dup2\n  mload\n  dup2\n  lt\n  tag_82\n  jumpi\n  tag_83\n  tag_10\n  jump\t// in\ntag_83:\ntag_82:\n  0x20\n  mul\n  0x20\n  add\n  add\n    /* \"contracts/AmeComponents/Comment/Comment.sol\":1592:1626  type5[0] = Types.Type.STRING_ARRAY */\n  swap1\n  0xc6\n  dup2\n  gt\n  iszero\n  tag_84\n  jumpi\n  tag_85\n  tag_13\n  jump\t// in\ntag_85:\ntag_84:\n  swap1\n  dup2\n  0xc6\n  dup2\n  gt\n  iszero\n  tag_86\n  jumpi\n  tag_87\n  tag_13\n  jump\t// in\ntag_87:\ntag_86:\n  dup2\n  mstore\n  pop\n  pop\n    /* \"contracts/AmeComponents/Comment/Comment.sol\":1637:1662  Types.Type[] memory type6 */\n  0x00\n    /* \"contracts/AmeComponents/Comment/Comment.sol\":1682:1683  3 */\n  0x03\n    /* \"contracts/AmeComponents/Comment/Comment.sol\":1665:1684  new Types.Type[](3) */\n  0xffffffffffffffff\n  dup2\n  gt\n  iszero\n  tag_88\n  jumpi\n  tag_89\n  tag_6\n  jump\t// in\ntag_89:\ntag_88:\n  mload(0x40)\n  swap1\n  dup1\n  dup3\n  mstore\n  dup1\n  0x20\n  mul\n  0x20\n  add\n  dup3\n  add\n  0x40\n  mstore\n  dup1\n  iszero\n  tag_90\n  jumpi\n  dup2\n  0x20\n  add\n  0x20\n  dup3\n  mul\n  dup1\n  calldatasize\n  dup4\n  calldatacopy\n  dup1\n  dup3\n  add\n  swap2\n  pop\n  pop\n  swap1\n  pop\ntag_90:\n  pop\n    /* \"contracts/AmeComponents/Comment/Comment.sol\":1637:1684  Types.Type[] memory type6 = new Types.Type[](3) */\n  swap1\n  pop\n    /* \"contracts/AmeComponents/Comment/Comment.sol\":1705:1723  Types.Type.ADDRESS */\n  0x41\n    /* \"contracts/AmeComponents/Comment/Comment.sol\":1694:1699  type6 */\n  dup2\n    /* \"contracts/AmeComponents/Comment/Comment.sol\":1700:1701  0 */\n  0x00\n    /* \"contracts/AmeComponents/Comment/Comment.sol\":1694:1702  type6[0] */\n  dup2\n  mload\n  dup2\n  lt\n  tag_91\n  jumpi\n  tag_92\n  tag_10\n  jump\t// in\ntag_92:\ntag_91:\n  0x20\n  mul\n  0x20\n  add\n  add\n    /* \"contracts/AmeComponents/Comment/Comment.sol\":1694:1723  type6[0] = Types.Type.ADDRESS */\n  swap1\n  0xc6\n  dup2\n  gt\n  iszero\n  tag_93\n  jumpi\n  tag_94\n  tag_13\n  jump\t// in\ntag_94:\ntag_93:\n  swap1\n  dup2\n  0xc6\n  dup2\n  gt\n  iszero\n  tag_95\n  jumpi\n  tag_96\n  tag_13\n  jump\t// in\ntag_96:\ntag_95:\n  dup2\n  mstore\n  pop\n  pop\n    /* \"contracts/AmeComponents/Comment/Comment.sol\":1744:1762  Types.Type.UINT256 */\n  0x40\n    /* \"contracts/AmeComponents/Comment/Comment.sol\":1733:1738  type6 */\n  dup2\n    /* \"contracts/AmeComponents/Comment/Comment.sol\":1739:1740  1 */\n  0x01\n    /* \"contracts/AmeComponents/Comment/Comment.sol\":1733:1741  type6[1] */\n  dup2\n  mload\n  dup2\n  lt\n  tag_97\n  jumpi\n  tag_98\n  tag_10\n  jump\t// in\ntag_98:\ntag_97:\n  0x20\n  mul\n  0x20\n  add\n  add\n    /* \"contracts/AmeComponents/Comment/Comment.sol\":1733:1762  type6[1] = Types.Type.UINT256 */\n  swap1\n  0xc6\n  dup2\n  gt\n  iszero\n  tag_99\n  jumpi\n  tag_100\n  tag_13\n  jump\t// in\ntag_100:\ntag_99:\n  swap1\n  dup2\n  0xc6\n  dup2\n  gt\n  iszero\n  tag_101\n  jumpi\n  tag_102\n  tag_13\n  jump\t// in\ntag_102:\ntag_101:\n  dup2\n  mstore\n  pop\n  pop\n    /* \"contracts/AmeComponents/Comment/Comment.sol\":1783:1801  Types.Type.UINT256 */\n  0x40\n    /* \"contracts/AmeComponents/Comment/Comment.sol\":1772:1777  type6 */\n  dup2\n    /* \"contracts/AmeComponents/Comment/Comment.sol\":1778:1779  2 */\n  0x02\n    /* \"contracts/AmeComponents/Comment/Comment.sol\":1772:1780  type6[2] */\n  dup2\n  mload\n  dup2\n  lt\n  tag_103\n  jumpi\n  tag_104\n  tag_10\n  jump\t// in\ntag_104:\ntag_103:\n  0x20\n  mul\n  0x20\n  add\n  add\n    /* \"contracts/AmeComponents/Comment/Comment.sol\":1772:1801  type6[2] = Types.Type.UINT256 */\n  swap1\n  0xc6\n  dup2\n  gt\n  iszero\n  tag_105\n  jumpi\n  tag_106\n  tag_13\n  jump\t// in\ntag_106:\ntag_105:\n  swap1\n  dup2\n  0xc6\n  dup2\n  gt\n  iszero\n  tag_107\n  jumpi\n  tag_108\n  tag_13\n  jump\t// in\ntag_108:\ntag_107:\n  dup2\n  mstore\n  pop\n  pop\n    /* \"contracts/AmeComponents/Comment/Comment.sol\":1812:1882  setMethod(\"postComment\", MethodTypes.POST, type1, new Types.Type[](0)) */\n  tag_109\n  mload(0x40)\n  dup1\n  0x40\n  add\n  0x40\n  mstore\n  dup1\n  0x0b\n  dup2\n  mstore\n  0x20\n  add\n  0x706f7374436f6d6d656e74000000000000000000000000000000000000000000\n  dup2\n  mstore\n  pop\n    /* \"contracts/AmeComponents/Comment/Comment.sol\":1837:1853  MethodTypes.POST */\n  0x01\n    /* \"contracts/AmeComponents/Comment/Comment.sol\":1855:1860  type1 */\n  dup9\n    /* \"contracts/AmeComponents/Comment/Comment.sol\":1879:1880  0 */\n  0x00\n    /* \"contracts/AmeComponents/Comment/Comment.sol\":1862:1881  new Types.Type[](0) */\n  0xffffffffffffffff\n  dup2\n  gt\n  iszero\n  tag_110\n  jumpi\n  tag_111\n  tag_6\n  jump\t// in\ntag_111:\ntag_110:\n  mload(0x40)\n  swap1\n  dup1\n  dup3\n  mstore\n  dup1\n  0x20\n  mul\n  0x20\n  add\n  dup3\n  add\n  0x40\n  mstore\n  dup1\n  iszero\n  tag_112\n  jumpi\n  dup2\n  0x20\n  add\n  0x20\n  dup3\n  mul\n  dup1\n  calldatasize\n  dup4\n  calldatacopy\n  dup1\n  dup3\n  add\n  swap2\n  pop\n  pop\n  swap1\n  pop\ntag_112:\n  pop\n    /* \"contracts/AmeComponents/Comment/Comment.sol\":1812:1821  setMethod */\n  shl(0x20, tag_113)\n    /* \"contracts/AmeComponents/Comment/Comment.sol\":1812:1882  setMethod(\"postComment\", MethodTypes.POST, type1, new Types.Type[](0)) */\n  0x20\n  shr\n  jump\t// in\ntag_109:\n    /* \"contracts/AmeComponents/Comment/Comment.sol\":1892:1946  setMethod(\"getComment\", MethodTypes.GET, type2, type3) */\n  tag_114\n  mload(0x40)\n  dup1\n  0x40\n  add\n  0x40\n  mstore\n  dup1\n  0x0a\n  dup2\n  mstore\n  0x20\n  add\n  0x676574436f6d6d656e7400000000000000000000000000000000000000000000\n  dup2\n  mstore\n  pop\n    /* \"contracts/AmeComponents/Comment/Comment.sol\":1916:1931  MethodTypes.GET */\n  0x00\n    /* \"contracts/AmeComponents/Comment/Comment.sol\":1933:1938  type2 */\n  dup8\n    /* \"contracts/AmeComponents/Comment/Comment.sol\":1940:1945  type3 */\n  dup8\n    /* \"contracts/AmeComponents/Comment/Comment.sol\":1892:1901  setMethod */\n  shl(0x20, tag_113)\n    /* \"contracts/AmeComponents/Comment/Comment.sol\":1892:1946  setMethod(\"getComment\", MethodTypes.GET, type2, type3) */\n  0x20\n  shr\n  jump\t// in\ntag_114:\n    /* \"contracts/AmeComponents/Comment/Comment.sol\":1956:2011  setMethod(\"getComments\", MethodTypes.GET, type4, type5) */\n  tag_115\n  mload(0x40)\n  dup1\n  0x40\n  add\n  0x40\n  mstore\n  dup1\n  0x0b\n  dup2\n  mstore\n  0x20\n  add\n  0x676574436f6d6d656e7473000000000000000000000000000000000000000000\n  dup2\n  mstore\n  pop\n    /* \"contracts/AmeComponents/Comment/Comment.sol\":1981:1996  MethodTypes.GET */\n  0x00\n    /* \"contracts/AmeComponents/Comment/Comment.sol\":1998:2003  type4 */\n  dup6\n    /* \"contracts/AmeComponents/Comment/Comment.sol\":2005:2010  type5 */\n  dup6\n    /* \"contracts/AmeComponents/Comment/Comment.sol\":1956:1965  setMethod */\n  shl(0x20, tag_113)\n    /* \"contracts/AmeComponents/Comment/Comment.sol\":1956:2011  setMethod(\"getComments\", MethodTypes.GET, type4, type5) */\n  0x20\n  shr\n  jump\t// in\ntag_115:\n    /* \"contracts/AmeComponents/Comment/Comment.sol\":2021:2085  setMethod(\"getCommentsByAddress\", MethodTypes.GET, type6, type5) */\n  tag_116\n  mload(0x40)\n  dup1\n  0x40\n  add\n  0x40\n  mstore\n  dup1\n  0x14\n  dup2\n  mstore\n  0x20\n  add\n  0x676574436f6d6d656e7473427941646472657373000000000000000000000000\n  dup2\n  mstore\n  pop\n    /* \"contracts/AmeComponents/Comment/Comment.sol\":2055:2070  MethodTypes.GET */\n  0x00\n    /* \"contracts/AmeComponents/Comment/Comment.sol\":2072:2077  type6 */\n  dup4\n    /* \"contracts/AmeComponents/Comment/Comment.sol\":2079:2084  type5 */\n  dup6\n    /* \"contracts/AmeComponents/Comment/Comment.sol\":2021:2030  setMethod */\n  shl(0x20, tag_113)\n    /* \"contracts/AmeComponents/Comment/Comment.sol\":2021:2085  setMethod(\"getCommentsByAddress\", MethodTypes.GET, type6, type5) */\n  0x20\n  shr\n  jump\t// in\ntag_116:\n    /* \"contracts/AmeComponents/Comment/Comment.sol\":905:2092  {... */\n  pop\n  pop\n  pop\n  pop\n  pop\n  pop\n    /* \"contracts/AmeComponents/Comment/Comment.sol\":169:9669  contract VibeComment is IComponent {... */\n  jump(tag_117)\n    /* \"contracts/AmeComponents/Comment/Comment.sol\":5152:5489  function setMethod(... */\ntag_113:\n    /* \"contracts/AmeComponents/Comment/Comment.sol\":5343:5350  methods */\n  0x00\n    /* \"contracts/AmeComponents/Comment/Comment.sol\":5343:5363  methods[_methodType] */\n  dup1\n    /* \"contracts/AmeComponents/Comment/Comment.sol\":5351:5362  _methodType */\n  dup5\n    /* \"contracts/AmeComponents/Comment/Comment.sol\":5343:5363  methods[_methodType] */\n  0x03\n  dup2\n  gt\n  iszero\n  tag_119\n  jumpi\n  tag_120\n  tag_13\n  jump\t// in\ntag_120:\ntag_119:\n  0x03\n  dup2\n  gt\n  iszero\n  tag_121\n  jumpi\n  tag_122\n  tag_13\n  jump\t// in\ntag_122:\ntag_121:\n  dup2\n  mstore\n  0x20\n  add\n  swap1\n  dup2\n  mstore\n  0x20\n  add\n  0x00\n  keccak256\n    /* \"contracts/AmeComponents/Comment/Comment.sol\":5369:5380  _methodName */\n  dup5\n    /* \"contracts/AmeComponents/Comment/Comment.sol\":5343:5381  methods[_methodType].push(_methodName) */\n  swap1\n  dup1\n  0x01\n  dup2\n  sload\n  add\n  dup1\n  dup3\n  sstore\n  dup1\n  swap2\n  pop\n  pop\n  0x01\n  swap1\n  sub\n  swap1\n  0x00\n  mstore\n  keccak256(0x00, 0x20)\n  add\n  0x00\n  swap1\n  swap2\n  swap1\n  swap2\n  swap1\n  swap2\n  pop\n  swap1\n  dup2\n  tag_124\n  swap2\n  swap1\n  tag_125\n  jump\t// in\ntag_124:\n  pop\n    /* \"contracts/AmeComponents/Comment/Comment.sol\":5421:5431  _methodReq */\n  dup2\n    /* \"contracts/AmeComponents/Comment/Comment.sol\":5391:5405  methodRequests */\n  0x01\n    /* \"contracts/AmeComponents/Comment/Comment.sol\":5406:5417  _methodName */\n  dup6\n    /* \"contracts/AmeComponents/Comment/Comment.sol\":5391:5418  methodRequests[_methodName] */\n  mload(0x40)\n  tag_126\n  swap2\n  swap1\n  tag_127\n  jump\t// in\ntag_126:\n  swap1\n  dup2\n  mstore\n  0x20\n  add\n  mload(0x40)\n  dup1\n  swap2\n  sub\n  swap1\n  keccak256\n    /* \"contracts/AmeComponents/Comment/Comment.sol\":5391:5431  methodRequests[_methodName] = _methodReq */\n  swap1\n  dup1\n  mload\n  swap1\n  0x20\n  add\n  swap1\n  tag_128\n  swap3\n  swap2\n  swap1\n  tag_129\n  jump\t// in\ntag_128:\n  pop\n    /* \"contracts/AmeComponents/Comment/Comment.sol\":5472:5482  _methodRes */\n  dup1\n    /* \"contracts/AmeComponents/Comment/Comment.sol\":5441:5456  methodResponses */\n  0x02\n    /* \"contracts/AmeComponents/Comment/Comment.sol\":5457:5468  _methodName */\n  dup6\n    /* \"contracts/AmeComponents/Comment/Comment.sol\":5441:5469  methodResponses[_methodName] */\n  mload(0x40)\n  tag_130\n  swap2\n  swap1\n  tag_127\n  jump\t// in\ntag_130:\n  swap1\n  dup2\n  mstore\n  0x20\n  add\n  mload(0x40)\n  dup1\n  swap2\n  sub\n  swap1\n  keccak256\n    /* \"contracts/AmeComponents/Comment/Comment.sol\":5441:5482  methodResponses[_methodName] = _methodRes */\n  swap1\n  dup1\n  mload\n  swap1\n  0x20\n  add\n  swap1\n  tag_131\n  swap3\n  swap2\n  swap1\n  tag_129\n  jump\t// in\ntag_131:\n  pop\n    /* \"contracts/AmeComponents/Comment/Comment.sol\":5152:5489  function setMethod(... */\n  pop\n  pop\n  pop\n  pop\n  jump\t// out\n    /* \"contracts/AmeComponents/Comment/Comment.sol\":169:9669  contract VibeComment is IComponent {... */\ntag_129:\n  dup3\n  dup1\n  sload\n  dup3\n  dup3\n  sstore\n  swap1\n  0x00\n  mstore\n  keccak256(0x00, 0x20)\n  swap1\n  0x1f\n  add\n  0x20\n  swap1\n  div\n  dup2\n  add\n  swap3\n  dup3\n  iszero\n  tag_132\n  jumpi\n  swap2\n  0x20\n  mul\n  dup3\n  add\n  0x00\ntag_133:\n  dup4\n  dup3\n  gt\n  iszero\n  tag_134\n  jumpi\n  dup4\n  mload\n  dup4\n  dup3\n  0x0100\n  exp\n  dup2\n  sload\n  dup2\n  0xff\n  mul\n  not\n  and\n  swap1\n  dup4\n  0xc6\n  dup2\n  gt\n  iszero\n  tag_135\n  jumpi\n  tag_136\n  tag_13\n  jump\t// in\ntag_136:\ntag_135:\n  mul\n  or\n  swap1\n  sstore\n  pop\n  swap3\n  0x20\n  add\n  swap3\n  0x01\n  add\n  0x20\n  dup2\n  0x00\n  add\n  div\n  swap3\n  dup4\n  add\n  swap3\n  0x01\n  sub\n  mul\n  jump(tag_133)\ntag_134:\n  dup1\n  iszero\n  tag_137\n  jumpi\n  dup3\n  dup2\n  0x0100\n  exp\n  dup2\n  sload\n  swap1\n  0xff\n  mul\n  not\n  and\n  swap1\n  sstore\n  0x01\n  add\n  0x20\n  dup2\n  0x00\n  add\n  div\n  swap3\n  dup4\n  add\n  swap3\n  0x01\n  sub\n  mul\n  jump(tag_134)\ntag_137:\n  pop\ntag_132:\n  pop\n  swap1\n  pop\n  tag_138\n  swap2\n  swap1\n  tag_139\n  jump\t// in\ntag_138:\n  pop\n  swap1\n  jump\t// out\ntag_139:\ntag_140:\n  dup1\n  dup3\n  gt\n  iszero\n  tag_141\n  jumpi\n  0x00\n  dup2\n  0x00\n  swap1\n  sstore\n  pop\n  0x01\n  add\n  jump(tag_140)\ntag_141:\n  pop\n  swap1\n  jump\t// out\n    /* \"#utility.yul\":7:187   */\ntag_6:\n    /* \"#utility.yul\":55:132   */\n  0x4e487b7100000000000000000000000000000000000000000000000000000000\n    /* \"#utility.yul\":52:53   */\n  0x00\n    /* \"#utility.yul\":45:133   */\n  mstore\n    /* \"#utility.yul\":152:156   */\n  0x41\n    /* \"#utility.yul\":149:150   */\n  0x04\n    /* \"#utility.yul\":142:157   */\n  mstore\n    /* \"#utility.yul\":176:180   */\n  0x24\n    /* \"#utility.yul\":173:174   */\n  0x00\n    /* \"#utility.yul\":166:181   */\n  revert\n    /* \"#utility.yul\":193:373   */\ntag_10:\n    /* \"#utility.yul\":241:318   */\n  0x4e487b7100000000000000000000000000000000000000000000000000000000\n    /* \"#utility.yul\":238:239   */\n  0x00\n    /* \"#utility.yul\":231:319   */\n  mstore\n    /* \"#utility.yul\":338:342   */\n  0x32\n    /* \"#utility.yul\":335:336   */\n  0x04\n    /* \"#utility.yul\":328:343   */\n  mstore\n    /* \"#utility.yul\":362:366   */\n  0x24\n    /* \"#utility.yul\":359:360   */\n  0x00\n    /* \"#utility.yul\":352:367   */\n  revert\n    /* \"#utility.yul\":379:559   */\ntag_13:\n    /* \"#utility.yul\":427:504   */\n  0x4e487b7100000000000000000000000000000000000000000000000000000000\n    /* \"#utility.yul\":424:425   */\n  0x00\n    /* \"#utility.yul\":417:505   */\n  mstore\n    /* \"#utility.yul\":524:528   */\n  0x21\n    /* \"#utility.yul\":521:522   */\n  0x04\n    /* \"#utility.yul\":514:529   */\n  mstore\n    /* \"#utility.yul\":548:552   */\n  0x24\n    /* \"#utility.yul\":545:546   */\n  0x00\n    /* \"#utility.yul\":538:553   */\n  revert\n    /* \"#utility.yul\":565:664   */\ntag_142:\n    /* \"#utility.yul\":617:623   */\n  0x00\n    /* \"#utility.yul\":651:656   */\n  dup2\n    /* \"#utility.yul\":645:657   */\n  mload\n    /* \"#utility.yul\":635:657   */\n  swap1\n  pop\n    /* \"#utility.yul\":565:664   */\n  swap2\n  swap1\n  pop\n  jump\t// out\n    /* \"#utility.yul\":670:850   */\ntag_143:\n    /* \"#utility.yul\":718:795   */\n  0x4e487b7100000000000000000000000000000000000000000000000000000000\n    /* \"#utility.yul\":715:716   */\n  0x00\n    /* \"#utility.yul\":708:796   */\n  mstore\n    /* \"#utility.yul\":815:819   */\n  0x22\n    /* \"#utility.yul\":812:813   */\n  0x04\n    /* \"#utility.yul\":805:820   */\n  mstore\n    /* \"#utility.yul\":839:843   */\n  0x24\n    /* \"#utility.yul\":836:837   */\n  0x00\n    /* \"#utility.yul\":829:844   */\n  revert\n    /* \"#utility.yul\":856:1176   */\ntag_144:\n    /* \"#utility.yul\":900:906   */\n  0x00\n    /* \"#utility.yul\":937:938   */\n  0x02\n    /* \"#utility.yul\":931:935   */\n  dup3\n    /* \"#utility.yul\":927:939   */\n  div\n    /* \"#utility.yul\":917:939   */\n  swap1\n  pop\n    /* \"#utility.yul\":984:985   */\n  0x01\n    /* \"#utility.yul\":978:982   */\n  dup3\n    /* \"#utility.yul\":974:986   */\n  and\n    /* \"#utility.yul\":1005:1023   */\n  dup1\n    /* \"#utility.yul\":995:1076   */\n  tag_171\n  jumpi\n    /* \"#utility.yul\":1061:1065   */\n  0x7f\n    /* \"#utility.yul\":1053:1059   */\n  dup3\n    /* \"#utility.yul\":1049:1066   */\n  and\n    /* \"#utility.yul\":1039:1066   */\n  swap2\n  pop\n    /* \"#utility.yul\":995:1076   */\ntag_171:\n    /* \"#utility.yul\":1123:1125   */\n  0x20\n    /* \"#utility.yul\":1115:1121   */\n  dup3\n    /* \"#utility.yul\":1112:1126   */\n  lt\n    /* \"#utility.yul\":1092:1110   */\n  dup2\n    /* \"#utility.yul\":1089:1127   */\n  sub\n    /* \"#utility.yul\":1086:1170   */\n  tag_172\n  jumpi\n    /* \"#utility.yul\":1142:1160   */\n  tag_173\n  tag_143\n  jump\t// in\ntag_173:\n    /* \"#utility.yul\":1086:1170   */\ntag_172:\n    /* \"#utility.yul\":907:1176   */\n  pop\n    /* \"#utility.yul\":856:1176   */\n  swap2\n  swap1\n  pop\n  jump\t// out\n    /* \"#utility.yul\":1182:1323   */\ntag_145:\n    /* \"#utility.yul\":1231:1235   */\n  0x00\n    /* \"#utility.yul\":1254:1257   */\n  dup2\n    /* \"#utility.yul\":1246:1257   */\n  swap1\n  pop\n    /* \"#utility.yul\":1277:1280   */\n  dup2\n    /* \"#utility.yul\":1274:1275   */\n  0x00\n    /* \"#utility.yul\":1267:1281   */\n  mstore\n    /* \"#utility.yul\":1311:1315   */\n  0x20\n    /* \"#utility.yul\":1308:1309   */\n  0x00\n    /* \"#utility.yul\":1298:1316   */\n  keccak256\n    /* \"#utility.yul\":1290:1316   */\n  swap1\n  pop\n    /* \"#utility.yul\":1182:1323   */\n  swap2\n  swap1\n  pop\n  jump\t// out\n    /* \"#utility.yul\":1329:1422   */\ntag_146:\n    /* \"#utility.yul\":1366:1372   */\n  0x00\n    /* \"#utility.yul\":1413:1415   */\n  0x20\n    /* \"#utility.yul\":1408:1410   */\n  0x1f\n    /* \"#utility.yul\":1401:1406   */\n  dup4\n    /* \"#utility.yul\":1397:1411   */\n  add\n    /* \"#utility.yul\":1393:1416   */\n  div\n    /* \"#utility.yul\":1383:1416   */\n  swap1\n  pop\n    /* \"#utility.yul\":1329:1422   */\n  swap2\n  swap1\n  pop\n  jump\t// out\n    /* \"#utility.yul\":1428:1535   */\ntag_147:\n    /* \"#utility.yul\":1472:1480   */\n  0x00\n    /* \"#utility.yul\":1522:1527   */\n  dup3\n    /* \"#utility.yul\":1516:1520   */\n  dup3\n    /* \"#utility.yul\":1512:1528   */\n  shl\n    /* \"#utility.yul\":1491:1528   */\n  swap1\n  pop\n    /* \"#utility.yul\":1428:1535   */\n  swap3\n  swap2\n  pop\n  pop\n  jump\t// out\n    /* \"#utility.yul\":1541:1934   */\ntag_148:\n    /* \"#utility.yul\":1610:1616   */\n  0x00\n    /* \"#utility.yul\":1660:1661   */\n  0x08\n    /* \"#utility.yul\":1648:1658   */\n  dup4\n    /* \"#utility.yul\":1644:1662   */\n  mul\n    /* \"#utility.yul\":1683:1780   */\n  tag_178\n    /* \"#utility.yul\":1713:1779   */\n  0xffffffffffffffffffffffffffffffffffffffffffffffffffffffffffffffff\n    /* \"#utility.yul\":1702:1711   */\n  dup3\n    /* \"#utility.yul\":1683:1780   */\n  tag_147\n  jump\t// in\ntag_178:\n    /* \"#utility.yul\":1801:1840   */\n  tag_179\n    /* \"#utility.yul\":1831:1839   */\n  dup7\n    /* \"#utility.yul\":1820:1829   */\n  dup4\n    /* \"#utility.yul\":1801:1840   */\n  tag_147\n  jump\t// in\ntag_179:\n    /* \"#utility.yul\":1789:1840   */\n  swap6\n  pop\n    /* \"#utility.yul\":1873:1877   */\n  dup1\n    /* \"#utility.yul\":1869:1878   */\n  not\n    /* \"#utility.yul\":1862:1867   */\n  dup5\n    /* \"#utility.yul\":1858:1879   */\n  and\n    /* \"#utility.yul\":1849:1879   */\n  swap4\n  pop\n    /* \"#utility.yul\":1922:1926   */\n  dup1\n    /* \"#utility.yul\":1912:1920   */\n  dup7\n    /* \"#utility.yul\":1908:1927   */\n  and\n    /* \"#utility.yul\":1901:1906   */\n  dup5\n    /* \"#utility.yul\":1898:1928   */\n  or\n    /* \"#utility.yul\":1888:1928   */\n  swap3\n  pop\n    /* \"#utility.yul\":1617:1934   */\n  pop\n  pop\n    /* \"#utility.yul\":1541:1934   */\n  swap4\n  swap3\n  pop\n  pop\n  pop\n  jump\t// out\n    /* \"#utility.yul\":1940:2017   */\ntag_149:\n    /* \"#utility.yul\":1977:1984   */\n  0x00\n    /* \"#utility.yul\":2006:2011   */\n  dup2\n    /* \"#utility.yul\":1995:2011   */\n  swap1\n  pop\n    /* \"#utility.yul\":1940:2017   */\n  swap2\n  swap1\n  pop\n  jump\t// out\n    /* \"#utility.yul\":2023:2083   */\ntag_150:\n    /* \"#utility.yul\":2051:2054   */\n  0x00\n    /* \"#utility.yul\":2072:2077   */\n  dup2\n    /* \"#utility.yul\":2065:2077   */\n  swap1\n  pop\n    /* \"#utility.yul\":2023:2083   */\n  swap2\n  swap1\n  pop\n  jump\t// out\n    /* \"#utility.yul\":2089:2231   */\ntag_151:\n    /* \"#utility.yul\":2139:2148   */\n  0x00\n    /* \"#utility.yul\":2172:2225   */\n  tag_183\n    /* \"#utility.yul\":2190:2224   */\n  tag_184\n    /* \"#utility.yul\":2199:2223   */\n  tag_185\n    /* \"#utility.yul\":2217:2222   */\n  dup5\n    /* \"#utility.yul\":2199:2223   */\n  tag_149\n  jump\t// in\ntag_185:\n    /* \"#utility.yul\":2190:2224   */\n  tag_150\n  jump\t// in\ntag_184:\n    /* \"#utility.yul\":2172:2225   */\n  tag_149\n  jump\t// in\ntag_183:\n    /* \"#utility.yul\":2159:2225   */\n  swap1\n  pop\n    /* \"#utility.yul\":2089:2231   */\n  swap2\n  swap1\n  pop\n  jump\t// out\n    /* \"#utility.yul\":2237:2312   */\ntag_152:\n    /* \"#utility.yul\":2280:2283   */\n  0x00\n    /* \"#utility.yul\":2301:2306   */\n  dup2\n    /* \"#utility.yul\":2294:2306   */\n  swap1\n  pop\n    /* \"#utility.yul\":2237:2312   */\n  swap2\n  swap1\n  pop\n  jump\t// out\n    /* \"#utility.yul\":2318:2587   */\ntag_153:\n    /* \"#utility.yul\":2428:2467   */\n  tag_188\n    /* \"#utility.yul\":2459:2466   */\n  dup4\n    /* \"#utility.yul\":2428:2467   */\n  tag_151\n  jump\t// in\ntag_188:\n    /* \"#utility.yul\":2489:2580   */\n  tag_189\n    /* \"#utility.yul\":2538:2579   */\n  tag_190\n    /* \"#utility.yul\":2562:2578   */\n  dup3\n    /* \"#utility.yul\":2538:2579   */\n  tag_152\n  jump\t// in\ntag_190:\n    /* \"#utility.yul\":2530:2536   */\n  dup5\n    /* \"#utility.yul\":2523:2527   */\n  dup5\n    /* \"#utility.yul\":2517:2528   */\n  sload\n    /* \"#utility.yul\":2489:2580   */\n  tag_148\n  jump\t// in\ntag_189:\n    /* \"#utility.yul\":2483:2487   */\n  dup3\n    /* \"#utility.yul\":2476:2581   */\n  sstore\n    /* \"#utility.yul\":2394:2587   */\n  pop\n    /* \"#utility.yul\":2318:2587   */\n  pop\n  pop\n  pop\n  jump\t// out\n    /* \"#utility.yul\":2593:2666   */\ntag_154:\n    /* \"#utility.yul\":2638:2641   */\n  0x00\n    /* \"#utility.yul\":2593:2666   */\n  swap1\n  jump\t// out\n    /* \"#utility.yul\":2672:2861   */\ntag_155:\n    /* \"#utility.yul\":2749:2781   */\n  tag_193\n  tag_154\n  jump\t// in\ntag_193:\n    /* \"#utility.yul\":2790:2855   */\n  tag_194\n    /* \"#utility.yul\":2848:2854   */\n  dup2\n    /* \"#utility.yul\":2840:2846   */\n  dup5\n    /* \"#utility.yul\":2834:2838   */\n  dup5\n    /* \"#utility.yul\":2790:2855   */\n  tag_153\n  jump\t// in\ntag_194:\n    /* \"#utility.yul\":2725:2861   */\n  pop\n    /* \"#utility.yul\":2672:2861   */\n  pop\n  pop\n  jump\t// out\n    /* \"#utility.yul\":2867:3053   */\ntag_156:\n    /* \"#utility.yul\":2927:3047   */\ntag_196:\n    /* \"#utility.yul\":2944:2947   */\n  dup2\n    /* \"#utility.yul\":2937:2942   */\n  dup2\n    /* \"#utility.yul\":2934:2948   */\n  lt\n    /* \"#utility.yul\":2927:3047   */\n  iszero\n  tag_198\n  jumpi\n    /* \"#utility.yul\":2998:3037   */\n  tag_199\n    /* \"#utility.yul\":3035:3036   */\n  0x00\n    /* \"#utility.yul\":3028:3033   */\n  dup3\n    /* \"#utility.yul\":2998:3037   */\n  tag_155\n  jump\t// in\ntag_199:\n    /* \"#utility.yul\":2971:2972   */\n  0x01\n    /* \"#utility.yul\":2964:2969   */\n  dup2\n    /* \"#utility.yul\":2960:2973   */\n  add\n    /* \"#utility.yul\":2951:2973   */\n  swap1\n  pop\n    /* \"#utility.yul\":2927:3047   */\n  jump(tag_196)\ntag_198:\n    /* \"#utility.yul\":2867:3053   */\n  pop\n  pop\n  jump\t// out\n    /* \"#utility.yul\":3059:3602   */\ntag_157:\n    /* \"#utility.yul\":3160:3162   */\n  0x1f\n    /* \"#utility.yul\":3155:3158   */\n  dup3\n    /* \"#utility.yul\":3152:3163   */\n  gt\n    /* \"#utility.yul\":3149:3595   */\n  iszero\n  tag_201\n  jumpi\n    /* \"#utility.yul\":3194:3232   */\n  tag_202\n    /* \"#utility.yul\":3226:3231   */\n  dup2\n    /* \"#utility.yul\":3194:3232   */\n  tag_145\n  jump\t// in\ntag_202:\n    /* \"#utility.yul\":3278:3307   */\n  tag_203\n    /* \"#utility.yul\":3296:3306   */\n  dup5\n    /* \"#utility.yul\":3278:3307   */\n  tag_146\n  jump\t// in\ntag_203:\n    /* \"#utility.yul\":3268:3276   */\n  dup2\n    /* \"#utility.yul\":3264:3308   */\n  add\n    /* \"#utility.yul\":3461:3463   */\n  0x20\n    /* \"#utility.yul\":3449:3459   */\n  dup6\n    /* \"#utility.yul\":3446:3464   */\n  lt\n    /* \"#utility.yul\":3443:3492   */\n  iszero\n  tag_204\n  jumpi\n    /* \"#utility.yul\":3482:3490   */\n  dup2\n    /* \"#utility.yul\":3467:3490   */\n  swap1\n  pop\n    /* \"#utility.yul\":3443:3492   */\ntag_204:\n    /* \"#utility.yul\":3505:3585   */\n  tag_205\n    /* \"#utility.yul\":3561:3583   */\n  tag_206\n    /* \"#utility.yul\":3579:3582   */\n  dup6\n    /* \"#utility.yul\":3561:3583   */\n  tag_146\n  jump\t// in\ntag_206:\n    /* \"#utility.yul\":3551:3559   */\n  dup4\n    /* \"#utility.yul\":3547:3584   */\n  add\n    /* \"#utility.yul\":3534:3545   */\n  dup3\n    /* \"#utility.yul\":3505:3585   */\n  tag_156\n  jump\t// in\ntag_205:\n    /* \"#utility.yul\":3164:3595   */\n  pop\n  pop\n    /* \"#utility.yul\":3149:3595   */\ntag_201:\n    /* \"#utility.yul\":3059:3602   */\n  pop\n  pop\n  pop\n  jump\t// out\n    /* \"#utility.yul\":3608:3725   */\ntag_158:\n    /* \"#utility.yul\":3662:3670   */\n  0x00\n    /* \"#utility.yul\":3712:3717   */\n  dup3\n    /* \"#utility.yul\":3706:3710   */\n  dup3\n    /* \"#utility.yul\":3702:3718   */\n  shr\n    /* \"#utility.yul\":3681:3718   */\n  swap1\n  pop\n    /* \"#utility.yul\":3608:3725   */\n  swap3\n  swap2\n  pop\n  pop\n  jump\t// out\n    /* \"#utility.yul\":3731:3900   */\ntag_159:\n    /* \"#utility.yul\":3775:3781   */\n  0x00\n    /* \"#utility.yul\":3808:3859   */\n  tag_209\n    /* \"#utility.yul\":3856:3857   */\n  0x00\n    /* \"#utility.yul\":3852:3858   */\n  not\n    /* \"#utility.yul\":3844:3849   */\n  dup5\n    /* \"#utility.yul\":3841:3842   */\n  0x08\n    /* \"#utility.yul\":3837:3850   */\n  mul\n    /* \"#utility.yul\":3808:3859   */\n  tag_158\n  jump\t// in\ntag_209:\n    /* \"#utility.yul\":3804:3860   */\n  not\n    /* \"#utility.yul\":3889:3893   */\n  dup1\n    /* \"#utility.yul\":3883:3887   */\n  dup4\n    /* \"#utility.yul\":3879:3894   */\n  and\n    /* \"#utility.yul\":3869:3894   */\n  swap2\n  pop\n    /* \"#utility.yul\":3782:3900   */\n  pop\n    /* \"#utility.yul\":3731:3900   */\n  swap3\n  swap2\n  pop\n  pop\n  jump\t// out\n    /* \"#utility.yul\":3905:4200   */\ntag_160:\n    /* \"#utility.yul\":3981:3985   */\n  0x00\n    /* \"#utility.yul\":4127:4156   */\n  tag_211\n    /* \"#utility.yul\":4152:4155   */\n  dup4\n    /* \"#utility.yul\":4146:4150   */\n  dup4\n    /* \"#utility.yul\":4127:4156   */\n  tag_159\n  jump\t// in\ntag_211:\n    /* \"#utility.yul\":4119:4156   */\n  swap2\n  pop\n    /* \"#utility.yul\":4189:4192   */\n  dup3\n    /* \"#utility.yul\":4186:4187   */\n  0x02\n    /* \"#utility.yul\":4182:4193   */\n  mul\n    /* \"#utility.yul\":4176:4180   */\n  dup3\n    /* \"#utility.yul\":4173:4194   */\n  or\n    /* \"#utility.yul\":4165:4194   */\n  swap1\n  pop\n    /* \"#utility.yul\":3905:4200   */\n  swap3\n  swap2\n  pop\n  pop\n  jump\t// out\n    /* \"#utility.yul\":4205:5600   */\ntag_125:\n    /* \"#utility.yul\":4322:4359   */\n  tag_213\n    /* \"#utility.yul\":4355:4358   */\n  dup3\n    /* \"#utility.yul\":4322:4359   */\n  tag_142\n  jump\t// in\ntag_213:\n    /* \"#utility.yul\":4424:4442   */\n  0xffffffffffffffff\n    /* \"#utility.yul\":4416:4422   */\n  dup2\n    /* \"#utility.yul\":4413:4443   */\n  gt\n    /* \"#utility.yul\":4410:4466   */\n  iszero\n  tag_214\n  jumpi\n    /* \"#utility.yul\":4446:4464   */\n  tag_215\n  tag_6\n  jump\t// in\ntag_215:\n    /* \"#utility.yul\":4410:4466   */\ntag_214:\n    /* \"#utility.yul\":4490:4528   */\n  tag_216\n    /* \"#utility.yul\":4522:4526   */\n  dup3\n    /* \"#utility.yul\":4516:4527   */\n  sload\n    /* \"#utility.yul\":4490:4528   */\n  tag_144\n  jump\t// in\ntag_216:\n    /* \"#utility.yul\":4575:4642   */\n  tag_217\n    /* \"#utility.yul\":4635:4641   */\n  dup3\n    /* \"#utility.yul\":4627:4633   */\n  dup3\n    /* \"#utility.yul\":4621:4625   */\n  dup6\n    /* \"#utility.yul\":4575:4642   */\n  tag_157\n  jump\t// in\ntag_217:\n    /* \"#utility.yul\":4669:4670   */\n  0x00\n    /* \"#utility.yul\":4693:4697   */\n  0x20\n    /* \"#utility.yul\":4680:4697   */\n  swap1\n  pop\n    /* \"#utility.yul\":4725:4727   */\n  0x1f\n    /* \"#utility.yul\":4717:4723   */\n  dup4\n    /* \"#utility.yul\":4714:4728   */\n  gt\n    /* \"#utility.yul\":4742:4743   */\n  0x01\n    /* \"#utility.yul\":4737:5355   */\n  dup2\n  eq\n  tag_219\n  jumpi\n    /* \"#utility.yul\":5399:5400   */\n  0x00\n    /* \"#utility.yul\":5416:5422   */\n  dup5\n    /* \"#utility.yul\":5413:5490   */\n  iszero\n  tag_220\n  jumpi\n    /* \"#utility.yul\":5465:5474   */\n  dup3\n    /* \"#utility.yul\":5460:5463   */\n  dup8\n    /* \"#utility.yul\":5456:5475   */\n  add\n    /* \"#utility.yul\":5450:5476   */\n  mload\n    /* \"#utility.yul\":5441:5476   */\n  swap1\n  pop\n    /* \"#utility.yul\":5413:5490   */\ntag_220:\n    /* \"#utility.yul\":5516:5583   */\n  tag_221\n    /* \"#utility.yul\":5576:5582   */\n  dup6\n    /* \"#utility.yul\":5569:5574   */\n  dup3\n    /* \"#utility.yul\":5516:5583   */\n  tag_160\n  jump\t// in\ntag_221:\n    /* \"#utility.yul\":5510:5514   */\n  dup7\n    /* \"#utility.yul\":5503:5584   */\n  sstore\n    /* \"#utility.yul\":5372:5594   */\n  pop\n    /* \"#utility.yul\":4707:5594   */\n  jump(tag_218)\n    /* \"#utility.yul\":4737:5355   */\ntag_219:\n    /* \"#utility.yul\":4789:4793   */\n  0x1f\n    /* \"#utility.yul\":4785:4794   */\n  not\n    /* \"#utility.yul\":4777:4783   */\n  dup5\n    /* \"#utility.yul\":4773:4795   */\n  and\n    /* \"#utility.yul\":4823:4860   */\n  tag_222\n    /* \"#utility.yul\":4855:4859   */\n  dup7\n    /* \"#utility.yul\":4823:4860   */\n  tag_145\n  jump\t// in\ntag_222:\n    /* \"#utility.yul\":4882:4883   */\n  0x00\n    /* \"#utility.yul\":4896:5104   */\ntag_223:\n    /* \"#utility.yul\":4910:4917   */\n  dup3\n    /* \"#utility.yul\":4907:4908   */\n  dup2\n    /* \"#utility.yul\":4904:4918   */\n  lt\n    /* \"#utility.yul\":4896:5104   */\n  iszero\n  tag_225\n  jumpi\n    /* \"#utility.yul\":4989:4998   */\n  dup5\n    /* \"#utility.yul\":4984:4987   */\n  dup10\n    /* \"#utility.yul\":4980:4999   */\n  add\n    /* \"#utility.yul\":4974:5000   */\n  mload\n    /* \"#utility.yul\":4966:4972   */\n  dup3\n    /* \"#utility.yul\":4959:5001   */\n  sstore\n    /* \"#utility.yul\":5040:5041   */\n  0x01\n    /* \"#utility.yul\":5032:5038   */\n  dup3\n    /* \"#utility.yul\":5028:5042   */\n  add\n    /* \"#utility.yul\":5018:5042   */\n  swap2\n  pop\n    /* \"#utility.yul\":5087:5089   */\n  0x20\n    /* \"#utility.yul\":5076:5085   */\n  dup6\n    /* \"#utility.yul\":5072:5090   */\n  add\n    /* \"#utility.yul\":5059:5090   */\n  swap5\n  pop\n    /* \"#utility.yul\":4933:4937   */\n  0x20\n    /* \"#utility.yul\":4930:4931   */\n  dup2\n    /* \"#utility.yul\":4926:4938   */\n  add\n    /* \"#utility.yul\":4921:4938   */\n  swap1\n  pop\n    /* \"#utility.yul\":4896:5104   */\n  jump(tag_223)\ntag_225:\n    /* \"#utility.yul\":5132:5138   */\n  dup7\n    /* \"#utility.yul\":5123:5130   */\n  dup4\n    /* \"#utility.yul\":5120:5139   */\n  lt\n    /* \"#utility.yul\":5117:5296   */\n  iszero\n  tag_226\n  jumpi\n    /* \"#utility.yul\":5190:5199   */\n  dup5\n    /* \"#utility.yul\":5185:5188   */\n  dup10\n    /* \"#utility.yul\":5181:5200   */\n  add\n    /* \"#utility.yul\":5175:5201   */\n  mload\n    /* \"#utility.yul\":5233:5281   */\n  tag_227\n    /* \"#utility.yul\":5275:5279   */\n  0x1f\n    /* \"#utility.yul\":5267:5273   */\n  dup10\n    /* \"#utility.yul\":5263:5280   */\n  and\n    /* \"#utility.yul\":5252:5261   */\n  dup3\n    /* \"#utility.yul\":5233:5281   */\n  tag_159\n  jump\t// in\ntag_227:\n    /* \"#utility.yul\":5225:5231   */\n  dup4\n    /* \"#utility.yul\":5218:5282   */\n  sstore\n    /* \"#utility.yul\":5140:5296   */\n  pop\n    /* \"#utility.yul\":5117:5296   */\ntag_226:\n    /* \"#utility.yul\":5342:5343   */\n  0x01\n    /* \"#utility.yul\":5338:5339   */\n  0x02\n    /* \"#utility.yul\":5330:5336   */\n  dup9\n    /* \"#utility.yul\":5326:5340   */\n  mul\n    /* \"#utility.yul\":5322:5344   */\n  add\n    /* \"#utility.yul\":5316:5320   */\n  dup9\n    /* \"#utility.yul\":5309:5345   */\n  sstore\n    /* \"#utility.yul\":4744:5355   */\n  pop\n  pop\n  pop\n    /* \"#utility.yul\":4707:5594   */\ntag_218:\n  pop\n    /* \"#utility.yul\":4297:5600   */\n  pop\n  pop\n  pop\n    /* \"#utility.yul\":4205:5600   */\n  pop\n  pop\n  jump\t// out\n    /* \"#utility.yul\":5606:5754   */\ntag_161:\n    /* \"#utility.yul\":5708:5719   */\n  0x00\n    /* \"#utility.yul\":5745:5748   */\n  dup2\n    /* \"#utility.yul\":5730:5748   */\n  swap1\n  pop\n    /* \"#utility.yul\":5606:5754   */\n  swap3\n  swap2\n  pop\n  pop\n  jump\t// out\n    /* \"#utility.yul\":5760:6006   */\ntag_162:\n    /* \"#utility.yul\":5841:5842   */\n  0x00\n    /* \"#utility.yul\":5851:5964   */\ntag_230:\n    /* \"#utility.yul\":5865:5871   */\n  dup4\n    /* \"#utility.yul\":5862:5863   */\n  dup2\n    /* \"#utility.yul\":5859:5872   */\n  lt\n    /* \"#utility.yul\":5851:5964   */\n  iszero\n  tag_232\n  jumpi\n    /* \"#utility.yul\":5950:5951   */\n  dup1\n    /* \"#utility.yul\":5945:5948   */\n  dup3\n    /* \"#utility.yul\":5941:5952   */\n  add\n    /* \"#utility.yul\":5935:5953   */\n  mload\n    /* \"#utility.yul\":5931:5932   */\n  dup2\n    /* \"#utility.yul\":5926:5929   */\n  dup5\n    /* \"#utility.yul\":5922:5933   */\n  add\n    /* \"#utility.yul\":5915:5954   */\n  mstore\n    /* \"#utility.yul\":5887:5889   */\n  0x20\n    /* \"#utility.yul\":5884:5885   */\n  dup2\n    /* \"#utility.yul\":5880:5890   */\n  add\n    /* \"#utility.yul\":5875:5890   */\n  swap1\n  pop\n    /* \"#utility.yul\":5851:5964   */\n  jump(tag_230)\ntag_232:\n    /* \"#utility.yul\":5998:5999   */\n  0x00\n    /* \"#utility.yul\":5989:5995   */\n  dup5\n    /* \"#utility.yul\":5984:5987   */\n  dup5\n    /* \"#utility.yul\":5980:5996   */\n  add\n    /* \"#utility.yul\":5973:6000   */\n  mstore\n    /* \"#utility.yul\":5822:6006   */\n  pop\n    /* \"#utility.yul\":5760:6006   */\n  pop\n  pop\n  pop\n  jump\t// out\n    /* \"#utility.yul\":6012:6402   */\ntag_163:\n    /* \"#utility.yul\":6118:6121   */\n  0x00\n    /* \"#utility.yul\":6146:6185   */\n  tag_234\n    /* \"#utility.yul\":6179:6184   */\n  dup3\n    /* \"#utility.yul\":6146:6185   */\n  tag_142\n  jump\t// in\ntag_234:\n    /* \"#utility.yul\":6201:6290   */\n  tag_235\n    /* \"#utility.yul\":6283:6289   */\n  dup2\n    /* \"#utility.yul\":6278:6281   */\n  dup6\n    /* \"#utility.yul\":6201:6290   */\n  tag_161\n  jump\t// in\ntag_235:\n    /* \"#utility.yul\":6194:6290   */\n  swap4\n  pop\n    /* \"#utility.yul\":6299:6364   */\n  tag_236\n    /* \"#utility.yul\":6357:6363   */\n  dup2\n    /* \"#utility.yul\":6352:6355   */\n  dup6\n    /* \"#utility.yul\":6345:6349   */\n  0x20\n    /* \"#utility.yul\":6338:6343   */\n  dup7\n    /* \"#utility.yul\":6334:6350   */\n  add\n    /* \"#utility.yul\":6299:6364   */\n  tag_162\n  jump\t// in\ntag_236:\n    /* \"#utility.yul\":6389:6395   */\n  dup1\n    /* \"#utility.yul\":6384:6387   */\n  dup5\n    /* \"#utility.yul\":6380:6396   */\n  add\n    /* \"#utility.yul\":6373:6396   */\n  swap2\n  pop\n    /* \"#utility.yul\":6122:6402   */\n  pop\n    /* \"#utility.yul\":6012:6402   */\n  swap3\n  swap2\n  pop\n  pop\n  jump\t// out\n    /* \"#utility.yul\":6408:6683   */\ntag_127:\n    /* \"#utility.yul\":6540:6543   */\n  0x00\n    /* \"#utility.yul\":6562:6657   */\n  tag_238\n    /* \"#utility.yul\":6653:6656   */\n  dup3\n    /* \"#utility.yul\":6644:6650   */\n  dup5\n    /* \"#utility.yul\":6562:6657   */\n  tag_163\n  jump\t// in\ntag_238:\n    /* \"#utility.yul\":6555:6657   */\n  swap2\n  pop\n    /* \"#utility.yul\":6674:6677   */\n  dup2\n    /* \"#utility.yul\":6667:6677   */\n  swap1\n  pop\n    /* \"#utility.yul\":6408:6683   */\n  swap3\n  swap2\n  pop\n  pop\n  jump\t// out\n    /* \"contracts/AmeComponents/Comment/Comment.sol\":169:9669  contract VibeComment is IComponent {... */\ntag_117:\n  dataSize(sub_0)\n  dup1\n  dataOffset(sub_0)\n  0x00\n  codecopy\n  0x00\n  return\nstop\n\nsub_0: assembly {\n        /* \"contracts/AmeComponents/Comment/Comment.sol\":169:9669  contract VibeComment is IComponent {... */\n      mstore(0x40, 0x80)\n      jumpi(tag_1, lt(calldatasize, 0x04))\n      shr(0xe0, calldataload(0x00))\n      dup1\n      0x6818ba1d\n      gt\n      tag_12\n      jumpi\n      dup1\n      0x6818ba1d\n      eq\n      tag_7\n      jumpi\n      dup1\n      0xaff62745\n      eq\n      tag_8\n      jumpi\n      dup1\n      0xb6ae0425\n      eq\n      tag_9\n      jumpi\n      dup1\n      0xe9536472\n      eq\n      tag_10\n      jumpi\n      dup1\n      0xf4856ccb\n      eq\n      tag_11\n      jumpi\n      jump(tag_1)\n    tag_12:\n      dup1\n      0x1069143a\n      eq\n      tag_2\n      jumpi\n      dup1\n      0x1d16b70d\n      eq\n      tag_3\n      jumpi\n      dup1\n      0x3e413065\n      eq\n      tag_4\n      jumpi\n      dup1\n      0x44237454\n      eq\n      tag_5\n      jumpi\n      dup1\n      0x458ad6d4\n      eq\n      tag_6\n      jumpi\n    tag_1:\n      0x00\n      dup1\n      revert\n        /* \"contracts/AmeComponents/Comment/Comment.sol\":4811:5146  function options() public pure returns (MethodTypes[] memory) {... */\n    tag_2:\n      callvalue\n      dup1\n      iszero\n      tag_13\n      jumpi\n      0x00\n      dup1\n      revert\n    tag_13:\n      pop\n      tag_14\n      tag_15\n      jump\t// in\n    tag_14:\n      mload(0x40)\n      tag_16\n      swap2\n      swap1\n      tag_17\n      jump\t// in\n    tag_16:\n      mload(0x40)\n      dup1\n      swap2\n      sub\n      swap1\n      return\n        /* \"contracts/AmeComponents/Comment/Comment.sol\":9032:9667  function generateBase64(... */\n    tag_3:\n      callvalue\n      dup1\n      iszero\n      tag_18\n      jumpi\n      0x00\n      dup1\n      revert\n    tag_18:\n      pop\n      tag_19\n      0x04\n      dup1\n      calldatasize\n      sub\n      dup2\n      add\n      swap1\n      tag_20\n      swap2\n      swap1\n      tag_21\n      jump\t// in\n    tag_20:\n      tag_22\n      jump\t// in\n    tag_19:\n      mload(0x40)\n      tag_23\n      swap2\n      swap1\n      tag_24\n      jump\t// in\n    tag_23:\n      mload(0x40)\n      dup1\n      swap2\n      sub\n      swap1\n      return\n        /* \"contracts/AmeComponents/Comment/Comment.sol\":448:473  uint256 public commentIds */\n    tag_4:\n      callvalue\n      dup1\n      iszero\n      tag_25\n      jumpi\n      0x00\n      dup1\n      revert\n    tag_25:\n      pop\n      tag_26\n      tag_27\n      jump\t// in\n    tag_26:\n      mload(0x40)\n      tag_28\n      swap2\n      swap1\n      tag_29\n      jump\t// in\n    tag_28:\n      mload(0x40)\n      dup1\n      swap2\n      sub\n      swap1\n      return\n        /* \"contracts/AmeComponents/Comment/Comment.sol\":7597:9026  function getCommentsByAddress(... */\n    tag_5:\n      callvalue\n      dup1\n      iszero\n      tag_30\n      jumpi\n      0x00\n      dup1\n      revert\n    tag_30:\n      pop\n      tag_31\n      0x04\n      dup1\n      calldatasize\n      sub\n      dup2\n      add\n      swap1\n      tag_32\n      swap2\n      swap1\n      tag_33\n      jump\t// in\n    tag_32:\n      tag_34\n      jump\t// in\n    tag_31:\n      mload(0x40)\n      tag_35\n      swap2\n      swap1\n      tag_36\n      jump\t// in\n    tag_35:\n      mload(0x40)\n      dup1\n      swap2\n      sub\n      swap1\n      return\n        /* \"contracts/AmeComponents/Comment/Comment.sol\":5495:5724  function getMethodReqAndRes(string memory _methodName)... */\n    tag_6:\n      callvalue\n      dup1\n      iszero\n      tag_37\n      jumpi\n      0x00\n      dup1\n      revert\n    tag_37:\n      pop\n      tag_38\n      0x04\n      dup1\n      calldatasize\n      sub\n      dup2\n      add\n      swap1\n      tag_39\n      swap2\n      swap1\n      tag_40\n      jump\t// in\n    tag_39:\n      tag_41\n      jump\t// in\n    tag_38:\n      mload(0x40)\n      tag_42\n      swap3\n      swap2\n      swap1\n      tag_43\n      jump\t// in\n    tag_42:\n      mload(0x40)\n      dup1\n      swap2\n      sub\n      swap1\n      return\n        /* \"contracts/AmeComponents/Comment/Comment.sol\":6162:7590  function getComments(... */\n    tag_7:\n      callvalue\n      dup1\n      iszero\n      tag_44\n      jumpi\n      0x00\n      dup1\n      revert\n    tag_44:\n      pop\n      tag_45\n      0x04\n      dup1\n      calldatasize\n      sub\n      dup2\n      add\n      swap1\n      tag_46\n      swap2\n      swap1\n      tag_47\n      jump\t// in\n    tag_46:\n      tag_48\n      jump\t// in\n    tag_45:\n      mload(0x40)\n      tag_49\n      swap2\n      swap1\n      tag_36\n      jump\t// in\n    tag_49:\n      mload(0x40)\n      dup1\n      swap2\n      sub\n      swap1\n      return\n        /* \"contracts/AmeComponents/Comment/Comment.sol\":2098:3443  function get(string memory _methodName, bytes memory _methodReq)... */\n    tag_8:\n      callvalue\n      dup1\n      iszero\n      tag_50\n      jumpi\n      0x00\n      dup1\n      revert\n    tag_50:\n      pop\n      tag_51\n      0x04\n      dup1\n      calldatasize\n      sub\n      dup2\n      add\n      swap1\n      tag_52\n      swap2\n      swap1\n      tag_53\n      jump\t// in\n    tag_52:\n      tag_54\n      jump\t// in\n    tag_51:\n      mload(0x40)\n      tag_55\n      swap2\n      swap1\n      tag_56\n      jump\t// in\n    tag_55:\n      mload(0x40)\n      dup1\n      swap2\n      sub\n      swap1\n      return\n        /* \"contracts/AmeComponents/Comment/Comment.sol\":3449:4609  function post(string memory _methodName, bytes memory _methodReq)... */\n    tag_9:\n      tag_57\n      0x04\n      dup1\n      calldatasize\n      sub\n      dup2\n      add\n      swap1\n      tag_58\n      swap2\n      swap1\n      tag_53\n      jump\t// in\n    tag_58:\n      tag_59\n      jump\t// in\n    tag_57:\n      mload(0x40)\n      tag_60\n      swap2\n      swap1\n      tag_56\n      jump\t// in\n    tag_60:\n      mload(0x40)\n      dup1\n      swap2\n      sub\n      swap1\n      return\n        /* \"contracts/AmeComponents/Comment/Comment.sol\":4615:4805  function put(string memory _methodName, bytes memory _methodReq)... */\n    tag_10:\n      tag_61\n      0x04\n      dup1\n      calldatasize\n      sub\n      dup2\n      add\n      swap1\n      tag_62\n      swap2\n      swap1\n      tag_53\n      jump\t// in\n    tag_62:\n      tag_63\n      jump\t// in\n    tag_61:\n      mload(0x40)\n      tag_64\n      swap2\n      swap1\n      tag_56\n      jump\t// in\n    tag_64:\n      mload(0x40)\n      dup1\n      swap2\n      sub\n      swap1\n      return\n        /* \"contracts/AmeComponents/Comment/Comment.sol\":5730:5887  function getMethods(MethodTypes _methodTypes)... */\n    tag_11:\n      callvalue\n      dup1\n      iszero\n      tag_65\n      jumpi\n      0x00\n      dup1\n      revert\n    tag_65:\n      pop\n      tag_66\n      0x04\n      dup1\n      calldatasize\n      sub\n      dup2\n      add\n      swap1\n      tag_67\n      swap2\n      swap1\n      tag_68\n      jump\t// in\n    tag_67:\n      tag_69\n      jump\t// in\n    tag_66:\n      mload(0x40)\n      tag_70\n      swap2\n      swap1\n      tag_36\n      jump\t// in\n    tag_70:\n      mload(0x40)\n      dup1\n      swap2\n      sub\n      swap1\n      return\n        /* \"contracts/AmeComponents/Comment/Comment.sol\":4811:5146  function options() public pure returns (MethodTypes[] memory) {... */\n    tag_15:\n        /* \"contracts/AmeComponents/Comment/Comment.sol\":4851:4871  MethodTypes[] memory */\n      0x60\n        /* \"contracts/AmeComponents/Comment/Comment.sol\":4883:4915  MethodTypes[] memory methodTypes */\n      0x00\n        /* \"contracts/AmeComponents/Comment/Comment.sol\":4936:4937  4 */\n      0x04\n        /* \"contracts/AmeComponents/Comment/Comment.sol\":4918:4938  new MethodTypes[](4) */\n      0xffffffffffffffff\n      dup2\n      gt\n      iszero\n      tag_72\n      jumpi\n      tag_73\n      tag_74\n      jump\t// in\n    tag_73:\n    tag_72:\n      mload(0x40)\n      swap1\n      dup1\n      dup3\n      mstore\n      dup1\n      0x20\n      mul\n      0x20\n      add\n      dup3\n      add\n      0x40\n      mstore\n      dup1\n      iszero\n      tag_75\n      jumpi\n      dup2\n      0x20\n      add\n      0x20\n      dup3\n      mul\n      dup1\n      calldatasize\n      dup4\n      calldatacopy\n      dup1\n      dup3\n      add\n      swap2\n      pop\n      pop\n      swap1\n      pop\n    tag_75:\n      pop\n        /* \"contracts/AmeComponents/Comment/Comment.sol\":4883:4938  MethodTypes[] memory methodTypes = new MethodTypes[](4) */\n      swap1\n      pop\n        /* \"contracts/AmeComponents/Comment/Comment.sol\":4965:4980  MethodTypes.GET */\n      0x00\n        /* \"contracts/AmeComponents/Comment/Comment.sol\":4948:4959  methodTypes */\n      dup2\n        /* \"contracts/AmeComponents/Comment/Comment.sol\":4960:4961  0 */\n      0x00\n        /* \"contracts/AmeComponents/Comment/Comment.sol\":4948:4962  methodTypes[0] */\n      dup2\n      mload\n      dup2\n      lt\n      tag_76\n      jumpi\n      tag_77\n      tag_78\n      jump\t// in\n    tag_77:\n    tag_76:\n      0x20\n      mul\n      0x20\n      add\n      add\n        /* \"contracts/AmeComponents/Comment/Comment.sol\":4948:4980  methodTypes[0] = MethodTypes.GET */\n      swap1\n      0x03\n      dup2\n      gt\n      iszero\n      tag_79\n      jumpi\n      tag_80\n      tag_81\n      jump\t// in\n    tag_80:\n    tag_79:\n      swap1\n      dup2\n      0x03\n      dup2\n      gt\n      iszero\n      tag_82\n      jumpi\n      tag_83\n      tag_81\n      jump\t// in\n    tag_83:\n    tag_82:\n      dup2\n      mstore\n      pop\n      pop\n        /* \"contracts/AmeComponents/Comment/Comment.sol\":5007:5023  MethodTypes.POST */\n      0x01\n        /* \"contracts/AmeComponents/Comment/Comment.sol\":4990:5001  methodTypes */\n      dup2\n        /* \"contracts/AmeComponents/Comment/Comment.sol\":5002:5003  1 */\n      0x01\n        /* \"contracts/AmeComponents/Comment/Comment.sol\":4990:5004  methodTypes[1] */\n      dup2\n      mload\n      dup2\n      lt\n      tag_84\n      jumpi\n      tag_85\n      tag_78\n      jump\t// in\n    tag_85:\n    tag_84:\n      0x20\n      mul\n      0x20\n      add\n      add\n        /* \"contracts/AmeComponents/Comment/Comment.sol\":4990:5023  methodTypes[1] = MethodTypes.POST */\n      swap1\n      0x03\n      dup2\n      gt\n      iszero\n      tag_86\n      jumpi\n      tag_87\n      tag_81\n      jump\t// in\n    tag_87:\n    tag_86:\n      swap1\n      dup2\n      0x03\n      dup2\n      gt\n      iszero\n      tag_88\n      jumpi\n      tag_89\n      tag_81\n      jump\t// in\n    tag_89:\n    tag_88:\n      dup2\n      mstore\n      pop\n      pop\n        /* \"contracts/AmeComponents/Comment/Comment.sol\":5050:5065  MethodTypes.PUT */\n      0x02\n        /* \"contracts/AmeComponents/Comment/Comment.sol\":5033:5044  methodTypes */\n      dup2\n        /* \"contracts/AmeComponents/Comment/Comment.sol\":5045:5046  2 */\n      0x02\n        /* \"contracts/AmeComponents/Comment/Comment.sol\":5033:5047  methodTypes[2] */\n      dup2\n      mload\n      dup2\n      lt\n      tag_90\n      jumpi\n      tag_91\n      tag_78\n      jump\t// in\n    tag_91:\n    tag_90:\n      0x20\n      mul\n      0x20\n      add\n      add\n        /* \"contracts/AmeComponents/Comment/Comment.sol\":5033:5065  methodTypes[2] = MethodTypes.PUT */\n      swap1\n      0x03\n      dup2\n      gt\n      iszero\n      tag_92\n      jumpi\n      tag_93\n      tag_81\n      jump\t// in\n    tag_93:\n    tag_92:\n      swap1\n      dup2\n      0x03\n      dup2\n      gt\n      iszero\n      tag_94\n      jumpi\n      tag_95\n      tag_81\n      jump\t// in\n    tag_95:\n    tag_94:\n      dup2\n      mstore\n      pop\n      pop\n        /* \"contracts/AmeComponents/Comment/Comment.sol\":5092:5111  MethodTypes.OPTIONS */\n      0x03\n        /* \"contracts/AmeComponents/Comment/Comment.sol\":5075:5086  methodTypes */\n      dup2\n        /* \"contracts/AmeComponents/Comment/Comment.sol\":5087:5088  3 */\n      0x03\n        /* \"contracts/AmeComponents/Comment/Comment.sol\":5075:5089  methodTypes[3] */\n      dup2\n      mload\n      dup2\n      lt\n      tag_96\n      jumpi\n      tag_97\n      tag_78\n      jump\t// in\n    tag_97:\n    tag_96:\n      0x20\n      mul\n      0x20\n      add\n      add\n        /* \"contracts/AmeComponents/Comment/Comment.sol\":5075:5111  methodTypes[3] = MethodTypes.OPTIONS */\n      swap1\n      0x03\n      dup2\n      gt\n      iszero\n      tag_98\n      jumpi\n      tag_99\n      tag_81\n      jump\t// in\n    tag_99:\n    tag_98:\n      swap1\n      dup2\n      0x03\n      dup2\n      gt\n      iszero\n      tag_100\n      jumpi\n      tag_101\n      tag_81\n      jump\t// in\n    tag_101:\n    tag_100:\n      dup2\n      mstore\n      pop\n      pop\n        /* \"contracts/AmeComponents/Comment/Comment.sol\":5128:5139  methodTypes */\n      dup1\n        /* \"contracts/AmeComponents/Comment/Comment.sol\":5121:5139  return methodTypes */\n      swap2\n      pop\n      pop\n        /* \"contracts/AmeComponents/Comment/Comment.sol\":4811:5146  function options() public pure returns (MethodTypes[] memory) {... */\n      swap1\n      jump\t// out\n        /* \"contracts/AmeComponents/Comment/Comment.sol\":9032:9667  function generateBase64(... */\n    tag_22:\n        /* \"contracts/AmeComponents/Comment/Comment.sol\":9191:9204  string memory */\n      0x60\n        /* \"contracts/AmeComponents/Comment/Comment.sol\":9297:9315  _vibeId.toString() */\n      tag_103\n        /* \"contracts/AmeComponents/Comment/Comment.sol\":9297:9304  _vibeId */\n      dup6\n        /* \"contracts/AmeComponents/Comment/Comment.sol\":9297:9313  _vibeId.toString */\n      tag_104\n        /* \"contracts/AmeComponents/Comment/Comment.sol\":9297:9315  _vibeId.toString() */\n      jump\t// in\n    tag_103:\n        /* \"contracts/AmeComponents/Comment/Comment.sol\":9362:9383  _commentId.toString() */\n      tag_105\n        /* \"contracts/AmeComponents/Comment/Comment.sol\":9362:9372  _commentId */\n      dup6\n        /* \"contracts/AmeComponents/Comment/Comment.sol\":9362:9381  _commentId.toString */\n      tag_104\n        /* \"contracts/AmeComponents/Comment/Comment.sol\":9362:9383  _commentId.toString() */\n      jump\t// in\n    tag_105:\n        /* \"contracts/AmeComponents/Comment/Comment.sol\":9430:9460  Base64.encode(bytes(_content)) */\n      tag_106\n        /* \"contracts/AmeComponents/Comment/Comment.sol\":9450:9458  _content */\n      dup6\n        /* \"contracts/AmeComponents/Comment/Comment.sol\":9430:9443  Base64.encode */\n      tag_107\n        /* \"contracts/AmeComponents/Comment/Comment.sol\":9430:9460  Base64.encode(bytes(_content)) */\n      jump\t// in\n    tag_106:\n        /* \"contracts/AmeComponents/Comment/Comment.sol\":9507:9555  Strings.toHexString(uint256(uint160(_user)), 20) */\n      tag_108\n        /* \"contracts/AmeComponents/Comment/Comment.sol\":9543:9548  _user */\n      dup6\n        /* \"contracts/AmeComponents/Comment/Comment.sol\":9527:9550  uint256(uint160(_user)) */\n      0xffffffffffffffffffffffffffffffffffffffff\n      and\n        /* \"contracts/AmeComponents/Comment/Comment.sol\":9552:9554  20 */\n      0x14\n        /* \"contracts/AmeComponents/Comment/Comment.sol\":9507:9526  Strings.toHexString */\n      tag_109\n        /* \"contracts/AmeComponents/Comment/Comment.sol\":9507:9555  Strings.toHexString(uint256(uint160(_user)), 20) */\n      jump\t// in\n    tag_108:\n        /* \"contracts/AmeComponents/Comment/Comment.sol\":9602:9628  block.timestamp.toString() */\n      tag_110\n        /* \"contracts/AmeComponents/Comment/Comment.sol\":9602:9617  block.timestamp */\n      timestamp\n        /* \"contracts/AmeComponents/Comment/Comment.sol\":9602:9626  block.timestamp.toString */\n      tag_104\n        /* \"contracts/AmeComponents/Comment/Comment.sol\":9602:9628  block.timestamp.toString() */\n      jump\t// in\n    tag_110:\n        /* \"contracts/AmeComponents/Comment/Comment.sol\":9259:9646  abi.encodePacked(... */\n      add(0x20, mload(0x40))\n      tag_111\n      swap6\n      swap5\n      swap4\n      swap3\n      swap2\n      swap1\n      tag_112\n      jump\t// in\n    tag_111:\n      mload(0x40)\n      0x20\n      dup2\n      dup4\n      sub\n      sub\n      dup2\n      mstore\n      swap1\n      0x40\n      mstore\n        /* \"contracts/AmeComponents/Comment/Comment.sol\":9216:9660  return... */\n      swap1\n      pop\n        /* \"contracts/AmeComponents/Comment/Comment.sol\":9032:9667  function generateBase64(... */\n      swap5\n      swap4\n      pop\n      pop\n      pop\n      pop\n      jump\t// out\n        /* \"contracts/AmeComponents/Comment/Comment.sol\":448:473  uint256 public commentIds */\n    tag_27:\n      sload(0x03)\n      dup2\n      jump\t// out\n        /* \"contracts/AmeComponents/Comment/Comment.sol\":7597:9026  function getCommentsByAddress(... */\n    tag_34:\n        /* \"contracts/AmeComponents/Comment/Comment.sol\":7730:7745  string[] memory */\n      0x60\n        /* \"contracts/AmeComponents/Comment/Comment.sol\":7789:7790  0 */\n      0x00\n        /* \"contracts/AmeComponents/Comment/Comment.sol\":7761:7778  UserCommentIndexs */\n      0x05\n        /* \"contracts/AmeComponents/Comment/Comment.sol\":7761:7785  UserCommentIndexs[_user] */\n      0x00\n        /* \"contracts/AmeComponents/Comment/Comment.sol\":7779:7784  _user */\n      dup7\n        /* \"contracts/AmeComponents/Comment/Comment.sol\":7761:7785  UserCommentIndexs[_user] */\n      0xffffffffffffffffffffffffffffffffffffffff\n      and\n      0xffffffffffffffffffffffffffffffffffffffff\n      and\n      dup2\n      mstore\n      0x20\n      add\n      swap1\n      dup2\n      mstore\n      0x20\n      add\n      0x00\n      keccak256\n      sload\n        /* \"contracts/AmeComponents/Comment/Comment.sol\":7761:7790  UserCommentIndexs[_user] == 0 */\n      sub\n        /* \"contracts/AmeComponents/Comment/Comment.sol\":7757:9020  if (UserCommentIndexs[_user] == 0) {... */\n      tag_114\n      jumpi\n        /* \"contracts/AmeComponents/Comment/Comment.sol\":7806:7831  string[] memory tempArray */\n      0x00\n        /* \"contracts/AmeComponents/Comment/Comment.sol\":7847:7848  0 */\n      dup1\n        /* \"contracts/AmeComponents/Comment/Comment.sol\":7834:7849  new string[](0) */\n      0xffffffffffffffff\n      dup2\n      gt\n      iszero\n      tag_115\n      jumpi\n      tag_116\n      tag_74\n      jump\t// in\n    tag_116:\n    tag_115:\n      mload(0x40)\n      swap1\n      dup1\n      dup3\n      mstore\n      dup1\n      0x20\n      mul\n      0x20\n      add\n      dup3\n      add\n      0x40\n      mstore\n      dup1\n      iszero\n      tag_117\n      jumpi\n      dup2\n      0x20\n      add\n    tag_118:\n      0x60\n      dup2\n      mstore\n      0x20\n      add\n      swap1\n      0x01\n      swap1\n      sub\n      swap1\n      dup2\n      tag_118\n      jumpi\n      swap1\n      pop\n    tag_117:\n      pop\n        /* \"contracts/AmeComponents/Comment/Comment.sol\":7806:7849  string[] memory tempArray = new string[](0) */\n      swap1\n      pop\n        /* \"contracts/AmeComponents/Comment/Comment.sol\":7870:7879  tempArray */\n      dup1\n        /* \"contracts/AmeComponents/Comment/Comment.sol\":7863:7879  return tempArray */\n      swap2\n      pop\n      pop\n      jump(tag_113)\n        /* \"contracts/AmeComponents/Comment/Comment.sol\":7757:9020  if (UserCommentIndexs[_user] == 0) {... */\n    tag_114:\n        /* \"contracts/AmeComponents/Comment/Comment.sol\":7942:7943  1 */\n      0x01\n        /* \"contracts/AmeComponents/Comment/Comment.sol\":7931:7939  _pageNum */\n      dup4\n        /* \"contracts/AmeComponents/Comment/Comment.sol\":7931:7943  _pageNum > 1 */\n      gt\n        /* \"contracts/AmeComponents/Comment/Comment.sol\":7931:8024  _pageNum > 1 &&... */\n      dup1\n      iszero\n      tag_120\n      jumpi\n      pop\n        /* \"contracts/AmeComponents/Comment/Comment.sol\":8022:8023  1 */\n      0x01\n        /* \"contracts/AmeComponents/Comment/Comment.sol\":8011:8019  _pageNum */\n      dup4\n        /* \"contracts/AmeComponents/Comment/Comment.sol\":8011:8023  _pageNum - 1 */\n      tag_121\n      swap2\n      swap1\n      tag_122\n      jump\t// in\n    tag_121:\n        /* \"contracts/AmeComponents/Comment/Comment.sol\":7997:8006  _pageSize */\n      dup3\n        /* \"contracts/AmeComponents/Comment/Comment.sol\":7992:7993  1 */\n      0x01\n        /* \"contracts/AmeComponents/Comment/Comment.sol\":7965:7982  UserCommentIndexs */\n      0x05\n        /* \"contracts/AmeComponents/Comment/Comment.sol\":7965:7989  UserCommentIndexs[_user] */\n      0x00\n        /* \"contracts/AmeComponents/Comment/Comment.sol\":7983:7988  _user */\n      dup9\n        /* \"contracts/AmeComponents/Comment/Comment.sol\":7965:7989  UserCommentIndexs[_user] */\n      0xffffffffffffffffffffffffffffffffffffffff\n      and\n      0xffffffffffffffffffffffffffffffffffffffff\n      and\n      dup2\n      mstore\n      0x20\n      add\n      swap1\n      dup2\n      mstore\n      0x20\n      add\n      0x00\n      keccak256\n      sload\n        /* \"contracts/AmeComponents/Comment/Comment.sol\":7965:7993  UserCommentIndexs[_user] - 1 */\n      tag_123\n      swap2\n      swap1\n      tag_122\n      jump\t// in\n    tag_123:\n        /* \"contracts/AmeComponents/Comment/Comment.sol\":7964:8006  (UserCommentIndexs[_user] - 1) / _pageSize */\n      tag_124\n      swap2\n      swap1\n      tag_125\n      jump\t// in\n    tag_124:\n        /* \"contracts/AmeComponents/Comment/Comment.sol\":7963:8024  ((UserCommentIndexs[_user] - 1) / _pageSize) < (_pageNum - 1) */\n      lt\n        /* \"contracts/AmeComponents/Comment/Comment.sol\":7931:8024  _pageNum > 1 &&... */\n    tag_120:\n        /* \"contracts/AmeComponents/Comment/Comment.sol\":7910:9010  if (... */\n      iszero\n      tag_126\n      jumpi\n        /* \"contracts/AmeComponents/Comment/Comment.sol\":8057:8082  string[] memory tempArray */\n      0x00\n        /* \"contracts/AmeComponents/Comment/Comment.sol\":8098:8099  0 */\n      dup1\n        /* \"contracts/AmeComponents/Comment/Comment.sol\":8085:8100  new string[](0) */\n      0xffffffffffffffff\n      dup2\n      gt\n      iszero\n      tag_127\n      jumpi\n      tag_128\n      tag_74\n      jump\t// in\n    tag_128:\n    tag_127:\n      mload(0x40)\n      swap1\n      dup1\n      dup3\n      mstore\n      dup1\n      0x20\n      mul\n      0x20\n      add\n      dup3\n      add\n      0x40\n      mstore\n      dup1\n      iszero\n      tag_129\n      jumpi\n      dup2\n      0x20\n      add\n    tag_130:\n      0x60\n      dup2\n      mstore\n      0x20\n      add\n      swap1\n      0x01\n      swap1\n      sub\n      swap1\n      dup2\n      tag_130\n      jumpi\n      swap1\n      pop\n    tag_129:\n      pop\n        /* \"contracts/AmeComponents/Comment/Comment.sol\":8057:8100  string[] memory tempArray = new string[](0) */\n      swap1\n      pop\n        /* \"contracts/AmeComponents/Comment/Comment.sol\":8125:8134  tempArray */\n      dup1\n        /* \"contracts/AmeComponents/Comment/Comment.sol\":8118:8134  return tempArray */\n      swap2\n      pop\n      pop\n      jump(tag_113)\n        /* \"contracts/AmeComponents/Comment/Comment.sol\":7910:9010  if (... */\n    tag_126:\n        /* \"contracts/AmeComponents/Comment/Comment.sol\":8173:8192  uint256 arrayLength */\n      0x00\n        /* \"contracts/AmeComponents/Comment/Comment.sol\":8210:8228  uint256 arrayIndex */\n      dup1\n        /* \"contracts/AmeComponents/Comment/Comment.sol\":8231:8232  0 */\n      0x00\n        /* \"contracts/AmeComponents/Comment/Comment.sol\":8210:8232  uint256 arrayIndex = 0 */\n      swap1\n      pop\n        /* \"contracts/AmeComponents/Comment/Comment.sol\":8251:8268  uint256 dataStart */\n      0x00\n        /* \"contracts/AmeComponents/Comment/Comment.sol\":8361:8370  _pageSize */\n      dup5\n        /* \"contracts/AmeComponents/Comment/Comment.sol\":8336:8337  1 */\n      0x01\n        /* \"contracts/AmeComponents/Comment/Comment.sol\":8325:8333  _pageNum */\n      dup8\n        /* \"contracts/AmeComponents/Comment/Comment.sol\":8325:8337  _pageNum - 1 */\n      tag_132\n      swap2\n      swap1\n      tag_122\n      jump\t// in\n    tag_132:\n        /* \"contracts/AmeComponents/Comment/Comment.sol\":8324:8370  (_pageNum - 1) *... */\n      tag_133\n      swap2\n      swap1\n      tag_134\n      jump\t// in\n    tag_133:\n        /* \"contracts/AmeComponents/Comment/Comment.sol\":8299:8300  1 */\n      0x01\n        /* \"contracts/AmeComponents/Comment/Comment.sol\":8272:8289  UserCommentIndexs */\n      0x05\n        /* \"contracts/AmeComponents/Comment/Comment.sol\":8272:8296  UserCommentIndexs[_user] */\n      0x00\n        /* \"contracts/AmeComponents/Comment/Comment.sol\":8290:8295  _user */\n      dup11\n        /* \"contracts/AmeComponents/Comment/Comment.sol\":8272:8296  UserCommentIndexs[_user] */\n      0xffffffffffffffffffffffffffffffffffffffff\n      and\n      0xffffffffffffffffffffffffffffffffffffffff\n      and\n      dup2\n      mstore\n      0x20\n      add\n      swap1\n      dup2\n      mstore\n      0x20\n      add\n      0x00\n      keccak256\n      sload\n        /* \"contracts/AmeComponents/Comment/Comment.sol\":8272:8300  UserCommentIndexs[_user] - 1 */\n      tag_135\n      swap2\n      swap1\n      tag_122\n      jump\t// in\n    tag_135:\n        /* \"contracts/AmeComponents/Comment/Comment.sol\":8271:8370  (UserCommentIndexs[_user] - 1) -... */\n      tag_136\n      swap2\n      swap1\n      tag_122\n      jump\t// in\n    tag_136:\n        /* \"contracts/AmeComponents/Comment/Comment.sol\":8251:8370  uint256 dataStart = (UserCommentIndexs[_user] - 1) -... */\n      swap1\n      pop\n        /* \"contracts/AmeComponents/Comment/Comment.sol\":8388:8403  uint256 dataEnd */\n      0x00\n        /* \"contracts/AmeComponents/Comment/Comment.sol\":8438:8447  _pageSize */\n      dup6\n        /* \"contracts/AmeComponents/Comment/Comment.sol\":8426:8435  dataStart */\n      dup3\n        /* \"contracts/AmeComponents/Comment/Comment.sol\":8426:8447  dataStart < _pageSize */\n      lt\n        /* \"contracts/AmeComponents/Comment/Comment.sol\":8422:8677  if (dataStart < _pageSize) {... */\n      iszero\n      tag_137\n      jumpi\n        /* \"contracts/AmeComponents/Comment/Comment.sol\":8481:8482  0 */\n      0x00\n        /* \"contracts/AmeComponents/Comment/Comment.sol\":8471:8482  dataEnd = 0 */\n      swap1\n      pop\n        /* \"contracts/AmeComponents/Comment/Comment.sol\":8530:8531  1 */\n      0x01\n        /* \"contracts/AmeComponents/Comment/Comment.sol\":8518:8527  dataStart */\n      dup3\n        /* \"contracts/AmeComponents/Comment/Comment.sol\":8518:8531  dataStart + 1 */\n      tag_138\n      swap2\n      swap1\n      tag_139\n      jump\t// in\n    tag_138:\n        /* \"contracts/AmeComponents/Comment/Comment.sol\":8504:8531  arrayLength = dataStart + 1 */\n      swap4\n      pop\n        /* \"contracts/AmeComponents/Comment/Comment.sol\":8422:8677  if (dataStart < _pageSize) {... */\n      jump(tag_140)\n    tag_137:\n        /* \"contracts/AmeComponents/Comment/Comment.sol\":8612:8613  1 */\n      0x01\n        /* \"contracts/AmeComponents/Comment/Comment.sol\":8600:8609  _pageSize */\n      dup7\n        /* \"contracts/AmeComponents/Comment/Comment.sol\":8588:8597  dataStart */\n      dup4\n        /* \"contracts/AmeComponents/Comment/Comment.sol\":8588:8609  dataStart - _pageSize */\n      tag_141\n      swap2\n      swap1\n      tag_122\n      jump\t// in\n    tag_141:\n        /* \"contracts/AmeComponents/Comment/Comment.sol\":8588:8613  dataStart - _pageSize + 1 */\n      tag_142\n      swap2\n      swap1\n      tag_139\n      jump\t// in\n    tag_142:\n        /* \"contracts/AmeComponents/Comment/Comment.sol\":8578:8613  dataEnd = dataStart - _pageSize + 1 */\n      swap1\n      pop\n        /* \"contracts/AmeComponents/Comment/Comment.sol\":8649:8658  _pageSize */\n      dup6\n        /* \"contracts/AmeComponents/Comment/Comment.sol\":8635:8658  arrayLength = _pageSize */\n      swap4\n      pop\n        /* \"contracts/AmeComponents/Comment/Comment.sol\":8422:8677  if (dataStart < _pageSize) {... */\n    tag_140:\n        /* \"contracts/AmeComponents/Comment/Comment.sol\":8695:8722  string[] memory returnArray */\n      0x00\n        /* \"contracts/AmeComponents/Comment/Comment.sol\":8738:8749  arrayLength */\n      dup5\n        /* \"contracts/AmeComponents/Comment/Comment.sol\":8725:8750  new string[](arrayLength) */\n      0xffffffffffffffff\n      dup2\n      gt\n      iszero\n      tag_143\n      jumpi\n      tag_144\n      tag_74\n      jump\t// in\n    tag_144:\n    tag_143:\n      mload(0x40)\n      swap1\n      dup1\n      dup3\n      mstore\n      dup1\n      0x20\n      mul\n      0x20\n      add\n      dup3\n      add\n      0x40\n      mstore\n      dup1\n      iszero\n      tag_145\n      jumpi\n      dup2\n      0x20\n      add\n    tag_146:\n      0x60\n      dup2\n      mstore\n      0x20\n      add\n      swap1\n      0x01\n      swap1\n      sub\n      swap1\n      dup2\n      tag_146\n      jumpi\n      swap1\n      pop\n    tag_145:\n      pop\n        /* \"contracts/AmeComponents/Comment/Comment.sol\":8695:8750  string[] memory returnArray = new string[](arrayLength) */\n      swap1\n      pop\n        /* \"contracts/AmeComponents/Comment/Comment.sol\":8774:8782  int256 i */\n      0x00\n        /* \"contracts/AmeComponents/Comment/Comment.sol\":8792:8801  dataStart */\n      dup4\n        /* \"contracts/AmeComponents/Comment/Comment.sol\":8774:8802  int256 i = int256(dataStart) */\n      swap1\n      pop\n        /* \"contracts/AmeComponents/Comment/Comment.sol\":8769:8960  for (int256 i = int256(dataStart); i >= int256(dataEnd); i--) {... */\n    tag_147:\n        /* \"contracts/AmeComponents/Comment/Comment.sol\":8816:8823  dataEnd */\n      dup3\n        /* \"contracts/AmeComponents/Comment/Comment.sol\":8804:8805  i */\n      dup2\n        /* \"contracts/AmeComponents/Comment/Comment.sol\":8804:8824  i >= int256(dataEnd) */\n      slt\n        /* \"contracts/AmeComponents/Comment/Comment.sol\":8769:8960  for (int256 i = int256(dataStart); i >= int256(dataEnd); i--) {... */\n      tag_148\n      jumpi\n        /* \"contracts/AmeComponents/Comment/Comment.sol\":8879:8887  Comments */\n      0x08\n        /* \"contracts/AmeComponents/Comment/Comment.sol\":8879:8899  Comments[uint256(i)] */\n      0x00\n        /* \"contracts/AmeComponents/Comment/Comment.sol\":8896:8897  i */\n      dup3\n        /* \"contracts/AmeComponents/Comment/Comment.sol\":8879:8899  Comments[uint256(i)] */\n      dup2\n      mstore\n      0x20\n      add\n      swap1\n      dup2\n      mstore\n      0x20\n      add\n      0x00\n      keccak256\n        /* \"contracts/AmeComponents/Comment/Comment.sol\":8879:8907  Comments[uint256(i)].content */\n      0x02\n      add\n        /* \"contracts/AmeComponents/Comment/Comment.sol\":8853:8907  returnArray[arrayIndex] = Comments[uint256(i)].content */\n      dup1\n      sload\n      tag_150\n      swap1\n      tag_151\n      jump\t// in\n    tag_150:\n      dup1\n      0x1f\n      add\n      0x20\n      dup1\n      swap2\n      div\n      mul\n      0x20\n      add\n      mload(0x40)\n      swap1\n      dup2\n      add\n      0x40\n      mstore\n      dup1\n      swap3\n      swap2\n      swap1\n      dup2\n      dup2\n      mstore\n      0x20\n      add\n      dup3\n      dup1\n      sload\n      tag_152\n      swap1\n      tag_151\n      jump\t// in\n    tag_152:\n      dup1\n      iszero\n      tag_153\n      jumpi\n      dup1\n      0x1f\n      lt\n      tag_154\n      jumpi\n      0x0100\n      dup1\n      dup4\n      sload\n      div\n      mul\n      dup4\n      mstore\n      swap2\n      0x20\n      add\n      swap2\n      jump(tag_153)\n    tag_154:\n      dup3\n      add\n      swap2\n      swap1\n      0x00\n      mstore\n      keccak256(0x00, 0x20)\n      swap1\n    tag_155:\n      dup2\n      sload\n      dup2\n      mstore\n      swap1\n      0x01\n      add\n      swap1\n      0x20\n      add\n      dup1\n      dup4\n      gt\n      tag_155\n      jumpi\n      dup3\n      swap1\n      sub\n      0x1f\n      and\n      dup3\n      add\n      swap2\n    tag_153:\n      pop\n      pop\n      pop\n      pop\n      pop\n        /* \"contracts/AmeComponents/Comment/Comment.sol\":8853:8864  returnArray */\n      dup3\n        /* \"contracts/AmeComponents/Comment/Comment.sol\":8865:8875  arrayIndex */\n      dup7\n        /* \"contracts/AmeComponents/Comment/Comment.sol\":8853:8876  returnArray[arrayIndex] */\n      dup2\n      mload\n      dup2\n      lt\n      tag_156\n      jumpi\n      tag_157\n      tag_78\n      jump\t// in\n    tag_157:\n    tag_156:\n      0x20\n      mul\n      0x20\n      add\n      add\n        /* \"contracts/AmeComponents/Comment/Comment.sol\":8853:8907  returnArray[arrayIndex] = Comments[uint256(i)].content */\n      dup2\n      swap1\n      mstore\n      pop\n        /* \"contracts/AmeComponents/Comment/Comment.sol\":8929:8941  arrayIndex++ */\n      dup5\n      dup1\n      tag_158\n      swap1\n      tag_159\n      jump\t// in\n    tag_158:\n      swap6\n      pop\n      pop\n        /* \"contracts/AmeComponents/Comment/Comment.sol\":8826:8829  i-- */\n      dup1\n      dup1\n      tag_160\n      swap1\n      tag_161\n      jump\t// in\n    tag_160:\n      swap2\n      pop\n      pop\n        /* \"contracts/AmeComponents/Comment/Comment.sol\":8769:8960  for (int256 i = int256(dataStart); i >= int256(dataEnd); i--) {... */\n      jump(tag_147)\n    tag_148:\n      pop\n        /* \"contracts/AmeComponents/Comment/Comment.sol\":8984:8995  returnArray */\n      dup1\n        /* \"contracts/AmeComponents/Comment/Comment.sol\":8977:8995  return returnArray */\n      swap6\n      pop\n      pop\n      pop\n      pop\n      pop\n      pop\n        /* \"contracts/AmeComponents/Comment/Comment.sol\":7597:9026  function getCommentsByAddress(... */\n    tag_113:\n      swap4\n      swap3\n      pop\n      pop\n      pop\n      jump\t// out\n        /* \"contracts/AmeComponents/Comment/Comment.sol\":5495:5724  function getMethodReqAndRes(string memory _methodName)... */\n    tag_41:\n        /* \"contracts/AmeComponents/Comment/Comment.sol\":5595:5614  Types.Type[] memory */\n      0x60\n        /* \"contracts/AmeComponents/Comment/Comment.sol\":5616:5635  Types.Type[] memory */\n      dup1\n        /* \"contracts/AmeComponents/Comment/Comment.sol\":5659:5673  methodRequests */\n      0x01\n        /* \"contracts/AmeComponents/Comment/Comment.sol\":5674:5685  _methodName */\n      dup4\n        /* \"contracts/AmeComponents/Comment/Comment.sol\":5659:5686  methodRequests[_methodName] */\n      mload(0x40)\n      tag_163\n      swap2\n      swap1\n      tag_164\n      jump\t// in\n    tag_163:\n      swap1\n      dup2\n      mstore\n      0x20\n      add\n      mload(0x40)\n      dup1\n      swap2\n      sub\n      swap1\n      keccak256\n        /* \"contracts/AmeComponents/Comment/Comment.sol\":5688:5703  methodResponses */\n      0x02\n        /* \"contracts/AmeComponents/Comment/Comment.sol\":5704:5715  _methodName */\n      dup5\n        /* \"contracts/AmeComponents/Comment/Comment.sol\":5688:5716  methodResponses[_methodName] */\n      mload(0x40)\n      tag_165\n      swap2\n      swap1\n      tag_164\n      jump\t// in\n    tag_165:\n      swap1\n      dup2\n      mstore\n      0x20\n      add\n      mload(0x40)\n      dup1\n      swap2\n      sub\n      swap1\n      keccak256\n        /* \"contracts/AmeComponents/Comment/Comment.sol\":5651:5717  return (methodRequests[_methodName], methodResponses[_methodName]) */\n      dup2\n      dup1\n      sload\n      dup1\n      0x20\n      mul\n      0x20\n      add\n      mload(0x40)\n      swap1\n      dup2\n      add\n      0x40\n      mstore\n      dup1\n      swap3\n      swap2\n      swap1\n      dup2\n      dup2\n      mstore\n      0x20\n      add\n      dup3\n      dup1\n      sload\n      dup1\n      iszero\n      tag_166\n      jumpi\n      0x20\n      mul\n      dup3\n      add\n      swap2\n      swap1\n      0x00\n      mstore\n      keccak256(0x00, 0x20)\n      swap1\n      0x00\n      swap1\n    tag_167:\n      dup3\n      dup3\n      swap1\n      sload\n      swap1\n      0x0100\n      exp\n      swap1\n      div\n      0xff\n      and\n      0xc6\n      dup2\n      gt\n      iszero\n      tag_168\n      jumpi\n      tag_169\n      tag_81\n      jump\t// in\n    tag_169:\n    tag_168:\n      dup2\n      mstore\n      0x20\n      add\n      swap1\n      0x01\n      add\n      swap1\n      0x20\n      dup3\n      0x00\n      add\n      div\n      swap3\n      dup4\n      add\n      swap3\n      0x01\n      sub\n      dup3\n      mul\n      swap2\n      pop\n      dup1\n      dup5\n      gt\n      tag_167\n      jumpi\n      swap1\n      pop\n    tag_166:\n      pop\n      pop\n      pop\n      pop\n      pop\n      swap2\n      pop\n      dup1\n      dup1\n      sload\n      dup1\n      0x20\n      mul\n      0x20\n      add\n      mload(0x40)\n      swap1\n      dup2\n      add\n      0x40\n      mstore\n      dup1\n      swap3\n      swap2\n      swap1\n      dup2\n      dup2\n      mstore\n      0x20\n      add\n      dup3\n      dup1\n      sload\n      dup1\n      iszero\n      tag_170\n      jumpi\n      0x20\n      mul\n      dup3\n      add\n      swap2\n      swap1\n      0x00\n      mstore\n      keccak256(0x00, 0x20)\n      swap1\n      0x00\n      swap1\n    tag_171:\n      dup3\n      dup3\n      swap1\n      sload\n      swap1\n      0x0100\n      exp\n      swap1\n      div\n      0xff\n      and\n      0xc6\n      dup2\n      gt\n      iszero\n      tag_172\n      jumpi\n      tag_173\n      tag_81\n      jump\t// in\n    tag_173:\n    tag_172:\n      dup2\n      mstore\n      0x20\n      add\n      swap1\n      0x01\n      add\n      swap1\n      0x20\n      dup3\n      0x00\n      add\n      div\n      swap3\n      dup4\n      add\n      swap3\n      0x01\n      sub\n      dup3\n      mul\n      swap2\n      pop\n      dup1\n      dup5\n      gt\n      tag_171\n      jumpi\n      swap1\n      pop\n    tag_170:\n      pop\n      pop\n      pop\n      pop\n      pop\n      swap1\n      pop\n      swap2\n      pop\n      swap2\n      pop\n        /* \"contracts/AmeComponents/Comment/Comment.sol\":5495:5724  function getMethodReqAndRes(string memory _methodName)... */\n      swap2\n      pop\n      swap2\n      jump\t// out\n        /* \"contracts/AmeComponents/Comment/Comment.sol\":6162:7590  function getComments(... */\n    tag_48:\n        /* \"contracts/AmeComponents/Comment/Comment.sol\":6288:6303  string[] memory */\n      0x60\n        /* \"contracts/AmeComponents/Comment/Comment.sol\":6349:6350  0 */\n      0x00\n        /* \"contracts/AmeComponents/Comment/Comment.sol\":6319:6336  VibeCommentIndexs */\n      0x04\n        /* \"contracts/AmeComponents/Comment/Comment.sol\":6319:6345  VibeCommentIndexs[_vibeId] */\n      0x00\n        /* \"contracts/AmeComponents/Comment/Comment.sol\":6337:6344  _vibeId */\n      dup7\n        /* \"contracts/AmeComponents/Comment/Comment.sol\":6319:6345  VibeCommentIndexs[_vibeId] */\n      dup2\n      mstore\n      0x20\n      add\n      swap1\n      dup2\n      mstore\n      0x20\n      add\n      0x00\n      keccak256\n      sload\n        /* \"contracts/AmeComponents/Comment/Comment.sol\":6319:6350  VibeCommentIndexs[_vibeId] == 0 */\n      sub\n        /* \"contracts/AmeComponents/Comment/Comment.sol\":6315:7584  if (VibeCommentIndexs[_vibeId] == 0) {... */\n      tag_175\n      jumpi\n        /* \"contracts/AmeComponents/Comment/Comment.sol\":6366:6391  string[] memory tempArray */\n      0x00\n        /* \"contracts/AmeComponents/Comment/Comment.sol\":6407:6408  0 */\n      dup1\n        /* \"contracts/AmeComponents/Comment/Comment.sol\":6394:6409  new string[](0) */\n      0xffffffffffffffff\n      dup2\n      gt\n      iszero\n      tag_176\n      jumpi\n      tag_177\n      tag_74\n      jump\t// in\n    tag_177:\n    tag_176:\n      mload(0x40)\n      swap1\n      dup1\n      dup3\n      mstore\n      dup1\n      0x20\n      mul\n      0x20\n      add\n      dup3\n      add\n      0x40\n      mstore\n      dup1\n      iszero\n      tag_178\n      jumpi\n      dup2\n      0x20\n      add\n    tag_179:\n      0x60\n      dup2\n      mstore\n      0x20\n      add\n      swap1\n      0x01\n      swap1\n      sub\n      swap1\n      dup2\n      tag_179\n      jumpi\n      swap1\n      pop\n    tag_178:\n      pop\n        /* \"contracts/AmeComponents/Comment/Comment.sol\":6366:6409  string[] memory tempArray = new string[](0) */\n      swap1\n      pop\n        /* \"contracts/AmeComponents/Comment/Comment.sol\":6430:6439  tempArray */\n      dup1\n        /* \"contracts/AmeComponents/Comment/Comment.sol\":6423:6439  return tempArray */\n      swap2\n      pop\n      pop\n      jump(tag_174)\n        /* \"contracts/AmeComponents/Comment/Comment.sol\":6315:7584  if (VibeCommentIndexs[_vibeId] == 0) {... */\n    tag_175:\n        /* \"contracts/AmeComponents/Comment/Comment.sol\":6502:6503  1 */\n      0x01\n        /* \"contracts/AmeComponents/Comment/Comment.sol\":6491:6499  _pageNum */\n      dup4\n        /* \"contracts/AmeComponents/Comment/Comment.sol\":6491:6503  _pageNum > 1 */\n      gt\n        /* \"contracts/AmeComponents/Comment/Comment.sol\":6491:6586  _pageNum > 1 &&... */\n      dup1\n      iszero\n      tag_181\n      jumpi\n      pop\n        /* \"contracts/AmeComponents/Comment/Comment.sol\":6584:6585  1 */\n      0x01\n        /* \"contracts/AmeComponents/Comment/Comment.sol\":6573:6581  _pageNum */\n      dup4\n        /* \"contracts/AmeComponents/Comment/Comment.sol\":6573:6585  _pageNum - 1 */\n      tag_182\n      swap2\n      swap1\n      tag_122\n      jump\t// in\n    tag_182:\n        /* \"contracts/AmeComponents/Comment/Comment.sol\":6559:6568  _pageSize */\n      dup3\n        /* \"contracts/AmeComponents/Comment/Comment.sol\":6554:6555  1 */\n      0x01\n        /* \"contracts/AmeComponents/Comment/Comment.sol\":6525:6542  VibeCommentIndexs */\n      0x04\n        /* \"contracts/AmeComponents/Comment/Comment.sol\":6525:6551  VibeCommentIndexs[_vibeId] */\n      0x00\n        /* \"contracts/AmeComponents/Comment/Comment.sol\":6543:6550  _vibeId */\n      dup9\n        /* \"contracts/AmeComponents/Comment/Comment.sol\":6525:6551  VibeCommentIndexs[_vibeId] */\n      dup2\n      mstore\n      0x20\n      add\n      swap1\n      dup2\n      mstore\n      0x20\n      add\n      0x00\n      keccak256\n      sload\n        /* \"contracts/AmeComponents/Comment/Comment.sol\":6525:6555  VibeCommentIndexs[_vibeId] - 1 */\n      tag_183\n      swap2\n      swap1\n      tag_122\n      jump\t// in\n    tag_183:\n        /* \"contracts/AmeComponents/Comment/Comment.sol\":6524:6568  (VibeCommentIndexs[_vibeId] - 1) / _pageSize */\n      tag_184\n      swap2\n      swap1\n      tag_125\n      jump\t// in\n    tag_184:\n        /* \"contracts/AmeComponents/Comment/Comment.sol\":6523:6586  ((VibeCommentIndexs[_vibeId] - 1) / _pageSize) < (_pageNum - 1) */\n      lt\n        /* \"contracts/AmeComponents/Comment/Comment.sol\":6491:6586  _pageNum > 1 &&... */\n    tag_181:\n        /* \"contracts/AmeComponents/Comment/Comment.sol\":6470:7574  if (... */\n      iszero\n      tag_185\n      jumpi\n        /* \"contracts/AmeComponents/Comment/Comment.sol\":6619:6644  string[] memory tempArray */\n      0x00\n        /* \"contracts/AmeComponents/Comment/Comment.sol\":6660:6661  0 */\n      dup1\n        /* \"contracts/AmeComponents/Comment/Comment.sol\":6647:6662  new string[](0) */\n      0xffffffffffffffff\n      dup2\n      gt\n      iszero\n      tag_186\n      jumpi\n      tag_187\n      tag_74\n      jump\t// in\n    tag_187:\n    tag_186:\n      mload(0x40)\n      swap1\n      dup1\n      dup3\n      mstore\n      dup1\n      0x20\n      mul\n      0x20\n      add\n      dup3\n      add\n      0x40\n      mstore\n      dup1\n      iszero\n      tag_188\n      jumpi\n      dup2\n      0x20\n      add\n    tag_189:\n      0x60\n      dup2\n      mstore\n      0x20\n      add\n      swap1\n      0x01\n      swap1\n      sub\n      swap1\n      dup2\n      tag_189\n      jumpi\n      swap1\n      pop\n    tag_188:\n      pop\n        /* \"contracts/AmeComponents/Comment/Comment.sol\":6619:6662  string[] memory tempArray = new string[](0) */\n      swap1\n      pop\n        /* \"contracts/AmeComponents/Comment/Comment.sol\":6687:6696  tempArray */\n      dup1\n        /* \"contracts/AmeComponents/Comment/Comment.sol\":6680:6696  return tempArray */\n      swap2\n      pop\n      pop\n      jump(tag_174)\n        /* \"contracts/AmeComponents/Comment/Comment.sol\":6470:7574  if (... */\n    tag_185:\n        /* \"contracts/AmeComponents/Comment/Comment.sol\":6735:6754  uint256 arrayLength */\n      0x00\n        /* \"contracts/AmeComponents/Comment/Comment.sol\":6772:6790  uint256 arrayIndex */\n      dup1\n        /* \"contracts/AmeComponents/Comment/Comment.sol\":6793:6794  0 */\n      0x00\n        /* \"contracts/AmeComponents/Comment/Comment.sol\":6772:6794  uint256 arrayIndex = 0 */\n      swap1\n      pop\n        /* \"contracts/AmeComponents/Comment/Comment.sol\":6813:6830  uint256 dataStart */\n      0x00\n        /* \"contracts/AmeComponents/Comment/Comment.sol\":6925:6934  _pageSize */\n      dup5\n        /* \"contracts/AmeComponents/Comment/Comment.sol\":6900:6901  1 */\n      0x01\n        /* \"contracts/AmeComponents/Comment/Comment.sol\":6889:6897  _pageNum */\n      dup8\n        /* \"contracts/AmeComponents/Comment/Comment.sol\":6889:6901  _pageNum - 1 */\n      tag_191\n      swap2\n      swap1\n      tag_122\n      jump\t// in\n    tag_191:\n        /* \"contracts/AmeComponents/Comment/Comment.sol\":6888:6934  (_pageNum - 1) *... */\n      tag_192\n      swap2\n      swap1\n      tag_134\n      jump\t// in\n    tag_192:\n        /* \"contracts/AmeComponents/Comment/Comment.sol\":6863:6864  1 */\n      0x01\n        /* \"contracts/AmeComponents/Comment/Comment.sol\":6834:6851  VibeCommentIndexs */\n      0x04\n        /* \"contracts/AmeComponents/Comment/Comment.sol\":6834:6860  VibeCommentIndexs[_vibeId] */\n      0x00\n        /* \"contracts/AmeComponents/Comment/Comment.sol\":6852:6859  _vibeId */\n      dup11\n        /* \"contracts/AmeComponents/Comment/Comment.sol\":6834:6860  VibeCommentIndexs[_vibeId] */\n      dup2\n      mstore\n      0x20\n      add\n      swap1\n      dup2\n      mstore\n      0x20\n      add\n      0x00\n      keccak256\n      sload\n        /* \"contracts/AmeComponents/Comment/Comment.sol\":6834:6864  VibeCommentIndexs[_vibeId] - 1 */\n      tag_193\n      swap2\n      swap1\n      tag_122\n      jump\t// in\n    tag_193:\n        /* \"contracts/AmeComponents/Comment/Comment.sol\":6833:6934  (VibeCommentIndexs[_vibeId] - 1) -... */\n      tag_194\n      swap2\n      swap1\n      tag_122\n      jump\t// in\n    tag_194:\n        /* \"contracts/AmeComponents/Comment/Comment.sol\":6813:6934  uint256 dataStart = (VibeCommentIndexs[_vibeId] - 1) -... */\n      swap1\n      pop\n        /* \"contracts/AmeComponents/Comment/Comment.sol\":6952:6967  uint256 dataEnd */\n      0x00\n        /* \"contracts/AmeComponents/Comment/Comment.sol\":7002:7011  _pageSize */\n      dup6\n        /* \"contracts/AmeComponents/Comment/Comment.sol\":6990:6999  dataStart */\n      dup3\n        /* \"contracts/AmeComponents/Comment/Comment.sol\":6990:7011  dataStart < _pageSize */\n      lt\n        /* \"contracts/AmeComponents/Comment/Comment.sol\":6986:7241  if (dataStart < _pageSize) {... */\n      iszero\n      tag_195\n      jumpi\n        /* \"contracts/AmeComponents/Comment/Comment.sol\":7045:7046  0 */\n      0x00\n        /* \"contracts/AmeComponents/Comment/Comment.sol\":7035:7046  dataEnd = 0 */\n      swap1\n      pop\n        /* \"contracts/AmeComponents/Comment/Comment.sol\":7094:7095  1 */\n      0x01\n        /* \"contracts/AmeComponents/Comment/Comment.sol\":7082:7091  dataStart */\n      dup3\n        /* \"contracts/AmeComponents/Comment/Comment.sol\":7082:7095  dataStart + 1 */\n      tag_196\n      swap2\n      swap1\n      tag_139\n      jump\t// in\n    tag_196:\n        /* \"contracts/AmeComponents/Comment/Comment.sol\":7068:7095  arrayLength = dataStart + 1 */\n      swap4\n      pop\n        /* \"contracts/AmeComponents/Comment/Comment.sol\":6986:7241  if (dataStart < _pageSize) {... */\n      jump(tag_197)\n    tag_195:\n        /* \"contracts/AmeComponents/Comment/Comment.sol\":7176:7177  1 */\n      0x01\n        /* \"contracts/AmeComponents/Comment/Comment.sol\":7164:7173  _pageSize */\n      dup7\n        /* \"contracts/AmeComponents/Comment/Comment.sol\":7152:7161  dataStart */\n      dup4\n        /* \"contracts/AmeComponents/Comment/Comment.sol\":7152:7173  dataStart - _pageSize */\n      tag_198\n      swap2\n      swap1\n      tag_122\n      jump\t// in\n    tag_198:\n        /* \"contracts/AmeComponents/Comment/Comment.sol\":7152:7177  dataStart - _pageSize + 1 */\n      tag_199\n      swap2\n      swap1\n      tag_139\n      jump\t// in\n    tag_199:\n        /* \"contracts/AmeComponents/Comment/Comment.sol\":7142:7177  dataEnd = dataStart - _pageSize + 1 */\n      swap1\n      pop\n        /* \"contracts/AmeComponents/Comment/Comment.sol\":7213:7222  _pageSize */\n      dup6\n        /* \"contracts/AmeComponents/Comment/Comment.sol\":7199:7222  arrayLength = _pageSize */\n      swap4\n      pop\n        /* \"contracts/AmeComponents/Comment/Comment.sol\":6986:7241  if (dataStart < _pageSize) {... */\n    tag_197:\n        /* \"contracts/AmeComponents/Comment/Comment.sol\":7259:7286  string[] memory returnArray */\n      0x00\n        /* \"contracts/AmeComponents/Comment/Comment.sol\":7302:7313  arrayLength */\n      dup5\n        /* \"contracts/AmeComponents/Comment/Comment.sol\":7289:7314  new string[](arrayLength) */\n      0xffffffffffffffff\n      dup2\n      gt\n      iszero\n      tag_200\n      jumpi\n      tag_201\n      tag_74\n      jump\t// in\n    tag_201:\n    tag_200:\n      mload(0x40)\n      swap1\n      dup1\n      dup3\n      mstore\n      dup1\n      0x20\n      mul\n      0x20\n      add\n      dup3\n      add\n      0x40\n      mstore\n      dup1\n      iszero\n      tag_202\n      jumpi\n      dup2\n      0x20\n      add\n    tag_203:\n      0x60\n      dup2\n      mstore\n      0x20\n      add\n      swap1\n      0x01\n      swap1\n      sub\n      swap1\n      dup2\n      tag_203\n      jumpi\n      swap1\n      pop\n    tag_202:\n      pop\n        /* \"contracts/AmeComponents/Comment/Comment.sol\":7259:7314  string[] memory returnArray = new string[](arrayLength) */\n      swap1\n      pop\n        /* \"contracts/AmeComponents/Comment/Comment.sol\":7338:7346  int256 i */\n      0x00\n        /* \"contracts/AmeComponents/Comment/Comment.sol\":7356:7365  dataStart */\n      dup4\n        /* \"contracts/AmeComponents/Comment/Comment.sol\":7338:7366  int256 i = int256(dataStart) */\n      swap1\n      pop\n        /* \"contracts/AmeComponents/Comment/Comment.sol\":7333:7524  for (int256 i = int256(dataStart); i >= int256(dataEnd); i--) {... */\n    tag_204:\n        /* \"contracts/AmeComponents/Comment/Comment.sol\":7380:7387  dataEnd */\n      dup3\n        /* \"contracts/AmeComponents/Comment/Comment.sol\":7368:7369  i */\n      dup2\n        /* \"contracts/AmeComponents/Comment/Comment.sol\":7368:7388  i >= int256(dataEnd) */\n      slt\n        /* \"contracts/AmeComponents/Comment/Comment.sol\":7333:7524  for (int256 i = int256(dataStart); i >= int256(dataEnd); i--) {... */\n      tag_205\n      jumpi\n        /* \"contracts/AmeComponents/Comment/Comment.sol\":7443:7451  Comments */\n      0x08\n        /* \"contracts/AmeComponents/Comment/Comment.sol\":7443:7463  Comments[uint256(i)] */\n      0x00\n        /* \"contracts/AmeComponents/Comment/Comment.sol\":7460:7461  i */\n      dup3\n        /* \"contracts/AmeComponents/Comment/Comment.sol\":7443:7463  Comments[uint256(i)] */\n      dup2\n      mstore\n      0x20\n      add\n      swap1\n      dup2\n      mstore\n      0x20\n      add\n      0x00\n      keccak256\n        /* \"contracts/AmeComponents/Comment/Comment.sol\":7443:7471  Comments[uint256(i)].content */\n      0x02\n      add\n        /* \"contracts/AmeComponents/Comment/Comment.sol\":7417:7471  returnArray[arrayIndex] = Comments[uint256(i)].content */\n      dup1\n      sload\n      tag_207\n      swap1\n      tag_151\n      jump\t// in\n    tag_207:\n      dup1\n      0x1f\n      add\n      0x20\n      dup1\n      swap2\n      div\n      mul\n      0x20\n      add\n      mload(0x40)\n      swap1\n      dup2\n      add\n      0x40\n      mstore\n      dup1\n      swap3\n      swap2\n      swap1\n      dup2\n      dup2\n      mstore\n      0x20\n      add\n      dup3\n      dup1\n      sload\n      tag_208\n      swap1\n      tag_151\n      jump\t// in\n    tag_208:\n      dup1\n      iszero\n      tag_209\n      jumpi\n      dup1\n      0x1f\n      lt\n      tag_210\n      jumpi\n      0x0100\n      dup1\n      dup4\n      sload\n      div\n      mul\n      dup4\n      mstore\n      swap2\n      0x20\n      add\n      swap2\n      jump(tag_209)\n    tag_210:\n      dup3\n      add\n      swap2\n      swap1\n      0x00\n      mstore\n      keccak256(0x00, 0x20)\n      swap1\n    tag_211:\n      dup2\n      sload\n      dup2\n      mstore\n      swap1\n      0x01\n      add\n      swap1\n      0x20\n      add\n      dup1\n      dup4\n      gt\n      tag_211\n      jumpi\n      dup3\n      swap1\n      sub\n      0x1f\n      and\n      dup3\n      add\n      swap2\n    tag_209:\n      pop\n      pop\n      pop\n      pop\n      pop\n        /* \"contracts/AmeComponents/Comment/Comment.sol\":7417:7428  returnArray */\n      dup3\n        /* \"contracts/AmeComponents/Comment/Comment.sol\":7429:7439  arrayIndex */\n      dup7\n        /* \"contracts/AmeComponents/Comment/Comment.sol\":7417:7440  returnArray[arrayIndex] */\n      dup2\n      mload\n      dup2\n      lt\n      tag_212\n      jumpi\n      tag_213\n      tag_78\n      jump\t// in\n    tag_213:\n    tag_212:\n      0x20\n      mul\n      0x20\n      add\n      add\n        /* \"contracts/AmeComponents/Comment/Comment.sol\":7417:7471  returnArray[arrayIndex] = Comments[uint256(i)].content */\n      dup2\n      swap1\n      mstore\n      pop\n        /* \"contracts/AmeComponents/Comment/Comment.sol\":7493:7505  arrayIndex++ */\n      dup5\n      dup1\n      tag_214\n      swap1\n      tag_159\n      jump\t// in\n    tag_214:\n      swap6\n      pop\n      pop\n        /* \"contracts/AmeComponents/Comment/Comment.sol\":7390:7393  i-- */\n      dup1\n      dup1\n      tag_215\n      swap1\n      tag_161\n      jump\t// in\n    tag_215:\n      swap2\n      pop\n      pop\n        /* \"contracts/AmeComponents/Comment/Comment.sol\":7333:7524  for (int256 i = int256(dataStart); i >= int256(dataEnd); i--) {... */\n      jump(tag_204)\n    tag_205:\n      pop\n        /* \"contracts/AmeComponents/Comment/Comment.sol\":7548:7559  returnArray */\n      dup1\n        /* \"contracts/AmeComponents/Comment/Comment.sol\":7541:7559  return returnArray */\n      swap6\n      pop\n      pop\n      pop\n      pop\n      pop\n      pop\n        /* \"contracts/AmeComponents/Comment/Comment.sol\":6162:7590  function getComments(... */\n    tag_174:\n      swap4\n      swap3\n      pop\n      pop\n      pop\n      jump\t// out\n        /* \"contracts/AmeComponents/Comment/Comment.sol\":2098:3443  function get(string memory _methodName, bytes memory _methodReq)... */\n    tag_54:\n        /* \"contracts/AmeComponents/Comment/Comment.sol\":2208:2220  bytes memory */\n      0x60\n        /* \"contracts/AmeComponents/Comment/Comment.sol\":2240:2281  compareStrings(_methodName, \"getComment\") */\n      tag_217\n        /* \"contracts/AmeComponents/Comment/Comment.sol\":2255:2266  _methodName */\n      dup4\n        /* \"contracts/AmeComponents/Comment/Comment.sol\":2240:2281  compareStrings(_methodName, \"getComment\") */\n      mload(0x40)\n      dup1\n      0x40\n      add\n      0x40\n      mstore\n      dup1\n      0x0a\n      dup2\n      mstore\n      0x20\n      add\n      0x676574436f6d6d656e7400000000000000000000000000000000000000000000\n      dup2\n      mstore\n      pop\n        /* \"contracts/AmeComponents/Comment/Comment.sol\":2240:2254  compareStrings */\n      tag_218\n        /* \"contracts/AmeComponents/Comment/Comment.sol\":2240:2281  compareStrings(_methodName, \"getComment\") */\n      jump\t// in\n    tag_217:\n        /* \"contracts/AmeComponents/Comment/Comment.sol\":2236:3437  if (compareStrings(_methodName, \"getComment\")) {... */\n      iszero\n      tag_219\n      jumpi\n        /* \"contracts/AmeComponents/Comment/Comment.sol\":2297:2315  uint256 _commentId */\n      0x00\n        /* \"contracts/AmeComponents/Comment/Comment.sol\":2329:2339  _methodReq */\n      dup3\n        /* \"contracts/AmeComponents/Comment/Comment.sol\":2318:2351  abi.decode(_methodReq, (uint256)) */\n      dup1\n      0x20\n      add\n      swap1\n      mload\n      dup2\n      add\n      swap1\n      tag_220\n      swap2\n      swap1\n      tag_221\n      jump\t// in\n    tag_220:\n        /* \"contracts/AmeComponents/Comment/Comment.sol\":2297:2351  uint256 _commentId = abi.decode(_methodReq, (uint256)) */\n      swap1\n      pop\n        /* \"contracts/AmeComponents/Comment/Comment.sol\":2365:2387  Comment memory comment */\n      0x00\n        /* \"contracts/AmeComponents/Comment/Comment.sol\":2390:2398  Comments */\n      0x08\n        /* \"contracts/AmeComponents/Comment/Comment.sol\":2390:2410  Comments[_commentId] */\n      0x00\n        /* \"contracts/AmeComponents/Comment/Comment.sol\":2399:2409  _commentId */\n      dup4\n        /* \"contracts/AmeComponents/Comment/Comment.sol\":2390:2410  Comments[_commentId] */\n      dup2\n      mstore\n      0x20\n      add\n      swap1\n      dup2\n      mstore\n      0x20\n      add\n      0x00\n      keccak256\n        /* \"contracts/AmeComponents/Comment/Comment.sol\":2365:2410  Comment memory comment = Comments[_commentId] */\n      mload(0x40)\n      dup1\n      0x80\n      add\n      0x40\n      mstore\n      swap1\n      dup2\n      0x00\n      dup3\n      add\n      sload\n      dup2\n      mstore\n      0x20\n      add\n      0x01\n      dup3\n      add\n      sload\n      dup2\n      mstore\n      0x20\n      add\n      0x02\n      dup3\n      add\n      dup1\n      sload\n      tag_222\n      swap1\n      tag_151\n      jump\t// in\n    tag_222:\n      dup1\n      0x1f\n      add\n      0x20\n      dup1\n      swap2\n      div\n      mul\n      0x20\n      add\n      mload(0x40)\n      swap1\n      dup2\n      add\n      0x40\n      mstore\n      dup1\n      swap3\n      swap2\n      swap1\n      dup2\n      dup2\n      mstore\n      0x20\n      add\n      dup3\n      dup1\n      sload\n      tag_223\n      swap1\n      tag_151\n      jump\t// in\n    tag_223:\n      dup1\n      iszero\n      tag_224\n      jumpi\n      dup1\n      0x1f\n      lt\n      tag_225\n      jumpi\n      0x0100\n      dup1\n      dup4\n      sload\n      div\n      mul\n      dup4\n      mstore\n      swap2\n      0x20\n      add\n      swap2\n      jump(tag_224)\n    tag_225:\n      dup3\n      add\n      swap2\n      swap1\n      0x00\n      mstore\n      keccak256(0x00, 0x20)\n      swap1\n    tag_226:\n      dup2\n      sload\n      dup2\n      mstore\n      swap1\n      0x01\n      add\n      swap1\n      0x20\n      add\n      dup1\n      dup4\n      gt\n      tag_226\n      jumpi\n      dup3\n      swap1\n      sub\n      0x1f\n      and\n      dup3\n      add\n      swap2\n    tag_224:\n      pop\n      pop\n      pop\n      pop\n      pop\n      dup2\n      mstore\n      0x20\n      add\n      0x03\n      dup3\n      add\n      0x00\n      swap1\n      sload\n      swap1\n      0x0100\n      exp\n      swap1\n      div\n      0xffffffffffffffffffffffffffffffffffffffff\n      and\n      0xffffffffffffffffffffffffffffffffffffffff\n      and\n      0xffffffffffffffffffffffffffffffffffffffff\n      and\n      dup2\n      mstore\n      pop\n      pop\n      swap1\n      pop\n        /* \"contracts/AmeComponents/Comment/Comment.sol\":2479:2486  comment */\n      dup1\n        /* \"contracts/AmeComponents/Comment/Comment.sol\":2479:2493  comment.vibeId */\n      0x00\n      add\n      mload\n        /* \"contracts/AmeComponents/Comment/Comment.sol\":2515:2522  comment */\n      dup2\n        /* \"contracts/AmeComponents/Comment/Comment.sol\":2515:2532  comment.commentId */\n      0x20\n      add\n      mload\n        /* \"contracts/AmeComponents/Comment/Comment.sol\":2554:2561  comment */\n      dup3\n        /* \"contracts/AmeComponents/Comment/Comment.sol\":2554:2569  comment.content */\n      0x40\n      add\n      mload\n        /* \"contracts/AmeComponents/Comment/Comment.sol\":2591:2598  comment */\n      dup4\n        /* \"contracts/AmeComponents/Comment/Comment.sol\":2591:2603  comment.user */\n      0x60\n      add\n      mload\n        /* \"contracts/AmeComponents/Comment/Comment.sol\":2447:2621  abi.encode(... */\n      add(0x20, mload(0x40))\n      tag_227\n      swap5\n      swap4\n      swap3\n      swap2\n      swap1\n      tag_228\n      jump\t// in\n    tag_227:\n      mload(0x40)\n      0x20\n      dup2\n      dup4\n      sub\n      sub\n      dup2\n      mstore\n      swap1\n      0x40\n      mstore\n        /* \"contracts/AmeComponents/Comment/Comment.sol\":2424:2621  return... */\n      swap3\n      pop\n      pop\n      pop\n      jump(tag_216)\n        /* \"contracts/AmeComponents/Comment/Comment.sol\":2236:3437  if (compareStrings(_methodName, \"getComment\")) {... */\n    tag_219:\n        /* \"contracts/AmeComponents/Comment/Comment.sol\":2642:2684  compareStrings(_methodName, \"getComments\") */\n      tag_230\n        /* \"contracts/AmeComponents/Comment/Comment.sol\":2657:2668  _methodName */\n      dup4\n        /* \"contracts/AmeComponents/Comment/Comment.sol\":2642:2684  compareStrings(_methodName, \"getComments\") */\n      mload(0x40)\n      dup1\n      0x40\n      add\n      0x40\n      mstore\n      dup1\n      0x0b\n      dup2\n      mstore\n      0x20\n      add\n      0x676574436f6d6d656e7473000000000000000000000000000000000000000000\n      dup2\n      mstore\n      pop\n        /* \"contracts/AmeComponents/Comment/Comment.sol\":2642:2656  compareStrings */\n      tag_218\n        /* \"contracts/AmeComponents/Comment/Comment.sol\":2642:2684  compareStrings(_methodName, \"getComments\") */\n      jump\t// in\n    tag_230:\n        /* \"contracts/AmeComponents/Comment/Comment.sol\":2638:3437  if (compareStrings(_methodName, \"getComments\")) {... */\n      iszero\n      tag_231\n      jumpi\n        /* \"contracts/AmeComponents/Comment/Comment.sol\":2701:2716  uint256 _vibeId */\n      0x00\n        /* \"contracts/AmeComponents/Comment/Comment.sol\":2718:2734  uint256 _pageNum */\n      dup1\n        /* \"contracts/AmeComponents/Comment/Comment.sol\":2736:2753  uint256 _pageSize */\n      0x00\n        /* \"contracts/AmeComponents/Comment/Comment.sol\":2785:2795  _methodReq */\n      dup5\n        /* \"contracts/AmeComponents/Comment/Comment.sol\":2757:2854  abi.decode(... */\n      dup1\n      0x20\n      add\n      swap1\n      mload\n      dup2\n      add\n      swap1\n      tag_232\n      swap2\n      swap1\n      tag_233\n      jump\t// in\n    tag_232:\n        /* \"contracts/AmeComponents/Comment/Comment.sol\":2700:2854  (uint256 _vibeId, uint256 _pageNum, uint256 _pageSize) = abi.decode(... */\n      swap3\n      pop\n      swap3\n      pop\n      swap3\n      pop\n        /* \"contracts/AmeComponents/Comment/Comment.sol\":2868:2893  string[] memory tempArray */\n      0x00\n        /* \"contracts/AmeComponents/Comment/Comment.sol\":2896:2937  getComments(_vibeId, _pageNum, _pageSize) */\n      tag_234\n        /* \"contracts/AmeComponents/Comment/Comment.sol\":2908:2915  _vibeId */\n      dup5\n        /* \"contracts/AmeComponents/Comment/Comment.sol\":2917:2925  _pageNum */\n      dup5\n        /* \"contracts/AmeComponents/Comment/Comment.sol\":2927:2936  _pageSize */\n      dup5\n        /* \"contracts/AmeComponents/Comment/Comment.sol\":2896:2907  getComments */\n      tag_48\n        /* \"contracts/AmeComponents/Comment/Comment.sol\":2896:2937  getComments(_vibeId, _pageNum, _pageSize) */\n      jump\t// in\n    tag_234:\n        /* \"contracts/AmeComponents/Comment/Comment.sol\":2868:2937  string[] memory tempArray = getComments(_vibeId, _pageNum, _pageSize) */\n      swap1\n      pop\n        /* \"contracts/AmeComponents/Comment/Comment.sol\":2969:2978  tempArray */\n      dup1\n        /* \"contracts/AmeComponents/Comment/Comment.sol\":2958:2979  abi.encode(tempArray) */\n      add(0x20, mload(0x40))\n      tag_235\n      swap2\n      swap1\n      tag_36\n      jump\t// in\n    tag_235:\n      mload(0x40)\n      0x20\n      dup2\n      dup4\n      sub\n      sub\n      dup2\n      mstore\n      swap1\n      0x40\n      mstore\n        /* \"contracts/AmeComponents/Comment/Comment.sol\":2951:2979  return abi.encode(tempArray) */\n      swap5\n      pop\n      pop\n      pop\n      pop\n      pop\n      jump(tag_216)\n        /* \"contracts/AmeComponents/Comment/Comment.sol\":2638:3437  if (compareStrings(_methodName, \"getComments\")) {... */\n    tag_231:\n        /* \"contracts/AmeComponents/Comment/Comment.sol\":3013:3064  compareStrings(_methodName, \"getCommentsByAddress\") */\n      tag_237\n        /* \"contracts/AmeComponents/Comment/Comment.sol\":3028:3039  _methodName */\n      dup4\n        /* \"contracts/AmeComponents/Comment/Comment.sol\":3013:3064  compareStrings(_methodName, \"getCommentsByAddress\") */\n      mload(0x40)\n      dup1\n      0x40\n      add\n      0x40\n      mstore\n      dup1\n      0x14\n      dup2\n      mstore\n      0x20\n      add\n      0x676574436f6d6d656e7473427941646472657373000000000000000000000000\n      dup2\n      mstore\n      pop\n        /* \"contracts/AmeComponents/Comment/Comment.sol\":3013:3027  compareStrings */\n      tag_218\n        /* \"contracts/AmeComponents/Comment/Comment.sol\":3013:3064  compareStrings(_methodName, \"getCommentsByAddress\") */\n      jump\t// in\n    tag_237:\n        /* \"contracts/AmeComponents/Comment/Comment.sol\":2996:3437  if (... */\n      iszero\n      tag_238\n      jumpi\n        /* \"contracts/AmeComponents/Comment/Comment.sol\":3090:3103  address _user */\n      0x00\n        /* \"contracts/AmeComponents/Comment/Comment.sol\":3105:3121  uint256 _pageNum */\n      dup1\n        /* \"contracts/AmeComponents/Comment/Comment.sol\":3123:3140  uint256 _pageSize */\n      0x00\n        /* \"contracts/AmeComponents/Comment/Comment.sol\":3172:3182  _methodReq */\n      dup5\n        /* \"contracts/AmeComponents/Comment/Comment.sol\":3144:3241  abi.decode(... */\n      dup1\n      0x20\n      add\n      swap1\n      mload\n      dup2\n      add\n      swap1\n      tag_239\n      swap2\n      swap1\n      tag_240\n      jump\t// in\n    tag_239:\n        /* \"contracts/AmeComponents/Comment/Comment.sol\":3089:3241  (address _user, uint256 _pageNum, uint256 _pageSize) = abi.decode(... */\n      swap3\n      pop\n      swap3\n      pop\n      swap3\n      pop\n        /* \"contracts/AmeComponents/Comment/Comment.sol\":3255:3280  string[] memory tempArray */\n      0x00\n        /* \"contracts/AmeComponents/Comment/Comment.sol\":3283:3331  getCommentsByAddress(_user, _pageNum, _pageSize) */\n      tag_241\n        /* \"contracts/AmeComponents/Comment/Comment.sol\":3304:3309  _user */\n      dup5\n        /* \"contracts/AmeComponents/Comment/Comment.sol\":3311:3319  _pageNum */\n      dup5\n        /* \"contracts/AmeComponents/Comment/Comment.sol\":3321:3330  _pageSize */\n      dup5\n        /* \"contracts/AmeComponents/Comment/Comment.sol\":3283:3303  getCommentsByAddress */\n      tag_34\n        /* \"contracts/AmeComponents/Comment/Comment.sol\":3283:3331  getCommentsByAddress(_user, _pageNum, _pageSize) */\n      jump\t// in\n    tag_241:\n        /* \"contracts/AmeComponents/Comment/Comment.sol\":3255:3331  string[] memory tempArray = getCommentsByAddress(_user, _pageNum, _pageSize) */\n      swap1\n      pop\n        /* \"contracts/AmeComponents/Comment/Comment.sol\":3363:3372  tempArray */\n      dup1\n        /* \"contracts/AmeComponents/Comment/Comment.sol\":3352:3373  abi.encode(tempArray) */\n      add(0x20, mload(0x40))\n      tag_242\n      swap2\n      swap1\n      tag_36\n      jump\t// in\n    tag_242:\n      mload(0x40)\n      0x20\n      dup2\n      dup4\n      sub\n      sub\n      dup2\n      mstore\n      swap1\n      0x40\n      mstore\n        /* \"contracts/AmeComponents/Comment/Comment.sol\":3345:3373  return abi.encode(tempArray) */\n      swap5\n      pop\n      pop\n      pop\n      pop\n      pop\n      jump(tag_216)\n        /* \"contracts/AmeComponents/Comment/Comment.sol\":2996:3437  if (... */\n    tag_238:\n        /* \"contracts/AmeComponents/Comment/Comment.sol\":3412:3426  abi.encode(\"\") */\n      add(0x20, mload(0x40))\n      tag_244\n      swap1\n      tag_245\n      jump\t// in\n    tag_244:\n      mload(0x40)\n      0x20\n      dup2\n      dup4\n      sub\n      sub\n      dup2\n      mstore\n      swap1\n      0x40\n      mstore\n        /* \"contracts/AmeComponents/Comment/Comment.sol\":3405:3426  return abi.encode(\"\") */\n      swap1\n      pop\n        /* \"contracts/AmeComponents/Comment/Comment.sol\":2098:3443  function get(string memory _methodName, bytes memory _methodReq)... */\n    tag_216:\n      swap3\n      swap2\n      pop\n      pop\n      jump\t// out\n        /* \"contracts/AmeComponents/Comment/Comment.sol\":3449:4609  function post(string memory _methodName, bytes memory _methodReq)... */\n    tag_59:\n        /* \"contracts/AmeComponents/Comment/Comment.sol\":3563:3575  bytes memory */\n      0x60\n        /* \"contracts/AmeComponents/Comment/Comment.sol\":3595:3637  compareStrings(_methodName, \"postComment\") */\n      tag_247\n        /* \"contracts/AmeComponents/Comment/Comment.sol\":3610:3621  _methodName */\n      dup4\n        /* \"contracts/AmeComponents/Comment/Comment.sol\":3595:3637  compareStrings(_methodName, \"postComment\") */\n      mload(0x40)\n      dup1\n      0x40\n      add\n      0x40\n      mstore\n      dup1\n      0x0b\n      dup2\n      mstore\n      0x20\n      add\n      0x706f7374436f6d6d656e74000000000000000000000000000000000000000000\n      dup2\n      mstore\n      pop\n        /* \"contracts/AmeComponents/Comment/Comment.sol\":3595:3609  compareStrings */\n      tag_218\n        /* \"contracts/AmeComponents/Comment/Comment.sol\":3595:3637  compareStrings(_methodName, \"postComment\") */\n      jump\t// in\n    tag_247:\n        /* \"contracts/AmeComponents/Comment/Comment.sol\":3591:4603  if (compareStrings(_methodName, \"postComment\")) {... */\n      iszero\n      tag_248\n      jumpi\n        /* \"contracts/AmeComponents/Comment/Comment.sol\":3656:3671  uint256 _vibeId */\n      0x00\n        /* \"contracts/AmeComponents/Comment/Comment.sol\":3673:3695  string memory _content */\n      dup1\n        /* \"contracts/AmeComponents/Comment/Comment.sol\":3727:3737  _methodReq */\n      dup4\n        /* \"contracts/AmeComponents/Comment/Comment.sol\":3699:3757  abi... */\n      dup1\n      0x20\n      add\n      swap1\n      mload\n      dup2\n      add\n      swap1\n      tag_249\n      swap2\n      swap1\n      tag_250\n      jump\t// in\n    tag_249:\n        /* \"contracts/AmeComponents/Comment/Comment.sol\":3655:3757  (uint256 _vibeId, string memory _content) = abi... */\n      swap2\n      pop\n      swap2\n      pop\n        /* \"contracts/AmeComponents/Comment/Comment.sol\":3772:3799  string memory encodeComment */\n      0x00\n        /* \"contracts/AmeComponents/Comment/Comment.sol\":3802:3937  generateBase64(... */\n      tag_251\n        /* \"contracts/AmeComponents/Comment/Comment.sol\":3834:3841  _vibeId */\n      dup4\n        /* \"contracts/AmeComponents/Comment/Comment.sol\":3859:3869  commentIds */\n      sload(0x03)\n        /* \"contracts/AmeComponents/Comment/Comment.sol\":3887:3895  _content */\n      dup5\n        /* \"contracts/AmeComponents/Comment/Comment.sol\":3913:3923  msg.sender */\n      caller\n        /* \"contracts/AmeComponents/Comment/Comment.sol\":3802:3816  generateBase64 */\n      tag_22\n        /* \"contracts/AmeComponents/Comment/Comment.sol\":3802:3937  generateBase64(... */\n      jump\t// in\n    tag_251:\n        /* \"contracts/AmeComponents/Comment/Comment.sol\":3772:3937  string memory encodeComment = generateBase64(... */\n      swap1\n      pop\n        /* \"contracts/AmeComponents/Comment/Comment.sol\":3952:3976  uint256 vibeCommentIndex */\n      0x00\n        /* \"contracts/AmeComponents/Comment/Comment.sol\":3979:3996  VibeCommentIndexs */\n      0x04\n        /* \"contracts/AmeComponents/Comment/Comment.sol\":3979:4005  VibeCommentIndexs[_vibeId] */\n      0x00\n        /* \"contracts/AmeComponents/Comment/Comment.sol\":3997:4004  _vibeId */\n      dup6\n        /* \"contracts/AmeComponents/Comment/Comment.sol\":3979:4005  VibeCommentIndexs[_vibeId] */\n      dup2\n      mstore\n      0x20\n      add\n      swap1\n      dup2\n      mstore\n      0x20\n      add\n      0x00\n      keccak256\n      sload\n        /* \"contracts/AmeComponents/Comment/Comment.sol\":3952:4005  uint256 vibeCommentIndex = VibeCommentIndexs[_vibeId] */\n      swap1\n      pop\n        /* \"contracts/AmeComponents/Comment/Comment.sol\":4019:4043  uint256 userCommentIndex */\n      0x00\n        /* \"contracts/AmeComponents/Comment/Comment.sol\":4046:4063  UserCommentIndexs */\n      0x05\n        /* \"contracts/AmeComponents/Comment/Comment.sol\":4046:4075  UserCommentIndexs[msg.sender] */\n      0x00\n        /* \"contracts/AmeComponents/Comment/Comment.sol\":4064:4074  msg.sender */\n      caller\n        /* \"contracts/AmeComponents/Comment/Comment.sol\":4046:4075  UserCommentIndexs[msg.sender] */\n      0xffffffffffffffffffffffffffffffffffffffff\n      and\n      0xffffffffffffffffffffffffffffffffffffffff\n      and\n      dup2\n      mstore\n      0x20\n      add\n      swap1\n      dup2\n      mstore\n      0x20\n      add\n      0x00\n      keccak256\n      sload\n        /* \"contracts/AmeComponents/Comment/Comment.sol\":4019:4075  uint256 userCommentIndex = UserCommentIndexs[msg.sender] */\n      swap1\n      pop\n        /* \"contracts/AmeComponents/Comment/Comment.sol\":4113:4246  Comment(... */\n      mload(0x40)\n      dup1\n      0x80\n      add\n      0x40\n      mstore\n      dup1\n        /* \"contracts/AmeComponents/Comment/Comment.sol\":4138:4145  _vibeId */\n      dup7\n        /* \"contracts/AmeComponents/Comment/Comment.sol\":4113:4246  Comment(... */\n      dup2\n      mstore\n      0x20\n      add\n        /* \"contracts/AmeComponents/Comment/Comment.sol\":4163:4173  commentIds */\n      sload(0x03)\n        /* \"contracts/AmeComponents/Comment/Comment.sol\":4113:4246  Comment(... */\n      dup2\n      mstore\n      0x20\n      add\n        /* \"contracts/AmeComponents/Comment/Comment.sol\":4191:4204  encodeComment */\n      dup5\n        /* \"contracts/AmeComponents/Comment/Comment.sol\":4113:4246  Comment(... */\n      dup2\n      mstore\n      0x20\n      add\n        /* \"contracts/AmeComponents/Comment/Comment.sol\":4222:4232  msg.sender */\n      caller\n        /* \"contracts/AmeComponents/Comment/Comment.sol\":4113:4246  Comment(... */\n      0xffffffffffffffffffffffffffffffffffffffff\n      and\n      dup2\n      mstore\n      pop\n        /* \"contracts/AmeComponents/Comment/Comment.sol\":4090:4098  Comments */\n      0x08\n        /* \"contracts/AmeComponents/Comment/Comment.sol\":4090:4110  Comments[commentIds] */\n      0x00\n        /* \"contracts/AmeComponents/Comment/Comment.sol\":4099:4109  commentIds */\n      sload(0x03)\n        /* \"contracts/AmeComponents/Comment/Comment.sol\":4090:4110  Comments[commentIds] */\n      dup2\n      mstore\n      0x20\n      add\n      swap1\n      dup2\n      mstore\n      0x20\n      add\n      0x00\n      keccak256\n        /* \"contracts/AmeComponents/Comment/Comment.sol\":4090:4246  Comments[commentIds] = Comment(... */\n      0x00\n      dup3\n      add\n      mload\n      dup2\n      0x00\n      add\n      sstore\n      0x20\n      dup3\n      add\n      mload\n      dup2\n      0x01\n      add\n      sstore\n      0x40\n      dup3\n      add\n      mload\n      dup2\n      0x02\n      add\n      swap1\n      dup2\n      tag_252\n      swap2\n      swap1\n      tag_253\n      jump\t// in\n    tag_252:\n      pop\n      0x60\n      dup3\n      add\n      mload\n      dup2\n      0x03\n      add\n      exp(0x0100, 0x00)\n      dup2\n      sload\n      dup2\n      0xffffffffffffffffffffffffffffffffffffffff\n      mul\n      not\n      and\n      swap1\n      dup4\n      0xffffffffffffffffffffffffffffffffffffffff\n      and\n      mul\n      or\n      swap1\n      sstore\n      pop\n      swap1\n      pop\n      pop\n        /* \"contracts/AmeComponents/Comment/Comment.sol\":4304:4314  commentIds */\n      sload(0x03)\n        /* \"contracts/AmeComponents/Comment/Comment.sol\":4260:4274  VibeCommentIds */\n      0x06\n        /* \"contracts/AmeComponents/Comment/Comment.sol\":4260:4283  VibeCommentIds[_vibeId] */\n      0x00\n        /* \"contracts/AmeComponents/Comment/Comment.sol\":4275:4282  _vibeId */\n      dup8\n        /* \"contracts/AmeComponents/Comment/Comment.sol\":4260:4283  VibeCommentIds[_vibeId] */\n      dup2\n      mstore\n      0x20\n      add\n      swap1\n      dup2\n      mstore\n      0x20\n      add\n      0x00\n      keccak256\n        /* \"contracts/AmeComponents/Comment/Comment.sol\":4260:4301  VibeCommentIds[_vibeId][vibeCommentIndex] */\n      0x00\n        /* \"contracts/AmeComponents/Comment/Comment.sol\":4284:4300  vibeCommentIndex */\n      dup5\n        /* \"contracts/AmeComponents/Comment/Comment.sol\":4260:4301  VibeCommentIds[_vibeId][vibeCommentIndex] */\n      dup2\n      mstore\n      0x20\n      add\n      swap1\n      dup2\n      mstore\n      0x20\n      add\n      0x00\n      keccak256\n        /* \"contracts/AmeComponents/Comment/Comment.sol\":4260:4314  VibeCommentIds[_vibeId][vibeCommentIndex] = commentIds */\n      dup2\n      swap1\n      sstore\n      pop\n        /* \"contracts/AmeComponents/Comment/Comment.sol\":4380:4390  commentIds */\n      sload(0x03)\n        /* \"contracts/AmeComponents/Comment/Comment.sol\":4328:4347  UserIndexCommentIds */\n      0x07\n        /* \"contracts/AmeComponents/Comment/Comment.sol\":4328:4359  UserIndexCommentIds[msg.sender] */\n      0x00\n        /* \"contracts/AmeComponents/Comment/Comment.sol\":4348:4358  msg.sender */\n      caller\n        /* \"contracts/AmeComponents/Comment/Comment.sol\":4328:4359  UserIndexCommentIds[msg.sender] */\n      0xffffffffffffffffffffffffffffffffffffffff\n      and\n      0xffffffffffffffffffffffffffffffffffffffff\n      and\n      dup2\n      mstore\n      0x20\n      add\n      swap1\n      dup2\n      mstore\n      0x20\n      add\n      0x00\n      keccak256\n        /* \"contracts/AmeComponents/Comment/Comment.sol\":4328:4377  UserIndexCommentIds[msg.sender][userCommentIndex] */\n      0x00\n        /* \"contracts/AmeComponents/Comment/Comment.sol\":4360:4376  userCommentIndex */\n      dup4\n        /* \"contracts/AmeComponents/Comment/Comment.sol\":4328:4377  UserIndexCommentIds[msg.sender][userCommentIndex] */\n      dup2\n      mstore\n      0x20\n      add\n      swap1\n      dup2\n      mstore\n      0x20\n      add\n      0x00\n      keccak256\n        /* \"contracts/AmeComponents/Comment/Comment.sol\":4328:4390  UserIndexCommentIds[msg.sender][userCommentIndex] = commentIds */\n      dup2\n      swap1\n      sstore\n      pop\n        /* \"contracts/AmeComponents/Comment/Comment.sol\":4405:4422  VibeCommentIndexs */\n      0x04\n        /* \"contracts/AmeComponents/Comment/Comment.sol\":4405:4431  VibeCommentIndexs[_vibeId] */\n      0x00\n        /* \"contracts/AmeComponents/Comment/Comment.sol\":4423:4430  _vibeId */\n      dup7\n        /* \"contracts/AmeComponents/Comment/Comment.sol\":4405:4431  VibeCommentIndexs[_vibeId] */\n      dup2\n      mstore\n      0x20\n      add\n      swap1\n      dup2\n      mstore\n      0x20\n      add\n      0x00\n      keccak256\n      0x00\n        /* \"contracts/AmeComponents/Comment/Comment.sol\":4405:4433  VibeCommentIndexs[_vibeId]++ */\n      dup2\n      sload\n      dup1\n      swap3\n      swap2\n      swap1\n      tag_254\n      swap1\n      tag_159\n      jump\t// in\n    tag_254:\n      swap2\n      swap1\n      pop\n      sstore\n      pop\n        /* \"contracts/AmeComponents/Comment/Comment.sol\":4447:4464  UserCommentIndexs */\n      0x05\n        /* \"contracts/AmeComponents/Comment/Comment.sol\":4447:4476  UserCommentIndexs[msg.sender] */\n      0x00\n        /* \"contracts/AmeComponents/Comment/Comment.sol\":4465:4475  msg.sender */\n      caller\n        /* \"contracts/AmeComponents/Comment/Comment.sol\":4447:4476  UserCommentIndexs[msg.sender] */\n      0xffffffffffffffffffffffffffffffffffffffff\n      and\n      0xffffffffffffffffffffffffffffffffffffffff\n      and\n      dup2\n      mstore\n      0x20\n      add\n      swap1\n      dup2\n      mstore\n      0x20\n      add\n      0x00\n      keccak256\n      0x00\n        /* \"contracts/AmeComponents/Comment/Comment.sol\":4447:4478  UserCommentIndexs[msg.sender]++ */\n      dup2\n      sload\n      dup1\n      swap3\n      swap2\n      swap1\n      tag_255\n      swap1\n      tag_159\n      jump\t// in\n    tag_255:\n      swap2\n      swap1\n      pop\n      sstore\n      pop\n        /* \"contracts/AmeComponents/Comment/Comment.sol\":4492:4502  commentIds */\n      0x03\n      0x00\n        /* \"contracts/AmeComponents/Comment/Comment.sol\":4492:4504  commentIds++ */\n      dup2\n      sload\n      dup1\n      swap3\n      swap2\n      swap1\n      tag_256\n      swap1\n      tag_159\n      jump\t// in\n    tag_256:\n      swap2\n      swap1\n      pop\n      sstore\n      pop\n        /* \"contracts/AmeComponents/Comment/Comment.sol\":4526:4540  abi.encode(\"\") */\n      add(0x20, mload(0x40))\n      tag_257\n      swap1\n      tag_245\n      jump\t// in\n    tag_257:\n      mload(0x40)\n      0x20\n      dup2\n      dup4\n      sub\n      sub\n      dup2\n      mstore\n      swap1\n      0x40\n      mstore\n        /* \"contracts/AmeComponents/Comment/Comment.sol\":4519:4540  return abi.encode(\"\") */\n      swap6\n      pop\n      pop\n      pop\n      pop\n      pop\n      pop\n      jump(tag_246)\n        /* \"contracts/AmeComponents/Comment/Comment.sol\":3591:4603  if (compareStrings(_methodName, \"postComment\")) {... */\n    tag_248:\n        /* \"contracts/AmeComponents/Comment/Comment.sol\":4578:4592  abi.encode(\"\") */\n      add(0x20, mload(0x40))\n      tag_259\n      swap1\n      tag_245\n      jump\t// in\n    tag_259:\n      mload(0x40)\n      0x20\n      dup2\n      dup4\n      sub\n      sub\n      dup2\n      mstore\n      swap1\n      0x40\n      mstore\n        /* \"contracts/AmeComponents/Comment/Comment.sol\":4571:4592  return abi.encode(\"\") */\n      swap1\n      pop\n        /* \"contracts/AmeComponents/Comment/Comment.sol\":3449:4609  function post(string memory _methodName, bytes memory _methodReq)... */\n    tag_246:\n      swap3\n      swap2\n      pop\n      pop\n      jump\t// out\n        /* \"contracts/AmeComponents/Comment/Comment.sol\":4615:4805  function put(string memory _methodName, bytes memory _methodReq)... */\n    tag_63:\n        /* \"contracts/AmeComponents/Comment/Comment.sol\":4728:4740  bytes memory */\n      0x60\n        /* \"contracts/AmeComponents/Comment/Comment.sol\":4774:4785  _methodName */\n      dup3\n        /* \"contracts/AmeComponents/Comment/Comment.sol\":4787:4797  _methodReq */\n      dup3\n        /* \"contracts/AmeComponents/Comment/Comment.sol\":4763:4798  abi.encode(_methodName, _methodReq) */\n      add(0x20, mload(0x40))\n      tag_261\n      swap3\n      swap2\n      swap1\n      tag_262\n      jump\t// in\n    tag_261:\n      mload(0x40)\n      0x20\n      dup2\n      dup4\n      sub\n      sub\n      dup2\n      mstore\n      swap1\n      0x40\n      mstore\n        /* \"contracts/AmeComponents/Comment/Comment.sol\":4756:4798  return abi.encode(_methodName, _methodReq) */\n      swap1\n      pop\n        /* \"contracts/AmeComponents/Comment/Comment.sol\":4615:4805  function put(string memory _methodName, bytes memory _methodReq)... */\n      swap3\n      swap2\n      pop\n      pop\n      jump\t// out\n        /* \"contracts/AmeComponents/Comment/Comment.sol\":5730:5887  function getMethods(MethodTypes _methodTypes)... */\n    tag_69:\n        /* \"contracts/AmeComponents/Comment/Comment.sol\":5821:5836  string[] memory */\n      0x60\n        /* \"contracts/AmeComponents/Comment/Comment.sol\":5859:5866  methods */\n      0x00\n        /* \"contracts/AmeComponents/Comment/Comment.sol\":5859:5880  methods[_methodTypes] */\n      dup1\n        /* \"contracts/AmeComponents/Comment/Comment.sol\":5867:5879  _methodTypes */\n      dup4\n        /* \"contracts/AmeComponents/Comment/Comment.sol\":5859:5880  methods[_methodTypes] */\n      0x03\n      dup2\n      gt\n      iszero\n      tag_264\n      jumpi\n      tag_265\n      tag_81\n      jump\t// in\n    tag_265:\n    tag_264:\n      0x03\n      dup2\n      gt\n      iszero\n      tag_266\n      jumpi\n      tag_267\n      tag_81\n      jump\t// in\n    tag_267:\n    tag_266:\n      dup2\n      mstore\n      0x20\n      add\n      swap1\n      dup2\n      mstore\n      0x20\n      add\n      0x00\n      keccak256\n        /* \"contracts/AmeComponents/Comment/Comment.sol\":5852:5880  return methods[_methodTypes] */\n      dup1\n      sload\n      dup1\n      0x20\n      mul\n      0x20\n      add\n      mload(0x40)\n      swap1\n      dup2\n      add\n      0x40\n      mstore\n      dup1\n      swap3\n      swap2\n      swap1\n      dup2\n      dup2\n      mstore\n      0x20\n      add\n      0x00\n      swap1\n    tag_268:\n      dup3\n      dup3\n      lt\n      iszero\n      tag_269\n      jumpi\n      dup4\n      dup3\n      swap1\n      0x00\n      mstore\n      keccak256(0x00, 0x20)\n      add\n      dup1\n      sload\n      tag_271\n      swap1\n      tag_151\n      jump\t// in\n    tag_271:\n      dup1\n      0x1f\n      add\n      0x20\n      dup1\n      swap2\n      div\n      mul\n      0x20\n      add\n      mload(0x40)\n      swap1\n      dup2\n      add\n      0x40\n      mstore\n      dup1\n      swap3\n      swap2\n      swap1\n      dup2\n      dup2\n      mstore\n      0x20\n      add\n      dup3\n      dup1\n      sload\n      tag_272\n      swap1\n      tag_151\n      jump\t// in\n    tag_272:\n      dup1\n      iszero\n      tag_273\n      jumpi\n      dup1\n      0x1f\n      lt\n      tag_274\n      jumpi\n      0x0100\n      dup1\n      dup4\n      sload\n      div\n      mul\n      dup4\n      mstore\n      swap2\n      0x20\n      add\n      swap2\n      jump(tag_273)\n    tag_274:\n      dup3\n      add\n      swap2\n      swap1\n      0x00\n      mstore\n      keccak256(0x00, 0x20)\n      swap1\n    tag_275:\n      dup2\n      sload\n      dup2\n      mstore\n      swap1\n      0x01\n      add\n      swap1\n      0x20\n      add\n      dup1\n      dup4\n      gt\n      tag_275\n      jumpi\n      dup3\n      swap1\n      sub\n      0x1f\n      and\n      dup3\n      add\n      swap2\n    tag_273:\n      pop\n      pop\n      pop\n      pop\n      pop\n      dup2\n      mstore\n      0x20\n      add\n      swap1\n      0x01\n      add\n      swap1\n      jump(tag_268)\n    tag_269:\n      pop\n      pop\n      pop\n      pop\n      swap1\n      pop\n        /* \"contracts/AmeComponents/Comment/Comment.sol\":5730:5887  function getMethods(MethodTypes _methodTypes)... */\n      swap2\n      swap1\n      pop\n      jump\t// out\n        /* \"contracts/AmeComponents/Comment/Strings.sol\":275:978  function toString(uint256 value) internal pure returns (string memory) {... */\n    tag_104:\n        /* \"contracts/AmeComponents/Comment/Strings.sol\":331:344  string memory */\n      0x60\n        /* \"contracts/AmeComponents/Comment/Strings.sol\":557:558  0 */\n      0x00\n        /* \"contracts/AmeComponents/Comment/Strings.sol\":548:553  value */\n      dup3\n        /* \"contracts/AmeComponents/Comment/Strings.sol\":548:558  value == 0 */\n      sub\n        /* \"contracts/AmeComponents/Comment/Strings.sol\":544:595  if (value == 0) {... */\n      tag_277\n      jumpi\n        /* \"contracts/AmeComponents/Comment/Strings.sol\":574:584  return \"0\" */\n      mload(0x40)\n      dup1\n      0x40\n      add\n      0x40\n      mstore\n      dup1\n      0x01\n      dup2\n      mstore\n      0x20\n      add\n      0x3000000000000000000000000000000000000000000000000000000000000000\n      dup2\n      mstore\n      pop\n      swap1\n      pop\n      jump(tag_276)\n        /* \"contracts/AmeComponents/Comment/Strings.sol\":544:595  if (value == 0) {... */\n    tag_277:\n        /* \"contracts/AmeComponents/Comment/Strings.sol\":604:616  uint256 temp */\n      0x00\n        /* \"contracts/AmeComponents/Comment/Strings.sol\":619:624  value */\n      dup3\n        /* \"contracts/AmeComponents/Comment/Strings.sol\":604:624  uint256 temp = value */\n      swap1\n      pop\n        /* \"contracts/AmeComponents/Comment/Strings.sol\":634:648  uint256 digits */\n      0x00\n        /* \"contracts/AmeComponents/Comment/Strings.sol\":658:733  while (temp != 0) {... */\n    tag_278:\n        /* \"contracts/AmeComponents/Comment/Strings.sol\":673:674  0 */\n      0x00\n        /* \"contracts/AmeComponents/Comment/Strings.sol\":665:669  temp */\n      dup3\n        /* \"contracts/AmeComponents/Comment/Strings.sol\":665:674  temp != 0 */\n      eq\n        /* \"contracts/AmeComponents/Comment/Strings.sol\":658:733  while (temp != 0) {... */\n      tag_279\n      jumpi\n        /* \"contracts/AmeComponents/Comment/Strings.sol\":690:698  digits++ */\n      dup1\n      dup1\n      tag_280\n      swap1\n      tag_159\n      jump\t// in\n    tag_280:\n      swap2\n      pop\n      pop\n        /* \"contracts/AmeComponents/Comment/Strings.sol\":720:722  10 */\n      0x0a\n        /* \"contracts/AmeComponents/Comment/Strings.sol\":712:722  temp /= 10 */\n      dup3\n      tag_281\n      swap2\n      swap1\n      tag_125\n      jump\t// in\n    tag_281:\n      swap2\n      pop\n        /* \"contracts/AmeComponents/Comment/Strings.sol\":658:733  while (temp != 0) {... */\n      jump(tag_278)\n    tag_279:\n        /* \"contracts/AmeComponents/Comment/Strings.sol\":742:761  bytes memory buffer */\n      0x00\n        /* \"contracts/AmeComponents/Comment/Strings.sol\":774:780  digits */\n      dup2\n        /* \"contracts/AmeComponents/Comment/Strings.sol\":764:781  new bytes(digits) */\n      0xffffffffffffffff\n      dup2\n      gt\n      iszero\n      tag_282\n      jumpi\n      tag_283\n      tag_74\n      jump\t// in\n    tag_283:\n    tag_282:\n      mload(0x40)\n      swap1\n      dup1\n      dup3\n      mstore\n      dup1\n      0x1f\n      add\n      not(0x1f)\n      and\n      0x20\n      add\n      dup3\n      add\n      0x40\n      mstore\n      dup1\n      iszero\n      tag_284\n      jumpi\n      dup2\n      0x20\n      add\n      0x01\n      dup3\n      mul\n      dup1\n      calldatasize\n      dup4\n      calldatacopy\n      dup1\n      dup3\n      add\n      swap2\n      pop\n      pop\n      swap1\n      pop\n    tag_284:\n      pop\n        /* \"contracts/AmeComponents/Comment/Strings.sol\":742:781  bytes memory buffer = new bytes(digits) */\n      swap1\n      pop\n        /* \"contracts/AmeComponents/Comment/Strings.sol\":791:941  while (value != 0) {... */\n    tag_285:\n        /* \"contracts/AmeComponents/Comment/Strings.sol\":807:808  0 */\n      0x00\n        /* \"contracts/AmeComponents/Comment/Strings.sol\":798:803  value */\n      dup6\n        /* \"contracts/AmeComponents/Comment/Strings.sol\":798:808  value != 0 */\n      eq\n        /* \"contracts/AmeComponents/Comment/Strings.sol\":791:941  while (value != 0) {... */\n      tag_286\n      jumpi\n        /* \"contracts/AmeComponents/Comment/Strings.sol\":834:835  1 */\n      0x01\n        /* \"contracts/AmeComponents/Comment/Strings.sol\":824:835  digits -= 1 */\n      dup3\n      tag_287\n      swap2\n      swap1\n      tag_122\n      jump\t// in\n    tag_287:\n      swap2\n      pop\n        /* \"contracts/AmeComponents/Comment/Strings.sol\":900:902  10 */\n      0x0a\n        /* \"contracts/AmeComponents/Comment/Strings.sol\":892:897  value */\n      dup6\n        /* \"contracts/AmeComponents/Comment/Strings.sol\":892:902  value % 10 */\n      tag_288\n      swap2\n      swap1\n      tag_289\n      jump\t// in\n    tag_288:\n        /* \"contracts/AmeComponents/Comment/Strings.sol\":879:881  48 */\n      0x30\n        /* \"contracts/AmeComponents/Comment/Strings.sol\":879:903  48 + uint256(value % 10) */\n      tag_290\n      swap2\n      swap1\n      tag_139\n      jump\t// in\n    tag_290:\n        /* \"contracts/AmeComponents/Comment/Strings.sol\":866:905  bytes1(uint8(48 + uint256(value % 10))) */\n      0xf8\n      shl\n        /* \"contracts/AmeComponents/Comment/Strings.sol\":849:855  buffer */\n      dup2\n        /* \"contracts/AmeComponents/Comment/Strings.sol\":856:862  digits */\n      dup4\n        /* \"contracts/AmeComponents/Comment/Strings.sol\":849:863  buffer[digits] */\n      dup2\n      mload\n      dup2\n      lt\n      tag_291\n      jumpi\n      tag_292\n      tag_78\n      jump\t// in\n    tag_292:\n    tag_291:\n      0x20\n      add\n      add\n        /* \"contracts/AmeComponents/Comment/Strings.sol\":849:905  buffer[digits] = bytes1(uint8(48 + uint256(value % 10))) */\n      swap1\n      not(0xffffffffffffffffffffffffffffffffffffffffffffffffffffffffffffff)\n      and\n      swap1\n      dup2\n      0x00\n      byte\n      swap1\n      mstore8\n      pop\n        /* \"contracts/AmeComponents/Comment/Strings.sol\":928:930  10 */\n      0x0a\n        /* \"contracts/AmeComponents/Comment/Strings.sol\":919:930  value /= 10 */\n      dup6\n      tag_293\n      swap2\n      swap1\n      tag_125\n      jump\t// in\n    tag_293:\n      swap5\n      pop\n        /* \"contracts/AmeComponents/Comment/Strings.sol\":791:941  while (value != 0) {... */\n      jump(tag_285)\n    tag_286:\n        /* \"contracts/AmeComponents/Comment/Strings.sol\":964:970  buffer */\n      dup1\n        /* \"contracts/AmeComponents/Comment/Strings.sol\":950:971  return string(buffer) */\n      swap4\n      pop\n      pop\n      pop\n      pop\n        /* \"contracts/AmeComponents/Comment/Strings.sol\":275:978  function toString(uint256 value) internal pure returns (string memory) {... */\n    tag_276:\n      swap2\n      swap1\n      pop\n      jump\t// out\n        /* \"contracts/AmeComponents/Comment/Base64.sol\":394:1717  function encode(bytes memory data) internal pure returns (string memory) {... */\n    tag_107:\n        /* \"contracts/AmeComponents/Comment/Base64.sol\":452:465  string memory */\n      0x60\n        /* \"contracts/AmeComponents/Comment/Base64.sol\":473:484  uint256 len */\n      0x00\n        /* \"contracts/AmeComponents/Comment/Base64.sol\":487:491  data */\n      dup3\n        /* \"contracts/AmeComponents/Comment/Base64.sol\":487:498  data.length */\n      mload\n        /* \"contracts/AmeComponents/Comment/Base64.sol\":473:498  uint256 len = data.length */\n      swap1\n      pop\n        /* \"contracts/AmeComponents/Comment/Base64.sol\":515:516  0 */\n      0x00\n        /* \"contracts/AmeComponents/Comment/Base64.sol\":508:511  len */\n      dup2\n        /* \"contracts/AmeComponents/Comment/Base64.sol\":508:516  len == 0 */\n      sub\n        /* \"contracts/AmeComponents/Comment/Base64.sol\":504:527  if (len == 0) return \"\" */\n      tag_295\n      jumpi\n        /* \"contracts/AmeComponents/Comment/Base64.sol\":518:527  return \"\" */\n      mload(0x40)\n      dup1\n      0x20\n      add\n      0x40\n      mstore\n      dup1\n      0x00\n      dup2\n      mstore\n      pop\n      swap2\n      pop\n      pop\n      jump(tag_294)\n        /* \"contracts/AmeComponents/Comment/Base64.sol\":504:527  if (len == 0) return \"\" */\n    tag_295:\n        /* \"contracts/AmeComponents/Comment/Base64.sol\":568:586  uint256 encodedLen */\n      0x00\n        /* \"contracts/AmeComponents/Comment/Base64.sol\":606:607  3 */\n      0x03\n        /* \"contracts/AmeComponents/Comment/Base64.sol\":601:602  2 */\n      0x02\n        /* \"contracts/AmeComponents/Comment/Base64.sol\":595:598  len */\n      dup4\n        /* \"contracts/AmeComponents/Comment/Base64.sol\":595:602  len + 2 */\n      tag_296\n      swap2\n      swap1\n      tag_139\n      jump\t// in\n    tag_296:\n        /* \"contracts/AmeComponents/Comment/Base64.sol\":594:607  (len + 2) / 3 */\n      tag_297\n      swap2\n      swap1\n      tag_125\n      jump\t// in\n    tag_297:\n        /* \"contracts/AmeComponents/Comment/Base64.sol\":589:590  4 */\n      0x04\n        /* \"contracts/AmeComponents/Comment/Base64.sol\":589:608  4 * ((len + 2) / 3) */\n      tag_298\n      swap2\n      swap1\n      tag_134\n      jump\t// in\n    tag_298:\n        /* \"contracts/AmeComponents/Comment/Base64.sol\":568:608  uint256 encodedLen = 4 * ((len + 2) / 3) */\n      swap1\n      pop\n        /* \"contracts/AmeComponents/Comment/Base64.sol\":655:674  bytes memory result */\n      0x00\n        /* \"contracts/AmeComponents/Comment/Base64.sol\":700:702  32 */\n      0x20\n        /* \"contracts/AmeComponents/Comment/Base64.sol\":687:697  encodedLen */\n      dup3\n        /* \"contracts/AmeComponents/Comment/Base64.sol\":687:702  encodedLen + 32 */\n      tag_299\n      swap2\n      swap1\n      tag_139\n      jump\t// in\n    tag_299:\n        /* \"contracts/AmeComponents/Comment/Base64.sol\":677:703  new bytes(encodedLen + 32) */\n      0xffffffffffffffff\n      dup2\n      gt\n      iszero\n      tag_300\n      jumpi\n      tag_301\n      tag_74\n      jump\t// in\n    tag_301:\n    tag_300:\n      mload(0x40)\n      swap1\n      dup1\n      dup3\n      mstore\n      dup1\n      0x1f\n      add\n      not(0x1f)\n      and\n      0x20\n      add\n      dup3\n      add\n      0x40\n      mstore\n      dup1\n      iszero\n      tag_302\n      jumpi\n      dup2\n      0x20\n      add\n      0x01\n      dup3\n      mul\n      dup1\n      calldatasize\n      dup4\n      calldatacopy\n      dup1\n      dup3\n      add\n      swap2\n      pop\n      pop\n      swap1\n      pop\n    tag_302:\n      pop\n        /* \"contracts/AmeComponents/Comment/Base64.sol\":655:703  bytes memory result = new bytes(encodedLen + 32) */\n      swap1\n      pop\n        /* \"contracts/AmeComponents/Comment/Base64.sol\":710:728  bytes memory table */\n      0x00\n        /* \"contracts/AmeComponents/Comment/Base64.sol\":731:736  TABLE */\n      mload(0x40)\n      dup1\n      0x60\n      add\n      0x40\n      mstore\n      dup1\n      0x40\n      dup2\n      mstore\n      0x20\n      add\n      data_84d8a590de33e00cbdc16e1f28c3506f5ec15c599fab9a6a4bcd575cc2f110ce\n      0x40\n      swap2\n      codecopy\n        /* \"contracts/AmeComponents/Comment/Base64.sol\":710:736  bytes memory table = TABLE */\n      swap1\n      pop\n        /* \"contracts/AmeComponents/Comment/Base64.sol\":787:788  1 */\n      0x01\n        /* \"contracts/AmeComponents/Comment/Base64.sol\":780:785  table */\n      dup2\n        /* \"contracts/AmeComponents/Comment/Base64.sol\":776:789  add(table, 1) */\n      add\n        /* \"contracts/AmeComponents/Comment/Base64.sol\":825:827  32 */\n      0x20\n        /* \"contracts/AmeComponents/Comment/Base64.sol\":817:823  result */\n      dup4\n        /* \"contracts/AmeComponents/Comment/Base64.sol\":813:828  add(result, 32) */\n      add\n        /* \"contracts/AmeComponents/Comment/Base64.sol\":859:860  0 */\n      0x00\n        /* \"contracts/AmeComponents/Comment/Base64.sol\":836:1471  for {... */\n    tag_303:\n        /* \"contracts/AmeComponents/Comment/Base64.sol\":875:878  len */\n      dup7\n        /* \"contracts/AmeComponents/Comment/Base64.sol\":872:873  i */\n      dup2\n        /* \"contracts/AmeComponents/Comment/Base64.sol\":869:879  lt(i, len) */\n      lt\n        /* \"contracts/AmeComponents/Comment/Base64.sol\":836:1471  for {... */\n      iszero\n      tag_305\n      jumpi\n        /* \"contracts/AmeComponents/Comment/Base64.sol\":913:914  3 */\n      0x03\n        /* \"contracts/AmeComponents/Comment/Base64.sol\":910:911  i */\n      dup2\n        /* \"contracts/AmeComponents/Comment/Base64.sol\":906:915  add(i, 3) */\n      add\n        /* \"contracts/AmeComponents/Comment/Base64.sol\":901:915  i := add(i, 3) */\n      swap1\n      pop\n        /* \"contracts/AmeComponents/Comment/Base64.sol\":962:970  0xffffff */\n      0xffffff\n        /* \"contracts/AmeComponents/Comment/Base64.sol\":957:958  i */\n      dup2\n        /* \"contracts/AmeComponents/Comment/Base64.sol\":951:955  data */\n      dup11\n        /* \"contracts/AmeComponents/Comment/Base64.sol\":947:959  add(data, i) */\n      add\n        /* \"contracts/AmeComponents/Comment/Base64.sol\":941:960  mload(add(data, i)) */\n      mload\n        /* \"contracts/AmeComponents/Comment/Base64.sol\":937:971  and(mload(add(data, i)), 0xffffff) */\n      and\n        /* \"contracts/AmeComponents/Comment/Base64.sol\":1032:1036  0x3F */\n      0x3f\n        /* \"contracts/AmeComponents/Comment/Base64.sol\":1024:1029  input */\n      dup2\n        /* \"contracts/AmeComponents/Comment/Base64.sol\":1020:1022  18 */\n      0x12\n        /* \"contracts/AmeComponents/Comment/Base64.sol\":1016:1030  shr(18, input) */\n      shr\n        /* \"contracts/AmeComponents/Comment/Base64.sol\":1012:1037  and(shr(18, input), 0x3F) */\n      and\n        /* \"contracts/AmeComponents/Comment/Base64.sol\":1002:1010  tablePtr */\n      dup5\n        /* \"contracts/AmeComponents/Comment/Base64.sol\":998:1038  add(tablePtr, and(shr(18, input), 0x3F)) */\n      add\n        /* \"contracts/AmeComponents/Comment/Base64.sol\":992:1039  mload(add(tablePtr, and(shr(18, input), 0x3F))) */\n      mload\n        /* \"contracts/AmeComponents/Comment/Base64.sol\":1062:1065  out */\n      dup1\n        /* \"contracts/AmeComponents/Comment/Base64.sol\":1059:1060  8 */\n      0x08\n        /* \"contracts/AmeComponents/Comment/Base64.sol\":1055:1066  shl(8, out) */\n      shl\n        /* \"contracts/AmeComponents/Comment/Base64.sol\":1048:1066  out := shl(8, out) */\n      swap1\n      pop\n        /* \"contracts/AmeComponents/Comment/Base64.sol\":1144:1148  0xFF */\n      0xff\n        /* \"contracts/AmeComponents/Comment/Base64.sol\":1135:1139  0x3F */\n      0x3f\n        /* \"contracts/AmeComponents/Comment/Base64.sol\":1127:1132  input */\n      dup4\n        /* \"contracts/AmeComponents/Comment/Base64.sol\":1123:1125  12 */\n      0x0c\n        /* \"contracts/AmeComponents/Comment/Base64.sol\":1119:1133  shr(12, input) */\n      shr\n        /* \"contracts/AmeComponents/Comment/Base64.sol\":1115:1140  and(shr(12, input), 0x3F) */\n      and\n        /* \"contracts/AmeComponents/Comment/Base64.sol\":1105:1113  tablePtr */\n      dup7\n        /* \"contracts/AmeComponents/Comment/Base64.sol\":1101:1141  add(tablePtr, and(shr(12, input), 0x3F)) */\n      add\n        /* \"contracts/AmeComponents/Comment/Base64.sol\":1095:1142  mload(add(tablePtr, and(shr(12, input), 0x3F))) */\n      mload\n        /* \"contracts/AmeComponents/Comment/Base64.sol\":1091:1149  and(mload(add(tablePtr, and(shr(12, input), 0x3F))), 0xFF) */\n      and\n        /* \"contracts/AmeComponents/Comment/Base64.sol\":1086:1089  out */\n      dup2\n        /* \"contracts/AmeComponents/Comment/Base64.sol\":1082:1150  add(out, and(mload(add(tablePtr, and(shr(12, input), 0x3F))), 0xFF)) */\n      add\n        /* \"contracts/AmeComponents/Comment/Base64.sol\":1075:1150  out := add(out, and(mload(add(tablePtr, and(shr(12, input), 0x3F))), 0xFF)) */\n      swap1\n      pop\n        /* \"contracts/AmeComponents/Comment/Base64.sol\":1173:1176  out */\n      dup1\n        /* \"contracts/AmeComponents/Comment/Base64.sol\":1170:1171  8 */\n      0x08\n        /* \"contracts/AmeComponents/Comment/Base64.sol\":1166:1177  shl(8, out) */\n      shl\n        /* \"contracts/AmeComponents/Comment/Base64.sol\":1159:1177  out := shl(8, out) */\n      swap1\n      pop\n        /* \"contracts/AmeComponents/Comment/Base64.sol\":1254:1258  0xFF */\n      0xff\n        /* \"contracts/AmeComponents/Comment/Base64.sol\":1245:1249  0x3F */\n      0x3f\n        /* \"contracts/AmeComponents/Comment/Base64.sol\":1237:1242  input */\n      dup4\n        /* \"contracts/AmeComponents/Comment/Base64.sol\":1234:1235  6 */\n      0x06\n        /* \"contracts/AmeComponents/Comment/Base64.sol\":1230:1243  shr(6, input) */\n      shr\n        /* \"contracts/AmeComponents/Comment/Base64.sol\":1226:1250  and(shr(6, input), 0x3F) */\n      and\n        /* \"contracts/AmeComponents/Comment/Base64.sol\":1216:1224  tablePtr */\n      dup7\n        /* \"contracts/AmeComponents/Comment/Base64.sol\":1212:1251  add(tablePtr, and(shr(6, input), 0x3F)) */\n      add\n        /* \"contracts/AmeComponents/Comment/Base64.sol\":1206:1252  mload(add(tablePtr, and(shr(6, input), 0x3F))) */\n      mload\n        /* \"contracts/AmeComponents/Comment/Base64.sol\":1202:1259  and(mload(add(tablePtr, and(shr(6, input), 0x3F))), 0xFF) */\n      and\n        /* \"contracts/AmeComponents/Comment/Base64.sol\":1197:1200  out */\n      dup2\n        /* \"contracts/AmeComponents/Comment/Base64.sol\":1193:1260  add(out, and(mload(add(tablePtr, and(shr(6, input), 0x3F))), 0xFF)) */\n      add\n        /* \"contracts/AmeComponents/Comment/Base64.sol\":1186:1260  out := add(out, and(mload(add(tablePtr, and(shr(6, input), 0x3F))), 0xFF)) */\n      swap1\n      pop\n        /* \"contracts/AmeComponents/Comment/Base64.sol\":1283:1286  out */\n      dup1\n        /* \"contracts/AmeComponents/Comment/Base64.sol\":1280:1281  8 */\n      0x08\n        /* \"contracts/AmeComponents/Comment/Base64.sol\":1276:1287  shl(8, out) */\n      shl\n        /* \"contracts/AmeComponents/Comment/Base64.sol\":1269:1287  out := shl(8, out) */\n      swap1\n      pop\n        /* \"contracts/AmeComponents/Comment/Base64.sol\":1356:1360  0xFF */\n      0xff\n        /* \"contracts/AmeComponents/Comment/Base64.sol\":1347:1351  0x3F */\n      0x3f\n        /* \"contracts/AmeComponents/Comment/Base64.sol\":1340:1345  input */\n      dup4\n        /* \"contracts/AmeComponents/Comment/Base64.sol\":1336:1352  and(input, 0x3F) */\n      and\n        /* \"contracts/AmeComponents/Comment/Base64.sol\":1326:1334  tablePtr */\n      dup7\n        /* \"contracts/AmeComponents/Comment/Base64.sol\":1322:1353  add(tablePtr, and(input, 0x3F)) */\n      add\n        /* \"contracts/AmeComponents/Comment/Base64.sol\":1316:1354  mload(add(tablePtr, and(input, 0x3F))) */\n      mload\n        /* \"contracts/AmeComponents/Comment/Base64.sol\":1312:1361  and(mload(add(tablePtr, and(input, 0x3F))), 0xFF) */\n      and\n        /* \"contracts/AmeComponents/Comment/Base64.sol\":1307:1310  out */\n      dup2\n        /* \"contracts/AmeComponents/Comment/Base64.sol\":1303:1362  add(out, and(mload(add(tablePtr, and(input, 0x3F))), 0xFF)) */\n      add\n        /* \"contracts/AmeComponents/Comment/Base64.sol\":1296:1362  out := add(out, and(mload(add(tablePtr, and(input, 0x3F))), 0xFF)) */\n      swap1\n      pop\n        /* \"contracts/AmeComponents/Comment/Base64.sol\":1387:1390  out */\n      dup1\n        /* \"contracts/AmeComponents/Comment/Base64.sol\":1382:1385  224 */\n      0xe0\n        /* \"contracts/AmeComponents/Comment/Base64.sol\":1378:1391  shl(224, out) */\n      shl\n        /* \"contracts/AmeComponents/Comment/Base64.sol\":1371:1391  out := shl(224, out) */\n      swap1\n      pop\n        /* \"contracts/AmeComponents/Comment/Base64.sol\":1419:1422  out */\n      dup1\n        /* \"contracts/AmeComponents/Comment/Base64.sol\":1408:1417  resultPtr */\n      dup5\n        /* \"contracts/AmeComponents/Comment/Base64.sol\":1401:1423  mstore(resultPtr, out) */\n      mstore\n        /* \"contracts/AmeComponents/Comment/Base64.sol\":1461:1462  4 */\n      0x04\n        /* \"contracts/AmeComponents/Comment/Base64.sol\":1450:1459  resultPtr */\n      dup5\n        /* \"contracts/AmeComponents/Comment/Base64.sol\":1446:1463  add(resultPtr, 4) */\n      add\n        /* \"contracts/AmeComponents/Comment/Base64.sol\":1433:1463  resultPtr := add(resultPtr, 4) */\n      swap4\n      pop\n        /* \"contracts/AmeComponents/Comment/Base64.sol\":891:1471  {... */\n      pop\n      pop\n        /* \"contracts/AmeComponents/Comment/Base64.sol\":836:1471  for {... */\n      jump(tag_303)\n    tag_305:\n        /* \"contracts/AmeComponents/Comment/Base64.sol\":840:868  {... */\n      pop\n        /* \"contracts/AmeComponents/Comment/Base64.sol\":1495:1496  3 */\n      0x03\n        /* \"contracts/AmeComponents/Comment/Base64.sol\":1490:1493  len */\n      dup7\n        /* \"contracts/AmeComponents/Comment/Base64.sol\":1486:1497  mod(len, 3) */\n      mod\n        /* \"contracts/AmeComponents/Comment/Base64.sol\":1509:1510  1 */\n      0x01\n        /* \"contracts/AmeComponents/Comment/Base64.sol\":1504:1572  case 1 {... */\n      dup2\n      eq\n      tag_307\n      jumpi\n        /* \"contracts/AmeComponents/Comment/Base64.sol\":1584:1585  2 */\n      0x02\n        /* \"contracts/AmeComponents/Comment/Base64.sol\":1579:1645  case 2 {... */\n      dup2\n      eq\n      tag_308\n      jumpi\n        /* \"contracts/AmeComponents/Comment/Base64.sol\":1479:1645  switch mod(len, 3)... */\n      jump(tag_306)\n        /* \"contracts/AmeComponents/Comment/Base64.sol\":1504:1572  case 1 {... */\n    tag_307:\n        /* \"contracts/AmeComponents/Comment/Base64.sol\":1556:1562  0x3d3d */\n      0x3d3d\n        /* \"contracts/AmeComponents/Comment/Base64.sol\":1551:1554  240 */\n      0xf0\n        /* \"contracts/AmeComponents/Comment/Base64.sol\":1547:1563  shl(240, 0x3d3d) */\n      shl\n        /* \"contracts/AmeComponents/Comment/Base64.sol\":1543:1544  2 */\n      0x02\n        /* \"contracts/AmeComponents/Comment/Base64.sol\":1532:1541  resultPtr */\n      dup4\n        /* \"contracts/AmeComponents/Comment/Base64.sol\":1528:1545  sub(resultPtr, 2) */\n      sub\n        /* \"contracts/AmeComponents/Comment/Base64.sol\":1521:1564  mstore(sub(resultPtr, 2), shl(240, 0x3d3d)) */\n      mstore\n        /* \"contracts/AmeComponents/Comment/Base64.sol\":1504:1572  case 1 {... */\n      jump(tag_306)\n        /* \"contracts/AmeComponents/Comment/Base64.sol\":1579:1645  case 2 {... */\n    tag_308:\n        /* \"contracts/AmeComponents/Comment/Base64.sol\":1631:1635  0x3d */\n      0x3d\n        /* \"contracts/AmeComponents/Comment/Base64.sol\":1626:1629  248 */\n      0xf8\n        /* \"contracts/AmeComponents/Comment/Base64.sol\":1622:1636  shl(248, 0x3d) */\n      shl\n        /* \"contracts/AmeComponents/Comment/Base64.sol\":1618:1619  1 */\n      0x01\n        /* \"contracts/AmeComponents/Comment/Base64.sol\":1607:1616  resultPtr */\n      dup4\n        /* \"contracts/AmeComponents/Comment/Base64.sol\":1603:1620  sub(resultPtr, 1) */\n      sub\n        /* \"contracts/AmeComponents/Comment/Base64.sol\":1596:1637  mstore(sub(resultPtr, 1), shl(248, 0x3d)) */\n      mstore\n        /* \"contracts/AmeComponents/Comment/Base64.sol\":1479:1645  switch mod(len, 3)... */\n    tag_306:\n      pop\n        /* \"contracts/AmeComponents/Comment/Base64.sol\":1668:1678  encodedLen */\n      dup5\n        /* \"contracts/AmeComponents/Comment/Base64.sol\":1660:1666  result */\n      dup5\n        /* \"contracts/AmeComponents/Comment/Base64.sol\":1653:1679  mstore(result, encodedLen) */\n      mstore\n        /* \"contracts/AmeComponents/Comment/Base64.sol\":752:1685  {... */\n      pop\n      pop\n        /* \"contracts/AmeComponents/Comment/Base64.sol\":1705:1711  result */\n      dup2\n        /* \"contracts/AmeComponents/Comment/Base64.sol\":1691:1712  return string(result) */\n      swap5\n      pop\n      pop\n      pop\n      pop\n      pop\n        /* \"contracts/AmeComponents/Comment/Base64.sol\":394:1717  function encode(bytes memory data) internal pure returns (string memory) {... */\n    tag_294:\n      swap2\n      swap1\n      pop\n      jump\t// out\n        /* \"contracts/AmeComponents/Comment/Strings.sol\":1535:1976  function toHexString(uint256 value, uint256 length) internal pure returns (string memory) {... */\n    tag_109:\n        /* \"contracts/AmeComponents/Comment/Strings.sol\":1610:1623  string memory */\n      0x60\n        /* \"contracts/AmeComponents/Comment/Strings.sol\":1635:1654  bytes memory buffer */\n      0x00\n        /* \"contracts/AmeComponents/Comment/Strings.sol\":1680:1681  2 */\n      0x02\n        /* \"contracts/AmeComponents/Comment/Strings.sol\":1671:1677  length */\n      dup4\n        /* \"contracts/AmeComponents/Comment/Strings.sol\":1667:1668  2 */\n      0x02\n        /* \"contracts/AmeComponents/Comment/Strings.sol\":1667:1677  2 * length */\n      tag_310\n      swap2\n      swap1\n      tag_134\n      jump\t// in\n    tag_310:\n        /* \"contracts/AmeComponents/Comment/Strings.sol\":1667:1681  2 * length + 2 */\n      tag_311\n      swap2\n      swap1\n      tag_139\n      jump\t// in\n    tag_311:\n        /* \"contracts/AmeComponents/Comment/Strings.sol\":1657:1682  new bytes(2 * length + 2) */\n      0xffffffffffffffff\n      dup2\n      gt\n      iszero\n      tag_312\n      jumpi\n      tag_313\n      tag_74\n      jump\t// in\n    tag_313:\n    tag_312:\n      mload(0x40)\n      swap1\n      dup1\n      dup3\n      mstore\n      dup1\n      0x1f\n      add\n      not(0x1f)\n      and\n      0x20\n      add\n      dup3\n      add\n      0x40\n      mstore\n      dup1\n      iszero\n      tag_314\n      jumpi\n      dup2\n      0x20\n      add\n      0x01\n      dup3\n      mul\n      dup1\n      calldatasize\n      dup4\n      calldatacopy\n      dup1\n      dup3\n      add\n      swap2\n      pop\n      pop\n      swap1\n      pop\n    tag_314:\n      pop\n        /* \"contracts/AmeComponents/Comment/Strings.sol\":1635:1682  bytes memory buffer = new bytes(2 * length + 2) */\n      swap1\n      pop\n        /* \"contracts/AmeComponents/Comment/Strings.sol\":1692:1707  buffer[0] = \"0\" */\n      0x3000000000000000000000000000000000000000000000000000000000000000\n        /* \"contracts/AmeComponents/Comment/Strings.sol\":1692:1698  buffer */\n      dup2\n        /* \"contracts/AmeComponents/Comment/Strings.sol\":1699:1700  0 */\n      0x00\n        /* \"contracts/AmeComponents/Comment/Strings.sol\":1692:1701  buffer[0] */\n      dup2\n      mload\n      dup2\n      lt\n      tag_315\n      jumpi\n      tag_316\n      tag_78\n      jump\t// in\n    tag_316:\n    tag_315:\n      0x20\n      add\n      add\n        /* \"contracts/AmeComponents/Comment/Strings.sol\":1692:1707  buffer[0] = \"0\" */\n      swap1\n      not(0xffffffffffffffffffffffffffffffffffffffffffffffffffffffffffffff)\n      and\n      swap1\n      dup2\n      0x00\n      byte\n      swap1\n      mstore8\n      pop\n        /* \"contracts/AmeComponents/Comment/Strings.sol\":1717:1732  buffer[1] = \"x\" */\n      0x7800000000000000000000000000000000000000000000000000000000000000\n        /* \"contracts/AmeComponents/Comment/Strings.sol\":1717:1723  buffer */\n      dup2\n        /* \"contracts/AmeComponents/Comment/Strings.sol\":1724:1725  1 */\n      0x01\n        /* \"contracts/AmeComponents/Comment/Strings.sol\":1717:1726  buffer[1] */\n      dup2\n      mload\n      dup2\n      lt\n      tag_317\n      jumpi\n      tag_318\n      tag_78\n      jump\t// in\n    tag_318:\n    tag_317:\n      0x20\n      add\n      add\n        /* \"contracts/AmeComponents/Comment/Strings.sol\":1717:1732  buffer[1] = \"x\" */\n      swap1\n      not(0xffffffffffffffffffffffffffffffffffffffffffffffffffffffffffffff)\n      and\n      swap1\n      dup2\n      0x00\n      byte\n      swap1\n      mstore8\n      pop\n        /* \"contracts/AmeComponents/Comment/Strings.sol\":1747:1756  uint256 i */\n      0x00\n        /* \"contracts/AmeComponents/Comment/Strings.sol\":1772:1773  1 */\n      0x01\n        /* \"contracts/AmeComponents/Comment/Strings.sol\":1763:1769  length */\n      dup5\n        /* \"contracts/AmeComponents/Comment/Strings.sol\":1759:1760  2 */\n      0x02\n        /* \"contracts/AmeComponents/Comment/Strings.sol\":1759:1769  2 * length */\n      tag_322\n      swap2\n      swap1\n      tag_134\n      jump\t// in\n    tag_322:\n        /* \"contracts/AmeComponents/Comment/Strings.sol\":1759:1773  2 * length + 1 */\n      tag_323\n      swap2\n      swap1\n      tag_139\n      jump\t// in\n    tag_323:\n        /* \"contracts/AmeComponents/Comment/Strings.sol\":1747:1773  uint256 i = 2 * length + 1 */\n      swap1\n      pop\n        /* \"contracts/AmeComponents/Comment/Strings.sol\":1742:1874  for (uint256 i = 2 * length + 1; i > 1; --i) {... */\n    tag_319:\n        /* \"contracts/AmeComponents/Comment/Strings.sol\":1779:1780  1 */\n      0x01\n        /* \"contracts/AmeComponents/Comment/Strings.sol\":1775:1776  i */\n      dup2\n        /* \"contracts/AmeComponents/Comment/Strings.sol\":1775:1780  i > 1 */\n      gt\n        /* \"contracts/AmeComponents/Comment/Strings.sol\":1742:1874  for (uint256 i = 2 * length + 1; i > 1; --i) {... */\n      iszero\n      tag_320\n      jumpi\n        /* \"contracts/AmeComponents/Comment/Strings.sol\":1813:1825  _HEX_SYMBOLS */\n      0x3031323334353637383961626364656600000000000000000000000000000000\n        /* \"contracts/AmeComponents/Comment/Strings.sol\":1834:1837  0xf */\n      0x0f\n        /* \"contracts/AmeComponents/Comment/Strings.sol\":1826:1831  value */\n      dup7\n        /* \"contracts/AmeComponents/Comment/Strings.sol\":1826:1837  value & 0xf */\n      and\n        /* \"contracts/AmeComponents/Comment/Strings.sol\":1813:1838  _HEX_SYMBOLS[value & 0xf] */\n      0x10\n      dup2\n      lt\n      tag_324\n      jumpi\n      tag_325\n      tag_78\n      jump\t// in\n    tag_325:\n    tag_324:\n      byte\n      0xf8\n      shl\n        /* \"contracts/AmeComponents/Comment/Strings.sol\":1801:1807  buffer */\n      dup3\n        /* \"contracts/AmeComponents/Comment/Strings.sol\":1808:1809  i */\n      dup3\n        /* \"contracts/AmeComponents/Comment/Strings.sol\":1801:1810  buffer[i] */\n      dup2\n      mload\n      dup2\n      lt\n      tag_326\n      jumpi\n      tag_327\n      tag_78\n      jump\t// in\n    tag_327:\n    tag_326:\n      0x20\n      add\n      add\n        /* \"contracts/AmeComponents/Comment/Strings.sol\":1801:1838  buffer[i] = _HEX_SYMBOLS[value & 0xf] */\n      swap1\n      not(0xffffffffffffffffffffffffffffffffffffffffffffffffffffffffffffff)\n      and\n      swap1\n      dup2\n      0x00\n      byte\n      swap1\n      mstore8\n      pop\n        /* \"contracts/AmeComponents/Comment/Strings.sol\":1862:1863  4 */\n      0x04\n        /* \"contracts/AmeComponents/Comment/Strings.sol\":1852:1863  value >>= 4 */\n      dup6\n      swap1\n      shr\n      swap5\n      pop\n        /* \"contracts/AmeComponents/Comment/Strings.sol\":1782:1785  --i */\n      dup1\n      tag_328\n      swap1\n      tag_329\n      jump\t// in\n    tag_328:\n      swap1\n      pop\n        /* \"contracts/AmeComponents/Comment/Strings.sol\":1742:1874  for (uint256 i = 2 * length + 1; i > 1; --i) {... */\n      jump(tag_319)\n    tag_320:\n      pop\n        /* \"contracts/AmeComponents/Comment/Strings.sol\":1900:1901  0 */\n      0x00\n        /* \"contracts/AmeComponents/Comment/Strings.sol\":1891:1896  value */\n      dup5\n        /* \"contracts/AmeComponents/Comment/Strings.sol\":1891:1901  value == 0 */\n      eq\n        /* \"contracts/AmeComponents/Comment/Strings.sol\":1883:1938  require(value == 0, \"Strings: hex length insufficient\") */\n      tag_330\n      jumpi\n      mload(0x40)\n      0x08c379a000000000000000000000000000000000000000000000000000000000\n      dup2\n      mstore\n      0x04\n      add\n      tag_331\n      swap1\n      tag_332\n      jump\t// in\n    tag_331:\n      mload(0x40)\n      dup1\n      swap2\n      sub\n      swap1\n      revert\n    tag_330:\n        /* \"contracts/AmeComponents/Comment/Strings.sol\":1962:1968  buffer */\n      dup1\n        /* \"contracts/AmeComponents/Comment/Strings.sol\":1948:1969  return string(buffer) */\n      swap2\n      pop\n      pop\n        /* \"contracts/AmeComponents/Comment/Strings.sol\":1535:1976  function toHexString(uint256 value, uint256 length) internal pure returns (string memory) {... */\n      swap3\n      swap2\n      pop\n      pop\n      jump\t// out\n        /* \"contracts/AmeComponents/Comment/Comment.sol\":5938:6156  function compareStrings(string memory _a, string memory _b)... */\n    tag_218:\n        /* \"contracts/AmeComponents/Comment/Comment.sol\":6044:6048  bool */\n      0x00\n        /* \"contracts/AmeComponents/Comment/Comment.sol\":6145:6147  _b */\n      dup2\n        /* \"contracts/AmeComponents/Comment/Comment.sol\":6128:6148  abi.encodePacked(_b) */\n      add(0x20, mload(0x40))\n      tag_334\n      swap2\n      swap1\n      tag_164\n      jump\t// in\n    tag_334:\n      mload(0x40)\n      0x20\n      dup2\n      dup4\n      sub\n      sub\n      dup2\n      mstore\n      swap1\n      0x40\n      mstore\n        /* \"contracts/AmeComponents/Comment/Comment.sol\":6118:6149  keccak256(abi.encodePacked(_b)) */\n      dup1\n      mload\n      swap1\n      0x20\n      add\n      keccak256\n        /* \"contracts/AmeComponents/Comment/Comment.sol\":6110:6112  _a */\n      dup4\n        /* \"contracts/AmeComponents/Comment/Comment.sol\":6093:6113  abi.encodePacked(_a) */\n      add(0x20, mload(0x40))\n      tag_335\n      swap2\n      swap1\n      tag_164\n      jump\t// in\n    tag_335:\n      mload(0x40)\n      0x20\n      dup2\n      dup4\n      sub\n      sub\n      dup2\n      mstore\n      swap1\n      0x40\n      mstore\n        /* \"contracts/AmeComponents/Comment/Comment.sol\":6083:6114  keccak256(abi.encodePacked(_a)) */\n      dup1\n      mload\n      swap1\n      0x20\n      add\n      keccak256\n        /* \"contracts/AmeComponents/Comment/Comment.sol\":6083:6149  keccak256(abi.encodePacked(_a)) == keccak256(abi.encodePacked(_b)) */\n      eq\n        /* \"contracts/AmeComponents/Comment/Comment.sol\":6064:6149  return... */\n      swap1\n      pop\n        /* \"contracts/AmeComponents/Comment/Comment.sol\":5938:6156  function compareStrings(string memory _a, string memory _b)... */\n      swap3\n      swap2\n      pop\n      pop\n      jump\t// out\n        /* \"#utility.yul\":7:134   */\n    tag_336:\n        /* \"#utility.yul\":87:93   */\n      0x00\n        /* \"#utility.yul\":121:126   */\n      dup2\n        /* \"#utility.yul\":115:127   */\n      mload\n        /* \"#utility.yul\":105:127   */\n      swap1\n      pop\n        /* \"#utility.yul\":7:134   */\n      swap2\n      swap1\n      pop\n      jump\t// out\n        /* \"#utility.yul\":140:322   */\n    tag_337:\n        /* \"#utility.yul\":237:248   */\n      0x00\n        /* \"#utility.yul\":271:277   */\n      dup3\n        /* \"#utility.yul\":266:269   */\n      dup3\n        /* \"#utility.yul\":259:278   */\n      mstore\n        /* \"#utility.yul\":311:315   */\n      0x20\n        /* \"#utility.yul\":306:309   */\n      dup3\n        /* \"#utility.yul\":302:316   */\n      add\n        /* \"#utility.yul\":287:316   */\n      swap1\n      pop\n        /* \"#utility.yul\":140:322   */\n      swap3\n      swap2\n      pop\n      pop\n      jump\t// out\n        /* \"#utility.yul\":328:473   */\n    tag_338:\n        /* \"#utility.yul\":408:412   */\n      0x00\n        /* \"#utility.yul\":431:434   */\n      dup2\n        /* \"#utility.yul\":423:434   */\n      swap1\n      pop\n        /* \"#utility.yul\":461:465   */\n      0x20\n        /* \"#utility.yul\":456:459   */\n      dup3\n        /* \"#utility.yul\":452:466   */\n      add\n        /* \"#utility.yul\":444:466   */\n      swap1\n      pop\n        /* \"#utility.yul\":328:473   */\n      swap2\n      swap1\n      pop\n      jump\t// out\n        /* \"#utility.yul\":479:659   */\n    tag_81:\n        /* \"#utility.yul\":527:604   */\n      0x4e487b7100000000000000000000000000000000000000000000000000000000\n        /* \"#utility.yul\":524:525   */\n      0x00\n        /* \"#utility.yul\":517:605   */\n      mstore\n        /* \"#utility.yul\":624:628   */\n      0x21\n        /* \"#utility.yul\":621:622   */\n      0x04\n        /* \"#utility.yul\":614:629   */\n      mstore\n        /* \"#utility.yul\":648:652   */\n      0x24\n        /* \"#utility.yul\":645:646   */\n      0x00\n        /* \"#utility.yul\":638:653   */\n      revert\n        /* \"#utility.yul\":665:783   */\n    tag_339:\n        /* \"#utility.yul\":751:752   */\n      0x04\n        /* \"#utility.yul\":744:749   */\n      dup2\n        /* \"#utility.yul\":741:753   */\n      lt\n        /* \"#utility.yul\":731:777   */\n      tag_435\n      jumpi\n        /* \"#utility.yul\":757:775   */\n      tag_436\n      tag_81\n      jump\t// in\n    tag_436:\n        /* \"#utility.yul\":731:777   */\n    tag_435:\n        /* \"#utility.yul\":665:783   */\n      pop\n      jump\t// out\n        /* \"#utility.yul\":789:926   */\n    tag_340:\n        /* \"#utility.yul\":839:846   */\n      0x00\n        /* \"#utility.yul\":868:873   */\n      dup2\n        /* \"#utility.yul\":857:873   */\n      swap1\n      pop\n        /* \"#utility.yul\":874:920   */\n      tag_438\n        /* \"#utility.yul\":914:919   */\n      dup3\n        /* \"#utility.yul\":874:920   */\n      tag_339\n      jump\t// in\n    tag_438:\n        /* \"#utility.yul\":789:926   */\n      swap2\n      swap1\n      pop\n      jump\t// out\n        /* \"#utility.yul\":932:1069   */\n    tag_341:\n        /* \"#utility.yul\":993:1002   */\n      0x00\n        /* \"#utility.yul\":1026:1063   */\n      tag_440\n        /* \"#utility.yul\":1057:1062   */\n      dup3\n        /* \"#utility.yul\":1026:1063   */\n      tag_340\n      jump\t// in\n    tag_440:\n        /* \"#utility.yul\":1013:1063   */\n      swap1\n      pop\n        /* \"#utility.yul\":932:1069   */\n      swap2\n      swap1\n      pop\n      jump\t// out\n        /* \"#utility.yul\":1075:1218   */\n    tag_342:\n        /* \"#utility.yul\":1163:1211   */\n      tag_442\n        /* \"#utility.yul\":1205:1210   */\n      dup2\n        /* \"#utility.yul\":1163:1211   */\n      tag_341\n      jump\t// in\n    tag_442:\n        /* \"#utility.yul\":1158:1161   */\n      dup3\n        /* \"#utility.yul\":1151:1212   */\n      mstore\n        /* \"#utility.yul\":1075:1218   */\n      pop\n      pop\n      jump\t// out\n        /* \"#utility.yul\":1224:1425   */\n    tag_343:\n        /* \"#utility.yul\":1304:1314   */\n      0x00\n        /* \"#utility.yul\":1325:1382   */\n      tag_444\n        /* \"#utility.yul\":1378:1381   */\n      dup4\n        /* \"#utility.yul\":1370:1376   */\n      dup4\n        /* \"#utility.yul\":1325:1382   */\n      tag_342\n      jump\t// in\n    tag_444:\n        /* \"#utility.yul\":1414:1418   */\n      0x20\n        /* \"#utility.yul\":1409:1412   */\n      dup4\n        /* \"#utility.yul\":1405:1419   */\n      add\n        /* \"#utility.yul\":1391:1419   */\n      swap1\n      pop\n        /* \"#utility.yul\":1224:1425   */\n      swap3\n      swap2\n      pop\n      pop\n      jump\t// out\n        /* \"#utility.yul\":1431:1557   */\n    tag_344:\n        /* \"#utility.yul\":1514:1518   */\n      0x00\n        /* \"#utility.yul\":1546:1550   */\n      0x20\n        /* \"#utility.yul\":1541:1544   */\n      dup3\n        /* \"#utility.yul\":1537:1551   */\n      add\n        /* \"#utility.yul\":1529:1551   */\n      swap1\n      pop\n        /* \"#utility.yul\":1431:1557   */\n      swap2\n      swap1\n      pop\n      jump\t// out\n        /* \"#utility.yul\":1611:2402   */\n    tag_345:\n        /* \"#utility.yul\":1741:1744   */\n      0x00\n        /* \"#utility.yul\":1770:1837   */\n      tag_447\n        /* \"#utility.yul\":1831:1836   */\n      dup3\n        /* \"#utility.yul\":1770:1837   */\n      tag_336\n      jump\t// in\n    tag_447:\n        /* \"#utility.yul\":1853:1937   */\n      tag_448\n        /* \"#utility.yul\":1930:1936   */\n      dup2\n        /* \"#utility.yul\":1925:1928   */\n      dup6\n        /* \"#utility.yul\":1853:1937   */\n      tag_337\n      jump\t// in\n    tag_448:\n        /* \"#utility.yul\":1846:1937   */\n      swap4\n      pop\n        /* \"#utility.yul\":1961:2030   */\n      tag_449\n        /* \"#utility.yul\":2024:2029   */\n      dup4\n        /* \"#utility.yul\":1961:2030   */\n      tag_338\n      jump\t// in\n    tag_449:\n        /* \"#utility.yul\":2053:2060   */\n      dup1\n        /* \"#utility.yul\":2084:2085   */\n      0x00\n        /* \"#utility.yul\":2069:2377   */\n    tag_450:\n        /* \"#utility.yul\":2094:2100   */\n      dup4\n        /* \"#utility.yul\":2091:2092   */\n      dup2\n        /* \"#utility.yul\":2088:2101   */\n      lt\n        /* \"#utility.yul\":2069:2377   */\n      iszero\n      tag_452\n      jumpi\n        /* \"#utility.yul\":2170:2176   */\n      dup2\n        /* \"#utility.yul\":2164:2177   */\n      mload\n        /* \"#utility.yul\":2197:2271   */\n      tag_453\n        /* \"#utility.yul\":2267:2270   */\n      dup9\n        /* \"#utility.yul\":2252:2265   */\n      dup3\n        /* \"#utility.yul\":2197:2271   */\n      tag_343\n      jump\t// in\n    tag_453:\n        /* \"#utility.yul\":2190:2271   */\n      swap8\n      pop\n        /* \"#utility.yul\":2294:2367   */\n      tag_454\n        /* \"#utility.yul\":2360:2366   */\n      dup4\n        /* \"#utility.yul\":2294:2367   */\n      tag_344\n      jump\t// in\n    tag_454:\n        /* \"#utility.yul\":2284:2367   */\n      swap3\n      pop\n        /* \"#utility.yul\":2129:2377   */\n      pop\n        /* \"#utility.yul\":2116:2117   */\n      0x01\n        /* \"#utility.yul\":2113:2114   */\n      dup2\n        /* \"#utility.yul\":2109:2118   */\n      add\n        /* \"#utility.yul\":2104:2118   */\n      swap1\n      pop\n        /* \"#utility.yul\":2069:2377   */\n      jump(tag_450)\n    tag_452:\n        /* \"#utility.yul\":2073:2087   */\n      pop\n        /* \"#utility.yul\":2393:2396   */\n      dup6\n        /* \"#utility.yul\":2386:2396   */\n      swap4\n      pop\n        /* \"#utility.yul\":1746:2402   */\n      pop\n      pop\n      pop\n        /* \"#utility.yul\":1611:2402   */\n      swap3\n      swap2\n      pop\n      pop\n      jump\t// out\n        /* \"#utility.yul\":2408:2803   */\n    tag_17:\n        /* \"#utility.yul\":2562:2566   */\n      0x00\n        /* \"#utility.yul\":2600:2602   */\n      0x20\n        /* \"#utility.yul\":2589:2598   */\n      dup3\n        /* \"#utility.yul\":2585:2603   */\n      add\n        /* \"#utility.yul\":2577:2603   */\n      swap1\n      pop\n        /* \"#utility.yul\":2649:2658   */\n      dup2\n        /* \"#utility.yul\":2643:2647   */\n      dup2\n        /* \"#utility.yul\":2639:2659   */\n      sub\n        /* \"#utility.yul\":2635:2636   */\n      0x00\n        /* \"#utility.yul\":2624:2633   */\n      dup4\n        /* \"#utility.yul\":2620:2637   */\n      add\n        /* \"#utility.yul\":2613:2660   */\n      mstore\n        /* \"#utility.yul\":2677:2796   */\n      tag_456\n        /* \"#utility.yul\":2791:2795   */\n      dup2\n        /* \"#utility.yul\":2782:2788   */\n      dup5\n        /* \"#utility.yul\":2677:2796   */\n      tag_345\n      jump\t// in\n    tag_456:\n        /* \"#utility.yul\":2669:2796   */\n      swap1\n      pop\n        /* \"#utility.yul\":2408:2803   */\n      swap3\n      swap2\n      pop\n      pop\n      jump\t// out\n        /* \"#utility.yul\":2809:2884   */\n    tag_346:\n        /* \"#utility.yul\":2842:2848   */\n      0x00\n        /* \"#utility.yul\":2875:2877   */\n      0x40\n        /* \"#utility.yul\":2869:2878   */\n      mload\n        /* \"#utility.yul\":2859:2878   */\n      swap1\n      pop\n        /* \"#utility.yul\":2809:2884   */\n      swap1\n      jump\t// out\n        /* \"#utility.yul\":2890:3007   */\n    tag_347:\n        /* \"#utility.yul\":2999:3000   */\n      0x00\n        /* \"#utility.yul\":2996:2997   */\n      dup1\n        /* \"#utility.yul\":2989:3001   */\n      revert\n        /* \"#utility.yul\":3013:3130   */\n    tag_348:\n        /* \"#utility.yul\":3122:3123   */\n      0x00\n        /* \"#utility.yul\":3119:3120   */\n      dup1\n        /* \"#utility.yul\":3112:3124   */\n      revert\n        /* \"#utility.yul\":3136:3213   */\n    tag_349:\n        /* \"#utility.yul\":3173:3180   */\n      0x00\n        /* \"#utility.yul\":3202:3207   */\n      dup2\n        /* \"#utility.yul\":3191:3207   */\n      swap1\n      pop\n        /* \"#utility.yul\":3136:3213   */\n      swap2\n      swap1\n      pop\n      jump\t// out\n        /* \"#utility.yul\":3219:3341   */\n    tag_350:\n        /* \"#utility.yul\":3292:3316   */\n      tag_462\n        /* \"#utility.yul\":3310:3315   */\n      dup2\n        /* \"#utility.yul\":3292:3316   */\n      tag_349\n      jump\t// in\n    tag_462:\n        /* \"#utility.yul\":3285:3290   */\n      dup2\n        /* \"#utility.yul\":3282:3317   */\n      eq\n        /* \"#utility.yul\":3272:3335   */\n      tag_463\n      jumpi\n        /* \"#utility.yul\":3331:3332   */\n      0x00\n        /* \"#utility.yul\":3328:3329   */\n      dup1\n        /* \"#utility.yul\":3321:3333   */\n      revert\n        /* \"#utility.yul\":3272:3335   */\n    tag_463:\n        /* \"#utility.yul\":3219:3341   */\n      pop\n      jump\t// out\n        /* \"#utility.yul\":3347:3486   */\n    tag_351:\n        /* \"#utility.yul\":3393:3398   */\n      0x00\n        /* \"#utility.yul\":3431:3437   */\n      dup2\n        /* \"#utility.yul\":3418:3438   */\n      calldataload\n        /* \"#utility.yul\":3409:3438   */\n      swap1\n      pop\n        /* \"#utility.yul\":3447:3480   */\n      tag_465\n        /* \"#utility.yul\":3474:3479   */\n      dup2\n        /* \"#utility.yul\":3447:3480   */\n      tag_350\n      jump\t// in\n    tag_465:\n        /* \"#utility.yul\":3347:3486   */\n      swap3\n      swap2\n      pop\n      pop\n      jump\t// out\n        /* \"#utility.yul\":3492:3609   */\n    tag_352:\n        /* \"#utility.yul\":3601:3602   */\n      0x00\n        /* \"#utility.yul\":3598:3599   */\n      dup1\n        /* \"#utility.yul\":3591:3603   */\n      revert\n        /* \"#utility.yul\":3615:3732   */\n    tag_353:\n        /* \"#utility.yul\":3724:3725   */\n      0x00\n        /* \"#utility.yul\":3721:3722   */\n      dup1\n        /* \"#utility.yul\":3714:3726   */\n      revert\n        /* \"#utility.yul\":3738:3840   */\n    tag_354:\n        /* \"#utility.yul\":3779:3785   */\n      0x00\n        /* \"#utility.yul\":3830:3832   */\n      0x1f\n        /* \"#utility.yul\":3826:3833   */\n      not\n        /* \"#utility.yul\":3821:3823   */\n      0x1f\n        /* \"#utility.yul\":3814:3819   */\n      dup4\n        /* \"#utility.yul\":3810:3824   */\n      add\n        /* \"#utility.yul\":3806:3834   */\n      and\n        /* \"#utility.yul\":3796:3834   */\n      swap1\n      pop\n        /* \"#utility.yul\":3738:3840   */\n      swap2\n      swap1\n      pop\n      jump\t// out\n        /* \"#utility.yul\":3846:4026   */\n    tag_74:\n        /* \"#utility.yul\":3894:3971   */\n      0x4e487b7100000000000000000000000000000000000000000000000000000000\n        /* \"#utility.yul\":3891:3892   */\n      0x00\n        /* \"#utility.yul\":3884:3972   */\n      mstore\n        /* \"#utility.yul\":3991:3995   */\n      0x41\n        /* \"#utility.yul\":3988:3989   */\n      0x04\n        /* \"#utility.yul\":3981:3996   */\n      mstore\n        /* \"#utility.yul\":4015:4019   */\n      0x24\n        /* \"#utility.yul\":4012:4013   */\n      0x00\n        /* \"#utility.yul\":4005:4020   */\n      revert\n        /* \"#utility.yul\":4032:4313   */\n    tag_355:\n        /* \"#utility.yul\":4115:4142   */\n      tag_471\n        /* \"#utility.yul\":4137:4141   */\n      dup3\n        /* \"#utility.yul\":4115:4142   */\n      tag_354\n      jump\t// in\n    tag_471:\n        /* \"#utility.yul\":4107:4113   */\n      dup2\n        /* \"#utility.yul\":4103:4143   */\n      add\n        /* \"#utility.yul\":4245:4251   */\n      dup2\n        /* \"#utility.yul\":4233:4243   */\n      dup2\n        /* \"#utility.yul\":4230:4252   */\n      lt\n        /* \"#utility.yul\":4209:4227   */\n      0xffffffffffffffff\n        /* \"#utility.yul\":4197:4207   */\n      dup3\n        /* \"#utility.yul\":4194:4228   */\n      gt\n        /* \"#utility.yul\":4191:4253   */\n      or\n        /* \"#utility.yul\":4188:4276   */\n      iszero\n      tag_472\n      jumpi\n        /* \"#utility.yul\":4256:4274   */\n      tag_473\n      tag_74\n      jump\t// in\n    tag_473:\n        /* \"#utility.yul\":4188:4276   */\n    tag_472:\n        /* \"#utility.yul\":4296:4306   */\n      dup1\n        /* \"#utility.yul\":4292:4294   */\n      0x40\n        /* \"#utility.yul\":4285:4307   */\n      mstore\n        /* \"#utility.yul\":4075:4313   */\n      pop\n        /* \"#utility.yul\":4032:4313   */\n      pop\n      pop\n      jump\t// out\n        /* \"#utility.yul\":4319:4448   */\n    tag_356:\n        /* \"#utility.yul\":4353:4359   */\n      0x00\n        /* \"#utility.yul\":4380:4400   */\n      tag_475\n      tag_346\n      jump\t// in\n    tag_475:\n        /* \"#utility.yul\":4370:4400   */\n      swap1\n      pop\n        /* \"#utility.yul\":4409:4442   */\n      tag_476\n        /* \"#utility.yul\":4437:4441   */\n      dup3\n        /* \"#utility.yul\":4429:4435   */\n      dup3\n        /* \"#utility.yul\":4409:4442   */\n      tag_355\n      jump\t// in\n    tag_476:\n        /* \"#utility.yul\":4319:4448   */\n      swap2\n      swap1\n      pop\n      jump\t// out\n        /* \"#utility.yul\":4454:4762   */\n    tag_357:\n        /* \"#utility.yul\":4516:4520   */\n      0x00\n        /* \"#utility.yul\":4606:4624   */\n      0xffffffffffffffff\n        /* \"#utility.yul\":4598:4604   */\n      dup3\n        /* \"#utility.yul\":4595:4625   */\n      gt\n        /* \"#utility.yul\":4592:4648   */\n      iszero\n      tag_478\n      jumpi\n        /* \"#utility.yul\":4628:4646   */\n      tag_479\n      tag_74\n      jump\t// in\n    tag_479:\n        /* \"#utility.yul\":4592:4648   */\n    tag_478:\n        /* \"#utility.yul\":4666:4695   */\n      tag_480\n        /* \"#utility.yul\":4688:4694   */\n      dup3\n        /* \"#utility.yul\":4666:4695   */\n      tag_354\n      jump\t// in\n    tag_480:\n        /* \"#utility.yul\":4658:4695   */\n      swap1\n      pop\n        /* \"#utility.yul\":4750:4754   */\n      0x20\n        /* \"#utility.yul\":4744:4748   */\n      dup2\n        /* \"#utility.yul\":4740:4755   */\n      add\n        /* \"#utility.yul\":4732:4755   */\n      swap1\n      pop\n        /* \"#utility.yul\":4454:4762   */\n      swap2\n      swap1\n      pop\n      jump\t// out\n        /* \"#utility.yul\":4768:4914   */\n    tag_358:\n        /* \"#utility.yul\":4865:4871   */\n      dup3\n        /* \"#utility.yul\":4860:4863   */\n      dup2\n        /* \"#utility.yul\":4855:4858   */\n      dup4\n        /* \"#utility.yul\":4842:4872   */\n      calldatacopy\n        /* \"#utility.yul\":4906:4907   */\n      0x00\n        /* \"#utility.yul\":4897:4903   */\n      dup4\n        /* \"#utility.yul\":4892:4895   */\n      dup4\n        /* \"#utility.yul\":4888:4904   */\n      add\n        /* \"#utility.yul\":4881:4908   */\n      mstore\n        /* \"#utility.yul\":4768:4914   */\n      pop\n      pop\n      pop\n      jump\t// out\n        /* \"#utility.yul\":4920:5345   */\n    tag_359:\n        /* \"#utility.yul\":4998:5003   */\n      0x00\n        /* \"#utility.yul\":5023:5089   */\n      tag_483\n        /* \"#utility.yul\":5039:5088   */\n      tag_484\n        /* \"#utility.yul\":5081:5087   */\n      dup5\n        /* \"#utility.yul\":5039:5088   */\n      tag_357\n      jump\t// in\n    tag_484:\n        /* \"#utility.yul\":5023:5089   */\n      tag_356\n      jump\t// in\n    tag_483:\n        /* \"#utility.yul\":5014:5089   */\n      swap1\n      pop\n        /* \"#utility.yul\":5112:5118   */\n      dup3\n        /* \"#utility.yul\":5105:5110   */\n      dup2\n        /* \"#utility.yul\":5098:5119   */\n      mstore\n        /* \"#utility.yul\":5150:5154   */\n      0x20\n        /* \"#utility.yul\":5143:5148   */\n      dup2\n        /* \"#utility.yul\":5139:5155   */\n      add\n        /* \"#utility.yul\":5188:5191   */\n      dup5\n        /* \"#utility.yul\":5179:5185   */\n      dup5\n        /* \"#utility.yul\":5174:5177   */\n      dup5\n        /* \"#utility.yul\":5170:5186   */\n      add\n        /* \"#utility.yul\":5167:5192   */\n      gt\n        /* \"#utility.yul\":5164:5276   */\n      iszero\n      tag_485\n      jumpi\n        /* \"#utility.yul\":5195:5274   */\n      tag_486\n      tag_353\n      jump\t// in\n    tag_486:\n        /* \"#utility.yul\":5164:5276   */\n    tag_485:\n        /* \"#utility.yul\":5285:5339   */\n      tag_487\n        /* \"#utility.yul\":5332:5338   */\n      dup5\n        /* \"#utility.yul\":5327:5330   */\n      dup3\n        /* \"#utility.yul\":5322:5325   */\n      dup6\n        /* \"#utility.yul\":5285:5339   */\n      tag_358\n      jump\t// in\n    tag_487:\n        /* \"#utility.yul\":5004:5345   */\n      pop\n        /* \"#utility.yul\":4920:5345   */\n      swap4\n      swap3\n      pop\n      pop\n      pop\n      jump\t// out\n        /* \"#utility.yul\":5365:5705   */\n    tag_360:\n        /* \"#utility.yul\":5421:5426   */\n      0x00\n        /* \"#utility.yul\":5470:5473   */\n      dup3\n        /* \"#utility.yul\":5463:5467   */\n      0x1f\n        /* \"#utility.yul\":5455:5461   */\n      dup4\n        /* \"#utility.yul\":5451:5468   */\n      add\n        /* \"#utility.yul\":5447:5474   */\n      slt\n        /* \"#utility.yul\":5437:5559   */\n      tag_489\n      jumpi\n        /* \"#utility.yul\":5478:5557   */\n      tag_490\n      tag_352\n      jump\t// in\n    tag_490:\n        /* \"#utility.yul\":5437:5559   */\n    tag_489:\n        /* \"#utility.yul\":5595:5601   */\n      dup2\n        /* \"#utility.yul\":5582:5602   */\n      calldataload\n        /* \"#utility.yul\":5620:5699   */\n      tag_491\n        /* \"#utility.yul\":5695:5698   */\n      dup5\n        /* \"#utility.yul\":5687:5693   */\n      dup3\n        /* \"#utility.yul\":5680:5684   */\n      0x20\n        /* \"#utility.yul\":5672:5678   */\n      dup7\n        /* \"#utility.yul\":5668:5685   */\n      add\n        /* \"#utility.yul\":5620:5699   */\n      tag_359\n      jump\t// in\n    tag_491:\n        /* \"#utility.yul\":5611:5699   */\n      swap2\n      pop\n        /* \"#utility.yul\":5427:5705   */\n      pop\n        /* \"#utility.yul\":5365:5705   */\n      swap3\n      swap2\n      pop\n      pop\n      jump\t// out\n        /* \"#utility.yul\":5711:5837   */\n    tag_361:\n        /* \"#utility.yul\":5748:5755   */\n      0x00\n        /* \"#utility.yul\":5788:5830   */\n      0xffffffffffffffffffffffffffffffffffffffff\n        /* \"#utility.yul\":5781:5786   */\n      dup3\n        /* \"#utility.yul\":5777:5831   */\n      and\n        /* \"#utility.yul\":5766:5831   */\n      swap1\n      pop\n        /* \"#utility.yul\":5711:5837   */\n      swap2\n      swap1\n      pop\n      jump\t// out\n        /* \"#utility.yul\":5843:5939   */\n    tag_362:\n        /* \"#utility.yul\":5880:5887   */\n      0x00\n        /* \"#utility.yul\":5909:5933   */\n      tag_494\n        /* \"#utility.yul\":5927:5932   */\n      dup3\n        /* \"#utility.yul\":5909:5933   */\n      tag_361\n      jump\t// in\n    tag_494:\n        /* \"#utility.yul\":5898:5933   */\n      swap1\n      pop\n        /* \"#utility.yul\":5843:5939   */\n      swap2\n      swap1\n      pop\n      jump\t// out\n        /* \"#utility.yul\":5945:6067   */\n    tag_363:\n        /* \"#utility.yul\":6018:6042   */\n      tag_496\n        /* \"#utility.yul\":6036:6041   */\n      dup2\n        /* \"#utility.yul\":6018:6042   */\n      tag_362\n      jump\t// in\n    tag_496:\n        /* \"#utility.yul\":6011:6016   */\n      dup2\n        /* \"#utility.yul\":6008:6043   */\n      eq\n        /* \"#utility.yul\":5998:6061   */\n      tag_497\n      jumpi\n        /* \"#utility.yul\":6057:6058   */\n      0x00\n        /* \"#utility.yul\":6054:6055   */\n      dup1\n        /* \"#utility.yul\":6047:6059   */\n      revert\n        /* \"#utility.yul\":5998:6061   */\n    tag_497:\n        /* \"#utility.yul\":5945:6067   */\n      pop\n      jump\t// out\n        /* \"#utility.yul\":6073:6212   */\n    tag_364:\n        /* \"#utility.yul\":6119:6124   */\n      0x00\n        /* \"#utility.yul\":6157:6163   */\n      dup2\n        /* \"#utility.yul\":6144:6164   */\n      calldataload\n        /* \"#utility.yul\":6135:6164   */\n      swap1\n      pop\n        /* \"#utility.yul\":6173:6206   */\n      tag_499\n        /* \"#utility.yul\":6200:6205   */\n      dup2\n        /* \"#utility.yul\":6173:6206   */\n      tag_363\n      jump\t// in\n    tag_499:\n        /* \"#utility.yul\":6073:6212   */\n      swap3\n      swap2\n      pop\n      pop\n      jump\t// out\n        /* \"#utility.yul\":6218:7163   */\n    tag_21:\n        /* \"#utility.yul\":6314:6320   */\n      0x00\n        /* \"#utility.yul\":6322:6328   */\n      dup1\n        /* \"#utility.yul\":6330:6336   */\n      0x00\n        /* \"#utility.yul\":6338:6344   */\n      dup1\n        /* \"#utility.yul\":6387:6390   */\n      0x80\n        /* \"#utility.yul\":6375:6384   */\n      dup6\n        /* \"#utility.yul\":6366:6373   */\n      dup8\n        /* \"#utility.yul\":6362:6385   */\n      sub\n        /* \"#utility.yul\":6358:6391   */\n      slt\n        /* \"#utility.yul\":6355:6475   */\n      iszero\n      tag_501\n      jumpi\n        /* \"#utility.yul\":6394:6473   */\n      tag_502\n      tag_347\n      jump\t// in\n    tag_502:\n        /* \"#utility.yul\":6355:6475   */\n    tag_501:\n        /* \"#utility.yul\":6514:6515   */\n      0x00\n        /* \"#utility.yul\":6539:6592   */\n      tag_503\n        /* \"#utility.yul\":6584:6591   */\n      dup8\n        /* \"#utility.yul\":6575:6581   */\n      dup3\n        /* \"#utility.yul\":6564:6573   */\n      dup9\n        /* \"#utility.yul\":6560:6582   */\n      add\n        /* \"#utility.yul\":6539:6592   */\n      tag_351\n      jump\t// in\n    tag_503:\n        /* \"#utility.yul\":6529:6592   */\n      swap5\n      pop\n        /* \"#utility.yul\":6485:6602   */\n      pop\n        /* \"#utility.yul\":6641:6643   */\n      0x20\n        /* \"#utility.yul\":6667:6720   */\n      tag_504\n        /* \"#utility.yul\":6712:6719   */\n      dup8\n        /* \"#utility.yul\":6703:6709   */\n      dup3\n        /* \"#utility.yul\":6692:6701   */\n      dup9\n        /* \"#utility.yul\":6688:6710   */\n      add\n        /* \"#utility.yul\":6667:6720   */\n      tag_351\n      jump\t// in\n    tag_504:\n        /* \"#utility.yul\":6657:6720   */\n      swap4\n      pop\n        /* \"#utility.yul\":6612:6730   */\n      pop\n        /* \"#utility.yul\":6797:6799   */\n      0x40\n        /* \"#utility.yul\":6786:6795   */\n      dup6\n        /* \"#utility.yul\":6782:6800   */\n      add\n        /* \"#utility.yul\":6769:6801   */\n      calldataload\n        /* \"#utility.yul\":6828:6846   */\n      0xffffffffffffffff\n        /* \"#utility.yul\":6820:6826   */\n      dup2\n        /* \"#utility.yul\":6817:6847   */\n      gt\n        /* \"#utility.yul\":6814:6931   */\n      iszero\n      tag_505\n      jumpi\n        /* \"#utility.yul\":6850:6929   */\n      tag_506\n      tag_348\n      jump\t// in\n    tag_506:\n        /* \"#utility.yul\":6814:6931   */\n    tag_505:\n        /* \"#utility.yul\":6955:7018   */\n      tag_507\n        /* \"#utility.yul\":7010:7017   */\n      dup8\n        /* \"#utility.yul\":7001:7007   */\n      dup3\n        /* \"#utility.yul\":6990:6999   */\n      dup9\n        /* \"#utility.yul\":6986:7008   */\n      add\n        /* \"#utility.yul\":6955:7018   */\n      tag_360\n      jump\t// in\n    tag_507:\n        /* \"#utility.yul\":6945:7018   */\n      swap3\n      pop\n        /* \"#utility.yul\":6740:7028   */\n      pop\n        /* \"#utility.yul\":7067:7069   */\n      0x60\n        /* \"#utility.yul\":7093:7146   */\n      tag_508\n        /* \"#utility.yul\":7138:7145   */\n      dup8\n        /* \"#utility.yul\":7129:7135   */\n      dup3\n        /* \"#utility.yul\":7118:7127   */\n      dup9\n        /* \"#utility.yul\":7114:7136   */\n      add\n        /* \"#utility.yul\":7093:7146   */\n      tag_364\n      jump\t// in\n    tag_508:\n        /* \"#utility.yul\":7083:7146   */\n      swap2\n      pop\n        /* \"#utility.yul\":7038:7156   */\n      pop\n        /* \"#utility.yul\":6218:7163   */\n      swap3\n      swap6\n      swap2\n      swap5\n      pop\n      swap3\n      pop\n      jump\t// out\n        /* \"#utility.yul\":7169:7268   */\n    tag_365:\n        /* \"#utility.yul\":7221:7227   */\n      0x00\n        /* \"#utility.yul\":7255:7260   */\n      dup2\n        /* \"#utility.yul\":7249:7261   */\n      mload\n        /* \"#utility.yul\":7239:7261   */\n      swap1\n      pop\n        /* \"#utility.yul\":7169:7268   */\n      swap2\n      swap1\n      pop\n      jump\t// out\n        /* \"#utility.yul\":7274:7443   */\n    tag_366:\n        /* \"#utility.yul\":7358:7369   */\n      0x00\n        /* \"#utility.yul\":7392:7398   */\n      dup3\n        /* \"#utility.yul\":7387:7390   */\n      dup3\n        /* \"#utility.yul\":7380:7399   */\n      mstore\n        /* \"#utility.yul\":7432:7436   */\n      0x20\n        /* \"#utility.yul\":7427:7430   */\n      dup3\n        /* \"#utility.yul\":7423:7437   */\n      add\n        /* \"#utility.yul\":7408:7437   */\n      swap1\n      pop\n        /* \"#utility.yul\":7274:7443   */\n      swap3\n      swap2\n      pop\n      pop\n      jump\t// out\n        /* \"#utility.yul\":7449:7695   */\n    tag_367:\n        /* \"#utility.yul\":7530:7531   */\n      0x00\n        /* \"#utility.yul\":7540:7653   */\n    tag_512:\n        /* \"#utility.yul\":7554:7560   */\n      dup4\n        /* \"#utility.yul\":7551:7552   */\n      dup2\n        /* \"#utility.yul\":7548:7561   */\n      lt\n        /* \"#utility.yul\":7540:7653   */\n      iszero\n      tag_514\n      jumpi\n        /* \"#utility.yul\":7639:7640   */\n      dup1\n        /* \"#utility.yul\":7634:7637   */\n      dup3\n        /* \"#utility.yul\":7630:7641   */\n      add\n        /* \"#utility.yul\":7624:7642   */\n      mload\n        /* \"#utility.yul\":7620:7621   */\n      dup2\n        /* \"#utility.yul\":7615:7618   */\n      dup5\n        /* \"#utility.yul\":7611:7622   */\n      add\n        /* \"#utility.yul\":7604:7643   */\n      mstore\n        /* \"#utility.yul\":7576:7578   */\n      0x20\n        /* \"#utility.yul\":7573:7574   */\n      dup2\n        /* \"#utility.yul\":7569:7579   */\n      add\n        /* \"#utility.yul\":7564:7579   */\n      swap1\n      pop\n        /* \"#utility.yul\":7540:7653   */\n      jump(tag_512)\n    tag_514:\n        /* \"#utility.yul\":7687:7688   */\n      0x00\n        /* \"#utility.yul\":7678:7684   */\n      dup5\n        /* \"#utility.yul\":7673:7676   */\n      dup5\n        /* \"#utility.yul\":7669:7685   */\n      add\n        /* \"#utility.yul\":7662:7689   */\n      mstore\n        /* \"#utility.yul\":7511:7695   */\n      pop\n        /* \"#utility.yul\":7449:7695   */\n      pop\n      pop\n      pop\n      jump\t// out\n        /* \"#utility.yul\":7701:8078   */\n    tag_368:\n        /* \"#utility.yul\":7789:7792   */\n      0x00\n        /* \"#utility.yul\":7817:7856   */\n      tag_516\n        /* \"#utility.yul\":7850:7855   */\n      dup3\n        /* \"#utility.yul\":7817:7856   */\n      tag_365\n      jump\t// in\n    tag_516:\n        /* \"#utility.yul\":7872:7943   */\n      tag_517\n        /* \"#utility.yul\":7936:7942   */\n      dup2\n        /* \"#utility.yul\":7931:7934   */\n      dup6\n        /* \"#utility.yul\":7872:7943   */\n      tag_366\n      jump\t// in\n    tag_517:\n        /* \"#utility.yul\":7865:7943   */\n      swap4\n      pop\n        /* \"#utility.yul\":7952:8017   */\n      tag_518\n        /* \"#utility.yul\":8010:8016   */\n      dup2\n        /* \"#utility.yul\":8005:8008   */\n      dup6\n        /* \"#utility.yul\":7998:8002   */\n      0x20\n        /* \"#utility.yul\":7991:7996   */\n      dup7\n        /* \"#utility.yul\":7987:8003   */\n      add\n        /* \"#utility.yul\":7952:8017   */\n      tag_367\n      jump\t// in\n    tag_518:\n        /* \"#utility.yul\":8042:8071   */\n      tag_519\n        /* \"#utility.yul\":8064:8070   */\n      dup2\n        /* \"#utility.yul\":8042:8071   */\n      tag_354\n      jump\t// in\n    tag_519:\n        /* \"#utility.yul\":8037:8040   */\n      dup5\n        /* \"#utility.yul\":8033:8072   */\n      add\n        /* \"#utility.yul\":8026:8072   */\n      swap2\n      pop\n        /* \"#utility.yul\":7793:8078   */\n      pop\n        /* \"#utility.yul\":7701:8078   */\n      swap3\n      swap2\n      pop\n      pop\n      jump\t// out\n        /* \"#utility.yul\":8084:8397   */\n    tag_24:\n        /* \"#utility.yul\":8197:8201   */\n      0x00\n        /* \"#utility.yul\":8235:8237   */\n      0x20\n        /* \"#utility.yul\":8224:8233   */\n      dup3\n        /* \"#utility.yul\":8220:8238   */\n      add\n        /* \"#utility.yul\":8212:8238   */\n      swap1\n      pop\n        /* \"#utility.yul\":8284:8293   */\n      dup2\n        /* \"#utility.yul\":8278:8282   */\n      dup2\n        /* \"#utility.yul\":8274:8294   */\n      sub\n        /* \"#utility.yul\":8270:8271   */\n      0x00\n        /* \"#utility.yul\":8259:8268   */\n      dup4\n        /* \"#utility.yul\":8255:8272   */\n      add\n        /* \"#utility.yul\":8248:8295   */\n      mstore\n        /* \"#utility.yul\":8312:8390   */\n      tag_521\n        /* \"#utility.yul\":8385:8389   */\n      dup2\n        /* \"#utility.yul\":8376:8382   */\n      dup5\n        /* \"#utility.yul\":8312:8390   */\n      tag_368\n      jump\t// in\n    tag_521:\n        /* \"#utility.yul\":8304:8390   */\n      swap1\n      pop\n        /* \"#utility.yul\":8084:8397   */\n      swap3\n      swap2\n      pop\n      pop\n      jump\t// out\n        /* \"#utility.yul\":8403:8521   */\n    tag_369:\n        /* \"#utility.yul\":8490:8514   */\n      tag_523\n        /* \"#utility.yul\":8508:8513   */\n      dup2\n        /* \"#utility.yul\":8490:8514   */\n      tag_349\n      jump\t// in\n    tag_523:\n        /* \"#utility.yul\":8485:8488   */\n      dup3\n        /* \"#utility.yul\":8478:8515   */\n      mstore\n        /* \"#utility.yul\":8403:8521   */\n      pop\n      pop\n      jump\t// out\n        /* \"#utility.yul\":8527:8749   */\n    tag_29:\n        /* \"#utility.yul\":8620:8624   */\n      0x00\n        /* \"#utility.yul\":8658:8660   */\n      0x20\n        /* \"#utility.yul\":8647:8656   */\n      dup3\n        /* \"#utility.yul\":8643:8661   */\n      add\n        /* \"#utility.yul\":8635:8661   */\n      swap1\n      pop\n        /* \"#utility.yul\":8671:8742   */\n      tag_525\n        /* \"#utility.yul\":8739:8740   */\n      0x00\n        /* \"#utility.yul\":8728:8737   */\n      dup4\n        /* \"#utility.yul\":8724:8741   */\n      add\n        /* \"#utility.yul\":8715:8721   */\n      dup5\n        /* \"#utility.yul\":8671:8742   */\n      tag_369\n      jump\t// in\n    tag_525:\n        /* \"#utility.yul\":8527:8749   */\n      swap3\n      swap2\n      pop\n      pop\n      jump\t// out\n        /* \"#utility.yul\":8755:9374   */\n    tag_33:\n        /* \"#utility.yul\":8832:8838   */\n      0x00\n        /* \"#utility.yul\":8840:8846   */\n      dup1\n        /* \"#utility.yul\":8848:8854   */\n      0x00\n        /* \"#utility.yul\":8897:8899   */\n      0x60\n        /* \"#utility.yul\":8885:8894   */\n      dup5\n        /* \"#utility.yul\":8876:8883   */\n      dup7\n        /* \"#utility.yul\":8872:8895   */\n      sub\n        /* \"#utility.yul\":8868:8900   */\n      slt\n        /* \"#utility.yul\":8865:8984   */\n      iszero\n      tag_527\n      jumpi\n        /* \"#utility.yul\":8903:8982   */\n      tag_528\n      tag_347\n      jump\t// in\n    tag_528:\n        /* \"#utility.yul\":8865:8984   */\n    tag_527:\n        /* \"#utility.yul\":9023:9024   */\n      0x00\n        /* \"#utility.yul\":9048:9101   */\n      tag_529\n        /* \"#utility.yul\":9093:9100   */\n      dup7\n        /* \"#utility.yul\":9084:9090   */\n      dup3\n        /* \"#utility.yul\":9073:9082   */\n      dup8\n        /* \"#utility.yul\":9069:9091   */\n      add\n        /* \"#utility.yul\":9048:9101   */\n      tag_364\n      jump\t// in\n    tag_529:\n        /* \"#utility.yul\":9038:9101   */\n      swap4\n      pop\n        /* \"#utility.yul\":8994:9111   */\n      pop\n        /* \"#utility.yul\":9150:9152   */\n      0x20\n        /* \"#utility.yul\":9176:9229   */\n      tag_530\n        /* \"#utility.yul\":9221:9228   */\n      dup7\n        /* \"#utility.yul\":9212:9218   */\n      dup3\n        /* \"#utility.yul\":9201:9210   */\n      dup8\n        /* \"#utility.yul\":9197:9219   */\n      add\n        /* \"#utility.yul\":9176:9229   */\n      tag_351\n      jump\t// in\n    tag_530:\n        /* \"#utility.yul\":9166:9229   */\n      swap3\n      pop\n        /* \"#utility.yul\":9121:9239   */\n      pop\n        /* \"#utility.yul\":9278:9280   */\n      0x40\n        /* \"#utility.yul\":9304:9357   */\n      tag_531\n        /* \"#utility.yul\":9349:9356   */\n      dup7\n        /* \"#utility.yul\":9340:9346   */\n      dup3\n        /* \"#utility.yul\":9329:9338   */\n      dup8\n        /* \"#utility.yul\":9325:9347   */\n      add\n        /* \"#utility.yul\":9304:9357   */\n      tag_351\n      jump\t// in\n    tag_531:\n        /* \"#utility.yul\":9294:9357   */\n      swap2\n      pop\n        /* \"#utility.yul\":9249:9367   */\n      pop\n        /* \"#utility.yul\":8755:9374   */\n      swap3\n      pop\n      swap3\n      pop\n      swap3\n      jump\t// out\n        /* \"#utility.yul\":9380:9504   */\n    tag_370:\n        /* \"#utility.yul\":9457:9463   */\n      0x00\n        /* \"#utility.yul\":9491:9496   */\n      dup2\n        /* \"#utility.yul\":9485:9497   */\n      mload\n        /* \"#utility.yul\":9475:9497   */\n      swap1\n      pop\n        /* \"#utility.yul\":9380:9504   */\n      swap2\n      swap1\n      pop\n      jump\t// out\n        /* \"#utility.yul\":9510:9704   */\n    tag_371:\n        /* \"#utility.yul\":9619:9630   */\n      0x00\n        /* \"#utility.yul\":9653:9659   */\n      dup3\n        /* \"#utility.yul\":9648:9651   */\n      dup3\n        /* \"#utility.yul\":9641:9660   */\n      mstore\n        /* \"#utility.yul\":9693:9697   */\n      0x20\n        /* \"#utility.yul\":9688:9691   */\n      dup3\n        /* \"#utility.yul\":9684:9698   */\n      add\n        /* \"#utility.yul\":9669:9698   */\n      swap1\n      pop\n        /* \"#utility.yul\":9510:9704   */\n      swap3\n      swap2\n      pop\n      pop\n      jump\t// out\n        /* \"#utility.yul\":9710:9852   */\n    tag_372:\n        /* \"#utility.yul\":9787:9791   */\n      0x00\n        /* \"#utility.yul\":9810:9813   */\n      dup2\n        /* \"#utility.yul\":9802:9813   */\n      swap1\n      pop\n        /* \"#utility.yul\":9840:9844   */\n      0x20\n        /* \"#utility.yul\":9835:9838   */\n      dup3\n        /* \"#utility.yul\":9831:9845   */\n      add\n        /* \"#utility.yul\":9823:9845   */\n      swap1\n      pop\n        /* \"#utility.yul\":9710:9852   */\n      swap2\n      swap1\n      pop\n      jump\t// out\n        /* \"#utility.yul\":9858:10017   */\n    tag_373:\n        /* \"#utility.yul\":9932:9943   */\n      0x00\n        /* \"#utility.yul\":9966:9972   */\n      dup3\n        /* \"#utility.yul\":9961:9964   */\n      dup3\n        /* \"#utility.yul\":9954:9973   */\n      mstore\n        /* \"#utility.yul\":10006:10010   */\n      0x20\n        /* \"#utility.yul\":10001:10004   */\n      dup3\n        /* \"#utility.yul\":9997:10011   */\n      add\n        /* \"#utility.yul\":9982:10011   */\n      swap1\n      pop\n        /* \"#utility.yul\":9858:10017   */\n      swap3\n      swap2\n      pop\n      pop\n      jump\t// out\n        /* \"#utility.yul\":10023:10380   */\n    tag_374:\n        /* \"#utility.yul\":10101:10104   */\n      0x00\n        /* \"#utility.yul\":10129:10168   */\n      tag_537\n        /* \"#utility.yul\":10162:10167   */\n      dup3\n        /* \"#utility.yul\":10129:10168   */\n      tag_365\n      jump\t// in\n    tag_537:\n        /* \"#utility.yul\":10184:10245   */\n      tag_538\n        /* \"#utility.yul\":10238:10244   */\n      dup2\n        /* \"#utility.yul\":10233:10236   */\n      dup6\n        /* \"#utility.yul\":10184:10245   */\n      tag_373\n      jump\t// in\n    tag_538:\n        /* \"#utility.yul\":10177:10245   */\n      swap4\n      pop\n        /* \"#utility.yul\":10254:10319   */\n      tag_539\n        /* \"#utility.yul\":10312:10318   */\n      dup2\n        /* \"#utility.yul\":10307:10310   */\n      dup6\n        /* \"#utility.yul\":10300:10304   */\n      0x20\n        /* \"#utility.yul\":10293:10298   */\n      dup7\n        /* \"#utility.yul\":10289:10305   */\n      add\n        /* \"#utility.yul\":10254:10319   */\n      tag_367\n      jump\t// in\n    tag_539:\n        /* \"#utility.yul\":10344:10373   */\n      tag_540\n        /* \"#utility.yul\":10366:10372   */\n      dup2\n        /* \"#utility.yul\":10344:10373   */\n      tag_354\n      jump\t// in\n    tag_540:\n        /* \"#utility.yul\":10339:10342   */\n      dup5\n        /* \"#utility.yul\":10335:10374   */\n      add\n        /* \"#utility.yul\":10328:10374   */\n      swap2\n      pop\n        /* \"#utility.yul\":10105:10380   */\n      pop\n        /* \"#utility.yul\":10023:10380   */\n      swap3\n      swap2\n      pop\n      pop\n      jump\t// out\n        /* \"#utility.yul\":10386:10582   */\n    tag_375:\n        /* \"#utility.yul\":10475:10485   */\n      0x00\n        /* \"#utility.yul\":10510:10576   */\n      tag_542\n        /* \"#utility.yul\":10572:10575   */\n      dup4\n        /* \"#utility.yul\":10564:10570   */\n      dup4\n        /* \"#utility.yul\":10510:10576   */\n      tag_374\n      jump\t// in\n    tag_542:\n        /* \"#utility.yul\":10496:10576   */\n      swap1\n      pop\n        /* \"#utility.yul\":10386:10582   */\n      swap3\n      swap2\n      pop\n      pop\n      jump\t// out\n        /* \"#utility.yul\":10588:10711   */\n    tag_376:\n        /* \"#utility.yul\":10668:10672   */\n      0x00\n        /* \"#utility.yul\":10700:10704   */\n      0x20\n        /* \"#utility.yul\":10695:10698   */\n      dup3\n        /* \"#utility.yul\":10691:10705   */\n      add\n        /* \"#utility.yul\":10683:10705   */\n      swap1\n      pop\n        /* \"#utility.yul\":10588:10711   */\n      swap2\n      swap1\n      pop\n      jump\t// out\n        /* \"#utility.yul\":10745:11736   */\n    tag_377:\n        /* \"#utility.yul\":10884:10887   */\n      0x00\n        /* \"#utility.yul\":10913:10977   */\n      tag_545\n        /* \"#utility.yul\":10971:10976   */\n      dup3\n        /* \"#utility.yul\":10913:10977   */\n      tag_370\n      jump\t// in\n    tag_545:\n        /* \"#utility.yul\":10993:11089   */\n      tag_546\n        /* \"#utility.yul\":11082:11088   */\n      dup2\n        /* \"#utility.yul\":11077:11080   */\n      dup6\n        /* \"#utility.yul\":10993:11089   */\n      tag_371\n      jump\t// in\n    tag_546:\n        /* \"#utility.yul\":10986:11089   */\n      swap4\n      pop\n        /* \"#utility.yul\":11115:11118   */\n      dup4\n        /* \"#utility.yul\":11160:11164   */\n      0x20\n        /* \"#utility.yul\":11152:11158   */\n      dup3\n        /* \"#utility.yul\":11148:11165   */\n      mul\n        /* \"#utility.yul\":11143:11146   */\n      dup6\n        /* \"#utility.yul\":11139:11166   */\n      add\n        /* \"#utility.yul\":11190:11256   */\n      tag_547\n        /* \"#utility.yul\":11250:11255   */\n      dup6\n        /* \"#utility.yul\":11190:11256   */\n      tag_372\n      jump\t// in\n    tag_547:\n        /* \"#utility.yul\":11279:11286   */\n      dup1\n        /* \"#utility.yul\":11310:11311   */\n      0x00\n        /* \"#utility.yul\":11295:11691   */\n    tag_548:\n        /* \"#utility.yul\":11320:11326   */\n      dup6\n        /* \"#utility.yul\":11317:11318   */\n      dup2\n        /* \"#utility.yul\":11314:11327   */\n      lt\n        /* \"#utility.yul\":11295:11691   */\n      iszero\n      tag_550\n      jumpi\n        /* \"#utility.yul\":11391:11400   */\n      dup5\n        /* \"#utility.yul\":11385:11389   */\n      dup5\n        /* \"#utility.yul\":11381:11401   */\n      sub\n        /* \"#utility.yul\":11376:11379   */\n      dup10\n        /* \"#utility.yul\":11369:11402   */\n      mstore\n        /* \"#utility.yul\":11442:11448   */\n      dup2\n        /* \"#utility.yul\":11436:11449   */\n      mload\n        /* \"#utility.yul\":11470:11554   */\n      tag_551\n        /* \"#utility.yul\":11549:11553   */\n      dup6\n        /* \"#utility.yul\":11534:11547   */\n      dup3\n        /* \"#utility.yul\":11470:11554   */\n      tag_375\n      jump\t// in\n    tag_551:\n        /* \"#utility.yul\":11462:11554   */\n      swap5\n      pop\n        /* \"#utility.yul\":11577:11647   */\n      tag_552\n        /* \"#utility.yul\":11640:11646   */\n      dup4\n        /* \"#utility.yul\":11577:11647   */\n      tag_376\n      jump\t// in\n    tag_552:\n        /* \"#utility.yul\":11567:11647   */\n      swap3\n      pop\n        /* \"#utility.yul\":11676:11680   */\n      0x20\n        /* \"#utility.yul\":11671:11674   */\n      dup11\n        /* \"#utility.yul\":11667:11681   */\n      add\n        /* \"#utility.yul\":11660:11681   */\n      swap10\n      pop\n        /* \"#utility.yul\":11355:11691   */\n      pop\n        /* \"#utility.yul\":11342:11343   */\n      0x01\n        /* \"#utility.yul\":11339:11340   */\n      dup2\n        /* \"#utility.yul\":11335:11344   */\n      add\n        /* \"#utility.yul\":11330:11344   */\n      swap1\n      pop\n        /* \"#utility.yul\":11295:11691   */\n      jump(tag_548)\n    tag_550:\n        /* \"#utility.yul\":11299:11313   */\n      pop\n        /* \"#utility.yul\":11707:11711   */\n      dup3\n        /* \"#utility.yul\":11700:11711   */\n      swap8\n      pop\n        /* \"#utility.yul\":11727:11730   */\n      dup8\n        /* \"#utility.yul\":11720:11730   */\n      swap6\n      pop\n        /* \"#utility.yul\":10889:11736   */\n      pop\n      pop\n      pop\n      pop\n      pop\n        /* \"#utility.yul\":10745:11736   */\n      swap3\n      swap2\n      pop\n      pop\n      jump\t// out\n        /* \"#utility.yul\":11742:12155   */\n    tag_36:\n        /* \"#utility.yul\":11905:11909   */\n      0x00\n        /* \"#utility.yul\":11943:11945   */\n      0x20\n        /* \"#utility.yul\":11932:11941   */\n      dup3\n        /* \"#utility.yul\":11928:11946   */\n      add\n        /* \"#utility.yul\":11920:11946   */\n      swap1\n      pop\n        /* \"#utility.yul\":11992:12001   */\n      dup2\n        /* \"#utility.yul\":11986:11990   */\n      dup2\n        /* \"#utility.yul\":11982:12002   */\n      sub\n        /* \"#utility.yul\":11978:11979   */\n      0x00\n        /* \"#utility.yul\":11967:11976   */\n      dup4\n        /* \"#utility.yul\":11963:11980   */\n      add\n        /* \"#utility.yul\":11956:12003   */\n      mstore\n        /* \"#utility.yul\":12020:12148   */\n      tag_554\n        /* \"#utility.yul\":12143:12147   */\n      dup2\n        /* \"#utility.yul\":12134:12140   */\n      dup5\n        /* \"#utility.yul\":12020:12148   */\n      tag_377\n      jump\t// in\n    tag_554:\n        /* \"#utility.yul\":12012:12148   */\n      swap1\n      pop\n        /* \"#utility.yul\":11742:12155   */\n      swap3\n      swap2\n      pop\n      pop\n      jump\t// out\n        /* \"#utility.yul\":12161:12670   */\n    tag_40:\n        /* \"#utility.yul\":12230:12236   */\n      0x00\n        /* \"#utility.yul\":12279:12281   */\n      0x20\n        /* \"#utility.yul\":12267:12276   */\n      dup3\n        /* \"#utility.yul\":12258:12265   */\n      dup5\n        /* \"#utility.yul\":12254:12277   */\n      sub\n        /* \"#utility.yul\":12250:12282   */\n      slt\n        /* \"#utility.yul\":12247:12366   */\n      iszero\n      tag_556\n      jumpi\n        /* \"#utility.yul\":12285:12364   */\n      tag_557\n      tag_347\n      jump\t// in\n    tag_557:\n        /* \"#utility.yul\":12247:12366   */\n    tag_556:\n        /* \"#utility.yul\":12433:12434   */\n      0x00\n        /* \"#utility.yul\":12422:12431   */\n      dup3\n        /* \"#utility.yul\":12418:12435   */\n      add\n        /* \"#utility.yul\":12405:12436   */\n      calldataload\n        /* \"#utility.yul\":12463:12481   */\n      0xffffffffffffffff\n        /* \"#utility.yul\":12455:12461   */\n      dup2\n        /* \"#utility.yul\":12452:12482   */\n      gt\n        /* \"#utility.yul\":12449:12566   */\n      iszero\n      tag_558\n      jumpi\n        /* \"#utility.yul\":12485:12564   */\n      tag_559\n      tag_348\n      jump\t// in\n    tag_559:\n        /* \"#utility.yul\":12449:12566   */\n    tag_558:\n        /* \"#utility.yul\":12590:12653   */\n      tag_560\n        /* \"#utility.yul\":12645:12652   */\n      dup5\n        /* \"#utility.yul\":12636:12642   */\n      dup3\n        /* \"#utility.yul\":12625:12634   */\n      dup6\n        /* \"#utility.yul\":12621:12643   */\n      add\n        /* \"#utility.yul\":12590:12653   */\n      tag_360\n      jump\t// in\n    tag_560:\n        /* \"#utility.yul\":12580:12653   */\n      swap2\n      pop\n        /* \"#utility.yul\":12376:12663   */\n      pop\n        /* \"#utility.yul\":12161:12670   */\n      swap3\n      swap2\n      pop\n      pop\n      jump\t// out\n        /* \"#utility.yul\":12676:12798   */\n    tag_378:\n        /* \"#utility.yul\":12751:12757   */\n      0x00\n        /* \"#utility.yul\":12785:12790   */\n      dup2\n        /* \"#utility.yul\":12779:12791   */\n      mload\n        /* \"#utility.yul\":12769:12791   */\n      swap1\n      pop\n        /* \"#utility.yul\":12676:12798   */\n      swap2\n      swap1\n      pop\n      jump\t// out\n        /* \"#utility.yul\":12804:12944   */\n    tag_379:\n        /* \"#utility.yul\":12879:12883   */\n      0x00\n        /* \"#utility.yul\":12902:12905   */\n      dup2\n        /* \"#utility.yul\":12894:12905   */\n      swap1\n      pop\n        /* \"#utility.yul\":12932:12936   */\n      0x20\n        /* \"#utility.yul\":12927:12930   */\n      dup3\n        /* \"#utility.yul\":12923:12937   */\n      add\n        /* \"#utility.yul\":12915:12937   */\n      swap1\n      pop\n        /* \"#utility.yul\":12804:12944   */\n      swap2\n      swap1\n      pop\n      jump\t// out\n        /* \"#utility.yul\":12950:13065   */\n    tag_380:\n        /* \"#utility.yul\":13031:13034   */\n      0xc7\n        /* \"#utility.yul\":13024:13029   */\n      dup2\n        /* \"#utility.yul\":13021:13035   */\n      lt\n        /* \"#utility.yul\":13011:13059   */\n      tag_564\n      jumpi\n        /* \"#utility.yul\":13039:13057   */\n      tag_565\n      tag_81\n      jump\t// in\n    tag_565:\n        /* \"#utility.yul\":13011:13059   */\n    tag_564:\n        /* \"#utility.yul\":12950:13065   */\n      pop\n      jump\t// out\n        /* \"#utility.yul\":13071:13198   */\n    tag_381:\n        /* \"#utility.yul\":13116:13123   */\n      0x00\n        /* \"#utility.yul\":13145:13150   */\n      dup2\n        /* \"#utility.yul\":13134:13150   */\n      swap1\n      pop\n        /* \"#utility.yul\":13151:13192   */\n      tag_567\n        /* \"#utility.yul\":13186:13191   */\n      dup3\n        /* \"#utility.yul\":13151:13192   */\n      tag_380\n      jump\t// in\n    tag_567:\n        /* \"#utility.yul\":13071:13198   */\n      swap2\n      swap1\n      pop\n      jump\t// out\n        /* \"#utility.yul\":13204:13331   */\n    tag_382:\n        /* \"#utility.yul\":13260:13269   */\n      0x00\n        /* \"#utility.yul\":13293:13325   */\n      tag_569\n        /* \"#utility.yul\":13319:13324   */\n      dup3\n        /* \"#utility.yul\":13293:13325   */\n      tag_381\n      jump\t// in\n    tag_569:\n        /* \"#utility.yul\":13280:13325   */\n      swap1\n      pop\n        /* \"#utility.yul\":13204:13331   */\n      swap2\n      swap1\n      pop\n      jump\t// out\n        /* \"#utility.yul\":13337:13470   */\n    tag_383:\n        /* \"#utility.yul\":13420:13463   */\n      tag_571\n        /* \"#utility.yul\":13457:13462   */\n      dup2\n        /* \"#utility.yul\":13420:13463   */\n      tag_382\n      jump\t// in\n    tag_571:\n        /* \"#utility.yul\":13415:13418   */\n      dup3\n        /* \"#utility.yul\":13408:13464   */\n      mstore\n        /* \"#utility.yul\":13337:13470   */\n      pop\n      pop\n      jump\t// out\n        /* \"#utility.yul\":13476:13667   */\n    tag_384:\n        /* \"#utility.yul\":13551:13561   */\n      0x00\n        /* \"#utility.yul\":13572:13624   */\n      tag_573\n        /* \"#utility.yul\":13620:13623   */\n      dup4\n        /* \"#utility.yul\":13612:13618   */\n      dup4\n        /* \"#utility.yul\":13572:13624   */\n      tag_383\n      jump\t// in\n    tag_573:\n        /* \"#utility.yul\":13656:13660   */\n      0x20\n        /* \"#utility.yul\":13651:13654   */\n      dup4\n        /* \"#utility.yul\":13647:13661   */\n      add\n        /* \"#utility.yul\":13633:13661   */\n      swap1\n      pop\n        /* \"#utility.yul\":13476:13667   */\n      swap3\n      swap2\n      pop\n      pop\n      jump\t// out\n        /* \"#utility.yul\":13673:13794   */\n    tag_385:\n        /* \"#utility.yul\":13751:13755   */\n      0x00\n        /* \"#utility.yul\":13783:13787   */\n      0x20\n        /* \"#utility.yul\":13778:13781   */\n      dup3\n        /* \"#utility.yul\":13774:13788   */\n      add\n        /* \"#utility.yul\":13766:13788   */\n      swap1\n      pop\n        /* \"#utility.yul\":13673:13794   */\n      swap2\n      swap1\n      pop\n      jump\t// out\n        /* \"#utility.yul\":13836:14602   */\n    tag_386:\n        /* \"#utility.yul\":13961:13964   */\n      0x00\n        /* \"#utility.yul\":13990:14052   */\n      tag_576\n        /* \"#utility.yul\":14046:14051   */\n      dup3\n        /* \"#utility.yul\":13990:14052   */\n      tag_378\n      jump\t// in\n    tag_576:\n        /* \"#utility.yul\":14068:14152   */\n      tag_577\n        /* \"#utility.yul\":14145:14151   */\n      dup2\n        /* \"#utility.yul\":14140:14143   */\n      dup6\n        /* \"#utility.yul\":14068:14152   */\n      tag_337\n      jump\t// in\n    tag_577:\n        /* \"#utility.yul\":14061:14152   */\n      swap4\n      pop\n        /* \"#utility.yul\":14176:14240   */\n      tag_578\n        /* \"#utility.yul\":14234:14239   */\n      dup4\n        /* \"#utility.yul\":14176:14240   */\n      tag_379\n      jump\t// in\n    tag_578:\n        /* \"#utility.yul\":14263:14270   */\n      dup1\n        /* \"#utility.yul\":14294:14295   */\n      0x00\n        /* \"#utility.yul\":14279:14577   */\n    tag_579:\n        /* \"#utility.yul\":14304:14310   */\n      dup4\n        /* \"#utility.yul\":14301:14302   */\n      dup2\n        /* \"#utility.yul\":14298:14311   */\n      lt\n        /* \"#utility.yul\":14279:14577   */\n      iszero\n      tag_581\n      jumpi\n        /* \"#utility.yul\":14380:14386   */\n      dup2\n        /* \"#utility.yul\":14374:14387   */\n      mload\n        /* \"#utility.yul\":14407:14476   */\n      tag_582\n        /* \"#utility.yul\":14472:14475   */\n      dup9\n        /* \"#utility.yul\":14457:14470   */\n      dup3\n        /* \"#utility.yul\":14407:14476   */\n      tag_384\n      jump\t// in\n    tag_582:\n        /* \"#utility.yul\":14400:14476   */\n      swap8\n      pop\n        /* \"#utility.yul\":14499:14567   */\n      tag_583\n        /* \"#utility.yul\":14560:14566   */\n      dup4\n        /* \"#utility.yul\":14499:14567   */\n      tag_385\n      jump\t// in\n    tag_583:\n        /* \"#utility.yul\":14489:14567   */\n      swap3\n      pop\n        /* \"#utility.yul\":14339:14577   */\n      pop\n        /* \"#utility.yul\":14326:14327   */\n      0x01\n        /* \"#utility.yul\":14323:14324   */\n      dup2\n        /* \"#utility.yul\":14319:14328   */\n      add\n        /* \"#utility.yul\":14314:14328   */\n      swap1\n      pop\n        /* \"#utility.yul\":14279:14577   */\n      jump(tag_579)\n    tag_581:\n        /* \"#utility.yul\":14283:14297   */\n      pop\n        /* \"#utility.yul\":14593:14596   */\n      dup6\n        /* \"#utility.yul\":14586:14596   */\n      swap4\n      pop\n        /* \"#utility.yul\":13966:14602   */\n      pop\n      pop\n      pop\n        /* \"#utility.yul\":13836:14602   */\n      swap3\n      swap2\n      pop\n      pop\n      jump\t// out\n        /* \"#utility.yul\":14608:15266   */\n    tag_43:\n        /* \"#utility.yul\":14841:14845   */\n      0x00\n        /* \"#utility.yul\":14879:14881   */\n      0x40\n        /* \"#utility.yul\":14868:14877   */\n      dup3\n        /* \"#utility.yul\":14864:14882   */\n      add\n        /* \"#utility.yul\":14856:14882   */\n      swap1\n      pop\n        /* \"#utility.yul\":14928:14937   */\n      dup2\n        /* \"#utility.yul\":14922:14926   */\n      dup2\n        /* \"#utility.yul\":14918:14938   */\n      sub\n        /* \"#utility.yul\":14914:14915   */\n      0x00\n        /* \"#utility.yul\":14903:14912   */\n      dup4\n        /* \"#utility.yul\":14899:14916   */\n      add\n        /* \"#utility.yul\":14892:14939   */\n      mstore\n        /* \"#utility.yul\":14956:15070   */\n      tag_585\n        /* \"#utility.yul\":15065:15069   */\n      dup2\n        /* \"#utility.yul\":15056:15062   */\n      dup6\n        /* \"#utility.yul\":14956:15070   */\n      tag_386\n      jump\t// in\n    tag_585:\n        /* \"#utility.yul\":14948:15070   */\n      swap1\n      pop\n        /* \"#utility.yul\":15117:15126   */\n      dup2\n        /* \"#utility.yul\":15111:15115   */\n      dup2\n        /* \"#utility.yul\":15107:15127   */\n      sub\n        /* \"#utility.yul\":15102:15104   */\n      0x20\n        /* \"#utility.yul\":15091:15100   */\n      dup4\n        /* \"#utility.yul\":15087:15105   */\n      add\n        /* \"#utility.yul\":15080:15128   */\n      mstore\n        /* \"#utility.yul\":15145:15259   */\n      tag_586\n        /* \"#utility.yul\":15254:15258   */\n      dup2\n        /* \"#utility.yul\":15245:15251   */\n      dup5\n        /* \"#utility.yul\":15145:15259   */\n      tag_386\n      jump\t// in\n    tag_586:\n        /* \"#utility.yul\":15137:15259   */\n      swap1\n      pop\n        /* \"#utility.yul\":14608:15266   */\n      swap4\n      swap3\n      pop\n      pop\n      pop\n      jump\t// out\n        /* \"#utility.yul\":15272:15891   */\n    tag_47:\n        /* \"#utility.yul\":15349:15355   */\n      0x00\n        /* \"#utility.yul\":15357:15363   */\n      dup1\n        /* \"#utility.yul\":15365:15371   */\n      0x00\n        /* \"#utility.yul\":15414:15416   */\n      0x60\n        /* \"#utility.yul\":15402:15411   */\n      dup5\n        /* \"#utility.yul\":15393:15400   */\n      dup7\n        /* \"#utility.yul\":15389:15412   */\n      sub\n        /* \"#utility.yul\":15385:15417   */\n      slt\n        /* \"#utility.yul\":15382:15501   */\n      iszero\n      tag_588\n      jumpi\n        /* \"#utility.yul\":15420:15499   */\n      tag_589\n      tag_347\n      jump\t// in\n    tag_589:\n        /* \"#utility.yul\":15382:15501   */\n    tag_588:\n        /* \"#utility.yul\":15540:15541   */\n      0x00\n        /* \"#utility.yul\":15565:15618   */\n      tag_590\n        /* \"#utility.yul\":15610:15617   */\n      dup7\n        /* \"#utility.yul\":15601:15607   */\n      dup3\n        /* \"#utility.yul\":15590:15599   */\n      dup8\n        /* \"#utility.yul\":15586:15608   */\n      add\n        /* \"#utility.yul\":15565:15618   */\n      tag_351\n      jump\t// in\n    tag_590:\n        /* \"#utility.yul\":15555:15618   */\n      swap4\n      pop\n        /* \"#utility.yul\":15511:15628   */\n      pop\n        /* \"#utility.yul\":15667:15669   */\n      0x20\n        /* \"#utility.yul\":15693:15746   */\n      tag_591\n        /* \"#utility.yul\":15738:15745   */\n      dup7\n        /* \"#utility.yul\":15729:15735   */\n      dup3\n        /* \"#utility.yul\":15718:15727   */\n      dup8\n        /* \"#utility.yul\":15714:15736   */\n      add\n        /* \"#utility.yul\":15693:15746   */\n      tag_351\n      jump\t// in\n    tag_591:\n        /* \"#utility.yul\":15683:15746   */\n      swap3\n      pop\n        /* \"#utility.yul\":15638:15756   */\n      pop\n        /* \"#utility.yul\":15795:15797   */\n      0x40\n        /* \"#utility.yul\":15821:15874   */\n      tag_592\n        /* \"#utility.yul\":15866:15873   */\n      dup7\n        /* \"#utility.yul\":15857:15863   */\n      dup3\n        /* \"#utility.yul\":15846:15855   */\n      dup8\n        /* \"#utility.yul\":15842:15864   */\n      add\n        /* \"#utility.yul\":15821:15874   */\n      tag_351\n      jump\t// in\n    tag_592:\n        /* \"#utility.yul\":15811:15874   */\n      swap2\n      pop\n        /* \"#utility.yul\":15766:15884   */\n      pop\n        /* \"#utility.yul\":15272:15891   */\n      swap3\n      pop\n      swap3\n      pop\n      swap3\n      jump\t// out\n        /* \"#utility.yul\":15897:16204   */\n    tag_387:\n        /* \"#utility.yul\":15958:15962   */\n      0x00\n        /* \"#utility.yul\":16048:16066   */\n      0xffffffffffffffff\n        /* \"#utility.yul\":16040:16046   */\n      dup3\n        /* \"#utility.yul\":16037:16067   */\n      gt\n        /* \"#utility.yul\":16034:16090   */\n      iszero\n      tag_594\n      jumpi\n        /* \"#utility.yul\":16070:16088   */\n      tag_595\n      tag_74\n      jump\t// in\n    tag_595:\n        /* \"#utility.yul\":16034:16090   */\n    tag_594:\n        /* \"#utility.yul\":16108:16137   */\n      tag_596\n        /* \"#utility.yul\":16130:16136   */\n      dup3\n        /* \"#utility.yul\":16108:16137   */\n      tag_354\n      jump\t// in\n    tag_596:\n        /* \"#utility.yul\":16100:16137   */\n      swap1\n      pop\n        /* \"#utility.yul\":16192:16196   */\n      0x20\n        /* \"#utility.yul\":16186:16190   */\n      dup2\n        /* \"#utility.yul\":16182:16197   */\n      add\n        /* \"#utility.yul\":16174:16197   */\n      swap1\n      pop\n        /* \"#utility.yul\":15897:16204   */\n      swap2\n      swap1\n      pop\n      jump\t// out\n        /* \"#utility.yul\":16210:16633   */\n    tag_388:\n        /* \"#utility.yul\":16287:16292   */\n      0x00\n        /* \"#utility.yul\":16312:16377   */\n      tag_598\n        /* \"#utility.yul\":16328:16376   */\n      tag_599\n        /* \"#utility.yul\":16369:16375   */\n      dup5\n        /* \"#utility.yul\":16328:16376   */\n      tag_387\n      jump\t// in\n    tag_599:\n        /* \"#utility.yul\":16312:16377   */\n      tag_356\n      jump\t// in\n    tag_598:\n        /* \"#utility.yul\":16303:16377   */\n      swap1\n      pop\n        /* \"#utility.yul\":16400:16406   */\n      dup3\n        /* \"#utility.yul\":16393:16398   */\n      dup2\n        /* \"#utility.yul\":16386:16407   */\n      mstore\n        /* \"#utility.yul\":16438:16442   */\n      0x20\n        /* \"#utility.yul\":16431:16436   */\n      dup2\n        /* \"#utility.yul\":16427:16443   */\n      add\n        /* \"#utility.yul\":16476:16479   */\n      dup5\n        /* \"#utility.yul\":16467:16473   */\n      dup5\n        /* \"#utility.yul\":16462:16465   */\n      dup5\n        /* \"#utility.yul\":16458:16474   */\n      add\n        /* \"#utility.yul\":16455:16480   */\n      gt\n        /* \"#utility.yul\":16452:16564   */\n      iszero\n      tag_600\n      jumpi\n        /* \"#utility.yul\":16483:16562   */\n      tag_601\n      tag_353\n      jump\t// in\n    tag_601:\n        /* \"#utility.yul\":16452:16564   */\n    tag_600:\n        /* \"#utility.yul\":16573:16627   */\n      tag_602\n        /* \"#utility.yul\":16620:16626   */\n      dup5\n        /* \"#utility.yul\":16615:16618   */\n      dup3\n        /* \"#utility.yul\":16610:16613   */\n      dup6\n        /* \"#utility.yul\":16573:16627   */\n      tag_358\n      jump\t// in\n    tag_602:\n        /* \"#utility.yul\":16293:16633   */\n      pop\n        /* \"#utility.yul\":16210:16633   */\n      swap4\n      swap3\n      pop\n      pop\n      pop\n      jump\t// out\n        /* \"#utility.yul\":16652:16990   */\n    tag_389:\n        /* \"#utility.yul\":16707:16712   */\n      0x00\n        /* \"#utility.yul\":16756:16759   */\n      dup3\n        /* \"#utility.yul\":16749:16753   */\n      0x1f\n        /* \"#utility.yul\":16741:16747   */\n      dup4\n        /* \"#utility.yul\":16737:16754   */\n      add\n        /* \"#utility.yul\":16733:16760   */\n      slt\n        /* \"#utility.yul\":16723:16845   */\n      tag_604\n      jumpi\n        /* \"#utility.yul\":16764:16843   */\n      tag_605\n      tag_352\n      jump\t// in\n    tag_605:\n        /* \"#utility.yul\":16723:16845   */\n    tag_604:\n        /* \"#utility.yul\":16881:16887   */\n      dup2\n        /* \"#utility.yul\":16868:16888   */\n      calldataload\n        /* \"#utility.yul\":16906:16984   */\n      tag_606\n        /* \"#utility.yul\":16980:16983   */\n      dup5\n        /* \"#utility.yul\":16972:16978   */\n      dup3\n        /* \"#utility.yul\":16965:16969   */\n      0x20\n        /* \"#utility.yul\":16957:16963   */\n      dup7\n        /* \"#utility.yul\":16953:16970   */\n      add\n        /* \"#utility.yul\":16906:16984   */\n      tag_388\n      jump\t// in\n    tag_606:\n        /* \"#utility.yul\":16897:16984   */\n      swap2\n      pop\n        /* \"#utility.yul\":16713:16990   */\n      pop\n        /* \"#utility.yul\":16652:16990   */\n      swap3\n      swap2\n      pop\n      pop\n      jump\t// out\n        /* \"#utility.yul\":16996:17828   */\n    tag_53:\n        /* \"#utility.yul\":17083:17089   */\n      0x00\n        /* \"#utility.yul\":17091:17097   */\n      dup1\n        /* \"#utility.yul\":17140:17142   */\n      0x40\n        /* \"#utility.yul\":17128:17137   */\n      dup4\n        /* \"#utility.yul\":17119:17126   */\n      dup6\n        /* \"#utility.yul\":17115:17138   */\n      sub\n        /* \"#utility.yul\":17111:17143   */\n      slt\n        /* \"#utility.yul\":17108:17227   */\n      iszero\n      tag_608\n      jumpi\n        /* \"#utility.yul\":17146:17225   */\n      tag_609\n      tag_347\n      jump\t// in\n    tag_609:\n        /* \"#utility.yul\":17108:17227   */\n    tag_608:\n        /* \"#utility.yul\":17294:17295   */\n      0x00\n        /* \"#utility.yul\":17283:17292   */\n      dup4\n        /* \"#utility.yul\":17279:17296   */\n      add\n        /* \"#utility.yul\":17266:17297   */\n      calldataload\n        /* \"#utility.yul\":17324:17342   */\n      0xffffffffffffffff\n        /* \"#utility.yul\":17316:17322   */\n      dup2\n        /* \"#utility.yul\":17313:17343   */\n      gt\n        /* \"#utility.yul\":17310:17427   */\n      iszero\n      tag_610\n      jumpi\n        /* \"#utility.yul\":17346:17425   */\n      tag_611\n      tag_348\n      jump\t// in\n    tag_611:\n        /* \"#utility.yul\":17310:17427   */\n    tag_610:\n        /* \"#utility.yul\":17451:17514   */\n      tag_612\n        /* \"#utility.yul\":17506:17513   */\n      dup6\n        /* \"#utility.yul\":17497:17503   */\n      dup3\n        /* \"#utility.yul\":17486:17495   */\n      dup7\n        /* \"#utility.yul\":17482:17504   */\n      add\n        /* \"#utility.yul\":17451:17514   */\n      tag_360\n      jump\t// in\n    tag_612:\n        /* \"#utility.yul\":17441:17514   */\n      swap3\n      pop\n        /* \"#utility.yul\":17237:17524   */\n      pop\n        /* \"#utility.yul\":17591:17593   */\n      0x20\n        /* \"#utility.yul\":17580:17589   */\n      dup4\n        /* \"#utility.yul\":17576:17594   */\n      add\n        /* \"#utility.yul\":17563:17595   */\n      calldataload\n        /* \"#utility.yul\":17622:17640   */\n      0xffffffffffffffff\n        /* \"#utility.yul\":17614:17620   */\n      dup2\n        /* \"#utility.yul\":17611:17641   */\n      gt\n        /* \"#utility.yul\":17608:17725   */\n      iszero\n      tag_613\n      jumpi\n        /* \"#utility.yul\":17644:17723   */\n      tag_614\n      tag_348\n      jump\t// in\n    tag_614:\n        /* \"#utility.yul\":17608:17725   */\n    tag_613:\n        /* \"#utility.yul\":17749:17811   */\n      tag_615\n        /* \"#utility.yul\":17803:17810   */\n      dup6\n        /* \"#utility.yul\":17794:17800   */\n      dup3\n        /* \"#utility.yul\":17783:17792   */\n      dup7\n        /* \"#utility.yul\":17779:17801   */\n      add\n        /* \"#utility.yul\":17749:17811   */\n      tag_389\n      jump\t// in\n    tag_615:\n        /* \"#utility.yul\":17739:17811   */\n      swap2\n      pop\n        /* \"#utility.yul\":17534:17821   */\n      pop\n        /* \"#utility.yul\":16996:17828   */\n      swap3\n      pop\n      swap3\n      swap1\n      pop\n      jump\t// out\n        /* \"#utility.yul\":17834:17932   */\n    tag_390:\n        /* \"#utility.yul\":17885:17891   */\n      0x00\n        /* \"#utility.yul\":17919:17924   */\n      dup2\n        /* \"#utility.yul\":17913:17925   */\n      mload\n        /* \"#utility.yul\":17903:17925   */\n      swap1\n      pop\n        /* \"#utility.yul\":17834:17932   */\n      swap2\n      swap1\n      pop\n      jump\t// out\n        /* \"#utility.yul\":17938:18106   */\n    tag_391:\n        /* \"#utility.yul\":18021:18032   */\n      0x00\n        /* \"#utility.yul\":18055:18061   */\n      dup3\n        /* \"#utility.yul\":18050:18053   */\n      dup3\n        /* \"#utility.yul\":18043:18062   */\n      mstore\n        /* \"#utility.yul\":18095:18099   */\n      0x20\n        /* \"#utility.yul\":18090:18093   */\n      dup3\n        /* \"#utility.yul\":18086:18100   */\n      add\n        /* \"#utility.yul\":18071:18100   */\n      swap1\n      pop\n        /* \"#utility.yul\":17938:18106   */\n      swap3\n      swap2\n      pop\n      pop\n      jump\t// out\n        /* \"#utility.yul\":18112:18485   */\n    tag_392:\n        /* \"#utility.yul\":18198:18201   */\n      0x00\n        /* \"#utility.yul\":18226:18264   */\n      tag_619\n        /* \"#utility.yul\":18258:18263   */\n      dup3\n        /* \"#utility.yul\":18226:18264   */\n      tag_390\n      jump\t// in\n    tag_619:\n        /* \"#utility.yul\":18280:18350   */\n      tag_620\n        /* \"#utility.yul\":18343:18349   */\n      dup2\n        /* \"#utility.yul\":18338:18341   */\n      dup6\n        /* \"#utility.yul\":18280:18350   */\n      tag_391\n      jump\t// in\n    tag_620:\n        /* \"#utility.yul\":18273:18350   */\n      swap4\n      pop\n        /* \"#utility.yul\":18359:18424   */\n      tag_621\n        /* \"#utility.yul\":18417:18423   */\n      dup2\n        /* \"#utility.yul\":18412:18415   */\n      dup6\n        /* \"#utility.yul\":18405:18409   */\n      0x20\n        /* \"#utility.yul\":18398:18403   */\n      dup7\n        /* \"#utility.yul\":18394:18410   */\n      add\n        /* \"#utility.yul\":18359:18424   */\n      tag_367\n      jump\t// in\n    tag_621:\n        /* \"#utility.yul\":18449:18478   */\n      tag_622\n        /* \"#utility.yul\":18471:18477   */\n      dup2\n        /* \"#utility.yul\":18449:18478   */\n      tag_354\n      jump\t// in\n    tag_622:\n        /* \"#utility.yul\":18444:18447   */\n      dup5\n        /* \"#utility.yul\":18440:18479   */\n      add\n        /* \"#utility.yul\":18433:18479   */\n      swap2\n      pop\n        /* \"#utility.yul\":18202:18485   */\n      pop\n        /* \"#utility.yul\":18112:18485   */\n      swap3\n      swap2\n      pop\n      pop\n      jump\t// out\n        /* \"#utility.yul\":18491:18800   */\n    tag_56:\n        /* \"#utility.yul\":18602:18606   */\n      0x00\n        /* \"#utility.yul\":18640:18642   */\n      0x20\n        /* \"#utility.yul\":18629:18638   */\n      dup3\n        /* \"#utility.yul\":18625:18643   */\n      add\n        /* \"#utility.yul\":18617:18643   */\n      swap1\n      pop\n        /* \"#utility.yul\":18689:18698   */\n      dup2\n        /* \"#utility.yul\":18683:18687   */\n      dup2\n        /* \"#utility.yul\":18679:18699   */\n      sub\n        /* \"#utility.yul\":18675:18676   */\n      0x00\n        /* \"#utility.yul\":18664:18673   */\n      dup4\n        /* \"#utility.yul\":18660:18677   */\n      add\n        /* \"#utility.yul\":18653:18700   */\n      mstore\n        /* \"#utility.yul\":18717:18793   */\n      tag_624\n        /* \"#utility.yul\":18788:18792   */\n      dup2\n        /* \"#utility.yul\":18779:18785   */\n      dup5\n        /* \"#utility.yul\":18717:18793   */\n      tag_392\n      jump\t// in\n    tag_624:\n        /* \"#utility.yul\":18709:18793   */\n      swap1\n      pop\n        /* \"#utility.yul\":18491:18800   */\n      swap3\n      swap2\n      pop\n      pop\n      jump\t// out\n        /* \"#utility.yul\":18806:18918   */\n    tag_393:\n        /* \"#utility.yul\":18892:18893   */\n      0x04\n        /* \"#utility.yul\":18885:18890   */\n      dup2\n        /* \"#utility.yul\":18882:18894   */\n      lt\n        /* \"#utility.yul\":18872:18912   */\n      tag_626\n      jumpi\n        /* \"#utility.yul\":18908:18909   */\n      0x00\n        /* \"#utility.yul\":18905:18906   */\n      dup1\n        /* \"#utility.yul\":18898:18910   */\n      revert\n        /* \"#utility.yul\":18872:18912   */\n    tag_626:\n        /* \"#utility.yul\":18806:18918   */\n      pop\n      jump\t// out\n        /* \"#utility.yul\":18924:19089   */\n    tag_394:\n        /* \"#utility.yul\":18983:18988   */\n      0x00\n        /* \"#utility.yul\":19021:19027   */\n      dup2\n        /* \"#utility.yul\":19008:19028   */\n      calldataload\n        /* \"#utility.yul\":18999:19028   */\n      swap1\n      pop\n        /* \"#utility.yul\":19037:19083   */\n      tag_628\n        /* \"#utility.yul\":19077:19082   */\n      dup2\n        /* \"#utility.yul\":19037:19083   */\n      tag_393\n      jump\t// in\n    tag_628:\n        /* \"#utility.yul\":18924:19089   */\n      swap3\n      swap2\n      pop\n      pop\n      jump\t// out\n        /* \"#utility.yul\":19095:19450   */\n    tag_68:\n        /* \"#utility.yul\":19167:19173   */\n      0x00\n        /* \"#utility.yul\":19216:19218   */\n      0x20\n        /* \"#utility.yul\":19204:19213   */\n      dup3\n        /* \"#utility.yul\":19195:19202   */\n      dup5\n        /* \"#utility.yul\":19191:19214   */\n      sub\n        /* \"#utility.yul\":19187:19219   */\n      slt\n        /* \"#utility.yul\":19184:19303   */\n      iszero\n      tag_630\n      jumpi\n        /* \"#utility.yul\":19222:19301   */\n      tag_631\n      tag_347\n      jump\t// in\n    tag_631:\n        /* \"#utility.yul\":19184:19303   */\n    tag_630:\n        /* \"#utility.yul\":19342:19343   */\n      0x00\n        /* \"#utility.yul\":19367:19433   */\n      tag_632\n        /* \"#utility.yul\":19425:19432   */\n      dup5\n        /* \"#utility.yul\":19416:19422   */\n      dup3\n        /* \"#utility.yul\":19405:19414   */\n      dup6\n        /* \"#utility.yul\":19401:19423   */\n      add\n        /* \"#utility.yul\":19367:19433   */\n      tag_394\n      jump\t// in\n    tag_632:\n        /* \"#utility.yul\":19357:19433   */\n      swap2\n      pop\n        /* \"#utility.yul\":19313:19443   */\n      pop\n        /* \"#utility.yul\":19095:19450   */\n      swap3\n      swap2\n      pop\n      pop\n      jump\t// out\n        /* \"#utility.yul\":19456:19636   */\n    tag_78:\n        /* \"#utility.yul\":19504:19581   */\n      0x4e487b7100000000000000000000000000000000000000000000000000000000\n        /* \"#utility.yul\":19501:19502   */\n      0x00\n        /* \"#utility.yul\":19494:19582   */\n      mstore\n        /* \"#utility.yul\":19601:19605   */\n      0x32\n        /* \"#utility.yul\":19598:19599   */\n      0x04\n        /* \"#utility.yul\":19591:19606   */\n      mstore\n        /* \"#utility.yul\":19625:19629   */\n      0x24\n        /* \"#utility.yul\":19622:19623   */\n      0x00\n        /* \"#utility.yul\":19615:19630   */\n      revert\n        /* \"#utility.yul\":19642:19790   */\n    tag_395:\n        /* \"#utility.yul\":19744:19755   */\n      0x00\n        /* \"#utility.yul\":19781:19784   */\n      dup2\n        /* \"#utility.yul\":19766:19784   */\n      swap1\n      pop\n        /* \"#utility.yul\":19642:19790   */\n      swap3\n      swap2\n      pop\n      pop\n      jump\t// out\n        /* \"#utility.yul\":19796:20186   */\n    tag_396:\n        /* \"#utility.yul\":19902:19905   */\n      0x00\n        /* \"#utility.yul\":19930:19969   */\n      tag_636\n        /* \"#utility.yul\":19963:19968   */\n      dup3\n        /* \"#utility.yul\":19930:19969   */\n      tag_365\n      jump\t// in\n    tag_636:\n        /* \"#utility.yul\":19985:20074   */\n      tag_637\n        /* \"#utility.yul\":20067:20073   */\n      dup2\n        /* \"#utility.yul\":20062:20065   */\n      dup6\n        /* \"#utility.yul\":19985:20074   */\n      tag_395\n      jump\t// in\n    tag_637:\n        /* \"#utility.yul\":19978:20074   */\n      swap4\n      pop\n        /* \"#utility.yul\":20083:20148   */\n      tag_638\n        /* \"#utility.yul\":20141:20147   */\n      dup2\n        /* \"#utility.yul\":20136:20139   */\n      dup6\n        /* \"#utility.yul\":20129:20133   */\n      0x20\n        /* \"#utility.yul\":20122:20127   */\n      dup7\n        /* \"#utility.yul\":20118:20134   */\n      add\n        /* \"#utility.yul\":20083:20148   */\n      tag_367\n      jump\t// in\n    tag_638:\n        /* \"#utility.yul\":20173:20179   */\n      dup1\n        /* \"#utility.yul\":20168:20171   */\n      dup5\n        /* \"#utility.yul\":20164:20180   */\n      add\n        /* \"#utility.yul\":20157:20180   */\n      swap2\n      pop\n        /* \"#utility.yul\":19906:20186   */\n      pop\n        /* \"#utility.yul\":19796:20186   */\n      swap3\n      swap2\n      pop\n      pop\n      jump\t// out\n        /* \"#utility.yul\":20192:20343   */\n    tag_397:\n        /* \"#utility.yul\":20332:20335   */\n      0x2c00000000000000000000000000000000000000000000000000000000000000\n        /* \"#utility.yul\":20328:20329   */\n      0x00\n        /* \"#utility.yul\":20320:20326   */\n      dup3\n        /* \"#utility.yul\":20316:20330   */\n      add\n        /* \"#utility.yul\":20309:20336   */\n      mstore\n        /* \"#utility.yul\":20192:20343   */\n      pop\n      jump\t// out\n        /* \"#utility.yul\":20349:20749   */\n    tag_398:\n        /* \"#utility.yul\":20509:20512   */\n      0x00\n        /* \"#utility.yul\":20530:20614   */\n      tag_641\n        /* \"#utility.yul\":20612:20613   */\n      0x01\n        /* \"#utility.yul\":20607:20610   */\n      dup4\n        /* \"#utility.yul\":20530:20614   */\n      tag_395\n      jump\t// in\n    tag_641:\n        /* \"#utility.yul\":20523:20614   */\n      swap2\n      pop\n        /* \"#utility.yul\":20623:20716   */\n      tag_642\n        /* \"#utility.yul\":20712:20715   */\n      dup3\n        /* \"#utility.yul\":20623:20716   */\n      tag_397\n      jump\t// in\n    tag_642:\n        /* \"#utility.yul\":20741:20742   */\n      0x01\n        /* \"#utility.yul\":20736:20739   */\n      dup3\n        /* \"#utility.yul\":20732:20743   */\n      add\n        /* \"#utility.yul\":20725:20743   */\n      swap1\n      pop\n        /* \"#utility.yul\":20349:20749   */\n      swap2\n      swap1\n      pop\n      jump\t// out\n        /* \"#utility.yul\":20755:22734   */\n    tag_112:\n        /* \"#utility.yul\":21483:21486   */\n      0x00\n        /* \"#utility.yul\":21505:21600   */\n      tag_644\n        /* \"#utility.yul\":21596:21599   */\n      dup3\n        /* \"#utility.yul\":21587:21593   */\n      dup9\n        /* \"#utility.yul\":21505:21600   */\n      tag_396\n      jump\t// in\n    tag_644:\n        /* \"#utility.yul\":21498:21600   */\n      swap2\n      pop\n        /* \"#utility.yul\":21617:21765   */\n      tag_645\n        /* \"#utility.yul\":21761:21764   */\n      dup3\n        /* \"#utility.yul\":21617:21765   */\n      tag_398\n      jump\t// in\n    tag_645:\n        /* \"#utility.yul\":21610:21765   */\n      swap2\n      pop\n        /* \"#utility.yul\":21782:21877   */\n      tag_646\n        /* \"#utility.yul\":21873:21876   */\n      dup3\n        /* \"#utility.yul\":21864:21870   */\n      dup8\n        /* \"#utility.yul\":21782:21877   */\n      tag_396\n      jump\t// in\n    tag_646:\n        /* \"#utility.yul\":21775:21877   */\n      swap2\n      pop\n        /* \"#utility.yul\":21894:22042   */\n      tag_647\n        /* \"#utility.yul\":22038:22041   */\n      dup3\n        /* \"#utility.yul\":21894:22042   */\n      tag_398\n      jump\t// in\n    tag_647:\n        /* \"#utility.yul\":21887:22042   */\n      swap2\n      pop\n        /* \"#utility.yul\":22059:22154   */\n      tag_648\n        /* \"#utility.yul\":22150:22153   */\n      dup3\n        /* \"#utility.yul\":22141:22147   */\n      dup7\n        /* \"#utility.yul\":22059:22154   */\n      tag_396\n      jump\t// in\n    tag_648:\n        /* \"#utility.yul\":22052:22154   */\n      swap2\n      pop\n        /* \"#utility.yul\":22171:22319   */\n      tag_649\n        /* \"#utility.yul\":22315:22318   */\n      dup3\n        /* \"#utility.yul\":22171:22319   */\n      tag_398\n      jump\t// in\n    tag_649:\n        /* \"#utility.yul\":22164:22319   */\n      swap2\n      pop\n        /* \"#utility.yul\":22336:22431   */\n      tag_650\n        /* \"#utility.yul\":22427:22430   */\n      dup3\n        /* \"#utility.yul\":22418:22424   */\n      dup6\n        /* \"#utility.yul\":22336:22431   */\n      tag_396\n      jump\t// in\n    tag_650:\n        /* \"#utility.yul\":22329:22431   */\n      swap2\n      pop\n        /* \"#utility.yul\":22448:22596   */\n      tag_651\n        /* \"#utility.yul\":22592:22595   */\n      dup3\n        /* \"#utility.yul\":22448:22596   */\n      tag_398\n      jump\t// in\n    tag_651:\n        /* \"#utility.yul\":22441:22596   */\n      swap2\n      pop\n        /* \"#utility.yul\":22613:22708   */\n      tag_652\n        /* \"#utility.yul\":22704:22707   */\n      dup3\n        /* \"#utility.yul\":22695:22701   */\n      dup5\n        /* \"#utility.yul\":22613:22708   */\n      tag_396\n      jump\t// in\n    tag_652:\n        /* \"#utility.yul\":22606:22708   */\n      swap2\n      pop\n        /* \"#utility.yul\":22725:22728   */\n      dup2\n        /* \"#utility.yul\":22718:22728   */\n      swap1\n      pop\n        /* \"#utility.yul\":20755:22734   */\n      swap7\n      swap6\n      pop\n      pop\n      pop\n      pop\n      pop\n      pop\n      jump\t// out\n        /* \"#utility.yul\":22740:22920   */\n    tag_399:\n        /* \"#utility.yul\":22788:22865   */\n      0x4e487b7100000000000000000000000000000000000000000000000000000000\n        /* \"#utility.yul\":22785:22786   */\n      0x00\n        /* \"#utility.yul\":22778:22866   */\n      mstore\n        /* \"#utility.yul\":22885:22889   */\n      0x11\n        /* \"#utility.yul\":22882:22883   */\n      0x04\n        /* \"#utility.yul\":22875:22890   */\n      mstore\n        /* \"#utility.yul\":22909:22913   */\n      0x24\n        /* \"#utility.yul\":22906:22907   */\n      0x00\n        /* \"#utility.yul\":22899:22914   */\n      revert\n        /* \"#utility.yul\":22926:23120   */\n    tag_122:\n        /* \"#utility.yul\":22966:22970   */\n      0x00\n        /* \"#utility.yul\":22986:23006   */\n      tag_655\n        /* \"#utility.yul\":23004:23005   */\n      dup3\n        /* \"#utility.yul\":22986:23006   */\n      tag_349\n      jump\t// in\n    tag_655:\n        /* \"#utility.yul\":22981:23006   */\n      swap2\n      pop\n        /* \"#utility.yul\":23020:23040   */\n      tag_656\n        /* \"#utility.yul\":23038:23039   */\n      dup4\n        /* \"#utility.yul\":23020:23040   */\n      tag_349\n      jump\t// in\n    tag_656:\n        /* \"#utility.yul\":23015:23040   */\n      swap3\n      pop\n        /* \"#utility.yul\":23064:23065   */\n      dup3\n        /* \"#utility.yul\":23061:23062   */\n      dup3\n        /* \"#utility.yul\":23057:23066   */\n      sub\n        /* \"#utility.yul\":23049:23066   */\n      swap1\n      pop\n        /* \"#utility.yul\":23088:23089   */\n      dup2\n        /* \"#utility.yul\":23082:23086   */\n      dup2\n        /* \"#utility.yul\":23079:23090   */\n      gt\n        /* \"#utility.yul\":23076:23113   */\n      iszero\n      tag_657\n      jumpi\n        /* \"#utility.yul\":23093:23111   */\n      tag_658\n      tag_399\n      jump\t// in\n    tag_658:\n        /* \"#utility.yul\":23076:23113   */\n    tag_657:\n        /* \"#utility.yul\":22926:23120   */\n      swap3\n      swap2\n      pop\n      pop\n      jump\t// out\n        /* \"#utility.yul\":23126:23306   */\n    tag_400:\n        /* \"#utility.yul\":23174:23251   */\n      0x4e487b7100000000000000000000000000000000000000000000000000000000\n        /* \"#utility.yul\":23171:23172   */\n      0x00\n        /* \"#utility.yul\":23164:23252   */\n      mstore\n        /* \"#utility.yul\":23271:23275   */\n      0x12\n        /* \"#utility.yul\":23268:23269   */\n      0x04\n        /* \"#utility.yul\":23261:23276   */\n      mstore\n        /* \"#utility.yul\":23295:23299   */\n      0x24\n        /* \"#utility.yul\":23292:23293   */\n      0x00\n        /* \"#utility.yul\":23285:23300   */\n      revert\n        /* \"#utility.yul\":23312:23497   */\n    tag_125:\n        /* \"#utility.yul\":23352:23353   */\n      0x00\n        /* \"#utility.yul\":23369:23389   */\n      tag_661\n        /* \"#utility.yul\":23387:23388   */\n      dup3\n        /* \"#utility.yul\":23369:23389   */\n      tag_349\n      jump\t// in\n    tag_661:\n        /* \"#utility.yul\":23364:23389   */\n      swap2\n      pop\n        /* \"#utility.yul\":23403:23423   */\n      tag_662\n        /* \"#utility.yul\":23421:23422   */\n      dup4\n        /* \"#utility.yul\":23403:23423   */\n      tag_349\n      jump\t// in\n    tag_662:\n        /* \"#utility.yul\":23398:23423   */\n      swap3\n      pop\n        /* \"#utility.yul\":23442:23443   */\n      dup3\n        /* \"#utility.yul\":23432:23467   */\n      tag_663\n      jumpi\n        /* \"#utility.yul\":23447:23465   */\n      tag_664\n      tag_400\n      jump\t// in\n    tag_664:\n        /* \"#utility.yul\":23432:23467   */\n    tag_663:\n        /* \"#utility.yul\":23489:23490   */\n      dup3\n        /* \"#utility.yul\":23486:23487   */\n      dup3\n        /* \"#utility.yul\":23482:23491   */\n      div\n        /* \"#utility.yul\":23477:23491   */\n      swap1\n      pop\n        /* \"#utility.yul\":23312:23497   */\n      swap3\n      swap2\n      pop\n      pop\n      jump\t// out\n        /* \"#utility.yul\":23503:23913   */\n    tag_134:\n        /* \"#utility.yul\":23543:23550   */\n      0x00\n        /* \"#utility.yul\":23566:23586   */\n      tag_666\n        /* \"#utility.yul\":23584:23585   */\n      dup3\n        /* \"#utility.yul\":23566:23586   */\n      tag_349\n      jump\t// in\n    tag_666:\n        /* \"#utility.yul\":23561:23586   */\n      swap2\n      pop\n        /* \"#utility.yul\":23600:23620   */\n      tag_667\n        /* \"#utility.yul\":23618:23619   */\n      dup4\n        /* \"#utility.yul\":23600:23620   */\n      tag_349\n      jump\t// in\n    tag_667:\n        /* \"#utility.yul\":23595:23620   */\n      swap3\n      pop\n        /* \"#utility.yul\":23655:23656   */\n      dup3\n        /* \"#utility.yul\":23652:23653   */\n      dup3\n        /* \"#utility.yul\":23648:23657   */\n      mul\n        /* \"#utility.yul\":23677:23707   */\n      tag_668\n        /* \"#utility.yul\":23695:23706   */\n      dup2\n        /* \"#utility.yul\":23677:23707   */\n      tag_349\n      jump\t// in\n    tag_668:\n        /* \"#utility.yul\":23666:23707   */\n      swap2\n      pop\n        /* \"#utility.yul\":23856:23857   */\n      dup3\n        /* \"#utility.yul\":23847:23854   */\n      dup3\n        /* \"#utility.yul\":23843:23858   */\n      div\n        /* \"#utility.yul\":23840:23841   */\n      dup5\n        /* \"#utility.yul\":23837:23859   */\n      eq\n        /* \"#utility.yul\":23817:23818   */\n      dup4\n        /* \"#utility.yul\":23810:23819   */\n      iszero\n        /* \"#utility.yul\":23790:23873   */\n      or\n        /* \"#utility.yul\":23767:23906   */\n      tag_669\n      jumpi\n        /* \"#utility.yul\":23886:23904   */\n      tag_670\n      tag_399\n      jump\t// in\n    tag_670:\n        /* \"#utility.yul\":23767:23906   */\n    tag_669:\n        /* \"#utility.yul\":23551:23913   */\n      pop\n        /* \"#utility.yul\":23503:23913   */\n      swap3\n      swap2\n      pop\n      pop\n      jump\t// out\n        /* \"#utility.yul\":23919:24110   */\n    tag_139:\n        /* \"#utility.yul\":23959:23962   */\n      0x00\n        /* \"#utility.yul\":23978:23998   */\n      tag_672\n        /* \"#utility.yul\":23996:23997   */\n      dup3\n        /* \"#utility.yul\":23978:23998   */\n      tag_349\n      jump\t// in\n    tag_672:\n        /* \"#utility.yul\":23973:23998   */\n      swap2\n      pop\n        /* \"#utility.yul\":24012:24032   */\n      tag_673\n        /* \"#utility.yul\":24030:24031   */\n      dup4\n        /* \"#utility.yul\":24012:24032   */\n      tag_349\n      jump\t// in\n    tag_673:\n        /* \"#utility.yul\":24007:24032   */\n      swap3\n      pop\n        /* \"#utility.yul\":24055:24056   */\n      dup3\n        /* \"#utility.yul\":24052:24053   */\n      dup3\n        /* \"#utility.yul\":24048:24057   */\n      add\n        /* \"#utility.yul\":24041:24057   */\n      swap1\n      pop\n        /* \"#utility.yul\":24076:24079   */\n      dup1\n        /* \"#utility.yul\":24073:24074   */\n      dup3\n        /* \"#utility.yul\":24070:24080   */\n      gt\n        /* \"#utility.yul\":24067:24103   */\n      iszero\n      tag_674\n      jumpi\n        /* \"#utility.yul\":24083:24101   */\n      tag_675\n      tag_399\n      jump\t// in\n    tag_675:\n        /* \"#utility.yul\":24067:24103   */\n    tag_674:\n        /* \"#utility.yul\":23919:24110   */\n      swap3\n      swap2\n      pop\n      pop\n      jump\t// out\n        /* \"#utility.yul\":24116:24296   */\n    tag_401:\n        /* \"#utility.yul\":24164:24241   */\n      0x4e487b7100000000000000000000000000000000000000000000000000000000\n        /* \"#utility.yul\":24161:24162   */\n      0x00\n        /* \"#utility.yul\":24154:24242   */\n      mstore\n        /* \"#utility.yul\":24261:24265   */\n      0x22\n        /* \"#utility.yul\":24258:24259   */\n      0x04\n        /* \"#utility.yul\":24251:24266   */\n      mstore\n        /* \"#utility.yul\":24285:24289   */\n      0x24\n        /* \"#utility.yul\":24282:24283   */\n      0x00\n        /* \"#utility.yul\":24275:24290   */\n      revert\n        /* \"#utility.yul\":24302:24622   */\n    tag_151:\n        /* \"#utility.yul\":24346:24352   */\n      0x00\n        /* \"#utility.yul\":24383:24384   */\n      0x02\n        /* \"#utility.yul\":24377:24381   */\n      dup3\n        /* \"#utility.yul\":24373:24385   */\n      div\n        /* \"#utility.yul\":24363:24385   */\n      swap1\n      pop\n        /* \"#utility.yul\":24430:24431   */\n      0x01\n        /* \"#utility.yul\":24424:24428   */\n      dup3\n        /* \"#utility.yul\":24420:24432   */\n      and\n        /* \"#utility.yul\":24451:24469   */\n      dup1\n        /* \"#utility.yul\":24441:24522   */\n      tag_678\n      jumpi\n        /* \"#utility.yul\":24507:24511   */\n      0x7f\n        /* \"#utility.yul\":24499:24505   */\n      dup3\n        /* \"#utility.yul\":24495:24512   */\n      and\n        /* \"#utility.yul\":24485:24512   */\n      swap2\n      pop\n        /* \"#utility.yul\":24441:24522   */\n    tag_678:\n        /* \"#utility.yul\":24569:24571   */\n      0x20\n        /* \"#utility.yul\":24561:24567   */\n      dup3\n        /* \"#utility.yul\":24558:24572   */\n      lt\n        /* \"#utility.yul\":24538:24556   */\n      dup2\n        /* \"#utility.yul\":24535:24573   */\n      sub\n        /* \"#utility.yul\":24532:24616   */\n      tag_679\n      jumpi\n        /* \"#utility.yul\":24588:24606   */\n      tag_680\n      tag_401\n      jump\t// in\n    tag_680:\n        /* \"#utility.yul\":24532:24616   */\n    tag_679:\n        /* \"#utility.yul\":24353:24622   */\n      pop\n        /* \"#utility.yul\":24302:24622   */\n      swap2\n      swap1\n      pop\n      jump\t// out\n        /* \"#utility.yul\":24628:24861   */\n    tag_159:\n        /* \"#utility.yul\":24667:24670   */\n      0x00\n        /* \"#utility.yul\":24690:24714   */\n      tag_682\n        /* \"#utility.yul\":24708:24713   */\n      dup3\n        /* \"#utility.yul\":24690:24714   */\n      tag_349\n      jump\t// in\n    tag_682:\n        /* \"#utility.yul\":24681:24714   */\n      swap2\n      pop\n        /* \"#utility.yul\":24736:24802   */\n      0xffffffffffffffffffffffffffffffffffffffffffffffffffffffffffffffff\n        /* \"#utility.yul\":24729:24734   */\n      dup3\n        /* \"#utility.yul\":24726:24803   */\n      sub\n        /* \"#utility.yul\":24723:24826   */\n      tag_683\n      jumpi\n        /* \"#utility.yul\":24806:24824   */\n      tag_684\n      tag_399\n      jump\t// in\n    tag_684:\n        /* \"#utility.yul\":24723:24826   */\n    tag_683:\n        /* \"#utility.yul\":24853:24854   */\n      0x01\n        /* \"#utility.yul\":24846:24851   */\n      dup3\n        /* \"#utility.yul\":24842:24855   */\n      add\n        /* \"#utility.yul\":24835:24855   */\n      swap1\n      pop\n        /* \"#utility.yul\":24628:24861   */\n      swap2\n      swap1\n      pop\n      jump\t// out\n        /* \"#utility.yul\":24867:24943   */\n    tag_402:\n        /* \"#utility.yul\":24903:24910   */\n      0x00\n        /* \"#utility.yul\":24932:24937   */\n      dup2\n        /* \"#utility.yul\":24921:24937   */\n      swap1\n      pop\n        /* \"#utility.yul\":24867:24943   */\n      swap2\n      swap1\n      pop\n      jump\t// out\n        /* \"#utility.yul\":24949:25180   */\n    tag_161:\n        /* \"#utility.yul\":24987:24990   */\n      0x00\n        /* \"#utility.yul\":25010:25033   */\n      tag_687\n        /* \"#utility.yul\":25027:25032   */\n      dup3\n        /* \"#utility.yul\":25010:25033   */\n      tag_402\n      jump\t// in\n    tag_687:\n        /* \"#utility.yul\":25001:25033   */\n      swap2\n      pop\n        /* \"#utility.yul\":25055:25121   */\n      0x8000000000000000000000000000000000000000000000000000000000000000\n        /* \"#utility.yul\":25048:25053   */\n      dup3\n        /* \"#utility.yul\":25045:25122   */\n      sub\n        /* \"#utility.yul\":25042:25145   */\n      tag_688\n      jumpi\n        /* \"#utility.yul\":25125:25143   */\n      tag_689\n      tag_399\n      jump\t// in\n    tag_689:\n        /* \"#utility.yul\":25042:25145   */\n    tag_688:\n        /* \"#utility.yul\":25172:25173   */\n      0x01\n        /* \"#utility.yul\":25165:25170   */\n      dup3\n        /* \"#utility.yul\":25161:25174   */\n      sub\n        /* \"#utility.yul\":25154:25174   */\n      swap1\n      pop\n        /* \"#utility.yul\":24949:25180   */\n      swap2\n      swap1\n      pop\n      jump\t// out\n        /* \"#utility.yul\":25186:25461   */\n    tag_164:\n        /* \"#utility.yul\":25318:25321   */\n      0x00\n        /* \"#utility.yul\":25340:25435   */\n      tag_691\n        /* \"#utility.yul\":25431:25434   */\n      dup3\n        /* \"#utility.yul\":25422:25428   */\n      dup5\n        /* \"#utility.yul\":25340:25435   */\n      tag_396\n      jump\t// in\n    tag_691:\n        /* \"#utility.yul\":25333:25435   */\n      swap2\n      pop\n        /* \"#utility.yul\":25452:25455   */\n      dup2\n        /* \"#utility.yul\":25445:25455   */\n      swap1\n      pop\n        /* \"#utility.yul\":25186:25461   */\n      swap3\n      swap2\n      pop\n      pop\n      jump\t// out\n        /* \"#utility.yul\":25467:25610   */\n    tag_403:\n        /* \"#utility.yul\":25524:25529   */\n      0x00\n        /* \"#utility.yul\":25555:25561   */\n      dup2\n        /* \"#utility.yul\":25549:25562   */\n      mload\n        /* \"#utility.yul\":25540:25562   */\n      swap1\n      pop\n        /* \"#utility.yul\":25571:25604   */\n      tag_693\n        /* \"#utility.yul\":25598:25603   */\n      dup2\n        /* \"#utility.yul\":25571:25604   */\n      tag_350\n      jump\t// in\n    tag_693:\n        /* \"#utility.yul\":25467:25610   */\n      swap3\n      swap2\n      pop\n      pop\n      jump\t// out\n        /* \"#utility.yul\":25616:25967   */\n    tag_221:\n        /* \"#utility.yul\":25686:25692   */\n      0x00\n        /* \"#utility.yul\":25735:25737   */\n      0x20\n        /* \"#utility.yul\":25723:25732   */\n      dup3\n        /* \"#utility.yul\":25714:25721   */\n      dup5\n        /* \"#utility.yul\":25710:25733   */\n      sub\n        /* \"#utility.yul\":25706:25738   */\n      slt\n        /* \"#utility.yul\":25703:25822   */\n      iszero\n      tag_695\n      jumpi\n        /* \"#utility.yul\":25741:25820   */\n      tag_696\n      tag_347\n      jump\t// in\n    tag_696:\n        /* \"#utility.yul\":25703:25822   */\n    tag_695:\n        /* \"#utility.yul\":25861:25862   */\n      0x00\n        /* \"#utility.yul\":25886:25950   */\n      tag_697\n        /* \"#utility.yul\":25942:25949   */\n      dup5\n        /* \"#utility.yul\":25933:25939   */\n      dup3\n        /* \"#utility.yul\":25922:25931   */\n      dup6\n        /* \"#utility.yul\":25918:25940   */\n      add\n        /* \"#utility.yul\":25886:25950   */\n      tag_403\n      jump\t// in\n    tag_697:\n        /* \"#utility.yul\":25876:25950   */\n      swap2\n      pop\n        /* \"#utility.yul\":25832:25960   */\n      pop\n        /* \"#utility.yul\":25616:25967   */\n      swap3\n      swap2\n      pop\n      pop\n      jump\t// out\n        /* \"#utility.yul\":25973:26091   */\n    tag_404:\n        /* \"#utility.yul\":26060:26084   */\n      tag_699\n        /* \"#utility.yul\":26078:26083   */\n      dup2\n        /* \"#utility.yul\":26060:26084   */\n      tag_362\n      jump\t// in\n    tag_699:\n        /* \"#utility.yul\":26055:26058   */\n      dup3\n        /* \"#utility.yul\":26048:26085   */\n      mstore\n        /* \"#utility.yul\":25973:26091   */\n      pop\n      pop\n      jump\t// out\n        /* \"#utility.yul\":26097:26741   */\n    tag_228:\n        /* \"#utility.yul\":26294:26298   */\n      0x00\n        /* \"#utility.yul\":26332:26335   */\n      0x80\n        /* \"#utility.yul\":26321:26330   */\n      dup3\n        /* \"#utility.yul\":26317:26336   */\n      add\n        /* \"#utility.yul\":26309:26336   */\n      swap1\n      pop\n        /* \"#utility.yul\":26346:26417   */\n      tag_701\n        /* \"#utility.yul\":26414:26415   */\n      0x00\n        /* \"#utility.yul\":26403:26412   */\n      dup4\n        /* \"#utility.yul\":26399:26416   */\n      add\n        /* \"#utility.yul\":26390:26396   */\n      dup8\n        /* \"#utility.yul\":26346:26417   */\n      tag_369\n      jump\t// in\n    tag_701:\n        /* \"#utility.yul\":26427:26499   */\n      tag_702\n        /* \"#utility.yul\":26495:26497   */\n      0x20\n        /* \"#utility.yul\":26484:26493   */\n      dup4\n        /* \"#utility.yul\":26480:26498   */\n      add\n        /* \"#utility.yul\":26471:26477   */\n      dup7\n        /* \"#utility.yul\":26427:26499   */\n      tag_369\n      jump\t// in\n    tag_702:\n        /* \"#utility.yul\":26546:26555   */\n      dup2\n        /* \"#utility.yul\":26540:26544   */\n      dup2\n        /* \"#utility.yul\":26536:26556   */\n      sub\n        /* \"#utility.yul\":26531:26533   */\n      0x40\n        /* \"#utility.yul\":26520:26529   */\n      dup4\n        /* \"#utility.yul\":26516:26534   */\n      add\n        /* \"#utility.yul\":26509:26557   */\n      mstore\n        /* \"#utility.yul\":26574:26652   */\n      tag_703\n        /* \"#utility.yul\":26647:26651   */\n      dup2\n        /* \"#utility.yul\":26638:26644   */\n      dup6\n        /* \"#utility.yul\":26574:26652   */\n      tag_368\n      jump\t// in\n    tag_703:\n        /* \"#utility.yul\":26566:26652   */\n      swap1\n      pop\n        /* \"#utility.yul\":26662:26734   */\n      tag_704\n        /* \"#utility.yul\":26730:26732   */\n      0x60\n        /* \"#utility.yul\":26719:26728   */\n      dup4\n        /* \"#utility.yul\":26715:26733   */\n      add\n        /* \"#utility.yul\":26706:26712   */\n      dup5\n        /* \"#utility.yul\":26662:26734   */\n      tag_404\n      jump\t// in\n    tag_704:\n        /* \"#utility.yul\":26097:26741   */\n      swap6\n      swap5\n      pop\n      pop\n      pop\n      pop\n      pop\n      jump\t// out\n        /* \"#utility.yul\":26747:27410   */\n    tag_233:\n        /* \"#utility.yul\":26835:26841   */\n      0x00\n        /* \"#utility.yul\":26843:26849   */\n      dup1\n        /* \"#utility.yul\":26851:26857   */\n      0x00\n        /* \"#utility.yul\":26900:26902   */\n      0x60\n        /* \"#utility.yul\":26888:26897   */\n      dup5\n        /* \"#utility.yul\":26879:26886   */\n      dup7\n        /* \"#utility.yul\":26875:26898   */\n      sub\n        /* \"#utility.yul\":26871:26903   */\n      slt\n        /* \"#utility.yul\":26868:26987   */\n      iszero\n      tag_706\n      jumpi\n        /* \"#utility.yul\":26906:26985   */\n      tag_707\n      tag_347\n      jump\t// in\n    tag_707:\n        /* \"#utility.yul\":26868:26987   */\n    tag_706:\n        /* \"#utility.yul\":27026:27027   */\n      0x00\n        /* \"#utility.yul\":27051:27115   */\n      tag_708\n        /* \"#utility.yul\":27107:27114   */\n      dup7\n        /* \"#utility.yul\":27098:27104   */\n      dup3\n        /* \"#utility.yul\":27087:27096   */\n      dup8\n        /* \"#utility.yul\":27083:27105   */\n      add\n        /* \"#utility.yul\":27051:27115   */\n      tag_403\n      jump\t// in\n    tag_708:\n        /* \"#utility.yul\":27041:27115   */\n      swap4\n      pop\n        /* \"#utility.yul\":26997:27125   */\n      pop\n        /* \"#utility.yul\":27164:27166   */\n      0x20\n        /* \"#utility.yul\":27190:27254   */\n      tag_709\n        /* \"#utility.yul\":27246:27253   */\n      dup7\n        /* \"#utility.yul\":27237:27243   */\n      dup3\n        /* \"#utility.yul\":27226:27235   */\n      dup8\n        /* \"#utility.yul\":27222:27244   */\n      add\n        /* \"#utility.yul\":27190:27254   */\n      tag_403\n      jump\t// in\n    tag_709:\n        /* \"#utility.yul\":27180:27254   */\n      swap3\n      pop\n        /* \"#utility.yul\":27135:27264   */\n      pop\n        /* \"#utility.yul\":27303:27305   */\n      0x40\n        /* \"#utility.yul\":27329:27393   */\n      tag_710\n        /* \"#utility.yul\":27385:27392   */\n      dup7\n        /* \"#utility.yul\":27376:27382   */\n      dup3\n        /* \"#utility.yul\":27365:27374   */\n      dup8\n        /* \"#utility.yul\":27361:27383   */\n      add\n        /* \"#utility.yul\":27329:27393   */\n      tag_403\n      jump\t// in\n    tag_710:\n        /* \"#utility.yul\":27319:27393   */\n      swap2\n      pop\n        /* \"#utility.yul\":27274:27403   */\n      pop\n        /* \"#utility.yul\":26747:27410   */\n      swap3\n      pop\n      swap3\n      pop\n      swap3\n      jump\t// out\n        /* \"#utility.yul\":27416:27520   */\n    tag_405:\n        /* \"#utility.yul\":27461:27468   */\n      0x00\n        /* \"#utility.yul\":27490:27514   */\n      tag_712\n        /* \"#utility.yul\":27508:27513   */\n      dup3\n        /* \"#utility.yul\":27490:27514   */\n      tag_361\n      jump\t// in\n    tag_712:\n        /* \"#utility.yul\":27479:27514   */\n      swap1\n      pop\n        /* \"#utility.yul\":27416:27520   */\n      swap2\n      swap1\n      pop\n      jump\t// out\n        /* \"#utility.yul\":27526:27664   */\n    tag_406:\n        /* \"#utility.yul\":27607:27639   */\n      tag_714\n        /* \"#utility.yul\":27633:27638   */\n      dup2\n        /* \"#utility.yul\":27607:27639   */\n      tag_405\n      jump\t// in\n    tag_714:\n        /* \"#utility.yul\":27600:27605   */\n      dup2\n        /* \"#utility.yul\":27597:27640   */\n      eq\n        /* \"#utility.yul\":27587:27658   */\n      tag_715\n      jumpi\n        /* \"#utility.yul\":27654:27655   */\n      0x00\n        /* \"#utility.yul\":27651:27652   */\n      dup1\n        /* \"#utility.yul\":27644:27656   */\n      revert\n        /* \"#utility.yul\":27587:27658   */\n    tag_715:\n        /* \"#utility.yul\":27526:27664   */\n      pop\n      jump\t// out\n        /* \"#utility.yul\":27670:27829   */\n    tag_407:\n        /* \"#utility.yul\":27735:27740   */\n      0x00\n        /* \"#utility.yul\":27766:27772   */\n      dup2\n        /* \"#utility.yul\":27760:27773   */\n      mload\n        /* \"#utility.yul\":27751:27773   */\n      swap1\n      pop\n        /* \"#utility.yul\":27782:27823   */\n      tag_717\n        /* \"#utility.yul\":27817:27822   */\n      dup2\n        /* \"#utility.yul\":27782:27823   */\n      tag_406\n      jump\t// in\n    tag_717:\n        /* \"#utility.yul\":27670:27829   */\n      swap3\n      swap2\n      pop\n      pop\n      jump\t// out\n        /* \"#utility.yul\":27835:28514   */\n    tag_240:\n        /* \"#utility.yul\":27931:27937   */\n      0x00\n        /* \"#utility.yul\":27939:27945   */\n      dup1\n        /* \"#utility.yul\":27947:27953   */\n      0x00\n        /* \"#utility.yul\":27996:27998   */\n      0x60\n        /* \"#utility.yul\":27984:27993   */\n      dup5\n        /* \"#utility.yul\":27975:27982   */\n      dup7\n        /* \"#utility.yul\":27971:27994   */\n      sub\n        /* \"#utility.yul\":27967:27999   */\n      slt\n        /* \"#utility.yul\":27964:28083   */\n      iszero\n      tag_719\n      jumpi\n        /* \"#utility.yul\":28002:28081   */\n      tag_720\n      tag_347\n      jump\t// in\n    tag_720:\n        /* \"#utility.yul\":27964:28083   */\n    tag_719:\n        /* \"#utility.yul\":28122:28123   */\n      0x00\n        /* \"#utility.yul\":28147:28219   */\n      tag_721\n        /* \"#utility.yul\":28211:28218   */\n      dup7\n        /* \"#utility.yul\":28202:28208   */\n      dup3\n        /* \"#utility.yul\":28191:28200   */\n      dup8\n        /* \"#utility.yul\":28187:28209   */\n      add\n        /* \"#utility.yul\":28147:28219   */\n      tag_407\n      jump\t// in\n    tag_721:\n        /* \"#utility.yul\":28137:28219   */\n      swap4\n      pop\n        /* \"#utility.yul\":28093:28229   */\n      pop\n        /* \"#utility.yul\":28268:28270   */\n      0x20\n        /* \"#utility.yul\":28294:28358   */\n      tag_722\n        /* \"#utility.yul\":28350:28357   */\n      dup7\n        /* \"#utility.yul\":28341:28347   */\n      dup3\n        /* \"#utility.yul\":28330:28339   */\n      dup8\n        /* \"#utility.yul\":28326:28348   */\n      add\n        /* \"#utility.yul\":28294:28358   */\n      tag_403\n      jump\t// in\n    tag_722:\n        /* \"#utility.yul\":28284:28358   */\n      swap3\n      pop\n        /* \"#utility.yul\":28239:28368   */\n      pop\n        /* \"#utility.yul\":28407:28409   */\n      0x40\n        /* \"#utility.yul\":28433:28497   */\n      tag_723\n        /* \"#utility.yul\":28489:28496   */\n      dup7\n        /* \"#utility.yul\":28480:28486   */\n      dup3\n        /* \"#utility.yul\":28469:28478   */\n      dup8\n        /* \"#utility.yul\":28465:28487   */\n      add\n        /* \"#utility.yul\":28433:28497   */\n      tag_403\n      jump\t// in\n    tag_723:\n        /* \"#utility.yul\":28423:28497   */\n      swap2\n      pop\n        /* \"#utility.yul\":28378:28507   */\n      pop\n        /* \"#utility.yul\":27835:28514   */\n      swap3\n      pop\n      swap3\n      pop\n      swap3\n      jump\t// out\n        /* \"#utility.yul\":28520:28634   */\n    tag_408:\n      pop\n      jump\t// out\n        /* \"#utility.yul\":28640:29004   */\n    tag_409:\n        /* \"#utility.yul\":28782:28785   */\n      0x00\n        /* \"#utility.yul\":28803:28869   */\n      tag_726\n        /* \"#utility.yul\":28867:28868   */\n      0x00\n        /* \"#utility.yul\":28862:28865   */\n      dup4\n        /* \"#utility.yul\":28803:28869   */\n      tag_366\n      jump\t// in\n    tag_726:\n        /* \"#utility.yul\":28796:28869   */\n      swap2\n      pop\n        /* \"#utility.yul\":28878:28971   */\n      tag_727\n        /* \"#utility.yul\":28967:28970   */\n      dup3\n        /* \"#utility.yul\":28878:28971   */\n      tag_408\n      jump\t// in\n    tag_727:\n        /* \"#utility.yul\":28996:28997   */\n      0x00\n        /* \"#utility.yul\":28991:28994   */\n      dup3\n        /* \"#utility.yul\":28987:28998   */\n      add\n        /* \"#utility.yul\":28980:28998   */\n      swap1\n      pop\n        /* \"#utility.yul\":28640:29004   */\n      swap2\n      swap1\n      pop\n      jump\t// out\n        /* \"#utility.yul\":29010:29429   */\n    tag_245:\n        /* \"#utility.yul\":29176:29180   */\n      0x00\n        /* \"#utility.yul\":29214:29216   */\n      0x20\n        /* \"#utility.yul\":29203:29212   */\n      dup3\n        /* \"#utility.yul\":29199:29217   */\n      add\n        /* \"#utility.yul\":29191:29217   */\n      swap1\n      pop\n        /* \"#utility.yul\":29263:29272   */\n      dup2\n        /* \"#utility.yul\":29257:29261   */\n      dup2\n        /* \"#utility.yul\":29253:29273   */\n      sub\n        /* \"#utility.yul\":29249:29250   */\n      0x00\n        /* \"#utility.yul\":29238:29247   */\n      dup4\n        /* \"#utility.yul\":29234:29251   */\n      add\n        /* \"#utility.yul\":29227:29274   */\n      mstore\n        /* \"#utility.yul\":29291:29422   */\n      tag_729\n        /* \"#utility.yul\":29417:29421   */\n      dup2\n        /* \"#utility.yul\":29291:29422   */\n      tag_409\n      jump\t// in\n    tag_729:\n        /* \"#utility.yul\":29283:29422   */\n      swap1\n      pop\n        /* \"#utility.yul\":29010:29429   */\n      swap2\n      swap1\n      pop\n      jump\t// out\n        /* \"#utility.yul\":29435:29869   */\n    tag_410:\n        /* \"#utility.yul\":29524:29529   */\n      0x00\n        /* \"#utility.yul\":29549:29615   */\n      tag_731\n        /* \"#utility.yul\":29565:29614   */\n      tag_732\n        /* \"#utility.yul\":29607:29613   */\n      dup5\n        /* \"#utility.yul\":29565:29614   */\n      tag_357\n      jump\t// in\n    tag_732:\n        /* \"#utility.yul\":29549:29615   */\n      tag_356\n      jump\t// in\n    tag_731:\n        /* \"#utility.yul\":29540:29615   */\n      swap1\n      pop\n        /* \"#utility.yul\":29638:29644   */\n      dup3\n        /* \"#utility.yul\":29631:29636   */\n      dup2\n        /* \"#utility.yul\":29624:29645   */\n      mstore\n        /* \"#utility.yul\":29676:29680   */\n      0x20\n        /* \"#utility.yul\":29669:29674   */\n      dup2\n        /* \"#utility.yul\":29665:29681   */\n      add\n        /* \"#utility.yul\":29714:29717   */\n      dup5\n        /* \"#utility.yul\":29705:29711   */\n      dup5\n        /* \"#utility.yul\":29700:29703   */\n      dup5\n        /* \"#utility.yul\":29696:29712   */\n      add\n        /* \"#utility.yul\":29693:29718   */\n      gt\n        /* \"#utility.yul\":29690:29802   */\n      iszero\n      tag_733\n      jumpi\n        /* \"#utility.yul\":29721:29800   */\n      tag_734\n      tag_353\n      jump\t// in\n    tag_734:\n        /* \"#utility.yul\":29690:29802   */\n    tag_733:\n        /* \"#utility.yul\":29811:29863   */\n      tag_735\n        /* \"#utility.yul\":29856:29862   */\n      dup5\n        /* \"#utility.yul\":29851:29854   */\n      dup3\n        /* \"#utility.yul\":29846:29849   */\n      dup6\n        /* \"#utility.yul\":29811:29863   */\n      tag_367\n      jump\t// in\n    tag_735:\n        /* \"#utility.yul\":29530:29869   */\n      pop\n        /* \"#utility.yul\":29435:29869   */\n      swap4\n      swap3\n      pop\n      pop\n      pop\n      jump\t// out\n        /* \"#utility.yul\":29889:30244   */\n    tag_411:\n        /* \"#utility.yul\":29956:29961   */\n      0x00\n        /* \"#utility.yul\":30005:30008   */\n      dup3\n        /* \"#utility.yul\":29998:30002   */\n      0x1f\n        /* \"#utility.yul\":29990:29996   */\n      dup4\n        /* \"#utility.yul\":29986:30003   */\n      add\n        /* \"#utility.yul\":29982:30009   */\n      slt\n        /* \"#utility.yul\":29972:30094   */\n      tag_737\n      jumpi\n        /* \"#utility.yul\":30013:30092   */\n      tag_738\n      tag_352\n      jump\t// in\n    tag_738:\n        /* \"#utility.yul\":29972:30094   */\n    tag_737:\n        /* \"#utility.yul\":30123:30129   */\n      dup2\n        /* \"#utility.yul\":30117:30130   */\n      mload\n        /* \"#utility.yul\":30148:30238   */\n      tag_739\n        /* \"#utility.yul\":30234:30237   */\n      dup5\n        /* \"#utility.yul\":30226:30232   */\n      dup3\n        /* \"#utility.yul\":30219:30223   */\n      0x20\n        /* \"#utility.yul\":30211:30217   */\n      dup7\n        /* \"#utility.yul\":30207:30224   */\n      add\n        /* \"#utility.yul\":30148:30238   */\n      tag_410\n      jump\t// in\n    tag_739:\n        /* \"#utility.yul\":30139:30238   */\n      swap2\n      pop\n        /* \"#utility.yul\":29962:30244   */\n      pop\n        /* \"#utility.yul\":29889:30244   */\n      swap3\n      swap2\n      pop\n      pop\n      jump\t// out\n        /* \"#utility.yul\":30250:30930   */\n    tag_250:\n        /* \"#utility.yul\":30339:30345   */\n      0x00\n        /* \"#utility.yul\":30347:30353   */\n      dup1\n        /* \"#utility.yul\":30396:30398   */\n      0x40\n        /* \"#utility.yul\":30384:30393   */\n      dup4\n        /* \"#utility.yul\":30375:30382   */\n      dup6\n        /* \"#utility.yul\":30371:30394   */\n      sub\n        /* \"#utility.yul\":30367:30399   */\n      slt\n        /* \"#utility.yul\":30364:30483   */\n      iszero\n      tag_741\n      jumpi\n        /* \"#utility.yul\":30402:30481   */\n      tag_742\n      tag_347\n      jump\t// in\n    tag_742:\n        /* \"#utility.yul\":30364:30483   */\n    tag_741:\n        /* \"#utility.yul\":30522:30523   */\n      0x00\n        /* \"#utility.yul\":30547:30611   */\n      tag_743\n        /* \"#utility.yul\":30603:30610   */\n      dup6\n        /* \"#utility.yul\":30594:30600   */\n      dup3\n        /* \"#utility.yul\":30583:30592   */\n      dup7\n        /* \"#utility.yul\":30579:30601   */\n      add\n        /* \"#utility.yul\":30547:30611   */\n      tag_403\n      jump\t// in\n    tag_743:\n        /* \"#utility.yul\":30537:30611   */\n      swap3\n      pop\n        /* \"#utility.yul\":30493:30621   */\n      pop\n        /* \"#utility.yul\":30681:30683   */\n      0x20\n        /* \"#utility.yul\":30670:30679   */\n      dup4\n        /* \"#utility.yul\":30666:30684   */\n      add\n        /* \"#utility.yul\":30660:30685   */\n      mload\n        /* \"#utility.yul\":30712:30730   */\n      0xffffffffffffffff\n        /* \"#utility.yul\":30704:30710   */\n      dup2\n        /* \"#utility.yul\":30701:30731   */\n      gt\n        /* \"#utility.yul\":30698:30815   */\n      iszero\n      tag_744\n      jumpi\n        /* \"#utility.yul\":30734:30813   */\n      tag_745\n      tag_348\n      jump\t// in\n    tag_745:\n        /* \"#utility.yul\":30698:30815   */\n    tag_744:\n        /* \"#utility.yul\":30839:30913   */\n      tag_746\n        /* \"#utility.yul\":30905:30912   */\n      dup6\n        /* \"#utility.yul\":30896:30902   */\n      dup3\n        /* \"#utility.yul\":30885:30894   */\n      dup7\n        /* \"#utility.yul\":30881:30903   */\n      add\n        /* \"#utility.yul\":30839:30913   */\n      tag_411\n      jump\t// in\n    tag_746:\n        /* \"#utility.yul\":30829:30913   */\n      swap2\n      pop\n        /* \"#utility.yul\":30631:30923   */\n      pop\n        /* \"#utility.yul\":30250:30930   */\n      swap3\n      pop\n      swap3\n      swap1\n      pop\n      jump\t// out\n        /* \"#utility.yul\":30936:31077   */\n    tag_412:\n        /* \"#utility.yul\":30985:30989   */\n      0x00\n        /* \"#utility.yul\":31008:31011   */\n      dup2\n        /* \"#utility.yul\":31000:31011   */\n      swap1\n      pop\n        /* \"#utility.yul\":31031:31034   */\n      dup2\n        /* \"#utility.yul\":31028:31029   */\n      0x00\n        /* \"#utility.yul\":31021:31035   */\n      mstore\n        /* \"#utility.yul\":31065:31069   */\n      0x20\n        /* \"#utility.yul\":31062:31063   */\n      0x00\n        /* \"#utility.yul\":31052:31070   */\n      keccak256\n        /* \"#utility.yul\":31044:31070   */\n      swap1\n      pop\n        /* \"#utility.yul\":30936:31077   */\n      swap2\n      swap1\n      pop\n      jump\t// out\n        /* \"#utility.yul\":31083:31176   */\n    tag_413:\n        /* \"#utility.yul\":31120:31126   */\n      0x00\n        /* \"#utility.yul\":31167:31169   */\n      0x20\n        /* \"#utility.yul\":31162:31164   */\n      0x1f\n        /* \"#utility.yul\":31155:31160   */\n      dup4\n        /* \"#utility.yul\":31151:31165   */\n      add\n        /* \"#utility.yul\":31147:31170   */\n      div\n        /* \"#utility.yul\":31137:31170   */\n      swap1\n      pop\n        /* \"#utility.yul\":31083:31176   */\n      swap2\n      swap1\n      pop\n      jump\t// out\n        /* \"#utility.yul\":31182:31289   */\n    tag_414:\n        /* \"#utility.yul\":31226:31234   */\n      0x00\n        /* \"#utility.yul\":31276:31281   */\n      dup3\n        /* \"#utility.yul\":31270:31274   */\n      dup3\n        /* \"#utility.yul\":31266:31282   */\n      shl\n        /* \"#utility.yul\":31245:31282   */\n      swap1\n      pop\n        /* \"#utility.yul\":31182:31289   */\n      swap3\n      swap2\n      pop\n      pop\n      jump\t// out\n        /* \"#utility.yul\":31295:31688   */\n    tag_415:\n        /* \"#utility.yul\":31364:31370   */\n      0x00\n        /* \"#utility.yul\":31414:31415   */\n      0x08\n        /* \"#utility.yul\":31402:31412   */\n      dup4\n        /* \"#utility.yul\":31398:31416   */\n      mul\n        /* \"#utility.yul\":31437:31534   */\n      tag_751\n        /* \"#utility.yul\":31467:31533   */\n      0xffffffffffffffffffffffffffffffffffffffffffffffffffffffffffffffff\n        /* \"#utility.yul\":31456:31465   */\n      dup3\n        /* \"#utility.yul\":31437:31534   */\n      tag_414\n      jump\t// in\n    tag_751:\n        /* \"#utility.yul\":31555:31594   */\n      tag_752\n        /* \"#utility.yul\":31585:31593   */\n      dup7\n        /* \"#utility.yul\":31574:31583   */\n      dup4\n        /* \"#utility.yul\":31555:31594   */\n      tag_414\n      jump\t// in\n    tag_752:\n        /* \"#utility.yul\":31543:31594   */\n      swap6\n      pop\n        /* \"#utility.yul\":31627:31631   */\n      dup1\n        /* \"#utility.yul\":31623:31632   */\n      not\n        /* \"#utility.yul\":31616:31621   */\n      dup5\n        /* \"#utility.yul\":31612:31633   */\n      and\n        /* \"#utility.yul\":31603:31633   */\n      swap4\n      pop\n        /* \"#utility.yul\":31676:31680   */\n      dup1\n        /* \"#utility.yul\":31666:31674   */\n      dup7\n        /* \"#utility.yul\":31662:31681   */\n      and\n        /* \"#utility.yul\":31655:31660   */\n      dup5\n        /* \"#utility.yul\":31652:31682   */\n      or\n        /* \"#utility.yul\":31642:31682   */\n      swap3\n      pop\n        /* \"#utility.yul\":31371:31688   */\n      pop\n      pop\n        /* \"#utility.yul\":31295:31688   */\n      swap4\n      swap3\n      pop\n      pop\n      pop\n      jump\t// out\n        /* \"#utility.yul\":31694:31754   */\n    tag_416:\n        /* \"#utility.yul\":31722:31725   */\n      0x00\n        /* \"#utility.yul\":31743:31748   */\n      dup2\n        /* \"#utility.yul\":31736:31748   */\n      swap1\n      pop\n        /* \"#utility.yul\":31694:31754   */\n      swap2\n      swap1\n      pop\n      jump\t// out\n        /* \"#utility.yul\":31760:31902   */\n    tag_417:\n        /* \"#utility.yul\":31810:31819   */\n      0x00\n        /* \"#utility.yul\":31843:31896   */\n      tag_755\n        /* \"#utility.yul\":31861:31895   */\n      tag_756\n        /* \"#utility.yul\":31870:31894   */\n      tag_757\n        /* \"#utility.yul\":31888:31893   */\n      dup5\n        /* \"#utility.yul\":31870:31894   */\n      tag_349\n      jump\t// in\n    tag_757:\n        /* \"#utility.yul\":31861:31895   */\n      tag_416\n      jump\t// in\n    tag_756:\n        /* \"#utility.yul\":31843:31896   */\n      tag_349\n      jump\t// in\n    tag_755:\n        /* \"#utility.yul\":31830:31896   */\n      swap1\n      pop\n        /* \"#utility.yul\":31760:31902   */\n      swap2\n      swap1\n      pop\n      jump\t// out\n        /* \"#utility.yul\":31908:31983   */\n    tag_418:\n        /* \"#utility.yul\":31951:31954   */\n      0x00\n        /* \"#utility.yul\":31972:31977   */\n      dup2\n        /* \"#utility.yul\":31965:31977   */\n      swap1\n      pop\n        /* \"#utility.yul\":31908:31983   */\n      swap2\n      swap1\n      pop\n      jump\t// out\n        /* \"#utility.yul\":31989:32258   */\n    tag_419:\n        /* \"#utility.yul\":32099:32138   */\n      tag_760\n        /* \"#utility.yul\":32130:32137   */\n      dup4\n        /* \"#utility.yul\":32099:32138   */\n      tag_417\n      jump\t// in\n    tag_760:\n        /* \"#utility.yul\":32160:32251   */\n      tag_761\n        /* \"#utility.yul\":32209:32250   */\n      tag_762\n        /* \"#utility.yul\":32233:32249   */\n      dup3\n        /* \"#utility.yul\":32209:32250   */\n      tag_418\n      jump\t// in\n    tag_762:\n        /* \"#utility.yul\":32201:32207   */\n      dup5\n        /* \"#utility.yul\":32194:32198   */\n      dup5\n        /* \"#utility.yul\":32188:32199   */\n      sload\n        /* \"#utility.yul\":32160:32251   */\n      tag_415\n      jump\t// in\n    tag_761:\n        /* \"#utility.yul\":32154:32158   */\n      dup3\n        /* \"#utility.yul\":32147:32252   */\n      sstore\n        /* \"#utility.yul\":32065:32258   */\n      pop\n        /* \"#utility.yul\":31989:32258   */\n      pop\n      pop\n      pop\n      jump\t// out\n        /* \"#utility.yul\":32264:32337   */\n    tag_420:\n        /* \"#utility.yul\":32309:32312   */\n      0x00\n        /* \"#utility.yul\":32264:32337   */\n      swap1\n      jump\t// out\n        /* \"#utility.yul\":32343:32532   */\n    tag_421:\n        /* \"#utility.yul\":32420:32452   */\n      tag_765\n      tag_420\n      jump\t// in\n    tag_765:\n        /* \"#utility.yul\":32461:32526   */\n      tag_766\n        /* \"#utility.yul\":32519:32525   */\n      dup2\n        /* \"#utility.yul\":32511:32517   */\n      dup5\n        /* \"#utility.yul\":32505:32509   */\n      dup5\n        /* \"#utility.yul\":32461:32526   */\n      tag_419\n      jump\t// in\n    tag_766:\n        /* \"#utility.yul\":32396:32532   */\n      pop\n        /* \"#utility.yul\":32343:32532   */\n      pop\n      pop\n      jump\t// out\n        /* \"#utility.yul\":32538:32724   */\n    tag_422:\n        /* \"#utility.yul\":32598:32718   */\n    tag_768:\n        /* \"#utility.yul\":32615:32618   */\n      dup2\n        /* \"#utility.yul\":32608:32613   */\n      dup2\n        /* \"#utility.yul\":32605:32619   */\n      lt\n        /* \"#utility.yul\":32598:32718   */\n      iszero\n      tag_770\n      jumpi\n        /* \"#utility.yul\":32669:32708   */\n      tag_771\n        /* \"#utility.yul\":32706:32707   */\n      0x00\n        /* \"#utility.yul\":32699:32704   */\n      dup3\n        /* \"#utility.yul\":32669:32708   */\n      tag_421\n      jump\t// in\n    tag_771:\n        /* \"#utility.yul\":32642:32643   */\n      0x01\n        /* \"#utility.yul\":32635:32640   */\n      dup2\n        /* \"#utility.yul\":32631:32644   */\n      add\n        /* \"#utility.yul\":32622:32644   */\n      swap1\n      pop\n        /* \"#utility.yul\":32598:32718   */\n      jump(tag_768)\n    tag_770:\n        /* \"#utility.yul\":32538:32724   */\n      pop\n      pop\n      jump\t// out\n        /* \"#utility.yul\":32730:33273   */\n    tag_423:\n        /* \"#utility.yul\":32831:32833   */\n      0x1f\n        /* \"#utility.yul\":32826:32829   */\n      dup3\n        /* \"#utility.yul\":32823:32834   */\n      gt\n        /* \"#utility.yul\":32820:33266   */\n      iszero\n      tag_773\n      jumpi\n        /* \"#utility.yul\":32865:32903   */\n      tag_774\n        /* \"#utility.yul\":32897:32902   */\n      dup2\n        /* \"#utility.yul\":32865:32903   */\n      tag_412\n      jump\t// in\n    tag_774:\n        /* \"#utility.yul\":32949:32978   */\n      tag_775\n        /* \"#utility.yul\":32967:32977   */\n      dup5\n        /* \"#utility.yul\":32949:32978   */\n      tag_413\n      jump\t// in\n    tag_775:\n        /* \"#utility.yul\":32939:32947   */\n      dup2\n        /* \"#utility.yul\":32935:32979   */\n      add\n        /* \"#utility.yul\":33132:33134   */\n      0x20\n        /* \"#utility.yul\":33120:33130   */\n      dup6\n        /* \"#utility.yul\":33117:33135   */\n      lt\n        /* \"#utility.yul\":33114:33163   */\n      iszero\n      tag_776\n      jumpi\n        /* \"#utility.yul\":33153:33161   */\n      dup2\n        /* \"#utility.yul\":33138:33161   */\n      swap1\n      pop\n        /* \"#utility.yul\":33114:33163   */\n    tag_776:\n        /* \"#utility.yul\":33176:33256   */\n      tag_777\n        /* \"#utility.yul\":33232:33254   */\n      tag_778\n        /* \"#utility.yul\":33250:33253   */\n      dup6\n        /* \"#utility.yul\":33232:33254   */\n      tag_413\n      jump\t// in\n    tag_778:\n        /* \"#utility.yul\":33222:33230   */\n      dup4\n        /* \"#utility.yul\":33218:33255   */\n      add\n        /* \"#utility.yul\":33205:33216   */\n      dup3\n        /* \"#utility.yul\":33176:33256   */\n      tag_422\n      jump\t// in\n    tag_777:\n        /* \"#utility.yul\":32835:33266   */\n      pop\n      pop\n        /* \"#utility.yul\":32820:33266   */\n    tag_773:\n        /* \"#utility.yul\":32730:33273   */\n      pop\n      pop\n      pop\n      jump\t// out\n        /* \"#utility.yul\":33279:33396   */\n    tag_424:\n        /* \"#utility.yul\":33333:33341   */\n      0x00\n        /* \"#utility.yul\":33383:33388   */\n      dup3\n        /* \"#utility.yul\":33377:33381   */\n      dup3\n        /* \"#utility.yul\":33373:33389   */\n      shr\n        /* \"#utility.yul\":33352:33389   */\n      swap1\n      pop\n        /* \"#utility.yul\":33279:33396   */\n      swap3\n      swap2\n      pop\n      pop\n      jump\t// out\n        /* \"#utility.yul\":33402:33571   */\n    tag_425:\n        /* \"#utility.yul\":33446:33452   */\n      0x00\n        /* \"#utility.yul\":33479:33530   */\n      tag_781\n        /* \"#utility.yul\":33527:33528   */\n      0x00\n        /* \"#utility.yul\":33523:33529   */\n      not\n        /* \"#utility.yul\":33515:33520   */\n      dup5\n        /* \"#utility.yul\":33512:33513   */\n      0x08\n        /* \"#utility.yul\":33508:33521   */\n      mul\n        /* \"#utility.yul\":33479:33530   */\n      tag_424\n      jump\t// in\n    tag_781:\n        /* \"#utility.yul\":33475:33531   */\n      not\n        /* \"#utility.yul\":33560:33564   */\n      dup1\n        /* \"#utility.yul\":33554:33558   */\n      dup4\n        /* \"#utility.yul\":33550:33565   */\n      and\n        /* \"#utility.yul\":33540:33565   */\n      swap2\n      pop\n        /* \"#utility.yul\":33453:33571   */\n      pop\n        /* \"#utility.yul\":33402:33571   */\n      swap3\n      swap2\n      pop\n      pop\n      jump\t// out\n        /* \"#utility.yul\":33576:33871   */\n    tag_426:\n        /* \"#utility.yul\":33652:33656   */\n      0x00\n        /* \"#utility.yul\":33798:33827   */\n      tag_783\n        /* \"#utility.yul\":33823:33826   */\n      dup4\n        /* \"#utility.yul\":33817:33821   */\n      dup4\n        /* \"#utility.yul\":33798:33827   */\n      tag_425\n      jump\t// in\n    tag_783:\n        /* \"#utility.yul\":33790:33827   */\n      swap2\n      pop\n        /* \"#utility.yul\":33860:33863   */\n      dup3\n        /* \"#utility.yul\":33857:33858   */\n      0x02\n        /* \"#utility.yul\":33853:33864   */\n      mul\n        /* \"#utility.yul\":33847:33851   */\n      dup3\n        /* \"#utility.yul\":33844:33865   */\n      or\n        /* \"#utility.yul\":33836:33865   */\n      swap1\n      pop\n        /* \"#utility.yul\":33576:33871   */\n      swap3\n      swap2\n      pop\n      pop\n      jump\t// out\n        /* \"#utility.yul\":33876:35271   */\n    tag_253:\n        /* \"#utility.yul\":33993:34030   */\n      tag_785\n        /* \"#utility.yul\":34026:34029   */\n      dup3\n        /* \"#utility.yul\":33993:34030   */\n      tag_365\n      jump\t// in\n    tag_785:\n        /* \"#utility.yul\":34095:34113   */\n      0xffffffffffffffff\n        /* \"#utility.yul\":34087:34093   */\n      dup2\n        /* \"#utility.yul\":34084:34114   */\n      gt\n        /* \"#utility.yul\":34081:34137   */\n      iszero\n      tag_786\n      jumpi\n        /* \"#utility.yul\":34117:34135   */\n      tag_787\n      tag_74\n      jump\t// in\n    tag_787:\n        /* \"#utility.yul\":34081:34137   */\n    tag_786:\n        /* \"#utility.yul\":34161:34199   */\n      tag_788\n        /* \"#utility.yul\":34193:34197   */\n      dup3\n        /* \"#utility.yul\":34187:34198   */\n      sload\n        /* \"#utility.yul\":34161:34199   */\n      tag_151\n      jump\t// in\n    tag_788:\n        /* \"#utility.yul\":34246:34313   */\n      tag_789\n        /* \"#utility.yul\":34306:34312   */\n      dup3\n        /* \"#utility.yul\":34298:34304   */\n      dup3\n        /* \"#utility.yul\":34292:34296   */\n      dup6\n        /* \"#utility.yul\":34246:34313   */\n      tag_423\n      jump\t// in\n    tag_789:\n        /* \"#utility.yul\":34340:34341   */\n      0x00\n        /* \"#utility.yul\":34364:34368   */\n      0x20\n        /* \"#utility.yul\":34351:34368   */\n      swap1\n      pop\n        /* \"#utility.yul\":34396:34398   */\n      0x1f\n        /* \"#utility.yul\":34388:34394   */\n      dup4\n        /* \"#utility.yul\":34385:34399   */\n      gt\n        /* \"#utility.yul\":34413:34414   */\n      0x01\n        /* \"#utility.yul\":34408:35026   */\n      dup2\n      eq\n      tag_791\n      jumpi\n        /* \"#utility.yul\":35070:35071   */\n      0x00\n        /* \"#utility.yul\":35087:35093   */\n      dup5\n        /* \"#utility.yul\":35084:35161   */\n      iszero\n      tag_792\n      jumpi\n        /* \"#utility.yul\":35136:35145   */\n      dup3\n        /* \"#utility.yul\":35131:35134   */\n      dup8\n        /* \"#utility.yul\":35127:35146   */\n      add\n        /* \"#utility.yul\":35121:35147   */\n      mload\n        /* \"#utility.yul\":35112:35147   */\n      swap1\n      pop\n        /* \"#utility.yul\":35084:35161   */\n    tag_792:\n        /* \"#utility.yul\":35187:35254   */\n      tag_793\n        /* \"#utility.yul\":35247:35253   */\n      dup6\n        /* \"#utility.yul\":35240:35245   */\n      dup3\n        /* \"#utility.yul\":35187:35254   */\n      tag_426\n      jump\t// in\n    tag_793:\n        /* \"#utility.yul\":35181:35185   */\n      dup7\n        /* \"#utility.yul\":35174:35255   */\n      sstore\n        /* \"#utility.yul\":35043:35265   */\n      pop\n        /* \"#utility.yul\":34378:35265   */\n      jump(tag_790)\n        /* \"#utility.yul\":34408:35026   */\n    tag_791:\n        /* \"#utility.yul\":34460:34464   */\n      0x1f\n        /* \"#utility.yul\":34456:34465   */\n      not\n        /* \"#utility.yul\":34448:34454   */\n      dup5\n        /* \"#utility.yul\":34444:34466   */\n      and\n        /* \"#utility.yul\":34494:34531   */\n      tag_794\n        /* \"#utility.yul\":34526:34530   */\n      dup7\n        /* \"#utility.yul\":34494:34531   */\n      tag_412\n      jump\t// in\n    tag_794:\n        /* \"#utility.yul\":34553:34554   */\n      0x00\n        /* \"#utility.yul\":34567:34775   */\n    tag_795:\n        /* \"#utility.yul\":34581:34588   */\n      dup3\n        /* \"#utility.yul\":34578:34579   */\n      dup2\n        /* \"#utility.yul\":34575:34589   */\n      lt\n        /* \"#utility.yul\":34567:34775   */\n      iszero\n      tag_797\n      jumpi\n        /* \"#utility.yul\":34660:34669   */\n      dup5\n        /* \"#utility.yul\":34655:34658   */\n      dup10\n        /* \"#utility.yul\":34651:34670   */\n      add\n        /* \"#utility.yul\":34645:34671   */\n      mload\n        /* \"#utility.yul\":34637:34643   */\n      dup3\n        /* \"#utility.yul\":34630:34672   */\n      sstore\n        /* \"#utility.yul\":34711:34712   */\n      0x01\n        /* \"#utility.yul\":34703:34709   */\n      dup3\n        /* \"#utility.yul\":34699:34713   */\n      add\n        /* \"#utility.yul\":34689:34713   */\n      swap2\n      pop\n        /* \"#utility.yul\":34758:34760   */\n      0x20\n        /* \"#utility.yul\":34747:34756   */\n      dup6\n        /* \"#utility.yul\":34743:34761   */\n      add\n        /* \"#utility.yul\":34730:34761   */\n      swap5\n      pop\n        /* \"#utility.yul\":34604:34608   */\n      0x20\n        /* \"#utility.yul\":34601:34602   */\n      dup2\n        /* \"#utility.yul\":34597:34609   */\n      add\n        /* \"#utility.yul\":34592:34609   */\n      swap1\n      pop\n        /* \"#utility.yul\":34567:34775   */\n      jump(tag_795)\n    tag_797:\n        /* \"#utility.yul\":34803:34809   */\n      dup7\n        /* \"#utility.yul\":34794:34801   */\n      dup4\n        /* \"#utility.yul\":34791:34810   */\n      lt\n        /* \"#utility.yul\":34788:34967   */\n      iszero\n      tag_798\n      jumpi\n        /* \"#utility.yul\":34861:34870   */\n      dup5\n        /* \"#utility.yul\":34856:34859   */\n      dup10\n        /* \"#utility.yul\":34852:34871   */\n      add\n        /* \"#utility.yul\":34846:34872   */\n      mload\n        /* \"#utility.yul\":34904:34952   */\n      tag_799\n        /* \"#utility.yul\":34946:34950   */\n      0x1f\n        /* \"#utility.yul\":34938:34944   */\n      dup10\n        /* \"#utility.yul\":34934:34951   */\n      and\n        /* \"#utility.yul\":34923:34932   */\n      dup3\n        /* \"#utility.yul\":34904:34952   */\n      tag_425\n      jump\t// in\n    tag_799:\n        /* \"#utility.yul\":34896:34902   */\n      dup4\n        /* \"#utility.yul\":34889:34953   */\n      sstore\n        /* \"#utility.yul\":34811:34967   */\n      pop\n        /* \"#utility.yul\":34788:34967   */\n    tag_798:\n        /* \"#utility.yul\":35013:35014   */\n      0x01\n        /* \"#utility.yul\":35009:35010   */\n      0x02\n        /* \"#utility.yul\":35001:35007   */\n      dup9\n        /* \"#utility.yul\":34997:35011   */\n      mul\n        /* \"#utility.yul\":34993:35015   */\n      add\n        /* \"#utility.yul\":34987:34991   */\n      dup9\n        /* \"#utility.yul\":34980:35016   */\n      sstore\n        /* \"#utility.yul\":34415:35026   */\n      pop\n      pop\n      pop\n        /* \"#utility.yul\":34378:35265   */\n    tag_790:\n      pop\n        /* \"#utility.yul\":33968:35271   */\n      pop\n      pop\n      pop\n        /* \"#utility.yul\":33876:35271   */\n      pop\n      pop\n      jump\t// out\n        /* \"#utility.yul\":35277:35787   */\n    tag_262:\n        /* \"#utility.yul\":35436:35440   */\n      0x00\n        /* \"#utility.yul\":35474:35476   */\n      0x40\n        /* \"#utility.yul\":35463:35472   */\n      dup3\n        /* \"#utility.yul\":35459:35477   */\n      add\n        /* \"#utility.yul\":35451:35477   */\n      swap1\n      pop\n        /* \"#utility.yul\":35523:35532   */\n      dup2\n        /* \"#utility.yul\":35517:35521   */\n      dup2\n        /* \"#utility.yul\":35513:35533   */\n      sub\n        /* \"#utility.yul\":35509:35510   */\n      0x00\n        /* \"#utility.yul\":35498:35507   */\n      dup4\n        /* \"#utility.yul\":35494:35511   */\n      add\n        /* \"#utility.yul\":35487:35534   */\n      mstore\n        /* \"#utility.yul\":35551:35629   */\n      tag_801\n        /* \"#utility.yul\":35624:35628   */\n      dup2\n        /* \"#utility.yul\":35615:35621   */\n      dup6\n        /* \"#utility.yul\":35551:35629   */\n      tag_368\n      jump\t// in\n    tag_801:\n        /* \"#utility.yul\":35543:35629   */\n      swap1\n      pop\n        /* \"#utility.yul\":35676:35685   */\n      dup2\n        /* \"#utility.yul\":35670:35674   */\n      dup2\n        /* \"#utility.yul\":35666:35686   */\n      sub\n        /* \"#utility.yul\":35661:35663   */\n      0x20\n        /* \"#utility.yul\":35650:35659   */\n      dup4\n        /* \"#utility.yul\":35646:35664   */\n      add\n        /* \"#utility.yul\":35639:35687   */\n      mstore\n        /* \"#utility.yul\":35704:35780   */\n      tag_802\n        /* \"#utility.yul\":35775:35779   */\n      dup2\n        /* \"#utility.yul\":35766:35772   */\n      dup5\n        /* \"#utility.yul\":35704:35780   */\n      tag_392\n      jump\t// in\n    tag_802:\n        /* \"#utility.yul\":35696:35780   */\n      swap1\n      pop\n        /* \"#utility.yul\":35277:35787   */\n      swap4\n      swap3\n      pop\n      pop\n      pop\n      jump\t// out\n        /* \"#utility.yul\":35793:35969   */\n    tag_289:\n        /* \"#utility.yul\":35825:35826   */\n      0x00\n        /* \"#utility.yul\":35842:35862   */\n      tag_804\n        /* \"#utility.yul\":35860:35861   */\n      dup3\n        /* \"#utility.yul\":35842:35862   */\n      tag_349\n      jump\t// in\n    tag_804:\n        /* \"#utility.yul\":35837:35862   */\n      swap2\n      pop\n        /* \"#utility.yul\":35876:35896   */\n      tag_805\n        /* \"#utility.yul\":35894:35895   */\n      dup4\n        /* \"#utility.yul\":35876:35896   */\n      tag_349\n      jump\t// in\n    tag_805:\n        /* \"#utility.yul\":35871:35896   */\n      swap3\n      pop\n        /* \"#utility.yul\":35915:35916   */\n      dup3\n        /* \"#utility.yul\":35905:35940   */\n      tag_806\n      jumpi\n        /* \"#utility.yul\":35920:35938   */\n      tag_807\n      tag_400\n      jump\t// in\n    tag_807:\n        /* \"#utility.yul\":35905:35940   */\n    tag_806:\n        /* \"#utility.yul\":35961:35962   */\n      dup3\n        /* \"#utility.yul\":35958:35959   */\n      dup3\n        /* \"#utility.yul\":35954:35963   */\n      mod\n        /* \"#utility.yul\":35949:35963   */\n      swap1\n      pop\n        /* \"#utility.yul\":35793:35969   */\n      swap3\n      swap2\n      pop\n      pop\n      jump\t// out\n        /* \"#utility.yul\":35975:36146   */\n    tag_329:\n        /* \"#utility.yul\":36014:36017   */\n      0x00\n        /* \"#utility.yul\":36037:36061   */\n      tag_809\n        /* \"#utility.yul\":36055:36060   */\n      dup3\n        /* \"#utility.yul\":36037:36061   */\n      tag_349\n      jump\t// in\n    tag_809:\n        /* \"#utility.yul\":36028:36061   */\n      swap2\n      pop\n        /* \"#utility.yul\":36083:36087   */\n      0x00\n        /* \"#utility.yul\":36076:36081   */\n      dup3\n        /* \"#utility.yul\":36073:36088   */\n      sub\n        /* \"#utility.yul\":36070:36111   */\n      tag_810\n      jumpi\n        /* \"#utility.yul\":36091:36109   */\n      tag_811\n      tag_399\n      jump\t// in\n    tag_811:\n        /* \"#utility.yul\":36070:36111   */\n    tag_810:\n        /* \"#utility.yul\":36138:36139   */\n      0x01\n        /* \"#utility.yul\":36131:36136   */\n      dup3\n        /* \"#utility.yul\":36127:36140   */\n      sub\n        /* \"#utility.yul\":36120:36140   */\n      swap1\n      pop\n        /* \"#utility.yul\":35975:36146   */\n      swap2\n      swap1\n      pop\n      jump\t// out\n        /* \"#utility.yul\":36152:36334   */\n    tag_427:\n        /* \"#utility.yul\":36292:36326   */\n      0x537472696e67733a20686578206c656e67746820696e73756666696369656e74\n        /* \"#utility.yul\":36288:36289   */\n      0x00\n        /* \"#utility.yul\":36280:36286   */\n      dup3\n        /* \"#utility.yul\":36276:36290   */\n      add\n        /* \"#utility.yul\":36269:36327   */\n      mstore\n        /* \"#utility.yul\":36152:36334   */\n      pop\n      jump\t// out\n        /* \"#utility.yul\":36340:36706   */\n    tag_428:\n        /* \"#utility.yul\":36482:36485   */\n      0x00\n        /* \"#utility.yul\":36503:36570   */\n      tag_814\n        /* \"#utility.yul\":36567:36569   */\n      0x20\n        /* \"#utility.yul\":36562:36565   */\n      dup4\n        /* \"#utility.yul\":36503:36570   */\n      tag_366\n      jump\t// in\n    tag_814:\n        /* \"#utility.yul\":36496:36570   */\n      swap2\n      pop\n        /* \"#utility.yul\":36579:36672   */\n      tag_815\n        /* \"#utility.yul\":36668:36671   */\n      dup3\n        /* \"#utility.yul\":36579:36672   */\n      tag_427\n      jump\t// in\n    tag_815:\n        /* \"#utility.yul\":36697:36699   */\n      0x20\n        /* \"#utility.yul\":36692:36695   */\n      dup3\n        /* \"#utility.yul\":36688:36700   */\n      add\n        /* \"#utility.yul\":36681:36700   */\n      swap1\n      pop\n        /* \"#utility.yul\":36340:36706   */\n      swap2\n      swap1\n      pop\n      jump\t// out\n        /* \"#utility.yul\":36712:37131   */\n    tag_332:\n        /* \"#utility.yul\":36878:36882   */\n      0x00\n        /* \"#utility.yul\":36916:36918   */\n      0x20\n        /* \"#utility.yul\":36905:36914   */\n      dup3\n        /* \"#utility.yul\":36901:36919   */\n      add\n        /* \"#utility.yul\":36893:36919   */\n      swap1\n      pop\n        /* \"#utility.yul\":36965:36974   */\n      dup2\n        /* \"#utility.yul\":36959:36963   */\n      dup2\n        /* \"#utility.yul\":36955:36975   */\n      sub\n        /* \"#utility.yul\":36951:36952   */\n      0x00\n        /* \"#utility.yul\":36940:36949   */\n      dup4\n        /* \"#utility.yul\":36936:36953   */\n      add\n        /* \"#utility.yul\":36929:36976   */\n      mstore\n        /* \"#utility.yul\":36993:37124   */\n      tag_817\n        /* \"#utility.yul\":37119:37123   */\n      dup2\n        /* \"#utility.yul\":36993:37124   */\n      tag_428\n      jump\t// in\n    tag_817:\n        /* \"#utility.yul\":36985:37124   */\n      swap1\n      pop\n        /* \"#utility.yul\":36712:37131   */\n      swap2\n      swap1\n      pop\n      jump\t// out\n    stop\n    data_84d8a590de33e00cbdc16e1f28c3506f5ec15c599fab9a6a4bcd575cc2f110ce 4142434445464748494a4b4c4d4e4f505152535455565758595a6162636465666768696a6b6c6d6e6f707172737475767778797a303132333435363738392b2f\n\n    auxdata: 0xa26469706673582212209c41e96f1b2755f9e9a40c97cbc648c30ae79b4a2c331713a36b9015b73a10ef64736f6c63430008160033\n}\n",
				"bytecode": {
					"linkReferences": {},
					"object": "608060405234801562000010575f80fd5b505f600267ffffffffffffffff81111562000030576200002f62000994565b5b6040519080825280602002602001820160405280156200005f5781602001602082028036833780820191505090505b5090506040815f815181106200007a5762000079620009c1565b5b602002602001019060c6811115620000975762000096620009ee565b5b908160c6811115620000ae57620000ad620009ee565b5b81525050606381600181518110620000cb57620000ca620009c1565b5b602002602001019060c6811115620000e857620000e7620009ee565b5b908160c6811115620000ff57620000fe620009ee565b5b815250505f600167ffffffffffffffff81111562000122576200012162000994565b5b604051908082528060200260200182016040528015620001515781602001602082028036833780820191505090505b5090506040815f815181106200016c576200016b620009c1565b5b602002602001019060c6811115620001895762000188620009ee565b5b908160c6811115620001a0576200019f620009ee565b5b815250505f600467ffffffffffffffff811115620001c357620001c262000994565b5b604051908082528060200260200182016040528015620001f25781602001602082028036833780820191505090505b5090506040815f815181106200020d576200020c620009c1565b5b602002602001019060c68111156200022a5762000229620009ee565b5b908160c6811115620002415762000240620009ee565b5b815250506040816001815181106200025e576200025d620009c1565b5b602002602001019060c68111156200027b576200027a620009ee565b5b908160c6811115620002925762000291620009ee565b5b81525050606381600281518110620002af57620002ae620009c1565b5b602002602001019060c6811115620002cc57620002cb620009ee565b5b908160c6811115620002e357620002e2620009ee565b5b815250506041816003815181106200030057620002ff620009c1565b5b602002602001019060c68111156200031d576200031c620009ee565b5b908160c6811115620003345762000333620009ee565b5b815250505f600367ffffffffffffffff81111562000357576200035662000994565b5b604051908082528060200260200182016040528015620003865781602001602082028036833780820191505090505b5090506040815f81518110620003a157620003a0620009c1565b5b602002602001019060c6811115620003be57620003bd620009ee565b5b908160c6811115620003d557620003d4620009ee565b5b81525050604081600181518110620003f257620003f1620009c1565b5b602002602001019060c68111156200040f576200040e620009ee565b5b908160c6811115620004265762000425620009ee565b5b81525050604081600281518110620004435762000442620009c1565b5b602002602001019060c681111562000460576200045f620009ee565b5b908160c6811115620004775762000476620009ee565b5b815250505f600167ffffffffffffffff8111156200049a576200049962000994565b5b604051908082528060200260200182016040528015620004c95781602001602082028036833780820191505090505b50905060c6815f81518110620004e457620004e3620009c1565b5b602002602001019060c6811115620005015762000500620009ee565b5b908160c6811115620005185762000517620009ee565b5b815250505f600367ffffffffffffffff8111156200053b576200053a62000994565b5b6040519080825280602002602001820160405280156200056a5781602001602082028036833780820191505090505b5090506041815f81518110620005855762000584620009c1565b5b602002602001019060c6811115620005a257620005a1620009ee565b5b908160c6811115620005b957620005b8620009ee565b5b81525050604081600181518110620005d657620005d5620009c1565b5b602002602001019060c6811115620005f357620005f2620009ee565b5b908160c68111156200060a5762000609620009ee565b5b81525050604081600281518110620006275762000626620009c1565b5b602002602001019060c6811115620006445762000643620009ee565b5b908160c68111156200065b576200065a620009ee565b5b81525050620006f56040518060400160405280600b81526020017f706f7374436f6d6d656e740000000000000000000000000000000000000000008152506001885f67ffffffffffffffff811115620006b957620006b862000994565b5b604051908082528060200260200182016040528015620006e85781602001602082028036833780820191505090505b50620007dc60201b60201c565b6200073e6040518060400160405280600a81526020017f676574436f6d6d656e74000000000000000000000000000000000000000000008152505f8787620007dc60201b60201c565b620007876040518060400160405280600b81526020017f676574436f6d6d656e74730000000000000000000000000000000000000000008152505f8585620007dc60201b60201c565b620007d06040518060400160405280601481526020017f676574436f6d6d656e74734279416464726573730000000000000000000000008152505f8385620007dc60201b60201c565b50505050505062000db8565b5f80846003811115620007f457620007f3620009ee565b5b6003811115620008095762000808620009ee565b5b81526020019081526020015f2084908060018154018082558091505060019003905f5260205f20015f90919091909150908162000847919062000c52565b50816001856040516200085b919062000da0565b908152602001604051809103902090805190602001906200087e929190620008bc565b508060028560405162000892919062000da0565b90815260200160405180910390209080519060200190620008b5929190620008bc565b5050505050565b828054828255905f5260205f2090601f0160209004810192821562000964579160200282015f5b838211156200093457835183826101000a81548160ff021916908360c6811115620009135762000912620009ee565b5b021790555092602001926001016020815f01049283019260010302620008e3565b8015620009625782816101000a81549060ff02191690556001016020815f0104928301926001030262000934565b505b50905062000973919062000977565b5090565b5b8082111562000990575f815f90555060010162000978565b5090565b7f4e487b71000000000000000000000000000000000000000000000000000000005f52604160045260245ffd5b7f4e487b71000000000000000000000000000000000000000000000000000000005f52603260045260245ffd5b7f4e487b71000000000000000000000000000000000000000000000000000000005f52602160045260245ffd5b5f81519050919050565b7f4e487b71000000000000000000000000000000000000000000000000000000005f52602260045260245ffd5b5f600282049050600182168062000a6a57607f821691505b60208210810362000a805762000a7f62000a25565b5b50919050565b5f819050815f5260205f209050919050565b5f6020601f8301049050919050565b5f82821b905092915050565b5f6008830262000ae47fffffffffffffffffffffffffffffffffffffffffffffffffffffffffffffffff8262000aa7565b62000af0868362000aa7565b95508019841693508086168417925050509392505050565b5f819050919050565b5f819050919050565b5f62000b3a62000b3462000b2e8462000b08565b62000b11565b62000b08565b9050919050565b5f819050919050565b62000b558362000b1a565b62000b6d62000b648262000b41565b84845462000ab3565b825550505050565b5f90565b62000b8362000b75565b62000b9081848462000b4a565b505050565b5b8181101562000bb75762000bab5f8262000b79565b60018101905062000b96565b5050565b601f82111562000c065762000bd08162000a86565b62000bdb8462000a98565b8101602085101562000beb578190505b62000c0362000bfa8562000a98565b83018262000b95565b50505b505050565b5f82821c905092915050565b5f62000c285f198460080262000c0b565b1980831691505092915050565b5f62000c42838362000c17565b9150826002028217905092915050565b62000c5d8262000a1b565b67ffffffffffffffff81111562000c795762000c7862000994565b5b62000c85825462000a52565b62000c9282828562000bbb565b5f60209050601f83116001811462000cc8575f841562000cb3578287015190505b62000cbf858262000c35565b86555062000d2e565b601f19841662000cd88662000a86565b5f5b8281101562000d015784890151825560018201915060208501945060208101905062000cda565b8683101562000d21578489015162000d1d601f89168262000c17565b8355505b6001600288020188555050505b505050505050565b5f81905092915050565b5f5b8381101562000d5f57808201518184015260208101905062000d42565b5f8484015250505050565b5f62000d768262000a1b565b62000d82818562000d36565b935062000d9481856020860162000d40565b80840191505092915050565b5f62000dad828462000d6a565b915081905092915050565b612bca8062000dc65f395ff3fe608060405260043610610090575f3560e01c80636818ba1d116100585780636818ba1d1461019d578063aff62745146101d9578063b6ae042514610215578063e953647214610245578063f4856ccb1461027557610090565b80631069143a146100945780631d16b70d146100be5780633e413065146100fa5780634423745414610124578063458ad6d414610160575b5f80fd5b34801561009f575f80fd5b506100a86102b1565b6040516100b591906119e9565b60405180910390f35b3480156100c9575f80fd5b506100e460048036038101906100df9190611be3565b610425565b6040516100f19190611cdd565b60405180910390f35b348015610105575f80fd5b5061010e610499565b60405161011b9190611d0c565b60405180910390f35b34801561012f575f80fd5b5061014a60048036038101906101459190611d25565b61049f565b6040516101579190611e78565b60405180910390f35b34801561016b575f80fd5b5061018660048036038101906101819190611e98565b610807565b604051610194929190611fbd565b60405180910390f35b3480156101a8575f80fd5b506101c360048036038101906101be9190611ff2565b610955565b6040516101d09190611e78565b60405180910390f35b3480156101e4575f80fd5b506101ff60048036038101906101fa91906120e0565b610c39565b60405161020c91906121a8565b60405180910390f35b61022f600480360381019061022a91906120e0565b610f46565b60405161023c91906121a8565b60405180910390f35b61025f600480360381019061025a91906120e0565b611224565b60405161026c91906121a8565b60405180910390f35b348015610280575f80fd5b5061029b600480360381019061029691906121eb565b611250565b6040516102a89190611e78565b60405180910390f35b60605f600467ffffffffffffffff8111156102cf576102ce611a65565b5b6040519080825280602002602001820160405280156102fd5781602001602082028036833780820191505090505b5090505f815f8151811061031457610313612216565b5b6020026020010190600381111561032e5761032d6118f7565b5b90816003811115610342576103416118f7565b5b8152505060018160018151811061035c5761035b612216565b5b60200260200101906003811115610376576103756118f7565b5b9081600381111561038a576103896118f7565b5b815250506002816002815181106103a4576103a3612216565b5b602002602001019060038111156103be576103bd6118f7565b5b908160038111156103d2576103d16118f7565b5b815250506003816003815181106103ec576103eb612216565b5b60200260200101906003811115610406576104056118f7565b5b9081600381111561041a576104196118f7565b5b815250508091505090565b606061043085611358565b61043985611358565b610442856114b1565b6104638573ffffffffffffffffffffffffffffffffffffffff166014611641565b61046c42611358565b6040516020016104809594939291906122c7565b6040516020818303038152906040529050949350505050565b60035481565b60605f60055f8673ffffffffffffffffffffffffffffffffffffffff1673ffffffffffffffffffffffffffffffffffffffff1681526020019081526020015f20540361053f575f8067ffffffffffffffff811115610500576104ff611a65565b5b60405190808252806020026020018201604052801561053357816020015b606081526020019060019003908161051e5790505b50905080915050610800565b6001831180156105ae5750600183610557919061236a565b82600160055f8873ffffffffffffffffffffffffffffffffffffffff1673ffffffffffffffffffffffffffffffffffffffff1681526020019081526020015f20546105a2919061236a565b6105ac91906123ca565b105b1561060d575f8067ffffffffffffffff8111156105ce576105cd611a65565b5b60405190808252806020026020018201604052801561060157816020015b60608152602001906001900390816105ec5790505b50905080915050610800565b5f805f90505f84600187610621919061236a565b61062b91906123fa565b600160055f8a73ffffffffffffffffffffffffffffffffffffffff1673ffffffffffffffffffffffffffffffffffffffff1681526020019081526020015f2054610675919061236a565b61067f919061236a565b90505f858210156106a1575f905060018261069a919061243b565b93506106bf565b600186836106af919061236a565b6106b9919061243b565b90508593505b5f8467ffffffffffffffff8111156106da576106d9611a65565b5b60405190808252806020026020018201604052801561070d57816020015b60608152602001906001900390816106f85790505b5090505f8390505b8281126107f65760085f8281526020019081526020015f20600201805461073b9061249b565b80601f01602080910402602001604051908101604052809291908181526020018280546107679061249b565b80156107b25780601f10610789576101008083540402835291602001916107b2565b820191905f5260205f20905b81548152906001019060200180831161079557829003601f168201915b50505050508286815181106107ca576107c9612216565b5b602002602001018190525084806107e0906124cb565b95505080806107ee9061251b565b915050610715565b5080955050505050505b9392505050565b60608060018360405161081a9190612562565b90815260200160405180910390206002846040516108389190612562565b9081526020016040518091039020818054806020026020016040519081016040528092919081815260200182805480156108c257602002820191905f5260205f20905f905b82829054906101000a900460ff1660c681111561089d5761089c6118f7565b5b815260200190600101906020825f0104928301926001038202915080841161087d5790505b505050505091508080548060200260200160405190810160405280929190818152602001828054801561094557602002820191905f5260205f20905f905b82829054906101000a900460ff1660c68111156109205761091f6118f7565b5b815260200190600101906020825f010492830192600103820291508084116109005790505b5050505050905091509150915091565b60605f60045f8681526020019081526020015f2054036109c9575f8067ffffffffffffffff81111561098a57610989611a65565b5b6040519080825280602002602001820160405280156109bd57816020015b60608152602001906001900390816109a85790505b50905080915050610c32565b600183118015610a0c57506001836109e1919061236a565b82600160045f8881526020019081526020015f2054610a00919061236a565b610a0a91906123ca565b105b15610a6b575f8067ffffffffffffffff811115610a2c57610a2b611a65565b5b604051908082528060200260200182016040528015610a5f57816020015b6060815260200190600190039081610a4a5790505b50905080915050610c32565b5f805f90505f84600187610a7f919061236a565b610a8991906123fa565b600160045f8a81526020019081526020015f2054610aa7919061236a565b610ab1919061236a565b90505f85821015610ad3575f9050600182610acc919061243b565b9350610af1565b60018683610ae1919061236a565b610aeb919061243b565b90508593505b5f8467ffffffffffffffff811115610b0c57610b0b611a65565b5b604051908082528060200260200182016040528015610b3f57816020015b6060815260200190600190039081610b2a5790505b5090505f8390505b828112610c285760085f8281526020019081526020015f206002018054610b6d9061249b565b80601f0160208091040260200160405190810160405280929190818152602001828054610b999061249b565b8015610be45780601f10610bbb57610100808354040283529160200191610be4565b820191905f5260205f20905b815481529060010190602001808311610bc757829003601f168201915b5050505050828681518110610bfc57610bfb612216565b5b60200260200101819052508480610c12906124cb565b9550508080610c209061251b565b915050610b47565b5080955050505050505b9392505050565b6060610c7a836040518060400160405280600a81526020017f676574436f6d6d656e7400000000000000000000000000000000000000000000815250611876565b15610deb575f82806020019051810190610c94919061258c565b90505f60085f8381526020019081526020015f206040518060800160405290815f820154815260200160018201548152602001600282018054610cd69061249b565b80601f0160208091040260200160405190810160405280929190818152602001828054610d029061249b565b8015610d4d5780601f10610d2457610100808354040283529160200191610d4d565b820191905f5260205f20905b815481529060010190602001808311610d3057829003601f168201915b50505050508152602001600382015f9054906101000a900473ffffffffffffffffffffffffffffffffffffffff1673ffffffffffffffffffffffffffffffffffffffff1673ffffffffffffffffffffffffffffffffffffffff16815250509050805f0151816020015182604001518360600151604051602001610dd394939291906125c6565b60405160208183030381529060405292505050610f40565b610e2a836040518060400160405280600b81526020017f676574436f6d6d656e7473000000000000000000000000000000000000000000815250611876565b15610e85575f805f84806020019051810190610e469190612610565b9250925092505f610e58848484610955565b905080604051602001610e6b9190611e78565b604051602081830303815290604052945050505050610f40565b610ec4836040518060400160405280601481526020017f676574436f6d6d656e7473427941646472657373000000000000000000000000815250611876565b15610f1f575f805f84806020019051810190610ee0919061269b565b9250925092505f610ef284848461049f565b905080604051602001610f059190611e78565b604051602081830303815290604052945050505050610f40565b604051602001610f2e9061270e565b60405160208183030381529060405290505b92915050565b6060610f87836040518060400160405280600b81526020017f706f7374436f6d6d656e74000000000000000000000000000000000000000000815250611876565b156111fd575f8083806020019051810190610fa2919061279a565b915091505f610fb5836003548433610425565b90505f60045f8581526020019081526020015f205490505f60055f3373ffffffffffffffffffffffffffffffffffffffff1673ffffffffffffffffffffffffffffffffffffffff1681526020019081526020015f20549050604051806080016040528086815260200160035481526020018481526020013373ffffffffffffffffffffffffffffffffffffffff1681525060085f60035481526020019081526020015f205f820151815f01556020820151816001015560408201518160020190816110809190612991565b506060820151816003015f6101000a81548173ffffffffffffffffffffffffffffffffffffffff021916908373ffffffffffffffffffffffffffffffffffffffff16021790555090505060035460065f8781526020019081526020015f205f8481526020019081526020015f208190555060035460075f3373ffffffffffffffffffffffffffffffffffffffff1673ffffffffffffffffffffffffffffffffffffffff1681526020019081526020015f205f8381526020019081526020015f208190555060045f8681526020019081526020015f205f815480929190611165906124cb565b919050555060055f3373ffffffffffffffffffffffffffffffffffffffff1673ffffffffffffffffffffffffffffffffffffffff1681526020019081526020015f205f8154809291906111b7906124cb565b919050555060035f8154809291906111ce906124cb565b91905055506040516020016111e29061270e565b6040516020818303038152906040529550505050505061121e565b60405160200161120c9061270e565b60405160208183030381529060405290505b92915050565b60608282604051602001611239929190612a60565b604051602081830303815290604052905092915050565b60605f80836003811115611267576112666118f7565b5b6003811115611279576112786118f7565b5b81526020019081526020015f20805480602002602001604051908101604052809291908181526020015f905b8282101561134d578382905f5260205f200180546112c29061249b565b80601f01602080910402602001604051908101604052809291908181526020018280546112ee9061249b565b80156113395780601f1061131057610100808354040283529160200191611339565b820191905f5260205f20905b81548152906001019060200180831161131c57829003601f168201915b5050505050815260200190600101906112a5565b505050509050919050565b60605f820361139e576040518060400160405280600181526020017f300000000000000000000000000000000000000000000000000000000000000081525090506114ac565b5f8290505f5b5f82146113cd5780806113b6906124cb565b915050600a826113c691906123ca565b91506113a4565b5f8167ffffffffffffffff8111156113e8576113e7611a65565b5b6040519080825280601f01601f19166020018201604052801561141a5781602001600182028036833780820191505090505b5090505b5f85146114a557600182611432919061236a565b9150600a856114419190612a95565b603061144d919061243b565b60f81b81838151811061146357611462612216565b5b60200101907effffffffffffffffffffffffffffffffffffffffffffffffffffffffffffff191690815f1a905350600a8561149e91906123ca565b945061141e565b8093505050505b919050565b60605f825190505f81036114d65760405180602001604052805f81525091505061163c565b5f60036002836114e6919061243b565b6114f091906123ca565b60046114fc91906123fa565b90505f60208261150c919061243b565b67ffffffffffffffff81111561152557611524611a65565b5b6040519080825280601f01601f1916602001820160405280156115575781602001600182028036833780820191505090505b5090505f604051806060016040528060408152602001612b5560409139905060018101602083015f5b868110156115f95760038101905062ffffff818a015116603f8160121c168401518060081b905060ff603f83600c1c1686015116810190508060081b905060ff603f8360061c1686015116810190508060081b905060ff603f831686015116810190508060e01b90508084526004840193505050611580565b50600386066001811461161357600281146116235761162e565b613d3d60f01b600283035261162e565b603d60f81b60018303525b508484525050819450505050505b919050565b60605f600283600261165391906123fa565b61165d919061243b565b67ffffffffffffffff81111561167657611675611a65565b5b6040519080825280601f01601f1916602001820160405280156116a85781602001600182028036833780820191505090505b5090507f3000000000000000000000000000000000000000000000000000000000000000815f815181106116df576116de612216565b5b60200101907effffffffffffffffffffffffffffffffffffffffffffffffffffffffffffff191690815f1a9053507f78000000000000000000000000000000000000000000000000000000000000008160018151811061174257611741612216565b5b60200101907effffffffffffffffffffffffffffffffffffffffffffffffffffffffffffff191690815f1a9053505f600184600261178091906123fa565b61178a919061243b565b90505b6001811115611829577f3031323334353637383961626364656600000000000000000000000000000000600f8616601081106117cc576117cb612216565b5b1a60f81b8282815181106117e3576117e2612216565b5b60200101907effffffffffffffffffffffffffffffffffffffffffffffffffffffffffffff191690815f1a905350600485901c94508061182290612ac5565b905061178d565b505f841461186c576040517f08c379a000000000000000000000000000000000000000000000000000000000815260040161186390612b36565b60405180910390fd5b8091505092915050565b5f816040516020016118889190612562565b60405160208183030381529060405280519060200120836040516020016118af9190612562565b6040516020818303038152906040528051906020012014905092915050565b5f81519050919050565b5f82825260208201905092915050565b5f819050602082019050919050565b7f4e487b71000000000000000000000000000000000000000000000000000000005f52602160045260245ffd5b60048110611935576119346118f7565b5b50565b5f81905061194582611924565b919050565b5f61195482611938565b9050919050565b6119648161194a565b82525050565b5f611975838361195b565b60208301905092915050565b5f602082019050919050565b5f611997826118ce565b6119a181856118d8565b93506119ac836118e8565b805f5b838110156119dc5781516119c3888261196a565b97506119ce83611981565b9250506001810190506119af565b5085935050505092915050565b5f6020820190508181035f830152611a01818461198d565b905092915050565b5f604051905090565b5f80fd5b5f80fd5b5f819050919050565b611a2c81611a1a565b8114611a36575f80fd5b50565b5f81359050611a4781611a23565b92915050565b5f80fd5b5f80fd5b5f601f19601f8301169050919050565b7f4e487b71000000000000000000000000000000000000000000000000000000005f52604160045260245ffd5b611a9b82611a55565b810181811067ffffffffffffffff82111715611aba57611ab9611a65565b5b80604052505050565b5f611acc611a09565b9050611ad88282611a92565b919050565b5f67ffffffffffffffff821115611af757611af6611a65565b5b611b0082611a55565b9050602081019050919050565b828183375f83830152505050565b5f611b2d611b2884611add565b611ac3565b905082815260208101848484011115611b4957611b48611a51565b5b611b54848285611b0d565b509392505050565b5f82601f830112611b7057611b6f611a4d565b5b8135611b80848260208601611b1b565b91505092915050565b5f73ffffffffffffffffffffffffffffffffffffffff82169050919050565b5f611bb282611b89565b9050919050565b611bc281611ba8565b8114611bcc575f80fd5b50565b5f81359050611bdd81611bb9565b92915050565b5f805f8060808587031215611bfb57611bfa611a12565b5b5f611c0887828801611a39565b9450506020611c1987828801611a39565b935050604085013567ffffffffffffffff811115611c3a57611c39611a16565b5b611c4687828801611b5c565b9250506060611c5787828801611bcf565b91505092959194509250565b5f81519050919050565b5f82825260208201905092915050565b5f5b83811015611c9a578082015181840152602081019050611c7f565b5f8484015250505050565b5f611caf82611c63565b611cb98185611c6d565b9350611cc9818560208601611c7d565b611cd281611a55565b840191505092915050565b5f6020820190508181035f830152611cf58184611ca5565b905092915050565b611d0681611a1a565b82525050565b5f602082019050611d1f5f830184611cfd565b92915050565b5f805f60608486031215611d3c57611d3b611a12565b5b5f611d4986828701611bcf565b9350506020611d5a86828701611a39565b9250506040611d6b86828701611a39565b9150509250925092565b5f81519050919050565b5f82825260208201905092915050565b5f819050602082019050919050565b5f82825260208201905092915050565b5f611db882611c63565b611dc28185611d9e565b9350611dd2818560208601611c7d565b611ddb81611a55565b840191505092915050565b5f611df18383611dae565b905092915050565b5f602082019050919050565b5f611e0f82611d75565b611e198185611d7f565b935083602082028501611e2b85611d8f565b805f5b85811015611e665784840389528151611e478582611de6565b9450611e5283611df9565b925060208a01995050600181019050611e2e565b50829750879550505050505092915050565b5f6020820190508181035f830152611e908184611e05565b905092915050565b5f60208284031215611ead57611eac611a12565b5b5f82013567ffffffffffffffff811115611eca57611ec9611a16565b5b611ed684828501611b5c565b91505092915050565b5f81519050919050565b5f819050602082019050919050565b60c78110611f0957611f086118f7565b5b50565b5f819050611f1982611ef8565b919050565b5f611f2882611f0c565b9050919050565b611f3881611f1e565b82525050565b5f611f498383611f2f565b60208301905092915050565b5f602082019050919050565b5f611f6b82611edf565b611f7581856118d8565b9350611f8083611ee9565b805f5b83811015611fb0578151611f978882611f3e565b9750611fa283611f55565b925050600181019050611f83565b5085935050505092915050565b5f6040820190508181035f830152611fd58185611f61565b90508181036020830152611fe98184611f61565b90509392505050565b5f805f6060848603121561200957612008611a12565b5b5f61201686828701611a39565b935050602061202786828701611a39565b925050604061203886828701611a39565b9150509250925092565b5f67ffffffffffffffff82111561205c5761205b611a65565b5b61206582611a55565b9050602081019050919050565b5f61208461207f84612042565b611ac3565b9050828152602081018484840111156120a05761209f611a51565b5b6120ab848285611b0d565b509392505050565b5f82601f8301126120c7576120c6611a4d565b5b81356120d7848260208601612072565b91505092915050565b5f80604083850312156120f6576120f5611a12565b5b5f83013567ffffffffffffffff81111561211357612112611a16565b5b61211f85828601611b5c565b925050602083013567ffffffffffffffff8111156121405761213f611a16565b5b61214c858286016120b3565b9150509250929050565b5f81519050919050565b5f82825260208201905092915050565b5f61217a82612156565b6121848185612160565b9350612194818560208601611c7d565b61219d81611a55565b840191505092915050565b5f6020820190508181035f8301526121c08184612170565b905092915050565b600481106121d4575f80fd5b50565b5f813590506121e5816121c8565b92915050565b5f60208284031215612200576121ff611a12565b5b5f61220d848285016121d7565b91505092915050565b7f4e487b71000000000000000000000000000000000000000000000000000000005f52603260045260245ffd5b5f81905092915050565b5f61225782611c63565b6122618185612243565b9350612271818560208601611c7d565b80840191505092915050565b7f2c000000000000000000000000000000000000000000000000000000000000005f82015250565b5f6122b1600183612243565b91506122bc8261227d565b600182019050919050565b5f6122d2828861224d565b91506122dd826122a5565b91506122e9828761224d565b91506122f4826122a5565b9150612300828661224d565b915061230b826122a5565b9150612317828561224d565b9150612322826122a5565b915061232e828461224d565b91508190509695505050505050565b7f4e487b71000000000000000000000000000000000000000000000000000000005f52601160045260245ffd5b5f61237482611a1a565b915061237f83611a1a565b92508282039050818111156123975761239661233d565b5b92915050565b7f4e487b71000000000000000000000000000000000000000000000000000000005f52601260045260245ffd5b5f6123d482611a1a565b91506123df83611a1a565b9250826123ef576123ee61239d565b5b828204905092915050565b5f61240482611a1a565b915061240f83611a1a565b925082820261241d81611a1a565b915082820484148315176124345761243361233d565b5b5092915050565b5f61244582611a1a565b915061245083611a1a565b92508282019050808211156124685761246761233d565b5b92915050565b7f4e487b71000000000000000000000000000000000000000000000000000000005f52602260045260245ffd5b5f60028204905060018216806124b257607f821691505b6020821081036124c5576124c461246e565b5b50919050565b5f6124d582611a1a565b91507fffffffffffffffffffffffffffffffffffffffffffffffffffffffffffffffff82036125075761250661233d565b5b600182019050919050565b5f819050919050565b5f61252582612512565b91507f800000000000000000000000000000000000000000000000000000000000000082036125575761255661233d565b5b600182039050919050565b5f61256d828461224d565b915081905092915050565b5f8151905061258681611a23565b92915050565b5f602082840312156125a1576125a0611a12565b5b5f6125ae84828501612578565b91505092915050565b6125c081611ba8565b82525050565b5f6080820190506125d95f830187611cfd565b6125e66020830186611cfd565b81810360408301526125f88185611ca5565b905061260760608301846125b7565b95945050505050565b5f805f6060848603121561262757612626611a12565b5b5f61263486828701612578565b935050602061264586828701612578565b925050604061265686828701612578565b9150509250925092565b5f61266a82611b89565b9050919050565b61267a81612660565b8114612684575f80fd5b50565b5f8151905061269581612671565b92915050565b5f805f606084860312156126b2576126b1611a12565b5b5f6126bf86828701612687565b93505060206126d086828701612578565b92505060406126e186828701612578565b9150509250925092565b50565b5f6126f95f83611c6d565b9150612704826126eb565b5f82019050919050565b5f6020820190508181035f830152612725816126ee565b9050919050565b5f61273e61273984611add565b611ac3565b90508281526020810184848401111561275a57612759611a51565b5b612765848285611c7d565b509392505050565b5f82601f83011261278157612780611a4d565b5b815161279184826020860161272c565b91505092915050565b5f80604083850312156127b0576127af611a12565b5b5f6127bd85828601612578565b925050602083015167ffffffffffffffff8111156127de576127dd611a16565b5b6127ea8582860161276d565b9150509250929050565b5f819050815f5260205f209050919050565b5f6020601f8301049050919050565b5f82821b905092915050565b5f600883026128507fffffffffffffffffffffffffffffffffffffffffffffffffffffffffffffffff82612815565b61285a8683612815565b95508019841693508086168417925050509392505050565b5f819050919050565b5f61289561289061288b84611a1a565b612872565b611a1a565b9050919050565b5f819050919050565b6128ae8361287b565b6128c26128ba8261289c565b848454612821565b825550505050565b5f90565b6128d66128ca565b6128e18184846128a5565b505050565b5b81811015612904576128f95f826128ce565b6001810190506128e7565b5050565b601f8211156129495761291a816127f4565b61292384612806565b81016020851015612932578190505b61294661293e85612806565b8301826128e6565b50505b505050565b5f82821c905092915050565b5f6129695f198460080261294e565b1980831691505092915050565b5f612981838361295a565b9150826002028217905092915050565b61299a82611c63565b67ffffffffffffffff8111156129b3576129b2611a65565b5b6129bd825461249b565b6129c8828285612908565b5f60209050601f8311600181146129f9575f84156129e7578287015190505b6129f18582612976565b865550612a58565b601f198416612a07866127f4565b5f5b82811015612a2e57848901518255600182019150602085019450602081019050612a09565b86831015612a4b5784890151612a47601f89168261295a565b8355505b6001600288020188555050505b505050505050565b5f6040820190508181035f830152612a788185611ca5565b90508181036020830152612a8c8184612170565b90509392505050565b5f612a9f82611a1a565b9150612aaa83611a1a565b925082612aba57612ab961239d565b5b828206905092915050565b5f612acf82611a1a565b91505f8203612ae157612ae061233d565b5b600182039050919050565b7f537472696e67733a20686578206c656e67746820696e73756666696369656e745f82015250565b5f612b20602083611c6d565b9150612b2b82612aec565b602082019050919050565b5f6020820190508181035f830152612b4d81612b14565b905091905056fe4142434445464748494a4b4c4d4e4f505152535455565758595a6162636465666768696a6b6c6d6e6f707172737475767778797a303132333435363738392b2fa26469706673582212209c41e96f1b2755f9e9a40c97cbc648c30ae79b4a2c331713a36b9015b73a10ef64736f6c63430008160033",
					"opcodes": "PUSH1 0x80 PUSH1 0x40 MSTORE CALLVALUE DUP1 ISZERO PUSH3 0x10 JUMPI PUSH0 DUP1 REVERT JUMPDEST POP PUSH0 PUSH1 0x2 PUSH8 0xFFFFFFFFFFFFFFFF DUP2 GT ISZERO PUSH3 0x30 JUMPI PUSH3 0x2F PUSH3 0x994 JUMP JUMPDEST JUMPDEST PUSH1 0x40 MLOAD SWAP1 DUP1 DUP3 MSTORE DUP1 PUSH1 0x20 MUL PUSH1 0x20 ADD DUP3 ADD PUSH1 0x40 MSTORE DUP1 ISZERO PUSH3 0x5F JUMPI DUP2 PUSH1 0x20 ADD PUSH1 0x20 DUP3 MUL DUP1 CALLDATASIZE DUP4 CALLDATACOPY DUP1 DUP3 ADD SWAP2 POP POP SWAP1 POP JUMPDEST POP SWAP1 POP PUSH1 0x40 DUP2 PUSH0 DUP2 MLOAD DUP2 LT PUSH3 0x7A JUMPI PUSH3 0x79 PUSH3 0x9C1 JUMP JUMPDEST JUMPDEST PUSH1 0x20 MUL PUSH1 0x20 ADD ADD SWAP1 PUSH1 0xC6 DUP2 GT ISZERO PUSH3 0x97 JUMPI PUSH3 0x96 PUSH3 0x9EE JUMP JUMPDEST JUMPDEST SWAP1 DUP2 PUSH1 0xC6 DUP2 GT ISZERO PUSH3 0xAE JUMPI PUSH3 0xAD PUSH3 0x9EE JUMP JUMPDEST JUMPDEST DUP2 MSTORE POP POP PUSH1 0x63 DUP2 PUSH1 0x1 DUP2 MLOAD DUP2 LT PUSH3 0xCB JUMPI PUSH3 0xCA PUSH3 0x9C1 JUMP JUMPDEST JUMPDEST PUSH1 0x20 MUL PUSH1 0x20 ADD ADD SWAP1 PUSH1 0xC6 DUP2 GT ISZERO PUSH3 0xE8 JUMPI PUSH3 0xE7 PUSH3 0x9EE JUMP JUMPDEST JUMPDEST SWAP1 DUP2 PUSH1 0xC6 DUP2 GT ISZERO PUSH3 0xFF JUMPI PUSH3 0xFE PUSH3 0x9EE JUMP JUMPDEST JUMPDEST DUP2 MSTORE POP POP PUSH0 PUSH1 0x1 PUSH8 0xFFFFFFFFFFFFFFFF DUP2 GT ISZERO PUSH3 0x122 JUMPI PUSH3 0x121 PUSH3 0x994 JUMP JUMPDEST JUMPDEST PUSH1 0x40 MLOAD SWAP1 DUP1 DUP3 MSTORE DUP1 PUSH1 0x20 MUL PUSH1 0x20 ADD DUP3 ADD PUSH1 0x40 MSTORE DUP1 ISZERO PUSH3 0x151 JUMPI DUP2 PUSH1 0x20 ADD PUSH1 0x20 DUP3 MUL DUP1 CALLDATASIZE DUP4 CALLDATACOPY DUP1 DUP3 ADD SWAP2 POP POP SWAP1 POP JUMPDEST POP SWAP1 POP PUSH1 0x40 DUP2 PUSH0 DUP2 MLOAD DUP2 LT PUSH3 0x16C JUMPI PUSH3 0x16B PUSH3 0x9C1 JUMP JUMPDEST JUMPDEST PUSH1 0x20 MUL PUSH1 0x20 ADD ADD SWAP1 PUSH1 0xC6 DUP2 GT ISZERO PUSH3 0x189 JUMPI PUSH3 0x188 PUSH3 0x9EE JUMP JUMPDEST JUMPDEST SWAP1 DUP2 PUSH1 0xC6 DUP2 GT ISZERO PUSH3 0x1A0 JUMPI PUSH3 0x19F PUSH3 0x9EE JUMP JUMPDEST JUMPDEST DUP2 MSTORE POP POP PUSH0 PUSH1 0x4 PUSH8 0xFFFFFFFFFFFFFFFF DUP2 GT ISZERO PUSH3 0x1C3 JUMPI PUSH3 0x1C2 PUSH3 0x994 JUMP JUMPDEST JUMPDEST PUSH1 0x40 MLOAD SWAP1 DUP1 DUP3 MSTORE DUP1 PUSH1 0x20 MUL PUSH1 0x20 ADD DUP3 ADD PUSH1 0x40 MSTORE DUP1 ISZERO PUSH3 0x1F2 JUMPI DUP2 PUSH1 0x20 ADD PUSH1 0x20 DUP3 MUL DUP1 CALLDATASIZE DUP4 CALLDATACOPY DUP1 DUP3 ADD SWAP2 POP POP SWAP1 POP JUMPDEST POP SWAP1 POP PUSH1 0x40 DUP2 PUSH0 DUP2 MLOAD DUP2 LT PUSH3 0x20D JUMPI PUSH3 0x20C PUSH3 0x9C1 JUMP JUMPDEST JUMPDEST PUSH1 0x20 MUL PUSH1 0x20 ADD ADD SWAP1 PUSH1 0xC6 DUP2 GT ISZERO PUSH3 0x22A JUMPI PUSH3 0x229 PUSH3 0x9EE JUMP JUMPDEST JUMPDEST SWAP1 DUP2 PUSH1 0xC6 DUP2 GT ISZERO PUSH3 0x241 JUMPI PUSH3 0x240 PUSH3 0x9EE JUMP JUMPDEST JUMPDEST DUP2 MSTORE POP POP PUSH1 0x40 DUP2 PUSH1 0x1 DUP2 MLOAD DUP2 LT PUSH3 0x25E JUMPI PUSH3 0x25D PUSH3 0x9C1 JUMP JUMPDEST JUMPDEST PUSH1 0x20 MUL PUSH1 0x20 ADD ADD SWAP1 PUSH1 0xC6 DUP2 GT ISZERO PUSH3 0x27B JUMPI PUSH3 0x27A PUSH3 0x9EE JUMP JUMPDEST JUMPDEST SWAP1 DUP2 PUSH1 0xC6 DUP2 GT ISZERO PUSH3 0x292 JUMPI PUSH3 0x291 PUSH3 0x9EE JUMP JUMPDEST JUMPDEST DUP2 MSTORE POP POP PUSH1 0x63 DUP2 PUSH1 0x2 DUP2 MLOAD DUP2 LT PUSH3 0x2AF JUMPI PUSH3 0x2AE PUSH3 0x9C1 JUMP JUMPDEST JUMPDEST PUSH1 0x20 MUL PUSH1 0x20 ADD ADD SWAP1 PUSH1 0xC6 DUP2 GT ISZERO PUSH3 0x2CC JUMPI PUSH3 0x2CB PUSH3 0x9EE JUMP JUMPDEST JUMPDEST SWAP1 DUP2 PUSH1 0xC6 DUP2 GT ISZERO PUSH3 0x2E3 JUMPI PUSH3 0x2E2 PUSH3 0x9EE JUMP JUMPDEST JUMPDEST DUP2 MSTORE POP POP PUSH1 0x41 DUP2 PUSH1 0x3 DUP2 MLOAD DUP2 LT PUSH3 0x300 JUMPI PUSH3 0x2FF PUSH3 0x9C1 JUMP JUMPDEST JUMPDEST PUSH1 0x20 MUL PUSH1 0x20 ADD ADD SWAP1 PUSH1 0xC6 DUP2 GT ISZERO PUSH3 0x31D JUMPI PUSH3 0x31C PUSH3 0x9EE JUMP JUMPDEST JUMPDEST SWAP1 DUP2 PUSH1 0xC6 DUP2 GT ISZERO PUSH3 0x334 JUMPI PUSH3 0x333 PUSH3 0x9EE JUMP JUMPDEST JUMPDEST DUP2 MSTORE POP POP PUSH0 PUSH1 0x3 PUSH8 0xFFFFFFFFFFFFFFFF DUP2 GT ISZERO PUSH3 0x357 JUMPI PUSH3 0x356 PUSH3 0x994 JUMP JUMPDEST JUMPDEST PUSH1 0x40 MLOAD SWAP1 DUP1 DUP3 MSTORE DUP1 PUSH1 0x20 MUL PUSH1 0x20 ADD DUP3 ADD PUSH1 0x40 MSTORE DUP1 ISZERO PUSH3 0x386 JUMPI DUP2 PUSH1 0x20 ADD PUSH1 0x20 DUP3 MUL DUP1 CALLDATASIZE DUP4 CALLDATACOPY DUP1 DUP3 ADD SWAP2 POP POP SWAP1 POP JUMPDEST POP SWAP1 POP PUSH1 0x40 DUP2 PUSH0 DUP2 MLOAD DUP2 LT PUSH3 0x3A1 JUMPI PUSH3 0x3A0 PUSH3 0x9C1 JUMP JUMPDEST JUMPDEST PUSH1 0x20 MUL PUSH1 0x20 ADD ADD SWAP1 PUSH1 0xC6 DUP2 GT ISZERO PUSH3 0x3BE JUMPI PUSH3 0x3BD PUSH3 0x9EE JUMP JUMPDEST JUMPDEST SWAP1 DUP2 PUSH1 0xC6 DUP2 GT ISZERO PUSH3 0x3D5 JUMPI PUSH3 0x3D4 PUSH3 0x9EE JUMP JUMPDEST JUMPDEST DUP2 MSTORE POP POP PUSH1 0x40 DUP2 PUSH1 0x1 DUP2 MLOAD DUP2 LT PUSH3 0x3F2 JUMPI PUSH3 0x3F1 PUSH3 0x9C1 JUMP JUMPDEST JUMPDEST PUSH1 0x20 MUL PUSH1 0x20 ADD ADD SWAP1 PUSH1 0xC6 DUP2 GT ISZERO PUSH3 0x40F JUMPI PUSH3 0x40E PUSH3 0x9EE JUMP JUMPDEST JUMPDEST SWAP1 DUP2 PUSH1 0xC6 DUP2 GT ISZERO PUSH3 0x426 JUMPI PUSH3 0x425 PUSH3 0x9EE JUMP JUMPDEST JUMPDEST DUP2 MSTORE POP POP PUSH1 0x40 DUP2 PUSH1 0x2 DUP2 MLOAD DUP2 LT PUSH3 0x443 JUMPI PUSH3 0x442 PUSH3 0x9C1 JUMP JUMPDEST JUMPDEST PUSH1 0x20 MUL PUSH1 0x20 ADD ADD SWAP1 PUSH1 0xC6 DUP2 GT ISZERO PUSH3 0x460 JUMPI PUSH3 0x45F PUSH3 0x9EE JUMP JUMPDEST JUMPDEST SWAP1 DUP2 PUSH1 0xC6 DUP2 GT ISZERO PUSH3 0x477 JUMPI PUSH3 0x476 PUSH3 0x9EE JUMP JUMPDEST JUMPDEST DUP2 MSTORE POP POP PUSH0 PUSH1 0x1 PUSH8 0xFFFFFFFFFFFFFFFF DUP2 GT ISZERO PUSH3 0x49A JUMPI PUSH3 0x499 PUSH3 0x994 JUMP JUMPDEST JUMPDEST PUSH1 0x40 MLOAD SWAP1 DUP1 DUP3 MSTORE DUP1 PUSH1 0x20 MUL PUSH1 0x20 ADD DUP3 ADD PUSH1 0x40 MSTORE DUP1 ISZERO PUSH3 0x4C9 JUMPI DUP2 PUSH1 0x20 ADD PUSH1 0x20 DUP3 MUL DUP1 CALLDATASIZE DUP4 CALLDATACOPY DUP1 DUP3 ADD SWAP2 POP POP SWAP1 POP JUMPDEST POP SWAP1 POP PUSH1 0xC6 DUP2 PUSH0 DUP2 MLOAD DUP2 LT PUSH3 0x4E4 JUMPI PUSH3 0x4E3 PUSH3 0x9C1 JUMP JUMPDEST JUMPDEST PUSH1 0x20 MUL PUSH1 0x20 ADD ADD SWAP1 PUSH1 0xC6 DUP2 GT ISZERO PUSH3 0x501 JUMPI PUSH3 0x500 PUSH3 0x9EE JUMP JUMPDEST JUMPDEST SWAP1 DUP2 PUSH1 0xC6 DUP2 GT ISZERO PUSH3 0x518 JUMPI PUSH3 0x517 PUSH3 0x9EE JUMP JUMPDEST JUMPDEST DUP2 MSTORE POP POP PUSH0 PUSH1 0x3 PUSH8 0xFFFFFFFFFFFFFFFF DUP2 GT ISZERO PUSH3 0x53B JUMPI PUSH3 0x53A PUSH3 0x994 JUMP JUMPDEST JUMPDEST PUSH1 0x40 MLOAD SWAP1 DUP1 DUP3 MSTORE DUP1 PUSH1 0x20 MUL PUSH1 0x20 ADD DUP3 ADD PUSH1 0x40 MSTORE DUP1 ISZERO PUSH3 0x56A JUMPI DUP2 PUSH1 0x20 ADD PUSH1 0x20 DUP3 MUL DUP1 CALLDATASIZE DUP4 CALLDATACOPY DUP1 DUP3 ADD SWAP2 POP POP SWAP1 POP JUMPDEST POP SWAP1 POP PUSH1 0x41 DUP2 PUSH0 DUP2 MLOAD DUP2 LT PUSH3 0x585 JUMPI PUSH3 0x584 PUSH3 0x9C1 JUMP JUMPDEST JUMPDEST PUSH1 0x20 MUL PUSH1 0x20 ADD ADD SWAP1 PUSH1 0xC6 DUP2 GT ISZERO PUSH3 0x5A2 JUMPI PUSH3 0x5A1 PUSH3 0x9EE JUMP JUMPDEST JUMPDEST SWAP1 DUP2 PUSH1 0xC6 DUP2 GT ISZERO PUSH3 0x5B9 JUMPI PUSH3 0x5B8 PUSH3 0x9EE JUMP JUMPDEST JUMPDEST DUP2 MSTORE POP POP PUSH1 0x40 DUP2 PUSH1 0x1 DUP2 MLOAD DUP2 LT PUSH3 0x5D6 JUMPI PUSH3 0x5D5 PUSH3 0x9C1 JUMP JUMPDEST JUMPDEST PUSH1 0x20 MUL PUSH1 0x20 ADD ADD SWAP1 PUSH1 0xC6 DUP2 GT ISZERO PUSH3 0x5F3 JUMPI PUSH3 0x5F2 PUSH3 0x9EE JUMP JUMPDEST JUMPDEST SWAP1 DUP2 PUSH1 0xC6 DUP2 GT ISZERO PUSH3 0x60A JUMPI PUSH3 0x609 PUSH3 0x9EE JUMP JUMPDEST JUMPDEST DUP2 MSTORE POP POP PUSH1 0x40 DUP2 PUSH1 0x2 DUP2 MLOAD DUP2 LT PUSH3 0x627 JUMPI PUSH3 0x626 PUSH3 0x9C1 JUMP JUMPDEST JUMPDEST PUSH1 0x20 MUL PUSH1 0x20 ADD ADD SWAP1 PUSH1 0xC6 DUP2 GT ISZERO PUSH3 0x644 JUMPI PUSH3 0x643 PUSH3 0x9EE JUMP JUMPDEST JUMPDEST SWAP1 DUP2 PUSH1 0xC6 DUP2 GT ISZERO PUSH3 0x65B JUMPI PUSH3 0x65A PUSH3 0x9EE JUMP JUMPDEST JUMPDEST DUP2 MSTORE POP POP PUSH3 0x6F5 PUSH1 0x40 MLOAD DUP1 PUSH1 0x40 ADD PUSH1 0x40 MSTORE DUP1 PUSH1 0xB DUP2 MSTORE PUSH1 0x20 ADD PUSH32 0x706F7374436F6D6D656E74000000000000000000000000000000000000000000 DUP2 MSTORE POP PUSH1 0x1 DUP9 PUSH0 PUSH8 0xFFFFFFFFFFFFFFFF DUP2 GT ISZERO PUSH3 0x6B9 JUMPI PUSH3 0x6B8 PUSH3 0x994 JUMP JUMPDEST JUMPDEST PUSH1 0x40 MLOAD SWAP1 DUP1 DUP3 MSTORE DUP1 PUSH1 0x20 MUL PUSH1 0x20 ADD DUP3 ADD PUSH1 0x40 MSTORE DUP1 ISZERO PUSH3 0x6E8 JUMPI DUP2 PUSH1 0x20 ADD PUSH1 0x20 DUP3 MUL DUP1 CALLDATASIZE DUP4 CALLDATACOPY DUP1 DUP3 ADD SWAP2 POP POP SWAP1 POP JUMPDEST POP PUSH3 0x7DC PUSH1 0x20 SHL PUSH1 0x20 SHR JUMP JUMPDEST PUSH3 0x73E PUSH1 0x40 MLOAD DUP1 PUSH1 0x40 ADD PUSH1 0x40 MSTORE DUP1 PUSH1 0xA DUP2 MSTORE PUSH1 0x20 ADD PUSH32 0x676574436F6D6D656E7400000000000000000000000000000000000000000000 DUP2 MSTORE POP PUSH0 DUP8 DUP8 PUSH3 0x7DC PUSH1 0x20 SHL PUSH1 0x20 SHR JUMP JUMPDEST PUSH3 0x787 PUSH1 0x40 MLOAD DUP1 PUSH1 0x40 ADD PUSH1 0x40 MSTORE DUP1 PUSH1 0xB DUP2 MSTORE PUSH1 0x20 ADD PUSH32 0x676574436F6D6D656E7473000000000000000000000000000000000000000000 DUP2 MSTORE POP PUSH0 DUP6 DUP6 PUSH3 0x7DC PUSH1 0x20 SHL PUSH1 0x20 SHR JUMP JUMPDEST PUSH3 0x7D0 PUSH1 0x40 MLOAD DUP1 PUSH1 0x40 ADD PUSH1 0x40 MSTORE DUP1 PUSH1 0x14 DUP2 MSTORE PUSH1 0x20 ADD PUSH32 0x676574436F6D6D656E7473427941646472657373000000000000000000000000 DUP2 MSTORE POP PUSH0 DUP4 DUP6 PUSH3 0x7DC PUSH1 0x20 SHL PUSH1 0x20 SHR JUMP JUMPDEST POP POP POP POP POP POP PUSH3 0xDB8 JUMP JUMPDEST PUSH0 DUP1 DUP5 PUSH1 0x3 DUP2 GT ISZERO PUSH3 0x7F4 JUMPI PUSH3 0x7F3 PUSH3 0x9EE JUMP JUMPDEST JUMPDEST PUSH1 0x3 DUP2 GT ISZERO PUSH3 0x809 JUMPI PUSH3 0x808 PUSH3 0x9EE JUMP JUMPDEST JUMPDEST DUP2 MSTORE PUSH1 0x20 ADD SWAP1 DUP2 MSTORE PUSH1 0x20 ADD PUSH0 KECCAK256 DUP5 SWAP1 DUP1 PUSH1 0x1 DUP2 SLOAD ADD DUP1 DUP3 SSTORE DUP1 SWAP2 POP POP PUSH1 0x1 SWAP1 SUB SWAP1 PUSH0 MSTORE PUSH1 0x20 PUSH0 KECCAK256 ADD PUSH0 SWAP1 SWAP2 SWAP1 SWAP2 SWAP1 SWAP2 POP SWAP1 DUP2 PUSH3 0x847 SWAP2 SWAP1 PUSH3 0xC52 JUMP JUMPDEST POP DUP2 PUSH1 0x1 DUP6 PUSH1 0x40 MLOAD PUSH3 0x85B SWAP2 SWAP1 PUSH3 0xDA0 JUMP JUMPDEST SWAP1 DUP2 MSTORE PUSH1 0x20 ADD PUSH1 0x40 MLOAD DUP1 SWAP2 SUB SWAP1 KECCAK256 SWAP1 DUP1 MLOAD SWAP1 PUSH1 0x20 ADD SWAP1 PUSH3 0x87E SWAP3 SWAP2 SWAP1 PUSH3 0x8BC JUMP JUMPDEST POP DUP1 PUSH1 0x2 DUP6 PUSH1 0x40 MLOAD PUSH3 0x892 SWAP2 SWAP1 PUSH3 0xDA0 JUMP JUMPDEST SWAP1 DUP2 MSTORE PUSH1 0x20 ADD PUSH1 0x40 MLOAD DUP1 SWAP2 SUB SWAP1 KECCAK256 SWAP1 DUP1 MLOAD SWAP1 PUSH1 0x20 ADD SWAP1 PUSH3 0x8B5 SWAP3 SWAP2 SWAP1 PUSH3 0x8BC JUMP JUMPDEST POP POP POP POP POP JUMP JUMPDEST DUP3 DUP1 SLOAD DUP3 DUP3 SSTORE SWAP1 PUSH0 MSTORE PUSH1 0x20 PUSH0 KECCAK256 SWAP1 PUSH1 0x1F ADD PUSH1 0x20 SWAP1 DIV DUP2 ADD SWAP3 DUP3 ISZERO PUSH3 0x964 JUMPI SWAP2 PUSH1 0x20 MUL DUP3 ADD PUSH0 JUMPDEST DUP4 DUP3 GT ISZERO PUSH3 0x934 JUMPI DUP4 MLOAD DUP4 DUP3 PUSH2 0x100 EXP DUP2 SLOAD DUP2 PUSH1 0xFF MUL NOT AND SWAP1 DUP4 PUSH1 0xC6 DUP2 GT ISZERO PUSH3 0x913 JUMPI PUSH3 0x912 PUSH3 0x9EE JUMP JUMPDEST JUMPDEST MUL OR SWAP1 SSTORE POP SWAP3 PUSH1 0x20 ADD SWAP3 PUSH1 0x1 ADD PUSH1 0x20 DUP2 PUSH0 ADD DIV SWAP3 DUP4 ADD SWAP3 PUSH1 0x1 SUB MUL PUSH3 0x8E3 JUMP JUMPDEST DUP1 ISZERO PUSH3 0x962 JUMPI DUP3 DUP2 PUSH2 0x100 EXP DUP2 SLOAD SWAP1 PUSH1 0xFF MUL NOT AND SWAP1 SSTORE PUSH1 0x1 ADD PUSH1 0x20 DUP2 PUSH0 ADD DIV SWAP3 DUP4 ADD SWAP3 PUSH1 0x1 SUB MUL PUSH3 0x934 JUMP JUMPDEST POP JUMPDEST POP SWAP1 POP PUSH3 0x973 SWAP2 SWAP1 PUSH3 0x977 JUMP JUMPDEST POP SWAP1 JUMP JUMPDEST JUMPDEST DUP1 DUP3 GT ISZERO PUSH3 0x990 JUMPI PUSH0 DUP2 PUSH0 SWAP1 SSTORE POP PUSH1 0x1 ADD PUSH3 0x978 JUMP JUMPDEST POP SWAP1 JUMP JUMPDEST PUSH32 0x4E487B7100000000000000000000000000000000000000000000000000000000 PUSH0 MSTORE PUSH1 0x41 PUSH1 0x4 MSTORE PUSH1 0x24 PUSH0 REVERT JUMPDEST PUSH32 0x4E487B7100000000000000000000000000000000000000000000000000000000 PUSH0 MSTORE PUSH1 0x32 PUSH1 0x4 MSTORE PUSH1 0x24 PUSH0 REVERT JUMPDEST PUSH32 0x4E487B7100000000000000000000000000000000000000000000000000000000 PUSH0 MSTORE PUSH1 0x21 PUSH1 0x4 MSTORE PUSH1 0x24 PUSH0 REVERT JUMPDEST PUSH0 DUP2 MLOAD SWAP1 POP SWAP2 SWAP1 POP JUMP JUMPDEST PUSH32 0x4E487B7100000000000000000000000000000000000000000000000000000000 PUSH0 MSTORE PUSH1 0x22 PUSH1 0x4 MSTORE PUSH1 0x24 PUSH0 REVERT JUMPDEST PUSH0 PUSH1 0x2 DUP3 DIV SWAP1 POP PUSH1 0x1 DUP3 AND DUP1 PUSH3 0xA6A JUMPI PUSH1 0x7F DUP3 AND SWAP2 POP JUMPDEST PUSH1 0x20 DUP3 LT DUP2 SUB PUSH3 0xA80 JUMPI PUSH3 0xA7F PUSH3 0xA25 JUMP JUMPDEST JUMPDEST POP SWAP2 SWAP1 POP JUMP JUMPDEST PUSH0 DUP2 SWAP1 POP DUP2 PUSH0 MSTORE PUSH1 0x20 PUSH0 KECCAK256 SWAP1 POP SWAP2 SWAP1 POP JUMP JUMPDEST PUSH0 PUSH1 0x20 PUSH1 0x1F DUP4 ADD DIV SWAP1 POP SWAP2 SWAP1 POP JUMP JUMPDEST PUSH0 DUP3 DUP3 SHL SWAP1 POP SWAP3 SWAP2 POP POP JUMP JUMPDEST PUSH0 PUSH1 0x8 DUP4 MUL PUSH3 0xAE4 PUSH32 0xFFFFFFFFFFFFFFFFFFFFFFFFFFFFFFFFFFFFFFFFFFFFFFFFFFFFFFFFFFFFFFFF DUP3 PUSH3 0xAA7 JUMP JUMPDEST PUSH3 0xAF0 DUP7 DUP4 PUSH3 0xAA7 JUMP JUMPDEST SWAP6 POP DUP1 NOT DUP5 AND SWAP4 POP DUP1 DUP7 AND DUP5 OR SWAP3 POP POP POP SWAP4 SWAP3 POP POP POP JUMP JUMPDEST PUSH0 DUP2 SWAP1 POP SWAP2 SWAP1 POP JUMP JUMPDEST PUSH0 DUP2 SWAP1 POP SWAP2 SWAP1 POP JUMP JUMPDEST PUSH0 PUSH3 0xB3A PUSH3 0xB34 PUSH3 0xB2E DUP5 PUSH3 0xB08 JUMP JUMPDEST PUSH3 0xB11 JUMP JUMPDEST PUSH3 0xB08 JUMP JUMPDEST SWAP1 POP SWAP2 SWAP1 POP JUMP JUMPDEST PUSH0 DUP2 SWAP1 POP SWAP2 SWAP1 POP JUMP JUMPDEST PUSH3 0xB55 DUP4 PUSH3 0xB1A JUMP JUMPDEST PUSH3 0xB6D PUSH3 0xB64 DUP3 PUSH3 0xB41 JUMP JUMPDEST DUP5 DUP5 SLOAD PUSH3 0xAB3 JUMP JUMPDEST DUP3 SSTORE POP POP POP POP JUMP JUMPDEST PUSH0 SWAP1 JUMP JUMPDEST PUSH3 0xB83 PUSH3 0xB75 JUMP JUMPDEST PUSH3 0xB90 DUP2 DUP5 DUP5 PUSH3 0xB4A JUMP JUMPDEST POP POP POP JUMP JUMPDEST JUMPDEST DUP2 DUP2 LT ISZERO PUSH3 0xBB7 JUMPI PUSH3 0xBAB PUSH0 DUP3 PUSH3 0xB79 JUMP JUMPDEST PUSH1 0x1 DUP2 ADD SWAP1 POP PUSH3 0xB96 JUMP JUMPDEST POP POP JUMP JUMPDEST PUSH1 0x1F DUP3 GT ISZERO PUSH3 0xC06 JUMPI PUSH3 0xBD0 DUP2 PUSH3 0xA86 JUMP JUMPDEST PUSH3 0xBDB DUP5 PUSH3 0xA98 JUMP JUMPDEST DUP2 ADD PUSH1 0x20 DUP6 LT ISZERO PUSH3 0xBEB JUMPI DUP2 SWAP1 POP JUMPDEST PUSH3 0xC03 PUSH3 0xBFA DUP6 PUSH3 0xA98 JUMP JUMPDEST DUP4 ADD DUP3 PUSH3 0xB95 JUMP JUMPDEST POP POP JUMPDEST POP POP POP JUMP JUMPDEST PUSH0 DUP3 DUP3 SHR SWAP1 POP SWAP3 SWAP2 POP POP JUMP JUMPDEST PUSH0 PUSH3 0xC28 PUSH0 NOT DUP5 PUSH1 0x8 MUL PUSH3 0xC0B JUMP JUMPDEST NOT DUP1 DUP4 AND SWAP2 POP POP SWAP3 SWAP2 POP POP JUMP JUMPDEST PUSH0 PUSH3 0xC42 DUP4 DUP4 PUSH3 0xC17 JUMP JUMPDEST SWAP2 POP DUP3 PUSH1 0x2 MUL DUP3 OR SWAP1 POP SWAP3 SWAP2 POP POP JUMP JUMPDEST PUSH3 0xC5D DUP3 PUSH3 0xA1B JUMP JUMPDEST PUSH8 0xFFFFFFFFFFFFFFFF DUP2 GT ISZERO PUSH3 0xC79 JUMPI PUSH3 0xC78 PUSH3 0x994 JUMP JUMPDEST JUMPDEST PUSH3 0xC85 DUP3 SLOAD PUSH3 0xA52 JUMP JUMPDEST PUSH3 0xC92 DUP3 DUP3 DUP6 PUSH3 0xBBB JUMP JUMPDEST PUSH0 PUSH1 0x20 SWAP1 POP PUSH1 0x1F DUP4 GT PUSH1 0x1 DUP2 EQ PUSH3 0xCC8 JUMPI PUSH0 DUP5 ISZERO PUSH3 0xCB3 JUMPI DUP3 DUP8 ADD MLOAD SWAP1 POP JUMPDEST PUSH3 0xCBF DUP6 DUP3 PUSH3 0xC35 JUMP JUMPDEST DUP7 SSTORE POP PUSH3 0xD2E JUMP JUMPDEST PUSH1 0x1F NOT DUP5 AND PUSH3 0xCD8 DUP7 PUSH3 0xA86 JUMP JUMPDEST PUSH0 JUMPDEST DUP3 DUP2 LT ISZERO PUSH3 0xD01 JUMPI DUP5 DUP10 ADD MLOAD DUP3 SSTORE PUSH1 0x1 DUP3 ADD SWAP2 POP PUSH1 0x20 DUP6 ADD SWAP5 POP PUSH1 0x20 DUP2 ADD SWAP1 POP PUSH3 0xCDA JUMP JUMPDEST DUP7 DUP4 LT ISZERO PUSH3 0xD21 JUMPI DUP5 DUP10 ADD MLOAD PUSH3 0xD1D PUSH1 0x1F DUP10 AND DUP3 PUSH3 0xC17 JUMP JUMPDEST DUP4 SSTORE POP JUMPDEST PUSH1 0x1 PUSH1 0x2 DUP9 MUL ADD DUP9 SSTORE POP POP POP JUMPDEST POP POP POP POP POP POP JUMP JUMPDEST PUSH0 DUP2 SWAP1 POP SWAP3 SWAP2 POP POP JUMP JUMPDEST PUSH0 JUMPDEST DUP4 DUP2 LT ISZERO PUSH3 0xD5F JUMPI DUP1 DUP3 ADD MLOAD DUP2 DUP5 ADD MSTORE PUSH1 0x20 DUP2 ADD SWAP1 POP PUSH3 0xD42 JUMP JUMPDEST PUSH0 DUP5 DUP5 ADD MSTORE POP POP POP POP JUMP JUMPDEST PUSH0 PUSH3 0xD76 DUP3 PUSH3 0xA1B JUMP JUMPDEST PUSH3 0xD82 DUP2 DUP6 PUSH3 0xD36 JUMP JUMPDEST SWAP4 POP PUSH3 0xD94 DUP2 DUP6 PUSH1 0x20 DUP7 ADD PUSH3 0xD40 JUMP JUMPDEST DUP1 DUP5 ADD SWAP2 POP POP SWAP3 SWAP2 POP POP JUMP JUMPDEST PUSH0 PUSH3 0xDAD DUP3 DUP5 PUSH3 0xD6A JUMP JUMPDEST SWAP2 POP DUP2 SWAP1 POP SWAP3 SWAP2 POP POP JUMP JUMPDEST PUSH2 0x2BCA DUP1 PUSH3 0xDC6 PUSH0 CODECOPY PUSH0 RETURN INVALID PUSH1 0x80 PUSH1 0x40 MSTORE PUSH1 0x4 CALLDATASIZE LT PUSH2 0x90 JUMPI PUSH0 CALLDATALOAD PUSH1 0xE0 SHR DUP1 PUSH4 0x6818BA1D GT PUSH2 0x58 JUMPI DUP1 PUSH4 0x6818BA1D EQ PUSH2 0x19D JUMPI DUP1 PUSH4 0xAFF62745 EQ PUSH2 0x1D9 JUMPI DUP1 PUSH4 0xB6AE0425 EQ PUSH2 0x215 JUMPI DUP1 PUSH4 0xE9536472 EQ PUSH2 0x245 JUMPI DUP1 PUSH4 0xF4856CCB EQ PUSH2 0x275 JUMPI PUSH2 0x90 JUMP JUMPDEST DUP1 PUSH4 0x1069143A EQ PUSH2 0x94 JUMPI DUP1 PUSH4 0x1D16B70D EQ PUSH2 0xBE JUMPI DUP1 PUSH4 0x3E413065 EQ PUSH2 0xFA JUMPI DUP1 PUSH4 0x44237454 EQ PUSH2 0x124 JUMPI DUP1 PUSH4 0x458AD6D4 EQ PUSH2 0x160 JUMPI JUMPDEST PUSH0 DUP1 REVERT JUMPDEST CALLVALUE DUP1 ISZERO PUSH2 0x9F JUMPI PUSH0 DUP1 REVERT JUMPDEST POP PUSH2 0xA8 PUSH2 0x2B1 JUMP JUMPDEST PUSH1 0x40 MLOAD PUSH2 0xB5 SWAP2 SWAP1 PUSH2 0x19E9 JUMP JUMPDEST PUSH1 0x40 MLOAD DUP1 SWAP2 SUB SWAP1 RETURN JUMPDEST CALLVALUE DUP1 ISZERO PUSH2 0xC9 JUMPI PUSH0 DUP1 REVERT JUMPDEST POP PUSH2 0xE4 PUSH1 0x4 DUP1 CALLDATASIZE SUB DUP2 ADD SWAP1 PUSH2 0xDF SWAP2 SWAP1 PUSH2 0x1BE3 JUMP JUMPDEST PUSH2 0x425 JUMP JUMPDEST PUSH1 0x40 MLOAD PUSH2 0xF1 SWAP2 SWAP1 PUSH2 0x1CDD JUMP JUMPDEST PUSH1 0x40 MLOAD DUP1 SWAP2 SUB SWAP1 RETURN JUMPDEST CALLVALUE DUP1 ISZERO PUSH2 0x105 JUMPI PUSH0 DUP1 REVERT JUMPDEST POP PUSH2 0x10E PUSH2 0x499 JUMP JUMPDEST PUSH1 0x40 MLOAD PUSH2 0x11B SWAP2 SWAP1 PUSH2 0x1D0C JUMP JUMPDEST PUSH1 0x40 MLOAD DUP1 SWAP2 SUB SWAP1 RETURN JUMPDEST CALLVALUE DUP1 ISZERO PUSH2 0x12F JUMPI PUSH0 DUP1 REVERT JUMPDEST POP PUSH2 0x14A PUSH1 0x4 DUP1 CALLDATASIZE SUB DUP2 ADD SWAP1 PUSH2 0x145 SWAP2 SWAP1 PUSH2 0x1D25 JUMP JUMPDEST PUSH2 0x49F JUMP JUMPDEST PUSH1 0x40 MLOAD PUSH2 0x157 SWAP2 SWAP1 PUSH2 0x1E78 JUMP JUMPDEST PUSH1 0x40 MLOAD DUP1 SWAP2 SUB SWAP1 RETURN JUMPDEST CALLVALUE DUP1 ISZERO PUSH2 0x16B JUMPI PUSH0 DUP1 REVERT JUMPDEST POP PUSH2 0x186 PUSH1 0x4 DUP1 CALLDATASIZE SUB DUP2 ADD SWAP1 PUSH2 0x181 SWAP2 SWAP1 PUSH2 0x1E98 JUMP JUMPDEST PUSH2 0x807 JUMP JUMPDEST PUSH1 0x40 MLOAD PUSH2 0x194 SWAP3 SWAP2 SWAP1 PUSH2 0x1FBD JUMP JUMPDEST PUSH1 0x40 MLOAD DUP1 SWAP2 SUB SWAP1 RETURN JUMPDEST CALLVALUE DUP1 ISZERO PUSH2 0x1A8 JUMPI PUSH0 DUP1 REVERT JUMPDEST POP PUSH2 0x1C3 PUSH1 0x4 DUP1 CALLDATASIZE SUB DUP2 ADD SWAP1 PUSH2 0x1BE SWAP2 SWAP1 PUSH2 0x1FF2 JUMP JUMPDEST PUSH2 0x955 JUMP JUMPDEST PUSH1 0x40 MLOAD PUSH2 0x1D0 SWAP2 SWAP1 PUSH2 0x1E78 JUMP JUMPDEST PUSH1 0x40 MLOAD DUP1 SWAP2 SUB SWAP1 RETURN JUMPDEST CALLVALUE DUP1 ISZERO PUSH2 0x1E4 JUMPI PUSH0 DUP1 REVERT JUMPDEST POP PUSH2 0x1FF PUSH1 0x4 DUP1 CALLDATASIZE SUB DUP2 ADD SWAP1 PUSH2 0x1FA SWAP2 SWAP1 PUSH2 0x20E0 JUMP JUMPDEST PUSH2 0xC39 JUMP JUMPDEST PUSH1 0x40 MLOAD PUSH2 0x20C SWAP2 SWAP1 PUSH2 0x21A8 JUMP JUMPDEST PUSH1 0x40 MLOAD DUP1 SWAP2 SUB SWAP1 RETURN JUMPDEST PUSH2 0x22F PUSH1 0x4 DUP1 CALLDATASIZE SUB DUP2 ADD SWAP1 PUSH2 0x22A SWAP2 SWAP1 PUSH2 0x20E0 JUMP JUMPDEST PUSH2 0xF46 JUMP JUMPDEST PUSH1 0x40 MLOAD PUSH2 0x23C SWAP2 SWAP1 PUSH2 0x21A8 JUMP JUMPDEST PUSH1 0x40 MLOAD DUP1 SWAP2 SUB SWAP1 RETURN JUMPDEST PUSH2 0x25F PUSH1 0x4 DUP1 CALLDATASIZE SUB DUP2 ADD SWAP1 PUSH2 0x25A SWAP2 SWAP1 PUSH2 0x20E0 JUMP JUMPDEST PUSH2 0x1224 JUMP JUMPDEST PUSH1 0x40 MLOAD PUSH2 0x26C SWAP2 SWAP1 PUSH2 0x21A8 JUMP JUMPDEST PUSH1 0x40 MLOAD DUP1 SWAP2 SUB SWAP1 RETURN JUMPDEST CALLVALUE DUP1 ISZERO PUSH2 0x280 JUMPI PUSH0 DUP1 REVERT JUMPDEST POP PUSH2 0x29B PUSH1 0x4 DUP1 CALLDATASIZE SUB DUP2 ADD SWAP1 PUSH2 0x296 SWAP2 SWAP1 PUSH2 0x21EB JUMP JUMPDEST PUSH2 0x1250 JUMP JUMPDEST PUSH1 0x40 MLOAD PUSH2 0x2A8 SWAP2 SWAP1 PUSH2 0x1E78 JUMP JUMPDEST PUSH1 0x40 MLOAD DUP1 SWAP2 SUB SWAP1 RETURN JUMPDEST PUSH1 0x60 PUSH0 PUSH1 0x4 PUSH8 0xFFFFFFFFFFFFFFFF DUP2 GT ISZERO PUSH2 0x2CF JUMPI PUSH2 0x2CE PUSH2 0x1A65 JUMP JUMPDEST JUMPDEST PUSH1 0x40 MLOAD SWAP1 DUP1 DUP3 MSTORE DUP1 PUSH1 0x20 MUL PUSH1 0x20 ADD DUP3 ADD PUSH1 0x40 MSTORE DUP1 ISZERO PUSH2 0x2FD JUMPI DUP2 PUSH1 0x20 ADD PUSH1 0x20 DUP3 MUL DUP1 CALLDATASIZE DUP4 CALLDATACOPY DUP1 DUP3 ADD SWAP2 POP POP SWAP1 POP JUMPDEST POP SWAP1 POP PUSH0 DUP2 PUSH0 DUP2 MLOAD DUP2 LT PUSH2 0x314 JUMPI PUSH2 0x313 PUSH2 0x2216 JUMP JUMPDEST JUMPDEST PUSH1 0x20 MUL PUSH1 0x20 ADD ADD SWAP1 PUSH1 0x3 DUP2 GT ISZERO PUSH2 0x32E JUMPI PUSH2 0x32D PUSH2 0x18F7 JUMP JUMPDEST JUMPDEST SWAP1 DUP2 PUSH1 0x3 DUP2 GT ISZERO PUSH2 0x342 JUMPI PUSH2 0x341 PUSH2 0x18F7 JUMP JUMPDEST JUMPDEST DUP2 MSTORE POP POP PUSH1 0x1 DUP2 PUSH1 0x1 DUP2 MLOAD DUP2 LT PUSH2 0x35C JUMPI PUSH2 0x35B PUSH2 0x2216 JUMP JUMPDEST JUMPDEST PUSH1 0x20 MUL PUSH1 0x20 ADD ADD SWAP1 PUSH1 0x3 DUP2 GT ISZERO PUSH2 0x376 JUMPI PUSH2 0x375 PUSH2 0x18F7 JUMP JUMPDEST JUMPDEST SWAP1 DUP2 PUSH1 0x3 DUP2 GT ISZERO PUSH2 0x38A JUMPI PUSH2 0x389 PUSH2 0x18F7 JUMP JUMPDEST JUMPDEST DUP2 MSTORE POP POP PUSH1 0x2 DUP2 PUSH1 0x2 DUP2 MLOAD DUP2 LT PUSH2 0x3A4 JUMPI PUSH2 0x3A3 PUSH2 0x2216 JUMP JUMPDEST JUMPDEST PUSH1 0x20 MUL PUSH1 0x20 ADD ADD SWAP1 PUSH1 0x3 DUP2 GT ISZERO PUSH2 0x3BE JUMPI PUSH2 0x3BD PUSH2 0x18F7 JUMP JUMPDEST JUMPDEST SWAP1 DUP2 PUSH1 0x3 DUP2 GT ISZERO PUSH2 0x3D2 JUMPI PUSH2 0x3D1 PUSH2 0x18F7 JUMP JUMPDEST JUMPDEST DUP2 MSTORE POP POP PUSH1 0x3 DUP2 PUSH1 0x3 DUP2 MLOAD DUP2 LT PUSH2 0x3EC JUMPI PUSH2 0x3EB PUSH2 0x2216 JUMP JUMPDEST JUMPDEST PUSH1 0x20 MUL PUSH1 0x20 ADD ADD SWAP1 PUSH1 0x3 DUP2 GT ISZERO PUSH2 0x406 JUMPI PUSH2 0x405 PUSH2 0x18F7 JUMP JUMPDEST JUMPDEST SWAP1 DUP2 PUSH1 0x3 DUP2 GT ISZERO PUSH2 0x41A JUMPI PUSH2 0x419 PUSH2 0x18F7 JUMP JUMPDEST JUMPDEST DUP2 MSTORE POP POP DUP1 SWAP2 POP POP SWAP1 JUMP JUMPDEST PUSH1 0x60 PUSH2 0x430 DUP6 PUSH2 0x1358 JUMP JUMPDEST PUSH2 0x439 DUP6 PUSH2 0x1358 JUMP JUMPDEST PUSH2 0x442 DUP6 PUSH2 0x14B1 JUMP JUMPDEST PUSH2 0x463 DUP6 PUSH20 0xFFFFFFFFFFFFFFFFFFFFFFFFFFFFFFFFFFFFFFFF AND PUSH1 0x14 PUSH2 0x1641 JUMP JUMPDEST PUSH2 0x46C TIMESTAMP PUSH2 0x1358 JUMP JUMPDEST PUSH1 0x40 MLOAD PUSH1 0x20 ADD PUSH2 0x480 SWAP6 SWAP5 SWAP4 SWAP3 SWAP2 SWAP1 PUSH2 0x22C7 JUMP JUMPDEST PUSH1 0x40 MLOAD PUSH1 0x20 DUP2 DUP4 SUB SUB DUP2 MSTORE SWAP1 PUSH1 0x40 MSTORE SWAP1 POP SWAP5 SWAP4 POP POP POP POP JUMP JUMPDEST PUSH1 0x3 SLOAD DUP2 JUMP JUMPDEST PUSH1 0x60 PUSH0 PUSH1 0x5 PUSH0 DUP7 PUSH20 0xFFFFFFFFFFFFFFFFFFFFFFFFFFFFFFFFFFFFFFFF AND PUSH20 0xFFFFFFFFFFFFFFFFFFFFFFFFFFFFFFFFFFFFFFFF AND DUP2 MSTORE PUSH1 0x20 ADD SWAP1 DUP2 MSTORE PUSH1 0x20 ADD PUSH0 KECCAK256 SLOAD SUB PUSH2 0x53F JUMPI PUSH0 DUP1 PUSH8 0xFFFFFFFFFFFFFFFF DUP2 GT ISZERO PUSH2 0x500 JUMPI PUSH2 0x4FF PUSH2 0x1A65 JUMP JUMPDEST JUMPDEST PUSH1 0x40 MLOAD SWAP1 DUP1 DUP3 MSTORE DUP1 PUSH1 0x20 MUL PUSH1 0x20 ADD DUP3 ADD PUSH1 0x40 MSTORE DUP1 ISZERO PUSH2 0x533 JUMPI DUP2 PUSH1 0x20 ADD JUMPDEST PUSH1 0x60 DUP2 MSTORE PUSH1 0x20 ADD SWAP1 PUSH1 0x1 SWAP1 SUB SWAP1 DUP2 PUSH2 0x51E JUMPI SWAP1 POP JUMPDEST POP SWAP1 POP DUP1 SWAP2 POP POP PUSH2 0x800 JUMP JUMPDEST PUSH1 0x1 DUP4 GT DUP1 ISZERO PUSH2 0x5AE JUMPI POP PUSH1 0x1 DUP4 PUSH2 0x557 SWAP2 SWAP1 PUSH2 0x236A JUMP JUMPDEST DUP3 PUSH1 0x1 PUSH1 0x5 PUSH0 DUP9 PUSH20 0xFFFFFFFFFFFFFFFFFFFFFFFFFFFFFFFFFFFFFFFF AND PUSH20 0xFFFFFFFFFFFFFFFFFFFFFFFFFFFFFFFFFFFFFFFF AND DUP2 MSTORE PUSH1 0x20 ADD SWAP1 DUP2 MSTORE PUSH1 0x20 ADD PUSH0 KECCAK256 SLOAD PUSH2 0x5A2 SWAP2 SWAP1 PUSH2 0x236A JUMP JUMPDEST PUSH2 0x5AC SWAP2 SWAP1 PUSH2 0x23CA JUMP JUMPDEST LT JUMPDEST ISZERO PUSH2 0x60D JUMPI PUSH0 DUP1 PUSH8 0xFFFFFFFFFFFFFFFF DUP2 GT ISZERO PUSH2 0x5CE JUMPI PUSH2 0x5CD PUSH2 0x1A65 JUMP JUMPDEST JUMPDEST PUSH1 0x40 MLOAD SWAP1 DUP1 DUP3 MSTORE DUP1 PUSH1 0x20 MUL PUSH1 0x20 ADD DUP3 ADD PUSH1 0x40 MSTORE DUP1 ISZERO PUSH2 0x601 JUMPI DUP2 PUSH1 0x20 ADD JUMPDEST PUSH1 0x60 DUP2 MSTORE PUSH1 0x20 ADD SWAP1 PUSH1 0x1 SWAP1 SUB SWAP1 DUP2 PUSH2 0x5EC JUMPI SWAP1 POP JUMPDEST POP SWAP1 POP DUP1 SWAP2 POP POP PUSH2 0x800 JUMP JUMPDEST PUSH0 DUP1 PUSH0 SWAP1 POP PUSH0 DUP5 PUSH1 0x1 DUP8 PUSH2 0x621 SWAP2 SWAP1 PUSH2 0x236A JUMP JUMPDEST PUSH2 0x62B SWAP2 SWAP1 PUSH2 0x23FA JUMP JUMPDEST PUSH1 0x1 PUSH1 0x5 PUSH0 DUP11 PUSH20 0xFFFFFFFFFFFFFFFFFFFFFFFFFFFFFFFFFFFFFFFF AND PUSH20 0xFFFFFFFFFFFFFFFFFFFFFFFFFFFFFFFFFFFFFFFF AND DUP2 MSTORE PUSH1 0x20 ADD SWAP1 DUP2 MSTORE PUSH1 0x20 ADD PUSH0 KECCAK256 SLOAD PUSH2 0x675 SWAP2 SWAP1 PUSH2 0x236A JUMP JUMPDEST PUSH2 0x67F SWAP2 SWAP1 PUSH2 0x236A JUMP JUMPDEST SWAP1 POP PUSH0 DUP6 DUP3 LT ISZERO PUSH2 0x6A1 JUMPI PUSH0 SWAP1 POP PUSH1 0x1 DUP3 PUSH2 0x69A SWAP2 SWAP1 PUSH2 0x243B JUMP JUMPDEST SWAP4 POP PUSH2 0x6BF JUMP JUMPDEST PUSH1 0x1 DUP7 DUP4 PUSH2 0x6AF SWAP2 SWAP1 PUSH2 0x236A JUMP JUMPDEST PUSH2 0x6B9 SWAP2 SWAP1 PUSH2 0x243B JUMP JUMPDEST SWAP1 POP DUP6 SWAP4 POP JUMPDEST PUSH0 DUP5 PUSH8 0xFFFFFFFFFFFFFFFF DUP2 GT ISZERO PUSH2 0x6DA JUMPI PUSH2 0x6D9 PUSH2 0x1A65 JUMP JUMPDEST JUMPDEST PUSH1 0x40 MLOAD SWAP1 DUP1 DUP3 MSTORE DUP1 PUSH1 0x20 MUL PUSH1 0x20 ADD DUP3 ADD PUSH1 0x40 MSTORE DUP1 ISZERO PUSH2 0x70D JUMPI DUP2 PUSH1 0x20 ADD JUMPDEST PUSH1 0x60 DUP2 MSTORE PUSH1 0x20 ADD SWAP1 PUSH1 0x1 SWAP1 SUB SWAP1 DUP2 PUSH2 0x6F8 JUMPI SWAP1 POP JUMPDEST POP SWAP1 POP PUSH0 DUP4 SWAP1 POP JUMPDEST DUP3 DUP2 SLT PUSH2 0x7F6 JUMPI PUSH1 0x8 PUSH0 DUP3 DUP2 MSTORE PUSH1 0x20 ADD SWAP1 DUP2 MSTORE PUSH1 0x20 ADD PUSH0 KECCAK256 PUSH1 0x2 ADD DUP1 SLOAD PUSH2 0x73B SWAP1 PUSH2 0x249B JUMP JUMPDEST DUP1 PUSH1 0x1F ADD PUSH1 0x20 DUP1 SWAP2 DIV MUL PUSH1 0x20 ADD PUSH1 0x40 MLOAD SWAP1 DUP2 ADD PUSH1 0x40 MSTORE DUP1 SWAP3 SWAP2 SWAP1 DUP2 DUP2 MSTORE PUSH1 0x20 ADD DUP3 DUP1 SLOAD PUSH2 0x767 SWAP1 PUSH2 0x249B JUMP JUMPDEST DUP1 ISZERO PUSH2 0x7B2 JUMPI DUP1 PUSH1 0x1F LT PUSH2 0x789 JUMPI PUSH2 0x100 DUP1 DUP4 SLOAD DIV MUL DUP4 MSTORE SWAP2 PUSH1 0x20 ADD SWAP2 PUSH2 0x7B2 JUMP JUMPDEST DUP3 ADD SWAP2 SWAP1 PUSH0 MSTORE PUSH1 0x20 PUSH0 KECCAK256 SWAP1 JUMPDEST DUP2 SLOAD DUP2 MSTORE SWAP1 PUSH1 0x1 ADD SWAP1 PUSH1 0x20 ADD DUP1 DUP4 GT PUSH2 0x795 JUMPI DUP3 SWAP1 SUB PUSH1 0x1F AND DUP3 ADD SWAP2 JUMPDEST POP POP POP POP POP DUP3 DUP7 DUP2 MLOAD DUP2 LT PUSH2 0x7CA JUMPI PUSH2 0x7C9 PUSH2 0x2216 JUMP JUMPDEST JUMPDEST PUSH1 0x20 MUL PUSH1 0x20 ADD ADD DUP2 SWAP1 MSTORE POP DUP5 DUP1 PUSH2 0x7E0 SWAP1 PUSH2 0x24CB JUMP JUMPDEST SWAP6 POP POP DUP1 DUP1 PUSH2 0x7EE SWAP1 PUSH2 0x251B JUMP JUMPDEST SWAP2 POP POP PUSH2 0x715 JUMP JUMPDEST POP DUP1 SWAP6 POP POP POP POP POP POP JUMPDEST SWAP4 SWAP3 POP POP POP JUMP JUMPDEST PUSH1 0x60 DUP1 PUSH1 0x1 DUP4 PUSH1 0x40 MLOAD PUSH2 0x81A SWAP2 SWAP1 PUSH2 0x2562 JUMP JUMPDEST SWAP1 DUP2 MSTORE PUSH1 0x20 ADD PUSH1 0x40 MLOAD DUP1 SWAP2 SUB SWAP1 KECCAK256 PUSH1 0x2 DUP5 PUSH1 0x40 MLOAD PUSH2 0x838 SWAP2 SWAP1 PUSH2 0x2562 JUMP JUMPDEST SWAP1 DUP2 MSTORE PUSH1 0x20 ADD PUSH1 0x40 MLOAD DUP1 SWAP2 SUB SWAP1 KECCAK256 DUP2 DUP1 SLOAD DUP1 PUSH1 0x20 MUL PUSH1 0x20 ADD PUSH1 0x40 MLOAD SWAP1 DUP2 ADD PUSH1 0x40 MSTORE DUP1 SWAP3 SWAP2 SWAP1 DUP2 DUP2 MSTORE PUSH1 0x20 ADD DUP3 DUP1 SLOAD DUP1 ISZERO PUSH2 0x8C2 JUMPI PUSH1 0x20 MUL DUP3 ADD SWAP2 SWAP1 PUSH0 MSTORE PUSH1 0x20 PUSH0 KECCAK256 SWAP1 PUSH0 SWAP1 JUMPDEST DUP3 DUP3 SWAP1 SLOAD SWAP1 PUSH2 0x100 EXP SWAP1 DIV PUSH1 0xFF AND PUSH1 0xC6 DUP2 GT ISZERO PUSH2 0x89D JUMPI PUSH2 0x89C PUSH2 0x18F7 JUMP JUMPDEST JUMPDEST DUP2 MSTORE PUSH1 0x20 ADD SWAP1 PUSH1 0x1 ADD SWAP1 PUSH1 0x20 DUP3 PUSH0 ADD DIV SWAP3 DUP4 ADD SWAP3 PUSH1 0x1 SUB DUP3 MUL SWAP2 POP DUP1 DUP5 GT PUSH2 0x87D JUMPI SWAP1 POP JUMPDEST POP POP POP POP POP SWAP2 POP DUP1 DUP1 SLOAD DUP1 PUSH1 0x20 MUL PUSH1 0x20 ADD PUSH1 0x40 MLOAD SWAP1 DUP2 ADD PUSH1 0x40 MSTORE DUP1 SWAP3 SWAP2 SWAP1 DUP2 DUP2 MSTORE PUSH1 0x20 ADD DUP3 DUP1 SLOAD DUP1 ISZERO PUSH2 0x945 JUMPI PUSH1 0x20 MUL DUP3 ADD SWAP2 SWAP1 PUSH0 MSTORE PUSH1 0x20 PUSH0 KECCAK256 SWAP1 PUSH0 SWAP1 JUMPDEST DUP3 DUP3 SWAP1 SLOAD SWAP1 PUSH2 0x100 EXP SWAP1 DIV PUSH1 0xFF AND PUSH1 0xC6 DUP2 GT ISZERO PUSH2 0x920 JUMPI PUSH2 0x91F PUSH2 0x18F7 JUMP JUMPDEST JUMPDEST DUP2 MSTORE PUSH1 0x20 ADD SWAP1 PUSH1 0x1 ADD SWAP1 PUSH1 0x20 DUP3 PUSH0 ADD DIV SWAP3 DUP4 ADD SWAP3 PUSH1 0x1 SUB DUP3 MUL SWAP2 POP DUP1 DUP5 GT PUSH2 0x900 JUMPI SWAP1 POP JUMPDEST POP POP POP POP POP SWAP1 POP SWAP2 POP SWAP2 POP SWAP2 POP SWAP2 JUMP JUMPDEST PUSH1 0x60 PUSH0 PUSH1 0x4 PUSH0 DUP7 DUP2 MSTORE PUSH1 0x20 ADD SWAP1 DUP2 MSTORE PUSH1 0x20 ADD PUSH0 KECCAK256 SLOAD SUB PUSH2 0x9C9 JUMPI PUSH0 DUP1 PUSH8 0xFFFFFFFFFFFFFFFF DUP2 GT ISZERO PUSH2 0x98A JUMPI PUSH2 0x989 PUSH2 0x1A65 JUMP JUMPDEST JUMPDEST PUSH1 0x40 MLOAD SWAP1 DUP1 DUP3 MSTORE DUP1 PUSH1 0x20 MUL PUSH1 0x20 ADD DUP3 ADD PUSH1 0x40 MSTORE DUP1 ISZERO PUSH2 0x9BD JUMPI DUP2 PUSH1 0x20 ADD JUMPDEST PUSH1 0x60 DUP2 MSTORE PUSH1 0x20 ADD SWAP1 PUSH1 0x1 SWAP1 SUB SWAP1 DUP2 PUSH2 0x9A8 JUMPI SWAP1 POP JUMPDEST POP SWAP1 POP DUP1 SWAP2 POP POP PUSH2 0xC32 JUMP JUMPDEST PUSH1 0x1 DUP4 GT DUP1 ISZERO PUSH2 0xA0C JUMPI POP PUSH1 0x1 DUP4 PUSH2 0x9E1 SWAP2 SWAP1 PUSH2 0x236A JUMP JUMPDEST DUP3 PUSH1 0x1 PUSH1 0x4 PUSH0 DUP9 DUP2 MSTORE PUSH1 0x20 ADD SWAP1 DUP2 MSTORE PUSH1 0x20 ADD PUSH0 KECCAK256 SLOAD PUSH2 0xA00 SWAP2 SWAP1 PUSH2 0x236A JUMP JUMPDEST PUSH2 0xA0A SWAP2 SWAP1 PUSH2 0x23CA JUMP JUMPDEST LT JUMPDEST ISZERO PUSH2 0xA6B JUMPI PUSH0 DUP1 PUSH8 0xFFFFFFFFFFFFFFFF DUP2 GT ISZERO PUSH2 0xA2C JUMPI PUSH2 0xA2B PUSH2 0x1A65 JUMP JUMPDEST JUMPDEST PUSH1 0x40 MLOAD SWAP1 DUP1 DUP3 MSTORE DUP1 PUSH1 0x20 MUL PUSH1 0x20 ADD DUP3 ADD PUSH1 0x40 MSTORE DUP1 ISZERO PUSH2 0xA5F JUMPI DUP2 PUSH1 0x20 ADD JUMPDEST PUSH1 0x60 DUP2 MSTORE PUSH1 0x20 ADD SWAP1 PUSH1 0x1 SWAP1 SUB SWAP1 DUP2 PUSH2 0xA4A JUMPI SWAP1 POP JUMPDEST POP SWAP1 POP DUP1 SWAP2 POP POP PUSH2 0xC32 JUMP JUMPDEST PUSH0 DUP1 PUSH0 SWAP1 POP PUSH0 DUP5 PUSH1 0x1 DUP8 PUSH2 0xA7F SWAP2 SWAP1 PUSH2 0x236A JUMP JUMPDEST PUSH2 0xA89 SWAP2 SWAP1 PUSH2 0x23FA JUMP JUMPDEST PUSH1 0x1 PUSH1 0x4 PUSH0 DUP11 DUP2 MSTORE PUSH1 0x20 ADD SWAP1 DUP2 MSTORE PUSH1 0x20 ADD PUSH0 KECCAK256 SLOAD PUSH2 0xAA7 SWAP2 SWAP1 PUSH2 0x236A JUMP JUMPDEST PUSH2 0xAB1 SWAP2 SWAP1 PUSH2 0x236A JUMP JUMPDEST SWAP1 POP PUSH0 DUP6 DUP3 LT ISZERO PUSH2 0xAD3 JUMPI PUSH0 SWAP1 POP PUSH1 0x1 DUP3 PUSH2 0xACC SWAP2 SWAP1 PUSH2 0x243B JUMP JUMPDEST SWAP4 POP PUSH2 0xAF1 JUMP JUMPDEST PUSH1 0x1 DUP7 DUP4 PUSH2 0xAE1 SWAP2 SWAP1 PUSH2 0x236A JUMP JUMPDEST PUSH2 0xAEB SWAP2 SWAP1 PUSH2 0x243B JUMP JUMPDEST SWAP1 POP DUP6 SWAP4 POP JUMPDEST PUSH0 DUP5 PUSH8 0xFFFFFFFFFFFFFFFF DUP2 GT ISZERO PUSH2 0xB0C JUMPI PUSH2 0xB0B PUSH2 0x1A65 JUMP JUMPDEST JUMPDEST PUSH1 0x40 MLOAD SWAP1 DUP1 DUP3 MSTORE DUP1 PUSH1 0x20 MUL PUSH1 0x20 ADD DUP3 ADD PUSH1 0x40 MSTORE DUP1 ISZERO PUSH2 0xB3F JUMPI DUP2 PUSH1 0x20 ADD JUMPDEST PUSH1 0x60 DUP2 MSTORE PUSH1 0x20 ADD SWAP1 PUSH1 0x1 SWAP1 SUB SWAP1 DUP2 PUSH2 0xB2A JUMPI SWAP1 POP JUMPDEST POP SWAP1 POP PUSH0 DUP4 SWAP1 POP JUMPDEST DUP3 DUP2 SLT PUSH2 0xC28 JUMPI PUSH1 0x8 PUSH0 DUP3 DUP2 MSTORE PUSH1 0x20 ADD SWAP1 DUP2 MSTORE PUSH1 0x20 ADD PUSH0 KECCAK256 PUSH1 0x2 ADD DUP1 SLOAD PUSH2 0xB6D SWAP1 PUSH2 0x249B JUMP JUMPDEST DUP1 PUSH1 0x1F ADD PUSH1 0x20 DUP1 SWAP2 DIV MUL PUSH1 0x20 ADD PUSH1 0x40 MLOAD SWAP1 DUP2 ADD PUSH1 0x40 MSTORE DUP1 SWAP3 SWAP2 SWAP1 DUP2 DUP2 MSTORE PUSH1 0x20 ADD DUP3 DUP1 SLOAD PUSH2 0xB99 SWAP1 PUSH2 0x249B JUMP JUMPDEST DUP1 ISZERO PUSH2 0xBE4 JUMPI DUP1 PUSH1 0x1F LT PUSH2 0xBBB JUMPI PUSH2 0x100 DUP1 DUP4 SLOAD DIV MUL DUP4 MSTORE SWAP2 PUSH1 0x20 ADD SWAP2 PUSH2 0xBE4 JUMP JUMPDEST DUP3 ADD SWAP2 SWAP1 PUSH0 MSTORE PUSH1 0x20 PUSH0 KECCAK256 SWAP1 JUMPDEST DUP2 SLOAD DUP2 MSTORE SWAP1 PUSH1 0x1 ADD SWAP1 PUSH1 0x20 ADD DUP1 DUP4 GT PUSH2 0xBC7 JUMPI DUP3 SWAP1 SUB PUSH1 0x1F AND DUP3 ADD SWAP2 JUMPDEST POP POP POP POP POP DUP3 DUP7 DUP2 MLOAD DUP2 LT PUSH2 0xBFC JUMPI PUSH2 0xBFB PUSH2 0x2216 JUMP JUMPDEST JUMPDEST PUSH1 0x20 MUL PUSH1 0x20 ADD ADD DUP2 SWAP1 MSTORE POP DUP5 DUP1 PUSH2 0xC12 SWAP1 PUSH2 0x24CB JUMP JUMPDEST SWAP6 POP POP DUP1 DUP1 PUSH2 0xC20 SWAP1 PUSH2 0x251B JUMP JUMPDEST SWAP2 POP POP PUSH2 0xB47 JUMP JUMPDEST POP DUP1 SWAP6 POP POP POP POP POP POP JUMPDEST SWAP4 SWAP3 POP POP POP JUMP JUMPDEST PUSH1 0x60 PUSH2 0xC7A DUP4 PUSH1 0x40 MLOAD DUP1 PUSH1 0x40 ADD PUSH1 0x40 MSTORE DUP1 PUSH1 0xA DUP2 MSTORE PUSH1 0x20 ADD PUSH32 0x676574436F6D6D656E7400000000000000000000000000000000000000000000 DUP2 MSTORE POP PUSH2 0x1876 JUMP JUMPDEST ISZERO PUSH2 0xDEB JUMPI PUSH0 DUP3 DUP1 PUSH1 0x20 ADD SWAP1 MLOAD DUP2 ADD SWAP1 PUSH2 0xC94 SWAP2 SWAP1 PUSH2 0x258C JUMP JUMPDEST SWAP1 POP PUSH0 PUSH1 0x8 PUSH0 DUP4 DUP2 MSTORE PUSH1 0x20 ADD SWAP1 DUP2 MSTORE PUSH1 0x20 ADD PUSH0 KECCAK256 PUSH1 0x40 MLOAD DUP1 PUSH1 0x80 ADD PUSH1 0x40 MSTORE SWAP1 DUP2 PUSH0 DUP3 ADD SLOAD DUP2 MSTORE PUSH1 0x20 ADD PUSH1 0x1 DUP3 ADD SLOAD DUP2 MSTORE PUSH1 0x20 ADD PUSH1 0x2 DUP3 ADD DUP1 SLOAD PUSH2 0xCD6 SWAP1 PUSH2 0x249B JUMP JUMPDEST DUP1 PUSH1 0x1F ADD PUSH1 0x20 DUP1 SWAP2 DIV MUL PUSH1 0x20 ADD PUSH1 0x40 MLOAD SWAP1 DUP2 ADD PUSH1 0x40 MSTORE DUP1 SWAP3 SWAP2 SWAP1 DUP2 DUP2 MSTORE PUSH1 0x20 ADD DUP3 DUP1 SLOAD PUSH2 0xD02 SWAP1 PUSH2 0x249B JUMP JUMPDEST DUP1 ISZERO PUSH2 0xD4D JUMPI DUP1 PUSH1 0x1F LT PUSH2 0xD24 JUMPI PUSH2 0x100 DUP1 DUP4 SLOAD DIV MUL DUP4 MSTORE SWAP2 PUSH1 0x20 ADD SWAP2 PUSH2 0xD4D JUMP JUMPDEST DUP3 ADD SWAP2 SWAP1 PUSH0 MSTORE PUSH1 0x20 PUSH0 KECCAK256 SWAP1 JUMPDEST DUP2 SLOAD DUP2 MSTORE SWAP1 PUSH1 0x1 ADD SWAP1 PUSH1 0x20 ADD DUP1 DUP4 GT PUSH2 0xD30 JUMPI DUP3 SWAP1 SUB PUSH1 0x1F AND DUP3 ADD SWAP2 JUMPDEST POP POP POP POP POP DUP2 MSTORE PUSH1 0x20 ADD PUSH1 0x3 DUP3 ADD PUSH0 SWAP1 SLOAD SWAP1 PUSH2 0x100 EXP SWAP1 DIV PUSH20 0xFFFFFFFFFFFFFFFFFFFFFFFFFFFFFFFFFFFFFFFF AND PUSH20 0xFFFFFFFFFFFFFFFFFFFFFFFFFFFFFFFFFFFFFFFF AND PUSH20 0xFFFFFFFFFFFFFFFFFFFFFFFFFFFFFFFFFFFFFFFF AND DUP2 MSTORE POP POP SWAP1 POP DUP1 PUSH0 ADD MLOAD DUP2 PUSH1 0x20 ADD MLOAD DUP3 PUSH1 0x40 ADD MLOAD DUP4 PUSH1 0x60 ADD MLOAD PUSH1 0x40 MLOAD PUSH1 0x20 ADD PUSH2 0xDD3 SWAP5 SWAP4 SWAP3 SWAP2 SWAP1 PUSH2 0x25C6 JUMP JUMPDEST PUSH1 0x40 MLOAD PUSH1 0x20 DUP2 DUP4 SUB SUB DUP2 MSTORE SWAP1 PUSH1 0x40 MSTORE SWAP3 POP POP POP PUSH2 0xF40 JUMP JUMPDEST PUSH2 0xE2A DUP4 PUSH1 0x40 MLOAD DUP1 PUSH1 0x40 ADD PUSH1 0x40 MSTORE DUP1 PUSH1 0xB DUP2 MSTORE PUSH1 0x20 ADD PUSH32 0x676574436F6D6D656E7473000000000000000000000000000000000000000000 DUP2 MSTORE POP PUSH2 0x1876 JUMP JUMPDEST ISZERO PUSH2 0xE85 JUMPI PUSH0 DUP1 PUSH0 DUP5 DUP1 PUSH1 0x20 ADD SWAP1 MLOAD DUP2 ADD SWAP1 PUSH2 0xE46 SWAP2 SWAP1 PUSH2 0x2610 JUMP JUMPDEST SWAP3 POP SWAP3 POP SWAP3 POP PUSH0 PUSH2 0xE58 DUP5 DUP5 DUP5 PUSH2 0x955 JUMP JUMPDEST SWAP1 POP DUP1 PUSH1 0x40 MLOAD PUSH1 0x20 ADD PUSH2 0xE6B SWAP2 SWAP1 PUSH2 0x1E78 JUMP JUMPDEST PUSH1 0x40 MLOAD PUSH1 0x20 DUP2 DUP4 SUB SUB DUP2 MSTORE SWAP1 PUSH1 0x40 MSTORE SWAP5 POP POP POP POP POP PUSH2 0xF40 JUMP JUMPDEST PUSH2 0xEC4 DUP4 PUSH1 0x40 MLOAD DUP1 PUSH1 0x40 ADD PUSH1 0x40 MSTORE DUP1 PUSH1 0x14 DUP2 MSTORE PUSH1 0x20 ADD PUSH32 0x676574436F6D6D656E7473427941646472657373000000000000000000000000 DUP2 MSTORE POP PUSH2 0x1876 JUMP JUMPDEST ISZERO PUSH2 0xF1F JUMPI PUSH0 DUP1 PUSH0 DUP5 DUP1 PUSH1 0x20 ADD SWAP1 MLOAD DUP2 ADD SWAP1 PUSH2 0xEE0 SWAP2 SWAP1 PUSH2 0x269B JUMP JUMPDEST SWAP3 POP SWAP3 POP SWAP3 POP PUSH0 PUSH2 0xEF2 DUP5 DUP5 DUP5 PUSH2 0x49F JUMP JUMPDEST SWAP1 POP DUP1 PUSH1 0x40 MLOAD PUSH1 0x20 ADD PUSH2 0xF05 SWAP2 SWAP1 PUSH2 0x1E78 JUMP JUMPDEST PUSH1 0x40 MLOAD PUSH1 0x20 DUP2 DUP4 SUB SUB DUP2 MSTORE SWAP1 PUSH1 0x40 MSTORE SWAP5 POP POP POP POP POP PUSH2 0xF40 JUMP JUMPDEST PUSH1 0x40 MLOAD PUSH1 0x20 ADD PUSH2 0xF2E SWAP1 PUSH2 0x270E JUMP JUMPDEST PUSH1 0x40 MLOAD PUSH1 0x20 DUP2 DUP4 SUB SUB DUP2 MSTORE SWAP1 PUSH1 0x40 MSTORE SWAP1 POP JUMPDEST SWAP3 SWAP2 POP POP JUMP JUMPDEST PUSH1 0x60 PUSH2 0xF87 DUP4 PUSH1 0x40 MLOAD DUP1 PUSH1 0x40 ADD PUSH1 0x40 MSTORE DUP1 PUSH1 0xB DUP2 MSTORE PUSH1 0x20 ADD PUSH32 0x706F7374436F6D6D656E74000000000000000000000000000000000000000000 DUP2 MSTORE POP PUSH2 0x1876 JUMP JUMPDEST ISZERO PUSH2 0x11FD JUMPI PUSH0 DUP1 DUP4 DUP1 PUSH1 0x20 ADD SWAP1 MLOAD DUP2 ADD SWAP1 PUSH2 0xFA2 SWAP2 SWAP1 PUSH2 0x279A JUMP JUMPDEST SWAP2 POP SWAP2 POP PUSH0 PUSH2 0xFB5 DUP4 PUSH1 0x3 SLOAD DUP5 CALLER PUSH2 0x425 JUMP JUMPDEST SWAP1 POP PUSH0 PUSH1 0x4 PUSH0 DUP6 DUP2 MSTORE PUSH1 0x20 ADD SWAP1 DUP2 MSTORE PUSH1 0x20 ADD PUSH0 KECCAK256 SLOAD SWAP1 POP PUSH0 PUSH1 0x5 PUSH0 CALLER PUSH20 0xFFFFFFFFFFFFFFFFFFFFFFFFFFFFFFFFFFFFFFFF AND PUSH20 0xFFFFFFFFFFFFFFFFFFFFFFFFFFFFFFFFFFFFFFFF AND DUP2 MSTORE PUSH1 0x20 ADD SWAP1 DUP2 MSTORE PUSH1 0x20 ADD PUSH0 KECCAK256 SLOAD SWAP1 POP PUSH1 0x40 MLOAD DUP1 PUSH1 0x80 ADD PUSH1 0x40 MSTORE DUP1 DUP7 DUP2 MSTORE PUSH1 0x20 ADD PUSH1 0x3 SLOAD DUP2 MSTORE PUSH1 0x20 ADD DUP5 DUP2 MSTORE PUSH1 0x20 ADD CALLER PUSH20 0xFFFFFFFFFFFFFFFFFFFFFFFFFFFFFFFFFFFFFFFF AND DUP2 MSTORE POP PUSH1 0x8 PUSH0 PUSH1 0x3 SLOAD DUP2 MSTORE PUSH1 0x20 ADD SWAP1 DUP2 MSTORE PUSH1 0x20 ADD PUSH0 KECCAK256 PUSH0 DUP3 ADD MLOAD DUP2 PUSH0 ADD SSTORE PUSH1 0x20 DUP3 ADD MLOAD DUP2 PUSH1 0x1 ADD SSTORE PUSH1 0x40 DUP3 ADD MLOAD DUP2 PUSH1 0x2 ADD SWAP1 DUP2 PUSH2 0x1080 SWAP2 SWAP1 PUSH2 0x2991 JUMP JUMPDEST POP PUSH1 0x60 DUP3 ADD MLOAD DUP2 PUSH1 0x3 ADD PUSH0 PUSH2 0x100 EXP DUP2 SLOAD DUP2 PUSH20 0xFFFFFFFFFFFFFFFFFFFFFFFFFFFFFFFFFFFFFFFF MUL NOT AND SWAP1 DUP4 PUSH20 0xFFFFFFFFFFFFFFFFFFFFFFFFFFFFFFFFFFFFFFFF AND MUL OR SWAP1 SSTORE POP SWAP1 POP POP PUSH1 0x3 SLOAD PUSH1 0x6 PUSH0 DUP8 DUP2 MSTORE PUSH1 0x20 ADD SWAP1 DUP2 MSTORE PUSH1 0x20 ADD PUSH0 KECCAK256 PUSH0 DUP5 DUP2 MSTORE PUSH1 0x20 ADD SWAP1 DUP2 MSTORE PUSH1 0x20 ADD PUSH0 KECCAK256 DUP2 SWAP1 SSTORE POP PUSH1 0x3 SLOAD PUSH1 0x7 PUSH0 CALLER PUSH20 0xFFFFFFFFFFFFFFFFFFFFFFFFFFFFFFFFFFFFFFFF AND PUSH20 0xFFFFFFFFFFFFFFFFFFFFFFFFFFFFFFFFFFFFFFFF AND DUP2 MSTORE PUSH1 0x20 ADD SWAP1 DUP2 MSTORE PUSH1 0x20 ADD PUSH0 KECCAK256 PUSH0 DUP4 DUP2 MSTORE PUSH1 0x20 ADD SWAP1 DUP2 MSTORE PUSH1 0x20 ADD PUSH0 KECCAK256 DUP2 SWAP1 SSTORE POP PUSH1 0x4 PUSH0 DUP7 DUP2 MSTORE PUSH1 0x20 ADD SWAP1 DUP2 MSTORE PUSH1 0x20 ADD PUSH0 KECCAK256 PUSH0 DUP2 SLOAD DUP1 SWAP3 SWAP2 SWAP1 PUSH2 0x1165 SWAP1 PUSH2 0x24CB JUMP JUMPDEST SWAP2 SWAP1 POP SSTORE POP PUSH1 0x5 PUSH0 CALLER PUSH20 0xFFFFFFFFFFFFFFFFFFFFFFFFFFFFFFFFFFFFFFFF AND PUSH20 0xFFFFFFFFFFFFFFFFFFFFFFFFFFFFFFFFFFFFFFFF AND DUP2 MSTORE PUSH1 0x20 ADD SWAP1 DUP2 MSTORE PUSH1 0x20 ADD PUSH0 KECCAK256 PUSH0 DUP2 SLOAD DUP1 SWAP3 SWAP2 SWAP1 PUSH2 0x11B7 SWAP1 PUSH2 0x24CB JUMP JUMPDEST SWAP2 SWAP1 POP SSTORE POP PUSH1 0x3 PUSH0 DUP2 SLOAD DUP1 SWAP3 SWAP2 SWAP1 PUSH2 0x11CE SWAP1 PUSH2 0x24CB JUMP JUMPDEST SWAP2 SWAP1 POP SSTORE POP PUSH1 0x40 MLOAD PUSH1 0x20 ADD PUSH2 0x11E2 SWAP1 PUSH2 0x270E JUMP JUMPDEST PUSH1 0x40 MLOAD PUSH1 0x20 DUP2 DUP4 SUB SUB DUP2 MSTORE SWAP1 PUSH1 0x40 MSTORE SWAP6 POP POP POP POP POP POP PUSH2 0x121E JUMP JUMPDEST PUSH1 0x40 MLOAD PUSH1 0x20 ADD PUSH2 0x120C SWAP1 PUSH2 0x270E JUMP JUMPDEST PUSH1 0x40 MLOAD PUSH1 0x20 DUP2 DUP4 SUB SUB DUP2 MSTORE SWAP1 PUSH1 0x40 MSTORE SWAP1 POP JUMPDEST SWAP3 SWAP2 POP POP JUMP JUMPDEST PUSH1 0x60 DUP3 DUP3 PUSH1 0x40 MLOAD PUSH1 0x20 ADD PUSH2 0x1239 SWAP3 SWAP2 SWAP1 PUSH2 0x2A60 JUMP JUMPDEST PUSH1 0x40 MLOAD PUSH1 0x20 DUP2 DUP4 SUB SUB DUP2 MSTORE SWAP1 PUSH1 0x40 MSTORE SWAP1 POP SWAP3 SWAP2 POP POP JUMP JUMPDEST PUSH1 0x60 PUSH0 DUP1 DUP4 PUSH1 0x3 DUP2 GT ISZERO PUSH2 0x1267 JUMPI PUSH2 0x1266 PUSH2 0x18F7 JUMP JUMPDEST JUMPDEST PUSH1 0x3 DUP2 GT ISZERO PUSH2 0x1279 JUMPI PUSH2 0x1278 PUSH2 0x18F7 JUMP JUMPDEST JUMPDEST DUP2 MSTORE PUSH1 0x20 ADD SWAP1 DUP2 MSTORE PUSH1 0x20 ADD PUSH0 KECCAK256 DUP1 SLOAD DUP1 PUSH1 0x20 MUL PUSH1 0x20 ADD PUSH1 0x40 MLOAD SWAP1 DUP2 ADD PUSH1 0x40 MSTORE DUP1 SWAP3 SWAP2 SWAP1 DUP2 DUP2 MSTORE PUSH1 0x20 ADD PUSH0 SWAP1 JUMPDEST DUP3 DUP3 LT ISZERO PUSH2 0x134D JUMPI DUP4 DUP3 SWAP1 PUSH0 MSTORE PUSH1 0x20 PUSH0 KECCAK256 ADD DUP1 SLOAD PUSH2 0x12C2 SWAP1 PUSH2 0x249B JUMP JUMPDEST DUP1 PUSH1 0x1F ADD PUSH1 0x20 DUP1 SWAP2 DIV MUL PUSH1 0x20 ADD PUSH1 0x40 MLOAD SWAP1 DUP2 ADD PUSH1 0x40 MSTORE DUP1 SWAP3 SWAP2 SWAP1 DUP2 DUP2 MSTORE PUSH1 0x20 ADD DUP3 DUP1 SLOAD PUSH2 0x12EE SWAP1 PUSH2 0x249B JUMP JUMPDEST DUP1 ISZERO PUSH2 0x1339 JUMPI DUP1 PUSH1 0x1F LT PUSH2 0x1310 JUMPI PUSH2 0x100 DUP1 DUP4 SLOAD DIV MUL DUP4 MSTORE SWAP2 PUSH1 0x20 ADD SWAP2 PUSH2 0x1339 JUMP JUMPDEST DUP3 ADD SWAP2 SWAP1 PUSH0 MSTORE PUSH1 0x20 PUSH0 KECCAK256 SWAP1 JUMPDEST DUP2 SLOAD DUP2 MSTORE SWAP1 PUSH1 0x1 ADD SWAP1 PUSH1 0x20 ADD DUP1 DUP4 GT PUSH2 0x131C JUMPI DUP3 SWAP1 SUB PUSH1 0x1F AND DUP3 ADD SWAP2 JUMPDEST POP POP POP POP POP DUP2 MSTORE PUSH1 0x20 ADD SWAP1 PUSH1 0x1 ADD SWAP1 PUSH2 0x12A5 JUMP JUMPDEST POP POP POP POP SWAP1 POP SWAP2 SWAP1 POP JUMP JUMPDEST PUSH1 0x60 PUSH0 DUP3 SUB PUSH2 0x139E JUMPI PUSH1 0x40 MLOAD DUP1 PUSH1 0x40 ADD PUSH1 0x40 MSTORE DUP1 PUSH1 0x1 DUP2 MSTORE PUSH1 0x20 ADD PUSH32 0x3000000000000000000000000000000000000000000000000000000000000000 DUP2 MSTORE POP SWAP1 POP PUSH2 0x14AC JUMP JUMPDEST PUSH0 DUP3 SWAP1 POP PUSH0 JUMPDEST PUSH0 DUP3 EQ PUSH2 0x13CD JUMPI DUP1 DUP1 PUSH2 0x13B6 SWAP1 PUSH2 0x24CB JUMP JUMPDEST SWAP2 POP POP PUSH1 0xA DUP3 PUSH2 0x13C6 SWAP2 SWAP1 PUSH2 0x23CA JUMP JUMPDEST SWAP2 POP PUSH2 0x13A4 JUMP JUMPDEST PUSH0 DUP2 PUSH8 0xFFFFFFFFFFFFFFFF DUP2 GT ISZERO PUSH2 0x13E8 JUMPI PUSH2 0x13E7 PUSH2 0x1A65 JUMP JUMPDEST JUMPDEST PUSH1 0x40 MLOAD SWAP1 DUP1 DUP3 MSTORE DUP1 PUSH1 0x1F ADD PUSH1 0x1F NOT AND PUSH1 0x20 ADD DUP3 ADD PUSH1 0x40 MSTORE DUP1 ISZERO PUSH2 0x141A JUMPI DUP2 PUSH1 0x20 ADD PUSH1 0x1 DUP3 MUL DUP1 CALLDATASIZE DUP4 CALLDATACOPY DUP1 DUP3 ADD SWAP2 POP POP SWAP1 POP JUMPDEST POP SWAP1 POP JUMPDEST PUSH0 DUP6 EQ PUSH2 0x14A5 JUMPI PUSH1 0x1 DUP3 PUSH2 0x1432 SWAP2 SWAP1 PUSH2 0x236A JUMP JUMPDEST SWAP2 POP PUSH1 0xA DUP6 PUSH2 0x1441 SWAP2 SWAP1 PUSH2 0x2A95 JUMP JUMPDEST PUSH1 0x30 PUSH2 0x144D SWAP2 SWAP1 PUSH2 0x243B JUMP JUMPDEST PUSH1 0xF8 SHL DUP2 DUP4 DUP2 MLOAD DUP2 LT PUSH2 0x1463 JUMPI PUSH2 0x1462 PUSH2 0x2216 JUMP JUMPDEST JUMPDEST PUSH1 0x20 ADD ADD SWAP1 PUSH31 0xFFFFFFFFFFFFFFFFFFFFFFFFFFFFFFFFFFFFFFFFFFFFFFFFFFFFFFFFFFFFFF NOT AND SWAP1 DUP2 PUSH0 BYTE SWAP1 MSTORE8 POP PUSH1 0xA DUP6 PUSH2 0x149E SWAP2 SWAP1 PUSH2 0x23CA JUMP JUMPDEST SWAP5 POP PUSH2 0x141E JUMP JUMPDEST DUP1 SWAP4 POP POP POP POP JUMPDEST SWAP2 SWAP1 POP JUMP JUMPDEST PUSH1 0x60 PUSH0 DUP3 MLOAD SWAP1 POP PUSH0 DUP2 SUB PUSH2 0x14D6 JUMPI PUSH1 0x40 MLOAD DUP1 PUSH1 0x20 ADD PUSH1 0x40 MSTORE DUP1 PUSH0 DUP2 MSTORE POP SWAP2 POP POP PUSH2 0x163C JUMP JUMPDEST PUSH0 PUSH1 0x3 PUSH1 0x2 DUP4 PUSH2 0x14E6 SWAP2 SWAP1 PUSH2 0x243B JUMP JUMPDEST PUSH2 0x14F0 SWAP2 SWAP1 PUSH2 0x23CA JUMP JUMPDEST PUSH1 0x4 PUSH2 0x14FC SWAP2 SWAP1 PUSH2 0x23FA JUMP JUMPDEST SWAP1 POP PUSH0 PUSH1 0x20 DUP3 PUSH2 0x150C SWAP2 SWAP1 PUSH2 0x243B JUMP JUMPDEST PUSH8 0xFFFFFFFFFFFFFFFF DUP2 GT ISZERO PUSH2 0x1525 JUMPI PUSH2 0x1524 PUSH2 0x1A65 JUMP JUMPDEST JUMPDEST PUSH1 0x40 MLOAD SWAP1 DUP1 DUP3 MSTORE DUP1 PUSH1 0x1F ADD PUSH1 0x1F NOT AND PUSH1 0x20 ADD DUP3 ADD PUSH1 0x40 MSTORE DUP1 ISZERO PUSH2 0x1557 JUMPI DUP2 PUSH1 0x20 ADD PUSH1 0x1 DUP3 MUL DUP1 CALLDATASIZE DUP4 CALLDATACOPY DUP1 DUP3 ADD SWAP2 POP POP SWAP1 POP JUMPDEST POP SWAP1 POP PUSH0 PUSH1 0x40 MLOAD DUP1 PUSH1 0x60 ADD PUSH1 0x40 MSTORE DUP1 PUSH1 0x40 DUP2 MSTORE PUSH1 0x20 ADD PUSH2 0x2B55 PUSH1 0x40 SWAP2 CODECOPY SWAP1 POP PUSH1 0x1 DUP2 ADD PUSH1 0x20 DUP4 ADD PUSH0 JUMPDEST DUP7 DUP2 LT ISZERO PUSH2 0x15F9 JUMPI PUSH1 0x3 DUP2 ADD SWAP1 POP PUSH3 0xFFFFFF DUP2 DUP11 ADD MLOAD AND PUSH1 0x3F DUP2 PUSH1 0x12 SHR AND DUP5 ADD MLOAD DUP1 PUSH1 0x8 SHL SWAP1 POP PUSH1 0xFF PUSH1 0x3F DUP4 PUSH1 0xC SHR AND DUP7 ADD MLOAD AND DUP2 ADD SWAP1 POP DUP1 PUSH1 0x8 SHL SWAP1 POP PUSH1 0xFF PUSH1 0x3F DUP4 PUSH1 0x6 SHR AND DUP7 ADD MLOAD AND DUP2 ADD SWAP1 POP DUP1 PUSH1 0x8 SHL SWAP1 POP PUSH1 0xFF PUSH1 0x3F DUP4 AND DUP7 ADD MLOAD AND DUP2 ADD SWAP1 POP DUP1 PUSH1 0xE0 SHL SWAP1 POP DUP1 DUP5 MSTORE PUSH1 0x4 DUP5 ADD SWAP4 POP POP POP PUSH2 0x1580 JUMP JUMPDEST POP PUSH1 0x3 DUP7 MOD PUSH1 0x1 DUP2 EQ PUSH2 0x1613 JUMPI PUSH1 0x2 DUP2 EQ PUSH2 0x1623 JUMPI PUSH2 0x162E JUMP JUMPDEST PUSH2 0x3D3D PUSH1 0xF0 SHL PUSH1 0x2 DUP4 SUB MSTORE PUSH2 0x162E JUMP JUMPDEST PUSH1 0x3D PUSH1 0xF8 SHL PUSH1 0x1 DUP4 SUB MSTORE JUMPDEST POP DUP5 DUP5 MSTORE POP POP DUP2 SWAP5 POP POP POP POP POP JUMPDEST SWAP2 SWAP1 POP JUMP JUMPDEST PUSH1 0x60 PUSH0 PUSH1 0x2 DUP4 PUSH1 0x2 PUSH2 0x1653 SWAP2 SWAP1 PUSH2 0x23FA JUMP JUMPDEST PUSH2 0x165D SWAP2 SWAP1 PUSH2 0x243B JUMP JUMPDEST PUSH8 0xFFFFFFFFFFFFFFFF DUP2 GT ISZERO PUSH2 0x1676 JUMPI PUSH2 0x1675 PUSH2 0x1A65 JUMP JUMPDEST JUMPDEST PUSH1 0x40 MLOAD SWAP1 DUP1 DUP3 MSTORE DUP1 PUSH1 0x1F ADD PUSH1 0x1F NOT AND PUSH1 0x20 ADD DUP3 ADD PUSH1 0x40 MSTORE DUP1 ISZERO PUSH2 0x16A8 JUMPI DUP2 PUSH1 0x20 ADD PUSH1 0x1 DUP3 MUL DUP1 CALLDATASIZE DUP4 CALLDATACOPY DUP1 DUP3 ADD SWAP2 POP POP SWAP1 POP JUMPDEST POP SWAP1 POP PUSH32 0x3000000000000000000000000000000000000000000000000000000000000000 DUP2 PUSH0 DUP2 MLOAD DUP2 LT PUSH2 0x16DF JUMPI PUSH2 0x16DE PUSH2 0x2216 JUMP JUMPDEST JUMPDEST PUSH1 0x20 ADD ADD SWAP1 PUSH31 0xFFFFFFFFFFFFFFFFFFFFFFFFFFFFFFFFFFFFFFFFFFFFFFFFFFFFFFFFFFFFFF NOT AND SWAP1 DUP2 PUSH0 BYTE SWAP1 MSTORE8 POP PUSH32 0x7800000000000000000000000000000000000000000000000000000000000000 DUP2 PUSH1 0x1 DUP2 MLOAD DUP2 LT PUSH2 0x1742 JUMPI PUSH2 0x1741 PUSH2 0x2216 JUMP JUMPDEST JUMPDEST PUSH1 0x20 ADD ADD SWAP1 PUSH31 0xFFFFFFFFFFFFFFFFFFFFFFFFFFFFFFFFFFFFFFFFFFFFFFFFFFFFFFFFFFFFFF NOT AND SWAP1 DUP2 PUSH0 BYTE SWAP1 MSTORE8 POP PUSH0 PUSH1 0x1 DUP5 PUSH1 0x2 PUSH2 0x1780 SWAP2 SWAP1 PUSH2 0x23FA JUMP JUMPDEST PUSH2 0x178A SWAP2 SWAP1 PUSH2 0x243B JUMP JUMPDEST SWAP1 POP JUMPDEST PUSH1 0x1 DUP2 GT ISZERO PUSH2 0x1829 JUMPI PUSH32 0x3031323334353637383961626364656600000000000000000000000000000000 PUSH1 0xF DUP7 AND PUSH1 0x10 DUP2 LT PUSH2 0x17CC JUMPI PUSH2 0x17CB PUSH2 0x2216 JUMP JUMPDEST JUMPDEST BYTE PUSH1 0xF8 SHL DUP3 DUP3 DUP2 MLOAD DUP2 LT PUSH2 0x17E3 JUMPI PUSH2 0x17E2 PUSH2 0x2216 JUMP JUMPDEST JUMPDEST PUSH1 0x20 ADD ADD SWAP1 PUSH31 0xFFFFFFFFFFFFFFFFFFFFFFFFFFFFFFFFFFFFFFFFFFFFFFFFFFFFFFFFFFFFFF NOT AND SWAP1 DUP2 PUSH0 BYTE SWAP1 MSTORE8 POP PUSH1 0x4 DUP6 SWAP1 SHR SWAP5 POP DUP1 PUSH2 0x1822 SWAP1 PUSH2 0x2AC5 JUMP JUMPDEST SWAP1 POP PUSH2 0x178D JUMP JUMPDEST POP PUSH0 DUP5 EQ PUSH2 0x186C JUMPI PUSH1 0x40 MLOAD PUSH32 0x8C379A000000000000000000000000000000000000000000000000000000000 DUP2 MSTORE PUSH1 0x4 ADD PUSH2 0x1863 SWAP1 PUSH2 0x2B36 JUMP JUMPDEST PUSH1 0x40 MLOAD DUP1 SWAP2 SUB SWAP1 REVERT JUMPDEST DUP1 SWAP2 POP POP SWAP3 SWAP2 POP POP JUMP JUMPDEST PUSH0 DUP2 PUSH1 0x40 MLOAD PUSH1 0x20 ADD PUSH2 0x1888 SWAP2 SWAP1 PUSH2 0x2562 JUMP JUMPDEST PUSH1 0x40 MLOAD PUSH1 0x20 DUP2 DUP4 SUB SUB DUP2 MSTORE SWAP1 PUSH1 0x40 MSTORE DUP1 MLOAD SWAP1 PUSH1 0x20 ADD KECCAK256 DUP4 PUSH1 0x40 MLOAD PUSH1 0x20 ADD PUSH2 0x18AF SWAP2 SWAP1 PUSH2 0x2562 JUMP JUMPDEST PUSH1 0x40 MLOAD PUSH1 0x20 DUP2 DUP4 SUB SUB DUP2 MSTORE SWAP1 PUSH1 0x40 MSTORE DUP1 MLOAD SWAP1 PUSH1 0x20 ADD KECCAK256 EQ SWAP1 POP SWAP3 SWAP2 POP POP JUMP JUMPDEST PUSH0 DUP2 MLOAD SWAP1 POP SWAP2 SWAP1 POP JUMP JUMPDEST PUSH0 DUP3 DUP3 MSTORE PUSH1 0x20 DUP3 ADD SWAP1 POP SWAP3 SWAP2 POP POP JUMP JUMPDEST PUSH0 DUP2 SWAP1 POP PUSH1 0x20 DUP3 ADD SWAP1 POP SWAP2 SWAP1 POP JUMP JUMPDEST PUSH32 0x4E487B7100000000000000000000000000000000000000000000000000000000 PUSH0 MSTORE PUSH1 0x21 PUSH1 0x4 MSTORE PUSH1 0x24 PUSH0 REVERT JUMPDEST PUSH1 0x4 DUP2 LT PUSH2 0x1935 JUMPI PUSH2 0x1934 PUSH2 0x18F7 JUMP JUMPDEST JUMPDEST POP JUMP JUMPDEST PUSH0 DUP2 SWAP1 POP PUSH2 0x1945 DUP3 PUSH2 0x1924 JUMP JUMPDEST SWAP2 SWAP1 POP JUMP JUMPDEST PUSH0 PUSH2 0x1954 DUP3 PUSH2 0x1938 JUMP JUMPDEST SWAP1 POP SWAP2 SWAP1 POP JUMP JUMPDEST PUSH2 0x1964 DUP2 PUSH2 0x194A JUMP JUMPDEST DUP3 MSTORE POP POP JUMP JUMPDEST PUSH0 PUSH2 0x1975 DUP4 DUP4 PUSH2 0x195B JUMP JUMPDEST PUSH1 0x20 DUP4 ADD SWAP1 POP SWAP3 SWAP2 POP POP JUMP JUMPDEST PUSH0 PUSH1 0x20 DUP3 ADD SWAP1 POP SWAP2 SWAP1 POP JUMP JUMPDEST PUSH0 PUSH2 0x1997 DUP3 PUSH2 0x18CE JUMP JUMPDEST PUSH2 0x19A1 DUP2 DUP6 PUSH2 0x18D8 JUMP JUMPDEST SWAP4 POP PUSH2 0x19AC DUP4 PUSH2 0x18E8 JUMP JUMPDEST DUP1 PUSH0 JUMPDEST DUP4 DUP2 LT ISZERO PUSH2 0x19DC JUMPI DUP2 MLOAD PUSH2 0x19C3 DUP9 DUP3 PUSH2 0x196A JUMP JUMPDEST SWAP8 POP PUSH2 0x19CE DUP4 PUSH2 0x1981 JUMP JUMPDEST SWAP3 POP POP PUSH1 0x1 DUP2 ADD SWAP1 POP PUSH2 0x19AF JUMP JUMPDEST POP DUP6 SWAP4 POP POP POP POP SWAP3 SWAP2 POP POP JUMP JUMPDEST PUSH0 PUSH1 0x20 DUP3 ADD SWAP1 POP DUP2 DUP2 SUB PUSH0 DUP4 ADD MSTORE PUSH2 0x1A01 DUP2 DUP5 PUSH2 0x198D JUMP JUMPDEST SWAP1 POP SWAP3 SWAP2 POP POP JUMP JUMPDEST PUSH0 PUSH1 0x40 MLOAD SWAP1 POP SWAP1 JUMP JUMPDEST PUSH0 DUP1 REVERT JUMPDEST PUSH0 DUP1 REVERT JUMPDEST PUSH0 DUP2 SWAP1 POP SWAP2 SWAP1 POP JUMP JUMPDEST PUSH2 0x1A2C DUP2 PUSH2 0x1A1A JUMP JUMPDEST DUP2 EQ PUSH2 0x1A36 JUMPI PUSH0 DUP1 REVERT JUMPDEST POP JUMP JUMPDEST PUSH0 DUP2 CALLDATALOAD SWAP1 POP PUSH2 0x1A47 DUP2 PUSH2 0x1A23 JUMP JUMPDEST SWAP3 SWAP2 POP POP JUMP JUMPDEST PUSH0 DUP1 REVERT JUMPDEST PUSH0 DUP1 REVERT JUMPDEST PUSH0 PUSH1 0x1F NOT PUSH1 0x1F DUP4 ADD AND SWAP1 POP SWAP2 SWAP1 POP JUMP JUMPDEST PUSH32 0x4E487B7100000000000000000000000000000000000000000000000000000000 PUSH0 MSTORE PUSH1 0x41 PUSH1 0x4 MSTORE PUSH1 0x24 PUSH0 REVERT JUMPDEST PUSH2 0x1A9B DUP3 PUSH2 0x1A55 JUMP JUMPDEST DUP2 ADD DUP2 DUP2 LT PUSH8 0xFFFFFFFFFFFFFFFF DUP3 GT OR ISZERO PUSH2 0x1ABA JUMPI PUSH2 0x1AB9 PUSH2 0x1A65 JUMP JUMPDEST JUMPDEST DUP1 PUSH1 0x40 MSTORE POP POP POP JUMP JUMPDEST PUSH0 PUSH2 0x1ACC PUSH2 0x1A09 JUMP JUMPDEST SWAP1 POP PUSH2 0x1AD8 DUP3 DUP3 PUSH2 0x1A92 JUMP JUMPDEST SWAP2 SWAP1 POP JUMP JUMPDEST PUSH0 PUSH8 0xFFFFFFFFFFFFFFFF DUP3 GT ISZERO PUSH2 0x1AF7 JUMPI PUSH2 0x1AF6 PUSH2 0x1A65 JUMP JUMPDEST JUMPDEST PUSH2 0x1B00 DUP3 PUSH2 0x1A55 JUMP JUMPDEST SWAP1 POP PUSH1 0x20 DUP2 ADD SWAP1 POP SWAP2 SWAP1 POP JUMP JUMPDEST DUP3 DUP2 DUP4 CALLDATACOPY PUSH0 DUP4 DUP4 ADD MSTORE POP POP POP JUMP JUMPDEST PUSH0 PUSH2 0x1B2D PUSH2 0x1B28 DUP5 PUSH2 0x1ADD JUMP JUMPDEST PUSH2 0x1AC3 JUMP JUMPDEST SWAP1 POP DUP3 DUP2 MSTORE PUSH1 0x20 DUP2 ADD DUP5 DUP5 DUP5 ADD GT ISZERO PUSH2 0x1B49 JUMPI PUSH2 0x1B48 PUSH2 0x1A51 JUMP JUMPDEST JUMPDEST PUSH2 0x1B54 DUP5 DUP3 DUP6 PUSH2 0x1B0D JUMP JUMPDEST POP SWAP4 SWAP3 POP POP POP JUMP JUMPDEST PUSH0 DUP3 PUSH1 0x1F DUP4 ADD SLT PUSH2 0x1B70 JUMPI PUSH2 0x1B6F PUSH2 0x1A4D JUMP JUMPDEST JUMPDEST DUP2 CALLDATALOAD PUSH2 0x1B80 DUP5 DUP3 PUSH1 0x20 DUP7 ADD PUSH2 0x1B1B JUMP JUMPDEST SWAP2 POP POP SWAP3 SWAP2 POP POP JUMP JUMPDEST PUSH0 PUSH20 0xFFFFFFFFFFFFFFFFFFFFFFFFFFFFFFFFFFFFFFFF DUP3 AND SWAP1 POP SWAP2 SWAP1 POP JUMP JUMPDEST PUSH0 PUSH2 0x1BB2 DUP3 PUSH2 0x1B89 JUMP JUMPDEST SWAP1 POP SWAP2 SWAP1 POP JUMP JUMPDEST PUSH2 0x1BC2 DUP2 PUSH2 0x1BA8 JUMP JUMPDEST DUP2 EQ PUSH2 0x1BCC JUMPI PUSH0 DUP1 REVERT JUMPDEST POP JUMP JUMPDEST PUSH0 DUP2 CALLDATALOAD SWAP1 POP PUSH2 0x1BDD DUP2 PUSH2 0x1BB9 JUMP JUMPDEST SWAP3 SWAP2 POP POP JUMP JUMPDEST PUSH0 DUP1 PUSH0 DUP1 PUSH1 0x80 DUP6 DUP8 SUB SLT ISZERO PUSH2 0x1BFB JUMPI PUSH2 0x1BFA PUSH2 0x1A12 JUMP JUMPDEST JUMPDEST PUSH0 PUSH2 0x1C08 DUP8 DUP3 DUP9 ADD PUSH2 0x1A39 JUMP JUMPDEST SWAP5 POP POP PUSH1 0x20 PUSH2 0x1C19 DUP8 DUP3 DUP9 ADD PUSH2 0x1A39 JUMP JUMPDEST SWAP4 POP POP PUSH1 0x40 DUP6 ADD CALLDATALOAD PUSH8 0xFFFFFFFFFFFFFFFF DUP2 GT ISZERO PUSH2 0x1C3A JUMPI PUSH2 0x1C39 PUSH2 0x1A16 JUMP JUMPDEST JUMPDEST PUSH2 0x1C46 DUP8 DUP3 DUP9 ADD PUSH2 0x1B5C JUMP JUMPDEST SWAP3 POP POP PUSH1 0x60 PUSH2 0x1C57 DUP8 DUP3 DUP9 ADD PUSH2 0x1BCF JUMP JUMPDEST SWAP2 POP POP SWAP3 SWAP6 SWAP2 SWAP5 POP SWAP3 POP JUMP JUMPDEST PUSH0 DUP2 MLOAD SWAP1 POP SWAP2 SWAP1 POP JUMP JUMPDEST PUSH0 DUP3 DUP3 MSTORE PUSH1 0x20 DUP3 ADD SWAP1 POP SWAP3 SWAP2 POP POP JUMP JUMPDEST PUSH0 JUMPDEST DUP4 DUP2 LT ISZERO PUSH2 0x1C9A JUMPI DUP1 DUP3 ADD MLOAD DUP2 DUP5 ADD MSTORE PUSH1 0x20 DUP2 ADD SWAP1 POP PUSH2 0x1C7F JUMP JUMPDEST PUSH0 DUP5 DUP5 ADD MSTORE POP POP POP POP JUMP JUMPDEST PUSH0 PUSH2 0x1CAF DUP3 PUSH2 0x1C63 JUMP JUMPDEST PUSH2 0x1CB9 DUP2 DUP6 PUSH2 0x1C6D JUMP JUMPDEST SWAP4 POP PUSH2 0x1CC9 DUP2 DUP6 PUSH1 0x20 DUP7 ADD PUSH2 0x1C7D JUMP JUMPDEST PUSH2 0x1CD2 DUP2 PUSH2 0x1A55 JUMP JUMPDEST DUP5 ADD SWAP2 POP POP SWAP3 SWAP2 POP POP JUMP JUMPDEST PUSH0 PUSH1 0x20 DUP3 ADD SWAP1 POP DUP2 DUP2 SUB PUSH0 DUP4 ADD MSTORE PUSH2 0x1CF5 DUP2 DUP5 PUSH2 0x1CA5 JUMP JUMPDEST SWAP1 POP SWAP3 SWAP2 POP POP JUMP JUMPDEST PUSH2 0x1D06 DUP2 PUSH2 0x1A1A JUMP JUMPDEST DUP3 MSTORE POP POP JUMP JUMPDEST PUSH0 PUSH1 0x20 DUP3 ADD SWAP1 POP PUSH2 0x1D1F PUSH0 DUP4 ADD DUP5 PUSH2 0x1CFD JUMP JUMPDEST SWAP3 SWAP2 POP POP JUMP JUMPDEST PUSH0 DUP1 PUSH0 PUSH1 0x60 DUP5 DUP7 SUB SLT ISZERO PUSH2 0x1D3C JUMPI PUSH2 0x1D3B PUSH2 0x1A12 JUMP JUMPDEST JUMPDEST PUSH0 PUSH2 0x1D49 DUP7 DUP3 DUP8 ADD PUSH2 0x1BCF JUMP JUMPDEST SWAP4 POP POP PUSH1 0x20 PUSH2 0x1D5A DUP7 DUP3 DUP8 ADD PUSH2 0x1A39 JUMP JUMPDEST SWAP3 POP POP PUSH1 0x40 PUSH2 0x1D6B DUP7 DUP3 DUP8 ADD PUSH2 0x1A39 JUMP JUMPDEST SWAP2 POP POP SWAP3 POP SWAP3 POP SWAP3 JUMP JUMPDEST PUSH0 DUP2 MLOAD SWAP1 POP SWAP2 SWAP1 POP JUMP JUMPDEST PUSH0 DUP3 DUP3 MSTORE PUSH1 0x20 DUP3 ADD SWAP1 POP SWAP3 SWAP2 POP POP JUMP JUMPDEST PUSH0 DUP2 SWAP1 POP PUSH1 0x20 DUP3 ADD SWAP1 POP SWAP2 SWAP1 POP JUMP JUMPDEST PUSH0 DUP3 DUP3 MSTORE PUSH1 0x20 DUP3 ADD SWAP1 POP SWAP3 SWAP2 POP POP JUMP JUMPDEST PUSH0 PUSH2 0x1DB8 DUP3 PUSH2 0x1C63 JUMP JUMPDEST PUSH2 0x1DC2 DUP2 DUP6 PUSH2 0x1D9E JUMP JUMPDEST SWAP4 POP PUSH2 0x1DD2 DUP2 DUP6 PUSH1 0x20 DUP7 ADD PUSH2 0x1C7D JUMP JUMPDEST PUSH2 0x1DDB DUP2 PUSH2 0x1A55 JUMP JUMPDEST DUP5 ADD SWAP2 POP POP SWAP3 SWAP2 POP POP JUMP JUMPDEST PUSH0 PUSH2 0x1DF1 DUP4 DUP4 PUSH2 0x1DAE JUMP JUMPDEST SWAP1 POP SWAP3 SWAP2 POP POP JUMP JUMPDEST PUSH0 PUSH1 0x20 DUP3 ADD SWAP1 POP SWAP2 SWAP1 POP JUMP JUMPDEST PUSH0 PUSH2 0x1E0F DUP3 PUSH2 0x1D75 JUMP JUMPDEST PUSH2 0x1E19 DUP2 DUP6 PUSH2 0x1D7F JUMP JUMPDEST SWAP4 POP DUP4 PUSH1 0x20 DUP3 MUL DUP6 ADD PUSH2 0x1E2B DUP6 PUSH2 0x1D8F JUMP JUMPDEST DUP1 PUSH0 JUMPDEST DUP6 DUP2 LT ISZERO PUSH2 0x1E66 JUMPI DUP5 DUP5 SUB DUP10 MSTORE DUP2 MLOAD PUSH2 0x1E47 DUP6 DUP3 PUSH2 0x1DE6 JUMP JUMPDEST SWAP5 POP PUSH2 0x1E52 DUP4 PUSH2 0x1DF9 JUMP JUMPDEST SWAP3 POP PUSH1 0x20 DUP11 ADD SWAP10 POP POP PUSH1 0x1 DUP2 ADD SWAP1 POP PUSH2 0x1E2E JUMP JUMPDEST POP DUP3 SWAP8 POP DUP8 SWAP6 POP POP POP POP POP POP SWAP3 SWAP2 POP POP JUMP JUMPDEST PUSH0 PUSH1 0x20 DUP3 ADD SWAP1 POP DUP2 DUP2 SUB PUSH0 DUP4 ADD MSTORE PUSH2 0x1E90 DUP2 DUP5 PUSH2 0x1E05 JUMP JUMPDEST SWAP1 POP SWAP3 SWAP2 POP POP JUMP JUMPDEST PUSH0 PUSH1 0x20 DUP3 DUP5 SUB SLT ISZERO PUSH2 0x1EAD JUMPI PUSH2 0x1EAC PUSH2 0x1A12 JUMP JUMPDEST JUMPDEST PUSH0 DUP3 ADD CALLDATALOAD PUSH8 0xFFFFFFFFFFFFFFFF DUP2 GT ISZERO PUSH2 0x1ECA JUMPI PUSH2 0x1EC9 PUSH2 0x1A16 JUMP JUMPDEST JUMPDEST PUSH2 0x1ED6 DUP5 DUP3 DUP6 ADD PUSH2 0x1B5C JUMP JUMPDEST SWAP2 POP POP SWAP3 SWAP2 POP POP JUMP JUMPDEST PUSH0 DUP2 MLOAD SWAP1 POP SWAP2 SWAP1 POP JUMP JUMPDEST PUSH0 DUP2 SWAP1 POP PUSH1 0x20 DUP3 ADD SWAP1 POP SWAP2 SWAP1 POP JUMP JUMPDEST PUSH1 0xC7 DUP2 LT PUSH2 0x1F09 JUMPI PUSH2 0x1F08 PUSH2 0x18F7 JUMP JUMPDEST JUMPDEST POP JUMP JUMPDEST PUSH0 DUP2 SWAP1 POP PUSH2 0x1F19 DUP3 PUSH2 0x1EF8 JUMP JUMPDEST SWAP2 SWAP1 POP JUMP JUMPDEST PUSH0 PUSH2 0x1F28 DUP3 PUSH2 0x1F0C JUMP JUMPDEST SWAP1 POP SWAP2 SWAP1 POP JUMP JUMPDEST PUSH2 0x1F38 DUP2 PUSH2 0x1F1E JUMP JUMPDEST DUP3 MSTORE POP POP JUMP JUMPDEST PUSH0 PUSH2 0x1F49 DUP4 DUP4 PUSH2 0x1F2F JUMP JUMPDEST PUSH1 0x20 DUP4 ADD SWAP1 POP SWAP3 SWAP2 POP POP JUMP JUMPDEST PUSH0 PUSH1 0x20 DUP3 ADD SWAP1 POP SWAP2 SWAP1 POP JUMP JUMPDEST PUSH0 PUSH2 0x1F6B DUP3 PUSH2 0x1EDF JUMP JUMPDEST PUSH2 0x1F75 DUP2 DUP6 PUSH2 0x18D8 JUMP JUMPDEST SWAP4 POP PUSH2 0x1F80 DUP4 PUSH2 0x1EE9 JUMP JUMPDEST DUP1 PUSH0 JUMPDEST DUP4 DUP2 LT ISZERO PUSH2 0x1FB0 JUMPI DUP2 MLOAD PUSH2 0x1F97 DUP9 DUP3 PUSH2 0x1F3E JUMP JUMPDEST SWAP8 POP PUSH2 0x1FA2 DUP4 PUSH2 0x1F55 JUMP JUMPDEST SWAP3 POP POP PUSH1 0x1 DUP2 ADD SWAP1 POP PUSH2 0x1F83 JUMP JUMPDEST POP DUP6 SWAP4 POP POP POP POP SWAP3 SWAP2 POP POP JUMP JUMPDEST PUSH0 PUSH1 0x40 DUP3 ADD SWAP1 POP DUP2 DUP2 SUB PUSH0 DUP4 ADD MSTORE PUSH2 0x1FD5 DUP2 DUP6 PUSH2 0x1F61 JUMP JUMPDEST SWAP1 POP DUP2 DUP2 SUB PUSH1 0x20 DUP4 ADD MSTORE PUSH2 0x1FE9 DUP2 DUP5 PUSH2 0x1F61 JUMP JUMPDEST SWAP1 POP SWAP4 SWAP3 POP POP POP JUMP JUMPDEST PUSH0 DUP1 PUSH0 PUSH1 0x60 DUP5 DUP7 SUB SLT ISZERO PUSH2 0x2009 JUMPI PUSH2 0x2008 PUSH2 0x1A12 JUMP JUMPDEST JUMPDEST PUSH0 PUSH2 0x2016 DUP7 DUP3 DUP8 ADD PUSH2 0x1A39 JUMP JUMPDEST SWAP4 POP POP PUSH1 0x20 PUSH2 0x2027 DUP7 DUP3 DUP8 ADD PUSH2 0x1A39 JUMP JUMPDEST SWAP3 POP POP PUSH1 0x40 PUSH2 0x2038 DUP7 DUP3 DUP8 ADD PUSH2 0x1A39 JUMP JUMPDEST SWAP2 POP POP SWAP3 POP SWAP3 POP SWAP3 JUMP JUMPDEST PUSH0 PUSH8 0xFFFFFFFFFFFFFFFF DUP3 GT ISZERO PUSH2 0x205C JUMPI PUSH2 0x205B PUSH2 0x1A65 JUMP JUMPDEST JUMPDEST PUSH2 0x2065 DUP3 PUSH2 0x1A55 JUMP JUMPDEST SWAP1 POP PUSH1 0x20 DUP2 ADD SWAP1 POP SWAP2 SWAP1 POP JUMP JUMPDEST PUSH0 PUSH2 0x2084 PUSH2 0x207F DUP5 PUSH2 0x2042 JUMP JUMPDEST PUSH2 0x1AC3 JUMP JUMPDEST SWAP1 POP DUP3 DUP2 MSTORE PUSH1 0x20 DUP2 ADD DUP5 DUP5 DUP5 ADD GT ISZERO PUSH2 0x20A0 JUMPI PUSH2 0x209F PUSH2 0x1A51 JUMP JUMPDEST JUMPDEST PUSH2 0x20AB DUP5 DUP3 DUP6 PUSH2 0x1B0D JUMP JUMPDEST POP SWAP4 SWAP3 POP POP POP JUMP JUMPDEST PUSH0 DUP3 PUSH1 0x1F DUP4 ADD SLT PUSH2 0x20C7 JUMPI PUSH2 0x20C6 PUSH2 0x1A4D JUMP JUMPDEST JUMPDEST DUP2 CALLDATALOAD PUSH2 0x20D7 DUP5 DUP3 PUSH1 0x20 DUP7 ADD PUSH2 0x2072 JUMP JUMPDEST SWAP2 POP POP SWAP3 SWAP2 POP POP JUMP JUMPDEST PUSH0 DUP1 PUSH1 0x40 DUP4 DUP6 SUB SLT ISZERO PUSH2 0x20F6 JUMPI PUSH2 0x20F5 PUSH2 0x1A12 JUMP JUMPDEST JUMPDEST PUSH0 DUP4 ADD CALLDATALOAD PUSH8 0xFFFFFFFFFFFFFFFF DUP2 GT ISZERO PUSH2 0x2113 JUMPI PUSH2 0x2112 PUSH2 0x1A16 JUMP JUMPDEST JUMPDEST PUSH2 0x211F DUP6 DUP3 DUP7 ADD PUSH2 0x1B5C JUMP JUMPDEST SWAP3 POP POP PUSH1 0x20 DUP4 ADD CALLDATALOAD PUSH8 0xFFFFFFFFFFFFFFFF DUP2 GT ISZERO PUSH2 0x2140 JUMPI PUSH2 0x213F PUSH2 0x1A16 JUMP JUMPDEST JUMPDEST PUSH2 0x214C DUP6 DUP3 DUP7 ADD PUSH2 0x20B3 JUMP JUMPDEST SWAP2 POP POP SWAP3 POP SWAP3 SWAP1 POP JUMP JUMPDEST PUSH0 DUP2 MLOAD SWAP1 POP SWAP2 SWAP1 POP JUMP JUMPDEST PUSH0 DUP3 DUP3 MSTORE PUSH1 0x20 DUP3 ADD SWAP1 POP SWAP3 SWAP2 POP POP JUMP JUMPDEST PUSH0 PUSH2 0x217A DUP3 PUSH2 0x2156 JUMP JUMPDEST PUSH2 0x2184 DUP2 DUP6 PUSH2 0x2160 JUMP JUMPDEST SWAP4 POP PUSH2 0x2194 DUP2 DUP6 PUSH1 0x20 DUP7 ADD PUSH2 0x1C7D JUMP JUMPDEST PUSH2 0x219D DUP2 PUSH2 0x1A55 JUMP JUMPDEST DUP5 ADD SWAP2 POP POP SWAP3 SWAP2 POP POP JUMP JUMPDEST PUSH0 PUSH1 0x20 DUP3 ADD SWAP1 POP DUP2 DUP2 SUB PUSH0 DUP4 ADD MSTORE PUSH2 0x21C0 DUP2 DUP5 PUSH2 0x2170 JUMP JUMPDEST SWAP1 POP SWAP3 SWAP2 POP POP JUMP JUMPDEST PUSH1 0x4 DUP2 LT PUSH2 0x21D4 JUMPI PUSH0 DUP1 REVERT JUMPDEST POP JUMP JUMPDEST PUSH0 DUP2 CALLDATALOAD SWAP1 POP PUSH2 0x21E5 DUP2 PUSH2 0x21C8 JUMP JUMPDEST SWAP3 SWAP2 POP POP JUMP JUMPDEST PUSH0 PUSH1 0x20 DUP3 DUP5 SUB SLT ISZERO PUSH2 0x2200 JUMPI PUSH2 0x21FF PUSH2 0x1A12 JUMP JUMPDEST JUMPDEST PUSH0 PUSH2 0x220D DUP5 DUP3 DUP6 ADD PUSH2 0x21D7 JUMP JUMPDEST SWAP2 POP POP SWAP3 SWAP2 POP POP JUMP JUMPDEST PUSH32 0x4E487B7100000000000000000000000000000000000000000000000000000000 PUSH0 MSTORE PUSH1 0x32 PUSH1 0x4 MSTORE PUSH1 0x24 PUSH0 REVERT JUMPDEST PUSH0 DUP2 SWAP1 POP SWAP3 SWAP2 POP POP JUMP JUMPDEST PUSH0 PUSH2 0x2257 DUP3 PUSH2 0x1C63 JUMP JUMPDEST PUSH2 0x2261 DUP2 DUP6 PUSH2 0x2243 JUMP JUMPDEST SWAP4 POP PUSH2 0x2271 DUP2 DUP6 PUSH1 0x20 DUP7 ADD PUSH2 0x1C7D JUMP JUMPDEST DUP1 DUP5 ADD SWAP2 POP POP SWAP3 SWAP2 POP POP JUMP JUMPDEST PUSH32 0x2C00000000000000000000000000000000000000000000000000000000000000 PUSH0 DUP3 ADD MSTORE POP JUMP JUMPDEST PUSH0 PUSH2 0x22B1 PUSH1 0x1 DUP4 PUSH2 0x2243 JUMP JUMPDEST SWAP2 POP PUSH2 0x22BC DUP3 PUSH2 0x227D JUMP JUMPDEST PUSH1 0x1 DUP3 ADD SWAP1 POP SWAP2 SWAP1 POP JUMP JUMPDEST PUSH0 PUSH2 0x22D2 DUP3 DUP9 PUSH2 0x224D JUMP JUMPDEST SWAP2 POP PUSH2 0x22DD DUP3 PUSH2 0x22A5 JUMP JUMPDEST SWAP2 POP PUSH2 0x22E9 DUP3 DUP8 PUSH2 0x224D JUMP JUMPDEST SWAP2 POP PUSH2 0x22F4 DUP3 PUSH2 0x22A5 JUMP JUMPDEST SWAP2 POP PUSH2 0x2300 DUP3 DUP7 PUSH2 0x224D JUMP JUMPDEST SWAP2 POP PUSH2 0x230B DUP3 PUSH2 0x22A5 JUMP JUMPDEST SWAP2 POP PUSH2 0x2317 DUP3 DUP6 PUSH2 0x224D JUMP JUMPDEST SWAP2 POP PUSH2 0x2322 DUP3 PUSH2 0x22A5 JUMP JUMPDEST SWAP2 POP PUSH2 0x232E DUP3 DUP5 PUSH2 0x224D JUMP JUMPDEST SWAP2 POP DUP2 SWAP1 POP SWAP7 SWAP6 POP POP POP POP POP POP JUMP JUMPDEST PUSH32 0x4E487B7100000000000000000000000000000000000000000000000000000000 PUSH0 MSTORE PUSH1 0x11 PUSH1 0x4 MSTORE PUSH1 0x24 PUSH0 REVERT JUMPDEST PUSH0 PUSH2 0x2374 DUP3 PUSH2 0x1A1A JUMP JUMPDEST SWAP2 POP PUSH2 0x237F DUP4 PUSH2 0x1A1A JUMP JUMPDEST SWAP3 POP DUP3 DUP3 SUB SWAP1 POP DUP2 DUP2 GT ISZERO PUSH2 0x2397 JUMPI PUSH2 0x2396 PUSH2 0x233D JUMP JUMPDEST JUMPDEST SWAP3 SWAP2 POP POP JUMP JUMPDEST PUSH32 0x4E487B7100000000000000000000000000000000000000000000000000000000 PUSH0 MSTORE PUSH1 0x12 PUSH1 0x4 MSTORE PUSH1 0x24 PUSH0 REVERT JUMPDEST PUSH0 PUSH2 0x23D4 DUP3 PUSH2 0x1A1A JUMP JUMPDEST SWAP2 POP PUSH2 0x23DF DUP4 PUSH2 0x1A1A JUMP JUMPDEST SWAP3 POP DUP3 PUSH2 0x23EF JUMPI PUSH2 0x23EE PUSH2 0x239D JUMP JUMPDEST JUMPDEST DUP3 DUP3 DIV SWAP1 POP SWAP3 SWAP2 POP POP JUMP JUMPDEST PUSH0 PUSH2 0x2404 DUP3 PUSH2 0x1A1A JUMP JUMPDEST SWAP2 POP PUSH2 0x240F DUP4 PUSH2 0x1A1A JUMP JUMPDEST SWAP3 POP DUP3 DUP3 MUL PUSH2 0x241D DUP2 PUSH2 0x1A1A JUMP JUMPDEST SWAP2 POP DUP3 DUP3 DIV DUP5 EQ DUP4 ISZERO OR PUSH2 0x2434 JUMPI PUSH2 0x2433 PUSH2 0x233D JUMP JUMPDEST JUMPDEST POP SWAP3 SWAP2 POP POP JUMP JUMPDEST PUSH0 PUSH2 0x2445 DUP3 PUSH2 0x1A1A JUMP JUMPDEST SWAP2 POP PUSH2 0x2450 DUP4 PUSH2 0x1A1A JUMP JUMPDEST SWAP3 POP DUP3 DUP3 ADD SWAP1 POP DUP1 DUP3 GT ISZERO PUSH2 0x2468 JUMPI PUSH2 0x2467 PUSH2 0x233D JUMP JUMPDEST JUMPDEST SWAP3 SWAP2 POP POP JUMP JUMPDEST PUSH32 0x4E487B7100000000000000000000000000000000000000000000000000000000 PUSH0 MSTORE PUSH1 0x22 PUSH1 0x4 MSTORE PUSH1 0x24 PUSH0 REVERT JUMPDEST PUSH0 PUSH1 0x2 DUP3 DIV SWAP1 POP PUSH1 0x1 DUP3 AND DUP1 PUSH2 0x24B2 JUMPI PUSH1 0x7F DUP3 AND SWAP2 POP JUMPDEST PUSH1 0x20 DUP3 LT DUP2 SUB PUSH2 0x24C5 JUMPI PUSH2 0x24C4 PUSH2 0x246E JUMP JUMPDEST JUMPDEST POP SWAP2 SWAP1 POP JUMP JUMPDEST PUSH0 PUSH2 0x24D5 DUP3 PUSH2 0x1A1A JUMP JUMPDEST SWAP2 POP PUSH32 0xFFFFFFFFFFFFFFFFFFFFFFFFFFFFFFFFFFFFFFFFFFFFFFFFFFFFFFFFFFFFFFFF DUP3 SUB PUSH2 0x2507 JUMPI PUSH2 0x2506 PUSH2 0x233D JUMP JUMPDEST JUMPDEST PUSH1 0x1 DUP3 ADD SWAP1 POP SWAP2 SWAP1 POP JUMP JUMPDEST PUSH0 DUP2 SWAP1 POP SWAP2 SWAP1 POP JUMP JUMPDEST PUSH0 PUSH2 0x2525 DUP3 PUSH2 0x2512 JUMP JUMPDEST SWAP2 POP PUSH32 0x8000000000000000000000000000000000000000000000000000000000000000 DUP3 SUB PUSH2 0x2557 JUMPI PUSH2 0x2556 PUSH2 0x233D JUMP JUMPDEST JUMPDEST PUSH1 0x1 DUP3 SUB SWAP1 POP SWAP2 SWAP1 POP JUMP JUMPDEST PUSH0 PUSH2 0x256D DUP3 DUP5 PUSH2 0x224D JUMP JUMPDEST SWAP2 POP DUP2 SWAP1 POP SWAP3 SWAP2 POP POP JUMP JUMPDEST PUSH0 DUP2 MLOAD SWAP1 POP PUSH2 0x2586 DUP2 PUSH2 0x1A23 JUMP JUMPDEST SWAP3 SWAP2 POP POP JUMP JUMPDEST PUSH0 PUSH1 0x20 DUP3 DUP5 SUB SLT ISZERO PUSH2 0x25A1 JUMPI PUSH2 0x25A0 PUSH2 0x1A12 JUMP JUMPDEST JUMPDEST PUSH0 PUSH2 0x25AE DUP5 DUP3 DUP6 ADD PUSH2 0x2578 JUMP JUMPDEST SWAP2 POP POP SWAP3 SWAP2 POP POP JUMP JUMPDEST PUSH2 0x25C0 DUP2 PUSH2 0x1BA8 JUMP JUMPDEST DUP3 MSTORE POP POP JUMP JUMPDEST PUSH0 PUSH1 0x80 DUP3 ADD SWAP1 POP PUSH2 0x25D9 PUSH0 DUP4 ADD DUP8 PUSH2 0x1CFD JUMP JUMPDEST PUSH2 0x25E6 PUSH1 0x20 DUP4 ADD DUP7 PUSH2 0x1CFD JUMP JUMPDEST DUP2 DUP2 SUB PUSH1 0x40 DUP4 ADD MSTORE PUSH2 0x25F8 DUP2 DUP6 PUSH2 0x1CA5 JUMP JUMPDEST SWAP1 POP PUSH2 0x2607 PUSH1 0x60 DUP4 ADD DUP5 PUSH2 0x25B7 JUMP JUMPDEST SWAP6 SWAP5 POP POP POP POP POP JUMP JUMPDEST PUSH0 DUP1 PUSH0 PUSH1 0x60 DUP5 DUP7 SUB SLT ISZERO PUSH2 0x2627 JUMPI PUSH2 0x2626 PUSH2 0x1A12 JUMP JUMPDEST JUMPDEST PUSH0 PUSH2 0x2634 DUP7 DUP3 DUP8 ADD PUSH2 0x2578 JUMP JUMPDEST SWAP4 POP POP PUSH1 0x20 PUSH2 0x2645 DUP7 DUP3 DUP8 ADD PUSH2 0x2578 JUMP JUMPDEST SWAP3 POP POP PUSH1 0x40 PUSH2 0x2656 DUP7 DUP3 DUP8 ADD PUSH2 0x2578 JUMP JUMPDEST SWAP2 POP POP SWAP3 POP SWAP3 POP SWAP3 JUMP JUMPDEST PUSH0 PUSH2 0x266A DUP3 PUSH2 0x1B89 JUMP JUMPDEST SWAP1 POP SWAP2 SWAP1 POP JUMP JUMPDEST PUSH2 0x267A DUP2 PUSH2 0x2660 JUMP JUMPDEST DUP2 EQ PUSH2 0x2684 JUMPI PUSH0 DUP1 REVERT JUMPDEST POP JUMP JUMPDEST PUSH0 DUP2 MLOAD SWAP1 POP PUSH2 0x2695 DUP2 PUSH2 0x2671 JUMP JUMPDEST SWAP3 SWAP2 POP POP JUMP JUMPDEST PUSH0 DUP1 PUSH0 PUSH1 0x60 DUP5 DUP7 SUB SLT ISZERO PUSH2 0x26B2 JUMPI PUSH2 0x26B1 PUSH2 0x1A12 JUMP JUMPDEST JUMPDEST PUSH0 PUSH2 0x26BF DUP7 DUP3 DUP8 ADD PUSH2 0x2687 JUMP JUMPDEST SWAP4 POP POP PUSH1 0x20 PUSH2 0x26D0 DUP7 DUP3 DUP8 ADD PUSH2 0x2578 JUMP JUMPDEST SWAP3 POP POP PUSH1 0x40 PUSH2 0x26E1 DUP7 DUP3 DUP8 ADD PUSH2 0x2578 JUMP JUMPDEST SWAP2 POP POP SWAP3 POP SWAP3 POP SWAP3 JUMP JUMPDEST POP JUMP JUMPDEST PUSH0 PUSH2 0x26F9 PUSH0 DUP4 PUSH2 0x1C6D JUMP JUMPDEST SWAP2 POP PUSH2 0x2704 DUP3 PUSH2 0x26EB JUMP JUMPDEST PUSH0 DUP3 ADD SWAP1 POP SWAP2 SWAP1 POP JUMP JUMPDEST PUSH0 PUSH1 0x20 DUP3 ADD SWAP1 POP DUP2 DUP2 SUB PUSH0 DUP4 ADD MSTORE PUSH2 0x2725 DUP2 PUSH2 0x26EE JUMP JUMPDEST SWAP1 POP SWAP2 SWAP1 POP JUMP JUMPDEST PUSH0 PUSH2 0x273E PUSH2 0x2739 DUP5 PUSH2 0x1ADD JUMP JUMPDEST PUSH2 0x1AC3 JUMP JUMPDEST SWAP1 POP DUP3 DUP2 MSTORE PUSH1 0x20 DUP2 ADD DUP5 DUP5 DUP5 ADD GT ISZERO PUSH2 0x275A JUMPI PUSH2 0x2759 PUSH2 0x1A51 JUMP JUMPDEST JUMPDEST PUSH2 0x2765 DUP5 DUP3 DUP6 PUSH2 0x1C7D JUMP JUMPDEST POP SWAP4 SWAP3 POP POP POP JUMP JUMPDEST PUSH0 DUP3 PUSH1 0x1F DUP4 ADD SLT PUSH2 0x2781 JUMPI PUSH2 0x2780 PUSH2 0x1A4D JUMP JUMPDEST JUMPDEST DUP2 MLOAD PUSH2 0x2791 DUP5 DUP3 PUSH1 0x20 DUP7 ADD PUSH2 0x272C JUMP JUMPDEST SWAP2 POP POP SWAP3 SWAP2 POP POP JUMP JUMPDEST PUSH0 DUP1 PUSH1 0x40 DUP4 DUP6 SUB SLT ISZERO PUSH2 0x27B0 JUMPI PUSH2 0x27AF PUSH2 0x1A12 JUMP JUMPDEST JUMPDEST PUSH0 PUSH2 0x27BD DUP6 DUP3 DUP7 ADD PUSH2 0x2578 JUMP JUMPDEST SWAP3 POP POP PUSH1 0x20 DUP4 ADD MLOAD PUSH8 0xFFFFFFFFFFFFFFFF DUP2 GT ISZERO PUSH2 0x27DE JUMPI PUSH2 0x27DD PUSH2 0x1A16 JUMP JUMPDEST JUMPDEST PUSH2 0x27EA DUP6 DUP3 DUP7 ADD PUSH2 0x276D JUMP JUMPDEST SWAP2 POP POP SWAP3 POP SWAP3 SWAP1 POP JUMP JUMPDEST PUSH0 DUP2 SWAP1 POP DUP2 PUSH0 MSTORE PUSH1 0x20 PUSH0 KECCAK256 SWAP1 POP SWAP2 SWAP1 POP JUMP JUMPDEST PUSH0 PUSH1 0x20 PUSH1 0x1F DUP4 ADD DIV SWAP1 POP SWAP2 SWAP1 POP JUMP JUMPDEST PUSH0 DUP3 DUP3 SHL SWAP1 POP SWAP3 SWAP2 POP POP JUMP JUMPDEST PUSH0 PUSH1 0x8 DUP4 MUL PUSH2 0x2850 PUSH32 0xFFFFFFFFFFFFFFFFFFFFFFFFFFFFFFFFFFFFFFFFFFFFFFFFFFFFFFFFFFFFFFFF DUP3 PUSH2 0x2815 JUMP JUMPDEST PUSH2 0x285A DUP7 DUP4 PUSH2 0x2815 JUMP JUMPDEST SWAP6 POP DUP1 NOT DUP5 AND SWAP4 POP DUP1 DUP7 AND DUP5 OR SWAP3 POP POP POP SWAP4 SWAP3 POP POP POP JUMP JUMPDEST PUSH0 DUP2 SWAP1 POP SWAP2 SWAP1 POP JUMP JUMPDEST PUSH0 PUSH2 0x2895 PUSH2 0x2890 PUSH2 0x288B DUP5 PUSH2 0x1A1A JUMP JUMPDEST PUSH2 0x2872 JUMP JUMPDEST PUSH2 0x1A1A JUMP JUMPDEST SWAP1 POP SWAP2 SWAP1 POP JUMP JUMPDEST PUSH0 DUP2 SWAP1 POP SWAP2 SWAP1 POP JUMP JUMPDEST PUSH2 0x28AE DUP4 PUSH2 0x287B JUMP JUMPDEST PUSH2 0x28C2 PUSH2 0x28BA DUP3 PUSH2 0x289C JUMP JUMPDEST DUP5 DUP5 SLOAD PUSH2 0x2821 JUMP JUMPDEST DUP3 SSTORE POP POP POP POP JUMP JUMPDEST PUSH0 SWAP1 JUMP JUMPDEST PUSH2 0x28D6 PUSH2 0x28CA JUMP JUMPDEST PUSH2 0x28E1 DUP2 DUP5 DUP5 PUSH2 0x28A5 JUMP JUMPDEST POP POP POP JUMP JUMPDEST JUMPDEST DUP2 DUP2 LT ISZERO PUSH2 0x2904 JUMPI PUSH2 0x28F9 PUSH0 DUP3 PUSH2 0x28CE JUMP JUMPDEST PUSH1 0x1 DUP2 ADD SWAP1 POP PUSH2 0x28E7 JUMP JUMPDEST POP POP JUMP JUMPDEST PUSH1 0x1F DUP3 GT ISZERO PUSH2 0x2949 JUMPI PUSH2 0x291A DUP2 PUSH2 0x27F4 JUMP JUMPDEST PUSH2 0x2923 DUP5 PUSH2 0x2806 JUMP JUMPDEST DUP2 ADD PUSH1 0x20 DUP6 LT ISZERO PUSH2 0x2932 JUMPI DUP2 SWAP1 POP JUMPDEST PUSH2 0x2946 PUSH2 0x293E DUP6 PUSH2 0x2806 JUMP JUMPDEST DUP4 ADD DUP3 PUSH2 0x28E6 JUMP JUMPDEST POP POP JUMPDEST POP POP POP JUMP JUMPDEST PUSH0 DUP3 DUP3 SHR SWAP1 POP SWAP3 SWAP2 POP POP JUMP JUMPDEST PUSH0 PUSH2 0x2969 PUSH0 NOT DUP5 PUSH1 0x8 MUL PUSH2 0x294E JUMP JUMPDEST NOT DUP1 DUP4 AND SWAP2 POP POP SWAP3 SWAP2 POP POP JUMP JUMPDEST PUSH0 PUSH2 0x2981 DUP4 DUP4 PUSH2 0x295A JUMP JUMPDEST SWAP2 POP DUP3 PUSH1 0x2 MUL DUP3 OR SWAP1 POP SWAP3 SWAP2 POP POP JUMP JUMPDEST PUSH2 0x299A DUP3 PUSH2 0x1C63 JUMP JUMPDEST PUSH8 0xFFFFFFFFFFFFFFFF DUP2 GT ISZERO PUSH2 0x29B3 JUMPI PUSH2 0x29B2 PUSH2 0x1A65 JUMP JUMPDEST JUMPDEST PUSH2 0x29BD DUP3 SLOAD PUSH2 0x249B JUMP JUMPDEST PUSH2 0x29C8 DUP3 DUP3 DUP6 PUSH2 0x2908 JUMP JUMPDEST PUSH0 PUSH1 0x20 SWAP1 POP PUSH1 0x1F DUP4 GT PUSH1 0x1 DUP2 EQ PUSH2 0x29F9 JUMPI PUSH0 DUP5 ISZERO PUSH2 0x29E7 JUMPI DUP3 DUP8 ADD MLOAD SWAP1 POP JUMPDEST PUSH2 0x29F1 DUP6 DUP3 PUSH2 0x2976 JUMP JUMPDEST DUP7 SSTORE POP PUSH2 0x2A58 JUMP JUMPDEST PUSH1 0x1F NOT DUP5 AND PUSH2 0x2A07 DUP7 PUSH2 0x27F4 JUMP JUMPDEST PUSH0 JUMPDEST DUP3 DUP2 LT ISZERO PUSH2 0x2A2E JUMPI DUP5 DUP10 ADD MLOAD DUP3 SSTORE PUSH1 0x1 DUP3 ADD SWAP2 POP PUSH1 0x20 DUP6 ADD SWAP5 POP PUSH1 0x20 DUP2 ADD SWAP1 POP PUSH2 0x2A09 JUMP JUMPDEST DUP7 DUP4 LT ISZERO PUSH2 0x2A4B JUMPI DUP5 DUP10 ADD MLOAD PUSH2 0x2A47 PUSH1 0x1F DUP10 AND DUP3 PUSH2 0x295A JUMP JUMPDEST DUP4 SSTORE POP JUMPDEST PUSH1 0x1 PUSH1 0x2 DUP9 MUL ADD DUP9 SSTORE POP POP POP JUMPDEST POP POP POP POP POP POP JUMP JUMPDEST PUSH0 PUSH1 0x40 DUP3 ADD SWAP1 POP DUP2 DUP2 SUB PUSH0 DUP4 ADD MSTORE PUSH2 0x2A78 DUP2 DUP6 PUSH2 0x1CA5 JUMP JUMPDEST SWAP1 POP DUP2 DUP2 SUB PUSH1 0x20 DUP4 ADD MSTORE PUSH2 0x2A8C DUP2 DUP5 PUSH2 0x2170 JUMP JUMPDEST SWAP1 POP SWAP4 SWAP3 POP POP POP JUMP JUMPDEST PUSH0 PUSH2 0x2A9F DUP3 PUSH2 0x1A1A JUMP JUMPDEST SWAP2 POP PUSH2 0x2AAA DUP4 PUSH2 0x1A1A JUMP JUMPDEST SWAP3 POP DUP3 PUSH2 0x2ABA JUMPI PUSH2 0x2AB9 PUSH2 0x239D JUMP JUMPDEST JUMPDEST DUP3 DUP3 MOD SWAP1 POP SWAP3 SWAP2 POP POP JUMP JUMPDEST PUSH0 PUSH2 0x2ACF DUP3 PUSH2 0x1A1A JUMP JUMPDEST SWAP2 POP PUSH0 DUP3 SUB PUSH2 0x2AE1 JUMPI PUSH2 0x2AE0 PUSH2 0x233D JUMP JUMPDEST JUMPDEST PUSH1 0x1 DUP3 SUB SWAP1 POP SWAP2 SWAP1 POP JUMP JUMPDEST PUSH32 0x537472696E67733A20686578206C656E67746820696E73756666696369656E74 PUSH0 DUP3 ADD MSTORE POP JUMP JUMPDEST PUSH0 PUSH2 0x2B20 PUSH1 0x20 DUP4 PUSH2 0x1C6D JUMP JUMPDEST SWAP2 POP PUSH2 0x2B2B DUP3 PUSH2 0x2AEC JUMP JUMPDEST PUSH1 0x20 DUP3 ADD SWAP1 POP SWAP2 SWAP1 POP JUMP JUMPDEST PUSH0 PUSH1 0x20 DUP3 ADD SWAP1 POP DUP2 DUP2 SUB PUSH0 DUP4 ADD MSTORE PUSH2 0x2B4D DUP2 PUSH2 0x2B14 JUMP JUMPDEST SWAP1 POP SWAP2 SWAP1 POP JUMP INVALID COINBASE TIMESTAMP NUMBER PREVRANDAO GASLIMIT CHAINID SELFBALANCE BASEFEE 0x49 0x4A 0x4B 0x4C 0x4D 0x4E 0x4F POP MLOAD MSTORE MSTORE8 SLOAD SSTORE JUMP JUMPI PC MSIZE GAS PUSH2 0x6263 PUSH5 0x6566676869 PUSH11 0x6B6C6D6E6F707172737475 PUSH23 0x7778797A303132333435363738392B2FA2646970667358 0x22 SLT KECCAK256 SWAP13 COINBASE 0xE9 PUSH16 0x1B2755F9E9A40C97CBC648C30AE79B4A 0x2C CALLER OR SGT LOG3 PUSH12 0x9015B73A10EF64736F6C6343 STOP ADDMOD AND STOP CALLER "
				},
				"gasEstimates": {
					"creation": {
						"codeDepositCost": "2242000",
						"executionCost": "infinite",
						"totalCost": "infinite"
					},
					"external": {
						"commentIds()": "2470",
						"generateBase64(uint256,uint256,string,address)": "infinite",
						"get(string,bytes)": "infinite",
						"getComments(uint256,uint256,uint256)": "infinite",
						"getCommentsByAddress(address,uint256,uint256)": "infinite",
						"getMethodReqAndRes(string)": "infinite",
						"getMethods(uint8)": "infinite",
						"options()": "infinite",
						"post(string,bytes)": "infinite",
						"put(string,bytes)": "infinite"
					},
					"internal": {
						"compareStrings(string memory,string memory)": "infinite",
						"setMethod(string memory,enum IComponent.MethodTypes,enum Types.Type[] memory,enum Types.Type[] memory)": "infinite"
					}
				},
				"methodIdentifiers": {
					"commentIds()": "3e413065",
					"generateBase64(uint256,uint256,string,address)": "1d16b70d",
					"get(string,bytes)": "aff62745",
					"getComments(uint256,uint256,uint256)": "6818ba1d",
					"getCommentsByAddress(address,uint256,uint256)": "44237454",
					"getMethodReqAndRes(string)": "458ad6d4",
					"getMethods(uint8)": "f4856ccb",
					"options()": "1069143a",
					"post(string,bytes)": "b6ae0425",
					"put(string,bytes)": "e9536472"
				}
			},
			"storageLayout": {
				"storage": [
					{
						"astId": 354,
						"contract": "contracts/AmeComponents/Comment/Comment.sol:VibeComment",
						"label": "methods",
						"offset": 0,
						"slot": "0",
						"type": "t_mapping(t_enum(MethodTypes)8,t_array(t_string_storage)dyn_storage)"
					},
					{
						"astId": 360,
						"contract": "contracts/AmeComponents/Comment/Comment.sol:VibeComment",
						"label": "methodRequests",
						"offset": 0,
						"slot": "1",
						"type": "t_mapping(t_string_memory_ptr,t_array(t_enum(Type)278)dyn_storage)"
					},
					{
						"astId": 366,
						"contract": "contracts/AmeComponents/Comment/Comment.sol:VibeComment",
						"label": "methodResponses",
						"offset": 0,
						"slot": "2",
						"type": "t_mapping(t_string_memory_ptr,t_array(t_enum(Type)278)dyn_storage)"
					},
					{
						"astId": 368,
						"contract": "contracts/AmeComponents/Comment/Comment.sol:VibeComment",
						"label": "commentIds",
						"offset": 0,
						"slot": "3",
						"type": "t_uint256"
					},
					{
						"astId": 372,
						"contract": "contracts/AmeComponents/Comment/Comment.sol:VibeComment",
						"label": "VibeCommentIndexs",
						"offset": 0,
						"slot": "4",
						"type": "t_mapping(t_uint256,t_uint256)"
					},
					{
						"astId": 376,
						"contract": "contracts/AmeComponents/Comment/Comment.sol:VibeComment",
						"label": "UserCommentIndexs",
						"offset": 0,
						"slot": "5",
						"type": "t_mapping(t_address,t_uint256)"
					},
					{
						"astId": 382,
						"contract": "contracts/AmeComponents/Comment/Comment.sol:VibeComment",
						"label": "VibeCommentIds",
						"offset": 0,
						"slot": "6",
						"type": "t_mapping(t_uint256,t_mapping(t_uint256,t_uint256))"
					},
					{
						"astId": 388,
						"contract": "contracts/AmeComponents/Comment/Comment.sol:VibeComment",
						"label": "UserIndexCommentIds",
						"offset": 0,
						"slot": "7",
						"type": "t_mapping(t_address,t_mapping(t_uint256,t_uint256))"
					},
					{
						"astId": 393,
						"contract": "contracts/AmeComponents/Comment/Comment.sol:VibeComment",
						"label": "Comments",
						"offset": 0,
						"slot": "8",
						"type": "t_mapping(t_uint256,t_struct(Comment)402_storage)"
					}
				],
				"types": {
					"t_address": {
						"encoding": "inplace",
						"label": "address",
						"numberOfBytes": "20"
					},
					"t_array(t_enum(Type)278)dyn_storage": {
						"base": "t_enum(Type)278",
						"encoding": "dynamic_array",
						"label": "enum Types.Type[]",
						"numberOfBytes": "32"
					},
					"t_array(t_string_storage)dyn_storage": {
						"base": "t_string_storage",
						"encoding": "dynamic_array",
						"label": "string[]",
						"numberOfBytes": "32"
					},
					"t_enum(MethodTypes)8": {
						"encoding": "inplace",
						"label": "enum IComponent.MethodTypes",
						"numberOfBytes": "1"
					},
					"t_enum(Type)278": {
						"encoding": "inplace",
						"label": "enum Types.Type",
						"numberOfBytes": "1"
					},
					"t_mapping(t_address,t_mapping(t_uint256,t_uint256))": {
						"encoding": "mapping",
						"key": "t_address",
						"label": "mapping(address => mapping(uint256 => uint256))",
						"numberOfBytes": "32",
						"value": "t_mapping(t_uint256,t_uint256)"
					},
					"t_mapping(t_address,t_uint256)": {
						"encoding": "mapping",
						"key": "t_address",
						"label": "mapping(address => uint256)",
						"numberOfBytes": "32",
						"value": "t_uint256"
					},
					"t_mapping(t_enum(MethodTypes)8,t_array(t_string_storage)dyn_storage)": {
						"encoding": "mapping",
						"key": "t_enum(MethodTypes)8",
						"label": "mapping(enum IComponent.MethodTypes => string[])",
						"numberOfBytes": "32",
						"value": "t_array(t_string_storage)dyn_storage"
					},
					"t_mapping(t_string_memory_ptr,t_array(t_enum(Type)278)dyn_storage)": {
						"encoding": "mapping",
						"key": "t_string_memory_ptr",
						"label": "mapping(string => enum Types.Type[])",
						"numberOfBytes": "32",
						"value": "t_array(t_enum(Type)278)dyn_storage"
					},
					"t_mapping(t_uint256,t_mapping(t_uint256,t_uint256))": {
						"encoding": "mapping",
						"key": "t_uint256",
						"label": "mapping(uint256 => mapping(uint256 => uint256))",
						"numberOfBytes": "32",
						"value": "t_mapping(t_uint256,t_uint256)"
					},
					"t_mapping(t_uint256,t_struct(Comment)402_storage)": {
						"encoding": "mapping",
						"key": "t_uint256",
						"label": "mapping(uint256 => struct VibeComment.Comment)",
						"numberOfBytes": "32",
						"value": "t_struct(Comment)402_storage"
					},
					"t_mapping(t_uint256,t_uint256)": {
						"encoding": "mapping",
						"key": "t_uint256",
						"label": "mapping(uint256 => uint256)",
						"numberOfBytes": "32",
						"value": "t_uint256"
					},
					"t_string_memory_ptr": {
						"encoding": "bytes",
						"label": "string",
						"numberOfBytes": "32"
					},
					"t_string_storage": {
						"encoding": "bytes",
						"label": "string",
						"numberOfBytes": "32"
					},
					"t_struct(Comment)402_storage": {
						"encoding": "inplace",
						"label": "struct VibeComment.Comment",
						"members": [
							{
								"astId": 395,
								"contract": "contracts/AmeComponents/Comment/Comment.sol:VibeComment",
								"label": "vibeId",
								"offset": 0,
								"slot": "0",
								"type": "t_uint256"
							},
							{
								"astId": 397,
								"contract": "contracts/AmeComponents/Comment/Comment.sol:VibeComment",
								"label": "commentId",
								"offset": 0,
								"slot": "1",
								"type": "t_uint256"
							},
							{
								"astId": 399,
								"contract": "contracts/AmeComponents/Comment/Comment.sol:VibeComment",
								"label": "content",
								"offset": 0,
								"slot": "2",
								"type": "t_string_storage"
							},
							{
								"astId": 401,
								"contract": "contracts/AmeComponents/Comment/Comment.sol:VibeComment",
								"label": "user",
								"offset": 0,
								"slot": "3",
								"type": "t_address"
							}
						],
						"numberOfBytes": "128"
					},
					"t_uint256": {
						"encoding": "inplace",
						"label": "uint256",
						"numberOfBytes": "32"
					}
				}
			},
			"userdoc": {
				"events": {
					"Response(bytes)": {
						"notice": "Response data event."
					}
				},
				"kind": "user",
				"methods": {
					"get(string,bytes)": {
						"notice": "Request the contract to retrieve records."
					},
					"getMethodReqAndRes(string)": {
						"notice": "Get the data types of request parameters and return parameters based on the requested method name."
					},
					"getMethods(uint8)": {
						"notice": "Get method names based on request method type."
					},
					"options()": {
						"notice": "Supported request method types."
					},
					"post(string,bytes)": {
						"notice": "Request the contract to create a new record."
					},
					"put(string,bytes)": {
						"notice": "Request the contract to update a record."
					}
				},
				"version": 1
			}
		}
	}
}