{
	"contracts/AmeComponents/VibeComment/VibeComment.sol": {
		"VibeComment": {
			"abi": [
				{
					"inputs": [],
					"stateMutability": "nonpayable",
					"type": "constructor"
				},
				{
					"anonymous": false,
					"inputs": [
						{
							"indexed": true,
							"internalType": "uint256",
							"name": "_vibeId",
							"type": "uint256"
						},
						{
							"indexed": true,
							"internalType": "uint256",
							"name": "_commentId",
							"type": "uint256"
						}
					],
					"name": "DeleteComment",
					"type": "event"
				},
				{
					"anonymous": false,
					"inputs": [
						{
							"indexed": true,
							"internalType": "uint256",
							"name": "_vibeId",
							"type": "uint256"
						},
						{
							"indexed": true,
							"internalType": "uint256",
							"name": "_commentId",
							"type": "uint256"
						},
						{
							"indexed": false,
							"internalType": "string",
							"name": "_encodeComment",
							"type": "string"
						},
						{
							"indexed": true,
							"internalType": "address",
							"name": "_user",
							"type": "address"
						}
					],
					"name": "NewComment",
					"type": "event"
				},
				{
					"anonymous": false,
					"inputs": [
						{
							"indexed": true,
							"internalType": "address",
							"name": "previousOwner",
							"type": "address"
						},
						{
							"indexed": true,
							"internalType": "address",
							"name": "newOwner",
							"type": "address"
						}
					],
					"name": "OwnershipTransferred",
					"type": "event"
				},
				{
					"anonymous": false,
					"inputs": [
						{
							"indexed": false,
							"internalType": "bytes",
							"name": "_response",
							"type": "bytes"
						}
					],
					"name": "Response",
					"type": "event"
				},
				{
					"inputs": [],
					"name": "commentIds",
					"outputs": [
						{
							"internalType": "uint256",
							"name": "",
							"type": "uint256"
						}
					],
					"stateMutability": "view",
					"type": "function"
				},
				{
					"inputs": [
						{
							"internalType": "uint256",
							"name": "_vibeId",
							"type": "uint256"
						},
						{
							"internalType": "uint256",
							"name": "_commentId",
							"type": "uint256"
						},
						{
							"internalType": "string",
							"name": "_content",
							"type": "string"
						},
						{
							"internalType": "string",
							"name": "_resources",
							"type": "string"
						},
						{
							"internalType": "address",
							"name": "_user",
							"type": "address"
						}
					],
					"name": "generateBase64",
					"outputs": [
						{
							"internalType": "string",
							"name": "",
							"type": "string"
						}
					],
					"stateMutability": "view",
					"type": "function"
				},
				{
					"inputs": [
						{
							"internalType": "string",
							"name": "_methodName",
							"type": "string"
						},
						{
							"internalType": "bytes",
							"name": "_methodReq",
							"type": "bytes"
						}
					],
					"name": "get",
					"outputs": [
						{
							"internalType": "bytes",
							"name": "",
							"type": "bytes"
						}
					],
					"stateMutability": "view",
					"type": "function"
				},
				{
					"inputs": [
						{
							"internalType": "uint256",
							"name": "_vibeId",
							"type": "uint256"
						},
						{
							"internalType": "uint256",
							"name": "_pageNum",
							"type": "uint256"
						},
						{
							"internalType": "uint256",
							"name": "_pageSize",
							"type": "uint256"
						}
					],
					"name": "getComments",
					"outputs": [
						{
							"internalType": "string[]",
							"name": "",
							"type": "string[]"
						}
					],
					"stateMutability": "view",
					"type": "function"
				},
				{
					"inputs": [
						{
							"internalType": "address",
							"name": "_user",
							"type": "address"
						},
						{
							"internalType": "uint256",
							"name": "_pageNum",
							"type": "uint256"
						},
						{
							"internalType": "uint256",
							"name": "_pageSize",
							"type": "uint256"
						}
					],
					"name": "getCommentsByAddress",
					"outputs": [
						{
							"internalType": "string[]",
							"name": "",
							"type": "string[]"
						}
					],
					"stateMutability": "view",
					"type": "function"
				},
				{
					"inputs": [
						{
							"internalType": "string",
							"name": "_methodName",
							"type": "string"
						}
					],
					"name": "getMethodReqAndRes",
					"outputs": [
						{
							"internalType": "enum Types.Type[]",
							"name": "",
							"type": "uint8[]"
						},
						{
							"internalType": "enum Types.Type[]",
							"name": "",
							"type": "uint8[]"
						}
					],
					"stateMutability": "view",
					"type": "function"
				},
				{
					"inputs": [
						{
							"internalType": "enum IComponent.MethodTypes",
							"name": "_methodTypes",
							"type": "uint8"
						}
					],
					"name": "getMethods",
					"outputs": [
						{
							"internalType": "string[]",
							"name": "",
							"type": "string[]"
						}
					],
					"stateMutability": "view",
					"type": "function"
				},
				{
					"inputs": [],
					"name": "options",
					"outputs": [
						{
							"internalType": "enum IComponent.MethodTypes[]",
							"name": "",
							"type": "uint8[]"
						}
					],
					"stateMutability": "pure",
					"type": "function"
				},
				{
					"inputs": [],
					"name": "owner",
					"outputs": [
						{
							"internalType": "address",
							"name": "",
							"type": "address"
						}
					],
					"stateMutability": "view",
					"type": "function"
				},
				{
					"inputs": [
						{
							"internalType": "string",
							"name": "_methodName",
							"type": "string"
						},
						{
							"internalType": "bytes",
							"name": "_methodReq",
							"type": "bytes"
						}
					],
					"name": "post",
					"outputs": [
						{
							"internalType": "bytes",
							"name": "",
							"type": "bytes"
						}
					],
					"stateMutability": "payable",
					"type": "function"
				},
				{
					"inputs": [
						{
							"internalType": "string",
							"name": "_methodName",
							"type": "string"
						},
						{
							"internalType": "bytes",
							"name": "_methodReq",
							"type": "bytes"
						}
					],
					"name": "put",
					"outputs": [
						{
							"internalType": "bytes",
							"name": "",
							"type": "bytes"
						}
					],
					"stateMutability": "payable",
					"type": "function"
				},
				{
					"inputs": [],
					"name": "renounceOwnership",
					"outputs": [],
					"stateMutability": "nonpayable",
					"type": "function"
				},
				{
					"inputs": [
						{
							"internalType": "address",
							"name": "newOwner",
							"type": "address"
						}
					],
					"name": "transferOwnership",
					"outputs": [],
					"stateMutability": "nonpayable",
					"type": "function"
				}
			],
			"devdoc": {
				"events": {
					"Response(bytes)": {
						"params": {
							"_response": "is the response value of the post request or put request."
						}
					}
				},
				"kind": "dev",
				"methods": {
					"get(string,bytes)": {
						"params": {
							"_methodName": "is the method name.",
							"_methodReq": "is the method type."
						},
						"returns": {
							"_0": "The response to the get request."
						}
					},
					"getMethodReqAndRes(string)": {
						"params": {
							"_methodName": "is the method name."
						},
						"returns": {
							"_0": "Data types of request parameters and return parameters."
						}
					},
					"getMethods(uint8)": {
						"params": {
							"_methodTypes": "is the request method type."
						},
						"returns": {
							"_0": "Method names."
						}
					},
					"options()": {
						"returns": {
							"_0": "Method types."
						}
					},
					"owner()": {
						"details": "Returns the address of the current owner."
					},
					"post(string,bytes)": {
						"params": {
							"_methodName": "is the method name.",
							"_methodReq": "is the method type."
						},
						"returns": {
							"_0": "The response to the post request."
						}
					},
					"put(string,bytes)": {
						"params": {
							"_methodName": "is the method name.",
							"_methodReq": "is the method type."
						},
						"returns": {
							"_0": "The response to the put request."
						}
					},
					"renounceOwnership()": {
						"details": "Leaves the contract without owner. It will not be possible to call `onlyOwner` functions anymore. Can only be called by the current owner. NOTE: Renouncing ownership will leave the contract without an owner, thereby removing any functionality that is only available to the owner."
					},
					"transferOwnership(address)": {
						"details": "Transfers ownership of the contract to a new account (`newOwner`). Can only be called by the current owner."
					}
				},
				"version": 1
			},
			"evm": {
				"assembly": "    /* \"contracts/AmeComponents/VibeComment/VibeComment.sol\":281:11205  contract VibeComment is IComponent, Ownable {... */\n  mstore(0x40, 0x80)\n    /* \"contracts/AmeComponents/VibeComment/VibeComment.sol\":1209:2540  constructor() Ownable() {... */\n  callvalue\n  dup1\n  iszero\n  tag_1\n  jumpi\n  0x00\n  dup1\n  revert\ntag_1:\n  pop\n    /* \"https://github.com/OpenZeppelin/openzeppelin-contracts/blob/release-v4.2/contracts/access/Ownable.sol\":921:953  _transferOwnership(_msgSender()) */\n  tag_5\n    /* \"https://github.com/OpenZeppelin/openzeppelin-contracts/blob/release-v4.2/contracts/access/Ownable.sol\":940:952  _msgSender() */\n  tag_6\n    /* \"https://github.com/OpenZeppelin/openzeppelin-contracts/blob/release-v4.2/contracts/access/Ownable.sol\":940:950  _msgSender */\n  shl(0x20, tag_7)\n    /* \"https://github.com/OpenZeppelin/openzeppelin-contracts/blob/release-v4.2/contracts/access/Ownable.sol\":940:952  _msgSender() */\n  0x20\n  shr\n  jump\t// in\ntag_6:\n    /* \"https://github.com/OpenZeppelin/openzeppelin-contracts/blob/release-v4.2/contracts/access/Ownable.sol\":921:939  _transferOwnership */\n  shl(0x20, tag_8)\n    /* \"https://github.com/OpenZeppelin/openzeppelin-contracts/blob/release-v4.2/contracts/access/Ownable.sol\":921:953  _transferOwnership(_msgSender()) */\n  0x20\n  shr\n  jump\t// in\ntag_5:\n    /* \"contracts/AmeComponents/VibeComment/VibeComment.sol\":1243:1268  Types.Type[] memory type1 */\n  0x00\n    /* \"contracts/AmeComponents/VibeComment/VibeComment.sol\":1288:1289  3 */\n  0x03\n    /* \"contracts/AmeComponents/VibeComment/VibeComment.sol\":1271:1290  new Types.Type[](3) */\n  0xffffffffffffffff\n  dup2\n  gt\n  iszero\n  tag_10\n  jumpi\n  tag_11\n  tag_12\n  jump\t// in\ntag_11:\ntag_10:\n  mload(0x40)\n  swap1\n  dup1\n  dup3\n  mstore\n  dup1\n  0x20\n  mul\n  0x20\n  add\n  dup3\n  add\n  0x40\n  mstore\n  dup1\n  iszero\n  tag_13\n  jumpi\n  dup2\n  0x20\n  add\n  0x20\n  dup3\n  mul\n  dup1\n  calldatasize\n  dup4\n  calldatacopy\n  dup1\n  dup3\n  add\n  swap2\n  pop\n  pop\n  swap1\n  pop\ntag_13:\n  pop\n    /* \"contracts/AmeComponents/VibeComment/VibeComment.sol\":1243:1290  Types.Type[] memory type1 = new Types.Type[](3) */\n  swap1\n  pop\n    /* \"contracts/AmeComponents/VibeComment/VibeComment.sol\":1311:1329  Types.Type.UINT256 */\n  0x40\n    /* \"contracts/AmeComponents/VibeComment/VibeComment.sol\":1300:1305  type1 */\n  dup2\n    /* \"contracts/AmeComponents/VibeComment/VibeComment.sol\":1306:1307  0 */\n  0x00\n    /* \"contracts/AmeComponents/VibeComment/VibeComment.sol\":1300:1308  type1[0] */\n  dup2\n  mload\n  dup2\n  lt\n  tag_14\n  jumpi\n  tag_15\n  tag_16\n  jump\t// in\ntag_15:\ntag_14:\n  0x20\n  mul\n  0x20\n  add\n  add\n    /* \"contracts/AmeComponents/VibeComment/VibeComment.sol\":1300:1329  type1[0] = Types.Type.UINT256 */\n  swap1\n  0xc6\n  dup2\n  gt\n  iszero\n  tag_17\n  jumpi\n  tag_18\n  tag_19\n  jump\t// in\ntag_18:\ntag_17:\n  swap1\n  dup2\n  0xc6\n  dup2\n  gt\n  iszero\n  tag_20\n  jumpi\n  tag_21\n  tag_19\n  jump\t// in\ntag_21:\ntag_20:\n  dup2\n  mstore\n  pop\n  pop\n    /* \"contracts/AmeComponents/VibeComment/VibeComment.sol\":1350:1367  Types.Type.STRING */\n  0x63\n    /* \"contracts/AmeComponents/VibeComment/VibeComment.sol\":1339:1344  type1 */\n  dup2\n    /* \"contracts/AmeComponents/VibeComment/VibeComment.sol\":1345:1346  1 */\n  0x01\n    /* \"contracts/AmeComponents/VibeComment/VibeComment.sol\":1339:1347  type1[1] */\n  dup2\n  mload\n  dup2\n  lt\n  tag_22\n  jumpi\n  tag_23\n  tag_16\n  jump\t// in\ntag_23:\ntag_22:\n  0x20\n  mul\n  0x20\n  add\n  add\n    /* \"contracts/AmeComponents/VibeComment/VibeComment.sol\":1339:1367  type1[1] = Types.Type.STRING */\n  swap1\n  0xc6\n  dup2\n  gt\n  iszero\n  tag_24\n  jumpi\n  tag_25\n  tag_19\n  jump\t// in\ntag_25:\ntag_24:\n  swap1\n  dup2\n  0xc6\n  dup2\n  gt\n  iszero\n  tag_26\n  jumpi\n  tag_27\n  tag_19\n  jump\t// in\ntag_27:\ntag_26:\n  dup2\n  mstore\n  pop\n  pop\n    /* \"contracts/AmeComponents/VibeComment/VibeComment.sol\":1388:1405  Types.Type.STRING */\n  0x63\n    /* \"contracts/AmeComponents/VibeComment/VibeComment.sol\":1377:1382  type1 */\n  dup2\n    /* \"contracts/AmeComponents/VibeComment/VibeComment.sol\":1383:1384  2 */\n  0x02\n    /* \"contracts/AmeComponents/VibeComment/VibeComment.sol\":1377:1385  type1[2] */\n  dup2\n  mload\n  dup2\n  lt\n  tag_28\n  jumpi\n  tag_29\n  tag_16\n  jump\t// in\ntag_29:\ntag_28:\n  0x20\n  mul\n  0x20\n  add\n  add\n    /* \"contracts/AmeComponents/VibeComment/VibeComment.sol\":1377:1405  type1[2] = Types.Type.STRING */\n  swap1\n  0xc6\n  dup2\n  gt\n  iszero\n  tag_30\n  jumpi\n  tag_31\n  tag_19\n  jump\t// in\ntag_31:\ntag_30:\n  swap1\n  dup2\n  0xc6\n  dup2\n  gt\n  iszero\n  tag_32\n  jumpi\n  tag_33\n  tag_19\n  jump\t// in\ntag_33:\ntag_32:\n  dup2\n  mstore\n  pop\n  pop\n    /* \"contracts/AmeComponents/VibeComment/VibeComment.sol\":1416:1441  Types.Type[] memory type2 */\n  0x00\n    /* \"contracts/AmeComponents/VibeComment/VibeComment.sol\":1461:1462  1 */\n  0x01\n    /* \"contracts/AmeComponents/VibeComment/VibeComment.sol\":1444:1463  new Types.Type[](1) */\n  0xffffffffffffffff\n  dup2\n  gt\n  iszero\n  tag_34\n  jumpi\n  tag_35\n  tag_12\n  jump\t// in\ntag_35:\ntag_34:\n  mload(0x40)\n  swap1\n  dup1\n  dup3\n  mstore\n  dup1\n  0x20\n  mul\n  0x20\n  add\n  dup3\n  add\n  0x40\n  mstore\n  dup1\n  iszero\n  tag_36\n  jumpi\n  dup2\n  0x20\n  add\n  0x20\n  dup3\n  mul\n  dup1\n  calldatasize\n  dup4\n  calldatacopy\n  dup1\n  dup3\n  add\n  swap2\n  pop\n  pop\n  swap1\n  pop\ntag_36:\n  pop\n    /* \"contracts/AmeComponents/VibeComment/VibeComment.sol\":1416:1463  Types.Type[] memory type2 = new Types.Type[](1) */\n  swap1\n  pop\n    /* \"contracts/AmeComponents/VibeComment/VibeComment.sol\":1484:1502  Types.Type.UINT256 */\n  0x40\n    /* \"contracts/AmeComponents/VibeComment/VibeComment.sol\":1473:1478  type2 */\n  dup2\n    /* \"contracts/AmeComponents/VibeComment/VibeComment.sol\":1479:1480  0 */\n  0x00\n    /* \"contracts/AmeComponents/VibeComment/VibeComment.sol\":1473:1481  type2[0] */\n  dup2\n  mload\n  dup2\n  lt\n  tag_37\n  jumpi\n  tag_38\n  tag_16\n  jump\t// in\ntag_38:\ntag_37:\n  0x20\n  mul\n  0x20\n  add\n  add\n    /* \"contracts/AmeComponents/VibeComment/VibeComment.sol\":1473:1502  type2[0] = Types.Type.UINT256 */\n  swap1\n  0xc6\n  dup2\n  gt\n  iszero\n  tag_39\n  jumpi\n  tag_40\n  tag_19\n  jump\t// in\ntag_40:\ntag_39:\n  swap1\n  dup2\n  0xc6\n  dup2\n  gt\n  iszero\n  tag_41\n  jumpi\n  tag_42\n  tag_19\n  jump\t// in\ntag_42:\ntag_41:\n  dup2\n  mstore\n  pop\n  pop\n    /* \"contracts/AmeComponents/VibeComment/VibeComment.sol\":1513:1538  Types.Type[] memory type3 */\n  0x00\n    /* \"contracts/AmeComponents/VibeComment/VibeComment.sol\":1558:1559  4 */\n  0x04\n    /* \"contracts/AmeComponents/VibeComment/VibeComment.sol\":1541:1560  new Types.Type[](4) */\n  0xffffffffffffffff\n  dup2\n  gt\n  iszero\n  tag_43\n  jumpi\n  tag_44\n  tag_12\n  jump\t// in\ntag_44:\ntag_43:\n  mload(0x40)\n  swap1\n  dup1\n  dup3\n  mstore\n  dup1\n  0x20\n  mul\n  0x20\n  add\n  dup3\n  add\n  0x40\n  mstore\n  dup1\n  iszero\n  tag_45\n  jumpi\n  dup2\n  0x20\n  add\n  0x20\n  dup3\n  mul\n  dup1\n  calldatasize\n  dup4\n  calldatacopy\n  dup1\n  dup3\n  add\n  swap2\n  pop\n  pop\n  swap1\n  pop\ntag_45:\n  pop\n    /* \"contracts/AmeComponents/VibeComment/VibeComment.sol\":1513:1560  Types.Type[] memory type3 = new Types.Type[](4) */\n  swap1\n  pop\n    /* \"contracts/AmeComponents/VibeComment/VibeComment.sol\":1581:1599  Types.Type.UINT256 */\n  0x40\n    /* \"contracts/AmeComponents/VibeComment/VibeComment.sol\":1570:1575  type3 */\n  dup2\n    /* \"contracts/AmeComponents/VibeComment/VibeComment.sol\":1576:1577  0 */\n  0x00\n    /* \"contracts/AmeComponents/VibeComment/VibeComment.sol\":1570:1578  type3[0] */\n  dup2\n  mload\n  dup2\n  lt\n  tag_46\n  jumpi\n  tag_47\n  tag_16\n  jump\t// in\ntag_47:\ntag_46:\n  0x20\n  mul\n  0x20\n  add\n  add\n    /* \"contracts/AmeComponents/VibeComment/VibeComment.sol\":1570:1599  type3[0] = Types.Type.UINT256 */\n  swap1\n  0xc6\n  dup2\n  gt\n  iszero\n  tag_48\n  jumpi\n  tag_49\n  tag_19\n  jump\t// in\ntag_49:\ntag_48:\n  swap1\n  dup2\n  0xc6\n  dup2\n  gt\n  iszero\n  tag_50\n  jumpi\n  tag_51\n  tag_19\n  jump\t// in\ntag_51:\ntag_50:\n  dup2\n  mstore\n  pop\n  pop\n    /* \"contracts/AmeComponents/VibeComment/VibeComment.sol\":1620:1638  Types.Type.UINT256 */\n  0x40\n    /* \"contracts/AmeComponents/VibeComment/VibeComment.sol\":1609:1614  type3 */\n  dup2\n    /* \"contracts/AmeComponents/VibeComment/VibeComment.sol\":1615:1616  1 */\n  0x01\n    /* \"contracts/AmeComponents/VibeComment/VibeComment.sol\":1609:1617  type3[1] */\n  dup2\n  mload\n  dup2\n  lt\n  tag_52\n  jumpi\n  tag_53\n  tag_16\n  jump\t// in\ntag_53:\ntag_52:\n  0x20\n  mul\n  0x20\n  add\n  add\n    /* \"contracts/AmeComponents/VibeComment/VibeComment.sol\":1609:1638  type3[1] = Types.Type.UINT256 */\n  swap1\n  0xc6\n  dup2\n  gt\n  iszero\n  tag_54\n  jumpi\n  tag_55\n  tag_19\n  jump\t// in\ntag_55:\ntag_54:\n  swap1\n  dup2\n  0xc6\n  dup2\n  gt\n  iszero\n  tag_56\n  jumpi\n  tag_57\n  tag_19\n  jump\t// in\ntag_57:\ntag_56:\n  dup2\n  mstore\n  pop\n  pop\n    /* \"contracts/AmeComponents/VibeComment/VibeComment.sol\":1659:1676  Types.Type.STRING */\n  0x63\n    /* \"contracts/AmeComponents/VibeComment/VibeComment.sol\":1648:1653  type3 */\n  dup2\n    /* \"contracts/AmeComponents/VibeComment/VibeComment.sol\":1654:1655  2 */\n  0x02\n    /* \"contracts/AmeComponents/VibeComment/VibeComment.sol\":1648:1656  type3[2] */\n  dup2\n  mload\n  dup2\n  lt\n  tag_58\n  jumpi\n  tag_59\n  tag_16\n  jump\t// in\ntag_59:\ntag_58:\n  0x20\n  mul\n  0x20\n  add\n  add\n    /* \"contracts/AmeComponents/VibeComment/VibeComment.sol\":1648:1676  type3[2] = Types.Type.STRING */\n  swap1\n  0xc6\n  dup2\n  gt\n  iszero\n  tag_60\n  jumpi\n  tag_61\n  tag_19\n  jump\t// in\ntag_61:\ntag_60:\n  swap1\n  dup2\n  0xc6\n  dup2\n  gt\n  iszero\n  tag_62\n  jumpi\n  tag_63\n  tag_19\n  jump\t// in\ntag_63:\ntag_62:\n  dup2\n  mstore\n  pop\n  pop\n    /* \"contracts/AmeComponents/VibeComment/VibeComment.sol\":1697:1715  Types.Type.ADDRESS */\n  0x41\n    /* \"contracts/AmeComponents/VibeComment/VibeComment.sol\":1686:1691  type3 */\n  dup2\n    /* \"contracts/AmeComponents/VibeComment/VibeComment.sol\":1692:1693  3 */\n  0x03\n    /* \"contracts/AmeComponents/VibeComment/VibeComment.sol\":1686:1694  type3[3] */\n  dup2\n  mload\n  dup2\n  lt\n  tag_64\n  jumpi\n  tag_65\n  tag_16\n  jump\t// in\ntag_65:\ntag_64:\n  0x20\n  mul\n  0x20\n  add\n  add\n    /* \"contracts/AmeComponents/VibeComment/VibeComment.sol\":1686:1715  type3[3] = Types.Type.ADDRESS */\n  swap1\n  0xc6\n  dup2\n  gt\n  iszero\n  tag_66\n  jumpi\n  tag_67\n  tag_19\n  jump\t// in\ntag_67:\ntag_66:\n  swap1\n  dup2\n  0xc6\n  dup2\n  gt\n  iszero\n  tag_68\n  jumpi\n  tag_69\n  tag_19\n  jump\t// in\ntag_69:\ntag_68:\n  dup2\n  mstore\n  pop\n  pop\n    /* \"contracts/AmeComponents/VibeComment/VibeComment.sol\":1726:1751  Types.Type[] memory type4 */\n  0x00\n    /* \"contracts/AmeComponents/VibeComment/VibeComment.sol\":1771:1772  3 */\n  0x03\n    /* \"contracts/AmeComponents/VibeComment/VibeComment.sol\":1754:1773  new Types.Type[](3) */\n  0xffffffffffffffff\n  dup2\n  gt\n  iszero\n  tag_70\n  jumpi\n  tag_71\n  tag_12\n  jump\t// in\ntag_71:\ntag_70:\n  mload(0x40)\n  swap1\n  dup1\n  dup3\n  mstore\n  dup1\n  0x20\n  mul\n  0x20\n  add\n  dup3\n  add\n  0x40\n  mstore\n  dup1\n  iszero\n  tag_72\n  jumpi\n  dup2\n  0x20\n  add\n  0x20\n  dup3\n  mul\n  dup1\n  calldatasize\n  dup4\n  calldatacopy\n  dup1\n  dup3\n  add\n  swap2\n  pop\n  pop\n  swap1\n  pop\ntag_72:\n  pop\n    /* \"contracts/AmeComponents/VibeComment/VibeComment.sol\":1726:1773  Types.Type[] memory type4 = new Types.Type[](3) */\n  swap1\n  pop\n    /* \"contracts/AmeComponents/VibeComment/VibeComment.sol\":1794:1812  Types.Type.UINT256 */\n  0x40\n    /* \"contracts/AmeComponents/VibeComment/VibeComment.sol\":1783:1788  type4 */\n  dup2\n    /* \"contracts/AmeComponents/VibeComment/VibeComment.sol\":1789:1790  0 */\n  0x00\n    /* \"contracts/AmeComponents/VibeComment/VibeComment.sol\":1783:1791  type4[0] */\n  dup2\n  mload\n  dup2\n  lt\n  tag_73\n  jumpi\n  tag_74\n  tag_16\n  jump\t// in\ntag_74:\ntag_73:\n  0x20\n  mul\n  0x20\n  add\n  add\n    /* \"contracts/AmeComponents/VibeComment/VibeComment.sol\":1783:1812  type4[0] = Types.Type.UINT256 */\n  swap1\n  0xc6\n  dup2\n  gt\n  iszero\n  tag_75\n  jumpi\n  tag_76\n  tag_19\n  jump\t// in\ntag_76:\ntag_75:\n  swap1\n  dup2\n  0xc6\n  dup2\n  gt\n  iszero\n  tag_77\n  jumpi\n  tag_78\n  tag_19\n  jump\t// in\ntag_78:\ntag_77:\n  dup2\n  mstore\n  pop\n  pop\n    /* \"contracts/AmeComponents/VibeComment/VibeComment.sol\":1833:1851  Types.Type.UINT256 */\n  0x40\n    /* \"contracts/AmeComponents/VibeComment/VibeComment.sol\":1822:1827  type4 */\n  dup2\n    /* \"contracts/AmeComponents/VibeComment/VibeComment.sol\":1828:1829  1 */\n  0x01\n    /* \"contracts/AmeComponents/VibeComment/VibeComment.sol\":1822:1830  type4[1] */\n  dup2\n  mload\n  dup2\n  lt\n  tag_79\n  jumpi\n  tag_80\n  tag_16\n  jump\t// in\ntag_80:\ntag_79:\n  0x20\n  mul\n  0x20\n  add\n  add\n    /* \"contracts/AmeComponents/VibeComment/VibeComment.sol\":1822:1851  type4[1] = Types.Type.UINT256 */\n  swap1\n  0xc6\n  dup2\n  gt\n  iszero\n  tag_81\n  jumpi\n  tag_82\n  tag_19\n  jump\t// in\ntag_82:\ntag_81:\n  swap1\n  dup2\n  0xc6\n  dup2\n  gt\n  iszero\n  tag_83\n  jumpi\n  tag_84\n  tag_19\n  jump\t// in\ntag_84:\ntag_83:\n  dup2\n  mstore\n  pop\n  pop\n    /* \"contracts/AmeComponents/VibeComment/VibeComment.sol\":1872:1890  Types.Type.UINT256 */\n  0x40\n    /* \"contracts/AmeComponents/VibeComment/VibeComment.sol\":1861:1866  type4 */\n  dup2\n    /* \"contracts/AmeComponents/VibeComment/VibeComment.sol\":1867:1868  2 */\n  0x02\n    /* \"contracts/AmeComponents/VibeComment/VibeComment.sol\":1861:1869  type4[2] */\n  dup2\n  mload\n  dup2\n  lt\n  tag_85\n  jumpi\n  tag_86\n  tag_16\n  jump\t// in\ntag_86:\ntag_85:\n  0x20\n  mul\n  0x20\n  add\n  add\n    /* \"contracts/AmeComponents/VibeComment/VibeComment.sol\":1861:1890  type4[2] = Types.Type.UINT256 */\n  swap1\n  0xc6\n  dup2\n  gt\n  iszero\n  tag_87\n  jumpi\n  tag_88\n  tag_19\n  jump\t// in\ntag_88:\ntag_87:\n  swap1\n  dup2\n  0xc6\n  dup2\n  gt\n  iszero\n  tag_89\n  jumpi\n  tag_90\n  tag_19\n  jump\t// in\ntag_90:\ntag_89:\n  dup2\n  mstore\n  pop\n  pop\n    /* \"contracts/AmeComponents/VibeComment/VibeComment.sol\":1901:1926  Types.Type[] memory type5 */\n  0x00\n    /* \"contracts/AmeComponents/VibeComment/VibeComment.sol\":1946:1947  1 */\n  0x01\n    /* \"contracts/AmeComponents/VibeComment/VibeComment.sol\":1929:1948  new Types.Type[](1) */\n  0xffffffffffffffff\n  dup2\n  gt\n  iszero\n  tag_91\n  jumpi\n  tag_92\n  tag_12\n  jump\t// in\ntag_92:\ntag_91:\n  mload(0x40)\n  swap1\n  dup1\n  dup3\n  mstore\n  dup1\n  0x20\n  mul\n  0x20\n  add\n  dup3\n  add\n  0x40\n  mstore\n  dup1\n  iszero\n  tag_93\n  jumpi\n  dup2\n  0x20\n  add\n  0x20\n  dup3\n  mul\n  dup1\n  calldatasize\n  dup4\n  calldatacopy\n  dup1\n  dup3\n  add\n  swap2\n  pop\n  pop\n  swap1\n  pop\ntag_93:\n  pop\n    /* \"contracts/AmeComponents/VibeComment/VibeComment.sol\":1901:1948  Types.Type[] memory type5 = new Types.Type[](1) */\n  swap1\n  pop\n    /* \"contracts/AmeComponents/VibeComment/VibeComment.sol\":1969:1992  Types.Type.STRING_ARRAY */\n  0xc6\n    /* \"contracts/AmeComponents/VibeComment/VibeComment.sol\":1958:1963  type5 */\n  dup2\n    /* \"contracts/AmeComponents/VibeComment/VibeComment.sol\":1964:1965  0 */\n  0x00\n    /* \"contracts/AmeComponents/VibeComment/VibeComment.sol\":1958:1966  type5[0] */\n  dup2\n  mload\n  dup2\n  lt\n  tag_94\n  jumpi\n  tag_95\n  tag_16\n  jump\t// in\ntag_95:\ntag_94:\n  0x20\n  mul\n  0x20\n  add\n  add\n    /* \"contracts/AmeComponents/VibeComment/VibeComment.sol\":1958:1992  type5[0] = Types.Type.STRING_ARRAY */\n  swap1\n  0xc6\n  dup2\n  gt\n  iszero\n  tag_96\n  jumpi\n  tag_97\n  tag_19\n  jump\t// in\ntag_97:\ntag_96:\n  swap1\n  dup2\n  0xc6\n  dup2\n  gt\n  iszero\n  tag_98\n  jumpi\n  tag_99\n  tag_19\n  jump\t// in\ntag_99:\ntag_98:\n  dup2\n  mstore\n  pop\n  pop\n    /* \"contracts/AmeComponents/VibeComment/VibeComment.sol\":2003:2028  Types.Type[] memory type6 */\n  0x00\n    /* \"contracts/AmeComponents/VibeComment/VibeComment.sol\":2048:2049  3 */\n  0x03\n    /* \"contracts/AmeComponents/VibeComment/VibeComment.sol\":2031:2050  new Types.Type[](3) */\n  0xffffffffffffffff\n  dup2\n  gt\n  iszero\n  tag_100\n  jumpi\n  tag_101\n  tag_12\n  jump\t// in\ntag_101:\ntag_100:\n  mload(0x40)\n  swap1\n  dup1\n  dup3\n  mstore\n  dup1\n  0x20\n  mul\n  0x20\n  add\n  dup3\n  add\n  0x40\n  mstore\n  dup1\n  iszero\n  tag_102\n  jumpi\n  dup2\n  0x20\n  add\n  0x20\n  dup3\n  mul\n  dup1\n  calldatasize\n  dup4\n  calldatacopy\n  dup1\n  dup3\n  add\n  swap2\n  pop\n  pop\n  swap1\n  pop\ntag_102:\n  pop\n    /* \"contracts/AmeComponents/VibeComment/VibeComment.sol\":2003:2050  Types.Type[] memory type6 = new Types.Type[](3) */\n  swap1\n  pop\n    /* \"contracts/AmeComponents/VibeComment/VibeComment.sol\":2071:2089  Types.Type.ADDRESS */\n  0x41\n    /* \"contracts/AmeComponents/VibeComment/VibeComment.sol\":2060:2065  type6 */\n  dup2\n    /* \"contracts/AmeComponents/VibeComment/VibeComment.sol\":2066:2067  0 */\n  0x00\n    /* \"contracts/AmeComponents/VibeComment/VibeComment.sol\":2060:2068  type6[0] */\n  dup2\n  mload\n  dup2\n  lt\n  tag_103\n  jumpi\n  tag_104\n  tag_16\n  jump\t// in\ntag_104:\ntag_103:\n  0x20\n  mul\n  0x20\n  add\n  add\n    /* \"contracts/AmeComponents/VibeComment/VibeComment.sol\":2060:2089  type6[0] = Types.Type.ADDRESS */\n  swap1\n  0xc6\n  dup2\n  gt\n  iszero\n  tag_105\n  jumpi\n  tag_106\n  tag_19\n  jump\t// in\ntag_106:\ntag_105:\n  swap1\n  dup2\n  0xc6\n  dup2\n  gt\n  iszero\n  tag_107\n  jumpi\n  tag_108\n  tag_19\n  jump\t// in\ntag_108:\ntag_107:\n  dup2\n  mstore\n  pop\n  pop\n    /* \"contracts/AmeComponents/VibeComment/VibeComment.sol\":2110:2128  Types.Type.UINT256 */\n  0x40\n    /* \"contracts/AmeComponents/VibeComment/VibeComment.sol\":2099:2104  type6 */\n  dup2\n    /* \"contracts/AmeComponents/VibeComment/VibeComment.sol\":2105:2106  1 */\n  0x01\n    /* \"contracts/AmeComponents/VibeComment/VibeComment.sol\":2099:2107  type6[1] */\n  dup2\n  mload\n  dup2\n  lt\n  tag_109\n  jumpi\n  tag_110\n  tag_16\n  jump\t// in\ntag_110:\ntag_109:\n  0x20\n  mul\n  0x20\n  add\n  add\n    /* \"contracts/AmeComponents/VibeComment/VibeComment.sol\":2099:2128  type6[1] = Types.Type.UINT256 */\n  swap1\n  0xc6\n  dup2\n  gt\n  iszero\n  tag_111\n  jumpi\n  tag_112\n  tag_19\n  jump\t// in\ntag_112:\ntag_111:\n  swap1\n  dup2\n  0xc6\n  dup2\n  gt\n  iszero\n  tag_113\n  jumpi\n  tag_114\n  tag_19\n  jump\t// in\ntag_114:\ntag_113:\n  dup2\n  mstore\n  pop\n  pop\n    /* \"contracts/AmeComponents/VibeComment/VibeComment.sol\":2149:2167  Types.Type.UINT256 */\n  0x40\n    /* \"contracts/AmeComponents/VibeComment/VibeComment.sol\":2138:2143  type6 */\n  dup2\n    /* \"contracts/AmeComponents/VibeComment/VibeComment.sol\":2144:2145  2 */\n  0x02\n    /* \"contracts/AmeComponents/VibeComment/VibeComment.sol\":2138:2146  type6[2] */\n  dup2\n  mload\n  dup2\n  lt\n  tag_115\n  jumpi\n  tag_116\n  tag_16\n  jump\t// in\ntag_116:\ntag_115:\n  0x20\n  mul\n  0x20\n  add\n  add\n    /* \"contracts/AmeComponents/VibeComment/VibeComment.sol\":2138:2167  type6[2] = Types.Type.UINT256 */\n  swap1\n  0xc6\n  dup2\n  gt\n  iszero\n  tag_117\n  jumpi\n  tag_118\n  tag_19\n  jump\t// in\ntag_118:\ntag_117:\n  swap1\n  dup2\n  0xc6\n  dup2\n  gt\n  iszero\n  tag_119\n  jumpi\n  tag_120\n  tag_19\n  jump\t// in\ntag_120:\ntag_119:\n  dup2\n  mstore\n  pop\n  pop\n    /* \"contracts/AmeComponents/VibeComment/VibeComment.sol\":2178:2248  setMethod(\"postComment\", MethodTypes.POST, type1, new Types.Type[](0)) */\n  tag_121\n  mload(0x40)\n  dup1\n  0x40\n  add\n  0x40\n  mstore\n  dup1\n  0x0b\n  dup2\n  mstore\n  0x20\n  add\n  0x706f7374436f6d6d656e74000000000000000000000000000000000000000000\n  dup2\n  mstore\n  pop\n    /* \"contracts/AmeComponents/VibeComment/VibeComment.sol\":2203:2219  MethodTypes.POST */\n  0x01\n    /* \"contracts/AmeComponents/VibeComment/VibeComment.sol\":2221:2226  type1 */\n  dup9\n    /* \"contracts/AmeComponents/VibeComment/VibeComment.sol\":2245:2246  0 */\n  0x00\n    /* \"contracts/AmeComponents/VibeComment/VibeComment.sol\":2228:2247  new Types.Type[](0) */\n  0xffffffffffffffff\n  dup2\n  gt\n  iszero\n  tag_122\n  jumpi\n  tag_123\n  tag_12\n  jump\t// in\ntag_123:\ntag_122:\n  mload(0x40)\n  swap1\n  dup1\n  dup3\n  mstore\n  dup1\n  0x20\n  mul\n  0x20\n  add\n  dup3\n  add\n  0x40\n  mstore\n  dup1\n  iszero\n  tag_124\n  jumpi\n  dup2\n  0x20\n  add\n  0x20\n  dup3\n  mul\n  dup1\n  calldatasize\n  dup4\n  calldatacopy\n  dup1\n  dup3\n  add\n  swap2\n  pop\n  pop\n  swap1\n  pop\ntag_124:\n  pop\n    /* \"contracts/AmeComponents/VibeComment/VibeComment.sol\":2178:2187  setMethod */\n  shl(0x20, tag_125)\n    /* \"contracts/AmeComponents/VibeComment/VibeComment.sol\":2178:2248  setMethod(\"postComment\", MethodTypes.POST, type1, new Types.Type[](0)) */\n  0x20\n  shr\n  jump\t// in\ntag_121:\n    /* \"contracts/AmeComponents/VibeComment/VibeComment.sol\":2258:2330  setMethod(\"deleteComment\", MethodTypes.POST, type2, new Types.Type[](0)) */\n  tag_126\n  mload(0x40)\n  dup1\n  0x40\n  add\n  0x40\n  mstore\n  dup1\n  0x0d\n  dup2\n  mstore\n  0x20\n  add\n  0x64656c657465436f6d6d656e7400000000000000000000000000000000000000\n  dup2\n  mstore\n  pop\n    /* \"contracts/AmeComponents/VibeComment/VibeComment.sol\":2285:2301  MethodTypes.POST */\n  0x01\n    /* \"contracts/AmeComponents/VibeComment/VibeComment.sol\":2303:2308  type2 */\n  dup8\n    /* \"contracts/AmeComponents/VibeComment/VibeComment.sol\":2327:2328  0 */\n  0x00\n    /* \"contracts/AmeComponents/VibeComment/VibeComment.sol\":2310:2329  new Types.Type[](0) */\n  0xffffffffffffffff\n  dup2\n  gt\n  iszero\n  tag_127\n  jumpi\n  tag_128\n  tag_12\n  jump\t// in\ntag_128:\ntag_127:\n  mload(0x40)\n  swap1\n  dup1\n  dup3\n  mstore\n  dup1\n  0x20\n  mul\n  0x20\n  add\n  dup3\n  add\n  0x40\n  mstore\n  dup1\n  iszero\n  tag_129\n  jumpi\n  dup2\n  0x20\n  add\n  0x20\n  dup3\n  mul\n  dup1\n  calldatasize\n  dup4\n  calldatacopy\n  dup1\n  dup3\n  add\n  swap2\n  pop\n  pop\n  swap1\n  pop\ntag_129:\n  pop\n    /* \"contracts/AmeComponents/VibeComment/VibeComment.sol\":2258:2267  setMethod */\n  shl(0x20, tag_125)\n    /* \"contracts/AmeComponents/VibeComment/VibeComment.sol\":2258:2330  setMethod(\"deleteComment\", MethodTypes.POST, type2, new Types.Type[](0)) */\n  0x20\n  shr\n  jump\t// in\ntag_126:\n    /* \"contracts/AmeComponents/VibeComment/VibeComment.sol\":2340:2394  setMethod(\"getComment\", MethodTypes.GET, type2, type3) */\n  tag_130\n  mload(0x40)\n  dup1\n  0x40\n  add\n  0x40\n  mstore\n  dup1\n  0x0a\n  dup2\n  mstore\n  0x20\n  add\n  0x676574436f6d6d656e7400000000000000000000000000000000000000000000\n  dup2\n  mstore\n  pop\n    /* \"contracts/AmeComponents/VibeComment/VibeComment.sol\":2364:2379  MethodTypes.GET */\n  0x00\n    /* \"contracts/AmeComponents/VibeComment/VibeComment.sol\":2381:2386  type2 */\n  dup8\n    /* \"contracts/AmeComponents/VibeComment/VibeComment.sol\":2388:2393  type3 */\n  dup8\n    /* \"contracts/AmeComponents/VibeComment/VibeComment.sol\":2340:2349  setMethod */\n  shl(0x20, tag_125)\n    /* \"contracts/AmeComponents/VibeComment/VibeComment.sol\":2340:2394  setMethod(\"getComment\", MethodTypes.GET, type2, type3) */\n  0x20\n  shr\n  jump\t// in\ntag_130:\n    /* \"contracts/AmeComponents/VibeComment/VibeComment.sol\":2404:2459  setMethod(\"getComments\", MethodTypes.GET, type4, type5) */\n  tag_131\n  mload(0x40)\n  dup1\n  0x40\n  add\n  0x40\n  mstore\n  dup1\n  0x0b\n  dup2\n  mstore\n  0x20\n  add\n  0x676574436f6d6d656e7473000000000000000000000000000000000000000000\n  dup2\n  mstore\n  pop\n    /* \"contracts/AmeComponents/VibeComment/VibeComment.sol\":2429:2444  MethodTypes.GET */\n  0x00\n    /* \"contracts/AmeComponents/VibeComment/VibeComment.sol\":2446:2451  type4 */\n  dup6\n    /* \"contracts/AmeComponents/VibeComment/VibeComment.sol\":2453:2458  type5 */\n  dup6\n    /* \"contracts/AmeComponents/VibeComment/VibeComment.sol\":2404:2413  setMethod */\n  shl(0x20, tag_125)\n    /* \"contracts/AmeComponents/VibeComment/VibeComment.sol\":2404:2459  setMethod(\"getComments\", MethodTypes.GET, type4, type5) */\n  0x20\n  shr\n  jump\t// in\ntag_131:\n    /* \"contracts/AmeComponents/VibeComment/VibeComment.sol\":2469:2533  setMethod(\"getCommentsByAddress\", MethodTypes.GET, type6, type5) */\n  tag_132\n  mload(0x40)\n  dup1\n  0x40\n  add\n  0x40\n  mstore\n  dup1\n  0x14\n  dup2\n  mstore\n  0x20\n  add\n  0x676574436f6d6d656e7473427941646472657373000000000000000000000000\n  dup2\n  mstore\n  pop\n    /* \"contracts/AmeComponents/VibeComment/VibeComment.sol\":2503:2518  MethodTypes.GET */\n  0x00\n    /* \"contracts/AmeComponents/VibeComment/VibeComment.sol\":2520:2525  type6 */\n  dup4\n    /* \"contracts/AmeComponents/VibeComment/VibeComment.sol\":2527:2532  type5 */\n  dup6\n    /* \"contracts/AmeComponents/VibeComment/VibeComment.sol\":2469:2478  setMethod */\n  shl(0x20, tag_125)\n    /* \"contracts/AmeComponents/VibeComment/VibeComment.sol\":2469:2533  setMethod(\"getCommentsByAddress\", MethodTypes.GET, type6, type5) */\n  0x20\n  shr\n  jump\t// in\ntag_132:\n    /* \"contracts/AmeComponents/VibeComment/VibeComment.sol\":1233:2540  {... */\n  pop\n  pop\n  pop\n  pop\n  pop\n  pop\n    /* \"contracts/AmeComponents/VibeComment/VibeComment.sol\":281:11205  contract VibeComment is IComponent, Ownable {... */\n  jump(tag_133)\n    /* \"https://github.com/OpenZeppelin/openzeppelin-contracts/blob/release-v4.2/contracts/utils/Context.sol\":586:682  function _msgSender() internal view virtual returns (address) {... */\ntag_7:\n    /* \"https://github.com/OpenZeppelin/openzeppelin-contracts/blob/release-v4.2/contracts/utils/Context.sol\":639:646  address */\n  0x00\n    /* \"https://github.com/OpenZeppelin/openzeppelin-contracts/blob/release-v4.2/contracts/utils/Context.sol\":665:675  msg.sender */\n  caller\n    /* \"https://github.com/OpenZeppelin/openzeppelin-contracts/blob/release-v4.2/contracts/utils/Context.sol\":658:675  return msg.sender */\n  swap1\n  pop\n    /* \"https://github.com/OpenZeppelin/openzeppelin-contracts/blob/release-v4.2/contracts/utils/Context.sol\":586:682  function _msgSender() internal view virtual returns (address) {... */\n  swap1\n  jump\t// out\n    /* \"https://github.com/OpenZeppelin/openzeppelin-contracts/blob/release-v4.2/contracts/access/Ownable.sol\":2270:2457  function _transferOwnership(address newOwner) internal virtual {... */\ntag_8:\n    /* \"https://github.com/OpenZeppelin/openzeppelin-contracts/blob/release-v4.2/contracts/access/Ownable.sol\":2343:2359  address oldOwner */\n  0x00\n    /* \"https://github.com/OpenZeppelin/openzeppelin-contracts/blob/release-v4.2/contracts/access/Ownable.sol\":2362:2368  _owner */\n  dup1\n  0x00\n  swap1\n  sload\n  swap1\n  0x0100\n  exp\n  swap1\n  div\n  0xffffffffffffffffffffffffffffffffffffffff\n  and\n    /* \"https://github.com/OpenZeppelin/openzeppelin-contracts/blob/release-v4.2/contracts/access/Ownable.sol\":2343:2368  address oldOwner = _owner */\n  swap1\n  pop\n    /* \"https://github.com/OpenZeppelin/openzeppelin-contracts/blob/release-v4.2/contracts/access/Ownable.sol\":2387:2395  newOwner */\n  dup2\n    /* \"https://github.com/OpenZeppelin/openzeppelin-contracts/blob/release-v4.2/contracts/access/Ownable.sol\":2378:2384  _owner */\n  0x00\n  dup1\n    /* \"https://github.com/OpenZeppelin/openzeppelin-contracts/blob/release-v4.2/contracts/access/Ownable.sol\":2378:2395  _owner = newOwner */\n  0x0100\n  exp\n  dup2\n  sload\n  dup2\n  0xffffffffffffffffffffffffffffffffffffffff\n  mul\n  not\n  and\n  swap1\n  dup4\n  0xffffffffffffffffffffffffffffffffffffffff\n  and\n  mul\n  or\n  swap1\n  sstore\n  pop\n    /* \"https://github.com/OpenZeppelin/openzeppelin-contracts/blob/release-v4.2/contracts/access/Ownable.sol\":2441:2449  newOwner */\n  dup2\n    /* \"https://github.com/OpenZeppelin/openzeppelin-contracts/blob/release-v4.2/contracts/access/Ownable.sol\":2410:2450  OwnershipTransferred(oldOwner, newOwner) */\n  0xffffffffffffffffffffffffffffffffffffffff\n  and\n    /* \"https://github.com/OpenZeppelin/openzeppelin-contracts/blob/release-v4.2/contracts/access/Ownable.sol\":2431:2439  oldOwner */\n  dup2\n    /* \"https://github.com/OpenZeppelin/openzeppelin-contracts/blob/release-v4.2/contracts/access/Ownable.sol\":2410:2450  OwnershipTransferred(oldOwner, newOwner) */\n  0xffffffffffffffffffffffffffffffffffffffff\n  and\n  0x8be0079c531659141344cd1fd0a4f28419497f9722a3daafe3b4186f6b6457e0\n  mload(0x40)\n  mload(0x40)\n  dup1\n  swap2\n  sub\n  swap1\n  log3\n    /* \"https://github.com/OpenZeppelin/openzeppelin-contracts/blob/release-v4.2/contracts/access/Ownable.sol\":2333:2457  {... */\n  pop\n    /* \"https://github.com/OpenZeppelin/openzeppelin-contracts/blob/release-v4.2/contracts/access/Ownable.sol\":2270:2457  function _transferOwnership(address newOwner) internal virtual {... */\n  pop\n  jump\t// out\n    /* \"contracts/AmeComponents/VibeComment/VibeComment.sol\":6424:6761  function setMethod(... */\ntag_125:\n    /* \"contracts/AmeComponents/VibeComment/VibeComment.sol\":6615:6622  methods */\n  0x01\n    /* \"contracts/AmeComponents/VibeComment/VibeComment.sol\":6615:6635  methods[_methodType] */\n  0x00\n    /* \"contracts/AmeComponents/VibeComment/VibeComment.sol\":6623:6634  _methodType */\n  dup5\n    /* \"contracts/AmeComponents/VibeComment/VibeComment.sol\":6615:6635  methods[_methodType] */\n  0x03\n  dup2\n  gt\n  iszero\n  tag_137\n  jumpi\n  tag_138\n  tag_19\n  jump\t// in\ntag_138:\ntag_137:\n  0x03\n  dup2\n  gt\n  iszero\n  tag_139\n  jumpi\n  tag_140\n  tag_19\n  jump\t// in\ntag_140:\ntag_139:\n  dup2\n  mstore\n  0x20\n  add\n  swap1\n  dup2\n  mstore\n  0x20\n  add\n  0x00\n  keccak256\n    /* \"contracts/AmeComponents/VibeComment/VibeComment.sol\":6641:6652  _methodName */\n  dup5\n    /* \"contracts/AmeComponents/VibeComment/VibeComment.sol\":6615:6653  methods[_methodType].push(_methodName) */\n  swap1\n  dup1\n  0x01\n  dup2\n  sload\n  add\n  dup1\n  dup3\n  sstore\n  dup1\n  swap2\n  pop\n  pop\n  0x01\n  swap1\n  sub\n  swap1\n  0x00\n  mstore\n  keccak256(0x00, 0x20)\n  add\n  0x00\n  swap1\n  swap2\n  swap1\n  swap2\n  swap1\n  swap2\n  pop\n  swap1\n  dup2\n  tag_142\n  swap2\n  swap1\n  tag_143\n  jump\t// in\ntag_142:\n  pop\n    /* \"contracts/AmeComponents/VibeComment/VibeComment.sol\":6693:6703  _methodReq */\n  dup2\n    /* \"contracts/AmeComponents/VibeComment/VibeComment.sol\":6663:6677  methodRequests */\n  0x02\n    /* \"contracts/AmeComponents/VibeComment/VibeComment.sol\":6678:6689  _methodName */\n  dup6\n    /* \"contracts/AmeComponents/VibeComment/VibeComment.sol\":6663:6690  methodRequests[_methodName] */\n  mload(0x40)\n  tag_144\n  swap2\n  swap1\n  tag_145\n  jump\t// in\ntag_144:\n  swap1\n  dup2\n  mstore\n  0x20\n  add\n  mload(0x40)\n  dup1\n  swap2\n  sub\n  swap1\n  keccak256\n    /* \"contracts/AmeComponents/VibeComment/VibeComment.sol\":6663:6703  methodRequests[_methodName] = _methodReq */\n  swap1\n  dup1\n  mload\n  swap1\n  0x20\n  add\n  swap1\n  tag_146\n  swap3\n  swap2\n  swap1\n  tag_147\n  jump\t// in\ntag_146:\n  pop\n    /* \"contracts/AmeComponents/VibeComment/VibeComment.sol\":6744:6754  _methodRes */\n  dup1\n    /* \"contracts/AmeComponents/VibeComment/VibeComment.sol\":6713:6728  methodResponses */\n  0x03\n    /* \"contracts/AmeComponents/VibeComment/VibeComment.sol\":6729:6740  _methodName */\n  dup6\n    /* \"contracts/AmeComponents/VibeComment/VibeComment.sol\":6713:6741  methodResponses[_methodName] */\n  mload(0x40)\n  tag_148\n  swap2\n  swap1\n  tag_145\n  jump\t// in\ntag_148:\n  swap1\n  dup2\n  mstore\n  0x20\n  add\n  mload(0x40)\n  dup1\n  swap2\n  sub\n  swap1\n  keccak256\n    /* \"contracts/AmeComponents/VibeComment/VibeComment.sol\":6713:6754  methodResponses[_methodName] = _methodRes */\n  swap1\n  dup1\n  mload\n  swap1\n  0x20\n  add\n  swap1\n  tag_149\n  swap3\n  swap2\n  swap1\n  tag_147\n  jump\t// in\ntag_149:\n  pop\n    /* \"contracts/AmeComponents/VibeComment/VibeComment.sol\":6424:6761  function setMethod(... */\n  pop\n  pop\n  pop\n  pop\n  jump\t// out\n    /* \"contracts/AmeComponents/VibeComment/VibeComment.sol\":281:11205  contract VibeComment is IComponent, Ownable {... */\ntag_147:\n  dup3\n  dup1\n  sload\n  dup3\n  dup3\n  sstore\n  swap1\n  0x00\n  mstore\n  keccak256(0x00, 0x20)\n  swap1\n  0x1f\n  add\n  0x20\n  swap1\n  div\n  dup2\n  add\n  swap3\n  dup3\n  iszero\n  tag_150\n  jumpi\n  swap2\n  0x20\n  mul\n  dup3\n  add\n  0x00\ntag_151:\n  dup4\n  dup3\n  gt\n  iszero\n  tag_152\n  jumpi\n  dup4\n  mload\n  dup4\n  dup3\n  0x0100\n  exp\n  dup2\n  sload\n  dup2\n  0xff\n  mul\n  not\n  and\n  swap1\n  dup4\n  0xc6\n  dup2\n  gt\n  iszero\n  tag_153\n  jumpi\n  tag_154\n  tag_19\n  jump\t// in\ntag_154:\ntag_153:\n  mul\n  or\n  swap1\n  sstore\n  pop\n  swap3\n  0x20\n  add\n  swap3\n  0x01\n  add\n  0x20\n  dup2\n  0x00\n  add\n  div\n  swap3\n  dup4\n  add\n  swap3\n  0x01\n  sub\n  mul\n  jump(tag_151)\ntag_152:\n  dup1\n  iszero\n  tag_155\n  jumpi\n  dup3\n  dup2\n  0x0100\n  exp\n  dup2\n  sload\n  swap1\n  0xff\n  mul\n  not\n  and\n  swap1\n  sstore\n  0x01\n  add\n  0x20\n  dup2\n  0x00\n  add\n  div\n  swap3\n  dup4\n  add\n  swap3\n  0x01\n  sub\n  mul\n  jump(tag_152)\ntag_155:\n  pop\ntag_150:\n  pop\n  swap1\n  pop\n  tag_156\n  swap2\n  swap1\n  tag_157\n  jump\t// in\ntag_156:\n  pop\n  swap1\n  jump\t// out\ntag_157:\ntag_158:\n  dup1\n  dup3\n  gt\n  iszero\n  tag_159\n  jumpi\n  0x00\n  dup2\n  0x00\n  swap1\n  sstore\n  pop\n  0x01\n  add\n  jump(tag_158)\ntag_159:\n  pop\n  swap1\n  jump\t// out\n    /* \"#utility.yul\":7:187   */\ntag_12:\n    /* \"#utility.yul\":55:132   */\n  0x4e487b7100000000000000000000000000000000000000000000000000000000\n    /* \"#utility.yul\":52:53   */\n  0x00\n    /* \"#utility.yul\":45:133   */\n  mstore\n    /* \"#utility.yul\":152:156   */\n  0x41\n    /* \"#utility.yul\":149:150   */\n  0x04\n    /* \"#utility.yul\":142:157   */\n  mstore\n    /* \"#utility.yul\":176:180   */\n  0x24\n    /* \"#utility.yul\":173:174   */\n  0x00\n    /* \"#utility.yul\":166:181   */\n  revert\n    /* \"#utility.yul\":193:373   */\ntag_16:\n    /* \"#utility.yul\":241:318   */\n  0x4e487b7100000000000000000000000000000000000000000000000000000000\n    /* \"#utility.yul\":238:239   */\n  0x00\n    /* \"#utility.yul\":231:319   */\n  mstore\n    /* \"#utility.yul\":338:342   */\n  0x32\n    /* \"#utility.yul\":335:336   */\n  0x04\n    /* \"#utility.yul\":328:343   */\n  mstore\n    /* \"#utility.yul\":362:366   */\n  0x24\n    /* \"#utility.yul\":359:360   */\n  0x00\n    /* \"#utility.yul\":352:367   */\n  revert\n    /* \"#utility.yul\":379:559   */\ntag_19:\n    /* \"#utility.yul\":427:504   */\n  0x4e487b7100000000000000000000000000000000000000000000000000000000\n    /* \"#utility.yul\":424:425   */\n  0x00\n    /* \"#utility.yul\":417:505   */\n  mstore\n    /* \"#utility.yul\":524:528   */\n  0x21\n    /* \"#utility.yul\":521:522   */\n  0x04\n    /* \"#utility.yul\":514:529   */\n  mstore\n    /* \"#utility.yul\":548:552   */\n  0x24\n    /* \"#utility.yul\":545:546   */\n  0x00\n    /* \"#utility.yul\":538:553   */\n  revert\n    /* \"#utility.yul\":565:664   */\ntag_160:\n    /* \"#utility.yul\":617:623   */\n  0x00\n    /* \"#utility.yul\":651:656   */\n  dup2\n    /* \"#utility.yul\":645:657   */\n  mload\n    /* \"#utility.yul\":635:657   */\n  swap1\n  pop\n    /* \"#utility.yul\":565:664   */\n  swap2\n  swap1\n  pop\n  jump\t// out\n    /* \"#utility.yul\":670:850   */\ntag_161:\n    /* \"#utility.yul\":718:795   */\n  0x4e487b7100000000000000000000000000000000000000000000000000000000\n    /* \"#utility.yul\":715:716   */\n  0x00\n    /* \"#utility.yul\":708:796   */\n  mstore\n    /* \"#utility.yul\":815:819   */\n  0x22\n    /* \"#utility.yul\":812:813   */\n  0x04\n    /* \"#utility.yul\":805:820   */\n  mstore\n    /* \"#utility.yul\":839:843   */\n  0x24\n    /* \"#utility.yul\":836:837   */\n  0x00\n    /* \"#utility.yul\":829:844   */\n  revert\n    /* \"#utility.yul\":856:1176   */\ntag_162:\n    /* \"#utility.yul\":900:906   */\n  0x00\n    /* \"#utility.yul\":937:938   */\n  0x02\n    /* \"#utility.yul\":931:935   */\n  dup3\n    /* \"#utility.yul\":927:939   */\n  div\n    /* \"#utility.yul\":917:939   */\n  swap1\n  pop\n    /* \"#utility.yul\":984:985   */\n  0x01\n    /* \"#utility.yul\":978:982   */\n  dup3\n    /* \"#utility.yul\":974:986   */\n  and\n    /* \"#utility.yul\":1005:1023   */\n  dup1\n    /* \"#utility.yul\":995:1076   */\n  tag_189\n  jumpi\n    /* \"#utility.yul\":1061:1065   */\n  0x7f\n    /* \"#utility.yul\":1053:1059   */\n  dup3\n    /* \"#utility.yul\":1049:1066   */\n  and\n    /* \"#utility.yul\":1039:1066   */\n  swap2\n  pop\n    /* \"#utility.yul\":995:1076   */\ntag_189:\n    /* \"#utility.yul\":1123:1125   */\n  0x20\n    /* \"#utility.yul\":1115:1121   */\n  dup3\n    /* \"#utility.yul\":1112:1126   */\n  lt\n    /* \"#utility.yul\":1092:1110   */\n  dup2\n    /* \"#utility.yul\":1089:1127   */\n  sub\n    /* \"#utility.yul\":1086:1170   */\n  tag_190\n  jumpi\n    /* \"#utility.yul\":1142:1160   */\n  tag_191\n  tag_161\n  jump\t// in\ntag_191:\n    /* \"#utility.yul\":1086:1170   */\ntag_190:\n    /* \"#utility.yul\":907:1176   */\n  pop\n    /* \"#utility.yul\":856:1176   */\n  swap2\n  swap1\n  pop\n  jump\t// out\n    /* \"#utility.yul\":1182:1323   */\ntag_163:\n    /* \"#utility.yul\":1231:1235   */\n  0x00\n    /* \"#utility.yul\":1254:1257   */\n  dup2\n    /* \"#utility.yul\":1246:1257   */\n  swap1\n  pop\n    /* \"#utility.yul\":1277:1280   */\n  dup2\n    /* \"#utility.yul\":1274:1275   */\n  0x00\n    /* \"#utility.yul\":1267:1281   */\n  mstore\n    /* \"#utility.yul\":1311:1315   */\n  0x20\n    /* \"#utility.yul\":1308:1309   */\n  0x00\n    /* \"#utility.yul\":1298:1316   */\n  keccak256\n    /* \"#utility.yul\":1290:1316   */\n  swap1\n  pop\n    /* \"#utility.yul\":1182:1323   */\n  swap2\n  swap1\n  pop\n  jump\t// out\n    /* \"#utility.yul\":1329:1422   */\ntag_164:\n    /* \"#utility.yul\":1366:1372   */\n  0x00\n    /* \"#utility.yul\":1413:1415   */\n  0x20\n    /* \"#utility.yul\":1408:1410   */\n  0x1f\n    /* \"#utility.yul\":1401:1406   */\n  dup4\n    /* \"#utility.yul\":1397:1411   */\n  add\n    /* \"#utility.yul\":1393:1416   */\n  div\n    /* \"#utility.yul\":1383:1416   */\n  swap1\n  pop\n    /* \"#utility.yul\":1329:1422   */\n  swap2\n  swap1\n  pop\n  jump\t// out\n    /* \"#utility.yul\":1428:1535   */\ntag_165:\n    /* \"#utility.yul\":1472:1480   */\n  0x00\n    /* \"#utility.yul\":1522:1527   */\n  dup3\n    /* \"#utility.yul\":1516:1520   */\n  dup3\n    /* \"#utility.yul\":1512:1528   */\n  shl\n    /* \"#utility.yul\":1491:1528   */\n  swap1\n  pop\n    /* \"#utility.yul\":1428:1535   */\n  swap3\n  swap2\n  pop\n  pop\n  jump\t// out\n    /* \"#utility.yul\":1541:1934   */\ntag_166:\n    /* \"#utility.yul\":1610:1616   */\n  0x00\n    /* \"#utility.yul\":1660:1661   */\n  0x08\n    /* \"#utility.yul\":1648:1658   */\n  dup4\n    /* \"#utility.yul\":1644:1662   */\n  mul\n    /* \"#utility.yul\":1683:1780   */\n  tag_196\n    /* \"#utility.yul\":1713:1779   */\n  0xffffffffffffffffffffffffffffffffffffffffffffffffffffffffffffffff\n    /* \"#utility.yul\":1702:1711   */\n  dup3\n    /* \"#utility.yul\":1683:1780   */\n  tag_165\n  jump\t// in\ntag_196:\n    /* \"#utility.yul\":1801:1840   */\n  tag_197\n    /* \"#utility.yul\":1831:1839   */\n  dup7\n    /* \"#utility.yul\":1820:1829   */\n  dup4\n    /* \"#utility.yul\":1801:1840   */\n  tag_165\n  jump\t// in\ntag_197:\n    /* \"#utility.yul\":1789:1840   */\n  swap6\n  pop\n    /* \"#utility.yul\":1873:1877   */\n  dup1\n    /* \"#utility.yul\":1869:1878   */\n  not\n    /* \"#utility.yul\":1862:1867   */\n  dup5\n    /* \"#utility.yul\":1858:1879   */\n  and\n    /* \"#utility.yul\":1849:1879   */\n  swap4\n  pop\n    /* \"#utility.yul\":1922:1926   */\n  dup1\n    /* \"#utility.yul\":1912:1920   */\n  dup7\n    /* \"#utility.yul\":1908:1927   */\n  and\n    /* \"#utility.yul\":1901:1906   */\n  dup5\n    /* \"#utility.yul\":1898:1928   */\n  or\n    /* \"#utility.yul\":1888:1928   */\n  swap3\n  pop\n    /* \"#utility.yul\":1617:1934   */\n  pop\n  pop\n    /* \"#utility.yul\":1541:1934   */\n  swap4\n  swap3\n  pop\n  pop\n  pop\n  jump\t// out\n    /* \"#utility.yul\":1940:2017   */\ntag_167:\n    /* \"#utility.yul\":1977:1984   */\n  0x00\n    /* \"#utility.yul\":2006:2011   */\n  dup2\n    /* \"#utility.yul\":1995:2011   */\n  swap1\n  pop\n    /* \"#utility.yul\":1940:2017   */\n  swap2\n  swap1\n  pop\n  jump\t// out\n    /* \"#utility.yul\":2023:2083   */\ntag_168:\n    /* \"#utility.yul\":2051:2054   */\n  0x00\n    /* \"#utility.yul\":2072:2077   */\n  dup2\n    /* \"#utility.yul\":2065:2077   */\n  swap1\n  pop\n    /* \"#utility.yul\":2023:2083   */\n  swap2\n  swap1\n  pop\n  jump\t// out\n    /* \"#utility.yul\":2089:2231   */\ntag_169:\n    /* \"#utility.yul\":2139:2148   */\n  0x00\n    /* \"#utility.yul\":2172:2225   */\n  tag_201\n    /* \"#utility.yul\":2190:2224   */\n  tag_202\n    /* \"#utility.yul\":2199:2223   */\n  tag_203\n    /* \"#utility.yul\":2217:2222   */\n  dup5\n    /* \"#utility.yul\":2199:2223   */\n  tag_167\n  jump\t// in\ntag_203:\n    /* \"#utility.yul\":2190:2224   */\n  tag_168\n  jump\t// in\ntag_202:\n    /* \"#utility.yul\":2172:2225   */\n  tag_167\n  jump\t// in\ntag_201:\n    /* \"#utility.yul\":2159:2225   */\n  swap1\n  pop\n    /* \"#utility.yul\":2089:2231   */\n  swap2\n  swap1\n  pop\n  jump\t// out\n    /* \"#utility.yul\":2237:2312   */\ntag_170:\n    /* \"#utility.yul\":2280:2283   */\n  0x00\n    /* \"#utility.yul\":2301:2306   */\n  dup2\n    /* \"#utility.yul\":2294:2306   */\n  swap1\n  pop\n    /* \"#utility.yul\":2237:2312   */\n  swap2\n  swap1\n  pop\n  jump\t// out\n    /* \"#utility.yul\":2318:2587   */\ntag_171:\n    /* \"#utility.yul\":2428:2467   */\n  tag_206\n    /* \"#utility.yul\":2459:2466   */\n  dup4\n    /* \"#utility.yul\":2428:2467   */\n  tag_169\n  jump\t// in\ntag_206:\n    /* \"#utility.yul\":2489:2580   */\n  tag_207\n    /* \"#utility.yul\":2538:2579   */\n  tag_208\n    /* \"#utility.yul\":2562:2578   */\n  dup3\n    /* \"#utility.yul\":2538:2579   */\n  tag_170\n  jump\t// in\ntag_208:\n    /* \"#utility.yul\":2530:2536   */\n  dup5\n    /* \"#utility.yul\":2523:2527   */\n  dup5\n    /* \"#utility.yul\":2517:2528   */\n  sload\n    /* \"#utility.yul\":2489:2580   */\n  tag_166\n  jump\t// in\ntag_207:\n    /* \"#utility.yul\":2483:2487   */\n  dup3\n    /* \"#utility.yul\":2476:2581   */\n  sstore\n    /* \"#utility.yul\":2394:2587   */\n  pop\n    /* \"#utility.yul\":2318:2587   */\n  pop\n  pop\n  pop\n  jump\t// out\n    /* \"#utility.yul\":2593:2666   */\ntag_172:\n    /* \"#utility.yul\":2638:2641   */\n  0x00\n    /* \"#utility.yul\":2593:2666   */\n  swap1\n  jump\t// out\n    /* \"#utility.yul\":2672:2861   */\ntag_173:\n    /* \"#utility.yul\":2749:2781   */\n  tag_211\n  tag_172\n  jump\t// in\ntag_211:\n    /* \"#utility.yul\":2790:2855   */\n  tag_212\n    /* \"#utility.yul\":2848:2854   */\n  dup2\n    /* \"#utility.yul\":2840:2846   */\n  dup5\n    /* \"#utility.yul\":2834:2838   */\n  dup5\n    /* \"#utility.yul\":2790:2855   */\n  tag_171\n  jump\t// in\ntag_212:\n    /* \"#utility.yul\":2725:2861   */\n  pop\n    /* \"#utility.yul\":2672:2861   */\n  pop\n  pop\n  jump\t// out\n    /* \"#utility.yul\":2867:3053   */\ntag_174:\n    /* \"#utility.yul\":2927:3047   */\ntag_214:\n    /* \"#utility.yul\":2944:2947   */\n  dup2\n    /* \"#utility.yul\":2937:2942   */\n  dup2\n    /* \"#utility.yul\":2934:2948   */\n  lt\n    /* \"#utility.yul\":2927:3047   */\n  iszero\n  tag_216\n  jumpi\n    /* \"#utility.yul\":2998:3037   */\n  tag_217\n    /* \"#utility.yul\":3035:3036   */\n  0x00\n    /* \"#utility.yul\":3028:3033   */\n  dup3\n    /* \"#utility.yul\":2998:3037   */\n  tag_173\n  jump\t// in\ntag_217:\n    /* \"#utility.yul\":2971:2972   */\n  0x01\n    /* \"#utility.yul\":2964:2969   */\n  dup2\n    /* \"#utility.yul\":2960:2973   */\n  add\n    /* \"#utility.yul\":2951:2973   */\n  swap1\n  pop\n    /* \"#utility.yul\":2927:3047   */\n  jump(tag_214)\ntag_216:\n    /* \"#utility.yul\":2867:3053   */\n  pop\n  pop\n  jump\t// out\n    /* \"#utility.yul\":3059:3602   */\ntag_175:\n    /* \"#utility.yul\":3160:3162   */\n  0x1f\n    /* \"#utility.yul\":3155:3158   */\n  dup3\n    /* \"#utility.yul\":3152:3163   */\n  gt\n    /* \"#utility.yul\":3149:3595   */\n  iszero\n  tag_219\n  jumpi\n    /* \"#utility.yul\":3194:3232   */\n  tag_220\n    /* \"#utility.yul\":3226:3231   */\n  dup2\n    /* \"#utility.yul\":3194:3232   */\n  tag_163\n  jump\t// in\ntag_220:\n    /* \"#utility.yul\":3278:3307   */\n  tag_221\n    /* \"#utility.yul\":3296:3306   */\n  dup5\n    /* \"#utility.yul\":3278:3307   */\n  tag_164\n  jump\t// in\ntag_221:\n    /* \"#utility.yul\":3268:3276   */\n  dup2\n    /* \"#utility.yul\":3264:3308   */\n  add\n    /* \"#utility.yul\":3461:3463   */\n  0x20\n    /* \"#utility.yul\":3449:3459   */\n  dup6\n    /* \"#utility.yul\":3446:3464   */\n  lt\n    /* \"#utility.yul\":3443:3492   */\n  iszero\n  tag_222\n  jumpi\n    /* \"#utility.yul\":3482:3490   */\n  dup2\n    /* \"#utility.yul\":3467:3490   */\n  swap1\n  pop\n    /* \"#utility.yul\":3443:3492   */\ntag_222:\n    /* \"#utility.yul\":3505:3585   */\n  tag_223\n    /* \"#utility.yul\":3561:3583   */\n  tag_224\n    /* \"#utility.yul\":3579:3582   */\n  dup6\n    /* \"#utility.yul\":3561:3583   */\n  tag_164\n  jump\t// in\ntag_224:\n    /* \"#utility.yul\":3551:3559   */\n  dup4\n    /* \"#utility.yul\":3547:3584   */\n  add\n    /* \"#utility.yul\":3534:3545   */\n  dup3\n    /* \"#utility.yul\":3505:3585   */\n  tag_174\n  jump\t// in\ntag_223:\n    /* \"#utility.yul\":3164:3595   */\n  pop\n  pop\n    /* \"#utility.yul\":3149:3595   */\ntag_219:\n    /* \"#utility.yul\":3059:3602   */\n  pop\n  pop\n  pop\n  jump\t// out\n    /* \"#utility.yul\":3608:3725   */\ntag_176:\n    /* \"#utility.yul\":3662:3670   */\n  0x00\n    /* \"#utility.yul\":3712:3717   */\n  dup3\n    /* \"#utility.yul\":3706:3710   */\n  dup3\n    /* \"#utility.yul\":3702:3718   */\n  shr\n    /* \"#utility.yul\":3681:3718   */\n  swap1\n  pop\n    /* \"#utility.yul\":3608:3725   */\n  swap3\n  swap2\n  pop\n  pop\n  jump\t// out\n    /* \"#utility.yul\":3731:3900   */\ntag_177:\n    /* \"#utility.yul\":3775:3781   */\n  0x00\n    /* \"#utility.yul\":3808:3859   */\n  tag_227\n    /* \"#utility.yul\":3856:3857   */\n  0x00\n    /* \"#utility.yul\":3852:3858   */\n  not\n    /* \"#utility.yul\":3844:3849   */\n  dup5\n    /* \"#utility.yul\":3841:3842   */\n  0x08\n    /* \"#utility.yul\":3837:3850   */\n  mul\n    /* \"#utility.yul\":3808:3859   */\n  tag_176\n  jump\t// in\ntag_227:\n    /* \"#utility.yul\":3804:3860   */\n  not\n    /* \"#utility.yul\":3889:3893   */\n  dup1\n    /* \"#utility.yul\":3883:3887   */\n  dup4\n    /* \"#utility.yul\":3879:3894   */\n  and\n    /* \"#utility.yul\":3869:3894   */\n  swap2\n  pop\n    /* \"#utility.yul\":3782:3900   */\n  pop\n    /* \"#utility.yul\":3731:3900   */\n  swap3\n  swap2\n  pop\n  pop\n  jump\t// out\n    /* \"#utility.yul\":3905:4200   */\ntag_178:\n    /* \"#utility.yul\":3981:3985   */\n  0x00\n    /* \"#utility.yul\":4127:4156   */\n  tag_229\n    /* \"#utility.yul\":4152:4155   */\n  dup4\n    /* \"#utility.yul\":4146:4150   */\n  dup4\n    /* \"#utility.yul\":4127:4156   */\n  tag_177\n  jump\t// in\ntag_229:\n    /* \"#utility.yul\":4119:4156   */\n  swap2\n  pop\n    /* \"#utility.yul\":4189:4192   */\n  dup3\n    /* \"#utility.yul\":4186:4187   */\n  0x02\n    /* \"#utility.yul\":4182:4193   */\n  mul\n    /* \"#utility.yul\":4176:4180   */\n  dup3\n    /* \"#utility.yul\":4173:4194   */\n  or\n    /* \"#utility.yul\":4165:4194   */\n  swap1\n  pop\n    /* \"#utility.yul\":3905:4200   */\n  swap3\n  swap2\n  pop\n  pop\n  jump\t// out\n    /* \"#utility.yul\":4205:5600   */\ntag_143:\n    /* \"#utility.yul\":4322:4359   */\n  tag_231\n    /* \"#utility.yul\":4355:4358   */\n  dup3\n    /* \"#utility.yul\":4322:4359   */\n  tag_160\n  jump\t// in\ntag_231:\n    /* \"#utility.yul\":4424:4442   */\n  0xffffffffffffffff\n    /* \"#utility.yul\":4416:4422   */\n  dup2\n    /* \"#utility.yul\":4413:4443   */\n  gt\n    /* \"#utility.yul\":4410:4466   */\n  iszero\n  tag_232\n  jumpi\n    /* \"#utility.yul\":4446:4464   */\n  tag_233\n  tag_12\n  jump\t// in\ntag_233:\n    /* \"#utility.yul\":4410:4466   */\ntag_232:\n    /* \"#utility.yul\":4490:4528   */\n  tag_234\n    /* \"#utility.yul\":4522:4526   */\n  dup3\n    /* \"#utility.yul\":4516:4527   */\n  sload\n    /* \"#utility.yul\":4490:4528   */\n  tag_162\n  jump\t// in\ntag_234:\n    /* \"#utility.yul\":4575:4642   */\n  tag_235\n    /* \"#utility.yul\":4635:4641   */\n  dup3\n    /* \"#utility.yul\":4627:4633   */\n  dup3\n    /* \"#utility.yul\":4621:4625   */\n  dup6\n    /* \"#utility.yul\":4575:4642   */\n  tag_175\n  jump\t// in\ntag_235:\n    /* \"#utility.yul\":4669:4670   */\n  0x00\n    /* \"#utility.yul\":4693:4697   */\n  0x20\n    /* \"#utility.yul\":4680:4697   */\n  swap1\n  pop\n    /* \"#utility.yul\":4725:4727   */\n  0x1f\n    /* \"#utility.yul\":4717:4723   */\n  dup4\n    /* \"#utility.yul\":4714:4728   */\n  gt\n    /* \"#utility.yul\":4742:4743   */\n  0x01\n    /* \"#utility.yul\":4737:5355   */\n  dup2\n  eq\n  tag_237\n  jumpi\n    /* \"#utility.yul\":5399:5400   */\n  0x00\n    /* \"#utility.yul\":5416:5422   */\n  dup5\n    /* \"#utility.yul\":5413:5490   */\n  iszero\n  tag_238\n  jumpi\n    /* \"#utility.yul\":5465:5474   */\n  dup3\n    /* \"#utility.yul\":5460:5463   */\n  dup8\n    /* \"#utility.yul\":5456:5475   */\n  add\n    /* \"#utility.yul\":5450:5476   */\n  mload\n    /* \"#utility.yul\":5441:5476   */\n  swap1\n  pop\n    /* \"#utility.yul\":5413:5490   */\ntag_238:\n    /* \"#utility.yul\":5516:5583   */\n  tag_239\n    /* \"#utility.yul\":5576:5582   */\n  dup6\n    /* \"#utility.yul\":5569:5574   */\n  dup3\n    /* \"#utility.yul\":5516:5583   */\n  tag_178\n  jump\t// in\ntag_239:\n    /* \"#utility.yul\":5510:5514   */\n  dup7\n    /* \"#utility.yul\":5503:5584   */\n  sstore\n    /* \"#utility.yul\":5372:5594   */\n  pop\n    /* \"#utility.yul\":4707:5594   */\n  jump(tag_236)\n    /* \"#utility.yul\":4737:5355   */\ntag_237:\n    /* \"#utility.yul\":4789:4793   */\n  0x1f\n    /* \"#utility.yul\":4785:4794   */\n  not\n    /* \"#utility.yul\":4777:4783   */\n  dup5\n    /* \"#utility.yul\":4773:4795   */\n  and\n    /* \"#utility.yul\":4823:4860   */\n  tag_240\n    /* \"#utility.yul\":4855:4859   */\n  dup7\n    /* \"#utility.yul\":4823:4860   */\n  tag_163\n  jump\t// in\ntag_240:\n    /* \"#utility.yul\":4882:4883   */\n  0x00\n    /* \"#utility.yul\":4896:5104   */\ntag_241:\n    /* \"#utility.yul\":4910:4917   */\n  dup3\n    /* \"#utility.yul\":4907:4908   */\n  dup2\n    /* \"#utility.yul\":4904:4918   */\n  lt\n    /* \"#utility.yul\":4896:5104   */\n  iszero\n  tag_243\n  jumpi\n    /* \"#utility.yul\":4989:4998   */\n  dup5\n    /* \"#utility.yul\":4984:4987   */\n  dup10\n    /* \"#utility.yul\":4980:4999   */\n  add\n    /* \"#utility.yul\":4974:5000   */\n  mload\n    /* \"#utility.yul\":4966:4972   */\n  dup3\n    /* \"#utility.yul\":4959:5001   */\n  sstore\n    /* \"#utility.yul\":5040:5041   */\n  0x01\n    /* \"#utility.yul\":5032:5038   */\n  dup3\n    /* \"#utility.yul\":5028:5042   */\n  add\n    /* \"#utility.yul\":5018:5042   */\n  swap2\n  pop\n    /* \"#utility.yul\":5087:5089   */\n  0x20\n    /* \"#utility.yul\":5076:5085   */\n  dup6\n    /* \"#utility.yul\":5072:5090   */\n  add\n    /* \"#utility.yul\":5059:5090   */\n  swap5\n  pop\n    /* \"#utility.yul\":4933:4937   */\n  0x20\n    /* \"#utility.yul\":4930:4931   */\n  dup2\n    /* \"#utility.yul\":4926:4938   */\n  add\n    /* \"#utility.yul\":4921:4938   */\n  swap1\n  pop\n    /* \"#utility.yul\":4896:5104   */\n  jump(tag_241)\ntag_243:\n    /* \"#utility.yul\":5132:5138   */\n  dup7\n    /* \"#utility.yul\":5123:5130   */\n  dup4\n    /* \"#utility.yul\":5120:5139   */\n  lt\n    /* \"#utility.yul\":5117:5296   */\n  iszero\n  tag_244\n  jumpi\n    /* \"#utility.yul\":5190:5199   */\n  dup5\n    /* \"#utility.yul\":5185:5188   */\n  dup10\n    /* \"#utility.yul\":5181:5200   */\n  add\n    /* \"#utility.yul\":5175:5201   */\n  mload\n    /* \"#utility.yul\":5233:5281   */\n  tag_245\n    /* \"#utility.yul\":5275:5279   */\n  0x1f\n    /* \"#utility.yul\":5267:5273   */\n  dup10\n    /* \"#utility.yul\":5263:5280   */\n  and\n    /* \"#utility.yul\":5252:5261   */\n  dup3\n    /* \"#utility.yul\":5233:5281   */\n  tag_177\n  jump\t// in\ntag_245:\n    /* \"#utility.yul\":5225:5231   */\n  dup4\n    /* \"#utility.yul\":5218:5282   */\n  sstore\n    /* \"#utility.yul\":5140:5296   */\n  pop\n    /* \"#utility.yul\":5117:5296   */\ntag_244:\n    /* \"#utility.yul\":5342:5343   */\n  0x01\n    /* \"#utility.yul\":5338:5339   */\n  0x02\n    /* \"#utility.yul\":5330:5336   */\n  dup9\n    /* \"#utility.yul\":5326:5340   */\n  mul\n    /* \"#utility.yul\":5322:5344   */\n  add\n    /* \"#utility.yul\":5316:5320   */\n  dup9\n    /* \"#utility.yul\":5309:5345   */\n  sstore\n    /* \"#utility.yul\":4744:5355   */\n  pop\n  pop\n  pop\n    /* \"#utility.yul\":4707:5594   */\ntag_236:\n  pop\n    /* \"#utility.yul\":4297:5600   */\n  pop\n  pop\n  pop\n    /* \"#utility.yul\":4205:5600   */\n  pop\n  pop\n  jump\t// out\n    /* \"#utility.yul\":5606:5754   */\ntag_179:\n    /* \"#utility.yul\":5708:5719   */\n  0x00\n    /* \"#utility.yul\":5745:5748   */\n  dup2\n    /* \"#utility.yul\":5730:5748   */\n  swap1\n  pop\n    /* \"#utility.yul\":5606:5754   */\n  swap3\n  swap2\n  pop\n  pop\n  jump\t// out\n    /* \"#utility.yul\":5760:6006   */\ntag_180:\n    /* \"#utility.yul\":5841:5842   */\n  0x00\n    /* \"#utility.yul\":5851:5964   */\ntag_248:\n    /* \"#utility.yul\":5865:5871   */\n  dup4\n    /* \"#utility.yul\":5862:5863   */\n  dup2\n    /* \"#utility.yul\":5859:5872   */\n  lt\n    /* \"#utility.yul\":5851:5964   */\n  iszero\n  tag_250\n  jumpi\n    /* \"#utility.yul\":5950:5951   */\n  dup1\n    /* \"#utility.yul\":5945:5948   */\n  dup3\n    /* \"#utility.yul\":5941:5952   */\n  add\n    /* \"#utility.yul\":5935:5953   */\n  mload\n    /* \"#utility.yul\":5931:5932   */\n  dup2\n    /* \"#utility.yul\":5926:5929   */\n  dup5\n    /* \"#utility.yul\":5922:5933   */\n  add\n    /* \"#utility.yul\":5915:5954   */\n  mstore\n    /* \"#utility.yul\":5887:5889   */\n  0x20\n    /* \"#utility.yul\":5884:5885   */\n  dup2\n    /* \"#utility.yul\":5880:5890   */\n  add\n    /* \"#utility.yul\":5875:5890   */\n  swap1\n  pop\n    /* \"#utility.yul\":5851:5964   */\n  jump(tag_248)\ntag_250:\n    /* \"#utility.yul\":5998:5999   */\n  0x00\n    /* \"#utility.yul\":5989:5995   */\n  dup5\n    /* \"#utility.yul\":5984:5987   */\n  dup5\n    /* \"#utility.yul\":5980:5996   */\n  add\n    /* \"#utility.yul\":5973:6000   */\n  mstore\n    /* \"#utility.yul\":5822:6006   */\n  pop\n    /* \"#utility.yul\":5760:6006   */\n  pop\n  pop\n  pop\n  jump\t// out\n    /* \"#utility.yul\":6012:6402   */\ntag_181:\n    /* \"#utility.yul\":6118:6121   */\n  0x00\n    /* \"#utility.yul\":6146:6185   */\n  tag_252\n    /* \"#utility.yul\":6179:6184   */\n  dup3\n    /* \"#utility.yul\":6146:6185   */\n  tag_160\n  jump\t// in\ntag_252:\n    /* \"#utility.yul\":6201:6290   */\n  tag_253\n    /* \"#utility.yul\":6283:6289   */\n  dup2\n    /* \"#utility.yul\":6278:6281   */\n  dup6\n    /* \"#utility.yul\":6201:6290   */\n  tag_179\n  jump\t// in\ntag_253:\n    /* \"#utility.yul\":6194:6290   */\n  swap4\n  pop\n    /* \"#utility.yul\":6299:6364   */\n  tag_254\n    /* \"#utility.yul\":6357:6363   */\n  dup2\n    /* \"#utility.yul\":6352:6355   */\n  dup6\n    /* \"#utility.yul\":6345:6349   */\n  0x20\n    /* \"#utility.yul\":6338:6343   */\n  dup7\n    /* \"#utility.yul\":6334:6350   */\n  add\n    /* \"#utility.yul\":6299:6364   */\n  tag_180\n  jump\t// in\ntag_254:\n    /* \"#utility.yul\":6389:6395   */\n  dup1\n    /* \"#utility.yul\":6384:6387   */\n  dup5\n    /* \"#utility.yul\":6380:6396   */\n  add\n    /* \"#utility.yul\":6373:6396   */\n  swap2\n  pop\n    /* \"#utility.yul\":6122:6402   */\n  pop\n    /* \"#utility.yul\":6012:6402   */\n  swap3\n  swap2\n  pop\n  pop\n  jump\t// out\n    /* \"#utility.yul\":6408:6683   */\ntag_145:\n    /* \"#utility.yul\":6540:6543   */\n  0x00\n    /* \"#utility.yul\":6562:6657   */\n  tag_256\n    /* \"#utility.yul\":6653:6656   */\n  dup3\n    /* \"#utility.yul\":6644:6650   */\n  dup5\n    /* \"#utility.yul\":6562:6657   */\n  tag_181\n  jump\t// in\ntag_256:\n    /* \"#utility.yul\":6555:6657   */\n  swap2\n  pop\n    /* \"#utility.yul\":6674:6677   */\n  dup2\n    /* \"#utility.yul\":6667:6677   */\n  swap1\n  pop\n    /* \"#utility.yul\":6408:6683   */\n  swap3\n  swap2\n  pop\n  pop\n  jump\t// out\n    /* \"contracts/AmeComponents/VibeComment/VibeComment.sol\":281:11205  contract VibeComment is IComponent, Ownable {... */\ntag_133:\n  dataSize(sub_0)\n  dup1\n  dataOffset(sub_0)\n  0x00\n  codecopy\n  0x00\n  return\nstop\n\nsub_0: assembly {\n        /* \"contracts/AmeComponents/VibeComment/VibeComment.sol\":281:11205  contract VibeComment is IComponent, Ownable {... */\n      mstore(0x40, 0x80)\n      jumpi(tag_1, lt(calldatasize, 0x04))\n      shr(0xe0, calldataload(0x00))\n      dup1\n      0x715018a6\n      gt\n      tag_15\n      jumpi\n      dup1\n      0xb6ae0425\n      gt\n      tag_16\n      jumpi\n      dup1\n      0xb6ae0425\n      eq\n      tag_11\n      jumpi\n      dup1\n      0xe9536472\n      eq\n      tag_12\n      jumpi\n      dup1\n      0xf2fde38b\n      eq\n      tag_13\n      jumpi\n      dup1\n      0xf4856ccb\n      eq\n      tag_14\n      jumpi\n      jump(tag_1)\n    tag_16:\n      dup1\n      0x715018a6\n      eq\n      tag_8\n      jumpi\n      dup1\n      0x8da5cb5b\n      eq\n      tag_9\n      jumpi\n      dup1\n      0xaff62745\n      eq\n      tag_10\n      jumpi\n      jump(tag_1)\n    tag_15:\n      dup1\n      0x1069143a\n      eq\n      tag_2\n      jumpi\n      dup1\n      0x3e413065\n      eq\n      tag_3\n      jumpi\n      dup1\n      0x3eae02b3\n      eq\n      tag_4\n      jumpi\n      dup1\n      0x44237454\n      eq\n      tag_5\n      jumpi\n      dup1\n      0x458ad6d4\n      eq\n      tag_6\n      jumpi\n      dup1\n      0x6818ba1d\n      eq\n      tag_7\n      jumpi\n    tag_1:\n      0x00\n      dup1\n      revert\n        /* \"contracts/AmeComponents/VibeComment/VibeComment.sol\":6083:6418  function options() public pure returns (MethodTypes[] memory) {... */\n    tag_2:\n      callvalue\n      dup1\n      iszero\n      tag_17\n      jumpi\n      0x00\n      dup1\n      revert\n    tag_17:\n      pop\n      tag_18\n      tag_19\n      jump\t// in\n    tag_18:\n      mload(0x40)\n      tag_20\n      swap2\n      swap1\n      tag_21\n      jump\t// in\n    tag_20:\n      mload(0x40)\n      dup1\n      swap2\n      sub\n      swap1\n      return\n        /* \"contracts/AmeComponents/VibeComment/VibeComment.sol\":569:594  uint256 public commentIds */\n    tag_3:\n      callvalue\n      dup1\n      iszero\n      tag_22\n      jumpi\n      0x00\n      dup1\n      revert\n    tag_22:\n      pop\n      tag_23\n      tag_24\n      jump\t// in\n    tag_23:\n      mload(0x40)\n      tag_25\n      swap2\n      swap1\n      tag_26\n      jump\t// in\n    tag_25:\n      mload(0x40)\n      dup1\n      swap2\n      sub\n      swap1\n      return\n        /* \"contracts/AmeComponents/VibeComment/VibeComment.sol\":10455:11203  function generateBase64(... */\n    tag_4:\n      callvalue\n      dup1\n      iszero\n      tag_27\n      jumpi\n      0x00\n      dup1\n      revert\n    tag_27:\n      pop\n      tag_28\n      0x04\n      dup1\n      calldatasize\n      sub\n      dup2\n      add\n      swap1\n      tag_29\n      swap2\n      swap1\n      tag_30\n      jump\t// in\n    tag_29:\n      tag_31\n      jump\t// in\n    tag_28:\n      mload(0x40)\n      tag_32\n      swap2\n      swap1\n      tag_33\n      jump\t// in\n    tag_32:\n      mload(0x40)\n      dup1\n      swap2\n      sub\n      swap1\n      return\n        /* \"contracts/AmeComponents/VibeComment/VibeComment.sol\":8943:10449  function getCommentsByAddress(... */\n    tag_5:\n      callvalue\n      dup1\n      iszero\n      tag_34\n      jumpi\n      0x00\n      dup1\n      revert\n    tag_34:\n      pop\n      tag_35\n      0x04\n      dup1\n      calldatasize\n      sub\n      dup2\n      add\n      swap1\n      tag_36\n      swap2\n      swap1\n      tag_37\n      jump\t// in\n    tag_36:\n      tag_38\n      jump\t// in\n    tag_35:\n      mload(0x40)\n      tag_39\n      swap2\n      swap1\n      tag_40\n      jump\t// in\n    tag_39:\n      mload(0x40)\n      dup1\n      swap2\n      sub\n      swap1\n      return\n        /* \"contracts/AmeComponents/VibeComment/VibeComment.sol\":6767:6996  function getMethodReqAndRes(string memory _methodName)... */\n    tag_6:\n      callvalue\n      dup1\n      iszero\n      tag_41\n      jumpi\n      0x00\n      dup1\n      revert\n    tag_41:\n      pop\n      tag_42\n      0x04\n      dup1\n      calldatasize\n      sub\n      dup2\n      add\n      swap1\n      tag_43\n      swap2\n      swap1\n      tag_44\n      jump\t// in\n    tag_43:\n      tag_45\n      jump\t// in\n    tag_42:\n      mload(0x40)\n      tag_46\n      swap3\n      swap2\n      swap1\n      tag_47\n      jump\t// in\n    tag_46:\n      mload(0x40)\n      dup1\n      swap2\n      sub\n      swap1\n      return\n        /* \"contracts/AmeComponents/VibeComment/VibeComment.sol\":7434:8936  function getComments(... */\n    tag_7:\n      callvalue\n      dup1\n      iszero\n      tag_48\n      jumpi\n      0x00\n      dup1\n      revert\n    tag_48:\n      pop\n      tag_49\n      0x04\n      dup1\n      calldatasize\n      sub\n      dup2\n      add\n      swap1\n      tag_50\n      swap2\n      swap1\n      tag_51\n      jump\t// in\n    tag_50:\n      tag_52\n      jump\t// in\n    tag_49:\n      mload(0x40)\n      tag_53\n      swap2\n      swap1\n      tag_40\n      jump\t// in\n    tag_53:\n      mload(0x40)\n      dup1\n      swap2\n      sub\n      swap1\n      return\n        /* \"https://github.com/OpenZeppelin/openzeppelin-contracts/blob/release-v4.2/contracts/access/Ownable.sol\":1668:1769  function renounceOwnership() public virtual onlyOwner {... */\n    tag_8:\n      callvalue\n      dup1\n      iszero\n      tag_54\n      jumpi\n      0x00\n      dup1\n      revert\n    tag_54:\n      pop\n      tag_55\n      tag_56\n      jump\t// in\n    tag_55:\n      stop\n        /* \"https://github.com/OpenZeppelin/openzeppelin-contracts/blob/release-v4.2/contracts/access/Ownable.sol\":1036:1121  function owner() public view virtual returns (address) {... */\n    tag_9:\n      callvalue\n      dup1\n      iszero\n      tag_57\n      jumpi\n      0x00\n      dup1\n      revert\n    tag_57:\n      pop\n      tag_58\n      tag_59\n      jump\t// in\n    tag_58:\n      mload(0x40)\n      tag_60\n      swap2\n      swap1\n      tag_61\n      jump\t// in\n    tag_60:\n      mload(0x40)\n      dup1\n      swap2\n      sub\n      swap1\n      return\n        /* \"contracts/AmeComponents/VibeComment/VibeComment.sol\":2546:3891  function get(string memory _methodName, bytes memory _methodReq)... */\n    tag_10:\n      callvalue\n      dup1\n      iszero\n      tag_62\n      jumpi\n      0x00\n      dup1\n      revert\n    tag_62:\n      pop\n      tag_63\n      0x04\n      dup1\n      calldatasize\n      sub\n      dup2\n      add\n      swap1\n      tag_64\n      swap2\n      swap1\n      tag_65\n      jump\t// in\n    tag_64:\n      tag_66\n      jump\t// in\n    tag_63:\n      mload(0x40)\n      tag_67\n      swap2\n      swap1\n      tag_68\n      jump\t// in\n    tag_67:\n      mload(0x40)\n      dup1\n      swap2\n      sub\n      swap1\n      return\n        /* \"contracts/AmeComponents/VibeComment/VibeComment.sol\":3897:5881  function post(string memory _methodName, bytes memory _methodReq)... */\n    tag_11:\n      tag_69\n      0x04\n      dup1\n      calldatasize\n      sub\n      dup2\n      add\n      swap1\n      tag_70\n      swap2\n      swap1\n      tag_65\n      jump\t// in\n    tag_70:\n      tag_71\n      jump\t// in\n    tag_69:\n      mload(0x40)\n      tag_72\n      swap2\n      swap1\n      tag_68\n      jump\t// in\n    tag_72:\n      mload(0x40)\n      dup1\n      swap2\n      sub\n      swap1\n      return\n        /* \"contracts/AmeComponents/VibeComment/VibeComment.sol\":5887:6077  function put(string memory _methodName, bytes memory _methodReq)... */\n    tag_12:\n      tag_73\n      0x04\n      dup1\n      calldatasize\n      sub\n      dup2\n      add\n      swap1\n      tag_74\n      swap2\n      swap1\n      tag_65\n      jump\t// in\n    tag_74:\n      tag_75\n      jump\t// in\n    tag_73:\n      mload(0x40)\n      tag_76\n      swap2\n      swap1\n      tag_68\n      jump\t// in\n    tag_76:\n      mload(0x40)\n      dup1\n      swap2\n      sub\n      swap1\n      return\n        /* \"https://github.com/OpenZeppelin/openzeppelin-contracts/blob/release-v4.2/contracts/access/Ownable.sol\":1918:2116  function transferOwnership(address newOwner) public virtual onlyOwner {... */\n    tag_13:\n      callvalue\n      dup1\n      iszero\n      tag_77\n      jumpi\n      0x00\n      dup1\n      revert\n    tag_77:\n      pop\n      tag_78\n      0x04\n      dup1\n      calldatasize\n      sub\n      dup2\n      add\n      swap1\n      tag_79\n      swap2\n      swap1\n      tag_80\n      jump\t// in\n    tag_79:\n      tag_81\n      jump\t// in\n    tag_78:\n      stop\n        /* \"contracts/AmeComponents/VibeComment/VibeComment.sol\":7002:7159  function getMethods(MethodTypes _methodTypes)... */\n    tag_14:\n      callvalue\n      dup1\n      iszero\n      tag_82\n      jumpi\n      0x00\n      dup1\n      revert\n    tag_82:\n      pop\n      tag_83\n      0x04\n      dup1\n      calldatasize\n      sub\n      dup2\n      add\n      swap1\n      tag_84\n      swap2\n      swap1\n      tag_85\n      jump\t// in\n    tag_84:\n      tag_86\n      jump\t// in\n    tag_83:\n      mload(0x40)\n      tag_87\n      swap2\n      swap1\n      tag_40\n      jump\t// in\n    tag_87:\n      mload(0x40)\n      dup1\n      swap2\n      sub\n      swap1\n      return\n        /* \"contracts/AmeComponents/VibeComment/VibeComment.sol\":6083:6418  function options() public pure returns (MethodTypes[] memory) {... */\n    tag_19:\n        /* \"contracts/AmeComponents/VibeComment/VibeComment.sol\":6123:6143  MethodTypes[] memory */\n      0x60\n        /* \"contracts/AmeComponents/VibeComment/VibeComment.sol\":6155:6187  MethodTypes[] memory methodTypes */\n      0x00\n        /* \"contracts/AmeComponents/VibeComment/VibeComment.sol\":6208:6209  4 */\n      0x04\n        /* \"contracts/AmeComponents/VibeComment/VibeComment.sol\":6190:6210  new MethodTypes[](4) */\n      0xffffffffffffffff\n      dup2\n      gt\n      iszero\n      tag_89\n      jumpi\n      tag_90\n      tag_91\n      jump\t// in\n    tag_90:\n    tag_89:\n      mload(0x40)\n      swap1\n      dup1\n      dup3\n      mstore\n      dup1\n      0x20\n      mul\n      0x20\n      add\n      dup3\n      add\n      0x40\n      mstore\n      dup1\n      iszero\n      tag_92\n      jumpi\n      dup2\n      0x20\n      add\n      0x20\n      dup3\n      mul\n      dup1\n      calldatasize\n      dup4\n      calldatacopy\n      dup1\n      dup3\n      add\n      swap2\n      pop\n      pop\n      swap1\n      pop\n    tag_92:\n      pop\n        /* \"contracts/AmeComponents/VibeComment/VibeComment.sol\":6155:6210  MethodTypes[] memory methodTypes = new MethodTypes[](4) */\n      swap1\n      pop\n        /* \"contracts/AmeComponents/VibeComment/VibeComment.sol\":6237:6252  MethodTypes.GET */\n      0x00\n        /* \"contracts/AmeComponents/VibeComment/VibeComment.sol\":6220:6231  methodTypes */\n      dup2\n        /* \"contracts/AmeComponents/VibeComment/VibeComment.sol\":6232:6233  0 */\n      0x00\n        /* \"contracts/AmeComponents/VibeComment/VibeComment.sol\":6220:6234  methodTypes[0] */\n      dup2\n      mload\n      dup2\n      lt\n      tag_93\n      jumpi\n      tag_94\n      tag_95\n      jump\t// in\n    tag_94:\n    tag_93:\n      0x20\n      mul\n      0x20\n      add\n      add\n        /* \"contracts/AmeComponents/VibeComment/VibeComment.sol\":6220:6252  methodTypes[0] = MethodTypes.GET */\n      swap1\n      0x03\n      dup2\n      gt\n      iszero\n      tag_96\n      jumpi\n      tag_97\n      tag_98\n      jump\t// in\n    tag_97:\n    tag_96:\n      swap1\n      dup2\n      0x03\n      dup2\n      gt\n      iszero\n      tag_99\n      jumpi\n      tag_100\n      tag_98\n      jump\t// in\n    tag_100:\n    tag_99:\n      dup2\n      mstore\n      pop\n      pop\n        /* \"contracts/AmeComponents/VibeComment/VibeComment.sol\":6279:6295  MethodTypes.POST */\n      0x01\n        /* \"contracts/AmeComponents/VibeComment/VibeComment.sol\":6262:6273  methodTypes */\n      dup2\n        /* \"contracts/AmeComponents/VibeComment/VibeComment.sol\":6274:6275  1 */\n      0x01\n        /* \"contracts/AmeComponents/VibeComment/VibeComment.sol\":6262:6276  methodTypes[1] */\n      dup2\n      mload\n      dup2\n      lt\n      tag_101\n      jumpi\n      tag_102\n      tag_95\n      jump\t// in\n    tag_102:\n    tag_101:\n      0x20\n      mul\n      0x20\n      add\n      add\n        /* \"contracts/AmeComponents/VibeComment/VibeComment.sol\":6262:6295  methodTypes[1] = MethodTypes.POST */\n      swap1\n      0x03\n      dup2\n      gt\n      iszero\n      tag_103\n      jumpi\n      tag_104\n      tag_98\n      jump\t// in\n    tag_104:\n    tag_103:\n      swap1\n      dup2\n      0x03\n      dup2\n      gt\n      iszero\n      tag_105\n      jumpi\n      tag_106\n      tag_98\n      jump\t// in\n    tag_106:\n    tag_105:\n      dup2\n      mstore\n      pop\n      pop\n        /* \"contracts/AmeComponents/VibeComment/VibeComment.sol\":6322:6337  MethodTypes.PUT */\n      0x02\n        /* \"contracts/AmeComponents/VibeComment/VibeComment.sol\":6305:6316  methodTypes */\n      dup2\n        /* \"contracts/AmeComponents/VibeComment/VibeComment.sol\":6317:6318  2 */\n      0x02\n        /* \"contracts/AmeComponents/VibeComment/VibeComment.sol\":6305:6319  methodTypes[2] */\n      dup2\n      mload\n      dup2\n      lt\n      tag_107\n      jumpi\n      tag_108\n      tag_95\n      jump\t// in\n    tag_108:\n    tag_107:\n      0x20\n      mul\n      0x20\n      add\n      add\n        /* \"contracts/AmeComponents/VibeComment/VibeComment.sol\":6305:6337  methodTypes[2] = MethodTypes.PUT */\n      swap1\n      0x03\n      dup2\n      gt\n      iszero\n      tag_109\n      jumpi\n      tag_110\n      tag_98\n      jump\t// in\n    tag_110:\n    tag_109:\n      swap1\n      dup2\n      0x03\n      dup2\n      gt\n      iszero\n      tag_111\n      jumpi\n      tag_112\n      tag_98\n      jump\t// in\n    tag_112:\n    tag_111:\n      dup2\n      mstore\n      pop\n      pop\n        /* \"contracts/AmeComponents/VibeComment/VibeComment.sol\":6364:6383  MethodTypes.OPTIONS */\n      0x03\n        /* \"contracts/AmeComponents/VibeComment/VibeComment.sol\":6347:6358  methodTypes */\n      dup2\n        /* \"contracts/AmeComponents/VibeComment/VibeComment.sol\":6359:6360  3 */\n      0x03\n        /* \"contracts/AmeComponents/VibeComment/VibeComment.sol\":6347:6361  methodTypes[3] */\n      dup2\n      mload\n      dup2\n      lt\n      tag_113\n      jumpi\n      tag_114\n      tag_95\n      jump\t// in\n    tag_114:\n    tag_113:\n      0x20\n      mul\n      0x20\n      add\n      add\n        /* \"contracts/AmeComponents/VibeComment/VibeComment.sol\":6347:6383  methodTypes[3] = MethodTypes.OPTIONS */\n      swap1\n      0x03\n      dup2\n      gt\n      iszero\n      tag_115\n      jumpi\n      tag_116\n      tag_98\n      jump\t// in\n    tag_116:\n    tag_115:\n      swap1\n      dup2\n      0x03\n      dup2\n      gt\n      iszero\n      tag_117\n      jumpi\n      tag_118\n      tag_98\n      jump\t// in\n    tag_118:\n    tag_117:\n      dup2\n      mstore\n      pop\n      pop\n        /* \"contracts/AmeComponents/VibeComment/VibeComment.sol\":6400:6411  methodTypes */\n      dup1\n        /* \"contracts/AmeComponents/VibeComment/VibeComment.sol\":6393:6411  return methodTypes */\n      swap2\n      pop\n      pop\n        /* \"contracts/AmeComponents/VibeComment/VibeComment.sol\":6083:6418  function options() public pure returns (MethodTypes[] memory) {... */\n      swap1\n      jump\t// out\n        /* \"contracts/AmeComponents/VibeComment/VibeComment.sol\":569:594  uint256 public commentIds */\n    tag_24:\n      sload(0x04)\n      dup2\n      jump\t// out\n        /* \"contracts/AmeComponents/VibeComment/VibeComment.sol\":10455:11203  function generateBase64(... */\n    tag_31:\n        /* \"contracts/AmeComponents/VibeComment/VibeComment.sol\":10648:10661  string memory */\n      0x60\n        /* \"contracts/AmeComponents/VibeComment/VibeComment.sol\":10754:10772  _vibeId.toString() */\n      tag_120\n        /* \"contracts/AmeComponents/VibeComment/VibeComment.sol\":10754:10761  _vibeId */\n      dup7\n        /* \"contracts/AmeComponents/VibeComment/VibeComment.sol\":10754:10770  _vibeId.toString */\n      tag_121\n        /* \"contracts/AmeComponents/VibeComment/VibeComment.sol\":10754:10772  _vibeId.toString() */\n      jump\t// in\n    tag_120:\n        /* \"contracts/AmeComponents/VibeComment/VibeComment.sol\":10819:10840  _commentId.toString() */\n      tag_122\n        /* \"contracts/AmeComponents/VibeComment/VibeComment.sol\":10819:10829  _commentId */\n      dup7\n        /* \"contracts/AmeComponents/VibeComment/VibeComment.sol\":10819:10838  _commentId.toString */\n      tag_121\n        /* \"contracts/AmeComponents/VibeComment/VibeComment.sol\":10819:10840  _commentId.toString() */\n      jump\t// in\n    tag_122:\n        /* \"contracts/AmeComponents/VibeComment/VibeComment.sol\":10887:10917  Base64.encode(bytes(_content)) */\n      tag_123\n        /* \"contracts/AmeComponents/VibeComment/VibeComment.sol\":10907:10915  _content */\n      dup7\n        /* \"contracts/AmeComponents/VibeComment/VibeComment.sol\":10887:10900  Base64.encode */\n      tag_124\n        /* \"contracts/AmeComponents/VibeComment/VibeComment.sol\":10887:10917  Base64.encode(bytes(_content)) */\n      jump\t// in\n    tag_123:\n        /* \"contracts/AmeComponents/VibeComment/VibeComment.sol\":10964:10996  Base64.encode(bytes(_resources)) */\n      tag_125\n        /* \"contracts/AmeComponents/VibeComment/VibeComment.sol\":10984:10994  _resources */\n      dup7\n        /* \"contracts/AmeComponents/VibeComment/VibeComment.sol\":10964:10977  Base64.encode */\n      tag_124\n        /* \"contracts/AmeComponents/VibeComment/VibeComment.sol\":10964:10996  Base64.encode(bytes(_resources)) */\n      jump\t// in\n    tag_125:\n        /* \"contracts/AmeComponents/VibeComment/VibeComment.sol\":11043:11091  Strings.toHexString(uint256(uint160(_user)), 20) */\n      tag_126\n        /* \"contracts/AmeComponents/VibeComment/VibeComment.sol\":11079:11084  _user */\n      dup7\n        /* \"contracts/AmeComponents/VibeComment/VibeComment.sol\":11063:11086  uint256(uint160(_user)) */\n      0xffffffffffffffffffffffffffffffffffffffff\n      and\n        /* \"contracts/AmeComponents/VibeComment/VibeComment.sol\":11088:11090  20 */\n      0x14\n        /* \"contracts/AmeComponents/VibeComment/VibeComment.sol\":11043:11062  Strings.toHexString */\n      tag_127\n        /* \"contracts/AmeComponents/VibeComment/VibeComment.sol\":11043:11091  Strings.toHexString(uint256(uint160(_user)), 20) */\n      jump\t// in\n    tag_126:\n        /* \"contracts/AmeComponents/VibeComment/VibeComment.sol\":11138:11164  block.timestamp.toString() */\n      tag_128\n        /* \"contracts/AmeComponents/VibeComment/VibeComment.sol\":11138:11153  block.timestamp */\n      timestamp\n        /* \"contracts/AmeComponents/VibeComment/VibeComment.sol\":11138:11162  block.timestamp.toString */\n      tag_121\n        /* \"contracts/AmeComponents/VibeComment/VibeComment.sol\":11138:11164  block.timestamp.toString() */\n      jump\t// in\n    tag_128:\n        /* \"contracts/AmeComponents/VibeComment/VibeComment.sol\":10716:11182  abi.encodePacked(... */\n      add(0x20, mload(0x40))\n      tag_129\n      swap7\n      swap6\n      swap5\n      swap4\n      swap3\n      swap2\n      swap1\n      tag_130\n      jump\t// in\n    tag_129:\n      mload(0x40)\n      0x20\n      dup2\n      dup4\n      sub\n      sub\n      dup2\n      mstore\n      swap1\n      0x40\n      mstore\n        /* \"contracts/AmeComponents/VibeComment/VibeComment.sol\":10673:11196  return... */\n      swap1\n      pop\n        /* \"contracts/AmeComponents/VibeComment/VibeComment.sol\":10455:11203  function generateBase64(... */\n      swap6\n      swap5\n      pop\n      pop\n      pop\n      pop\n      pop\n      jump\t// out\n        /* \"contracts/AmeComponents/VibeComment/VibeComment.sol\":8943:10449  function getCommentsByAddress(... */\n    tag_38:\n        /* \"contracts/AmeComponents/VibeComment/VibeComment.sol\":9076:9091  string[] memory */\n      0x60\n        /* \"contracts/AmeComponents/VibeComment/VibeComment.sol\":9135:9136  0 */\n      0x00\n        /* \"contracts/AmeComponents/VibeComment/VibeComment.sol\":9107:9124  UserCommentIndexs */\n      0x06\n        /* \"contracts/AmeComponents/VibeComment/VibeComment.sol\":9107:9131  UserCommentIndexs[_user] */\n      0x00\n        /* \"contracts/AmeComponents/VibeComment/VibeComment.sol\":9125:9130  _user */\n      dup7\n        /* \"contracts/AmeComponents/VibeComment/VibeComment.sol\":9107:9131  UserCommentIndexs[_user] */\n      0xffffffffffffffffffffffffffffffffffffffff\n      and\n      0xffffffffffffffffffffffffffffffffffffffff\n      and\n      dup2\n      mstore\n      0x20\n      add\n      swap1\n      dup2\n      mstore\n      0x20\n      add\n      0x00\n      keccak256\n      sload\n        /* \"contracts/AmeComponents/VibeComment/VibeComment.sol\":9107:9136  UserCommentIndexs[_user] == 0 */\n      sub\n        /* \"contracts/AmeComponents/VibeComment/VibeComment.sol\":9103:10443  if (UserCommentIndexs[_user] == 0) {... */\n      tag_132\n      jumpi\n        /* \"contracts/AmeComponents/VibeComment/VibeComment.sol\":9152:9177  string[] memory tempArray */\n      0x00\n        /* \"contracts/AmeComponents/VibeComment/VibeComment.sol\":9193:9194  0 */\n      dup1\n        /* \"contracts/AmeComponents/VibeComment/VibeComment.sol\":9180:9195  new string[](0) */\n      0xffffffffffffffff\n      dup2\n      gt\n      iszero\n      tag_133\n      jumpi\n      tag_134\n      tag_91\n      jump\t// in\n    tag_134:\n    tag_133:\n      mload(0x40)\n      swap1\n      dup1\n      dup3\n      mstore\n      dup1\n      0x20\n      mul\n      0x20\n      add\n      dup3\n      add\n      0x40\n      mstore\n      dup1\n      iszero\n      tag_135\n      jumpi\n      dup2\n      0x20\n      add\n    tag_136:\n      0x60\n      dup2\n      mstore\n      0x20\n      add\n      swap1\n      0x01\n      swap1\n      sub\n      swap1\n      dup2\n      tag_136\n      jumpi\n      swap1\n      pop\n    tag_135:\n      pop\n        /* \"contracts/AmeComponents/VibeComment/VibeComment.sol\":9152:9195  string[] memory tempArray = new string[](0) */\n      swap1\n      pop\n        /* \"contracts/AmeComponents/VibeComment/VibeComment.sol\":9216:9225  tempArray */\n      dup1\n        /* \"contracts/AmeComponents/VibeComment/VibeComment.sol\":9209:9225  return tempArray */\n      swap2\n      pop\n      pop\n      jump(tag_131)\n        /* \"contracts/AmeComponents/VibeComment/VibeComment.sol\":9103:10443  if (UserCommentIndexs[_user] == 0) {... */\n    tag_132:\n        /* \"contracts/AmeComponents/VibeComment/VibeComment.sol\":9288:9289  1 */\n      0x01\n        /* \"contracts/AmeComponents/VibeComment/VibeComment.sol\":9277:9285  _pageNum */\n      dup4\n        /* \"contracts/AmeComponents/VibeComment/VibeComment.sol\":9277:9289  _pageNum > 1 */\n      gt\n        /* \"contracts/AmeComponents/VibeComment/VibeComment.sol\":9277:9370  _pageNum > 1 &&... */\n      dup1\n      iszero\n      tag_138\n      jumpi\n      pop\n        /* \"contracts/AmeComponents/VibeComment/VibeComment.sol\":9368:9369  1 */\n      0x01\n        /* \"contracts/AmeComponents/VibeComment/VibeComment.sol\":9357:9365  _pageNum */\n      dup4\n        /* \"contracts/AmeComponents/VibeComment/VibeComment.sol\":9357:9369  _pageNum - 1 */\n      tag_139\n      swap2\n      swap1\n      tag_140\n      jump\t// in\n    tag_139:\n        /* \"contracts/AmeComponents/VibeComment/VibeComment.sol\":9343:9352  _pageSize */\n      dup3\n        /* \"contracts/AmeComponents/VibeComment/VibeComment.sol\":9338:9339  1 */\n      0x01\n        /* \"contracts/AmeComponents/VibeComment/VibeComment.sol\":9311:9328  UserCommentIndexs */\n      0x06\n        /* \"contracts/AmeComponents/VibeComment/VibeComment.sol\":9311:9335  UserCommentIndexs[_user] */\n      0x00\n        /* \"contracts/AmeComponents/VibeComment/VibeComment.sol\":9329:9334  _user */\n      dup9\n        /* \"contracts/AmeComponents/VibeComment/VibeComment.sol\":9311:9335  UserCommentIndexs[_user] */\n      0xffffffffffffffffffffffffffffffffffffffff\n      and\n      0xffffffffffffffffffffffffffffffffffffffff\n      and\n      dup2\n      mstore\n      0x20\n      add\n      swap1\n      dup2\n      mstore\n      0x20\n      add\n      0x00\n      keccak256\n      sload\n        /* \"contracts/AmeComponents/VibeComment/VibeComment.sol\":9311:9339  UserCommentIndexs[_user] - 1 */\n      tag_141\n      swap2\n      swap1\n      tag_140\n      jump\t// in\n    tag_141:\n        /* \"contracts/AmeComponents/VibeComment/VibeComment.sol\":9310:9352  (UserCommentIndexs[_user] - 1) / _pageSize */\n      tag_142\n      swap2\n      swap1\n      tag_143\n      jump\t// in\n    tag_142:\n        /* \"contracts/AmeComponents/VibeComment/VibeComment.sol\":9309:9370  ((UserCommentIndexs[_user] - 1) / _pageSize) < (_pageNum - 1) */\n      lt\n        /* \"contracts/AmeComponents/VibeComment/VibeComment.sol\":9277:9370  _pageNum > 1 &&... */\n    tag_138:\n        /* \"contracts/AmeComponents/VibeComment/VibeComment.sol\":9256:10433  if (... */\n      iszero\n      tag_144\n      jumpi\n        /* \"contracts/AmeComponents/VibeComment/VibeComment.sol\":9403:9428  string[] memory tempArray */\n      0x00\n        /* \"contracts/AmeComponents/VibeComment/VibeComment.sol\":9444:9445  0 */\n      dup1\n        /* \"contracts/AmeComponents/VibeComment/VibeComment.sol\":9431:9446  new string[](0) */\n      0xffffffffffffffff\n      dup2\n      gt\n      iszero\n      tag_145\n      jumpi\n      tag_146\n      tag_91\n      jump\t// in\n    tag_146:\n    tag_145:\n      mload(0x40)\n      swap1\n      dup1\n      dup3\n      mstore\n      dup1\n      0x20\n      mul\n      0x20\n      add\n      dup3\n      add\n      0x40\n      mstore\n      dup1\n      iszero\n      tag_147\n      jumpi\n      dup2\n      0x20\n      add\n    tag_148:\n      0x60\n      dup2\n      mstore\n      0x20\n      add\n      swap1\n      0x01\n      swap1\n      sub\n      swap1\n      dup2\n      tag_148\n      jumpi\n      swap1\n      pop\n    tag_147:\n      pop\n        /* \"contracts/AmeComponents/VibeComment/VibeComment.sol\":9403:9446  string[] memory tempArray = new string[](0) */\n      swap1\n      pop\n        /* \"contracts/AmeComponents/VibeComment/VibeComment.sol\":9471:9480  tempArray */\n      dup1\n        /* \"contracts/AmeComponents/VibeComment/VibeComment.sol\":9464:9480  return tempArray */\n      swap2\n      pop\n      pop\n      jump(tag_131)\n        /* \"contracts/AmeComponents/VibeComment/VibeComment.sol\":9256:10433  if (... */\n    tag_144:\n        /* \"contracts/AmeComponents/VibeComment/VibeComment.sol\":9519:9538  uint256 arrayLength */\n      0x00\n        /* \"contracts/AmeComponents/VibeComment/VibeComment.sol\":9556:9574  uint256 arrayIndex */\n      dup1\n        /* \"contracts/AmeComponents/VibeComment/VibeComment.sol\":9577:9578  0 */\n      0x00\n        /* \"contracts/AmeComponents/VibeComment/VibeComment.sol\":9556:9578  uint256 arrayIndex = 0 */\n      swap1\n      pop\n        /* \"contracts/AmeComponents/VibeComment/VibeComment.sol\":9597:9614  uint256 dataStart */\n      0x00\n        /* \"contracts/AmeComponents/VibeComment/VibeComment.sol\":9707:9716  _pageSize */\n      dup5\n        /* \"contracts/AmeComponents/VibeComment/VibeComment.sol\":9682:9683  1 */\n      0x01\n        /* \"contracts/AmeComponents/VibeComment/VibeComment.sol\":9671:9679  _pageNum */\n      dup8\n        /* \"contracts/AmeComponents/VibeComment/VibeComment.sol\":9671:9683  _pageNum - 1 */\n      tag_150\n      swap2\n      swap1\n      tag_140\n      jump\t// in\n    tag_150:\n        /* \"contracts/AmeComponents/VibeComment/VibeComment.sol\":9670:9716  (_pageNum - 1) *... */\n      tag_151\n      swap2\n      swap1\n      tag_152\n      jump\t// in\n    tag_151:\n        /* \"contracts/AmeComponents/VibeComment/VibeComment.sol\":9645:9646  1 */\n      0x01\n        /* \"contracts/AmeComponents/VibeComment/VibeComment.sol\":9618:9635  UserCommentIndexs */\n      0x06\n        /* \"contracts/AmeComponents/VibeComment/VibeComment.sol\":9618:9642  UserCommentIndexs[_user] */\n      0x00\n        /* \"contracts/AmeComponents/VibeComment/VibeComment.sol\":9636:9641  _user */\n      dup11\n        /* \"contracts/AmeComponents/VibeComment/VibeComment.sol\":9618:9642  UserCommentIndexs[_user] */\n      0xffffffffffffffffffffffffffffffffffffffff\n      and\n      0xffffffffffffffffffffffffffffffffffffffff\n      and\n      dup2\n      mstore\n      0x20\n      add\n      swap1\n      dup2\n      mstore\n      0x20\n      add\n      0x00\n      keccak256\n      sload\n        /* \"contracts/AmeComponents/VibeComment/VibeComment.sol\":9618:9646  UserCommentIndexs[_user] - 1 */\n      tag_153\n      swap2\n      swap1\n      tag_140\n      jump\t// in\n    tag_153:\n        /* \"contracts/AmeComponents/VibeComment/VibeComment.sol\":9617:9716  (UserCommentIndexs[_user] - 1) -... */\n      tag_154\n      swap2\n      swap1\n      tag_140\n      jump\t// in\n    tag_154:\n        /* \"contracts/AmeComponents/VibeComment/VibeComment.sol\":9597:9716  uint256 dataStart = (UserCommentIndexs[_user] - 1) -... */\n      swap1\n      pop\n        /* \"contracts/AmeComponents/VibeComment/VibeComment.sol\":9734:9749  uint256 dataEnd */\n      0x00\n        /* \"contracts/AmeComponents/VibeComment/VibeComment.sol\":9784:9793  _pageSize */\n      dup6\n        /* \"contracts/AmeComponents/VibeComment/VibeComment.sol\":9772:9781  dataStart */\n      dup3\n        /* \"contracts/AmeComponents/VibeComment/VibeComment.sol\":9772:9793  dataStart < _pageSize */\n      lt\n        /* \"contracts/AmeComponents/VibeComment/VibeComment.sol\":9768:10023  if (dataStart < _pageSize) {... */\n      iszero\n      tag_155\n      jumpi\n        /* \"contracts/AmeComponents/VibeComment/VibeComment.sol\":9827:9828  0 */\n      0x00\n        /* \"contracts/AmeComponents/VibeComment/VibeComment.sol\":9817:9828  dataEnd = 0 */\n      swap1\n      pop\n        /* \"contracts/AmeComponents/VibeComment/VibeComment.sol\":9876:9877  1 */\n      0x01\n        /* \"contracts/AmeComponents/VibeComment/VibeComment.sol\":9864:9873  dataStart */\n      dup3\n        /* \"contracts/AmeComponents/VibeComment/VibeComment.sol\":9864:9877  dataStart + 1 */\n      tag_156\n      swap2\n      swap1\n      tag_157\n      jump\t// in\n    tag_156:\n        /* \"contracts/AmeComponents/VibeComment/VibeComment.sol\":9850:9877  arrayLength = dataStart + 1 */\n      swap4\n      pop\n        /* \"contracts/AmeComponents/VibeComment/VibeComment.sol\":9768:10023  if (dataStart < _pageSize) {... */\n      jump(tag_158)\n    tag_155:\n        /* \"contracts/AmeComponents/VibeComment/VibeComment.sol\":9958:9959  1 */\n      0x01\n        /* \"contracts/AmeComponents/VibeComment/VibeComment.sol\":9946:9955  _pageSize */\n      dup7\n        /* \"contracts/AmeComponents/VibeComment/VibeComment.sol\":9934:9943  dataStart */\n      dup4\n        /* \"contracts/AmeComponents/VibeComment/VibeComment.sol\":9934:9955  dataStart - _pageSize */\n      tag_159\n      swap2\n      swap1\n      tag_140\n      jump\t// in\n    tag_159:\n        /* \"contracts/AmeComponents/VibeComment/VibeComment.sol\":9934:9959  dataStart - _pageSize + 1 */\n      tag_160\n      swap2\n      swap1\n      tag_157\n      jump\t// in\n    tag_160:\n        /* \"contracts/AmeComponents/VibeComment/VibeComment.sol\":9924:9959  dataEnd = dataStart - _pageSize + 1 */\n      swap1\n      pop\n        /* \"contracts/AmeComponents/VibeComment/VibeComment.sol\":9995:10004  _pageSize */\n      dup6\n        /* \"contracts/AmeComponents/VibeComment/VibeComment.sol\":9981:10004  arrayLength = _pageSize */\n      swap4\n      pop\n        /* \"contracts/AmeComponents/VibeComment/VibeComment.sol\":9768:10023  if (dataStart < _pageSize) {... */\n    tag_158:\n        /* \"contracts/AmeComponents/VibeComment/VibeComment.sol\":10041:10068  string[] memory returnArray */\n      0x00\n        /* \"contracts/AmeComponents/VibeComment/VibeComment.sol\":10084:10095  arrayLength */\n      dup5\n        /* \"contracts/AmeComponents/VibeComment/VibeComment.sol\":10071:10096  new string[](arrayLength) */\n      0xffffffffffffffff\n      dup2\n      gt\n      iszero\n      tag_161\n      jumpi\n      tag_162\n      tag_91\n      jump\t// in\n    tag_162:\n    tag_161:\n      mload(0x40)\n      swap1\n      dup1\n      dup3\n      mstore\n      dup1\n      0x20\n      mul\n      0x20\n      add\n      dup3\n      add\n      0x40\n      mstore\n      dup1\n      iszero\n      tag_163\n      jumpi\n      dup2\n      0x20\n      add\n    tag_164:\n      0x60\n      dup2\n      mstore\n      0x20\n      add\n      swap1\n      0x01\n      swap1\n      sub\n      swap1\n      dup2\n      tag_164\n      jumpi\n      swap1\n      pop\n    tag_163:\n      pop\n        /* \"contracts/AmeComponents/VibeComment/VibeComment.sol\":10041:10096  string[] memory returnArray = new string[](arrayLength) */\n      swap1\n      pop\n        /* \"contracts/AmeComponents/VibeComment/VibeComment.sol\":10120:10128  int256 i */\n      0x00\n        /* \"contracts/AmeComponents/VibeComment/VibeComment.sol\":10138:10147  dataStart */\n      dup4\n        /* \"contracts/AmeComponents/VibeComment/VibeComment.sol\":10120:10148  int256 i = int256(dataStart) */\n      swap1\n      pop\n        /* \"contracts/AmeComponents/VibeComment/VibeComment.sol\":10115:10383  for (int256 i = int256(dataStart); i >= int256(dataEnd); i--) {... */\n    tag_165:\n        /* \"contracts/AmeComponents/VibeComment/VibeComment.sol\":10162:10169  dataEnd */\n      dup3\n        /* \"contracts/AmeComponents/VibeComment/VibeComment.sol\":10150:10151  i */\n      dup2\n        /* \"contracts/AmeComponents/VibeComment/VibeComment.sol\":10150:10170  i >= int256(dataEnd) */\n      slt\n        /* \"contracts/AmeComponents/VibeComment/VibeComment.sol\":10115:10383  for (int256 i = int256(dataStart); i >= int256(dataEnd); i--) {... */\n      tag_166\n      jumpi\n        /* \"contracts/AmeComponents/VibeComment/VibeComment.sol\":10199:10216  uint256 commentId */\n      0x00\n        /* \"contracts/AmeComponents/VibeComment/VibeComment.sol\":10217:10236  UserIndexCommentIds */\n      0x08\n        /* \"contracts/AmeComponents/VibeComment/VibeComment.sol\":10217:10243  UserIndexCommentIds[_user] */\n      0x00\n        /* \"contracts/AmeComponents/VibeComment/VibeComment.sol\":10237:10242  _user */\n      dup13\n        /* \"contracts/AmeComponents/VibeComment/VibeComment.sol\":10217:10243  UserIndexCommentIds[_user] */\n      0xffffffffffffffffffffffffffffffffffffffff\n      and\n      0xffffffffffffffffffffffffffffffffffffffff\n      and\n      dup2\n      mstore\n      0x20\n      add\n      swap1\n      dup2\n      mstore\n      0x20\n      add\n      0x00\n      keccak256\n        /* \"contracts/AmeComponents/VibeComment/VibeComment.sol\":10217:10255  UserIndexCommentIds[_user][uint256(i)] */\n      0x00\n        /* \"contracts/AmeComponents/VibeComment/VibeComment.sol\":10252:10253  i */\n      dup4\n        /* \"contracts/AmeComponents/VibeComment/VibeComment.sol\":10217:10255  UserIndexCommentIds[_user][uint256(i)] */\n      dup2\n      mstore\n      0x20\n      add\n      swap1\n      dup2\n      mstore\n      0x20\n      add\n      0x00\n      keccak256\n      sload\n        /* \"contracts/AmeComponents/VibeComment/VibeComment.sol\":10199:10255  uint256 commentId=UserIndexCommentIds[_user][uint256(i)] */\n      swap1\n      pop\n        /* \"contracts/AmeComponents/VibeComment/VibeComment.sol\":10303:10311  Comments */\n      0x09\n        /* \"contracts/AmeComponents/VibeComment/VibeComment.sol\":10303:10322  Comments[commentId] */\n      0x00\n        /* \"contracts/AmeComponents/VibeComment/VibeComment.sol\":10312:10321  commentId */\n      dup3\n        /* \"contracts/AmeComponents/VibeComment/VibeComment.sol\":10303:10322  Comments[commentId] */\n      dup2\n      mstore\n      0x20\n      add\n      swap1\n      dup2\n      mstore\n      0x20\n      add\n      0x00\n      keccak256\n        /* \"contracts/AmeComponents/VibeComment/VibeComment.sol\":10303:10330  Comments[commentId].content */\n      0x02\n      add\n        /* \"contracts/AmeComponents/VibeComment/VibeComment.sol\":10277:10330  returnArray[arrayIndex] = Comments[commentId].content */\n      dup1\n      sload\n      tag_168\n      swap1\n      tag_169\n      jump\t// in\n    tag_168:\n      dup1\n      0x1f\n      add\n      0x20\n      dup1\n      swap2\n      div\n      mul\n      0x20\n      add\n      mload(0x40)\n      swap1\n      dup2\n      add\n      0x40\n      mstore\n      dup1\n      swap3\n      swap2\n      swap1\n      dup2\n      dup2\n      mstore\n      0x20\n      add\n      dup3\n      dup1\n      sload\n      tag_170\n      swap1\n      tag_169\n      jump\t// in\n    tag_170:\n      dup1\n      iszero\n      tag_171\n      jumpi\n      dup1\n      0x1f\n      lt\n      tag_172\n      jumpi\n      0x0100\n      dup1\n      dup4\n      sload\n      div\n      mul\n      dup4\n      mstore\n      swap2\n      0x20\n      add\n      swap2\n      jump(tag_171)\n    tag_172:\n      dup3\n      add\n      swap2\n      swap1\n      0x00\n      mstore\n      keccak256(0x00, 0x20)\n      swap1\n    tag_173:\n      dup2\n      sload\n      dup2\n      mstore\n      swap1\n      0x01\n      add\n      swap1\n      0x20\n      add\n      dup1\n      dup4\n      gt\n      tag_173\n      jumpi\n      dup3\n      swap1\n      sub\n      0x1f\n      and\n      dup3\n      add\n      swap2\n    tag_171:\n      pop\n      pop\n      pop\n      pop\n      pop\n        /* \"contracts/AmeComponents/VibeComment/VibeComment.sol\":10277:10288  returnArray */\n      dup4\n        /* \"contracts/AmeComponents/VibeComment/VibeComment.sol\":10289:10299  arrayIndex */\n      dup8\n        /* \"contracts/AmeComponents/VibeComment/VibeComment.sol\":10277:10300  returnArray[arrayIndex] */\n      dup2\n      mload\n      dup2\n      lt\n      tag_174\n      jumpi\n      tag_175\n      tag_95\n      jump\t// in\n    tag_175:\n    tag_174:\n      0x20\n      mul\n      0x20\n      add\n      add\n        /* \"contracts/AmeComponents/VibeComment/VibeComment.sol\":10277:10330  returnArray[arrayIndex] = Comments[commentId].content */\n      dup2\n      swap1\n      mstore\n      pop\n        /* \"contracts/AmeComponents/VibeComment/VibeComment.sol\":10352:10364  arrayIndex++ */\n      dup6\n      dup1\n      tag_176\n      swap1\n      tag_177\n      jump\t// in\n    tag_176:\n      swap7\n      pop\n      pop\n        /* \"contracts/AmeComponents/VibeComment/VibeComment.sol\":10177:10383  {... */\n      pop\n        /* \"contracts/AmeComponents/VibeComment/VibeComment.sol\":10172:10175  i-- */\n      dup1\n      dup1\n      tag_178\n      swap1\n      tag_179\n      jump\t// in\n    tag_178:\n      swap2\n      pop\n      pop\n        /* \"contracts/AmeComponents/VibeComment/VibeComment.sol\":10115:10383  for (int256 i = int256(dataStart); i >= int256(dataEnd); i--) {... */\n      jump(tag_165)\n    tag_166:\n      pop\n        /* \"contracts/AmeComponents/VibeComment/VibeComment.sol\":10407:10418  returnArray */\n      dup1\n        /* \"contracts/AmeComponents/VibeComment/VibeComment.sol\":10400:10418  return returnArray */\n      swap6\n      pop\n      pop\n      pop\n      pop\n      pop\n      pop\n        /* \"contracts/AmeComponents/VibeComment/VibeComment.sol\":8943:10449  function getCommentsByAddress(... */\n    tag_131:\n      swap4\n      swap3\n      pop\n      pop\n      pop\n      jump\t// out\n        /* \"contracts/AmeComponents/VibeComment/VibeComment.sol\":6767:6996  function getMethodReqAndRes(string memory _methodName)... */\n    tag_45:\n        /* \"contracts/AmeComponents/VibeComment/VibeComment.sol\":6867:6886  Types.Type[] memory */\n      0x60\n        /* \"contracts/AmeComponents/VibeComment/VibeComment.sol\":6888:6907  Types.Type[] memory */\n      dup1\n        /* \"contracts/AmeComponents/VibeComment/VibeComment.sol\":6931:6945  methodRequests */\n      0x02\n        /* \"contracts/AmeComponents/VibeComment/VibeComment.sol\":6946:6957  _methodName */\n      dup4\n        /* \"contracts/AmeComponents/VibeComment/VibeComment.sol\":6931:6958  methodRequests[_methodName] */\n      mload(0x40)\n      tag_181\n      swap2\n      swap1\n      tag_182\n      jump\t// in\n    tag_181:\n      swap1\n      dup2\n      mstore\n      0x20\n      add\n      mload(0x40)\n      dup1\n      swap2\n      sub\n      swap1\n      keccak256\n        /* \"contracts/AmeComponents/VibeComment/VibeComment.sol\":6960:6975  methodResponses */\n      0x03\n        /* \"contracts/AmeComponents/VibeComment/VibeComment.sol\":6976:6987  _methodName */\n      dup5\n        /* \"contracts/AmeComponents/VibeComment/VibeComment.sol\":6960:6988  methodResponses[_methodName] */\n      mload(0x40)\n      tag_183\n      swap2\n      swap1\n      tag_182\n      jump\t// in\n    tag_183:\n      swap1\n      dup2\n      mstore\n      0x20\n      add\n      mload(0x40)\n      dup1\n      swap2\n      sub\n      swap1\n      keccak256\n        /* \"contracts/AmeComponents/VibeComment/VibeComment.sol\":6923:6989  return (methodRequests[_methodName], methodResponses[_methodName]) */\n      dup2\n      dup1\n      sload\n      dup1\n      0x20\n      mul\n      0x20\n      add\n      mload(0x40)\n      swap1\n      dup2\n      add\n      0x40\n      mstore\n      dup1\n      swap3\n      swap2\n      swap1\n      dup2\n      dup2\n      mstore\n      0x20\n      add\n      dup3\n      dup1\n      sload\n      dup1\n      iszero\n      tag_184\n      jumpi\n      0x20\n      mul\n      dup3\n      add\n      swap2\n      swap1\n      0x00\n      mstore\n      keccak256(0x00, 0x20)\n      swap1\n      0x00\n      swap1\n    tag_185:\n      dup3\n      dup3\n      swap1\n      sload\n      swap1\n      0x0100\n      exp\n      swap1\n      div\n      0xff\n      and\n      0xc6\n      dup2\n      gt\n      iszero\n      tag_186\n      jumpi\n      tag_187\n      tag_98\n      jump\t// in\n    tag_187:\n    tag_186:\n      dup2\n      mstore\n      0x20\n      add\n      swap1\n      0x01\n      add\n      swap1\n      0x20\n      dup3\n      0x00\n      add\n      div\n      swap3\n      dup4\n      add\n      swap3\n      0x01\n      sub\n      dup3\n      mul\n      swap2\n      pop\n      dup1\n      dup5\n      gt\n      tag_185\n      jumpi\n      swap1\n      pop\n    tag_184:\n      pop\n      pop\n      pop\n      pop\n      pop\n      swap2\n      pop\n      dup1\n      dup1\n      sload\n      dup1\n      0x20\n      mul\n      0x20\n      add\n      mload(0x40)\n      swap1\n      dup2\n      add\n      0x40\n      mstore\n      dup1\n      swap3\n      swap2\n      swap1\n      dup2\n      dup2\n      mstore\n      0x20\n      add\n      dup3\n      dup1\n      sload\n      dup1\n      iszero\n      tag_188\n      jumpi\n      0x20\n      mul\n      dup3\n      add\n      swap2\n      swap1\n      0x00\n      mstore\n      keccak256(0x00, 0x20)\n      swap1\n      0x00\n      swap1\n    tag_189:\n      dup3\n      dup3\n      swap1\n      sload\n      swap1\n      0x0100\n      exp\n      swap1\n      div\n      0xff\n      and\n      0xc6\n      dup2\n      gt\n      iszero\n      tag_190\n      jumpi\n      tag_191\n      tag_98\n      jump\t// in\n    tag_191:\n    tag_190:\n      dup2\n      mstore\n      0x20\n      add\n      swap1\n      0x01\n      add\n      swap1\n      0x20\n      dup3\n      0x00\n      add\n      div\n      swap3\n      dup4\n      add\n      swap3\n      0x01\n      sub\n      dup3\n      mul\n      swap2\n      pop\n      dup1\n      dup5\n      gt\n      tag_189\n      jumpi\n      swap1\n      pop\n    tag_188:\n      pop\n      pop\n      pop\n      pop\n      pop\n      swap1\n      pop\n      swap2\n      pop\n      swap2\n      pop\n        /* \"contracts/AmeComponents/VibeComment/VibeComment.sol\":6767:6996  function getMethodReqAndRes(string memory _methodName)... */\n      swap2\n      pop\n      swap2\n      jump\t// out\n        /* \"contracts/AmeComponents/VibeComment/VibeComment.sol\":7434:8936  function getComments(... */\n    tag_52:\n        /* \"contracts/AmeComponents/VibeComment/VibeComment.sol\":7560:7575  string[] memory */\n      0x60\n        /* \"contracts/AmeComponents/VibeComment/VibeComment.sol\":7621:7622  0 */\n      0x00\n        /* \"contracts/AmeComponents/VibeComment/VibeComment.sol\":7591:7608  VibeCommentIndexs */\n      0x05\n        /* \"contracts/AmeComponents/VibeComment/VibeComment.sol\":7591:7617  VibeCommentIndexs[_vibeId] */\n      0x00\n        /* \"contracts/AmeComponents/VibeComment/VibeComment.sol\":7609:7616  _vibeId */\n      dup7\n        /* \"contracts/AmeComponents/VibeComment/VibeComment.sol\":7591:7617  VibeCommentIndexs[_vibeId] */\n      dup2\n      mstore\n      0x20\n      add\n      swap1\n      dup2\n      mstore\n      0x20\n      add\n      0x00\n      keccak256\n      sload\n        /* \"contracts/AmeComponents/VibeComment/VibeComment.sol\":7591:7622  VibeCommentIndexs[_vibeId] == 0 */\n      sub\n        /* \"contracts/AmeComponents/VibeComment/VibeComment.sol\":7587:8930  if (VibeCommentIndexs[_vibeId] == 0) {... */\n      tag_193\n      jumpi\n        /* \"contracts/AmeComponents/VibeComment/VibeComment.sol\":7638:7663  string[] memory tempArray */\n      0x00\n        /* \"contracts/AmeComponents/VibeComment/VibeComment.sol\":7679:7680  0 */\n      dup1\n        /* \"contracts/AmeComponents/VibeComment/VibeComment.sol\":7666:7681  new string[](0) */\n      0xffffffffffffffff\n      dup2\n      gt\n      iszero\n      tag_194\n      jumpi\n      tag_195\n      tag_91\n      jump\t// in\n    tag_195:\n    tag_194:\n      mload(0x40)\n      swap1\n      dup1\n      dup3\n      mstore\n      dup1\n      0x20\n      mul\n      0x20\n      add\n      dup3\n      add\n      0x40\n      mstore\n      dup1\n      iszero\n      tag_196\n      jumpi\n      dup2\n      0x20\n      add\n    tag_197:\n      0x60\n      dup2\n      mstore\n      0x20\n      add\n      swap1\n      0x01\n      swap1\n      sub\n      swap1\n      dup2\n      tag_197\n      jumpi\n      swap1\n      pop\n    tag_196:\n      pop\n        /* \"contracts/AmeComponents/VibeComment/VibeComment.sol\":7638:7681  string[] memory tempArray = new string[](0) */\n      swap1\n      pop\n        /* \"contracts/AmeComponents/VibeComment/VibeComment.sol\":7702:7711  tempArray */\n      dup1\n        /* \"contracts/AmeComponents/VibeComment/VibeComment.sol\":7695:7711  return tempArray */\n      swap2\n      pop\n      pop\n      jump(tag_192)\n        /* \"contracts/AmeComponents/VibeComment/VibeComment.sol\":7587:8930  if (VibeCommentIndexs[_vibeId] == 0) {... */\n    tag_193:\n        /* \"contracts/AmeComponents/VibeComment/VibeComment.sol\":7774:7775  1 */\n      0x01\n        /* \"contracts/AmeComponents/VibeComment/VibeComment.sol\":7763:7771  _pageNum */\n      dup4\n        /* \"contracts/AmeComponents/VibeComment/VibeComment.sol\":7763:7775  _pageNum > 1 */\n      gt\n        /* \"contracts/AmeComponents/VibeComment/VibeComment.sol\":7763:7858  _pageNum > 1 &&... */\n      dup1\n      iszero\n      tag_199\n      jumpi\n      pop\n        /* \"contracts/AmeComponents/VibeComment/VibeComment.sol\":7856:7857  1 */\n      0x01\n        /* \"contracts/AmeComponents/VibeComment/VibeComment.sol\":7845:7853  _pageNum */\n      dup4\n        /* \"contracts/AmeComponents/VibeComment/VibeComment.sol\":7845:7857  _pageNum - 1 */\n      tag_200\n      swap2\n      swap1\n      tag_140\n      jump\t// in\n    tag_200:\n        /* \"contracts/AmeComponents/VibeComment/VibeComment.sol\":7831:7840  _pageSize */\n      dup3\n        /* \"contracts/AmeComponents/VibeComment/VibeComment.sol\":7826:7827  1 */\n      0x01\n        /* \"contracts/AmeComponents/VibeComment/VibeComment.sol\":7797:7814  VibeCommentIndexs */\n      0x05\n        /* \"contracts/AmeComponents/VibeComment/VibeComment.sol\":7797:7823  VibeCommentIndexs[_vibeId] */\n      0x00\n        /* \"contracts/AmeComponents/VibeComment/VibeComment.sol\":7815:7822  _vibeId */\n      dup9\n        /* \"contracts/AmeComponents/VibeComment/VibeComment.sol\":7797:7823  VibeCommentIndexs[_vibeId] */\n      dup2\n      mstore\n      0x20\n      add\n      swap1\n      dup2\n      mstore\n      0x20\n      add\n      0x00\n      keccak256\n      sload\n        /* \"contracts/AmeComponents/VibeComment/VibeComment.sol\":7797:7827  VibeCommentIndexs[_vibeId] - 1 */\n      tag_201\n      swap2\n      swap1\n      tag_140\n      jump\t// in\n    tag_201:\n        /* \"contracts/AmeComponents/VibeComment/VibeComment.sol\":7796:7840  (VibeCommentIndexs[_vibeId] - 1) / _pageSize */\n      tag_202\n      swap2\n      swap1\n      tag_143\n      jump\t// in\n    tag_202:\n        /* \"contracts/AmeComponents/VibeComment/VibeComment.sol\":7795:7858  ((VibeCommentIndexs[_vibeId] - 1) / _pageSize) < (_pageNum - 1) */\n      lt\n        /* \"contracts/AmeComponents/VibeComment/VibeComment.sol\":7763:7858  _pageNum > 1 &&... */\n    tag_199:\n        /* \"contracts/AmeComponents/VibeComment/VibeComment.sol\":7742:8920  if (... */\n      iszero\n      tag_203\n      jumpi\n        /* \"contracts/AmeComponents/VibeComment/VibeComment.sol\":7891:7916  string[] memory tempArray */\n      0x00\n        /* \"contracts/AmeComponents/VibeComment/VibeComment.sol\":7932:7933  0 */\n      dup1\n        /* \"contracts/AmeComponents/VibeComment/VibeComment.sol\":7919:7934  new string[](0) */\n      0xffffffffffffffff\n      dup2\n      gt\n      iszero\n      tag_204\n      jumpi\n      tag_205\n      tag_91\n      jump\t// in\n    tag_205:\n    tag_204:\n      mload(0x40)\n      swap1\n      dup1\n      dup3\n      mstore\n      dup1\n      0x20\n      mul\n      0x20\n      add\n      dup3\n      add\n      0x40\n      mstore\n      dup1\n      iszero\n      tag_206\n      jumpi\n      dup2\n      0x20\n      add\n    tag_207:\n      0x60\n      dup2\n      mstore\n      0x20\n      add\n      swap1\n      0x01\n      swap1\n      sub\n      swap1\n      dup2\n      tag_207\n      jumpi\n      swap1\n      pop\n    tag_206:\n      pop\n        /* \"contracts/AmeComponents/VibeComment/VibeComment.sol\":7891:7934  string[] memory tempArray = new string[](0) */\n      swap1\n      pop\n        /* \"contracts/AmeComponents/VibeComment/VibeComment.sol\":7959:7968  tempArray */\n      dup1\n        /* \"contracts/AmeComponents/VibeComment/VibeComment.sol\":7952:7968  return tempArray */\n      swap2\n      pop\n      pop\n      jump(tag_192)\n        /* \"contracts/AmeComponents/VibeComment/VibeComment.sol\":7742:8920  if (... */\n    tag_203:\n        /* \"contracts/AmeComponents/VibeComment/VibeComment.sol\":8007:8026  uint256 arrayLength */\n      0x00\n        /* \"contracts/AmeComponents/VibeComment/VibeComment.sol\":8044:8062  uint256 arrayIndex */\n      dup1\n        /* \"contracts/AmeComponents/VibeComment/VibeComment.sol\":8065:8066  0 */\n      0x00\n        /* \"contracts/AmeComponents/VibeComment/VibeComment.sol\":8044:8066  uint256 arrayIndex = 0 */\n      swap1\n      pop\n        /* \"contracts/AmeComponents/VibeComment/VibeComment.sol\":8085:8102  uint256 dataStart */\n      0x00\n        /* \"contracts/AmeComponents/VibeComment/VibeComment.sol\":8197:8206  _pageSize */\n      dup5\n        /* \"contracts/AmeComponents/VibeComment/VibeComment.sol\":8172:8173  1 */\n      0x01\n        /* \"contracts/AmeComponents/VibeComment/VibeComment.sol\":8161:8169  _pageNum */\n      dup8\n        /* \"contracts/AmeComponents/VibeComment/VibeComment.sol\":8161:8173  _pageNum - 1 */\n      tag_209\n      swap2\n      swap1\n      tag_140\n      jump\t// in\n    tag_209:\n        /* \"contracts/AmeComponents/VibeComment/VibeComment.sol\":8160:8206  (_pageNum - 1) *... */\n      tag_210\n      swap2\n      swap1\n      tag_152\n      jump\t// in\n    tag_210:\n        /* \"contracts/AmeComponents/VibeComment/VibeComment.sol\":8135:8136  1 */\n      0x01\n        /* \"contracts/AmeComponents/VibeComment/VibeComment.sol\":8106:8123  VibeCommentIndexs */\n      0x05\n        /* \"contracts/AmeComponents/VibeComment/VibeComment.sol\":8106:8132  VibeCommentIndexs[_vibeId] */\n      0x00\n        /* \"contracts/AmeComponents/VibeComment/VibeComment.sol\":8124:8131  _vibeId */\n      dup11\n        /* \"contracts/AmeComponents/VibeComment/VibeComment.sol\":8106:8132  VibeCommentIndexs[_vibeId] */\n      dup2\n      mstore\n      0x20\n      add\n      swap1\n      dup2\n      mstore\n      0x20\n      add\n      0x00\n      keccak256\n      sload\n        /* \"contracts/AmeComponents/VibeComment/VibeComment.sol\":8106:8136  VibeCommentIndexs[_vibeId] - 1 */\n      tag_211\n      swap2\n      swap1\n      tag_140\n      jump\t// in\n    tag_211:\n        /* \"contracts/AmeComponents/VibeComment/VibeComment.sol\":8105:8206  (VibeCommentIndexs[_vibeId] - 1) -... */\n      tag_212\n      swap2\n      swap1\n      tag_140\n      jump\t// in\n    tag_212:\n        /* \"contracts/AmeComponents/VibeComment/VibeComment.sol\":8085:8206  uint256 dataStart = (VibeCommentIndexs[_vibeId] - 1) -... */\n      swap1\n      pop\n        /* \"contracts/AmeComponents/VibeComment/VibeComment.sol\":8224:8239  uint256 dataEnd */\n      0x00\n        /* \"contracts/AmeComponents/VibeComment/VibeComment.sol\":8274:8283  _pageSize */\n      dup6\n        /* \"contracts/AmeComponents/VibeComment/VibeComment.sol\":8262:8271  dataStart */\n      dup3\n        /* \"contracts/AmeComponents/VibeComment/VibeComment.sol\":8262:8283  dataStart < _pageSize */\n      lt\n        /* \"contracts/AmeComponents/VibeComment/VibeComment.sol\":8258:8513  if (dataStart < _pageSize) {... */\n      iszero\n      tag_213\n      jumpi\n        /* \"contracts/AmeComponents/VibeComment/VibeComment.sol\":8317:8318  0 */\n      0x00\n        /* \"contracts/AmeComponents/VibeComment/VibeComment.sol\":8307:8318  dataEnd = 0 */\n      swap1\n      pop\n        /* \"contracts/AmeComponents/VibeComment/VibeComment.sol\":8366:8367  1 */\n      0x01\n        /* \"contracts/AmeComponents/VibeComment/VibeComment.sol\":8354:8363  dataStart */\n      dup3\n        /* \"contracts/AmeComponents/VibeComment/VibeComment.sol\":8354:8367  dataStart + 1 */\n      tag_214\n      swap2\n      swap1\n      tag_157\n      jump\t// in\n    tag_214:\n        /* \"contracts/AmeComponents/VibeComment/VibeComment.sol\":8340:8367  arrayLength = dataStart + 1 */\n      swap4\n      pop\n        /* \"contracts/AmeComponents/VibeComment/VibeComment.sol\":8258:8513  if (dataStart < _pageSize) {... */\n      jump(tag_215)\n    tag_213:\n        /* \"contracts/AmeComponents/VibeComment/VibeComment.sol\":8448:8449  1 */\n      0x01\n        /* \"contracts/AmeComponents/VibeComment/VibeComment.sol\":8436:8445  _pageSize */\n      dup7\n        /* \"contracts/AmeComponents/VibeComment/VibeComment.sol\":8424:8433  dataStart */\n      dup4\n        /* \"contracts/AmeComponents/VibeComment/VibeComment.sol\":8424:8445  dataStart - _pageSize */\n      tag_216\n      swap2\n      swap1\n      tag_140\n      jump\t// in\n    tag_216:\n        /* \"contracts/AmeComponents/VibeComment/VibeComment.sol\":8424:8449  dataStart - _pageSize + 1 */\n      tag_217\n      swap2\n      swap1\n      tag_157\n      jump\t// in\n    tag_217:\n        /* \"contracts/AmeComponents/VibeComment/VibeComment.sol\":8414:8449  dataEnd = dataStart - _pageSize + 1 */\n      swap1\n      pop\n        /* \"contracts/AmeComponents/VibeComment/VibeComment.sol\":8485:8494  _pageSize */\n      dup6\n        /* \"contracts/AmeComponents/VibeComment/VibeComment.sol\":8471:8494  arrayLength = _pageSize */\n      swap4\n      pop\n        /* \"contracts/AmeComponents/VibeComment/VibeComment.sol\":8258:8513  if (dataStart < _pageSize) {... */\n    tag_215:\n        /* \"contracts/AmeComponents/VibeComment/VibeComment.sol\":8531:8558  string[] memory returnArray */\n      0x00\n        /* \"contracts/AmeComponents/VibeComment/VibeComment.sol\":8574:8585  arrayLength */\n      dup5\n        /* \"contracts/AmeComponents/VibeComment/VibeComment.sol\":8561:8586  new string[](arrayLength) */\n      0xffffffffffffffff\n      dup2\n      gt\n      iszero\n      tag_218\n      jumpi\n      tag_219\n      tag_91\n      jump\t// in\n    tag_219:\n    tag_218:\n      mload(0x40)\n      swap1\n      dup1\n      dup3\n      mstore\n      dup1\n      0x20\n      mul\n      0x20\n      add\n      dup3\n      add\n      0x40\n      mstore\n      dup1\n      iszero\n      tag_220\n      jumpi\n      dup2\n      0x20\n      add\n    tag_221:\n      0x60\n      dup2\n      mstore\n      0x20\n      add\n      swap1\n      0x01\n      swap1\n      sub\n      swap1\n      dup2\n      tag_221\n      jumpi\n      swap1\n      pop\n    tag_220:\n      pop\n        /* \"contracts/AmeComponents/VibeComment/VibeComment.sol\":8531:8586  string[] memory returnArray = new string[](arrayLength) */\n      swap1\n      pop\n        /* \"contracts/AmeComponents/VibeComment/VibeComment.sol\":8610:8618  int256 i */\n      0x00\n        /* \"contracts/AmeComponents/VibeComment/VibeComment.sol\":8628:8637  dataStart */\n      dup4\n        /* \"contracts/AmeComponents/VibeComment/VibeComment.sol\":8610:8638  int256 i = int256(dataStart) */\n      swap1\n      pop\n        /* \"contracts/AmeComponents/VibeComment/VibeComment.sol\":8605:8870  for (int256 i = int256(dataStart); i >= int256(dataEnd); i--) {... */\n    tag_222:\n        /* \"contracts/AmeComponents/VibeComment/VibeComment.sol\":8652:8659  dataEnd */\n      dup3\n        /* \"contracts/AmeComponents/VibeComment/VibeComment.sol\":8640:8641  i */\n      dup2\n        /* \"contracts/AmeComponents/VibeComment/VibeComment.sol\":8640:8660  i >= int256(dataEnd) */\n      slt\n        /* \"contracts/AmeComponents/VibeComment/VibeComment.sol\":8605:8870  for (int256 i = int256(dataStart); i >= int256(dataEnd); i--) {... */\n      tag_223\n      jumpi\n        /* \"contracts/AmeComponents/VibeComment/VibeComment.sol\":8689:8706  uint256 commentId */\n      0x00\n        /* \"contracts/AmeComponents/VibeComment/VibeComment.sol\":8707:8721  VibeCommentIds */\n      0x07\n        /* \"contracts/AmeComponents/VibeComment/VibeComment.sol\":8707:8730  VibeCommentIds[_vibeId] */\n      0x00\n        /* \"contracts/AmeComponents/VibeComment/VibeComment.sol\":8722:8729  _vibeId */\n      dup13\n        /* \"contracts/AmeComponents/VibeComment/VibeComment.sol\":8707:8730  VibeCommentIds[_vibeId] */\n      dup2\n      mstore\n      0x20\n      add\n      swap1\n      dup2\n      mstore\n      0x20\n      add\n      0x00\n      keccak256\n        /* \"contracts/AmeComponents/VibeComment/VibeComment.sol\":8707:8742  VibeCommentIds[_vibeId][uint256(i)] */\n      0x00\n        /* \"contracts/AmeComponents/VibeComment/VibeComment.sol\":8739:8740  i */\n      dup4\n        /* \"contracts/AmeComponents/VibeComment/VibeComment.sol\":8707:8742  VibeCommentIds[_vibeId][uint256(i)] */\n      dup2\n      mstore\n      0x20\n      add\n      swap1\n      dup2\n      mstore\n      0x20\n      add\n      0x00\n      keccak256\n      sload\n        /* \"contracts/AmeComponents/VibeComment/VibeComment.sol\":8689:8742  uint256 commentId=VibeCommentIds[_vibeId][uint256(i)] */\n      swap1\n      pop\n        /* \"contracts/AmeComponents/VibeComment/VibeComment.sol\":8790:8798  Comments */\n      0x09\n        /* \"contracts/AmeComponents/VibeComment/VibeComment.sol\":8790:8809  Comments[commentId] */\n      0x00\n        /* \"contracts/AmeComponents/VibeComment/VibeComment.sol\":8799:8808  commentId */\n      dup3\n        /* \"contracts/AmeComponents/VibeComment/VibeComment.sol\":8790:8809  Comments[commentId] */\n      dup2\n      mstore\n      0x20\n      add\n      swap1\n      dup2\n      mstore\n      0x20\n      add\n      0x00\n      keccak256\n        /* \"contracts/AmeComponents/VibeComment/VibeComment.sol\":8790:8817  Comments[commentId].content */\n      0x02\n      add\n        /* \"contracts/AmeComponents/VibeComment/VibeComment.sol\":8764:8817  returnArray[arrayIndex] = Comments[commentId].content */\n      dup1\n      sload\n      tag_225\n      swap1\n      tag_169\n      jump\t// in\n    tag_225:\n      dup1\n      0x1f\n      add\n      0x20\n      dup1\n      swap2\n      div\n      mul\n      0x20\n      add\n      mload(0x40)\n      swap1\n      dup2\n      add\n      0x40\n      mstore\n      dup1\n      swap3\n      swap2\n      swap1\n      dup2\n      dup2\n      mstore\n      0x20\n      add\n      dup3\n      dup1\n      sload\n      tag_226\n      swap1\n      tag_169\n      jump\t// in\n    tag_226:\n      dup1\n      iszero\n      tag_227\n      jumpi\n      dup1\n      0x1f\n      lt\n      tag_228\n      jumpi\n      0x0100\n      dup1\n      dup4\n      sload\n      div\n      mul\n      dup4\n      mstore\n      swap2\n      0x20\n      add\n      swap2\n      jump(tag_227)\n    tag_228:\n      dup3\n      add\n      swap2\n      swap1\n      0x00\n      mstore\n      keccak256(0x00, 0x20)\n      swap1\n    tag_229:\n      dup2\n      sload\n      dup2\n      mstore\n      swap1\n      0x01\n      add\n      swap1\n      0x20\n      add\n      dup1\n      dup4\n      gt\n      tag_229\n      jumpi\n      dup3\n      swap1\n      sub\n      0x1f\n      and\n      dup3\n      add\n      swap2\n    tag_227:\n      pop\n      pop\n      pop\n      pop\n      pop\n        /* \"contracts/AmeComponents/VibeComment/VibeComment.sol\":8764:8775  returnArray */\n      dup4\n        /* \"contracts/AmeComponents/VibeComment/VibeComment.sol\":8776:8786  arrayIndex */\n      dup8\n        /* \"contracts/AmeComponents/VibeComment/VibeComment.sol\":8764:8787  returnArray[arrayIndex] */\n      dup2\n      mload\n      dup2\n      lt\n      tag_230\n      jumpi\n      tag_231\n      tag_95\n      jump\t// in\n    tag_231:\n    tag_230:\n      0x20\n      mul\n      0x20\n      add\n      add\n        /* \"contracts/AmeComponents/VibeComment/VibeComment.sol\":8764:8817  returnArray[arrayIndex] = Comments[commentId].content */\n      dup2\n      swap1\n      mstore\n      pop\n        /* \"contracts/AmeComponents/VibeComment/VibeComment.sol\":8839:8851  arrayIndex++ */\n      dup6\n      dup1\n      tag_232\n      swap1\n      tag_177\n      jump\t// in\n    tag_232:\n      swap7\n      pop\n      pop\n        /* \"contracts/AmeComponents/VibeComment/VibeComment.sol\":8667:8870  {... */\n      pop\n        /* \"contracts/AmeComponents/VibeComment/VibeComment.sol\":8662:8665  i-- */\n      dup1\n      dup1\n      tag_233\n      swap1\n      tag_179\n      jump\t// in\n    tag_233:\n      swap2\n      pop\n      pop\n        /* \"contracts/AmeComponents/VibeComment/VibeComment.sol\":8605:8870  for (int256 i = int256(dataStart); i >= int256(dataEnd); i--) {... */\n      jump(tag_222)\n    tag_223:\n      pop\n        /* \"contracts/AmeComponents/VibeComment/VibeComment.sol\":8894:8905  returnArray */\n      dup1\n        /* \"contracts/AmeComponents/VibeComment/VibeComment.sol\":8887:8905  return returnArray */\n      swap6\n      pop\n      pop\n      pop\n      pop\n      pop\n      pop\n        /* \"contracts/AmeComponents/VibeComment/VibeComment.sol\":7434:8936  function getComments(... */\n    tag_192:\n      swap4\n      swap3\n      pop\n      pop\n      pop\n      jump\t// out\n        /* \"https://github.com/OpenZeppelin/openzeppelin-contracts/blob/release-v4.2/contracts/access/Ownable.sol\":1668:1769  function renounceOwnership() public virtual onlyOwner {... */\n    tag_56:\n        /* \"https://github.com/OpenZeppelin/openzeppelin-contracts/blob/release-v4.2/contracts/access/Ownable.sol\":1259:1271  _msgSender() */\n      tag_235\n        /* \"https://github.com/OpenZeppelin/openzeppelin-contracts/blob/release-v4.2/contracts/access/Ownable.sol\":1259:1269  _msgSender */\n      tag_236\n        /* \"https://github.com/OpenZeppelin/openzeppelin-contracts/blob/release-v4.2/contracts/access/Ownable.sol\":1259:1271  _msgSender() */\n      jump\t// in\n    tag_235:\n        /* \"https://github.com/OpenZeppelin/openzeppelin-contracts/blob/release-v4.2/contracts/access/Ownable.sol\":1248:1271  owner() == _msgSender() */\n      0xffffffffffffffffffffffffffffffffffffffff\n      and\n        /* \"https://github.com/OpenZeppelin/openzeppelin-contracts/blob/release-v4.2/contracts/access/Ownable.sol\":1248:1255  owner() */\n      tag_237\n        /* \"https://github.com/OpenZeppelin/openzeppelin-contracts/blob/release-v4.2/contracts/access/Ownable.sol\":1248:1253  owner */\n      tag_59\n        /* \"https://github.com/OpenZeppelin/openzeppelin-contracts/blob/release-v4.2/contracts/access/Ownable.sol\":1248:1255  owner() */\n      jump\t// in\n    tag_237:\n        /* \"https://github.com/OpenZeppelin/openzeppelin-contracts/blob/release-v4.2/contracts/access/Ownable.sol\":1248:1271  owner() == _msgSender() */\n      0xffffffffffffffffffffffffffffffffffffffff\n      and\n      eq\n        /* \"https://github.com/OpenZeppelin/openzeppelin-contracts/blob/release-v4.2/contracts/access/Ownable.sol\":1240:1308  require(owner() == _msgSender(), \"Ownable: caller is not the owner\") */\n      tag_238\n      jumpi\n      mload(0x40)\n      0x08c379a000000000000000000000000000000000000000000000000000000000\n      dup2\n      mstore\n      0x04\n      add\n      tag_239\n      swap1\n      tag_240\n      jump\t// in\n    tag_239:\n      mload(0x40)\n      dup1\n      swap2\n      sub\n      swap1\n      revert\n    tag_238:\n        /* \"https://github.com/OpenZeppelin/openzeppelin-contracts/blob/release-v4.2/contracts/access/Ownable.sol\":1732:1762  _transferOwnership(address(0)) */\n      tag_242\n        /* \"https://github.com/OpenZeppelin/openzeppelin-contracts/blob/release-v4.2/contracts/access/Ownable.sol\":1759:1760  0 */\n      0x00\n        /* \"https://github.com/OpenZeppelin/openzeppelin-contracts/blob/release-v4.2/contracts/access/Ownable.sol\":1732:1750  _transferOwnership */\n      tag_243\n        /* \"https://github.com/OpenZeppelin/openzeppelin-contracts/blob/release-v4.2/contracts/access/Ownable.sol\":1732:1762  _transferOwnership(address(0)) */\n      jump\t// in\n    tag_242:\n        /* \"https://github.com/OpenZeppelin/openzeppelin-contracts/blob/release-v4.2/contracts/access/Ownable.sol\":1668:1769  function renounceOwnership() public virtual onlyOwner {... */\n      jump\t// out\n        /* \"https://github.com/OpenZeppelin/openzeppelin-contracts/blob/release-v4.2/contracts/access/Ownable.sol\":1036:1121  function owner() public view virtual returns (address) {... */\n    tag_59:\n        /* \"https://github.com/OpenZeppelin/openzeppelin-contracts/blob/release-v4.2/contracts/access/Ownable.sol\":1082:1089  address */\n      0x00\n        /* \"https://github.com/OpenZeppelin/openzeppelin-contracts/blob/release-v4.2/contracts/access/Ownable.sol\":1108:1114  _owner */\n      dup1\n      0x00\n      swap1\n      sload\n      swap1\n      0x0100\n      exp\n      swap1\n      div\n      0xffffffffffffffffffffffffffffffffffffffff\n      and\n        /* \"https://github.com/OpenZeppelin/openzeppelin-contracts/blob/release-v4.2/contracts/access/Ownable.sol\":1101:1114  return _owner */\n      swap1\n      pop\n        /* \"https://github.com/OpenZeppelin/openzeppelin-contracts/blob/release-v4.2/contracts/access/Ownable.sol\":1036:1121  function owner() public view virtual returns (address) {... */\n      swap1\n      jump\t// out\n        /* \"contracts/AmeComponents/VibeComment/VibeComment.sol\":2546:3891  function get(string memory _methodName, bytes memory _methodReq)... */\n    tag_66:\n        /* \"contracts/AmeComponents/VibeComment/VibeComment.sol\":2656:2668  bytes memory */\n      0x60\n        /* \"contracts/AmeComponents/VibeComment/VibeComment.sol\":2688:2729  compareStrings(_methodName, \"getComment\") */\n      tag_246\n        /* \"contracts/AmeComponents/VibeComment/VibeComment.sol\":2703:2714  _methodName */\n      dup4\n        /* \"contracts/AmeComponents/VibeComment/VibeComment.sol\":2688:2729  compareStrings(_methodName, \"getComment\") */\n      mload(0x40)\n      dup1\n      0x40\n      add\n      0x40\n      mstore\n      dup1\n      0x0a\n      dup2\n      mstore\n      0x20\n      add\n      0x676574436f6d6d656e7400000000000000000000000000000000000000000000\n      dup2\n      mstore\n      pop\n        /* \"contracts/AmeComponents/VibeComment/VibeComment.sol\":2688:2702  compareStrings */\n      tag_247\n        /* \"contracts/AmeComponents/VibeComment/VibeComment.sol\":2688:2729  compareStrings(_methodName, \"getComment\") */\n      jump\t// in\n    tag_246:\n        /* \"contracts/AmeComponents/VibeComment/VibeComment.sol\":2684:3885  if (compareStrings(_methodName, \"getComment\")) {... */\n      iszero\n      tag_248\n      jumpi\n        /* \"contracts/AmeComponents/VibeComment/VibeComment.sol\":2745:2763  uint256 _commentId */\n      0x00\n        /* \"contracts/AmeComponents/VibeComment/VibeComment.sol\":2777:2787  _methodReq */\n      dup3\n        /* \"contracts/AmeComponents/VibeComment/VibeComment.sol\":2766:2799  abi.decode(_methodReq, (uint256)) */\n      dup1\n      0x20\n      add\n      swap1\n      mload\n      dup2\n      add\n      swap1\n      tag_249\n      swap2\n      swap1\n      tag_250\n      jump\t// in\n    tag_249:\n        /* \"contracts/AmeComponents/VibeComment/VibeComment.sol\":2745:2799  uint256 _commentId = abi.decode(_methodReq, (uint256)) */\n      swap1\n      pop\n        /* \"contracts/AmeComponents/VibeComment/VibeComment.sol\":2813:2835  Comment memory comment */\n      0x00\n        /* \"contracts/AmeComponents/VibeComment/VibeComment.sol\":2838:2846  Comments */\n      0x09\n        /* \"contracts/AmeComponents/VibeComment/VibeComment.sol\":2838:2858  Comments[_commentId] */\n      0x00\n        /* \"contracts/AmeComponents/VibeComment/VibeComment.sol\":2847:2857  _commentId */\n      dup4\n        /* \"contracts/AmeComponents/VibeComment/VibeComment.sol\":2838:2858  Comments[_commentId] */\n      dup2\n      mstore\n      0x20\n      add\n      swap1\n      dup2\n      mstore\n      0x20\n      add\n      0x00\n      keccak256\n        /* \"contracts/AmeComponents/VibeComment/VibeComment.sol\":2813:2858  Comment memory comment = Comments[_commentId] */\n      mload(0x40)\n      dup1\n      0x80\n      add\n      0x40\n      mstore\n      swap1\n      dup2\n      0x00\n      dup3\n      add\n      sload\n      dup2\n      mstore\n      0x20\n      add\n      0x01\n      dup3\n      add\n      sload\n      dup2\n      mstore\n      0x20\n      add\n      0x02\n      dup3\n      add\n      dup1\n      sload\n      tag_251\n      swap1\n      tag_169\n      jump\t// in\n    tag_251:\n      dup1\n      0x1f\n      add\n      0x20\n      dup1\n      swap2\n      div\n      mul\n      0x20\n      add\n      mload(0x40)\n      swap1\n      dup2\n      add\n      0x40\n      mstore\n      dup1\n      swap3\n      swap2\n      swap1\n      dup2\n      dup2\n      mstore\n      0x20\n      add\n      dup3\n      dup1\n      sload\n      tag_252\n      swap1\n      tag_169\n      jump\t// in\n    tag_252:\n      dup1\n      iszero\n      tag_253\n      jumpi\n      dup1\n      0x1f\n      lt\n      tag_254\n      jumpi\n      0x0100\n      dup1\n      dup4\n      sload\n      div\n      mul\n      dup4\n      mstore\n      swap2\n      0x20\n      add\n      swap2\n      jump(tag_253)\n    tag_254:\n      dup3\n      add\n      swap2\n      swap1\n      0x00\n      mstore\n      keccak256(0x00, 0x20)\n      swap1\n    tag_255:\n      dup2\n      sload\n      dup2\n      mstore\n      swap1\n      0x01\n      add\n      swap1\n      0x20\n      add\n      dup1\n      dup4\n      gt\n      tag_255\n      jumpi\n      dup3\n      swap1\n      sub\n      0x1f\n      and\n      dup3\n      add\n      swap2\n    tag_253:\n      pop\n      pop\n      pop\n      pop\n      pop\n      dup2\n      mstore\n      0x20\n      add\n      0x03\n      dup3\n      add\n      0x00\n      swap1\n      sload\n      swap1\n      0x0100\n      exp\n      swap1\n      div\n      0xffffffffffffffffffffffffffffffffffffffff\n      and\n      0xffffffffffffffffffffffffffffffffffffffff\n      and\n      0xffffffffffffffffffffffffffffffffffffffff\n      and\n      dup2\n      mstore\n      pop\n      pop\n      swap1\n      pop\n        /* \"contracts/AmeComponents/VibeComment/VibeComment.sol\":2927:2934  comment */\n      dup1\n        /* \"contracts/AmeComponents/VibeComment/VibeComment.sol\":2927:2941  comment.vibeId */\n      0x00\n      add\n      mload\n        /* \"contracts/AmeComponents/VibeComment/VibeComment.sol\":2963:2970  comment */\n      dup2\n        /* \"contracts/AmeComponents/VibeComment/VibeComment.sol\":2963:2980  comment.commentId */\n      0x20\n      add\n      mload\n        /* \"contracts/AmeComponents/VibeComment/VibeComment.sol\":3002:3009  comment */\n      dup3\n        /* \"contracts/AmeComponents/VibeComment/VibeComment.sol\":3002:3017  comment.content */\n      0x40\n      add\n      mload\n        /* \"contracts/AmeComponents/VibeComment/VibeComment.sol\":3039:3046  comment */\n      dup4\n        /* \"contracts/AmeComponents/VibeComment/VibeComment.sol\":3039:3051  comment.user */\n      0x60\n      add\n      mload\n        /* \"contracts/AmeComponents/VibeComment/VibeComment.sol\":2895:3069  abi.encode(... */\n      add(0x20, mload(0x40))\n      tag_256\n      swap5\n      swap4\n      swap3\n      swap2\n      swap1\n      tag_257\n      jump\t// in\n    tag_256:\n      mload(0x40)\n      0x20\n      dup2\n      dup4\n      sub\n      sub\n      dup2\n      mstore\n      swap1\n      0x40\n      mstore\n        /* \"contracts/AmeComponents/VibeComment/VibeComment.sol\":2872:3069  return... */\n      swap3\n      pop\n      pop\n      pop\n      jump(tag_245)\n        /* \"contracts/AmeComponents/VibeComment/VibeComment.sol\":2684:3885  if (compareStrings(_methodName, \"getComment\")) {... */\n    tag_248:\n        /* \"contracts/AmeComponents/VibeComment/VibeComment.sol\":3090:3132  compareStrings(_methodName, \"getComments\") */\n      tag_259\n        /* \"contracts/AmeComponents/VibeComment/VibeComment.sol\":3105:3116  _methodName */\n      dup4\n        /* \"contracts/AmeComponents/VibeComment/VibeComment.sol\":3090:3132  compareStrings(_methodName, \"getComments\") */\n      mload(0x40)\n      dup1\n      0x40\n      add\n      0x40\n      mstore\n      dup1\n      0x0b\n      dup2\n      mstore\n      0x20\n      add\n      0x676574436f6d6d656e7473000000000000000000000000000000000000000000\n      dup2\n      mstore\n      pop\n        /* \"contracts/AmeComponents/VibeComment/VibeComment.sol\":3090:3104  compareStrings */\n      tag_247\n        /* \"contracts/AmeComponents/VibeComment/VibeComment.sol\":3090:3132  compareStrings(_methodName, \"getComments\") */\n      jump\t// in\n    tag_259:\n        /* \"contracts/AmeComponents/VibeComment/VibeComment.sol\":3086:3885  if (compareStrings(_methodName, \"getComments\")) {... */\n      iszero\n      tag_260\n      jumpi\n        /* \"contracts/AmeComponents/VibeComment/VibeComment.sol\":3149:3164  uint256 _vibeId */\n      0x00\n        /* \"contracts/AmeComponents/VibeComment/VibeComment.sol\":3166:3182  uint256 _pageNum */\n      dup1\n        /* \"contracts/AmeComponents/VibeComment/VibeComment.sol\":3184:3201  uint256 _pageSize */\n      0x00\n        /* \"contracts/AmeComponents/VibeComment/VibeComment.sol\":3233:3243  _methodReq */\n      dup5\n        /* \"contracts/AmeComponents/VibeComment/VibeComment.sol\":3205:3302  abi.decode(... */\n      dup1\n      0x20\n      add\n      swap1\n      mload\n      dup2\n      add\n      swap1\n      tag_261\n      swap2\n      swap1\n      tag_262\n      jump\t// in\n    tag_261:\n        /* \"contracts/AmeComponents/VibeComment/VibeComment.sol\":3148:3302  (uint256 _vibeId, uint256 _pageNum, uint256 _pageSize) = abi.decode(... */\n      swap3\n      pop\n      swap3\n      pop\n      swap3\n      pop\n        /* \"contracts/AmeComponents/VibeComment/VibeComment.sol\":3316:3341  string[] memory tempArray */\n      0x00\n        /* \"contracts/AmeComponents/VibeComment/VibeComment.sol\":3344:3385  getComments(_vibeId, _pageNum, _pageSize) */\n      tag_263\n        /* \"contracts/AmeComponents/VibeComment/VibeComment.sol\":3356:3363  _vibeId */\n      dup5\n        /* \"contracts/AmeComponents/VibeComment/VibeComment.sol\":3365:3373  _pageNum */\n      dup5\n        /* \"contracts/AmeComponents/VibeComment/VibeComment.sol\":3375:3384  _pageSize */\n      dup5\n        /* \"contracts/AmeComponents/VibeComment/VibeComment.sol\":3344:3355  getComments */\n      tag_52\n        /* \"contracts/AmeComponents/VibeComment/VibeComment.sol\":3344:3385  getComments(_vibeId, _pageNum, _pageSize) */\n      jump\t// in\n    tag_263:\n        /* \"contracts/AmeComponents/VibeComment/VibeComment.sol\":3316:3385  string[] memory tempArray = getComments(_vibeId, _pageNum, _pageSize) */\n      swap1\n      pop\n        /* \"contracts/AmeComponents/VibeComment/VibeComment.sol\":3417:3426  tempArray */\n      dup1\n        /* \"contracts/AmeComponents/VibeComment/VibeComment.sol\":3406:3427  abi.encode(tempArray) */\n      add(0x20, mload(0x40))\n      tag_264\n      swap2\n      swap1\n      tag_40\n      jump\t// in\n    tag_264:\n      mload(0x40)\n      0x20\n      dup2\n      dup4\n      sub\n      sub\n      dup2\n      mstore\n      swap1\n      0x40\n      mstore\n        /* \"contracts/AmeComponents/VibeComment/VibeComment.sol\":3399:3427  return abi.encode(tempArray) */\n      swap5\n      pop\n      pop\n      pop\n      pop\n      pop\n      jump(tag_245)\n        /* \"contracts/AmeComponents/VibeComment/VibeComment.sol\":3086:3885  if (compareStrings(_methodName, \"getComments\")) {... */\n    tag_260:\n        /* \"contracts/AmeComponents/VibeComment/VibeComment.sol\":3461:3512  compareStrings(_methodName, \"getCommentsByAddress\") */\n      tag_266\n        /* \"contracts/AmeComponents/VibeComment/VibeComment.sol\":3476:3487  _methodName */\n      dup4\n        /* \"contracts/AmeComponents/VibeComment/VibeComment.sol\":3461:3512  compareStrings(_methodName, \"getCommentsByAddress\") */\n      mload(0x40)\n      dup1\n      0x40\n      add\n      0x40\n      mstore\n      dup1\n      0x14\n      dup2\n      mstore\n      0x20\n      add\n      0x676574436f6d6d656e7473427941646472657373000000000000000000000000\n      dup2\n      mstore\n      pop\n        /* \"contracts/AmeComponents/VibeComment/VibeComment.sol\":3461:3475  compareStrings */\n      tag_247\n        /* \"contracts/AmeComponents/VibeComment/VibeComment.sol\":3461:3512  compareStrings(_methodName, \"getCommentsByAddress\") */\n      jump\t// in\n    tag_266:\n        /* \"contracts/AmeComponents/VibeComment/VibeComment.sol\":3444:3885  if (... */\n      iszero\n      tag_267\n      jumpi\n        /* \"contracts/AmeComponents/VibeComment/VibeComment.sol\":3538:3551  address _user */\n      0x00\n        /* \"contracts/AmeComponents/VibeComment/VibeComment.sol\":3553:3569  uint256 _pageNum */\n      dup1\n        /* \"contracts/AmeComponents/VibeComment/VibeComment.sol\":3571:3588  uint256 _pageSize */\n      0x00\n        /* \"contracts/AmeComponents/VibeComment/VibeComment.sol\":3620:3630  _methodReq */\n      dup5\n        /* \"contracts/AmeComponents/VibeComment/VibeComment.sol\":3592:3689  abi.decode(... */\n      dup1\n      0x20\n      add\n      swap1\n      mload\n      dup2\n      add\n      swap1\n      tag_268\n      swap2\n      swap1\n      tag_269\n      jump\t// in\n    tag_268:\n        /* \"contracts/AmeComponents/VibeComment/VibeComment.sol\":3537:3689  (address _user, uint256 _pageNum, uint256 _pageSize) = abi.decode(... */\n      swap3\n      pop\n      swap3\n      pop\n      swap3\n      pop\n        /* \"contracts/AmeComponents/VibeComment/VibeComment.sol\":3703:3728  string[] memory tempArray */\n      0x00\n        /* \"contracts/AmeComponents/VibeComment/VibeComment.sol\":3731:3779  getCommentsByAddress(_user, _pageNum, _pageSize) */\n      tag_270\n        /* \"contracts/AmeComponents/VibeComment/VibeComment.sol\":3752:3757  _user */\n      dup5\n        /* \"contracts/AmeComponents/VibeComment/VibeComment.sol\":3759:3767  _pageNum */\n      dup5\n        /* \"contracts/AmeComponents/VibeComment/VibeComment.sol\":3769:3778  _pageSize */\n      dup5\n        /* \"contracts/AmeComponents/VibeComment/VibeComment.sol\":3731:3751  getCommentsByAddress */\n      tag_38\n        /* \"contracts/AmeComponents/VibeComment/VibeComment.sol\":3731:3779  getCommentsByAddress(_user, _pageNum, _pageSize) */\n      jump\t// in\n    tag_270:\n        /* \"contracts/AmeComponents/VibeComment/VibeComment.sol\":3703:3779  string[] memory tempArray = getCommentsByAddress(_user, _pageNum, _pageSize) */\n      swap1\n      pop\n        /* \"contracts/AmeComponents/VibeComment/VibeComment.sol\":3811:3820  tempArray */\n      dup1\n        /* \"contracts/AmeComponents/VibeComment/VibeComment.sol\":3800:3821  abi.encode(tempArray) */\n      add(0x20, mload(0x40))\n      tag_271\n      swap2\n      swap1\n      tag_40\n      jump\t// in\n    tag_271:\n      mload(0x40)\n      0x20\n      dup2\n      dup4\n      sub\n      sub\n      dup2\n      mstore\n      swap1\n      0x40\n      mstore\n        /* \"contracts/AmeComponents/VibeComment/VibeComment.sol\":3793:3821  return abi.encode(tempArray) */\n      swap5\n      pop\n      pop\n      pop\n      pop\n      pop\n      jump(tag_245)\n        /* \"contracts/AmeComponents/VibeComment/VibeComment.sol\":3444:3885  if (... */\n    tag_267:\n        /* \"contracts/AmeComponents/VibeComment/VibeComment.sol\":3860:3874  abi.encode(\"\") */\n      add(0x20, mload(0x40))\n      tag_273\n      swap1\n      tag_274\n      jump\t// in\n    tag_273:\n      mload(0x40)\n      0x20\n      dup2\n      dup4\n      sub\n      sub\n      dup2\n      mstore\n      swap1\n      0x40\n      mstore\n        /* \"contracts/AmeComponents/VibeComment/VibeComment.sol\":3853:3874  return abi.encode(\"\") */\n      swap1\n      pop\n        /* \"contracts/AmeComponents/VibeComment/VibeComment.sol\":2546:3891  function get(string memory _methodName, bytes memory _methodReq)... */\n    tag_245:\n      swap3\n      swap2\n      pop\n      pop\n      jump\t// out\n        /* \"contracts/AmeComponents/VibeComment/VibeComment.sol\":3897:5881  function post(string memory _methodName, bytes memory _methodReq)... */\n    tag_71:\n        /* \"contracts/AmeComponents/VibeComment/VibeComment.sol\":4011:4023  bytes memory */\n      0x60\n        /* \"contracts/AmeComponents/VibeComment/VibeComment.sol\":4043:4085  compareStrings(_methodName, \"postComment\") */\n      tag_276\n        /* \"contracts/AmeComponents/VibeComment/VibeComment.sol\":4058:4069  _methodName */\n      dup4\n        /* \"contracts/AmeComponents/VibeComment/VibeComment.sol\":4043:4085  compareStrings(_methodName, \"postComment\") */\n      mload(0x40)\n      dup1\n      0x40\n      add\n      0x40\n      mstore\n      dup1\n      0x0b\n      dup2\n      mstore\n      0x20\n      add\n      0x706f7374436f6d6d656e74000000000000000000000000000000000000000000\n      dup2\n      mstore\n      pop\n        /* \"contracts/AmeComponents/VibeComment/VibeComment.sol\":4043:4057  compareStrings */\n      tag_247\n        /* \"contracts/AmeComponents/VibeComment/VibeComment.sol\":4043:4085  compareStrings(_methodName, \"postComment\") */\n      jump\t// in\n    tag_276:\n        /* \"contracts/AmeComponents/VibeComment/VibeComment.sol\":4039:5875  if (compareStrings(_methodName, \"postComment\")) {... */\n      iszero\n      tag_277\n      jumpi\n        /* \"contracts/AmeComponents/VibeComment/VibeComment.sol\":4104:4119  uint256 _vibeId */\n      0x00\n        /* \"contracts/AmeComponents/VibeComment/VibeComment.sol\":4121:4143  string memory _content */\n      dup1\n        /* \"contracts/AmeComponents/VibeComment/VibeComment.sol\":4144:4168  string memory _resources */\n      0x00\n        /* \"contracts/AmeComponents/VibeComment/VibeComment.sol\":4200:4210  _methodReq */\n      dup5\n        /* \"contracts/AmeComponents/VibeComment/VibeComment.sol\":4172:4237  abi... */\n      dup1\n      0x20\n      add\n      swap1\n      mload\n      dup2\n      add\n      swap1\n      tag_278\n      swap2\n      swap1\n      tag_279\n      jump\t// in\n    tag_278:\n        /* \"contracts/AmeComponents/VibeComment/VibeComment.sol\":4103:4237  (uint256 _vibeId, string memory _content,string memory _resources) = abi... */\n      swap3\n      pop\n      swap3\n      pop\n      swap3\n      pop\n        /* \"contracts/AmeComponents/VibeComment/VibeComment.sol\":4252:4279  string memory encodeComment */\n      0x00\n        /* \"contracts/AmeComponents/VibeComment/VibeComment.sol\":4282:4445  generateBase64(... */\n      tag_280\n        /* \"contracts/AmeComponents/VibeComment/VibeComment.sol\":4314:4321  _vibeId */\n      dup5\n        /* \"contracts/AmeComponents/VibeComment/VibeComment.sol\":4339:4349  commentIds */\n      sload(0x04)\n        /* \"contracts/AmeComponents/VibeComment/VibeComment.sol\":4367:4375  _content */\n      dup6\n        /* \"contracts/AmeComponents/VibeComment/VibeComment.sol\":4393:4403  _resources */\n      dup6\n        /* \"contracts/AmeComponents/VibeComment/VibeComment.sol\":4421:4431  msg.sender */\n      caller\n        /* \"contracts/AmeComponents/VibeComment/VibeComment.sol\":4282:4296  generateBase64 */\n      tag_31\n        /* \"contracts/AmeComponents/VibeComment/VibeComment.sol\":4282:4445  generateBase64(... */\n      jump\t// in\n    tag_280:\n        /* \"contracts/AmeComponents/VibeComment/VibeComment.sol\":4252:4445  string memory encodeComment = generateBase64(... */\n      swap1\n      pop\n        /* \"contracts/AmeComponents/VibeComment/VibeComment.sol\":4460:4484  uint256 vibeCommentIndex */\n      0x00\n        /* \"contracts/AmeComponents/VibeComment/VibeComment.sol\":4487:4504  VibeCommentIndexs */\n      0x05\n        /* \"contracts/AmeComponents/VibeComment/VibeComment.sol\":4487:4513  VibeCommentIndexs[_vibeId] */\n      0x00\n        /* \"contracts/AmeComponents/VibeComment/VibeComment.sol\":4505:4512  _vibeId */\n      dup7\n        /* \"contracts/AmeComponents/VibeComment/VibeComment.sol\":4487:4513  VibeCommentIndexs[_vibeId] */\n      dup2\n      mstore\n      0x20\n      add\n      swap1\n      dup2\n      mstore\n      0x20\n      add\n      0x00\n      keccak256\n      sload\n        /* \"contracts/AmeComponents/VibeComment/VibeComment.sol\":4460:4513  uint256 vibeCommentIndex = VibeCommentIndexs[_vibeId] */\n      swap1\n      pop\n        /* \"contracts/AmeComponents/VibeComment/VibeComment.sol\":4527:4551  uint256 userCommentIndex */\n      0x00\n        /* \"contracts/AmeComponents/VibeComment/VibeComment.sol\":4554:4571  UserCommentIndexs */\n      0x06\n        /* \"contracts/AmeComponents/VibeComment/VibeComment.sol\":4554:4583  UserCommentIndexs[msg.sender] */\n      0x00\n        /* \"contracts/AmeComponents/VibeComment/VibeComment.sol\":4572:4582  msg.sender */\n      caller\n        /* \"contracts/AmeComponents/VibeComment/VibeComment.sol\":4554:4583  UserCommentIndexs[msg.sender] */\n      0xffffffffffffffffffffffffffffffffffffffff\n      and\n      0xffffffffffffffffffffffffffffffffffffffff\n      and\n      dup2\n      mstore\n      0x20\n      add\n      swap1\n      dup2\n      mstore\n      0x20\n      add\n      0x00\n      keccak256\n      sload\n        /* \"contracts/AmeComponents/VibeComment/VibeComment.sol\":4527:4583  uint256 userCommentIndex = UserCommentIndexs[msg.sender] */\n      swap1\n      pop\n        /* \"contracts/AmeComponents/VibeComment/VibeComment.sol\":4649:4659  msg.sender */\n      caller\n        /* \"contracts/AmeComponents/VibeComment/VibeComment.sol\":4603:4660  NewComment(_vibeId, commentIds, encodeComment,msg.sender) */\n      0xffffffffffffffffffffffffffffffffffffffff\n      and\n        /* \"contracts/AmeComponents/VibeComment/VibeComment.sol\":4623:4633  commentIds */\n      sload(0x04)\n        /* \"contracts/AmeComponents/VibeComment/VibeComment.sol\":4614:4621  _vibeId */\n      dup8\n        /* \"contracts/AmeComponents/VibeComment/VibeComment.sol\":4603:4660  NewComment(_vibeId, commentIds, encodeComment,msg.sender) */\n      0x9bc96546b626861a7c121121feba6787ee7e05c143ebc7c55ed8fbc660448c90\n        /* \"contracts/AmeComponents/VibeComment/VibeComment.sol\":4635:4648  encodeComment */\n      dup7\n        /* \"contracts/AmeComponents/VibeComment/VibeComment.sol\":4603:4660  NewComment(_vibeId, commentIds, encodeComment,msg.sender) */\n      mload(0x40)\n      tag_281\n      swap2\n      swap1\n      tag_33\n      jump\t// in\n    tag_281:\n      mload(0x40)\n      dup1\n      swap2\n      sub\n      swap1\n      log4\n        /* \"contracts/AmeComponents/VibeComment/VibeComment.sol\":4698:4831  Comment(... */\n      mload(0x40)\n      dup1\n      0x80\n      add\n      0x40\n      mstore\n      dup1\n        /* \"contracts/AmeComponents/VibeComment/VibeComment.sol\":4723:4730  _vibeId */\n      dup8\n        /* \"contracts/AmeComponents/VibeComment/VibeComment.sol\":4698:4831  Comment(... */\n      dup2\n      mstore\n      0x20\n      add\n        /* \"contracts/AmeComponents/VibeComment/VibeComment.sol\":4748:4758  commentIds */\n      sload(0x04)\n        /* \"contracts/AmeComponents/VibeComment/VibeComment.sol\":4698:4831  Comment(... */\n      dup2\n      mstore\n      0x20\n      add\n        /* \"contracts/AmeComponents/VibeComment/VibeComment.sol\":4776:4789  encodeComment */\n      dup5\n        /* \"contracts/AmeComponents/VibeComment/VibeComment.sol\":4698:4831  Comment(... */\n      dup2\n      mstore\n      0x20\n      add\n        /* \"contracts/AmeComponents/VibeComment/VibeComment.sol\":4807:4817  msg.sender */\n      caller\n        /* \"contracts/AmeComponents/VibeComment/VibeComment.sol\":4698:4831  Comment(... */\n      0xffffffffffffffffffffffffffffffffffffffff\n      and\n      dup2\n      mstore\n      pop\n        /* \"contracts/AmeComponents/VibeComment/VibeComment.sol\":4675:4683  Comments */\n      0x09\n        /* \"contracts/AmeComponents/VibeComment/VibeComment.sol\":4675:4695  Comments[commentIds] */\n      0x00\n        /* \"contracts/AmeComponents/VibeComment/VibeComment.sol\":4684:4694  commentIds */\n      sload(0x04)\n        /* \"contracts/AmeComponents/VibeComment/VibeComment.sol\":4675:4695  Comments[commentIds] */\n      dup2\n      mstore\n      0x20\n      add\n      swap1\n      dup2\n      mstore\n      0x20\n      add\n      0x00\n      keccak256\n        /* \"contracts/AmeComponents/VibeComment/VibeComment.sol\":4675:4831  Comments[commentIds] = Comment(... */\n      0x00\n      dup3\n      add\n      mload\n      dup2\n      0x00\n      add\n      sstore\n      0x20\n      dup3\n      add\n      mload\n      dup2\n      0x01\n      add\n      sstore\n      0x40\n      dup3\n      add\n      mload\n      dup2\n      0x02\n      add\n      swap1\n      dup2\n      tag_282\n      swap2\n      swap1\n      tag_283\n      jump\t// in\n    tag_282:\n      pop\n      0x60\n      dup3\n      add\n      mload\n      dup2\n      0x03\n      add\n      exp(0x0100, 0x00)\n      dup2\n      sload\n      dup2\n      0xffffffffffffffffffffffffffffffffffffffff\n      mul\n      not\n      and\n      swap1\n      dup4\n      0xffffffffffffffffffffffffffffffffffffffff\n      and\n      mul\n      or\n      swap1\n      sstore\n      pop\n      swap1\n      pop\n      pop\n        /* \"contracts/AmeComponents/VibeComment/VibeComment.sol\":4889:4899  commentIds */\n      sload(0x04)\n        /* \"contracts/AmeComponents/VibeComment/VibeComment.sol\":4845:4859  VibeCommentIds */\n      0x07\n        /* \"contracts/AmeComponents/VibeComment/VibeComment.sol\":4845:4868  VibeCommentIds[_vibeId] */\n      0x00\n        /* \"contracts/AmeComponents/VibeComment/VibeComment.sol\":4860:4867  _vibeId */\n      dup9\n        /* \"contracts/AmeComponents/VibeComment/VibeComment.sol\":4845:4868  VibeCommentIds[_vibeId] */\n      dup2\n      mstore\n      0x20\n      add\n      swap1\n      dup2\n      mstore\n      0x20\n      add\n      0x00\n      keccak256\n        /* \"contracts/AmeComponents/VibeComment/VibeComment.sol\":4845:4886  VibeCommentIds[_vibeId][vibeCommentIndex] */\n      0x00\n        /* \"contracts/AmeComponents/VibeComment/VibeComment.sol\":4869:4885  vibeCommentIndex */\n      dup5\n        /* \"contracts/AmeComponents/VibeComment/VibeComment.sol\":4845:4886  VibeCommentIds[_vibeId][vibeCommentIndex] */\n      dup2\n      mstore\n      0x20\n      add\n      swap1\n      dup2\n      mstore\n      0x20\n      add\n      0x00\n      keccak256\n        /* \"contracts/AmeComponents/VibeComment/VibeComment.sol\":4845:4899  VibeCommentIds[_vibeId][vibeCommentIndex] = commentIds */\n      dup2\n      swap1\n      sstore\n      pop\n        /* \"contracts/AmeComponents/VibeComment/VibeComment.sol\":4965:4975  commentIds */\n      sload(0x04)\n        /* \"contracts/AmeComponents/VibeComment/VibeComment.sol\":4913:4932  UserIndexCommentIds */\n      0x08\n        /* \"contracts/AmeComponents/VibeComment/VibeComment.sol\":4913:4944  UserIndexCommentIds[msg.sender] */\n      0x00\n        /* \"contracts/AmeComponents/VibeComment/VibeComment.sol\":4933:4943  msg.sender */\n      caller\n        /* \"contracts/AmeComponents/VibeComment/VibeComment.sol\":4913:4944  UserIndexCommentIds[msg.sender] */\n      0xffffffffffffffffffffffffffffffffffffffff\n      and\n      0xffffffffffffffffffffffffffffffffffffffff\n      and\n      dup2\n      mstore\n      0x20\n      add\n      swap1\n      dup2\n      mstore\n      0x20\n      add\n      0x00\n      keccak256\n        /* \"contracts/AmeComponents/VibeComment/VibeComment.sol\":4913:4962  UserIndexCommentIds[msg.sender][userCommentIndex] */\n      0x00\n        /* \"contracts/AmeComponents/VibeComment/VibeComment.sol\":4945:4961  userCommentIndex */\n      dup4\n        /* \"contracts/AmeComponents/VibeComment/VibeComment.sol\":4913:4962  UserIndexCommentIds[msg.sender][userCommentIndex] */\n      dup2\n      mstore\n      0x20\n      add\n      swap1\n      dup2\n      mstore\n      0x20\n      add\n      0x00\n      keccak256\n        /* \"contracts/AmeComponents/VibeComment/VibeComment.sol\":4913:4975  UserIndexCommentIds[msg.sender][userCommentIndex] = commentIds */\n      dup2\n      swap1\n      sstore\n      pop\n        /* \"contracts/AmeComponents/VibeComment/VibeComment.sol\":4990:5007  VibeCommentIndexs */\n      0x05\n        /* \"contracts/AmeComponents/VibeComment/VibeComment.sol\":4990:5016  VibeCommentIndexs[_vibeId] */\n      0x00\n        /* \"contracts/AmeComponents/VibeComment/VibeComment.sol\":5008:5015  _vibeId */\n      dup8\n        /* \"contracts/AmeComponents/VibeComment/VibeComment.sol\":4990:5016  VibeCommentIndexs[_vibeId] */\n      dup2\n      mstore\n      0x20\n      add\n      swap1\n      dup2\n      mstore\n      0x20\n      add\n      0x00\n      keccak256\n      0x00\n        /* \"contracts/AmeComponents/VibeComment/VibeComment.sol\":4990:5018  VibeCommentIndexs[_vibeId]++ */\n      dup2\n      sload\n      dup1\n      swap3\n      swap2\n      swap1\n      tag_284\n      swap1\n      tag_177\n      jump\t// in\n    tag_284:\n      swap2\n      swap1\n      pop\n      sstore\n      pop\n        /* \"contracts/AmeComponents/VibeComment/VibeComment.sol\":5032:5049  UserCommentIndexs */\n      0x06\n        /* \"contracts/AmeComponents/VibeComment/VibeComment.sol\":5032:5061  UserCommentIndexs[msg.sender] */\n      0x00\n        /* \"contracts/AmeComponents/VibeComment/VibeComment.sol\":5050:5060  msg.sender */\n      caller\n        /* \"contracts/AmeComponents/VibeComment/VibeComment.sol\":5032:5061  UserCommentIndexs[msg.sender] */\n      0xffffffffffffffffffffffffffffffffffffffff\n      and\n      0xffffffffffffffffffffffffffffffffffffffff\n      and\n      dup2\n      mstore\n      0x20\n      add\n      swap1\n      dup2\n      mstore\n      0x20\n      add\n      0x00\n      keccak256\n      0x00\n        /* \"contracts/AmeComponents/VibeComment/VibeComment.sol\":5032:5063  UserCommentIndexs[msg.sender]++ */\n      dup2\n      sload\n      dup1\n      swap3\n      swap2\n      swap1\n      tag_285\n      swap1\n      tag_177\n      jump\t// in\n    tag_285:\n      swap2\n      swap1\n      pop\n      sstore\n      pop\n        /* \"contracts/AmeComponents/VibeComment/VibeComment.sol\":5077:5087  commentIds */\n      0x04\n      0x00\n        /* \"contracts/AmeComponents/VibeComment/VibeComment.sol\":5077:5089  commentIds++ */\n      dup2\n      sload\n      dup1\n      swap3\n      swap2\n      swap1\n      tag_286\n      swap1\n      tag_177\n      jump\t// in\n    tag_286:\n      swap2\n      swap1\n      pop\n      sstore\n      pop\n        /* \"contracts/AmeComponents/VibeComment/VibeComment.sol\":5122:5136  abi.encode(\"\") */\n      add(0x20, mload(0x40))\n      tag_287\n      swap1\n      tag_274\n      jump\t// in\n    tag_287:\n      mload(0x40)\n      0x20\n      dup2\n      dup4\n      sub\n      sub\n      dup2\n      mstore\n      swap1\n      0x40\n      mstore\n        /* \"contracts/AmeComponents/VibeComment/VibeComment.sol\":5115:5136  return abi.encode(\"\") */\n      swap7\n      pop\n      pop\n      pop\n      pop\n      pop\n      pop\n      pop\n      jump(tag_275)\n        /* \"contracts/AmeComponents/VibeComment/VibeComment.sol\":4039:5875  if (compareStrings(_methodName, \"postComment\")) {... */\n    tag_277:\n        /* \"contracts/AmeComponents/VibeComment/VibeComment.sol\":5156:5200  compareStrings(_methodName, \"deleteComment\") */\n      tag_289\n        /* \"contracts/AmeComponents/VibeComment/VibeComment.sol\":5171:5182  _methodName */\n      dup4\n        /* \"contracts/AmeComponents/VibeComment/VibeComment.sol\":5156:5200  compareStrings(_methodName, \"deleteComment\") */\n      mload(0x40)\n      dup1\n      0x40\n      add\n      0x40\n      mstore\n      dup1\n      0x0d\n      dup2\n      mstore\n      0x20\n      add\n      0x64656c657465436f6d6d656e7400000000000000000000000000000000000000\n      dup2\n      mstore\n      pop\n        /* \"contracts/AmeComponents/VibeComment/VibeComment.sol\":5156:5170  compareStrings */\n      tag_247\n        /* \"contracts/AmeComponents/VibeComment/VibeComment.sol\":5156:5200  compareStrings(_methodName, \"deleteComment\") */\n      jump\t// in\n    tag_289:\n        /* \"contracts/AmeComponents/VibeComment/VibeComment.sol\":5153:5875  if(compareStrings(_methodName, \"deleteComment\")){... */\n      iszero\n      tag_290\n      jumpi\n        /* \"contracts/AmeComponents/VibeComment/VibeComment.sol\":5229:5247  uint256 _commentId */\n      0x00\n        /* \"contracts/AmeComponents/VibeComment/VibeComment.sol\":5279:5289  _methodReq */\n      dup3\n        /* \"contracts/AmeComponents/VibeComment/VibeComment.sol\":5251:5301  abi... */\n      dup1\n      0x20\n      add\n      swap1\n      mload\n      dup2\n      add\n      swap1\n      tag_291\n      swap2\n      swap1\n      tag_250\n      jump\t// in\n    tag_291:\n        /* \"contracts/AmeComponents/VibeComment/VibeComment.sol\":5228:5301  (uint256 _commentId) = abi... */\n      swap1\n      pop\n        /* \"contracts/AmeComponents/VibeComment/VibeComment.sol\":5328:5351  Comment memory _comment */\n      0x00\n        /* \"contracts/AmeComponents/VibeComment/VibeComment.sol\":5352:5360  Comments */\n      0x09\n        /* \"contracts/AmeComponents/VibeComment/VibeComment.sol\":5352:5372  Comments[_commentId] */\n      0x00\n        /* \"contracts/AmeComponents/VibeComment/VibeComment.sol\":5361:5371  _commentId */\n      dup4\n        /* \"contracts/AmeComponents/VibeComment/VibeComment.sol\":5352:5372  Comments[_commentId] */\n      dup2\n      mstore\n      0x20\n      add\n      swap1\n      dup2\n      mstore\n      0x20\n      add\n      0x00\n      keccak256\n        /* \"contracts/AmeComponents/VibeComment/VibeComment.sol\":5328:5372  Comment memory _comment=Comments[_commentId] */\n      mload(0x40)\n      dup1\n      0x80\n      add\n      0x40\n      mstore\n      swap1\n      dup2\n      0x00\n      dup3\n      add\n      sload\n      dup2\n      mstore\n      0x20\n      add\n      0x01\n      dup3\n      add\n      sload\n      dup2\n      mstore\n      0x20\n      add\n      0x02\n      dup3\n      add\n      dup1\n      sload\n      tag_292\n      swap1\n      tag_169\n      jump\t// in\n    tag_292:\n      dup1\n      0x1f\n      add\n      0x20\n      dup1\n      swap2\n      div\n      mul\n      0x20\n      add\n      mload(0x40)\n      swap1\n      dup2\n      add\n      0x40\n      mstore\n      dup1\n      swap3\n      swap2\n      swap1\n      dup2\n      dup2\n      mstore\n      0x20\n      add\n      dup3\n      dup1\n      sload\n      tag_293\n      swap1\n      tag_169\n      jump\t// in\n    tag_293:\n      dup1\n      iszero\n      tag_294\n      jumpi\n      dup1\n      0x1f\n      lt\n      tag_295\n      jumpi\n      0x0100\n      dup1\n      dup4\n      sload\n      div\n      mul\n      dup4\n      mstore\n      swap2\n      0x20\n      add\n      swap2\n      jump(tag_294)\n    tag_295:\n      dup3\n      add\n      swap2\n      swap1\n      0x00\n      mstore\n      keccak256(0x00, 0x20)\n      swap1\n    tag_296:\n      dup2\n      sload\n      dup2\n      mstore\n      swap1\n      0x01\n      add\n      swap1\n      0x20\n      add\n      dup1\n      dup4\n      gt\n      tag_296\n      jumpi\n      dup3\n      swap1\n      sub\n      0x1f\n      and\n      dup3\n      add\n      swap2\n    tag_294:\n      pop\n      pop\n      pop\n      pop\n      pop\n      dup2\n      mstore\n      0x20\n      add\n      0x03\n      dup3\n      add\n      0x00\n      swap1\n      sload\n      swap1\n      0x0100\n      exp\n      swap1\n      div\n      0xffffffffffffffffffffffffffffffffffffffff\n      and\n      0xffffffffffffffffffffffffffffffffffffffff\n      and\n      0xffffffffffffffffffffffffffffffffffffffff\n      and\n      dup2\n      mstore\n      pop\n      pop\n      swap1\n      pop\n        /* \"contracts/AmeComponents/VibeComment/VibeComment.sol\":5410:5420  msg.sender */\n      caller\n        /* \"contracts/AmeComponents/VibeComment/VibeComment.sol\":5395:5420  _comment.user==msg.sender */\n      0xffffffffffffffffffffffffffffffffffffffff\n      and\n        /* \"contracts/AmeComponents/VibeComment/VibeComment.sol\":5395:5403  _comment */\n      dup2\n        /* \"contracts/AmeComponents/VibeComment/VibeComment.sol\":5395:5408  _comment.user */\n      0x60\n      add\n      mload\n        /* \"contracts/AmeComponents/VibeComment/VibeComment.sol\":5395:5420  _comment.user==msg.sender */\n      0xffffffffffffffffffffffffffffffffffffffff\n      and\n      eq\n        /* \"contracts/AmeComponents/VibeComment/VibeComment.sol\":5395:5441  _comment.user==msg.sender||msg.sender==owner() */\n      dup1\n      tag_297\n      jumpi\n      pop\n        /* \"contracts/AmeComponents/VibeComment/VibeComment.sol\":5434:5441  owner() */\n      tag_298\n        /* \"contracts/AmeComponents/VibeComment/VibeComment.sol\":5434:5439  owner */\n      tag_59\n        /* \"contracts/AmeComponents/VibeComment/VibeComment.sol\":5434:5441  owner() */\n      jump\t// in\n    tag_298:\n        /* \"contracts/AmeComponents/VibeComment/VibeComment.sol\":5422:5441  msg.sender==owner() */\n      0xffffffffffffffffffffffffffffffffffffffff\n      and\n        /* \"contracts/AmeComponents/VibeComment/VibeComment.sol\":5422:5432  msg.sender */\n      caller\n        /* \"contracts/AmeComponents/VibeComment/VibeComment.sol\":5422:5441  msg.sender==owner() */\n      0xffffffffffffffffffffffffffffffffffffffff\n      and\n      eq\n        /* \"contracts/AmeComponents/VibeComment/VibeComment.sol\":5395:5441  _comment.user==msg.sender||msg.sender==owner() */\n    tag_297:\n        /* \"contracts/AmeComponents/VibeComment/VibeComment.sol\":5387:5442  require(_comment.user==msg.sender||msg.sender==owner()) */\n      tag_299\n      jumpi\n      0x00\n      dup1\n      revert\n    tag_299:\n        /* \"contracts/AmeComponents/VibeComment/VibeComment.sol\":5469:5496  string memory encodeComment */\n      0x00\n        /* \"contracts/AmeComponents/VibeComment/VibeComment.sol\":5499:5659  generateBase64(... */\n      tag_300\n        /* \"contracts/AmeComponents/VibeComment/VibeComment.sol\":5531:5539  _comment */\n      dup3\n        /* \"contracts/AmeComponents/VibeComment/VibeComment.sol\":5531:5546  _comment.vibeId */\n      0x00\n      add\n      mload\n        /* \"contracts/AmeComponents/VibeComment/VibeComment.sol\":5564:5574  _commentId */\n      dup5\n        /* \"contracts/AmeComponents/VibeComment/VibeComment.sol\":5499:5659  generateBase64(... */\n      mload(0x40)\n      dup1\n      0x20\n      add\n      0x40\n      mstore\n      dup1\n      0x00\n      dup2\n      mstore\n      pop\n      mload(0x40)\n      dup1\n      0x20\n      add\n      0x40\n      mstore\n      dup1\n      0x00\n      dup2\n      mstore\n      pop\n        /* \"contracts/AmeComponents/VibeComment/VibeComment.sol\":5632:5640  _comment */\n      dup7\n        /* \"contracts/AmeComponents/VibeComment/VibeComment.sol\":5632:5645  _comment.user */\n      0x60\n      add\n      mload\n        /* \"contracts/AmeComponents/VibeComment/VibeComment.sol\":5499:5513  generateBase64 */\n      tag_31\n        /* \"contracts/AmeComponents/VibeComment/VibeComment.sol\":5499:5659  generateBase64(... */\n      jump\t// in\n    tag_300:\n        /* \"contracts/AmeComponents/VibeComment/VibeComment.sol\":5469:5659  string memory encodeComment = generateBase64(... */\n      swap1\n      pop\n        /* \"contracts/AmeComponents/VibeComment/VibeComment.sol\":5703:5716  encodeComment */\n      dup1\n        /* \"contracts/AmeComponents/VibeComment/VibeComment.sol\":5674:5682  Comments */\n      0x09\n        /* \"contracts/AmeComponents/VibeComment/VibeComment.sol\":5674:5694  Comments[_commentId] */\n      0x00\n        /* \"contracts/AmeComponents/VibeComment/VibeComment.sol\":5683:5693  _commentId */\n      dup6\n        /* \"contracts/AmeComponents/VibeComment/VibeComment.sol\":5674:5694  Comments[_commentId] */\n      dup2\n      mstore\n      0x20\n      add\n      swap1\n      dup2\n      mstore\n      0x20\n      add\n      0x00\n      keccak256\n        /* \"contracts/AmeComponents/VibeComment/VibeComment.sol\":5674:5702  Comments[_commentId].content */\n      0x02\n      add\n        /* \"contracts/AmeComponents/VibeComment/VibeComment.sol\":5674:5716  Comments[_commentId].content=encodeComment */\n      swap1\n      dup2\n      tag_301\n      swap2\n      swap1\n      tag_283\n      jump\t// in\n    tag_301:\n      pop\n        /* \"contracts/AmeComponents/VibeComment/VibeComment.sol\":5766:5776  _commentId */\n      dup3\n        /* \"contracts/AmeComponents/VibeComment/VibeComment.sol\":5750:5758  _comment */\n      dup3\n        /* \"contracts/AmeComponents/VibeComment/VibeComment.sol\":5750:5765  _comment.vibeId */\n      0x00\n      add\n      mload\n        /* \"contracts/AmeComponents/VibeComment/VibeComment.sol\":5736:5777  DeleteComment(_comment.vibeId,_commentId) */\n      0x39fe72d1f4e19f77042a77bebb13e9015b3d5c334c8b5f5ddca187d9b15a39fa\n      mload(0x40)\n      mload(0x40)\n      dup1\n      swap2\n      sub\n      swap1\n      log3\n        /* \"contracts/AmeComponents/VibeComment/VibeComment.sol\":5799:5813  abi.encode(\"\") */\n      add(0x20, mload(0x40))\n      tag_302\n      swap1\n      tag_274\n      jump\t// in\n    tag_302:\n      mload(0x40)\n      0x20\n      dup2\n      dup4\n      sub\n      sub\n      dup2\n      mstore\n      swap1\n      0x40\n      mstore\n        /* \"contracts/AmeComponents/VibeComment/VibeComment.sol\":5792:5813  return abi.encode(\"\") */\n      swap4\n      pop\n      pop\n      pop\n      pop\n      jump(tag_275)\n        /* \"contracts/AmeComponents/VibeComment/VibeComment.sol\":5153:5875  if(compareStrings(_methodName, \"deleteComment\")){... */\n    tag_290:\n        /* \"contracts/AmeComponents/VibeComment/VibeComment.sol\":5850:5864  abi.encode(\"\") */\n      add(0x20, mload(0x40))\n      tag_304\n      swap1\n      tag_274\n      jump\t// in\n    tag_304:\n      mload(0x40)\n      0x20\n      dup2\n      dup4\n      sub\n      sub\n      dup2\n      mstore\n      swap1\n      0x40\n      mstore\n        /* \"contracts/AmeComponents/VibeComment/VibeComment.sol\":5843:5864  return abi.encode(\"\") */\n      swap1\n      pop\n        /* \"contracts/AmeComponents/VibeComment/VibeComment.sol\":3897:5881  function post(string memory _methodName, bytes memory _methodReq)... */\n    tag_275:\n      swap3\n      swap2\n      pop\n      pop\n      jump\t// out\n        /* \"contracts/AmeComponents/VibeComment/VibeComment.sol\":5887:6077  function put(string memory _methodName, bytes memory _methodReq)... */\n    tag_75:\n        /* \"contracts/AmeComponents/VibeComment/VibeComment.sol\":6000:6012  bytes memory */\n      0x60\n        /* \"contracts/AmeComponents/VibeComment/VibeComment.sol\":6046:6057  _methodName */\n      dup3\n        /* \"contracts/AmeComponents/VibeComment/VibeComment.sol\":6059:6069  _methodReq */\n      dup3\n        /* \"contracts/AmeComponents/VibeComment/VibeComment.sol\":6035:6070  abi.encode(_methodName, _methodReq) */\n      add(0x20, mload(0x40))\n      tag_306\n      swap3\n      swap2\n      swap1\n      tag_307\n      jump\t// in\n    tag_306:\n      mload(0x40)\n      0x20\n      dup2\n      dup4\n      sub\n      sub\n      dup2\n      mstore\n      swap1\n      0x40\n      mstore\n        /* \"contracts/AmeComponents/VibeComment/VibeComment.sol\":6028:6070  return abi.encode(_methodName, _methodReq) */\n      swap1\n      pop\n        /* \"contracts/AmeComponents/VibeComment/VibeComment.sol\":5887:6077  function put(string memory _methodName, bytes memory _methodReq)... */\n      swap3\n      swap2\n      pop\n      pop\n      jump\t// out\n        /* \"https://github.com/OpenZeppelin/openzeppelin-contracts/blob/release-v4.2/contracts/access/Ownable.sol\":1918:2116  function transferOwnership(address newOwner) public virtual onlyOwner {... */\n    tag_81:\n        /* \"https://github.com/OpenZeppelin/openzeppelin-contracts/blob/release-v4.2/contracts/access/Ownable.sol\":1259:1271  _msgSender() */\n      tag_309\n        /* \"https://github.com/OpenZeppelin/openzeppelin-contracts/blob/release-v4.2/contracts/access/Ownable.sol\":1259:1269  _msgSender */\n      tag_236\n        /* \"https://github.com/OpenZeppelin/openzeppelin-contracts/blob/release-v4.2/contracts/access/Ownable.sol\":1259:1271  _msgSender() */\n      jump\t// in\n    tag_309:\n        /* \"https://github.com/OpenZeppelin/openzeppelin-contracts/blob/release-v4.2/contracts/access/Ownable.sol\":1248:1271  owner() == _msgSender() */\n      0xffffffffffffffffffffffffffffffffffffffff\n      and\n        /* \"https://github.com/OpenZeppelin/openzeppelin-contracts/blob/release-v4.2/contracts/access/Ownable.sol\":1248:1255  owner() */\n      tag_310\n        /* \"https://github.com/OpenZeppelin/openzeppelin-contracts/blob/release-v4.2/contracts/access/Ownable.sol\":1248:1253  owner */\n      tag_59\n        /* \"https://github.com/OpenZeppelin/openzeppelin-contracts/blob/release-v4.2/contracts/access/Ownable.sol\":1248:1255  owner() */\n      jump\t// in\n    tag_310:\n        /* \"https://github.com/OpenZeppelin/openzeppelin-contracts/blob/release-v4.2/contracts/access/Ownable.sol\":1248:1271  owner() == _msgSender() */\n      0xffffffffffffffffffffffffffffffffffffffff\n      and\n      eq\n        /* \"https://github.com/OpenZeppelin/openzeppelin-contracts/blob/release-v4.2/contracts/access/Ownable.sol\":1240:1308  require(owner() == _msgSender(), \"Ownable: caller is not the owner\") */\n      tag_311\n      jumpi\n      mload(0x40)\n      0x08c379a000000000000000000000000000000000000000000000000000000000\n      dup2\n      mstore\n      0x04\n      add\n      tag_312\n      swap1\n      tag_240\n      jump\t// in\n    tag_312:\n      mload(0x40)\n      dup1\n      swap2\n      sub\n      swap1\n      revert\n    tag_311:\n        /* \"https://github.com/OpenZeppelin/openzeppelin-contracts/blob/release-v4.2/contracts/access/Ownable.sol\":2026:2027  0 */\n      0x00\n        /* \"https://github.com/OpenZeppelin/openzeppelin-contracts/blob/release-v4.2/contracts/access/Ownable.sol\":2006:2028  newOwner != address(0) */\n      0xffffffffffffffffffffffffffffffffffffffff\n      and\n        /* \"https://github.com/OpenZeppelin/openzeppelin-contracts/blob/release-v4.2/contracts/access/Ownable.sol\":2006:2014  newOwner */\n      dup2\n        /* \"https://github.com/OpenZeppelin/openzeppelin-contracts/blob/release-v4.2/contracts/access/Ownable.sol\":2006:2028  newOwner != address(0) */\n      0xffffffffffffffffffffffffffffffffffffffff\n      and\n      sub\n        /* \"https://github.com/OpenZeppelin/openzeppelin-contracts/blob/release-v4.2/contracts/access/Ownable.sol\":1998:2071  require(newOwner != address(0), \"Ownable: new owner is the zero address\") */\n      tag_314\n      jumpi\n      mload(0x40)\n      0x08c379a000000000000000000000000000000000000000000000000000000000\n      dup2\n      mstore\n      0x04\n      add\n      tag_315\n      swap1\n      tag_316\n      jump\t// in\n    tag_315:\n      mload(0x40)\n      dup1\n      swap2\n      sub\n      swap1\n      revert\n    tag_314:\n        /* \"https://github.com/OpenZeppelin/openzeppelin-contracts/blob/release-v4.2/contracts/access/Ownable.sol\":2081:2109  _transferOwnership(newOwner) */\n      tag_317\n        /* \"https://github.com/OpenZeppelin/openzeppelin-contracts/blob/release-v4.2/contracts/access/Ownable.sol\":2100:2108  newOwner */\n      dup2\n        /* \"https://github.com/OpenZeppelin/openzeppelin-contracts/blob/release-v4.2/contracts/access/Ownable.sol\":2081:2099  _transferOwnership */\n      tag_243\n        /* \"https://github.com/OpenZeppelin/openzeppelin-contracts/blob/release-v4.2/contracts/access/Ownable.sol\":2081:2109  _transferOwnership(newOwner) */\n      jump\t// in\n    tag_317:\n        /* \"https://github.com/OpenZeppelin/openzeppelin-contracts/blob/release-v4.2/contracts/access/Ownable.sol\":1918:2116  function transferOwnership(address newOwner) public virtual onlyOwner {... */\n      pop\n      jump\t// out\n        /* \"contracts/AmeComponents/VibeComment/VibeComment.sol\":7002:7159  function getMethods(MethodTypes _methodTypes)... */\n    tag_86:\n        /* \"contracts/AmeComponents/VibeComment/VibeComment.sol\":7093:7108  string[] memory */\n      0x60\n        /* \"contracts/AmeComponents/VibeComment/VibeComment.sol\":7131:7138  methods */\n      0x01\n        /* \"contracts/AmeComponents/VibeComment/VibeComment.sol\":7131:7152  methods[_methodTypes] */\n      0x00\n        /* \"contracts/AmeComponents/VibeComment/VibeComment.sol\":7139:7151  _methodTypes */\n      dup4\n        /* \"contracts/AmeComponents/VibeComment/VibeComment.sol\":7131:7152  methods[_methodTypes] */\n      0x03\n      dup2\n      gt\n      iszero\n      tag_319\n      jumpi\n      tag_320\n      tag_98\n      jump\t// in\n    tag_320:\n    tag_319:\n      0x03\n      dup2\n      gt\n      iszero\n      tag_321\n      jumpi\n      tag_322\n      tag_98\n      jump\t// in\n    tag_322:\n    tag_321:\n      dup2\n      mstore\n      0x20\n      add\n      swap1\n      dup2\n      mstore\n      0x20\n      add\n      0x00\n      keccak256\n        /* \"contracts/AmeComponents/VibeComment/VibeComment.sol\":7124:7152  return methods[_methodTypes] */\n      dup1\n      sload\n      dup1\n      0x20\n      mul\n      0x20\n      add\n      mload(0x40)\n      swap1\n      dup2\n      add\n      0x40\n      mstore\n      dup1\n      swap3\n      swap2\n      swap1\n      dup2\n      dup2\n      mstore\n      0x20\n      add\n      0x00\n      swap1\n    tag_323:\n      dup3\n      dup3\n      lt\n      iszero\n      tag_324\n      jumpi\n      dup4\n      dup3\n      swap1\n      0x00\n      mstore\n      keccak256(0x00, 0x20)\n      add\n      dup1\n      sload\n      tag_326\n      swap1\n      tag_169\n      jump\t// in\n    tag_326:\n      dup1\n      0x1f\n      add\n      0x20\n      dup1\n      swap2\n      div\n      mul\n      0x20\n      add\n      mload(0x40)\n      swap1\n      dup2\n      add\n      0x40\n      mstore\n      dup1\n      swap3\n      swap2\n      swap1\n      dup2\n      dup2\n      mstore\n      0x20\n      add\n      dup3\n      dup1\n      sload\n      tag_327\n      swap1\n      tag_169\n      jump\t// in\n    tag_327:\n      dup1\n      iszero\n      tag_328\n      jumpi\n      dup1\n      0x1f\n      lt\n      tag_329\n      jumpi\n      0x0100\n      dup1\n      dup4\n      sload\n      div\n      mul\n      dup4\n      mstore\n      swap2\n      0x20\n      add\n      swap2\n      jump(tag_328)\n    tag_329:\n      dup3\n      add\n      swap2\n      swap1\n      0x00\n      mstore\n      keccak256(0x00, 0x20)\n      swap1\n    tag_330:\n      dup2\n      sload\n      dup2\n      mstore\n      swap1\n      0x01\n      add\n      swap1\n      0x20\n      add\n      dup1\n      dup4\n      gt\n      tag_330\n      jumpi\n      dup3\n      swap1\n      sub\n      0x1f\n      and\n      dup3\n      add\n      swap2\n    tag_328:\n      pop\n      pop\n      pop\n      pop\n      pop\n      dup2\n      mstore\n      0x20\n      add\n      swap1\n      0x01\n      add\n      swap1\n      jump(tag_323)\n    tag_324:\n      pop\n      pop\n      pop\n      pop\n      swap1\n      pop\n        /* \"contracts/AmeComponents/VibeComment/VibeComment.sol\":7002:7159  function getMethods(MethodTypes _methodTypes)... */\n      swap2\n      swap1\n      pop\n      jump\t// out\n        /* \"contracts/AmeComponents/VibeComment/Strings.sol\":275:978  function toString(uint256 value) internal pure returns (string memory) {... */\n    tag_121:\n        /* \"contracts/AmeComponents/VibeComment/Strings.sol\":331:344  string memory */\n      0x60\n        /* \"contracts/AmeComponents/VibeComment/Strings.sol\":557:558  0 */\n      0x00\n        /* \"contracts/AmeComponents/VibeComment/Strings.sol\":548:553  value */\n      dup3\n        /* \"contracts/AmeComponents/VibeComment/Strings.sol\":548:558  value == 0 */\n      sub\n        /* \"contracts/AmeComponents/VibeComment/Strings.sol\":544:595  if (value == 0) {... */\n      tag_332\n      jumpi\n        /* \"contracts/AmeComponents/VibeComment/Strings.sol\":574:584  return \"0\" */\n      mload(0x40)\n      dup1\n      0x40\n      add\n      0x40\n      mstore\n      dup1\n      0x01\n      dup2\n      mstore\n      0x20\n      add\n      0x3000000000000000000000000000000000000000000000000000000000000000\n      dup2\n      mstore\n      pop\n      swap1\n      pop\n      jump(tag_331)\n        /* \"contracts/AmeComponents/VibeComment/Strings.sol\":544:595  if (value == 0) {... */\n    tag_332:\n        /* \"contracts/AmeComponents/VibeComment/Strings.sol\":604:616  uint256 temp */\n      0x00\n        /* \"contracts/AmeComponents/VibeComment/Strings.sol\":619:624  value */\n      dup3\n        /* \"contracts/AmeComponents/VibeComment/Strings.sol\":604:624  uint256 temp = value */\n      swap1\n      pop\n        /* \"contracts/AmeComponents/VibeComment/Strings.sol\":634:648  uint256 digits */\n      0x00\n        /* \"contracts/AmeComponents/VibeComment/Strings.sol\":658:733  while (temp != 0) {... */\n    tag_333:\n        /* \"contracts/AmeComponents/VibeComment/Strings.sol\":673:674  0 */\n      0x00\n        /* \"contracts/AmeComponents/VibeComment/Strings.sol\":665:669  temp */\n      dup3\n        /* \"contracts/AmeComponents/VibeComment/Strings.sol\":665:674  temp != 0 */\n      eq\n        /* \"contracts/AmeComponents/VibeComment/Strings.sol\":658:733  while (temp != 0) {... */\n      tag_334\n      jumpi\n        /* \"contracts/AmeComponents/VibeComment/Strings.sol\":690:698  digits++ */\n      dup1\n      dup1\n      tag_335\n      swap1\n      tag_177\n      jump\t// in\n    tag_335:\n      swap2\n      pop\n      pop\n        /* \"contracts/AmeComponents/VibeComment/Strings.sol\":720:722  10 */\n      0x0a\n        /* \"contracts/AmeComponents/VibeComment/Strings.sol\":712:722  temp /= 10 */\n      dup3\n      tag_336\n      swap2\n      swap1\n      tag_143\n      jump\t// in\n    tag_336:\n      swap2\n      pop\n        /* \"contracts/AmeComponents/VibeComment/Strings.sol\":658:733  while (temp != 0) {... */\n      jump(tag_333)\n    tag_334:\n        /* \"contracts/AmeComponents/VibeComment/Strings.sol\":742:761  bytes memory buffer */\n      0x00\n        /* \"contracts/AmeComponents/VibeComment/Strings.sol\":774:780  digits */\n      dup2\n        /* \"contracts/AmeComponents/VibeComment/Strings.sol\":764:781  new bytes(digits) */\n      0xffffffffffffffff\n      dup2\n      gt\n      iszero\n      tag_337\n      jumpi\n      tag_338\n      tag_91\n      jump\t// in\n    tag_338:\n    tag_337:\n      mload(0x40)\n      swap1\n      dup1\n      dup3\n      mstore\n      dup1\n      0x1f\n      add\n      not(0x1f)\n      and\n      0x20\n      add\n      dup3\n      add\n      0x40\n      mstore\n      dup1\n      iszero\n      tag_339\n      jumpi\n      dup2\n      0x20\n      add\n      0x01\n      dup3\n      mul\n      dup1\n      calldatasize\n      dup4\n      calldatacopy\n      dup1\n      dup3\n      add\n      swap2\n      pop\n      pop\n      swap1\n      pop\n    tag_339:\n      pop\n        /* \"contracts/AmeComponents/VibeComment/Strings.sol\":742:781  bytes memory buffer = new bytes(digits) */\n      swap1\n      pop\n        /* \"contracts/AmeComponents/VibeComment/Strings.sol\":791:941  while (value != 0) {... */\n    tag_340:\n        /* \"contracts/AmeComponents/VibeComment/Strings.sol\":807:808  0 */\n      0x00\n        /* \"contracts/AmeComponents/VibeComment/Strings.sol\":798:803  value */\n      dup6\n        /* \"contracts/AmeComponents/VibeComment/Strings.sol\":798:808  value != 0 */\n      eq\n        /* \"contracts/AmeComponents/VibeComment/Strings.sol\":791:941  while (value != 0) {... */\n      tag_341\n      jumpi\n        /* \"contracts/AmeComponents/VibeComment/Strings.sol\":834:835  1 */\n      0x01\n        /* \"contracts/AmeComponents/VibeComment/Strings.sol\":824:835  digits -= 1 */\n      dup3\n      tag_342\n      swap2\n      swap1\n      tag_140\n      jump\t// in\n    tag_342:\n      swap2\n      pop\n        /* \"contracts/AmeComponents/VibeComment/Strings.sol\":900:902  10 */\n      0x0a\n        /* \"contracts/AmeComponents/VibeComment/Strings.sol\":892:897  value */\n      dup6\n        /* \"contracts/AmeComponents/VibeComment/Strings.sol\":892:902  value % 10 */\n      tag_343\n      swap2\n      swap1\n      tag_344\n      jump\t// in\n    tag_343:\n        /* \"contracts/AmeComponents/VibeComment/Strings.sol\":879:881  48 */\n      0x30\n        /* \"contracts/AmeComponents/VibeComment/Strings.sol\":879:903  48 + uint256(value % 10) */\n      tag_345\n      swap2\n      swap1\n      tag_157\n      jump\t// in\n    tag_345:\n        /* \"contracts/AmeComponents/VibeComment/Strings.sol\":866:905  bytes1(uint8(48 + uint256(value % 10))) */\n      0xf8\n      shl\n        /* \"contracts/AmeComponents/VibeComment/Strings.sol\":849:855  buffer */\n      dup2\n        /* \"contracts/AmeComponents/VibeComment/Strings.sol\":856:862  digits */\n      dup4\n        /* \"contracts/AmeComponents/VibeComment/Strings.sol\":849:863  buffer[digits] */\n      dup2\n      mload\n      dup2\n      lt\n      tag_346\n      jumpi\n      tag_347\n      tag_95\n      jump\t// in\n    tag_347:\n    tag_346:\n      0x20\n      add\n      add\n        /* \"contracts/AmeComponents/VibeComment/Strings.sol\":849:905  buffer[digits] = bytes1(uint8(48 + uint256(value % 10))) */\n      swap1\n      not(0xffffffffffffffffffffffffffffffffffffffffffffffffffffffffffffff)\n      and\n      swap1\n      dup2\n      0x00\n      byte\n      swap1\n      mstore8\n      pop\n        /* \"contracts/AmeComponents/VibeComment/Strings.sol\":928:930  10 */\n      0x0a\n        /* \"contracts/AmeComponents/VibeComment/Strings.sol\":919:930  value /= 10 */\n      dup6\n      tag_348\n      swap2\n      swap1\n      tag_143\n      jump\t// in\n    tag_348:\n      swap5\n      pop\n        /* \"contracts/AmeComponents/VibeComment/Strings.sol\":791:941  while (value != 0) {... */\n      jump(tag_340)\n    tag_341:\n        /* \"contracts/AmeComponents/VibeComment/Strings.sol\":964:970  buffer */\n      dup1\n        /* \"contracts/AmeComponents/VibeComment/Strings.sol\":950:971  return string(buffer) */\n      swap4\n      pop\n      pop\n      pop\n      pop\n        /* \"contracts/AmeComponents/VibeComment/Strings.sol\":275:978  function toString(uint256 value) internal pure returns (string memory) {... */\n    tag_331:\n      swap2\n      swap1\n      pop\n      jump\t// out\n        /* \"contracts/AmeComponents/VibeComment/Base64.sol\":394:1717  function encode(bytes memory data) internal pure returns (string memory) {... */\n    tag_124:\n        /* \"contracts/AmeComponents/VibeComment/Base64.sol\":452:465  string memory */\n      0x60\n        /* \"contracts/AmeComponents/VibeComment/Base64.sol\":473:484  uint256 len */\n      0x00\n        /* \"contracts/AmeComponents/VibeComment/Base64.sol\":487:491  data */\n      dup3\n        /* \"contracts/AmeComponents/VibeComment/Base64.sol\":487:498  data.length */\n      mload\n        /* \"contracts/AmeComponents/VibeComment/Base64.sol\":473:498  uint256 len = data.length */\n      swap1\n      pop\n        /* \"contracts/AmeComponents/VibeComment/Base64.sol\":515:516  0 */\n      0x00\n        /* \"contracts/AmeComponents/VibeComment/Base64.sol\":508:511  len */\n      dup2\n        /* \"contracts/AmeComponents/VibeComment/Base64.sol\":508:516  len == 0 */\n      sub\n        /* \"contracts/AmeComponents/VibeComment/Base64.sol\":504:527  if (len == 0) return \"\" */\n      tag_350\n      jumpi\n        /* \"contracts/AmeComponents/VibeComment/Base64.sol\":518:527  return \"\" */\n      mload(0x40)\n      dup1\n      0x20\n      add\n      0x40\n      mstore\n      dup1\n      0x00\n      dup2\n      mstore\n      pop\n      swap2\n      pop\n      pop\n      jump(tag_349)\n        /* \"contracts/AmeComponents/VibeComment/Base64.sol\":504:527  if (len == 0) return \"\" */\n    tag_350:\n        /* \"contracts/AmeComponents/VibeComment/Base64.sol\":568:586  uint256 encodedLen */\n      0x00\n        /* \"contracts/AmeComponents/VibeComment/Base64.sol\":606:607  3 */\n      0x03\n        /* \"contracts/AmeComponents/VibeComment/Base64.sol\":601:602  2 */\n      0x02\n        /* \"contracts/AmeComponents/VibeComment/Base64.sol\":595:598  len */\n      dup4\n        /* \"contracts/AmeComponents/VibeComment/Base64.sol\":595:602  len + 2 */\n      tag_351\n      swap2\n      swap1\n      tag_157\n      jump\t// in\n    tag_351:\n        /* \"contracts/AmeComponents/VibeComment/Base64.sol\":594:607  (len + 2) / 3 */\n      tag_352\n      swap2\n      swap1\n      tag_143\n      jump\t// in\n    tag_352:\n        /* \"contracts/AmeComponents/VibeComment/Base64.sol\":589:590  4 */\n      0x04\n        /* \"contracts/AmeComponents/VibeComment/Base64.sol\":589:608  4 * ((len + 2) / 3) */\n      tag_353\n      swap2\n      swap1\n      tag_152\n      jump\t// in\n    tag_353:\n        /* \"contracts/AmeComponents/VibeComment/Base64.sol\":568:608  uint256 encodedLen = 4 * ((len + 2) / 3) */\n      swap1\n      pop\n        /* \"contracts/AmeComponents/VibeComment/Base64.sol\":655:674  bytes memory result */\n      0x00\n        /* \"contracts/AmeComponents/VibeComment/Base64.sol\":700:702  32 */\n      0x20\n        /* \"contracts/AmeComponents/VibeComment/Base64.sol\":687:697  encodedLen */\n      dup3\n        /* \"contracts/AmeComponents/VibeComment/Base64.sol\":687:702  encodedLen + 32 */\n      tag_354\n      swap2\n      swap1\n      tag_157\n      jump\t// in\n    tag_354:\n        /* \"contracts/AmeComponents/VibeComment/Base64.sol\":677:703  new bytes(encodedLen + 32) */\n      0xffffffffffffffff\n      dup2\n      gt\n      iszero\n      tag_355\n      jumpi\n      tag_356\n      tag_91\n      jump\t// in\n    tag_356:\n    tag_355:\n      mload(0x40)\n      swap1\n      dup1\n      dup3\n      mstore\n      dup1\n      0x1f\n      add\n      not(0x1f)\n      and\n      0x20\n      add\n      dup3\n      add\n      0x40\n      mstore\n      dup1\n      iszero\n      tag_357\n      jumpi\n      dup2\n      0x20\n      add\n      0x01\n      dup3\n      mul\n      dup1\n      calldatasize\n      dup4\n      calldatacopy\n      dup1\n      dup3\n      add\n      swap2\n      pop\n      pop\n      swap1\n      pop\n    tag_357:\n      pop\n        /* \"contracts/AmeComponents/VibeComment/Base64.sol\":655:703  bytes memory result = new bytes(encodedLen + 32) */\n      swap1\n      pop\n        /* \"contracts/AmeComponents/VibeComment/Base64.sol\":710:728  bytes memory table */\n      0x00\n        /* \"contracts/AmeComponents/VibeComment/Base64.sol\":731:736  TABLE */\n      mload(0x40)\n      dup1\n      0x60\n      add\n      0x40\n      mstore\n      dup1\n      0x40\n      dup2\n      mstore\n      0x20\n      add\n      data_84d8a590de33e00cbdc16e1f28c3506f5ec15c599fab9a6a4bcd575cc2f110ce\n      0x40\n      swap2\n      codecopy\n        /* \"contracts/AmeComponents/VibeComment/Base64.sol\":710:736  bytes memory table = TABLE */\n      swap1\n      pop\n        /* \"contracts/AmeComponents/VibeComment/Base64.sol\":787:788  1 */\n      0x01\n        /* \"contracts/AmeComponents/VibeComment/Base64.sol\":780:785  table */\n      dup2\n        /* \"contracts/AmeComponents/VibeComment/Base64.sol\":776:789  add(table, 1) */\n      add\n        /* \"contracts/AmeComponents/VibeComment/Base64.sol\":825:827  32 */\n      0x20\n        /* \"contracts/AmeComponents/VibeComment/Base64.sol\":817:823  result */\n      dup4\n        /* \"contracts/AmeComponents/VibeComment/Base64.sol\":813:828  add(result, 32) */\n      add\n        /* \"contracts/AmeComponents/VibeComment/Base64.sol\":859:860  0 */\n      0x00\n        /* \"contracts/AmeComponents/VibeComment/Base64.sol\":836:1471  for {... */\n    tag_358:\n        /* \"contracts/AmeComponents/VibeComment/Base64.sol\":875:878  len */\n      dup7\n        /* \"contracts/AmeComponents/VibeComment/Base64.sol\":872:873  i */\n      dup2\n        /* \"contracts/AmeComponents/VibeComment/Base64.sol\":869:879  lt(i, len) */\n      lt\n        /* \"contracts/AmeComponents/VibeComment/Base64.sol\":836:1471  for {... */\n      iszero\n      tag_360\n      jumpi\n        /* \"contracts/AmeComponents/VibeComment/Base64.sol\":913:914  3 */\n      0x03\n        /* \"contracts/AmeComponents/VibeComment/Base64.sol\":910:911  i */\n      dup2\n        /* \"contracts/AmeComponents/VibeComment/Base64.sol\":906:915  add(i, 3) */\n      add\n        /* \"contracts/AmeComponents/VibeComment/Base64.sol\":901:915  i := add(i, 3) */\n      swap1\n      pop\n        /* \"contracts/AmeComponents/VibeComment/Base64.sol\":962:970  0xffffff */\n      0xffffff\n        /* \"contracts/AmeComponents/VibeComment/Base64.sol\":957:958  i */\n      dup2\n        /* \"contracts/AmeComponents/VibeComment/Base64.sol\":951:955  data */\n      dup11\n        /* \"contracts/AmeComponents/VibeComment/Base64.sol\":947:959  add(data, i) */\n      add\n        /* \"contracts/AmeComponents/VibeComment/Base64.sol\":941:960  mload(add(data, i)) */\n      mload\n        /* \"contracts/AmeComponents/VibeComment/Base64.sol\":937:971  and(mload(add(data, i)), 0xffffff) */\n      and\n        /* \"contracts/AmeComponents/VibeComment/Base64.sol\":1032:1036  0x3F */\n      0x3f\n        /* \"contracts/AmeComponents/VibeComment/Base64.sol\":1024:1029  input */\n      dup2\n        /* \"contracts/AmeComponents/VibeComment/Base64.sol\":1020:1022  18 */\n      0x12\n        /* \"contracts/AmeComponents/VibeComment/Base64.sol\":1016:1030  shr(18, input) */\n      shr\n        /* \"contracts/AmeComponents/VibeComment/Base64.sol\":1012:1037  and(shr(18, input), 0x3F) */\n      and\n        /* \"contracts/AmeComponents/VibeComment/Base64.sol\":1002:1010  tablePtr */\n      dup5\n        /* \"contracts/AmeComponents/VibeComment/Base64.sol\":998:1038  add(tablePtr, and(shr(18, input), 0x3F)) */\n      add\n        /* \"contracts/AmeComponents/VibeComment/Base64.sol\":992:1039  mload(add(tablePtr, and(shr(18, input), 0x3F))) */\n      mload\n        /* \"contracts/AmeComponents/VibeComment/Base64.sol\":1062:1065  out */\n      dup1\n        /* \"contracts/AmeComponents/VibeComment/Base64.sol\":1059:1060  8 */\n      0x08\n        /* \"contracts/AmeComponents/VibeComment/Base64.sol\":1055:1066  shl(8, out) */\n      shl\n        /* \"contracts/AmeComponents/VibeComment/Base64.sol\":1048:1066  out := shl(8, out) */\n      swap1\n      pop\n        /* \"contracts/AmeComponents/VibeComment/Base64.sol\":1144:1148  0xFF */\n      0xff\n        /* \"contracts/AmeComponents/VibeComment/Base64.sol\":1135:1139  0x3F */\n      0x3f\n        /* \"contracts/AmeComponents/VibeComment/Base64.sol\":1127:1132  input */\n      dup4\n        /* \"contracts/AmeComponents/VibeComment/Base64.sol\":1123:1125  12 */\n      0x0c\n        /* \"contracts/AmeComponents/VibeComment/Base64.sol\":1119:1133  shr(12, input) */\n      shr\n        /* \"contracts/AmeComponents/VibeComment/Base64.sol\":1115:1140  and(shr(12, input), 0x3F) */\n      and\n        /* \"contracts/AmeComponents/VibeComment/Base64.sol\":1105:1113  tablePtr */\n      dup7\n        /* \"contracts/AmeComponents/VibeComment/Base64.sol\":1101:1141  add(tablePtr, and(shr(12, input), 0x3F)) */\n      add\n        /* \"contracts/AmeComponents/VibeComment/Base64.sol\":1095:1142  mload(add(tablePtr, and(shr(12, input), 0x3F))) */\n      mload\n        /* \"contracts/AmeComponents/VibeComment/Base64.sol\":1091:1149  and(mload(add(tablePtr, and(shr(12, input), 0x3F))), 0xFF) */\n      and\n        /* \"contracts/AmeComponents/VibeComment/Base64.sol\":1086:1089  out */\n      dup2\n        /* \"contracts/AmeComponents/VibeComment/Base64.sol\":1082:1150  add(out, and(mload(add(tablePtr, and(shr(12, input), 0x3F))), 0xFF)) */\n      add\n        /* \"contracts/AmeComponents/VibeComment/Base64.sol\":1075:1150  out := add(out, and(mload(add(tablePtr, and(shr(12, input), 0x3F))), 0xFF)) */\n      swap1\n      pop\n        /* \"contracts/AmeComponents/VibeComment/Base64.sol\":1173:1176  out */\n      dup1\n        /* \"contracts/AmeComponents/VibeComment/Base64.sol\":1170:1171  8 */\n      0x08\n        /* \"contracts/AmeComponents/VibeComment/Base64.sol\":1166:1177  shl(8, out) */\n      shl\n        /* \"contracts/AmeComponents/VibeComment/Base64.sol\":1159:1177  out := shl(8, out) */\n      swap1\n      pop\n        /* \"contracts/AmeComponents/VibeComment/Base64.sol\":1254:1258  0xFF */\n      0xff\n        /* \"contracts/AmeComponents/VibeComment/Base64.sol\":1245:1249  0x3F */\n      0x3f\n        /* \"contracts/AmeComponents/VibeComment/Base64.sol\":1237:1242  input */\n      dup4\n        /* \"contracts/AmeComponents/VibeComment/Base64.sol\":1234:1235  6 */\n      0x06\n        /* \"contracts/AmeComponents/VibeComment/Base64.sol\":1230:1243  shr(6, input) */\n      shr\n        /* \"contracts/AmeComponents/VibeComment/Base64.sol\":1226:1250  and(shr(6, input), 0x3F) */\n      and\n        /* \"contracts/AmeComponents/VibeComment/Base64.sol\":1216:1224  tablePtr */\n      dup7\n        /* \"contracts/AmeComponents/VibeComment/Base64.sol\":1212:1251  add(tablePtr, and(shr(6, input), 0x3F)) */\n      add\n        /* \"contracts/AmeComponents/VibeComment/Base64.sol\":1206:1252  mload(add(tablePtr, and(shr(6, input), 0x3F))) */\n      mload\n        /* \"contracts/AmeComponents/VibeComment/Base64.sol\":1202:1259  and(mload(add(tablePtr, and(shr(6, input), 0x3F))), 0xFF) */\n      and\n        /* \"contracts/AmeComponents/VibeComment/Base64.sol\":1197:1200  out */\n      dup2\n        /* \"contracts/AmeComponents/VibeComment/Base64.sol\":1193:1260  add(out, and(mload(add(tablePtr, and(shr(6, input), 0x3F))), 0xFF)) */\n      add\n        /* \"contracts/AmeComponents/VibeComment/Base64.sol\":1186:1260  out := add(out, and(mload(add(tablePtr, and(shr(6, input), 0x3F))), 0xFF)) */\n      swap1\n      pop\n        /* \"contracts/AmeComponents/VibeComment/Base64.sol\":1283:1286  out */\n      dup1\n        /* \"contracts/AmeComponents/VibeComment/Base64.sol\":1280:1281  8 */\n      0x08\n        /* \"contracts/AmeComponents/VibeComment/Base64.sol\":1276:1287  shl(8, out) */\n      shl\n        /* \"contracts/AmeComponents/VibeComment/Base64.sol\":1269:1287  out := shl(8, out) */\n      swap1\n      pop\n        /* \"contracts/AmeComponents/VibeComment/Base64.sol\":1356:1360  0xFF */\n      0xff\n        /* \"contracts/AmeComponents/VibeComment/Base64.sol\":1347:1351  0x3F */\n      0x3f\n        /* \"contracts/AmeComponents/VibeComment/Base64.sol\":1340:1345  input */\n      dup4\n        /* \"contracts/AmeComponents/VibeComment/Base64.sol\":1336:1352  and(input, 0x3F) */\n      and\n        /* \"contracts/AmeComponents/VibeComment/Base64.sol\":1326:1334  tablePtr */\n      dup7\n        /* \"contracts/AmeComponents/VibeComment/Base64.sol\":1322:1353  add(tablePtr, and(input, 0x3F)) */\n      add\n        /* \"contracts/AmeComponents/VibeComment/Base64.sol\":1316:1354  mload(add(tablePtr, and(input, 0x3F))) */\n      mload\n        /* \"contracts/AmeComponents/VibeComment/Base64.sol\":1312:1361  and(mload(add(tablePtr, and(input, 0x3F))), 0xFF) */\n      and\n        /* \"contracts/AmeComponents/VibeComment/Base64.sol\":1307:1310  out */\n      dup2\n        /* \"contracts/AmeComponents/VibeComment/Base64.sol\":1303:1362  add(out, and(mload(add(tablePtr, and(input, 0x3F))), 0xFF)) */\n      add\n        /* \"contracts/AmeComponents/VibeComment/Base64.sol\":1296:1362  out := add(out, and(mload(add(tablePtr, and(input, 0x3F))), 0xFF)) */\n      swap1\n      pop\n        /* \"contracts/AmeComponents/VibeComment/Base64.sol\":1387:1390  out */\n      dup1\n        /* \"contracts/AmeComponents/VibeComment/Base64.sol\":1382:1385  224 */\n      0xe0\n        /* \"contracts/AmeComponents/VibeComment/Base64.sol\":1378:1391  shl(224, out) */\n      shl\n        /* \"contracts/AmeComponents/VibeComment/Base64.sol\":1371:1391  out := shl(224, out) */\n      swap1\n      pop\n        /* \"contracts/AmeComponents/VibeComment/Base64.sol\":1419:1422  out */\n      dup1\n        /* \"contracts/AmeComponents/VibeComment/Base64.sol\":1408:1417  resultPtr */\n      dup5\n        /* \"contracts/AmeComponents/VibeComment/Base64.sol\":1401:1423  mstore(resultPtr, out) */\n      mstore\n        /* \"contracts/AmeComponents/VibeComment/Base64.sol\":1461:1462  4 */\n      0x04\n        /* \"contracts/AmeComponents/VibeComment/Base64.sol\":1450:1459  resultPtr */\n      dup5\n        /* \"contracts/AmeComponents/VibeComment/Base64.sol\":1446:1463  add(resultPtr, 4) */\n      add\n        /* \"contracts/AmeComponents/VibeComment/Base64.sol\":1433:1463  resultPtr := add(resultPtr, 4) */\n      swap4\n      pop\n        /* \"contracts/AmeComponents/VibeComment/Base64.sol\":891:1471  {... */\n      pop\n      pop\n        /* \"contracts/AmeComponents/VibeComment/Base64.sol\":836:1471  for {... */\n      jump(tag_358)\n    tag_360:\n        /* \"contracts/AmeComponents/VibeComment/Base64.sol\":840:868  {... */\n      pop\n        /* \"contracts/AmeComponents/VibeComment/Base64.sol\":1495:1496  3 */\n      0x03\n        /* \"contracts/AmeComponents/VibeComment/Base64.sol\":1490:1493  len */\n      dup7\n        /* \"contracts/AmeComponents/VibeComment/Base64.sol\":1486:1497  mod(len, 3) */\n      mod\n        /* \"contracts/AmeComponents/VibeComment/Base64.sol\":1509:1510  1 */\n      0x01\n        /* \"contracts/AmeComponents/VibeComment/Base64.sol\":1504:1572  case 1 {... */\n      dup2\n      eq\n      tag_362\n      jumpi\n        /* \"contracts/AmeComponents/VibeComment/Base64.sol\":1584:1585  2 */\n      0x02\n        /* \"contracts/AmeComponents/VibeComment/Base64.sol\":1579:1645  case 2 {... */\n      dup2\n      eq\n      tag_363\n      jumpi\n        /* \"contracts/AmeComponents/VibeComment/Base64.sol\":1479:1645  switch mod(len, 3)... */\n      jump(tag_361)\n        /* \"contracts/AmeComponents/VibeComment/Base64.sol\":1504:1572  case 1 {... */\n    tag_362:\n        /* \"contracts/AmeComponents/VibeComment/Base64.sol\":1556:1562  0x3d3d */\n      0x3d3d\n        /* \"contracts/AmeComponents/VibeComment/Base64.sol\":1551:1554  240 */\n      0xf0\n        /* \"contracts/AmeComponents/VibeComment/Base64.sol\":1547:1563  shl(240, 0x3d3d) */\n      shl\n        /* \"contracts/AmeComponents/VibeComment/Base64.sol\":1543:1544  2 */\n      0x02\n        /* \"contracts/AmeComponents/VibeComment/Base64.sol\":1532:1541  resultPtr */\n      dup4\n        /* \"contracts/AmeComponents/VibeComment/Base64.sol\":1528:1545  sub(resultPtr, 2) */\n      sub\n        /* \"contracts/AmeComponents/VibeComment/Base64.sol\":1521:1564  mstore(sub(resultPtr, 2), shl(240, 0x3d3d)) */\n      mstore\n        /* \"contracts/AmeComponents/VibeComment/Base64.sol\":1504:1572  case 1 {... */\n      jump(tag_361)\n        /* \"contracts/AmeComponents/VibeComment/Base64.sol\":1579:1645  case 2 {... */\n    tag_363:\n        /* \"contracts/AmeComponents/VibeComment/Base64.sol\":1631:1635  0x3d */\n      0x3d\n        /* \"contracts/AmeComponents/VibeComment/Base64.sol\":1626:1629  248 */\n      0xf8\n        /* \"contracts/AmeComponents/VibeComment/Base64.sol\":1622:1636  shl(248, 0x3d) */\n      shl\n        /* \"contracts/AmeComponents/VibeComment/Base64.sol\":1618:1619  1 */\n      0x01\n        /* \"contracts/AmeComponents/VibeComment/Base64.sol\":1607:1616  resultPtr */\n      dup4\n        /* \"contracts/AmeComponents/VibeComment/Base64.sol\":1603:1620  sub(resultPtr, 1) */\n      sub\n        /* \"contracts/AmeComponents/VibeComment/Base64.sol\":1596:1637  mstore(sub(resultPtr, 1), shl(248, 0x3d)) */\n      mstore\n        /* \"contracts/AmeComponents/VibeComment/Base64.sol\":1479:1645  switch mod(len, 3)... */\n    tag_361:\n      pop\n        /* \"contracts/AmeComponents/VibeComment/Base64.sol\":1668:1678  encodedLen */\n      dup5\n        /* \"contracts/AmeComponents/VibeComment/Base64.sol\":1660:1666  result */\n      dup5\n        /* \"contracts/AmeComponents/VibeComment/Base64.sol\":1653:1679  mstore(result, encodedLen) */\n      mstore\n        /* \"contracts/AmeComponents/VibeComment/Base64.sol\":752:1685  {... */\n      pop\n      pop\n        /* \"contracts/AmeComponents/VibeComment/Base64.sol\":1705:1711  result */\n      dup2\n        /* \"contracts/AmeComponents/VibeComment/Base64.sol\":1691:1712  return string(result) */\n      swap5\n      pop\n      pop\n      pop\n      pop\n      pop\n        /* \"contracts/AmeComponents/VibeComment/Base64.sol\":394:1717  function encode(bytes memory data) internal pure returns (string memory) {... */\n    tag_349:\n      swap2\n      swap1\n      pop\n      jump\t// out\n        /* \"contracts/AmeComponents/VibeComment/Strings.sol\":1535:1976  function toHexString(uint256 value, uint256 length) internal pure returns (string memory) {... */\n    tag_127:\n        /* \"contracts/AmeComponents/VibeComment/Strings.sol\":1610:1623  string memory */\n      0x60\n        /* \"contracts/AmeComponents/VibeComment/Strings.sol\":1635:1654  bytes memory buffer */\n      0x00\n        /* \"contracts/AmeComponents/VibeComment/Strings.sol\":1680:1681  2 */\n      0x02\n        /* \"contracts/AmeComponents/VibeComment/Strings.sol\":1671:1677  length */\n      dup4\n        /* \"contracts/AmeComponents/VibeComment/Strings.sol\":1667:1668  2 */\n      0x02\n        /* \"contracts/AmeComponents/VibeComment/Strings.sol\":1667:1677  2 * length */\n      tag_365\n      swap2\n      swap1\n      tag_152\n      jump\t// in\n    tag_365:\n        /* \"contracts/AmeComponents/VibeComment/Strings.sol\":1667:1681  2 * length + 2 */\n      tag_366\n      swap2\n      swap1\n      tag_157\n      jump\t// in\n    tag_366:\n        /* \"contracts/AmeComponents/VibeComment/Strings.sol\":1657:1682  new bytes(2 * length + 2) */\n      0xffffffffffffffff\n      dup2\n      gt\n      iszero\n      tag_367\n      jumpi\n      tag_368\n      tag_91\n      jump\t// in\n    tag_368:\n    tag_367:\n      mload(0x40)\n      swap1\n      dup1\n      dup3\n      mstore\n      dup1\n      0x1f\n      add\n      not(0x1f)\n      and\n      0x20\n      add\n      dup3\n      add\n      0x40\n      mstore\n      dup1\n      iszero\n      tag_369\n      jumpi\n      dup2\n      0x20\n      add\n      0x01\n      dup3\n      mul\n      dup1\n      calldatasize\n      dup4\n      calldatacopy\n      dup1\n      dup3\n      add\n      swap2\n      pop\n      pop\n      swap1\n      pop\n    tag_369:\n      pop\n        /* \"contracts/AmeComponents/VibeComment/Strings.sol\":1635:1682  bytes memory buffer = new bytes(2 * length + 2) */\n      swap1\n      pop\n        /* \"contracts/AmeComponents/VibeComment/Strings.sol\":1692:1707  buffer[0] = \"0\" */\n      0x3000000000000000000000000000000000000000000000000000000000000000\n        /* \"contracts/AmeComponents/VibeComment/Strings.sol\":1692:1698  buffer */\n      dup2\n        /* \"contracts/AmeComponents/VibeComment/Strings.sol\":1699:1700  0 */\n      0x00\n        /* \"contracts/AmeComponents/VibeComment/Strings.sol\":1692:1701  buffer[0] */\n      dup2\n      mload\n      dup2\n      lt\n      tag_370\n      jumpi\n      tag_371\n      tag_95\n      jump\t// in\n    tag_371:\n    tag_370:\n      0x20\n      add\n      add\n        /* \"contracts/AmeComponents/VibeComment/Strings.sol\":1692:1707  buffer[0] = \"0\" */\n      swap1\n      not(0xffffffffffffffffffffffffffffffffffffffffffffffffffffffffffffff)\n      and\n      swap1\n      dup2\n      0x00\n      byte\n      swap1\n      mstore8\n      pop\n        /* \"contracts/AmeComponents/VibeComment/Strings.sol\":1717:1732  buffer[1] = \"x\" */\n      0x7800000000000000000000000000000000000000000000000000000000000000\n        /* \"contracts/AmeComponents/VibeComment/Strings.sol\":1717:1723  buffer */\n      dup2\n        /* \"contracts/AmeComponents/VibeComment/Strings.sol\":1724:1725  1 */\n      0x01\n        /* \"contracts/AmeComponents/VibeComment/Strings.sol\":1717:1726  buffer[1] */\n      dup2\n      mload\n      dup2\n      lt\n      tag_372\n      jumpi\n      tag_373\n      tag_95\n      jump\t// in\n    tag_373:\n    tag_372:\n      0x20\n      add\n      add\n        /* \"contracts/AmeComponents/VibeComment/Strings.sol\":1717:1732  buffer[1] = \"x\" */\n      swap1\n      not(0xffffffffffffffffffffffffffffffffffffffffffffffffffffffffffffff)\n      and\n      swap1\n      dup2\n      0x00\n      byte\n      swap1\n      mstore8\n      pop\n        /* \"contracts/AmeComponents/VibeComment/Strings.sol\":1747:1756  uint256 i */\n      0x00\n        /* \"contracts/AmeComponents/VibeComment/Strings.sol\":1772:1773  1 */\n      0x01\n        /* \"contracts/AmeComponents/VibeComment/Strings.sol\":1763:1769  length */\n      dup5\n        /* \"contracts/AmeComponents/VibeComment/Strings.sol\":1759:1760  2 */\n      0x02\n        /* \"contracts/AmeComponents/VibeComment/Strings.sol\":1759:1769  2 * length */\n      tag_377\n      swap2\n      swap1\n      tag_152\n      jump\t// in\n    tag_377:\n        /* \"contracts/AmeComponents/VibeComment/Strings.sol\":1759:1773  2 * length + 1 */\n      tag_378\n      swap2\n      swap1\n      tag_157\n      jump\t// in\n    tag_378:\n        /* \"contracts/AmeComponents/VibeComment/Strings.sol\":1747:1773  uint256 i = 2 * length + 1 */\n      swap1\n      pop\n        /* \"contracts/AmeComponents/VibeComment/Strings.sol\":1742:1874  for (uint256 i = 2 * length + 1; i > 1; --i) {... */\n    tag_374:\n        /* \"contracts/AmeComponents/VibeComment/Strings.sol\":1779:1780  1 */\n      0x01\n        /* \"contracts/AmeComponents/VibeComment/Strings.sol\":1775:1776  i */\n      dup2\n        /* \"contracts/AmeComponents/VibeComment/Strings.sol\":1775:1780  i > 1 */\n      gt\n        /* \"contracts/AmeComponents/VibeComment/Strings.sol\":1742:1874  for (uint256 i = 2 * length + 1; i > 1; --i) {... */\n      iszero\n      tag_375\n      jumpi\n        /* \"contracts/AmeComponents/VibeComment/Strings.sol\":1813:1825  _HEX_SYMBOLS */\n      0x3031323334353637383961626364656600000000000000000000000000000000\n        /* \"contracts/AmeComponents/VibeComment/Strings.sol\":1834:1837  0xf */\n      0x0f\n        /* \"contracts/AmeComponents/VibeComment/Strings.sol\":1826:1831  value */\n      dup7\n        /* \"contracts/AmeComponents/VibeComment/Strings.sol\":1826:1837  value & 0xf */\n      and\n        /* \"contracts/AmeComponents/VibeComment/Strings.sol\":1813:1838  _HEX_SYMBOLS[value & 0xf] */\n      0x10\n      dup2\n      lt\n      tag_379\n      jumpi\n      tag_380\n      tag_95\n      jump\t// in\n    tag_380:\n    tag_379:\n      byte\n      0xf8\n      shl\n        /* \"contracts/AmeComponents/VibeComment/Strings.sol\":1801:1807  buffer */\n      dup3\n        /* \"contracts/AmeComponents/VibeComment/Strings.sol\":1808:1809  i */\n      dup3\n        /* \"contracts/AmeComponents/VibeComment/Strings.sol\":1801:1810  buffer[i] */\n      dup2\n      mload\n      dup2\n      lt\n      tag_381\n      jumpi\n      tag_382\n      tag_95\n      jump\t// in\n    tag_382:\n    tag_381:\n      0x20\n      add\n      add\n        /* \"contracts/AmeComponents/VibeComment/Strings.sol\":1801:1838  buffer[i] = _HEX_SYMBOLS[value & 0xf] */\n      swap1\n      not(0xffffffffffffffffffffffffffffffffffffffffffffffffffffffffffffff)\n      and\n      swap1\n      dup2\n      0x00\n      byte\n      swap1\n      mstore8\n      pop\n        /* \"contracts/AmeComponents/VibeComment/Strings.sol\":1862:1863  4 */\n      0x04\n        /* \"contracts/AmeComponents/VibeComment/Strings.sol\":1852:1863  value >>= 4 */\n      dup6\n      swap1\n      shr\n      swap5\n      pop\n        /* \"contracts/AmeComponents/VibeComment/Strings.sol\":1782:1785  --i */\n      dup1\n      tag_383\n      swap1\n      tag_384\n      jump\t// in\n    tag_383:\n      swap1\n      pop\n        /* \"contracts/AmeComponents/VibeComment/Strings.sol\":1742:1874  for (uint256 i = 2 * length + 1; i > 1; --i) {... */\n      jump(tag_374)\n    tag_375:\n      pop\n        /* \"contracts/AmeComponents/VibeComment/Strings.sol\":1900:1901  0 */\n      0x00\n        /* \"contracts/AmeComponents/VibeComment/Strings.sol\":1891:1896  value */\n      dup5\n        /* \"contracts/AmeComponents/VibeComment/Strings.sol\":1891:1901  value == 0 */\n      eq\n        /* \"contracts/AmeComponents/VibeComment/Strings.sol\":1883:1938  require(value == 0, \"Strings: hex length insufficient\") */\n      tag_385\n      jumpi\n      mload(0x40)\n      0x08c379a000000000000000000000000000000000000000000000000000000000\n      dup2\n      mstore\n      0x04\n      add\n      tag_386\n      swap1\n      tag_387\n      jump\t// in\n    tag_386:\n      mload(0x40)\n      dup1\n      swap2\n      sub\n      swap1\n      revert\n    tag_385:\n        /* \"contracts/AmeComponents/VibeComment/Strings.sol\":1962:1968  buffer */\n      dup1\n        /* \"contracts/AmeComponents/VibeComment/Strings.sol\":1948:1969  return string(buffer) */\n      swap2\n      pop\n      pop\n        /* \"contracts/AmeComponents/VibeComment/Strings.sol\":1535:1976  function toHexString(uint256 value, uint256 length) internal pure returns (string memory) {... */\n      swap3\n      swap2\n      pop\n      pop\n      jump\t// out\n        /* \"https://github.com/OpenZeppelin/openzeppelin-contracts/blob/release-v4.2/contracts/utils/Context.sol\":586:682  function _msgSender() internal view virtual returns (address) {... */\n    tag_236:\n        /* \"https://github.com/OpenZeppelin/openzeppelin-contracts/blob/release-v4.2/contracts/utils/Context.sol\":639:646  address */\n      0x00\n        /* \"https://github.com/OpenZeppelin/openzeppelin-contracts/blob/release-v4.2/contracts/utils/Context.sol\":665:675  msg.sender */\n      caller\n        /* \"https://github.com/OpenZeppelin/openzeppelin-contracts/blob/release-v4.2/contracts/utils/Context.sol\":658:675  return msg.sender */\n      swap1\n      pop\n        /* \"https://github.com/OpenZeppelin/openzeppelin-contracts/blob/release-v4.2/contracts/utils/Context.sol\":586:682  function _msgSender() internal view virtual returns (address) {... */\n      swap1\n      jump\t// out\n        /* \"https://github.com/OpenZeppelin/openzeppelin-contracts/blob/release-v4.2/contracts/access/Ownable.sol\":2270:2457  function _transferOwnership(address newOwner) internal virtual {... */\n    tag_243:\n        /* \"https://github.com/OpenZeppelin/openzeppelin-contracts/blob/release-v4.2/contracts/access/Ownable.sol\":2343:2359  address oldOwner */\n      0x00\n        /* \"https://github.com/OpenZeppelin/openzeppelin-contracts/blob/release-v4.2/contracts/access/Ownable.sol\":2362:2368  _owner */\n      dup1\n      0x00\n      swap1\n      sload\n      swap1\n      0x0100\n      exp\n      swap1\n      div\n      0xffffffffffffffffffffffffffffffffffffffff\n      and\n        /* \"https://github.com/OpenZeppelin/openzeppelin-contracts/blob/release-v4.2/contracts/access/Ownable.sol\":2343:2368  address oldOwner = _owner */\n      swap1\n      pop\n        /* \"https://github.com/OpenZeppelin/openzeppelin-contracts/blob/release-v4.2/contracts/access/Ownable.sol\":2387:2395  newOwner */\n      dup2\n        /* \"https://github.com/OpenZeppelin/openzeppelin-contracts/blob/release-v4.2/contracts/access/Ownable.sol\":2378:2384  _owner */\n      0x00\n      dup1\n        /* \"https://github.com/OpenZeppelin/openzeppelin-contracts/blob/release-v4.2/contracts/access/Ownable.sol\":2378:2395  _owner = newOwner */\n      0x0100\n      exp\n      dup2\n      sload\n      dup2\n      0xffffffffffffffffffffffffffffffffffffffff\n      mul\n      not\n      and\n      swap1\n      dup4\n      0xffffffffffffffffffffffffffffffffffffffff\n      and\n      mul\n      or\n      swap1\n      sstore\n      pop\n        /* \"https://github.com/OpenZeppelin/openzeppelin-contracts/blob/release-v4.2/contracts/access/Ownable.sol\":2441:2449  newOwner */\n      dup2\n        /* \"https://github.com/OpenZeppelin/openzeppelin-contracts/blob/release-v4.2/contracts/access/Ownable.sol\":2410:2450  OwnershipTransferred(oldOwner, newOwner) */\n      0xffffffffffffffffffffffffffffffffffffffff\n      and\n        /* \"https://github.com/OpenZeppelin/openzeppelin-contracts/blob/release-v4.2/contracts/access/Ownable.sol\":2431:2439  oldOwner */\n      dup2\n        /* \"https://github.com/OpenZeppelin/openzeppelin-contracts/blob/release-v4.2/contracts/access/Ownable.sol\":2410:2450  OwnershipTransferred(oldOwner, newOwner) */\n      0xffffffffffffffffffffffffffffffffffffffff\n      and\n      0x8be0079c531659141344cd1fd0a4f28419497f9722a3daafe3b4186f6b6457e0\n      mload(0x40)\n      mload(0x40)\n      dup1\n      swap2\n      sub\n      swap1\n      log3\n        /* \"https://github.com/OpenZeppelin/openzeppelin-contracts/blob/release-v4.2/contracts/access/Ownable.sol\":2333:2457  {... */\n      pop\n        /* \"https://github.com/OpenZeppelin/openzeppelin-contracts/blob/release-v4.2/contracts/access/Ownable.sol\":2270:2457  function _transferOwnership(address newOwner) internal virtual {... */\n      pop\n      jump\t// out\n        /* \"contracts/AmeComponents/VibeComment/VibeComment.sol\":7210:7428  function compareStrings(string memory _a, string memory _b)... */\n    tag_247:\n        /* \"contracts/AmeComponents/VibeComment/VibeComment.sol\":7316:7320  bool */\n      0x00\n        /* \"contracts/AmeComponents/VibeComment/VibeComment.sol\":7417:7419  _b */\n      dup2\n        /* \"contracts/AmeComponents/VibeComment/VibeComment.sol\":7400:7420  abi.encodePacked(_b) */\n      add(0x20, mload(0x40))\n      tag_391\n      swap2\n      swap1\n      tag_182\n      jump\t// in\n    tag_391:\n      mload(0x40)\n      0x20\n      dup2\n      dup4\n      sub\n      sub\n      dup2\n      mstore\n      swap1\n      0x40\n      mstore\n        /* \"contracts/AmeComponents/VibeComment/VibeComment.sol\":7390:7421  keccak256(abi.encodePacked(_b)) */\n      dup1\n      mload\n      swap1\n      0x20\n      add\n      keccak256\n        /* \"contracts/AmeComponents/VibeComment/VibeComment.sol\":7382:7384  _a */\n      dup4\n        /* \"contracts/AmeComponents/VibeComment/VibeComment.sol\":7365:7385  abi.encodePacked(_a) */\n      add(0x20, mload(0x40))\n      tag_392\n      swap2\n      swap1\n      tag_182\n      jump\t// in\n    tag_392:\n      mload(0x40)\n      0x20\n      dup2\n      dup4\n      sub\n      sub\n      dup2\n      mstore\n      swap1\n      0x40\n      mstore\n        /* \"contracts/AmeComponents/VibeComment/VibeComment.sol\":7355:7386  keccak256(abi.encodePacked(_a)) */\n      dup1\n      mload\n      swap1\n      0x20\n      add\n      keccak256\n        /* \"contracts/AmeComponents/VibeComment/VibeComment.sol\":7355:7421  keccak256(abi.encodePacked(_a)) == keccak256(abi.encodePacked(_b)) */\n      eq\n        /* \"contracts/AmeComponents/VibeComment/VibeComment.sol\":7336:7421  return... */\n      swap1\n      pop\n        /* \"contracts/AmeComponents/VibeComment/VibeComment.sol\":7210:7428  function compareStrings(string memory _a, string memory _b)... */\n      swap3\n      swap2\n      pop\n      pop\n      jump\t// out\n        /* \"#utility.yul\":7:134   */\n    tag_393:\n        /* \"#utility.yul\":87:93   */\n      0x00\n        /* \"#utility.yul\":121:126   */\n      dup2\n        /* \"#utility.yul\":115:127   */\n      mload\n        /* \"#utility.yul\":105:127   */\n      swap1\n      pop\n        /* \"#utility.yul\":7:134   */\n      swap2\n      swap1\n      pop\n      jump\t// out\n        /* \"#utility.yul\":140:322   */\n    tag_394:\n        /* \"#utility.yul\":237:248   */\n      0x00\n        /* \"#utility.yul\":271:277   */\n      dup3\n        /* \"#utility.yul\":266:269   */\n      dup3\n        /* \"#utility.yul\":259:278   */\n      mstore\n        /* \"#utility.yul\":311:315   */\n      0x20\n        /* \"#utility.yul\":306:309   */\n      dup3\n        /* \"#utility.yul\":302:316   */\n      add\n        /* \"#utility.yul\":287:316   */\n      swap1\n      pop\n        /* \"#utility.yul\":140:322   */\n      swap3\n      swap2\n      pop\n      pop\n      jump\t// out\n        /* \"#utility.yul\":328:473   */\n    tag_395:\n        /* \"#utility.yul\":408:412   */\n      0x00\n        /* \"#utility.yul\":431:434   */\n      dup2\n        /* \"#utility.yul\":423:434   */\n      swap1\n      pop\n        /* \"#utility.yul\":461:465   */\n      0x20\n        /* \"#utility.yul\":456:459   */\n      dup3\n        /* \"#utility.yul\":452:466   */\n      add\n        /* \"#utility.yul\":444:466   */\n      swap1\n      pop\n        /* \"#utility.yul\":328:473   */\n      swap2\n      swap1\n      pop\n      jump\t// out\n        /* \"#utility.yul\":479:659   */\n    tag_98:\n        /* \"#utility.yul\":527:604   */\n      0x4e487b7100000000000000000000000000000000000000000000000000000000\n        /* \"#utility.yul\":524:525   */\n      0x00\n        /* \"#utility.yul\":517:605   */\n      mstore\n        /* \"#utility.yul\":624:628   */\n      0x21\n        /* \"#utility.yul\":621:622   */\n      0x04\n        /* \"#utility.yul\":614:629   */\n      mstore\n        /* \"#utility.yul\":648:652   */\n      0x24\n        /* \"#utility.yul\":645:646   */\n      0x00\n        /* \"#utility.yul\":638:653   */\n      revert\n        /* \"#utility.yul\":665:783   */\n    tag_396:\n        /* \"#utility.yul\":751:752   */\n      0x04\n        /* \"#utility.yul\":744:749   */\n      dup2\n        /* \"#utility.yul\":741:753   */\n      lt\n        /* \"#utility.yul\":731:777   */\n      tag_496\n      jumpi\n        /* \"#utility.yul\":757:775   */\n      tag_497\n      tag_98\n      jump\t// in\n    tag_497:\n        /* \"#utility.yul\":731:777   */\n    tag_496:\n        /* \"#utility.yul\":665:783   */\n      pop\n      jump\t// out\n        /* \"#utility.yul\":789:926   */\n    tag_397:\n        /* \"#utility.yul\":839:846   */\n      0x00\n        /* \"#utility.yul\":868:873   */\n      dup2\n        /* \"#utility.yul\":857:873   */\n      swap1\n      pop\n        /* \"#utility.yul\":874:920   */\n      tag_499\n        /* \"#utility.yul\":914:919   */\n      dup3\n        /* \"#utility.yul\":874:920   */\n      tag_396\n      jump\t// in\n    tag_499:\n        /* \"#utility.yul\":789:926   */\n      swap2\n      swap1\n      pop\n      jump\t// out\n        /* \"#utility.yul\":932:1069   */\n    tag_398:\n        /* \"#utility.yul\":993:1002   */\n      0x00\n        /* \"#utility.yul\":1026:1063   */\n      tag_501\n        /* \"#utility.yul\":1057:1062   */\n      dup3\n        /* \"#utility.yul\":1026:1063   */\n      tag_397\n      jump\t// in\n    tag_501:\n        /* \"#utility.yul\":1013:1063   */\n      swap1\n      pop\n        /* \"#utility.yul\":932:1069   */\n      swap2\n      swap1\n      pop\n      jump\t// out\n        /* \"#utility.yul\":1075:1218   */\n    tag_399:\n        /* \"#utility.yul\":1163:1211   */\n      tag_503\n        /* \"#utility.yul\":1205:1210   */\n      dup2\n        /* \"#utility.yul\":1163:1211   */\n      tag_398\n      jump\t// in\n    tag_503:\n        /* \"#utility.yul\":1158:1161   */\n      dup3\n        /* \"#utility.yul\":1151:1212   */\n      mstore\n        /* \"#utility.yul\":1075:1218   */\n      pop\n      pop\n      jump\t// out\n        /* \"#utility.yul\":1224:1425   */\n    tag_400:\n        /* \"#utility.yul\":1304:1314   */\n      0x00\n        /* \"#utility.yul\":1325:1382   */\n      tag_505\n        /* \"#utility.yul\":1378:1381   */\n      dup4\n        /* \"#utility.yul\":1370:1376   */\n      dup4\n        /* \"#utility.yul\":1325:1382   */\n      tag_399\n      jump\t// in\n    tag_505:\n        /* \"#utility.yul\":1414:1418   */\n      0x20\n        /* \"#utility.yul\":1409:1412   */\n      dup4\n        /* \"#utility.yul\":1405:1419   */\n      add\n        /* \"#utility.yul\":1391:1419   */\n      swap1\n      pop\n        /* \"#utility.yul\":1224:1425   */\n      swap3\n      swap2\n      pop\n      pop\n      jump\t// out\n        /* \"#utility.yul\":1431:1557   */\n    tag_401:\n        /* \"#utility.yul\":1514:1518   */\n      0x00\n        /* \"#utility.yul\":1546:1550   */\n      0x20\n        /* \"#utility.yul\":1541:1544   */\n      dup3\n        /* \"#utility.yul\":1537:1551   */\n      add\n        /* \"#utility.yul\":1529:1551   */\n      swap1\n      pop\n        /* \"#utility.yul\":1431:1557   */\n      swap2\n      swap1\n      pop\n      jump\t// out\n        /* \"#utility.yul\":1611:2402   */\n    tag_402:\n        /* \"#utility.yul\":1741:1744   */\n      0x00\n        /* \"#utility.yul\":1770:1837   */\n      tag_508\n        /* \"#utility.yul\":1831:1836   */\n      dup3\n        /* \"#utility.yul\":1770:1837   */\n      tag_393\n      jump\t// in\n    tag_508:\n        /* \"#utility.yul\":1853:1937   */\n      tag_509\n        /* \"#utility.yul\":1930:1936   */\n      dup2\n        /* \"#utility.yul\":1925:1928   */\n      dup6\n        /* \"#utility.yul\":1853:1937   */\n      tag_394\n      jump\t// in\n    tag_509:\n        /* \"#utility.yul\":1846:1937   */\n      swap4\n      pop\n        /* \"#utility.yul\":1961:2030   */\n      tag_510\n        /* \"#utility.yul\":2024:2029   */\n      dup4\n        /* \"#utility.yul\":1961:2030   */\n      tag_395\n      jump\t// in\n    tag_510:\n        /* \"#utility.yul\":2053:2060   */\n      dup1\n        /* \"#utility.yul\":2084:2085   */\n      0x00\n        /* \"#utility.yul\":2069:2377   */\n    tag_511:\n        /* \"#utility.yul\":2094:2100   */\n      dup4\n        /* \"#utility.yul\":2091:2092   */\n      dup2\n        /* \"#utility.yul\":2088:2101   */\n      lt\n        /* \"#utility.yul\":2069:2377   */\n      iszero\n      tag_513\n      jumpi\n        /* \"#utility.yul\":2170:2176   */\n      dup2\n        /* \"#utility.yul\":2164:2177   */\n      mload\n        /* \"#utility.yul\":2197:2271   */\n      tag_514\n        /* \"#utility.yul\":2267:2270   */\n      dup9\n        /* \"#utility.yul\":2252:2265   */\n      dup3\n        /* \"#utility.yul\":2197:2271   */\n      tag_400\n      jump\t// in\n    tag_514:\n        /* \"#utility.yul\":2190:2271   */\n      swap8\n      pop\n        /* \"#utility.yul\":2294:2367   */\n      tag_515\n        /* \"#utility.yul\":2360:2366   */\n      dup4\n        /* \"#utility.yul\":2294:2367   */\n      tag_401\n      jump\t// in\n    tag_515:\n        /* \"#utility.yul\":2284:2367   */\n      swap3\n      pop\n        /* \"#utility.yul\":2129:2377   */\n      pop\n        /* \"#utility.yul\":2116:2117   */\n      0x01\n        /* \"#utility.yul\":2113:2114   */\n      dup2\n        /* \"#utility.yul\":2109:2118   */\n      add\n        /* \"#utility.yul\":2104:2118   */\n      swap1\n      pop\n        /* \"#utility.yul\":2069:2377   */\n      jump(tag_511)\n    tag_513:\n        /* \"#utility.yul\":2073:2087   */\n      pop\n        /* \"#utility.yul\":2393:2396   */\n      dup6\n        /* \"#utility.yul\":2386:2396   */\n      swap4\n      pop\n        /* \"#utility.yul\":1746:2402   */\n      pop\n      pop\n      pop\n        /* \"#utility.yul\":1611:2402   */\n      swap3\n      swap2\n      pop\n      pop\n      jump\t// out\n        /* \"#utility.yul\":2408:2803   */\n    tag_21:\n        /* \"#utility.yul\":2562:2566   */\n      0x00\n        /* \"#utility.yul\":2600:2602   */\n      0x20\n        /* \"#utility.yul\":2589:2598   */\n      dup3\n        /* \"#utility.yul\":2585:2603   */\n      add\n        /* \"#utility.yul\":2577:2603   */\n      swap1\n      pop\n        /* \"#utility.yul\":2649:2658   */\n      dup2\n        /* \"#utility.yul\":2643:2647   */\n      dup2\n        /* \"#utility.yul\":2639:2659   */\n      sub\n        /* \"#utility.yul\":2635:2636   */\n      0x00\n        /* \"#utility.yul\":2624:2633   */\n      dup4\n        /* \"#utility.yul\":2620:2637   */\n      add\n        /* \"#utility.yul\":2613:2660   */\n      mstore\n        /* \"#utility.yul\":2677:2796   */\n      tag_517\n        /* \"#utility.yul\":2791:2795   */\n      dup2\n        /* \"#utility.yul\":2782:2788   */\n      dup5\n        /* \"#utility.yul\":2677:2796   */\n      tag_402\n      jump\t// in\n    tag_517:\n        /* \"#utility.yul\":2669:2796   */\n      swap1\n      pop\n        /* \"#utility.yul\":2408:2803   */\n      swap3\n      swap2\n      pop\n      pop\n      jump\t// out\n        /* \"#utility.yul\":2809:2886   */\n    tag_403:\n        /* \"#utility.yul\":2846:2853   */\n      0x00\n        /* \"#utility.yul\":2875:2880   */\n      dup2\n        /* \"#utility.yul\":2864:2880   */\n      swap1\n      pop\n        /* \"#utility.yul\":2809:2886   */\n      swap2\n      swap1\n      pop\n      jump\t// out\n        /* \"#utility.yul\":2892:3010   */\n    tag_404:\n        /* \"#utility.yul\":2979:3003   */\n      tag_520\n        /* \"#utility.yul\":2997:3002   */\n      dup2\n        /* \"#utility.yul\":2979:3003   */\n      tag_403\n      jump\t// in\n    tag_520:\n        /* \"#utility.yul\":2974:2977   */\n      dup3\n        /* \"#utility.yul\":2967:3004   */\n      mstore\n        /* \"#utility.yul\":2892:3010   */\n      pop\n      pop\n      jump\t// out\n        /* \"#utility.yul\":3016:3238   */\n    tag_26:\n        /* \"#utility.yul\":3109:3113   */\n      0x00\n        /* \"#utility.yul\":3147:3149   */\n      0x20\n        /* \"#utility.yul\":3136:3145   */\n      dup3\n        /* \"#utility.yul\":3132:3150   */\n      add\n        /* \"#utility.yul\":3124:3150   */\n      swap1\n      pop\n        /* \"#utility.yul\":3160:3231   */\n      tag_522\n        /* \"#utility.yul\":3228:3229   */\n      0x00\n        /* \"#utility.yul\":3217:3226   */\n      dup4\n        /* \"#utility.yul\":3213:3230   */\n      add\n        /* \"#utility.yul\":3204:3210   */\n      dup5\n        /* \"#utility.yul\":3160:3231   */\n      tag_404\n      jump\t// in\n    tag_522:\n        /* \"#utility.yul\":3016:3238   */\n      swap3\n      swap2\n      pop\n      pop\n      jump\t// out\n        /* \"#utility.yul\":3244:3319   */\n    tag_405:\n        /* \"#utility.yul\":3277:3283   */\n      0x00\n        /* \"#utility.yul\":3310:3312   */\n      0x40\n        /* \"#utility.yul\":3304:3313   */\n      mload\n        /* \"#utility.yul\":3294:3313   */\n      swap1\n      pop\n        /* \"#utility.yul\":3244:3319   */\n      swap1\n      jump\t// out\n        /* \"#utility.yul\":3325:3442   */\n    tag_406:\n        /* \"#utility.yul\":3434:3435   */\n      0x00\n        /* \"#utility.yul\":3431:3432   */\n      dup1\n        /* \"#utility.yul\":3424:3436   */\n      revert\n        /* \"#utility.yul\":3448:3565   */\n    tag_407:\n        /* \"#utility.yul\":3557:3558   */\n      0x00\n        /* \"#utility.yul\":3554:3555   */\n      dup1\n        /* \"#utility.yul\":3547:3559   */\n      revert\n        /* \"#utility.yul\":3571:3693   */\n    tag_408:\n        /* \"#utility.yul\":3644:3668   */\n      tag_527\n        /* \"#utility.yul\":3662:3667   */\n      dup2\n        /* \"#utility.yul\":3644:3668   */\n      tag_403\n      jump\t// in\n    tag_527:\n        /* \"#utility.yul\":3637:3642   */\n      dup2\n        /* \"#utility.yul\":3634:3669   */\n      eq\n        /* \"#utility.yul\":3624:3687   */\n      tag_528\n      jumpi\n        /* \"#utility.yul\":3683:3684   */\n      0x00\n        /* \"#utility.yul\":3680:3681   */\n      dup1\n        /* \"#utility.yul\":3673:3685   */\n      revert\n        /* \"#utility.yul\":3624:3687   */\n    tag_528:\n        /* \"#utility.yul\":3571:3693   */\n      pop\n      jump\t// out\n        /* \"#utility.yul\":3699:3838   */\n    tag_409:\n        /* \"#utility.yul\":3745:3750   */\n      0x00\n        /* \"#utility.yul\":3783:3789   */\n      dup2\n        /* \"#utility.yul\":3770:3790   */\n      calldataload\n        /* \"#utility.yul\":3761:3790   */\n      swap1\n      pop\n        /* \"#utility.yul\":3799:3832   */\n      tag_530\n        /* \"#utility.yul\":3826:3831   */\n      dup2\n        /* \"#utility.yul\":3799:3832   */\n      tag_408\n      jump\t// in\n    tag_530:\n        /* \"#utility.yul\":3699:3838   */\n      swap3\n      swap2\n      pop\n      pop\n      jump\t// out\n        /* \"#utility.yul\":3844:3961   */\n    tag_410:\n        /* \"#utility.yul\":3953:3954   */\n      0x00\n        /* \"#utility.yul\":3950:3951   */\n      dup1\n        /* \"#utility.yul\":3943:3955   */\n      revert\n        /* \"#utility.yul\":3967:4084   */\n    tag_411:\n        /* \"#utility.yul\":4076:4077   */\n      0x00\n        /* \"#utility.yul\":4073:4074   */\n      dup1\n        /* \"#utility.yul\":4066:4078   */\n      revert\n        /* \"#utility.yul\":4090:4192   */\n    tag_412:\n        /* \"#utility.yul\":4131:4137   */\n      0x00\n        /* \"#utility.yul\":4182:4184   */\n      0x1f\n        /* \"#utility.yul\":4178:4185   */\n      not\n        /* \"#utility.yul\":4173:4175   */\n      0x1f\n        /* \"#utility.yul\":4166:4171   */\n      dup4\n        /* \"#utility.yul\":4162:4176   */\n      add\n        /* \"#utility.yul\":4158:4186   */\n      and\n        /* \"#utility.yul\":4148:4186   */\n      swap1\n      pop\n        /* \"#utility.yul\":4090:4192   */\n      swap2\n      swap1\n      pop\n      jump\t// out\n        /* \"#utility.yul\":4198:4378   */\n    tag_91:\n        /* \"#utility.yul\":4246:4323   */\n      0x4e487b7100000000000000000000000000000000000000000000000000000000\n        /* \"#utility.yul\":4243:4244   */\n      0x00\n        /* \"#utility.yul\":4236:4324   */\n      mstore\n        /* \"#utility.yul\":4343:4347   */\n      0x41\n        /* \"#utility.yul\":4340:4341   */\n      0x04\n        /* \"#utility.yul\":4333:4348   */\n      mstore\n        /* \"#utility.yul\":4367:4371   */\n      0x24\n        /* \"#utility.yul\":4364:4365   */\n      0x00\n        /* \"#utility.yul\":4357:4372   */\n      revert\n        /* \"#utility.yul\":4384:4665   */\n    tag_413:\n        /* \"#utility.yul\":4467:4494   */\n      tag_536\n        /* \"#utility.yul\":4489:4493   */\n      dup3\n        /* \"#utility.yul\":4467:4494   */\n      tag_412\n      jump\t// in\n    tag_536:\n        /* \"#utility.yul\":4459:4465   */\n      dup2\n        /* \"#utility.yul\":4455:4495   */\n      add\n        /* \"#utility.yul\":4597:4603   */\n      dup2\n        /* \"#utility.yul\":4585:4595   */\n      dup2\n        /* \"#utility.yul\":4582:4604   */\n      lt\n        /* \"#utility.yul\":4561:4579   */\n      0xffffffffffffffff\n        /* \"#utility.yul\":4549:4559   */\n      dup3\n        /* \"#utility.yul\":4546:4580   */\n      gt\n        /* \"#utility.yul\":4543:4605   */\n      or\n        /* \"#utility.yul\":4540:4628   */\n      iszero\n      tag_537\n      jumpi\n        /* \"#utility.yul\":4608:4626   */\n      tag_538\n      tag_91\n      jump\t// in\n    tag_538:\n        /* \"#utility.yul\":4540:4628   */\n    tag_537:\n        /* \"#utility.yul\":4648:4658   */\n      dup1\n        /* \"#utility.yul\":4644:4646   */\n      0x40\n        /* \"#utility.yul\":4637:4659   */\n      mstore\n        /* \"#utility.yul\":4427:4665   */\n      pop\n        /* \"#utility.yul\":4384:4665   */\n      pop\n      pop\n      jump\t// out\n        /* \"#utility.yul\":4671:4800   */\n    tag_414:\n        /* \"#utility.yul\":4705:4711   */\n      0x00\n        /* \"#utility.yul\":4732:4752   */\n      tag_540\n      tag_405\n      jump\t// in\n    tag_540:\n        /* \"#utility.yul\":4722:4752   */\n      swap1\n      pop\n        /* \"#utility.yul\":4761:4794   */\n      tag_541\n        /* \"#utility.yul\":4789:4793   */\n      dup3\n        /* \"#utility.yul\":4781:4787   */\n      dup3\n        /* \"#utility.yul\":4761:4794   */\n      tag_413\n      jump\t// in\n    tag_541:\n        /* \"#utility.yul\":4671:4800   */\n      swap2\n      swap1\n      pop\n      jump\t// out\n        /* \"#utility.yul\":4806:5114   */\n    tag_415:\n        /* \"#utility.yul\":4868:4872   */\n      0x00\n        /* \"#utility.yul\":4958:4976   */\n      0xffffffffffffffff\n        /* \"#utility.yul\":4950:4956   */\n      dup3\n        /* \"#utility.yul\":4947:4977   */\n      gt\n        /* \"#utility.yul\":4944:5000   */\n      iszero\n      tag_543\n      jumpi\n        /* \"#utility.yul\":4980:4998   */\n      tag_544\n      tag_91\n      jump\t// in\n    tag_544:\n        /* \"#utility.yul\":4944:5000   */\n    tag_543:\n        /* \"#utility.yul\":5018:5047   */\n      tag_545\n        /* \"#utility.yul\":5040:5046   */\n      dup3\n        /* \"#utility.yul\":5018:5047   */\n      tag_412\n      jump\t// in\n    tag_545:\n        /* \"#utility.yul\":5010:5047   */\n      swap1\n      pop\n        /* \"#utility.yul\":5102:5106   */\n      0x20\n        /* \"#utility.yul\":5096:5100   */\n      dup2\n        /* \"#utility.yul\":5092:5107   */\n      add\n        /* \"#utility.yul\":5084:5107   */\n      swap1\n      pop\n        /* \"#utility.yul\":4806:5114   */\n      swap2\n      swap1\n      pop\n      jump\t// out\n        /* \"#utility.yul\":5120:5266   */\n    tag_416:\n        /* \"#utility.yul\":5217:5223   */\n      dup3\n        /* \"#utility.yul\":5212:5215   */\n      dup2\n        /* \"#utility.yul\":5207:5210   */\n      dup4\n        /* \"#utility.yul\":5194:5224   */\n      calldatacopy\n        /* \"#utility.yul\":5258:5259   */\n      0x00\n        /* \"#utility.yul\":5249:5255   */\n      dup4\n        /* \"#utility.yul\":5244:5247   */\n      dup4\n        /* \"#utility.yul\":5240:5256   */\n      add\n        /* \"#utility.yul\":5233:5260   */\n      mstore\n        /* \"#utility.yul\":5120:5266   */\n      pop\n      pop\n      pop\n      jump\t// out\n        /* \"#utility.yul\":5272:5697   */\n    tag_417:\n        /* \"#utility.yul\":5350:5355   */\n      0x00\n        /* \"#utility.yul\":5375:5441   */\n      tag_548\n        /* \"#utility.yul\":5391:5440   */\n      tag_549\n        /* \"#utility.yul\":5433:5439   */\n      dup5\n        /* \"#utility.yul\":5391:5440   */\n      tag_415\n      jump\t// in\n    tag_549:\n        /* \"#utility.yul\":5375:5441   */\n      tag_414\n      jump\t// in\n    tag_548:\n        /* \"#utility.yul\":5366:5441   */\n      swap1\n      pop\n        /* \"#utility.yul\":5464:5470   */\n      dup3\n        /* \"#utility.yul\":5457:5462   */\n      dup2\n        /* \"#utility.yul\":5450:5471   */\n      mstore\n        /* \"#utility.yul\":5502:5506   */\n      0x20\n        /* \"#utility.yul\":5495:5500   */\n      dup2\n        /* \"#utility.yul\":5491:5507   */\n      add\n        /* \"#utility.yul\":5540:5543   */\n      dup5\n        /* \"#utility.yul\":5531:5537   */\n      dup5\n        /* \"#utility.yul\":5526:5529   */\n      dup5\n        /* \"#utility.yul\":5522:5538   */\n      add\n        /* \"#utility.yul\":5519:5544   */\n      gt\n        /* \"#utility.yul\":5516:5628   */\n      iszero\n      tag_550\n      jumpi\n        /* \"#utility.yul\":5547:5626   */\n      tag_551\n      tag_411\n      jump\t// in\n    tag_551:\n        /* \"#utility.yul\":5516:5628   */\n    tag_550:\n        /* \"#utility.yul\":5637:5691   */\n      tag_552\n        /* \"#utility.yul\":5684:5690   */\n      dup5\n        /* \"#utility.yul\":5679:5682   */\n      dup3\n        /* \"#utility.yul\":5674:5677   */\n      dup6\n        /* \"#utility.yul\":5637:5691   */\n      tag_416\n      jump\t// in\n    tag_552:\n        /* \"#utility.yul\":5356:5697   */\n      pop\n        /* \"#utility.yul\":5272:5697   */\n      swap4\n      swap3\n      pop\n      pop\n      pop\n      jump\t// out\n        /* \"#utility.yul\":5717:6057   */\n    tag_418:\n        /* \"#utility.yul\":5773:5778   */\n      0x00\n        /* \"#utility.yul\":5822:5825   */\n      dup3\n        /* \"#utility.yul\":5815:5819   */\n      0x1f\n        /* \"#utility.yul\":5807:5813   */\n      dup4\n        /* \"#utility.yul\":5803:5820   */\n      add\n        /* \"#utility.yul\":5799:5826   */\n      slt\n        /* \"#utility.yul\":5789:5911   */\n      tag_554\n      jumpi\n        /* \"#utility.yul\":5830:5909   */\n      tag_555\n      tag_410\n      jump\t// in\n    tag_555:\n        /* \"#utility.yul\":5789:5911   */\n    tag_554:\n        /* \"#utility.yul\":5947:5953   */\n      dup2\n        /* \"#utility.yul\":5934:5954   */\n      calldataload\n        /* \"#utility.yul\":5972:6051   */\n      tag_556\n        /* \"#utility.yul\":6047:6050   */\n      dup5\n        /* \"#utility.yul\":6039:6045   */\n      dup3\n        /* \"#utility.yul\":6032:6036   */\n      0x20\n        /* \"#utility.yul\":6024:6030   */\n      dup7\n        /* \"#utility.yul\":6020:6037   */\n      add\n        /* \"#utility.yul\":5972:6051   */\n      tag_417\n      jump\t// in\n    tag_556:\n        /* \"#utility.yul\":5963:6051   */\n      swap2\n      pop\n        /* \"#utility.yul\":5779:6057   */\n      pop\n        /* \"#utility.yul\":5717:6057   */\n      swap3\n      swap2\n      pop\n      pop\n      jump\t// out\n        /* \"#utility.yul\":6063:6189   */\n    tag_419:\n        /* \"#utility.yul\":6100:6107   */\n      0x00\n        /* \"#utility.yul\":6140:6182   */\n      0xffffffffffffffffffffffffffffffffffffffff\n        /* \"#utility.yul\":6133:6138   */\n      dup3\n        /* \"#utility.yul\":6129:6183   */\n      and\n        /* \"#utility.yul\":6118:6183   */\n      swap1\n      pop\n        /* \"#utility.yul\":6063:6189   */\n      swap2\n      swap1\n      pop\n      jump\t// out\n        /* \"#utility.yul\":6195:6291   */\n    tag_420:\n        /* \"#utility.yul\":6232:6239   */\n      0x00\n        /* \"#utility.yul\":6261:6285   */\n      tag_559\n        /* \"#utility.yul\":6279:6284   */\n      dup3\n        /* \"#utility.yul\":6261:6285   */\n      tag_419\n      jump\t// in\n    tag_559:\n        /* \"#utility.yul\":6250:6285   */\n      swap1\n      pop\n        /* \"#utility.yul\":6195:6291   */\n      swap2\n      swap1\n      pop\n      jump\t// out\n        /* \"#utility.yul\":6297:6419   */\n    tag_421:\n        /* \"#utility.yul\":6370:6394   */\n      tag_561\n        /* \"#utility.yul\":6388:6393   */\n      dup2\n        /* \"#utility.yul\":6370:6394   */\n      tag_420\n      jump\t// in\n    tag_561:\n        /* \"#utility.yul\":6363:6368   */\n      dup2\n        /* \"#utility.yul\":6360:6395   */\n      eq\n        /* \"#utility.yul\":6350:6413   */\n      tag_562\n      jumpi\n        /* \"#utility.yul\":6409:6410   */\n      0x00\n        /* \"#utility.yul\":6406:6407   */\n      dup1\n        /* \"#utility.yul\":6399:6411   */\n      revert\n        /* \"#utility.yul\":6350:6413   */\n    tag_562:\n        /* \"#utility.yul\":6297:6419   */\n      pop\n      jump\t// out\n        /* \"#utility.yul\":6425:6564   */\n    tag_422:\n        /* \"#utility.yul\":6471:6476   */\n      0x00\n        /* \"#utility.yul\":6509:6515   */\n      dup2\n        /* \"#utility.yul\":6496:6516   */\n      calldataload\n        /* \"#utility.yul\":6487:6516   */\n      swap1\n      pop\n        /* \"#utility.yul\":6525:6558   */\n      tag_564\n        /* \"#utility.yul\":6552:6557   */\n      dup2\n        /* \"#utility.yul\":6525:6558   */\n      tag_421\n      jump\t// in\n    tag_564:\n        /* \"#utility.yul\":6425:6564   */\n      swap3\n      swap2\n      pop\n      pop\n      jump\t// out\n        /* \"#utility.yul\":6570:7841   */\n    tag_30:\n        /* \"#utility.yul\":6685:6691   */\n      0x00\n        /* \"#utility.yul\":6693:6699   */\n      dup1\n        /* \"#utility.yul\":6701:6707   */\n      0x00\n        /* \"#utility.yul\":6709:6715   */\n      dup1\n        /* \"#utility.yul\":6717:6723   */\n      0x00\n        /* \"#utility.yul\":6766:6769   */\n      0xa0\n        /* \"#utility.yul\":6754:6763   */\n      dup7\n        /* \"#utility.yul\":6745:6752   */\n      dup9\n        /* \"#utility.yul\":6741:6764   */\n      sub\n        /* \"#utility.yul\":6737:6770   */\n      slt\n        /* \"#utility.yul\":6734:6854   */\n      iszero\n      tag_566\n      jumpi\n        /* \"#utility.yul\":6773:6852   */\n      tag_567\n      tag_406\n      jump\t// in\n    tag_567:\n        /* \"#utility.yul\":6734:6854   */\n    tag_566:\n        /* \"#utility.yul\":6893:6894   */\n      0x00\n        /* \"#utility.yul\":6918:6971   */\n      tag_568\n        /* \"#utility.yul\":6963:6970   */\n      dup9\n        /* \"#utility.yul\":6954:6960   */\n      dup3\n        /* \"#utility.yul\":6943:6952   */\n      dup10\n        /* \"#utility.yul\":6939:6961   */\n      add\n        /* \"#utility.yul\":6918:6971   */\n      tag_409\n      jump\t// in\n    tag_568:\n        /* \"#utility.yul\":6908:6971   */\n      swap6\n      pop\n        /* \"#utility.yul\":6864:6981   */\n      pop\n        /* \"#utility.yul\":7020:7022   */\n      0x20\n        /* \"#utility.yul\":7046:7099   */\n      tag_569\n        /* \"#utility.yul\":7091:7098   */\n      dup9\n        /* \"#utility.yul\":7082:7088   */\n      dup3\n        /* \"#utility.yul\":7071:7080   */\n      dup10\n        /* \"#utility.yul\":7067:7089   */\n      add\n        /* \"#utility.yul\":7046:7099   */\n      tag_409\n      jump\t// in\n    tag_569:\n        /* \"#utility.yul\":7036:7099   */\n      swap5\n      pop\n        /* \"#utility.yul\":6991:7109   */\n      pop\n        /* \"#utility.yul\":7176:7178   */\n      0x40\n        /* \"#utility.yul\":7165:7174   */\n      dup7\n        /* \"#utility.yul\":7161:7179   */\n      add\n        /* \"#utility.yul\":7148:7180   */\n      calldataload\n        /* \"#utility.yul\":7207:7225   */\n      0xffffffffffffffff\n        /* \"#utility.yul\":7199:7205   */\n      dup2\n        /* \"#utility.yul\":7196:7226   */\n      gt\n        /* \"#utility.yul\":7193:7310   */\n      iszero\n      tag_570\n      jumpi\n        /* \"#utility.yul\":7229:7308   */\n      tag_571\n      tag_407\n      jump\t// in\n    tag_571:\n        /* \"#utility.yul\":7193:7310   */\n    tag_570:\n        /* \"#utility.yul\":7334:7397   */\n      tag_572\n        /* \"#utility.yul\":7389:7396   */\n      dup9\n        /* \"#utility.yul\":7380:7386   */\n      dup3\n        /* \"#utility.yul\":7369:7378   */\n      dup10\n        /* \"#utility.yul\":7365:7387   */\n      add\n        /* \"#utility.yul\":7334:7397   */\n      tag_418\n      jump\t// in\n    tag_572:\n        /* \"#utility.yul\":7324:7397   */\n      swap4\n      pop\n        /* \"#utility.yul\":7119:7407   */\n      pop\n        /* \"#utility.yul\":7474:7476   */\n      0x60\n        /* \"#utility.yul\":7463:7472   */\n      dup7\n        /* \"#utility.yul\":7459:7477   */\n      add\n        /* \"#utility.yul\":7446:7478   */\n      calldataload\n        /* \"#utility.yul\":7505:7523   */\n      0xffffffffffffffff\n        /* \"#utility.yul\":7497:7503   */\n      dup2\n        /* \"#utility.yul\":7494:7524   */\n      gt\n        /* \"#utility.yul\":7491:7608   */\n      iszero\n      tag_573\n      jumpi\n        /* \"#utility.yul\":7527:7606   */\n      tag_574\n      tag_407\n      jump\t// in\n    tag_574:\n        /* \"#utility.yul\":7491:7608   */\n    tag_573:\n        /* \"#utility.yul\":7632:7695   */\n      tag_575\n        /* \"#utility.yul\":7687:7694   */\n      dup9\n        /* \"#utility.yul\":7678:7684   */\n      dup3\n        /* \"#utility.yul\":7667:7676   */\n      dup10\n        /* \"#utility.yul\":7663:7685   */\n      add\n        /* \"#utility.yul\":7632:7695   */\n      tag_418\n      jump\t// in\n    tag_575:\n        /* \"#utility.yul\":7622:7695   */\n      swap3\n      pop\n        /* \"#utility.yul\":7417:7705   */\n      pop\n        /* \"#utility.yul\":7744:7747   */\n      0x80\n        /* \"#utility.yul\":7771:7824   */\n      tag_576\n        /* \"#utility.yul\":7816:7823   */\n      dup9\n        /* \"#utility.yul\":7807:7813   */\n      dup3\n        /* \"#utility.yul\":7796:7805   */\n      dup10\n        /* \"#utility.yul\":7792:7814   */\n      add\n        /* \"#utility.yul\":7771:7824   */\n      tag_422\n      jump\t// in\n    tag_576:\n        /* \"#utility.yul\":7761:7824   */\n      swap2\n      pop\n        /* \"#utility.yul\":7715:7834   */\n      pop\n        /* \"#utility.yul\":6570:7841   */\n      swap3\n      swap6\n      pop\n      swap3\n      swap6\n      swap1\n      swap4\n      pop\n      jump\t// out\n        /* \"#utility.yul\":7847:7946   */\n    tag_423:\n        /* \"#utility.yul\":7899:7905   */\n      0x00\n        /* \"#utility.yul\":7933:7938   */\n      dup2\n        /* \"#utility.yul\":7927:7939   */\n      mload\n        /* \"#utility.yul\":7917:7939   */\n      swap1\n      pop\n        /* \"#utility.yul\":7847:7946   */\n      swap2\n      swap1\n      pop\n      jump\t// out\n        /* \"#utility.yul\":7952:8121   */\n    tag_424:\n        /* \"#utility.yul\":8036:8047   */\n      0x00\n        /* \"#utility.yul\":8070:8076   */\n      dup3\n        /* \"#utility.yul\":8065:8068   */\n      dup3\n        /* \"#utility.yul\":8058:8077   */\n      mstore\n        /* \"#utility.yul\":8110:8114   */\n      0x20\n        /* \"#utility.yul\":8105:8108   */\n      dup3\n        /* \"#utility.yul\":8101:8115   */\n      add\n        /* \"#utility.yul\":8086:8115   */\n      swap1\n      pop\n        /* \"#utility.yul\":7952:8121   */\n      swap3\n      swap2\n      pop\n      pop\n      jump\t// out\n        /* \"#utility.yul\":8127:8373   */\n    tag_425:\n        /* \"#utility.yul\":8208:8209   */\n      0x00\n        /* \"#utility.yul\":8218:8331   */\n    tag_580:\n        /* \"#utility.yul\":8232:8238   */\n      dup4\n        /* \"#utility.yul\":8229:8230   */\n      dup2\n        /* \"#utility.yul\":8226:8239   */\n      lt\n        /* \"#utility.yul\":8218:8331   */\n      iszero\n      tag_582\n      jumpi\n        /* \"#utility.yul\":8317:8318   */\n      dup1\n        /* \"#utility.yul\":8312:8315   */\n      dup3\n        /* \"#utility.yul\":8308:8319   */\n      add\n        /* \"#utility.yul\":8302:8320   */\n      mload\n        /* \"#utility.yul\":8298:8299   */\n      dup2\n        /* \"#utility.yul\":8293:8296   */\n      dup5\n        /* \"#utility.yul\":8289:8300   */\n      add\n        /* \"#utility.yul\":8282:8321   */\n      mstore\n        /* \"#utility.yul\":8254:8256   */\n      0x20\n        /* \"#utility.yul\":8251:8252   */\n      dup2\n        /* \"#utility.yul\":8247:8257   */\n      add\n        /* \"#utility.yul\":8242:8257   */\n      swap1\n      pop\n        /* \"#utility.yul\":8218:8331   */\n      jump(tag_580)\n    tag_582:\n        /* \"#utility.yul\":8365:8366   */\n      0x00\n        /* \"#utility.yul\":8356:8362   */\n      dup5\n        /* \"#utility.yul\":8351:8354   */\n      dup5\n        /* \"#utility.yul\":8347:8363   */\n      add\n        /* \"#utility.yul\":8340:8367   */\n      mstore\n        /* \"#utility.yul\":8189:8373   */\n      pop\n        /* \"#utility.yul\":8127:8373   */\n      pop\n      pop\n      pop\n      jump\t// out\n        /* \"#utility.yul\":8379:8756   */\n    tag_426:\n        /* \"#utility.yul\":8467:8470   */\n      0x00\n        /* \"#utility.yul\":8495:8534   */\n      tag_584\n        /* \"#utility.yul\":8528:8533   */\n      dup3\n        /* \"#utility.yul\":8495:8534   */\n      tag_423\n      jump\t// in\n    tag_584:\n        /* \"#utility.yul\":8550:8621   */\n      tag_585\n        /* \"#utility.yul\":8614:8620   */\n      dup2\n        /* \"#utility.yul\":8609:8612   */\n      dup6\n        /* \"#utility.yul\":8550:8621   */\n      tag_424\n      jump\t// in\n    tag_585:\n        /* \"#utility.yul\":8543:8621   */\n      swap4\n      pop\n        /* \"#utility.yul\":8630:8695   */\n      tag_586\n        /* \"#utility.yul\":8688:8694   */\n      dup2\n        /* \"#utility.yul\":8683:8686   */\n      dup6\n        /* \"#utility.yul\":8676:8680   */\n      0x20\n        /* \"#utility.yul\":8669:8674   */\n      dup7\n        /* \"#utility.yul\":8665:8681   */\n      add\n        /* \"#utility.yul\":8630:8695   */\n      tag_425\n      jump\t// in\n    tag_586:\n        /* \"#utility.yul\":8720:8749   */\n      tag_587\n        /* \"#utility.yul\":8742:8748   */\n      dup2\n        /* \"#utility.yul\":8720:8749   */\n      tag_412\n      jump\t// in\n    tag_587:\n        /* \"#utility.yul\":8715:8718   */\n      dup5\n        /* \"#utility.yul\":8711:8750   */\n      add\n        /* \"#utility.yul\":8704:8750   */\n      swap2\n      pop\n        /* \"#utility.yul\":8471:8756   */\n      pop\n        /* \"#utility.yul\":8379:8756   */\n      swap3\n      swap2\n      pop\n      pop\n      jump\t// out\n        /* \"#utility.yul\":8762:9075   */\n    tag_33:\n        /* \"#utility.yul\":8875:8879   */\n      0x00\n        /* \"#utility.yul\":8913:8915   */\n      0x20\n        /* \"#utility.yul\":8902:8911   */\n      dup3\n        /* \"#utility.yul\":8898:8916   */\n      add\n        /* \"#utility.yul\":8890:8916   */\n      swap1\n      pop\n        /* \"#utility.yul\":8962:8971   */\n      dup2\n        /* \"#utility.yul\":8956:8960   */\n      dup2\n        /* \"#utility.yul\":8952:8972   */\n      sub\n        /* \"#utility.yul\":8948:8949   */\n      0x00\n        /* \"#utility.yul\":8937:8946   */\n      dup4\n        /* \"#utility.yul\":8933:8950   */\n      add\n        /* \"#utility.yul\":8926:8973   */\n      mstore\n        /* \"#utility.yul\":8990:9068   */\n      tag_589\n        /* \"#utility.yul\":9063:9067   */\n      dup2\n        /* \"#utility.yul\":9054:9060   */\n      dup5\n        /* \"#utility.yul\":8990:9068   */\n      tag_426\n      jump\t// in\n    tag_589:\n        /* \"#utility.yul\":8982:9068   */\n      swap1\n      pop\n        /* \"#utility.yul\":8762:9075   */\n      swap3\n      swap2\n      pop\n      pop\n      jump\t// out\n        /* \"#utility.yul\":9081:9700   */\n    tag_37:\n        /* \"#utility.yul\":9158:9164   */\n      0x00\n        /* \"#utility.yul\":9166:9172   */\n      dup1\n        /* \"#utility.yul\":9174:9180   */\n      0x00\n        /* \"#utility.yul\":9223:9225   */\n      0x60\n        /* \"#utility.yul\":9211:9220   */\n      dup5\n        /* \"#utility.yul\":9202:9209   */\n      dup7\n        /* \"#utility.yul\":9198:9221   */\n      sub\n        /* \"#utility.yul\":9194:9226   */\n      slt\n        /* \"#utility.yul\":9191:9310   */\n      iszero\n      tag_591\n      jumpi\n        /* \"#utility.yul\":9229:9308   */\n      tag_592\n      tag_406\n      jump\t// in\n    tag_592:\n        /* \"#utility.yul\":9191:9310   */\n    tag_591:\n        /* \"#utility.yul\":9349:9350   */\n      0x00\n        /* \"#utility.yul\":9374:9427   */\n      tag_593\n        /* \"#utility.yul\":9419:9426   */\n      dup7\n        /* \"#utility.yul\":9410:9416   */\n      dup3\n        /* \"#utility.yul\":9399:9408   */\n      dup8\n        /* \"#utility.yul\":9395:9417   */\n      add\n        /* \"#utility.yul\":9374:9427   */\n      tag_422\n      jump\t// in\n    tag_593:\n        /* \"#utility.yul\":9364:9427   */\n      swap4\n      pop\n        /* \"#utility.yul\":9320:9437   */\n      pop\n        /* \"#utility.yul\":9476:9478   */\n      0x20\n        /* \"#utility.yul\":9502:9555   */\n      tag_594\n        /* \"#utility.yul\":9547:9554   */\n      dup7\n        /* \"#utility.yul\":9538:9544   */\n      dup3\n        /* \"#utility.yul\":9527:9536   */\n      dup8\n        /* \"#utility.yul\":9523:9545   */\n      add\n        /* \"#utility.yul\":9502:9555   */\n      tag_409\n      jump\t// in\n    tag_594:\n        /* \"#utility.yul\":9492:9555   */\n      swap3\n      pop\n        /* \"#utility.yul\":9447:9565   */\n      pop\n        /* \"#utility.yul\":9604:9606   */\n      0x40\n        /* \"#utility.yul\":9630:9683   */\n      tag_595\n        /* \"#utility.yul\":9675:9682   */\n      dup7\n        /* \"#utility.yul\":9666:9672   */\n      dup3\n        /* \"#utility.yul\":9655:9664   */\n      dup8\n        /* \"#utility.yul\":9651:9673   */\n      add\n        /* \"#utility.yul\":9630:9683   */\n      tag_409\n      jump\t// in\n    tag_595:\n        /* \"#utility.yul\":9620:9683   */\n      swap2\n      pop\n        /* \"#utility.yul\":9575:9693   */\n      pop\n        /* \"#utility.yul\":9081:9700   */\n      swap3\n      pop\n      swap3\n      pop\n      swap3\n      jump\t// out\n        /* \"#utility.yul\":9706:9830   */\n    tag_427:\n        /* \"#utility.yul\":9783:9789   */\n      0x00\n        /* \"#utility.yul\":9817:9822   */\n      dup2\n        /* \"#utility.yul\":9811:9823   */\n      mload\n        /* \"#utility.yul\":9801:9823   */\n      swap1\n      pop\n        /* \"#utility.yul\":9706:9830   */\n      swap2\n      swap1\n      pop\n      jump\t// out\n        /* \"#utility.yul\":9836:10030   */\n    tag_428:\n        /* \"#utility.yul\":9945:9956   */\n      0x00\n        /* \"#utility.yul\":9979:9985   */\n      dup3\n        /* \"#utility.yul\":9974:9977   */\n      dup3\n        /* \"#utility.yul\":9967:9986   */\n      mstore\n        /* \"#utility.yul\":10019:10023   */\n      0x20\n        /* \"#utility.yul\":10014:10017   */\n      dup3\n        /* \"#utility.yul\":10010:10024   */\n      add\n        /* \"#utility.yul\":9995:10024   */\n      swap1\n      pop\n        /* \"#utility.yul\":9836:10030   */\n      swap3\n      swap2\n      pop\n      pop\n      jump\t// out\n        /* \"#utility.yul\":10036:10178   */\n    tag_429:\n        /* \"#utility.yul\":10113:10117   */\n      0x00\n        /* \"#utility.yul\":10136:10139   */\n      dup2\n        /* \"#utility.yul\":10128:10139   */\n      swap1\n      pop\n        /* \"#utility.yul\":10166:10170   */\n      0x20\n        /* \"#utility.yul\":10161:10164   */\n      dup3\n        /* \"#utility.yul\":10157:10171   */\n      add\n        /* \"#utility.yul\":10149:10171   */\n      swap1\n      pop\n        /* \"#utility.yul\":10036:10178   */\n      swap2\n      swap1\n      pop\n      jump\t// out\n        /* \"#utility.yul\":10184:10343   */\n    tag_430:\n        /* \"#utility.yul\":10258:10269   */\n      0x00\n        /* \"#utility.yul\":10292:10298   */\n      dup3\n        /* \"#utility.yul\":10287:10290   */\n      dup3\n        /* \"#utility.yul\":10280:10299   */\n      mstore\n        /* \"#utility.yul\":10332:10336   */\n      0x20\n        /* \"#utility.yul\":10327:10330   */\n      dup3\n        /* \"#utility.yul\":10323:10337   */\n      add\n        /* \"#utility.yul\":10308:10337   */\n      swap1\n      pop\n        /* \"#utility.yul\":10184:10343   */\n      swap3\n      swap2\n      pop\n      pop\n      jump\t// out\n        /* \"#utility.yul\":10349:10706   */\n    tag_431:\n        /* \"#utility.yul\":10427:10430   */\n      0x00\n        /* \"#utility.yul\":10455:10494   */\n      tag_601\n        /* \"#utility.yul\":10488:10493   */\n      dup3\n        /* \"#utility.yul\":10455:10494   */\n      tag_423\n      jump\t// in\n    tag_601:\n        /* \"#utility.yul\":10510:10571   */\n      tag_602\n        /* \"#utility.yul\":10564:10570   */\n      dup2\n        /* \"#utility.yul\":10559:10562   */\n      dup6\n        /* \"#utility.yul\":10510:10571   */\n      tag_430\n      jump\t// in\n    tag_602:\n        /* \"#utility.yul\":10503:10571   */\n      swap4\n      pop\n        /* \"#utility.yul\":10580:10645   */\n      tag_603\n        /* \"#utility.yul\":10638:10644   */\n      dup2\n        /* \"#utility.yul\":10633:10636   */\n      dup6\n        /* \"#utility.yul\":10626:10630   */\n      0x20\n        /* \"#utility.yul\":10619:10624   */\n      dup7\n        /* \"#utility.yul\":10615:10631   */\n      add\n        /* \"#utility.yul\":10580:10645   */\n      tag_425\n      jump\t// in\n    tag_603:\n        /* \"#utility.yul\":10670:10699   */\n      tag_604\n        /* \"#utility.yul\":10692:10698   */\n      dup2\n        /* \"#utility.yul\":10670:10699   */\n      tag_412\n      jump\t// in\n    tag_604:\n        /* \"#utility.yul\":10665:10668   */\n      dup5\n        /* \"#utility.yul\":10661:10700   */\n      add\n        /* \"#utility.yul\":10654:10700   */\n      swap2\n      pop\n        /* \"#utility.yul\":10431:10706   */\n      pop\n        /* \"#utility.yul\":10349:10706   */\n      swap3\n      swap2\n      pop\n      pop\n      jump\t// out\n        /* \"#utility.yul\":10712:10908   */\n    tag_432:\n        /* \"#utility.yul\":10801:10811   */\n      0x00\n        /* \"#utility.yul\":10836:10902   */\n      tag_606\n        /* \"#utility.yul\":10898:10901   */\n      dup4\n        /* \"#utility.yul\":10890:10896   */\n      dup4\n        /* \"#utility.yul\":10836:10902   */\n      tag_431\n      jump\t// in\n    tag_606:\n        /* \"#utility.yul\":10822:10902   */\n      swap1\n      pop\n        /* \"#utility.yul\":10712:10908   */\n      swap3\n      swap2\n      pop\n      pop\n      jump\t// out\n        /* \"#utility.yul\":10914:11037   */\n    tag_433:\n        /* \"#utility.yul\":10994:10998   */\n      0x00\n        /* \"#utility.yul\":11026:11030   */\n      0x20\n        /* \"#utility.yul\":11021:11024   */\n      dup3\n        /* \"#utility.yul\":11017:11031   */\n      add\n        /* \"#utility.yul\":11009:11031   */\n      swap1\n      pop\n        /* \"#utility.yul\":10914:11037   */\n      swap2\n      swap1\n      pop\n      jump\t// out\n        /* \"#utility.yul\":11071:12062   */\n    tag_434:\n        /* \"#utility.yul\":11210:11213   */\n      0x00\n        /* \"#utility.yul\":11239:11303   */\n      tag_609\n        /* \"#utility.yul\":11297:11302   */\n      dup3\n        /* \"#utility.yul\":11239:11303   */\n      tag_427\n      jump\t// in\n    tag_609:\n        /* \"#utility.yul\":11319:11415   */\n      tag_610\n        /* \"#utility.yul\":11408:11414   */\n      dup2\n        /* \"#utility.yul\":11403:11406   */\n      dup6\n        /* \"#utility.yul\":11319:11415   */\n      tag_428\n      jump\t// in\n    tag_610:\n        /* \"#utility.yul\":11312:11415   */\n      swap4\n      pop\n        /* \"#utility.yul\":11441:11444   */\n      dup4\n        /* \"#utility.yul\":11486:11490   */\n      0x20\n        /* \"#utility.yul\":11478:11484   */\n      dup3\n        /* \"#utility.yul\":11474:11491   */\n      mul\n        /* \"#utility.yul\":11469:11472   */\n      dup6\n        /* \"#utility.yul\":11465:11492   */\n      add\n        /* \"#utility.yul\":11516:11582   */\n      tag_611\n        /* \"#utility.yul\":11576:11581   */\n      dup6\n        /* \"#utility.yul\":11516:11582   */\n      tag_429\n      jump\t// in\n    tag_611:\n        /* \"#utility.yul\":11605:11612   */\n      dup1\n        /* \"#utility.yul\":11636:11637   */\n      0x00\n        /* \"#utility.yul\":11621:12017   */\n    tag_612:\n        /* \"#utility.yul\":11646:11652   */\n      dup6\n        /* \"#utility.yul\":11643:11644   */\n      dup2\n        /* \"#utility.yul\":11640:11653   */\n      lt\n        /* \"#utility.yul\":11621:12017   */\n      iszero\n      tag_614\n      jumpi\n        /* \"#utility.yul\":11717:11726   */\n      dup5\n        /* \"#utility.yul\":11711:11715   */\n      dup5\n        /* \"#utility.yul\":11707:11727   */\n      sub\n        /* \"#utility.yul\":11702:11705   */\n      dup10\n        /* \"#utility.yul\":11695:11728   */\n      mstore\n        /* \"#utility.yul\":11768:11774   */\n      dup2\n        /* \"#utility.yul\":11762:11775   */\n      mload\n        /* \"#utility.yul\":11796:11880   */\n      tag_615\n        /* \"#utility.yul\":11875:11879   */\n      dup6\n        /* \"#utility.yul\":11860:11873   */\n      dup3\n        /* \"#utility.yul\":11796:11880   */\n      tag_432\n      jump\t// in\n    tag_615:\n        /* \"#utility.yul\":11788:11880   */\n      swap5\n      pop\n        /* \"#utility.yul\":11903:11973   */\n      tag_616\n        /* \"#utility.yul\":11966:11972   */\n      dup4\n        /* \"#utility.yul\":11903:11973   */\n      tag_433\n      jump\t// in\n    tag_616:\n        /* \"#utility.yul\":11893:11973   */\n      swap3\n      pop\n        /* \"#utility.yul\":12002:12006   */\n      0x20\n        /* \"#utility.yul\":11997:12000   */\n      dup11\n        /* \"#utility.yul\":11993:12007   */\n      add\n        /* \"#utility.yul\":11986:12007   */\n      swap10\n      pop\n        /* \"#utility.yul\":11681:12017   */\n      pop\n        /* \"#utility.yul\":11668:11669   */\n      0x01\n        /* \"#utility.yul\":11665:11666   */\n      dup2\n        /* \"#utility.yul\":11661:11670   */\n      add\n        /* \"#utility.yul\":11656:11670   */\n      swap1\n      pop\n        /* \"#utility.yul\":11621:12017   */\n      jump(tag_612)\n    tag_614:\n        /* \"#utility.yul\":11625:11639   */\n      pop\n        /* \"#utility.yul\":12033:12037   */\n      dup3\n        /* \"#utility.yul\":12026:12037   */\n      swap8\n      pop\n        /* \"#utility.yul\":12053:12056   */\n      dup8\n        /* \"#utility.yul\":12046:12056   */\n      swap6\n      pop\n        /* \"#utility.yul\":11215:12062   */\n      pop\n      pop\n      pop\n      pop\n      pop\n        /* \"#utility.yul\":11071:12062   */\n      swap3\n      swap2\n      pop\n      pop\n      jump\t// out\n        /* \"#utility.yul\":12068:12481   */\n    tag_40:\n        /* \"#utility.yul\":12231:12235   */\n      0x00\n        /* \"#utility.yul\":12269:12271   */\n      0x20\n        /* \"#utility.yul\":12258:12267   */\n      dup3\n        /* \"#utility.yul\":12254:12272   */\n      add\n        /* \"#utility.yul\":12246:12272   */\n      swap1\n      pop\n        /* \"#utility.yul\":12318:12327   */\n      dup2\n        /* \"#utility.yul\":12312:12316   */\n      dup2\n        /* \"#utility.yul\":12308:12328   */\n      sub\n        /* \"#utility.yul\":12304:12305   */\n      0x00\n        /* \"#utility.yul\":12293:12302   */\n      dup4\n        /* \"#utility.yul\":12289:12306   */\n      add\n        /* \"#utility.yul\":12282:12329   */\n      mstore\n        /* \"#utility.yul\":12346:12474   */\n      tag_618\n        /* \"#utility.yul\":12469:12473   */\n      dup2\n        /* \"#utility.yul\":12460:12466   */\n      dup5\n        /* \"#utility.yul\":12346:12474   */\n      tag_434\n      jump\t// in\n    tag_618:\n        /* \"#utility.yul\":12338:12474   */\n      swap1\n      pop\n        /* \"#utility.yul\":12068:12481   */\n      swap3\n      swap2\n      pop\n      pop\n      jump\t// out\n        /* \"#utility.yul\":12487:12996   */\n    tag_44:\n        /* \"#utility.yul\":12556:12562   */\n      0x00\n        /* \"#utility.yul\":12605:12607   */\n      0x20\n        /* \"#utility.yul\":12593:12602   */\n      dup3\n        /* \"#utility.yul\":12584:12591   */\n      dup5\n        /* \"#utility.yul\":12580:12603   */\n      sub\n        /* \"#utility.yul\":12576:12608   */\n      slt\n        /* \"#utility.yul\":12573:12692   */\n      iszero\n      tag_620\n      jumpi\n        /* \"#utility.yul\":12611:12690   */\n      tag_621\n      tag_406\n      jump\t// in\n    tag_621:\n        /* \"#utility.yul\":12573:12692   */\n    tag_620:\n        /* \"#utility.yul\":12759:12760   */\n      0x00\n        /* \"#utility.yul\":12748:12757   */\n      dup3\n        /* \"#utility.yul\":12744:12761   */\n      add\n        /* \"#utility.yul\":12731:12762   */\n      calldataload\n        /* \"#utility.yul\":12789:12807   */\n      0xffffffffffffffff\n        /* \"#utility.yul\":12781:12787   */\n      dup2\n        /* \"#utility.yul\":12778:12808   */\n      gt\n        /* \"#utility.yul\":12775:12892   */\n      iszero\n      tag_622\n      jumpi\n        /* \"#utility.yul\":12811:12890   */\n      tag_623\n      tag_407\n      jump\t// in\n    tag_623:\n        /* \"#utility.yul\":12775:12892   */\n    tag_622:\n        /* \"#utility.yul\":12916:12979   */\n      tag_624\n        /* \"#utility.yul\":12971:12978   */\n      dup5\n        /* \"#utility.yul\":12962:12968   */\n      dup3\n        /* \"#utility.yul\":12951:12960   */\n      dup6\n        /* \"#utility.yul\":12947:12969   */\n      add\n        /* \"#utility.yul\":12916:12979   */\n      tag_418\n      jump\t// in\n    tag_624:\n        /* \"#utility.yul\":12906:12979   */\n      swap2\n      pop\n        /* \"#utility.yul\":12702:12989   */\n      pop\n        /* \"#utility.yul\":12487:12996   */\n      swap3\n      swap2\n      pop\n      pop\n      jump\t// out\n        /* \"#utility.yul\":13002:13124   */\n    tag_435:\n        /* \"#utility.yul\":13077:13083   */\n      0x00\n        /* \"#utility.yul\":13111:13116   */\n      dup2\n        /* \"#utility.yul\":13105:13117   */\n      mload\n        /* \"#utility.yul\":13095:13117   */\n      swap1\n      pop\n        /* \"#utility.yul\":13002:13124   */\n      swap2\n      swap1\n      pop\n      jump\t// out\n        /* \"#utility.yul\":13130:13270   */\n    tag_436:\n        /* \"#utility.yul\":13205:13209   */\n      0x00\n        /* \"#utility.yul\":13228:13231   */\n      dup2\n        /* \"#utility.yul\":13220:13231   */\n      swap1\n      pop\n        /* \"#utility.yul\":13258:13262   */\n      0x20\n        /* \"#utility.yul\":13253:13256   */\n      dup3\n        /* \"#utility.yul\":13249:13263   */\n      add\n        /* \"#utility.yul\":13241:13263   */\n      swap1\n      pop\n        /* \"#utility.yul\":13130:13270   */\n      swap2\n      swap1\n      pop\n      jump\t// out\n        /* \"#utility.yul\":13276:13391   */\n    tag_437:\n        /* \"#utility.yul\":13357:13360   */\n      0xc7\n        /* \"#utility.yul\":13350:13355   */\n      dup2\n        /* \"#utility.yul\":13347:13361   */\n      lt\n        /* \"#utility.yul\":13337:13385   */\n      tag_628\n      jumpi\n        /* \"#utility.yul\":13365:13383   */\n      tag_629\n      tag_98\n      jump\t// in\n    tag_629:\n        /* \"#utility.yul\":13337:13385   */\n    tag_628:\n        /* \"#utility.yul\":13276:13391   */\n      pop\n      jump\t// out\n        /* \"#utility.yul\":13397:13524   */\n    tag_438:\n        /* \"#utility.yul\":13442:13449   */\n      0x00\n        /* \"#utility.yul\":13471:13476   */\n      dup2\n        /* \"#utility.yul\":13460:13476   */\n      swap1\n      pop\n        /* \"#utility.yul\":13477:13518   */\n      tag_631\n        /* \"#utility.yul\":13512:13517   */\n      dup3\n        /* \"#utility.yul\":13477:13518   */\n      tag_437\n      jump\t// in\n    tag_631:\n        /* \"#utility.yul\":13397:13524   */\n      swap2\n      swap1\n      pop\n      jump\t// out\n        /* \"#utility.yul\":13530:13657   */\n    tag_439:\n        /* \"#utility.yul\":13586:13595   */\n      0x00\n        /* \"#utility.yul\":13619:13651   */\n      tag_633\n        /* \"#utility.yul\":13645:13650   */\n      dup3\n        /* \"#utility.yul\":13619:13651   */\n      tag_438\n      jump\t// in\n    tag_633:\n        /* \"#utility.yul\":13606:13651   */\n      swap1\n      pop\n        /* \"#utility.yul\":13530:13657   */\n      swap2\n      swap1\n      pop\n      jump\t// out\n        /* \"#utility.yul\":13663:13796   */\n    tag_440:\n        /* \"#utility.yul\":13746:13789   */\n      tag_635\n        /* \"#utility.yul\":13783:13788   */\n      dup2\n        /* \"#utility.yul\":13746:13789   */\n      tag_439\n      jump\t// in\n    tag_635:\n        /* \"#utility.yul\":13741:13744   */\n      dup3\n        /* \"#utility.yul\":13734:13790   */\n      mstore\n        /* \"#utility.yul\":13663:13796   */\n      pop\n      pop\n      jump\t// out\n        /* \"#utility.yul\":13802:13993   */\n    tag_441:\n        /* \"#utility.yul\":13877:13887   */\n      0x00\n        /* \"#utility.yul\":13898:13950   */\n      tag_637\n        /* \"#utility.yul\":13946:13949   */\n      dup4\n        /* \"#utility.yul\":13938:13944   */\n      dup4\n        /* \"#utility.yul\":13898:13950   */\n      tag_440\n      jump\t// in\n    tag_637:\n        /* \"#utility.yul\":13982:13986   */\n      0x20\n        /* \"#utility.yul\":13977:13980   */\n      dup4\n        /* \"#utility.yul\":13973:13987   */\n      add\n        /* \"#utility.yul\":13959:13987   */\n      swap1\n      pop\n        /* \"#utility.yul\":13802:13993   */\n      swap3\n      swap2\n      pop\n      pop\n      jump\t// out\n        /* \"#utility.yul\":13999:14120   */\n    tag_442:\n        /* \"#utility.yul\":14077:14081   */\n      0x00\n        /* \"#utility.yul\":14109:14113   */\n      0x20\n        /* \"#utility.yul\":14104:14107   */\n      dup3\n        /* \"#utility.yul\":14100:14114   */\n      add\n        /* \"#utility.yul\":14092:14114   */\n      swap1\n      pop\n        /* \"#utility.yul\":13999:14120   */\n      swap2\n      swap1\n      pop\n      jump\t// out\n        /* \"#utility.yul\":14162:14928   */\n    tag_443:\n        /* \"#utility.yul\":14287:14290   */\n      0x00\n        /* \"#utility.yul\":14316:14378   */\n      tag_640\n        /* \"#utility.yul\":14372:14377   */\n      dup3\n        /* \"#utility.yul\":14316:14378   */\n      tag_435\n      jump\t// in\n    tag_640:\n        /* \"#utility.yul\":14394:14478   */\n      tag_641\n        /* \"#utility.yul\":14471:14477   */\n      dup2\n        /* \"#utility.yul\":14466:14469   */\n      dup6\n        /* \"#utility.yul\":14394:14478   */\n      tag_394\n      jump\t// in\n    tag_641:\n        /* \"#utility.yul\":14387:14478   */\n      swap4\n      pop\n        /* \"#utility.yul\":14502:14566   */\n      tag_642\n        /* \"#utility.yul\":14560:14565   */\n      dup4\n        /* \"#utility.yul\":14502:14566   */\n      tag_436\n      jump\t// in\n    tag_642:\n        /* \"#utility.yul\":14589:14596   */\n      dup1\n        /* \"#utility.yul\":14620:14621   */\n      0x00\n        /* \"#utility.yul\":14605:14903   */\n    tag_643:\n        /* \"#utility.yul\":14630:14636   */\n      dup4\n        /* \"#utility.yul\":14627:14628   */\n      dup2\n        /* \"#utility.yul\":14624:14637   */\n      lt\n        /* \"#utility.yul\":14605:14903   */\n      iszero\n      tag_645\n      jumpi\n        /* \"#utility.yul\":14706:14712   */\n      dup2\n        /* \"#utility.yul\":14700:14713   */\n      mload\n        /* \"#utility.yul\":14733:14802   */\n      tag_646\n        /* \"#utility.yul\":14798:14801   */\n      dup9\n        /* \"#utility.yul\":14783:14796   */\n      dup3\n        /* \"#utility.yul\":14733:14802   */\n      tag_441\n      jump\t// in\n    tag_646:\n        /* \"#utility.yul\":14726:14802   */\n      swap8\n      pop\n        /* \"#utility.yul\":14825:14893   */\n      tag_647\n        /* \"#utility.yul\":14886:14892   */\n      dup4\n        /* \"#utility.yul\":14825:14893   */\n      tag_442\n      jump\t// in\n    tag_647:\n        /* \"#utility.yul\":14815:14893   */\n      swap3\n      pop\n        /* \"#utility.yul\":14665:14903   */\n      pop\n        /* \"#utility.yul\":14652:14653   */\n      0x01\n        /* \"#utility.yul\":14649:14650   */\n      dup2\n        /* \"#utility.yul\":14645:14654   */\n      add\n        /* \"#utility.yul\":14640:14654   */\n      swap1\n      pop\n        /* \"#utility.yul\":14605:14903   */\n      jump(tag_643)\n    tag_645:\n        /* \"#utility.yul\":14609:14623   */\n      pop\n        /* \"#utility.yul\":14919:14922   */\n      dup6\n        /* \"#utility.yul\":14912:14922   */\n      swap4\n      pop\n        /* \"#utility.yul\":14292:14928   */\n      pop\n      pop\n      pop\n        /* \"#utility.yul\":14162:14928   */\n      swap3\n      swap2\n      pop\n      pop\n      jump\t// out\n        /* \"#utility.yul\":14934:15592   */\n    tag_47:\n        /* \"#utility.yul\":15167:15171   */\n      0x00\n        /* \"#utility.yul\":15205:15207   */\n      0x40\n        /* \"#utility.yul\":15194:15203   */\n      dup3\n        /* \"#utility.yul\":15190:15208   */\n      add\n        /* \"#utility.yul\":15182:15208   */\n      swap1\n      pop\n        /* \"#utility.yul\":15254:15263   */\n      dup2\n        /* \"#utility.yul\":15248:15252   */\n      dup2\n        /* \"#utility.yul\":15244:15264   */\n      sub\n        /* \"#utility.yul\":15240:15241   */\n      0x00\n        /* \"#utility.yul\":15229:15238   */\n      dup4\n        /* \"#utility.yul\":15225:15242   */\n      add\n        /* \"#utility.yul\":15218:15265   */\n      mstore\n        /* \"#utility.yul\":15282:15396   */\n      tag_649\n        /* \"#utility.yul\":15391:15395   */\n      dup2\n        /* \"#utility.yul\":15382:15388   */\n      dup6\n        /* \"#utility.yul\":15282:15396   */\n      tag_443\n      jump\t// in\n    tag_649:\n        /* \"#utility.yul\":15274:15396   */\n      swap1\n      pop\n        /* \"#utility.yul\":15443:15452   */\n      dup2\n        /* \"#utility.yul\":15437:15441   */\n      dup2\n        /* \"#utility.yul\":15433:15453   */\n      sub\n        /* \"#utility.yul\":15428:15430   */\n      0x20\n        /* \"#utility.yul\":15417:15426   */\n      dup4\n        /* \"#utility.yul\":15413:15431   */\n      add\n        /* \"#utility.yul\":15406:15454   */\n      mstore\n        /* \"#utility.yul\":15471:15585   */\n      tag_650\n        /* \"#utility.yul\":15580:15584   */\n      dup2\n        /* \"#utility.yul\":15571:15577   */\n      dup5\n        /* \"#utility.yul\":15471:15585   */\n      tag_443\n      jump\t// in\n    tag_650:\n        /* \"#utility.yul\":15463:15585   */\n      swap1\n      pop\n        /* \"#utility.yul\":14934:15592   */\n      swap4\n      swap3\n      pop\n      pop\n      pop\n      jump\t// out\n        /* \"#utility.yul\":15598:16217   */\n    tag_51:\n        /* \"#utility.yul\":15675:15681   */\n      0x00\n        /* \"#utility.yul\":15683:15689   */\n      dup1\n        /* \"#utility.yul\":15691:15697   */\n      0x00\n        /* \"#utility.yul\":15740:15742   */\n      0x60\n        /* \"#utility.yul\":15728:15737   */\n      dup5\n        /* \"#utility.yul\":15719:15726   */\n      dup7\n        /* \"#utility.yul\":15715:15738   */\n      sub\n        /* \"#utility.yul\":15711:15743   */\n      slt\n        /* \"#utility.yul\":15708:15827   */\n      iszero\n      tag_652\n      jumpi\n        /* \"#utility.yul\":15746:15825   */\n      tag_653\n      tag_406\n      jump\t// in\n    tag_653:\n        /* \"#utility.yul\":15708:15827   */\n    tag_652:\n        /* \"#utility.yul\":15866:15867   */\n      0x00\n        /* \"#utility.yul\":15891:15944   */\n      tag_654\n        /* \"#utility.yul\":15936:15943   */\n      dup7\n        /* \"#utility.yul\":15927:15933   */\n      dup3\n        /* \"#utility.yul\":15916:15925   */\n      dup8\n        /* \"#utility.yul\":15912:15934   */\n      add\n        /* \"#utility.yul\":15891:15944   */\n      tag_409\n      jump\t// in\n    tag_654:\n        /* \"#utility.yul\":15881:15944   */\n      swap4\n      pop\n        /* \"#utility.yul\":15837:15954   */\n      pop\n        /* \"#utility.yul\":15993:15995   */\n      0x20\n        /* \"#utility.yul\":16019:16072   */\n      tag_655\n        /* \"#utility.yul\":16064:16071   */\n      dup7\n        /* \"#utility.yul\":16055:16061   */\n      dup3\n        /* \"#utility.yul\":16044:16053   */\n      dup8\n        /* \"#utility.yul\":16040:16062   */\n      add\n        /* \"#utility.yul\":16019:16072   */\n      tag_409\n      jump\t// in\n    tag_655:\n        /* \"#utility.yul\":16009:16072   */\n      swap3\n      pop\n        /* \"#utility.yul\":15964:16082   */\n      pop\n        /* \"#utility.yul\":16121:16123   */\n      0x40\n        /* \"#utility.yul\":16147:16200   */\n      tag_656\n        /* \"#utility.yul\":16192:16199   */\n      dup7\n        /* \"#utility.yul\":16183:16189   */\n      dup3\n        /* \"#utility.yul\":16172:16181   */\n      dup8\n        /* \"#utility.yul\":16168:16190   */\n      add\n        /* \"#utility.yul\":16147:16200   */\n      tag_409\n      jump\t// in\n    tag_656:\n        /* \"#utility.yul\":16137:16200   */\n      swap2\n      pop\n        /* \"#utility.yul\":16092:16210   */\n      pop\n        /* \"#utility.yul\":15598:16217   */\n      swap3\n      pop\n      swap3\n      pop\n      swap3\n      jump\t// out\n        /* \"#utility.yul\":16223:16341   */\n    tag_444:\n        /* \"#utility.yul\":16310:16334   */\n      tag_658\n        /* \"#utility.yul\":16328:16333   */\n      dup2\n        /* \"#utility.yul\":16310:16334   */\n      tag_420\n      jump\t// in\n    tag_658:\n        /* \"#utility.yul\":16305:16308   */\n      dup3\n        /* \"#utility.yul\":16298:16335   */\n      mstore\n        /* \"#utility.yul\":16223:16341   */\n      pop\n      pop\n      jump\t// out\n        /* \"#utility.yul\":16347:16569   */\n    tag_61:\n        /* \"#utility.yul\":16440:16444   */\n      0x00\n        /* \"#utility.yul\":16478:16480   */\n      0x20\n        /* \"#utility.yul\":16467:16476   */\n      dup3\n        /* \"#utility.yul\":16463:16481   */\n      add\n        /* \"#utility.yul\":16455:16481   */\n      swap1\n      pop\n        /* \"#utility.yul\":16491:16562   */\n      tag_660\n        /* \"#utility.yul\":16559:16560   */\n      0x00\n        /* \"#utility.yul\":16548:16557   */\n      dup4\n        /* \"#utility.yul\":16544:16561   */\n      add\n        /* \"#utility.yul\":16535:16541   */\n      dup5\n        /* \"#utility.yul\":16491:16562   */\n      tag_444\n      jump\t// in\n    tag_660:\n        /* \"#utility.yul\":16347:16569   */\n      swap3\n      swap2\n      pop\n      pop\n      jump\t// out\n        /* \"#utility.yul\":16575:16882   */\n    tag_445:\n        /* \"#utility.yul\":16636:16640   */\n      0x00\n        /* \"#utility.yul\":16726:16744   */\n      0xffffffffffffffff\n        /* \"#utility.yul\":16718:16724   */\n      dup3\n        /* \"#utility.yul\":16715:16745   */\n      gt\n        /* \"#utility.yul\":16712:16768   */\n      iszero\n      tag_662\n      jumpi\n        /* \"#utility.yul\":16748:16766   */\n      tag_663\n      tag_91\n      jump\t// in\n    tag_663:\n        /* \"#utility.yul\":16712:16768   */\n    tag_662:\n        /* \"#utility.yul\":16786:16815   */\n      tag_664\n        /* \"#utility.yul\":16808:16814   */\n      dup3\n        /* \"#utility.yul\":16786:16815   */\n      tag_412\n      jump\t// in\n    tag_664:\n        /* \"#utility.yul\":16778:16815   */\n      swap1\n      pop\n        /* \"#utility.yul\":16870:16874   */\n      0x20\n        /* \"#utility.yul\":16864:16868   */\n      dup2\n        /* \"#utility.yul\":16860:16875   */\n      add\n        /* \"#utility.yul\":16852:16875   */\n      swap1\n      pop\n        /* \"#utility.yul\":16575:16882   */\n      swap2\n      swap1\n      pop\n      jump\t// out\n        /* \"#utility.yul\":16888:17311   */\n    tag_446:\n        /* \"#utility.yul\":16965:16970   */\n      0x00\n        /* \"#utility.yul\":16990:17055   */\n      tag_666\n        /* \"#utility.yul\":17006:17054   */\n      tag_667\n        /* \"#utility.yul\":17047:17053   */\n      dup5\n        /* \"#utility.yul\":17006:17054   */\n      tag_445\n      jump\t// in\n    tag_667:\n        /* \"#utility.yul\":16990:17055   */\n      tag_414\n      jump\t// in\n    tag_666:\n        /* \"#utility.yul\":16981:17055   */\n      swap1\n      pop\n        /* \"#utility.yul\":17078:17084   */\n      dup3\n        /* \"#utility.yul\":17071:17076   */\n      dup2\n        /* \"#utility.yul\":17064:17085   */\n      mstore\n        /* \"#utility.yul\":17116:17120   */\n      0x20\n        /* \"#utility.yul\":17109:17114   */\n      dup2\n        /* \"#utility.yul\":17105:17121   */\n      add\n        /* \"#utility.yul\":17154:17157   */\n      dup5\n        /* \"#utility.yul\":17145:17151   */\n      dup5\n        /* \"#utility.yul\":17140:17143   */\n      dup5\n        /* \"#utility.yul\":17136:17152   */\n      add\n        /* \"#utility.yul\":17133:17158   */\n      gt\n        /* \"#utility.yul\":17130:17242   */\n      iszero\n      tag_668\n      jumpi\n        /* \"#utility.yul\":17161:17240   */\n      tag_669\n      tag_411\n      jump\t// in\n    tag_669:\n        /* \"#utility.yul\":17130:17242   */\n    tag_668:\n        /* \"#utility.yul\":17251:17305   */\n      tag_670\n        /* \"#utility.yul\":17298:17304   */\n      dup5\n        /* \"#utility.yul\":17293:17296   */\n      dup3\n        /* \"#utility.yul\":17288:17291   */\n      dup6\n        /* \"#utility.yul\":17251:17305   */\n      tag_416\n      jump\t// in\n    tag_670:\n        /* \"#utility.yul\":16971:17311   */\n      pop\n        /* \"#utility.yul\":16888:17311   */\n      swap4\n      swap3\n      pop\n      pop\n      pop\n      jump\t// out\n        /* \"#utility.yul\":17330:17668   */\n    tag_447:\n        /* \"#utility.yul\":17385:17390   */\n      0x00\n        /* \"#utility.yul\":17434:17437   */\n      dup3\n        /* \"#utility.yul\":17427:17431   */\n      0x1f\n        /* \"#utility.yul\":17419:17425   */\n      dup4\n        /* \"#utility.yul\":17415:17432   */\n      add\n        /* \"#utility.yul\":17411:17438   */\n      slt\n        /* \"#utility.yul\":17401:17523   */\n      tag_672\n      jumpi\n        /* \"#utility.yul\":17442:17521   */\n      tag_673\n      tag_410\n      jump\t// in\n    tag_673:\n        /* \"#utility.yul\":17401:17523   */\n    tag_672:\n        /* \"#utility.yul\":17559:17565   */\n      dup2\n        /* \"#utility.yul\":17546:17566   */\n      calldataload\n        /* \"#utility.yul\":17584:17662   */\n      tag_674\n        /* \"#utility.yul\":17658:17661   */\n      dup5\n        /* \"#utility.yul\":17650:17656   */\n      dup3\n        /* \"#utility.yul\":17643:17647   */\n      0x20\n        /* \"#utility.yul\":17635:17641   */\n      dup7\n        /* \"#utility.yul\":17631:17648   */\n      add\n        /* \"#utility.yul\":17584:17662   */\n      tag_446\n      jump\t// in\n    tag_674:\n        /* \"#utility.yul\":17575:17662   */\n      swap2\n      pop\n        /* \"#utility.yul\":17391:17668   */\n      pop\n        /* \"#utility.yul\":17330:17668   */\n      swap3\n      swap2\n      pop\n      pop\n      jump\t// out\n        /* \"#utility.yul\":17674:18506   */\n    tag_65:\n        /* \"#utility.yul\":17761:17767   */\n      0x00\n        /* \"#utility.yul\":17769:17775   */\n      dup1\n        /* \"#utility.yul\":17818:17820   */\n      0x40\n        /* \"#utility.yul\":17806:17815   */\n      dup4\n        /* \"#utility.yul\":17797:17804   */\n      dup6\n        /* \"#utility.yul\":17793:17816   */\n      sub\n        /* \"#utility.yul\":17789:17821   */\n      slt\n        /* \"#utility.yul\":17786:17905   */\n      iszero\n      tag_676\n      jumpi\n        /* \"#utility.yul\":17824:17903   */\n      tag_677\n      tag_406\n      jump\t// in\n    tag_677:\n        /* \"#utility.yul\":17786:17905   */\n    tag_676:\n        /* \"#utility.yul\":17972:17973   */\n      0x00\n        /* \"#utility.yul\":17961:17970   */\n      dup4\n        /* \"#utility.yul\":17957:17974   */\n      add\n        /* \"#utility.yul\":17944:17975   */\n      calldataload\n        /* \"#utility.yul\":18002:18020   */\n      0xffffffffffffffff\n        /* \"#utility.yul\":17994:18000   */\n      dup2\n        /* \"#utility.yul\":17991:18021   */\n      gt\n        /* \"#utility.yul\":17988:18105   */\n      iszero\n      tag_678\n      jumpi\n        /* \"#utility.yul\":18024:18103   */\n      tag_679\n      tag_407\n      jump\t// in\n    tag_679:\n        /* \"#utility.yul\":17988:18105   */\n    tag_678:\n        /* \"#utility.yul\":18129:18192   */\n      tag_680\n        /* \"#utility.yul\":18184:18191   */\n      dup6\n        /* \"#utility.yul\":18175:18181   */\n      dup3\n        /* \"#utility.yul\":18164:18173   */\n      dup7\n        /* \"#utility.yul\":18160:18182   */\n      add\n        /* \"#utility.yul\":18129:18192   */\n      tag_418\n      jump\t// in\n    tag_680:\n        /* \"#utility.yul\":18119:18192   */\n      swap3\n      pop\n        /* \"#utility.yul\":17915:18202   */\n      pop\n        /* \"#utility.yul\":18269:18271   */\n      0x20\n        /* \"#utility.yul\":18258:18267   */\n      dup4\n        /* \"#utility.yul\":18254:18272   */\n      add\n        /* \"#utility.yul\":18241:18273   */\n      calldataload\n        /* \"#utility.yul\":18300:18318   */\n      0xffffffffffffffff\n        /* \"#utility.yul\":18292:18298   */\n      dup2\n        /* \"#utility.yul\":18289:18319   */\n      gt\n        /* \"#utility.yul\":18286:18403   */\n      iszero\n      tag_681\n      jumpi\n        /* \"#utility.yul\":18322:18401   */\n      tag_682\n      tag_407\n      jump\t// in\n    tag_682:\n        /* \"#utility.yul\":18286:18403   */\n    tag_681:\n        /* \"#utility.yul\":18427:18489   */\n      tag_683\n        /* \"#utility.yul\":18481:18488   */\n      dup6\n        /* \"#utility.yul\":18472:18478   */\n      dup3\n        /* \"#utility.yul\":18461:18470   */\n      dup7\n        /* \"#utility.yul\":18457:18479   */\n      add\n        /* \"#utility.yul\":18427:18489   */\n      tag_447\n      jump\t// in\n    tag_683:\n        /* \"#utility.yul\":18417:18489   */\n      swap2\n      pop\n        /* \"#utility.yul\":18212:18499   */\n      pop\n        /* \"#utility.yul\":17674:18506   */\n      swap3\n      pop\n      swap3\n      swap1\n      pop\n      jump\t// out\n        /* \"#utility.yul\":18512:18610   */\n    tag_448:\n        /* \"#utility.yul\":18563:18569   */\n      0x00\n        /* \"#utility.yul\":18597:18602   */\n      dup2\n        /* \"#utility.yul\":18591:18603   */\n      mload\n        /* \"#utility.yul\":18581:18603   */\n      swap1\n      pop\n        /* \"#utility.yul\":18512:18610   */\n      swap2\n      swap1\n      pop\n      jump\t// out\n        /* \"#utility.yul\":18616:18784   */\n    tag_449:\n        /* \"#utility.yul\":18699:18710   */\n      0x00\n        /* \"#utility.yul\":18733:18739   */\n      dup3\n        /* \"#utility.yul\":18728:18731   */\n      dup3\n        /* \"#utility.yul\":18721:18740   */\n      mstore\n        /* \"#utility.yul\":18773:18777   */\n      0x20\n        /* \"#utility.yul\":18768:18771   */\n      dup3\n        /* \"#utility.yul\":18764:18778   */\n      add\n        /* \"#utility.yul\":18749:18778   */\n      swap1\n      pop\n        /* \"#utility.yul\":18616:18784   */\n      swap3\n      swap2\n      pop\n      pop\n      jump\t// out\n        /* \"#utility.yul\":18790:19163   */\n    tag_450:\n        /* \"#utility.yul\":18876:18879   */\n      0x00\n        /* \"#utility.yul\":18904:18942   */\n      tag_687\n        /* \"#utility.yul\":18936:18941   */\n      dup3\n        /* \"#utility.yul\":18904:18942   */\n      tag_448\n      jump\t// in\n    tag_687:\n        /* \"#utility.yul\":18958:19028   */\n      tag_688\n        /* \"#utility.yul\":19021:19027   */\n      dup2\n        /* \"#utility.yul\":19016:19019   */\n      dup6\n        /* \"#utility.yul\":18958:19028   */\n      tag_449\n      jump\t// in\n    tag_688:\n        /* \"#utility.yul\":18951:19028   */\n      swap4\n      pop\n        /* \"#utility.yul\":19037:19102   */\n      tag_689\n        /* \"#utility.yul\":19095:19101   */\n      dup2\n        /* \"#utility.yul\":19090:19093   */\n      dup6\n        /* \"#utility.yul\":19083:19087   */\n      0x20\n        /* \"#utility.yul\":19076:19081   */\n      dup7\n        /* \"#utility.yul\":19072:19088   */\n      add\n        /* \"#utility.yul\":19037:19102   */\n      tag_425\n      jump\t// in\n    tag_689:\n        /* \"#utility.yul\":19127:19156   */\n      tag_690\n        /* \"#utility.yul\":19149:19155   */\n      dup2\n        /* \"#utility.yul\":19127:19156   */\n      tag_412\n      jump\t// in\n    tag_690:\n        /* \"#utility.yul\":19122:19125   */\n      dup5\n        /* \"#utility.yul\":19118:19157   */\n      add\n        /* \"#utility.yul\":19111:19157   */\n      swap2\n      pop\n        /* \"#utility.yul\":18880:19163   */\n      pop\n        /* \"#utility.yul\":18790:19163   */\n      swap3\n      swap2\n      pop\n      pop\n      jump\t// out\n        /* \"#utility.yul\":19169:19478   */\n    tag_68:\n        /* \"#utility.yul\":19280:19284   */\n      0x00\n        /* \"#utility.yul\":19318:19320   */\n      0x20\n        /* \"#utility.yul\":19307:19316   */\n      dup3\n        /* \"#utility.yul\":19303:19321   */\n      add\n        /* \"#utility.yul\":19295:19321   */\n      swap1\n      pop\n        /* \"#utility.yul\":19367:19376   */\n      dup2\n        /* \"#utility.yul\":19361:19365   */\n      dup2\n        /* \"#utility.yul\":19357:19377   */\n      sub\n        /* \"#utility.yul\":19353:19354   */\n      0x00\n        /* \"#utility.yul\":19342:19351   */\n      dup4\n        /* \"#utility.yul\":19338:19355   */\n      add\n        /* \"#utility.yul\":19331:19378   */\n      mstore\n        /* \"#utility.yul\":19395:19471   */\n      tag_692\n        /* \"#utility.yul\":19466:19470   */\n      dup2\n        /* \"#utility.yul\":19457:19463   */\n      dup5\n        /* \"#utility.yul\":19395:19471   */\n      tag_450\n      jump\t// in\n    tag_692:\n        /* \"#utility.yul\":19387:19471   */\n      swap1\n      pop\n        /* \"#utility.yul\":19169:19478   */\n      swap3\n      swap2\n      pop\n      pop\n      jump\t// out\n        /* \"#utility.yul\":19484:19813   */\n    tag_80:\n        /* \"#utility.yul\":19543:19549   */\n      0x00\n        /* \"#utility.yul\":19592:19594   */\n      0x20\n        /* \"#utility.yul\":19580:19589   */\n      dup3\n        /* \"#utility.yul\":19571:19578   */\n      dup5\n        /* \"#utility.yul\":19567:19590   */\n      sub\n        /* \"#utility.yul\":19563:19595   */\n      slt\n        /* \"#utility.yul\":19560:19679   */\n      iszero\n      tag_694\n      jumpi\n        /* \"#utility.yul\":19598:19677   */\n      tag_695\n      tag_406\n      jump\t// in\n    tag_695:\n        /* \"#utility.yul\":19560:19679   */\n    tag_694:\n        /* \"#utility.yul\":19718:19719   */\n      0x00\n        /* \"#utility.yul\":19743:19796   */\n      tag_696\n        /* \"#utility.yul\":19788:19795   */\n      dup5\n        /* \"#utility.yul\":19779:19785   */\n      dup3\n        /* \"#utility.yul\":19768:19777   */\n      dup6\n        /* \"#utility.yul\":19764:19786   */\n      add\n        /* \"#utility.yul\":19743:19796   */\n      tag_422\n      jump\t// in\n    tag_696:\n        /* \"#utility.yul\":19733:19796   */\n      swap2\n      pop\n        /* \"#utility.yul\":19689:19806   */\n      pop\n        /* \"#utility.yul\":19484:19813   */\n      swap3\n      swap2\n      pop\n      pop\n      jump\t// out\n        /* \"#utility.yul\":19819:19931   */\n    tag_451:\n        /* \"#utility.yul\":19905:19906   */\n      0x04\n        /* \"#utility.yul\":19898:19903   */\n      dup2\n        /* \"#utility.yul\":19895:19907   */\n      lt\n        /* \"#utility.yul\":19885:19925   */\n      tag_698\n      jumpi\n        /* \"#utility.yul\":19921:19922   */\n      0x00\n        /* \"#utility.yul\":19918:19919   */\n      dup1\n        /* \"#utility.yul\":19911:19923   */\n      revert\n        /* \"#utility.yul\":19885:19925   */\n    tag_698:\n        /* \"#utility.yul\":19819:19931   */\n      pop\n      jump\t// out\n        /* \"#utility.yul\":19937:20102   */\n    tag_452:\n        /* \"#utility.yul\":19996:20001   */\n      0x00\n        /* \"#utility.yul\":20034:20040   */\n      dup2\n        /* \"#utility.yul\":20021:20041   */\n      calldataload\n        /* \"#utility.yul\":20012:20041   */\n      swap1\n      pop\n        /* \"#utility.yul\":20050:20096   */\n      tag_700\n        /* \"#utility.yul\":20090:20095   */\n      dup2\n        /* \"#utility.yul\":20050:20096   */\n      tag_451\n      jump\t// in\n    tag_700:\n        /* \"#utility.yul\":19937:20102   */\n      swap3\n      swap2\n      pop\n      pop\n      jump\t// out\n        /* \"#utility.yul\":20108:20463   */\n    tag_85:\n        /* \"#utility.yul\":20180:20186   */\n      0x00\n        /* \"#utility.yul\":20229:20231   */\n      0x20\n        /* \"#utility.yul\":20217:20226   */\n      dup3\n        /* \"#utility.yul\":20208:20215   */\n      dup5\n        /* \"#utility.yul\":20204:20227   */\n      sub\n        /* \"#utility.yul\":20200:20232   */\n      slt\n        /* \"#utility.yul\":20197:20316   */\n      iszero\n      tag_702\n      jumpi\n        /* \"#utility.yul\":20235:20314   */\n      tag_703\n      tag_406\n      jump\t// in\n    tag_703:\n        /* \"#utility.yul\":20197:20316   */\n    tag_702:\n        /* \"#utility.yul\":20355:20356   */\n      0x00\n        /* \"#utility.yul\":20380:20446   */\n      tag_704\n        /* \"#utility.yul\":20438:20445   */\n      dup5\n        /* \"#utility.yul\":20429:20435   */\n      dup3\n        /* \"#utility.yul\":20418:20427   */\n      dup6\n        /* \"#utility.yul\":20414:20436   */\n      add\n        /* \"#utility.yul\":20380:20446   */\n      tag_452\n      jump\t// in\n    tag_704:\n        /* \"#utility.yul\":20370:20446   */\n      swap2\n      pop\n        /* \"#utility.yul\":20326:20456   */\n      pop\n        /* \"#utility.yul\":20108:20463   */\n      swap3\n      swap2\n      pop\n      pop\n      jump\t// out\n        /* \"#utility.yul\":20469:20649   */\n    tag_95:\n        /* \"#utility.yul\":20517:20594   */\n      0x4e487b7100000000000000000000000000000000000000000000000000000000\n        /* \"#utility.yul\":20514:20515   */\n      0x00\n        /* \"#utility.yul\":20507:20595   */\n      mstore\n        /* \"#utility.yul\":20614:20618   */\n      0x32\n        /* \"#utility.yul\":20611:20612   */\n      0x04\n        /* \"#utility.yul\":20604:20619   */\n      mstore\n        /* \"#utility.yul\":20638:20642   */\n      0x24\n        /* \"#utility.yul\":20635:20636   */\n      0x00\n        /* \"#utility.yul\":20628:20643   */\n      revert\n        /* \"#utility.yul\":20655:20803   */\n    tag_453:\n        /* \"#utility.yul\":20757:20768   */\n      0x00\n        /* \"#utility.yul\":20794:20797   */\n      dup2\n        /* \"#utility.yul\":20779:20797   */\n      swap1\n      pop\n        /* \"#utility.yul\":20655:20803   */\n      swap3\n      swap2\n      pop\n      pop\n      jump\t// out\n        /* \"#utility.yul\":20809:21199   */\n    tag_454:\n        /* \"#utility.yul\":20915:20918   */\n      0x00\n        /* \"#utility.yul\":20943:20982   */\n      tag_708\n        /* \"#utility.yul\":20976:20981   */\n      dup3\n        /* \"#utility.yul\":20943:20982   */\n      tag_423\n      jump\t// in\n    tag_708:\n        /* \"#utility.yul\":20998:21087   */\n      tag_709\n        /* \"#utility.yul\":21080:21086   */\n      dup2\n        /* \"#utility.yul\":21075:21078   */\n      dup6\n        /* \"#utility.yul\":20998:21087   */\n      tag_453\n      jump\t// in\n    tag_709:\n        /* \"#utility.yul\":20991:21087   */\n      swap4\n      pop\n        /* \"#utility.yul\":21096:21161   */\n      tag_710\n        /* \"#utility.yul\":21154:21160   */\n      dup2\n        /* \"#utility.yul\":21149:21152   */\n      dup6\n        /* \"#utility.yul\":21142:21146   */\n      0x20\n        /* \"#utility.yul\":21135:21140   */\n      dup7\n        /* \"#utility.yul\":21131:21147   */\n      add\n        /* \"#utility.yul\":21096:21161   */\n      tag_425\n      jump\t// in\n    tag_710:\n        /* \"#utility.yul\":21186:21192   */\n      dup1\n        /* \"#utility.yul\":21181:21184   */\n      dup5\n        /* \"#utility.yul\":21177:21193   */\n      add\n        /* \"#utility.yul\":21170:21193   */\n      swap2\n      pop\n        /* \"#utility.yul\":20919:21199   */\n      pop\n        /* \"#utility.yul\":20809:21199   */\n      swap3\n      swap2\n      pop\n      pop\n      jump\t// out\n        /* \"#utility.yul\":21205:21356   */\n    tag_455:\n        /* \"#utility.yul\":21345:21348   */\n      0x2c00000000000000000000000000000000000000000000000000000000000000\n        /* \"#utility.yul\":21341:21342   */\n      0x00\n        /* \"#utility.yul\":21333:21339   */\n      dup3\n        /* \"#utility.yul\":21329:21343   */\n      add\n        /* \"#utility.yul\":21322:21349   */\n      mstore\n        /* \"#utility.yul\":21205:21356   */\n      pop\n      jump\t// out\n        /* \"#utility.yul\":21362:21762   */\n    tag_456:\n        /* \"#utility.yul\":21522:21525   */\n      0x00\n        /* \"#utility.yul\":21543:21627   */\n      tag_713\n        /* \"#utility.yul\":21625:21626   */\n      0x01\n        /* \"#utility.yul\":21620:21623   */\n      dup4\n        /* \"#utility.yul\":21543:21627   */\n      tag_453\n      jump\t// in\n    tag_713:\n        /* \"#utility.yul\":21536:21627   */\n      swap2\n      pop\n        /* \"#utility.yul\":21636:21729   */\n      tag_714\n        /* \"#utility.yul\":21725:21728   */\n      dup3\n        /* \"#utility.yul\":21636:21729   */\n      tag_455\n      jump\t// in\n    tag_714:\n        /* \"#utility.yul\":21754:21755   */\n      0x01\n        /* \"#utility.yul\":21749:21752   */\n      dup3\n        /* \"#utility.yul\":21745:21756   */\n      add\n        /* \"#utility.yul\":21738:21756   */\n      swap1\n      pop\n        /* \"#utility.yul\":21362:21762   */\n      swap2\n      swap1\n      pop\n      jump\t// out\n        /* \"#utility.yul\":21768:24173   */\n    tag_130:\n        /* \"#utility.yul\":22645:22648   */\n      0x00\n        /* \"#utility.yul\":22667:22762   */\n      tag_716\n        /* \"#utility.yul\":22758:22761   */\n      dup3\n        /* \"#utility.yul\":22749:22755   */\n      dup10\n        /* \"#utility.yul\":22667:22762   */\n      tag_454\n      jump\t// in\n    tag_716:\n        /* \"#utility.yul\":22660:22762   */\n      swap2\n      pop\n        /* \"#utility.yul\":22779:22927   */\n      tag_717\n        /* \"#utility.yul\":22923:22926   */\n      dup3\n        /* \"#utility.yul\":22779:22927   */\n      tag_456\n      jump\t// in\n    tag_717:\n        /* \"#utility.yul\":22772:22927   */\n      swap2\n      pop\n        /* \"#utility.yul\":22944:23039   */\n      tag_718\n        /* \"#utility.yul\":23035:23038   */\n      dup3\n        /* \"#utility.yul\":23026:23032   */\n      dup9\n        /* \"#utility.yul\":22944:23039   */\n      tag_454\n      jump\t// in\n    tag_718:\n        /* \"#utility.yul\":22937:23039   */\n      swap2\n      pop\n        /* \"#utility.yul\":23056:23204   */\n      tag_719\n        /* \"#utility.yul\":23200:23203   */\n      dup3\n        /* \"#utility.yul\":23056:23204   */\n      tag_456\n      jump\t// in\n    tag_719:\n        /* \"#utility.yul\":23049:23204   */\n      swap2\n      pop\n        /* \"#utility.yul\":23221:23316   */\n      tag_720\n        /* \"#utility.yul\":23312:23315   */\n      dup3\n        /* \"#utility.yul\":23303:23309   */\n      dup8\n        /* \"#utility.yul\":23221:23316   */\n      tag_454\n      jump\t// in\n    tag_720:\n        /* \"#utility.yul\":23214:23316   */\n      swap2\n      pop\n        /* \"#utility.yul\":23333:23481   */\n      tag_721\n        /* \"#utility.yul\":23477:23480   */\n      dup3\n        /* \"#utility.yul\":23333:23481   */\n      tag_456\n      jump\t// in\n    tag_721:\n        /* \"#utility.yul\":23326:23481   */\n      swap2\n      pop\n        /* \"#utility.yul\":23498:23593   */\n      tag_722\n        /* \"#utility.yul\":23589:23592   */\n      dup3\n        /* \"#utility.yul\":23580:23586   */\n      dup7\n        /* \"#utility.yul\":23498:23593   */\n      tag_454\n      jump\t// in\n    tag_722:\n        /* \"#utility.yul\":23491:23593   */\n      swap2\n      pop\n        /* \"#utility.yul\":23610:23758   */\n      tag_723\n        /* \"#utility.yul\":23754:23757   */\n      dup3\n        /* \"#utility.yul\":23610:23758   */\n      tag_456\n      jump\t// in\n    tag_723:\n        /* \"#utility.yul\":23603:23758   */\n      swap2\n      pop\n        /* \"#utility.yul\":23775:23870   */\n      tag_724\n        /* \"#utility.yul\":23866:23869   */\n      dup3\n        /* \"#utility.yul\":23857:23863   */\n      dup6\n        /* \"#utility.yul\":23775:23870   */\n      tag_454\n      jump\t// in\n    tag_724:\n        /* \"#utility.yul\":23768:23870   */\n      swap2\n      pop\n        /* \"#utility.yul\":23887:24035   */\n      tag_725\n        /* \"#utility.yul\":24031:24034   */\n      dup3\n        /* \"#utility.yul\":23887:24035   */\n      tag_456\n      jump\t// in\n    tag_725:\n        /* \"#utility.yul\":23880:24035   */\n      swap2\n      pop\n        /* \"#utility.yul\":24052:24147   */\n      tag_726\n        /* \"#utility.yul\":24143:24146   */\n      dup3\n        /* \"#utility.yul\":24134:24140   */\n      dup5\n        /* \"#utility.yul\":24052:24147   */\n      tag_454\n      jump\t// in\n    tag_726:\n        /* \"#utility.yul\":24045:24147   */\n      swap2\n      pop\n        /* \"#utility.yul\":24164:24167   */\n      dup2\n        /* \"#utility.yul\":24157:24167   */\n      swap1\n      pop\n        /* \"#utility.yul\":21768:24173   */\n      swap8\n      swap7\n      pop\n      pop\n      pop\n      pop\n      pop\n      pop\n      pop\n      jump\t// out\n        /* \"#utility.yul\":24179:24359   */\n    tag_457:\n        /* \"#utility.yul\":24227:24304   */\n      0x4e487b7100000000000000000000000000000000000000000000000000000000\n        /* \"#utility.yul\":24224:24225   */\n      0x00\n        /* \"#utility.yul\":24217:24305   */\n      mstore\n        /* \"#utility.yul\":24324:24328   */\n      0x11\n        /* \"#utility.yul\":24321:24322   */\n      0x04\n        /* \"#utility.yul\":24314:24329   */\n      mstore\n        /* \"#utility.yul\":24348:24352   */\n      0x24\n        /* \"#utility.yul\":24345:24346   */\n      0x00\n        /* \"#utility.yul\":24338:24353   */\n      revert\n        /* \"#utility.yul\":24365:24559   */\n    tag_140:\n        /* \"#utility.yul\":24405:24409   */\n      0x00\n        /* \"#utility.yul\":24425:24445   */\n      tag_729\n        /* \"#utility.yul\":24443:24444   */\n      dup3\n        /* \"#utility.yul\":24425:24445   */\n      tag_403\n      jump\t// in\n    tag_729:\n        /* \"#utility.yul\":24420:24445   */\n      swap2\n      pop\n        /* \"#utility.yul\":24459:24479   */\n      tag_730\n        /* \"#utility.yul\":24477:24478   */\n      dup4\n        /* \"#utility.yul\":24459:24479   */\n      tag_403\n      jump\t// in\n    tag_730:\n        /* \"#utility.yul\":24454:24479   */\n      swap3\n      pop\n        /* \"#utility.yul\":24503:24504   */\n      dup3\n        /* \"#utility.yul\":24500:24501   */\n      dup3\n        /* \"#utility.yul\":24496:24505   */\n      sub\n        /* \"#utility.yul\":24488:24505   */\n      swap1\n      pop\n        /* \"#utility.yul\":24527:24528   */\n      dup2\n        /* \"#utility.yul\":24521:24525   */\n      dup2\n        /* \"#utility.yul\":24518:24529   */\n      gt\n        /* \"#utility.yul\":24515:24552   */\n      iszero\n      tag_731\n      jumpi\n        /* \"#utility.yul\":24532:24550   */\n      tag_732\n      tag_457\n      jump\t// in\n    tag_732:\n        /* \"#utility.yul\":24515:24552   */\n    tag_731:\n        /* \"#utility.yul\":24365:24559   */\n      swap3\n      swap2\n      pop\n      pop\n      jump\t// out\n        /* \"#utility.yul\":24565:24745   */\n    tag_458:\n        /* \"#utility.yul\":24613:24690   */\n      0x4e487b7100000000000000000000000000000000000000000000000000000000\n        /* \"#utility.yul\":24610:24611   */\n      0x00\n        /* \"#utility.yul\":24603:24691   */\n      mstore\n        /* \"#utility.yul\":24710:24714   */\n      0x12\n        /* \"#utility.yul\":24707:24708   */\n      0x04\n        /* \"#utility.yul\":24700:24715   */\n      mstore\n        /* \"#utility.yul\":24734:24738   */\n      0x24\n        /* \"#utility.yul\":24731:24732   */\n      0x00\n        /* \"#utility.yul\":24724:24739   */\n      revert\n        /* \"#utility.yul\":24751:24936   */\n    tag_143:\n        /* \"#utility.yul\":24791:24792   */\n      0x00\n        /* \"#utility.yul\":24808:24828   */\n      tag_735\n        /* \"#utility.yul\":24826:24827   */\n      dup3\n        /* \"#utility.yul\":24808:24828   */\n      tag_403\n      jump\t// in\n    tag_735:\n        /* \"#utility.yul\":24803:24828   */\n      swap2\n      pop\n        /* \"#utility.yul\":24842:24862   */\n      tag_736\n        /* \"#utility.yul\":24860:24861   */\n      dup4\n        /* \"#utility.yul\":24842:24862   */\n      tag_403\n      jump\t// in\n    tag_736:\n        /* \"#utility.yul\":24837:24862   */\n      swap3\n      pop\n        /* \"#utility.yul\":24881:24882   */\n      dup3\n        /* \"#utility.yul\":24871:24906   */\n      tag_737\n      jumpi\n        /* \"#utility.yul\":24886:24904   */\n      tag_738\n      tag_458\n      jump\t// in\n    tag_738:\n        /* \"#utility.yul\":24871:24906   */\n    tag_737:\n        /* \"#utility.yul\":24928:24929   */\n      dup3\n        /* \"#utility.yul\":24925:24926   */\n      dup3\n        /* \"#utility.yul\":24921:24930   */\n      div\n        /* \"#utility.yul\":24916:24930   */\n      swap1\n      pop\n        /* \"#utility.yul\":24751:24936   */\n      swap3\n      swap2\n      pop\n      pop\n      jump\t// out\n        /* \"#utility.yul\":24942:25352   */\n    tag_152:\n        /* \"#utility.yul\":24982:24989   */\n      0x00\n        /* \"#utility.yul\":25005:25025   */\n      tag_740\n        /* \"#utility.yul\":25023:25024   */\n      dup3\n        /* \"#utility.yul\":25005:25025   */\n      tag_403\n      jump\t// in\n    tag_740:\n        /* \"#utility.yul\":25000:25025   */\n      swap2\n      pop\n        /* \"#utility.yul\":25039:25059   */\n      tag_741\n        /* \"#utility.yul\":25057:25058   */\n      dup4\n        /* \"#utility.yul\":25039:25059   */\n      tag_403\n      jump\t// in\n    tag_741:\n        /* \"#utility.yul\":25034:25059   */\n      swap3\n      pop\n        /* \"#utility.yul\":25094:25095   */\n      dup3\n        /* \"#utility.yul\":25091:25092   */\n      dup3\n        /* \"#utility.yul\":25087:25096   */\n      mul\n        /* \"#utility.yul\":25116:25146   */\n      tag_742\n        /* \"#utility.yul\":25134:25145   */\n      dup2\n        /* \"#utility.yul\":25116:25146   */\n      tag_403\n      jump\t// in\n    tag_742:\n        /* \"#utility.yul\":25105:25146   */\n      swap2\n      pop\n        /* \"#utility.yul\":25295:25296   */\n      dup3\n        /* \"#utility.yul\":25286:25293   */\n      dup3\n        /* \"#utility.yul\":25282:25297   */\n      div\n        /* \"#utility.yul\":25279:25280   */\n      dup5\n        /* \"#utility.yul\":25276:25298   */\n      eq\n        /* \"#utility.yul\":25256:25257   */\n      dup4\n        /* \"#utility.yul\":25249:25258   */\n      iszero\n        /* \"#utility.yul\":25229:25312   */\n      or\n        /* \"#utility.yul\":25206:25345   */\n      tag_743\n      jumpi\n        /* \"#utility.yul\":25325:25343   */\n      tag_744\n      tag_457\n      jump\t// in\n    tag_744:\n        /* \"#utility.yul\":25206:25345   */\n    tag_743:\n        /* \"#utility.yul\":24990:25352   */\n      pop\n        /* \"#utility.yul\":24942:25352   */\n      swap3\n      swap2\n      pop\n      pop\n      jump\t// out\n        /* \"#utility.yul\":25358:25549   */\n    tag_157:\n        /* \"#utility.yul\":25398:25401   */\n      0x00\n        /* \"#utility.yul\":25417:25437   */\n      tag_746\n        /* \"#utility.yul\":25435:25436   */\n      dup3\n        /* \"#utility.yul\":25417:25437   */\n      tag_403\n      jump\t// in\n    tag_746:\n        /* \"#utility.yul\":25412:25437   */\n      swap2\n      pop\n        /* \"#utility.yul\":25451:25471   */\n      tag_747\n        /* \"#utility.yul\":25469:25470   */\n      dup4\n        /* \"#utility.yul\":25451:25471   */\n      tag_403\n      jump\t// in\n    tag_747:\n        /* \"#utility.yul\":25446:25471   */\n      swap3\n      pop\n        /* \"#utility.yul\":25494:25495   */\n      dup3\n        /* \"#utility.yul\":25491:25492   */\n      dup3\n        /* \"#utility.yul\":25487:25496   */\n      add\n        /* \"#utility.yul\":25480:25496   */\n      swap1\n      pop\n        /* \"#utility.yul\":25515:25518   */\n      dup1\n        /* \"#utility.yul\":25512:25513   */\n      dup3\n        /* \"#utility.yul\":25509:25519   */\n      gt\n        /* \"#utility.yul\":25506:25542   */\n      iszero\n      tag_748\n      jumpi\n        /* \"#utility.yul\":25522:25540   */\n      tag_749\n      tag_457\n      jump\t// in\n    tag_749:\n        /* \"#utility.yul\":25506:25542   */\n    tag_748:\n        /* \"#utility.yul\":25358:25549   */\n      swap3\n      swap2\n      pop\n      pop\n      jump\t// out\n        /* \"#utility.yul\":25555:25735   */\n    tag_459:\n        /* \"#utility.yul\":25603:25680   */\n      0x4e487b7100000000000000000000000000000000000000000000000000000000\n        /* \"#utility.yul\":25600:25601   */\n      0x00\n        /* \"#utility.yul\":25593:25681   */\n      mstore\n        /* \"#utility.yul\":25700:25704   */\n      0x22\n        /* \"#utility.yul\":25697:25698   */\n      0x04\n        /* \"#utility.yul\":25690:25705   */\n      mstore\n        /* \"#utility.yul\":25724:25728   */\n      0x24\n        /* \"#utility.yul\":25721:25722   */\n      0x00\n        /* \"#utility.yul\":25714:25729   */\n      revert\n        /* \"#utility.yul\":25741:26061   */\n    tag_169:\n        /* \"#utility.yul\":25785:25791   */\n      0x00\n        /* \"#utility.yul\":25822:25823   */\n      0x02\n        /* \"#utility.yul\":25816:25820   */\n      dup3\n        /* \"#utility.yul\":25812:25824   */\n      div\n        /* \"#utility.yul\":25802:25824   */\n      swap1\n      pop\n        /* \"#utility.yul\":25869:25870   */\n      0x01\n        /* \"#utility.yul\":25863:25867   */\n      dup3\n        /* \"#utility.yul\":25859:25871   */\n      and\n        /* \"#utility.yul\":25890:25908   */\n      dup1\n        /* \"#utility.yul\":25880:25961   */\n      tag_752\n      jumpi\n        /* \"#utility.yul\":25946:25950   */\n      0x7f\n        /* \"#utility.yul\":25938:25944   */\n      dup3\n        /* \"#utility.yul\":25934:25951   */\n      and\n        /* \"#utility.yul\":25924:25951   */\n      swap2\n      pop\n        /* \"#utility.yul\":25880:25961   */\n    tag_752:\n        /* \"#utility.yul\":26008:26010   */\n      0x20\n        /* \"#utility.yul\":26000:26006   */\n      dup3\n        /* \"#utility.yul\":25997:26011   */\n      lt\n        /* \"#utility.yul\":25977:25995   */\n      dup2\n        /* \"#utility.yul\":25974:26012   */\n      sub\n        /* \"#utility.yul\":25971:26055   */\n      tag_753\n      jumpi\n        /* \"#utility.yul\":26027:26045   */\n      tag_754\n      tag_459\n      jump\t// in\n    tag_754:\n        /* \"#utility.yul\":25971:26055   */\n    tag_753:\n        /* \"#utility.yul\":25792:26061   */\n      pop\n        /* \"#utility.yul\":25741:26061   */\n      swap2\n      swap1\n      pop\n      jump\t// out\n        /* \"#utility.yul\":26067:26300   */\n    tag_177:\n        /* \"#utility.yul\":26106:26109   */\n      0x00\n        /* \"#utility.yul\":26129:26153   */\n      tag_756\n        /* \"#utility.yul\":26147:26152   */\n      dup3\n        /* \"#utility.yul\":26129:26153   */\n      tag_403\n      jump\t// in\n    tag_756:\n        /* \"#utility.yul\":26120:26153   */\n      swap2\n      pop\n        /* \"#utility.yul\":26175:26241   */\n      0xffffffffffffffffffffffffffffffffffffffffffffffffffffffffffffffff\n        /* \"#utility.yul\":26168:26173   */\n      dup3\n        /* \"#utility.yul\":26165:26242   */\n      sub\n        /* \"#utility.yul\":26162:26265   */\n      tag_757\n      jumpi\n        /* \"#utility.yul\":26245:26263   */\n      tag_758\n      tag_457\n      jump\t// in\n    tag_758:\n        /* \"#utility.yul\":26162:26265   */\n    tag_757:\n        /* \"#utility.yul\":26292:26293   */\n      0x01\n        /* \"#utility.yul\":26285:26290   */\n      dup3\n        /* \"#utility.yul\":26281:26294   */\n      add\n        /* \"#utility.yul\":26274:26294   */\n      swap1\n      pop\n        /* \"#utility.yul\":26067:26300   */\n      swap2\n      swap1\n      pop\n      jump\t// out\n        /* \"#utility.yul\":26306:26382   */\n    tag_460:\n        /* \"#utility.yul\":26342:26349   */\n      0x00\n        /* \"#utility.yul\":26371:26376   */\n      dup2\n        /* \"#utility.yul\":26360:26376   */\n      swap1\n      pop\n        /* \"#utility.yul\":26306:26382   */\n      swap2\n      swap1\n      pop\n      jump\t// out\n        /* \"#utility.yul\":26388:26619   */\n    tag_179:\n        /* \"#utility.yul\":26426:26429   */\n      0x00\n        /* \"#utility.yul\":26449:26472   */\n      tag_761\n        /* \"#utility.yul\":26466:26471   */\n      dup3\n        /* \"#utility.yul\":26449:26472   */\n      tag_460\n      jump\t// in\n    tag_761:\n        /* \"#utility.yul\":26440:26472   */\n      swap2\n      pop\n        /* \"#utility.yul\":26494:26560   */\n      0x8000000000000000000000000000000000000000000000000000000000000000\n        /* \"#utility.yul\":26487:26492   */\n      dup3\n        /* \"#utility.yul\":26484:26561   */\n      sub\n        /* \"#utility.yul\":26481:26584   */\n      tag_762\n      jumpi\n        /* \"#utility.yul\":26564:26582   */\n      tag_763\n      tag_457\n      jump\t// in\n    tag_763:\n        /* \"#utility.yul\":26481:26584   */\n    tag_762:\n        /* \"#utility.yul\":26611:26612   */\n      0x01\n        /* \"#utility.yul\":26604:26609   */\n      dup3\n        /* \"#utility.yul\":26600:26613   */\n      sub\n        /* \"#utility.yul\":26593:26613   */\n      swap1\n      pop\n        /* \"#utility.yul\":26388:26619   */\n      swap2\n      swap1\n      pop\n      jump\t// out\n        /* \"#utility.yul\":26625:26900   */\n    tag_182:\n        /* \"#utility.yul\":26757:26760   */\n      0x00\n        /* \"#utility.yul\":26779:26874   */\n      tag_765\n        /* \"#utility.yul\":26870:26873   */\n      dup3\n        /* \"#utility.yul\":26861:26867   */\n      dup5\n        /* \"#utility.yul\":26779:26874   */\n      tag_454\n      jump\t// in\n    tag_765:\n        /* \"#utility.yul\":26772:26874   */\n      swap2\n      pop\n        /* \"#utility.yul\":26891:26894   */\n      dup2\n        /* \"#utility.yul\":26884:26894   */\n      swap1\n      pop\n        /* \"#utility.yul\":26625:26900   */\n      swap3\n      swap2\n      pop\n      pop\n      jump\t// out\n        /* \"#utility.yul\":26906:27088   */\n    tag_461:\n        /* \"#utility.yul\":27046:27080   */\n      0x4f776e61626c653a2063616c6c6572206973206e6f7420746865206f776e6572\n        /* \"#utility.yul\":27042:27043   */\n      0x00\n        /* \"#utility.yul\":27034:27040   */\n      dup3\n        /* \"#utility.yul\":27030:27044   */\n      add\n        /* \"#utility.yul\":27023:27081   */\n      mstore\n        /* \"#utility.yul\":26906:27088   */\n      pop\n      jump\t// out\n        /* \"#utility.yul\":27094:27460   */\n    tag_462:\n        /* \"#utility.yul\":27236:27239   */\n      0x00\n        /* \"#utility.yul\":27257:27324   */\n      tag_768\n        /* \"#utility.yul\":27321:27323   */\n      0x20\n        /* \"#utility.yul\":27316:27319   */\n      dup4\n        /* \"#utility.yul\":27257:27324   */\n      tag_424\n      jump\t// in\n    tag_768:\n        /* \"#utility.yul\":27250:27324   */\n      swap2\n      pop\n        /* \"#utility.yul\":27333:27426   */\n      tag_769\n        /* \"#utility.yul\":27422:27425   */\n      dup3\n        /* \"#utility.yul\":27333:27426   */\n      tag_461\n      jump\t// in\n    tag_769:\n        /* \"#utility.yul\":27451:27453   */\n      0x20\n        /* \"#utility.yul\":27446:27449   */\n      dup3\n        /* \"#utility.yul\":27442:27454   */\n      add\n        /* \"#utility.yul\":27435:27454   */\n      swap1\n      pop\n        /* \"#utility.yul\":27094:27460   */\n      swap2\n      swap1\n      pop\n      jump\t// out\n        /* \"#utility.yul\":27466:27885   */\n    tag_240:\n        /* \"#utility.yul\":27632:27636   */\n      0x00\n        /* \"#utility.yul\":27670:27672   */\n      0x20\n        /* \"#utility.yul\":27659:27668   */\n      dup3\n        /* \"#utility.yul\":27655:27673   */\n      add\n        /* \"#utility.yul\":27647:27673   */\n      swap1\n      pop\n        /* \"#utility.yul\":27719:27728   */\n      dup2\n        /* \"#utility.yul\":27713:27717   */\n      dup2\n        /* \"#utility.yul\":27709:27729   */\n      sub\n        /* \"#utility.yul\":27705:27706   */\n      0x00\n        /* \"#utility.yul\":27694:27703   */\n      dup4\n        /* \"#utility.yul\":27690:27707   */\n      add\n        /* \"#utility.yul\":27683:27730   */\n      mstore\n        /* \"#utility.yul\":27747:27878   */\n      tag_771\n        /* \"#utility.yul\":27873:27877   */\n      dup2\n        /* \"#utility.yul\":27747:27878   */\n      tag_462\n      jump\t// in\n    tag_771:\n        /* \"#utility.yul\":27739:27878   */\n      swap1\n      pop\n        /* \"#utility.yul\":27466:27885   */\n      swap2\n      swap1\n      pop\n      jump\t// out\n        /* \"#utility.yul\":27891:28034   */\n    tag_463:\n        /* \"#utility.yul\":27948:27953   */\n      0x00\n        /* \"#utility.yul\":27979:27985   */\n      dup2\n        /* \"#utility.yul\":27973:27986   */\n      mload\n        /* \"#utility.yul\":27964:27986   */\n      swap1\n      pop\n        /* \"#utility.yul\":27995:28028   */\n      tag_773\n        /* \"#utility.yul\":28022:28027   */\n      dup2\n        /* \"#utility.yul\":27995:28028   */\n      tag_408\n      jump\t// in\n    tag_773:\n        /* \"#utility.yul\":27891:28034   */\n      swap3\n      swap2\n      pop\n      pop\n      jump\t// out\n        /* \"#utility.yul\":28040:28391   */\n    tag_250:\n        /* \"#utility.yul\":28110:28116   */\n      0x00\n        /* \"#utility.yul\":28159:28161   */\n      0x20\n        /* \"#utility.yul\":28147:28156   */\n      dup3\n        /* \"#utility.yul\":28138:28145   */\n      dup5\n        /* \"#utility.yul\":28134:28157   */\n      sub\n        /* \"#utility.yul\":28130:28162   */\n      slt\n        /* \"#utility.yul\":28127:28246   */\n      iszero\n      tag_775\n      jumpi\n        /* \"#utility.yul\":28165:28244   */\n      tag_776\n      tag_406\n      jump\t// in\n    tag_776:\n        /* \"#utility.yul\":28127:28246   */\n    tag_775:\n        /* \"#utility.yul\":28285:28286   */\n      0x00\n        /* \"#utility.yul\":28310:28374   */\n      tag_777\n        /* \"#utility.yul\":28366:28373   */\n      dup5\n        /* \"#utility.yul\":28357:28363   */\n      dup3\n        /* \"#utility.yul\":28346:28355   */\n      dup6\n        /* \"#utility.yul\":28342:28364   */\n      add\n        /* \"#utility.yul\":28310:28374   */\n      tag_463\n      jump\t// in\n    tag_777:\n        /* \"#utility.yul\":28300:28374   */\n      swap2\n      pop\n        /* \"#utility.yul\":28256:28384   */\n      pop\n        /* \"#utility.yul\":28040:28391   */\n      swap3\n      swap2\n      pop\n      pop\n      jump\t// out\n        /* \"#utility.yul\":28397:29041   */\n    tag_257:\n        /* \"#utility.yul\":28594:28598   */\n      0x00\n        /* \"#utility.yul\":28632:28635   */\n      0x80\n        /* \"#utility.yul\":28621:28630   */\n      dup3\n        /* \"#utility.yul\":28617:28636   */\n      add\n        /* \"#utility.yul\":28609:28636   */\n      swap1\n      pop\n        /* \"#utility.yul\":28646:28717   */\n      tag_779\n        /* \"#utility.yul\":28714:28715   */\n      0x00\n        /* \"#utility.yul\":28703:28712   */\n      dup4\n        /* \"#utility.yul\":28699:28716   */\n      add\n        /* \"#utility.yul\":28690:28696   */\n      dup8\n        /* \"#utility.yul\":28646:28717   */\n      tag_404\n      jump\t// in\n    tag_779:\n        /* \"#utility.yul\":28727:28799   */\n      tag_780\n        /* \"#utility.yul\":28795:28797   */\n      0x20\n        /* \"#utility.yul\":28784:28793   */\n      dup4\n        /* \"#utility.yul\":28780:28798   */\n      add\n        /* \"#utility.yul\":28771:28777   */\n      dup7\n        /* \"#utility.yul\":28727:28799   */\n      tag_404\n      jump\t// in\n    tag_780:\n        /* \"#utility.yul\":28846:28855   */\n      dup2\n        /* \"#utility.yul\":28840:28844   */\n      dup2\n        /* \"#utility.yul\":28836:28856   */\n      sub\n        /* \"#utility.yul\":28831:28833   */\n      0x40\n        /* \"#utility.yul\":28820:28829   */\n      dup4\n        /* \"#utility.yul\":28816:28834   */\n      add\n        /* \"#utility.yul\":28809:28857   */\n      mstore\n        /* \"#utility.yul\":28874:28952   */\n      tag_781\n        /* \"#utility.yul\":28947:28951   */\n      dup2\n        /* \"#utility.yul\":28938:28944   */\n      dup6\n        /* \"#utility.yul\":28874:28952   */\n      tag_426\n      jump\t// in\n    tag_781:\n        /* \"#utility.yul\":28866:28952   */\n      swap1\n      pop\n        /* \"#utility.yul\":28962:29034   */\n      tag_782\n        /* \"#utility.yul\":29030:29032   */\n      0x60\n        /* \"#utility.yul\":29019:29028   */\n      dup4\n        /* \"#utility.yul\":29015:29033   */\n      add\n        /* \"#utility.yul\":29006:29012   */\n      dup5\n        /* \"#utility.yul\":28962:29034   */\n      tag_444\n      jump\t// in\n    tag_782:\n        /* \"#utility.yul\":28397:29041   */\n      swap6\n      swap5\n      pop\n      pop\n      pop\n      pop\n      pop\n      jump\t// out\n        /* \"#utility.yul\":29047:29710   */\n    tag_262:\n        /* \"#utility.yul\":29135:29141   */\n      0x00\n        /* \"#utility.yul\":29143:29149   */\n      dup1\n        /* \"#utility.yul\":29151:29157   */\n      0x00\n        /* \"#utility.yul\":29200:29202   */\n      0x60\n        /* \"#utility.yul\":29188:29197   */\n      dup5\n        /* \"#utility.yul\":29179:29186   */\n      dup7\n        /* \"#utility.yul\":29175:29198   */\n      sub\n        /* \"#utility.yul\":29171:29203   */\n      slt\n        /* \"#utility.yul\":29168:29287   */\n      iszero\n      tag_784\n      jumpi\n        /* \"#utility.yul\":29206:29285   */\n      tag_785\n      tag_406\n      jump\t// in\n    tag_785:\n        /* \"#utility.yul\":29168:29287   */\n    tag_784:\n        /* \"#utility.yul\":29326:29327   */\n      0x00\n        /* \"#utility.yul\":29351:29415   */\n      tag_786\n        /* \"#utility.yul\":29407:29414   */\n      dup7\n        /* \"#utility.yul\":29398:29404   */\n      dup3\n        /* \"#utility.yul\":29387:29396   */\n      dup8\n        /* \"#utility.yul\":29383:29405   */\n      add\n        /* \"#utility.yul\":29351:29415   */\n      tag_463\n      jump\t// in\n    tag_786:\n        /* \"#utility.yul\":29341:29415   */\n      swap4\n      pop\n        /* \"#utility.yul\":29297:29425   */\n      pop\n        /* \"#utility.yul\":29464:29466   */\n      0x20\n        /* \"#utility.yul\":29490:29554   */\n      tag_787\n        /* \"#utility.yul\":29546:29553   */\n      dup7\n        /* \"#utility.yul\":29537:29543   */\n      dup3\n        /* \"#utility.yul\":29526:29535   */\n      dup8\n        /* \"#utility.yul\":29522:29544   */\n      add\n        /* \"#utility.yul\":29490:29554   */\n      tag_463\n      jump\t// in\n    tag_787:\n        /* \"#utility.yul\":29480:29554   */\n      swap3\n      pop\n        /* \"#utility.yul\":29435:29564   */\n      pop\n        /* \"#utility.yul\":29603:29605   */\n      0x40\n        /* \"#utility.yul\":29629:29693   */\n      tag_788\n        /* \"#utility.yul\":29685:29692   */\n      dup7\n        /* \"#utility.yul\":29676:29682   */\n      dup3\n        /* \"#utility.yul\":29665:29674   */\n      dup8\n        /* \"#utility.yul\":29661:29683   */\n      add\n        /* \"#utility.yul\":29629:29693   */\n      tag_463\n      jump\t// in\n    tag_788:\n        /* \"#utility.yul\":29619:29693   */\n      swap2\n      pop\n        /* \"#utility.yul\":29574:29703   */\n      pop\n        /* \"#utility.yul\":29047:29710   */\n      swap3\n      pop\n      swap3\n      pop\n      swap3\n      jump\t// out\n        /* \"#utility.yul\":29716:29820   */\n    tag_464:\n        /* \"#utility.yul\":29761:29768   */\n      0x00\n        /* \"#utility.yul\":29790:29814   */\n      tag_790\n        /* \"#utility.yul\":29808:29813   */\n      dup3\n        /* \"#utility.yul\":29790:29814   */\n      tag_419\n      jump\t// in\n    tag_790:\n        /* \"#utility.yul\":29779:29814   */\n      swap1\n      pop\n        /* \"#utility.yul\":29716:29820   */\n      swap2\n      swap1\n      pop\n      jump\t// out\n        /* \"#utility.yul\":29826:29964   */\n    tag_465:\n        /* \"#utility.yul\":29907:29939   */\n      tag_792\n        /* \"#utility.yul\":29933:29938   */\n      dup2\n        /* \"#utility.yul\":29907:29939   */\n      tag_464\n      jump\t// in\n    tag_792:\n        /* \"#utility.yul\":29900:29905   */\n      dup2\n        /* \"#utility.yul\":29897:29940   */\n      eq\n        /* \"#utility.yul\":29887:29958   */\n      tag_793\n      jumpi\n        /* \"#utility.yul\":29954:29955   */\n      0x00\n        /* \"#utility.yul\":29951:29952   */\n      dup1\n        /* \"#utility.yul\":29944:29956   */\n      revert\n        /* \"#utility.yul\":29887:29958   */\n    tag_793:\n        /* \"#utility.yul\":29826:29964   */\n      pop\n      jump\t// out\n        /* \"#utility.yul\":29970:30129   */\n    tag_466:\n        /* \"#utility.yul\":30035:30040   */\n      0x00\n        /* \"#utility.yul\":30066:30072   */\n      dup2\n        /* \"#utility.yul\":30060:30073   */\n      mload\n        /* \"#utility.yul\":30051:30073   */\n      swap1\n      pop\n        /* \"#utility.yul\":30082:30123   */\n      tag_795\n        /* \"#utility.yul\":30117:30122   */\n      dup2\n        /* \"#utility.yul\":30082:30123   */\n      tag_465\n      jump\t// in\n    tag_795:\n        /* \"#utility.yul\":29970:30129   */\n      swap3\n      swap2\n      pop\n      pop\n      jump\t// out\n        /* \"#utility.yul\":30135:30814   */\n    tag_269:\n        /* \"#utility.yul\":30231:30237   */\n      0x00\n        /* \"#utility.yul\":30239:30245   */\n      dup1\n        /* \"#utility.yul\":30247:30253   */\n      0x00\n        /* \"#utility.yul\":30296:30298   */\n      0x60\n        /* \"#utility.yul\":30284:30293   */\n      dup5\n        /* \"#utility.yul\":30275:30282   */\n      dup7\n        /* \"#utility.yul\":30271:30294   */\n      sub\n        /* \"#utility.yul\":30267:30299   */\n      slt\n        /* \"#utility.yul\":30264:30383   */\n      iszero\n      tag_797\n      jumpi\n        /* \"#utility.yul\":30302:30381   */\n      tag_798\n      tag_406\n      jump\t// in\n    tag_798:\n        /* \"#utility.yul\":30264:30383   */\n    tag_797:\n        /* \"#utility.yul\":30422:30423   */\n      0x00\n        /* \"#utility.yul\":30447:30519   */\n      tag_799\n        /* \"#utility.yul\":30511:30518   */\n      dup7\n        /* \"#utility.yul\":30502:30508   */\n      dup3\n        /* \"#utility.yul\":30491:30500   */\n      dup8\n        /* \"#utility.yul\":30487:30509   */\n      add\n        /* \"#utility.yul\":30447:30519   */\n      tag_466\n      jump\t// in\n    tag_799:\n        /* \"#utility.yul\":30437:30519   */\n      swap4\n      pop\n        /* \"#utility.yul\":30393:30529   */\n      pop\n        /* \"#utility.yul\":30568:30570   */\n      0x20\n        /* \"#utility.yul\":30594:30658   */\n      tag_800\n        /* \"#utility.yul\":30650:30657   */\n      dup7\n        /* \"#utility.yul\":30641:30647   */\n      dup3\n        /* \"#utility.yul\":30630:30639   */\n      dup8\n        /* \"#utility.yul\":30626:30648   */\n      add\n        /* \"#utility.yul\":30594:30658   */\n      tag_463\n      jump\t// in\n    tag_800:\n        /* \"#utility.yul\":30584:30658   */\n      swap3\n      pop\n        /* \"#utility.yul\":30539:30668   */\n      pop\n        /* \"#utility.yul\":30707:30709   */\n      0x40\n        /* \"#utility.yul\":30733:30797   */\n      tag_801\n        /* \"#utility.yul\":30789:30796   */\n      dup7\n        /* \"#utility.yul\":30780:30786   */\n      dup3\n        /* \"#utility.yul\":30769:30778   */\n      dup8\n        /* \"#utility.yul\":30765:30787   */\n      add\n        /* \"#utility.yul\":30733:30797   */\n      tag_463\n      jump\t// in\n    tag_801:\n        /* \"#utility.yul\":30723:30797   */\n      swap2\n      pop\n        /* \"#utility.yul\":30678:30807   */\n      pop\n        /* \"#utility.yul\":30135:30814   */\n      swap3\n      pop\n      swap3\n      pop\n      swap3\n      jump\t// out\n        /* \"#utility.yul\":30820:30934   */\n    tag_467:\n      pop\n      jump\t// out\n        /* \"#utility.yul\":30940:31304   */\n    tag_468:\n        /* \"#utility.yul\":31082:31085   */\n      0x00\n        /* \"#utility.yul\":31103:31169   */\n      tag_804\n        /* \"#utility.yul\":31167:31168   */\n      0x00\n        /* \"#utility.yul\":31162:31165   */\n      dup4\n        /* \"#utility.yul\":31103:31169   */\n      tag_424\n      jump\t// in\n    tag_804:\n        /* \"#utility.yul\":31096:31169   */\n      swap2\n      pop\n        /* \"#utility.yul\":31178:31271   */\n      tag_805\n        /* \"#utility.yul\":31267:31270   */\n      dup3\n        /* \"#utility.yul\":31178:31271   */\n      tag_467\n      jump\t// in\n    tag_805:\n        /* \"#utility.yul\":31296:31297   */\n      0x00\n        /* \"#utility.yul\":31291:31294   */\n      dup3\n        /* \"#utility.yul\":31287:31298   */\n      add\n        /* \"#utility.yul\":31280:31298   */\n      swap1\n      pop\n        /* \"#utility.yul\":30940:31304   */\n      swap2\n      swap1\n      pop\n      jump\t// out\n        /* \"#utility.yul\":31310:31729   */\n    tag_274:\n        /* \"#utility.yul\":31476:31480   */\n      0x00\n        /* \"#utility.yul\":31514:31516   */\n      0x20\n        /* \"#utility.yul\":31503:31512   */\n      dup3\n        /* \"#utility.yul\":31499:31517   */\n      add\n        /* \"#utility.yul\":31491:31517   */\n      swap1\n      pop\n        /* \"#utility.yul\":31563:31572   */\n      dup2\n        /* \"#utility.yul\":31557:31561   */\n      dup2\n        /* \"#utility.yul\":31553:31573   */\n      sub\n        /* \"#utility.yul\":31549:31550   */\n      0x00\n        /* \"#utility.yul\":31538:31547   */\n      dup4\n        /* \"#utility.yul\":31534:31551   */\n      add\n        /* \"#utility.yul\":31527:31574   */\n      mstore\n        /* \"#utility.yul\":31591:31722   */\n      tag_807\n        /* \"#utility.yul\":31717:31721   */\n      dup2\n        /* \"#utility.yul\":31591:31722   */\n      tag_468\n      jump\t// in\n    tag_807:\n        /* \"#utility.yul\":31583:31722   */\n      swap1\n      pop\n        /* \"#utility.yul\":31310:31729   */\n      swap2\n      swap1\n      pop\n      jump\t// out\n        /* \"#utility.yul\":31735:32169   */\n    tag_469:\n        /* \"#utility.yul\":31824:31829   */\n      0x00\n        /* \"#utility.yul\":31849:31915   */\n      tag_809\n        /* \"#utility.yul\":31865:31914   */\n      tag_810\n        /* \"#utility.yul\":31907:31913   */\n      dup5\n        /* \"#utility.yul\":31865:31914   */\n      tag_415\n      jump\t// in\n    tag_810:\n        /* \"#utility.yul\":31849:31915   */\n      tag_414\n      jump\t// in\n    tag_809:\n        /* \"#utility.yul\":31840:31915   */\n      swap1\n      pop\n        /* \"#utility.yul\":31938:31944   */\n      dup3\n        /* \"#utility.yul\":31931:31936   */\n      dup2\n        /* \"#utility.yul\":31924:31945   */\n      mstore\n        /* \"#utility.yul\":31976:31980   */\n      0x20\n        /* \"#utility.yul\":31969:31974   */\n      dup2\n        /* \"#utility.yul\":31965:31981   */\n      add\n        /* \"#utility.yul\":32014:32017   */\n      dup5\n        /* \"#utility.yul\":32005:32011   */\n      dup5\n        /* \"#utility.yul\":32000:32003   */\n      dup5\n        /* \"#utility.yul\":31996:32012   */\n      add\n        /* \"#utility.yul\":31993:32018   */\n      gt\n        /* \"#utility.yul\":31990:32102   */\n      iszero\n      tag_811\n      jumpi\n        /* \"#utility.yul\":32021:32100   */\n      tag_812\n      tag_411\n      jump\t// in\n    tag_812:\n        /* \"#utility.yul\":31990:32102   */\n    tag_811:\n        /* \"#utility.yul\":32111:32163   */\n      tag_813\n        /* \"#utility.yul\":32156:32162   */\n      dup5\n        /* \"#utility.yul\":32151:32154   */\n      dup3\n        /* \"#utility.yul\":32146:32149   */\n      dup6\n        /* \"#utility.yul\":32111:32163   */\n      tag_425\n      jump\t// in\n    tag_813:\n        /* \"#utility.yul\":31830:32169   */\n      pop\n        /* \"#utility.yul\":31735:32169   */\n      swap4\n      swap3\n      pop\n      pop\n      pop\n      jump\t// out\n        /* \"#utility.yul\":32189:32544   */\n    tag_470:\n        /* \"#utility.yul\":32256:32261   */\n      0x00\n        /* \"#utility.yul\":32305:32308   */\n      dup3\n        /* \"#utility.yul\":32298:32302   */\n      0x1f\n        /* \"#utility.yul\":32290:32296   */\n      dup4\n        /* \"#utility.yul\":32286:32303   */\n      add\n        /* \"#utility.yul\":32282:32309   */\n      slt\n        /* \"#utility.yul\":32272:32394   */\n      tag_815\n      jumpi\n        /* \"#utility.yul\":32313:32392   */\n      tag_816\n      tag_410\n      jump\t// in\n    tag_816:\n        /* \"#utility.yul\":32272:32394   */\n    tag_815:\n        /* \"#utility.yul\":32423:32429   */\n      dup2\n        /* \"#utility.yul\":32417:32430   */\n      mload\n        /* \"#utility.yul\":32448:32538   */\n      tag_817\n        /* \"#utility.yul\":32534:32537   */\n      dup5\n        /* \"#utility.yul\":32526:32532   */\n      dup3\n        /* \"#utility.yul\":32519:32523   */\n      0x20\n        /* \"#utility.yul\":32511:32517   */\n      dup7\n        /* \"#utility.yul\":32507:32524   */\n      add\n        /* \"#utility.yul\":32448:32538   */\n      tag_469\n      jump\t// in\n    tag_817:\n        /* \"#utility.yul\":32439:32538   */\n      swap2\n      pop\n        /* \"#utility.yul\":32262:32544   */\n      pop\n        /* \"#utility.yul\":32189:32544   */\n      swap3\n      swap2\n      pop\n      pop\n      jump\t// out\n        /* \"#utility.yul\":32550:33559   */\n    tag_279:\n        /* \"#utility.yul\":32658:32664   */\n      0x00\n        /* \"#utility.yul\":32666:32672   */\n      dup1\n        /* \"#utility.yul\":32674:32680   */\n      0x00\n        /* \"#utility.yul\":32723:32725   */\n      0x60\n        /* \"#utility.yul\":32711:32720   */\n      dup5\n        /* \"#utility.yul\":32702:32709   */\n      dup7\n        /* \"#utility.yul\":32698:32721   */\n      sub\n        /* \"#utility.yul\":32694:32726   */\n      slt\n        /* \"#utility.yul\":32691:32810   */\n      iszero\n      tag_819\n      jumpi\n        /* \"#utility.yul\":32729:32808   */\n      tag_820\n      tag_406\n      jump\t// in\n    tag_820:\n        /* \"#utility.yul\":32691:32810   */\n    tag_819:\n        /* \"#utility.yul\":32849:32850   */\n      0x00\n        /* \"#utility.yul\":32874:32938   */\n      tag_821\n        /* \"#utility.yul\":32930:32937   */\n      dup7\n        /* \"#utility.yul\":32921:32927   */\n      dup3\n        /* \"#utility.yul\":32910:32919   */\n      dup8\n        /* \"#utility.yul\":32906:32928   */\n      add\n        /* \"#utility.yul\":32874:32938   */\n      tag_463\n      jump\t// in\n    tag_821:\n        /* \"#utility.yul\":32864:32938   */\n      swap4\n      pop\n        /* \"#utility.yul\":32820:32948   */\n      pop\n        /* \"#utility.yul\":33008:33010   */\n      0x20\n        /* \"#utility.yul\":32997:33006   */\n      dup5\n        /* \"#utility.yul\":32993:33011   */\n      add\n        /* \"#utility.yul\":32987:33012   */\n      mload\n        /* \"#utility.yul\":33039:33057   */\n      0xffffffffffffffff\n        /* \"#utility.yul\":33031:33037   */\n      dup2\n        /* \"#utility.yul\":33028:33058   */\n      gt\n        /* \"#utility.yul\":33025:33142   */\n      iszero\n      tag_822\n      jumpi\n        /* \"#utility.yul\":33061:33140   */\n      tag_823\n      tag_407\n      jump\t// in\n    tag_823:\n        /* \"#utility.yul\":33025:33142   */\n    tag_822:\n        /* \"#utility.yul\":33166:33240   */\n      tag_824\n        /* \"#utility.yul\":33232:33239   */\n      dup7\n        /* \"#utility.yul\":33223:33229   */\n      dup3\n        /* \"#utility.yul\":33212:33221   */\n      dup8\n        /* \"#utility.yul\":33208:33230   */\n      add\n        /* \"#utility.yul\":33166:33240   */\n      tag_470\n      jump\t// in\n    tag_824:\n        /* \"#utility.yul\":33156:33240   */\n      swap3\n      pop\n        /* \"#utility.yul\":32958:33250   */\n      pop\n        /* \"#utility.yul\":33310:33312   */\n      0x40\n        /* \"#utility.yul\":33299:33308   */\n      dup5\n        /* \"#utility.yul\":33295:33313   */\n      add\n        /* \"#utility.yul\":33289:33314   */\n      mload\n        /* \"#utility.yul\":33341:33359   */\n      0xffffffffffffffff\n        /* \"#utility.yul\":33333:33339   */\n      dup2\n        /* \"#utility.yul\":33330:33360   */\n      gt\n        /* \"#utility.yul\":33327:33444   */\n      iszero\n      tag_825\n      jumpi\n        /* \"#utility.yul\":33363:33442   */\n      tag_826\n      tag_407\n      jump\t// in\n    tag_826:\n        /* \"#utility.yul\":33327:33444   */\n    tag_825:\n        /* \"#utility.yul\":33468:33542   */\n      tag_827\n        /* \"#utility.yul\":33534:33541   */\n      dup7\n        /* \"#utility.yul\":33525:33531   */\n      dup3\n        /* \"#utility.yul\":33514:33523   */\n      dup8\n        /* \"#utility.yul\":33510:33532   */\n      add\n        /* \"#utility.yul\":33468:33542   */\n      tag_470\n      jump\t// in\n    tag_827:\n        /* \"#utility.yul\":33458:33542   */\n      swap2\n      pop\n        /* \"#utility.yul\":33260:33552   */\n      pop\n        /* \"#utility.yul\":32550:33559   */\n      swap3\n      pop\n      swap3\n      pop\n      swap3\n      jump\t// out\n        /* \"#utility.yul\":33565:33706   */\n    tag_471:\n        /* \"#utility.yul\":33614:33618   */\n      0x00\n        /* \"#utility.yul\":33637:33640   */\n      dup2\n        /* \"#utility.yul\":33629:33640   */\n      swap1\n      pop\n        /* \"#utility.yul\":33660:33663   */\n      dup2\n        /* \"#utility.yul\":33657:33658   */\n      0x00\n        /* \"#utility.yul\":33650:33664   */\n      mstore\n        /* \"#utility.yul\":33694:33698   */\n      0x20\n        /* \"#utility.yul\":33691:33692   */\n      0x00\n        /* \"#utility.yul\":33681:33699   */\n      keccak256\n        /* \"#utility.yul\":33673:33699   */\n      swap1\n      pop\n        /* \"#utility.yul\":33565:33706   */\n      swap2\n      swap1\n      pop\n      jump\t// out\n        /* \"#utility.yul\":33712:33805   */\n    tag_472:\n        /* \"#utility.yul\":33749:33755   */\n      0x00\n        /* \"#utility.yul\":33796:33798   */\n      0x20\n        /* \"#utility.yul\":33791:33793   */\n      0x1f\n        /* \"#utility.yul\":33784:33789   */\n      dup4\n        /* \"#utility.yul\":33780:33794   */\n      add\n        /* \"#utility.yul\":33776:33799   */\n      div\n        /* \"#utility.yul\":33766:33799   */\n      swap1\n      pop\n        /* \"#utility.yul\":33712:33805   */\n      swap2\n      swap1\n      pop\n      jump\t// out\n        /* \"#utility.yul\":33811:33918   */\n    tag_473:\n        /* \"#utility.yul\":33855:33863   */\n      0x00\n        /* \"#utility.yul\":33905:33910   */\n      dup3\n        /* \"#utility.yul\":33899:33903   */\n      dup3\n        /* \"#utility.yul\":33895:33911   */\n      shl\n        /* \"#utility.yul\":33874:33911   */\n      swap1\n      pop\n        /* \"#utility.yul\":33811:33918   */\n      swap3\n      swap2\n      pop\n      pop\n      jump\t// out\n        /* \"#utility.yul\":33924:34317   */\n    tag_474:\n        /* \"#utility.yul\":33993:33999   */\n      0x00\n        /* \"#utility.yul\":34043:34044   */\n      0x08\n        /* \"#utility.yul\":34031:34041   */\n      dup4\n        /* \"#utility.yul\":34027:34045   */\n      mul\n        /* \"#utility.yul\":34066:34163   */\n      tag_832\n        /* \"#utility.yul\":34096:34162   */\n      0xffffffffffffffffffffffffffffffffffffffffffffffffffffffffffffffff\n        /* \"#utility.yul\":34085:34094   */\n      dup3\n        /* \"#utility.yul\":34066:34163   */\n      tag_473\n      jump\t// in\n    tag_832:\n        /* \"#utility.yul\":34184:34223   */\n      tag_833\n        /* \"#utility.yul\":34214:34222   */\n      dup7\n        /* \"#utility.yul\":34203:34212   */\n      dup4\n        /* \"#utility.yul\":34184:34223   */\n      tag_473\n      jump\t// in\n    tag_833:\n        /* \"#utility.yul\":34172:34223   */\n      swap6\n      pop\n        /* \"#utility.yul\":34256:34260   */\n      dup1\n        /* \"#utility.yul\":34252:34261   */\n      not\n        /* \"#utility.yul\":34245:34250   */\n      dup5\n        /* \"#utility.yul\":34241:34262   */\n      and\n        /* \"#utility.yul\":34232:34262   */\n      swap4\n      pop\n        /* \"#utility.yul\":34305:34309   */\n      dup1\n        /* \"#utility.yul\":34295:34303   */\n      dup7\n        /* \"#utility.yul\":34291:34310   */\n      and\n        /* \"#utility.yul\":34284:34289   */\n      dup5\n        /* \"#utility.yul\":34281:34311   */\n      or\n        /* \"#utility.yul\":34271:34311   */\n      swap3\n      pop\n        /* \"#utility.yul\":34000:34317   */\n      pop\n      pop\n        /* \"#utility.yul\":33924:34317   */\n      swap4\n      swap3\n      pop\n      pop\n      pop\n      jump\t// out\n        /* \"#utility.yul\":34323:34383   */\n    tag_475:\n        /* \"#utility.yul\":34351:34354   */\n      0x00\n        /* \"#utility.yul\":34372:34377   */\n      dup2\n        /* \"#utility.yul\":34365:34377   */\n      swap1\n      pop\n        /* \"#utility.yul\":34323:34383   */\n      swap2\n      swap1\n      pop\n      jump\t// out\n        /* \"#utility.yul\":34389:34531   */\n    tag_476:\n        /* \"#utility.yul\":34439:34448   */\n      0x00\n        /* \"#utility.yul\":34472:34525   */\n      tag_836\n        /* \"#utility.yul\":34490:34524   */\n      tag_837\n        /* \"#utility.yul\":34499:34523   */\n      tag_838\n        /* \"#utility.yul\":34517:34522   */\n      dup5\n        /* \"#utility.yul\":34499:34523   */\n      tag_403\n      jump\t// in\n    tag_838:\n        /* \"#utility.yul\":34490:34524   */\n      tag_475\n      jump\t// in\n    tag_837:\n        /* \"#utility.yul\":34472:34525   */\n      tag_403\n      jump\t// in\n    tag_836:\n        /* \"#utility.yul\":34459:34525   */\n      swap1\n      pop\n        /* \"#utility.yul\":34389:34531   */\n      swap2\n      swap1\n      pop\n      jump\t// out\n        /* \"#utility.yul\":34537:34612   */\n    tag_477:\n        /* \"#utility.yul\":34580:34583   */\n      0x00\n        /* \"#utility.yul\":34601:34606   */\n      dup2\n        /* \"#utility.yul\":34594:34606   */\n      swap1\n      pop\n        /* \"#utility.yul\":34537:34612   */\n      swap2\n      swap1\n      pop\n      jump\t// out\n        /* \"#utility.yul\":34618:34887   */\n    tag_478:\n        /* \"#utility.yul\":34728:34767   */\n      tag_841\n        /* \"#utility.yul\":34759:34766   */\n      dup4\n        /* \"#utility.yul\":34728:34767   */\n      tag_476\n      jump\t// in\n    tag_841:\n        /* \"#utility.yul\":34789:34880   */\n      tag_842\n        /* \"#utility.yul\":34838:34879   */\n      tag_843\n        /* \"#utility.yul\":34862:34878   */\n      dup3\n        /* \"#utility.yul\":34838:34879   */\n      tag_477\n      jump\t// in\n    tag_843:\n        /* \"#utility.yul\":34830:34836   */\n      dup5\n        /* \"#utility.yul\":34823:34827   */\n      dup5\n        /* \"#utility.yul\":34817:34828   */\n      sload\n        /* \"#utility.yul\":34789:34880   */\n      tag_474\n      jump\t// in\n    tag_842:\n        /* \"#utility.yul\":34783:34787   */\n      dup3\n        /* \"#utility.yul\":34776:34881   */\n      sstore\n        /* \"#utility.yul\":34694:34887   */\n      pop\n        /* \"#utility.yul\":34618:34887   */\n      pop\n      pop\n      pop\n      jump\t// out\n        /* \"#utility.yul\":34893:34966   */\n    tag_479:\n        /* \"#utility.yul\":34938:34941   */\n      0x00\n        /* \"#utility.yul\":34893:34966   */\n      swap1\n      jump\t// out\n        /* \"#utility.yul\":34972:35161   */\n    tag_480:\n        /* \"#utility.yul\":35049:35081   */\n      tag_846\n      tag_479\n      jump\t// in\n    tag_846:\n        /* \"#utility.yul\":35090:35155   */\n      tag_847\n        /* \"#utility.yul\":35148:35154   */\n      dup2\n        /* \"#utility.yul\":35140:35146   */\n      dup5\n        /* \"#utility.yul\":35134:35138   */\n      dup5\n        /* \"#utility.yul\":35090:35155   */\n      tag_478\n      jump\t// in\n    tag_847:\n        /* \"#utility.yul\":35025:35161   */\n      pop\n        /* \"#utility.yul\":34972:35161   */\n      pop\n      pop\n      jump\t// out\n        /* \"#utility.yul\":35167:35353   */\n    tag_481:\n        /* \"#utility.yul\":35227:35347   */\n    tag_849:\n        /* \"#utility.yul\":35244:35247   */\n      dup2\n        /* \"#utility.yul\":35237:35242   */\n      dup2\n        /* \"#utility.yul\":35234:35248   */\n      lt\n        /* \"#utility.yul\":35227:35347   */\n      iszero\n      tag_851\n      jumpi\n        /* \"#utility.yul\":35298:35337   */\n      tag_852\n        /* \"#utility.yul\":35335:35336   */\n      0x00\n        /* \"#utility.yul\":35328:35333   */\n      dup3\n        /* \"#utility.yul\":35298:35337   */\n      tag_480\n      jump\t// in\n    tag_852:\n        /* \"#utility.yul\":35271:35272   */\n      0x01\n        /* \"#utility.yul\":35264:35269   */\n      dup2\n        /* \"#utility.yul\":35260:35273   */\n      add\n        /* \"#utility.yul\":35251:35273   */\n      swap1\n      pop\n        /* \"#utility.yul\":35227:35347   */\n      jump(tag_849)\n    tag_851:\n        /* \"#utility.yul\":35167:35353   */\n      pop\n      pop\n      jump\t// out\n        /* \"#utility.yul\":35359:35902   */\n    tag_482:\n        /* \"#utility.yul\":35460:35462   */\n      0x1f\n        /* \"#utility.yul\":35455:35458   */\n      dup3\n        /* \"#utility.yul\":35452:35463   */\n      gt\n        /* \"#utility.yul\":35449:35895   */\n      iszero\n      tag_854\n      jumpi\n        /* \"#utility.yul\":35494:35532   */\n      tag_855\n        /* \"#utility.yul\":35526:35531   */\n      dup2\n        /* \"#utility.yul\":35494:35532   */\n      tag_471\n      jump\t// in\n    tag_855:\n        /* \"#utility.yul\":35578:35607   */\n      tag_856\n        /* \"#utility.yul\":35596:35606   */\n      dup5\n        /* \"#utility.yul\":35578:35607   */\n      tag_472\n      jump\t// in\n    tag_856:\n        /* \"#utility.yul\":35568:35576   */\n      dup2\n        /* \"#utility.yul\":35564:35608   */\n      add\n        /* \"#utility.yul\":35761:35763   */\n      0x20\n        /* \"#utility.yul\":35749:35759   */\n      dup6\n        /* \"#utility.yul\":35746:35764   */\n      lt\n        /* \"#utility.yul\":35743:35792   */\n      iszero\n      tag_857\n      jumpi\n        /* \"#utility.yul\":35782:35790   */\n      dup2\n        /* \"#utility.yul\":35767:35790   */\n      swap1\n      pop\n        /* \"#utility.yul\":35743:35792   */\n    tag_857:\n        /* \"#utility.yul\":35805:35885   */\n      tag_858\n        /* \"#utility.yul\":35861:35883   */\n      tag_859\n        /* \"#utility.yul\":35879:35882   */\n      dup6\n        /* \"#utility.yul\":35861:35883   */\n      tag_472\n      jump\t// in\n    tag_859:\n        /* \"#utility.yul\":35851:35859   */\n      dup4\n        /* \"#utility.yul\":35847:35884   */\n      add\n        /* \"#utility.yul\":35834:35845   */\n      dup3\n        /* \"#utility.yul\":35805:35885   */\n      tag_481\n      jump\t// in\n    tag_858:\n        /* \"#utility.yul\":35464:35895   */\n      pop\n      pop\n        /* \"#utility.yul\":35449:35895   */\n    tag_854:\n        /* \"#utility.yul\":35359:35902   */\n      pop\n      pop\n      pop\n      jump\t// out\n        /* \"#utility.yul\":35908:36025   */\n    tag_483:\n        /* \"#utility.yul\":35962:35970   */\n      0x00\n        /* \"#utility.yul\":36012:36017   */\n      dup3\n        /* \"#utility.yul\":36006:36010   */\n      dup3\n        /* \"#utility.yul\":36002:36018   */\n      shr\n        /* \"#utility.yul\":35981:36018   */\n      swap1\n      pop\n        /* \"#utility.yul\":35908:36025   */\n      swap3\n      swap2\n      pop\n      pop\n      jump\t// out\n        /* \"#utility.yul\":36031:36200   */\n    tag_484:\n        /* \"#utility.yul\":36075:36081   */\n      0x00\n        /* \"#utility.yul\":36108:36159   */\n      tag_862\n        /* \"#utility.yul\":36156:36157   */\n      0x00\n        /* \"#utility.yul\":36152:36158   */\n      not\n        /* \"#utility.yul\":36144:36149   */\n      dup5\n        /* \"#utility.yul\":36141:36142   */\n      0x08\n        /* \"#utility.yul\":36137:36150   */\n      mul\n        /* \"#utility.yul\":36108:36159   */\n      tag_483\n      jump\t// in\n    tag_862:\n        /* \"#utility.yul\":36104:36160   */\n      not\n        /* \"#utility.yul\":36189:36193   */\n      dup1\n        /* \"#utility.yul\":36183:36187   */\n      dup4\n        /* \"#utility.yul\":36179:36194   */\n      and\n        /* \"#utility.yul\":36169:36194   */\n      swap2\n      pop\n        /* \"#utility.yul\":36082:36200   */\n      pop\n        /* \"#utility.yul\":36031:36200   */\n      swap3\n      swap2\n      pop\n      pop\n      jump\t// out\n        /* \"#utility.yul\":36205:36500   */\n    tag_485:\n        /* \"#utility.yul\":36281:36285   */\n      0x00\n        /* \"#utility.yul\":36427:36456   */\n      tag_864\n        /* \"#utility.yul\":36452:36455   */\n      dup4\n        /* \"#utility.yul\":36446:36450   */\n      dup4\n        /* \"#utility.yul\":36427:36456   */\n      tag_484\n      jump\t// in\n    tag_864:\n        /* \"#utility.yul\":36419:36456   */\n      swap2\n      pop\n        /* \"#utility.yul\":36489:36492   */\n      dup3\n        /* \"#utility.yul\":36486:36487   */\n      0x02\n        /* \"#utility.yul\":36482:36493   */\n      mul\n        /* \"#utility.yul\":36476:36480   */\n      dup3\n        /* \"#utility.yul\":36473:36494   */\n      or\n        /* \"#utility.yul\":36465:36494   */\n      swap1\n      pop\n        /* \"#utility.yul\":36205:36500   */\n      swap3\n      swap2\n      pop\n      pop\n      jump\t// out\n        /* \"#utility.yul\":36505:37900   */\n    tag_283:\n        /* \"#utility.yul\":36622:36659   */\n      tag_866\n        /* \"#utility.yul\":36655:36658   */\n      dup3\n        /* \"#utility.yul\":36622:36659   */\n      tag_423\n      jump\t// in\n    tag_866:\n        /* \"#utility.yul\":36724:36742   */\n      0xffffffffffffffff\n        /* \"#utility.yul\":36716:36722   */\n      dup2\n        /* \"#utility.yul\":36713:36743   */\n      gt\n        /* \"#utility.yul\":36710:36766   */\n      iszero\n      tag_867\n      jumpi\n        /* \"#utility.yul\":36746:36764   */\n      tag_868\n      tag_91\n      jump\t// in\n    tag_868:\n        /* \"#utility.yul\":36710:36766   */\n    tag_867:\n        /* \"#utility.yul\":36790:36828   */\n      tag_869\n        /* \"#utility.yul\":36822:36826   */\n      dup3\n        /* \"#utility.yul\":36816:36827   */\n      sload\n        /* \"#utility.yul\":36790:36828   */\n      tag_169\n      jump\t// in\n    tag_869:\n        /* \"#utility.yul\":36875:36942   */\n      tag_870\n        /* \"#utility.yul\":36935:36941   */\n      dup3\n        /* \"#utility.yul\":36927:36933   */\n      dup3\n        /* \"#utility.yul\":36921:36925   */\n      dup6\n        /* \"#utility.yul\":36875:36942   */\n      tag_482\n      jump\t// in\n    tag_870:\n        /* \"#utility.yul\":36969:36970   */\n      0x00\n        /* \"#utility.yul\":36993:36997   */\n      0x20\n        /* \"#utility.yul\":36980:36997   */\n      swap1\n      pop\n        /* \"#utility.yul\":37025:37027   */\n      0x1f\n        /* \"#utility.yul\":37017:37023   */\n      dup4\n        /* \"#utility.yul\":37014:37028   */\n      gt\n        /* \"#utility.yul\":37042:37043   */\n      0x01\n        /* \"#utility.yul\":37037:37655   */\n      dup2\n      eq\n      tag_872\n      jumpi\n        /* \"#utility.yul\":37699:37700   */\n      0x00\n        /* \"#utility.yul\":37716:37722   */\n      dup5\n        /* \"#utility.yul\":37713:37790   */\n      iszero\n      tag_873\n      jumpi\n        /* \"#utility.yul\":37765:37774   */\n      dup3\n        /* \"#utility.yul\":37760:37763   */\n      dup8\n        /* \"#utility.yul\":37756:37775   */\n      add\n        /* \"#utility.yul\":37750:37776   */\n      mload\n        /* \"#utility.yul\":37741:37776   */\n      swap1\n      pop\n        /* \"#utility.yul\":37713:37790   */\n    tag_873:\n        /* \"#utility.yul\":37816:37883   */\n      tag_874\n        /* \"#utility.yul\":37876:37882   */\n      dup6\n        /* \"#utility.yul\":37869:37874   */\n      dup3\n        /* \"#utility.yul\":37816:37883   */\n      tag_485\n      jump\t// in\n    tag_874:\n        /* \"#utility.yul\":37810:37814   */\n      dup7\n        /* \"#utility.yul\":37803:37884   */\n      sstore\n        /* \"#utility.yul\":37672:37894   */\n      pop\n        /* \"#utility.yul\":37007:37894   */\n      jump(tag_871)\n        /* \"#utility.yul\":37037:37655   */\n    tag_872:\n        /* \"#utility.yul\":37089:37093   */\n      0x1f\n        /* \"#utility.yul\":37085:37094   */\n      not\n        /* \"#utility.yul\":37077:37083   */\n      dup5\n        /* \"#utility.yul\":37073:37095   */\n      and\n        /* \"#utility.yul\":37123:37160   */\n      tag_875\n        /* \"#utility.yul\":37155:37159   */\n      dup7\n        /* \"#utility.yul\":37123:37160   */\n      tag_471\n      jump\t// in\n    tag_875:\n        /* \"#utility.yul\":37182:37183   */\n      0x00\n        /* \"#utility.yul\":37196:37404   */\n    tag_876:\n        /* \"#utility.yul\":37210:37217   */\n      dup3\n        /* \"#utility.yul\":37207:37208   */\n      dup2\n        /* \"#utility.yul\":37204:37218   */\n      lt\n        /* \"#utility.yul\":37196:37404   */\n      iszero\n      tag_878\n      jumpi\n        /* \"#utility.yul\":37289:37298   */\n      dup5\n        /* \"#utility.yul\":37284:37287   */\n      dup10\n        /* \"#utility.yul\":37280:37299   */\n      add\n        /* \"#utility.yul\":37274:37300   */\n      mload\n        /* \"#utility.yul\":37266:37272   */\n      dup3\n        /* \"#utility.yul\":37259:37301   */\n      sstore\n        /* \"#utility.yul\":37340:37341   */\n      0x01\n        /* \"#utility.yul\":37332:37338   */\n      dup3\n        /* \"#utility.yul\":37328:37342   */\n      add\n        /* \"#utility.yul\":37318:37342   */\n      swap2\n      pop\n        /* \"#utility.yul\":37387:37389   */\n      0x20\n        /* \"#utility.yul\":37376:37385   */\n      dup6\n        /* \"#utility.yul\":37372:37390   */\n      add\n        /* \"#utility.yul\":37359:37390   */\n      swap5\n      pop\n        /* \"#utility.yul\":37233:37237   */\n      0x20\n        /* \"#utility.yul\":37230:37231   */\n      dup2\n        /* \"#utility.yul\":37226:37238   */\n      add\n        /* \"#utility.yul\":37221:37238   */\n      swap1\n      pop\n        /* \"#utility.yul\":37196:37404   */\n      jump(tag_876)\n    tag_878:\n        /* \"#utility.yul\":37432:37438   */\n      dup7\n        /* \"#utility.yul\":37423:37430   */\n      dup4\n        /* \"#utility.yul\":37420:37439   */\n      lt\n        /* \"#utility.yul\":37417:37596   */\n      iszero\n      tag_879\n      jumpi\n        /* \"#utility.yul\":37490:37499   */\n      dup5\n        /* \"#utility.yul\":37485:37488   */\n      dup10\n        /* \"#utility.yul\":37481:37500   */\n      add\n        /* \"#utility.yul\":37475:37501   */\n      mload\n        /* \"#utility.yul\":37533:37581   */\n      tag_880\n        /* \"#utility.yul\":37575:37579   */\n      0x1f\n        /* \"#utility.yul\":37567:37573   */\n      dup10\n        /* \"#utility.yul\":37563:37580   */\n      and\n        /* \"#utility.yul\":37552:37561   */\n      dup3\n        /* \"#utility.yul\":37533:37581   */\n      tag_484\n      jump\t// in\n    tag_880:\n        /* \"#utility.yul\":37525:37531   */\n      dup4\n        /* \"#utility.yul\":37518:37582   */\n      sstore\n        /* \"#utility.yul\":37440:37596   */\n      pop\n        /* \"#utility.yul\":37417:37596   */\n    tag_879:\n        /* \"#utility.yul\":37642:37643   */\n      0x01\n        /* \"#utility.yul\":37638:37639   */\n      0x02\n        /* \"#utility.yul\":37630:37636   */\n      dup9\n        /* \"#utility.yul\":37626:37640   */\n      mul\n        /* \"#utility.yul\":37622:37644   */\n      add\n        /* \"#utility.yul\":37616:37620   */\n      dup9\n        /* \"#utility.yul\":37609:37645   */\n      sstore\n        /* \"#utility.yul\":37044:37655   */\n      pop\n      pop\n      pop\n        /* \"#utility.yul\":37007:37894   */\n    tag_871:\n      pop\n        /* \"#utility.yul\":36597:37900   */\n      pop\n      pop\n      pop\n        /* \"#utility.yul\":36505:37900   */\n      pop\n      pop\n      jump\t// out\n        /* \"#utility.yul\":37906:38416   */\n    tag_307:\n        /* \"#utility.yul\":38065:38069   */\n      0x00\n        /* \"#utility.yul\":38103:38105   */\n      0x40\n        /* \"#utility.yul\":38092:38101   */\n      dup3\n        /* \"#utility.yul\":38088:38106   */\n      add\n        /* \"#utility.yul\":38080:38106   */\n      swap1\n      pop\n        /* \"#utility.yul\":38152:38161   */\n      dup2\n        /* \"#utility.yul\":38146:38150   */\n      dup2\n        /* \"#utility.yul\":38142:38162   */\n      sub\n        /* \"#utility.yul\":38138:38139   */\n      0x00\n        /* \"#utility.yul\":38127:38136   */\n      dup4\n        /* \"#utility.yul\":38123:38140   */\n      add\n        /* \"#utility.yul\":38116:38163   */\n      mstore\n        /* \"#utility.yul\":38180:38258   */\n      tag_882\n        /* \"#utility.yul\":38253:38257   */\n      dup2\n        /* \"#utility.yul\":38244:38250   */\n      dup6\n        /* \"#utility.yul\":38180:38258   */\n      tag_426\n      jump\t// in\n    tag_882:\n        /* \"#utility.yul\":38172:38258   */\n      swap1\n      pop\n        /* \"#utility.yul\":38305:38314   */\n      dup2\n        /* \"#utility.yul\":38299:38303   */\n      dup2\n        /* \"#utility.yul\":38295:38315   */\n      sub\n        /* \"#utility.yul\":38290:38292   */\n      0x20\n        /* \"#utility.yul\":38279:38288   */\n      dup4\n        /* \"#utility.yul\":38275:38293   */\n      add\n        /* \"#utility.yul\":38268:38316   */\n      mstore\n        /* \"#utility.yul\":38333:38409   */\n      tag_883\n        /* \"#utility.yul\":38404:38408   */\n      dup2\n        /* \"#utility.yul\":38395:38401   */\n      dup5\n        /* \"#utility.yul\":38333:38409   */\n      tag_450\n      jump\t// in\n    tag_883:\n        /* \"#utility.yul\":38325:38409   */\n      swap1\n      pop\n        /* \"#utility.yul\":37906:38416   */\n      swap4\n      swap3\n      pop\n      pop\n      pop\n      jump\t// out\n        /* \"#utility.yul\":38422:38647   */\n    tag_486:\n        /* \"#utility.yul\":38562:38596   */\n      0x4f776e61626c653a206e6577206f776e657220697320746865207a65726f2061\n        /* \"#utility.yul\":38558:38559   */\n      0x00\n        /* \"#utility.yul\":38550:38556   */\n      dup3\n        /* \"#utility.yul\":38546:38560   */\n      add\n        /* \"#utility.yul\":38539:38597   */\n      mstore\n        /* \"#utility.yul\":38631:38639   */\n      0x6464726573730000000000000000000000000000000000000000000000000000\n        /* \"#utility.yul\":38626:38628   */\n      0x20\n        /* \"#utility.yul\":38618:38624   */\n      dup3\n        /* \"#utility.yul\":38614:38629   */\n      add\n        /* \"#utility.yul\":38607:38640   */\n      mstore\n        /* \"#utility.yul\":38422:38647   */\n      pop\n      jump\t// out\n        /* \"#utility.yul\":38653:39019   */\n    tag_487:\n        /* \"#utility.yul\":38795:38798   */\n      0x00\n        /* \"#utility.yul\":38816:38883   */\n      tag_886\n        /* \"#utility.yul\":38880:38882   */\n      0x26\n        /* \"#utility.yul\":38875:38878   */\n      dup4\n        /* \"#utility.yul\":38816:38883   */\n      tag_424\n      jump\t// in\n    tag_886:\n        /* \"#utility.yul\":38809:38883   */\n      swap2\n      pop\n        /* \"#utility.yul\":38892:38985   */\n      tag_887\n        /* \"#utility.yul\":38981:38984   */\n      dup3\n        /* \"#utility.yul\":38892:38985   */\n      tag_486\n      jump\t// in\n    tag_887:\n        /* \"#utility.yul\":39010:39012   */\n      0x40\n        /* \"#utility.yul\":39005:39008   */\n      dup3\n        /* \"#utility.yul\":39001:39013   */\n      add\n        /* \"#utility.yul\":38994:39013   */\n      swap1\n      pop\n        /* \"#utility.yul\":38653:39019   */\n      swap2\n      swap1\n      pop\n      jump\t// out\n        /* \"#utility.yul\":39025:39444   */\n    tag_316:\n        /* \"#utility.yul\":39191:39195   */\n      0x00\n        /* \"#utility.yul\":39229:39231   */\n      0x20\n        /* \"#utility.yul\":39218:39227   */\n      dup3\n        /* \"#utility.yul\":39214:39232   */\n      add\n        /* \"#utility.yul\":39206:39232   */\n      swap1\n      pop\n        /* \"#utility.yul\":39278:39287   */\n      dup2\n        /* \"#utility.yul\":39272:39276   */\n      dup2\n        /* \"#utility.yul\":39268:39288   */\n      sub\n        /* \"#utility.yul\":39264:39265   */\n      0x00\n        /* \"#utility.yul\":39253:39262   */\n      dup4\n        /* \"#utility.yul\":39249:39266   */\n      add\n        /* \"#utility.yul\":39242:39289   */\n      mstore\n        /* \"#utility.yul\":39306:39437   */\n      tag_889\n        /* \"#utility.yul\":39432:39436   */\n      dup2\n        /* \"#utility.yul\":39306:39437   */\n      tag_487\n      jump\t// in\n    tag_889:\n        /* \"#utility.yul\":39298:39437   */\n      swap1\n      pop\n        /* \"#utility.yul\":39025:39444   */\n      swap2\n      swap1\n      pop\n      jump\t// out\n        /* \"#utility.yul\":39450:39626   */\n    tag_344:\n        /* \"#utility.yul\":39482:39483   */\n      0x00\n        /* \"#utility.yul\":39499:39519   */\n      tag_891\n        /* \"#utility.yul\":39517:39518   */\n      dup3\n        /* \"#utility.yul\":39499:39519   */\n      tag_403\n      jump\t// in\n    tag_891:\n        /* \"#utility.yul\":39494:39519   */\n      swap2\n      pop\n        /* \"#utility.yul\":39533:39553   */\n      tag_892\n        /* \"#utility.yul\":39551:39552   */\n      dup4\n        /* \"#utility.yul\":39533:39553   */\n      tag_403\n      jump\t// in\n    tag_892:\n        /* \"#utility.yul\":39528:39553   */\n      swap3\n      pop\n        /* \"#utility.yul\":39572:39573   */\n      dup3\n        /* \"#utility.yul\":39562:39597   */\n      tag_893\n      jumpi\n        /* \"#utility.yul\":39577:39595   */\n      tag_894\n      tag_458\n      jump\t// in\n    tag_894:\n        /* \"#utility.yul\":39562:39597   */\n    tag_893:\n        /* \"#utility.yul\":39618:39619   */\n      dup3\n        /* \"#utility.yul\":39615:39616   */\n      dup3\n        /* \"#utility.yul\":39611:39620   */\n      mod\n        /* \"#utility.yul\":39606:39620   */\n      swap1\n      pop\n        /* \"#utility.yul\":39450:39626   */\n      swap3\n      swap2\n      pop\n      pop\n      jump\t// out\n        /* \"#utility.yul\":39632:39803   */\n    tag_384:\n        /* \"#utility.yul\":39671:39674   */\n      0x00\n        /* \"#utility.yul\":39694:39718   */\n      tag_896\n        /* \"#utility.yul\":39712:39717   */\n      dup3\n        /* \"#utility.yul\":39694:39718   */\n      tag_403\n      jump\t// in\n    tag_896:\n        /* \"#utility.yul\":39685:39718   */\n      swap2\n      pop\n        /* \"#utility.yul\":39740:39744   */\n      0x00\n        /* \"#utility.yul\":39733:39738   */\n      dup3\n        /* \"#utility.yul\":39730:39745   */\n      sub\n        /* \"#utility.yul\":39727:39768   */\n      tag_897\n      jumpi\n        /* \"#utility.yul\":39748:39766   */\n      tag_898\n      tag_457\n      jump\t// in\n    tag_898:\n        /* \"#utility.yul\":39727:39768   */\n    tag_897:\n        /* \"#utility.yul\":39795:39796   */\n      0x01\n        /* \"#utility.yul\":39788:39793   */\n      dup3\n        /* \"#utility.yul\":39784:39797   */\n      sub\n        /* \"#utility.yul\":39777:39797   */\n      swap1\n      pop\n        /* \"#utility.yul\":39632:39803   */\n      swap2\n      swap1\n      pop\n      jump\t// out\n        /* \"#utility.yul\":39809:39991   */\n    tag_488:\n        /* \"#utility.yul\":39949:39983   */\n      0x537472696e67733a20686578206c656e67746820696e73756666696369656e74\n        /* \"#utility.yul\":39945:39946   */\n      0x00\n        /* \"#utility.yul\":39937:39943   */\n      dup3\n        /* \"#utility.yul\":39933:39947   */\n      add\n        /* \"#utility.yul\":39926:39984   */\n      mstore\n        /* \"#utility.yul\":39809:39991   */\n      pop\n      jump\t// out\n        /* \"#utility.yul\":39997:40363   */\n    tag_489:\n        /* \"#utility.yul\":40139:40142   */\n      0x00\n        /* \"#utility.yul\":40160:40227   */\n      tag_901\n        /* \"#utility.yul\":40224:40226   */\n      0x20\n        /* \"#utility.yul\":40219:40222   */\n      dup4\n        /* \"#utility.yul\":40160:40227   */\n      tag_424\n      jump\t// in\n    tag_901:\n        /* \"#utility.yul\":40153:40227   */\n      swap2\n      pop\n        /* \"#utility.yul\":40236:40329   */\n      tag_902\n        /* \"#utility.yul\":40325:40328   */\n      dup3\n        /* \"#utility.yul\":40236:40329   */\n      tag_488\n      jump\t// in\n    tag_902:\n        /* \"#utility.yul\":40354:40356   */\n      0x20\n        /* \"#utility.yul\":40349:40352   */\n      dup3\n        /* \"#utility.yul\":40345:40357   */\n      add\n        /* \"#utility.yul\":40338:40357   */\n      swap1\n      pop\n        /* \"#utility.yul\":39997:40363   */\n      swap2\n      swap1\n      pop\n      jump\t// out\n        /* \"#utility.yul\":40369:40788   */\n    tag_387:\n        /* \"#utility.yul\":40535:40539   */\n      0x00\n        /* \"#utility.yul\":40573:40575   */\n      0x20\n        /* \"#utility.yul\":40562:40571   */\n      dup3\n        /* \"#utility.yul\":40558:40576   */\n      add\n        /* \"#utility.yul\":40550:40576   */\n      swap1\n      pop\n        /* \"#utility.yul\":40622:40631   */\n      dup2\n        /* \"#utility.yul\":40616:40620   */\n      dup2\n        /* \"#utility.yul\":40612:40632   */\n      sub\n        /* \"#utility.yul\":40608:40609   */\n      0x00\n        /* \"#utility.yul\":40597:40606   */\n      dup4\n        /* \"#utility.yul\":40593:40610   */\n      add\n        /* \"#utility.yul\":40586:40633   */\n      mstore\n        /* \"#utility.yul\":40650:40781   */\n      tag_904\n        /* \"#utility.yul\":40776:40780   */\n      dup2\n        /* \"#utility.yul\":40650:40781   */\n      tag_489\n      jump\t// in\n    tag_904:\n        /* \"#utility.yul\":40642:40781   */\n      swap1\n      pop\n        /* \"#utility.yul\":40369:40788   */\n      swap2\n      swap1\n      pop\n      jump\t// out\n    stop\n    data_84d8a590de33e00cbdc16e1f28c3506f5ec15c599fab9a6a4bcd575cc2f110ce 4142434445464748494a4b4c4d4e4f505152535455565758595a6162636465666768696a6b6c6d6e6f707172737475767778797a303132333435363738392b2f\n\n    auxdata: 0xa26469706673582212208588a0b549d08cf1e2305724580e41e99fc83d56e044df360be68a9a264bba6c64736f6c63430008160033\n}\n",
				"bytecode": {
					"linkReferences": {},
					"object": "608060405234801562000010575f80fd5b506200003162000025620008e360201b60201c565b620008ea60201b60201c565b5f600367ffffffffffffffff81111562000050576200004f62000b64565b5b6040519080825280602002602001820160405280156200007f5781602001602082028036833780820191505090505b5090506040815f815181106200009a576200009962000b91565b5b602002602001019060c6811115620000b757620000b662000bbe565b5b908160c6811115620000ce57620000cd62000bbe565b5b81525050606381600181518110620000eb57620000ea62000b91565b5b602002602001019060c681111562000108576200010762000bbe565b5b908160c68111156200011f576200011e62000bbe565b5b815250506063816002815181106200013c576200013b62000b91565b5b602002602001019060c681111562000159576200015862000bbe565b5b908160c681111562000170576200016f62000bbe565b5b815250505f600167ffffffffffffffff81111562000193576200019262000b64565b5b604051908082528060200260200182016040528015620001c25781602001602082028036833780820191505090505b5090506040815f81518110620001dd57620001dc62000b91565b5b602002602001019060c6811115620001fa57620001f962000bbe565b5b908160c681111562000211576200021062000bbe565b5b815250505f600467ffffffffffffffff81111562000234576200023362000b64565b5b604051908082528060200260200182016040528015620002635781602001602082028036833780820191505090505b5090506040815f815181106200027e576200027d62000b91565b5b602002602001019060c68111156200029b576200029a62000bbe565b5b908160c6811115620002b257620002b162000bbe565b5b81525050604081600181518110620002cf57620002ce62000b91565b5b602002602001019060c6811115620002ec57620002eb62000bbe565b5b908160c681111562000303576200030262000bbe565b5b8152505060638160028151811062000320576200031f62000b91565b5b602002602001019060c68111156200033d576200033c62000bbe565b5b908160c681111562000354576200035362000bbe565b5b8152505060418160038151811062000371576200037062000b91565b5b602002602001019060c68111156200038e576200038d62000bbe565b5b908160c6811115620003a557620003a462000bbe565b5b815250505f600367ffffffffffffffff811115620003c857620003c762000b64565b5b604051908082528060200260200182016040528015620003f75781602001602082028036833780820191505090505b5090506040815f8151811062000412576200041162000b91565b5b602002602001019060c68111156200042f576200042e62000bbe565b5b908160c681111562000446576200044562000bbe565b5b8152505060408160018151811062000463576200046262000b91565b5b602002602001019060c681111562000480576200047f62000bbe565b5b908160c681111562000497576200049662000bbe565b5b81525050604081600281518110620004b457620004b362000b91565b5b602002602001019060c6811115620004d157620004d062000bbe565b5b908160c6811115620004e857620004e762000bbe565b5b815250505f600167ffffffffffffffff8111156200050b576200050a62000b64565b5b6040519080825280602002602001820160405280156200053a5781602001602082028036833780820191505090505b50905060c6815f8151811062000555576200055462000b91565b5b602002602001019060c681111562000572576200057162000bbe565b5b908160c681111562000589576200058862000bbe565b5b815250505f600367ffffffffffffffff811115620005ac57620005ab62000b64565b5b604051908082528060200260200182016040528015620005db5781602001602082028036833780820191505090505b5090506041815f81518110620005f657620005f562000b91565b5b602002602001019060c681111562000613576200061262000bbe565b5b908160c68111156200062a576200062962000bbe565b5b8152505060408160018151811062000647576200064662000b91565b5b602002602001019060c681111562000664576200066362000bbe565b5b908160c68111156200067b576200067a62000bbe565b5b8152505060408160028151811062000698576200069762000b91565b5b602002602001019060c6811115620006b557620006b462000bbe565b5b908160c6811115620006cc57620006cb62000bbe565b5b81525050620007666040518060400160405280600b81526020017f706f7374436f6d6d656e740000000000000000000000000000000000000000008152506001885f67ffffffffffffffff8111156200072a576200072962000b64565b5b604051908082528060200260200182016040528015620007595781602001602082028036833780820191505090505b50620009ab60201b60201c565b620007fc6040518060400160405280600d81526020017f64656c657465436f6d6d656e74000000000000000000000000000000000000008152506001875f67ffffffffffffffff811115620007c057620007bf62000b64565b5b604051908082528060200260200182016040528015620007ef5781602001602082028036833780820191505090505b50620009ab60201b60201c565b620008456040518060400160405280600a81526020017f676574436f6d6d656e74000000000000000000000000000000000000000000008152505f8787620009ab60201b60201c565b6200088e6040518060400160405280600b81526020017f676574436f6d6d656e74730000000000000000000000000000000000000000008152505f8585620009ab60201b60201c565b620008d76040518060400160405280601481526020017f676574436f6d6d656e74734279416464726573730000000000000000000000008152505f8385620009ab60201b60201c565b50505050505062000f88565b5f33905090565b5f805f9054906101000a900473ffffffffffffffffffffffffffffffffffffffff169050815f806101000a81548173ffffffffffffffffffffffffffffffffffffffff021916908373ffffffffffffffffffffffffffffffffffffffff1602179055508173ffffffffffffffffffffffffffffffffffffffff168173ffffffffffffffffffffffffffffffffffffffff167f8be0079c531659141344cd1fd0a4f28419497f9722a3daafe3b4186f6b6457e060405160405180910390a35050565b60015f846003811115620009c457620009c362000bbe565b5b6003811115620009d957620009d862000bbe565b5b81526020019081526020015f2084908060018154018082558091505060019003905f5260205f20015f90919091909150908162000a17919062000e22565b508160028560405162000a2b919062000f70565b9081526020016040518091039020908051906020019062000a4e92919062000a8c565b508060038560405162000a62919062000f70565b9081526020016040518091039020908051906020019062000a8592919062000a8c565b5050505050565b828054828255905f5260205f2090601f0160209004810192821562000b34579160200282015f5b8382111562000b0457835183826101000a81548160ff021916908360c681111562000ae35762000ae262000bbe565b5b021790555092602001926001016020815f0104928301926001030262000ab3565b801562000b325782816101000a81549060ff02191690556001016020815f0104928301926001030262000b04565b505b50905062000b43919062000b47565b5090565b5b8082111562000b60575f815f90555060010162000b48565b5090565b7f4e487b71000000000000000000000000000000000000000000000000000000005f52604160045260245ffd5b7f4e487b71000000000000000000000000000000000000000000000000000000005f52603260045260245ffd5b7f4e487b71000000000000000000000000000000000000000000000000000000005f52602160045260245ffd5b5f81519050919050565b7f4e487b71000000000000000000000000000000000000000000000000000000005f52602260045260245ffd5b5f600282049050600182168062000c3a57607f821691505b60208210810362000c505762000c4f62000bf5565b5b50919050565b5f819050815f5260205f209050919050565b5f6020601f8301049050919050565b5f82821b905092915050565b5f6008830262000cb47fffffffffffffffffffffffffffffffffffffffffffffffffffffffffffffffff8262000c77565b62000cc0868362000c77565b95508019841693508086168417925050509392505050565b5f819050919050565b5f819050919050565b5f62000d0a62000d0462000cfe8462000cd8565b62000ce1565b62000cd8565b9050919050565b5f819050919050565b62000d258362000cea565b62000d3d62000d348262000d11565b84845462000c83565b825550505050565b5f90565b62000d5362000d45565b62000d6081848462000d1a565b505050565b5b8181101562000d875762000d7b5f8262000d49565b60018101905062000d66565b5050565b601f82111562000dd65762000da08162000c56565b62000dab8462000c68565b8101602085101562000dbb578190505b62000dd362000dca8562000c68565b83018262000d65565b50505b505050565b5f82821c905092915050565b5f62000df85f198460080262000ddb565b1980831691505092915050565b5f62000e12838362000de7565b9150826002028217905092915050565b62000e2d8262000beb565b67ffffffffffffffff81111562000e495762000e4862000b64565b5b62000e55825462000c22565b62000e6282828562000d8b565b5f60209050601f83116001811462000e98575f841562000e83578287015190505b62000e8f858262000e05565b86555062000efe565b601f19841662000ea88662000c56565b5f5b8281101562000ed15784890151825560018201915060208501945060208101905062000eaa565b8683101562000ef1578489015162000eed601f89168262000de7565b8355505b6001600288020188555050505b505050505050565b5f81905092915050565b5f5b8381101562000f2f57808201518184015260208101905062000f12565b5f8484015250505050565b5f62000f468262000beb565b62000f52818562000f06565b935062000f6481856020860162000f10565b80840191505092915050565b5f62000f7d828462000f3a565b915081905092915050565b6133ef8062000f965f395ff3fe6080604052600436106100c1575f3560e01c8063715018a61161007e578063b6ae042511610058578063b6ae042514610286578063e9536472146102b6578063f2fde38b146102e6578063f4856ccb1461030e576100c1565b8063715018a61461020a5780638da5cb5b14610220578063aff627451461024a576100c1565b80631069143a146100c55780633e413065146100ef5780633eae02b3146101195780634423745414610155578063458ad6d4146101915780636818ba1d146101ce575b5f80fd5b3480156100d0575f80fd5b506100d961034a565b6040516100e6919061205f565b60405180910390f35b3480156100fa575f80fd5b506101036104be565b6040516101109190612097565b60405180910390f35b348015610124575f80fd5b5061013f600480360381019061013a9190612281565b6104c4565b60405161014c91906123aa565b60405180910390f35b348015610160575f80fd5b5061017b600480360381019061017691906123ca565b610543565b604051610188919061251d565b60405180910390f35b34801561019c575f80fd5b506101b760048036038101906101b2919061253d565b6108fc565b6040516101c5929190612662565b60405180910390f35b3480156101d9575f80fd5b506101f460048036038101906101ef9190612697565b610a4a565b604051610201919061251d565b60405180910390f35b348015610215575f80fd5b5061021e610d53565b005b34801561022b575f80fd5b50610234610dda565b60405161024191906126f6565b60405180910390f35b348015610255575f80fd5b50610270600480360381019061026b91906127ad565b610e01565b60405161027d9190612875565b60405180910390f35b6102a0600480360381019061029b91906127ad565b61110e565b6040516102ad9190612875565b60405180910390f35b6102d060048036038101906102cb91906127ad565b6116db565b6040516102dd9190612875565b60405180910390f35b3480156102f1575f80fd5b5061030c60048036038101906103079190612895565b611707565b005b348015610319575f80fd5b50610334600480360381019061032f91906128e3565b6117fd565b604051610341919061251d565b60405180910390f35b60605f600467ffffffffffffffff81111561036857610367612103565b5b6040519080825280602002602001820160405280156103965781602001602082028036833780820191505090505b5090505f815f815181106103ad576103ac61290e565b5b602002602001019060038111156103c7576103c6611f6d565b5b908160038111156103db576103da611f6d565b5b815250506001816001815181106103f5576103f461290e565b5b6020026020010190600381111561040f5761040e611f6d565b5b9081600381111561042357610422611f6d565b5b8152505060028160028151811061043d5761043c61290e565b5b6020026020010190600381111561045757610456611f6d565b5b9081600381111561046b5761046a611f6d565b5b815250506003816003815181106104855761048461290e565b5b6020026020010190600381111561049f5761049e611f6d565b5b908160038111156104b3576104b2611f6d565b5b815250508091505090565b60045481565b60606104cf86611906565b6104d886611906565b6104e186611a5f565b6104ea86611a5f565b61050b8673ffffffffffffffffffffffffffffffffffffffff166014611bef565b61051442611906565b604051602001610529969594939291906129bf565b604051602081830303815290604052905095945050505050565b60605f60065f8673ffffffffffffffffffffffffffffffffffffffff1673ffffffffffffffffffffffffffffffffffffffff1681526020019081526020015f2054036105e3575f8067ffffffffffffffff8111156105a4576105a3612103565b5b6040519080825280602002602001820160405280156105d757816020015b60608152602001906001900390816105c25790505b509050809150506108f5565b60018311801561065257506001836105fb9190612a7a565b82600160065f8873ffffffffffffffffffffffffffffffffffffffff1673ffffffffffffffffffffffffffffffffffffffff1681526020019081526020015f20546106469190612a7a565b6106509190612ada565b105b156106b1575f8067ffffffffffffffff81111561067257610671612103565b5b6040519080825280602002602001820160405280156106a557816020015b60608152602001906001900390816106905790505b509050809150506108f5565b5f805f90505f846001876106c59190612a7a565b6106cf9190612b0a565b600160065f8a73ffffffffffffffffffffffffffffffffffffffff1673ffffffffffffffffffffffffffffffffffffffff1681526020019081526020015f20546107199190612a7a565b6107239190612a7a565b90505f85821015610745575f905060018261073e9190612b4b565b9350610763565b600186836107539190612a7a565b61075d9190612b4b565b90508593505b5f8467ffffffffffffffff81111561077e5761077d612103565b5b6040519080825280602002602001820160405280156107b157816020015b606081526020019060019003908161079c5790505b5090505f8390505b8281126108eb575f60085f8c73ffffffffffffffffffffffffffffffffffffffff1673ffffffffffffffffffffffffffffffffffffffff1681526020019081526020015f205f8381526020019081526020015f2054905060095f8281526020019081526020015f20600201805461082f90612bab565b80601f016020809104026020016040519081016040528092919081815260200182805461085b90612bab565b80156108a65780601f1061087d576101008083540402835291602001916108a6565b820191905f5260205f20905b81548152906001019060200180831161088957829003601f168201915b50505050508387815181106108be576108bd61290e565b5b602002602001018190525085806108d490612bdb565b9650505080806108e390612c2b565b9150506107b9565b5080955050505050505b9392505050565b60608060028360405161090f9190612c72565b908152602001604051809103902060038460405161092d9190612c72565b9081526020016040518091039020818054806020026020016040519081016040528092919081815260200182805480156109b757602002820191905f5260205f20905f905b82829054906101000a900460ff1660c681111561099257610991611f6d565b5b815260200190600101906020825f010492830192600103820291508084116109725790505b5050505050915080805480602002602001604051908101604052809291908181526020018280548015610a3a57602002820191905f5260205f20905f905b82829054906101000a900460ff1660c6811115610a1557610a14611f6d565b5b815260200190600101906020825f010492830192600103820291508084116109f55790505b5050505050905091509150915091565b60605f60055f8681526020019081526020015f205403610abe575f8067ffffffffffffffff811115610a7f57610a7e612103565b5b604051908082528060200260200182016040528015610ab257816020015b6060815260200190600190039081610a9d5790505b50905080915050610d4c565b600183118015610b015750600183610ad69190612a7a565b82600160055f8881526020019081526020015f2054610af59190612a7a565b610aff9190612ada565b105b15610b60575f8067ffffffffffffffff811115610b2157610b20612103565b5b604051908082528060200260200182016040528015610b5457816020015b6060815260200190600190039081610b3f5790505b50905080915050610d4c565b5f805f90505f84600187610b749190612a7a565b610b7e9190612b0a565b600160055f8a81526020019081526020015f2054610b9c9190612a7a565b610ba69190612a7a565b90505f85821015610bc8575f9050600182610bc19190612b4b565b9350610be6565b60018683610bd69190612a7a565b610be09190612b4b565b90508593505b5f8467ffffffffffffffff811115610c0157610c00612103565b5b604051908082528060200260200182016040528015610c3457816020015b6060815260200190600190039081610c1f5790505b5090505f8390505b828112610d42575f60075f8c81526020019081526020015f205f8381526020019081526020015f2054905060095f8281526020019081526020015f206002018054610c8690612bab565b80601f0160208091040260200160405190810160405280929190818152602001828054610cb290612bab565b8015610cfd5780601f10610cd457610100808354040283529160200191610cfd565b820191905f5260205f20905b815481529060010190602001808311610ce057829003601f168201915b5050505050838781518110610d1557610d1461290e565b5b60200260200101819052508580610d2b90612bdb565b965050508080610d3a90612c2b565b915050610c3c565b5080955050505050505b9392505050565b610d5b611e24565b73ffffffffffffffffffffffffffffffffffffffff16610d79610dda565b73ffffffffffffffffffffffffffffffffffffffff1614610dcf576040517f08c379a0000000000000000000000000000000000000000000000000000000008152600401610dc690612cd2565b60405180910390fd5b610dd85f611e2b565b565b5f805f9054906101000a900473ffffffffffffffffffffffffffffffffffffffff16905090565b6060610e42836040518060400160405280600a81526020017f676574436f6d6d656e7400000000000000000000000000000000000000000000815250611eec565b15610fb3575f82806020019051810190610e5c9190612d04565b90505f60095f8381526020019081526020015f206040518060800160405290815f820154815260200160018201548152602001600282018054610e9e90612bab565b80601f0160208091040260200160405190810160405280929190818152602001828054610eca90612bab565b8015610f155780601f10610eec57610100808354040283529160200191610f15565b820191905f5260205f20905b815481529060010190602001808311610ef857829003601f168201915b50505050508152602001600382015f9054906101000a900473ffffffffffffffffffffffffffffffffffffffff1673ffffffffffffffffffffffffffffffffffffffff1673ffffffffffffffffffffffffffffffffffffffff16815250509050805f0151816020015182604001518360600151604051602001610f9b9493929190612d2f565b60405160208183030381529060405292505050611108565b610ff2836040518060400160405280600b81526020017f676574436f6d6d656e7473000000000000000000000000000000000000000000815250611eec565b1561104d575f805f8480602001905181019061100e9190612d79565b9250925092505f611020848484610a4a565b905080604051602001611033919061251d565b604051602081830303815290604052945050505050611108565b61108c836040518060400160405280601481526020017f676574436f6d6d656e7473427941646472657373000000000000000000000000815250611eec565b156110e7575f805f848060200190518101906110a89190612e04565b9250925092505f6110ba848484610543565b9050806040516020016110cd919061251d565b604051602081830303815290604052945050505050611108565b6040516020016110f690612e77565b60405160208183030381529060405290505b92915050565b606061114f836040518060400160405280600b81526020017f706f7374436f6d6d656e74000000000000000000000000000000000000000000815250611eec565b1561141c575f805f8480602001905181019061116b9190612f03565b9250925092505f611181846004548585336104c4565b90505f60055f8681526020019081526020015f205490505f60065f3373ffffffffffffffffffffffffffffffffffffffff1673ffffffffffffffffffffffffffffffffffffffff1681526020019081526020015f205490503373ffffffffffffffffffffffffffffffffffffffff16600454877f9bc96546b626861a7c121121feba6787ee7e05c143ebc7c55ed8fbc660448c908660405161122391906123aa565b60405180910390a4604051806080016040528087815260200160045481526020018481526020013373ffffffffffffffffffffffffffffffffffffffff1681525060095f60045481526020019081526020015f205f820151815f015560208201518160010155604082015181600201908161129e9190613128565b506060820151816003015f6101000a81548173ffffffffffffffffffffffffffffffffffffffff021916908373ffffffffffffffffffffffffffffffffffffffff16021790555090505060045460075f8881526020019081526020015f205f8481526020019081526020015f208190555060045460085f3373ffffffffffffffffffffffffffffffffffffffff1673ffffffffffffffffffffffffffffffffffffffff1681526020019081526020015f205f8381526020019081526020015f208190555060055f8781526020019081526020015f205f81548092919061138390612bdb565b919050555060065f3373ffffffffffffffffffffffffffffffffffffffff1673ffffffffffffffffffffffffffffffffffffffff1681526020019081526020015f205f8154809291906113d590612bdb565b919050555060045f8154809291906113ec90612bdb565b919050555060405160200161140090612e77565b60405160208183030381529060405296505050505050506116d5565b61145b836040518060400160405280600d81526020017f64656c657465436f6d6d656e7400000000000000000000000000000000000000815250611eec565b156116b4575f828060200190518101906114759190612d04565b90505f60095f8381526020019081526020015f206040518060800160405290815f8201548152602001600182015481526020016002820180546114b790612bab565b80601f01602080910402602001604051908101604052809291908181526020018280546114e390612bab565b801561152e5780601f106115055761010080835404028352916020019161152e565b820191905f5260205f20905b81548152906001019060200180831161151157829003601f168201915b50505050508152602001600382015f9054906101000a900473ffffffffffffffffffffffffffffffffffffffff1673ffffffffffffffffffffffffffffffffffffffff1673ffffffffffffffffffffffffffffffffffffffff168152505090503373ffffffffffffffffffffffffffffffffffffffff16816060015173ffffffffffffffffffffffffffffffffffffffff1614806115fe57506115cf610dda565b73ffffffffffffffffffffffffffffffffffffffff163373ffffffffffffffffffffffffffffffffffffffff16145b611606575f80fd5b5f611637825f01518460405180602001604052805f81525060405180602001604052805f81525086606001516104c4565b90508060095f8581526020019081526020015f20600201908161165a9190613128565b5082825f01517f39fe72d1f4e19f77042a77bebb13e9015b3d5c334c8b5f5ddca187d9b15a39fa60405160405180910390a360405160200161169b90612e77565b60405160208183030381529060405293505050506116d5565b6040516020016116c390612e77565b60405160208183030381529060405290505b92915050565b606082826040516020016116f09291906131f7565b604051602081830303815290604052905092915050565b61170f611e24565b73ffffffffffffffffffffffffffffffffffffffff1661172d610dda565b73ffffffffffffffffffffffffffffffffffffffff1614611783576040517f08c379a000000000000000000000000000000000000000000000000000000000815260040161177a90612cd2565b60405180910390fd5b5f73ffffffffffffffffffffffffffffffffffffffff168173ffffffffffffffffffffffffffffffffffffffff16036117f1576040517f08c379a00000000000000000000000000000000000000000000000000000000081526004016117e89061329c565b60405180910390fd5b6117fa81611e2b565b50565b606060015f83600381111561181557611814611f6d565b5b600381111561182757611826611f6d565b5b81526020019081526020015f20805480602002602001604051908101604052809291908181526020015f905b828210156118fb578382905f5260205f2001805461187090612bab565b80601f016020809104026020016040519081016040528092919081815260200182805461189c90612bab565b80156118e75780601f106118be576101008083540402835291602001916118e7565b820191905f5260205f20905b8154815290600101906020018083116118ca57829003601f168201915b505050505081526020019060010190611853565b505050509050919050565b60605f820361194c576040518060400160405280600181526020017f30000000000000000000000000000000000000000000000000000000000000008152509050611a5a565b5f8290505f5b5f821461197b57808061196490612bdb565b915050600a826119749190612ada565b9150611952565b5f8167ffffffffffffffff81111561199657611995612103565b5b6040519080825280601f01601f1916602001820160405280156119c85781602001600182028036833780820191505090505b5090505b5f8514611a53576001826119e09190612a7a565b9150600a856119ef91906132ba565b60306119fb9190612b4b565b60f81b818381518110611a1157611a1061290e565b5b60200101907effffffffffffffffffffffffffffffffffffffffffffffffffffffffffffff191690815f1a905350600a85611a4c9190612ada565b94506119cc565b8093505050505b919050565b60605f825190505f8103611a845760405180602001604052805f815250915050611bea565b5f6003600283611a949190612b4b565b611a9e9190612ada565b6004611aaa9190612b0a565b90505f602082611aba9190612b4b565b67ffffffffffffffff811115611ad357611ad2612103565b5b6040519080825280601f01601f191660200182016040528015611b055781602001600182028036833780820191505090505b5090505f60405180606001604052806040815260200161337a60409139905060018101602083015f5b86811015611ba75760038101905062ffffff818a015116603f8160121c168401518060081b905060ff603f83600c1c1686015116810190508060081b905060ff603f8360061c1686015116810190508060081b905060ff603f831686015116810190508060e01b90508084526004840193505050611b2e565b506003860660018114611bc15760028114611bd157611bdc565b613d3d60f01b6002830352611bdc565b603d60f81b60018303525b508484525050819450505050505b919050565b60605f6002836002611c019190612b0a565b611c0b9190612b4b565b67ffffffffffffffff811115611c2457611c23612103565b5b6040519080825280601f01601f191660200182016040528015611c565781602001600182028036833780820191505090505b5090507f3000000000000000000000000000000000000000000000000000000000000000815f81518110611c8d57611c8c61290e565b5b60200101907effffffffffffffffffffffffffffffffffffffffffffffffffffffffffffff191690815f1a9053507f780000000000000000000000000000000000000000000000000000000000000081600181518110611cf057611cef61290e565b5b60200101907effffffffffffffffffffffffffffffffffffffffffffffffffffffffffffff191690815f1a9053505f6001846002611d2e9190612b0a565b611d389190612b4b565b90505b6001811115611dd7577f3031323334353637383961626364656600000000000000000000000000000000600f861660108110611d7a57611d7961290e565b5b1a60f81b828281518110611d9157611d9061290e565b5b60200101907effffffffffffffffffffffffffffffffffffffffffffffffffffffffffffff191690815f1a905350600485901c945080611dd0906132ea565b9050611d3b565b505f8414611e1a576040517f08c379a0000000000000000000000000000000000000000000000000000000008152600401611e119061335b565b60405180910390fd5b8091505092915050565b5f33905090565b5f805f9054906101000a900473ffffffffffffffffffffffffffffffffffffffff169050815f806101000a81548173ffffffffffffffffffffffffffffffffffffffff021916908373ffffffffffffffffffffffffffffffffffffffff1602179055508173ffffffffffffffffffffffffffffffffffffffff168173ffffffffffffffffffffffffffffffffffffffff167f8be0079c531659141344cd1fd0a4f28419497f9722a3daafe3b4186f6b6457e060405160405180910390a35050565b5f81604051602001611efe9190612c72565b6040516020818303038152906040528051906020012083604051602001611f259190612c72565b6040516020818303038152906040528051906020012014905092915050565b5f81519050919050565b5f82825260208201905092915050565b5f819050602082019050919050565b7f4e487b71000000000000000000000000000000000000000000000000000000005f52602160045260245ffd5b60048110611fab57611faa611f6d565b5b50565b5f819050611fbb82611f9a565b919050565b5f611fca82611fae565b9050919050565b611fda81611fc0565b82525050565b5f611feb8383611fd1565b60208301905092915050565b5f602082019050919050565b5f61200d82611f44565b6120178185611f4e565b935061202283611f5e565b805f5b838110156120525781516120398882611fe0565b975061204483611ff7565b925050600181019050612025565b5085935050505092915050565b5f6020820190508181035f8301526120778184612003565b905092915050565b5f819050919050565b6120918161207f565b82525050565b5f6020820190506120aa5f830184612088565b92915050565b5f604051905090565b5f80fd5b5f80fd5b6120ca8161207f565b81146120d4575f80fd5b50565b5f813590506120e5816120c1565b92915050565b5f80fd5b5f80fd5b5f601f19601f8301169050919050565b7f4e487b71000000000000000000000000000000000000000000000000000000005f52604160045260245ffd5b612139826120f3565b810181811067ffffffffffffffff8211171561215857612157612103565b5b80604052505050565b5f61216a6120b0565b90506121768282612130565b919050565b5f67ffffffffffffffff82111561219557612194612103565b5b61219e826120f3565b9050602081019050919050565b828183375f83830152505050565b5f6121cb6121c68461217b565b612161565b9050828152602081018484840111156121e7576121e66120ef565b5b6121f28482856121ab565b509392505050565b5f82601f83011261220e5761220d6120eb565b5b813561221e8482602086016121b9565b91505092915050565b5f73ffffffffffffffffffffffffffffffffffffffff82169050919050565b5f61225082612227565b9050919050565b61226081612246565b811461226a575f80fd5b50565b5f8135905061227b81612257565b92915050565b5f805f805f60a0868803121561229a576122996120b9565b5b5f6122a7888289016120d7565b95505060206122b8888289016120d7565b945050604086013567ffffffffffffffff8111156122d9576122d86120bd565b5b6122e5888289016121fa565b935050606086013567ffffffffffffffff811115612306576123056120bd565b5b612312888289016121fa565b92505060806123238882890161226d565b9150509295509295909350565b5f81519050919050565b5f82825260208201905092915050565b5f5b8381101561236757808201518184015260208101905061234c565b5f8484015250505050565b5f61237c82612330565b612386818561233a565b935061239681856020860161234a565b61239f816120f3565b840191505092915050565b5f6020820190508181035f8301526123c28184612372565b905092915050565b5f805f606084860312156123e1576123e06120b9565b5b5f6123ee8682870161226d565b93505060206123ff868287016120d7565b9250506040612410868287016120d7565b9150509250925092565b5f81519050919050565b5f82825260208201905092915050565b5f819050602082019050919050565b5f82825260208201905092915050565b5f61245d82612330565b6124678185612443565b935061247781856020860161234a565b612480816120f3565b840191505092915050565b5f6124968383612453565b905092915050565b5f602082019050919050565b5f6124b48261241a565b6124be8185612424565b9350836020820285016124d085612434565b805f5b8581101561250b57848403895281516124ec858261248b565b94506124f78361249e565b925060208a019950506001810190506124d3565b50829750879550505050505092915050565b5f6020820190508181035f83015261253581846124aa565b905092915050565b5f60208284031215612552576125516120b9565b5b5f82013567ffffffffffffffff81111561256f5761256e6120bd565b5b61257b848285016121fa565b91505092915050565b5f81519050919050565b5f819050602082019050919050565b60c781106125ae576125ad611f6d565b5b50565b5f8190506125be8261259d565b919050565b5f6125cd826125b1565b9050919050565b6125dd816125c3565b82525050565b5f6125ee83836125d4565b60208301905092915050565b5f602082019050919050565b5f61261082612584565b61261a8185611f4e565b93506126258361258e565b805f5b8381101561265557815161263c88826125e3565b9750612647836125fa565b925050600181019050612628565b5085935050505092915050565b5f6040820190508181035f83015261267a8185612606565b9050818103602083015261268e8184612606565b90509392505050565b5f805f606084860312156126ae576126ad6120b9565b5b5f6126bb868287016120d7565b93505060206126cc868287016120d7565b92505060406126dd868287016120d7565b9150509250925092565b6126f081612246565b82525050565b5f6020820190506127095f8301846126e7565b92915050565b5f67ffffffffffffffff82111561272957612728612103565b5b612732826120f3565b9050602081019050919050565b5f61275161274c8461270f565b612161565b90508281526020810184848401111561276d5761276c6120ef565b5b6127788482856121ab565b509392505050565b5f82601f830112612794576127936120eb565b5b81356127a484826020860161273f565b91505092915050565b5f80604083850312156127c3576127c26120b9565b5b5f83013567ffffffffffffffff8111156127e0576127df6120bd565b5b6127ec858286016121fa565b925050602083013567ffffffffffffffff81111561280d5761280c6120bd565b5b61281985828601612780565b9150509250929050565b5f81519050919050565b5f82825260208201905092915050565b5f61284782612823565b612851818561282d565b935061286181856020860161234a565b61286a816120f3565b840191505092915050565b5f6020820190508181035f83015261288d818461283d565b905092915050565b5f602082840312156128aa576128a96120b9565b5b5f6128b78482850161226d565b91505092915050565b600481106128cc575f80fd5b50565b5f813590506128dd816128c0565b92915050565b5f602082840312156128f8576128f76120b9565b5b5f612905848285016128cf565b91505092915050565b7f4e487b71000000000000000000000000000000000000000000000000000000005f52603260045260245ffd5b5f81905092915050565b5f61294f82612330565b612959818561293b565b935061296981856020860161234a565b80840191505092915050565b7f2c000000000000000000000000000000000000000000000000000000000000005f82015250565b5f6129a960018361293b565b91506129b482612975565b600182019050919050565b5f6129ca8289612945565b91506129d58261299d565b91506129e18288612945565b91506129ec8261299d565b91506129f88287612945565b9150612a038261299d565b9150612a0f8286612945565b9150612a1a8261299d565b9150612a268285612945565b9150612a318261299d565b9150612a3d8284612945565b9150819050979650505050505050565b7f4e487b71000000000000000000000000000000000000000000000000000000005f52601160045260245ffd5b5f612a848261207f565b9150612a8f8361207f565b9250828203905081811115612aa757612aa6612a4d565b5b92915050565b7f4e487b71000000000000000000000000000000000000000000000000000000005f52601260045260245ffd5b5f612ae48261207f565b9150612aef8361207f565b925082612aff57612afe612aad565b5b828204905092915050565b5f612b148261207f565b9150612b1f8361207f565b9250828202612b2d8161207f565b91508282048414831517612b4457612b43612a4d565b5b5092915050565b5f612b558261207f565b9150612b608361207f565b9250828201905080821115612b7857612b77612a4d565b5b92915050565b7f4e487b71000000000000000000000000000000000000000000000000000000005f52602260045260245ffd5b5f6002820490506001821680612bc257607f821691505b602082108103612bd557612bd4612b7e565b5b50919050565b5f612be58261207f565b91507fffffffffffffffffffffffffffffffffffffffffffffffffffffffffffffffff8203612c1757612c16612a4d565b5b600182019050919050565b5f819050919050565b5f612c3582612c22565b91507f80000000000000000000000000000000000000000000000000000000000000008203612c6757612c66612a4d565b5b600182039050919050565b5f612c7d8284612945565b915081905092915050565b7f4f776e61626c653a2063616c6c6572206973206e6f7420746865206f776e65725f82015250565b5f612cbc60208361233a565b9150612cc782612c88565b602082019050919050565b5f6020820190508181035f830152612ce981612cb0565b9050919050565b5f81519050612cfe816120c1565b92915050565b5f60208284031215612d1957612d186120b9565b5b5f612d2684828501612cf0565b91505092915050565b5f608082019050612d425f830187612088565b612d4f6020830186612088565b8181036040830152612d618185612372565b9050612d7060608301846126e7565b95945050505050565b5f805f60608486031215612d9057612d8f6120b9565b5b5f612d9d86828701612cf0565b9350506020612dae86828701612cf0565b9250506040612dbf86828701612cf0565b9150509250925092565b5f612dd382612227565b9050919050565b612de381612dc9565b8114612ded575f80fd5b50565b5f81519050612dfe81612dda565b92915050565b5f805f60608486031215612e1b57612e1a6120b9565b5b5f612e2886828701612df0565b9350506020612e3986828701612cf0565b9250506040612e4a86828701612cf0565b9150509250925092565b50565b5f612e625f8361233a565b9150612e6d82612e54565b5f82019050919050565b5f6020820190508181035f830152612e8e81612e57565b9050919050565b5f612ea7612ea28461217b565b612161565b905082815260208101848484011115612ec357612ec26120ef565b5b612ece84828561234a565b509392505050565b5f82601f830112612eea57612ee96120eb565b5b8151612efa848260208601612e95565b91505092915050565b5f805f60608486031215612f1a57612f196120b9565b5b5f612f2786828701612cf0565b935050602084015167ffffffffffffffff811115612f4857612f476120bd565b5b612f5486828701612ed6565b925050604084015167ffffffffffffffff811115612f7557612f746120bd565b5b612f8186828701612ed6565b9150509250925092565b5f819050815f5260205f209050919050565b5f6020601f8301049050919050565b5f82821b905092915050565b5f60088302612fe77fffffffffffffffffffffffffffffffffffffffffffffffffffffffffffffffff82612fac565b612ff18683612fac565b95508019841693508086168417925050509392505050565b5f819050919050565b5f61302c6130276130228461207f565b613009565b61207f565b9050919050565b5f819050919050565b61304583613012565b61305961305182613033565b848454612fb8565b825550505050565b5f90565b61306d613061565b61307881848461303c565b505050565b5b8181101561309b576130905f82613065565b60018101905061307e565b5050565b601f8211156130e0576130b181612f8b565b6130ba84612f9d565b810160208510156130c9578190505b6130dd6130d585612f9d565b83018261307d565b50505b505050565b5f82821c905092915050565b5f6131005f19846008026130e5565b1980831691505092915050565b5f61311883836130f1565b9150826002028217905092915050565b61313182612330565b67ffffffffffffffff81111561314a57613149612103565b5b6131548254612bab565b61315f82828561309f565b5f60209050601f831160018114613190575f841561317e578287015190505b613188858261310d565b8655506131ef565b601f19841661319e86612f8b565b5f5b828110156131c5578489015182556001820191506020850194506020810190506131a0565b868310156131e257848901516131de601f8916826130f1565b8355505b6001600288020188555050505b505050505050565b5f6040820190508181035f83015261320f8185612372565b90508181036020830152613223818461283d565b90509392505050565b7f4f776e61626c653a206e6577206f776e657220697320746865207a65726f20615f8201527f6464726573730000000000000000000000000000000000000000000000000000602082015250565b5f61328660268361233a565b91506132918261322c565b604082019050919050565b5f6020820190508181035f8301526132b38161327a565b9050919050565b5f6132c48261207f565b91506132cf8361207f565b9250826132df576132de612aad565b5b828206905092915050565b5f6132f48261207f565b91505f820361330657613305612a4d565b5b600182039050919050565b7f537472696e67733a20686578206c656e67746820696e73756666696369656e745f82015250565b5f61334560208361233a565b915061335082613311565b602082019050919050565b5f6020820190508181035f83015261337281613339565b905091905056fe4142434445464748494a4b4c4d4e4f505152535455565758595a6162636465666768696a6b6c6d6e6f707172737475767778797a303132333435363738392b2fa26469706673582212208588a0b549d08cf1e2305724580e41e99fc83d56e044df360be68a9a264bba6c64736f6c63430008160033",
					"opcodes": "PUSH1 0x80 PUSH1 0x40 MSTORE CALLVALUE DUP1 ISZERO PUSH3 0x10 JUMPI PUSH0 DUP1 REVERT JUMPDEST POP PUSH3 0x31 PUSH3 0x25 PUSH3 0x8E3 PUSH1 0x20 SHL PUSH1 0x20 SHR JUMP JUMPDEST PUSH3 0x8EA PUSH1 0x20 SHL PUSH1 0x20 SHR JUMP JUMPDEST PUSH0 PUSH1 0x3 PUSH8 0xFFFFFFFFFFFFFFFF DUP2 GT ISZERO PUSH3 0x50 JUMPI PUSH3 0x4F PUSH3 0xB64 JUMP JUMPDEST JUMPDEST PUSH1 0x40 MLOAD SWAP1 DUP1 DUP3 MSTORE DUP1 PUSH1 0x20 MUL PUSH1 0x20 ADD DUP3 ADD PUSH1 0x40 MSTORE DUP1 ISZERO PUSH3 0x7F JUMPI DUP2 PUSH1 0x20 ADD PUSH1 0x20 DUP3 MUL DUP1 CALLDATASIZE DUP4 CALLDATACOPY DUP1 DUP3 ADD SWAP2 POP POP SWAP1 POP JUMPDEST POP SWAP1 POP PUSH1 0x40 DUP2 PUSH0 DUP2 MLOAD DUP2 LT PUSH3 0x9A JUMPI PUSH3 0x99 PUSH3 0xB91 JUMP JUMPDEST JUMPDEST PUSH1 0x20 MUL PUSH1 0x20 ADD ADD SWAP1 PUSH1 0xC6 DUP2 GT ISZERO PUSH3 0xB7 JUMPI PUSH3 0xB6 PUSH3 0xBBE JUMP JUMPDEST JUMPDEST SWAP1 DUP2 PUSH1 0xC6 DUP2 GT ISZERO PUSH3 0xCE JUMPI PUSH3 0xCD PUSH3 0xBBE JUMP JUMPDEST JUMPDEST DUP2 MSTORE POP POP PUSH1 0x63 DUP2 PUSH1 0x1 DUP2 MLOAD DUP2 LT PUSH3 0xEB JUMPI PUSH3 0xEA PUSH3 0xB91 JUMP JUMPDEST JUMPDEST PUSH1 0x20 MUL PUSH1 0x20 ADD ADD SWAP1 PUSH1 0xC6 DUP2 GT ISZERO PUSH3 0x108 JUMPI PUSH3 0x107 PUSH3 0xBBE JUMP JUMPDEST JUMPDEST SWAP1 DUP2 PUSH1 0xC6 DUP2 GT ISZERO PUSH3 0x11F JUMPI PUSH3 0x11E PUSH3 0xBBE JUMP JUMPDEST JUMPDEST DUP2 MSTORE POP POP PUSH1 0x63 DUP2 PUSH1 0x2 DUP2 MLOAD DUP2 LT PUSH3 0x13C JUMPI PUSH3 0x13B PUSH3 0xB91 JUMP JUMPDEST JUMPDEST PUSH1 0x20 MUL PUSH1 0x20 ADD ADD SWAP1 PUSH1 0xC6 DUP2 GT ISZERO PUSH3 0x159 JUMPI PUSH3 0x158 PUSH3 0xBBE JUMP JUMPDEST JUMPDEST SWAP1 DUP2 PUSH1 0xC6 DUP2 GT ISZERO PUSH3 0x170 JUMPI PUSH3 0x16F PUSH3 0xBBE JUMP JUMPDEST JUMPDEST DUP2 MSTORE POP POP PUSH0 PUSH1 0x1 PUSH8 0xFFFFFFFFFFFFFFFF DUP2 GT ISZERO PUSH3 0x193 JUMPI PUSH3 0x192 PUSH3 0xB64 JUMP JUMPDEST JUMPDEST PUSH1 0x40 MLOAD SWAP1 DUP1 DUP3 MSTORE DUP1 PUSH1 0x20 MUL PUSH1 0x20 ADD DUP3 ADD PUSH1 0x40 MSTORE DUP1 ISZERO PUSH3 0x1C2 JUMPI DUP2 PUSH1 0x20 ADD PUSH1 0x20 DUP3 MUL DUP1 CALLDATASIZE DUP4 CALLDATACOPY DUP1 DUP3 ADD SWAP2 POP POP SWAP1 POP JUMPDEST POP SWAP1 POP PUSH1 0x40 DUP2 PUSH0 DUP2 MLOAD DUP2 LT PUSH3 0x1DD JUMPI PUSH3 0x1DC PUSH3 0xB91 JUMP JUMPDEST JUMPDEST PUSH1 0x20 MUL PUSH1 0x20 ADD ADD SWAP1 PUSH1 0xC6 DUP2 GT ISZERO PUSH3 0x1FA JUMPI PUSH3 0x1F9 PUSH3 0xBBE JUMP JUMPDEST JUMPDEST SWAP1 DUP2 PUSH1 0xC6 DUP2 GT ISZERO PUSH3 0x211 JUMPI PUSH3 0x210 PUSH3 0xBBE JUMP JUMPDEST JUMPDEST DUP2 MSTORE POP POP PUSH0 PUSH1 0x4 PUSH8 0xFFFFFFFFFFFFFFFF DUP2 GT ISZERO PUSH3 0x234 JUMPI PUSH3 0x233 PUSH3 0xB64 JUMP JUMPDEST JUMPDEST PUSH1 0x40 MLOAD SWAP1 DUP1 DUP3 MSTORE DUP1 PUSH1 0x20 MUL PUSH1 0x20 ADD DUP3 ADD PUSH1 0x40 MSTORE DUP1 ISZERO PUSH3 0x263 JUMPI DUP2 PUSH1 0x20 ADD PUSH1 0x20 DUP3 MUL DUP1 CALLDATASIZE DUP4 CALLDATACOPY DUP1 DUP3 ADD SWAP2 POP POP SWAP1 POP JUMPDEST POP SWAP1 POP PUSH1 0x40 DUP2 PUSH0 DUP2 MLOAD DUP2 LT PUSH3 0x27E JUMPI PUSH3 0x27D PUSH3 0xB91 JUMP JUMPDEST JUMPDEST PUSH1 0x20 MUL PUSH1 0x20 ADD ADD SWAP1 PUSH1 0xC6 DUP2 GT ISZERO PUSH3 0x29B JUMPI PUSH3 0x29A PUSH3 0xBBE JUMP JUMPDEST JUMPDEST SWAP1 DUP2 PUSH1 0xC6 DUP2 GT ISZERO PUSH3 0x2B2 JUMPI PUSH3 0x2B1 PUSH3 0xBBE JUMP JUMPDEST JUMPDEST DUP2 MSTORE POP POP PUSH1 0x40 DUP2 PUSH1 0x1 DUP2 MLOAD DUP2 LT PUSH3 0x2CF JUMPI PUSH3 0x2CE PUSH3 0xB91 JUMP JUMPDEST JUMPDEST PUSH1 0x20 MUL PUSH1 0x20 ADD ADD SWAP1 PUSH1 0xC6 DUP2 GT ISZERO PUSH3 0x2EC JUMPI PUSH3 0x2EB PUSH3 0xBBE JUMP JUMPDEST JUMPDEST SWAP1 DUP2 PUSH1 0xC6 DUP2 GT ISZERO PUSH3 0x303 JUMPI PUSH3 0x302 PUSH3 0xBBE JUMP JUMPDEST JUMPDEST DUP2 MSTORE POP POP PUSH1 0x63 DUP2 PUSH1 0x2 DUP2 MLOAD DUP2 LT PUSH3 0x320 JUMPI PUSH3 0x31F PUSH3 0xB91 JUMP JUMPDEST JUMPDEST PUSH1 0x20 MUL PUSH1 0x20 ADD ADD SWAP1 PUSH1 0xC6 DUP2 GT ISZERO PUSH3 0x33D JUMPI PUSH3 0x33C PUSH3 0xBBE JUMP JUMPDEST JUMPDEST SWAP1 DUP2 PUSH1 0xC6 DUP2 GT ISZERO PUSH3 0x354 JUMPI PUSH3 0x353 PUSH3 0xBBE JUMP JUMPDEST JUMPDEST DUP2 MSTORE POP POP PUSH1 0x41 DUP2 PUSH1 0x3 DUP2 MLOAD DUP2 LT PUSH3 0x371 JUMPI PUSH3 0x370 PUSH3 0xB91 JUMP JUMPDEST JUMPDEST PUSH1 0x20 MUL PUSH1 0x20 ADD ADD SWAP1 PUSH1 0xC6 DUP2 GT ISZERO PUSH3 0x38E JUMPI PUSH3 0x38D PUSH3 0xBBE JUMP JUMPDEST JUMPDEST SWAP1 DUP2 PUSH1 0xC6 DUP2 GT ISZERO PUSH3 0x3A5 JUMPI PUSH3 0x3A4 PUSH3 0xBBE JUMP JUMPDEST JUMPDEST DUP2 MSTORE POP POP PUSH0 PUSH1 0x3 PUSH8 0xFFFFFFFFFFFFFFFF DUP2 GT ISZERO PUSH3 0x3C8 JUMPI PUSH3 0x3C7 PUSH3 0xB64 JUMP JUMPDEST JUMPDEST PUSH1 0x40 MLOAD SWAP1 DUP1 DUP3 MSTORE DUP1 PUSH1 0x20 MUL PUSH1 0x20 ADD DUP3 ADD PUSH1 0x40 MSTORE DUP1 ISZERO PUSH3 0x3F7 JUMPI DUP2 PUSH1 0x20 ADD PUSH1 0x20 DUP3 MUL DUP1 CALLDATASIZE DUP4 CALLDATACOPY DUP1 DUP3 ADD SWAP2 POP POP SWAP1 POP JUMPDEST POP SWAP1 POP PUSH1 0x40 DUP2 PUSH0 DUP2 MLOAD DUP2 LT PUSH3 0x412 JUMPI PUSH3 0x411 PUSH3 0xB91 JUMP JUMPDEST JUMPDEST PUSH1 0x20 MUL PUSH1 0x20 ADD ADD SWAP1 PUSH1 0xC6 DUP2 GT ISZERO PUSH3 0x42F JUMPI PUSH3 0x42E PUSH3 0xBBE JUMP JUMPDEST JUMPDEST SWAP1 DUP2 PUSH1 0xC6 DUP2 GT ISZERO PUSH3 0x446 JUMPI PUSH3 0x445 PUSH3 0xBBE JUMP JUMPDEST JUMPDEST DUP2 MSTORE POP POP PUSH1 0x40 DUP2 PUSH1 0x1 DUP2 MLOAD DUP2 LT PUSH3 0x463 JUMPI PUSH3 0x462 PUSH3 0xB91 JUMP JUMPDEST JUMPDEST PUSH1 0x20 MUL PUSH1 0x20 ADD ADD SWAP1 PUSH1 0xC6 DUP2 GT ISZERO PUSH3 0x480 JUMPI PUSH3 0x47F PUSH3 0xBBE JUMP JUMPDEST JUMPDEST SWAP1 DUP2 PUSH1 0xC6 DUP2 GT ISZERO PUSH3 0x497 JUMPI PUSH3 0x496 PUSH3 0xBBE JUMP JUMPDEST JUMPDEST DUP2 MSTORE POP POP PUSH1 0x40 DUP2 PUSH1 0x2 DUP2 MLOAD DUP2 LT PUSH3 0x4B4 JUMPI PUSH3 0x4B3 PUSH3 0xB91 JUMP JUMPDEST JUMPDEST PUSH1 0x20 MUL PUSH1 0x20 ADD ADD SWAP1 PUSH1 0xC6 DUP2 GT ISZERO PUSH3 0x4D1 JUMPI PUSH3 0x4D0 PUSH3 0xBBE JUMP JUMPDEST JUMPDEST SWAP1 DUP2 PUSH1 0xC6 DUP2 GT ISZERO PUSH3 0x4E8 JUMPI PUSH3 0x4E7 PUSH3 0xBBE JUMP JUMPDEST JUMPDEST DUP2 MSTORE POP POP PUSH0 PUSH1 0x1 PUSH8 0xFFFFFFFFFFFFFFFF DUP2 GT ISZERO PUSH3 0x50B JUMPI PUSH3 0x50A PUSH3 0xB64 JUMP JUMPDEST JUMPDEST PUSH1 0x40 MLOAD SWAP1 DUP1 DUP3 MSTORE DUP1 PUSH1 0x20 MUL PUSH1 0x20 ADD DUP3 ADD PUSH1 0x40 MSTORE DUP1 ISZERO PUSH3 0x53A JUMPI DUP2 PUSH1 0x20 ADD PUSH1 0x20 DUP3 MUL DUP1 CALLDATASIZE DUP4 CALLDATACOPY DUP1 DUP3 ADD SWAP2 POP POP SWAP1 POP JUMPDEST POP SWAP1 POP PUSH1 0xC6 DUP2 PUSH0 DUP2 MLOAD DUP2 LT PUSH3 0x555 JUMPI PUSH3 0x554 PUSH3 0xB91 JUMP JUMPDEST JUMPDEST PUSH1 0x20 MUL PUSH1 0x20 ADD ADD SWAP1 PUSH1 0xC6 DUP2 GT ISZERO PUSH3 0x572 JUMPI PUSH3 0x571 PUSH3 0xBBE JUMP JUMPDEST JUMPDEST SWAP1 DUP2 PUSH1 0xC6 DUP2 GT ISZERO PUSH3 0x589 JUMPI PUSH3 0x588 PUSH3 0xBBE JUMP JUMPDEST JUMPDEST DUP2 MSTORE POP POP PUSH0 PUSH1 0x3 PUSH8 0xFFFFFFFFFFFFFFFF DUP2 GT ISZERO PUSH3 0x5AC JUMPI PUSH3 0x5AB PUSH3 0xB64 JUMP JUMPDEST JUMPDEST PUSH1 0x40 MLOAD SWAP1 DUP1 DUP3 MSTORE DUP1 PUSH1 0x20 MUL PUSH1 0x20 ADD DUP3 ADD PUSH1 0x40 MSTORE DUP1 ISZERO PUSH3 0x5DB JUMPI DUP2 PUSH1 0x20 ADD PUSH1 0x20 DUP3 MUL DUP1 CALLDATASIZE DUP4 CALLDATACOPY DUP1 DUP3 ADD SWAP2 POP POP SWAP1 POP JUMPDEST POP SWAP1 POP PUSH1 0x41 DUP2 PUSH0 DUP2 MLOAD DUP2 LT PUSH3 0x5F6 JUMPI PUSH3 0x5F5 PUSH3 0xB91 JUMP JUMPDEST JUMPDEST PUSH1 0x20 MUL PUSH1 0x20 ADD ADD SWAP1 PUSH1 0xC6 DUP2 GT ISZERO PUSH3 0x613 JUMPI PUSH3 0x612 PUSH3 0xBBE JUMP JUMPDEST JUMPDEST SWAP1 DUP2 PUSH1 0xC6 DUP2 GT ISZERO PUSH3 0x62A JUMPI PUSH3 0x629 PUSH3 0xBBE JUMP JUMPDEST JUMPDEST DUP2 MSTORE POP POP PUSH1 0x40 DUP2 PUSH1 0x1 DUP2 MLOAD DUP2 LT PUSH3 0x647 JUMPI PUSH3 0x646 PUSH3 0xB91 JUMP JUMPDEST JUMPDEST PUSH1 0x20 MUL PUSH1 0x20 ADD ADD SWAP1 PUSH1 0xC6 DUP2 GT ISZERO PUSH3 0x664 JUMPI PUSH3 0x663 PUSH3 0xBBE JUMP JUMPDEST JUMPDEST SWAP1 DUP2 PUSH1 0xC6 DUP2 GT ISZERO PUSH3 0x67B JUMPI PUSH3 0x67A PUSH3 0xBBE JUMP JUMPDEST JUMPDEST DUP2 MSTORE POP POP PUSH1 0x40 DUP2 PUSH1 0x2 DUP2 MLOAD DUP2 LT PUSH3 0x698 JUMPI PUSH3 0x697 PUSH3 0xB91 JUMP JUMPDEST JUMPDEST PUSH1 0x20 MUL PUSH1 0x20 ADD ADD SWAP1 PUSH1 0xC6 DUP2 GT ISZERO PUSH3 0x6B5 JUMPI PUSH3 0x6B4 PUSH3 0xBBE JUMP JUMPDEST JUMPDEST SWAP1 DUP2 PUSH1 0xC6 DUP2 GT ISZERO PUSH3 0x6CC JUMPI PUSH3 0x6CB PUSH3 0xBBE JUMP JUMPDEST JUMPDEST DUP2 MSTORE POP POP PUSH3 0x766 PUSH1 0x40 MLOAD DUP1 PUSH1 0x40 ADD PUSH1 0x40 MSTORE DUP1 PUSH1 0xB DUP2 MSTORE PUSH1 0x20 ADD PUSH32 0x706F7374436F6D6D656E74000000000000000000000000000000000000000000 DUP2 MSTORE POP PUSH1 0x1 DUP9 PUSH0 PUSH8 0xFFFFFFFFFFFFFFFF DUP2 GT ISZERO PUSH3 0x72A JUMPI PUSH3 0x729 PUSH3 0xB64 JUMP JUMPDEST JUMPDEST PUSH1 0x40 MLOAD SWAP1 DUP1 DUP3 MSTORE DUP1 PUSH1 0x20 MUL PUSH1 0x20 ADD DUP3 ADD PUSH1 0x40 MSTORE DUP1 ISZERO PUSH3 0x759 JUMPI DUP2 PUSH1 0x20 ADD PUSH1 0x20 DUP3 MUL DUP1 CALLDATASIZE DUP4 CALLDATACOPY DUP1 DUP3 ADD SWAP2 POP POP SWAP1 POP JUMPDEST POP PUSH3 0x9AB PUSH1 0x20 SHL PUSH1 0x20 SHR JUMP JUMPDEST PUSH3 0x7FC PUSH1 0x40 MLOAD DUP1 PUSH1 0x40 ADD PUSH1 0x40 MSTORE DUP1 PUSH1 0xD DUP2 MSTORE PUSH1 0x20 ADD PUSH32 0x64656C657465436F6D6D656E7400000000000000000000000000000000000000 DUP2 MSTORE POP PUSH1 0x1 DUP8 PUSH0 PUSH8 0xFFFFFFFFFFFFFFFF DUP2 GT ISZERO PUSH3 0x7C0 JUMPI PUSH3 0x7BF PUSH3 0xB64 JUMP JUMPDEST JUMPDEST PUSH1 0x40 MLOAD SWAP1 DUP1 DUP3 MSTORE DUP1 PUSH1 0x20 MUL PUSH1 0x20 ADD DUP3 ADD PUSH1 0x40 MSTORE DUP1 ISZERO PUSH3 0x7EF JUMPI DUP2 PUSH1 0x20 ADD PUSH1 0x20 DUP3 MUL DUP1 CALLDATASIZE DUP4 CALLDATACOPY DUP1 DUP3 ADD SWAP2 POP POP SWAP1 POP JUMPDEST POP PUSH3 0x9AB PUSH1 0x20 SHL PUSH1 0x20 SHR JUMP JUMPDEST PUSH3 0x845 PUSH1 0x40 MLOAD DUP1 PUSH1 0x40 ADD PUSH1 0x40 MSTORE DUP1 PUSH1 0xA DUP2 MSTORE PUSH1 0x20 ADD PUSH32 0x676574436F6D6D656E7400000000000000000000000000000000000000000000 DUP2 MSTORE POP PUSH0 DUP8 DUP8 PUSH3 0x9AB PUSH1 0x20 SHL PUSH1 0x20 SHR JUMP JUMPDEST PUSH3 0x88E PUSH1 0x40 MLOAD DUP1 PUSH1 0x40 ADD PUSH1 0x40 MSTORE DUP1 PUSH1 0xB DUP2 MSTORE PUSH1 0x20 ADD PUSH32 0x676574436F6D6D656E7473000000000000000000000000000000000000000000 DUP2 MSTORE POP PUSH0 DUP6 DUP6 PUSH3 0x9AB PUSH1 0x20 SHL PUSH1 0x20 SHR JUMP JUMPDEST PUSH3 0x8D7 PUSH1 0x40 MLOAD DUP1 PUSH1 0x40 ADD PUSH1 0x40 MSTORE DUP1 PUSH1 0x14 DUP2 MSTORE PUSH1 0x20 ADD PUSH32 0x676574436F6D6D656E7473427941646472657373000000000000000000000000 DUP2 MSTORE POP PUSH0 DUP4 DUP6 PUSH3 0x9AB PUSH1 0x20 SHL PUSH1 0x20 SHR JUMP JUMPDEST POP POP POP POP POP POP PUSH3 0xF88 JUMP JUMPDEST PUSH0 CALLER SWAP1 POP SWAP1 JUMP JUMPDEST PUSH0 DUP1 PUSH0 SWAP1 SLOAD SWAP1 PUSH2 0x100 EXP SWAP1 DIV PUSH20 0xFFFFFFFFFFFFFFFFFFFFFFFFFFFFFFFFFFFFFFFF AND SWAP1 POP DUP2 PUSH0 DUP1 PUSH2 0x100 EXP DUP2 SLOAD DUP2 PUSH20 0xFFFFFFFFFFFFFFFFFFFFFFFFFFFFFFFFFFFFFFFF MUL NOT AND SWAP1 DUP4 PUSH20 0xFFFFFFFFFFFFFFFFFFFFFFFFFFFFFFFFFFFFFFFF AND MUL OR SWAP1 SSTORE POP DUP2 PUSH20 0xFFFFFFFFFFFFFFFFFFFFFFFFFFFFFFFFFFFFFFFF AND DUP2 PUSH20 0xFFFFFFFFFFFFFFFFFFFFFFFFFFFFFFFFFFFFFFFF AND PUSH32 0x8BE0079C531659141344CD1FD0A4F28419497F9722A3DAAFE3B4186F6B6457E0 PUSH1 0x40 MLOAD PUSH1 0x40 MLOAD DUP1 SWAP2 SUB SWAP1 LOG3 POP POP JUMP JUMPDEST PUSH1 0x1 PUSH0 DUP5 PUSH1 0x3 DUP2 GT ISZERO PUSH3 0x9C4 JUMPI PUSH3 0x9C3 PUSH3 0xBBE JUMP JUMPDEST JUMPDEST PUSH1 0x3 DUP2 GT ISZERO PUSH3 0x9D9 JUMPI PUSH3 0x9D8 PUSH3 0xBBE JUMP JUMPDEST JUMPDEST DUP2 MSTORE PUSH1 0x20 ADD SWAP1 DUP2 MSTORE PUSH1 0x20 ADD PUSH0 KECCAK256 DUP5 SWAP1 DUP1 PUSH1 0x1 DUP2 SLOAD ADD DUP1 DUP3 SSTORE DUP1 SWAP2 POP POP PUSH1 0x1 SWAP1 SUB SWAP1 PUSH0 MSTORE PUSH1 0x20 PUSH0 KECCAK256 ADD PUSH0 SWAP1 SWAP2 SWAP1 SWAP2 SWAP1 SWAP2 POP SWAP1 DUP2 PUSH3 0xA17 SWAP2 SWAP1 PUSH3 0xE22 JUMP JUMPDEST POP DUP2 PUSH1 0x2 DUP6 PUSH1 0x40 MLOAD PUSH3 0xA2B SWAP2 SWAP1 PUSH3 0xF70 JUMP JUMPDEST SWAP1 DUP2 MSTORE PUSH1 0x20 ADD PUSH1 0x40 MLOAD DUP1 SWAP2 SUB SWAP1 KECCAK256 SWAP1 DUP1 MLOAD SWAP1 PUSH1 0x20 ADD SWAP1 PUSH3 0xA4E SWAP3 SWAP2 SWAP1 PUSH3 0xA8C JUMP JUMPDEST POP DUP1 PUSH1 0x3 DUP6 PUSH1 0x40 MLOAD PUSH3 0xA62 SWAP2 SWAP1 PUSH3 0xF70 JUMP JUMPDEST SWAP1 DUP2 MSTORE PUSH1 0x20 ADD PUSH1 0x40 MLOAD DUP1 SWAP2 SUB SWAP1 KECCAK256 SWAP1 DUP1 MLOAD SWAP1 PUSH1 0x20 ADD SWAP1 PUSH3 0xA85 SWAP3 SWAP2 SWAP1 PUSH3 0xA8C JUMP JUMPDEST POP POP POP POP POP JUMP JUMPDEST DUP3 DUP1 SLOAD DUP3 DUP3 SSTORE SWAP1 PUSH0 MSTORE PUSH1 0x20 PUSH0 KECCAK256 SWAP1 PUSH1 0x1F ADD PUSH1 0x20 SWAP1 DIV DUP2 ADD SWAP3 DUP3 ISZERO PUSH3 0xB34 JUMPI SWAP2 PUSH1 0x20 MUL DUP3 ADD PUSH0 JUMPDEST DUP4 DUP3 GT ISZERO PUSH3 0xB04 JUMPI DUP4 MLOAD DUP4 DUP3 PUSH2 0x100 EXP DUP2 SLOAD DUP2 PUSH1 0xFF MUL NOT AND SWAP1 DUP4 PUSH1 0xC6 DUP2 GT ISZERO PUSH3 0xAE3 JUMPI PUSH3 0xAE2 PUSH3 0xBBE JUMP JUMPDEST JUMPDEST MUL OR SWAP1 SSTORE POP SWAP3 PUSH1 0x20 ADD SWAP3 PUSH1 0x1 ADD PUSH1 0x20 DUP2 PUSH0 ADD DIV SWAP3 DUP4 ADD SWAP3 PUSH1 0x1 SUB MUL PUSH3 0xAB3 JUMP JUMPDEST DUP1 ISZERO PUSH3 0xB32 JUMPI DUP3 DUP2 PUSH2 0x100 EXP DUP2 SLOAD SWAP1 PUSH1 0xFF MUL NOT AND SWAP1 SSTORE PUSH1 0x1 ADD PUSH1 0x20 DUP2 PUSH0 ADD DIV SWAP3 DUP4 ADD SWAP3 PUSH1 0x1 SUB MUL PUSH3 0xB04 JUMP JUMPDEST POP JUMPDEST POP SWAP1 POP PUSH3 0xB43 SWAP2 SWAP1 PUSH3 0xB47 JUMP JUMPDEST POP SWAP1 JUMP JUMPDEST JUMPDEST DUP1 DUP3 GT ISZERO PUSH3 0xB60 JUMPI PUSH0 DUP2 PUSH0 SWAP1 SSTORE POP PUSH1 0x1 ADD PUSH3 0xB48 JUMP JUMPDEST POP SWAP1 JUMP JUMPDEST PUSH32 0x4E487B7100000000000000000000000000000000000000000000000000000000 PUSH0 MSTORE PUSH1 0x41 PUSH1 0x4 MSTORE PUSH1 0x24 PUSH0 REVERT JUMPDEST PUSH32 0x4E487B7100000000000000000000000000000000000000000000000000000000 PUSH0 MSTORE PUSH1 0x32 PUSH1 0x4 MSTORE PUSH1 0x24 PUSH0 REVERT JUMPDEST PUSH32 0x4E487B7100000000000000000000000000000000000000000000000000000000 PUSH0 MSTORE PUSH1 0x21 PUSH1 0x4 MSTORE PUSH1 0x24 PUSH0 REVERT JUMPDEST PUSH0 DUP2 MLOAD SWAP1 POP SWAP2 SWAP1 POP JUMP JUMPDEST PUSH32 0x4E487B7100000000000000000000000000000000000000000000000000000000 PUSH0 MSTORE PUSH1 0x22 PUSH1 0x4 MSTORE PUSH1 0x24 PUSH0 REVERT JUMPDEST PUSH0 PUSH1 0x2 DUP3 DIV SWAP1 POP PUSH1 0x1 DUP3 AND DUP1 PUSH3 0xC3A JUMPI PUSH1 0x7F DUP3 AND SWAP2 POP JUMPDEST PUSH1 0x20 DUP3 LT DUP2 SUB PUSH3 0xC50 JUMPI PUSH3 0xC4F PUSH3 0xBF5 JUMP JUMPDEST JUMPDEST POP SWAP2 SWAP1 POP JUMP JUMPDEST PUSH0 DUP2 SWAP1 POP DUP2 PUSH0 MSTORE PUSH1 0x20 PUSH0 KECCAK256 SWAP1 POP SWAP2 SWAP1 POP JUMP JUMPDEST PUSH0 PUSH1 0x20 PUSH1 0x1F DUP4 ADD DIV SWAP1 POP SWAP2 SWAP1 POP JUMP JUMPDEST PUSH0 DUP3 DUP3 SHL SWAP1 POP SWAP3 SWAP2 POP POP JUMP JUMPDEST PUSH0 PUSH1 0x8 DUP4 MUL PUSH3 0xCB4 PUSH32 0xFFFFFFFFFFFFFFFFFFFFFFFFFFFFFFFFFFFFFFFFFFFFFFFFFFFFFFFFFFFFFFFF DUP3 PUSH3 0xC77 JUMP JUMPDEST PUSH3 0xCC0 DUP7 DUP4 PUSH3 0xC77 JUMP JUMPDEST SWAP6 POP DUP1 NOT DUP5 AND SWAP4 POP DUP1 DUP7 AND DUP5 OR SWAP3 POP POP POP SWAP4 SWAP3 POP POP POP JUMP JUMPDEST PUSH0 DUP2 SWAP1 POP SWAP2 SWAP1 POP JUMP JUMPDEST PUSH0 DUP2 SWAP1 POP SWAP2 SWAP1 POP JUMP JUMPDEST PUSH0 PUSH3 0xD0A PUSH3 0xD04 PUSH3 0xCFE DUP5 PUSH3 0xCD8 JUMP JUMPDEST PUSH3 0xCE1 JUMP JUMPDEST PUSH3 0xCD8 JUMP JUMPDEST SWAP1 POP SWAP2 SWAP1 POP JUMP JUMPDEST PUSH0 DUP2 SWAP1 POP SWAP2 SWAP1 POP JUMP JUMPDEST PUSH3 0xD25 DUP4 PUSH3 0xCEA JUMP JUMPDEST PUSH3 0xD3D PUSH3 0xD34 DUP3 PUSH3 0xD11 JUMP JUMPDEST DUP5 DUP5 SLOAD PUSH3 0xC83 JUMP JUMPDEST DUP3 SSTORE POP POP POP POP JUMP JUMPDEST PUSH0 SWAP1 JUMP JUMPDEST PUSH3 0xD53 PUSH3 0xD45 JUMP JUMPDEST PUSH3 0xD60 DUP2 DUP5 DUP5 PUSH3 0xD1A JUMP JUMPDEST POP POP POP JUMP JUMPDEST JUMPDEST DUP2 DUP2 LT ISZERO PUSH3 0xD87 JUMPI PUSH3 0xD7B PUSH0 DUP3 PUSH3 0xD49 JUMP JUMPDEST PUSH1 0x1 DUP2 ADD SWAP1 POP PUSH3 0xD66 JUMP JUMPDEST POP POP JUMP JUMPDEST PUSH1 0x1F DUP3 GT ISZERO PUSH3 0xDD6 JUMPI PUSH3 0xDA0 DUP2 PUSH3 0xC56 JUMP JUMPDEST PUSH3 0xDAB DUP5 PUSH3 0xC68 JUMP JUMPDEST DUP2 ADD PUSH1 0x20 DUP6 LT ISZERO PUSH3 0xDBB JUMPI DUP2 SWAP1 POP JUMPDEST PUSH3 0xDD3 PUSH3 0xDCA DUP6 PUSH3 0xC68 JUMP JUMPDEST DUP4 ADD DUP3 PUSH3 0xD65 JUMP JUMPDEST POP POP JUMPDEST POP POP POP JUMP JUMPDEST PUSH0 DUP3 DUP3 SHR SWAP1 POP SWAP3 SWAP2 POP POP JUMP JUMPDEST PUSH0 PUSH3 0xDF8 PUSH0 NOT DUP5 PUSH1 0x8 MUL PUSH3 0xDDB JUMP JUMPDEST NOT DUP1 DUP4 AND SWAP2 POP POP SWAP3 SWAP2 POP POP JUMP JUMPDEST PUSH0 PUSH3 0xE12 DUP4 DUP4 PUSH3 0xDE7 JUMP JUMPDEST SWAP2 POP DUP3 PUSH1 0x2 MUL DUP3 OR SWAP1 POP SWAP3 SWAP2 POP POP JUMP JUMPDEST PUSH3 0xE2D DUP3 PUSH3 0xBEB JUMP JUMPDEST PUSH8 0xFFFFFFFFFFFFFFFF DUP2 GT ISZERO PUSH3 0xE49 JUMPI PUSH3 0xE48 PUSH3 0xB64 JUMP JUMPDEST JUMPDEST PUSH3 0xE55 DUP3 SLOAD PUSH3 0xC22 JUMP JUMPDEST PUSH3 0xE62 DUP3 DUP3 DUP6 PUSH3 0xD8B JUMP JUMPDEST PUSH0 PUSH1 0x20 SWAP1 POP PUSH1 0x1F DUP4 GT PUSH1 0x1 DUP2 EQ PUSH3 0xE98 JUMPI PUSH0 DUP5 ISZERO PUSH3 0xE83 JUMPI DUP3 DUP8 ADD MLOAD SWAP1 POP JUMPDEST PUSH3 0xE8F DUP6 DUP3 PUSH3 0xE05 JUMP JUMPDEST DUP7 SSTORE POP PUSH3 0xEFE JUMP JUMPDEST PUSH1 0x1F NOT DUP5 AND PUSH3 0xEA8 DUP7 PUSH3 0xC56 JUMP JUMPDEST PUSH0 JUMPDEST DUP3 DUP2 LT ISZERO PUSH3 0xED1 JUMPI DUP5 DUP10 ADD MLOAD DUP3 SSTORE PUSH1 0x1 DUP3 ADD SWAP2 POP PUSH1 0x20 DUP6 ADD SWAP5 POP PUSH1 0x20 DUP2 ADD SWAP1 POP PUSH3 0xEAA JUMP JUMPDEST DUP7 DUP4 LT ISZERO PUSH3 0xEF1 JUMPI DUP5 DUP10 ADD MLOAD PUSH3 0xEED PUSH1 0x1F DUP10 AND DUP3 PUSH3 0xDE7 JUMP JUMPDEST DUP4 SSTORE POP JUMPDEST PUSH1 0x1 PUSH1 0x2 DUP9 MUL ADD DUP9 SSTORE POP POP POP JUMPDEST POP POP POP POP POP POP JUMP JUMPDEST PUSH0 DUP2 SWAP1 POP SWAP3 SWAP2 POP POP JUMP JUMPDEST PUSH0 JUMPDEST DUP4 DUP2 LT ISZERO PUSH3 0xF2F JUMPI DUP1 DUP3 ADD MLOAD DUP2 DUP5 ADD MSTORE PUSH1 0x20 DUP2 ADD SWAP1 POP PUSH3 0xF12 JUMP JUMPDEST PUSH0 DUP5 DUP5 ADD MSTORE POP POP POP POP JUMP JUMPDEST PUSH0 PUSH3 0xF46 DUP3 PUSH3 0xBEB JUMP JUMPDEST PUSH3 0xF52 DUP2 DUP6 PUSH3 0xF06 JUMP JUMPDEST SWAP4 POP PUSH3 0xF64 DUP2 DUP6 PUSH1 0x20 DUP7 ADD PUSH3 0xF10 JUMP JUMPDEST DUP1 DUP5 ADD SWAP2 POP POP SWAP3 SWAP2 POP POP JUMP JUMPDEST PUSH0 PUSH3 0xF7D DUP3 DUP5 PUSH3 0xF3A JUMP JUMPDEST SWAP2 POP DUP2 SWAP1 POP SWAP3 SWAP2 POP POP JUMP JUMPDEST PUSH2 0x33EF DUP1 PUSH3 0xF96 PUSH0 CODECOPY PUSH0 RETURN INVALID PUSH1 0x80 PUSH1 0x40 MSTORE PUSH1 0x4 CALLDATASIZE LT PUSH2 0xC1 JUMPI PUSH0 CALLDATALOAD PUSH1 0xE0 SHR DUP1 PUSH4 0x715018A6 GT PUSH2 0x7E JUMPI DUP1 PUSH4 0xB6AE0425 GT PUSH2 0x58 JUMPI DUP1 PUSH4 0xB6AE0425 EQ PUSH2 0x286 JUMPI DUP1 PUSH4 0xE9536472 EQ PUSH2 0x2B6 JUMPI DUP1 PUSH4 0xF2FDE38B EQ PUSH2 0x2E6 JUMPI DUP1 PUSH4 0xF4856CCB EQ PUSH2 0x30E JUMPI PUSH2 0xC1 JUMP JUMPDEST DUP1 PUSH4 0x715018A6 EQ PUSH2 0x20A JUMPI DUP1 PUSH4 0x8DA5CB5B EQ PUSH2 0x220 JUMPI DUP1 PUSH4 0xAFF62745 EQ PUSH2 0x24A JUMPI PUSH2 0xC1 JUMP JUMPDEST DUP1 PUSH4 0x1069143A EQ PUSH2 0xC5 JUMPI DUP1 PUSH4 0x3E413065 EQ PUSH2 0xEF JUMPI DUP1 PUSH4 0x3EAE02B3 EQ PUSH2 0x119 JUMPI DUP1 PUSH4 0x44237454 EQ PUSH2 0x155 JUMPI DUP1 PUSH4 0x458AD6D4 EQ PUSH2 0x191 JUMPI DUP1 PUSH4 0x6818BA1D EQ PUSH2 0x1CE JUMPI JUMPDEST PUSH0 DUP1 REVERT JUMPDEST CALLVALUE DUP1 ISZERO PUSH2 0xD0 JUMPI PUSH0 DUP1 REVERT JUMPDEST POP PUSH2 0xD9 PUSH2 0x34A JUMP JUMPDEST PUSH1 0x40 MLOAD PUSH2 0xE6 SWAP2 SWAP1 PUSH2 0x205F JUMP JUMPDEST PUSH1 0x40 MLOAD DUP1 SWAP2 SUB SWAP1 RETURN JUMPDEST CALLVALUE DUP1 ISZERO PUSH2 0xFA JUMPI PUSH0 DUP1 REVERT JUMPDEST POP PUSH2 0x103 PUSH2 0x4BE JUMP JUMPDEST PUSH1 0x40 MLOAD PUSH2 0x110 SWAP2 SWAP1 PUSH2 0x2097 JUMP JUMPDEST PUSH1 0x40 MLOAD DUP1 SWAP2 SUB SWAP1 RETURN JUMPDEST CALLVALUE DUP1 ISZERO PUSH2 0x124 JUMPI PUSH0 DUP1 REVERT JUMPDEST POP PUSH2 0x13F PUSH1 0x4 DUP1 CALLDATASIZE SUB DUP2 ADD SWAP1 PUSH2 0x13A SWAP2 SWAP1 PUSH2 0x2281 JUMP JUMPDEST PUSH2 0x4C4 JUMP JUMPDEST PUSH1 0x40 MLOAD PUSH2 0x14C SWAP2 SWAP1 PUSH2 0x23AA JUMP JUMPDEST PUSH1 0x40 MLOAD DUP1 SWAP2 SUB SWAP1 RETURN JUMPDEST CALLVALUE DUP1 ISZERO PUSH2 0x160 JUMPI PUSH0 DUP1 REVERT JUMPDEST POP PUSH2 0x17B PUSH1 0x4 DUP1 CALLDATASIZE SUB DUP2 ADD SWAP1 PUSH2 0x176 SWAP2 SWAP1 PUSH2 0x23CA JUMP JUMPDEST PUSH2 0x543 JUMP JUMPDEST PUSH1 0x40 MLOAD PUSH2 0x188 SWAP2 SWAP1 PUSH2 0x251D JUMP JUMPDEST PUSH1 0x40 MLOAD DUP1 SWAP2 SUB SWAP1 RETURN JUMPDEST CALLVALUE DUP1 ISZERO PUSH2 0x19C JUMPI PUSH0 DUP1 REVERT JUMPDEST POP PUSH2 0x1B7 PUSH1 0x4 DUP1 CALLDATASIZE SUB DUP2 ADD SWAP1 PUSH2 0x1B2 SWAP2 SWAP1 PUSH2 0x253D JUMP JUMPDEST PUSH2 0x8FC JUMP JUMPDEST PUSH1 0x40 MLOAD PUSH2 0x1C5 SWAP3 SWAP2 SWAP1 PUSH2 0x2662 JUMP JUMPDEST PUSH1 0x40 MLOAD DUP1 SWAP2 SUB SWAP1 RETURN JUMPDEST CALLVALUE DUP1 ISZERO PUSH2 0x1D9 JUMPI PUSH0 DUP1 REVERT JUMPDEST POP PUSH2 0x1F4 PUSH1 0x4 DUP1 CALLDATASIZE SUB DUP2 ADD SWAP1 PUSH2 0x1EF SWAP2 SWAP1 PUSH2 0x2697 JUMP JUMPDEST PUSH2 0xA4A JUMP JUMPDEST PUSH1 0x40 MLOAD PUSH2 0x201 SWAP2 SWAP1 PUSH2 0x251D JUMP JUMPDEST PUSH1 0x40 MLOAD DUP1 SWAP2 SUB SWAP1 RETURN JUMPDEST CALLVALUE DUP1 ISZERO PUSH2 0x215 JUMPI PUSH0 DUP1 REVERT JUMPDEST POP PUSH2 0x21E PUSH2 0xD53 JUMP JUMPDEST STOP JUMPDEST CALLVALUE DUP1 ISZERO PUSH2 0x22B JUMPI PUSH0 DUP1 REVERT JUMPDEST POP PUSH2 0x234 PUSH2 0xDDA JUMP JUMPDEST PUSH1 0x40 MLOAD PUSH2 0x241 SWAP2 SWAP1 PUSH2 0x26F6 JUMP JUMPDEST PUSH1 0x40 MLOAD DUP1 SWAP2 SUB SWAP1 RETURN JUMPDEST CALLVALUE DUP1 ISZERO PUSH2 0x255 JUMPI PUSH0 DUP1 REVERT JUMPDEST POP PUSH2 0x270 PUSH1 0x4 DUP1 CALLDATASIZE SUB DUP2 ADD SWAP1 PUSH2 0x26B SWAP2 SWAP1 PUSH2 0x27AD JUMP JUMPDEST PUSH2 0xE01 JUMP JUMPDEST PUSH1 0x40 MLOAD PUSH2 0x27D SWAP2 SWAP1 PUSH2 0x2875 JUMP JUMPDEST PUSH1 0x40 MLOAD DUP1 SWAP2 SUB SWAP1 RETURN JUMPDEST PUSH2 0x2A0 PUSH1 0x4 DUP1 CALLDATASIZE SUB DUP2 ADD SWAP1 PUSH2 0x29B SWAP2 SWAP1 PUSH2 0x27AD JUMP JUMPDEST PUSH2 0x110E JUMP JUMPDEST PUSH1 0x40 MLOAD PUSH2 0x2AD SWAP2 SWAP1 PUSH2 0x2875 JUMP JUMPDEST PUSH1 0x40 MLOAD DUP1 SWAP2 SUB SWAP1 RETURN JUMPDEST PUSH2 0x2D0 PUSH1 0x4 DUP1 CALLDATASIZE SUB DUP2 ADD SWAP1 PUSH2 0x2CB SWAP2 SWAP1 PUSH2 0x27AD JUMP JUMPDEST PUSH2 0x16DB JUMP JUMPDEST PUSH1 0x40 MLOAD PUSH2 0x2DD SWAP2 SWAP1 PUSH2 0x2875 JUMP JUMPDEST PUSH1 0x40 MLOAD DUP1 SWAP2 SUB SWAP1 RETURN JUMPDEST CALLVALUE DUP1 ISZERO PUSH2 0x2F1 JUMPI PUSH0 DUP1 REVERT JUMPDEST POP PUSH2 0x30C PUSH1 0x4 DUP1 CALLDATASIZE SUB DUP2 ADD SWAP1 PUSH2 0x307 SWAP2 SWAP1 PUSH2 0x2895 JUMP JUMPDEST PUSH2 0x1707 JUMP JUMPDEST STOP JUMPDEST CALLVALUE DUP1 ISZERO PUSH2 0x319 JUMPI PUSH0 DUP1 REVERT JUMPDEST POP PUSH2 0x334 PUSH1 0x4 DUP1 CALLDATASIZE SUB DUP2 ADD SWAP1 PUSH2 0x32F SWAP2 SWAP1 PUSH2 0x28E3 JUMP JUMPDEST PUSH2 0x17FD JUMP JUMPDEST PUSH1 0x40 MLOAD PUSH2 0x341 SWAP2 SWAP1 PUSH2 0x251D JUMP JUMPDEST PUSH1 0x40 MLOAD DUP1 SWAP2 SUB SWAP1 RETURN JUMPDEST PUSH1 0x60 PUSH0 PUSH1 0x4 PUSH8 0xFFFFFFFFFFFFFFFF DUP2 GT ISZERO PUSH2 0x368 JUMPI PUSH2 0x367 PUSH2 0x2103 JUMP JUMPDEST JUMPDEST PUSH1 0x40 MLOAD SWAP1 DUP1 DUP3 MSTORE DUP1 PUSH1 0x20 MUL PUSH1 0x20 ADD DUP3 ADD PUSH1 0x40 MSTORE DUP1 ISZERO PUSH2 0x396 JUMPI DUP2 PUSH1 0x20 ADD PUSH1 0x20 DUP3 MUL DUP1 CALLDATASIZE DUP4 CALLDATACOPY DUP1 DUP3 ADD SWAP2 POP POP SWAP1 POP JUMPDEST POP SWAP1 POP PUSH0 DUP2 PUSH0 DUP2 MLOAD DUP2 LT PUSH2 0x3AD JUMPI PUSH2 0x3AC PUSH2 0x290E JUMP JUMPDEST JUMPDEST PUSH1 0x20 MUL PUSH1 0x20 ADD ADD SWAP1 PUSH1 0x3 DUP2 GT ISZERO PUSH2 0x3C7 JUMPI PUSH2 0x3C6 PUSH2 0x1F6D JUMP JUMPDEST JUMPDEST SWAP1 DUP2 PUSH1 0x3 DUP2 GT ISZERO PUSH2 0x3DB JUMPI PUSH2 0x3DA PUSH2 0x1F6D JUMP JUMPDEST JUMPDEST DUP2 MSTORE POP POP PUSH1 0x1 DUP2 PUSH1 0x1 DUP2 MLOAD DUP2 LT PUSH2 0x3F5 JUMPI PUSH2 0x3F4 PUSH2 0x290E JUMP JUMPDEST JUMPDEST PUSH1 0x20 MUL PUSH1 0x20 ADD ADD SWAP1 PUSH1 0x3 DUP2 GT ISZERO PUSH2 0x40F JUMPI PUSH2 0x40E PUSH2 0x1F6D JUMP JUMPDEST JUMPDEST SWAP1 DUP2 PUSH1 0x3 DUP2 GT ISZERO PUSH2 0x423 JUMPI PUSH2 0x422 PUSH2 0x1F6D JUMP JUMPDEST JUMPDEST DUP2 MSTORE POP POP PUSH1 0x2 DUP2 PUSH1 0x2 DUP2 MLOAD DUP2 LT PUSH2 0x43D JUMPI PUSH2 0x43C PUSH2 0x290E JUMP JUMPDEST JUMPDEST PUSH1 0x20 MUL PUSH1 0x20 ADD ADD SWAP1 PUSH1 0x3 DUP2 GT ISZERO PUSH2 0x457 JUMPI PUSH2 0x456 PUSH2 0x1F6D JUMP JUMPDEST JUMPDEST SWAP1 DUP2 PUSH1 0x3 DUP2 GT ISZERO PUSH2 0x46B JUMPI PUSH2 0x46A PUSH2 0x1F6D JUMP JUMPDEST JUMPDEST DUP2 MSTORE POP POP PUSH1 0x3 DUP2 PUSH1 0x3 DUP2 MLOAD DUP2 LT PUSH2 0x485 JUMPI PUSH2 0x484 PUSH2 0x290E JUMP JUMPDEST JUMPDEST PUSH1 0x20 MUL PUSH1 0x20 ADD ADD SWAP1 PUSH1 0x3 DUP2 GT ISZERO PUSH2 0x49F JUMPI PUSH2 0x49E PUSH2 0x1F6D JUMP JUMPDEST JUMPDEST SWAP1 DUP2 PUSH1 0x3 DUP2 GT ISZERO PUSH2 0x4B3 JUMPI PUSH2 0x4B2 PUSH2 0x1F6D JUMP JUMPDEST JUMPDEST DUP2 MSTORE POP POP DUP1 SWAP2 POP POP SWAP1 JUMP JUMPDEST PUSH1 0x4 SLOAD DUP2 JUMP JUMPDEST PUSH1 0x60 PUSH2 0x4CF DUP7 PUSH2 0x1906 JUMP JUMPDEST PUSH2 0x4D8 DUP7 PUSH2 0x1906 JUMP JUMPDEST PUSH2 0x4E1 DUP7 PUSH2 0x1A5F JUMP JUMPDEST PUSH2 0x4EA DUP7 PUSH2 0x1A5F JUMP JUMPDEST PUSH2 0x50B DUP7 PUSH20 0xFFFFFFFFFFFFFFFFFFFFFFFFFFFFFFFFFFFFFFFF AND PUSH1 0x14 PUSH2 0x1BEF JUMP JUMPDEST PUSH2 0x514 TIMESTAMP PUSH2 0x1906 JUMP JUMPDEST PUSH1 0x40 MLOAD PUSH1 0x20 ADD PUSH2 0x529 SWAP7 SWAP6 SWAP5 SWAP4 SWAP3 SWAP2 SWAP1 PUSH2 0x29BF JUMP JUMPDEST PUSH1 0x40 MLOAD PUSH1 0x20 DUP2 DUP4 SUB SUB DUP2 MSTORE SWAP1 PUSH1 0x40 MSTORE SWAP1 POP SWAP6 SWAP5 POP POP POP POP POP JUMP JUMPDEST PUSH1 0x60 PUSH0 PUSH1 0x6 PUSH0 DUP7 PUSH20 0xFFFFFFFFFFFFFFFFFFFFFFFFFFFFFFFFFFFFFFFF AND PUSH20 0xFFFFFFFFFFFFFFFFFFFFFFFFFFFFFFFFFFFFFFFF AND DUP2 MSTORE PUSH1 0x20 ADD SWAP1 DUP2 MSTORE PUSH1 0x20 ADD PUSH0 KECCAK256 SLOAD SUB PUSH2 0x5E3 JUMPI PUSH0 DUP1 PUSH8 0xFFFFFFFFFFFFFFFF DUP2 GT ISZERO PUSH2 0x5A4 JUMPI PUSH2 0x5A3 PUSH2 0x2103 JUMP JUMPDEST JUMPDEST PUSH1 0x40 MLOAD SWAP1 DUP1 DUP3 MSTORE DUP1 PUSH1 0x20 MUL PUSH1 0x20 ADD DUP3 ADD PUSH1 0x40 MSTORE DUP1 ISZERO PUSH2 0x5D7 JUMPI DUP2 PUSH1 0x20 ADD JUMPDEST PUSH1 0x60 DUP2 MSTORE PUSH1 0x20 ADD SWAP1 PUSH1 0x1 SWAP1 SUB SWAP1 DUP2 PUSH2 0x5C2 JUMPI SWAP1 POP JUMPDEST POP SWAP1 POP DUP1 SWAP2 POP POP PUSH2 0x8F5 JUMP JUMPDEST PUSH1 0x1 DUP4 GT DUP1 ISZERO PUSH2 0x652 JUMPI POP PUSH1 0x1 DUP4 PUSH2 0x5FB SWAP2 SWAP1 PUSH2 0x2A7A JUMP JUMPDEST DUP3 PUSH1 0x1 PUSH1 0x6 PUSH0 DUP9 PUSH20 0xFFFFFFFFFFFFFFFFFFFFFFFFFFFFFFFFFFFFFFFF AND PUSH20 0xFFFFFFFFFFFFFFFFFFFFFFFFFFFFFFFFFFFFFFFF AND DUP2 MSTORE PUSH1 0x20 ADD SWAP1 DUP2 MSTORE PUSH1 0x20 ADD PUSH0 KECCAK256 SLOAD PUSH2 0x646 SWAP2 SWAP1 PUSH2 0x2A7A JUMP JUMPDEST PUSH2 0x650 SWAP2 SWAP1 PUSH2 0x2ADA JUMP JUMPDEST LT JUMPDEST ISZERO PUSH2 0x6B1 JUMPI PUSH0 DUP1 PUSH8 0xFFFFFFFFFFFFFFFF DUP2 GT ISZERO PUSH2 0x672 JUMPI PUSH2 0x671 PUSH2 0x2103 JUMP JUMPDEST JUMPDEST PUSH1 0x40 MLOAD SWAP1 DUP1 DUP3 MSTORE DUP1 PUSH1 0x20 MUL PUSH1 0x20 ADD DUP3 ADD PUSH1 0x40 MSTORE DUP1 ISZERO PUSH2 0x6A5 JUMPI DUP2 PUSH1 0x20 ADD JUMPDEST PUSH1 0x60 DUP2 MSTORE PUSH1 0x20 ADD SWAP1 PUSH1 0x1 SWAP1 SUB SWAP1 DUP2 PUSH2 0x690 JUMPI SWAP1 POP JUMPDEST POP SWAP1 POP DUP1 SWAP2 POP POP PUSH2 0x8F5 JUMP JUMPDEST PUSH0 DUP1 PUSH0 SWAP1 POP PUSH0 DUP5 PUSH1 0x1 DUP8 PUSH2 0x6C5 SWAP2 SWAP1 PUSH2 0x2A7A JUMP JUMPDEST PUSH2 0x6CF SWAP2 SWAP1 PUSH2 0x2B0A JUMP JUMPDEST PUSH1 0x1 PUSH1 0x6 PUSH0 DUP11 PUSH20 0xFFFFFFFFFFFFFFFFFFFFFFFFFFFFFFFFFFFFFFFF AND PUSH20 0xFFFFFFFFFFFFFFFFFFFFFFFFFFFFFFFFFFFFFFFF AND DUP2 MSTORE PUSH1 0x20 ADD SWAP1 DUP2 MSTORE PUSH1 0x20 ADD PUSH0 KECCAK256 SLOAD PUSH2 0x719 SWAP2 SWAP1 PUSH2 0x2A7A JUMP JUMPDEST PUSH2 0x723 SWAP2 SWAP1 PUSH2 0x2A7A JUMP JUMPDEST SWAP1 POP PUSH0 DUP6 DUP3 LT ISZERO PUSH2 0x745 JUMPI PUSH0 SWAP1 POP PUSH1 0x1 DUP3 PUSH2 0x73E SWAP2 SWAP1 PUSH2 0x2B4B JUMP JUMPDEST SWAP4 POP PUSH2 0x763 JUMP JUMPDEST PUSH1 0x1 DUP7 DUP4 PUSH2 0x753 SWAP2 SWAP1 PUSH2 0x2A7A JUMP JUMPDEST PUSH2 0x75D SWAP2 SWAP1 PUSH2 0x2B4B JUMP JUMPDEST SWAP1 POP DUP6 SWAP4 POP JUMPDEST PUSH0 DUP5 PUSH8 0xFFFFFFFFFFFFFFFF DUP2 GT ISZERO PUSH2 0x77E JUMPI PUSH2 0x77D PUSH2 0x2103 JUMP JUMPDEST JUMPDEST PUSH1 0x40 MLOAD SWAP1 DUP1 DUP3 MSTORE DUP1 PUSH1 0x20 MUL PUSH1 0x20 ADD DUP3 ADD PUSH1 0x40 MSTORE DUP1 ISZERO PUSH2 0x7B1 JUMPI DUP2 PUSH1 0x20 ADD JUMPDEST PUSH1 0x60 DUP2 MSTORE PUSH1 0x20 ADD SWAP1 PUSH1 0x1 SWAP1 SUB SWAP1 DUP2 PUSH2 0x79C JUMPI SWAP1 POP JUMPDEST POP SWAP1 POP PUSH0 DUP4 SWAP1 POP JUMPDEST DUP3 DUP2 SLT PUSH2 0x8EB JUMPI PUSH0 PUSH1 0x8 PUSH0 DUP13 PUSH20 0xFFFFFFFFFFFFFFFFFFFFFFFFFFFFFFFFFFFFFFFF AND PUSH20 0xFFFFFFFFFFFFFFFFFFFFFFFFFFFFFFFFFFFFFFFF AND DUP2 MSTORE PUSH1 0x20 ADD SWAP1 DUP2 MSTORE PUSH1 0x20 ADD PUSH0 KECCAK256 PUSH0 DUP4 DUP2 MSTORE PUSH1 0x20 ADD SWAP1 DUP2 MSTORE PUSH1 0x20 ADD PUSH0 KECCAK256 SLOAD SWAP1 POP PUSH1 0x9 PUSH0 DUP3 DUP2 MSTORE PUSH1 0x20 ADD SWAP1 DUP2 MSTORE PUSH1 0x20 ADD PUSH0 KECCAK256 PUSH1 0x2 ADD DUP1 SLOAD PUSH2 0x82F SWAP1 PUSH2 0x2BAB JUMP JUMPDEST DUP1 PUSH1 0x1F ADD PUSH1 0x20 DUP1 SWAP2 DIV MUL PUSH1 0x20 ADD PUSH1 0x40 MLOAD SWAP1 DUP2 ADD PUSH1 0x40 MSTORE DUP1 SWAP3 SWAP2 SWAP1 DUP2 DUP2 MSTORE PUSH1 0x20 ADD DUP3 DUP1 SLOAD PUSH2 0x85B SWAP1 PUSH2 0x2BAB JUMP JUMPDEST DUP1 ISZERO PUSH2 0x8A6 JUMPI DUP1 PUSH1 0x1F LT PUSH2 0x87D JUMPI PUSH2 0x100 DUP1 DUP4 SLOAD DIV MUL DUP4 MSTORE SWAP2 PUSH1 0x20 ADD SWAP2 PUSH2 0x8A6 JUMP JUMPDEST DUP3 ADD SWAP2 SWAP1 PUSH0 MSTORE PUSH1 0x20 PUSH0 KECCAK256 SWAP1 JUMPDEST DUP2 SLOAD DUP2 MSTORE SWAP1 PUSH1 0x1 ADD SWAP1 PUSH1 0x20 ADD DUP1 DUP4 GT PUSH2 0x889 JUMPI DUP3 SWAP1 SUB PUSH1 0x1F AND DUP3 ADD SWAP2 JUMPDEST POP POP POP POP POP DUP4 DUP8 DUP2 MLOAD DUP2 LT PUSH2 0x8BE JUMPI PUSH2 0x8BD PUSH2 0x290E JUMP JUMPDEST JUMPDEST PUSH1 0x20 MUL PUSH1 0x20 ADD ADD DUP2 SWAP1 MSTORE POP DUP6 DUP1 PUSH2 0x8D4 SWAP1 PUSH2 0x2BDB JUMP JUMPDEST SWAP7 POP POP POP DUP1 DUP1 PUSH2 0x8E3 SWAP1 PUSH2 0x2C2B JUMP JUMPDEST SWAP2 POP POP PUSH2 0x7B9 JUMP JUMPDEST POP DUP1 SWAP6 POP POP POP POP POP POP JUMPDEST SWAP4 SWAP3 POP POP POP JUMP JUMPDEST PUSH1 0x60 DUP1 PUSH1 0x2 DUP4 PUSH1 0x40 MLOAD PUSH2 0x90F SWAP2 SWAP1 PUSH2 0x2C72 JUMP JUMPDEST SWAP1 DUP2 MSTORE PUSH1 0x20 ADD PUSH1 0x40 MLOAD DUP1 SWAP2 SUB SWAP1 KECCAK256 PUSH1 0x3 DUP5 PUSH1 0x40 MLOAD PUSH2 0x92D SWAP2 SWAP1 PUSH2 0x2C72 JUMP JUMPDEST SWAP1 DUP2 MSTORE PUSH1 0x20 ADD PUSH1 0x40 MLOAD DUP1 SWAP2 SUB SWAP1 KECCAK256 DUP2 DUP1 SLOAD DUP1 PUSH1 0x20 MUL PUSH1 0x20 ADD PUSH1 0x40 MLOAD SWAP1 DUP2 ADD PUSH1 0x40 MSTORE DUP1 SWAP3 SWAP2 SWAP1 DUP2 DUP2 MSTORE PUSH1 0x20 ADD DUP3 DUP1 SLOAD DUP1 ISZERO PUSH2 0x9B7 JUMPI PUSH1 0x20 MUL DUP3 ADD SWAP2 SWAP1 PUSH0 MSTORE PUSH1 0x20 PUSH0 KECCAK256 SWAP1 PUSH0 SWAP1 JUMPDEST DUP3 DUP3 SWAP1 SLOAD SWAP1 PUSH2 0x100 EXP SWAP1 DIV PUSH1 0xFF AND PUSH1 0xC6 DUP2 GT ISZERO PUSH2 0x992 JUMPI PUSH2 0x991 PUSH2 0x1F6D JUMP JUMPDEST JUMPDEST DUP2 MSTORE PUSH1 0x20 ADD SWAP1 PUSH1 0x1 ADD SWAP1 PUSH1 0x20 DUP3 PUSH0 ADD DIV SWAP3 DUP4 ADD SWAP3 PUSH1 0x1 SUB DUP3 MUL SWAP2 POP DUP1 DUP5 GT PUSH2 0x972 JUMPI SWAP1 POP JUMPDEST POP POP POP POP POP SWAP2 POP DUP1 DUP1 SLOAD DUP1 PUSH1 0x20 MUL PUSH1 0x20 ADD PUSH1 0x40 MLOAD SWAP1 DUP2 ADD PUSH1 0x40 MSTORE DUP1 SWAP3 SWAP2 SWAP1 DUP2 DUP2 MSTORE PUSH1 0x20 ADD DUP3 DUP1 SLOAD DUP1 ISZERO PUSH2 0xA3A JUMPI PUSH1 0x20 MUL DUP3 ADD SWAP2 SWAP1 PUSH0 MSTORE PUSH1 0x20 PUSH0 KECCAK256 SWAP1 PUSH0 SWAP1 JUMPDEST DUP3 DUP3 SWAP1 SLOAD SWAP1 PUSH2 0x100 EXP SWAP1 DIV PUSH1 0xFF AND PUSH1 0xC6 DUP2 GT ISZERO PUSH2 0xA15 JUMPI PUSH2 0xA14 PUSH2 0x1F6D JUMP JUMPDEST JUMPDEST DUP2 MSTORE PUSH1 0x20 ADD SWAP1 PUSH1 0x1 ADD SWAP1 PUSH1 0x20 DUP3 PUSH0 ADD DIV SWAP3 DUP4 ADD SWAP3 PUSH1 0x1 SUB DUP3 MUL SWAP2 POP DUP1 DUP5 GT PUSH2 0x9F5 JUMPI SWAP1 POP JUMPDEST POP POP POP POP POP SWAP1 POP SWAP2 POP SWAP2 POP SWAP2 POP SWAP2 JUMP JUMPDEST PUSH1 0x60 PUSH0 PUSH1 0x5 PUSH0 DUP7 DUP2 MSTORE PUSH1 0x20 ADD SWAP1 DUP2 MSTORE PUSH1 0x20 ADD PUSH0 KECCAK256 SLOAD SUB PUSH2 0xABE JUMPI PUSH0 DUP1 PUSH8 0xFFFFFFFFFFFFFFFF DUP2 GT ISZERO PUSH2 0xA7F JUMPI PUSH2 0xA7E PUSH2 0x2103 JUMP JUMPDEST JUMPDEST PUSH1 0x40 MLOAD SWAP1 DUP1 DUP3 MSTORE DUP1 PUSH1 0x20 MUL PUSH1 0x20 ADD DUP3 ADD PUSH1 0x40 MSTORE DUP1 ISZERO PUSH2 0xAB2 JUMPI DUP2 PUSH1 0x20 ADD JUMPDEST PUSH1 0x60 DUP2 MSTORE PUSH1 0x20 ADD SWAP1 PUSH1 0x1 SWAP1 SUB SWAP1 DUP2 PUSH2 0xA9D JUMPI SWAP1 POP JUMPDEST POP SWAP1 POP DUP1 SWAP2 POP POP PUSH2 0xD4C JUMP JUMPDEST PUSH1 0x1 DUP4 GT DUP1 ISZERO PUSH2 0xB01 JUMPI POP PUSH1 0x1 DUP4 PUSH2 0xAD6 SWAP2 SWAP1 PUSH2 0x2A7A JUMP JUMPDEST DUP3 PUSH1 0x1 PUSH1 0x5 PUSH0 DUP9 DUP2 MSTORE PUSH1 0x20 ADD SWAP1 DUP2 MSTORE PUSH1 0x20 ADD PUSH0 KECCAK256 SLOAD PUSH2 0xAF5 SWAP2 SWAP1 PUSH2 0x2A7A JUMP JUMPDEST PUSH2 0xAFF SWAP2 SWAP1 PUSH2 0x2ADA JUMP JUMPDEST LT JUMPDEST ISZERO PUSH2 0xB60 JUMPI PUSH0 DUP1 PUSH8 0xFFFFFFFFFFFFFFFF DUP2 GT ISZERO PUSH2 0xB21 JUMPI PUSH2 0xB20 PUSH2 0x2103 JUMP JUMPDEST JUMPDEST PUSH1 0x40 MLOAD SWAP1 DUP1 DUP3 MSTORE DUP1 PUSH1 0x20 MUL PUSH1 0x20 ADD DUP3 ADD PUSH1 0x40 MSTORE DUP1 ISZERO PUSH2 0xB54 JUMPI DUP2 PUSH1 0x20 ADD JUMPDEST PUSH1 0x60 DUP2 MSTORE PUSH1 0x20 ADD SWAP1 PUSH1 0x1 SWAP1 SUB SWAP1 DUP2 PUSH2 0xB3F JUMPI SWAP1 POP JUMPDEST POP SWAP1 POP DUP1 SWAP2 POP POP PUSH2 0xD4C JUMP JUMPDEST PUSH0 DUP1 PUSH0 SWAP1 POP PUSH0 DUP5 PUSH1 0x1 DUP8 PUSH2 0xB74 SWAP2 SWAP1 PUSH2 0x2A7A JUMP JUMPDEST PUSH2 0xB7E SWAP2 SWAP1 PUSH2 0x2B0A JUMP JUMPDEST PUSH1 0x1 PUSH1 0x5 PUSH0 DUP11 DUP2 MSTORE PUSH1 0x20 ADD SWAP1 DUP2 MSTORE PUSH1 0x20 ADD PUSH0 KECCAK256 SLOAD PUSH2 0xB9C SWAP2 SWAP1 PUSH2 0x2A7A JUMP JUMPDEST PUSH2 0xBA6 SWAP2 SWAP1 PUSH2 0x2A7A JUMP JUMPDEST SWAP1 POP PUSH0 DUP6 DUP3 LT ISZERO PUSH2 0xBC8 JUMPI PUSH0 SWAP1 POP PUSH1 0x1 DUP3 PUSH2 0xBC1 SWAP2 SWAP1 PUSH2 0x2B4B JUMP JUMPDEST SWAP4 POP PUSH2 0xBE6 JUMP JUMPDEST PUSH1 0x1 DUP7 DUP4 PUSH2 0xBD6 SWAP2 SWAP1 PUSH2 0x2A7A JUMP JUMPDEST PUSH2 0xBE0 SWAP2 SWAP1 PUSH2 0x2B4B JUMP JUMPDEST SWAP1 POP DUP6 SWAP4 POP JUMPDEST PUSH0 DUP5 PUSH8 0xFFFFFFFFFFFFFFFF DUP2 GT ISZERO PUSH2 0xC01 JUMPI PUSH2 0xC00 PUSH2 0x2103 JUMP JUMPDEST JUMPDEST PUSH1 0x40 MLOAD SWAP1 DUP1 DUP3 MSTORE DUP1 PUSH1 0x20 MUL PUSH1 0x20 ADD DUP3 ADD PUSH1 0x40 MSTORE DUP1 ISZERO PUSH2 0xC34 JUMPI DUP2 PUSH1 0x20 ADD JUMPDEST PUSH1 0x60 DUP2 MSTORE PUSH1 0x20 ADD SWAP1 PUSH1 0x1 SWAP1 SUB SWAP1 DUP2 PUSH2 0xC1F JUMPI SWAP1 POP JUMPDEST POP SWAP1 POP PUSH0 DUP4 SWAP1 POP JUMPDEST DUP3 DUP2 SLT PUSH2 0xD42 JUMPI PUSH0 PUSH1 0x7 PUSH0 DUP13 DUP2 MSTORE PUSH1 0x20 ADD SWAP1 DUP2 MSTORE PUSH1 0x20 ADD PUSH0 KECCAK256 PUSH0 DUP4 DUP2 MSTORE PUSH1 0x20 ADD SWAP1 DUP2 MSTORE PUSH1 0x20 ADD PUSH0 KECCAK256 SLOAD SWAP1 POP PUSH1 0x9 PUSH0 DUP3 DUP2 MSTORE PUSH1 0x20 ADD SWAP1 DUP2 MSTORE PUSH1 0x20 ADD PUSH0 KECCAK256 PUSH1 0x2 ADD DUP1 SLOAD PUSH2 0xC86 SWAP1 PUSH2 0x2BAB JUMP JUMPDEST DUP1 PUSH1 0x1F ADD PUSH1 0x20 DUP1 SWAP2 DIV MUL PUSH1 0x20 ADD PUSH1 0x40 MLOAD SWAP1 DUP2 ADD PUSH1 0x40 MSTORE DUP1 SWAP3 SWAP2 SWAP1 DUP2 DUP2 MSTORE PUSH1 0x20 ADD DUP3 DUP1 SLOAD PUSH2 0xCB2 SWAP1 PUSH2 0x2BAB JUMP JUMPDEST DUP1 ISZERO PUSH2 0xCFD JUMPI DUP1 PUSH1 0x1F LT PUSH2 0xCD4 JUMPI PUSH2 0x100 DUP1 DUP4 SLOAD DIV MUL DUP4 MSTORE SWAP2 PUSH1 0x20 ADD SWAP2 PUSH2 0xCFD JUMP JUMPDEST DUP3 ADD SWAP2 SWAP1 PUSH0 MSTORE PUSH1 0x20 PUSH0 KECCAK256 SWAP1 JUMPDEST DUP2 SLOAD DUP2 MSTORE SWAP1 PUSH1 0x1 ADD SWAP1 PUSH1 0x20 ADD DUP1 DUP4 GT PUSH2 0xCE0 JUMPI DUP3 SWAP1 SUB PUSH1 0x1F AND DUP3 ADD SWAP2 JUMPDEST POP POP POP POP POP DUP4 DUP8 DUP2 MLOAD DUP2 LT PUSH2 0xD15 JUMPI PUSH2 0xD14 PUSH2 0x290E JUMP JUMPDEST JUMPDEST PUSH1 0x20 MUL PUSH1 0x20 ADD ADD DUP2 SWAP1 MSTORE POP DUP6 DUP1 PUSH2 0xD2B SWAP1 PUSH2 0x2BDB JUMP JUMPDEST SWAP7 POP POP POP DUP1 DUP1 PUSH2 0xD3A SWAP1 PUSH2 0x2C2B JUMP JUMPDEST SWAP2 POP POP PUSH2 0xC3C JUMP JUMPDEST POP DUP1 SWAP6 POP POP POP POP POP POP JUMPDEST SWAP4 SWAP3 POP POP POP JUMP JUMPDEST PUSH2 0xD5B PUSH2 0x1E24 JUMP JUMPDEST PUSH20 0xFFFFFFFFFFFFFFFFFFFFFFFFFFFFFFFFFFFFFFFF AND PUSH2 0xD79 PUSH2 0xDDA JUMP JUMPDEST PUSH20 0xFFFFFFFFFFFFFFFFFFFFFFFFFFFFFFFFFFFFFFFF AND EQ PUSH2 0xDCF JUMPI PUSH1 0x40 MLOAD PUSH32 0x8C379A000000000000000000000000000000000000000000000000000000000 DUP2 MSTORE PUSH1 0x4 ADD PUSH2 0xDC6 SWAP1 PUSH2 0x2CD2 JUMP JUMPDEST PUSH1 0x40 MLOAD DUP1 SWAP2 SUB SWAP1 REVERT JUMPDEST PUSH2 0xDD8 PUSH0 PUSH2 0x1E2B JUMP JUMPDEST JUMP JUMPDEST PUSH0 DUP1 PUSH0 SWAP1 SLOAD SWAP1 PUSH2 0x100 EXP SWAP1 DIV PUSH20 0xFFFFFFFFFFFFFFFFFFFFFFFFFFFFFFFFFFFFFFFF AND SWAP1 POP SWAP1 JUMP JUMPDEST PUSH1 0x60 PUSH2 0xE42 DUP4 PUSH1 0x40 MLOAD DUP1 PUSH1 0x40 ADD PUSH1 0x40 MSTORE DUP1 PUSH1 0xA DUP2 MSTORE PUSH1 0x20 ADD PUSH32 0x676574436F6D6D656E7400000000000000000000000000000000000000000000 DUP2 MSTORE POP PUSH2 0x1EEC JUMP JUMPDEST ISZERO PUSH2 0xFB3 JUMPI PUSH0 DUP3 DUP1 PUSH1 0x20 ADD SWAP1 MLOAD DUP2 ADD SWAP1 PUSH2 0xE5C SWAP2 SWAP1 PUSH2 0x2D04 JUMP JUMPDEST SWAP1 POP PUSH0 PUSH1 0x9 PUSH0 DUP4 DUP2 MSTORE PUSH1 0x20 ADD SWAP1 DUP2 MSTORE PUSH1 0x20 ADD PUSH0 KECCAK256 PUSH1 0x40 MLOAD DUP1 PUSH1 0x80 ADD PUSH1 0x40 MSTORE SWAP1 DUP2 PUSH0 DUP3 ADD SLOAD DUP2 MSTORE PUSH1 0x20 ADD PUSH1 0x1 DUP3 ADD SLOAD DUP2 MSTORE PUSH1 0x20 ADD PUSH1 0x2 DUP3 ADD DUP1 SLOAD PUSH2 0xE9E SWAP1 PUSH2 0x2BAB JUMP JUMPDEST DUP1 PUSH1 0x1F ADD PUSH1 0x20 DUP1 SWAP2 DIV MUL PUSH1 0x20 ADD PUSH1 0x40 MLOAD SWAP1 DUP2 ADD PUSH1 0x40 MSTORE DUP1 SWAP3 SWAP2 SWAP1 DUP2 DUP2 MSTORE PUSH1 0x20 ADD DUP3 DUP1 SLOAD PUSH2 0xECA SWAP1 PUSH2 0x2BAB JUMP JUMPDEST DUP1 ISZERO PUSH2 0xF15 JUMPI DUP1 PUSH1 0x1F LT PUSH2 0xEEC JUMPI PUSH2 0x100 DUP1 DUP4 SLOAD DIV MUL DUP4 MSTORE SWAP2 PUSH1 0x20 ADD SWAP2 PUSH2 0xF15 JUMP JUMPDEST DUP3 ADD SWAP2 SWAP1 PUSH0 MSTORE PUSH1 0x20 PUSH0 KECCAK256 SWAP1 JUMPDEST DUP2 SLOAD DUP2 MSTORE SWAP1 PUSH1 0x1 ADD SWAP1 PUSH1 0x20 ADD DUP1 DUP4 GT PUSH2 0xEF8 JUMPI DUP3 SWAP1 SUB PUSH1 0x1F AND DUP3 ADD SWAP2 JUMPDEST POP POP POP POP POP DUP2 MSTORE PUSH1 0x20 ADD PUSH1 0x3 DUP3 ADD PUSH0 SWAP1 SLOAD SWAP1 PUSH2 0x100 EXP SWAP1 DIV PUSH20 0xFFFFFFFFFFFFFFFFFFFFFFFFFFFFFFFFFFFFFFFF AND PUSH20 0xFFFFFFFFFFFFFFFFFFFFFFFFFFFFFFFFFFFFFFFF AND PUSH20 0xFFFFFFFFFFFFFFFFFFFFFFFFFFFFFFFFFFFFFFFF AND DUP2 MSTORE POP POP SWAP1 POP DUP1 PUSH0 ADD MLOAD DUP2 PUSH1 0x20 ADD MLOAD DUP3 PUSH1 0x40 ADD MLOAD DUP4 PUSH1 0x60 ADD MLOAD PUSH1 0x40 MLOAD PUSH1 0x20 ADD PUSH2 0xF9B SWAP5 SWAP4 SWAP3 SWAP2 SWAP1 PUSH2 0x2D2F JUMP JUMPDEST PUSH1 0x40 MLOAD PUSH1 0x20 DUP2 DUP4 SUB SUB DUP2 MSTORE SWAP1 PUSH1 0x40 MSTORE SWAP3 POP POP POP PUSH2 0x1108 JUMP JUMPDEST PUSH2 0xFF2 DUP4 PUSH1 0x40 MLOAD DUP1 PUSH1 0x40 ADD PUSH1 0x40 MSTORE DUP1 PUSH1 0xB DUP2 MSTORE PUSH1 0x20 ADD PUSH32 0x676574436F6D6D656E7473000000000000000000000000000000000000000000 DUP2 MSTORE POP PUSH2 0x1EEC JUMP JUMPDEST ISZERO PUSH2 0x104D JUMPI PUSH0 DUP1 PUSH0 DUP5 DUP1 PUSH1 0x20 ADD SWAP1 MLOAD DUP2 ADD SWAP1 PUSH2 0x100E SWAP2 SWAP1 PUSH2 0x2D79 JUMP JUMPDEST SWAP3 POP SWAP3 POP SWAP3 POP PUSH0 PUSH2 0x1020 DUP5 DUP5 DUP5 PUSH2 0xA4A JUMP JUMPDEST SWAP1 POP DUP1 PUSH1 0x40 MLOAD PUSH1 0x20 ADD PUSH2 0x1033 SWAP2 SWAP1 PUSH2 0x251D JUMP JUMPDEST PUSH1 0x40 MLOAD PUSH1 0x20 DUP2 DUP4 SUB SUB DUP2 MSTORE SWAP1 PUSH1 0x40 MSTORE SWAP5 POP POP POP POP POP PUSH2 0x1108 JUMP JUMPDEST PUSH2 0x108C DUP4 PUSH1 0x40 MLOAD DUP1 PUSH1 0x40 ADD PUSH1 0x40 MSTORE DUP1 PUSH1 0x14 DUP2 MSTORE PUSH1 0x20 ADD PUSH32 0x676574436F6D6D656E7473427941646472657373000000000000000000000000 DUP2 MSTORE POP PUSH2 0x1EEC JUMP JUMPDEST ISZERO PUSH2 0x10E7 JUMPI PUSH0 DUP1 PUSH0 DUP5 DUP1 PUSH1 0x20 ADD SWAP1 MLOAD DUP2 ADD SWAP1 PUSH2 0x10A8 SWAP2 SWAP1 PUSH2 0x2E04 JUMP JUMPDEST SWAP3 POP SWAP3 POP SWAP3 POP PUSH0 PUSH2 0x10BA DUP5 DUP5 DUP5 PUSH2 0x543 JUMP JUMPDEST SWAP1 POP DUP1 PUSH1 0x40 MLOAD PUSH1 0x20 ADD PUSH2 0x10CD SWAP2 SWAP1 PUSH2 0x251D JUMP JUMPDEST PUSH1 0x40 MLOAD PUSH1 0x20 DUP2 DUP4 SUB SUB DUP2 MSTORE SWAP1 PUSH1 0x40 MSTORE SWAP5 POP POP POP POP POP PUSH2 0x1108 JUMP JUMPDEST PUSH1 0x40 MLOAD PUSH1 0x20 ADD PUSH2 0x10F6 SWAP1 PUSH2 0x2E77 JUMP JUMPDEST PUSH1 0x40 MLOAD PUSH1 0x20 DUP2 DUP4 SUB SUB DUP2 MSTORE SWAP1 PUSH1 0x40 MSTORE SWAP1 POP JUMPDEST SWAP3 SWAP2 POP POP JUMP JUMPDEST PUSH1 0x60 PUSH2 0x114F DUP4 PUSH1 0x40 MLOAD DUP1 PUSH1 0x40 ADD PUSH1 0x40 MSTORE DUP1 PUSH1 0xB DUP2 MSTORE PUSH1 0x20 ADD PUSH32 0x706F7374436F6D6D656E74000000000000000000000000000000000000000000 DUP2 MSTORE POP PUSH2 0x1EEC JUMP JUMPDEST ISZERO PUSH2 0x141C JUMPI PUSH0 DUP1 PUSH0 DUP5 DUP1 PUSH1 0x20 ADD SWAP1 MLOAD DUP2 ADD SWAP1 PUSH2 0x116B SWAP2 SWAP1 PUSH2 0x2F03 JUMP JUMPDEST SWAP3 POP SWAP3 POP SWAP3 POP PUSH0 PUSH2 0x1181 DUP5 PUSH1 0x4 SLOAD DUP6 DUP6 CALLER PUSH2 0x4C4 JUMP JUMPDEST SWAP1 POP PUSH0 PUSH1 0x5 PUSH0 DUP7 DUP2 MSTORE PUSH1 0x20 ADD SWAP1 DUP2 MSTORE PUSH1 0x20 ADD PUSH0 KECCAK256 SLOAD SWAP1 POP PUSH0 PUSH1 0x6 PUSH0 CALLER PUSH20 0xFFFFFFFFFFFFFFFFFFFFFFFFFFFFFFFFFFFFFFFF AND PUSH20 0xFFFFFFFFFFFFFFFFFFFFFFFFFFFFFFFFFFFFFFFF AND DUP2 MSTORE PUSH1 0x20 ADD SWAP1 DUP2 MSTORE PUSH1 0x20 ADD PUSH0 KECCAK256 SLOAD SWAP1 POP CALLER PUSH20 0xFFFFFFFFFFFFFFFFFFFFFFFFFFFFFFFFFFFFFFFF AND PUSH1 0x4 SLOAD DUP8 PUSH32 0x9BC96546B626861A7C121121FEBA6787EE7E05C143EBC7C55ED8FBC660448C90 DUP7 PUSH1 0x40 MLOAD PUSH2 0x1223 SWAP2 SWAP1 PUSH2 0x23AA JUMP JUMPDEST PUSH1 0x40 MLOAD DUP1 SWAP2 SUB SWAP1 LOG4 PUSH1 0x40 MLOAD DUP1 PUSH1 0x80 ADD PUSH1 0x40 MSTORE DUP1 DUP8 DUP2 MSTORE PUSH1 0x20 ADD PUSH1 0x4 SLOAD DUP2 MSTORE PUSH1 0x20 ADD DUP5 DUP2 MSTORE PUSH1 0x20 ADD CALLER PUSH20 0xFFFFFFFFFFFFFFFFFFFFFFFFFFFFFFFFFFFFFFFF AND DUP2 MSTORE POP PUSH1 0x9 PUSH0 PUSH1 0x4 SLOAD DUP2 MSTORE PUSH1 0x20 ADD SWAP1 DUP2 MSTORE PUSH1 0x20 ADD PUSH0 KECCAK256 PUSH0 DUP3 ADD MLOAD DUP2 PUSH0 ADD SSTORE PUSH1 0x20 DUP3 ADD MLOAD DUP2 PUSH1 0x1 ADD SSTORE PUSH1 0x40 DUP3 ADD MLOAD DUP2 PUSH1 0x2 ADD SWAP1 DUP2 PUSH2 0x129E SWAP2 SWAP1 PUSH2 0x3128 JUMP JUMPDEST POP PUSH1 0x60 DUP3 ADD MLOAD DUP2 PUSH1 0x3 ADD PUSH0 PUSH2 0x100 EXP DUP2 SLOAD DUP2 PUSH20 0xFFFFFFFFFFFFFFFFFFFFFFFFFFFFFFFFFFFFFFFF MUL NOT AND SWAP1 DUP4 PUSH20 0xFFFFFFFFFFFFFFFFFFFFFFFFFFFFFFFFFFFFFFFF AND MUL OR SWAP1 SSTORE POP SWAP1 POP POP PUSH1 0x4 SLOAD PUSH1 0x7 PUSH0 DUP9 DUP2 MSTORE PUSH1 0x20 ADD SWAP1 DUP2 MSTORE PUSH1 0x20 ADD PUSH0 KECCAK256 PUSH0 DUP5 DUP2 MSTORE PUSH1 0x20 ADD SWAP1 DUP2 MSTORE PUSH1 0x20 ADD PUSH0 KECCAK256 DUP2 SWAP1 SSTORE POP PUSH1 0x4 SLOAD PUSH1 0x8 PUSH0 CALLER PUSH20 0xFFFFFFFFFFFFFFFFFFFFFFFFFFFFFFFFFFFFFFFF AND PUSH20 0xFFFFFFFFFFFFFFFFFFFFFFFFFFFFFFFFFFFFFFFF AND DUP2 MSTORE PUSH1 0x20 ADD SWAP1 DUP2 MSTORE PUSH1 0x20 ADD PUSH0 KECCAK256 PUSH0 DUP4 DUP2 MSTORE PUSH1 0x20 ADD SWAP1 DUP2 MSTORE PUSH1 0x20 ADD PUSH0 KECCAK256 DUP2 SWAP1 SSTORE POP PUSH1 0x5 PUSH0 DUP8 DUP2 MSTORE PUSH1 0x20 ADD SWAP1 DUP2 MSTORE PUSH1 0x20 ADD PUSH0 KECCAK256 PUSH0 DUP2 SLOAD DUP1 SWAP3 SWAP2 SWAP1 PUSH2 0x1383 SWAP1 PUSH2 0x2BDB JUMP JUMPDEST SWAP2 SWAP1 POP SSTORE POP PUSH1 0x6 PUSH0 CALLER PUSH20 0xFFFFFFFFFFFFFFFFFFFFFFFFFFFFFFFFFFFFFFFF AND PUSH20 0xFFFFFFFFFFFFFFFFFFFFFFFFFFFFFFFFFFFFFFFF AND DUP2 MSTORE PUSH1 0x20 ADD SWAP1 DUP2 MSTORE PUSH1 0x20 ADD PUSH0 KECCAK256 PUSH0 DUP2 SLOAD DUP1 SWAP3 SWAP2 SWAP1 PUSH2 0x13D5 SWAP1 PUSH2 0x2BDB JUMP JUMPDEST SWAP2 SWAP1 POP SSTORE POP PUSH1 0x4 PUSH0 DUP2 SLOAD DUP1 SWAP3 SWAP2 SWAP1 PUSH2 0x13EC SWAP1 PUSH2 0x2BDB JUMP JUMPDEST SWAP2 SWAP1 POP SSTORE POP PUSH1 0x40 MLOAD PUSH1 0x20 ADD PUSH2 0x1400 SWAP1 PUSH2 0x2E77 JUMP JUMPDEST PUSH1 0x40 MLOAD PUSH1 0x20 DUP2 DUP4 SUB SUB DUP2 MSTORE SWAP1 PUSH1 0x40 MSTORE SWAP7 POP POP POP POP POP POP POP PUSH2 0x16D5 JUMP JUMPDEST PUSH2 0x145B DUP4 PUSH1 0x40 MLOAD DUP1 PUSH1 0x40 ADD PUSH1 0x40 MSTORE DUP1 PUSH1 0xD DUP2 MSTORE PUSH1 0x20 ADD PUSH32 0x64656C657465436F6D6D656E7400000000000000000000000000000000000000 DUP2 MSTORE POP PUSH2 0x1EEC JUMP JUMPDEST ISZERO PUSH2 0x16B4 JUMPI PUSH0 DUP3 DUP1 PUSH1 0x20 ADD SWAP1 MLOAD DUP2 ADD SWAP1 PUSH2 0x1475 SWAP2 SWAP1 PUSH2 0x2D04 JUMP JUMPDEST SWAP1 POP PUSH0 PUSH1 0x9 PUSH0 DUP4 DUP2 MSTORE PUSH1 0x20 ADD SWAP1 DUP2 MSTORE PUSH1 0x20 ADD PUSH0 KECCAK256 PUSH1 0x40 MLOAD DUP1 PUSH1 0x80 ADD PUSH1 0x40 MSTORE SWAP1 DUP2 PUSH0 DUP3 ADD SLOAD DUP2 MSTORE PUSH1 0x20 ADD PUSH1 0x1 DUP3 ADD SLOAD DUP2 MSTORE PUSH1 0x20 ADD PUSH1 0x2 DUP3 ADD DUP1 SLOAD PUSH2 0x14B7 SWAP1 PUSH2 0x2BAB JUMP JUMPDEST DUP1 PUSH1 0x1F ADD PUSH1 0x20 DUP1 SWAP2 DIV MUL PUSH1 0x20 ADD PUSH1 0x40 MLOAD SWAP1 DUP2 ADD PUSH1 0x40 MSTORE DUP1 SWAP3 SWAP2 SWAP1 DUP2 DUP2 MSTORE PUSH1 0x20 ADD DUP3 DUP1 SLOAD PUSH2 0x14E3 SWAP1 PUSH2 0x2BAB JUMP JUMPDEST DUP1 ISZERO PUSH2 0x152E JUMPI DUP1 PUSH1 0x1F LT PUSH2 0x1505 JUMPI PUSH2 0x100 DUP1 DUP4 SLOAD DIV MUL DUP4 MSTORE SWAP2 PUSH1 0x20 ADD SWAP2 PUSH2 0x152E JUMP JUMPDEST DUP3 ADD SWAP2 SWAP1 PUSH0 MSTORE PUSH1 0x20 PUSH0 KECCAK256 SWAP1 JUMPDEST DUP2 SLOAD DUP2 MSTORE SWAP1 PUSH1 0x1 ADD SWAP1 PUSH1 0x20 ADD DUP1 DUP4 GT PUSH2 0x1511 JUMPI DUP3 SWAP1 SUB PUSH1 0x1F AND DUP3 ADD SWAP2 JUMPDEST POP POP POP POP POP DUP2 MSTORE PUSH1 0x20 ADD PUSH1 0x3 DUP3 ADD PUSH0 SWAP1 SLOAD SWAP1 PUSH2 0x100 EXP SWAP1 DIV PUSH20 0xFFFFFFFFFFFFFFFFFFFFFFFFFFFFFFFFFFFFFFFF AND PUSH20 0xFFFFFFFFFFFFFFFFFFFFFFFFFFFFFFFFFFFFFFFF AND PUSH20 0xFFFFFFFFFFFFFFFFFFFFFFFFFFFFFFFFFFFFFFFF AND DUP2 MSTORE POP POP SWAP1 POP CALLER PUSH20 0xFFFFFFFFFFFFFFFFFFFFFFFFFFFFFFFFFFFFFFFF AND DUP2 PUSH1 0x60 ADD MLOAD PUSH20 0xFFFFFFFFFFFFFFFFFFFFFFFFFFFFFFFFFFFFFFFF AND EQ DUP1 PUSH2 0x15FE JUMPI POP PUSH2 0x15CF PUSH2 0xDDA JUMP JUMPDEST PUSH20 0xFFFFFFFFFFFFFFFFFFFFFFFFFFFFFFFFFFFFFFFF AND CALLER PUSH20 0xFFFFFFFFFFFFFFFFFFFFFFFFFFFFFFFFFFFFFFFF AND EQ JUMPDEST PUSH2 0x1606 JUMPI PUSH0 DUP1 REVERT JUMPDEST PUSH0 PUSH2 0x1637 DUP3 PUSH0 ADD MLOAD DUP5 PUSH1 0x40 MLOAD DUP1 PUSH1 0x20 ADD PUSH1 0x40 MSTORE DUP1 PUSH0 DUP2 MSTORE POP PUSH1 0x40 MLOAD DUP1 PUSH1 0x20 ADD PUSH1 0x40 MSTORE DUP1 PUSH0 DUP2 MSTORE POP DUP7 PUSH1 0x60 ADD MLOAD PUSH2 0x4C4 JUMP JUMPDEST SWAP1 POP DUP1 PUSH1 0x9 PUSH0 DUP6 DUP2 MSTORE PUSH1 0x20 ADD SWAP1 DUP2 MSTORE PUSH1 0x20 ADD PUSH0 KECCAK256 PUSH1 0x2 ADD SWAP1 DUP2 PUSH2 0x165A SWAP2 SWAP1 PUSH2 0x3128 JUMP JUMPDEST POP DUP3 DUP3 PUSH0 ADD MLOAD PUSH32 0x39FE72D1F4E19F77042A77BEBB13E9015B3D5C334C8B5F5DDCA187D9B15A39FA PUSH1 0x40 MLOAD PUSH1 0x40 MLOAD DUP1 SWAP2 SUB SWAP1 LOG3 PUSH1 0x40 MLOAD PUSH1 0x20 ADD PUSH2 0x169B SWAP1 PUSH2 0x2E77 JUMP JUMPDEST PUSH1 0x40 MLOAD PUSH1 0x20 DUP2 DUP4 SUB SUB DUP2 MSTORE SWAP1 PUSH1 0x40 MSTORE SWAP4 POP POP POP POP PUSH2 0x16D5 JUMP JUMPDEST PUSH1 0x40 MLOAD PUSH1 0x20 ADD PUSH2 0x16C3 SWAP1 PUSH2 0x2E77 JUMP JUMPDEST PUSH1 0x40 MLOAD PUSH1 0x20 DUP2 DUP4 SUB SUB DUP2 MSTORE SWAP1 PUSH1 0x40 MSTORE SWAP1 POP JUMPDEST SWAP3 SWAP2 POP POP JUMP JUMPDEST PUSH1 0x60 DUP3 DUP3 PUSH1 0x40 MLOAD PUSH1 0x20 ADD PUSH2 0x16F0 SWAP3 SWAP2 SWAP1 PUSH2 0x31F7 JUMP JUMPDEST PUSH1 0x40 MLOAD PUSH1 0x20 DUP2 DUP4 SUB SUB DUP2 MSTORE SWAP1 PUSH1 0x40 MSTORE SWAP1 POP SWAP3 SWAP2 POP POP JUMP JUMPDEST PUSH2 0x170F PUSH2 0x1E24 JUMP JUMPDEST PUSH20 0xFFFFFFFFFFFFFFFFFFFFFFFFFFFFFFFFFFFFFFFF AND PUSH2 0x172D PUSH2 0xDDA JUMP JUMPDEST PUSH20 0xFFFFFFFFFFFFFFFFFFFFFFFFFFFFFFFFFFFFFFFF AND EQ PUSH2 0x1783 JUMPI PUSH1 0x40 MLOAD PUSH32 0x8C379A000000000000000000000000000000000000000000000000000000000 DUP2 MSTORE PUSH1 0x4 ADD PUSH2 0x177A SWAP1 PUSH2 0x2CD2 JUMP JUMPDEST PUSH1 0x40 MLOAD DUP1 SWAP2 SUB SWAP1 REVERT JUMPDEST PUSH0 PUSH20 0xFFFFFFFFFFFFFFFFFFFFFFFFFFFFFFFFFFFFFFFF AND DUP2 PUSH20 0xFFFFFFFFFFFFFFFFFFFFFFFFFFFFFFFFFFFFFFFF AND SUB PUSH2 0x17F1 JUMPI PUSH1 0x40 MLOAD PUSH32 0x8C379A000000000000000000000000000000000000000000000000000000000 DUP2 MSTORE PUSH1 0x4 ADD PUSH2 0x17E8 SWAP1 PUSH2 0x329C JUMP JUMPDEST PUSH1 0x40 MLOAD DUP1 SWAP2 SUB SWAP1 REVERT JUMPDEST PUSH2 0x17FA DUP2 PUSH2 0x1E2B JUMP JUMPDEST POP JUMP JUMPDEST PUSH1 0x60 PUSH1 0x1 PUSH0 DUP4 PUSH1 0x3 DUP2 GT ISZERO PUSH2 0x1815 JUMPI PUSH2 0x1814 PUSH2 0x1F6D JUMP JUMPDEST JUMPDEST PUSH1 0x3 DUP2 GT ISZERO PUSH2 0x1827 JUMPI PUSH2 0x1826 PUSH2 0x1F6D JUMP JUMPDEST JUMPDEST DUP2 MSTORE PUSH1 0x20 ADD SWAP1 DUP2 MSTORE PUSH1 0x20 ADD PUSH0 KECCAK256 DUP1 SLOAD DUP1 PUSH1 0x20 MUL PUSH1 0x20 ADD PUSH1 0x40 MLOAD SWAP1 DUP2 ADD PUSH1 0x40 MSTORE DUP1 SWAP3 SWAP2 SWAP1 DUP2 DUP2 MSTORE PUSH1 0x20 ADD PUSH0 SWAP1 JUMPDEST DUP3 DUP3 LT ISZERO PUSH2 0x18FB JUMPI DUP4 DUP3 SWAP1 PUSH0 MSTORE PUSH1 0x20 PUSH0 KECCAK256 ADD DUP1 SLOAD PUSH2 0x1870 SWAP1 PUSH2 0x2BAB JUMP JUMPDEST DUP1 PUSH1 0x1F ADD PUSH1 0x20 DUP1 SWAP2 DIV MUL PUSH1 0x20 ADD PUSH1 0x40 MLOAD SWAP1 DUP2 ADD PUSH1 0x40 MSTORE DUP1 SWAP3 SWAP2 SWAP1 DUP2 DUP2 MSTORE PUSH1 0x20 ADD DUP3 DUP1 SLOAD PUSH2 0x189C SWAP1 PUSH2 0x2BAB JUMP JUMPDEST DUP1 ISZERO PUSH2 0x18E7 JUMPI DUP1 PUSH1 0x1F LT PUSH2 0x18BE JUMPI PUSH2 0x100 DUP1 DUP4 SLOAD DIV MUL DUP4 MSTORE SWAP2 PUSH1 0x20 ADD SWAP2 PUSH2 0x18E7 JUMP JUMPDEST DUP3 ADD SWAP2 SWAP1 PUSH0 MSTORE PUSH1 0x20 PUSH0 KECCAK256 SWAP1 JUMPDEST DUP2 SLOAD DUP2 MSTORE SWAP1 PUSH1 0x1 ADD SWAP1 PUSH1 0x20 ADD DUP1 DUP4 GT PUSH2 0x18CA JUMPI DUP3 SWAP1 SUB PUSH1 0x1F AND DUP3 ADD SWAP2 JUMPDEST POP POP POP POP POP DUP2 MSTORE PUSH1 0x20 ADD SWAP1 PUSH1 0x1 ADD SWAP1 PUSH2 0x1853 JUMP JUMPDEST POP POP POP POP SWAP1 POP SWAP2 SWAP1 POP JUMP JUMPDEST PUSH1 0x60 PUSH0 DUP3 SUB PUSH2 0x194C JUMPI PUSH1 0x40 MLOAD DUP1 PUSH1 0x40 ADD PUSH1 0x40 MSTORE DUP1 PUSH1 0x1 DUP2 MSTORE PUSH1 0x20 ADD PUSH32 0x3000000000000000000000000000000000000000000000000000000000000000 DUP2 MSTORE POP SWAP1 POP PUSH2 0x1A5A JUMP JUMPDEST PUSH0 DUP3 SWAP1 POP PUSH0 JUMPDEST PUSH0 DUP3 EQ PUSH2 0x197B JUMPI DUP1 DUP1 PUSH2 0x1964 SWAP1 PUSH2 0x2BDB JUMP JUMPDEST SWAP2 POP POP PUSH1 0xA DUP3 PUSH2 0x1974 SWAP2 SWAP1 PUSH2 0x2ADA JUMP JUMPDEST SWAP2 POP PUSH2 0x1952 JUMP JUMPDEST PUSH0 DUP2 PUSH8 0xFFFFFFFFFFFFFFFF DUP2 GT ISZERO PUSH2 0x1996 JUMPI PUSH2 0x1995 PUSH2 0x2103 JUMP JUMPDEST JUMPDEST PUSH1 0x40 MLOAD SWAP1 DUP1 DUP3 MSTORE DUP1 PUSH1 0x1F ADD PUSH1 0x1F NOT AND PUSH1 0x20 ADD DUP3 ADD PUSH1 0x40 MSTORE DUP1 ISZERO PUSH2 0x19C8 JUMPI DUP2 PUSH1 0x20 ADD PUSH1 0x1 DUP3 MUL DUP1 CALLDATASIZE DUP4 CALLDATACOPY DUP1 DUP3 ADD SWAP2 POP POP SWAP1 POP JUMPDEST POP SWAP1 POP JUMPDEST PUSH0 DUP6 EQ PUSH2 0x1A53 JUMPI PUSH1 0x1 DUP3 PUSH2 0x19E0 SWAP2 SWAP1 PUSH2 0x2A7A JUMP JUMPDEST SWAP2 POP PUSH1 0xA DUP6 PUSH2 0x19EF SWAP2 SWAP1 PUSH2 0x32BA JUMP JUMPDEST PUSH1 0x30 PUSH2 0x19FB SWAP2 SWAP1 PUSH2 0x2B4B JUMP JUMPDEST PUSH1 0xF8 SHL DUP2 DUP4 DUP2 MLOAD DUP2 LT PUSH2 0x1A11 JUMPI PUSH2 0x1A10 PUSH2 0x290E JUMP JUMPDEST JUMPDEST PUSH1 0x20 ADD ADD SWAP1 PUSH31 0xFFFFFFFFFFFFFFFFFFFFFFFFFFFFFFFFFFFFFFFFFFFFFFFFFFFFFFFFFFFFFF NOT AND SWAP1 DUP2 PUSH0 BYTE SWAP1 MSTORE8 POP PUSH1 0xA DUP6 PUSH2 0x1A4C SWAP2 SWAP1 PUSH2 0x2ADA JUMP JUMPDEST SWAP5 POP PUSH2 0x19CC JUMP JUMPDEST DUP1 SWAP4 POP POP POP POP JUMPDEST SWAP2 SWAP1 POP JUMP JUMPDEST PUSH1 0x60 PUSH0 DUP3 MLOAD SWAP1 POP PUSH0 DUP2 SUB PUSH2 0x1A84 JUMPI PUSH1 0x40 MLOAD DUP1 PUSH1 0x20 ADD PUSH1 0x40 MSTORE DUP1 PUSH0 DUP2 MSTORE POP SWAP2 POP POP PUSH2 0x1BEA JUMP JUMPDEST PUSH0 PUSH1 0x3 PUSH1 0x2 DUP4 PUSH2 0x1A94 SWAP2 SWAP1 PUSH2 0x2B4B JUMP JUMPDEST PUSH2 0x1A9E SWAP2 SWAP1 PUSH2 0x2ADA JUMP JUMPDEST PUSH1 0x4 PUSH2 0x1AAA SWAP2 SWAP1 PUSH2 0x2B0A JUMP JUMPDEST SWAP1 POP PUSH0 PUSH1 0x20 DUP3 PUSH2 0x1ABA SWAP2 SWAP1 PUSH2 0x2B4B JUMP JUMPDEST PUSH8 0xFFFFFFFFFFFFFFFF DUP2 GT ISZERO PUSH2 0x1AD3 JUMPI PUSH2 0x1AD2 PUSH2 0x2103 JUMP JUMPDEST JUMPDEST PUSH1 0x40 MLOAD SWAP1 DUP1 DUP3 MSTORE DUP1 PUSH1 0x1F ADD PUSH1 0x1F NOT AND PUSH1 0x20 ADD DUP3 ADD PUSH1 0x40 MSTORE DUP1 ISZERO PUSH2 0x1B05 JUMPI DUP2 PUSH1 0x20 ADD PUSH1 0x1 DUP3 MUL DUP1 CALLDATASIZE DUP4 CALLDATACOPY DUP1 DUP3 ADD SWAP2 POP POP SWAP1 POP JUMPDEST POP SWAP1 POP PUSH0 PUSH1 0x40 MLOAD DUP1 PUSH1 0x60 ADD PUSH1 0x40 MSTORE DUP1 PUSH1 0x40 DUP2 MSTORE PUSH1 0x20 ADD PUSH2 0x337A PUSH1 0x40 SWAP2 CODECOPY SWAP1 POP PUSH1 0x1 DUP2 ADD PUSH1 0x20 DUP4 ADD PUSH0 JUMPDEST DUP7 DUP2 LT ISZERO PUSH2 0x1BA7 JUMPI PUSH1 0x3 DUP2 ADD SWAP1 POP PUSH3 0xFFFFFF DUP2 DUP11 ADD MLOAD AND PUSH1 0x3F DUP2 PUSH1 0x12 SHR AND DUP5 ADD MLOAD DUP1 PUSH1 0x8 SHL SWAP1 POP PUSH1 0xFF PUSH1 0x3F DUP4 PUSH1 0xC SHR AND DUP7 ADD MLOAD AND DUP2 ADD SWAP1 POP DUP1 PUSH1 0x8 SHL SWAP1 POP PUSH1 0xFF PUSH1 0x3F DUP4 PUSH1 0x6 SHR AND DUP7 ADD MLOAD AND DUP2 ADD SWAP1 POP DUP1 PUSH1 0x8 SHL SWAP1 POP PUSH1 0xFF PUSH1 0x3F DUP4 AND DUP7 ADD MLOAD AND DUP2 ADD SWAP1 POP DUP1 PUSH1 0xE0 SHL SWAP1 POP DUP1 DUP5 MSTORE PUSH1 0x4 DUP5 ADD SWAP4 POP POP POP PUSH2 0x1B2E JUMP JUMPDEST POP PUSH1 0x3 DUP7 MOD PUSH1 0x1 DUP2 EQ PUSH2 0x1BC1 JUMPI PUSH1 0x2 DUP2 EQ PUSH2 0x1BD1 JUMPI PUSH2 0x1BDC JUMP JUMPDEST PUSH2 0x3D3D PUSH1 0xF0 SHL PUSH1 0x2 DUP4 SUB MSTORE PUSH2 0x1BDC JUMP JUMPDEST PUSH1 0x3D PUSH1 0xF8 SHL PUSH1 0x1 DUP4 SUB MSTORE JUMPDEST POP DUP5 DUP5 MSTORE POP POP DUP2 SWAP5 POP POP POP POP POP JUMPDEST SWAP2 SWAP1 POP JUMP JUMPDEST PUSH1 0x60 PUSH0 PUSH1 0x2 DUP4 PUSH1 0x2 PUSH2 0x1C01 SWAP2 SWAP1 PUSH2 0x2B0A JUMP JUMPDEST PUSH2 0x1C0B SWAP2 SWAP1 PUSH2 0x2B4B JUMP JUMPDEST PUSH8 0xFFFFFFFFFFFFFFFF DUP2 GT ISZERO PUSH2 0x1C24 JUMPI PUSH2 0x1C23 PUSH2 0x2103 JUMP JUMPDEST JUMPDEST PUSH1 0x40 MLOAD SWAP1 DUP1 DUP3 MSTORE DUP1 PUSH1 0x1F ADD PUSH1 0x1F NOT AND PUSH1 0x20 ADD DUP3 ADD PUSH1 0x40 MSTORE DUP1 ISZERO PUSH2 0x1C56 JUMPI DUP2 PUSH1 0x20 ADD PUSH1 0x1 DUP3 MUL DUP1 CALLDATASIZE DUP4 CALLDATACOPY DUP1 DUP3 ADD SWAP2 POP POP SWAP1 POP JUMPDEST POP SWAP1 POP PUSH32 0x3000000000000000000000000000000000000000000000000000000000000000 DUP2 PUSH0 DUP2 MLOAD DUP2 LT PUSH2 0x1C8D JUMPI PUSH2 0x1C8C PUSH2 0x290E JUMP JUMPDEST JUMPDEST PUSH1 0x20 ADD ADD SWAP1 PUSH31 0xFFFFFFFFFFFFFFFFFFFFFFFFFFFFFFFFFFFFFFFFFFFFFFFFFFFFFFFFFFFFFF NOT AND SWAP1 DUP2 PUSH0 BYTE SWAP1 MSTORE8 POP PUSH32 0x7800000000000000000000000000000000000000000000000000000000000000 DUP2 PUSH1 0x1 DUP2 MLOAD DUP2 LT PUSH2 0x1CF0 JUMPI PUSH2 0x1CEF PUSH2 0x290E JUMP JUMPDEST JUMPDEST PUSH1 0x20 ADD ADD SWAP1 PUSH31 0xFFFFFFFFFFFFFFFFFFFFFFFFFFFFFFFFFFFFFFFFFFFFFFFFFFFFFFFFFFFFFF NOT AND SWAP1 DUP2 PUSH0 BYTE SWAP1 MSTORE8 POP PUSH0 PUSH1 0x1 DUP5 PUSH1 0x2 PUSH2 0x1D2E SWAP2 SWAP1 PUSH2 0x2B0A JUMP JUMPDEST PUSH2 0x1D38 SWAP2 SWAP1 PUSH2 0x2B4B JUMP JUMPDEST SWAP1 POP JUMPDEST PUSH1 0x1 DUP2 GT ISZERO PUSH2 0x1DD7 JUMPI PUSH32 0x3031323334353637383961626364656600000000000000000000000000000000 PUSH1 0xF DUP7 AND PUSH1 0x10 DUP2 LT PUSH2 0x1D7A JUMPI PUSH2 0x1D79 PUSH2 0x290E JUMP JUMPDEST JUMPDEST BYTE PUSH1 0xF8 SHL DUP3 DUP3 DUP2 MLOAD DUP2 LT PUSH2 0x1D91 JUMPI PUSH2 0x1D90 PUSH2 0x290E JUMP JUMPDEST JUMPDEST PUSH1 0x20 ADD ADD SWAP1 PUSH31 0xFFFFFFFFFFFFFFFFFFFFFFFFFFFFFFFFFFFFFFFFFFFFFFFFFFFFFFFFFFFFFF NOT AND SWAP1 DUP2 PUSH0 BYTE SWAP1 MSTORE8 POP PUSH1 0x4 DUP6 SWAP1 SHR SWAP5 POP DUP1 PUSH2 0x1DD0 SWAP1 PUSH2 0x32EA JUMP JUMPDEST SWAP1 POP PUSH2 0x1D3B JUMP JUMPDEST POP PUSH0 DUP5 EQ PUSH2 0x1E1A JUMPI PUSH1 0x40 MLOAD PUSH32 0x8C379A000000000000000000000000000000000000000000000000000000000 DUP2 MSTORE PUSH1 0x4 ADD PUSH2 0x1E11 SWAP1 PUSH2 0x335B JUMP JUMPDEST PUSH1 0x40 MLOAD DUP1 SWAP2 SUB SWAP1 REVERT JUMPDEST DUP1 SWAP2 POP POP SWAP3 SWAP2 POP POP JUMP JUMPDEST PUSH0 CALLER SWAP1 POP SWAP1 JUMP JUMPDEST PUSH0 DUP1 PUSH0 SWAP1 SLOAD SWAP1 PUSH2 0x100 EXP SWAP1 DIV PUSH20 0xFFFFFFFFFFFFFFFFFFFFFFFFFFFFFFFFFFFFFFFF AND SWAP1 POP DUP2 PUSH0 DUP1 PUSH2 0x100 EXP DUP2 SLOAD DUP2 PUSH20 0xFFFFFFFFFFFFFFFFFFFFFFFFFFFFFFFFFFFFFFFF MUL NOT AND SWAP1 DUP4 PUSH20 0xFFFFFFFFFFFFFFFFFFFFFFFFFFFFFFFFFFFFFFFF AND MUL OR SWAP1 SSTORE POP DUP2 PUSH20 0xFFFFFFFFFFFFFFFFFFFFFFFFFFFFFFFFFFFFFFFF AND DUP2 PUSH20 0xFFFFFFFFFFFFFFFFFFFFFFFFFFFFFFFFFFFFFFFF AND PUSH32 0x8BE0079C531659141344CD1FD0A4F28419497F9722A3DAAFE3B4186F6B6457E0 PUSH1 0x40 MLOAD PUSH1 0x40 MLOAD DUP1 SWAP2 SUB SWAP1 LOG3 POP POP JUMP JUMPDEST PUSH0 DUP2 PUSH1 0x40 MLOAD PUSH1 0x20 ADD PUSH2 0x1EFE SWAP2 SWAP1 PUSH2 0x2C72 JUMP JUMPDEST PUSH1 0x40 MLOAD PUSH1 0x20 DUP2 DUP4 SUB SUB DUP2 MSTORE SWAP1 PUSH1 0x40 MSTORE DUP1 MLOAD SWAP1 PUSH1 0x20 ADD KECCAK256 DUP4 PUSH1 0x40 MLOAD PUSH1 0x20 ADD PUSH2 0x1F25 SWAP2 SWAP1 PUSH2 0x2C72 JUMP JUMPDEST PUSH1 0x40 MLOAD PUSH1 0x20 DUP2 DUP4 SUB SUB DUP2 MSTORE SWAP1 PUSH1 0x40 MSTORE DUP1 MLOAD SWAP1 PUSH1 0x20 ADD KECCAK256 EQ SWAP1 POP SWAP3 SWAP2 POP POP JUMP JUMPDEST PUSH0 DUP2 MLOAD SWAP1 POP SWAP2 SWAP1 POP JUMP JUMPDEST PUSH0 DUP3 DUP3 MSTORE PUSH1 0x20 DUP3 ADD SWAP1 POP SWAP3 SWAP2 POP POP JUMP JUMPDEST PUSH0 DUP2 SWAP1 POP PUSH1 0x20 DUP3 ADD SWAP1 POP SWAP2 SWAP1 POP JUMP JUMPDEST PUSH32 0x4E487B7100000000000000000000000000000000000000000000000000000000 PUSH0 MSTORE PUSH1 0x21 PUSH1 0x4 MSTORE PUSH1 0x24 PUSH0 REVERT JUMPDEST PUSH1 0x4 DUP2 LT PUSH2 0x1FAB JUMPI PUSH2 0x1FAA PUSH2 0x1F6D JUMP JUMPDEST JUMPDEST POP JUMP JUMPDEST PUSH0 DUP2 SWAP1 POP PUSH2 0x1FBB DUP3 PUSH2 0x1F9A JUMP JUMPDEST SWAP2 SWAP1 POP JUMP JUMPDEST PUSH0 PUSH2 0x1FCA DUP3 PUSH2 0x1FAE JUMP JUMPDEST SWAP1 POP SWAP2 SWAP1 POP JUMP JUMPDEST PUSH2 0x1FDA DUP2 PUSH2 0x1FC0 JUMP JUMPDEST DUP3 MSTORE POP POP JUMP JUMPDEST PUSH0 PUSH2 0x1FEB DUP4 DUP4 PUSH2 0x1FD1 JUMP JUMPDEST PUSH1 0x20 DUP4 ADD SWAP1 POP SWAP3 SWAP2 POP POP JUMP JUMPDEST PUSH0 PUSH1 0x20 DUP3 ADD SWAP1 POP SWAP2 SWAP1 POP JUMP JUMPDEST PUSH0 PUSH2 0x200D DUP3 PUSH2 0x1F44 JUMP JUMPDEST PUSH2 0x2017 DUP2 DUP6 PUSH2 0x1F4E JUMP JUMPDEST SWAP4 POP PUSH2 0x2022 DUP4 PUSH2 0x1F5E JUMP JUMPDEST DUP1 PUSH0 JUMPDEST DUP4 DUP2 LT ISZERO PUSH2 0x2052 JUMPI DUP2 MLOAD PUSH2 0x2039 DUP9 DUP3 PUSH2 0x1FE0 JUMP JUMPDEST SWAP8 POP PUSH2 0x2044 DUP4 PUSH2 0x1FF7 JUMP JUMPDEST SWAP3 POP POP PUSH1 0x1 DUP2 ADD SWAP1 POP PUSH2 0x2025 JUMP JUMPDEST POP DUP6 SWAP4 POP POP POP POP SWAP3 SWAP2 POP POP JUMP JUMPDEST PUSH0 PUSH1 0x20 DUP3 ADD SWAP1 POP DUP2 DUP2 SUB PUSH0 DUP4 ADD MSTORE PUSH2 0x2077 DUP2 DUP5 PUSH2 0x2003 JUMP JUMPDEST SWAP1 POP SWAP3 SWAP2 POP POP JUMP JUMPDEST PUSH0 DUP2 SWAP1 POP SWAP2 SWAP1 POP JUMP JUMPDEST PUSH2 0x2091 DUP2 PUSH2 0x207F JUMP JUMPDEST DUP3 MSTORE POP POP JUMP JUMPDEST PUSH0 PUSH1 0x20 DUP3 ADD SWAP1 POP PUSH2 0x20AA PUSH0 DUP4 ADD DUP5 PUSH2 0x2088 JUMP JUMPDEST SWAP3 SWAP2 POP POP JUMP JUMPDEST PUSH0 PUSH1 0x40 MLOAD SWAP1 POP SWAP1 JUMP JUMPDEST PUSH0 DUP1 REVERT JUMPDEST PUSH0 DUP1 REVERT JUMPDEST PUSH2 0x20CA DUP2 PUSH2 0x207F JUMP JUMPDEST DUP2 EQ PUSH2 0x20D4 JUMPI PUSH0 DUP1 REVERT JUMPDEST POP JUMP JUMPDEST PUSH0 DUP2 CALLDATALOAD SWAP1 POP PUSH2 0x20E5 DUP2 PUSH2 0x20C1 JUMP JUMPDEST SWAP3 SWAP2 POP POP JUMP JUMPDEST PUSH0 DUP1 REVERT JUMPDEST PUSH0 DUP1 REVERT JUMPDEST PUSH0 PUSH1 0x1F NOT PUSH1 0x1F DUP4 ADD AND SWAP1 POP SWAP2 SWAP1 POP JUMP JUMPDEST PUSH32 0x4E487B7100000000000000000000000000000000000000000000000000000000 PUSH0 MSTORE PUSH1 0x41 PUSH1 0x4 MSTORE PUSH1 0x24 PUSH0 REVERT JUMPDEST PUSH2 0x2139 DUP3 PUSH2 0x20F3 JUMP JUMPDEST DUP2 ADD DUP2 DUP2 LT PUSH8 0xFFFFFFFFFFFFFFFF DUP3 GT OR ISZERO PUSH2 0x2158 JUMPI PUSH2 0x2157 PUSH2 0x2103 JUMP JUMPDEST JUMPDEST DUP1 PUSH1 0x40 MSTORE POP POP POP JUMP JUMPDEST PUSH0 PUSH2 0x216A PUSH2 0x20B0 JUMP JUMPDEST SWAP1 POP PUSH2 0x2176 DUP3 DUP3 PUSH2 0x2130 JUMP JUMPDEST SWAP2 SWAP1 POP JUMP JUMPDEST PUSH0 PUSH8 0xFFFFFFFFFFFFFFFF DUP3 GT ISZERO PUSH2 0x2195 JUMPI PUSH2 0x2194 PUSH2 0x2103 JUMP JUMPDEST JUMPDEST PUSH2 0x219E DUP3 PUSH2 0x20F3 JUMP JUMPDEST SWAP1 POP PUSH1 0x20 DUP2 ADD SWAP1 POP SWAP2 SWAP1 POP JUMP JUMPDEST DUP3 DUP2 DUP4 CALLDATACOPY PUSH0 DUP4 DUP4 ADD MSTORE POP POP POP JUMP JUMPDEST PUSH0 PUSH2 0x21CB PUSH2 0x21C6 DUP5 PUSH2 0x217B JUMP JUMPDEST PUSH2 0x2161 JUMP JUMPDEST SWAP1 POP DUP3 DUP2 MSTORE PUSH1 0x20 DUP2 ADD DUP5 DUP5 DUP5 ADD GT ISZERO PUSH2 0x21E7 JUMPI PUSH2 0x21E6 PUSH2 0x20EF JUMP JUMPDEST JUMPDEST PUSH2 0x21F2 DUP5 DUP3 DUP6 PUSH2 0x21AB JUMP JUMPDEST POP SWAP4 SWAP3 POP POP POP JUMP JUMPDEST PUSH0 DUP3 PUSH1 0x1F DUP4 ADD SLT PUSH2 0x220E JUMPI PUSH2 0x220D PUSH2 0x20EB JUMP JUMPDEST JUMPDEST DUP2 CALLDATALOAD PUSH2 0x221E DUP5 DUP3 PUSH1 0x20 DUP7 ADD PUSH2 0x21B9 JUMP JUMPDEST SWAP2 POP POP SWAP3 SWAP2 POP POP JUMP JUMPDEST PUSH0 PUSH20 0xFFFFFFFFFFFFFFFFFFFFFFFFFFFFFFFFFFFFFFFF DUP3 AND SWAP1 POP SWAP2 SWAP1 POP JUMP JUMPDEST PUSH0 PUSH2 0x2250 DUP3 PUSH2 0x2227 JUMP JUMPDEST SWAP1 POP SWAP2 SWAP1 POP JUMP JUMPDEST PUSH2 0x2260 DUP2 PUSH2 0x2246 JUMP JUMPDEST DUP2 EQ PUSH2 0x226A JUMPI PUSH0 DUP1 REVERT JUMPDEST POP JUMP JUMPDEST PUSH0 DUP2 CALLDATALOAD SWAP1 POP PUSH2 0x227B DUP2 PUSH2 0x2257 JUMP JUMPDEST SWAP3 SWAP2 POP POP JUMP JUMPDEST PUSH0 DUP1 PUSH0 DUP1 PUSH0 PUSH1 0xA0 DUP7 DUP9 SUB SLT ISZERO PUSH2 0x229A JUMPI PUSH2 0x2299 PUSH2 0x20B9 JUMP JUMPDEST JUMPDEST PUSH0 PUSH2 0x22A7 DUP9 DUP3 DUP10 ADD PUSH2 0x20D7 JUMP JUMPDEST SWAP6 POP POP PUSH1 0x20 PUSH2 0x22B8 DUP9 DUP3 DUP10 ADD PUSH2 0x20D7 JUMP JUMPDEST SWAP5 POP POP PUSH1 0x40 DUP7 ADD CALLDATALOAD PUSH8 0xFFFFFFFFFFFFFFFF DUP2 GT ISZERO PUSH2 0x22D9 JUMPI PUSH2 0x22D8 PUSH2 0x20BD JUMP JUMPDEST JUMPDEST PUSH2 0x22E5 DUP9 DUP3 DUP10 ADD PUSH2 0x21FA JUMP JUMPDEST SWAP4 POP POP PUSH1 0x60 DUP7 ADD CALLDATALOAD PUSH8 0xFFFFFFFFFFFFFFFF DUP2 GT ISZERO PUSH2 0x2306 JUMPI PUSH2 0x2305 PUSH2 0x20BD JUMP JUMPDEST JUMPDEST PUSH2 0x2312 DUP9 DUP3 DUP10 ADD PUSH2 0x21FA JUMP JUMPDEST SWAP3 POP POP PUSH1 0x80 PUSH2 0x2323 DUP9 DUP3 DUP10 ADD PUSH2 0x226D JUMP JUMPDEST SWAP2 POP POP SWAP3 SWAP6 POP SWAP3 SWAP6 SWAP1 SWAP4 POP JUMP JUMPDEST PUSH0 DUP2 MLOAD SWAP1 POP SWAP2 SWAP1 POP JUMP JUMPDEST PUSH0 DUP3 DUP3 MSTORE PUSH1 0x20 DUP3 ADD SWAP1 POP SWAP3 SWAP2 POP POP JUMP JUMPDEST PUSH0 JUMPDEST DUP4 DUP2 LT ISZERO PUSH2 0x2367 JUMPI DUP1 DUP3 ADD MLOAD DUP2 DUP5 ADD MSTORE PUSH1 0x20 DUP2 ADD SWAP1 POP PUSH2 0x234C JUMP JUMPDEST PUSH0 DUP5 DUP5 ADD MSTORE POP POP POP POP JUMP JUMPDEST PUSH0 PUSH2 0x237C DUP3 PUSH2 0x2330 JUMP JUMPDEST PUSH2 0x2386 DUP2 DUP6 PUSH2 0x233A JUMP JUMPDEST SWAP4 POP PUSH2 0x2396 DUP2 DUP6 PUSH1 0x20 DUP7 ADD PUSH2 0x234A JUMP JUMPDEST PUSH2 0x239F DUP2 PUSH2 0x20F3 JUMP JUMPDEST DUP5 ADD SWAP2 POP POP SWAP3 SWAP2 POP POP JUMP JUMPDEST PUSH0 PUSH1 0x20 DUP3 ADD SWAP1 POP DUP2 DUP2 SUB PUSH0 DUP4 ADD MSTORE PUSH2 0x23C2 DUP2 DUP5 PUSH2 0x2372 JUMP JUMPDEST SWAP1 POP SWAP3 SWAP2 POP POP JUMP JUMPDEST PUSH0 DUP1 PUSH0 PUSH1 0x60 DUP5 DUP7 SUB SLT ISZERO PUSH2 0x23E1 JUMPI PUSH2 0x23E0 PUSH2 0x20B9 JUMP JUMPDEST JUMPDEST PUSH0 PUSH2 0x23EE DUP7 DUP3 DUP8 ADD PUSH2 0x226D JUMP JUMPDEST SWAP4 POP POP PUSH1 0x20 PUSH2 0x23FF DUP7 DUP3 DUP8 ADD PUSH2 0x20D7 JUMP JUMPDEST SWAP3 POP POP PUSH1 0x40 PUSH2 0x2410 DUP7 DUP3 DUP8 ADD PUSH2 0x20D7 JUMP JUMPDEST SWAP2 POP POP SWAP3 POP SWAP3 POP SWAP3 JUMP JUMPDEST PUSH0 DUP2 MLOAD SWAP1 POP SWAP2 SWAP1 POP JUMP JUMPDEST PUSH0 DUP3 DUP3 MSTORE PUSH1 0x20 DUP3 ADD SWAP1 POP SWAP3 SWAP2 POP POP JUMP JUMPDEST PUSH0 DUP2 SWAP1 POP PUSH1 0x20 DUP3 ADD SWAP1 POP SWAP2 SWAP1 POP JUMP JUMPDEST PUSH0 DUP3 DUP3 MSTORE PUSH1 0x20 DUP3 ADD SWAP1 POP SWAP3 SWAP2 POP POP JUMP JUMPDEST PUSH0 PUSH2 0x245D DUP3 PUSH2 0x2330 JUMP JUMPDEST PUSH2 0x2467 DUP2 DUP6 PUSH2 0x2443 JUMP JUMPDEST SWAP4 POP PUSH2 0x2477 DUP2 DUP6 PUSH1 0x20 DUP7 ADD PUSH2 0x234A JUMP JUMPDEST PUSH2 0x2480 DUP2 PUSH2 0x20F3 JUMP JUMPDEST DUP5 ADD SWAP2 POP POP SWAP3 SWAP2 POP POP JUMP JUMPDEST PUSH0 PUSH2 0x2496 DUP4 DUP4 PUSH2 0x2453 JUMP JUMPDEST SWAP1 POP SWAP3 SWAP2 POP POP JUMP JUMPDEST PUSH0 PUSH1 0x20 DUP3 ADD SWAP1 POP SWAP2 SWAP1 POP JUMP JUMPDEST PUSH0 PUSH2 0x24B4 DUP3 PUSH2 0x241A JUMP JUMPDEST PUSH2 0x24BE DUP2 DUP6 PUSH2 0x2424 JUMP JUMPDEST SWAP4 POP DUP4 PUSH1 0x20 DUP3 MUL DUP6 ADD PUSH2 0x24D0 DUP6 PUSH2 0x2434 JUMP JUMPDEST DUP1 PUSH0 JUMPDEST DUP6 DUP2 LT ISZERO PUSH2 0x250B JUMPI DUP5 DUP5 SUB DUP10 MSTORE DUP2 MLOAD PUSH2 0x24EC DUP6 DUP3 PUSH2 0x248B JUMP JUMPDEST SWAP5 POP PUSH2 0x24F7 DUP4 PUSH2 0x249E JUMP JUMPDEST SWAP3 POP PUSH1 0x20 DUP11 ADD SWAP10 POP POP PUSH1 0x1 DUP2 ADD SWAP1 POP PUSH2 0x24D3 JUMP JUMPDEST POP DUP3 SWAP8 POP DUP8 SWAP6 POP POP POP POP POP POP SWAP3 SWAP2 POP POP JUMP JUMPDEST PUSH0 PUSH1 0x20 DUP3 ADD SWAP1 POP DUP2 DUP2 SUB PUSH0 DUP4 ADD MSTORE PUSH2 0x2535 DUP2 DUP5 PUSH2 0x24AA JUMP JUMPDEST SWAP1 POP SWAP3 SWAP2 POP POP JUMP JUMPDEST PUSH0 PUSH1 0x20 DUP3 DUP5 SUB SLT ISZERO PUSH2 0x2552 JUMPI PUSH2 0x2551 PUSH2 0x20B9 JUMP JUMPDEST JUMPDEST PUSH0 DUP3 ADD CALLDATALOAD PUSH8 0xFFFFFFFFFFFFFFFF DUP2 GT ISZERO PUSH2 0x256F JUMPI PUSH2 0x256E PUSH2 0x20BD JUMP JUMPDEST JUMPDEST PUSH2 0x257B DUP5 DUP3 DUP6 ADD PUSH2 0x21FA JUMP JUMPDEST SWAP2 POP POP SWAP3 SWAP2 POP POP JUMP JUMPDEST PUSH0 DUP2 MLOAD SWAP1 POP SWAP2 SWAP1 POP JUMP JUMPDEST PUSH0 DUP2 SWAP1 POP PUSH1 0x20 DUP3 ADD SWAP1 POP SWAP2 SWAP1 POP JUMP JUMPDEST PUSH1 0xC7 DUP2 LT PUSH2 0x25AE JUMPI PUSH2 0x25AD PUSH2 0x1F6D JUMP JUMPDEST JUMPDEST POP JUMP JUMPDEST PUSH0 DUP2 SWAP1 POP PUSH2 0x25BE DUP3 PUSH2 0x259D JUMP JUMPDEST SWAP2 SWAP1 POP JUMP JUMPDEST PUSH0 PUSH2 0x25CD DUP3 PUSH2 0x25B1 JUMP JUMPDEST SWAP1 POP SWAP2 SWAP1 POP JUMP JUMPDEST PUSH2 0x25DD DUP2 PUSH2 0x25C3 JUMP JUMPDEST DUP3 MSTORE POP POP JUMP JUMPDEST PUSH0 PUSH2 0x25EE DUP4 DUP4 PUSH2 0x25D4 JUMP JUMPDEST PUSH1 0x20 DUP4 ADD SWAP1 POP SWAP3 SWAP2 POP POP JUMP JUMPDEST PUSH0 PUSH1 0x20 DUP3 ADD SWAP1 POP SWAP2 SWAP1 POP JUMP JUMPDEST PUSH0 PUSH2 0x2610 DUP3 PUSH2 0x2584 JUMP JUMPDEST PUSH2 0x261A DUP2 DUP6 PUSH2 0x1F4E JUMP JUMPDEST SWAP4 POP PUSH2 0x2625 DUP4 PUSH2 0x258E JUMP JUMPDEST DUP1 PUSH0 JUMPDEST DUP4 DUP2 LT ISZERO PUSH2 0x2655 JUMPI DUP2 MLOAD PUSH2 0x263C DUP9 DUP3 PUSH2 0x25E3 JUMP JUMPDEST SWAP8 POP PUSH2 0x2647 DUP4 PUSH2 0x25FA JUMP JUMPDEST SWAP3 POP POP PUSH1 0x1 DUP2 ADD SWAP1 POP PUSH2 0x2628 JUMP JUMPDEST POP DUP6 SWAP4 POP POP POP POP SWAP3 SWAP2 POP POP JUMP JUMPDEST PUSH0 PUSH1 0x40 DUP3 ADD SWAP1 POP DUP2 DUP2 SUB PUSH0 DUP4 ADD MSTORE PUSH2 0x267A DUP2 DUP6 PUSH2 0x2606 JUMP JUMPDEST SWAP1 POP DUP2 DUP2 SUB PUSH1 0x20 DUP4 ADD MSTORE PUSH2 0x268E DUP2 DUP5 PUSH2 0x2606 JUMP JUMPDEST SWAP1 POP SWAP4 SWAP3 POP POP POP JUMP JUMPDEST PUSH0 DUP1 PUSH0 PUSH1 0x60 DUP5 DUP7 SUB SLT ISZERO PUSH2 0x26AE JUMPI PUSH2 0x26AD PUSH2 0x20B9 JUMP JUMPDEST JUMPDEST PUSH0 PUSH2 0x26BB DUP7 DUP3 DUP8 ADD PUSH2 0x20D7 JUMP JUMPDEST SWAP4 POP POP PUSH1 0x20 PUSH2 0x26CC DUP7 DUP3 DUP8 ADD PUSH2 0x20D7 JUMP JUMPDEST SWAP3 POP POP PUSH1 0x40 PUSH2 0x26DD DUP7 DUP3 DUP8 ADD PUSH2 0x20D7 JUMP JUMPDEST SWAP2 POP POP SWAP3 POP SWAP3 POP SWAP3 JUMP JUMPDEST PUSH2 0x26F0 DUP2 PUSH2 0x2246 JUMP JUMPDEST DUP3 MSTORE POP POP JUMP JUMPDEST PUSH0 PUSH1 0x20 DUP3 ADD SWAP1 POP PUSH2 0x2709 PUSH0 DUP4 ADD DUP5 PUSH2 0x26E7 JUMP JUMPDEST SWAP3 SWAP2 POP POP JUMP JUMPDEST PUSH0 PUSH8 0xFFFFFFFFFFFFFFFF DUP3 GT ISZERO PUSH2 0x2729 JUMPI PUSH2 0x2728 PUSH2 0x2103 JUMP JUMPDEST JUMPDEST PUSH2 0x2732 DUP3 PUSH2 0x20F3 JUMP JUMPDEST SWAP1 POP PUSH1 0x20 DUP2 ADD SWAP1 POP SWAP2 SWAP1 POP JUMP JUMPDEST PUSH0 PUSH2 0x2751 PUSH2 0x274C DUP5 PUSH2 0x270F JUMP JUMPDEST PUSH2 0x2161 JUMP JUMPDEST SWAP1 POP DUP3 DUP2 MSTORE PUSH1 0x20 DUP2 ADD DUP5 DUP5 DUP5 ADD GT ISZERO PUSH2 0x276D JUMPI PUSH2 0x276C PUSH2 0x20EF JUMP JUMPDEST JUMPDEST PUSH2 0x2778 DUP5 DUP3 DUP6 PUSH2 0x21AB JUMP JUMPDEST POP SWAP4 SWAP3 POP POP POP JUMP JUMPDEST PUSH0 DUP3 PUSH1 0x1F DUP4 ADD SLT PUSH2 0x2794 JUMPI PUSH2 0x2793 PUSH2 0x20EB JUMP JUMPDEST JUMPDEST DUP2 CALLDATALOAD PUSH2 0x27A4 DUP5 DUP3 PUSH1 0x20 DUP7 ADD PUSH2 0x273F JUMP JUMPDEST SWAP2 POP POP SWAP3 SWAP2 POP POP JUMP JUMPDEST PUSH0 DUP1 PUSH1 0x40 DUP4 DUP6 SUB SLT ISZERO PUSH2 0x27C3 JUMPI PUSH2 0x27C2 PUSH2 0x20B9 JUMP JUMPDEST JUMPDEST PUSH0 DUP4 ADD CALLDATALOAD PUSH8 0xFFFFFFFFFFFFFFFF DUP2 GT ISZERO PUSH2 0x27E0 JUMPI PUSH2 0x27DF PUSH2 0x20BD JUMP JUMPDEST JUMPDEST PUSH2 0x27EC DUP6 DUP3 DUP7 ADD PUSH2 0x21FA JUMP JUMPDEST SWAP3 POP POP PUSH1 0x20 DUP4 ADD CALLDATALOAD PUSH8 0xFFFFFFFFFFFFFFFF DUP2 GT ISZERO PUSH2 0x280D JUMPI PUSH2 0x280C PUSH2 0x20BD JUMP JUMPDEST JUMPDEST PUSH2 0x2819 DUP6 DUP3 DUP7 ADD PUSH2 0x2780 JUMP JUMPDEST SWAP2 POP POP SWAP3 POP SWAP3 SWAP1 POP JUMP JUMPDEST PUSH0 DUP2 MLOAD SWAP1 POP SWAP2 SWAP1 POP JUMP JUMPDEST PUSH0 DUP3 DUP3 MSTORE PUSH1 0x20 DUP3 ADD SWAP1 POP SWAP3 SWAP2 POP POP JUMP JUMPDEST PUSH0 PUSH2 0x2847 DUP3 PUSH2 0x2823 JUMP JUMPDEST PUSH2 0x2851 DUP2 DUP6 PUSH2 0x282D JUMP JUMPDEST SWAP4 POP PUSH2 0x2861 DUP2 DUP6 PUSH1 0x20 DUP7 ADD PUSH2 0x234A JUMP JUMPDEST PUSH2 0x286A DUP2 PUSH2 0x20F3 JUMP JUMPDEST DUP5 ADD SWAP2 POP POP SWAP3 SWAP2 POP POP JUMP JUMPDEST PUSH0 PUSH1 0x20 DUP3 ADD SWAP1 POP DUP2 DUP2 SUB PUSH0 DUP4 ADD MSTORE PUSH2 0x288D DUP2 DUP5 PUSH2 0x283D JUMP JUMPDEST SWAP1 POP SWAP3 SWAP2 POP POP JUMP JUMPDEST PUSH0 PUSH1 0x20 DUP3 DUP5 SUB SLT ISZERO PUSH2 0x28AA JUMPI PUSH2 0x28A9 PUSH2 0x20B9 JUMP JUMPDEST JUMPDEST PUSH0 PUSH2 0x28B7 DUP5 DUP3 DUP6 ADD PUSH2 0x226D JUMP JUMPDEST SWAP2 POP POP SWAP3 SWAP2 POP POP JUMP JUMPDEST PUSH1 0x4 DUP2 LT PUSH2 0x28CC JUMPI PUSH0 DUP1 REVERT JUMPDEST POP JUMP JUMPDEST PUSH0 DUP2 CALLDATALOAD SWAP1 POP PUSH2 0x28DD DUP2 PUSH2 0x28C0 JUMP JUMPDEST SWAP3 SWAP2 POP POP JUMP JUMPDEST PUSH0 PUSH1 0x20 DUP3 DUP5 SUB SLT ISZERO PUSH2 0x28F8 JUMPI PUSH2 0x28F7 PUSH2 0x20B9 JUMP JUMPDEST JUMPDEST PUSH0 PUSH2 0x2905 DUP5 DUP3 DUP6 ADD PUSH2 0x28CF JUMP JUMPDEST SWAP2 POP POP SWAP3 SWAP2 POP POP JUMP JUMPDEST PUSH32 0x4E487B7100000000000000000000000000000000000000000000000000000000 PUSH0 MSTORE PUSH1 0x32 PUSH1 0x4 MSTORE PUSH1 0x24 PUSH0 REVERT JUMPDEST PUSH0 DUP2 SWAP1 POP SWAP3 SWAP2 POP POP JUMP JUMPDEST PUSH0 PUSH2 0x294F DUP3 PUSH2 0x2330 JUMP JUMPDEST PUSH2 0x2959 DUP2 DUP6 PUSH2 0x293B JUMP JUMPDEST SWAP4 POP PUSH2 0x2969 DUP2 DUP6 PUSH1 0x20 DUP7 ADD PUSH2 0x234A JUMP JUMPDEST DUP1 DUP5 ADD SWAP2 POP POP SWAP3 SWAP2 POP POP JUMP JUMPDEST PUSH32 0x2C00000000000000000000000000000000000000000000000000000000000000 PUSH0 DUP3 ADD MSTORE POP JUMP JUMPDEST PUSH0 PUSH2 0x29A9 PUSH1 0x1 DUP4 PUSH2 0x293B JUMP JUMPDEST SWAP2 POP PUSH2 0x29B4 DUP3 PUSH2 0x2975 JUMP JUMPDEST PUSH1 0x1 DUP3 ADD SWAP1 POP SWAP2 SWAP1 POP JUMP JUMPDEST PUSH0 PUSH2 0x29CA DUP3 DUP10 PUSH2 0x2945 JUMP JUMPDEST SWAP2 POP PUSH2 0x29D5 DUP3 PUSH2 0x299D JUMP JUMPDEST SWAP2 POP PUSH2 0x29E1 DUP3 DUP9 PUSH2 0x2945 JUMP JUMPDEST SWAP2 POP PUSH2 0x29EC DUP3 PUSH2 0x299D JUMP JUMPDEST SWAP2 POP PUSH2 0x29F8 DUP3 DUP8 PUSH2 0x2945 JUMP JUMPDEST SWAP2 POP PUSH2 0x2A03 DUP3 PUSH2 0x299D JUMP JUMPDEST SWAP2 POP PUSH2 0x2A0F DUP3 DUP7 PUSH2 0x2945 JUMP JUMPDEST SWAP2 POP PUSH2 0x2A1A DUP3 PUSH2 0x299D JUMP JUMPDEST SWAP2 POP PUSH2 0x2A26 DUP3 DUP6 PUSH2 0x2945 JUMP JUMPDEST SWAP2 POP PUSH2 0x2A31 DUP3 PUSH2 0x299D JUMP JUMPDEST SWAP2 POP PUSH2 0x2A3D DUP3 DUP5 PUSH2 0x2945 JUMP JUMPDEST SWAP2 POP DUP2 SWAP1 POP SWAP8 SWAP7 POP POP POP POP POP POP POP JUMP JUMPDEST PUSH32 0x4E487B7100000000000000000000000000000000000000000000000000000000 PUSH0 MSTORE PUSH1 0x11 PUSH1 0x4 MSTORE PUSH1 0x24 PUSH0 REVERT JUMPDEST PUSH0 PUSH2 0x2A84 DUP3 PUSH2 0x207F JUMP JUMPDEST SWAP2 POP PUSH2 0x2A8F DUP4 PUSH2 0x207F JUMP JUMPDEST SWAP3 POP DUP3 DUP3 SUB SWAP1 POP DUP2 DUP2 GT ISZERO PUSH2 0x2AA7 JUMPI PUSH2 0x2AA6 PUSH2 0x2A4D JUMP JUMPDEST JUMPDEST SWAP3 SWAP2 POP POP JUMP JUMPDEST PUSH32 0x4E487B7100000000000000000000000000000000000000000000000000000000 PUSH0 MSTORE PUSH1 0x12 PUSH1 0x4 MSTORE PUSH1 0x24 PUSH0 REVERT JUMPDEST PUSH0 PUSH2 0x2AE4 DUP3 PUSH2 0x207F JUMP JUMPDEST SWAP2 POP PUSH2 0x2AEF DUP4 PUSH2 0x207F JUMP JUMPDEST SWAP3 POP DUP3 PUSH2 0x2AFF JUMPI PUSH2 0x2AFE PUSH2 0x2AAD JUMP JUMPDEST JUMPDEST DUP3 DUP3 DIV SWAP1 POP SWAP3 SWAP2 POP POP JUMP JUMPDEST PUSH0 PUSH2 0x2B14 DUP3 PUSH2 0x207F JUMP JUMPDEST SWAP2 POP PUSH2 0x2B1F DUP4 PUSH2 0x207F JUMP JUMPDEST SWAP3 POP DUP3 DUP3 MUL PUSH2 0x2B2D DUP2 PUSH2 0x207F JUMP JUMPDEST SWAP2 POP DUP3 DUP3 DIV DUP5 EQ DUP4 ISZERO OR PUSH2 0x2B44 JUMPI PUSH2 0x2B43 PUSH2 0x2A4D JUMP JUMPDEST JUMPDEST POP SWAP3 SWAP2 POP POP JUMP JUMPDEST PUSH0 PUSH2 0x2B55 DUP3 PUSH2 0x207F JUMP JUMPDEST SWAP2 POP PUSH2 0x2B60 DUP4 PUSH2 0x207F JUMP JUMPDEST SWAP3 POP DUP3 DUP3 ADD SWAP1 POP DUP1 DUP3 GT ISZERO PUSH2 0x2B78 JUMPI PUSH2 0x2B77 PUSH2 0x2A4D JUMP JUMPDEST JUMPDEST SWAP3 SWAP2 POP POP JUMP JUMPDEST PUSH32 0x4E487B7100000000000000000000000000000000000000000000000000000000 PUSH0 MSTORE PUSH1 0x22 PUSH1 0x4 MSTORE PUSH1 0x24 PUSH0 REVERT JUMPDEST PUSH0 PUSH1 0x2 DUP3 DIV SWAP1 POP PUSH1 0x1 DUP3 AND DUP1 PUSH2 0x2BC2 JUMPI PUSH1 0x7F DUP3 AND SWAP2 POP JUMPDEST PUSH1 0x20 DUP3 LT DUP2 SUB PUSH2 0x2BD5 JUMPI PUSH2 0x2BD4 PUSH2 0x2B7E JUMP JUMPDEST JUMPDEST POP SWAP2 SWAP1 POP JUMP JUMPDEST PUSH0 PUSH2 0x2BE5 DUP3 PUSH2 0x207F JUMP JUMPDEST SWAP2 POP PUSH32 0xFFFFFFFFFFFFFFFFFFFFFFFFFFFFFFFFFFFFFFFFFFFFFFFFFFFFFFFFFFFFFFFF DUP3 SUB PUSH2 0x2C17 JUMPI PUSH2 0x2C16 PUSH2 0x2A4D JUMP JUMPDEST JUMPDEST PUSH1 0x1 DUP3 ADD SWAP1 POP SWAP2 SWAP1 POP JUMP JUMPDEST PUSH0 DUP2 SWAP1 POP SWAP2 SWAP1 POP JUMP JUMPDEST PUSH0 PUSH2 0x2C35 DUP3 PUSH2 0x2C22 JUMP JUMPDEST SWAP2 POP PUSH32 0x8000000000000000000000000000000000000000000000000000000000000000 DUP3 SUB PUSH2 0x2C67 JUMPI PUSH2 0x2C66 PUSH2 0x2A4D JUMP JUMPDEST JUMPDEST PUSH1 0x1 DUP3 SUB SWAP1 POP SWAP2 SWAP1 POP JUMP JUMPDEST PUSH0 PUSH2 0x2C7D DUP3 DUP5 PUSH2 0x2945 JUMP JUMPDEST SWAP2 POP DUP2 SWAP1 POP SWAP3 SWAP2 POP POP JUMP JUMPDEST PUSH32 0x4F776E61626C653A2063616C6C6572206973206E6F7420746865206F776E6572 PUSH0 DUP3 ADD MSTORE POP JUMP JUMPDEST PUSH0 PUSH2 0x2CBC PUSH1 0x20 DUP4 PUSH2 0x233A JUMP JUMPDEST SWAP2 POP PUSH2 0x2CC7 DUP3 PUSH2 0x2C88 JUMP JUMPDEST PUSH1 0x20 DUP3 ADD SWAP1 POP SWAP2 SWAP1 POP JUMP JUMPDEST PUSH0 PUSH1 0x20 DUP3 ADD SWAP1 POP DUP2 DUP2 SUB PUSH0 DUP4 ADD MSTORE PUSH2 0x2CE9 DUP2 PUSH2 0x2CB0 JUMP JUMPDEST SWAP1 POP SWAP2 SWAP1 POP JUMP JUMPDEST PUSH0 DUP2 MLOAD SWAP1 POP PUSH2 0x2CFE DUP2 PUSH2 0x20C1 JUMP JUMPDEST SWAP3 SWAP2 POP POP JUMP JUMPDEST PUSH0 PUSH1 0x20 DUP3 DUP5 SUB SLT ISZERO PUSH2 0x2D19 JUMPI PUSH2 0x2D18 PUSH2 0x20B9 JUMP JUMPDEST JUMPDEST PUSH0 PUSH2 0x2D26 DUP5 DUP3 DUP6 ADD PUSH2 0x2CF0 JUMP JUMPDEST SWAP2 POP POP SWAP3 SWAP2 POP POP JUMP JUMPDEST PUSH0 PUSH1 0x80 DUP3 ADD SWAP1 POP PUSH2 0x2D42 PUSH0 DUP4 ADD DUP8 PUSH2 0x2088 JUMP JUMPDEST PUSH2 0x2D4F PUSH1 0x20 DUP4 ADD DUP7 PUSH2 0x2088 JUMP JUMPDEST DUP2 DUP2 SUB PUSH1 0x40 DUP4 ADD MSTORE PUSH2 0x2D61 DUP2 DUP6 PUSH2 0x2372 JUMP JUMPDEST SWAP1 POP PUSH2 0x2D70 PUSH1 0x60 DUP4 ADD DUP5 PUSH2 0x26E7 JUMP JUMPDEST SWAP6 SWAP5 POP POP POP POP POP JUMP JUMPDEST PUSH0 DUP1 PUSH0 PUSH1 0x60 DUP5 DUP7 SUB SLT ISZERO PUSH2 0x2D90 JUMPI PUSH2 0x2D8F PUSH2 0x20B9 JUMP JUMPDEST JUMPDEST PUSH0 PUSH2 0x2D9D DUP7 DUP3 DUP8 ADD PUSH2 0x2CF0 JUMP JUMPDEST SWAP4 POP POP PUSH1 0x20 PUSH2 0x2DAE DUP7 DUP3 DUP8 ADD PUSH2 0x2CF0 JUMP JUMPDEST SWAP3 POP POP PUSH1 0x40 PUSH2 0x2DBF DUP7 DUP3 DUP8 ADD PUSH2 0x2CF0 JUMP JUMPDEST SWAP2 POP POP SWAP3 POP SWAP3 POP SWAP3 JUMP JUMPDEST PUSH0 PUSH2 0x2DD3 DUP3 PUSH2 0x2227 JUMP JUMPDEST SWAP1 POP SWAP2 SWAP1 POP JUMP JUMPDEST PUSH2 0x2DE3 DUP2 PUSH2 0x2DC9 JUMP JUMPDEST DUP2 EQ PUSH2 0x2DED JUMPI PUSH0 DUP1 REVERT JUMPDEST POP JUMP JUMPDEST PUSH0 DUP2 MLOAD SWAP1 POP PUSH2 0x2DFE DUP2 PUSH2 0x2DDA JUMP JUMPDEST SWAP3 SWAP2 POP POP JUMP JUMPDEST PUSH0 DUP1 PUSH0 PUSH1 0x60 DUP5 DUP7 SUB SLT ISZERO PUSH2 0x2E1B JUMPI PUSH2 0x2E1A PUSH2 0x20B9 JUMP JUMPDEST JUMPDEST PUSH0 PUSH2 0x2E28 DUP7 DUP3 DUP8 ADD PUSH2 0x2DF0 JUMP JUMPDEST SWAP4 POP POP PUSH1 0x20 PUSH2 0x2E39 DUP7 DUP3 DUP8 ADD PUSH2 0x2CF0 JUMP JUMPDEST SWAP3 POP POP PUSH1 0x40 PUSH2 0x2E4A DUP7 DUP3 DUP8 ADD PUSH2 0x2CF0 JUMP JUMPDEST SWAP2 POP POP SWAP3 POP SWAP3 POP SWAP3 JUMP JUMPDEST POP JUMP JUMPDEST PUSH0 PUSH2 0x2E62 PUSH0 DUP4 PUSH2 0x233A JUMP JUMPDEST SWAP2 POP PUSH2 0x2E6D DUP3 PUSH2 0x2E54 JUMP JUMPDEST PUSH0 DUP3 ADD SWAP1 POP SWAP2 SWAP1 POP JUMP JUMPDEST PUSH0 PUSH1 0x20 DUP3 ADD SWAP1 POP DUP2 DUP2 SUB PUSH0 DUP4 ADD MSTORE PUSH2 0x2E8E DUP2 PUSH2 0x2E57 JUMP JUMPDEST SWAP1 POP SWAP2 SWAP1 POP JUMP JUMPDEST PUSH0 PUSH2 0x2EA7 PUSH2 0x2EA2 DUP5 PUSH2 0x217B JUMP JUMPDEST PUSH2 0x2161 JUMP JUMPDEST SWAP1 POP DUP3 DUP2 MSTORE PUSH1 0x20 DUP2 ADD DUP5 DUP5 DUP5 ADD GT ISZERO PUSH2 0x2EC3 JUMPI PUSH2 0x2EC2 PUSH2 0x20EF JUMP JUMPDEST JUMPDEST PUSH2 0x2ECE DUP5 DUP3 DUP6 PUSH2 0x234A JUMP JUMPDEST POP SWAP4 SWAP3 POP POP POP JUMP JUMPDEST PUSH0 DUP3 PUSH1 0x1F DUP4 ADD SLT PUSH2 0x2EEA JUMPI PUSH2 0x2EE9 PUSH2 0x20EB JUMP JUMPDEST JUMPDEST DUP2 MLOAD PUSH2 0x2EFA DUP5 DUP3 PUSH1 0x20 DUP7 ADD PUSH2 0x2E95 JUMP JUMPDEST SWAP2 POP POP SWAP3 SWAP2 POP POP JUMP JUMPDEST PUSH0 DUP1 PUSH0 PUSH1 0x60 DUP5 DUP7 SUB SLT ISZERO PUSH2 0x2F1A JUMPI PUSH2 0x2F19 PUSH2 0x20B9 JUMP JUMPDEST JUMPDEST PUSH0 PUSH2 0x2F27 DUP7 DUP3 DUP8 ADD PUSH2 0x2CF0 JUMP JUMPDEST SWAP4 POP POP PUSH1 0x20 DUP5 ADD MLOAD PUSH8 0xFFFFFFFFFFFFFFFF DUP2 GT ISZERO PUSH2 0x2F48 JUMPI PUSH2 0x2F47 PUSH2 0x20BD JUMP JUMPDEST JUMPDEST PUSH2 0x2F54 DUP7 DUP3 DUP8 ADD PUSH2 0x2ED6 JUMP JUMPDEST SWAP3 POP POP PUSH1 0x40 DUP5 ADD MLOAD PUSH8 0xFFFFFFFFFFFFFFFF DUP2 GT ISZERO PUSH2 0x2F75 JUMPI PUSH2 0x2F74 PUSH2 0x20BD JUMP JUMPDEST JUMPDEST PUSH2 0x2F81 DUP7 DUP3 DUP8 ADD PUSH2 0x2ED6 JUMP JUMPDEST SWAP2 POP POP SWAP3 POP SWAP3 POP SWAP3 JUMP JUMPDEST PUSH0 DUP2 SWAP1 POP DUP2 PUSH0 MSTORE PUSH1 0x20 PUSH0 KECCAK256 SWAP1 POP SWAP2 SWAP1 POP JUMP JUMPDEST PUSH0 PUSH1 0x20 PUSH1 0x1F DUP4 ADD DIV SWAP1 POP SWAP2 SWAP1 POP JUMP JUMPDEST PUSH0 DUP3 DUP3 SHL SWAP1 POP SWAP3 SWAP2 POP POP JUMP JUMPDEST PUSH0 PUSH1 0x8 DUP4 MUL PUSH2 0x2FE7 PUSH32 0xFFFFFFFFFFFFFFFFFFFFFFFFFFFFFFFFFFFFFFFFFFFFFFFFFFFFFFFFFFFFFFFF DUP3 PUSH2 0x2FAC JUMP JUMPDEST PUSH2 0x2FF1 DUP7 DUP4 PUSH2 0x2FAC JUMP JUMPDEST SWAP6 POP DUP1 NOT DUP5 AND SWAP4 POP DUP1 DUP7 AND DUP5 OR SWAP3 POP POP POP SWAP4 SWAP3 POP POP POP JUMP JUMPDEST PUSH0 DUP2 SWAP1 POP SWAP2 SWAP1 POP JUMP JUMPDEST PUSH0 PUSH2 0x302C PUSH2 0x3027 PUSH2 0x3022 DUP5 PUSH2 0x207F JUMP JUMPDEST PUSH2 0x3009 JUMP JUMPDEST PUSH2 0x207F JUMP JUMPDEST SWAP1 POP SWAP2 SWAP1 POP JUMP JUMPDEST PUSH0 DUP2 SWAP1 POP SWAP2 SWAP1 POP JUMP JUMPDEST PUSH2 0x3045 DUP4 PUSH2 0x3012 JUMP JUMPDEST PUSH2 0x3059 PUSH2 0x3051 DUP3 PUSH2 0x3033 JUMP JUMPDEST DUP5 DUP5 SLOAD PUSH2 0x2FB8 JUMP JUMPDEST DUP3 SSTORE POP POP POP POP JUMP JUMPDEST PUSH0 SWAP1 JUMP JUMPDEST PUSH2 0x306D PUSH2 0x3061 JUMP JUMPDEST PUSH2 0x3078 DUP2 DUP5 DUP5 PUSH2 0x303C JUMP JUMPDEST POP POP POP JUMP JUMPDEST JUMPDEST DUP2 DUP2 LT ISZERO PUSH2 0x309B JUMPI PUSH2 0x3090 PUSH0 DUP3 PUSH2 0x3065 JUMP JUMPDEST PUSH1 0x1 DUP2 ADD SWAP1 POP PUSH2 0x307E JUMP JUMPDEST POP POP JUMP JUMPDEST PUSH1 0x1F DUP3 GT ISZERO PUSH2 0x30E0 JUMPI PUSH2 0x30B1 DUP2 PUSH2 0x2F8B JUMP JUMPDEST PUSH2 0x30BA DUP5 PUSH2 0x2F9D JUMP JUMPDEST DUP2 ADD PUSH1 0x20 DUP6 LT ISZERO PUSH2 0x30C9 JUMPI DUP2 SWAP1 POP JUMPDEST PUSH2 0x30DD PUSH2 0x30D5 DUP6 PUSH2 0x2F9D JUMP JUMPDEST DUP4 ADD DUP3 PUSH2 0x307D JUMP JUMPDEST POP POP JUMPDEST POP POP POP JUMP JUMPDEST PUSH0 DUP3 DUP3 SHR SWAP1 POP SWAP3 SWAP2 POP POP JUMP JUMPDEST PUSH0 PUSH2 0x3100 PUSH0 NOT DUP5 PUSH1 0x8 MUL PUSH2 0x30E5 JUMP JUMPDEST NOT DUP1 DUP4 AND SWAP2 POP POP SWAP3 SWAP2 POP POP JUMP JUMPDEST PUSH0 PUSH2 0x3118 DUP4 DUP4 PUSH2 0x30F1 JUMP JUMPDEST SWAP2 POP DUP3 PUSH1 0x2 MUL DUP3 OR SWAP1 POP SWAP3 SWAP2 POP POP JUMP JUMPDEST PUSH2 0x3131 DUP3 PUSH2 0x2330 JUMP JUMPDEST PUSH8 0xFFFFFFFFFFFFFFFF DUP2 GT ISZERO PUSH2 0x314A JUMPI PUSH2 0x3149 PUSH2 0x2103 JUMP JUMPDEST JUMPDEST PUSH2 0x3154 DUP3 SLOAD PUSH2 0x2BAB JUMP JUMPDEST PUSH2 0x315F DUP3 DUP3 DUP6 PUSH2 0x309F JUMP JUMPDEST PUSH0 PUSH1 0x20 SWAP1 POP PUSH1 0x1F DUP4 GT PUSH1 0x1 DUP2 EQ PUSH2 0x3190 JUMPI PUSH0 DUP5 ISZERO PUSH2 0x317E JUMPI DUP3 DUP8 ADD MLOAD SWAP1 POP JUMPDEST PUSH2 0x3188 DUP6 DUP3 PUSH2 0x310D JUMP JUMPDEST DUP7 SSTORE POP PUSH2 0x31EF JUMP JUMPDEST PUSH1 0x1F NOT DUP5 AND PUSH2 0x319E DUP7 PUSH2 0x2F8B JUMP JUMPDEST PUSH0 JUMPDEST DUP3 DUP2 LT ISZERO PUSH2 0x31C5 JUMPI DUP5 DUP10 ADD MLOAD DUP3 SSTORE PUSH1 0x1 DUP3 ADD SWAP2 POP PUSH1 0x20 DUP6 ADD SWAP5 POP PUSH1 0x20 DUP2 ADD SWAP1 POP PUSH2 0x31A0 JUMP JUMPDEST DUP7 DUP4 LT ISZERO PUSH2 0x31E2 JUMPI DUP5 DUP10 ADD MLOAD PUSH2 0x31DE PUSH1 0x1F DUP10 AND DUP3 PUSH2 0x30F1 JUMP JUMPDEST DUP4 SSTORE POP JUMPDEST PUSH1 0x1 PUSH1 0x2 DUP9 MUL ADD DUP9 SSTORE POP POP POP JUMPDEST POP POP POP POP POP POP JUMP JUMPDEST PUSH0 PUSH1 0x40 DUP3 ADD SWAP1 POP DUP2 DUP2 SUB PUSH0 DUP4 ADD MSTORE PUSH2 0x320F DUP2 DUP6 PUSH2 0x2372 JUMP JUMPDEST SWAP1 POP DUP2 DUP2 SUB PUSH1 0x20 DUP4 ADD MSTORE PUSH2 0x3223 DUP2 DUP5 PUSH2 0x283D JUMP JUMPDEST SWAP1 POP SWAP4 SWAP3 POP POP POP JUMP JUMPDEST PUSH32 0x4F776E61626C653A206E6577206F776E657220697320746865207A65726F2061 PUSH0 DUP3 ADD MSTORE PUSH32 0x6464726573730000000000000000000000000000000000000000000000000000 PUSH1 0x20 DUP3 ADD MSTORE POP JUMP JUMPDEST PUSH0 PUSH2 0x3286 PUSH1 0x26 DUP4 PUSH2 0x233A JUMP JUMPDEST SWAP2 POP PUSH2 0x3291 DUP3 PUSH2 0x322C JUMP JUMPDEST PUSH1 0x40 DUP3 ADD SWAP1 POP SWAP2 SWAP1 POP JUMP JUMPDEST PUSH0 PUSH1 0x20 DUP3 ADD SWAP1 POP DUP2 DUP2 SUB PUSH0 DUP4 ADD MSTORE PUSH2 0x32B3 DUP2 PUSH2 0x327A JUMP JUMPDEST SWAP1 POP SWAP2 SWAP1 POP JUMP JUMPDEST PUSH0 PUSH2 0x32C4 DUP3 PUSH2 0x207F JUMP JUMPDEST SWAP2 POP PUSH2 0x32CF DUP4 PUSH2 0x207F JUMP JUMPDEST SWAP3 POP DUP3 PUSH2 0x32DF JUMPI PUSH2 0x32DE PUSH2 0x2AAD JUMP JUMPDEST JUMPDEST DUP3 DUP3 MOD SWAP1 POP SWAP3 SWAP2 POP POP JUMP JUMPDEST PUSH0 PUSH2 0x32F4 DUP3 PUSH2 0x207F JUMP JUMPDEST SWAP2 POP PUSH0 DUP3 SUB PUSH2 0x3306 JUMPI PUSH2 0x3305 PUSH2 0x2A4D JUMP JUMPDEST JUMPDEST PUSH1 0x1 DUP3 SUB SWAP1 POP SWAP2 SWAP1 POP JUMP JUMPDEST PUSH32 0x537472696E67733A20686578206C656E67746820696E73756666696369656E74 PUSH0 DUP3 ADD MSTORE POP JUMP JUMPDEST PUSH0 PUSH2 0x3345 PUSH1 0x20 DUP4 PUSH2 0x233A JUMP JUMPDEST SWAP2 POP PUSH2 0x3350 DUP3 PUSH2 0x3311 JUMP JUMPDEST PUSH1 0x20 DUP3 ADD SWAP1 POP SWAP2 SWAP1 POP JUMP JUMPDEST PUSH0 PUSH1 0x20 DUP3 ADD SWAP1 POP DUP2 DUP2 SUB PUSH0 DUP4 ADD MSTORE PUSH2 0x3372 DUP2 PUSH2 0x3339 JUMP JUMPDEST SWAP1 POP SWAP2 SWAP1 POP JUMP INVALID COINBASE TIMESTAMP NUMBER PREVRANDAO GASLIMIT CHAINID SELFBALANCE BASEFEE 0x49 0x4A 0x4B 0x4C 0x4D 0x4E 0x4F POP MLOAD MSTORE MSTORE8 SLOAD SSTORE JUMP JUMPI PC MSIZE GAS PUSH2 0x6263 PUSH5 0x6566676869 PUSH11 0x6B6C6D6E6F707172737475 PUSH23 0x7778797A303132333435363738392B2FA2646970667358 0x22 SLT KECCAK256 DUP6 DUP9 LOG0 0xB5 0x49 0xD0 DUP13 CALL 0xE2 ADDRESS JUMPI 0x24 PC 0xE COINBASE 0xE9 SWAP16 0xC8 RETURNDATASIZE JUMP 0xE0 PREVRANDAO 0xDF CALLDATASIZE SIGNEXTEND 0xE6 DUP11 SWAP11 0x26 0x4B 0xBA PUSH13 0x64736F6C634300081600330000 "
				},
				"gasEstimates": {
					"creation": {
						"codeDepositCost": "2659000",
						"executionCost": "infinite",
						"totalCost": "infinite"
					},
					"external": {
						"commentIds()": "2448",
						"generateBase64(uint256,uint256,string,string,address)": "infinite",
						"get(string,bytes)": "infinite",
						"getComments(uint256,uint256,uint256)": "infinite",
						"getCommentsByAddress(address,uint256,uint256)": "infinite",
						"getMethodReqAndRes(string)": "infinite",
						"getMethods(uint8)": "infinite",
						"options()": "infinite",
						"owner()": "2560",
						"post(string,bytes)": "infinite",
						"put(string,bytes)": "infinite",
						"renounceOwnership()": "30389",
						"transferOwnership(address)": "30773"
					},
					"internal": {
						"compareStrings(string memory,string memory)": "infinite",
						"setMethod(string memory,enum IComponent.MethodTypes,enum Types.Type[] memory,enum Types.Type[] memory)": "infinite"
					}
				},
				"methodIdentifiers": {
					"commentIds()": "3e413065",
					"generateBase64(uint256,uint256,string,string,address)": "3eae02b3",
					"get(string,bytes)": "aff62745",
					"getComments(uint256,uint256,uint256)": "6818ba1d",
					"getCommentsByAddress(address,uint256,uint256)": "44237454",
					"getMethodReqAndRes(string)": "458ad6d4",
					"getMethods(uint8)": "f4856ccb",
					"options()": "1069143a",
					"owner()": "8da5cb5b",
					"post(string,bytes)": "b6ae0425",
					"put(string,bytes)": "e9536472",
					"renounceOwnership()": "715018a6",
					"transferOwnership(address)": "f2fde38b"
				}
			},
			"storageLayout": {
				"storage": [
					{
						"astId": 1782,
						"contract": "contracts/AmeComponents/VibeComment/VibeComment.sol:VibeComment",
						"label": "_owner",
						"offset": 0,
						"slot": "0",
						"type": "t_address"
					},
					{
						"astId": 560,
						"contract": "contracts/AmeComponents/VibeComment/VibeComment.sol:VibeComment",
						"label": "methods",
						"offset": 0,
						"slot": "1",
						"type": "t_mapping(t_enum(MethodTypes)8,t_array(t_string_storage)dyn_storage)"
					},
					{
						"astId": 566,
						"contract": "contracts/AmeComponents/VibeComment/VibeComment.sol:VibeComment",
						"label": "methodRequests",
						"offset": 0,
						"slot": "2",
						"type": "t_mapping(t_string_memory_ptr,t_array(t_enum(Type)278)dyn_storage)"
					},
					{
						"astId": 572,
						"contract": "contracts/AmeComponents/VibeComment/VibeComment.sol:VibeComment",
						"label": "methodResponses",
						"offset": 0,
						"slot": "3",
						"type": "t_mapping(t_string_memory_ptr,t_array(t_enum(Type)278)dyn_storage)"
					},
					{
						"astId": 574,
						"contract": "contracts/AmeComponents/VibeComment/VibeComment.sol:VibeComment",
						"label": "commentIds",
						"offset": 0,
						"slot": "4",
						"type": "t_uint256"
					},
					{
						"astId": 578,
						"contract": "contracts/AmeComponents/VibeComment/VibeComment.sol:VibeComment",
						"label": "VibeCommentIndexs",
						"offset": 0,
						"slot": "5",
						"type": "t_mapping(t_uint256,t_uint256)"
					},
					{
						"astId": 582,
						"contract": "contracts/AmeComponents/VibeComment/VibeComment.sol:VibeComment",
						"label": "UserCommentIndexs",
						"offset": 0,
						"slot": "6",
						"type": "t_mapping(t_address,t_uint256)"
					},
					{
						"astId": 588,
						"contract": "contracts/AmeComponents/VibeComment/VibeComment.sol:VibeComment",
						"label": "VibeCommentIds",
						"offset": 0,
						"slot": "7",
						"type": "t_mapping(t_uint256,t_mapping(t_uint256,t_uint256))"
					},
					{
						"astId": 594,
						"contract": "contracts/AmeComponents/VibeComment/VibeComment.sol:VibeComment",
						"label": "UserIndexCommentIds",
						"offset": 0,
						"slot": "8",
						"type": "t_mapping(t_address,t_mapping(t_uint256,t_uint256))"
					},
					{
						"astId": 599,
						"contract": "contracts/AmeComponents/VibeComment/VibeComment.sol:VibeComment",
						"label": "Comments",
						"offset": 0,
						"slot": "9",
						"type": "t_mapping(t_uint256,t_struct(Comment)624_storage)"
					}
				],
				"types": {
					"t_address": {
						"encoding": "inplace",
						"label": "address",
						"numberOfBytes": "20"
					},
					"t_array(t_enum(Type)278)dyn_storage": {
						"base": "t_enum(Type)278",
						"encoding": "dynamic_array",
						"label": "enum Types.Type[]",
						"numberOfBytes": "32"
					},
					"t_array(t_string_storage)dyn_storage": {
						"base": "t_string_storage",
						"encoding": "dynamic_array",
						"label": "string[]",
						"numberOfBytes": "32"
					},
					"t_enum(MethodTypes)8": {
						"encoding": "inplace",
						"label": "enum IComponent.MethodTypes",
						"numberOfBytes": "1"
					},
					"t_enum(Type)278": {
						"encoding": "inplace",
						"label": "enum Types.Type",
						"numberOfBytes": "1"
					},
					"t_mapping(t_address,t_mapping(t_uint256,t_uint256))": {
						"encoding": "mapping",
						"key": "t_address",
						"label": "mapping(address => mapping(uint256 => uint256))",
						"numberOfBytes": "32",
						"value": "t_mapping(t_uint256,t_uint256)"
					},
					"t_mapping(t_address,t_uint256)": {
						"encoding": "mapping",
						"key": "t_address",
						"label": "mapping(address => uint256)",
						"numberOfBytes": "32",
						"value": "t_uint256"
					},
					"t_mapping(t_enum(MethodTypes)8,t_array(t_string_storage)dyn_storage)": {
						"encoding": "mapping",
						"key": "t_enum(MethodTypes)8",
						"label": "mapping(enum IComponent.MethodTypes => string[])",
						"numberOfBytes": "32",
						"value": "t_array(t_string_storage)dyn_storage"
					},
					"t_mapping(t_string_memory_ptr,t_array(t_enum(Type)278)dyn_storage)": {
						"encoding": "mapping",
						"key": "t_string_memory_ptr",
						"label": "mapping(string => enum Types.Type[])",
						"numberOfBytes": "32",
						"value": "t_array(t_enum(Type)278)dyn_storage"
					},
					"t_mapping(t_uint256,t_mapping(t_uint256,t_uint256))": {
						"encoding": "mapping",
						"key": "t_uint256",
						"label": "mapping(uint256 => mapping(uint256 => uint256))",
						"numberOfBytes": "32",
						"value": "t_mapping(t_uint256,t_uint256)"
					},
					"t_mapping(t_uint256,t_struct(Comment)624_storage)": {
						"encoding": "mapping",
						"key": "t_uint256",
						"label": "mapping(uint256 => struct VibeComment.Comment)",
						"numberOfBytes": "32",
						"value": "t_struct(Comment)624_storage"
					},
					"t_mapping(t_uint256,t_uint256)": {
						"encoding": "mapping",
						"key": "t_uint256",
						"label": "mapping(uint256 => uint256)",
						"numberOfBytes": "32",
						"value": "t_uint256"
					},
					"t_string_memory_ptr": {
						"encoding": "bytes",
						"label": "string",
						"numberOfBytes": "32"
					},
					"t_string_storage": {
						"encoding": "bytes",
						"label": "string",
						"numberOfBytes": "32"
					},
					"t_struct(Comment)624_storage": {
						"encoding": "inplace",
						"label": "struct VibeComment.Comment",
						"members": [
							{
								"astId": 617,
								"contract": "contracts/AmeComponents/VibeComment/VibeComment.sol:VibeComment",
								"label": "vibeId",
								"offset": 0,
								"slot": "0",
								"type": "t_uint256"
							},
							{
								"astId": 619,
								"contract": "contracts/AmeComponents/VibeComment/VibeComment.sol:VibeComment",
								"label": "commentId",
								"offset": 0,
								"slot": "1",
								"type": "t_uint256"
							},
							{
								"astId": 621,
								"contract": "contracts/AmeComponents/VibeComment/VibeComment.sol:VibeComment",
								"label": "content",
								"offset": 0,
								"slot": "2",
								"type": "t_string_storage"
							},
							{
								"astId": 623,
								"contract": "contracts/AmeComponents/VibeComment/VibeComment.sol:VibeComment",
								"label": "user",
								"offset": 0,
								"slot": "3",
								"type": "t_address"
							}
						],
						"numberOfBytes": "128"
					},
					"t_uint256": {
						"encoding": "inplace",
						"label": "uint256",
						"numberOfBytes": "32"
					}
				}
			},
			"userdoc": {
				"events": {
					"Response(bytes)": {
						"notice": "Response data event."
					}
				},
				"kind": "user",
				"methods": {
					"get(string,bytes)": {
						"notice": "Request the contract to retrieve records."
					},
					"getMethodReqAndRes(string)": {
						"notice": "Get the data types of request parameters and return parameters based on the requested method name."
					},
					"getMethods(uint8)": {
						"notice": "Get method names based on request method type."
					},
					"options()": {
						"notice": "Supported request method types."
					},
					"post(string,bytes)": {
						"notice": "Request the contract to create a new record."
					},
					"put(string,bytes)": {
						"notice": "Request the contract to update a record."
					}
				},
				"version": 1
			}
		}
	}
}